{"contracts/katibeh721/Katibeh721.sol":{"Katibeh721":{"abi":[{"inputs":[],"stateMutability":"nonpayable","type":"constructor"},{"anonymous":false,"inputs":[{"indexed":true,"internalType":"address","name":"owner","type":"address"},{"indexed":true,"internalType":"address","name":"approved","type":"address"},{"indexed":true,"internalType":"uint256","name":"tokenId","type":"uint256"}],"name":"Approval","type":"event"},{"anonymous":false,"inputs":[{"indexed":true,"internalType":"address","name":"owner","type":"address"},{"indexed":true,"internalType":"address","name":"operator","type":"address"},{"indexed":false,"internalType":"bool","name":"approved","type":"bool"}],"name":"ApprovalForAll","type":"event"},{"anonymous":false,"inputs":[{"indexed":true,"internalType":"uint256","name":"tokenId","type":"uint256"},{"indexed":true,"internalType":"uint256","name":"toTokenId","type":"uint256"}],"name":"NewReply","type":"event"},{"anonymous":false,"inputs":[{"indexed":true,"internalType":"uint256","name":"tokenId","type":"uint256"},{"indexed":true,"internalType":"address","name":"creator","type":"address"},{"indexed":true,"internalType":"bytes","name":"data","type":"bytes"},{"indexed":false,"internalType":"uint256","name":"signTime","type":"uint256"},{"indexed":false,"internalType":"uint256","name":"initTime","type":"uint256"},{"indexed":false,"internalType":"uint256","name":"expTime","type":"uint256"}],"name":"NewToken","type":"event"},{"anonymous":false,"inputs":[{"indexed":false,"internalType":"uint256","name":"tokenId","type":"uint256"},{"indexed":true,"internalType":"bytes32","name":"tag1","type":"bytes32"},{"indexed":true,"internalType":"bytes32","name":"tag2","type":"bytes32"},{"indexed":true,"internalType":"bytes32","name":"tag3","type":"bytes32"}],"name":"Tags","type":"event"},{"anonymous":false,"inputs":[{"indexed":true,"internalType":"address","name":"from","type":"address"},{"indexed":true,"internalType":"address","name":"to","type":"address"},{"indexed":true,"internalType":"uint256","name":"tokenId","type":"uint256"}],"name":"Transfer","type":"event"},{"inputs":[{"internalType":"address","name":"to","type":"address"},{"internalType":"uint256","name":"tokenId","type":"uint256"}],"name":"approve","outputs":[],"stateMutability":"nonpayable","type":"function"},{"inputs":[{"internalType":"address","name":"owner","type":"address"}],"name":"balanceOf","outputs":[{"internalType":"uint256","name":"","type":"uint256"}],"stateMutability":"view","type":"function"},{"inputs":[{"internalType":"uint256","name":"tokenId","type":"uint256"}],"name":"burn","outputs":[],"stateMutability":"nonpayable","type":"function"},{"inputs":[],"name":"creatorAddresses","outputs":[{"internalType":"address[]","name":"creator","type":"address[]"}],"stateMutability":"view","type":"function"},{"inputs":[{"internalType":"uint256","name":"index","type":"uint256"}],"name":"creatorByIndex","outputs":[{"internalType":"address","name":"creator","type":"address"}],"stateMutability":"view","type":"function"},{"inputs":[{"internalType":"uint256[]","name":"index","type":"uint256[]"}],"name":"creatorsByIndexBatch","outputs":[{"internalType":"address[]","name":"creator","type":"address[]"}],"stateMutability":"view","type":"function"},{"inputs":[{"internalType":"uint256","name":"tokenId","type":"uint256"}],"name":"getApproved","outputs":[{"internalType":"address","name":"","type":"address"}],"stateMutability":"view","type":"function"},{"inputs":[{"components":[{"internalType":"address","name":"creator","type":"address"},{"internalType":"uint256","name":"signTime","type":"uint256"},{"internalType":"uint256","name":"initTime","type":"uint256"},{"internalType":"uint256","name":"expTime","type":"uint256"},{"internalType":"string","name":"tokenURI","type":"string"},{"internalType":"bytes","name":"data","type":"bytes"},{"internalType":"uint256[]","name":"toTokenId","type":"uint256[]"},{"internalType":"bytes32[]","name":"tags","type":"bytes32[]"},{"components":[{"internalType":"address","name":"addr","type":"address"},{"internalType":"uint16","name":"share","type":"uint16"}],"internalType":"struct DataStorage.Payee[]","name":"owners","type":"tuple[]"}],"internalType":"struct DataStorage.Katibeh","name":"katibeh","type":"tuple"}],"name":"getHash","outputs":[{"internalType":"bytes32","name":"","type":"bytes32"}],"stateMutability":"view","type":"function"},{"inputs":[{"internalType":"bytes32","name":"uriHash","type":"bytes32"}],"name":"getUriId","outputs":[{"internalType":"uint256","name":"","type":"uint256"}],"stateMutability":"view","type":"function"},{"inputs":[{"internalType":"address","name":"owner","type":"address"},{"internalType":"address","name":"operator","type":"address"}],"name":"isApprovedForAll","outputs":[{"internalType":"bool","name":"","type":"bool"}],"stateMutability":"view","type":"function"},{"inputs":[],"name":"name","outputs":[{"internalType":"string","name":"","type":"string"}],"stateMutability":"view","type":"function"},{"inputs":[],"name":"numberOfCreators","outputs":[{"internalType":"uint256","name":"","type":"uint256"}],"stateMutability":"view","type":"function"},{"inputs":[{"internalType":"address","name":"toCreator","type":"address"}],"name":"numberOfRepliesToCreator","outputs":[{"internalType":"uint256","name":"","type":"uint256"}],"stateMutability":"view","type":"function"},{"inputs":[{"internalType":"address[]","name":"toCreator","type":"address[]"}],"name":"numberOfRepliesToCreatorBatch","outputs":[{"internalType":"uint256[]","name":"count","type":"uint256[]"}],"stateMutability":"view","type":"function"},{"inputs":[{"internalType":"uint256","name":"tokenId","type":"uint256"}],"name":"numberOfTokenReplies","outputs":[{"internalType":"uint256","name":"","type":"uint256"}],"stateMutability":"view","type":"function"},{"inputs":[{"internalType":"uint256[]","name":"tokenId","type":"uint256[]"}],"name":"numberOfTokenRepliesBatch","outputs":[{"internalType":"uint256[]","name":"count","type":"uint256[]"}],"stateMutability":"view","type":"function"},{"inputs":[{"internalType":"bytes32","name":"tag","type":"bytes32"}],"name":"numberOfTokensByTag","outputs":[{"internalType":"uint256","name":"","type":"uint256"}],"stateMutability":"view","type":"function"},{"inputs":[{"internalType":"bytes32[]","name":"tag","type":"bytes32[]"}],"name":"numberOfTokensByTagBatch","outputs":[{"internalType":"uint256[]","name":"count","type":"uint256[]"}],"stateMutability":"view","type":"function"},{"inputs":[{"internalType":"address","name":"creator","type":"address"}],"name":"numberOfTokensOfCreator","outputs":[{"internalType":"uint256","name":"","type":"uint256"}],"stateMutability":"view","type":"function"},{"inputs":[{"internalType":"address[]","name":"creator","type":"address[]"}],"name":"numberOfTokensOfCreatorBatch","outputs":[{"internalType":"uint256[]","name":"count","type":"uint256[]"}],"stateMutability":"view","type":"function"},{"inputs":[],"name":"numberOfTokensTraceable","outputs":[{"internalType":"uint256","name":"count","type":"uint256"}],"stateMutability":"view","type":"function"},{"inputs":[{"internalType":"uint256","name":"tokenId","type":"uint256"}],"name":"ownerOf","outputs":[{"internalType":"address","name":"","type":"address"}],"stateMutability":"view","type":"function"},{"inputs":[{"internalType":"address","name":"toCreator","type":"address"}],"name":"repliesToCreator","outputs":[{"internalType":"uint256[]","name":"ids","type":"uint256[]"}],"stateMutability":"view","type":"function"},{"inputs":[{"internalType":"address","name":"toCreator","type":"address"},{"internalType":"uint256","name":"index","type":"uint256"}],"name":"repliesToCreatorByIndex","outputs":[{"internalType":"uint256","name":"id","type":"uint256"}],"stateMutability":"view","type":"function"},{"inputs":[{"internalType":"address","name":"toCreator","type":"address"},{"internalType":"uint256[]","name":"index","type":"uint256[]"}],"name":"repliesToCreatorByIndexBatch","outputs":[{"internalType":"uint256[]","name":"id","type":"uint256[]"}],"stateMutability":"view","type":"function"},{"inputs":[{"components":[{"internalType":"address","name":"creator","type":"address"},{"internalType":"uint256","name":"signTime","type":"uint256"},{"internalType":"uint256","name":"initTime","type":"uint256"},{"internalType":"uint256","name":"expTime","type":"uint256"},{"internalType":"string","name":"tokenURI","type":"string"},{"internalType":"bytes","name":"data","type":"bytes"},{"internalType":"uint256[]","name":"toTokenId","type":"uint256[]"},{"internalType":"bytes32[]","name":"tags","type":"bytes32[]"},{"components":[{"internalType":"address","name":"addr","type":"address"},{"internalType":"uint16","name":"share","type":"uint16"}],"internalType":"struct DataStorage.Payee[]","name":"owners","type":"tuple[]"}],"internalType":"struct DataStorage.Katibeh","name":"katibeh","type":"tuple"},{"internalType":"bytes","name":"sig","type":"bytes"},{"internalType":"bytes","name":"dappData","type":"bytes"}],"name":"safeMint","outputs":[{"internalType":"uint256","name":"tokenId","type":"uint256"}],"stateMutability":"nonpayable","type":"function"},{"inputs":[{"components":[{"internalType":"address","name":"creator","type":"address"},{"internalType":"uint256","name":"signTime","type":"uint256"},{"internalType":"uint256","name":"initTime","type":"uint256"},{"internalType":"uint256","name":"expTime","type":"uint256"},{"internalType":"string","name":"tokenURI","type":"string"},{"internalType":"bytes","name":"data","type":"bytes"},{"internalType":"uint256[]","name":"toTokenId","type":"uint256[]"},{"internalType":"bytes32[]","name":"tags","type":"bytes32[]"},{"components":[{"internalType":"address","name":"addr","type":"address"},{"internalType":"uint16","name":"share","type":"uint16"}],"internalType":"struct DataStorage.Payee[]","name":"owners","type":"tuple[]"}],"internalType":"struct DataStorage.Katibeh","name":"katibeh","type":"tuple"},{"internalType":"bytes","name":"sig","type":"bytes"},{"internalType":"bytes","name":"dappData","type":"bytes"}],"name":"safeMintAndSetTraceStorage","outputs":[],"stateMutability":"nonpayable","type":"function"},{"inputs":[{"internalType":"address","name":"from","type":"address"},{"internalType":"address","name":"to","type":"address"},{"internalType":"uint256","name":"tokenId","type":"uint256"}],"name":"safeTransferFrom","outputs":[],"stateMutability":"nonpayable","type":"function"},{"inputs":[{"internalType":"address","name":"from","type":"address"},{"internalType":"address","name":"to","type":"address"},{"internalType":"uint256","name":"tokenId","type":"uint256"},{"internalType":"bytes","name":"data","type":"bytes"}],"name":"safeTransferFrom","outputs":[],"stateMutability":"nonpayable","type":"function"},{"inputs":[{"internalType":"address","name":"operator","type":"address"},{"internalType":"bool","name":"approved","type":"bool"}],"name":"setApprovalForAll","outputs":[],"stateMutability":"nonpayable","type":"function"},{"inputs":[{"internalType":"bytes4","name":"interfaceId","type":"bytes4"}],"name":"supportsInterface","outputs":[{"internalType":"bool","name":"","type":"bool"}],"stateMutability":"view","type":"function"},{"inputs":[],"name":"symbol","outputs":[{"internalType":"string","name":"","type":"string"}],"stateMutability":"view","type":"function"},{"inputs":[],"name":"timeStamp","outputs":[{"internalType":"uint256","name":"","type":"uint256"}],"stateMutability":"view","type":"function"},{"inputs":[{"internalType":"uint256","name":"index","type":"uint256"}],"name":"tokenByIndex","outputs":[{"internalType":"uint256","name":"","type":"uint256"}],"stateMutability":"view","type":"function"},{"inputs":[{"internalType":"uint256","name":"index","type":"uint256"}],"name":"tokenByIndexTraceable","outputs":[{"internalType":"uint256","name":"id","type":"uint256"}],"stateMutability":"view","type":"function"},{"inputs":[{"internalType":"uint256","name":"tokenId","type":"uint256"}],"name":"tokenInfo","outputs":[{"components":[{"internalType":"address","name":"creator","type":"address"},{"internalType":"uint256","name":"signTime","type":"uint256"},{"internalType":"uint256","name":"initTime","type":"uint256"},{"internalType":"uint256","name":"expTime","type":"uint256"},{"internalType":"string","name":"tokenURI","type":"string"},{"internalType":"bytes","name":"data","type":"bytes"},{"internalType":"uint256[]","name":"toTokenId","type":"uint256[]"},{"internalType":"bytes32[]","name":"tags","type":"bytes32[]"},{"components":[{"internalType":"address","name":"addr","type":"address"},{"internalType":"uint16","name":"share","type":"uint16"}],"internalType":"struct DataStorage.Payee[]","name":"owners","type":"tuple[]"}],"internalType":"struct DataStorage.Katibeh","name":"katibeh","type":"tuple"},{"internalType":"uint256","name":"mintTime","type":"uint256"},{"internalType":"bytes","name":"sig","type":"bytes"},{"internalType":"bytes","name":"dappData","type":"bytes"}],"stateMutability":"view","type":"function"},{"inputs":[{"internalType":"uint256","name":"","type":"uint256"}],"name":"tokenMintTime","outputs":[{"internalType":"uint256","name":"","type":"uint256"}],"stateMutability":"view","type":"function"},{"inputs":[{"internalType":"address","name":"creator","type":"address"},{"internalType":"uint256","name":"index","type":"uint256"}],"name":"tokenOfCreatorByIndex","outputs":[{"internalType":"uint256","name":"id","type":"uint256"}],"stateMutability":"view","type":"function"},{"inputs":[{"internalType":"address","name":"owner","type":"address"},{"internalType":"uint256","name":"index","type":"uint256"}],"name":"tokenOfOwnerByIndex","outputs":[{"internalType":"uint256","name":"","type":"uint256"}],"stateMutability":"view","type":"function"},{"inputs":[{"internalType":"bytes32","name":"tag","type":"bytes32"},{"internalType":"uint256","name":"index","type":"uint256"}],"name":"tokenOfTagByIndex","outputs":[{"internalType":"uint256","name":"id","type":"uint256"}],"stateMutability":"view","type":"function"},{"inputs":[{"internalType":"uint256","name":"tokenId","type":"uint256"}],"name":"tokenReplies","outputs":[{"internalType":"uint256[]","name":"ids","type":"uint256[]"}],"stateMutability":"view","type":"function"},{"inputs":[{"internalType":"uint256","name":"tokenId","type":"uint256"},{"internalType":"uint256[]","name":"index","type":"uint256[]"}],"name":"tokenRepliesByIndexBatch","outputs":[{"internalType":"uint256[]","name":"id","type":"uint256[]"}],"stateMutability":"view","type":"function"},{"inputs":[{"internalType":"uint256","name":"tokenId","type":"uint256"},{"internalType":"uint256","name":"index","type":"uint256"}],"name":"tokenReplyByIndex","outputs":[{"internalType":"uint256","name":"id","type":"uint256"}],"stateMutability":"view","type":"function"},{"inputs":[{"internalType":"uint256","name":"tokenId","type":"uint256"}],"name":"tokenShareholders","outputs":[{"components":[{"internalType":"address","name":"addr","type":"address"},{"internalType":"uint16","name":"share","type":"uint16"}],"internalType":"struct DataStorage.Payee[]","name":"_owners_","type":"tuple[]"}],"stateMutability":"view","type":"function"},{"inputs":[{"internalType":"uint256","name":"tokenId","type":"uint256"}],"name":"tokenURI","outputs":[{"internalType":"string","name":"","type":"string"}],"stateMutability":"view","type":"function"},{"inputs":[{"internalType":"uint256[]","name":"index","type":"uint256[]"}],"name":"tokensByIndexTraceableBatch","outputs":[{"internalType":"uint256[]","name":"id","type":"uint256[]"}],"stateMutability":"view","type":"function"},{"inputs":[{"internalType":"uint256[]","name":"tokenId","type":"uint256[]"}],"name":"tokensInfoBatch","outputs":[{"components":[{"internalType":"address","name":"creator","type":"address"},{"internalType":"uint256","name":"signTime","type":"uint256"},{"internalType":"uint256","name":"initTime","type":"uint256"},{"internalType":"uint256","name":"expTime","type":"uint256"},{"internalType":"string","name":"tokenURI","type":"string"},{"internalType":"bytes","name":"data","type":"bytes"},{"internalType":"uint256[]","name":"toTokenId","type":"uint256[]"},{"internalType":"bytes32[]","name":"tags","type":"bytes32[]"},{"components":[{"internalType":"address","name":"addr","type":"address"},{"internalType":"uint16","name":"share","type":"uint16"}],"internalType":"struct DataStorage.Payee[]","name":"owners","type":"tuple[]"}],"internalType":"struct DataStorage.Katibeh[]","name":"katibeh","type":"tuple[]"},{"internalType":"uint256[]","name":"mintTime","type":"uint256[]"},{"internalType":"bytes[]","name":"sig","type":"bytes[]"},{"internalType":"bytes[]","name":"dappData","type":"bytes[]"}],"stateMutability":"view","type":"function"},{"inputs":[{"internalType":"address","name":"creator","type":"address"}],"name":"tokensOfCreator","outputs":[{"internalType":"uint256[]","name":"ids","type":"uint256[]"}],"stateMutability":"view","type":"function"},{"inputs":[{"internalType":"address","name":"creator","type":"address"},{"internalType":"uint256[]","name":"index","type":"uint256[]"}],"name":"tokensOfCreatorByIndexBatch","outputs":[{"internalType":"uint256[]","name":"id","type":"uint256[]"}],"stateMutability":"view","type":"function"},{"inputs":[{"internalType":"bytes32","name":"tag","type":"bytes32"}],"name":"tokensOfTag","outputs":[{"internalType":"uint256[]","name":"ids","type":"uint256[]"}],"stateMutability":"view","type":"function"},{"inputs":[{"internalType":"bytes32","name":"tag","type":"bytes32"},{"internalType":"uint256[]","name":"index","type":"uint256[]"}],"name":"tokensOfTagByIndexBatch","outputs":[{"internalType":"uint256[]","name":"id","type":"uint256[]"}],"stateMutability":"view","type":"function"},{"inputs":[],"name":"totalSupply","outputs":[{"internalType":"uint256","name":"","type":"uint256"}],"stateMutability":"view","type":"function"},{"inputs":[{"internalType":"address","name":"creator","type":"address"},{"internalType":"uint256","name":"id","type":"uint256"}],"name":"traceTokenByCreator","outputs":[{"internalType":"uint256","name":"numberOfPreviousIds","type":"uint256"},{"internalType":"uint256","name":"numberOfNextIds","type":"uint256"},{"internalType":"uint256","name":"previousId","type":"uint256"},{"internalType":"uint256","name":"nextId","type":"uint256"}],"stateMutability":"view","type":"function"},{"inputs":[{"internalType":"uint256","name":"id","type":"uint256"}],"name":"traceTokenById","outputs":[{"internalType":"uint256","name":"numberOfPreviousIds","type":"uint256"},{"internalType":"uint256","name":"numberOfNextIds","type":"uint256"},{"internalType":"uint256","name":"previousId","type":"uint256"},{"internalType":"uint256","name":"nextId","type":"uint256"}],"stateMutability":"view","type":"function"},{"inputs":[{"internalType":"bytes32","name":"tag","type":"bytes32"},{"internalType":"uint256","name":"id","type":"uint256"}],"name":"traceTokenByTag","outputs":[{"internalType":"uint256","name":"numberOfPreviousIds","type":"uint256"},{"internalType":"uint256","name":"numberOfNextIds","type":"uint256"},{"internalType":"uint256","name":"previousId","type":"uint256"},{"internalType":"uint256","name":"nextId","type":"uint256"}],"stateMutability":"view","type":"function"},{"inputs":[{"internalType":"address","name":"from","type":"address"},{"internalType":"address","name":"to","type":"address"},{"internalType":"uint256","name":"tokenId","type":"uint256"}],"name":"transferFrom","outputs":[],"stateMutability":"nonpayable","type":"function"}],"evm":{"bytecode":{"linkReferences":{},"object":"60803462000311576001600160401b039060409080820183811182821017620002fb578252600a8152602092694b61746962656837323160b01b84830152825183810181811083821117620002fb578452600781526609682a892848a960cb1b85820152825190828211620002fb5760008054926001958685811c95168015620002f0575b89861014620002dc578190601f9586811162000289575b5089908683116001146200022557849262000219575b5050600019600383901b1c191690861b1781555b8151938411620002055784548581811c91168015620001fa575b88821014620001e6578381116200019e575b508692841160011462000138578394959650926200012c575b5050600019600383901b1c191690821b1790555b516158049081620003178239f35b0151905038806200010a565b9190601f1984169685845280842093905b8882106200018657505083859697106200016c575b505050811b0190556200011e565b015160001960f88460031b161c191690553880806200015e565b80878596829496860151815501950193019062000149565b8582528782208480870160051c8201928a8810620001dc575b0160051c019086905b828110620001d0575050620000f1565b838155018690620001c0565b92508192620001b7565b634e487b7160e01b82526022600452602482fd5b90607f1690620000df565b634e487b7160e01b81526041600452602490fd5b015190503880620000b1565b8480528a85208994509190601f198416865b8d82821062000272575050841162000258575b505050811b018155620000c5565b015160001960f88460031b161c191690553880806200024a565b8385015186558c9790950194938401930162000237565b9091508380528984208680850160051c8201928c8610620002d2575b918a91869594930160051c01915b828110620002c35750506200009b565b8681558594508a9101620002b3565b92508192620002a5565b634e487b7160e01b83526022600452602483fd5b94607f169462000084565b634e487b7160e01b600052604160045260246000fd5b600080fdfe60406080815260048036101561001457600080fd5b600090813560e01c908163017642e414612cf657816301ffc9a714612bcf57816306fdde0314612b09578163081812fc14612ab6578163095ea7b3146128b65781630ab0df871461287d578163132e75d61461281b5781631674ed4b1461277657816318160ddd146127395781631ae69b61146126fc57816323b872dd146126d7578163261566361461269957816329c7785f146126705781632b0eca8c1461246b5781632c230901146123dc5781632e0d0718146123955781632f745c591461229257816331d99545146121fe5781633552d220146121e257816339d77f2514611fd157816340b9475714611f2f57816342842e0e14611efb57816342966c68146119e65781634667c8841461199f5781634832e8f3146116fc5781634f6ccce71461162d5781634fc09275146115e657816360f6a4a3146115805781636352211e1461152d578163662ec09e146111265781636d571b6a146110cb57816370a08231146110875781637372e98d1461106857816378292236146110215781638282674f14610fd857816383b81ebd14610f9157816389f6571514610f3f5781638f93fb3914610e9e57816395d89b4114610d9157816396cc6a3414610cf6578163a22cb46514610bc7578163af3ea10514610b31578163b158220114610aba578163b88d4fde146109e8578163bfc9b3641461099e578163c03d1d91146108a9578163c3512876146106ec578163c87b56dd1461067e578163cc33c87514610603578163cca3c7661461055a578163dd4687911461051d578163e985e9c5146104a4578163f353a73214610437578163f6bd7ab81461039757508063f99458a4146103205763fe649b7e1461028a57600080fd5b3461031d5761029836612ebe565b926102a584939293614fae565b93815b8181106102c8578651602080825281906102c490820189612dc5565b0390f35b806103016102da610318938589614ee0565b3573ffffffffffffffffffffffffffffffffffffffff871686526016602052898620613f0b565b90549060031b1c6103128289615071565b52614eb3565b6102a8565b80fd5b50903461039357807ffffffffffffffffffffffffffffffffffffffffffffffffffffffffffffffffc3601126103935761038560209273ffffffffffffffffffffffffffffffffffffffff610373612e57565b16815260168452826024359120613f0b565b91905490519160031b1c8152f35b5080fd5b9050346103935760207ffffffffffffffffffffffffffffffffffffffffffffffffffffffffffffffffc36011261039357803567ffffffffffffffff8111610433576103e591369101612d8f565b6103ee81614fae565b925b81811061040c578451602080825281906102c490820187612dc5565b8061042461041e61042e938587614ee0565b35615488565b6103128287615071565b6103f0565b8280fd5b8284346103935760207ffffffffffffffffffffffffffffffffffffffffffffffffffffffffffffffffc3601126103935760209061049d610476612e57565b73ffffffffffffffffffffffffffffffffffffffff16600052601660205260406000205490565b9051908152f35b82843461039357807ffffffffffffffffffffffffffffffffffffffffffffffffffffffffffffffffc3601126103935760ff816020936104e2612e57565b6104ea612e7a565b73ffffffffffffffffffffffffffffffffffffffff91821683526005875283832091168252855220549151911615158152f35b82843461039357817ffffffffffffffffffffffffffffffffffffffffffffffffffffffffffffffffc36011261039357602090600f549051908152f35b9050823461043357602091827ffffffffffffffffffffffffffffffffffffffffffffffffffffffffffffffffc3601126105ff5780359067ffffffffffffffff82116105fb576105ac91369101612d8f565b936105b685614fae565b94815b8181106105d2578451868152806102c48189018a612dc5565b806105e16105f6928487614ee0565b3584526015875285842054610312828a615071565b6105b9565b8480fd5b8380fd5b83833461031d5760207ffffffffffffffffffffffffffffffffffffffffffffffffffffffffffffffffc36011261031d57506102c461067061064861065e94356150d4565b939295805197889760808952608089019061301a565b92602088015286830390870152612df9565b908382036060850152612df9565b839150346104335760207ffffffffffffffffffffffffffffffffffffffffffffffffffffffffffffffffc36011261043357906106da82826102c4956106d395358152600a6020522001825193848092613546565b0383613333565b51918291602083526020830190612df9565b83833461031d57817ffffffffffffffffffffffffffffffffffffffffffffffffffffffffffffffffc36011261031d57610724612e57565b8173ffffffffffffffffffffffffffffffffffffffff8392168352601260205283832093610754602435866154a4565b93610760858754613f23565b957fffffffffffffffffffffffffffffffffffffffffffffffffffffffffffffffff80880197881161087d5786610823575b50866107bc575b505051928352602083019390935260408201929092526060810191909152608090f35b90919350600185018086116107f7576102c495969750906107df60029282613f0b565b90549060031b1c809352016020529185949387610799565b60248360118a7f4e487b7100000000000000000000000000000000000000000000000000000000835252fd5b9093508501858111610851576108399084613f0b565b90549060031b1c808252600284016020529288610792565b60248260118a7f4e487b7100000000000000000000000000000000000000000000000000000000835252fd5b60248360118b7f4e487b7100000000000000000000000000000000000000000000000000000000835252fd5b9050346103935760207ffffffffffffffffffffffffffffffffffffffffffffffffffffffffffffffffc36011261039357803567ffffffffffffffff8111610433576108f791369101612d8f565b61090381949294614f4e565b9261091083519485613333565b8184527fffffffffffffffffffffffffffffffffffffffffffffffffffffffffffffffe061093d83614f4e565b013660208601375b818110610959578251806102c48682613192565b8061097161096b610999938589614ee0565b35615709565b73ffffffffffffffffffffffffffffffffffffffff6109908388615071565b91169052614eb3565b610945565b8391503461043357817ffffffffffffffffffffffffffffffffffffffffffffffffffffffffffffffffc360112610433576020926103859135815260158452826024359120613f0b565b905082346104335760807ffffffffffffffffffffffffffffffffffffffffffffffffffffffffffffffffc36011261043357610a22612e57565b90610a2b612e7a565b604435906064359467ffffffffffffffff8611610ab65736602387011215610ab65785013593610a66610a5d86613374565b94519485613333565b84845286366024878901011161031d57602086610aae976024610ab39a018389013786010152610a9e610a99843361376e565b613657565b610aa9838383613874565b613de2565b6136e2565b80f35b8680fd5b8284346103935760207ffffffffffffffffffffffffffffffffffffffffffffffffffffffffffffffffc36011261039357610b1e816102c49373ffffffffffffffffffffffffffffffffffffffff610b10612e57565b168152601660205220615085565b9051918291602083526020830190612dc5565b9050823461043357602091827ffffffffffffffffffffffffffffffffffffffffffffffffffffffffffffffffc3601126105ff573583526017825280832092835490610b7c82614fae565b946002810190825b848110610b9d578551878152806102c4818a018b612dc5565b80610bab610bc29284613f0b565b90549060031b1c808652848952610312828b615071565b610b84565b9050823461043357807ffffffffffffffffffffffffffffffffffffffffffffffffffffffffffffffffc36011261043357610c00612e57565b90602435918215158093036105fb5773ffffffffffffffffffffffffffffffffffffffff1692833314610c9a575033845260056020528084208385526020528084207fffffffffffffffffffffffffffffffffffffffffffffffffffffffffffffff0081541660ff8416179055519081527f17307eab39ab6107e8899845ad3d59bd9653f200f220920489ca2b5937696c3160203392a380f35b602060649251917f08c379a0000000000000000000000000000000000000000000000000000000008352820152601960248201527f4552433732313a20617070726f766520746f2063616c6c6572000000000000006044820152fd5b82843461039357602090817ffffffffffffffffffffffffffffffffffffffffffffffffffffffffffffffffc3601126104335773ffffffffffffffffffffffffffffffffffffffff610d46612e57565b1683526012825280832092835490610d5d82614fae565b946002810190825b848110610d7e578551878152806102c4818a018b612dc5565b80610bab610d8c9284613f0b565b610d65565b82843461039357817ffffffffffffffffffffffffffffffffffffffffffffffffffffffffffffffffc36011261039357805190826001805491610dd3836134f3565b80865292828116908115610e585750600114610dfc575b5050506106da826102c4940383613333565b94508085527fb10e2d527612073b26eecdfd717e6a320cf44b4afac2b0732d9fcbe2b7fa0cf65b828610610e40575050506106da8260206102c49582010194610dea565b80546020878701810191909152909501948101610e23565b6102c49750869350602092506106da9491507fffffffffffffffffffffffffffffffffffffffffffffffffffffffffffffff001682840152151560051b82010194610dea565b9050823461043357602091827ffffffffffffffffffffffffffffffffffffffffffffffffffffffffffffffffc3601126105ff5780359067ffffffffffffffff82116105fb57610ef091369101612d8f565b93610efa85614fae565b94815b818110610f16578451868152806102c48189018a612dc5565b80610f25610f3a928487614ee0565b3584526017875285842054610312828a615071565b610efd565b83833461031d5760207ffffffffffffffffffffffffffffffffffffffffffffffffffffffffffffffffc36011261031d5750610f7e6102c492356152af565b9051918291602083526020830190612fc1565b839150346104335760207ffffffffffffffffffffffffffffffffffffffffffffffffffffffffffffffffc360112610433576020928291358152600e845220549051908152f35b839150346104335760207ffffffffffffffffffffffffffffffffffffffffffffffffffffffffffffffffc36011261043357816102c493610b1e92358152601560205220615085565b839150346104335760207ffffffffffffffffffffffffffffffffffffffffffffffffffffffffffffffffc360112610433576020928291358152600b845220549051908152f35b8284346103935760209061049d61107e36613211565b93929092614115565b8284346103935760207ffffffffffffffffffffffffffffffffffffffffffffffffffffffffffffffffc3601126103935760209061049d6110c6612e57565b6133ae565b83833461031d5760207ffffffffffffffffffffffffffffffffffffffffffffffffffffffffffffffffc36011261031d575073ffffffffffffffffffffffffffffffffffffffff61111e60209335615709565b915191168152f35b828434610393576020917ffffffffffffffffffffffffffffffffffffffffffffffffffffffffffffffffc90838236011261031d5784359467ffffffffffffffff9182871161031d57868201938736039761012080928a01126104335760249081810135967ffffffffffffffffffffffffffffffffffffffffffffffffffffffffffffff1f0880188811161150257421015806114ee575b1561146d576044820135808911158061145f575b156113b857916112cb8b9c94928b9c9b97969488519b8d8d019d8e528c73ffffffffffffffffffffffffffffffffffffffff9a8b61120f86612e9d565b1691015260608d015260808c0152606483013560a08c01528a6112496112386084860184613f30565b8860c0850152610160840191613f80565b956112bb6112b061129261126060a4890187613f30565b7fffffffffffffffffffffffffffffffffffffffffffffffffffffffffffffffc09b918c8884030160e0890152613f80565b61129f60c4890187613fbf565b908b87840301610100880152614012565b9360e4870190613fbf565b9290918882860301910152614012565b937fffffffffffffffffffffffffffffffffffffffffffffffffffffffffffffffdd61010483013591018112156113b45701958601359501958511610433578460061b36038613610433578682030161014087015283815285939089019290919081905b838310611375575050505061136b9250037fffffffffffffffffffffffffffffffffffffffffffffffffffffffffffffffe08101835282613333565b5190209051908152f35b8092949193955061138587612e9d565b1681528986013561ffff81168091036105ff57898281928d60019501520196019301909186949295939561132f565b8580fd5b60a487605c868e8e51937f08c379a00000000000000000000000000000000000000000000000000000000085528401528201527f4b6174696265683732313a207369676e2074696d65206d757374206265206c6560448201527f7373207468616e20696e69742074696d65202620696e69742074696d65206d7560648201527f7374206265206c657373207468616e206578706972652074696d652e000000006084820152fd5b5060648301358111156111d2565b6084866033858d8d51937f08c379a00000000000000000000000000000000000000000000000000000000085528401528201527f4b6174696265683732313a206d6f7265207468616e203120686f75727320736960448201527f676e2074696d6520646966666572656e63652e000000000000000000000000006064820152fd5b50610e1088018089116115025742106111be565b83866011897f4e487b7100000000000000000000000000000000000000000000000000000000835252fd5b83833461031d5760207ffffffffffffffffffffffffffffffffffffffffffffffffffffffffffffffffc36011261031d575073ffffffffffffffffffffffffffffffffffffffff61111e602093356134c4565b8284346103935760207ffffffffffffffffffffffffffffffffffffffffffffffffffffffffffffffffc3601126103935760209061049d6115bf612e57565b73ffffffffffffffffffffffffffffffffffffffff16600052601260205260406000205490565b82843461039357807ffffffffffffffffffffffffffffffffffffffffffffffffffffffffffffffffc3601126103935760209061049d611624612e57565b602435906156c7565b9190503461031d5760207ffffffffffffffffffffffffffffffffffffffffffffffffffffffffffffffffc36011261031d57508035906008548210156116795760208361038584613ed4565b60849060208451917f08c379a0000000000000000000000000000000000000000000000000000000008352820152602c60248201527f455243373231456e756d657261626c653a20676c6f62616c20696e646578206f60448201527f7574206f6620626f756e647300000000000000000000000000000000000000006064820152fd5b8284346103935761171c9061171036613211565b92849694929192614115565b91600f549083855260209160118352838620556117388461554a565b5073ffffffffffffffffffffffffffffffffffffffff806117588361404f565b1686526012835261177a858588208054828a52600282018752878a205561566b565b5061178e816117888461404f565b166155ce565b5060c082019061179e82846140c1565b929050875b83811061193b57505050508060e06117bc9201906140c1565b809391931580156117cb578680f35b61190f578335936117dc858761576d565b600182116117e8578680f35b81600110156118e3578381013591611800838861576d565b611826845186810190888252858782015286815261181d81613317565b5190208861576d565b6002811161183357508680f35b600210156118e35782013590611849828761576d565b61186f835185810190838252848682015285815261186681613317565b5190208761576d565b825193840194855282840152606083015260608252608082019082821067ffffffffffffffff8311176118b7576118ac959650525190209061576d565b808280808080808680f35b6024866041897f4e487b7100000000000000000000000000000000000000000000000000000000835252fd5b60248760328a7f4e487b7100000000000000000000000000000000000000000000000000000000835252fd5b6024866032897f4e487b7100000000000000000000000000000000000000000000000000000000835252fd5b8061195361199a9261194d85896140c1565b90614ee0565b358a526015875261196689898c2061566b565b506119758161194d85896140c1565b358a52600a875283888b2054168a526016875261199489898c2061566b565b50614eb3565b6117a3565b839150346104335760207ffffffffffffffffffffffffffffffffffffffffffffffffffffffffffffffffc3601126104335760209282913581526017845220549051908152f35b905034610393576020807ffffffffffffffffffffffffffffffffffffffffffffffffffffffffffffffffc360112610433578135611a27610a99823361376e565b611a30816134c4565b73ffffffffffffffffffffffffffffffffffffffff908181169081158081159182611ef3575b15611e715715611dc45750505060085482865260098452808787205568010000000000000000811015611d9857611acc611a97826001869401600855613ed4565b81939154907fffffffffffffffffffffffffffffffffffffffffffffffffffffffffffffffff9060031b92831b921b19161790565b90555b600854907fffffffffffffffffffffffffffffffffffffffffffffffffffffffffffffffff91828101908111611d6c5783875260098552611b138888205491613ed4565b90549060031b1c80611b27611a9784613ed4565b90558752600985528787205582865285878120556008548015611d405795828694928299947f766269423061476c7a4947356c64486476636d7375496e3000000000000000009901611b7881613ed4565b8482549160031b1b19169055600855611b90846134c4565b90848452868852858420917fffffffffffffffffffffffff000000000000000000000000000000000000000092838154169055169182845260038852858420908154019055838352600287528483209081541690557fddf252ad1be2c89b69c2b068fc378daa952ba7f163c4a11628f55a4df523b3ef8280a4600a83528581812091600d85528120611c2281546134f3565b80611d04575b50505001611c3681546134f3565b601f8111611ce3575b506101318155845283207f646174613a6170706c69636174696f6e2f6a736f6e3b6261736536342c65794a81557f755957316c496a6f67496c526f61584d67644739725a57346761584d67596e5660018201557f79626d566b4c694973496d526c63324e796158423061573975496a6f67496c5260028201557f766132567549476c7a494735766443426a623278735a574e3061574a735a53426003820155015580f35b611cfe908287526005601f8589209201811c82019101614ef0565b38611c3f565b82601f8211600114611d1c575050555b853880611c28565b9091808252611d39601f888420940160051c840160018501614ef0565b5555611d14565b6024876031887f4e487b7100000000000000000000000000000000000000000000000000000000835252fd5b6024876011887f4e487b7100000000000000000000000000000000000000000000000000000000835252fd5b6024866041877f4e487b7100000000000000000000000000000000000000000000000000000000835252fd5b611dd0575b5050611acf565b611dd9906133ae565b907fffffffffffffffffffffffffffffffffffffffffffffffffffffffffffffffff8201918211611d6c578387526007855287872054828103611e3a575b508387528688812055865260068452868620908652835284868120553880611dc9565b8188526006865288882083895286528888205482895260068752898920828a528752808a8a20558852600786528888205538611e17565b608488888c51917f08c379a0000000000000000000000000000000000000000000000000000000008352820152602660248201527f746f6b656e732063616e6e6f74206265207472616e736665726564206f6e207460448201527f6573746e657400000000000000000000000000000000000000000000000000006064820152fd5b506001611a56565b82843461039357610aae610ab391611f1236612f2d565b91925192611f1f846132fb565b868452610a9e610a99843361376e565b50503461031d57807ffffffffffffffffffffffffffffffffffffffffffffffffffffffffffffffffc36011261031d578151918291601354808552602080950194601383527f66de8ffda797e3de9c05e8fc57b3bf0ec28a930d40b0d285d93c06501cf6a09092905b828210611fba576102c48686611fb0828b0383613333565b5191829182613192565b835487529586019560019384019390910190611f98565b83833461031d57602091827ffffffffffffffffffffffffffffffffffffffffffffffffffffffffffffffffc36011261039357818291853584526011938486528181205494851596871580986121d2575b156121765761203387600f54613f23565b977fffffffffffffffffffffffffffffffffffffffffffffffffffffffffffffffff90818a01998a1161214b576120f7575b5087612096575b505050906102c4929151948594859094939260609260808301968352602083015260408201520152565b909192945060018601978887116120cc57506120b66102c4969798613e6e565b90549060031b1c8093525291859493878061206c565b83836024927f4e487b7100000000000000000000000000000000000000000000000000000000835252fd5b90945086018681116121205761210c90613e6e565b90549060031b1c8083528185529389612065565b602483838b7f4e487b7100000000000000000000000000000000000000000000000000000000835252fd5b602485858d7f4e487b7100000000000000000000000000000000000000000000000000000000835252fd5b886064918551917f08c379a0000000000000000000000000000000000000000000000000000000008352820152601e60248201527f456e756d657261626c654d61703a206e6f6e6578697374656e74206b657900006044820152fd5b5060108152838320541515612022565b8284346103935760209061049d6121f836612f8d565b90615754565b9050346103935760207ffffffffffffffffffffffffffffffffffffffffffffffffffffffffffffffffc36011261039357803567ffffffffffffffff81116104335761224c91369101612d8f565b61225581614fae565b925b818110612273578451602080825281906102c490820187612dc5565b806104246115bf61228861228d948688614ee0565b61404f565b612257565b83833461031d57817ffffffffffffffffffffffffffffffffffffffffffffffffffffffffffffffffc36011261031d576122ca612e57565b602435906122d7816133ae565b82101561231257602092849273ffffffffffffffffffffffffffffffffffffffff849316825260068552828220908252845220549051908152f35b60848560208651917f08c379a0000000000000000000000000000000000000000000000000000000008352820152602b60248201527f455243373231456e756d657261626c653a206f776e657220696e646578206f7560448201527f74206f6620626f756e64730000000000000000000000000000000000000000006064820152fd5b839150346104335760207ffffffffffffffffffffffffffffffffffffffffffffffffffffffffffffffffc3601126104335760209282913581526015845220549051908152f35b9050346103935760207ffffffffffffffffffffffffffffffffffffffffffffffffffffffffffffffffc36011261039357803567ffffffffffffffff81116104335761242a91369101612d8f565b61243381614fae565b925b818110612451578451602080825281906102c490820187612dc5565b80610424610476612288612466948688614ee0565b612435565b9050823461043357602091827ffffffffffffffffffffffffffffffffffffffffffffffffffffffffffffffffc3601126105ff5780359067ffffffffffffffff82116105fb576124c091949394369101612d8f565b91906124cb83614f4e565b6124d783519182613333565b8381527fffffffffffffffffffffffffffffffffffffffffffffffffffffffffffffffe061250485614f4e565b01855b81811061264d57505061251984614fae565b61252285614ffd565b9261252c86614ffd565b95875b8181106125ef5750505083519687966080880160808952845180915260a089018360a08360051b8c0101960192905b82821061259c578a8703858c01528a806102c48c61258e8d8d6125818e8e612dc5565b9186830390870152613118565b908382036060850152613118565b9193806125da887fffffffffffffffffffffffffffffffffffffffffffffffffffffffffffffff60600195979b9c9d9e849a9b030186528a5161301a565b9801920192018a99989796959493919261255e565b8061261f818a61261461260e9d9e98999a9b9c9d61264096888a614ee0565b356150d4565b929591949093615071565b5261262a848c615071565b526126358389615071565b526103128289615071565b989796959493929861252f565b968092939495969761265d614f66565b8282870101520196959493929196612507565b83833461031d5761268036612f8d565b92829083928452601760205261075481852095866154a4565b83833461031d5760207ffffffffffffffffffffffffffffffffffffffffffffffffffffffffffffffffc36011261031d575061049d60209235615488565b823461031d57610ab36126e936612f2d565b916126f7610a99843361376e565b613874565b82843461039357817ffffffffffffffffffffffffffffffffffffffffffffffffffffffffffffffffc360112610393576020906013549051908152f35b82843461039357817ffffffffffffffffffffffffffffffffffffffffffffffffffffffffffffffffc360112610393576020906008549051908152f35b9190503461031d57827ffffffffffffffffffffffffffffffffffffffffffffffffffffffffffffffffc36011261031d5781359160243567ffffffffffffffff8111610433576127c891369101612d8f565b9290916127d484614fae565b93815b8181106127f3578651602080825281906102c490820189612dc5565b80610301612805612816938589614ee0565b358686526015602052898620613f0b565b6127d7565b50503461031d5761282b36612ebe565b61283781939293614fae565b935b818110612855578551602080825281906102c490820188612dc5565b8061286e612867612878938588614ee0565b35856156c7565b6103128288615071565b612839565b82843461039357817ffffffffffffffffffffffffffffffffffffffffffffffffffffffffffffffffc3601126103935760209051428152f35b8391503461043357817ffffffffffffffffffffffffffffffffffffffffffffffffffffffffffffffffc360112610433576128ef612e57565b906024359273ffffffffffffffffffffffffffffffffffffffff918280612915876134c4565b16941693808514612a3357803314908115612a14575b5015612992578486526020528420827fffffffffffffffffffffffff000000000000000000000000000000000000000082541617905561296a836134c4565b167f8c5be1e5ebec7d5bd14f71427d1e84f3dd0314c0f7b2291e5b200ac8c7c3b9258480a480f35b602060849251917f08c379a0000000000000000000000000000000000000000000000000000000008352820152603d60248201527f4552433732313a20617070726f76652063616c6c6572206973206e6f7420746f60448201527f6b656e206f776e6572206f7220617070726f76656420666f7220616c6c0000006064820152fd5b90508652600560205281862033875260205260ff82872054168761292b565b50602060849251917f08c379a0000000000000000000000000000000000000000000000000000000008352820152602160248201527f4552433732313a20617070726f76616c20746f2063757272656e74206f776e6560448201527f72000000000000000000000000000000000000000000000000000000000000006064820152fd5b83833461031d5760207ffffffffffffffffffffffffffffffffffffffffffffffffffffffffffffffffc36011261031d575073ffffffffffffffffffffffffffffffffffffffff61111e602093356135fb565b82843461039357817ffffffffffffffffffffffffffffffffffffffffffffffffffffffffffffffffc36011261039357805190828054612b48816134f3565b80855291600191808316908115610e585750600114612b73575050506106da826102c4940383613333565b80809650527f290decd9548b62a8d60345a988386fc84ba6bc95484008f6362f93160ef3e5635b828610612bb7575050506106da8260206102c49582010194610dea565b80546020878701810191909152909501948101612b9a565b839150346104335760207ffffffffffffffffffffffffffffffffffffffffffffffffffffffffffffffffc3601126104335735907fffffffff00000000000000000000000000000000000000000000000000000000821680920361043357602092507f780e9d63000000000000000000000000000000000000000000000000000000008214918215612c65575b50519015158152f35b9091507f80ac58cd000000000000000000000000000000000000000000000000000000008114908115612ccc575b8115612ca2575b509083612c5c565b7f01ffc9a70000000000000000000000000000000000000000000000000000000091501483612c9a565b7f5b5e139f0000000000000000000000000000000000000000000000000000000081149150612c93565b90503461039357827ffffffffffffffffffffffffffffffffffffffffffffffffffffffffffffffffc3601126103935780359060243567ffffffffffffffff81116105ff57612d4791369101612d8f565b612d5381939293614fae565b935b818110612d71578551602080825281906102c490820188612dc5565b8061286e612d83612d8a938588614ee0565b3585615754565b612d55565b9181601f84011215612dc05782359167ffffffffffffffff8311612dc0576020808501948460051b010111612dc057565b600080fd5b90815180825260208080930193019160005b828110612de5575050505090565b835185529381019392810192600101612dd7565b919082519283825260005b848110612e435750507fffffffffffffffffffffffffffffffffffffffffffffffffffffffffffffffe0601f8460006020809697860101520116010190565b602081830181015184830182015201612e04565b6004359073ffffffffffffffffffffffffffffffffffffffff82168203612dc057565b6024359073ffffffffffffffffffffffffffffffffffffffff82168203612dc057565b359073ffffffffffffffffffffffffffffffffffffffff82168203612dc057565b9060407ffffffffffffffffffffffffffffffffffffffffffffffffffffffffffffffffc830112612dc05760043573ffffffffffffffffffffffffffffffffffffffff81168103612dc057916024359067ffffffffffffffff8211612dc057612f2991600401612d8f565b9091565b7ffffffffffffffffffffffffffffffffffffffffffffffffffffffffffffffffc6060910112612dc05773ffffffffffffffffffffffffffffffffffffffff906004358281168103612dc057916024359081168103612dc0579060443590565b7ffffffffffffffffffffffffffffffffffffffffffffffffffffffffffffffffc6040910112612dc0576004359060243590565b90815180825260208080930193019160005b828110612fe1575050505090565b8351805173ffffffffffffffffffffffffffffffffffffffff16865282015161ffff168583015260409094019392810192600101612fd3565b919073ffffffffffffffffffffffffffffffffffffffff8351168152602092838101518483015260408101516040830152606081015160608301526130836130716080830151610120806080870152850190612df9565b60a083015184820360a0860152612df9565b9160c08201519281810360c083015285808551928381520194019060005b87828210613104575050505060e08201519281810360e083015285808551928381520194019060005b8181106130f0575050506130ed9394506101008092015191818403910152612fc1565b90565b8251865294870194918701916001016130ca565b8351875295860195909201916001016130a1565b908082519081815260208091019281808460051b8301019501936000915b8483106131465750505050505090565b9091929394958480613182837fffffffffffffffffffffffffffffffffffffffffffffffffffffffffffffffe086600196030187528a51612df9565b9801930193019194939290613136565b6020908160408183019282815285518094520193019160005b8281106131b9575050505090565b835173ffffffffffffffffffffffffffffffffffffffff16855293810193928101926001016131ab565b9181601f84011215612dc05782359167ffffffffffffffff8311612dc05760208381860195010111612dc057565b7ffffffffffffffffffffffffffffffffffffffffffffffffffffffffffffffffc90606082820112612dc05760043567ffffffffffffffff92838211612dc057610120908284030112612dc05760040192602435838111612dc05782613279916004016131e3565b93909392604435918211612dc057612f29916004016131e3565b610120810190811067ffffffffffffffff8211176132b057604052565b7f4e487b7100000000000000000000000000000000000000000000000000000000600052604160045260246000fd5b6040810190811067ffffffffffffffff8211176132b057604052565b6020810190811067ffffffffffffffff8211176132b057604052565b6060810190811067ffffffffffffffff8211176132b057604052565b90601f7fffffffffffffffffffffffffffffffffffffffffffffffffffffffffffffffe0910116810190811067ffffffffffffffff8211176132b057604052565b67ffffffffffffffff81116132b057601f017fffffffffffffffffffffffffffffffffffffffffffffffffffffffffffffffe01660200190565b73ffffffffffffffffffffffffffffffffffffffff1680156133db57600052600360205260406000205490565b60846040517f08c379a000000000000000000000000000000000000000000000000000000000815260206004820152602960248201527f4552433732313a2061646472657373207a65726f206973206e6f74206120766160448201527f6c6964206f776e657200000000000000000000000000000000000000000000006064820152fd5b1561346657565b60646040517f08c379a000000000000000000000000000000000000000000000000000000000815260206004820152601860248201527f4552433732313a20696e76616c696420746f6b656e20494400000000000000006044820152fd5b600052600260205273ffffffffffffffffffffffffffffffffffffffff604060002054166130ed81151561345f565b90600182811c9216801561353c575b602083101461350d57565b7f4e487b7100000000000000000000000000000000000000000000000000000000600052602260045260246000fd5b91607f1691613502565b9060009291805491613557836134f3565b9182825260019384811690816000146135b95750600114613579575b50505050565b90919394506000526020928360002092846000945b8386106135a5575050505001019038808080613573565b80548587018301529401938590820161358e565b91505060209495507fffffffffffffffffffffffffffffffffffffffffffffffffffffffffffffff009193501683830152151560051b01019038808080613573565b61363061362b82600052600260205273ffffffffffffffffffffffffffffffffffffffff60406000205416151590565b61345f565b600052600460205273ffffffffffffffffffffffffffffffffffffffff6040600020541690565b1561365e57565b60846040517f08c379a000000000000000000000000000000000000000000000000000000000815260206004820152602d60248201527f4552433732313a2063616c6c6572206973206e6f7420746f6b656e206f776e6560448201527f72206f7220617070726f766564000000000000000000000000000000000000006064820152fd5b156136e957565b6040517f08c379a000000000000000000000000000000000000000000000000000000000815260206004820152603260248201527f4552433732313a207472616e7366657220746f206e6f6e20455243373231526560448201527f63656976657220696d706c656d656e74657200000000000000000000000000006064820152608490fd5b9073ffffffffffffffffffffffffffffffffffffffff808061378f846134c4565b169316918383149384156137c2575b5083156137ac575b50505090565b6137b8919293506135fb565b16143880806137a6565b909350600052600560205260406000208260005260205260ff60406000205416923861379e565b156137f057565b60846040517f08c379a000000000000000000000000000000000000000000000000000000000815260206004820152602560248201527f4552433732313a207472616e736665722066726f6d20696e636f72726563742060448201527f6f776e65720000000000000000000000000000000000000000000000000000006064820152fd5b6138a591613881846134c4565b73ffffffffffffffffffffffffffffffffffffffff938484169391851684146137e9565b838216938415613b8157831591828015613b79575b15613af557849215613a05575090506008549085600052600960205281604060002055680100000000000000008210156132b0576139239286613907611a97856001899701600855613ed4565b90555b8286036139d2575b5061391c866134c4565b16146137e9565b7fddf252ad1be2c89b69c2b068fc378daa952ba7f163c4a11628f55a4df523b3ef60008481526004602052604081207fffffffffffffffffffffffff0000000000000000000000000000000000000000908181541690558382526003602052604082207fffffffffffffffffffffffffffffffffffffffffffffffffffffffffffffffff81540190558482526040822060018154019055858252600260205284604083209182541617905580a4565b6139db906133ae565b60406000878152600660205281812083825260205288828220558881526007602052205538613912565b858303613a17575b506139239261390a565b613a229192506133ae565b907fffffffffffffffffffffffffffffffffffffffffffffffffffffffffffffffff8201918211613ac6576139239284926000908882526020906007825260409182842054828103613a8f575b508a84528383812055868452600681528284209184525281205592613a0d565b8785526006825283852083865282528385205488865260068352848620828752835280858720558552600782528385205538613a6f565b7f4e487b7100000000000000000000000000000000000000000000000000000000600052601160045260246000fd5b60846040517f08c379a000000000000000000000000000000000000000000000000000000000815260206004820152602660248201527f746f6b656e732063616e6e6f74206265207472616e736665726564206f6e207460448201527f6573746e657400000000000000000000000000000000000000000000000000006064820152fd5b5060006138ba565b60846040517f08c379a0000000000000000000000000000000000000000000000000000000008152602060048201526024808201527f4552433732313a207472616e7366657220746f20746865207a65726f2061646460448201527f72657373000000000000000000000000000000000000000000000000000000006064820152fd5b9192600092909190803b15613dd857613c809460405180927f150b7a020000000000000000000000000000000000000000000000000000000094858352336004840152876024840152604483015260806064830152818773ffffffffffffffffffffffffffffffffffffffff8260209b8c976084830190612df9565b0393165af1849181613d80575b50613d57575050503d600014613d4f573d613ca781613374565b90613cb56040519283613333565b81528091833d92013e5b80519182613d4c576040517f08c379a000000000000000000000000000000000000000000000000000000000815260206004820152603260248201527f4552433732313a207472616e7366657220746f206e6f6e20455243373231526560448201527f63656976657220696d706c656d656e74657200000000000000000000000000006064820152608490fd5b01fd5b506060613cbf565b7fffffffff00000000000000000000000000000000000000000000000000000000161492509050565b9091508581813d8311613dd1575b613d988183613333565b810103126105fb57517fffffffff00000000000000000000000000000000000000000000000000000000811681036105fb579038613c8d565b503d613d8e565b5050915050600190565b9293600093909291803b15613e6357948491613c8096604051809481937f150b7a02000000000000000000000000000000000000000000000000000000009788845233600485015273ffffffffffffffffffffffffffffffffffffffff80921660248501526044840152608060648401528260209b8c976084830190612df9565b505050915050600190565b600f54811015613ea557600f6000527f8d1108e10bcb7c27dddfc02ed9d693a074039d026cf4ea4240b40f7d581ac8020190600090565b7f4e487b7100000000000000000000000000000000000000000000000000000000600052603260045260246000fd5b600854811015613ea55760086000527ff3f7a9fe364faab93b216da50a3214154f22a0a2b415b23a84c8169e8b636ee30190600090565b8054821015613ea55760005260206000200190600090565b91908203918211613ac657565b90357fffffffffffffffffffffffffffffffffffffffffffffffffffffffffffffffe182360301811215612dc057016020813591019167ffffffffffffffff8211612dc0578136038313612dc057565b601f82602094937fffffffffffffffffffffffffffffffffffffffffffffffffffffffffffffffe0938186528686013760008582860101520116010190565b90357fffffffffffffffffffffffffffffffffffffffffffffffffffffffffffffffe182360301811215612dc057016020813591019167ffffffffffffffff8211612dc0578160051b36038313612dc057565b90918281527f07ffffffffffffffffffffffffffffffffffffffffffffffffffffffffffffff8311612dc05760209260051b809284830137010190565b3573ffffffffffffffffffffffffffffffffffffffff81168103612dc05790565b9035907fffffffffffffffffffffffffffffffffffffffffffffffffffffffffffffffe181360301821215612dc0570180359067ffffffffffffffff8211612dc057602001918136038313612dc057565b9035907fffffffffffffffffffffffffffffffffffffffffffffffffffffffffffffffe181360301821215612dc0570180359067ffffffffffffffff8211612dc057602001918160051b36038313612dc057565b9394929094604051602081019084888337614163602c828781017f73616d616e2077696c736f6e0000000000000000000000000000000000000000602082015203600c810184520182613333565b5190209485600052600e602052426040600020556141808161404f565b60405161418c816132fb565b6000815273ffffffffffffffffffffffffffffffffffffffff8216918215614df0576141e46141de8a600052600260205273ffffffffffffffffffffffffffffffffffffffff60406000205416151590565b15614e4e565b6008549189600052600960205282604060002055680100000000000000008310156132b05789610aae9281614225611a978760016143059901600855613ed4565b9055614230816133ae565b8660005260066020526040600020816000526020528260406000205582600052600760205260406000205561428b6141de83600052600260205273ffffffffffffffffffffffffffffffffffffffff60406000205416151590565b856000526003602052604060002060018154019055816000526002602052816040600020967fffffffffffffffffffffffff000000000000000000000000000000000000000097818982541617905560007fddf252ad1be2c89b69c2b068fc378daa952ba7f163c4a11628f55a4df523b3ef8180a4613c04565b6143126080830183614070565b61433660206040518381948383019687378101600083820152038084520182613333565b51902080600052600b602052604060002054614d6c57600052600b6020528660406000205586600052600a60205260406000209073ffffffffffffffffffffffffffffffffffffffff6143888461404f565b16908254161781556020820135600182015560408201356002820155606082013560038201556143bb6080830183614070565b9067ffffffffffffffff82116132b05781906143e7826143de60048701546134f3565b60048701614f07565b600090601f8311600114614ca157600092614c96575b50507fffffffffffffffffffffffffffffffffffffffffffffffffffffffffffffffff8260011b9260031b1c19161760048201555b61443f60a0830183614070565b9067ffffffffffffffff82116132b057819061446b8261446260058701546134f3565b60058701614f07565b600090601f8311600114614bcb57600092614bc0575b50507fffffffffffffffffffffffffffffffffffffffffffffffffffffffffffffffff8260011b9260031b1c19161760058201555b6144c360c08301836140c1565b9067ffffffffffffffff82116132b0576801000000000000000082116132b0576006830154826006850155808310614b9f575b5060068301600052602060002060005b838110614b8b575050505061451e60e08301836140c1565b9067ffffffffffffffff82116132b0576801000000000000000082116132b0576007830154826007850155808310614b5e575b5060078301600052602060002060005b838110614b4a57505050507fffffffffffffffffffffffffffffffffffffffffffffffffffffffffffffffe1823603016101008301351215612dc05767ffffffffffffffff61010083013583013511612dc0576101008201358201803560061b3603602090910113612dc05768010000000000000000610100830135830135116132b05760088101805461010084013584013591829055908111614b15575b506008602061010084013584010191016000526020600020906000905b6101008401358401358210614a88575050506146388161404f565b61464560a0830183614070565b9081604051928392833781016000815203902090877f0b85051017293732c5b533b177efc66475411a9fdd5fbc8ecb619906658413d6606073ffffffffffffffffffffffffffffffffffffffff6040519460208801358652604088013560208701528288013560408701521693a46146c060c08201826140c1565b905060005b818110614a425750508060e06146dc9201906140c1565b600381116149be578015806149b557613ea5578135915b60018211156149ad578160011015613ea5576020810135915b60028111156149a35760021015613ea55760400135915b7fb237134d29775150b1edf87af1dc343262244af7cbb474cfc64cb6e8824af66360206040518a8152a484600052600c60205260406000209167ffffffffffffffff82116132b05781906147818261477b86546134f3565b86614f07565b600090601f83116001146148fe576000926148f3575b50507fffffffffffffffffffffffffffffffffffffffffffffffffffffffffffffffff8260011b9260031b1c19161790555b82600052600d60205260406000209067ffffffffffffffff81116132b0576147fb816147f584546134f3565b84614f07565b6000601f8211600114614853578192939495600092614848575b50507fffffffffffffffffffffffffffffffffffffffffffffffffffffffffffffffff8260011b9260031b1c1916179055565b013590503880614815565b7fffffffffffffffffffffffffffffffffffffffffffffffffffffffffffffffe08216958360005260206000209160005b8881106148db575083600195969798106148a3575b505050811b019055565b7fffffffffffffffffffffffffffffffffffffffffffffffffffffffffffffffff60f88560031b161c19910135169055388080614899565b90926020600181928686013581550194019101614884565b013590503880614797565b90917fffffffffffffffffffffffffffffffffffffffffffffffffffffffffffffffe016918460005260206000209260005b81811061498b5750908460019594939210614953575b505050811b0190556147c9565b7fffffffffffffffffffffffffffffffffffffffffffffffffffffffffffffffff60f88560031b161c19910135169055388080614946565b91936020600181928787013581550195019201614930565b5050600091614723565b60009161470c565b506000916146f3565b60846040517f08c379a000000000000000000000000000000000000000000000000000000000815260206004820152603860248201527f4461746153746f726167653a2074616773206c656e677468206d75737420626560448201527f206c657373207468616e206f7220657175616c20746f203300000000000000006064820152fd5b80614a57614a839261194d60c08701876140c1565b35897f65327253f8d67c2e23cb4dfab28ca7437b04e9098cf4e985073d76df25209ad4600080a3614eb3565b6146c5565b73ffffffffffffffffffffffffffffffffffffffff614aa68261404f565b84549116602083013561ffff81169003612dc0577fffffffffffffffffffff0000000000000000000000000000000000000000000090911617602082013560a01b75ffff000000000000000000000000000000000000000016178355600192830192919091019060400161461d565b6008820160005260206000209061010084013584013582015b8183018110614b3e575050614600565b60008155600101614b2e565b600190602084359401938184015501614561565b600784016000526020600020908382015b8183018110614b7f575050614551565b60008155600101614b6f565b600190602084359401938184015501614506565b614bba90600685016000528360206000209182019101614ef0565b386144f6565b013590503880614481565b909250600584016000526020600020906000935b7fffffffffffffffffffffffffffffffffffffffffffffffffffffffffffffffe084168510614c7e5760019450837fffffffffffffffffffffffffffffffffffffffffffffffffffffffffffffffe0811610614c46575b505050811b0160058201556144b6565b7fffffffffffffffffffffffffffffffffffffffffffffffffffffffffffffffff60f88560031b161c19910135169055388080614c36565b81810135835560209485019460019093019201614bdf565b0135905038806143fd565b909250600484016000526020600020906000935b7fffffffffffffffffffffffffffffffffffffffffffffffffffffffffffffffe084168510614d545760019450837fffffffffffffffffffffffffffffffffffffffffffffffffffffffffffffffe0811610614d1c575b505050811b016004820155614432565b7fffffffffffffffffffffffffffffffffffffffffffffffffffffffffffffffff60f88560031b161c19910135169055388080614d0c565b81810135835560209485019460019093019201614cb5565b60846040517f08c379a000000000000000000000000000000000000000000000000000000000815260206004820152602360248201527f4461746153746f726167653a20757269207265676973746572656420616c726560448201527f61647900000000000000000000000000000000000000000000000000000000006064820152fd5b60646040517f08c379a000000000000000000000000000000000000000000000000000000000815260206004820152602060248201527f4552433732313a206d696e7420746f20746865207a65726f20616464726573736044820152fd5b15614e5557565b60646040517f08c379a000000000000000000000000000000000000000000000000000000000815260206004820152601c60248201527f4552433732313a20746f6b656e20616c7265616479206d696e746564000000006044820152fd5b7fffffffffffffffffffffffffffffffffffffffffffffffffffffffffffffffff8114613ac65760010190565b9190811015613ea55760051b0190565b818110614efb575050565b60008155600101614ef0565b9190601f8111614f1657505050565b614f42926000526020600020906020601f840160051c83019310614f44575b601f0160051c0190614ef0565b565b9091508190614f35565b67ffffffffffffffff81116132b05760051b60200190565b60405190614f7382613293565b816000815260006020820152600060408201526101006060916000838201528260808201528260a08201528260c08201528260e08201520152565b90614fb882614f4e565b614fc56040519182613333565b8281527fffffffffffffffffffffffffffffffffffffffffffffffffffffffffffffffe0614ff38294614f4e565b0190602036910137565b9061500782614f4e565b6150146040519182613333565b8281527fffffffffffffffffffffffffffffffffffffffffffffffffffffffffffffffe06150428294614f4e565b019060005b82811061505357505050565b806060602080938501015201615047565b805115613ea55760200190565b8051821015613ea55760209160051b010190565b9060405191828154918282526020928383019160005283600020936000905b8282106150ba57505050614f4292500383613333565b8554845260019586019588955093810193909101906150a4565b906150dd614f66565b506060600091838352602092600a84526040908181209482516150ff81613293565b73ffffffffffffffffffffffffffffffffffffffff9687815416825260018082015484840152600282015498868401998a5260038301548985015286516151548161514d8160048801613546565b0382613333565b60808501528651926151748461516d8160058501613546565b0385613333565b60a0938486015260068101885190818882549182815201918a52888a20908a5b878b83831061529d575050505050906151b281600894930382613333565b60c08701526151c360078201615085565b60e0870152018054916151d583614f4e565b946151e28a519687613333565b8386528786019289528789209189935b8b8a8787106152705750505050505050505061010082015296808352600e825283832054965142101561523c575b9282600c829361514d966130ed96525220905192838092613546565b945091806130ed92600c85600d61514d975261514d615262858520865192838092613546565b989350939550509250615220565b889283925161527e816132df565b61ffff88548781168352881c16838201528152019401940193926151f2565b84548652909401939283019201615194565b6000908152602091600a8352604091828120928051936152ce85613293565b73ffffffffffffffffffffffffffffffffffffffff808254168652600191828101548888015260028101548488015260038101546060880152835161531a8161514d8160048601613546565b6080880152835190615333826106d38160058501613546565b60a08881019290925284516006820180548083529088528a88208b83019189888e5b8383106154745750505050509061537181600894930382613333565b60c08a015261538260078201615085565b60e08a01520180549061539482614f4e565b926153a187519485613333565b8284529087528987208791868c86015b8d86861061544657505050505050508061010088015280511560001461543b57508251936153de856132df565b828552805b88811061541a5750509561541794959684975116925192615403846132df565b835282015261541182615064565b52615064565b50565b88908551615427816132df565b8381528383820152828289010152016153e3565b955050505050915090565b82918b51615453816132df565b61ffff87548c81168352871c168382015281520193019301929187906153b1565b84548652909401939283019201888e615355565b61549190613e6e565b90549060031b1c80600052601160205290565b816000526002810160205260406000205491821591821592615529575b5050156154cb5790565b60646040517f08c379a000000000000000000000000000000000000000000000000000000000815260206004820152601e60248201527f456e756d657261626c654d61703a206e6f6e6578697374656e74206b657900006044820152fd5b615543925060019160005201602052604060002054151590565b38806154c1565b6000818152601060205260408120546155c957600f546801000000000000000081101561559c579082615588611a9784600160409601600f55613e6e565b9055600f5492815260106020522055600190565b6024827f4e487b710000000000000000000000000000000000000000000000000000000081526041600452fd5b905090565b6000818152601460205260408120546155c9576013546801000000000000000081101561559c57600181018060135581101561563e5790826040927f66de8ffda797e3de9c05e8fc57b3bf0ec28a930d40b0d285d93c06501cf6a090015560135492815260146020522055600190565b6024827f4e487b710000000000000000000000000000000000000000000000000000000081526032600452fd5b60008281526001820160205260409020546156c057805490680100000000000000008210156132b057826156a9611a97846001809601855584613f0b565b905580549260005201602052604060002055600190565b5050600090565b73ffffffffffffffffffffffffffffffffffffffff16600052601260205260026156f660406000209283613f0b565b90549060031b1c91826000520160205290565b601354811015613ea55760136000527f66de8ffda797e3de9c05e8fc57b3bf0ec28a930d40b0d285d93c06501cf6a090015473ffffffffffffffffffffffffffffffffffffffff1690565b600052601760205260026156f660406000209283613f0b565b600082815260176020526040812090615796838360019160005201602052604060002054151590565b156157a15750505050565b6157c493815260176020526040808220549184815260028401602052205561566b565b503880808061357356fea2646970667358221220452736a0e5e8189bbc7a119c4a0bfbd4682ba90938727138684cb4d906c4f85064736f6c63430008130033","opcodes":"PUSH1 0x80 CALLVALUE PUSH3 0x311 JUMPI PUSH1 0x1 PUSH1 0x1 PUSH1 0x40 SHL SUB SWAP1 PUSH1 0x40 SWAP1 DUP1 DUP3 ADD DUP4 DUP2 GT DUP3 DUP3 LT OR PUSH3 0x2FB JUMPI DUP3 MSTORE PUSH1 0xA DUP2 MSTORE PUSH1 0x20 SWAP3 PUSH10 0x4B617469626568373231 PUSH1 0xB0 SHL DUP5 DUP4 ADD MSTORE DUP3 MLOAD DUP4 DUP2 ADD DUP2 DUP2 LT DUP4 DUP3 GT OR PUSH3 0x2FB JUMPI DUP5 MSTORE PUSH1 0x7 DUP2 MSTORE PUSH7 0x9682A892848A9 PUSH1 0xCB SHL DUP6 DUP3 ADD MSTORE DUP3 MLOAD SWAP1 DUP3 DUP3 GT PUSH3 0x2FB JUMPI PUSH1 0x0 DUP1 SLOAD SWAP3 PUSH1 0x1 SWAP6 DUP7 DUP6 DUP2 SHR SWAP6 AND DUP1 ISZERO PUSH3 0x2F0 JUMPI JUMPDEST DUP10 DUP7 LT EQ PUSH3 0x2DC JUMPI DUP2 SWAP1 PUSH1 0x1F SWAP6 DUP7 DUP2 GT PUSH3 0x289 JUMPI JUMPDEST POP DUP10 SWAP1 DUP7 DUP4 GT PUSH1 0x1 EQ PUSH3 0x225 JUMPI DUP5 SWAP3 PUSH3 0x219 JUMPI JUMPDEST POP POP PUSH1 0x0 NOT PUSH1 0x3 DUP4 SWAP1 SHL SHR NOT AND SWAP1 DUP7 SHL OR DUP2 SSTORE JUMPDEST DUP2 MLOAD SWAP4 DUP5 GT PUSH3 0x205 JUMPI DUP5 SLOAD DUP6 DUP2 DUP2 SHR SWAP2 AND DUP1 ISZERO PUSH3 0x1FA JUMPI JUMPDEST DUP9 DUP3 LT EQ PUSH3 0x1E6 JUMPI DUP4 DUP2 GT PUSH3 0x19E JUMPI JUMPDEST POP DUP7 SWAP3 DUP5 GT PUSH1 0x1 EQ PUSH3 0x138 JUMPI DUP4 SWAP5 SWAP6 SWAP7 POP SWAP3 PUSH3 0x12C JUMPI JUMPDEST POP POP PUSH1 0x0 NOT PUSH1 0x3 DUP4 SWAP1 SHL SHR NOT AND SWAP1 DUP3 SHL OR SWAP1 SSTORE JUMPDEST MLOAD PUSH2 0x5804 SWAP1 DUP2 PUSH3 0x317 DUP3 CODECOPY RETURN JUMPDEST ADD MLOAD SWAP1 POP CODESIZE DUP1 PUSH3 0x10A JUMP JUMPDEST SWAP2 SWAP1 PUSH1 0x1F NOT DUP5 AND SWAP7 DUP6 DUP5 MSTORE DUP1 DUP5 KECCAK256 SWAP4 SWAP1 JUMPDEST DUP9 DUP3 LT PUSH3 0x186 JUMPI POP POP DUP4 DUP6 SWAP7 SWAP8 LT PUSH3 0x16C JUMPI JUMPDEST POP POP POP DUP2 SHL ADD SWAP1 SSTORE PUSH3 0x11E JUMP JUMPDEST ADD MLOAD PUSH1 0x0 NOT PUSH1 0xF8 DUP5 PUSH1 0x3 SHL AND SHR NOT AND SWAP1 SSTORE CODESIZE DUP1 DUP1 PUSH3 0x15E JUMP JUMPDEST DUP1 DUP8 DUP6 SWAP7 DUP3 SWAP5 SWAP7 DUP7 ADD MLOAD DUP2 SSTORE ADD SWAP6 ADD SWAP4 ADD SWAP1 PUSH3 0x149 JUMP JUMPDEST DUP6 DUP3 MSTORE DUP8 DUP3 KECCAK256 DUP5 DUP1 DUP8 ADD PUSH1 0x5 SHR DUP3 ADD SWAP3 DUP11 DUP9 LT PUSH3 0x1DC JUMPI JUMPDEST ADD PUSH1 0x5 SHR ADD SWAP1 DUP7 SWAP1 JUMPDEST DUP3 DUP2 LT PUSH3 0x1D0 JUMPI POP POP PUSH3 0xF1 JUMP JUMPDEST DUP4 DUP2 SSTORE ADD DUP7 SWAP1 PUSH3 0x1C0 JUMP JUMPDEST SWAP3 POP DUP2 SWAP3 PUSH3 0x1B7 JUMP JUMPDEST PUSH4 0x4E487B71 PUSH1 0xE0 SHL DUP3 MSTORE PUSH1 0x22 PUSH1 0x4 MSTORE PUSH1 0x24 DUP3 REVERT JUMPDEST SWAP1 PUSH1 0x7F AND SWAP1 PUSH3 0xDF JUMP JUMPDEST PUSH4 0x4E487B71 PUSH1 0xE0 SHL DUP2 MSTORE PUSH1 0x41 PUSH1 0x4 MSTORE PUSH1 0x24 SWAP1 REVERT JUMPDEST ADD MLOAD SWAP1 POP CODESIZE DUP1 PUSH3 0xB1 JUMP JUMPDEST DUP5 DUP1 MSTORE DUP11 DUP6 KECCAK256 DUP10 SWAP5 POP SWAP2 SWAP1 PUSH1 0x1F NOT DUP5 AND DUP7 JUMPDEST DUP14 DUP3 DUP3 LT PUSH3 0x272 JUMPI POP POP DUP5 GT PUSH3 0x258 JUMPI JUMPDEST POP POP POP DUP2 SHL ADD DUP2 SSTORE PUSH3 0xC5 JUMP JUMPDEST ADD MLOAD PUSH1 0x0 NOT PUSH1 0xF8 DUP5 PUSH1 0x3 SHL AND SHR NOT AND SWAP1 SSTORE CODESIZE DUP1 DUP1 PUSH3 0x24A JUMP JUMPDEST DUP4 DUP6 ADD MLOAD DUP7 SSTORE DUP13 SWAP8 SWAP1 SWAP6 ADD SWAP5 SWAP4 DUP5 ADD SWAP4 ADD PUSH3 0x237 JUMP JUMPDEST SWAP1 SWAP2 POP DUP4 DUP1 MSTORE DUP10 DUP5 KECCAK256 DUP7 DUP1 DUP6 ADD PUSH1 0x5 SHR DUP3 ADD SWAP3 DUP13 DUP7 LT PUSH3 0x2D2 JUMPI JUMPDEST SWAP2 DUP11 SWAP2 DUP7 SWAP6 SWAP5 SWAP4 ADD PUSH1 0x5 SHR ADD SWAP2 JUMPDEST DUP3 DUP2 LT PUSH3 0x2C3 JUMPI POP POP PUSH3 0x9B JUMP JUMPDEST DUP7 DUP2 SSTORE DUP6 SWAP5 POP DUP11 SWAP2 ADD PUSH3 0x2B3 JUMP JUMPDEST SWAP3 POP DUP2 SWAP3 PUSH3 0x2A5 JUMP JUMPDEST PUSH4 0x4E487B71 PUSH1 0xE0 SHL DUP4 MSTORE PUSH1 0x22 PUSH1 0x4 MSTORE PUSH1 0x24 DUP4 REVERT JUMPDEST SWAP5 PUSH1 0x7F AND SWAP5 PUSH3 0x84 JUMP JUMPDEST PUSH4 0x4E487B71 PUSH1 0xE0 SHL PUSH1 0x0 MSTORE PUSH1 0x41 PUSH1 0x4 MSTORE PUSH1 0x24 PUSH1 0x0 REVERT JUMPDEST PUSH1 0x0 DUP1 REVERT INVALID PUSH1 0x40 PUSH1 0x80 DUP2 MSTORE PUSH1 0x4 DUP1 CALLDATASIZE LT ISZERO PUSH2 0x14 JUMPI PUSH1 0x0 DUP1 REVERT JUMPDEST PUSH1 0x0 SWAP1 DUP2 CALLDATALOAD PUSH1 0xE0 SHR SWAP1 DUP2 PUSH4 0x17642E4 EQ PUSH2 0x2CF6 JUMPI DUP2 PUSH4 0x1FFC9A7 EQ PUSH2 0x2BCF JUMPI DUP2 PUSH4 0x6FDDE03 EQ PUSH2 0x2B09 JUMPI DUP2 PUSH4 0x81812FC EQ PUSH2 0x2AB6 JUMPI DUP2 PUSH4 0x95EA7B3 EQ PUSH2 0x28B6 JUMPI DUP2 PUSH4 0xAB0DF87 EQ PUSH2 0x287D JUMPI DUP2 PUSH4 0x132E75D6 EQ PUSH2 0x281B JUMPI DUP2 PUSH4 0x1674ED4B EQ PUSH2 0x2776 JUMPI DUP2 PUSH4 0x18160DDD EQ PUSH2 0x2739 JUMPI DUP2 PUSH4 0x1AE69B61 EQ PUSH2 0x26FC JUMPI DUP2 PUSH4 0x23B872DD EQ PUSH2 0x26D7 JUMPI DUP2 PUSH4 0x26156636 EQ PUSH2 0x2699 JUMPI DUP2 PUSH4 0x29C7785F EQ PUSH2 0x2670 JUMPI DUP2 PUSH4 0x2B0ECA8C EQ PUSH2 0x246B JUMPI DUP2 PUSH4 0x2C230901 EQ PUSH2 0x23DC JUMPI DUP2 PUSH4 0x2E0D0718 EQ PUSH2 0x2395 JUMPI DUP2 PUSH4 0x2F745C59 EQ PUSH2 0x2292 JUMPI DUP2 PUSH4 0x31D99545 EQ PUSH2 0x21FE JUMPI DUP2 PUSH4 0x3552D220 EQ PUSH2 0x21E2 JUMPI DUP2 PUSH4 0x39D77F25 EQ PUSH2 0x1FD1 JUMPI DUP2 PUSH4 0x40B94757 EQ PUSH2 0x1F2F JUMPI DUP2 PUSH4 0x42842E0E EQ PUSH2 0x1EFB JUMPI DUP2 PUSH4 0x42966C68 EQ PUSH2 0x19E6 JUMPI DUP2 PUSH4 0x4667C884 EQ PUSH2 0x199F JUMPI DUP2 PUSH4 0x4832E8F3 EQ PUSH2 0x16FC JUMPI DUP2 PUSH4 0x4F6CCCE7 EQ PUSH2 0x162D JUMPI DUP2 PUSH4 0x4FC09275 EQ PUSH2 0x15E6 JUMPI DUP2 PUSH4 0x60F6A4A3 EQ PUSH2 0x1580 JUMPI DUP2 PUSH4 0x6352211E EQ PUSH2 0x152D JUMPI DUP2 PUSH4 0x662EC09E EQ PUSH2 0x1126 JUMPI DUP2 PUSH4 0x6D571B6A EQ PUSH2 0x10CB JUMPI DUP2 PUSH4 0x70A08231 EQ PUSH2 0x1087 JUMPI DUP2 PUSH4 0x7372E98D EQ PUSH2 0x1068 JUMPI DUP2 PUSH4 0x78292236 EQ PUSH2 0x1021 JUMPI DUP2 PUSH4 0x8282674F EQ PUSH2 0xFD8 JUMPI DUP2 PUSH4 0x83B81EBD EQ PUSH2 0xF91 JUMPI DUP2 PUSH4 0x89F65715 EQ PUSH2 0xF3F JUMPI DUP2 PUSH4 0x8F93FB39 EQ PUSH2 0xE9E JUMPI DUP2 PUSH4 0x95D89B41 EQ PUSH2 0xD91 JUMPI DUP2 PUSH4 0x96CC6A34 EQ PUSH2 0xCF6 JUMPI DUP2 PUSH4 0xA22CB465 EQ PUSH2 0xBC7 JUMPI DUP2 PUSH4 0xAF3EA105 EQ PUSH2 0xB31 JUMPI DUP2 PUSH4 0xB1582201 EQ PUSH2 0xABA JUMPI DUP2 PUSH4 0xB88D4FDE EQ PUSH2 0x9E8 JUMPI DUP2 PUSH4 0xBFC9B364 EQ PUSH2 0x99E JUMPI DUP2 PUSH4 0xC03D1D91 EQ PUSH2 0x8A9 JUMPI DUP2 PUSH4 0xC3512876 EQ PUSH2 0x6EC JUMPI DUP2 PUSH4 0xC87B56DD EQ PUSH2 0x67E JUMPI DUP2 PUSH4 0xCC33C875 EQ PUSH2 0x603 JUMPI DUP2 PUSH4 0xCCA3C766 EQ PUSH2 0x55A JUMPI DUP2 PUSH4 0xDD468791 EQ PUSH2 0x51D JUMPI DUP2 PUSH4 0xE985E9C5 EQ PUSH2 0x4A4 JUMPI DUP2 PUSH4 0xF353A732 EQ PUSH2 0x437 JUMPI DUP2 PUSH4 0xF6BD7AB8 EQ PUSH2 0x397 JUMPI POP DUP1 PUSH4 0xF99458A4 EQ PUSH2 0x320 JUMPI PUSH4 0xFE649B7E EQ PUSH2 0x28A JUMPI PUSH1 0x0 DUP1 REVERT JUMPDEST CALLVALUE PUSH2 0x31D JUMPI PUSH2 0x298 CALLDATASIZE PUSH2 0x2EBE JUMP JUMPDEST SWAP3 PUSH2 0x2A5 DUP5 SWAP4 SWAP3 SWAP4 PUSH2 0x4FAE JUMP JUMPDEST SWAP4 DUP2 JUMPDEST DUP2 DUP2 LT PUSH2 0x2C8 JUMPI DUP7 MLOAD PUSH1 0x20 DUP1 DUP3 MSTORE DUP2 SWAP1 PUSH2 0x2C4 SWAP1 DUP3 ADD DUP10 PUSH2 0x2DC5 JUMP JUMPDEST SUB SWAP1 RETURN JUMPDEST DUP1 PUSH2 0x301 PUSH2 0x2DA PUSH2 0x318 SWAP4 DUP6 DUP10 PUSH2 0x4EE0 JUMP JUMPDEST CALLDATALOAD PUSH20 0xFFFFFFFFFFFFFFFFFFFFFFFFFFFFFFFFFFFFFFFF DUP8 AND DUP7 MSTORE PUSH1 0x16 PUSH1 0x20 MSTORE DUP10 DUP7 KECCAK256 PUSH2 0x3F0B JUMP JUMPDEST SWAP1 SLOAD SWAP1 PUSH1 0x3 SHL SHR PUSH2 0x312 DUP3 DUP10 PUSH2 0x5071 JUMP JUMPDEST MSTORE PUSH2 0x4EB3 JUMP JUMPDEST PUSH2 0x2A8 JUMP JUMPDEST DUP1 REVERT JUMPDEST POP SWAP1 CALLVALUE PUSH2 0x393 JUMPI DUP1 PUSH32 0xFFFFFFFFFFFFFFFFFFFFFFFFFFFFFFFFFFFFFFFFFFFFFFFFFFFFFFFFFFFFFFFC CALLDATASIZE ADD SLT PUSH2 0x393 JUMPI PUSH2 0x385 PUSH1 0x20 SWAP3 PUSH20 0xFFFFFFFFFFFFFFFFFFFFFFFFFFFFFFFFFFFFFFFF PUSH2 0x373 PUSH2 0x2E57 JUMP JUMPDEST AND DUP2 MSTORE PUSH1 0x16 DUP5 MSTORE DUP3 PUSH1 0x24 CALLDATALOAD SWAP2 KECCAK256 PUSH2 0x3F0B JUMP JUMPDEST SWAP2 SWAP1 SLOAD SWAP1 MLOAD SWAP2 PUSH1 0x3 SHL SHR DUP2 MSTORE RETURN JUMPDEST POP DUP1 REVERT JUMPDEST SWAP1 POP CALLVALUE PUSH2 0x393 JUMPI PUSH1 0x20 PUSH32 0xFFFFFFFFFFFFFFFFFFFFFFFFFFFFFFFFFFFFFFFFFFFFFFFFFFFFFFFFFFFFFFFC CALLDATASIZE ADD SLT PUSH2 0x393 JUMPI DUP1 CALLDATALOAD PUSH8 0xFFFFFFFFFFFFFFFF DUP2 GT PUSH2 0x433 JUMPI PUSH2 0x3E5 SWAP2 CALLDATASIZE SWAP2 ADD PUSH2 0x2D8F JUMP JUMPDEST PUSH2 0x3EE DUP2 PUSH2 0x4FAE JUMP JUMPDEST SWAP3 JUMPDEST DUP2 DUP2 LT PUSH2 0x40C JUMPI DUP5 MLOAD PUSH1 0x20 DUP1 DUP3 MSTORE DUP2 SWAP1 PUSH2 0x2C4 SWAP1 DUP3 ADD DUP8 PUSH2 0x2DC5 JUMP JUMPDEST DUP1 PUSH2 0x424 PUSH2 0x41E PUSH2 0x42E SWAP4 DUP6 DUP8 PUSH2 0x4EE0 JUMP JUMPDEST CALLDATALOAD PUSH2 0x5488 JUMP JUMPDEST PUSH2 0x312 DUP3 DUP8 PUSH2 0x5071 JUMP JUMPDEST PUSH2 0x3F0 JUMP JUMPDEST DUP3 DUP1 REVERT JUMPDEST DUP3 DUP5 CALLVALUE PUSH2 0x393 JUMPI PUSH1 0x20 PUSH32 0xFFFFFFFFFFFFFFFFFFFFFFFFFFFFFFFFFFFFFFFFFFFFFFFFFFFFFFFFFFFFFFFC CALLDATASIZE ADD SLT PUSH2 0x393 JUMPI PUSH1 0x20 SWAP1 PUSH2 0x49D PUSH2 0x476 PUSH2 0x2E57 JUMP JUMPDEST PUSH20 0xFFFFFFFFFFFFFFFFFFFFFFFFFFFFFFFFFFFFFFFF AND PUSH1 0x0 MSTORE PUSH1 0x16 PUSH1 0x20 MSTORE PUSH1 0x40 PUSH1 0x0 KECCAK256 SLOAD SWAP1 JUMP JUMPDEST SWAP1 MLOAD SWAP1 DUP2 MSTORE RETURN JUMPDEST DUP3 DUP5 CALLVALUE PUSH2 0x393 JUMPI DUP1 PUSH32 0xFFFFFFFFFFFFFFFFFFFFFFFFFFFFFFFFFFFFFFFFFFFFFFFFFFFFFFFFFFFFFFFC CALLDATASIZE ADD SLT PUSH2 0x393 JUMPI PUSH1 0xFF DUP2 PUSH1 0x20 SWAP4 PUSH2 0x4E2 PUSH2 0x2E57 JUMP JUMPDEST PUSH2 0x4EA PUSH2 0x2E7A JUMP JUMPDEST PUSH20 0xFFFFFFFFFFFFFFFFFFFFFFFFFFFFFFFFFFFFFFFF SWAP2 DUP3 AND DUP4 MSTORE PUSH1 0x5 DUP8 MSTORE DUP4 DUP4 KECCAK256 SWAP2 AND DUP3 MSTORE DUP6 MSTORE KECCAK256 SLOAD SWAP2 MLOAD SWAP2 AND ISZERO ISZERO DUP2 MSTORE RETURN JUMPDEST DUP3 DUP5 CALLVALUE PUSH2 0x393 JUMPI DUP2 PUSH32 0xFFFFFFFFFFFFFFFFFFFFFFFFFFFFFFFFFFFFFFFFFFFFFFFFFFFFFFFFFFFFFFFC CALLDATASIZE ADD SLT PUSH2 0x393 JUMPI PUSH1 0x20 SWAP1 PUSH1 0xF SLOAD SWAP1 MLOAD SWAP1 DUP2 MSTORE RETURN JUMPDEST SWAP1 POP DUP3 CALLVALUE PUSH2 0x433 JUMPI PUSH1 0x20 SWAP2 DUP3 PUSH32 0xFFFFFFFFFFFFFFFFFFFFFFFFFFFFFFFFFFFFFFFFFFFFFFFFFFFFFFFFFFFFFFFC CALLDATASIZE ADD SLT PUSH2 0x5FF JUMPI DUP1 CALLDATALOAD SWAP1 PUSH8 0xFFFFFFFFFFFFFFFF DUP3 GT PUSH2 0x5FB JUMPI PUSH2 0x5AC SWAP2 CALLDATASIZE SWAP2 ADD PUSH2 0x2D8F JUMP JUMPDEST SWAP4 PUSH2 0x5B6 DUP6 PUSH2 0x4FAE JUMP JUMPDEST SWAP5 DUP2 JUMPDEST DUP2 DUP2 LT PUSH2 0x5D2 JUMPI DUP5 MLOAD DUP7 DUP2 MSTORE DUP1 PUSH2 0x2C4 DUP2 DUP10 ADD DUP11 PUSH2 0x2DC5 JUMP JUMPDEST DUP1 PUSH2 0x5E1 PUSH2 0x5F6 SWAP3 DUP5 DUP8 PUSH2 0x4EE0 JUMP JUMPDEST CALLDATALOAD DUP5 MSTORE PUSH1 0x15 DUP8 MSTORE DUP6 DUP5 KECCAK256 SLOAD PUSH2 0x312 DUP3 DUP11 PUSH2 0x5071 JUMP JUMPDEST PUSH2 0x5B9 JUMP JUMPDEST DUP5 DUP1 REVERT JUMPDEST DUP4 DUP1 REVERT JUMPDEST DUP4 DUP4 CALLVALUE PUSH2 0x31D JUMPI PUSH1 0x20 PUSH32 0xFFFFFFFFFFFFFFFFFFFFFFFFFFFFFFFFFFFFFFFFFFFFFFFFFFFFFFFFFFFFFFFC CALLDATASIZE ADD SLT PUSH2 0x31D JUMPI POP PUSH2 0x2C4 PUSH2 0x670 PUSH2 0x648 PUSH2 0x65E SWAP5 CALLDATALOAD PUSH2 0x50D4 JUMP JUMPDEST SWAP4 SWAP3 SWAP6 DUP1 MLOAD SWAP8 DUP9 SWAP8 PUSH1 0x80 DUP10 MSTORE PUSH1 0x80 DUP10 ADD SWAP1 PUSH2 0x301A JUMP JUMPDEST SWAP3 PUSH1 0x20 DUP9 ADD MSTORE DUP7 DUP4 SUB SWAP1 DUP8 ADD MSTORE PUSH2 0x2DF9 JUMP JUMPDEST SWAP1 DUP4 DUP3 SUB PUSH1 0x60 DUP6 ADD MSTORE PUSH2 0x2DF9 JUMP JUMPDEST DUP4 SWAP2 POP CALLVALUE PUSH2 0x433 JUMPI PUSH1 0x20 PUSH32 0xFFFFFFFFFFFFFFFFFFFFFFFFFFFFFFFFFFFFFFFFFFFFFFFFFFFFFFFFFFFFFFFC CALLDATASIZE ADD SLT PUSH2 0x433 JUMPI SWAP1 PUSH2 0x6DA DUP3 DUP3 PUSH2 0x2C4 SWAP6 PUSH2 0x6D3 SWAP6 CALLDATALOAD DUP2 MSTORE PUSH1 0xA PUSH1 0x20 MSTORE KECCAK256 ADD DUP3 MLOAD SWAP4 DUP5 DUP1 SWAP3 PUSH2 0x3546 JUMP JUMPDEST SUB DUP4 PUSH2 0x3333 JUMP JUMPDEST MLOAD SWAP2 DUP3 SWAP2 PUSH1 0x20 DUP4 MSTORE PUSH1 0x20 DUP4 ADD SWAP1 PUSH2 0x2DF9 JUMP JUMPDEST DUP4 DUP4 CALLVALUE PUSH2 0x31D JUMPI DUP2 PUSH32 0xFFFFFFFFFFFFFFFFFFFFFFFFFFFFFFFFFFFFFFFFFFFFFFFFFFFFFFFFFFFFFFFC CALLDATASIZE ADD SLT PUSH2 0x31D JUMPI PUSH2 0x724 PUSH2 0x2E57 JUMP JUMPDEST DUP2 PUSH20 0xFFFFFFFFFFFFFFFFFFFFFFFFFFFFFFFFFFFFFFFF DUP4 SWAP3 AND DUP4 MSTORE PUSH1 0x12 PUSH1 0x20 MSTORE DUP4 DUP4 KECCAK256 SWAP4 PUSH2 0x754 PUSH1 0x24 CALLDATALOAD DUP7 PUSH2 0x54A4 JUMP JUMPDEST SWAP4 PUSH2 0x760 DUP6 DUP8 SLOAD PUSH2 0x3F23 JUMP JUMPDEST SWAP6 PUSH32 0xFFFFFFFFFFFFFFFFFFFFFFFFFFFFFFFFFFFFFFFFFFFFFFFFFFFFFFFFFFFFFFFF DUP1 DUP9 ADD SWAP8 DUP9 GT PUSH2 0x87D JUMPI DUP7 PUSH2 0x823 JUMPI JUMPDEST POP DUP7 PUSH2 0x7BC JUMPI JUMPDEST POP POP MLOAD SWAP3 DUP4 MSTORE PUSH1 0x20 DUP4 ADD SWAP4 SWAP1 SWAP4 MSTORE PUSH1 0x40 DUP3 ADD SWAP3 SWAP1 SWAP3 MSTORE PUSH1 0x60 DUP2 ADD SWAP2 SWAP1 SWAP2 MSTORE PUSH1 0x80 SWAP1 RETURN JUMPDEST SWAP1 SWAP2 SWAP4 POP PUSH1 0x1 DUP6 ADD DUP1 DUP7 GT PUSH2 0x7F7 JUMPI PUSH2 0x2C4 SWAP6 SWAP7 SWAP8 POP SWAP1 PUSH2 0x7DF PUSH1 0x2 SWAP3 DUP3 PUSH2 0x3F0B JUMP JUMPDEST SWAP1 SLOAD SWAP1 PUSH1 0x3 SHL SHR DUP1 SWAP4 MSTORE ADD PUSH1 0x20 MSTORE SWAP2 DUP6 SWAP5 SWAP4 DUP8 PUSH2 0x799 JUMP JUMPDEST PUSH1 0x24 DUP4 PUSH1 0x11 DUP11 PUSH32 0x4E487B7100000000000000000000000000000000000000000000000000000000 DUP4 MSTORE MSTORE REVERT JUMPDEST SWAP1 SWAP4 POP DUP6 ADD DUP6 DUP2 GT PUSH2 0x851 JUMPI PUSH2 0x839 SWAP1 DUP5 PUSH2 0x3F0B JUMP JUMPDEST SWAP1 SLOAD SWAP1 PUSH1 0x3 SHL SHR DUP1 DUP3 MSTORE PUSH1 0x2 DUP5 ADD PUSH1 0x20 MSTORE SWAP3 DUP9 PUSH2 0x792 JUMP JUMPDEST PUSH1 0x24 DUP3 PUSH1 0x11 DUP11 PUSH32 0x4E487B7100000000000000000000000000000000000000000000000000000000 DUP4 MSTORE MSTORE REVERT JUMPDEST PUSH1 0x24 DUP4 PUSH1 0x11 DUP12 PUSH32 0x4E487B7100000000000000000000000000000000000000000000000000000000 DUP4 MSTORE MSTORE REVERT JUMPDEST SWAP1 POP CALLVALUE PUSH2 0x393 JUMPI PUSH1 0x20 PUSH32 0xFFFFFFFFFFFFFFFFFFFFFFFFFFFFFFFFFFFFFFFFFFFFFFFFFFFFFFFFFFFFFFFC CALLDATASIZE ADD SLT PUSH2 0x393 JUMPI DUP1 CALLDATALOAD PUSH8 0xFFFFFFFFFFFFFFFF DUP2 GT PUSH2 0x433 JUMPI PUSH2 0x8F7 SWAP2 CALLDATASIZE SWAP2 ADD PUSH2 0x2D8F JUMP JUMPDEST PUSH2 0x903 DUP2 SWAP5 SWAP3 SWAP5 PUSH2 0x4F4E JUMP JUMPDEST SWAP3 PUSH2 0x910 DUP4 MLOAD SWAP5 DUP6 PUSH2 0x3333 JUMP JUMPDEST DUP2 DUP5 MSTORE PUSH32 0xFFFFFFFFFFFFFFFFFFFFFFFFFFFFFFFFFFFFFFFFFFFFFFFFFFFFFFFFFFFFFFE0 PUSH2 0x93D DUP4 PUSH2 0x4F4E JUMP JUMPDEST ADD CALLDATASIZE PUSH1 0x20 DUP7 ADD CALLDATACOPY JUMPDEST DUP2 DUP2 LT PUSH2 0x959 JUMPI DUP3 MLOAD DUP1 PUSH2 0x2C4 DUP7 DUP3 PUSH2 0x3192 JUMP JUMPDEST DUP1 PUSH2 0x971 PUSH2 0x96B PUSH2 0x999 SWAP4 DUP6 DUP10 PUSH2 0x4EE0 JUMP JUMPDEST CALLDATALOAD PUSH2 0x5709 JUMP JUMPDEST PUSH20 0xFFFFFFFFFFFFFFFFFFFFFFFFFFFFFFFFFFFFFFFF PUSH2 0x990 DUP4 DUP9 PUSH2 0x5071 JUMP JUMPDEST SWAP2 AND SWAP1 MSTORE PUSH2 0x4EB3 JUMP JUMPDEST PUSH2 0x945 JUMP JUMPDEST DUP4 SWAP2 POP CALLVALUE PUSH2 0x433 JUMPI DUP2 PUSH32 0xFFFFFFFFFFFFFFFFFFFFFFFFFFFFFFFFFFFFFFFFFFFFFFFFFFFFFFFFFFFFFFFC CALLDATASIZE ADD SLT PUSH2 0x433 JUMPI PUSH1 0x20 SWAP3 PUSH2 0x385 SWAP2 CALLDATALOAD DUP2 MSTORE PUSH1 0x15 DUP5 MSTORE DUP3 PUSH1 0x24 CALLDATALOAD SWAP2 KECCAK256 PUSH2 0x3F0B JUMP JUMPDEST SWAP1 POP DUP3 CALLVALUE PUSH2 0x433 JUMPI PUSH1 0x80 PUSH32 0xFFFFFFFFFFFFFFFFFFFFFFFFFFFFFFFFFFFFFFFFFFFFFFFFFFFFFFFFFFFFFFFC CALLDATASIZE ADD SLT PUSH2 0x433 JUMPI PUSH2 0xA22 PUSH2 0x2E57 JUMP JUMPDEST SWAP1 PUSH2 0xA2B PUSH2 0x2E7A JUMP JUMPDEST PUSH1 0x44 CALLDATALOAD SWAP1 PUSH1 0x64 CALLDATALOAD SWAP5 PUSH8 0xFFFFFFFFFFFFFFFF DUP7 GT PUSH2 0xAB6 JUMPI CALLDATASIZE PUSH1 0x23 DUP8 ADD SLT ISZERO PUSH2 0xAB6 JUMPI DUP6 ADD CALLDATALOAD SWAP4 PUSH2 0xA66 PUSH2 0xA5D DUP7 PUSH2 0x3374 JUMP JUMPDEST SWAP5 MLOAD SWAP5 DUP6 PUSH2 0x3333 JUMP JUMPDEST DUP5 DUP5 MSTORE DUP7 CALLDATASIZE PUSH1 0x24 DUP8 DUP10 ADD ADD GT PUSH2 0x31D JUMPI PUSH1 0x20 DUP7 PUSH2 0xAAE SWAP8 PUSH1 0x24 PUSH2 0xAB3 SWAP11 ADD DUP4 DUP10 ADD CALLDATACOPY DUP7 ADD ADD MSTORE PUSH2 0xA9E PUSH2 0xA99 DUP5 CALLER PUSH2 0x376E JUMP JUMPDEST PUSH2 0x3657 JUMP JUMPDEST PUSH2 0xAA9 DUP4 DUP4 DUP4 PUSH2 0x3874 JUMP JUMPDEST PUSH2 0x3DE2 JUMP JUMPDEST PUSH2 0x36E2 JUMP JUMPDEST DUP1 RETURN JUMPDEST DUP7 DUP1 REVERT JUMPDEST DUP3 DUP5 CALLVALUE PUSH2 0x393 JUMPI PUSH1 0x20 PUSH32 0xFFFFFFFFFFFFFFFFFFFFFFFFFFFFFFFFFFFFFFFFFFFFFFFFFFFFFFFFFFFFFFFC CALLDATASIZE ADD SLT PUSH2 0x393 JUMPI PUSH2 0xB1E DUP2 PUSH2 0x2C4 SWAP4 PUSH20 0xFFFFFFFFFFFFFFFFFFFFFFFFFFFFFFFFFFFFFFFF PUSH2 0xB10 PUSH2 0x2E57 JUMP JUMPDEST AND DUP2 MSTORE PUSH1 0x16 PUSH1 0x20 MSTORE KECCAK256 PUSH2 0x5085 JUMP JUMPDEST SWAP1 MLOAD SWAP2 DUP3 SWAP2 PUSH1 0x20 DUP4 MSTORE PUSH1 0x20 DUP4 ADD SWAP1 PUSH2 0x2DC5 JUMP JUMPDEST SWAP1 POP DUP3 CALLVALUE PUSH2 0x433 JUMPI PUSH1 0x20 SWAP2 DUP3 PUSH32 0xFFFFFFFFFFFFFFFFFFFFFFFFFFFFFFFFFFFFFFFFFFFFFFFFFFFFFFFFFFFFFFFC CALLDATASIZE ADD SLT PUSH2 0x5FF JUMPI CALLDATALOAD DUP4 MSTORE PUSH1 0x17 DUP3 MSTORE DUP1 DUP4 KECCAK256 SWAP3 DUP4 SLOAD SWAP1 PUSH2 0xB7C DUP3 PUSH2 0x4FAE JUMP JUMPDEST SWAP5 PUSH1 0x2 DUP2 ADD SWAP1 DUP3 JUMPDEST DUP5 DUP2 LT PUSH2 0xB9D JUMPI DUP6 MLOAD DUP8 DUP2 MSTORE DUP1 PUSH2 0x2C4 DUP2 DUP11 ADD DUP12 PUSH2 0x2DC5 JUMP JUMPDEST DUP1 PUSH2 0xBAB PUSH2 0xBC2 SWAP3 DUP5 PUSH2 0x3F0B JUMP JUMPDEST SWAP1 SLOAD SWAP1 PUSH1 0x3 SHL SHR DUP1 DUP7 MSTORE DUP5 DUP10 MSTORE PUSH2 0x312 DUP3 DUP12 PUSH2 0x5071 JUMP JUMPDEST PUSH2 0xB84 JUMP JUMPDEST SWAP1 POP DUP3 CALLVALUE PUSH2 0x433 JUMPI DUP1 PUSH32 0xFFFFFFFFFFFFFFFFFFFFFFFFFFFFFFFFFFFFFFFFFFFFFFFFFFFFFFFFFFFFFFFC CALLDATASIZE ADD SLT PUSH2 0x433 JUMPI PUSH2 0xC00 PUSH2 0x2E57 JUMP JUMPDEST SWAP1 PUSH1 0x24 CALLDATALOAD SWAP2 DUP3 ISZERO ISZERO DUP1 SWAP4 SUB PUSH2 0x5FB JUMPI PUSH20 0xFFFFFFFFFFFFFFFFFFFFFFFFFFFFFFFFFFFFFFFF AND SWAP3 DUP4 CALLER EQ PUSH2 0xC9A JUMPI POP CALLER DUP5 MSTORE PUSH1 0x5 PUSH1 0x20 MSTORE DUP1 DUP5 KECCAK256 DUP4 DUP6 MSTORE PUSH1 0x20 MSTORE DUP1 DUP5 KECCAK256 PUSH32 0xFFFFFFFFFFFFFFFFFFFFFFFFFFFFFFFFFFFFFFFFFFFFFFFFFFFFFFFFFFFFFF00 DUP2 SLOAD AND PUSH1 0xFF DUP5 AND OR SWAP1 SSTORE MLOAD SWAP1 DUP2 MSTORE PUSH32 0x17307EAB39AB6107E8899845AD3D59BD9653F200F220920489CA2B5937696C31 PUSH1 0x20 CALLER SWAP3 LOG3 DUP1 RETURN JUMPDEST PUSH1 0x20 PUSH1 0x64 SWAP3 MLOAD SWAP2 PUSH32 0x8C379A000000000000000000000000000000000000000000000000000000000 DUP4 MSTORE DUP3 ADD MSTORE PUSH1 0x19 PUSH1 0x24 DUP3 ADD MSTORE PUSH32 0x4552433732313A20617070726F766520746F2063616C6C657200000000000000 PUSH1 0x44 DUP3 ADD MSTORE REVERT JUMPDEST DUP3 DUP5 CALLVALUE PUSH2 0x393 JUMPI PUSH1 0x20 SWAP1 DUP2 PUSH32 0xFFFFFFFFFFFFFFFFFFFFFFFFFFFFFFFFFFFFFFFFFFFFFFFFFFFFFFFFFFFFFFFC CALLDATASIZE ADD SLT PUSH2 0x433 JUMPI PUSH20 0xFFFFFFFFFFFFFFFFFFFFFFFFFFFFFFFFFFFFFFFF PUSH2 0xD46 PUSH2 0x2E57 JUMP JUMPDEST AND DUP4 MSTORE PUSH1 0x12 DUP3 MSTORE DUP1 DUP4 KECCAK256 SWAP3 DUP4 SLOAD SWAP1 PUSH2 0xD5D DUP3 PUSH2 0x4FAE JUMP JUMPDEST SWAP5 PUSH1 0x2 DUP2 ADD SWAP1 DUP3 JUMPDEST DUP5 DUP2 LT PUSH2 0xD7E JUMPI DUP6 MLOAD DUP8 DUP2 MSTORE DUP1 PUSH2 0x2C4 DUP2 DUP11 ADD DUP12 PUSH2 0x2DC5 JUMP JUMPDEST DUP1 PUSH2 0xBAB PUSH2 0xD8C SWAP3 DUP5 PUSH2 0x3F0B JUMP JUMPDEST PUSH2 0xD65 JUMP JUMPDEST DUP3 DUP5 CALLVALUE PUSH2 0x393 JUMPI DUP2 PUSH32 0xFFFFFFFFFFFFFFFFFFFFFFFFFFFFFFFFFFFFFFFFFFFFFFFFFFFFFFFFFFFFFFFC CALLDATASIZE ADD SLT PUSH2 0x393 JUMPI DUP1 MLOAD SWAP1 DUP3 PUSH1 0x1 DUP1 SLOAD SWAP2 PUSH2 0xDD3 DUP4 PUSH2 0x34F3 JUMP JUMPDEST DUP1 DUP7 MSTORE SWAP3 DUP3 DUP2 AND SWAP1 DUP2 ISZERO PUSH2 0xE58 JUMPI POP PUSH1 0x1 EQ PUSH2 0xDFC JUMPI JUMPDEST POP POP POP PUSH2 0x6DA DUP3 PUSH2 0x2C4 SWAP5 SUB DUP4 PUSH2 0x3333 JUMP JUMPDEST SWAP5 POP DUP1 DUP6 MSTORE PUSH32 0xB10E2D527612073B26EECDFD717E6A320CF44B4AFAC2B0732D9FCBE2B7FA0CF6 JUMPDEST DUP3 DUP7 LT PUSH2 0xE40 JUMPI POP POP POP PUSH2 0x6DA DUP3 PUSH1 0x20 PUSH2 0x2C4 SWAP6 DUP3 ADD ADD SWAP5 PUSH2 0xDEA JUMP JUMPDEST DUP1 SLOAD PUSH1 0x20 DUP8 DUP8 ADD DUP2 ADD SWAP2 SWAP1 SWAP2 MSTORE SWAP1 SWAP6 ADD SWAP5 DUP2 ADD PUSH2 0xE23 JUMP JUMPDEST PUSH2 0x2C4 SWAP8 POP DUP7 SWAP4 POP PUSH1 0x20 SWAP3 POP PUSH2 0x6DA SWAP5 SWAP2 POP PUSH32 0xFFFFFFFFFFFFFFFFFFFFFFFFFFFFFFFFFFFFFFFFFFFFFFFFFFFFFFFFFFFFFF00 AND DUP3 DUP5 ADD MSTORE ISZERO ISZERO PUSH1 0x5 SHL DUP3 ADD ADD SWAP5 PUSH2 0xDEA JUMP JUMPDEST SWAP1 POP DUP3 CALLVALUE PUSH2 0x433 JUMPI PUSH1 0x20 SWAP2 DUP3 PUSH32 0xFFFFFFFFFFFFFFFFFFFFFFFFFFFFFFFFFFFFFFFFFFFFFFFFFFFFFFFFFFFFFFFC CALLDATASIZE ADD SLT PUSH2 0x5FF JUMPI DUP1 CALLDATALOAD SWAP1 PUSH8 0xFFFFFFFFFFFFFFFF DUP3 GT PUSH2 0x5FB JUMPI PUSH2 0xEF0 SWAP2 CALLDATASIZE SWAP2 ADD PUSH2 0x2D8F JUMP JUMPDEST SWAP4 PUSH2 0xEFA DUP6 PUSH2 0x4FAE JUMP JUMPDEST SWAP5 DUP2 JUMPDEST DUP2 DUP2 LT PUSH2 0xF16 JUMPI DUP5 MLOAD DUP7 DUP2 MSTORE DUP1 PUSH2 0x2C4 DUP2 DUP10 ADD DUP11 PUSH2 0x2DC5 JUMP JUMPDEST DUP1 PUSH2 0xF25 PUSH2 0xF3A SWAP3 DUP5 DUP8 PUSH2 0x4EE0 JUMP JUMPDEST CALLDATALOAD DUP5 MSTORE PUSH1 0x17 DUP8 MSTORE DUP6 DUP5 KECCAK256 SLOAD PUSH2 0x312 DUP3 DUP11 PUSH2 0x5071 JUMP JUMPDEST PUSH2 0xEFD JUMP JUMPDEST DUP4 DUP4 CALLVALUE PUSH2 0x31D JUMPI PUSH1 0x20 PUSH32 0xFFFFFFFFFFFFFFFFFFFFFFFFFFFFFFFFFFFFFFFFFFFFFFFFFFFFFFFFFFFFFFFC CALLDATASIZE ADD SLT PUSH2 0x31D JUMPI POP PUSH2 0xF7E PUSH2 0x2C4 SWAP3 CALLDATALOAD PUSH2 0x52AF JUMP JUMPDEST SWAP1 MLOAD SWAP2 DUP3 SWAP2 PUSH1 0x20 DUP4 MSTORE PUSH1 0x20 DUP4 ADD SWAP1 PUSH2 0x2FC1 JUMP JUMPDEST DUP4 SWAP2 POP CALLVALUE PUSH2 0x433 JUMPI PUSH1 0x20 PUSH32 0xFFFFFFFFFFFFFFFFFFFFFFFFFFFFFFFFFFFFFFFFFFFFFFFFFFFFFFFFFFFFFFFC CALLDATASIZE ADD SLT PUSH2 0x433 JUMPI PUSH1 0x20 SWAP3 DUP3 SWAP2 CALLDATALOAD DUP2 MSTORE PUSH1 0xE DUP5 MSTORE KECCAK256 SLOAD SWAP1 MLOAD SWAP1 DUP2 MSTORE RETURN JUMPDEST DUP4 SWAP2 POP CALLVALUE PUSH2 0x433 JUMPI PUSH1 0x20 PUSH32 0xFFFFFFFFFFFFFFFFFFFFFFFFFFFFFFFFFFFFFFFFFFFFFFFFFFFFFFFFFFFFFFFC CALLDATASIZE ADD SLT PUSH2 0x433 JUMPI DUP2 PUSH2 0x2C4 SWAP4 PUSH2 0xB1E SWAP3 CALLDATALOAD DUP2 MSTORE PUSH1 0x15 PUSH1 0x20 MSTORE KECCAK256 PUSH2 0x5085 JUMP JUMPDEST DUP4 SWAP2 POP CALLVALUE PUSH2 0x433 JUMPI PUSH1 0x20 PUSH32 0xFFFFFFFFFFFFFFFFFFFFFFFFFFFFFFFFFFFFFFFFFFFFFFFFFFFFFFFFFFFFFFFC CALLDATASIZE ADD SLT PUSH2 0x433 JUMPI PUSH1 0x20 SWAP3 DUP3 SWAP2 CALLDATALOAD DUP2 MSTORE PUSH1 0xB DUP5 MSTORE KECCAK256 SLOAD SWAP1 MLOAD SWAP1 DUP2 MSTORE RETURN JUMPDEST DUP3 DUP5 CALLVALUE PUSH2 0x393 JUMPI PUSH1 0x20 SWAP1 PUSH2 0x49D PUSH2 0x107E CALLDATASIZE PUSH2 0x3211 JUMP JUMPDEST SWAP4 SWAP3 SWAP1 SWAP3 PUSH2 0x4115 JUMP JUMPDEST DUP3 DUP5 CALLVALUE PUSH2 0x393 JUMPI PUSH1 0x20 PUSH32 0xFFFFFFFFFFFFFFFFFFFFFFFFFFFFFFFFFFFFFFFFFFFFFFFFFFFFFFFFFFFFFFFC CALLDATASIZE ADD SLT PUSH2 0x393 JUMPI PUSH1 0x20 SWAP1 PUSH2 0x49D PUSH2 0x10C6 PUSH2 0x2E57 JUMP JUMPDEST PUSH2 0x33AE JUMP JUMPDEST DUP4 DUP4 CALLVALUE PUSH2 0x31D JUMPI PUSH1 0x20 PUSH32 0xFFFFFFFFFFFFFFFFFFFFFFFFFFFFFFFFFFFFFFFFFFFFFFFFFFFFFFFFFFFFFFFC CALLDATASIZE ADD SLT PUSH2 0x31D JUMPI POP PUSH20 0xFFFFFFFFFFFFFFFFFFFFFFFFFFFFFFFFFFFFFFFF PUSH2 0x111E PUSH1 0x20 SWAP4 CALLDATALOAD PUSH2 0x5709 JUMP JUMPDEST SWAP2 MLOAD SWAP2 AND DUP2 MSTORE RETURN JUMPDEST DUP3 DUP5 CALLVALUE PUSH2 0x393 JUMPI PUSH1 0x20 SWAP2 PUSH32 0xFFFFFFFFFFFFFFFFFFFFFFFFFFFFFFFFFFFFFFFFFFFFFFFFFFFFFFFFFFFFFFFC SWAP1 DUP4 DUP3 CALLDATASIZE ADD SLT PUSH2 0x31D JUMPI DUP5 CALLDATALOAD SWAP5 PUSH8 0xFFFFFFFFFFFFFFFF SWAP2 DUP3 DUP8 GT PUSH2 0x31D JUMPI DUP7 DUP3 ADD SWAP4 DUP8 CALLDATASIZE SUB SWAP8 PUSH2 0x120 DUP1 SWAP3 DUP11 ADD SLT PUSH2 0x433 JUMPI PUSH1 0x24 SWAP1 DUP2 DUP2 ADD CALLDATALOAD SWAP7 PUSH32 0xFFFFFFFFFFFFFFFFFFFFFFFFFFFFFFFFFFFFFFFFFFFFFFFFFFFFFFFFFFFFF1F0 DUP9 ADD DUP9 DUP2 GT PUSH2 0x1502 JUMPI TIMESTAMP LT ISZERO DUP1 PUSH2 0x14EE JUMPI JUMPDEST ISZERO PUSH2 0x146D JUMPI PUSH1 0x44 DUP3 ADD CALLDATALOAD DUP1 DUP10 GT ISZERO DUP1 PUSH2 0x145F JUMPI JUMPDEST ISZERO PUSH2 0x13B8 JUMPI SWAP2 PUSH2 0x12CB DUP12 SWAP13 SWAP5 SWAP3 DUP12 SWAP13 SWAP12 SWAP8 SWAP7 SWAP5 DUP9 MLOAD SWAP12 DUP14 DUP14 ADD SWAP14 DUP15 MSTORE DUP13 PUSH20 0xFFFFFFFFFFFFFFFFFFFFFFFFFFFFFFFFFFFFFFFF SWAP11 DUP12 PUSH2 0x120F DUP7 PUSH2 0x2E9D JUMP JUMPDEST AND SWAP2 ADD MSTORE PUSH1 0x60 DUP14 ADD MSTORE PUSH1 0x80 DUP13 ADD MSTORE PUSH1 0x64 DUP4 ADD CALLDATALOAD PUSH1 0xA0 DUP13 ADD MSTORE DUP11 PUSH2 0x1249 PUSH2 0x1238 PUSH1 0x84 DUP7 ADD DUP5 PUSH2 0x3F30 JUMP JUMPDEST DUP9 PUSH1 0xC0 DUP6 ADD MSTORE PUSH2 0x160 DUP5 ADD SWAP2 PUSH2 0x3F80 JUMP JUMPDEST SWAP6 PUSH2 0x12BB PUSH2 0x12B0 PUSH2 0x1292 PUSH2 0x1260 PUSH1 0xA4 DUP10 ADD DUP8 PUSH2 0x3F30 JUMP JUMPDEST PUSH32 0xFFFFFFFFFFFFFFFFFFFFFFFFFFFFFFFFFFFFFFFFFFFFFFFFFFFFFFFFFFFFFFC0 SWAP12 SWAP2 DUP13 DUP9 DUP5 SUB ADD PUSH1 0xE0 DUP10 ADD MSTORE PUSH2 0x3F80 JUMP JUMPDEST PUSH2 0x129F PUSH1 0xC4 DUP10 ADD DUP8 PUSH2 0x3FBF JUMP JUMPDEST SWAP1 DUP12 DUP8 DUP5 SUB ADD PUSH2 0x100 DUP9 ADD MSTORE PUSH2 0x4012 JUMP JUMPDEST SWAP4 PUSH1 0xE4 DUP8 ADD SWAP1 PUSH2 0x3FBF JUMP JUMPDEST SWAP3 SWAP1 SWAP2 DUP9 DUP3 DUP7 SUB ADD SWAP2 ADD MSTORE PUSH2 0x4012 JUMP JUMPDEST SWAP4 PUSH32 0xFFFFFFFFFFFFFFFFFFFFFFFFFFFFFFFFFFFFFFFFFFFFFFFFFFFFFFFFFFFFFFDD PUSH2 0x104 DUP4 ADD CALLDATALOAD SWAP2 ADD DUP2 SLT ISZERO PUSH2 0x13B4 JUMPI ADD SWAP6 DUP7 ADD CALLDATALOAD SWAP6 ADD SWAP6 DUP6 GT PUSH2 0x433 JUMPI DUP5 PUSH1 0x6 SHL CALLDATASIZE SUB DUP7 SGT PUSH2 0x433 JUMPI DUP7 DUP3 SUB ADD PUSH2 0x140 DUP8 ADD MSTORE DUP4 DUP2 MSTORE DUP6 SWAP4 SWAP1 DUP10 ADD SWAP3 SWAP1 SWAP2 SWAP1 DUP2 SWAP1 JUMPDEST DUP4 DUP4 LT PUSH2 0x1375 JUMPI POP POP POP POP PUSH2 0x136B SWAP3 POP SUB PUSH32 0xFFFFFFFFFFFFFFFFFFFFFFFFFFFFFFFFFFFFFFFFFFFFFFFFFFFFFFFFFFFFFFE0 DUP2 ADD DUP4 MSTORE DUP3 PUSH2 0x3333 JUMP JUMPDEST MLOAD SWAP1 KECCAK256 SWAP1 MLOAD SWAP1 DUP2 MSTORE RETURN JUMPDEST DUP1 SWAP3 SWAP5 SWAP2 SWAP4 SWAP6 POP PUSH2 0x1385 DUP8 PUSH2 0x2E9D JUMP JUMPDEST AND DUP2 MSTORE DUP10 DUP7 ADD CALLDATALOAD PUSH2 0xFFFF DUP2 AND DUP1 SWAP2 SUB PUSH2 0x5FF JUMPI DUP10 DUP3 DUP2 SWAP3 DUP14 PUSH1 0x1 SWAP6 ADD MSTORE ADD SWAP7 ADD SWAP4 ADD SWAP1 SWAP2 DUP7 SWAP5 SWAP3 SWAP6 SWAP4 SWAP6 PUSH2 0x132F JUMP JUMPDEST DUP6 DUP1 REVERT JUMPDEST PUSH1 0xA4 DUP8 PUSH1 0x5C DUP7 DUP15 DUP15 MLOAD SWAP4 PUSH32 0x8C379A000000000000000000000000000000000000000000000000000000000 DUP6 MSTORE DUP5 ADD MSTORE DUP3 ADD MSTORE PUSH32 0x4B6174696265683732313A207369676E2074696D65206D757374206265206C65 PUSH1 0x44 DUP3 ADD MSTORE PUSH32 0x7373207468616E20696E69742074696D65202620696E69742074696D65206D75 PUSH1 0x64 DUP3 ADD MSTORE PUSH32 0x7374206265206C657373207468616E206578706972652074696D652E00000000 PUSH1 0x84 DUP3 ADD MSTORE REVERT JUMPDEST POP PUSH1 0x64 DUP4 ADD CALLDATALOAD DUP2 GT ISZERO PUSH2 0x11D2 JUMP JUMPDEST PUSH1 0x84 DUP7 PUSH1 0x33 DUP6 DUP14 DUP14 MLOAD SWAP4 PUSH32 0x8C379A000000000000000000000000000000000000000000000000000000000 DUP6 MSTORE DUP5 ADD MSTORE DUP3 ADD MSTORE PUSH32 0x4B6174696265683732313A206D6F7265207468616E203120686F757273207369 PUSH1 0x44 DUP3 ADD MSTORE PUSH32 0x676E2074696D6520646966666572656E63652E00000000000000000000000000 PUSH1 0x64 DUP3 ADD MSTORE REVERT JUMPDEST POP PUSH2 0xE10 DUP9 ADD DUP1 DUP10 GT PUSH2 0x1502 JUMPI TIMESTAMP LT PUSH2 0x11BE JUMP JUMPDEST DUP4 DUP7 PUSH1 0x11 DUP10 PUSH32 0x4E487B7100000000000000000000000000000000000000000000000000000000 DUP4 MSTORE MSTORE REVERT JUMPDEST DUP4 DUP4 CALLVALUE PUSH2 0x31D JUMPI PUSH1 0x20 PUSH32 0xFFFFFFFFFFFFFFFFFFFFFFFFFFFFFFFFFFFFFFFFFFFFFFFFFFFFFFFFFFFFFFFC CALLDATASIZE ADD SLT PUSH2 0x31D JUMPI POP PUSH20 0xFFFFFFFFFFFFFFFFFFFFFFFFFFFFFFFFFFFFFFFF PUSH2 0x111E PUSH1 0x20 SWAP4 CALLDATALOAD PUSH2 0x34C4 JUMP JUMPDEST DUP3 DUP5 CALLVALUE PUSH2 0x393 JUMPI PUSH1 0x20 PUSH32 0xFFFFFFFFFFFFFFFFFFFFFFFFFFFFFFFFFFFFFFFFFFFFFFFFFFFFFFFFFFFFFFFC CALLDATASIZE ADD SLT PUSH2 0x393 JUMPI PUSH1 0x20 SWAP1 PUSH2 0x49D PUSH2 0x15BF PUSH2 0x2E57 JUMP JUMPDEST PUSH20 0xFFFFFFFFFFFFFFFFFFFFFFFFFFFFFFFFFFFFFFFF AND PUSH1 0x0 MSTORE PUSH1 0x12 PUSH1 0x20 MSTORE PUSH1 0x40 PUSH1 0x0 KECCAK256 SLOAD SWAP1 JUMP JUMPDEST DUP3 DUP5 CALLVALUE PUSH2 0x393 JUMPI DUP1 PUSH32 0xFFFFFFFFFFFFFFFFFFFFFFFFFFFFFFFFFFFFFFFFFFFFFFFFFFFFFFFFFFFFFFFC CALLDATASIZE ADD SLT PUSH2 0x393 JUMPI PUSH1 0x20 SWAP1 PUSH2 0x49D PUSH2 0x1624 PUSH2 0x2E57 JUMP JUMPDEST PUSH1 0x24 CALLDATALOAD SWAP1 PUSH2 0x56C7 JUMP JUMPDEST SWAP2 SWAP1 POP CALLVALUE PUSH2 0x31D JUMPI PUSH1 0x20 PUSH32 0xFFFFFFFFFFFFFFFFFFFFFFFFFFFFFFFFFFFFFFFFFFFFFFFFFFFFFFFFFFFFFFFC CALLDATASIZE ADD SLT PUSH2 0x31D JUMPI POP DUP1 CALLDATALOAD SWAP1 PUSH1 0x8 SLOAD DUP3 LT ISZERO PUSH2 0x1679 JUMPI PUSH1 0x20 DUP4 PUSH2 0x385 DUP5 PUSH2 0x3ED4 JUMP JUMPDEST PUSH1 0x84 SWAP1 PUSH1 0x20 DUP5 MLOAD SWAP2 PUSH32 0x8C379A000000000000000000000000000000000000000000000000000000000 DUP4 MSTORE DUP3 ADD MSTORE PUSH1 0x2C PUSH1 0x24 DUP3 ADD MSTORE PUSH32 0x455243373231456E756D657261626C653A20676C6F62616C20696E646578206F PUSH1 0x44 DUP3 ADD MSTORE PUSH32 0x7574206F6620626F756E64730000000000000000000000000000000000000000 PUSH1 0x64 DUP3 ADD MSTORE REVERT JUMPDEST DUP3 DUP5 CALLVALUE PUSH2 0x393 JUMPI PUSH2 0x171C SWAP1 PUSH2 0x1710 CALLDATASIZE PUSH2 0x3211 JUMP JUMPDEST SWAP3 DUP5 SWAP7 SWAP5 SWAP3 SWAP2 SWAP3 PUSH2 0x4115 JUMP JUMPDEST SWAP2 PUSH1 0xF SLOAD SWAP1 DUP4 DUP6 MSTORE PUSH1 0x20 SWAP2 PUSH1 0x11 DUP4 MSTORE DUP4 DUP7 KECCAK256 SSTORE PUSH2 0x1738 DUP5 PUSH2 0x554A JUMP JUMPDEST POP PUSH20 0xFFFFFFFFFFFFFFFFFFFFFFFFFFFFFFFFFFFFFFFF DUP1 PUSH2 0x1758 DUP4 PUSH2 0x404F JUMP JUMPDEST AND DUP7 MSTORE PUSH1 0x12 DUP4 MSTORE PUSH2 0x177A DUP6 DUP6 DUP9 KECCAK256 DUP1 SLOAD DUP3 DUP11 MSTORE PUSH1 0x2 DUP3 ADD DUP8 MSTORE DUP8 DUP11 KECCAK256 SSTORE PUSH2 0x566B JUMP JUMPDEST POP PUSH2 0x178E DUP2 PUSH2 0x1788 DUP5 PUSH2 0x404F JUMP JUMPDEST AND PUSH2 0x55CE JUMP JUMPDEST POP PUSH1 0xC0 DUP3 ADD SWAP1 PUSH2 0x179E DUP3 DUP5 PUSH2 0x40C1 JUMP JUMPDEST SWAP3 SWAP1 POP DUP8 JUMPDEST DUP4 DUP2 LT PUSH2 0x193B JUMPI POP POP POP POP DUP1 PUSH1 0xE0 PUSH2 0x17BC SWAP3 ADD SWAP1 PUSH2 0x40C1 JUMP JUMPDEST DUP1 SWAP4 SWAP2 SWAP4 ISZERO DUP1 ISZERO PUSH2 0x17CB JUMPI DUP7 DUP1 RETURN JUMPDEST PUSH2 0x190F JUMPI DUP4 CALLDATALOAD SWAP4 PUSH2 0x17DC DUP6 DUP8 PUSH2 0x576D JUMP JUMPDEST PUSH1 0x1 DUP3 GT PUSH2 0x17E8 JUMPI DUP7 DUP1 RETURN JUMPDEST DUP2 PUSH1 0x1 LT ISZERO PUSH2 0x18E3 JUMPI DUP4 DUP2 ADD CALLDATALOAD SWAP2 PUSH2 0x1800 DUP4 DUP9 PUSH2 0x576D JUMP JUMPDEST PUSH2 0x1826 DUP5 MLOAD DUP7 DUP2 ADD SWAP1 DUP9 DUP3 MSTORE DUP6 DUP8 DUP3 ADD MSTORE DUP7 DUP2 MSTORE PUSH2 0x181D DUP2 PUSH2 0x3317 JUMP JUMPDEST MLOAD SWAP1 KECCAK256 DUP9 PUSH2 0x576D JUMP JUMPDEST PUSH1 0x2 DUP2 GT PUSH2 0x1833 JUMPI POP DUP7 DUP1 RETURN JUMPDEST PUSH1 0x2 LT ISZERO PUSH2 0x18E3 JUMPI DUP3 ADD CALLDATALOAD SWAP1 PUSH2 0x1849 DUP3 DUP8 PUSH2 0x576D JUMP JUMPDEST PUSH2 0x186F DUP4 MLOAD DUP6 DUP2 ADD SWAP1 DUP4 DUP3 MSTORE DUP5 DUP7 DUP3 ADD MSTORE DUP6 DUP2 MSTORE PUSH2 0x1866 DUP2 PUSH2 0x3317 JUMP JUMPDEST MLOAD SWAP1 KECCAK256 DUP8 PUSH2 0x576D JUMP JUMPDEST DUP3 MLOAD SWAP4 DUP5 ADD SWAP5 DUP6 MSTORE DUP3 DUP5 ADD MSTORE PUSH1 0x60 DUP4 ADD MSTORE PUSH1 0x60 DUP3 MSTORE PUSH1 0x80 DUP3 ADD SWAP1 DUP3 DUP3 LT PUSH8 0xFFFFFFFFFFFFFFFF DUP4 GT OR PUSH2 0x18B7 JUMPI PUSH2 0x18AC SWAP6 SWAP7 POP MSTORE MLOAD SWAP1 KECCAK256 SWAP1 PUSH2 0x576D JUMP JUMPDEST DUP1 DUP3 DUP1 DUP1 DUP1 DUP1 DUP1 DUP7 DUP1 RETURN JUMPDEST PUSH1 0x24 DUP7 PUSH1 0x41 DUP10 PUSH32 0x4E487B7100000000000000000000000000000000000000000000000000000000 DUP4 MSTORE MSTORE REVERT JUMPDEST PUSH1 0x24 DUP8 PUSH1 0x32 DUP11 PUSH32 0x4E487B7100000000000000000000000000000000000000000000000000000000 DUP4 MSTORE MSTORE REVERT JUMPDEST PUSH1 0x24 DUP7 PUSH1 0x32 DUP10 PUSH32 0x4E487B7100000000000000000000000000000000000000000000000000000000 DUP4 MSTORE MSTORE REVERT JUMPDEST DUP1 PUSH2 0x1953 PUSH2 0x199A SWAP3 PUSH2 0x194D DUP6 DUP10 PUSH2 0x40C1 JUMP JUMPDEST SWAP1 PUSH2 0x4EE0 JUMP JUMPDEST CALLDATALOAD DUP11 MSTORE PUSH1 0x15 DUP8 MSTORE PUSH2 0x1966 DUP10 DUP10 DUP13 KECCAK256 PUSH2 0x566B JUMP JUMPDEST POP PUSH2 0x1975 DUP2 PUSH2 0x194D DUP6 DUP10 PUSH2 0x40C1 JUMP JUMPDEST CALLDATALOAD DUP11 MSTORE PUSH1 0xA DUP8 MSTORE DUP4 DUP9 DUP12 KECCAK256 SLOAD AND DUP11 MSTORE PUSH1 0x16 DUP8 MSTORE PUSH2 0x1994 DUP10 DUP10 DUP13 KECCAK256 PUSH2 0x566B JUMP JUMPDEST POP PUSH2 0x4EB3 JUMP JUMPDEST PUSH2 0x17A3 JUMP JUMPDEST DUP4 SWAP2 POP CALLVALUE PUSH2 0x433 JUMPI PUSH1 0x20 PUSH32 0xFFFFFFFFFFFFFFFFFFFFFFFFFFFFFFFFFFFFFFFFFFFFFFFFFFFFFFFFFFFFFFFC CALLDATASIZE ADD SLT PUSH2 0x433 JUMPI PUSH1 0x20 SWAP3 DUP3 SWAP2 CALLDATALOAD DUP2 MSTORE PUSH1 0x17 DUP5 MSTORE KECCAK256 SLOAD SWAP1 MLOAD SWAP1 DUP2 MSTORE RETURN JUMPDEST SWAP1 POP CALLVALUE PUSH2 0x393 JUMPI PUSH1 0x20 DUP1 PUSH32 0xFFFFFFFFFFFFFFFFFFFFFFFFFFFFFFFFFFFFFFFFFFFFFFFFFFFFFFFFFFFFFFFC CALLDATASIZE ADD SLT PUSH2 0x433 JUMPI DUP2 CALLDATALOAD PUSH2 0x1A27 PUSH2 0xA99 DUP3 CALLER PUSH2 0x376E JUMP JUMPDEST PUSH2 0x1A30 DUP2 PUSH2 0x34C4 JUMP JUMPDEST PUSH20 0xFFFFFFFFFFFFFFFFFFFFFFFFFFFFFFFFFFFFFFFF SWAP1 DUP2 DUP2 AND SWAP1 DUP2 ISZERO DUP1 DUP2 ISZERO SWAP2 DUP3 PUSH2 0x1EF3 JUMPI JUMPDEST ISZERO PUSH2 0x1E71 JUMPI ISZERO PUSH2 0x1DC4 JUMPI POP POP POP PUSH1 0x8 SLOAD DUP3 DUP7 MSTORE PUSH1 0x9 DUP5 MSTORE DUP1 DUP8 DUP8 KECCAK256 SSTORE PUSH9 0x10000000000000000 DUP2 LT ISZERO PUSH2 0x1D98 JUMPI PUSH2 0x1ACC PUSH2 0x1A97 DUP3 PUSH1 0x1 DUP7 SWAP5 ADD PUSH1 0x8 SSTORE PUSH2 0x3ED4 JUMP JUMPDEST DUP2 SWAP4 SWAP2 SLOAD SWAP1 PUSH32 0xFFFFFFFFFFFFFFFFFFFFFFFFFFFFFFFFFFFFFFFFFFFFFFFFFFFFFFFFFFFFFFFF SWAP1 PUSH1 0x3 SHL SWAP3 DUP4 SHL SWAP3 SHL NOT AND OR SWAP1 JUMP JUMPDEST SWAP1 SSTORE JUMPDEST PUSH1 0x8 SLOAD SWAP1 PUSH32 0xFFFFFFFFFFFFFFFFFFFFFFFFFFFFFFFFFFFFFFFFFFFFFFFFFFFFFFFFFFFFFFFF SWAP2 DUP3 DUP2 ADD SWAP1 DUP2 GT PUSH2 0x1D6C JUMPI DUP4 DUP8 MSTORE PUSH1 0x9 DUP6 MSTORE PUSH2 0x1B13 DUP9 DUP9 KECCAK256 SLOAD SWAP2 PUSH2 0x3ED4 JUMP JUMPDEST SWAP1 SLOAD SWAP1 PUSH1 0x3 SHL SHR DUP1 PUSH2 0x1B27 PUSH2 0x1A97 DUP5 PUSH2 0x3ED4 JUMP JUMPDEST SWAP1 SSTORE DUP8 MSTORE PUSH1 0x9 DUP6 MSTORE DUP8 DUP8 KECCAK256 SSTORE DUP3 DUP7 MSTORE DUP6 DUP8 DUP2 KECCAK256 SSTORE PUSH1 0x8 SLOAD DUP1 ISZERO PUSH2 0x1D40 JUMPI SWAP6 DUP3 DUP7 SWAP5 SWAP3 DUP3 SWAP10 SWAP5 PUSH32 0x766269423061476C7A4947356C64486476636D7375496E300000000000000000 SWAP10 ADD PUSH2 0x1B78 DUP2 PUSH2 0x3ED4 JUMP JUMPDEST DUP5 DUP3 SLOAD SWAP2 PUSH1 0x3 SHL SHL NOT AND SWAP1 SSTORE PUSH1 0x8 SSTORE PUSH2 0x1B90 DUP5 PUSH2 0x34C4 JUMP JUMPDEST SWAP1 DUP5 DUP5 MSTORE DUP7 DUP9 MSTORE DUP6 DUP5 KECCAK256 SWAP2 PUSH32 0xFFFFFFFFFFFFFFFFFFFFFFFF0000000000000000000000000000000000000000 SWAP3 DUP4 DUP2 SLOAD AND SWAP1 SSTORE AND SWAP2 DUP3 DUP5 MSTORE PUSH1 0x3 DUP9 MSTORE DUP6 DUP5 KECCAK256 SWAP1 DUP2 SLOAD ADD SWAP1 SSTORE DUP4 DUP4 MSTORE PUSH1 0x2 DUP8 MSTORE DUP5 DUP4 KECCAK256 SWAP1 DUP2 SLOAD AND SWAP1 SSTORE PUSH32 0xDDF252AD1BE2C89B69C2B068FC378DAA952BA7F163C4A11628F55A4DF523B3EF DUP3 DUP1 LOG4 PUSH1 0xA DUP4 MSTORE DUP6 DUP2 DUP2 KECCAK256 SWAP2 PUSH1 0xD DUP6 MSTORE DUP2 KECCAK256 PUSH2 0x1C22 DUP2 SLOAD PUSH2 0x34F3 JUMP JUMPDEST DUP1 PUSH2 0x1D04 JUMPI JUMPDEST POP POP POP ADD PUSH2 0x1C36 DUP2 SLOAD PUSH2 0x34F3 JUMP JUMPDEST PUSH1 0x1F DUP2 GT PUSH2 0x1CE3 JUMPI JUMPDEST POP PUSH2 0x131 DUP2 SSTORE DUP5 MSTORE DUP4 KECCAK256 PUSH32 0x646174613A6170706C69636174696F6E2F6A736F6E3B6261736536342C65794A DUP2 SSTORE PUSH32 0x755957316C496A6F67496C526F61584D67644739725A57346761584D67596E56 PUSH1 0x1 DUP3 ADD SSTORE PUSH32 0x79626D566B4C694973496D526C63324E796158423061573975496A6F67496C52 PUSH1 0x2 DUP3 ADD SSTORE PUSH32 0x766132567549476C7A494735766443426A623278735A574E3061574A735A5342 PUSH1 0x3 DUP3 ADD SSTORE ADD SSTORE DUP1 RETURN JUMPDEST PUSH2 0x1CFE SWAP1 DUP3 DUP8 MSTORE PUSH1 0x5 PUSH1 0x1F DUP6 DUP10 KECCAK256 SWAP3 ADD DUP2 SHR DUP3 ADD SWAP2 ADD PUSH2 0x4EF0 JUMP JUMPDEST CODESIZE PUSH2 0x1C3F JUMP JUMPDEST DUP3 PUSH1 0x1F DUP3 GT PUSH1 0x1 EQ PUSH2 0x1D1C JUMPI POP POP SSTORE JUMPDEST DUP6 CODESIZE DUP1 PUSH2 0x1C28 JUMP JUMPDEST SWAP1 SWAP2 DUP1 DUP3 MSTORE PUSH2 0x1D39 PUSH1 0x1F DUP9 DUP5 KECCAK256 SWAP5 ADD PUSH1 0x5 SHR DUP5 ADD PUSH1 0x1 DUP6 ADD PUSH2 0x4EF0 JUMP JUMPDEST SSTORE SSTORE PUSH2 0x1D14 JUMP JUMPDEST PUSH1 0x24 DUP8 PUSH1 0x31 DUP9 PUSH32 0x4E487B7100000000000000000000000000000000000000000000000000000000 DUP4 MSTORE MSTORE REVERT JUMPDEST PUSH1 0x24 DUP8 PUSH1 0x11 DUP9 PUSH32 0x4E487B7100000000000000000000000000000000000000000000000000000000 DUP4 MSTORE MSTORE REVERT JUMPDEST PUSH1 0x24 DUP7 PUSH1 0x41 DUP8 PUSH32 0x4E487B7100000000000000000000000000000000000000000000000000000000 DUP4 MSTORE MSTORE REVERT JUMPDEST PUSH2 0x1DD0 JUMPI JUMPDEST POP POP PUSH2 0x1ACF JUMP JUMPDEST PUSH2 0x1DD9 SWAP1 PUSH2 0x33AE JUMP JUMPDEST SWAP1 PUSH32 0xFFFFFFFFFFFFFFFFFFFFFFFFFFFFFFFFFFFFFFFFFFFFFFFFFFFFFFFFFFFFFFFF DUP3 ADD SWAP2 DUP3 GT PUSH2 0x1D6C JUMPI DUP4 DUP8 MSTORE PUSH1 0x7 DUP6 MSTORE DUP8 DUP8 KECCAK256 SLOAD DUP3 DUP2 SUB PUSH2 0x1E3A JUMPI JUMPDEST POP DUP4 DUP8 MSTORE DUP7 DUP9 DUP2 KECCAK256 SSTORE DUP7 MSTORE PUSH1 0x6 DUP5 MSTORE DUP7 DUP7 KECCAK256 SWAP1 DUP7 MSTORE DUP4 MSTORE DUP5 DUP7 DUP2 KECCAK256 SSTORE CODESIZE DUP1 PUSH2 0x1DC9 JUMP JUMPDEST DUP2 DUP9 MSTORE PUSH1 0x6 DUP7 MSTORE DUP9 DUP9 KECCAK256 DUP4 DUP10 MSTORE DUP7 MSTORE DUP9 DUP9 KECCAK256 SLOAD DUP3 DUP10 MSTORE PUSH1 0x6 DUP8 MSTORE DUP10 DUP10 KECCAK256 DUP3 DUP11 MSTORE DUP8 MSTORE DUP1 DUP11 DUP11 KECCAK256 SSTORE DUP9 MSTORE PUSH1 0x7 DUP7 MSTORE DUP9 DUP9 KECCAK256 SSTORE CODESIZE PUSH2 0x1E17 JUMP JUMPDEST PUSH1 0x84 DUP9 DUP9 DUP13 MLOAD SWAP2 PUSH32 0x8C379A000000000000000000000000000000000000000000000000000000000 DUP4 MSTORE DUP3 ADD MSTORE PUSH1 0x26 PUSH1 0x24 DUP3 ADD MSTORE PUSH32 0x746F6B656E732063616E6E6F74206265207472616E736665726564206F6E2074 PUSH1 0x44 DUP3 ADD MSTORE PUSH32 0x6573746E65740000000000000000000000000000000000000000000000000000 PUSH1 0x64 DUP3 ADD MSTORE REVERT JUMPDEST POP PUSH1 0x1 PUSH2 0x1A56 JUMP JUMPDEST DUP3 DUP5 CALLVALUE PUSH2 0x393 JUMPI PUSH2 0xAAE PUSH2 0xAB3 SWAP2 PUSH2 0x1F12 CALLDATASIZE PUSH2 0x2F2D JUMP JUMPDEST SWAP2 SWAP3 MLOAD SWAP3 PUSH2 0x1F1F DUP5 PUSH2 0x32FB JUMP JUMPDEST DUP7 DUP5 MSTORE PUSH2 0xA9E PUSH2 0xA99 DUP5 CALLER PUSH2 0x376E JUMP JUMPDEST POP POP CALLVALUE PUSH2 0x31D JUMPI DUP1 PUSH32 0xFFFFFFFFFFFFFFFFFFFFFFFFFFFFFFFFFFFFFFFFFFFFFFFFFFFFFFFFFFFFFFFC CALLDATASIZE ADD SLT PUSH2 0x31D JUMPI DUP2 MLOAD SWAP2 DUP3 SWAP2 PUSH1 0x13 SLOAD DUP1 DUP6 MSTORE PUSH1 0x20 DUP1 SWAP6 ADD SWAP5 PUSH1 0x13 DUP4 MSTORE PUSH32 0x66DE8FFDA797E3DE9C05E8FC57B3BF0EC28A930D40B0D285D93C06501CF6A090 SWAP3 SWAP1 JUMPDEST DUP3 DUP3 LT PUSH2 0x1FBA JUMPI PUSH2 0x2C4 DUP7 DUP7 PUSH2 0x1FB0 DUP3 DUP12 SUB DUP4 PUSH2 0x3333 JUMP JUMPDEST MLOAD SWAP2 DUP3 SWAP2 DUP3 PUSH2 0x3192 JUMP JUMPDEST DUP4 SLOAD DUP8 MSTORE SWAP6 DUP7 ADD SWAP6 PUSH1 0x1 SWAP4 DUP5 ADD SWAP4 SWAP1 SWAP2 ADD SWAP1 PUSH2 0x1F98 JUMP JUMPDEST DUP4 DUP4 CALLVALUE PUSH2 0x31D JUMPI PUSH1 0x20 SWAP2 DUP3 PUSH32 0xFFFFFFFFFFFFFFFFFFFFFFFFFFFFFFFFFFFFFFFFFFFFFFFFFFFFFFFFFFFFFFFC CALLDATASIZE ADD SLT PUSH2 0x393 JUMPI DUP2 DUP3 SWAP2 DUP6 CALLDATALOAD DUP5 MSTORE PUSH1 0x11 SWAP4 DUP5 DUP7 MSTORE DUP2 DUP2 KECCAK256 SLOAD SWAP5 DUP6 ISZERO SWAP7 DUP8 ISZERO DUP1 SWAP9 PUSH2 0x21D2 JUMPI JUMPDEST ISZERO PUSH2 0x2176 JUMPI PUSH2 0x2033 DUP8 PUSH1 0xF SLOAD PUSH2 0x3F23 JUMP JUMPDEST SWAP8 PUSH32 0xFFFFFFFFFFFFFFFFFFFFFFFFFFFFFFFFFFFFFFFFFFFFFFFFFFFFFFFFFFFFFFFF SWAP1 DUP2 DUP11 ADD SWAP10 DUP11 GT PUSH2 0x214B JUMPI PUSH2 0x20F7 JUMPI JUMPDEST POP DUP8 PUSH2 0x2096 JUMPI JUMPDEST POP POP POP SWAP1 PUSH2 0x2C4 SWAP3 SWAP2 MLOAD SWAP5 DUP6 SWAP5 DUP6 SWAP1 SWAP5 SWAP4 SWAP3 PUSH1 0x60 SWAP3 PUSH1 0x80 DUP4 ADD SWAP7 DUP4 MSTORE PUSH1 0x20 DUP4 ADD MSTORE PUSH1 0x40 DUP3 ADD MSTORE ADD MSTORE JUMP JUMPDEST SWAP1 SWAP2 SWAP3 SWAP5 POP PUSH1 0x1 DUP7 ADD SWAP8 DUP9 DUP8 GT PUSH2 0x20CC JUMPI POP PUSH2 0x20B6 PUSH2 0x2C4 SWAP7 SWAP8 SWAP9 PUSH2 0x3E6E JUMP JUMPDEST SWAP1 SLOAD SWAP1 PUSH1 0x3 SHL SHR DUP1 SWAP4 MSTORE MSTORE SWAP2 DUP6 SWAP5 SWAP4 DUP8 DUP1 PUSH2 0x206C JUMP JUMPDEST DUP4 DUP4 PUSH1 0x24 SWAP3 PUSH32 0x4E487B7100000000000000000000000000000000000000000000000000000000 DUP4 MSTORE MSTORE REVERT JUMPDEST SWAP1 SWAP5 POP DUP7 ADD DUP7 DUP2 GT PUSH2 0x2120 JUMPI PUSH2 0x210C SWAP1 PUSH2 0x3E6E JUMP JUMPDEST SWAP1 SLOAD SWAP1 PUSH1 0x3 SHL SHR DUP1 DUP4 MSTORE DUP2 DUP6 MSTORE SWAP4 DUP10 PUSH2 0x2065 JUMP JUMPDEST PUSH1 0x24 DUP4 DUP4 DUP12 PUSH32 0x4E487B7100000000000000000000000000000000000000000000000000000000 DUP4 MSTORE MSTORE REVERT JUMPDEST PUSH1 0x24 DUP6 DUP6 DUP14 PUSH32 0x4E487B7100000000000000000000000000000000000000000000000000000000 DUP4 MSTORE MSTORE REVERT JUMPDEST DUP9 PUSH1 0x64 SWAP2 DUP6 MLOAD SWAP2 PUSH32 0x8C379A000000000000000000000000000000000000000000000000000000000 DUP4 MSTORE DUP3 ADD MSTORE PUSH1 0x1E PUSH1 0x24 DUP3 ADD MSTORE PUSH32 0x456E756D657261626C654D61703A206E6F6E6578697374656E74206B65790000 PUSH1 0x44 DUP3 ADD MSTORE REVERT JUMPDEST POP PUSH1 0x10 DUP2 MSTORE DUP4 DUP4 KECCAK256 SLOAD ISZERO ISZERO PUSH2 0x2022 JUMP JUMPDEST DUP3 DUP5 CALLVALUE PUSH2 0x393 JUMPI PUSH1 0x20 SWAP1 PUSH2 0x49D PUSH2 0x21F8 CALLDATASIZE PUSH2 0x2F8D JUMP JUMPDEST SWAP1 PUSH2 0x5754 JUMP JUMPDEST SWAP1 POP CALLVALUE PUSH2 0x393 JUMPI PUSH1 0x20 PUSH32 0xFFFFFFFFFFFFFFFFFFFFFFFFFFFFFFFFFFFFFFFFFFFFFFFFFFFFFFFFFFFFFFFC CALLDATASIZE ADD SLT PUSH2 0x393 JUMPI DUP1 CALLDATALOAD PUSH8 0xFFFFFFFFFFFFFFFF DUP2 GT PUSH2 0x433 JUMPI PUSH2 0x224C SWAP2 CALLDATASIZE SWAP2 ADD PUSH2 0x2D8F JUMP JUMPDEST PUSH2 0x2255 DUP2 PUSH2 0x4FAE JUMP JUMPDEST SWAP3 JUMPDEST DUP2 DUP2 LT PUSH2 0x2273 JUMPI DUP5 MLOAD PUSH1 0x20 DUP1 DUP3 MSTORE DUP2 SWAP1 PUSH2 0x2C4 SWAP1 DUP3 ADD DUP8 PUSH2 0x2DC5 JUMP JUMPDEST DUP1 PUSH2 0x424 PUSH2 0x15BF PUSH2 0x2288 PUSH2 0x228D SWAP5 DUP7 DUP9 PUSH2 0x4EE0 JUMP JUMPDEST PUSH2 0x404F JUMP JUMPDEST PUSH2 0x2257 JUMP JUMPDEST DUP4 DUP4 CALLVALUE PUSH2 0x31D JUMPI DUP2 PUSH32 0xFFFFFFFFFFFFFFFFFFFFFFFFFFFFFFFFFFFFFFFFFFFFFFFFFFFFFFFFFFFFFFFC CALLDATASIZE ADD SLT PUSH2 0x31D JUMPI PUSH2 0x22CA PUSH2 0x2E57 JUMP JUMPDEST PUSH1 0x24 CALLDATALOAD SWAP1 PUSH2 0x22D7 DUP2 PUSH2 0x33AE JUMP JUMPDEST DUP3 LT ISZERO PUSH2 0x2312 JUMPI PUSH1 0x20 SWAP3 DUP5 SWAP3 PUSH20 0xFFFFFFFFFFFFFFFFFFFFFFFFFFFFFFFFFFFFFFFF DUP5 SWAP4 AND DUP3 MSTORE PUSH1 0x6 DUP6 MSTORE DUP3 DUP3 KECCAK256 SWAP1 DUP3 MSTORE DUP5 MSTORE KECCAK256 SLOAD SWAP1 MLOAD SWAP1 DUP2 MSTORE RETURN JUMPDEST PUSH1 0x84 DUP6 PUSH1 0x20 DUP7 MLOAD SWAP2 PUSH32 0x8C379A000000000000000000000000000000000000000000000000000000000 DUP4 MSTORE DUP3 ADD MSTORE PUSH1 0x2B PUSH1 0x24 DUP3 ADD MSTORE PUSH32 0x455243373231456E756D657261626C653A206F776E657220696E646578206F75 PUSH1 0x44 DUP3 ADD MSTORE PUSH32 0x74206F6620626F756E6473000000000000000000000000000000000000000000 PUSH1 0x64 DUP3 ADD MSTORE REVERT JUMPDEST DUP4 SWAP2 POP CALLVALUE PUSH2 0x433 JUMPI PUSH1 0x20 PUSH32 0xFFFFFFFFFFFFFFFFFFFFFFFFFFFFFFFFFFFFFFFFFFFFFFFFFFFFFFFFFFFFFFFC CALLDATASIZE ADD SLT PUSH2 0x433 JUMPI PUSH1 0x20 SWAP3 DUP3 SWAP2 CALLDATALOAD DUP2 MSTORE PUSH1 0x15 DUP5 MSTORE KECCAK256 SLOAD SWAP1 MLOAD SWAP1 DUP2 MSTORE RETURN JUMPDEST SWAP1 POP CALLVALUE PUSH2 0x393 JUMPI PUSH1 0x20 PUSH32 0xFFFFFFFFFFFFFFFFFFFFFFFFFFFFFFFFFFFFFFFFFFFFFFFFFFFFFFFFFFFFFFFC CALLDATASIZE ADD SLT PUSH2 0x393 JUMPI DUP1 CALLDATALOAD PUSH8 0xFFFFFFFFFFFFFFFF DUP2 GT PUSH2 0x433 JUMPI PUSH2 0x242A SWAP2 CALLDATASIZE SWAP2 ADD PUSH2 0x2D8F JUMP JUMPDEST PUSH2 0x2433 DUP2 PUSH2 0x4FAE JUMP JUMPDEST SWAP3 JUMPDEST DUP2 DUP2 LT PUSH2 0x2451 JUMPI DUP5 MLOAD PUSH1 0x20 DUP1 DUP3 MSTORE DUP2 SWAP1 PUSH2 0x2C4 SWAP1 DUP3 ADD DUP8 PUSH2 0x2DC5 JUMP JUMPDEST DUP1 PUSH2 0x424 PUSH2 0x476 PUSH2 0x2288 PUSH2 0x2466 SWAP5 DUP7 DUP9 PUSH2 0x4EE0 JUMP JUMPDEST PUSH2 0x2435 JUMP JUMPDEST SWAP1 POP DUP3 CALLVALUE PUSH2 0x433 JUMPI PUSH1 0x20 SWAP2 DUP3 PUSH32 0xFFFFFFFFFFFFFFFFFFFFFFFFFFFFFFFFFFFFFFFFFFFFFFFFFFFFFFFFFFFFFFFC CALLDATASIZE ADD SLT PUSH2 0x5FF JUMPI DUP1 CALLDATALOAD SWAP1 PUSH8 0xFFFFFFFFFFFFFFFF DUP3 GT PUSH2 0x5FB JUMPI PUSH2 0x24C0 SWAP2 SWAP5 SWAP4 SWAP5 CALLDATASIZE SWAP2 ADD PUSH2 0x2D8F JUMP JUMPDEST SWAP2 SWAP1 PUSH2 0x24CB DUP4 PUSH2 0x4F4E JUMP JUMPDEST PUSH2 0x24D7 DUP4 MLOAD SWAP2 DUP3 PUSH2 0x3333 JUMP JUMPDEST DUP4 DUP2 MSTORE PUSH32 0xFFFFFFFFFFFFFFFFFFFFFFFFFFFFFFFFFFFFFFFFFFFFFFFFFFFFFFFFFFFFFFE0 PUSH2 0x2504 DUP6 PUSH2 0x4F4E JUMP JUMPDEST ADD DUP6 JUMPDEST DUP2 DUP2 LT PUSH2 0x264D JUMPI POP POP PUSH2 0x2519 DUP5 PUSH2 0x4FAE JUMP JUMPDEST PUSH2 0x2522 DUP6 PUSH2 0x4FFD JUMP JUMPDEST SWAP3 PUSH2 0x252C DUP7 PUSH2 0x4FFD JUMP JUMPDEST SWAP6 DUP8 JUMPDEST DUP2 DUP2 LT PUSH2 0x25EF JUMPI POP POP POP DUP4 MLOAD SWAP7 DUP8 SWAP7 PUSH1 0x80 DUP9 ADD PUSH1 0x80 DUP10 MSTORE DUP5 MLOAD DUP1 SWAP2 MSTORE PUSH1 0xA0 DUP10 ADD DUP4 PUSH1 0xA0 DUP4 PUSH1 0x5 SHL DUP13 ADD ADD SWAP7 ADD SWAP3 SWAP1 JUMPDEST DUP3 DUP3 LT PUSH2 0x259C JUMPI DUP11 DUP8 SUB DUP6 DUP13 ADD MSTORE DUP11 DUP1 PUSH2 0x2C4 DUP13 PUSH2 0x258E DUP14 DUP14 PUSH2 0x2581 DUP15 DUP15 PUSH2 0x2DC5 JUMP JUMPDEST SWAP2 DUP7 DUP4 SUB SWAP1 DUP8 ADD MSTORE PUSH2 0x3118 JUMP JUMPDEST SWAP1 DUP4 DUP3 SUB PUSH1 0x60 DUP6 ADD MSTORE PUSH2 0x3118 JUMP JUMPDEST SWAP2 SWAP4 DUP1 PUSH2 0x25DA DUP9 PUSH32 0xFFFFFFFFFFFFFFFFFFFFFFFFFFFFFFFFFFFFFFFFFFFFFFFFFFFFFFFFFFFFFF60 PUSH1 0x1 SWAP6 SWAP8 SWAP12 SWAP13 SWAP14 SWAP15 DUP5 SWAP11 SWAP12 SUB ADD DUP7 MSTORE DUP11 MLOAD PUSH2 0x301A JUMP JUMPDEST SWAP9 ADD SWAP3 ADD SWAP3 ADD DUP11 SWAP10 SWAP9 SWAP8 SWAP7 SWAP6 SWAP5 SWAP4 SWAP2 SWAP3 PUSH2 0x255E JUMP JUMPDEST DUP1 PUSH2 0x261F DUP2 DUP11 PUSH2 0x2614 PUSH2 0x260E SWAP14 SWAP15 SWAP9 SWAP10 SWAP11 SWAP12 SWAP13 SWAP14 PUSH2 0x2640 SWAP7 DUP9 DUP11 PUSH2 0x4EE0 JUMP JUMPDEST CALLDATALOAD PUSH2 0x50D4 JUMP JUMPDEST SWAP3 SWAP6 SWAP2 SWAP5 SWAP1 SWAP4 PUSH2 0x5071 JUMP JUMPDEST MSTORE PUSH2 0x262A DUP5 DUP13 PUSH2 0x5071 JUMP JUMPDEST MSTORE PUSH2 0x2635 DUP4 DUP10 PUSH2 0x5071 JUMP JUMPDEST MSTORE PUSH2 0x312 DUP3 DUP10 PUSH2 0x5071 JUMP JUMPDEST SWAP9 SWAP8 SWAP7 SWAP6 SWAP5 SWAP4 SWAP3 SWAP9 PUSH2 0x252F JUMP JUMPDEST SWAP7 DUP1 SWAP3 SWAP4 SWAP5 SWAP6 SWAP7 SWAP8 PUSH2 0x265D PUSH2 0x4F66 JUMP JUMPDEST DUP3 DUP3 DUP8 ADD ADD MSTORE ADD SWAP7 SWAP6 SWAP5 SWAP4 SWAP3 SWAP2 SWAP7 PUSH2 0x2507 JUMP JUMPDEST DUP4 DUP4 CALLVALUE PUSH2 0x31D JUMPI PUSH2 0x2680 CALLDATASIZE PUSH2 0x2F8D JUMP JUMPDEST SWAP3 DUP3 SWAP1 DUP4 SWAP3 DUP5 MSTORE PUSH1 0x17 PUSH1 0x20 MSTORE PUSH2 0x754 DUP2 DUP6 KECCAK256 SWAP6 DUP7 PUSH2 0x54A4 JUMP JUMPDEST DUP4 DUP4 CALLVALUE PUSH2 0x31D JUMPI PUSH1 0x20 PUSH32 0xFFFFFFFFFFFFFFFFFFFFFFFFFFFFFFFFFFFFFFFFFFFFFFFFFFFFFFFFFFFFFFFC CALLDATASIZE ADD SLT PUSH2 0x31D JUMPI POP PUSH2 0x49D PUSH1 0x20 SWAP3 CALLDATALOAD PUSH2 0x5488 JUMP JUMPDEST DUP3 CALLVALUE PUSH2 0x31D JUMPI PUSH2 0xAB3 PUSH2 0x26E9 CALLDATASIZE PUSH2 0x2F2D JUMP JUMPDEST SWAP2 PUSH2 0x26F7 PUSH2 0xA99 DUP5 CALLER PUSH2 0x376E JUMP JUMPDEST PUSH2 0x3874 JUMP JUMPDEST DUP3 DUP5 CALLVALUE PUSH2 0x393 JUMPI DUP2 PUSH32 0xFFFFFFFFFFFFFFFFFFFFFFFFFFFFFFFFFFFFFFFFFFFFFFFFFFFFFFFFFFFFFFFC CALLDATASIZE ADD SLT PUSH2 0x393 JUMPI PUSH1 0x20 SWAP1 PUSH1 0x13 SLOAD SWAP1 MLOAD SWAP1 DUP2 MSTORE RETURN JUMPDEST DUP3 DUP5 CALLVALUE PUSH2 0x393 JUMPI DUP2 PUSH32 0xFFFFFFFFFFFFFFFFFFFFFFFFFFFFFFFFFFFFFFFFFFFFFFFFFFFFFFFFFFFFFFFC CALLDATASIZE ADD SLT PUSH2 0x393 JUMPI PUSH1 0x20 SWAP1 PUSH1 0x8 SLOAD SWAP1 MLOAD SWAP1 DUP2 MSTORE RETURN JUMPDEST SWAP2 SWAP1 POP CALLVALUE PUSH2 0x31D JUMPI DUP3 PUSH32 0xFFFFFFFFFFFFFFFFFFFFFFFFFFFFFFFFFFFFFFFFFFFFFFFFFFFFFFFFFFFFFFFC CALLDATASIZE ADD SLT PUSH2 0x31D JUMPI DUP2 CALLDATALOAD SWAP2 PUSH1 0x24 CALLDATALOAD PUSH8 0xFFFFFFFFFFFFFFFF DUP2 GT PUSH2 0x433 JUMPI PUSH2 0x27C8 SWAP2 CALLDATASIZE SWAP2 ADD PUSH2 0x2D8F JUMP JUMPDEST SWAP3 SWAP1 SWAP2 PUSH2 0x27D4 DUP5 PUSH2 0x4FAE JUMP JUMPDEST SWAP4 DUP2 JUMPDEST DUP2 DUP2 LT PUSH2 0x27F3 JUMPI DUP7 MLOAD PUSH1 0x20 DUP1 DUP3 MSTORE DUP2 SWAP1 PUSH2 0x2C4 SWAP1 DUP3 ADD DUP10 PUSH2 0x2DC5 JUMP JUMPDEST DUP1 PUSH2 0x301 PUSH2 0x2805 PUSH2 0x2816 SWAP4 DUP6 DUP10 PUSH2 0x4EE0 JUMP JUMPDEST CALLDATALOAD DUP7 DUP7 MSTORE PUSH1 0x15 PUSH1 0x20 MSTORE DUP10 DUP7 KECCAK256 PUSH2 0x3F0B JUMP JUMPDEST PUSH2 0x27D7 JUMP JUMPDEST POP POP CALLVALUE PUSH2 0x31D JUMPI PUSH2 0x282B CALLDATASIZE PUSH2 0x2EBE JUMP JUMPDEST PUSH2 0x2837 DUP2 SWAP4 SWAP3 SWAP4 PUSH2 0x4FAE JUMP JUMPDEST SWAP4 JUMPDEST DUP2 DUP2 LT PUSH2 0x2855 JUMPI DUP6 MLOAD PUSH1 0x20 DUP1 DUP3 MSTORE DUP2 SWAP1 PUSH2 0x2C4 SWAP1 DUP3 ADD DUP9 PUSH2 0x2DC5 JUMP JUMPDEST DUP1 PUSH2 0x286E PUSH2 0x2867 PUSH2 0x2878 SWAP4 DUP6 DUP9 PUSH2 0x4EE0 JUMP JUMPDEST CALLDATALOAD DUP6 PUSH2 0x56C7 JUMP JUMPDEST PUSH2 0x312 DUP3 DUP9 PUSH2 0x5071 JUMP JUMPDEST PUSH2 0x2839 JUMP JUMPDEST DUP3 DUP5 CALLVALUE PUSH2 0x393 JUMPI DUP2 PUSH32 0xFFFFFFFFFFFFFFFFFFFFFFFFFFFFFFFFFFFFFFFFFFFFFFFFFFFFFFFFFFFFFFFC CALLDATASIZE ADD SLT PUSH2 0x393 JUMPI PUSH1 0x20 SWAP1 MLOAD TIMESTAMP DUP2 MSTORE RETURN JUMPDEST DUP4 SWAP2 POP CALLVALUE PUSH2 0x433 JUMPI DUP2 PUSH32 0xFFFFFFFFFFFFFFFFFFFFFFFFFFFFFFFFFFFFFFFFFFFFFFFFFFFFFFFFFFFFFFFC CALLDATASIZE ADD SLT PUSH2 0x433 JUMPI PUSH2 0x28EF PUSH2 0x2E57 JUMP JUMPDEST SWAP1 PUSH1 0x24 CALLDATALOAD SWAP3 PUSH20 0xFFFFFFFFFFFFFFFFFFFFFFFFFFFFFFFFFFFFFFFF SWAP2 DUP3 DUP1 PUSH2 0x2915 DUP8 PUSH2 0x34C4 JUMP JUMPDEST AND SWAP5 AND SWAP4 DUP1 DUP6 EQ PUSH2 0x2A33 JUMPI DUP1 CALLER EQ SWAP1 DUP2 ISZERO PUSH2 0x2A14 JUMPI JUMPDEST POP ISZERO PUSH2 0x2992 JUMPI DUP5 DUP7 MSTORE PUSH1 0x20 MSTORE DUP5 KECCAK256 DUP3 PUSH32 0xFFFFFFFFFFFFFFFFFFFFFFFF0000000000000000000000000000000000000000 DUP3 SLOAD AND OR SWAP1 SSTORE PUSH2 0x296A DUP4 PUSH2 0x34C4 JUMP JUMPDEST AND PUSH32 0x8C5BE1E5EBEC7D5BD14F71427D1E84F3DD0314C0F7B2291E5B200AC8C7C3B925 DUP5 DUP1 LOG4 DUP1 RETURN JUMPDEST PUSH1 0x20 PUSH1 0x84 SWAP3 MLOAD SWAP2 PUSH32 0x8C379A000000000000000000000000000000000000000000000000000000000 DUP4 MSTORE DUP3 ADD MSTORE PUSH1 0x3D PUSH1 0x24 DUP3 ADD MSTORE PUSH32 0x4552433732313A20617070726F76652063616C6C6572206973206E6F7420746F PUSH1 0x44 DUP3 ADD MSTORE PUSH32 0x6B656E206F776E6572206F7220617070726F76656420666F7220616C6C000000 PUSH1 0x64 DUP3 ADD MSTORE REVERT JUMPDEST SWAP1 POP DUP7 MSTORE PUSH1 0x5 PUSH1 0x20 MSTORE DUP2 DUP7 KECCAK256 CALLER DUP8 MSTORE PUSH1 0x20 MSTORE PUSH1 0xFF DUP3 DUP8 KECCAK256 SLOAD AND DUP8 PUSH2 0x292B JUMP JUMPDEST POP PUSH1 0x20 PUSH1 0x84 SWAP3 MLOAD SWAP2 PUSH32 0x8C379A000000000000000000000000000000000000000000000000000000000 DUP4 MSTORE DUP3 ADD MSTORE PUSH1 0x21 PUSH1 0x24 DUP3 ADD MSTORE PUSH32 0x4552433732313A20617070726F76616C20746F2063757272656E74206F776E65 PUSH1 0x44 DUP3 ADD MSTORE PUSH32 0x7200000000000000000000000000000000000000000000000000000000000000 PUSH1 0x64 DUP3 ADD MSTORE REVERT JUMPDEST DUP4 DUP4 CALLVALUE PUSH2 0x31D JUMPI PUSH1 0x20 PUSH32 0xFFFFFFFFFFFFFFFFFFFFFFFFFFFFFFFFFFFFFFFFFFFFFFFFFFFFFFFFFFFFFFFC CALLDATASIZE ADD SLT PUSH2 0x31D JUMPI POP PUSH20 0xFFFFFFFFFFFFFFFFFFFFFFFFFFFFFFFFFFFFFFFF PUSH2 0x111E PUSH1 0x20 SWAP4 CALLDATALOAD PUSH2 0x35FB JUMP JUMPDEST DUP3 DUP5 CALLVALUE PUSH2 0x393 JUMPI DUP2 PUSH32 0xFFFFFFFFFFFFFFFFFFFFFFFFFFFFFFFFFFFFFFFFFFFFFFFFFFFFFFFFFFFFFFFC CALLDATASIZE ADD SLT PUSH2 0x393 JUMPI DUP1 MLOAD SWAP1 DUP3 DUP1 SLOAD PUSH2 0x2B48 DUP2 PUSH2 0x34F3 JUMP JUMPDEST DUP1 DUP6 MSTORE SWAP2 PUSH1 0x1 SWAP2 DUP1 DUP4 AND SWAP1 DUP2 ISZERO PUSH2 0xE58 JUMPI POP PUSH1 0x1 EQ PUSH2 0x2B73 JUMPI POP POP POP PUSH2 0x6DA DUP3 PUSH2 0x2C4 SWAP5 SUB DUP4 PUSH2 0x3333 JUMP JUMPDEST DUP1 DUP1 SWAP7 POP MSTORE PUSH32 0x290DECD9548B62A8D60345A988386FC84BA6BC95484008F6362F93160EF3E563 JUMPDEST DUP3 DUP7 LT PUSH2 0x2BB7 JUMPI POP POP POP PUSH2 0x6DA DUP3 PUSH1 0x20 PUSH2 0x2C4 SWAP6 DUP3 ADD ADD SWAP5 PUSH2 0xDEA JUMP JUMPDEST DUP1 SLOAD PUSH1 0x20 DUP8 DUP8 ADD DUP2 ADD SWAP2 SWAP1 SWAP2 MSTORE SWAP1 SWAP6 ADD SWAP5 DUP2 ADD PUSH2 0x2B9A JUMP JUMPDEST DUP4 SWAP2 POP CALLVALUE PUSH2 0x433 JUMPI PUSH1 0x20 PUSH32 0xFFFFFFFFFFFFFFFFFFFFFFFFFFFFFFFFFFFFFFFFFFFFFFFFFFFFFFFFFFFFFFFC CALLDATASIZE ADD SLT PUSH2 0x433 JUMPI CALLDATALOAD SWAP1 PUSH32 0xFFFFFFFF00000000000000000000000000000000000000000000000000000000 DUP3 AND DUP1 SWAP3 SUB PUSH2 0x433 JUMPI PUSH1 0x20 SWAP3 POP PUSH32 0x780E9D6300000000000000000000000000000000000000000000000000000000 DUP3 EQ SWAP2 DUP3 ISZERO PUSH2 0x2C65 JUMPI JUMPDEST POP MLOAD SWAP1 ISZERO ISZERO DUP2 MSTORE RETURN JUMPDEST SWAP1 SWAP2 POP PUSH32 0x80AC58CD00000000000000000000000000000000000000000000000000000000 DUP2 EQ SWAP1 DUP2 ISZERO PUSH2 0x2CCC JUMPI JUMPDEST DUP2 ISZERO PUSH2 0x2CA2 JUMPI JUMPDEST POP SWAP1 DUP4 PUSH2 0x2C5C JUMP JUMPDEST PUSH32 0x1FFC9A700000000000000000000000000000000000000000000000000000000 SWAP2 POP EQ DUP4 PUSH2 0x2C9A JUMP JUMPDEST PUSH32 0x5B5E139F00000000000000000000000000000000000000000000000000000000 DUP2 EQ SWAP2 POP PUSH2 0x2C93 JUMP JUMPDEST SWAP1 POP CALLVALUE PUSH2 0x393 JUMPI DUP3 PUSH32 0xFFFFFFFFFFFFFFFFFFFFFFFFFFFFFFFFFFFFFFFFFFFFFFFFFFFFFFFFFFFFFFFC CALLDATASIZE ADD SLT PUSH2 0x393 JUMPI DUP1 CALLDATALOAD SWAP1 PUSH1 0x24 CALLDATALOAD PUSH8 0xFFFFFFFFFFFFFFFF DUP2 GT PUSH2 0x5FF JUMPI PUSH2 0x2D47 SWAP2 CALLDATASIZE SWAP2 ADD PUSH2 0x2D8F JUMP JUMPDEST PUSH2 0x2D53 DUP2 SWAP4 SWAP3 SWAP4 PUSH2 0x4FAE JUMP JUMPDEST SWAP4 JUMPDEST DUP2 DUP2 LT PUSH2 0x2D71 JUMPI DUP6 MLOAD PUSH1 0x20 DUP1 DUP3 MSTORE DUP2 SWAP1 PUSH2 0x2C4 SWAP1 DUP3 ADD DUP9 PUSH2 0x2DC5 JUMP JUMPDEST DUP1 PUSH2 0x286E PUSH2 0x2D83 PUSH2 0x2D8A SWAP4 DUP6 DUP9 PUSH2 0x4EE0 JUMP JUMPDEST CALLDATALOAD DUP6 PUSH2 0x5754 JUMP JUMPDEST PUSH2 0x2D55 JUMP JUMPDEST SWAP2 DUP2 PUSH1 0x1F DUP5 ADD SLT ISZERO PUSH2 0x2DC0 JUMPI DUP3 CALLDATALOAD SWAP2 PUSH8 0xFFFFFFFFFFFFFFFF DUP4 GT PUSH2 0x2DC0 JUMPI PUSH1 0x20 DUP1 DUP6 ADD SWAP5 DUP5 PUSH1 0x5 SHL ADD ADD GT PUSH2 0x2DC0 JUMPI JUMP JUMPDEST PUSH1 0x0 DUP1 REVERT JUMPDEST SWAP1 DUP2 MLOAD DUP1 DUP3 MSTORE PUSH1 0x20 DUP1 DUP1 SWAP4 ADD SWAP4 ADD SWAP2 PUSH1 0x0 JUMPDEST DUP3 DUP2 LT PUSH2 0x2DE5 JUMPI POP POP POP POP SWAP1 JUMP JUMPDEST DUP4 MLOAD DUP6 MSTORE SWAP4 DUP2 ADD SWAP4 SWAP3 DUP2 ADD SWAP3 PUSH1 0x1 ADD PUSH2 0x2DD7 JUMP JUMPDEST SWAP2 SWAP1 DUP3 MLOAD SWAP3 DUP4 DUP3 MSTORE PUSH1 0x0 JUMPDEST DUP5 DUP2 LT PUSH2 0x2E43 JUMPI POP POP PUSH32 0xFFFFFFFFFFFFFFFFFFFFFFFFFFFFFFFFFFFFFFFFFFFFFFFFFFFFFFFFFFFFFFE0 PUSH1 0x1F DUP5 PUSH1 0x0 PUSH1 0x20 DUP1 SWAP7 SWAP8 DUP7 ADD ADD MSTORE ADD AND ADD ADD SWAP1 JUMP JUMPDEST PUSH1 0x20 DUP2 DUP4 ADD DUP2 ADD MLOAD DUP5 DUP4 ADD DUP3 ADD MSTORE ADD PUSH2 0x2E04 JUMP JUMPDEST PUSH1 0x4 CALLDATALOAD SWAP1 PUSH20 0xFFFFFFFFFFFFFFFFFFFFFFFFFFFFFFFFFFFFFFFF DUP3 AND DUP3 SUB PUSH2 0x2DC0 JUMPI JUMP JUMPDEST PUSH1 0x24 CALLDATALOAD SWAP1 PUSH20 0xFFFFFFFFFFFFFFFFFFFFFFFFFFFFFFFFFFFFFFFF DUP3 AND DUP3 SUB PUSH2 0x2DC0 JUMPI JUMP JUMPDEST CALLDATALOAD SWAP1 PUSH20 0xFFFFFFFFFFFFFFFFFFFFFFFFFFFFFFFFFFFFFFFF DUP3 AND DUP3 SUB PUSH2 0x2DC0 JUMPI JUMP JUMPDEST SWAP1 PUSH1 0x40 PUSH32 0xFFFFFFFFFFFFFFFFFFFFFFFFFFFFFFFFFFFFFFFFFFFFFFFFFFFFFFFFFFFFFFFC DUP4 ADD SLT PUSH2 0x2DC0 JUMPI PUSH1 0x4 CALLDATALOAD PUSH20 0xFFFFFFFFFFFFFFFFFFFFFFFFFFFFFFFFFFFFFFFF DUP2 AND DUP2 SUB PUSH2 0x2DC0 JUMPI SWAP2 PUSH1 0x24 CALLDATALOAD SWAP1 PUSH8 0xFFFFFFFFFFFFFFFF DUP3 GT PUSH2 0x2DC0 JUMPI PUSH2 0x2F29 SWAP2 PUSH1 0x4 ADD PUSH2 0x2D8F JUMP JUMPDEST SWAP1 SWAP2 JUMP JUMPDEST PUSH32 0xFFFFFFFFFFFFFFFFFFFFFFFFFFFFFFFFFFFFFFFFFFFFFFFFFFFFFFFFFFFFFFFC PUSH1 0x60 SWAP2 ADD SLT PUSH2 0x2DC0 JUMPI PUSH20 0xFFFFFFFFFFFFFFFFFFFFFFFFFFFFFFFFFFFFFFFF SWAP1 PUSH1 0x4 CALLDATALOAD DUP3 DUP2 AND DUP2 SUB PUSH2 0x2DC0 JUMPI SWAP2 PUSH1 0x24 CALLDATALOAD SWAP1 DUP2 AND DUP2 SUB PUSH2 0x2DC0 JUMPI SWAP1 PUSH1 0x44 CALLDATALOAD SWAP1 JUMP JUMPDEST PUSH32 0xFFFFFFFFFFFFFFFFFFFFFFFFFFFFFFFFFFFFFFFFFFFFFFFFFFFFFFFFFFFFFFFC PUSH1 0x40 SWAP2 ADD SLT PUSH2 0x2DC0 JUMPI PUSH1 0x4 CALLDATALOAD SWAP1 PUSH1 0x24 CALLDATALOAD SWAP1 JUMP JUMPDEST SWAP1 DUP2 MLOAD DUP1 DUP3 MSTORE PUSH1 0x20 DUP1 DUP1 SWAP4 ADD SWAP4 ADD SWAP2 PUSH1 0x0 JUMPDEST DUP3 DUP2 LT PUSH2 0x2FE1 JUMPI POP POP POP POP SWAP1 JUMP JUMPDEST DUP4 MLOAD DUP1 MLOAD PUSH20 0xFFFFFFFFFFFFFFFFFFFFFFFFFFFFFFFFFFFFFFFF AND DUP7 MSTORE DUP3 ADD MLOAD PUSH2 0xFFFF AND DUP6 DUP4 ADD MSTORE PUSH1 0x40 SWAP1 SWAP5 ADD SWAP4 SWAP3 DUP2 ADD SWAP3 PUSH1 0x1 ADD PUSH2 0x2FD3 JUMP JUMPDEST SWAP2 SWAP1 PUSH20 0xFFFFFFFFFFFFFFFFFFFFFFFFFFFFFFFFFFFFFFFF DUP4 MLOAD AND DUP2 MSTORE PUSH1 0x20 SWAP3 DUP4 DUP2 ADD MLOAD DUP5 DUP4 ADD MSTORE PUSH1 0x40 DUP2 ADD MLOAD PUSH1 0x40 DUP4 ADD MSTORE PUSH1 0x60 DUP2 ADD MLOAD PUSH1 0x60 DUP4 ADD MSTORE PUSH2 0x3083 PUSH2 0x3071 PUSH1 0x80 DUP4 ADD MLOAD PUSH2 0x120 DUP1 PUSH1 0x80 DUP8 ADD MSTORE DUP6 ADD SWAP1 PUSH2 0x2DF9 JUMP JUMPDEST PUSH1 0xA0 DUP4 ADD MLOAD DUP5 DUP3 SUB PUSH1 0xA0 DUP7 ADD MSTORE PUSH2 0x2DF9 JUMP JUMPDEST SWAP2 PUSH1 0xC0 DUP3 ADD MLOAD SWAP3 DUP2 DUP2 SUB PUSH1 0xC0 DUP4 ADD MSTORE DUP6 DUP1 DUP6 MLOAD SWAP3 DUP4 DUP2 MSTORE ADD SWAP5 ADD SWAP1 PUSH1 0x0 JUMPDEST DUP8 DUP3 DUP3 LT PUSH2 0x3104 JUMPI POP POP POP POP PUSH1 0xE0 DUP3 ADD MLOAD SWAP3 DUP2 DUP2 SUB PUSH1 0xE0 DUP4 ADD MSTORE DUP6 DUP1 DUP6 MLOAD SWAP3 DUP4 DUP2 MSTORE ADD SWAP5 ADD SWAP1 PUSH1 0x0 JUMPDEST DUP2 DUP2 LT PUSH2 0x30F0 JUMPI POP POP POP PUSH2 0x30ED SWAP4 SWAP5 POP PUSH2 0x100 DUP1 SWAP3 ADD MLOAD SWAP2 DUP2 DUP5 SUB SWAP2 ADD MSTORE PUSH2 0x2FC1 JUMP JUMPDEST SWAP1 JUMP JUMPDEST DUP3 MLOAD DUP7 MSTORE SWAP5 DUP8 ADD SWAP5 SWAP2 DUP8 ADD SWAP2 PUSH1 0x1 ADD PUSH2 0x30CA JUMP JUMPDEST DUP4 MLOAD DUP8 MSTORE SWAP6 DUP7 ADD SWAP6 SWAP1 SWAP3 ADD SWAP2 PUSH1 0x1 ADD PUSH2 0x30A1 JUMP JUMPDEST SWAP1 DUP1 DUP3 MLOAD SWAP1 DUP2 DUP2 MSTORE PUSH1 0x20 DUP1 SWAP2 ADD SWAP3 DUP2 DUP1 DUP5 PUSH1 0x5 SHL DUP4 ADD ADD SWAP6 ADD SWAP4 PUSH1 0x0 SWAP2 JUMPDEST DUP5 DUP4 LT PUSH2 0x3146 JUMPI POP POP POP POP POP POP SWAP1 JUMP JUMPDEST SWAP1 SWAP2 SWAP3 SWAP4 SWAP5 SWAP6 DUP5 DUP1 PUSH2 0x3182 DUP4 PUSH32 0xFFFFFFFFFFFFFFFFFFFFFFFFFFFFFFFFFFFFFFFFFFFFFFFFFFFFFFFFFFFFFFE0 DUP7 PUSH1 0x1 SWAP7 SUB ADD DUP8 MSTORE DUP11 MLOAD PUSH2 0x2DF9 JUMP JUMPDEST SWAP9 ADD SWAP4 ADD SWAP4 ADD SWAP2 SWAP5 SWAP4 SWAP3 SWAP1 PUSH2 0x3136 JUMP JUMPDEST PUSH1 0x20 SWAP1 DUP2 PUSH1 0x40 DUP2 DUP4 ADD SWAP3 DUP3 DUP2 MSTORE DUP6 MLOAD DUP1 SWAP5 MSTORE ADD SWAP4 ADD SWAP2 PUSH1 0x0 JUMPDEST DUP3 DUP2 LT PUSH2 0x31B9 JUMPI POP POP POP POP SWAP1 JUMP JUMPDEST DUP4 MLOAD PUSH20 0xFFFFFFFFFFFFFFFFFFFFFFFFFFFFFFFFFFFFFFFF AND DUP6 MSTORE SWAP4 DUP2 ADD SWAP4 SWAP3 DUP2 ADD SWAP3 PUSH1 0x1 ADD PUSH2 0x31AB JUMP JUMPDEST SWAP2 DUP2 PUSH1 0x1F DUP5 ADD SLT ISZERO PUSH2 0x2DC0 JUMPI DUP3 CALLDATALOAD SWAP2 PUSH8 0xFFFFFFFFFFFFFFFF DUP4 GT PUSH2 0x2DC0 JUMPI PUSH1 0x20 DUP4 DUP2 DUP7 ADD SWAP6 ADD ADD GT PUSH2 0x2DC0 JUMPI JUMP JUMPDEST PUSH32 0xFFFFFFFFFFFFFFFFFFFFFFFFFFFFFFFFFFFFFFFFFFFFFFFFFFFFFFFFFFFFFFFC SWAP1 PUSH1 0x60 DUP3 DUP3 ADD SLT PUSH2 0x2DC0 JUMPI PUSH1 0x4 CALLDATALOAD PUSH8 0xFFFFFFFFFFFFFFFF SWAP3 DUP4 DUP3 GT PUSH2 0x2DC0 JUMPI PUSH2 0x120 SWAP1 DUP3 DUP5 SUB ADD SLT PUSH2 0x2DC0 JUMPI PUSH1 0x4 ADD SWAP3 PUSH1 0x24 CALLDATALOAD DUP4 DUP2 GT PUSH2 0x2DC0 JUMPI DUP3 PUSH2 0x3279 SWAP2 PUSH1 0x4 ADD PUSH2 0x31E3 JUMP JUMPDEST SWAP4 SWAP1 SWAP4 SWAP3 PUSH1 0x44 CALLDATALOAD SWAP2 DUP3 GT PUSH2 0x2DC0 JUMPI PUSH2 0x2F29 SWAP2 PUSH1 0x4 ADD PUSH2 0x31E3 JUMP JUMPDEST PUSH2 0x120 DUP2 ADD SWAP1 DUP2 LT PUSH8 0xFFFFFFFFFFFFFFFF DUP3 GT OR PUSH2 0x32B0 JUMPI PUSH1 0x40 MSTORE JUMP JUMPDEST PUSH32 0x4E487B7100000000000000000000000000000000000000000000000000000000 PUSH1 0x0 MSTORE PUSH1 0x41 PUSH1 0x4 MSTORE PUSH1 0x24 PUSH1 0x0 REVERT JUMPDEST PUSH1 0x40 DUP2 ADD SWAP1 DUP2 LT PUSH8 0xFFFFFFFFFFFFFFFF DUP3 GT OR PUSH2 0x32B0 JUMPI PUSH1 0x40 MSTORE JUMP JUMPDEST PUSH1 0x20 DUP2 ADD SWAP1 DUP2 LT PUSH8 0xFFFFFFFFFFFFFFFF DUP3 GT OR PUSH2 0x32B0 JUMPI PUSH1 0x40 MSTORE JUMP JUMPDEST PUSH1 0x60 DUP2 ADD SWAP1 DUP2 LT PUSH8 0xFFFFFFFFFFFFFFFF DUP3 GT OR PUSH2 0x32B0 JUMPI PUSH1 0x40 MSTORE JUMP JUMPDEST SWAP1 PUSH1 0x1F PUSH32 0xFFFFFFFFFFFFFFFFFFFFFFFFFFFFFFFFFFFFFFFFFFFFFFFFFFFFFFFFFFFFFFE0 SWAP2 ADD AND DUP2 ADD SWAP1 DUP2 LT PUSH8 0xFFFFFFFFFFFFFFFF DUP3 GT OR PUSH2 0x32B0 JUMPI PUSH1 0x40 MSTORE JUMP JUMPDEST PUSH8 0xFFFFFFFFFFFFFFFF DUP2 GT PUSH2 0x32B0 JUMPI PUSH1 0x1F ADD PUSH32 0xFFFFFFFFFFFFFFFFFFFFFFFFFFFFFFFFFFFFFFFFFFFFFFFFFFFFFFFFFFFFFFE0 AND PUSH1 0x20 ADD SWAP1 JUMP JUMPDEST PUSH20 0xFFFFFFFFFFFFFFFFFFFFFFFFFFFFFFFFFFFFFFFF AND DUP1 ISZERO PUSH2 0x33DB JUMPI PUSH1 0x0 MSTORE PUSH1 0x3 PUSH1 0x20 MSTORE PUSH1 0x40 PUSH1 0x0 KECCAK256 SLOAD SWAP1 JUMP JUMPDEST PUSH1 0x84 PUSH1 0x40 MLOAD PUSH32 0x8C379A000000000000000000000000000000000000000000000000000000000 DUP2 MSTORE PUSH1 0x20 PUSH1 0x4 DUP3 ADD MSTORE PUSH1 0x29 PUSH1 0x24 DUP3 ADD MSTORE PUSH32 0x4552433732313A2061646472657373207A65726F206973206E6F742061207661 PUSH1 0x44 DUP3 ADD MSTORE PUSH32 0x6C6964206F776E65720000000000000000000000000000000000000000000000 PUSH1 0x64 DUP3 ADD MSTORE REVERT JUMPDEST ISZERO PUSH2 0x3466 JUMPI JUMP JUMPDEST PUSH1 0x64 PUSH1 0x40 MLOAD PUSH32 0x8C379A000000000000000000000000000000000000000000000000000000000 DUP2 MSTORE PUSH1 0x20 PUSH1 0x4 DUP3 ADD MSTORE PUSH1 0x18 PUSH1 0x24 DUP3 ADD MSTORE PUSH32 0x4552433732313A20696E76616C696420746F6B656E2049440000000000000000 PUSH1 0x44 DUP3 ADD MSTORE REVERT JUMPDEST PUSH1 0x0 MSTORE PUSH1 0x2 PUSH1 0x20 MSTORE PUSH20 0xFFFFFFFFFFFFFFFFFFFFFFFFFFFFFFFFFFFFFFFF PUSH1 0x40 PUSH1 0x0 KECCAK256 SLOAD AND PUSH2 0x30ED DUP2 ISZERO ISZERO PUSH2 0x345F JUMP JUMPDEST SWAP1 PUSH1 0x1 DUP3 DUP2 SHR SWAP3 AND DUP1 ISZERO PUSH2 0x353C JUMPI JUMPDEST PUSH1 0x20 DUP4 LT EQ PUSH2 0x350D JUMPI JUMP JUMPDEST PUSH32 0x4E487B7100000000000000000000000000000000000000000000000000000000 PUSH1 0x0 MSTORE PUSH1 0x22 PUSH1 0x4 MSTORE PUSH1 0x24 PUSH1 0x0 REVERT JUMPDEST SWAP2 PUSH1 0x7F AND SWAP2 PUSH2 0x3502 JUMP JUMPDEST SWAP1 PUSH1 0x0 SWAP3 SWAP2 DUP1 SLOAD SWAP2 PUSH2 0x3557 DUP4 PUSH2 0x34F3 JUMP JUMPDEST SWAP2 DUP3 DUP3 MSTORE PUSH1 0x1 SWAP4 DUP5 DUP2 AND SWAP1 DUP2 PUSH1 0x0 EQ PUSH2 0x35B9 JUMPI POP PUSH1 0x1 EQ PUSH2 0x3579 JUMPI JUMPDEST POP POP POP POP JUMP JUMPDEST SWAP1 SWAP2 SWAP4 SWAP5 POP PUSH1 0x0 MSTORE PUSH1 0x20 SWAP3 DUP4 PUSH1 0x0 KECCAK256 SWAP3 DUP5 PUSH1 0x0 SWAP5 JUMPDEST DUP4 DUP7 LT PUSH2 0x35A5 JUMPI POP POP POP POP ADD ADD SWAP1 CODESIZE DUP1 DUP1 DUP1 PUSH2 0x3573 JUMP JUMPDEST DUP1 SLOAD DUP6 DUP8 ADD DUP4 ADD MSTORE SWAP5 ADD SWAP4 DUP6 SWAP1 DUP3 ADD PUSH2 0x358E JUMP JUMPDEST SWAP2 POP POP PUSH1 0x20 SWAP5 SWAP6 POP PUSH32 0xFFFFFFFFFFFFFFFFFFFFFFFFFFFFFFFFFFFFFFFFFFFFFFFFFFFFFFFFFFFFFF00 SWAP2 SWAP4 POP AND DUP4 DUP4 ADD MSTORE ISZERO ISZERO PUSH1 0x5 SHL ADD ADD SWAP1 CODESIZE DUP1 DUP1 DUP1 PUSH2 0x3573 JUMP JUMPDEST PUSH2 0x3630 PUSH2 0x362B DUP3 PUSH1 0x0 MSTORE PUSH1 0x2 PUSH1 0x20 MSTORE PUSH20 0xFFFFFFFFFFFFFFFFFFFFFFFFFFFFFFFFFFFFFFFF PUSH1 0x40 PUSH1 0x0 KECCAK256 SLOAD AND ISZERO ISZERO SWAP1 JUMP JUMPDEST PUSH2 0x345F JUMP JUMPDEST PUSH1 0x0 MSTORE PUSH1 0x4 PUSH1 0x20 MSTORE PUSH20 0xFFFFFFFFFFFFFFFFFFFFFFFFFFFFFFFFFFFFFFFF PUSH1 0x40 PUSH1 0x0 KECCAK256 SLOAD AND SWAP1 JUMP JUMPDEST ISZERO PUSH2 0x365E JUMPI JUMP JUMPDEST PUSH1 0x84 PUSH1 0x40 MLOAD PUSH32 0x8C379A000000000000000000000000000000000000000000000000000000000 DUP2 MSTORE PUSH1 0x20 PUSH1 0x4 DUP3 ADD MSTORE PUSH1 0x2D PUSH1 0x24 DUP3 ADD MSTORE PUSH32 0x4552433732313A2063616C6C6572206973206E6F7420746F6B656E206F776E65 PUSH1 0x44 DUP3 ADD MSTORE PUSH32 0x72206F7220617070726F76656400000000000000000000000000000000000000 PUSH1 0x64 DUP3 ADD MSTORE REVERT JUMPDEST ISZERO PUSH2 0x36E9 JUMPI JUMP JUMPDEST PUSH1 0x40 MLOAD PUSH32 0x8C379A000000000000000000000000000000000000000000000000000000000 DUP2 MSTORE PUSH1 0x20 PUSH1 0x4 DUP3 ADD MSTORE PUSH1 0x32 PUSH1 0x24 DUP3 ADD MSTORE PUSH32 0x4552433732313A207472616E7366657220746F206E6F6E204552433732315265 PUSH1 0x44 DUP3 ADD MSTORE PUSH32 0x63656976657220696D706C656D656E7465720000000000000000000000000000 PUSH1 0x64 DUP3 ADD MSTORE PUSH1 0x84 SWAP1 REVERT JUMPDEST SWAP1 PUSH20 0xFFFFFFFFFFFFFFFFFFFFFFFFFFFFFFFFFFFFFFFF DUP1 DUP1 PUSH2 0x378F DUP5 PUSH2 0x34C4 JUMP JUMPDEST AND SWAP4 AND SWAP2 DUP4 DUP4 EQ SWAP4 DUP5 ISZERO PUSH2 0x37C2 JUMPI JUMPDEST POP DUP4 ISZERO PUSH2 0x37AC JUMPI JUMPDEST POP POP POP SWAP1 JUMP JUMPDEST PUSH2 0x37B8 SWAP2 SWAP3 SWAP4 POP PUSH2 0x35FB JUMP JUMPDEST AND EQ CODESIZE DUP1 DUP1 PUSH2 0x37A6 JUMP JUMPDEST SWAP1 SWAP4 POP PUSH1 0x0 MSTORE PUSH1 0x5 PUSH1 0x20 MSTORE PUSH1 0x40 PUSH1 0x0 KECCAK256 DUP3 PUSH1 0x0 MSTORE PUSH1 0x20 MSTORE PUSH1 0xFF PUSH1 0x40 PUSH1 0x0 KECCAK256 SLOAD AND SWAP3 CODESIZE PUSH2 0x379E JUMP JUMPDEST ISZERO PUSH2 0x37F0 JUMPI JUMP JUMPDEST PUSH1 0x84 PUSH1 0x40 MLOAD PUSH32 0x8C379A000000000000000000000000000000000000000000000000000000000 DUP2 MSTORE PUSH1 0x20 PUSH1 0x4 DUP3 ADD MSTORE PUSH1 0x25 PUSH1 0x24 DUP3 ADD MSTORE PUSH32 0x4552433732313A207472616E736665722066726F6D20696E636F727265637420 PUSH1 0x44 DUP3 ADD MSTORE PUSH32 0x6F776E6572000000000000000000000000000000000000000000000000000000 PUSH1 0x64 DUP3 ADD MSTORE REVERT JUMPDEST PUSH2 0x38A5 SWAP2 PUSH2 0x3881 DUP5 PUSH2 0x34C4 JUMP JUMPDEST PUSH20 0xFFFFFFFFFFFFFFFFFFFFFFFFFFFFFFFFFFFFFFFF SWAP4 DUP5 DUP5 AND SWAP4 SWAP2 DUP6 AND DUP5 EQ PUSH2 0x37E9 JUMP JUMPDEST DUP4 DUP3 AND SWAP4 DUP5 ISZERO PUSH2 0x3B81 JUMPI DUP4 ISZERO SWAP2 DUP3 DUP1 ISZERO PUSH2 0x3B79 JUMPI JUMPDEST ISZERO PUSH2 0x3AF5 JUMPI DUP5 SWAP3 ISZERO PUSH2 0x3A05 JUMPI POP SWAP1 POP PUSH1 0x8 SLOAD SWAP1 DUP6 PUSH1 0x0 MSTORE PUSH1 0x9 PUSH1 0x20 MSTORE DUP2 PUSH1 0x40 PUSH1 0x0 KECCAK256 SSTORE PUSH9 0x10000000000000000 DUP3 LT ISZERO PUSH2 0x32B0 JUMPI PUSH2 0x3923 SWAP3 DUP7 PUSH2 0x3907 PUSH2 0x1A97 DUP6 PUSH1 0x1 DUP10 SWAP8 ADD PUSH1 0x8 SSTORE PUSH2 0x3ED4 JUMP JUMPDEST SWAP1 SSTORE JUMPDEST DUP3 DUP7 SUB PUSH2 0x39D2 JUMPI JUMPDEST POP PUSH2 0x391C DUP7 PUSH2 0x34C4 JUMP JUMPDEST AND EQ PUSH2 0x37E9 JUMP JUMPDEST PUSH32 0xDDF252AD1BE2C89B69C2B068FC378DAA952BA7F163C4A11628F55A4DF523B3EF PUSH1 0x0 DUP5 DUP2 MSTORE PUSH1 0x4 PUSH1 0x20 MSTORE PUSH1 0x40 DUP2 KECCAK256 PUSH32 0xFFFFFFFFFFFFFFFFFFFFFFFF0000000000000000000000000000000000000000 SWAP1 DUP2 DUP2 SLOAD AND SWAP1 SSTORE DUP4 DUP3 MSTORE PUSH1 0x3 PUSH1 0x20 MSTORE PUSH1 0x40 DUP3 KECCAK256 PUSH32 0xFFFFFFFFFFFFFFFFFFFFFFFFFFFFFFFFFFFFFFFFFFFFFFFFFFFFFFFFFFFFFFFF DUP2 SLOAD ADD SWAP1 SSTORE DUP5 DUP3 MSTORE PUSH1 0x40 DUP3 KECCAK256 PUSH1 0x1 DUP2 SLOAD ADD SWAP1 SSTORE DUP6 DUP3 MSTORE PUSH1 0x2 PUSH1 0x20 MSTORE DUP5 PUSH1 0x40 DUP4 KECCAK256 SWAP2 DUP3 SLOAD AND OR SWAP1 SSTORE DUP1 LOG4 JUMP JUMPDEST PUSH2 0x39DB SWAP1 PUSH2 0x33AE JUMP JUMPDEST PUSH1 0x40 PUSH1 0x0 DUP8 DUP2 MSTORE PUSH1 0x6 PUSH1 0x20 MSTORE DUP2 DUP2 KECCAK256 DUP4 DUP3 MSTORE PUSH1 0x20 MSTORE DUP9 DUP3 DUP3 KECCAK256 SSTORE DUP9 DUP2 MSTORE PUSH1 0x7 PUSH1 0x20 MSTORE KECCAK256 SSTORE CODESIZE PUSH2 0x3912 JUMP JUMPDEST DUP6 DUP4 SUB PUSH2 0x3A17 JUMPI JUMPDEST POP PUSH2 0x3923 SWAP3 PUSH2 0x390A JUMP JUMPDEST PUSH2 0x3A22 SWAP2 SWAP3 POP PUSH2 0x33AE JUMP JUMPDEST SWAP1 PUSH32 0xFFFFFFFFFFFFFFFFFFFFFFFFFFFFFFFFFFFFFFFFFFFFFFFFFFFFFFFFFFFFFFFF DUP3 ADD SWAP2 DUP3 GT PUSH2 0x3AC6 JUMPI PUSH2 0x3923 SWAP3 DUP5 SWAP3 PUSH1 0x0 SWAP1 DUP9 DUP3 MSTORE PUSH1 0x20 SWAP1 PUSH1 0x7 DUP3 MSTORE PUSH1 0x40 SWAP2 DUP3 DUP5 KECCAK256 SLOAD DUP3 DUP2 SUB PUSH2 0x3A8F JUMPI JUMPDEST POP DUP11 DUP5 MSTORE DUP4 DUP4 DUP2 KECCAK256 SSTORE DUP7 DUP5 MSTORE PUSH1 0x6 DUP2 MSTORE DUP3 DUP5 KECCAK256 SWAP2 DUP5 MSTORE MSTORE DUP2 KECCAK256 SSTORE SWAP3 PUSH2 0x3A0D JUMP JUMPDEST DUP8 DUP6 MSTORE PUSH1 0x6 DUP3 MSTORE DUP4 DUP6 KECCAK256 DUP4 DUP7 MSTORE DUP3 MSTORE DUP4 DUP6 KECCAK256 SLOAD DUP9 DUP7 MSTORE PUSH1 0x6 DUP4 MSTORE DUP5 DUP7 KECCAK256 DUP3 DUP8 MSTORE DUP4 MSTORE DUP1 DUP6 DUP8 KECCAK256 SSTORE DUP6 MSTORE PUSH1 0x7 DUP3 MSTORE DUP4 DUP6 KECCAK256 SSTORE CODESIZE PUSH2 0x3A6F JUMP JUMPDEST PUSH32 0x4E487B7100000000000000000000000000000000000000000000000000000000 PUSH1 0x0 MSTORE PUSH1 0x11 PUSH1 0x4 MSTORE PUSH1 0x24 PUSH1 0x0 REVERT JUMPDEST PUSH1 0x84 PUSH1 0x40 MLOAD PUSH32 0x8C379A000000000000000000000000000000000000000000000000000000000 DUP2 MSTORE PUSH1 0x20 PUSH1 0x4 DUP3 ADD MSTORE PUSH1 0x26 PUSH1 0x24 DUP3 ADD MSTORE PUSH32 0x746F6B656E732063616E6E6F74206265207472616E736665726564206F6E2074 PUSH1 0x44 DUP3 ADD MSTORE PUSH32 0x6573746E65740000000000000000000000000000000000000000000000000000 PUSH1 0x64 DUP3 ADD MSTORE REVERT JUMPDEST POP PUSH1 0x0 PUSH2 0x38BA JUMP JUMPDEST PUSH1 0x84 PUSH1 0x40 MLOAD PUSH32 0x8C379A000000000000000000000000000000000000000000000000000000000 DUP2 MSTORE PUSH1 0x20 PUSH1 0x4 DUP3 ADD MSTORE PUSH1 0x24 DUP1 DUP3 ADD MSTORE PUSH32 0x4552433732313A207472616E7366657220746F20746865207A65726F20616464 PUSH1 0x44 DUP3 ADD MSTORE PUSH32 0x7265737300000000000000000000000000000000000000000000000000000000 PUSH1 0x64 DUP3 ADD MSTORE REVERT JUMPDEST SWAP2 SWAP3 PUSH1 0x0 SWAP3 SWAP1 SWAP2 SWAP1 DUP1 EXTCODESIZE ISZERO PUSH2 0x3DD8 JUMPI PUSH2 0x3C80 SWAP5 PUSH1 0x40 MLOAD DUP1 SWAP3 PUSH32 0x150B7A0200000000000000000000000000000000000000000000000000000000 SWAP5 DUP6 DUP4 MSTORE CALLER PUSH1 0x4 DUP5 ADD MSTORE DUP8 PUSH1 0x24 DUP5 ADD MSTORE PUSH1 0x44 DUP4 ADD MSTORE PUSH1 0x80 PUSH1 0x64 DUP4 ADD MSTORE DUP2 DUP8 PUSH20 0xFFFFFFFFFFFFFFFFFFFFFFFFFFFFFFFFFFFFFFFF DUP3 PUSH1 0x20 SWAP12 DUP13 SWAP8 PUSH1 0x84 DUP4 ADD SWAP1 PUSH2 0x2DF9 JUMP JUMPDEST SUB SWAP4 AND GAS CALL DUP5 SWAP2 DUP2 PUSH2 0x3D80 JUMPI JUMPDEST POP PUSH2 0x3D57 JUMPI POP POP POP RETURNDATASIZE PUSH1 0x0 EQ PUSH2 0x3D4F JUMPI RETURNDATASIZE PUSH2 0x3CA7 DUP2 PUSH2 0x3374 JUMP JUMPDEST SWAP1 PUSH2 0x3CB5 PUSH1 0x40 MLOAD SWAP3 DUP4 PUSH2 0x3333 JUMP JUMPDEST DUP2 MSTORE DUP1 SWAP2 DUP4 RETURNDATASIZE SWAP3 ADD RETURNDATACOPY JUMPDEST DUP1 MLOAD SWAP2 DUP3 PUSH2 0x3D4C JUMPI PUSH1 0x40 MLOAD PUSH32 0x8C379A000000000000000000000000000000000000000000000000000000000 DUP2 MSTORE PUSH1 0x20 PUSH1 0x4 DUP3 ADD MSTORE PUSH1 0x32 PUSH1 0x24 DUP3 ADD MSTORE PUSH32 0x4552433732313A207472616E7366657220746F206E6F6E204552433732315265 PUSH1 0x44 DUP3 ADD MSTORE PUSH32 0x63656976657220696D706C656D656E7465720000000000000000000000000000 PUSH1 0x64 DUP3 ADD MSTORE PUSH1 0x84 SWAP1 REVERT JUMPDEST ADD REVERT JUMPDEST POP PUSH1 0x60 PUSH2 0x3CBF JUMP JUMPDEST PUSH32 0xFFFFFFFF00000000000000000000000000000000000000000000000000000000 AND EQ SWAP3 POP SWAP1 POP JUMP JUMPDEST SWAP1 SWAP2 POP DUP6 DUP2 DUP2 RETURNDATASIZE DUP4 GT PUSH2 0x3DD1 JUMPI JUMPDEST PUSH2 0x3D98 DUP2 DUP4 PUSH2 0x3333 JUMP JUMPDEST DUP2 ADD SUB SLT PUSH2 0x5FB JUMPI MLOAD PUSH32 0xFFFFFFFF00000000000000000000000000000000000000000000000000000000 DUP2 AND DUP2 SUB PUSH2 0x5FB JUMPI SWAP1 CODESIZE PUSH2 0x3C8D JUMP JUMPDEST POP RETURNDATASIZE PUSH2 0x3D8E JUMP JUMPDEST POP POP SWAP2 POP POP PUSH1 0x1 SWAP1 JUMP JUMPDEST SWAP3 SWAP4 PUSH1 0x0 SWAP4 SWAP1 SWAP3 SWAP2 DUP1 EXTCODESIZE ISZERO PUSH2 0x3E63 JUMPI SWAP5 DUP5 SWAP2 PUSH2 0x3C80 SWAP7 PUSH1 0x40 MLOAD DUP1 SWAP5 DUP2 SWAP4 PUSH32 0x150B7A0200000000000000000000000000000000000000000000000000000000 SWAP8 DUP9 DUP5 MSTORE CALLER PUSH1 0x4 DUP6 ADD MSTORE PUSH20 0xFFFFFFFFFFFFFFFFFFFFFFFFFFFFFFFFFFFFFFFF DUP1 SWAP3 AND PUSH1 0x24 DUP6 ADD MSTORE PUSH1 0x44 DUP5 ADD MSTORE PUSH1 0x80 PUSH1 0x64 DUP5 ADD MSTORE DUP3 PUSH1 0x20 SWAP12 DUP13 SWAP8 PUSH1 0x84 DUP4 ADD SWAP1 PUSH2 0x2DF9 JUMP JUMPDEST POP POP POP SWAP2 POP POP PUSH1 0x1 SWAP1 JUMP JUMPDEST PUSH1 0xF SLOAD DUP2 LT ISZERO PUSH2 0x3EA5 JUMPI PUSH1 0xF PUSH1 0x0 MSTORE PUSH32 0x8D1108E10BCB7C27DDDFC02ED9D693A074039D026CF4EA4240B40F7D581AC802 ADD SWAP1 PUSH1 0x0 SWAP1 JUMP JUMPDEST PUSH32 0x4E487B7100000000000000000000000000000000000000000000000000000000 PUSH1 0x0 MSTORE PUSH1 0x32 PUSH1 0x4 MSTORE PUSH1 0x24 PUSH1 0x0 REVERT JUMPDEST PUSH1 0x8 SLOAD DUP2 LT ISZERO PUSH2 0x3EA5 JUMPI PUSH1 0x8 PUSH1 0x0 MSTORE PUSH32 0xF3F7A9FE364FAAB93B216DA50A3214154F22A0A2B415B23A84C8169E8B636EE3 ADD SWAP1 PUSH1 0x0 SWAP1 JUMP JUMPDEST DUP1 SLOAD DUP3 LT ISZERO PUSH2 0x3EA5 JUMPI PUSH1 0x0 MSTORE PUSH1 0x20 PUSH1 0x0 KECCAK256 ADD SWAP1 PUSH1 0x0 SWAP1 JUMP JUMPDEST SWAP2 SWAP1 DUP3 SUB SWAP2 DUP3 GT PUSH2 0x3AC6 JUMPI JUMP JUMPDEST SWAP1 CALLDATALOAD PUSH32 0xFFFFFFFFFFFFFFFFFFFFFFFFFFFFFFFFFFFFFFFFFFFFFFFFFFFFFFFFFFFFFFE1 DUP3 CALLDATASIZE SUB ADD DUP2 SLT ISZERO PUSH2 0x2DC0 JUMPI ADD PUSH1 0x20 DUP2 CALLDATALOAD SWAP2 ADD SWAP2 PUSH8 0xFFFFFFFFFFFFFFFF DUP3 GT PUSH2 0x2DC0 JUMPI DUP2 CALLDATASIZE SUB DUP4 SGT PUSH2 0x2DC0 JUMPI JUMP JUMPDEST PUSH1 0x1F DUP3 PUSH1 0x20 SWAP5 SWAP4 PUSH32 0xFFFFFFFFFFFFFFFFFFFFFFFFFFFFFFFFFFFFFFFFFFFFFFFFFFFFFFFFFFFFFFE0 SWAP4 DUP2 DUP7 MSTORE DUP7 DUP7 ADD CALLDATACOPY PUSH1 0x0 DUP6 DUP3 DUP7 ADD ADD MSTORE ADD AND ADD ADD SWAP1 JUMP JUMPDEST SWAP1 CALLDATALOAD PUSH32 0xFFFFFFFFFFFFFFFFFFFFFFFFFFFFFFFFFFFFFFFFFFFFFFFFFFFFFFFFFFFFFFE1 DUP3 CALLDATASIZE SUB ADD DUP2 SLT ISZERO PUSH2 0x2DC0 JUMPI ADD PUSH1 0x20 DUP2 CALLDATALOAD SWAP2 ADD SWAP2 PUSH8 0xFFFFFFFFFFFFFFFF DUP3 GT PUSH2 0x2DC0 JUMPI DUP2 PUSH1 0x5 SHL CALLDATASIZE SUB DUP4 SGT PUSH2 0x2DC0 JUMPI JUMP JUMPDEST SWAP1 SWAP2 DUP3 DUP2 MSTORE PUSH32 0x7FFFFFFFFFFFFFFFFFFFFFFFFFFFFFFFFFFFFFFFFFFFFFFFFFFFFFFFFFFFFFF DUP4 GT PUSH2 0x2DC0 JUMPI PUSH1 0x20 SWAP3 PUSH1 0x5 SHL DUP1 SWAP3 DUP5 DUP4 ADD CALLDATACOPY ADD ADD SWAP1 JUMP JUMPDEST CALLDATALOAD PUSH20 0xFFFFFFFFFFFFFFFFFFFFFFFFFFFFFFFFFFFFFFFF DUP2 AND DUP2 SUB PUSH2 0x2DC0 JUMPI SWAP1 JUMP JUMPDEST SWAP1 CALLDATALOAD SWAP1 PUSH32 0xFFFFFFFFFFFFFFFFFFFFFFFFFFFFFFFFFFFFFFFFFFFFFFFFFFFFFFFFFFFFFFE1 DUP2 CALLDATASIZE SUB ADD DUP3 SLT ISZERO PUSH2 0x2DC0 JUMPI ADD DUP1 CALLDATALOAD SWAP1 PUSH8 0xFFFFFFFFFFFFFFFF DUP3 GT PUSH2 0x2DC0 JUMPI PUSH1 0x20 ADD SWAP2 DUP2 CALLDATASIZE SUB DUP4 SGT PUSH2 0x2DC0 JUMPI JUMP JUMPDEST SWAP1 CALLDATALOAD SWAP1 PUSH32 0xFFFFFFFFFFFFFFFFFFFFFFFFFFFFFFFFFFFFFFFFFFFFFFFFFFFFFFFFFFFFFFE1 DUP2 CALLDATASIZE SUB ADD DUP3 SLT ISZERO PUSH2 0x2DC0 JUMPI ADD DUP1 CALLDATALOAD SWAP1 PUSH8 0xFFFFFFFFFFFFFFFF DUP3 GT PUSH2 0x2DC0 JUMPI PUSH1 0x20 ADD SWAP2 DUP2 PUSH1 0x5 SHL CALLDATASIZE SUB DUP4 SGT PUSH2 0x2DC0 JUMPI JUMP JUMPDEST SWAP4 SWAP5 SWAP3 SWAP1 SWAP5 PUSH1 0x40 MLOAD PUSH1 0x20 DUP2 ADD SWAP1 DUP5 DUP9 DUP4 CALLDATACOPY PUSH2 0x4163 PUSH1 0x2C DUP3 DUP8 DUP2 ADD PUSH32 0x73616D616E2077696C736F6E0000000000000000000000000000000000000000 PUSH1 0x20 DUP3 ADD MSTORE SUB PUSH1 0xC DUP2 ADD DUP5 MSTORE ADD DUP3 PUSH2 0x3333 JUMP JUMPDEST MLOAD SWAP1 KECCAK256 SWAP5 DUP6 PUSH1 0x0 MSTORE PUSH1 0xE PUSH1 0x20 MSTORE TIMESTAMP PUSH1 0x40 PUSH1 0x0 KECCAK256 SSTORE PUSH2 0x4180 DUP2 PUSH2 0x404F JUMP JUMPDEST PUSH1 0x40 MLOAD PUSH2 0x418C DUP2 PUSH2 0x32FB JUMP JUMPDEST PUSH1 0x0 DUP2 MSTORE PUSH20 0xFFFFFFFFFFFFFFFFFFFFFFFFFFFFFFFFFFFFFFFF DUP3 AND SWAP2 DUP3 ISZERO PUSH2 0x4DF0 JUMPI PUSH2 0x41E4 PUSH2 0x41DE DUP11 PUSH1 0x0 MSTORE PUSH1 0x2 PUSH1 0x20 MSTORE PUSH20 0xFFFFFFFFFFFFFFFFFFFFFFFFFFFFFFFFFFFFFFFF PUSH1 0x40 PUSH1 0x0 KECCAK256 SLOAD AND ISZERO ISZERO SWAP1 JUMP JUMPDEST ISZERO PUSH2 0x4E4E JUMP JUMPDEST PUSH1 0x8 SLOAD SWAP2 DUP10 PUSH1 0x0 MSTORE PUSH1 0x9 PUSH1 0x20 MSTORE DUP3 PUSH1 0x40 PUSH1 0x0 KECCAK256 SSTORE PUSH9 0x10000000000000000 DUP4 LT ISZERO PUSH2 0x32B0 JUMPI DUP10 PUSH2 0xAAE SWAP3 DUP2 PUSH2 0x4225 PUSH2 0x1A97 DUP8 PUSH1 0x1 PUSH2 0x4305 SWAP10 ADD PUSH1 0x8 SSTORE PUSH2 0x3ED4 JUMP JUMPDEST SWAP1 SSTORE PUSH2 0x4230 DUP2 PUSH2 0x33AE JUMP JUMPDEST DUP7 PUSH1 0x0 MSTORE PUSH1 0x6 PUSH1 0x20 MSTORE PUSH1 0x40 PUSH1 0x0 KECCAK256 DUP2 PUSH1 0x0 MSTORE PUSH1 0x20 MSTORE DUP3 PUSH1 0x40 PUSH1 0x0 KECCAK256 SSTORE DUP3 PUSH1 0x0 MSTORE PUSH1 0x7 PUSH1 0x20 MSTORE PUSH1 0x40 PUSH1 0x0 KECCAK256 SSTORE PUSH2 0x428B PUSH2 0x41DE DUP4 PUSH1 0x0 MSTORE PUSH1 0x2 PUSH1 0x20 MSTORE PUSH20 0xFFFFFFFFFFFFFFFFFFFFFFFFFFFFFFFFFFFFFFFF PUSH1 0x40 PUSH1 0x0 KECCAK256 SLOAD AND ISZERO ISZERO SWAP1 JUMP JUMPDEST DUP6 PUSH1 0x0 MSTORE PUSH1 0x3 PUSH1 0x20 MSTORE PUSH1 0x40 PUSH1 0x0 KECCAK256 PUSH1 0x1 DUP2 SLOAD ADD SWAP1 SSTORE DUP2 PUSH1 0x0 MSTORE PUSH1 0x2 PUSH1 0x20 MSTORE DUP2 PUSH1 0x40 PUSH1 0x0 KECCAK256 SWAP7 PUSH32 0xFFFFFFFFFFFFFFFFFFFFFFFF0000000000000000000000000000000000000000 SWAP8 DUP2 DUP10 DUP3 SLOAD AND OR SWAP1 SSTORE PUSH1 0x0 PUSH32 0xDDF252AD1BE2C89B69C2B068FC378DAA952BA7F163C4A11628F55A4DF523B3EF DUP2 DUP1 LOG4 PUSH2 0x3C04 JUMP JUMPDEST PUSH2 0x4312 PUSH1 0x80 DUP4 ADD DUP4 PUSH2 0x4070 JUMP JUMPDEST PUSH2 0x4336 PUSH1 0x20 PUSH1 0x40 MLOAD DUP4 DUP2 SWAP5 DUP4 DUP4 ADD SWAP7 DUP8 CALLDATACOPY DUP2 ADD PUSH1 0x0 DUP4 DUP3 ADD MSTORE SUB DUP1 DUP5 MSTORE ADD DUP3 PUSH2 0x3333 JUMP JUMPDEST MLOAD SWAP1 KECCAK256 DUP1 PUSH1 0x0 MSTORE PUSH1 0xB PUSH1 0x20 MSTORE PUSH1 0x40 PUSH1 0x0 KECCAK256 SLOAD PUSH2 0x4D6C JUMPI PUSH1 0x0 MSTORE PUSH1 0xB PUSH1 0x20 MSTORE DUP7 PUSH1 0x40 PUSH1 0x0 KECCAK256 SSTORE DUP7 PUSH1 0x0 MSTORE PUSH1 0xA PUSH1 0x20 MSTORE PUSH1 0x40 PUSH1 0x0 KECCAK256 SWAP1 PUSH20 0xFFFFFFFFFFFFFFFFFFFFFFFFFFFFFFFFFFFFFFFF PUSH2 0x4388 DUP5 PUSH2 0x404F JUMP JUMPDEST AND SWAP1 DUP3 SLOAD AND OR DUP2 SSTORE PUSH1 0x20 DUP3 ADD CALLDATALOAD PUSH1 0x1 DUP3 ADD SSTORE PUSH1 0x40 DUP3 ADD CALLDATALOAD PUSH1 0x2 DUP3 ADD SSTORE PUSH1 0x60 DUP3 ADD CALLDATALOAD PUSH1 0x3 DUP3 ADD SSTORE PUSH2 0x43BB PUSH1 0x80 DUP4 ADD DUP4 PUSH2 0x4070 JUMP JUMPDEST SWAP1 PUSH8 0xFFFFFFFFFFFFFFFF DUP3 GT PUSH2 0x32B0 JUMPI DUP2 SWAP1 PUSH2 0x43E7 DUP3 PUSH2 0x43DE PUSH1 0x4 DUP8 ADD SLOAD PUSH2 0x34F3 JUMP JUMPDEST PUSH1 0x4 DUP8 ADD PUSH2 0x4F07 JUMP JUMPDEST PUSH1 0x0 SWAP1 PUSH1 0x1F DUP4 GT PUSH1 0x1 EQ PUSH2 0x4CA1 JUMPI PUSH1 0x0 SWAP3 PUSH2 0x4C96 JUMPI JUMPDEST POP POP PUSH32 0xFFFFFFFFFFFFFFFFFFFFFFFFFFFFFFFFFFFFFFFFFFFFFFFFFFFFFFFFFFFFFFFF DUP3 PUSH1 0x1 SHL SWAP3 PUSH1 0x3 SHL SHR NOT AND OR PUSH1 0x4 DUP3 ADD SSTORE JUMPDEST PUSH2 0x443F PUSH1 0xA0 DUP4 ADD DUP4 PUSH2 0x4070 JUMP JUMPDEST SWAP1 PUSH8 0xFFFFFFFFFFFFFFFF DUP3 GT PUSH2 0x32B0 JUMPI DUP2 SWAP1 PUSH2 0x446B DUP3 PUSH2 0x4462 PUSH1 0x5 DUP8 ADD SLOAD PUSH2 0x34F3 JUMP JUMPDEST PUSH1 0x5 DUP8 ADD PUSH2 0x4F07 JUMP JUMPDEST PUSH1 0x0 SWAP1 PUSH1 0x1F DUP4 GT PUSH1 0x1 EQ PUSH2 0x4BCB JUMPI PUSH1 0x0 SWAP3 PUSH2 0x4BC0 JUMPI JUMPDEST POP POP PUSH32 0xFFFFFFFFFFFFFFFFFFFFFFFFFFFFFFFFFFFFFFFFFFFFFFFFFFFFFFFFFFFFFFFF DUP3 PUSH1 0x1 SHL SWAP3 PUSH1 0x3 SHL SHR NOT AND OR PUSH1 0x5 DUP3 ADD SSTORE JUMPDEST PUSH2 0x44C3 PUSH1 0xC0 DUP4 ADD DUP4 PUSH2 0x40C1 JUMP JUMPDEST SWAP1 PUSH8 0xFFFFFFFFFFFFFFFF DUP3 GT PUSH2 0x32B0 JUMPI PUSH9 0x10000000000000000 DUP3 GT PUSH2 0x32B0 JUMPI PUSH1 0x6 DUP4 ADD SLOAD DUP3 PUSH1 0x6 DUP6 ADD SSTORE DUP1 DUP4 LT PUSH2 0x4B9F JUMPI JUMPDEST POP PUSH1 0x6 DUP4 ADD PUSH1 0x0 MSTORE PUSH1 0x20 PUSH1 0x0 KECCAK256 PUSH1 0x0 JUMPDEST DUP4 DUP2 LT PUSH2 0x4B8B JUMPI POP POP POP POP PUSH2 0x451E PUSH1 0xE0 DUP4 ADD DUP4 PUSH2 0x40C1 JUMP JUMPDEST SWAP1 PUSH8 0xFFFFFFFFFFFFFFFF DUP3 GT PUSH2 0x32B0 JUMPI PUSH9 0x10000000000000000 DUP3 GT PUSH2 0x32B0 JUMPI PUSH1 0x7 DUP4 ADD SLOAD DUP3 PUSH1 0x7 DUP6 ADD SSTORE DUP1 DUP4 LT PUSH2 0x4B5E JUMPI JUMPDEST POP PUSH1 0x7 DUP4 ADD PUSH1 0x0 MSTORE PUSH1 0x20 PUSH1 0x0 KECCAK256 PUSH1 0x0 JUMPDEST DUP4 DUP2 LT PUSH2 0x4B4A JUMPI POP POP POP POP PUSH32 0xFFFFFFFFFFFFFFFFFFFFFFFFFFFFFFFFFFFFFFFFFFFFFFFFFFFFFFFFFFFFFFE1 DUP3 CALLDATASIZE SUB ADD PUSH2 0x100 DUP4 ADD CALLDATALOAD SLT ISZERO PUSH2 0x2DC0 JUMPI PUSH8 0xFFFFFFFFFFFFFFFF PUSH2 0x100 DUP4 ADD CALLDATALOAD DUP4 ADD CALLDATALOAD GT PUSH2 0x2DC0 JUMPI PUSH2 0x100 DUP3 ADD CALLDATALOAD DUP3 ADD DUP1 CALLDATALOAD PUSH1 0x6 SHL CALLDATASIZE SUB PUSH1 0x20 SWAP1 SWAP2 ADD SGT PUSH2 0x2DC0 JUMPI PUSH9 0x10000000000000000 PUSH2 0x100 DUP4 ADD CALLDATALOAD DUP4 ADD CALLDATALOAD GT PUSH2 0x32B0 JUMPI PUSH1 0x8 DUP2 ADD DUP1 SLOAD PUSH2 0x100 DUP5 ADD CALLDATALOAD DUP5 ADD CALLDATALOAD SWAP2 DUP3 SWAP1 SSTORE SWAP1 DUP2 GT PUSH2 0x4B15 JUMPI JUMPDEST POP PUSH1 0x8 PUSH1 0x20 PUSH2 0x100 DUP5 ADD CALLDATALOAD DUP5 ADD ADD SWAP2 ADD PUSH1 0x0 MSTORE PUSH1 0x20 PUSH1 0x0 KECCAK256 SWAP1 PUSH1 0x0 SWAP1 JUMPDEST PUSH2 0x100 DUP5 ADD CALLDATALOAD DUP5 ADD CALLDATALOAD DUP3 LT PUSH2 0x4A88 JUMPI POP POP POP PUSH2 0x4638 DUP2 PUSH2 0x404F JUMP JUMPDEST PUSH2 0x4645 PUSH1 0xA0 DUP4 ADD DUP4 PUSH2 0x4070 JUMP JUMPDEST SWAP1 DUP2 PUSH1 0x40 MLOAD SWAP3 DUP4 SWAP3 DUP4 CALLDATACOPY DUP2 ADD PUSH1 0x0 DUP2 MSTORE SUB SWAP1 KECCAK256 SWAP1 DUP8 PUSH32 0xB85051017293732C5B533B177EFC66475411A9FDD5FBC8ECB619906658413D6 PUSH1 0x60 PUSH20 0xFFFFFFFFFFFFFFFFFFFFFFFFFFFFFFFFFFFFFFFF PUSH1 0x40 MLOAD SWAP5 PUSH1 0x20 DUP9 ADD CALLDATALOAD DUP7 MSTORE PUSH1 0x40 DUP9 ADD CALLDATALOAD PUSH1 0x20 DUP8 ADD MSTORE DUP3 DUP9 ADD CALLDATALOAD PUSH1 0x40 DUP8 ADD MSTORE AND SWAP4 LOG4 PUSH2 0x46C0 PUSH1 0xC0 DUP3 ADD DUP3 PUSH2 0x40C1 JUMP JUMPDEST SWAP1 POP PUSH1 0x0 JUMPDEST DUP2 DUP2 LT PUSH2 0x4A42 JUMPI POP POP DUP1 PUSH1 0xE0 PUSH2 0x46DC SWAP3 ADD SWAP1 PUSH2 0x40C1 JUMP JUMPDEST PUSH1 0x3 DUP2 GT PUSH2 0x49BE JUMPI DUP1 ISZERO DUP1 PUSH2 0x49B5 JUMPI PUSH2 0x3EA5 JUMPI DUP2 CALLDATALOAD SWAP2 JUMPDEST PUSH1 0x1 DUP3 GT ISZERO PUSH2 0x49AD JUMPI DUP2 PUSH1 0x1 LT ISZERO PUSH2 0x3EA5 JUMPI PUSH1 0x20 DUP2 ADD CALLDATALOAD SWAP2 JUMPDEST PUSH1 0x2 DUP2 GT ISZERO PUSH2 0x49A3 JUMPI PUSH1 0x2 LT ISZERO PUSH2 0x3EA5 JUMPI PUSH1 0x40 ADD CALLDATALOAD SWAP2 JUMPDEST PUSH32 0xB237134D29775150B1EDF87AF1DC343262244AF7CBB474CFC64CB6E8824AF663 PUSH1 0x20 PUSH1 0x40 MLOAD DUP11 DUP2 MSTORE LOG4 DUP5 PUSH1 0x0 MSTORE PUSH1 0xC PUSH1 0x20 MSTORE PUSH1 0x40 PUSH1 0x0 KECCAK256 SWAP2 PUSH8 0xFFFFFFFFFFFFFFFF DUP3 GT PUSH2 0x32B0 JUMPI DUP2 SWAP1 PUSH2 0x4781 DUP3 PUSH2 0x477B DUP7 SLOAD PUSH2 0x34F3 JUMP JUMPDEST DUP7 PUSH2 0x4F07 JUMP JUMPDEST PUSH1 0x0 SWAP1 PUSH1 0x1F DUP4 GT PUSH1 0x1 EQ PUSH2 0x48FE JUMPI PUSH1 0x0 SWAP3 PUSH2 0x48F3 JUMPI JUMPDEST POP POP PUSH32 0xFFFFFFFFFFFFFFFFFFFFFFFFFFFFFFFFFFFFFFFFFFFFFFFFFFFFFFFFFFFFFFFF DUP3 PUSH1 0x1 SHL SWAP3 PUSH1 0x3 SHL SHR NOT AND OR SWAP1 SSTORE JUMPDEST DUP3 PUSH1 0x0 MSTORE PUSH1 0xD PUSH1 0x20 MSTORE PUSH1 0x40 PUSH1 0x0 KECCAK256 SWAP1 PUSH8 0xFFFFFFFFFFFFFFFF DUP2 GT PUSH2 0x32B0 JUMPI PUSH2 0x47FB DUP2 PUSH2 0x47F5 DUP5 SLOAD PUSH2 0x34F3 JUMP JUMPDEST DUP5 PUSH2 0x4F07 JUMP JUMPDEST PUSH1 0x0 PUSH1 0x1F DUP3 GT PUSH1 0x1 EQ PUSH2 0x4853 JUMPI DUP2 SWAP3 SWAP4 SWAP5 SWAP6 PUSH1 0x0 SWAP3 PUSH2 0x4848 JUMPI JUMPDEST POP POP PUSH32 0xFFFFFFFFFFFFFFFFFFFFFFFFFFFFFFFFFFFFFFFFFFFFFFFFFFFFFFFFFFFFFFFF DUP3 PUSH1 0x1 SHL SWAP3 PUSH1 0x3 SHL SHR NOT AND OR SWAP1 SSTORE JUMP JUMPDEST ADD CALLDATALOAD SWAP1 POP CODESIZE DUP1 PUSH2 0x4815 JUMP JUMPDEST PUSH32 0xFFFFFFFFFFFFFFFFFFFFFFFFFFFFFFFFFFFFFFFFFFFFFFFFFFFFFFFFFFFFFFE0 DUP3 AND SWAP6 DUP4 PUSH1 0x0 MSTORE PUSH1 0x20 PUSH1 0x0 KECCAK256 SWAP2 PUSH1 0x0 JUMPDEST DUP9 DUP2 LT PUSH2 0x48DB JUMPI POP DUP4 PUSH1 0x1 SWAP6 SWAP7 SWAP8 SWAP9 LT PUSH2 0x48A3 JUMPI JUMPDEST POP POP POP DUP2 SHL ADD SWAP1 SSTORE JUMP JUMPDEST PUSH32 0xFFFFFFFFFFFFFFFFFFFFFFFFFFFFFFFFFFFFFFFFFFFFFFFFFFFFFFFFFFFFFFFF PUSH1 0xF8 DUP6 PUSH1 0x3 SHL AND SHR NOT SWAP2 ADD CALLDATALOAD AND SWAP1 SSTORE CODESIZE DUP1 DUP1 PUSH2 0x4899 JUMP JUMPDEST SWAP1 SWAP3 PUSH1 0x20 PUSH1 0x1 DUP2 SWAP3 DUP7 DUP7 ADD CALLDATALOAD DUP2 SSTORE ADD SWAP5 ADD SWAP2 ADD PUSH2 0x4884 JUMP JUMPDEST ADD CALLDATALOAD SWAP1 POP CODESIZE DUP1 PUSH2 0x4797 JUMP JUMPDEST SWAP1 SWAP2 PUSH32 0xFFFFFFFFFFFFFFFFFFFFFFFFFFFFFFFFFFFFFFFFFFFFFFFFFFFFFFFFFFFFFFE0 AND SWAP2 DUP5 PUSH1 0x0 MSTORE PUSH1 0x20 PUSH1 0x0 KECCAK256 SWAP3 PUSH1 0x0 JUMPDEST DUP2 DUP2 LT PUSH2 0x498B JUMPI POP SWAP1 DUP5 PUSH1 0x1 SWAP6 SWAP5 SWAP4 SWAP3 LT PUSH2 0x4953 JUMPI JUMPDEST POP POP POP DUP2 SHL ADD SWAP1 SSTORE PUSH2 0x47C9 JUMP JUMPDEST PUSH32 0xFFFFFFFFFFFFFFFFFFFFFFFFFFFFFFFFFFFFFFFFFFFFFFFFFFFFFFFFFFFFFFFF PUSH1 0xF8 DUP6 PUSH1 0x3 SHL AND SHR NOT SWAP2 ADD CALLDATALOAD AND SWAP1 SSTORE CODESIZE DUP1 DUP1 PUSH2 0x4946 JUMP JUMPDEST SWAP2 SWAP4 PUSH1 0x20 PUSH1 0x1 DUP2 SWAP3 DUP8 DUP8 ADD CALLDATALOAD DUP2 SSTORE ADD SWAP6 ADD SWAP3 ADD PUSH2 0x4930 JUMP JUMPDEST POP POP PUSH1 0x0 SWAP2 PUSH2 0x4723 JUMP JUMPDEST PUSH1 0x0 SWAP2 PUSH2 0x470C JUMP JUMPDEST POP PUSH1 0x0 SWAP2 PUSH2 0x46F3 JUMP JUMPDEST PUSH1 0x84 PUSH1 0x40 MLOAD PUSH32 0x8C379A000000000000000000000000000000000000000000000000000000000 DUP2 MSTORE PUSH1 0x20 PUSH1 0x4 DUP3 ADD MSTORE PUSH1 0x38 PUSH1 0x24 DUP3 ADD MSTORE PUSH32 0x4461746153746F726167653A2074616773206C656E677468206D757374206265 PUSH1 0x44 DUP3 ADD MSTORE PUSH32 0x206C657373207468616E206F7220657175616C20746F20330000000000000000 PUSH1 0x64 DUP3 ADD MSTORE REVERT JUMPDEST DUP1 PUSH2 0x4A57 PUSH2 0x4A83 SWAP3 PUSH2 0x194D PUSH1 0xC0 DUP8 ADD DUP8 PUSH2 0x40C1 JUMP JUMPDEST CALLDATALOAD DUP10 PUSH32 0x65327253F8D67C2E23CB4DFAB28CA7437B04E9098CF4E985073D76DF25209AD4 PUSH1 0x0 DUP1 LOG3 PUSH2 0x4EB3 JUMP JUMPDEST PUSH2 0x46C5 JUMP JUMPDEST PUSH20 0xFFFFFFFFFFFFFFFFFFFFFFFFFFFFFFFFFFFFFFFF PUSH2 0x4AA6 DUP3 PUSH2 0x404F JUMP JUMPDEST DUP5 SLOAD SWAP2 AND PUSH1 0x20 DUP4 ADD CALLDATALOAD PUSH2 0xFFFF DUP2 AND SWAP1 SUB PUSH2 0x2DC0 JUMPI PUSH32 0xFFFFFFFFFFFFFFFFFFFF00000000000000000000000000000000000000000000 SWAP1 SWAP2 AND OR PUSH1 0x20 DUP3 ADD CALLDATALOAD PUSH1 0xA0 SHL PUSH22 0xFFFF0000000000000000000000000000000000000000 AND OR DUP4 SSTORE PUSH1 0x1 SWAP3 DUP4 ADD SWAP3 SWAP2 SWAP1 SWAP2 ADD SWAP1 PUSH1 0x40 ADD PUSH2 0x461D JUMP JUMPDEST PUSH1 0x8 DUP3 ADD PUSH1 0x0 MSTORE PUSH1 0x20 PUSH1 0x0 KECCAK256 SWAP1 PUSH2 0x100 DUP5 ADD CALLDATALOAD DUP5 ADD CALLDATALOAD DUP3 ADD JUMPDEST DUP2 DUP4 ADD DUP2 LT PUSH2 0x4B3E JUMPI POP POP PUSH2 0x4600 JUMP JUMPDEST PUSH1 0x0 DUP2 SSTORE PUSH1 0x1 ADD PUSH2 0x4B2E JUMP JUMPDEST PUSH1 0x1 SWAP1 PUSH1 0x20 DUP5 CALLDATALOAD SWAP5 ADD SWAP4 DUP2 DUP5 ADD SSTORE ADD PUSH2 0x4561 JUMP JUMPDEST PUSH1 0x7 DUP5 ADD PUSH1 0x0 MSTORE PUSH1 0x20 PUSH1 0x0 KECCAK256 SWAP1 DUP4 DUP3 ADD JUMPDEST DUP2 DUP4 ADD DUP2 LT PUSH2 0x4B7F JUMPI POP POP PUSH2 0x4551 JUMP JUMPDEST PUSH1 0x0 DUP2 SSTORE PUSH1 0x1 ADD PUSH2 0x4B6F JUMP JUMPDEST PUSH1 0x1 SWAP1 PUSH1 0x20 DUP5 CALLDATALOAD SWAP5 ADD SWAP4 DUP2 DUP5 ADD SSTORE ADD PUSH2 0x4506 JUMP JUMPDEST PUSH2 0x4BBA SWAP1 PUSH1 0x6 DUP6 ADD PUSH1 0x0 MSTORE DUP4 PUSH1 0x20 PUSH1 0x0 KECCAK256 SWAP2 DUP3 ADD SWAP2 ADD PUSH2 0x4EF0 JUMP JUMPDEST CODESIZE PUSH2 0x44F6 JUMP JUMPDEST ADD CALLDATALOAD SWAP1 POP CODESIZE DUP1 PUSH2 0x4481 JUMP JUMPDEST SWAP1 SWAP3 POP PUSH1 0x5 DUP5 ADD PUSH1 0x0 MSTORE PUSH1 0x20 PUSH1 0x0 KECCAK256 SWAP1 PUSH1 0x0 SWAP4 JUMPDEST PUSH32 0xFFFFFFFFFFFFFFFFFFFFFFFFFFFFFFFFFFFFFFFFFFFFFFFFFFFFFFFFFFFFFFE0 DUP5 AND DUP6 LT PUSH2 0x4C7E JUMPI PUSH1 0x1 SWAP5 POP DUP4 PUSH32 0xFFFFFFFFFFFFFFFFFFFFFFFFFFFFFFFFFFFFFFFFFFFFFFFFFFFFFFFFFFFFFFE0 DUP2 AND LT PUSH2 0x4C46 JUMPI JUMPDEST POP POP POP DUP2 SHL ADD PUSH1 0x5 DUP3 ADD SSTORE PUSH2 0x44B6 JUMP JUMPDEST PUSH32 0xFFFFFFFFFFFFFFFFFFFFFFFFFFFFFFFFFFFFFFFFFFFFFFFFFFFFFFFFFFFFFFFF PUSH1 0xF8 DUP6 PUSH1 0x3 SHL AND SHR NOT SWAP2 ADD CALLDATALOAD AND SWAP1 SSTORE CODESIZE DUP1 DUP1 PUSH2 0x4C36 JUMP JUMPDEST DUP2 DUP2 ADD CALLDATALOAD DUP4 SSTORE PUSH1 0x20 SWAP5 DUP6 ADD SWAP5 PUSH1 0x1 SWAP1 SWAP4 ADD SWAP3 ADD PUSH2 0x4BDF JUMP JUMPDEST ADD CALLDATALOAD SWAP1 POP CODESIZE DUP1 PUSH2 0x43FD JUMP JUMPDEST SWAP1 SWAP3 POP PUSH1 0x4 DUP5 ADD PUSH1 0x0 MSTORE PUSH1 0x20 PUSH1 0x0 KECCAK256 SWAP1 PUSH1 0x0 SWAP4 JUMPDEST PUSH32 0xFFFFFFFFFFFFFFFFFFFFFFFFFFFFFFFFFFFFFFFFFFFFFFFFFFFFFFFFFFFFFFE0 DUP5 AND DUP6 LT PUSH2 0x4D54 JUMPI PUSH1 0x1 SWAP5 POP DUP4 PUSH32 0xFFFFFFFFFFFFFFFFFFFFFFFFFFFFFFFFFFFFFFFFFFFFFFFFFFFFFFFFFFFFFFE0 DUP2 AND LT PUSH2 0x4D1C JUMPI JUMPDEST POP POP POP DUP2 SHL ADD PUSH1 0x4 DUP3 ADD SSTORE PUSH2 0x4432 JUMP JUMPDEST PUSH32 0xFFFFFFFFFFFFFFFFFFFFFFFFFFFFFFFFFFFFFFFFFFFFFFFFFFFFFFFFFFFFFFFF PUSH1 0xF8 DUP6 PUSH1 0x3 SHL AND SHR NOT SWAP2 ADD CALLDATALOAD AND SWAP1 SSTORE CODESIZE DUP1 DUP1 PUSH2 0x4D0C JUMP JUMPDEST DUP2 DUP2 ADD CALLDATALOAD DUP4 SSTORE PUSH1 0x20 SWAP5 DUP6 ADD SWAP5 PUSH1 0x1 SWAP1 SWAP4 ADD SWAP3 ADD PUSH2 0x4CB5 JUMP JUMPDEST PUSH1 0x84 PUSH1 0x40 MLOAD PUSH32 0x8C379A000000000000000000000000000000000000000000000000000000000 DUP2 MSTORE PUSH1 0x20 PUSH1 0x4 DUP3 ADD MSTORE PUSH1 0x23 PUSH1 0x24 DUP3 ADD MSTORE PUSH32 0x4461746153746F726167653A20757269207265676973746572656420616C7265 PUSH1 0x44 DUP3 ADD MSTORE PUSH32 0x6164790000000000000000000000000000000000000000000000000000000000 PUSH1 0x64 DUP3 ADD MSTORE REVERT JUMPDEST PUSH1 0x64 PUSH1 0x40 MLOAD PUSH32 0x8C379A000000000000000000000000000000000000000000000000000000000 DUP2 MSTORE PUSH1 0x20 PUSH1 0x4 DUP3 ADD MSTORE PUSH1 0x20 PUSH1 0x24 DUP3 ADD MSTORE PUSH32 0x4552433732313A206D696E7420746F20746865207A65726F2061646472657373 PUSH1 0x44 DUP3 ADD MSTORE REVERT JUMPDEST ISZERO PUSH2 0x4E55 JUMPI JUMP JUMPDEST PUSH1 0x64 PUSH1 0x40 MLOAD PUSH32 0x8C379A000000000000000000000000000000000000000000000000000000000 DUP2 MSTORE PUSH1 0x20 PUSH1 0x4 DUP3 ADD MSTORE PUSH1 0x1C PUSH1 0x24 DUP3 ADD MSTORE PUSH32 0x4552433732313A20746F6B656E20616C7265616479206D696E74656400000000 PUSH1 0x44 DUP3 ADD MSTORE REVERT JUMPDEST PUSH32 0xFFFFFFFFFFFFFFFFFFFFFFFFFFFFFFFFFFFFFFFFFFFFFFFFFFFFFFFFFFFFFFFF DUP2 EQ PUSH2 0x3AC6 JUMPI PUSH1 0x1 ADD SWAP1 JUMP JUMPDEST SWAP2 SWAP1 DUP2 LT ISZERO PUSH2 0x3EA5 JUMPI PUSH1 0x5 SHL ADD SWAP1 JUMP JUMPDEST DUP2 DUP2 LT PUSH2 0x4EFB JUMPI POP POP JUMP JUMPDEST PUSH1 0x0 DUP2 SSTORE PUSH1 0x1 ADD PUSH2 0x4EF0 JUMP JUMPDEST SWAP2 SWAP1 PUSH1 0x1F DUP2 GT PUSH2 0x4F16 JUMPI POP POP POP JUMP JUMPDEST PUSH2 0x4F42 SWAP3 PUSH1 0x0 MSTORE PUSH1 0x20 PUSH1 0x0 KECCAK256 SWAP1 PUSH1 0x20 PUSH1 0x1F DUP5 ADD PUSH1 0x5 SHR DUP4 ADD SWAP4 LT PUSH2 0x4F44 JUMPI JUMPDEST PUSH1 0x1F ADD PUSH1 0x5 SHR ADD SWAP1 PUSH2 0x4EF0 JUMP JUMPDEST JUMP JUMPDEST SWAP1 SWAP2 POP DUP2 SWAP1 PUSH2 0x4F35 JUMP JUMPDEST PUSH8 0xFFFFFFFFFFFFFFFF DUP2 GT PUSH2 0x32B0 JUMPI PUSH1 0x5 SHL PUSH1 0x20 ADD SWAP1 JUMP JUMPDEST PUSH1 0x40 MLOAD SWAP1 PUSH2 0x4F73 DUP3 PUSH2 0x3293 JUMP JUMPDEST DUP2 PUSH1 0x0 DUP2 MSTORE PUSH1 0x0 PUSH1 0x20 DUP3 ADD MSTORE PUSH1 0x0 PUSH1 0x40 DUP3 ADD MSTORE PUSH2 0x100 PUSH1 0x60 SWAP2 PUSH1 0x0 DUP4 DUP3 ADD MSTORE DUP3 PUSH1 0x80 DUP3 ADD MSTORE DUP3 PUSH1 0xA0 DUP3 ADD MSTORE DUP3 PUSH1 0xC0 DUP3 ADD MSTORE DUP3 PUSH1 0xE0 DUP3 ADD MSTORE ADD MSTORE JUMP JUMPDEST SWAP1 PUSH2 0x4FB8 DUP3 PUSH2 0x4F4E JUMP JUMPDEST PUSH2 0x4FC5 PUSH1 0x40 MLOAD SWAP2 DUP3 PUSH2 0x3333 JUMP JUMPDEST DUP3 DUP2 MSTORE PUSH32 0xFFFFFFFFFFFFFFFFFFFFFFFFFFFFFFFFFFFFFFFFFFFFFFFFFFFFFFFFFFFFFFE0 PUSH2 0x4FF3 DUP3 SWAP5 PUSH2 0x4F4E JUMP JUMPDEST ADD SWAP1 PUSH1 0x20 CALLDATASIZE SWAP2 ADD CALLDATACOPY JUMP JUMPDEST SWAP1 PUSH2 0x5007 DUP3 PUSH2 0x4F4E JUMP JUMPDEST PUSH2 0x5014 PUSH1 0x40 MLOAD SWAP2 DUP3 PUSH2 0x3333 JUMP JUMPDEST DUP3 DUP2 MSTORE PUSH32 0xFFFFFFFFFFFFFFFFFFFFFFFFFFFFFFFFFFFFFFFFFFFFFFFFFFFFFFFFFFFFFFE0 PUSH2 0x5042 DUP3 SWAP5 PUSH2 0x4F4E JUMP JUMPDEST ADD SWAP1 PUSH1 0x0 JUMPDEST DUP3 DUP2 LT PUSH2 0x5053 JUMPI POP POP POP JUMP JUMPDEST DUP1 PUSH1 0x60 PUSH1 0x20 DUP1 SWAP4 DUP6 ADD ADD MSTORE ADD PUSH2 0x5047 JUMP JUMPDEST DUP1 MLOAD ISZERO PUSH2 0x3EA5 JUMPI PUSH1 0x20 ADD SWAP1 JUMP JUMPDEST DUP1 MLOAD DUP3 LT ISZERO PUSH2 0x3EA5 JUMPI PUSH1 0x20 SWAP2 PUSH1 0x5 SHL ADD ADD SWAP1 JUMP JUMPDEST SWAP1 PUSH1 0x40 MLOAD SWAP2 DUP3 DUP2 SLOAD SWAP2 DUP3 DUP3 MSTORE PUSH1 0x20 SWAP3 DUP4 DUP4 ADD SWAP2 PUSH1 0x0 MSTORE DUP4 PUSH1 0x0 KECCAK256 SWAP4 PUSH1 0x0 SWAP1 JUMPDEST DUP3 DUP3 LT PUSH2 0x50BA JUMPI POP POP POP PUSH2 0x4F42 SWAP3 POP SUB DUP4 PUSH2 0x3333 JUMP JUMPDEST DUP6 SLOAD DUP5 MSTORE PUSH1 0x1 SWAP6 DUP7 ADD SWAP6 DUP9 SWAP6 POP SWAP4 DUP2 ADD SWAP4 SWAP1 SWAP2 ADD SWAP1 PUSH2 0x50A4 JUMP JUMPDEST SWAP1 PUSH2 0x50DD PUSH2 0x4F66 JUMP JUMPDEST POP PUSH1 0x60 PUSH1 0x0 SWAP2 DUP4 DUP4 MSTORE PUSH1 0x20 SWAP3 PUSH1 0xA DUP5 MSTORE PUSH1 0x40 SWAP1 DUP2 DUP2 KECCAK256 SWAP5 DUP3 MLOAD PUSH2 0x50FF DUP2 PUSH2 0x3293 JUMP JUMPDEST PUSH20 0xFFFFFFFFFFFFFFFFFFFFFFFFFFFFFFFFFFFFFFFF SWAP7 DUP8 DUP2 SLOAD AND DUP3 MSTORE PUSH1 0x1 DUP1 DUP3 ADD SLOAD DUP5 DUP5 ADD MSTORE PUSH1 0x2 DUP3 ADD SLOAD SWAP9 DUP7 DUP5 ADD SWAP10 DUP11 MSTORE PUSH1 0x3 DUP4 ADD SLOAD DUP10 DUP6 ADD MSTORE DUP7 MLOAD PUSH2 0x5154 DUP2 PUSH2 0x514D DUP2 PUSH1 0x4 DUP9 ADD PUSH2 0x3546 JUMP JUMPDEST SUB DUP3 PUSH2 0x3333 JUMP JUMPDEST PUSH1 0x80 DUP6 ADD MSTORE DUP7 MLOAD SWAP3 PUSH2 0x5174 DUP5 PUSH2 0x516D DUP2 PUSH1 0x5 DUP6 ADD PUSH2 0x3546 JUMP JUMPDEST SUB DUP6 PUSH2 0x3333 JUMP JUMPDEST PUSH1 0xA0 SWAP4 DUP5 DUP7 ADD MSTORE PUSH1 0x6 DUP2 ADD DUP9 MLOAD SWAP1 DUP2 DUP9 DUP3 SLOAD SWAP2 DUP3 DUP2 MSTORE ADD SWAP2 DUP11 MSTORE DUP9 DUP11 KECCAK256 SWAP1 DUP11 JUMPDEST DUP8 DUP12 DUP4 DUP4 LT PUSH2 0x529D JUMPI POP POP POP POP POP SWAP1 PUSH2 0x51B2 DUP2 PUSH1 0x8 SWAP5 SWAP4 SUB DUP3 PUSH2 0x3333 JUMP JUMPDEST PUSH1 0xC0 DUP8 ADD MSTORE PUSH2 0x51C3 PUSH1 0x7 DUP3 ADD PUSH2 0x5085 JUMP JUMPDEST PUSH1 0xE0 DUP8 ADD MSTORE ADD DUP1 SLOAD SWAP2 PUSH2 0x51D5 DUP4 PUSH2 0x4F4E JUMP JUMPDEST SWAP5 PUSH2 0x51E2 DUP11 MLOAD SWAP7 DUP8 PUSH2 0x3333 JUMP JUMPDEST DUP4 DUP7 MSTORE DUP8 DUP7 ADD SWAP3 DUP10 MSTORE DUP8 DUP10 KECCAK256 SWAP2 DUP10 SWAP4 JUMPDEST DUP12 DUP11 DUP8 DUP8 LT PUSH2 0x5270 JUMPI POP POP POP POP POP POP POP POP POP PUSH2 0x100 DUP3 ADD MSTORE SWAP7 DUP1 DUP4 MSTORE PUSH1 0xE DUP3 MSTORE DUP4 DUP4 KECCAK256 SLOAD SWAP7 MLOAD TIMESTAMP LT ISZERO PUSH2 0x523C JUMPI JUMPDEST SWAP3 DUP3 PUSH1 0xC DUP3 SWAP4 PUSH2 0x514D SWAP7 PUSH2 0x30ED SWAP7 MSTORE MSTORE KECCAK256 SWAP1 MLOAD SWAP3 DUP4 DUP1 SWAP3 PUSH2 0x3546 JUMP JUMPDEST SWAP5 POP SWAP2 DUP1 PUSH2 0x30ED SWAP3 PUSH1 0xC DUP6 PUSH1 0xD PUSH2 0x514D SWAP8 MSTORE PUSH2 0x514D PUSH2 0x5262 DUP6 DUP6 KECCAK256 DUP7 MLOAD SWAP3 DUP4 DUP1 SWAP3 PUSH2 0x3546 JUMP JUMPDEST SWAP9 SWAP4 POP SWAP4 SWAP6 POP POP SWAP3 POP PUSH2 0x5220 JUMP JUMPDEST DUP9 SWAP3 DUP4 SWAP3 MLOAD PUSH2 0x527E DUP2 PUSH2 0x32DF JUMP JUMPDEST PUSH2 0xFFFF DUP9 SLOAD DUP8 DUP2 AND DUP4 MSTORE DUP9 SHR AND DUP4 DUP3 ADD MSTORE DUP2 MSTORE ADD SWAP5 ADD SWAP5 ADD SWAP4 SWAP3 PUSH2 0x51F2 JUMP JUMPDEST DUP5 SLOAD DUP7 MSTORE SWAP1 SWAP5 ADD SWAP4 SWAP3 DUP4 ADD SWAP3 ADD PUSH2 0x5194 JUMP JUMPDEST PUSH1 0x0 SWAP1 DUP2 MSTORE PUSH1 0x20 SWAP2 PUSH1 0xA DUP4 MSTORE PUSH1 0x40 SWAP2 DUP3 DUP2 KECCAK256 SWAP3 DUP1 MLOAD SWAP4 PUSH2 0x52CE DUP6 PUSH2 0x3293 JUMP JUMPDEST PUSH20 0xFFFFFFFFFFFFFFFFFFFFFFFFFFFFFFFFFFFFFFFF DUP1 DUP3 SLOAD AND DUP7 MSTORE PUSH1 0x1 SWAP2 DUP3 DUP2 ADD SLOAD DUP9 DUP9 ADD MSTORE PUSH1 0x2 DUP2 ADD SLOAD DUP5 DUP9 ADD MSTORE PUSH1 0x3 DUP2 ADD SLOAD PUSH1 0x60 DUP9 ADD MSTORE DUP4 MLOAD PUSH2 0x531A DUP2 PUSH2 0x514D DUP2 PUSH1 0x4 DUP7 ADD PUSH2 0x3546 JUMP JUMPDEST PUSH1 0x80 DUP9 ADD MSTORE DUP4 MLOAD SWAP1 PUSH2 0x5333 DUP3 PUSH2 0x6D3 DUP2 PUSH1 0x5 DUP6 ADD PUSH2 0x3546 JUMP JUMPDEST PUSH1 0xA0 DUP9 DUP2 ADD SWAP3 SWAP1 SWAP3 MSTORE DUP5 MLOAD PUSH1 0x6 DUP3 ADD DUP1 SLOAD DUP1 DUP4 MSTORE SWAP1 DUP9 MSTORE DUP11 DUP9 KECCAK256 DUP12 DUP4 ADD SWAP2 DUP10 DUP9 DUP15 JUMPDEST DUP4 DUP4 LT PUSH2 0x5474 JUMPI POP POP POP POP POP SWAP1 PUSH2 0x5371 DUP2 PUSH1 0x8 SWAP5 SWAP4 SUB DUP3 PUSH2 0x3333 JUMP JUMPDEST PUSH1 0xC0 DUP11 ADD MSTORE PUSH2 0x5382 PUSH1 0x7 DUP3 ADD PUSH2 0x5085 JUMP JUMPDEST PUSH1 0xE0 DUP11 ADD MSTORE ADD DUP1 SLOAD SWAP1 PUSH2 0x5394 DUP3 PUSH2 0x4F4E JUMP JUMPDEST SWAP3 PUSH2 0x53A1 DUP8 MLOAD SWAP5 DUP6 PUSH2 0x3333 JUMP JUMPDEST DUP3 DUP5 MSTORE SWAP1 DUP8 MSTORE DUP10 DUP8 KECCAK256 DUP8 SWAP2 DUP7 DUP13 DUP7 ADD JUMPDEST DUP14 DUP7 DUP7 LT PUSH2 0x5446 JUMPI POP POP POP POP POP POP POP DUP1 PUSH2 0x100 DUP9 ADD MSTORE DUP1 MLOAD ISZERO PUSH1 0x0 EQ PUSH2 0x543B JUMPI POP DUP3 MLOAD SWAP4 PUSH2 0x53DE DUP6 PUSH2 0x32DF JUMP JUMPDEST DUP3 DUP6 MSTORE DUP1 JUMPDEST DUP9 DUP2 LT PUSH2 0x541A JUMPI POP POP SWAP6 PUSH2 0x5417 SWAP5 SWAP6 SWAP7 DUP5 SWAP8 MLOAD AND SWAP3 MLOAD SWAP3 PUSH2 0x5403 DUP5 PUSH2 0x32DF JUMP JUMPDEST DUP4 MSTORE DUP3 ADD MSTORE PUSH2 0x5411 DUP3 PUSH2 0x5064 JUMP JUMPDEST MSTORE PUSH2 0x5064 JUMP JUMPDEST POP JUMP JUMPDEST DUP9 SWAP1 DUP6 MLOAD PUSH2 0x5427 DUP2 PUSH2 0x32DF JUMP JUMPDEST DUP4 DUP2 MSTORE DUP4 DUP4 DUP3 ADD MSTORE DUP3 DUP3 DUP10 ADD ADD MSTORE ADD PUSH2 0x53E3 JUMP JUMPDEST SWAP6 POP POP POP POP POP SWAP2 POP SWAP1 JUMP JUMPDEST DUP3 SWAP2 DUP12 MLOAD PUSH2 0x5453 DUP2 PUSH2 0x32DF JUMP JUMPDEST PUSH2 0xFFFF DUP8 SLOAD DUP13 DUP2 AND DUP4 MSTORE DUP8 SHR AND DUP4 DUP3 ADD MSTORE DUP2 MSTORE ADD SWAP4 ADD SWAP4 ADD SWAP3 SWAP2 DUP8 SWAP1 PUSH2 0x53B1 JUMP JUMPDEST DUP5 SLOAD DUP7 MSTORE SWAP1 SWAP5 ADD SWAP4 SWAP3 DUP4 ADD SWAP3 ADD DUP9 DUP15 PUSH2 0x5355 JUMP JUMPDEST PUSH2 0x5491 SWAP1 PUSH2 0x3E6E JUMP JUMPDEST SWAP1 SLOAD SWAP1 PUSH1 0x3 SHL SHR DUP1 PUSH1 0x0 MSTORE PUSH1 0x11 PUSH1 0x20 MSTORE SWAP1 JUMP JUMPDEST DUP2 PUSH1 0x0 MSTORE PUSH1 0x2 DUP2 ADD PUSH1 0x20 MSTORE PUSH1 0x40 PUSH1 0x0 KECCAK256 SLOAD SWAP2 DUP3 ISZERO SWAP2 DUP3 ISZERO SWAP3 PUSH2 0x5529 JUMPI JUMPDEST POP POP ISZERO PUSH2 0x54CB JUMPI SWAP1 JUMP JUMPDEST PUSH1 0x64 PUSH1 0x40 MLOAD PUSH32 0x8C379A000000000000000000000000000000000000000000000000000000000 DUP2 MSTORE PUSH1 0x20 PUSH1 0x4 DUP3 ADD MSTORE PUSH1 0x1E PUSH1 0x24 DUP3 ADD MSTORE PUSH32 0x456E756D657261626C654D61703A206E6F6E6578697374656E74206B65790000 PUSH1 0x44 DUP3 ADD MSTORE REVERT JUMPDEST PUSH2 0x5543 SWAP3 POP PUSH1 0x1 SWAP2 PUSH1 0x0 MSTORE ADD PUSH1 0x20 MSTORE PUSH1 0x40 PUSH1 0x0 KECCAK256 SLOAD ISZERO ISZERO SWAP1 JUMP JUMPDEST CODESIZE DUP1 PUSH2 0x54C1 JUMP JUMPDEST PUSH1 0x0 DUP2 DUP2 MSTORE PUSH1 0x10 PUSH1 0x20 MSTORE PUSH1 0x40 DUP2 KECCAK256 SLOAD PUSH2 0x55C9 JUMPI PUSH1 0xF SLOAD PUSH9 0x10000000000000000 DUP2 LT ISZERO PUSH2 0x559C JUMPI SWAP1 DUP3 PUSH2 0x5588 PUSH2 0x1A97 DUP5 PUSH1 0x1 PUSH1 0x40 SWAP7 ADD PUSH1 0xF SSTORE PUSH2 0x3E6E JUMP JUMPDEST SWAP1 SSTORE PUSH1 0xF SLOAD SWAP3 DUP2 MSTORE PUSH1 0x10 PUSH1 0x20 MSTORE KECCAK256 SSTORE PUSH1 0x1 SWAP1 JUMP JUMPDEST PUSH1 0x24 DUP3 PUSH32 0x4E487B7100000000000000000000000000000000000000000000000000000000 DUP2 MSTORE PUSH1 0x41 PUSH1 0x4 MSTORE REVERT JUMPDEST SWAP1 POP SWAP1 JUMP JUMPDEST PUSH1 0x0 DUP2 DUP2 MSTORE PUSH1 0x14 PUSH1 0x20 MSTORE PUSH1 0x40 DUP2 KECCAK256 SLOAD PUSH2 0x55C9 JUMPI PUSH1 0x13 SLOAD PUSH9 0x10000000000000000 DUP2 LT ISZERO PUSH2 0x559C JUMPI PUSH1 0x1 DUP2 ADD DUP1 PUSH1 0x13 SSTORE DUP2 LT ISZERO PUSH2 0x563E JUMPI SWAP1 DUP3 PUSH1 0x40 SWAP3 PUSH32 0x66DE8FFDA797E3DE9C05E8FC57B3BF0EC28A930D40B0D285D93C06501CF6A090 ADD SSTORE PUSH1 0x13 SLOAD SWAP3 DUP2 MSTORE PUSH1 0x14 PUSH1 0x20 MSTORE KECCAK256 SSTORE PUSH1 0x1 SWAP1 JUMP JUMPDEST PUSH1 0x24 DUP3 PUSH32 0x4E487B7100000000000000000000000000000000000000000000000000000000 DUP2 MSTORE PUSH1 0x32 PUSH1 0x4 MSTORE REVERT JUMPDEST PUSH1 0x0 DUP3 DUP2 MSTORE PUSH1 0x1 DUP3 ADD PUSH1 0x20 MSTORE PUSH1 0x40 SWAP1 KECCAK256 SLOAD PUSH2 0x56C0 JUMPI DUP1 SLOAD SWAP1 PUSH9 0x10000000000000000 DUP3 LT ISZERO PUSH2 0x32B0 JUMPI DUP3 PUSH2 0x56A9 PUSH2 0x1A97 DUP5 PUSH1 0x1 DUP1 SWAP7 ADD DUP6 SSTORE DUP5 PUSH2 0x3F0B JUMP JUMPDEST SWAP1 SSTORE DUP1 SLOAD SWAP3 PUSH1 0x0 MSTORE ADD PUSH1 0x20 MSTORE PUSH1 0x40 PUSH1 0x0 KECCAK256 SSTORE PUSH1 0x1 SWAP1 JUMP JUMPDEST POP POP PUSH1 0x0 SWAP1 JUMP JUMPDEST PUSH20 0xFFFFFFFFFFFFFFFFFFFFFFFFFFFFFFFFFFFFFFFF AND PUSH1 0x0 MSTORE PUSH1 0x12 PUSH1 0x20 MSTORE PUSH1 0x2 PUSH2 0x56F6 PUSH1 0x40 PUSH1 0x0 KECCAK256 SWAP3 DUP4 PUSH2 0x3F0B JUMP JUMPDEST SWAP1 SLOAD SWAP1 PUSH1 0x3 SHL SHR SWAP2 DUP3 PUSH1 0x0 MSTORE ADD PUSH1 0x20 MSTORE SWAP1 JUMP JUMPDEST PUSH1 0x13 SLOAD DUP2 LT ISZERO PUSH2 0x3EA5 JUMPI PUSH1 0x13 PUSH1 0x0 MSTORE PUSH32 0x66DE8FFDA797E3DE9C05E8FC57B3BF0EC28A930D40B0D285D93C06501CF6A090 ADD SLOAD PUSH20 0xFFFFFFFFFFFFFFFFFFFFFFFFFFFFFFFFFFFFFFFF AND SWAP1 JUMP JUMPDEST PUSH1 0x0 MSTORE PUSH1 0x17 PUSH1 0x20 MSTORE PUSH1 0x2 PUSH2 0x56F6 PUSH1 0x40 PUSH1 0x0 KECCAK256 SWAP3 DUP4 PUSH2 0x3F0B JUMP JUMPDEST PUSH1 0x0 DUP3 DUP2 MSTORE PUSH1 0x17 PUSH1 0x20 MSTORE PUSH1 0x40 DUP2 KECCAK256 SWAP1 PUSH2 0x5796 DUP4 DUP4 PUSH1 0x1 SWAP2 PUSH1 0x0 MSTORE ADD PUSH1 0x20 MSTORE PUSH1 0x40 PUSH1 0x0 KECCAK256 SLOAD ISZERO ISZERO SWAP1 JUMP JUMPDEST ISZERO PUSH2 0x57A1 JUMPI POP POP POP POP JUMP JUMPDEST PUSH2 0x57C4 SWAP4 DUP2 MSTORE PUSH1 0x17 PUSH1 0x20 MSTORE PUSH1 0x40 DUP1 DUP3 KECCAK256 SLOAD SWAP2 DUP5 DUP2 MSTORE PUSH1 0x2 DUP5 ADD PUSH1 0x20 MSTORE KECCAK256 SSTORE PUSH2 0x566B JUMP JUMPDEST POP CODESIZE DUP1 DUP1 DUP1 PUSH2 0x3573 JUMP INVALID LOG2 PUSH5 0x6970667358 0x22 SLT KECCAK256 GASLIMIT 0x27 CALLDATASIZE LOG0 0xE5 0xE8 XOR SWAP12 0xBC PUSH27 0x119C4A0BFBD4682BA90938727138684CB4D906C4F85064736F6C63 NUMBER STOP ADDMOD SGT STOP CALLER "},"methodIdentifiers":{"approve(address,uint256)":"095ea7b3","balanceOf(address)":"70a08231","burn(uint256)":"42966c68","creatorAddresses()":"40b94757","creatorByIndex(uint256)":"6d571b6a","creatorsByIndexBatch(uint256[])":"c03d1d91","getApproved(uint256)":"081812fc","getHash((address,uint256,uint256,uint256,string,bytes,uint256[],bytes32[],(address,uint16)[]))":"662ec09e","getUriId(bytes32)":"78292236","isApprovedForAll(address,address)":"e985e9c5","name()":"06fdde03","numberOfCreators()":"1ae69b61","numberOfRepliesToCreator(address)":"f353a732","numberOfRepliesToCreatorBatch(address[])":"2c230901","numberOfTokenReplies(uint256)":"2e0d0718","numberOfTokenRepliesBatch(uint256[])":"cca3c766","numberOfTokensByTag(bytes32)":"4667c884","numberOfTokensByTagBatch(bytes32[])":"8f93fb39","numberOfTokensOfCreator(address)":"60f6a4a3","numberOfTokensOfCreatorBatch(address[])":"31d99545","numberOfTokensTraceable()":"dd468791","ownerOf(uint256)":"6352211e","repliesToCreator(address)":"b1582201","repliesToCreatorByIndex(address,uint256)":"f99458a4","repliesToCreatorByIndexBatch(address,uint256[])":"fe649b7e","safeMint((address,uint256,uint256,uint256,string,bytes,uint256[],bytes32[],(address,uint16)[]),bytes,bytes)":"7372e98d","safeMintAndSetTraceStorage((address,uint256,uint256,uint256,string,bytes,uint256[],bytes32[],(address,uint16)[]),bytes,bytes)":"4832e8f3","safeTransferFrom(address,address,uint256)":"42842e0e","safeTransferFrom(address,address,uint256,bytes)":"b88d4fde","setApprovalForAll(address,bool)":"a22cb465","supportsInterface(bytes4)":"01ffc9a7","symbol()":"95d89b41","timeStamp()":"0ab0df87","tokenByIndex(uint256)":"4f6ccce7","tokenByIndexTraceable(uint256)":"26156636","tokenInfo(uint256)":"cc33c875","tokenMintTime(uint256)":"83b81ebd","tokenOfCreatorByIndex(address,uint256)":"4fc09275","tokenOfOwnerByIndex(address,uint256)":"2f745c59","tokenOfTagByIndex(bytes32,uint256)":"3552d220","tokenReplies(uint256)":"8282674f","tokenRepliesByIndexBatch(uint256,uint256[])":"1674ed4b","tokenReplyByIndex(uint256,uint256)":"bfc9b364","tokenShareholders(uint256)":"89f65715","tokenURI(uint256)":"c87b56dd","tokensByIndexTraceableBatch(uint256[])":"f6bd7ab8","tokensInfoBatch(uint256[])":"2b0eca8c","tokensOfCreator(address)":"96cc6a34","tokensOfCreatorByIndexBatch(address,uint256[])":"132e75d6","tokensOfTag(bytes32)":"af3ea105","tokensOfTagByIndexBatch(bytes32,uint256[])":"017642e4","totalSupply()":"18160ddd","traceTokenByCreator(address,uint256)":"c3512876","traceTokenById(uint256)":"39d77f25","traceTokenByTag(bytes32,uint256)":"29c7785f","transferFrom(address,address,uint256)":"23b872dd"}}}}}