{"contracts/katibeh721/Katibeh721.sol":{"Katibeh721":{"abi":[{"inputs":[],"stateMutability":"nonpayable","type":"constructor"},{"anonymous":false,"inputs":[{"indexed":true,"internalType":"address","name":"owner","type":"address"},{"indexed":true,"internalType":"address","name":"approved","type":"address"},{"indexed":true,"internalType":"uint256","name":"tokenId","type":"uint256"}],"name":"Approval","type":"event"},{"anonymous":false,"inputs":[{"indexed":true,"internalType":"address","name":"owner","type":"address"},{"indexed":true,"internalType":"address","name":"operator","type":"address"},{"indexed":false,"internalType":"bool","name":"approved","type":"bool"}],"name":"ApprovalForAll","type":"event"},{"anonymous":false,"inputs":[{"indexed":true,"internalType":"uint256","name":"tokenId","type":"uint256"},{"indexed":true,"internalType":"uint256","name":"toTokenId","type":"uint256"}],"name":"NewReply","type":"event"},{"anonymous":false,"inputs":[{"indexed":true,"internalType":"uint256","name":"tokenId","type":"uint256"},{"indexed":true,"internalType":"address","name":"creator","type":"address"},{"indexed":true,"internalType":"bytes","name":"data","type":"bytes"},{"indexed":false,"internalType":"uint256","name":"signTime","type":"uint256"},{"indexed":false,"internalType":"uint256","name":"initTime","type":"uint256"},{"indexed":false,"internalType":"uint256","name":"expTime","type":"uint256"}],"name":"NewToken","type":"event"},{"anonymous":false,"inputs":[{"indexed":false,"internalType":"uint256","name":"tokenId","type":"uint256"},{"indexed":true,"internalType":"bytes32","name":"tag1","type":"bytes32"},{"indexed":true,"internalType":"bytes32","name":"tag2","type":"bytes32"},{"indexed":true,"internalType":"bytes32","name":"tag3","type":"bytes32"}],"name":"Tags","type":"event"},{"anonymous":false,"inputs":[{"indexed":true,"internalType":"address","name":"from","type":"address"},{"indexed":true,"internalType":"address","name":"to","type":"address"},{"indexed":true,"internalType":"uint256","name":"tokenId","type":"uint256"}],"name":"Transfer","type":"event"},{"inputs":[{"internalType":"address","name":"to","type":"address"},{"internalType":"uint256","name":"tokenId","type":"uint256"}],"name":"approve","outputs":[],"stateMutability":"nonpayable","type":"function"},{"inputs":[{"internalType":"address","name":"owner","type":"address"}],"name":"balanceOf","outputs":[{"internalType":"uint256","name":"","type":"uint256"}],"stateMutability":"view","type":"function"},{"inputs":[{"internalType":"uint256","name":"tokenId","type":"uint256"}],"name":"burn","outputs":[],"stateMutability":"nonpayable","type":"function"},{"inputs":[],"name":"creatorAddresses","outputs":[{"internalType":"address[]","name":"creator","type":"address[]"}],"stateMutability":"view","type":"function"},{"inputs":[{"internalType":"uint256","name":"index","type":"uint256"}],"name":"creatorByIndex","outputs":[{"internalType":"address","name":"creator","type":"address"}],"stateMutability":"view","type":"function"},{"inputs":[{"internalType":"uint256[]","name":"index","type":"uint256[]"}],"name":"creatorsByIndexBatch","outputs":[{"internalType":"address[]","name":"creator","type":"address[]"}],"stateMutability":"view","type":"function"},{"inputs":[{"internalType":"uint256","name":"tokenId","type":"uint256"}],"name":"getApproved","outputs":[{"internalType":"address","name":"","type":"address"}],"stateMutability":"view","type":"function"},{"inputs":[{"components":[{"internalType":"address","name":"creator","type":"address"},{"internalType":"uint256","name":"signTime","type":"uint256"},{"internalType":"uint256","name":"initTime","type":"uint256"},{"internalType":"uint256","name":"expTime","type":"uint256"},{"internalType":"string","name":"tokenURI","type":"string"},{"internalType":"bytes","name":"data","type":"bytes"},{"internalType":"uint256[]","name":"toTokenId","type":"uint256[]"},{"internalType":"bytes32[]","name":"tags","type":"bytes32[]"},{"components":[{"internalType":"address","name":"addr","type":"address"},{"internalType":"uint16","name":"share","type":"uint16"}],"internalType":"struct DataStorage.Payee[]","name":"owners","type":"tuple[]"}],"internalType":"struct DataStorage.Katibeh","name":"katibeh","type":"tuple"}],"name":"getHash","outputs":[{"internalType":"bytes32","name":"","type":"bytes32"}],"stateMutability":"view","type":"function"},{"inputs":[{"internalType":"bytes32","name":"uriHash","type":"bytes32"}],"name":"getUriId","outputs":[{"internalType":"uint256","name":"","type":"uint256"}],"stateMutability":"view","type":"function"},{"inputs":[{"internalType":"address","name":"owner","type":"address"},{"internalType":"address","name":"operator","type":"address"}],"name":"isApprovedForAll","outputs":[{"internalType":"bool","name":"","type":"bool"}],"stateMutability":"view","type":"function"},{"inputs":[],"name":"name","outputs":[{"internalType":"string","name":"","type":"string"}],"stateMutability":"view","type":"function"},{"inputs":[],"name":"numberOfCreators","outputs":[{"internalType":"uint256","name":"","type":"uint256"}],"stateMutability":"view","type":"function"},{"inputs":[{"internalType":"address","name":"toCreator","type":"address"}],"name":"numberOfRepliesToCreator","outputs":[{"internalType":"uint256","name":"","type":"uint256"}],"stateMutability":"view","type":"function"},{"inputs":[{"internalType":"address[]","name":"toCreator","type":"address[]"}],"name":"numberOfRepliesToCreatorBatch","outputs":[{"internalType":"uint256[]","name":"count","type":"uint256[]"}],"stateMutability":"view","type":"function"},{"inputs":[{"internalType":"uint256","name":"tokenId","type":"uint256"}],"name":"numberOfTokenReplies","outputs":[{"internalType":"uint256","name":"","type":"uint256"}],"stateMutability":"view","type":"function"},{"inputs":[{"internalType":"uint256[]","name":"tokenId","type":"uint256[]"}],"name":"numberOfTokenRepliesBatch","outputs":[{"internalType":"uint256[]","name":"count","type":"uint256[]"}],"stateMutability":"view","type":"function"},{"inputs":[{"internalType":"bytes32","name":"tag","type":"bytes32"}],"name":"numberOfTokensByTag","outputs":[{"internalType":"uint256","name":"","type":"uint256"}],"stateMutability":"view","type":"function"},{"inputs":[{"internalType":"bytes32[]","name":"tag","type":"bytes32[]"}],"name":"numberOfTokensByTagBatch","outputs":[{"internalType":"uint256[]","name":"count","type":"uint256[]"}],"stateMutability":"view","type":"function"},{"inputs":[{"internalType":"address","name":"creator","type":"address"}],"name":"numberOfTokensOfCreator","outputs":[{"internalType":"uint256","name":"","type":"uint256"}],"stateMutability":"view","type":"function"},{"inputs":[{"internalType":"address[]","name":"creator","type":"address[]"}],"name":"numberOfTokensOfCreatorBatch","outputs":[{"internalType":"uint256[]","name":"count","type":"uint256[]"}],"stateMutability":"view","type":"function"},{"inputs":[],"name":"numberOfTokensTraceable","outputs":[{"internalType":"uint256","name":"count","type":"uint256"}],"stateMutability":"view","type":"function"},{"inputs":[{"internalType":"uint256","name":"tokenId","type":"uint256"}],"name":"ownerOf","outputs":[{"internalType":"address","name":"","type":"address"}],"stateMutability":"view","type":"function"},{"inputs":[{"internalType":"address","name":"toCreator","type":"address"}],"name":"repliesToCreator","outputs":[{"internalType":"uint256[]","name":"ids","type":"uint256[]"}],"stateMutability":"view","type":"function"},{"inputs":[{"internalType":"address","name":"toCreator","type":"address"},{"internalType":"uint256","name":"index","type":"uint256"}],"name":"repliesToCreatorByIndex","outputs":[{"internalType":"uint256","name":"id","type":"uint256"}],"stateMutability":"view","type":"function"},{"inputs":[{"internalType":"address","name":"toCreator","type":"address"},{"internalType":"uint256[]","name":"index","type":"uint256[]"}],"name":"repliesToCreatorByIndexBatch","outputs":[{"internalType":"uint256[]","name":"id","type":"uint256[]"}],"stateMutability":"view","type":"function"},{"inputs":[{"components":[{"internalType":"address","name":"creator","type":"address"},{"internalType":"uint256","name":"signTime","type":"uint256"},{"internalType":"uint256","name":"initTime","type":"uint256"},{"internalType":"uint256","name":"expTime","type":"uint256"},{"internalType":"string","name":"tokenURI","type":"string"},{"internalType":"bytes","name":"data","type":"bytes"},{"internalType":"uint256[]","name":"toTokenId","type":"uint256[]"},{"internalType":"bytes32[]","name":"tags","type":"bytes32[]"},{"components":[{"internalType":"address","name":"addr","type":"address"},{"internalType":"uint16","name":"share","type":"uint16"}],"internalType":"struct DataStorage.Payee[]","name":"owners","type":"tuple[]"}],"internalType":"struct DataStorage.Katibeh","name":"katibeh","type":"tuple"},{"internalType":"bytes","name":"sig","type":"bytes"},{"internalType":"bytes","name":"dappData","type":"bytes"}],"name":"safeMint","outputs":[{"internalType":"uint256","name":"tokenId","type":"uint256"}],"stateMutability":"nonpayable","type":"function"},{"inputs":[{"components":[{"internalType":"address","name":"creator","type":"address"},{"internalType":"uint256","name":"signTime","type":"uint256"},{"internalType":"uint256","name":"initTime","type":"uint256"},{"internalType":"uint256","name":"expTime","type":"uint256"},{"internalType":"string","name":"tokenURI","type":"string"},{"internalType":"bytes","name":"data","type":"bytes"},{"internalType":"uint256[]","name":"toTokenId","type":"uint256[]"},{"internalType":"bytes32[]","name":"tags","type":"bytes32[]"},{"components":[{"internalType":"address","name":"addr","type":"address"},{"internalType":"uint16","name":"share","type":"uint16"}],"internalType":"struct DataStorage.Payee[]","name":"owners","type":"tuple[]"}],"internalType":"struct DataStorage.Katibeh","name":"katibeh","type":"tuple"},{"internalType":"bytes","name":"sig","type":"bytes"},{"internalType":"bytes","name":"dappData","type":"bytes"}],"name":"safeMintAndSetTraceStorage","outputs":[],"stateMutability":"nonpayable","type":"function"},{"inputs":[{"internalType":"address","name":"from","type":"address"},{"internalType":"address","name":"to","type":"address"},{"internalType":"uint256","name":"tokenId","type":"uint256"}],"name":"safeTransferFrom","outputs":[],"stateMutability":"nonpayable","type":"function"},{"inputs":[{"internalType":"address","name":"from","type":"address"},{"internalType":"address","name":"to","type":"address"},{"internalType":"uint256","name":"tokenId","type":"uint256"},{"internalType":"bytes","name":"data","type":"bytes"}],"name":"safeTransferFrom","outputs":[],"stateMutability":"nonpayable","type":"function"},{"inputs":[{"internalType":"address","name":"operator","type":"address"},{"internalType":"bool","name":"approved","type":"bool"}],"name":"setApprovalForAll","outputs":[],"stateMutability":"nonpayable","type":"function"},{"inputs":[{"internalType":"bytes4","name":"interfaceId","type":"bytes4"}],"name":"supportsInterface","outputs":[{"internalType":"bool","name":"","type":"bool"}],"stateMutability":"view","type":"function"},{"inputs":[],"name":"symbol","outputs":[{"internalType":"string","name":"","type":"string"}],"stateMutability":"view","type":"function"},{"inputs":[],"name":"timeStamp","outputs":[{"internalType":"uint256","name":"","type":"uint256"}],"stateMutability":"view","type":"function"},{"inputs":[{"internalType":"uint256","name":"index","type":"uint256"}],"name":"tokenByIndex","outputs":[{"internalType":"uint256","name":"","type":"uint256"}],"stateMutability":"view","type":"function"},{"inputs":[{"internalType":"uint256","name":"index","type":"uint256"}],"name":"tokenByIndexTraceable","outputs":[{"internalType":"uint256","name":"id","type":"uint256"}],"stateMutability":"view","type":"function"},{"inputs":[{"internalType":"uint256","name":"tokenId","type":"uint256"}],"name":"tokenInfo","outputs":[{"components":[{"internalType":"address","name":"creator","type":"address"},{"internalType":"uint256","name":"signTime","type":"uint256"},{"internalType":"uint256","name":"initTime","type":"uint256"},{"internalType":"uint256","name":"expTime","type":"uint256"},{"internalType":"string","name":"tokenURI","type":"string"},{"internalType":"bytes","name":"data","type":"bytes"},{"internalType":"uint256[]","name":"toTokenId","type":"uint256[]"},{"internalType":"bytes32[]","name":"tags","type":"bytes32[]"},{"components":[{"internalType":"address","name":"addr","type":"address"},{"internalType":"uint16","name":"share","type":"uint16"}],"internalType":"struct DataStorage.Payee[]","name":"owners","type":"tuple[]"}],"internalType":"struct DataStorage.Katibeh","name":"katibeh","type":"tuple"},{"internalType":"uint256","name":"mintTime","type":"uint256"},{"internalType":"bytes","name":"sig","type":"bytes"},{"internalType":"bytes","name":"dappData","type":"bytes"}],"stateMutability":"view","type":"function"},{"inputs":[{"internalType":"uint256","name":"","type":"uint256"}],"name":"tokenMintTime","outputs":[{"internalType":"uint256","name":"","type":"uint256"}],"stateMutability":"view","type":"function"},{"inputs":[{"internalType":"address","name":"creator","type":"address"},{"internalType":"uint256","name":"index","type":"uint256"}],"name":"tokenOfCreatorByIndex","outputs":[{"internalType":"uint256","name":"id","type":"uint256"}],"stateMutability":"view","type":"function"},{"inputs":[{"internalType":"address","name":"owner","type":"address"},{"internalType":"uint256","name":"index","type":"uint256"}],"name":"tokenOfOwnerByIndex","outputs":[{"internalType":"uint256","name":"","type":"uint256"}],"stateMutability":"view","type":"function"},{"inputs":[{"internalType":"bytes32","name":"tag","type":"bytes32"},{"internalType":"uint256","name":"index","type":"uint256"}],"name":"tokenOfTagByIndex","outputs":[{"internalType":"uint256","name":"id","type":"uint256"}],"stateMutability":"view","type":"function"},{"inputs":[{"internalType":"uint256","name":"tokenId","type":"uint256"}],"name":"tokenReplies","outputs":[{"internalType":"uint256[]","name":"ids","type":"uint256[]"}],"stateMutability":"view","type":"function"},{"inputs":[{"internalType":"uint256","name":"tokenId","type":"uint256"},{"internalType":"uint256[]","name":"index","type":"uint256[]"}],"name":"tokenRepliesByIndexBatch","outputs":[{"internalType":"uint256[]","name":"id","type":"uint256[]"}],"stateMutability":"view","type":"function"},{"inputs":[{"internalType":"uint256","name":"tokenId","type":"uint256"},{"internalType":"uint256","name":"index","type":"uint256"}],"name":"tokenReplyByIndex","outputs":[{"internalType":"uint256","name":"id","type":"uint256"}],"stateMutability":"view","type":"function"},{"inputs":[{"internalType":"uint256","name":"tokenId","type":"uint256"}],"name":"tokenURI","outputs":[{"internalType":"string","name":"","type":"string"}],"stateMutability":"view","type":"function"},{"inputs":[{"internalType":"uint256[]","name":"index","type":"uint256[]"}],"name":"tokensByIndexTraceableBatch","outputs":[{"internalType":"uint256[]","name":"id","type":"uint256[]"}],"stateMutability":"view","type":"function"},{"inputs":[{"internalType":"uint256[]","name":"tokenId","type":"uint256[]"}],"name":"tokensInfoBatch","outputs":[{"components":[{"internalType":"address","name":"creator","type":"address"},{"internalType":"uint256","name":"signTime","type":"uint256"},{"internalType":"uint256","name":"initTime","type":"uint256"},{"internalType":"uint256","name":"expTime","type":"uint256"},{"internalType":"string","name":"tokenURI","type":"string"},{"internalType":"bytes","name":"data","type":"bytes"},{"internalType":"uint256[]","name":"toTokenId","type":"uint256[]"},{"internalType":"bytes32[]","name":"tags","type":"bytes32[]"},{"components":[{"internalType":"address","name":"addr","type":"address"},{"internalType":"uint16","name":"share","type":"uint16"}],"internalType":"struct DataStorage.Payee[]","name":"owners","type":"tuple[]"}],"internalType":"struct DataStorage.Katibeh[]","name":"katibeh","type":"tuple[]"},{"internalType":"uint256[]","name":"mintTime","type":"uint256[]"},{"internalType":"bytes[]","name":"sig","type":"bytes[]"},{"internalType":"bytes[]","name":"dappData","type":"bytes[]"}],"stateMutability":"view","type":"function"},{"inputs":[{"internalType":"address","name":"creator","type":"address"}],"name":"tokensOfCreator","outputs":[{"internalType":"uint256[]","name":"ids","type":"uint256[]"}],"stateMutability":"view","type":"function"},{"inputs":[{"internalType":"address","name":"creator","type":"address"},{"internalType":"uint256[]","name":"index","type":"uint256[]"}],"name":"tokensOfCreatorByIndexBatch","outputs":[{"internalType":"uint256[]","name":"id","type":"uint256[]"}],"stateMutability":"view","type":"function"},{"inputs":[{"internalType":"bytes32","name":"tag","type":"bytes32"}],"name":"tokensOfTag","outputs":[{"internalType":"uint256[]","name":"ids","type":"uint256[]"}],"stateMutability":"view","type":"function"},{"inputs":[{"internalType":"bytes32","name":"tag","type":"bytes32"},{"internalType":"uint256[]","name":"index","type":"uint256[]"}],"name":"tokensOfTagByIndexBatch","outputs":[{"internalType":"uint256[]","name":"id","type":"uint256[]"}],"stateMutability":"view","type":"function"},{"inputs":[],"name":"totalSupply","outputs":[{"internalType":"uint256","name":"","type":"uint256"}],"stateMutability":"view","type":"function"},{"inputs":[{"internalType":"address","name":"creator","type":"address"},{"internalType":"uint256","name":"id","type":"uint256"}],"name":"traceTokenByCreator","outputs":[{"internalType":"uint256","name":"numberOfPreviousIds","type":"uint256"},{"internalType":"uint256","name":"numberOfNextIds","type":"uint256"},{"internalType":"uint256","name":"previousId","type":"uint256"},{"internalType":"uint256","name":"nextId","type":"uint256"}],"stateMutability":"view","type":"function"},{"inputs":[{"internalType":"uint256","name":"id","type":"uint256"}],"name":"traceTokenById","outputs":[{"internalType":"uint256","name":"numberOfPreviousIds","type":"uint256"},{"internalType":"uint256","name":"numberOfNextIds","type":"uint256"},{"internalType":"uint256","name":"previousId","type":"uint256"},{"internalType":"uint256","name":"nextId","type":"uint256"}],"stateMutability":"view","type":"function"},{"inputs":[{"internalType":"bytes32","name":"tag","type":"bytes32"},{"internalType":"uint256","name":"id","type":"uint256"}],"name":"traceTokenByTag","outputs":[{"internalType":"uint256","name":"numberOfPreviousIds","type":"uint256"},{"internalType":"uint256","name":"numberOfNextIds","type":"uint256"},{"internalType":"uint256","name":"previousId","type":"uint256"},{"internalType":"uint256","name":"nextId","type":"uint256"}],"stateMutability":"view","type":"function"},{"inputs":[{"internalType":"address","name":"from","type":"address"},{"internalType":"address","name":"to","type":"address"},{"internalType":"uint256","name":"tokenId","type":"uint256"}],"name":"transferFrom","outputs":[],"stateMutability":"nonpayable","type":"function"}],"evm":{"bytecode":{"linkReferences":{},"object":"60803462000311576001600160401b039060409080820183811182821017620002fb578252600a8152602092694b61746962656837323160b01b84830152825183810181811083821117620002fb578452600781526609682a892848a960cb1b85820152825190828211620002fb5760008054926001958685811c95168015620002f0575b89861014620002dc578190601f9586811162000289575b5089908683116001146200022557849262000219575b5050600019600383901b1c191690861b1781555b8151938411620002055784548581811c91168015620001fa575b88821014620001e6578381116200019e575b508692841160011462000138578394959650926200012c575b5050600019600383901b1c191690821b1790555b516147459081620003178239f35b0151905038806200010a565b9190601f1984169685845280842093905b8882106200018657505083859697106200016c575b505050811b0190556200011e565b015160001960f88460031b161c191690553880806200015e565b80878596829496860151815501950193019062000149565b8582528782208480870160051c8201928a8810620001dc575b0160051c019086905b828110620001d0575050620000f1565b838155018690620001c0565b92508192620001b7565b634e487b7160e01b82526022600452602482fd5b90607f1690620000df565b634e487b7160e01b81526041600452602490fd5b015190503880620000b1565b8480528a85208994509190601f198416865b8d82821062000272575050841162000258575b505050811b018155620000c5565b015160001960f88460031b161c191690553880806200024a565b8385015186558c9790950194938401930162000237565b9091508380528984208680850160051c8201928c8610620002d2575b918a91869594930160051c01915b828110620002c35750506200009b565b8681558594508a9101620002b3565b92508192620002a5565b634e487b7160e01b83526022600452602483fd5b94607f169462000084565b634e487b7160e01b600052604160045260246000fd5b600080fdfe60806040526004361015610013575b600080fd5b60003560e01c8063017642e41461045f57806301ffc9a71461045657806306fdde031461044d578063081812fc14610444578063095ea7b31461043b5780630ab0df8714610432578063132e75d6146104295780631674ed4b1461042057806318160ddd146104175780631ae69b611461040e57806323b872dd1461040557806326156636146103fc57806329c7785f146103f35780632b0eca8c146103ea5780632c230901146103e15780632e0d0718146103d85780632f745c59146103cf57806331d99545146103c65780633552d220146103bd57806339d77f25146103b457806340b94757146103ab57806342842e0e146103a257806342966c68146103995780634667c884146103905780634832e8f3146103875780634f6ccce71461037e5780634fc092751461037557806360f6a4a31461036c5780636352211e14610363578063662ec09e1461035a5780636d571b6a1461035157806370a08231146103485780637372e98d1461033f57806378292236146103365780638282674f1461032d57806383b81ebd146103245780638f93fb391461031b57806395d89b411461031257806396cc6a3414610309578063a22cb46514610300578063af3ea105146102f7578063b1582201146102ee578063b88d4fde146102e5578063bfc9b364146102dc578063c03d1d91146102d3578063c3512876146102ca578063c87b56dd146102c1578063cc33c875146102b8578063cca3c766146102af578063dd468791146102a6578063e985e9c51461029d578063f353a73214610294578063f6bd7ab81461028b578063f99458a4146102825763fe649b7e1461027a57600080fd5b61000e611eb8565b5061000e611e78565b5061000e611e21565b5061000e611dfe565b5061000e611d95565b5061000e611d76565b5061000e611d13565b5061000e611cb4565b5061000e611c5f565b5061000e611c19565b5061000e611b8b565b5061000e611b4e565b5061000e611ae6565b5061000e6119ac565b5061000e61194d565b5061000e61185c565b5061000e6117d3565b5061000e61172d565b5061000e6116ca565b5061000e61169d565b5061000e61165c565b5061000e61162f565b5061000e611612565b5061000e6115ea565b5061000e6115cb565b5061000e611590565b5061000e611571565b5061000e61154e565b5061000e611522565b5061000e611476565b5061000e611380565b5061000e6112bb565b5061000e6111f9565b5061000e6111d0565b5061000e611148565b5061000e61102a565b5061000e611008565b5061000e610f92565b5061000e610eda565b5061000e610eaf565b5061000e610e2f565b5061000e610d53565b5061000e610a64565b5061000e610a3d565b5061000e610a13565b5061000e6109c8565b5061000e6109a9565b5061000e610917565b5061000e6108bf565b5061000e610867565b5061000e61078c565b5061000e61073d565b5061000e61065d565b5061000e610583565b5061000e6104e0565b9181601f8401121561000e578235916001600160401b03831161000e576020808501948460051b01011161000e57565b90815180825260208080930193019160005b8281106104b8575050505090565b8351855293810193928101926001016104aa565b9060206104dd928181520190610498565b90565b503461000e57604036600319011261000e576004356024356001600160401b03811161000e57610514903690600401610468565b9161051e83613ec4565b9260005b818110610543576040516020808252819061053f90820188610498565b0390f35b8061055c61055561056c938588612fd3565b3585614532565b6105668288613f40565b52612f80565b610522565b6001600160e01b031981160361000e57565b503461000e57602036600319011261000e5760206004356105a381610571565b63ffffffff60e01b1663780e9d6360e01b81149081156105c9575b506040519015158152f35b6380ac58cd60e01b8114915081156105fb575b81156105ea575b50386105be565b6301ffc9a760e01b149050386105e3565b635b5e139f60e01b811491506105dc565b919082519283825260005b848110610638575050826000602080949584010152601f8019910116010190565b602081830181015184830182015201610617565b9060206104dd92818152019061060c565b503461000e5760008060031936011261073a57604051908080546106808161200e565b8085529160019180831690811561071057506001146106b6575b61053f856106aa81870382611a44565b6040519182918261064c565b80809450527f290decd9548b62a8d60345a988386fc84ba6bc95484008f6362f93160ef3e5635b8284106106f85750505081016020016106aa8261053f61069a565b805460208587018101919091529093019281016106dd565b86955061053f969350602092506106aa94915060ff191682840152151560051b820101929361069a565b80fd5b503461000e57602036600319011261000e57602061075c60043561216b565b6040516001600160a01b039091168152f35b6001600160a01b0381160361000e57565b359061078a8261076e565b565b503461000e57604036600319011261000e576004356107aa8161076e565b6024356107b681611feb565b916001600160a01b038084169082168114610818576107e8936107e39133149081156107ea575b506120f9565b612550565b005b6001600160a01b0316600090815260056020908152604080832033845290915290205460ff169050386107dd565b60405162461bcd60e51b815260206004820152602160248201527f4552433732313a20617070726f76616c20746f2063757272656e74206f776e656044820152603960f91b6064820152608490fd5b503461000e57600036600319011261000e576020604051428152f35b90604060031983011261000e5760043561089c8161076e565b91602435906001600160401b03821161000e576108bb91600401610468565b9091565b503461000e576108ce36610883565b916108d883613ec4565b9260005b8181106108f9576040516020808252819061053f90820188610498565b8061055c61090b610912938588612fd3565b3585614433565b6108dc565b503461000e5760408060031936011261000e576004356024356001600160401b03811161000e5761094c903690600401610468565b9161095683613ec4565b92600090815b8181106109705786518061053f88826104cc565b806109936109826109a4938589612fd3565b3586865260156020528986206127bb565b90549060031b1c6105668289613f40565b61095c565b503461000e57600036600319011261000e576020600854604051908152f35b503461000e57600036600319011261000e576020601354604051908152f35b606090600319011261000e576004356109ff8161076e565b90602435610a0c8161076e565b9060443590565b503461000e576107e8610a25366109e7565b91610a38610a3384336122af565b6121a9565b6123bb565b503461000e57602036600319011261000e576020610a5c60043561414d565b604051908152f35b503461000e57604036600319011261000e576000806004358252601760205261053f6040832092610a9760243585614256565b92845494848603958611610b4a575b600019868101968711610b3d575b85610b02575b5085610ae5575b50604051948594859094939260609260808301968352602083015260408201520152565b610afa919250610af4856123ad565b906141b7565b509038610ac1565b610b189192508501858111610b30575b826127bb565b90549060031b1c808352600282016020529038610aba565b610b3861237f565b610b12565b610b4561237f565b610ab4565b610b5261237f565b610aa6565b602060031982011261000e57600435906001600160401b03821161000e576108bb91600401610468565b90815180825260208080930193019160005b828110610ba1575050505090565b835180516001600160a01b0316865282015161ffff168583015260409094019392810192600101610b93565b80516001600160a01b031682526104dd9190602081015160208301526040810151604083015260608101516060830152610c55610c43610c31610c1f608085015161012080608089015287019061060c565b60a085015186820360a088015261060c565b60c084015185820360c0870152610498565b60e083015184820360e0860152610498565b916101008092015191818403910152610b81565b90815180825260208092019182818360051b85019501936000915b848310610c945750505050505090565b9091929394958480610cae83856001950387528a5161060c565b9801930193019194939290610c84565b92949391608084019160808552805180935260a0850160a08460051b870101936020809301916000905b828210610d295750505050826104dd969792610d0d9287610d1b960390880152610498565b908482036040860152610c69565b916060818403910152610c69565b909192958480610d45600193609f198d82030186528a51610bcd565b980192019201909291610ce8565b503461000e57610d6236610b57565b610d6b81613e3d565b610d786040519182611a44565b818152601f19610d8783613e3d565b0160005b818110610e18575050610d9d82613ec4565b91610da781613ef6565b93610db182613ef6565b9160005b818110610dd05750505061053f908460405194859485610cbe565b80610de8610de2610e13938587612fd3565b35614044565b610df2858a613f40565b52610dfd848c613f40565b52610e08838a613f40565b526105668288613f40565b610db5565b602090610e23613e5d565b82828601015201610d8b565b503461000e57610e3e36610b57565b90610e4882613ec4565b9160005b818110610e69576040516020808252819061053f90820187610498565b80610ea0610e7b610eaa938587612fd3565b35610e858161076e565b6001600160a01b031660009081526016602052604090205490565b6105668287613f40565b610e4c565b503461000e57602036600319011261000e576020610a5c600435600052601560205260406000205490565b503461000e57604036600319011261000e57600435610ef88161076e565b60243590610f0581611f28565b821015610f39576001600160a01b031660009081526006602090815260408083209383529281529082902054915191825290f35b60405162461bcd60e51b815260206004820152602b60248201527f455243373231456e756d657261626c653a206f776e657220696e646578206f7560448201526a74206f6620626f756e647360a81b6064820152608490fd5b503461000e57610fa136610b57565b90610fab82613ec4565b9160005b818110610fcc576040516020808252819061053f90820187610498565b80610ea0610fde611003938587612fd3565b35610fe88161076e565b6001600160a01b031660009081526012602052604090205490565b610faf565b503461000e57604036600319011261000e576020610a5c602435600435614532565b503461000e57602036600319011261000e5760008061053f61104d6004356141de565b91600f54938385039485116110f7575b6000198581019586116110ea575b846110b5575b508461109b575b604051948594859094939260609260808301968352602083015260408201520152565b90506110ae6110a9846123ad565b614169565b5090611078565b6110c8915084018481116110dd57612776565b90549060031b1c808252601160205238611071565b6110e561237f565b612776565b6110f261237f565b61106b565b6110ff61237f565b61105d565b6020908160408183019282815285518094520193019160005b82811061112b575050505090565b83516001600160a01b03168552938101939281019260010161111d565b503461000e57600036600319011261000e57604051806013549182815260208091019260136000527f66de8ffda797e3de9c05e8fc57b3bf0ec28a930d40b0d285d93c06501cf6a090916000905b8282106111b95761053f856111ad81890382611a44565b60405191829182611104565b835486529485019460019384019390910190611196565b503461000e576107e86111e2366109e7565b90604051926111f084611a01565b6000845261220c565b503461000e57602036600319011261000e5760043561121b610a3382336122af565b6112ab61122782611feb565b6112318382612ff1565b61123a836124fc565b6001600160a01b0316600081815260036020526040812080549194928392869260001982019182116112ae575b5582825260026020526040822080546001600160a01b03191690557fddf252ad1be2c89b69c2b068fc378daa952ba7f163c4a11628f55a4df523b3ef8280a461355a565b80f35b6112b661237f565b611267565b503461000e57602036600319011261000e576020610a5c600435600052601760205260406000205490565b908161012091031261000e5790565b9181601f8401121561000e578235916001600160401b03831161000e576020838186019501011161000e57565b606060031982011261000e576001600160401b039060043582811161000e578161134e916004016112e6565b9260243583811161000e5782611366916004016112f5565b9390939260443591821161000e576108bb916004016112f5565b503461000e5761139e61139236611322565b92849594929192612c70565b600f548160005260116020526040600020556113b98161429e565b506113cc816113c784612bb3565b614467565b6113dd6113d883612bb3565b6144e9565b60c082016113eb8184612c3b565b91905060005b82811061140f576107e88461140960e0880188612c3b565b9161454b565b8061143161142a61147193611424868a612c3b565b90612fd3565b35866144fb565b61146c8561146761145a61144985611424898d612c3b565b35600052600a602052604060002090565b546001600160a01b031690565b614511565b612f80565b6113f1565b503461000e57602036600319011261000e576004356008548110156114c85760086000527ff3f7a9fe364faab93b216da50a3214154f22a0a2b415b23a84c8169e8b636ee30154604051908152602090f35b60405162461bcd60e51b815260206004820152602c60248201527f455243373231456e756d657261626c653a20676c6f62616c20696e646578206f60448201526b7574206f6620626f756e647360a01b6064820152608490fd5b503461000e57604036600319011261000e576020610a5c6004356115458161076e565b60243590614433565b503461000e57602036600319011261000e576020610a5c600435610fe88161076e565b503461000e57602036600319011261000e57602061075c600435611feb565b503461000e57602036600319011261000e576004356001600160401b03811161000e57610a5c6115c660209236906004016112e6565b612ab0565b503461000e57602036600319011261000e57602061075c60043561449d565b503461000e57602036600319011261000e576020610a5c60043561160d8161076e565b611f28565b503461000e576020610a5c61162636611322565b93929092612c70565b503461000e57602036600319011261000e57600435600052600b6020526020604060002054604051908152f35b503461000e57602036600319011261000e57600435600052601560205261053f6116896040600020613f62565b604051918291602083526020830190610498565b503461000e57602036600319011261000e57600435600052600e6020526020604060002054604051908152f35b503461000e576116d936610b57565b906116e382613ec4565b9160005b818110611704576040516020808252819061053f90820187610498565b80610ea0611716611728938587612fd3565b35600052601760205260406000205490565b6116e7565b503461000e5760008060031936011261073a57604051908060018054916117538361200e565b8086529282811690811561071057506001146117795761053f856106aa81870382611a44565b92508083527fb10e2d527612073b26eecdfd717e6a320cf44b4afac2b0732d9fcbe2b7fa0cf65b8284106117bb5750505081016020016106aa8261053f61069a565b805460208587018101919091529093019281016117a0565b503461000e5760208060031936011261000e576004356117f28161076e565b6001600160a01b0316600090815260128252604081208054919061181583613ec4565b936002820191835b858110611832576040518061053f89826104cc565b8061184061185792846127bb565b90549060031b1c808752858552610566828a613f40565b61181d565b503461000e57604036600319011261000e5760043561187a8161076e565b602435801515810361000e576001600160a01b0382169133831461190857816118c56118d69233600052600560205260406000209060018060a01b0316600052602052604060002090565b9060ff801983541691151516179055565b604051901515815233907f17307eab39ab6107e8899845ad3d59bd9653f200f220920489ca2b5937696c3190602090a3005b60405162461bcd60e51b815260206004820152601960248201527f4552433732313a20617070726f766520746f2063616c6c6572000000000000006044820152606490fd5b503461000e5760208060031936011261000e576000600435815260178252604081209081549161197c83613ec4565b936002820191835b858110611999576040518061053f89826104cc565b806118406119a792846127bb565b611984565b503461000e57602036600319011261000e576004356119ca8161076e565b60018060a01b0316600052601660205261053f6116896040600020613f62565b50634e487b7160e01b600052604160045260246000fd5b602081019081106001600160401b03821117611a1c57604052565b611a246119ea565b604052565b606081019081106001600160401b03821117611a1c57604052565b90601f801991011681019081106001600160401b03821117611a1c57604052565b6040519061012082018281106001600160401b03821117611a1c57604052565b6020906001600160401b038111611aa2575b601f01601f19160190565b611aaa6119ea565b611a97565b929192611abb82611a85565b91611ac96040519384611a44565b82948184528183011161000e578281602093846000960137010152565b503461000e57608036600319011261000e57600435611b048161076e565b602435611b108161076e565b606435916001600160401b03831161000e573660238401121561000e57611b446107e8933690602481600401359101611aaf565b916044359161220c565b503461000e57604036600319011261000e5760043560005260156020526020611b7d60243560406000206127bb565b90546040519160031b1c8152f35b503461000e57611b9a36610b57565b90611ba482613e3d565b91611bb26040519384611a44565b808352601f19611bc182613e3d565b0136602085013760005b818110611be0576040518061053f8682611104565b80611bf8611bf2611c14938587612fd3565b3561449d565b611c028287613f40565b6001600160a01b039091169052612f80565b611bcb565b503461000e57604036600319011261000e57600435611c378161076e565b6001600160a01b031660009081526012602052604081209061053f81610a9760243585614256565b503461000e57602036600319011261000e57600435600052600a60205261053f611c99611ca0600460406000200160405192838092612048565b0382611a44565b60405191829160208352602083019061060c565b503461000e57602036600319011261000e57611cf2611d0561053f611cda600435614044565b92949190604051968796608088526080880190610bcd565b916020870152858203604087015261060c565b90838203606085015261060c565b503461000e57611d2236610b57565b90611d2c82613ec4565b9160005b818110611d4d576040516020808252819061053f90820187610498565b80610ea0611d5f611d71938587612fd3565b35600052601560205260406000205490565b611d30565b503461000e57600036600319011261000e576020600f54604051908152f35b503461000e57604036600319011261000e57602060ff611df2600435611dba8161076e565b60243590611dc78261076e565b60018060a01b03166000526005845260406000209060018060a01b0316600052602052604060002090565b54166040519015158152f35b503461000e57602036600319011261000e576020610a5c600435610e858161076e565b503461000e57611e3036610b57565b90611e3a82613ec4565b9160005b818110611e5b576040516020808252819061053f90820187610498565b80610ea0611e6d611e73938587612fd3565b3561414d565b611e3e565b503461000e57604036600319011261000e57600435611e968161076e565b60018060a01b031660005260166020526020611b7d60243560406000206127bb565b503461000e57611ec736610883565b91611ed183613ec4565b92600090815b818110611ef4576040516020808252819061053f90820189610498565b80610993611f06611f23938589612fd3565b6001600160a01b03871686526016602052604086209035906127bb565b611ed7565b6001600160a01b03168015611f4857600052600360205260406000205490565b60405162461bcd60e51b815260206004820152602960248201527f4552433732313a2061646472657373207a65726f206973206e6f7420612076616044820152683634b21037bbb732b960b91b6064820152608490fd5b15611fa657565b60405162461bcd60e51b815260206004820152601860248201527f4552433732313a20696e76616c696420746f6b656e20494400000000000000006044820152606490fd5b6000908152600260205260409020546001600160a01b03166104dd811515611f9f565b90600182811c9216801561203e575b602083101461202857565b634e487b7160e01b600052602260045260246000fd5b91607f169161201d565b90600092918054916120598361200e565b9182825260019384811690816000146120bb575060011461207b575b50505050565b90919394506000526020928360002092846000945b8386106120a7575050505001019038808080612075565b805485870183015294019385908201612090565b9294505050602093945060ff191683830152151560051b01019038808080612075565b9061078a6120f29260405193848092612048565b0383611a44565b1561210057565b60405162461bcd60e51b815260206004820152603e60248201527f4552433732313a20617070726f76652063616c6c6572206973206e6f7420746f60448201527f6b656e206f776e6572206e6f7220617070726f76656420666f7220616c6c00006064820152608490fd5b60008181526002602052604090205461218e906001600160a01b03161515611f9f565b6000908152600460205260409020546001600160a01b031690565b156121b057565b60405162461bcd60e51b815260206004820152602e60248201527f4552433732313a2063616c6c6572206973206e6f7420746f6b656e206f776e6560448201526d1c881b9bdc88185c1c1c9bdd995960921b6064820152608490fd5b9161078a939161223393612223610a3384336122af565b61222e8383836123bb565b612723565b61228b565b60809060208152603260208201527f4552433732313a207472616e7366657220746f206e6f6e20455243373231526560408201527131b2b4bb32b91034b6b83632b6b2b73a32b960711b60608201520190565b1561229257565b60405162461bcd60e51b8152806122ab60048201612238565b0390fd5b6001600160a01b03806122c184611feb565b1692818316928484149485156122f7575b505083156122e1575b50505090565b6122ed9192935061216b565b16143880806122db565b60009081526005602090815260408083206001600160a01b03949094168352929052205460ff16935038806122d2565b1561232e57565b60405162461bcd60e51b8152602060048201526024808201527f4552433732313a207472616e7366657220746f20746865207a65726f206164646044820152637265737360e01b6064820152608490fd5b50634e487b7160e01b600052601160045260246000fd5b6000198101919082116123a557565b61078a61237f565b90600182018092116123a557565b906123c583611feb565b6001600160a01b0383811692909182168390036124a95761241f612482928216946123f1861515612327565b6123fc87848361319a565b612405876124fc565b6001600160a01b0316600090815260036020526040902090565b6124298154612396565b90556001600160a01b038116600090815260036020526040902061244d81546123ad565b9055612463856000526002602052604060002090565b80546001600160a01b0319166001600160a01b03909216919091179055565b7fddf252ad1be2c89b69c2b068fc378daa952ba7f163c4a11628f55a4df523b3ef600080a4565b60405162461bcd60e51b815260206004820152602560248201527f4552433732313a207472616e736665722066726f6d20696e636f72726563742060448201526437bbb732b960d91b6064820152608490fd5b600081815260046020526040812080546001600160a01b03191690556001600160a01b0361252983611feb565b167f8c5be1e5ebec7d5bd14f71427d1e84f3dd0314c0f7b2291e5b200ac8c7c3b9258280a4565b600082815260046020526040902080546001600160a01b0319166001600160a01b0383161790556001600160a01b038061258984611feb565b169116907f8c5be1e5ebec7d5bd14f71427d1e84f3dd0314c0f7b2291e5b200ac8c7c3b925600080a4565b9081602091031261000e57516104dd81610571565b6104dd939260809260018060a01b03168252600060208301526040820152816060820152019061060c565b6001600160a01b0391821681529116602082015260408101919091526080606082018190526104dd9291019061060c565b506040513d6000823e3d90fd5b3d1561265d573d9061264382611a85565b916126516040519384611a44565b82523d6000602084013e565b606090565b909190803b1561271b57612694602091600093604051948580948193630a85bd0160e11b998a845233600485016125c9565b03926001600160a01b03165af1600091816126eb575b506126dd576126b7612632565b805190816126d85760405162461bcd60e51b8152806122ab60048201612238565b602001fd5b6001600160e01b0319161490565b61270d91925060203d8111612714575b6127058183611a44565b8101906125b4565b90386126aa565b503d6126fb565b505050600190565b92909190823b1561275657612694926020926000604051809681958294630a85bd0160e11b9a8b855233600486016125f4565b50505050600190565b50634e487b7160e01b600052603260045260246000fd5b600f548110156127ae575b600f6000527f8d1108e10bcb7c27dddfc02ed9d693a074039d026cf4ea4240b40f7d581ac8020190600090565b6127b661275f565b612781565b80548210156127d4575b60005260206000200190600090565b6127dc61275f565b6127c5565b156127e857565b60405162461bcd60e51b815260206004820152605c60248201527f4b6174696265683732313a207369676e2074696d65206d757374206265206c6560448201527f7373207468616e20696e69742074696d65202620696e69742074696d65206d7560648201527f7374206265206c657373207468616e206578706972652074696d652e00000000608482015260a490fd5b9035601e198236030181121561000e5701602081359101916001600160401b03821161000e57813603831361000e57565b908060209392818452848401376000828201840152601f01601f1916010190565b9035601e198236030181121561000e5701602081359101916001600160401b03821161000e578160051b3603831361000e57565b81835290916001600160fb1b03831161000e5760209260051b809284830137010190565b9035601e198236030181121561000e5701602081359101916001600160401b03821161000e578160061b3603831361000e57565b61ffff81160361000e57565b9190808252602080920192916000905b828210612981575050505090565b9091929360019085356129938161076e565b828060a01b0316815261ffff838701356129ac81612957565b16818401526040908101950193920190612973565b90612a2c6104dd92602081526129ea602082016129dd8561077f565b6001600160a01b03169052565b602083013560408201526040830135606082015260608301356080820152612a156080840184612879565b9290610120938460a08501526101408401916128aa565b90612aa1612a74612a57612a4360a0880188612879565b601f19868803810160c088015296916128aa565b612a6460c08801886128cb565b90868684030160e08701526128ff565b94612a98612a8560e08301836128cb565b610100989187878403018a8801526128ff565b95810190612923565b93909282860301910152612963565b6020810135610e0f198101818111612ba6575b42101580612b84575b15612b2357612aeb906040830135809111159081612b14575b506127e1565b604051612b0e81612b006020820194856129c1565b03601f198101835282611a44565b51902090565b90506060830135101538612ae5565b60405162461bcd60e51b815260206004820152603360248201527f4b6174696265683732313a206d6f7265207468616e203120686f75727320736960448201527233b7103a34b6b2903234b33332b932b731b29760691b6064820152608490fd5b50610e108101808211612b99575b4210612acc565b612ba161237f565b612b92565b612bae61237f565b612ac3565b356104dd8161076e565b15612bc457565b60405162461bcd60e51b815260206004820152601d60248201527f4b6174696265683732313a20496e76616c6964207369676e61747572650000006044820152606490fd5b903590601e198136030182121561000e57018035906001600160401b03821161000e5760200191813603831361000e57565b903590601e198136030182121561000e57018035906001600160401b03821161000e57602001918160051b3603831361000e57565b93949294604051956020968781019085858337612cae602c828881016b39b0b6b0b7103bb4b639b7b760a11b8d82015203600c810184520182611a44565b519020958035612cbd8161076e565b612cc682612ab0565b6040518a8101917f19457468657265756d205369676e6564204d6573736167653a0a3332000000008352603c820152603c8152612d0281611a29565b519020612d10368888611aaf565b6041815103612dfa57808b01516040808301516060938401518251958652600090811a602087015291850192909252918301528080529899979861078a98612de7969594612de194612dda949193612d8793919260809060015afa15612ded575b6000516001600160a01b03908116911614612bbd565b42612d9c8c600052600e602052604060002090565b55612daf8b612daa83612bb3565b612e3f565b612dc68b612dc06080840184612c09565b9061345f565b612dd0818c6139f2565b60e0810190612c3b565b908a613d0e565b87613b8c565b84613c50565b612df5612625565b612d71565b60405162461bcd60e51b8152600481018c9052601860248201527f696e76616c6964207369676e6174757265206c656e67746800000000000000006044820152606490fd5b90604051612e4c81611a01565b600081526001600160a01b038316918215612f3c576000818152600260205260409020546001600160a01b0316612ef757838161223394612e908261078a9861316f565b6001600160a01b0383166000908152600360205260409020612eb281546123ad565b9055612ecc83612463846000526002602052604060002090565b60007fddf252ad1be2c89b69c2b068fc378daa952ba7f163c4a11628f55a4df523b3ef8180a4612662565b60405162461bcd60e51b815260206004820152601c60248201527f4552433732313a20746f6b656e20616c7265616479206d696e746564000000006044820152606490fd5b606460405162461bcd60e51b815260206004820152602060248201527f4552433732313a206d696e7420746f20746865207a65726f20616464726573736044820152fd5b6001906000198114612f90570190565b612f9861237f565b0190565b9015612fa55790565b6104dd61275f565b60209160011015612fbc570190565b612f9861275f565b60409160021015612fbc570190565b9190811015612fe4575b60051b0190565b612fec61275f565b612fdd565b6001600160a01b0381168015929183158481613167575b156131135761078a941561302757505050613022816132d5565b613349565b613033575b5050613349565b8061309c6130436130ab93611f28565b600019810192908311613106575b60009486865260076020526040862054908482036130b3575b505084613081876000526007602052604060002090565b556001600160a01b0316600090815260066020526040902090565b90600052602052604060002090565b55388061302c565b86526006602052604086208487526020526130fe6040872054806130ed8461309c8760018060a01b03166000526006602052604060002090565b556000526007602052604060002090565b55388061306a565b61310e61237f565b613051565b60405162461bcd60e51b815260206004820152602660248201527f746f6b656e732063616e6e6f74206265207472616e736665726564206f6e2074604482015265195cdd1b995d60d21b6064820152608490fd5b506001613008565b90613179816132d5565b6001600160a01b0382166131915761078a9150613349565b61078a9161329d565b9091906001600160a01b03808216918215808015613293575b1561311357156131e357506131c7836132d5565b8316806131da57505061078a9150613349565b03613191575050565b81851683036131f3575b506131c7565b61323d6131ff82611f28565b6000198101908111613286575b61309c60009387855260076020526040852054838103613244575b5084613081896000526007602052604060002090565b55386131ed565b87865260066020526040862084875260205261327f6040872054806130ed8461309c8760018060a01b03166000526006602052604060002090565b5538613227565b61328e61237f565b61320c565b50828616156131b3565b6040906132a981611f28565b9260009160018060a01b0316825260066020528282208483526020528083832055815260076020522055565b60085481600052600960205280604060002055600160401b81101561333c575b600181018060085581101561332f575b60086000527ff3f7a9fe364faab93b216da50a3214154f22a0a2b415b23a84c8169e8b636ee30155565b61333761275f565b613305565b6133446119ea565b6132f5565b600880546000199290838101818111613452575b6133f960009384928184526009602052846040852054911015613445575b8684526133e87ff3f7a9fe364faab93b216da50a3214154f22a0a2b415b23a84c8169e8b636ee2958681015490831015613438575b88865280837ff3f7a9fe364faab93b216da50a3214154f22a0a2b415b23a84c8169e8b636ee301556000526009602052604060002090565b556000526009602052604060002090565b5582549384156134245784019380851015613417575b838352015555565b61341f61275f565b61340f565b634e487b7160e01b83526031600452602483fd5b61344061275f565b6133b0565b61344d61275f565b61337b565b61345a61237f565b61335d565b613488916040519283916020948186928383019687378101600083820152038084520182611a44565b51902080600052600b82526040600020546134ad5790600b9160005252604060002055565b60405162461bcd60e51b815260048101839052602360248201527f4461746153746f726167653a20757269207265676973746572656420616c726560448201526261647960e81b6064820152608490fd5b818110613509575050565b600081556001016134fe565b9190601f811161352457505050565b61078a926000526020600020906020601f840160051c83019310613550575b601f0160051c01906134fe565b9091508190613543565b60047f766269423061476c7a4947356c64486476636d7375496e300000000000000000916000908152602090600a82528260408220600d845282604081206135a2815461200e565b80613682575b505050016135b6815461200e565b601f8111613661575b5061013181558152207f646174613a6170706c69636174696f6e2f6a736f6e3b6261736536342c65794a81557f755957316c496a6f67496c526f61584d67644739725a57346761584d67596e5660018201557f79626d566b4c694973496d526c63324e796158423061573975496a6f67496c5260028201557f766132567549476c7a494735766443426a623278735a574e3061574a735a534260038201550155565b61367c908284526005601f8686209201811c820191016134fe565b386135bf565b601f81116001146136985750555b8238806135a8565b8183528683206136b391601f0160051c8101906001016134fe565b81868120915555613690565b9092916001600160401b038111613787575b6136e5816136df845461200e565b84613515565b6000601f821160011461371f5781929394600092613714575b50508160011b916000199060031b1c1916179055565b0135905038806136fe565b601f1982169461373484600052602060002090565b91805b87811061376f575083600195969710613755575b505050811b019055565b0135600019600384901b60f8161c1916905538808061374b565b90926020600181928686013581550194019101613737565b61378f6119ea565b6136d1565b906001600160401b038311613817575b600160401b831161380a575b81548383558084106137ec575b50906000526020806000209060005b8481106137da575050505050565b833583820155928101926001016137cc565b613804908360005284602060002091820191016134fe565b386137bd565b6138126119ea565b6137b0565b61381f6119ea565b6137a4565b906001600160401b0383116138b8575b600160401b83116138ab575b8154838355808410613882575b5061385e9091600052602060002090565b60005b83811061386e5750505050565b600190602084359401938184015501613861565b6000838152846020822092830192015b8281106138a057505061384d565b818155600101613892565b6138b36119ea565b613840565b6138c06119ea565b613834565b903590601e198136030182121561000e57018035906001600160401b03821161000e57602001918160061b3603831361000e57565b90602090613928813561390c8161076e565b84546001600160a01b0319166001600160a01b03909116178455565b013561393381612957565b815461ffff60a01b191660a09190911b61ffff60a01b16179055565b90600160401b83116139d0575b81548383558084106139a7575b5061397a9091600052602060002090565b6000915b83831061398b5750505050565b600160408261399b8394866138fa565b0192019201919061397e565b6000838152846020822092830192015b8281106139c5575050613969565b8181556001016139b7565b6139d86119ea565b61395c565b81604051928392833781016000815203902090565b90613a0782600052600a602052604060002090565b91613a1461390c83612bb3565b6020820135806001850155604083013590816002860155827f0b85051017293732c5b533b177efc66475411a9fdd5fbc8ecb619906658413d6606086013593846003890155613a73613a696080890189612c09565b9060048b016136bf565b60a08701613a8e613a84828a612c09565b9060058c016136bf565b613ae0600860c08a019a613aaf613aa58d8d612c3b565b9060068401613794565b613ac9613abf60e08d018d612c3b565b9060078401613824565b613ad76101008c018c6138c5565b9290910161394f565b613b26613aff613af9613af28b612bb3565b938b612c09565b906139dd565b9660405193849360018060a01b031697846040919493926060820195825260208201520152565b0390a4613b338383612c3b565b939050600092835b858110613b4a57505050505050565b80613b5c613b87926114248686612c3b565b35857f65327253f8d67c2e23cb4dfab28ca7437b04e9098cf4e985073d76df25209ad48880a3612f80565b613b3b565b929192600052602092600c84526040600020916001600160401b038211613c43575b613bc282613bbc855461200e565b85613515565b600094601f8311600114613bf3575093819293946000926137145750508160011b916000199060031b1c1916179055565b90601f19831695613c0985600052602060002090565b9281905b888210613c2b5750508360019596971061375557505050811b019055565b80600184968294958701358155019501920190613c0d565b613c4b6119ea565b613bae565b929192600052602092600d84526040600020916001600160401b038211613d01575b613c8082613bbc855461200e565b600094601f8311600114613cb1575093819293946000926137145750508160011b916000199060031b1c1916179055565b90601f19831695613cc785600052602060002090565b9281905b888210613ce95750508360019596971061375557505050811b019055565b80600184968294958701358155019501920190613ccb565b613d096119ea565b613c72565b919060038211613dd25760008215613da757507fb237134d29775150b1edf87af1dc343262244af7cbb474cfc64cb6e8824af663613d94613d4f8484612f9c565b35925b60006001861115613da15750613d688582612fad565b35945b6000916002821115613d9957613d819250612fc4565b35945b6040519081529081906020820190565b0390a4565b505094613d84565b94613d6b565b613d947fb237134d29775150b1edf87af1dc343262244af7cbb474cfc64cb6e8824af6639192613d52565b60405162461bcd60e51b815260206004820152603860248201527f4461746153746f726167653a2074616773206c656e677468206d75737420626560448201527f206c657373207468616e206f7220657175616c20746f203300000000000000006064820152608490fd5b6020906001600160401b038111613e555760051b0190565b612fec6119ea565b6040519061012082018281106001600160401b03821117613eb7575b604052816000815260006020820152600060408201526101006060916000838201528260808201528260a08201528260c08201528260e08201520152565b613ebf6119ea565b613e79565b90613ece82613e3d565b613edb6040519182611a44565b8281528092613eec601f1991613e3d565b0190602036910137565b90613f0082613e3d565b613f0d6040519182611a44565b8281528092613f1e601f1991613e3d565b019060005b828110613f2f57505050565b806060602080938501015201613f23565b6020918151811015613f55575b60051b010190565b613f5d61275f565b613f4d565b9060405191828154918282526020928383019160005283600020936000905b828210613f975750505061078a92500383611a44565b855484526001958601958895509381019390910190613f81565b908154613fbd81613e3d565b92604093613fcd85519182611a44565b828152809460208092019260005281600020906000935b858510613ff357505050505050565b600184819284518581018181106001600160401b03821117614037575b865261ffff8754858060a01b038116835260a01c1683820152815201930194019391613fe4565b61403f6119ea565b614010565b9061404d613e5d565b50606082600052600a602052604060002091614067611a65565b83546001600160a01b03168152600184015460208201526140e36008600286015495604084019687526003810154868501526140a5600482016120de565b60808501526140b6600582016120de565b60a08501526140c760068201613f62565b60c08501526140d860078201613f62565b60e085015201613fb1565b610100820152936140fe81600052600e602052604060002090565b549351421015614125575b6141206104dd91600052600c602052604060002090565b6120de565b91506104dd61412061414461412085600052600d602052604060002090565b93915050614109565b61415690612776565b90549060031b1c80600052601160205290565b600f548110156141aa575b7f8d1108e10bcb7c27dddfc02ed9d693a074039d026cf4ea4240b40f7d581ac80201549081600052601160205260406000205490565b6141b261275f565b614174565b91906141c5600291846127bb565b90549060031b1c92836000520160205260406000205490565b60005260116020526040600020548015801590614243575b156141fe5790565b60405162461bcd60e51b815260206004820152601e60248201527f456e756d657261626c654d61703a206e6f6e6578697374656e74206b657900006044820152606490fd5b50601060205260406000205415156141f6565b81600052600281016020526040600020549182159182159261427d575b5050156141fe5790565b614297925060019160005201602052604060002054151590565b3880614273565b8060005260106020526040600020541560001461432a5780600f54600160401b81101561431d575b6001810180600f55811015614310575b7f8d1108e10bcb7c27dddfc02ed9d693a074039d026cf4ea4240b40f7d581ac8020155600f54906000526010602052604060002055600190565b61431861275f565b6142d6565b6143256119ea565b6142c6565b50600090565b8060005260146020526040600020541560001461432a5780601354600160401b8110156143af575b60018101806013558110156143a2575b7f66de8ffda797e3de9c05e8fc57b3bf0ec28a930d40b0d285d93c06501cf6a0900155601354906000526014602052604060002055600190565b6143aa61275f565b614368565b6143b76119ea565b614358565b600082815260018201602052604090205461442c5780826143f260019354600160401b81101561441f575b8481018455836127bb565b819291549060031b600019811b9283911b1691191617905580549260005201602052604060002055600190565b6144276119ea565b6143e7565b5050600090565b60018060a01b031660005260126020526002614454604060002092836127bb565b90549060031b1c91826000520160205290565b6001600160a01b0316600090815260126020908152604080832080548585526002820190935292205561449a91906143bc565b50565b6013548110156144dc575b60136000527f66de8ffda797e3de9c05e8fc57b3bf0ec28a930d40b0d285d93c06501cf6a09001546001600160a01b031690565b6144e461275f565b6144a8565b61449a906001600160a01b0316614330565b61449a91600052601560205260406000206143bc565b6001600160a01b0316600090815260166020526040902061449a91906143bc565b60005260176020526002614454604060002092836127bb565b90918061455757505050565b61456b6145648285612f9c565b35836146ae565b6001811161457857505050565b82614590614589836145c396612fad565b35846146ae565b6145e061459d8383612f9c565b356145a88484612fad565b60408051602081019384529135908201529586906060820190565b03956145d7601f1997888101835282611a44565b519020846146ae565b600282116145ee5750505050565b61469c6146a5946146096146028585612fc4565b35866146ae565b6146576146168585612fad565b3561464261464e6146278888612fc4565b60408051602081019586529135908201529182906060820190565b03858101835282611a44565b519020866146ae565b6146776146648585612f9c565b35946146708186612fad565b3594612fc4565b6040805160208101968752908101949094523560608401526080908101835282611a44565b519020906146ae565b38808080612075565b6000828152601760205260408120906146d7838360019160005201602052604060002054151590565b156146e25750505050565b6147059381526017602052604080822054918481526002840160205220556143bc565b503880808061207556fea2646970667358221220bd5ea16e2362bda49299502f4309ce34ac2af759fe55f2c27b1d5803f58a642a64736f6c63430008110033","opcodes":"PUSH1 0x80 CALLVALUE PUSH3 0x311 JUMPI PUSH1 0x1 PUSH1 0x1 PUSH1 0x40 SHL SUB SWAP1 PUSH1 0x40 SWAP1 DUP1 DUP3 ADD DUP4 DUP2 GT DUP3 DUP3 LT OR PUSH3 0x2FB JUMPI DUP3 MSTORE PUSH1 0xA DUP2 MSTORE PUSH1 0x20 SWAP3 PUSH10 0x4B617469626568373231 PUSH1 0xB0 SHL DUP5 DUP4 ADD MSTORE DUP3 MLOAD DUP4 DUP2 ADD DUP2 DUP2 LT DUP4 DUP3 GT OR PUSH3 0x2FB JUMPI DUP5 MSTORE PUSH1 0x7 DUP2 MSTORE PUSH7 0x9682A892848A9 PUSH1 0xCB SHL DUP6 DUP3 ADD MSTORE DUP3 MLOAD SWAP1 DUP3 DUP3 GT PUSH3 0x2FB JUMPI PUSH1 0x0 DUP1 SLOAD SWAP3 PUSH1 0x1 SWAP6 DUP7 DUP6 DUP2 SHR SWAP6 AND DUP1 ISZERO PUSH3 0x2F0 JUMPI JUMPDEST DUP10 DUP7 LT EQ PUSH3 0x2DC JUMPI DUP2 SWAP1 PUSH1 0x1F SWAP6 DUP7 DUP2 GT PUSH3 0x289 JUMPI JUMPDEST POP DUP10 SWAP1 DUP7 DUP4 GT PUSH1 0x1 EQ PUSH3 0x225 JUMPI DUP5 SWAP3 PUSH3 0x219 JUMPI JUMPDEST POP POP PUSH1 0x0 NOT PUSH1 0x3 DUP4 SWAP1 SHL SHR NOT AND SWAP1 DUP7 SHL OR DUP2 SSTORE JUMPDEST DUP2 MLOAD SWAP4 DUP5 GT PUSH3 0x205 JUMPI DUP5 SLOAD DUP6 DUP2 DUP2 SHR SWAP2 AND DUP1 ISZERO PUSH3 0x1FA JUMPI JUMPDEST DUP9 DUP3 LT EQ PUSH3 0x1E6 JUMPI DUP4 DUP2 GT PUSH3 0x19E JUMPI JUMPDEST POP DUP7 SWAP3 DUP5 GT PUSH1 0x1 EQ PUSH3 0x138 JUMPI DUP4 SWAP5 SWAP6 SWAP7 POP SWAP3 PUSH3 0x12C JUMPI JUMPDEST POP POP PUSH1 0x0 NOT PUSH1 0x3 DUP4 SWAP1 SHL SHR NOT AND SWAP1 DUP3 SHL OR SWAP1 SSTORE JUMPDEST MLOAD PUSH2 0x4745 SWAP1 DUP2 PUSH3 0x317 DUP3 CODECOPY RETURN JUMPDEST ADD MLOAD SWAP1 POP CODESIZE DUP1 PUSH3 0x10A JUMP JUMPDEST SWAP2 SWAP1 PUSH1 0x1F NOT DUP5 AND SWAP7 DUP6 DUP5 MSTORE DUP1 DUP5 KECCAK256 SWAP4 SWAP1 JUMPDEST DUP9 DUP3 LT PUSH3 0x186 JUMPI POP POP DUP4 DUP6 SWAP7 SWAP8 LT PUSH3 0x16C JUMPI JUMPDEST POP POP POP DUP2 SHL ADD SWAP1 SSTORE PUSH3 0x11E JUMP JUMPDEST ADD MLOAD PUSH1 0x0 NOT PUSH1 0xF8 DUP5 PUSH1 0x3 SHL AND SHR NOT AND SWAP1 SSTORE CODESIZE DUP1 DUP1 PUSH3 0x15E JUMP JUMPDEST DUP1 DUP8 DUP6 SWAP7 DUP3 SWAP5 SWAP7 DUP7 ADD MLOAD DUP2 SSTORE ADD SWAP6 ADD SWAP4 ADD SWAP1 PUSH3 0x149 JUMP JUMPDEST DUP6 DUP3 MSTORE DUP8 DUP3 KECCAK256 DUP5 DUP1 DUP8 ADD PUSH1 0x5 SHR DUP3 ADD SWAP3 DUP11 DUP9 LT PUSH3 0x1DC JUMPI JUMPDEST ADD PUSH1 0x5 SHR ADD SWAP1 DUP7 SWAP1 JUMPDEST DUP3 DUP2 LT PUSH3 0x1D0 JUMPI POP POP PUSH3 0xF1 JUMP JUMPDEST DUP4 DUP2 SSTORE ADD DUP7 SWAP1 PUSH3 0x1C0 JUMP JUMPDEST SWAP3 POP DUP2 SWAP3 PUSH3 0x1B7 JUMP JUMPDEST PUSH4 0x4E487B71 PUSH1 0xE0 SHL DUP3 MSTORE PUSH1 0x22 PUSH1 0x4 MSTORE PUSH1 0x24 DUP3 REVERT JUMPDEST SWAP1 PUSH1 0x7F AND SWAP1 PUSH3 0xDF JUMP JUMPDEST PUSH4 0x4E487B71 PUSH1 0xE0 SHL DUP2 MSTORE PUSH1 0x41 PUSH1 0x4 MSTORE PUSH1 0x24 SWAP1 REVERT JUMPDEST ADD MLOAD SWAP1 POP CODESIZE DUP1 PUSH3 0xB1 JUMP JUMPDEST DUP5 DUP1 MSTORE DUP11 DUP6 KECCAK256 DUP10 SWAP5 POP SWAP2 SWAP1 PUSH1 0x1F NOT DUP5 AND DUP7 JUMPDEST DUP14 DUP3 DUP3 LT PUSH3 0x272 JUMPI POP POP DUP5 GT PUSH3 0x258 JUMPI JUMPDEST POP POP POP DUP2 SHL ADD DUP2 SSTORE PUSH3 0xC5 JUMP JUMPDEST ADD MLOAD PUSH1 0x0 NOT PUSH1 0xF8 DUP5 PUSH1 0x3 SHL AND SHR NOT AND SWAP1 SSTORE CODESIZE DUP1 DUP1 PUSH3 0x24A JUMP JUMPDEST DUP4 DUP6 ADD MLOAD DUP7 SSTORE DUP13 SWAP8 SWAP1 SWAP6 ADD SWAP5 SWAP4 DUP5 ADD SWAP4 ADD PUSH3 0x237 JUMP JUMPDEST SWAP1 SWAP2 POP DUP4 DUP1 MSTORE DUP10 DUP5 KECCAK256 DUP7 DUP1 DUP6 ADD PUSH1 0x5 SHR DUP3 ADD SWAP3 DUP13 DUP7 LT PUSH3 0x2D2 JUMPI JUMPDEST SWAP2 DUP11 SWAP2 DUP7 SWAP6 SWAP5 SWAP4 ADD PUSH1 0x5 SHR ADD SWAP2 JUMPDEST DUP3 DUP2 LT PUSH3 0x2C3 JUMPI POP POP PUSH3 0x9B JUMP JUMPDEST DUP7 DUP2 SSTORE DUP6 SWAP5 POP DUP11 SWAP2 ADD PUSH3 0x2B3 JUMP JUMPDEST SWAP3 POP DUP2 SWAP3 PUSH3 0x2A5 JUMP JUMPDEST PUSH4 0x4E487B71 PUSH1 0xE0 SHL DUP4 MSTORE PUSH1 0x22 PUSH1 0x4 MSTORE PUSH1 0x24 DUP4 REVERT JUMPDEST SWAP5 PUSH1 0x7F AND SWAP5 PUSH3 0x84 JUMP JUMPDEST PUSH4 0x4E487B71 PUSH1 0xE0 SHL PUSH1 0x0 MSTORE PUSH1 0x41 PUSH1 0x4 MSTORE PUSH1 0x24 PUSH1 0x0 REVERT JUMPDEST PUSH1 0x0 DUP1 REVERT INVALID PUSH1 0x80 PUSH1 0x40 MSTORE PUSH1 0x4 CALLDATASIZE LT ISZERO PUSH2 0x13 JUMPI JUMPDEST PUSH1 0x0 DUP1 REVERT JUMPDEST PUSH1 0x0 CALLDATALOAD PUSH1 0xE0 SHR DUP1 PUSH4 0x17642E4 EQ PUSH2 0x45F JUMPI DUP1 PUSH4 0x1FFC9A7 EQ PUSH2 0x456 JUMPI DUP1 PUSH4 0x6FDDE03 EQ PUSH2 0x44D JUMPI DUP1 PUSH4 0x81812FC EQ PUSH2 0x444 JUMPI DUP1 PUSH4 0x95EA7B3 EQ PUSH2 0x43B JUMPI DUP1 PUSH4 0xAB0DF87 EQ PUSH2 0x432 JUMPI DUP1 PUSH4 0x132E75D6 EQ PUSH2 0x429 JUMPI DUP1 PUSH4 0x1674ED4B EQ PUSH2 0x420 JUMPI DUP1 PUSH4 0x18160DDD EQ PUSH2 0x417 JUMPI DUP1 PUSH4 0x1AE69B61 EQ PUSH2 0x40E JUMPI DUP1 PUSH4 0x23B872DD EQ PUSH2 0x405 JUMPI DUP1 PUSH4 0x26156636 EQ PUSH2 0x3FC JUMPI DUP1 PUSH4 0x29C7785F EQ PUSH2 0x3F3 JUMPI DUP1 PUSH4 0x2B0ECA8C EQ PUSH2 0x3EA JUMPI DUP1 PUSH4 0x2C230901 EQ PUSH2 0x3E1 JUMPI DUP1 PUSH4 0x2E0D0718 EQ PUSH2 0x3D8 JUMPI DUP1 PUSH4 0x2F745C59 EQ PUSH2 0x3CF JUMPI DUP1 PUSH4 0x31D99545 EQ PUSH2 0x3C6 JUMPI DUP1 PUSH4 0x3552D220 EQ PUSH2 0x3BD JUMPI DUP1 PUSH4 0x39D77F25 EQ PUSH2 0x3B4 JUMPI DUP1 PUSH4 0x40B94757 EQ PUSH2 0x3AB JUMPI DUP1 PUSH4 0x42842E0E EQ PUSH2 0x3A2 JUMPI DUP1 PUSH4 0x42966C68 EQ PUSH2 0x399 JUMPI DUP1 PUSH4 0x4667C884 EQ PUSH2 0x390 JUMPI DUP1 PUSH4 0x4832E8F3 EQ PUSH2 0x387 JUMPI DUP1 PUSH4 0x4F6CCCE7 EQ PUSH2 0x37E JUMPI DUP1 PUSH4 0x4FC09275 EQ PUSH2 0x375 JUMPI DUP1 PUSH4 0x60F6A4A3 EQ PUSH2 0x36C JUMPI DUP1 PUSH4 0x6352211E EQ PUSH2 0x363 JUMPI DUP1 PUSH4 0x662EC09E EQ PUSH2 0x35A JUMPI DUP1 PUSH4 0x6D571B6A EQ PUSH2 0x351 JUMPI DUP1 PUSH4 0x70A08231 EQ PUSH2 0x348 JUMPI DUP1 PUSH4 0x7372E98D EQ PUSH2 0x33F JUMPI DUP1 PUSH4 0x78292236 EQ PUSH2 0x336 JUMPI DUP1 PUSH4 0x8282674F EQ PUSH2 0x32D JUMPI DUP1 PUSH4 0x83B81EBD EQ PUSH2 0x324 JUMPI DUP1 PUSH4 0x8F93FB39 EQ PUSH2 0x31B JUMPI DUP1 PUSH4 0x95D89B41 EQ PUSH2 0x312 JUMPI DUP1 PUSH4 0x96CC6A34 EQ PUSH2 0x309 JUMPI DUP1 PUSH4 0xA22CB465 EQ PUSH2 0x300 JUMPI DUP1 PUSH4 0xAF3EA105 EQ PUSH2 0x2F7 JUMPI DUP1 PUSH4 0xB1582201 EQ PUSH2 0x2EE JUMPI DUP1 PUSH4 0xB88D4FDE EQ PUSH2 0x2E5 JUMPI DUP1 PUSH4 0xBFC9B364 EQ PUSH2 0x2DC JUMPI DUP1 PUSH4 0xC03D1D91 EQ PUSH2 0x2D3 JUMPI DUP1 PUSH4 0xC3512876 EQ PUSH2 0x2CA JUMPI DUP1 PUSH4 0xC87B56DD EQ PUSH2 0x2C1 JUMPI DUP1 PUSH4 0xCC33C875 EQ PUSH2 0x2B8 JUMPI DUP1 PUSH4 0xCCA3C766 EQ PUSH2 0x2AF JUMPI DUP1 PUSH4 0xDD468791 EQ PUSH2 0x2A6 JUMPI DUP1 PUSH4 0xE985E9C5 EQ PUSH2 0x29D JUMPI DUP1 PUSH4 0xF353A732 EQ PUSH2 0x294 JUMPI DUP1 PUSH4 0xF6BD7AB8 EQ PUSH2 0x28B JUMPI DUP1 PUSH4 0xF99458A4 EQ PUSH2 0x282 JUMPI PUSH4 0xFE649B7E EQ PUSH2 0x27A JUMPI PUSH1 0x0 DUP1 REVERT JUMPDEST PUSH2 0xE PUSH2 0x1EB8 JUMP JUMPDEST POP PUSH2 0xE PUSH2 0x1E78 JUMP JUMPDEST POP PUSH2 0xE PUSH2 0x1E21 JUMP JUMPDEST POP PUSH2 0xE PUSH2 0x1DFE JUMP JUMPDEST POP PUSH2 0xE PUSH2 0x1D95 JUMP JUMPDEST POP PUSH2 0xE PUSH2 0x1D76 JUMP JUMPDEST POP PUSH2 0xE PUSH2 0x1D13 JUMP JUMPDEST POP PUSH2 0xE PUSH2 0x1CB4 JUMP JUMPDEST POP PUSH2 0xE PUSH2 0x1C5F JUMP JUMPDEST POP PUSH2 0xE PUSH2 0x1C19 JUMP JUMPDEST POP PUSH2 0xE PUSH2 0x1B8B JUMP JUMPDEST POP PUSH2 0xE PUSH2 0x1B4E JUMP JUMPDEST POP PUSH2 0xE PUSH2 0x1AE6 JUMP JUMPDEST POP PUSH2 0xE PUSH2 0x19AC JUMP JUMPDEST POP PUSH2 0xE PUSH2 0x194D JUMP JUMPDEST POP PUSH2 0xE PUSH2 0x185C JUMP JUMPDEST POP PUSH2 0xE PUSH2 0x17D3 JUMP JUMPDEST POP PUSH2 0xE PUSH2 0x172D JUMP JUMPDEST POP PUSH2 0xE PUSH2 0x16CA JUMP JUMPDEST POP PUSH2 0xE PUSH2 0x169D JUMP JUMPDEST POP PUSH2 0xE PUSH2 0x165C JUMP JUMPDEST POP PUSH2 0xE PUSH2 0x162F JUMP JUMPDEST POP PUSH2 0xE PUSH2 0x1612 JUMP JUMPDEST POP PUSH2 0xE PUSH2 0x15EA JUMP JUMPDEST POP PUSH2 0xE PUSH2 0x15CB JUMP JUMPDEST POP PUSH2 0xE PUSH2 0x1590 JUMP JUMPDEST POP PUSH2 0xE PUSH2 0x1571 JUMP JUMPDEST POP PUSH2 0xE PUSH2 0x154E JUMP JUMPDEST POP PUSH2 0xE PUSH2 0x1522 JUMP JUMPDEST POP PUSH2 0xE PUSH2 0x1476 JUMP JUMPDEST POP PUSH2 0xE PUSH2 0x1380 JUMP JUMPDEST POP PUSH2 0xE PUSH2 0x12BB JUMP JUMPDEST POP PUSH2 0xE PUSH2 0x11F9 JUMP JUMPDEST POP PUSH2 0xE PUSH2 0x11D0 JUMP JUMPDEST POP PUSH2 0xE PUSH2 0x1148 JUMP JUMPDEST POP PUSH2 0xE PUSH2 0x102A JUMP JUMPDEST POP PUSH2 0xE PUSH2 0x1008 JUMP JUMPDEST POP PUSH2 0xE PUSH2 0xF92 JUMP JUMPDEST POP PUSH2 0xE PUSH2 0xEDA JUMP JUMPDEST POP PUSH2 0xE PUSH2 0xEAF JUMP JUMPDEST POP PUSH2 0xE PUSH2 0xE2F JUMP JUMPDEST POP PUSH2 0xE PUSH2 0xD53 JUMP JUMPDEST POP PUSH2 0xE PUSH2 0xA64 JUMP JUMPDEST POP PUSH2 0xE PUSH2 0xA3D JUMP JUMPDEST POP PUSH2 0xE PUSH2 0xA13 JUMP JUMPDEST POP PUSH2 0xE PUSH2 0x9C8 JUMP JUMPDEST POP PUSH2 0xE PUSH2 0x9A9 JUMP JUMPDEST POP PUSH2 0xE PUSH2 0x917 JUMP JUMPDEST POP PUSH2 0xE PUSH2 0x8BF JUMP JUMPDEST POP PUSH2 0xE PUSH2 0x867 JUMP JUMPDEST POP PUSH2 0xE PUSH2 0x78C JUMP JUMPDEST POP PUSH2 0xE PUSH2 0x73D JUMP JUMPDEST POP PUSH2 0xE PUSH2 0x65D JUMP JUMPDEST POP PUSH2 0xE PUSH2 0x583 JUMP JUMPDEST POP PUSH2 0xE PUSH2 0x4E0 JUMP JUMPDEST SWAP2 DUP2 PUSH1 0x1F DUP5 ADD SLT ISZERO PUSH2 0xE JUMPI DUP3 CALLDATALOAD SWAP2 PUSH1 0x1 PUSH1 0x1 PUSH1 0x40 SHL SUB DUP4 GT PUSH2 0xE JUMPI PUSH1 0x20 DUP1 DUP6 ADD SWAP5 DUP5 PUSH1 0x5 SHL ADD ADD GT PUSH2 0xE JUMPI JUMP JUMPDEST SWAP1 DUP2 MLOAD DUP1 DUP3 MSTORE PUSH1 0x20 DUP1 DUP1 SWAP4 ADD SWAP4 ADD SWAP2 PUSH1 0x0 JUMPDEST DUP3 DUP2 LT PUSH2 0x4B8 JUMPI POP POP POP POP SWAP1 JUMP JUMPDEST DUP4 MLOAD DUP6 MSTORE SWAP4 DUP2 ADD SWAP4 SWAP3 DUP2 ADD SWAP3 PUSH1 0x1 ADD PUSH2 0x4AA JUMP JUMPDEST SWAP1 PUSH1 0x20 PUSH2 0x4DD SWAP3 DUP2 DUP2 MSTORE ADD SWAP1 PUSH2 0x498 JUMP JUMPDEST SWAP1 JUMP JUMPDEST POP CALLVALUE PUSH2 0xE JUMPI PUSH1 0x40 CALLDATASIZE PUSH1 0x3 NOT ADD SLT PUSH2 0xE JUMPI PUSH1 0x4 CALLDATALOAD PUSH1 0x24 CALLDATALOAD PUSH1 0x1 PUSH1 0x1 PUSH1 0x40 SHL SUB DUP2 GT PUSH2 0xE JUMPI PUSH2 0x514 SWAP1 CALLDATASIZE SWAP1 PUSH1 0x4 ADD PUSH2 0x468 JUMP JUMPDEST SWAP2 PUSH2 0x51E DUP4 PUSH2 0x3EC4 JUMP JUMPDEST SWAP3 PUSH1 0x0 JUMPDEST DUP2 DUP2 LT PUSH2 0x543 JUMPI PUSH1 0x40 MLOAD PUSH1 0x20 DUP1 DUP3 MSTORE DUP2 SWAP1 PUSH2 0x53F SWAP1 DUP3 ADD DUP9 PUSH2 0x498 JUMP JUMPDEST SUB SWAP1 RETURN JUMPDEST DUP1 PUSH2 0x55C PUSH2 0x555 PUSH2 0x56C SWAP4 DUP6 DUP9 PUSH2 0x2FD3 JUMP JUMPDEST CALLDATALOAD DUP6 PUSH2 0x4532 JUMP JUMPDEST PUSH2 0x566 DUP3 DUP9 PUSH2 0x3F40 JUMP JUMPDEST MSTORE PUSH2 0x2F80 JUMP JUMPDEST PUSH2 0x522 JUMP JUMPDEST PUSH1 0x1 PUSH1 0x1 PUSH1 0xE0 SHL SUB NOT DUP2 AND SUB PUSH2 0xE JUMPI JUMP JUMPDEST POP CALLVALUE PUSH2 0xE JUMPI PUSH1 0x20 CALLDATASIZE PUSH1 0x3 NOT ADD SLT PUSH2 0xE JUMPI PUSH1 0x20 PUSH1 0x4 CALLDATALOAD PUSH2 0x5A3 DUP2 PUSH2 0x571 JUMP JUMPDEST PUSH4 0xFFFFFFFF PUSH1 0xE0 SHL AND PUSH4 0x780E9D63 PUSH1 0xE0 SHL DUP2 EQ SWAP1 DUP2 ISZERO PUSH2 0x5C9 JUMPI JUMPDEST POP PUSH1 0x40 MLOAD SWAP1 ISZERO ISZERO DUP2 MSTORE RETURN JUMPDEST PUSH4 0x80AC58CD PUSH1 0xE0 SHL DUP2 EQ SWAP2 POP DUP2 ISZERO PUSH2 0x5FB JUMPI JUMPDEST DUP2 ISZERO PUSH2 0x5EA JUMPI JUMPDEST POP CODESIZE PUSH2 0x5BE JUMP JUMPDEST PUSH4 0x1FFC9A7 PUSH1 0xE0 SHL EQ SWAP1 POP CODESIZE PUSH2 0x5E3 JUMP JUMPDEST PUSH4 0x5B5E139F PUSH1 0xE0 SHL DUP2 EQ SWAP2 POP PUSH2 0x5DC JUMP JUMPDEST SWAP2 SWAP1 DUP3 MLOAD SWAP3 DUP4 DUP3 MSTORE PUSH1 0x0 JUMPDEST DUP5 DUP2 LT PUSH2 0x638 JUMPI POP POP DUP3 PUSH1 0x0 PUSH1 0x20 DUP1 SWAP5 SWAP6 DUP5 ADD ADD MSTORE PUSH1 0x1F DUP1 NOT SWAP2 ADD AND ADD ADD SWAP1 JUMP JUMPDEST PUSH1 0x20 DUP2 DUP4 ADD DUP2 ADD MLOAD DUP5 DUP4 ADD DUP3 ADD MSTORE ADD PUSH2 0x617 JUMP JUMPDEST SWAP1 PUSH1 0x20 PUSH2 0x4DD SWAP3 DUP2 DUP2 MSTORE ADD SWAP1 PUSH2 0x60C JUMP JUMPDEST POP CALLVALUE PUSH2 0xE JUMPI PUSH1 0x0 DUP1 PUSH1 0x3 NOT CALLDATASIZE ADD SLT PUSH2 0x73A JUMPI PUSH1 0x40 MLOAD SWAP1 DUP1 DUP1 SLOAD PUSH2 0x680 DUP2 PUSH2 0x200E JUMP JUMPDEST DUP1 DUP6 MSTORE SWAP2 PUSH1 0x1 SWAP2 DUP1 DUP4 AND SWAP1 DUP2 ISZERO PUSH2 0x710 JUMPI POP PUSH1 0x1 EQ PUSH2 0x6B6 JUMPI JUMPDEST PUSH2 0x53F DUP6 PUSH2 0x6AA DUP2 DUP8 SUB DUP3 PUSH2 0x1A44 JUMP JUMPDEST PUSH1 0x40 MLOAD SWAP2 DUP3 SWAP2 DUP3 PUSH2 0x64C JUMP JUMPDEST DUP1 DUP1 SWAP5 POP MSTORE PUSH32 0x290DECD9548B62A8D60345A988386FC84BA6BC95484008F6362F93160EF3E563 JUMPDEST DUP3 DUP5 LT PUSH2 0x6F8 JUMPI POP POP POP DUP2 ADD PUSH1 0x20 ADD PUSH2 0x6AA DUP3 PUSH2 0x53F PUSH2 0x69A JUMP JUMPDEST DUP1 SLOAD PUSH1 0x20 DUP6 DUP8 ADD DUP2 ADD SWAP2 SWAP1 SWAP2 MSTORE SWAP1 SWAP4 ADD SWAP3 DUP2 ADD PUSH2 0x6DD JUMP JUMPDEST DUP7 SWAP6 POP PUSH2 0x53F SWAP7 SWAP4 POP PUSH1 0x20 SWAP3 POP PUSH2 0x6AA SWAP5 SWAP2 POP PUSH1 0xFF NOT AND DUP3 DUP5 ADD MSTORE ISZERO ISZERO PUSH1 0x5 SHL DUP3 ADD ADD SWAP3 SWAP4 PUSH2 0x69A JUMP JUMPDEST DUP1 REVERT JUMPDEST POP CALLVALUE PUSH2 0xE JUMPI PUSH1 0x20 CALLDATASIZE PUSH1 0x3 NOT ADD SLT PUSH2 0xE JUMPI PUSH1 0x20 PUSH2 0x75C PUSH1 0x4 CALLDATALOAD PUSH2 0x216B JUMP JUMPDEST PUSH1 0x40 MLOAD PUSH1 0x1 PUSH1 0x1 PUSH1 0xA0 SHL SUB SWAP1 SWAP2 AND DUP2 MSTORE RETURN JUMPDEST PUSH1 0x1 PUSH1 0x1 PUSH1 0xA0 SHL SUB DUP2 AND SUB PUSH2 0xE JUMPI JUMP JUMPDEST CALLDATALOAD SWAP1 PUSH2 0x78A DUP3 PUSH2 0x76E JUMP JUMPDEST JUMP JUMPDEST POP CALLVALUE PUSH2 0xE JUMPI PUSH1 0x40 CALLDATASIZE PUSH1 0x3 NOT ADD SLT PUSH2 0xE JUMPI PUSH1 0x4 CALLDATALOAD PUSH2 0x7AA DUP2 PUSH2 0x76E JUMP JUMPDEST PUSH1 0x24 CALLDATALOAD PUSH2 0x7B6 DUP2 PUSH2 0x1FEB JUMP JUMPDEST SWAP2 PUSH1 0x1 PUSH1 0x1 PUSH1 0xA0 SHL SUB DUP1 DUP5 AND SWAP1 DUP3 AND DUP2 EQ PUSH2 0x818 JUMPI PUSH2 0x7E8 SWAP4 PUSH2 0x7E3 SWAP2 CALLER EQ SWAP1 DUP2 ISZERO PUSH2 0x7EA JUMPI JUMPDEST POP PUSH2 0x20F9 JUMP JUMPDEST PUSH2 0x2550 JUMP JUMPDEST STOP JUMPDEST PUSH1 0x1 PUSH1 0x1 PUSH1 0xA0 SHL SUB AND PUSH1 0x0 SWAP1 DUP2 MSTORE PUSH1 0x5 PUSH1 0x20 SWAP1 DUP2 MSTORE PUSH1 0x40 DUP1 DUP4 KECCAK256 CALLER DUP5 MSTORE SWAP1 SWAP2 MSTORE SWAP1 KECCAK256 SLOAD PUSH1 0xFF AND SWAP1 POP CODESIZE PUSH2 0x7DD JUMP JUMPDEST PUSH1 0x40 MLOAD PUSH3 0x461BCD PUSH1 0xE5 SHL DUP2 MSTORE PUSH1 0x20 PUSH1 0x4 DUP3 ADD MSTORE PUSH1 0x21 PUSH1 0x24 DUP3 ADD MSTORE PUSH32 0x4552433732313A20617070726F76616C20746F2063757272656E74206F776E65 PUSH1 0x44 DUP3 ADD MSTORE PUSH1 0x39 PUSH1 0xF9 SHL PUSH1 0x64 DUP3 ADD MSTORE PUSH1 0x84 SWAP1 REVERT JUMPDEST POP CALLVALUE PUSH2 0xE JUMPI PUSH1 0x0 CALLDATASIZE PUSH1 0x3 NOT ADD SLT PUSH2 0xE JUMPI PUSH1 0x20 PUSH1 0x40 MLOAD TIMESTAMP DUP2 MSTORE RETURN JUMPDEST SWAP1 PUSH1 0x40 PUSH1 0x3 NOT DUP4 ADD SLT PUSH2 0xE JUMPI PUSH1 0x4 CALLDATALOAD PUSH2 0x89C DUP2 PUSH2 0x76E JUMP JUMPDEST SWAP2 PUSH1 0x24 CALLDATALOAD SWAP1 PUSH1 0x1 PUSH1 0x1 PUSH1 0x40 SHL SUB DUP3 GT PUSH2 0xE JUMPI PUSH2 0x8BB SWAP2 PUSH1 0x4 ADD PUSH2 0x468 JUMP JUMPDEST SWAP1 SWAP2 JUMP JUMPDEST POP CALLVALUE PUSH2 0xE JUMPI PUSH2 0x8CE CALLDATASIZE PUSH2 0x883 JUMP JUMPDEST SWAP2 PUSH2 0x8D8 DUP4 PUSH2 0x3EC4 JUMP JUMPDEST SWAP3 PUSH1 0x0 JUMPDEST DUP2 DUP2 LT PUSH2 0x8F9 JUMPI PUSH1 0x40 MLOAD PUSH1 0x20 DUP1 DUP3 MSTORE DUP2 SWAP1 PUSH2 0x53F SWAP1 DUP3 ADD DUP9 PUSH2 0x498 JUMP JUMPDEST DUP1 PUSH2 0x55C PUSH2 0x90B PUSH2 0x912 SWAP4 DUP6 DUP9 PUSH2 0x2FD3 JUMP JUMPDEST CALLDATALOAD DUP6 PUSH2 0x4433 JUMP JUMPDEST PUSH2 0x8DC JUMP JUMPDEST POP CALLVALUE PUSH2 0xE JUMPI PUSH1 0x40 DUP1 PUSH1 0x3 NOT CALLDATASIZE ADD SLT PUSH2 0xE JUMPI PUSH1 0x4 CALLDATALOAD PUSH1 0x24 CALLDATALOAD PUSH1 0x1 PUSH1 0x1 PUSH1 0x40 SHL SUB DUP2 GT PUSH2 0xE JUMPI PUSH2 0x94C SWAP1 CALLDATASIZE SWAP1 PUSH1 0x4 ADD PUSH2 0x468 JUMP JUMPDEST SWAP2 PUSH2 0x956 DUP4 PUSH2 0x3EC4 JUMP JUMPDEST SWAP3 PUSH1 0x0 SWAP1 DUP2 JUMPDEST DUP2 DUP2 LT PUSH2 0x970 JUMPI DUP7 MLOAD DUP1 PUSH2 0x53F DUP9 DUP3 PUSH2 0x4CC JUMP JUMPDEST DUP1 PUSH2 0x993 PUSH2 0x982 PUSH2 0x9A4 SWAP4 DUP6 DUP10 PUSH2 0x2FD3 JUMP JUMPDEST CALLDATALOAD DUP7 DUP7 MSTORE PUSH1 0x15 PUSH1 0x20 MSTORE DUP10 DUP7 KECCAK256 PUSH2 0x27BB JUMP JUMPDEST SWAP1 SLOAD SWAP1 PUSH1 0x3 SHL SHR PUSH2 0x566 DUP3 DUP10 PUSH2 0x3F40 JUMP JUMPDEST PUSH2 0x95C JUMP JUMPDEST POP CALLVALUE PUSH2 0xE JUMPI PUSH1 0x0 CALLDATASIZE PUSH1 0x3 NOT ADD SLT PUSH2 0xE JUMPI PUSH1 0x20 PUSH1 0x8 SLOAD PUSH1 0x40 MLOAD SWAP1 DUP2 MSTORE RETURN JUMPDEST POP CALLVALUE PUSH2 0xE JUMPI PUSH1 0x0 CALLDATASIZE PUSH1 0x3 NOT ADD SLT PUSH2 0xE JUMPI PUSH1 0x20 PUSH1 0x13 SLOAD PUSH1 0x40 MLOAD SWAP1 DUP2 MSTORE RETURN JUMPDEST PUSH1 0x60 SWAP1 PUSH1 0x3 NOT ADD SLT PUSH2 0xE JUMPI PUSH1 0x4 CALLDATALOAD PUSH2 0x9FF DUP2 PUSH2 0x76E JUMP JUMPDEST SWAP1 PUSH1 0x24 CALLDATALOAD PUSH2 0xA0C DUP2 PUSH2 0x76E JUMP JUMPDEST SWAP1 PUSH1 0x44 CALLDATALOAD SWAP1 JUMP JUMPDEST POP CALLVALUE PUSH2 0xE JUMPI PUSH2 0x7E8 PUSH2 0xA25 CALLDATASIZE PUSH2 0x9E7 JUMP JUMPDEST SWAP2 PUSH2 0xA38 PUSH2 0xA33 DUP5 CALLER PUSH2 0x22AF JUMP JUMPDEST PUSH2 0x21A9 JUMP JUMPDEST PUSH2 0x23BB JUMP JUMPDEST POP CALLVALUE PUSH2 0xE JUMPI PUSH1 0x20 CALLDATASIZE PUSH1 0x3 NOT ADD SLT PUSH2 0xE JUMPI PUSH1 0x20 PUSH2 0xA5C PUSH1 0x4 CALLDATALOAD PUSH2 0x414D JUMP JUMPDEST PUSH1 0x40 MLOAD SWAP1 DUP2 MSTORE RETURN JUMPDEST POP CALLVALUE PUSH2 0xE JUMPI PUSH1 0x40 CALLDATASIZE PUSH1 0x3 NOT ADD SLT PUSH2 0xE JUMPI PUSH1 0x0 DUP1 PUSH1 0x4 CALLDATALOAD DUP3 MSTORE PUSH1 0x17 PUSH1 0x20 MSTORE PUSH2 0x53F PUSH1 0x40 DUP4 KECCAK256 SWAP3 PUSH2 0xA97 PUSH1 0x24 CALLDATALOAD DUP6 PUSH2 0x4256 JUMP JUMPDEST SWAP3 DUP5 SLOAD SWAP5 DUP5 DUP7 SUB SWAP6 DUP7 GT PUSH2 0xB4A JUMPI JUMPDEST PUSH1 0x0 NOT DUP7 DUP2 ADD SWAP7 DUP8 GT PUSH2 0xB3D JUMPI JUMPDEST DUP6 PUSH2 0xB02 JUMPI JUMPDEST POP DUP6 PUSH2 0xAE5 JUMPI JUMPDEST POP PUSH1 0x40 MLOAD SWAP5 DUP6 SWAP5 DUP6 SWAP1 SWAP5 SWAP4 SWAP3 PUSH1 0x60 SWAP3 PUSH1 0x80 DUP4 ADD SWAP7 DUP4 MSTORE PUSH1 0x20 DUP4 ADD MSTORE PUSH1 0x40 DUP3 ADD MSTORE ADD MSTORE JUMP JUMPDEST PUSH2 0xAFA SWAP2 SWAP3 POP PUSH2 0xAF4 DUP6 PUSH2 0x23AD JUMP JUMPDEST SWAP1 PUSH2 0x41B7 JUMP JUMPDEST POP SWAP1 CODESIZE PUSH2 0xAC1 JUMP JUMPDEST PUSH2 0xB18 SWAP2 SWAP3 POP DUP6 ADD DUP6 DUP2 GT PUSH2 0xB30 JUMPI JUMPDEST DUP3 PUSH2 0x27BB JUMP JUMPDEST SWAP1 SLOAD SWAP1 PUSH1 0x3 SHL SHR DUP1 DUP4 MSTORE PUSH1 0x2 DUP3 ADD PUSH1 0x20 MSTORE SWAP1 CODESIZE PUSH2 0xABA JUMP JUMPDEST PUSH2 0xB38 PUSH2 0x237F JUMP JUMPDEST PUSH2 0xB12 JUMP JUMPDEST PUSH2 0xB45 PUSH2 0x237F JUMP JUMPDEST PUSH2 0xAB4 JUMP JUMPDEST PUSH2 0xB52 PUSH2 0x237F JUMP JUMPDEST PUSH2 0xAA6 JUMP JUMPDEST PUSH1 0x20 PUSH1 0x3 NOT DUP3 ADD SLT PUSH2 0xE JUMPI PUSH1 0x4 CALLDATALOAD SWAP1 PUSH1 0x1 PUSH1 0x1 PUSH1 0x40 SHL SUB DUP3 GT PUSH2 0xE JUMPI PUSH2 0x8BB SWAP2 PUSH1 0x4 ADD PUSH2 0x468 JUMP JUMPDEST SWAP1 DUP2 MLOAD DUP1 DUP3 MSTORE PUSH1 0x20 DUP1 DUP1 SWAP4 ADD SWAP4 ADD SWAP2 PUSH1 0x0 JUMPDEST DUP3 DUP2 LT PUSH2 0xBA1 JUMPI POP POP POP POP SWAP1 JUMP JUMPDEST DUP4 MLOAD DUP1 MLOAD PUSH1 0x1 PUSH1 0x1 PUSH1 0xA0 SHL SUB AND DUP7 MSTORE DUP3 ADD MLOAD PUSH2 0xFFFF AND DUP6 DUP4 ADD MSTORE PUSH1 0x40 SWAP1 SWAP5 ADD SWAP4 SWAP3 DUP2 ADD SWAP3 PUSH1 0x1 ADD PUSH2 0xB93 JUMP JUMPDEST DUP1 MLOAD PUSH1 0x1 PUSH1 0x1 PUSH1 0xA0 SHL SUB AND DUP3 MSTORE PUSH2 0x4DD SWAP2 SWAP1 PUSH1 0x20 DUP2 ADD MLOAD PUSH1 0x20 DUP4 ADD MSTORE PUSH1 0x40 DUP2 ADD MLOAD PUSH1 0x40 DUP4 ADD MSTORE PUSH1 0x60 DUP2 ADD MLOAD PUSH1 0x60 DUP4 ADD MSTORE PUSH2 0xC55 PUSH2 0xC43 PUSH2 0xC31 PUSH2 0xC1F PUSH1 0x80 DUP6 ADD MLOAD PUSH2 0x120 DUP1 PUSH1 0x80 DUP10 ADD MSTORE DUP8 ADD SWAP1 PUSH2 0x60C JUMP JUMPDEST PUSH1 0xA0 DUP6 ADD MLOAD DUP7 DUP3 SUB PUSH1 0xA0 DUP9 ADD MSTORE PUSH2 0x60C JUMP JUMPDEST PUSH1 0xC0 DUP5 ADD MLOAD DUP6 DUP3 SUB PUSH1 0xC0 DUP8 ADD MSTORE PUSH2 0x498 JUMP JUMPDEST PUSH1 0xE0 DUP4 ADD MLOAD DUP5 DUP3 SUB PUSH1 0xE0 DUP7 ADD MSTORE PUSH2 0x498 JUMP JUMPDEST SWAP2 PUSH2 0x100 DUP1 SWAP3 ADD MLOAD SWAP2 DUP2 DUP5 SUB SWAP2 ADD MSTORE PUSH2 0xB81 JUMP JUMPDEST SWAP1 DUP2 MLOAD DUP1 DUP3 MSTORE PUSH1 0x20 DUP1 SWAP3 ADD SWAP2 DUP3 DUP2 DUP4 PUSH1 0x5 SHL DUP6 ADD SWAP6 ADD SWAP4 PUSH1 0x0 SWAP2 JUMPDEST DUP5 DUP4 LT PUSH2 0xC94 JUMPI POP POP POP POP POP POP SWAP1 JUMP JUMPDEST SWAP1 SWAP2 SWAP3 SWAP4 SWAP5 SWAP6 DUP5 DUP1 PUSH2 0xCAE DUP4 DUP6 PUSH1 0x1 SWAP6 SUB DUP8 MSTORE DUP11 MLOAD PUSH2 0x60C JUMP JUMPDEST SWAP9 ADD SWAP4 ADD SWAP4 ADD SWAP2 SWAP5 SWAP4 SWAP3 SWAP1 PUSH2 0xC84 JUMP JUMPDEST SWAP3 SWAP5 SWAP4 SWAP2 PUSH1 0x80 DUP5 ADD SWAP2 PUSH1 0x80 DUP6 MSTORE DUP1 MLOAD DUP1 SWAP4 MSTORE PUSH1 0xA0 DUP6 ADD PUSH1 0xA0 DUP5 PUSH1 0x5 SHL DUP8 ADD ADD SWAP4 PUSH1 0x20 DUP1 SWAP4 ADD SWAP2 PUSH1 0x0 SWAP1 JUMPDEST DUP3 DUP3 LT PUSH2 0xD29 JUMPI POP POP POP POP DUP3 PUSH2 0x4DD SWAP7 SWAP8 SWAP3 PUSH2 0xD0D SWAP3 DUP8 PUSH2 0xD1B SWAP7 SUB SWAP1 DUP9 ADD MSTORE PUSH2 0x498 JUMP JUMPDEST SWAP1 DUP5 DUP3 SUB PUSH1 0x40 DUP7 ADD MSTORE PUSH2 0xC69 JUMP JUMPDEST SWAP2 PUSH1 0x60 DUP2 DUP5 SUB SWAP2 ADD MSTORE PUSH2 0xC69 JUMP JUMPDEST SWAP1 SWAP2 SWAP3 SWAP6 DUP5 DUP1 PUSH2 0xD45 PUSH1 0x1 SWAP4 PUSH1 0x9F NOT DUP14 DUP3 SUB ADD DUP7 MSTORE DUP11 MLOAD PUSH2 0xBCD JUMP JUMPDEST SWAP9 ADD SWAP3 ADD SWAP3 ADD SWAP1 SWAP3 SWAP2 PUSH2 0xCE8 JUMP JUMPDEST POP CALLVALUE PUSH2 0xE JUMPI PUSH2 0xD62 CALLDATASIZE PUSH2 0xB57 JUMP JUMPDEST PUSH2 0xD6B DUP2 PUSH2 0x3E3D JUMP JUMPDEST PUSH2 0xD78 PUSH1 0x40 MLOAD SWAP2 DUP3 PUSH2 0x1A44 JUMP JUMPDEST DUP2 DUP2 MSTORE PUSH1 0x1F NOT PUSH2 0xD87 DUP4 PUSH2 0x3E3D JUMP JUMPDEST ADD PUSH1 0x0 JUMPDEST DUP2 DUP2 LT PUSH2 0xE18 JUMPI POP POP PUSH2 0xD9D DUP3 PUSH2 0x3EC4 JUMP JUMPDEST SWAP2 PUSH2 0xDA7 DUP2 PUSH2 0x3EF6 JUMP JUMPDEST SWAP4 PUSH2 0xDB1 DUP3 PUSH2 0x3EF6 JUMP JUMPDEST SWAP2 PUSH1 0x0 JUMPDEST DUP2 DUP2 LT PUSH2 0xDD0 JUMPI POP POP POP PUSH2 0x53F SWAP1 DUP5 PUSH1 0x40 MLOAD SWAP5 DUP6 SWAP5 DUP6 PUSH2 0xCBE JUMP JUMPDEST DUP1 PUSH2 0xDE8 PUSH2 0xDE2 PUSH2 0xE13 SWAP4 DUP6 DUP8 PUSH2 0x2FD3 JUMP JUMPDEST CALLDATALOAD PUSH2 0x4044 JUMP JUMPDEST PUSH2 0xDF2 DUP6 DUP11 PUSH2 0x3F40 JUMP JUMPDEST MSTORE PUSH2 0xDFD DUP5 DUP13 PUSH2 0x3F40 JUMP JUMPDEST MSTORE PUSH2 0xE08 DUP4 DUP11 PUSH2 0x3F40 JUMP JUMPDEST MSTORE PUSH2 0x566 DUP3 DUP9 PUSH2 0x3F40 JUMP JUMPDEST PUSH2 0xDB5 JUMP JUMPDEST PUSH1 0x20 SWAP1 PUSH2 0xE23 PUSH2 0x3E5D JUMP JUMPDEST DUP3 DUP3 DUP7 ADD ADD MSTORE ADD PUSH2 0xD8B JUMP JUMPDEST POP CALLVALUE PUSH2 0xE JUMPI PUSH2 0xE3E CALLDATASIZE PUSH2 0xB57 JUMP JUMPDEST SWAP1 PUSH2 0xE48 DUP3 PUSH2 0x3EC4 JUMP JUMPDEST SWAP2 PUSH1 0x0 JUMPDEST DUP2 DUP2 LT PUSH2 0xE69 JUMPI PUSH1 0x40 MLOAD PUSH1 0x20 DUP1 DUP3 MSTORE DUP2 SWAP1 PUSH2 0x53F SWAP1 DUP3 ADD DUP8 PUSH2 0x498 JUMP JUMPDEST DUP1 PUSH2 0xEA0 PUSH2 0xE7B PUSH2 0xEAA SWAP4 DUP6 DUP8 PUSH2 0x2FD3 JUMP JUMPDEST CALLDATALOAD PUSH2 0xE85 DUP2 PUSH2 0x76E JUMP JUMPDEST PUSH1 0x1 PUSH1 0x1 PUSH1 0xA0 SHL SUB AND PUSH1 0x0 SWAP1 DUP2 MSTORE PUSH1 0x16 PUSH1 0x20 MSTORE PUSH1 0x40 SWAP1 KECCAK256 SLOAD SWAP1 JUMP JUMPDEST PUSH2 0x566 DUP3 DUP8 PUSH2 0x3F40 JUMP JUMPDEST PUSH2 0xE4C JUMP JUMPDEST POP CALLVALUE PUSH2 0xE JUMPI PUSH1 0x20 CALLDATASIZE PUSH1 0x3 NOT ADD SLT PUSH2 0xE JUMPI PUSH1 0x20 PUSH2 0xA5C PUSH1 0x4 CALLDATALOAD PUSH1 0x0 MSTORE PUSH1 0x15 PUSH1 0x20 MSTORE PUSH1 0x40 PUSH1 0x0 KECCAK256 SLOAD SWAP1 JUMP JUMPDEST POP CALLVALUE PUSH2 0xE JUMPI PUSH1 0x40 CALLDATASIZE PUSH1 0x3 NOT ADD SLT PUSH2 0xE JUMPI PUSH1 0x4 CALLDATALOAD PUSH2 0xEF8 DUP2 PUSH2 0x76E JUMP JUMPDEST PUSH1 0x24 CALLDATALOAD SWAP1 PUSH2 0xF05 DUP2 PUSH2 0x1F28 JUMP JUMPDEST DUP3 LT ISZERO PUSH2 0xF39 JUMPI PUSH1 0x1 PUSH1 0x1 PUSH1 0xA0 SHL SUB AND PUSH1 0x0 SWAP1 DUP2 MSTORE PUSH1 0x6 PUSH1 0x20 SWAP1 DUP2 MSTORE PUSH1 0x40 DUP1 DUP4 KECCAK256 SWAP4 DUP4 MSTORE SWAP3 DUP2 MSTORE SWAP1 DUP3 SWAP1 KECCAK256 SLOAD SWAP2 MLOAD SWAP2 DUP3 MSTORE SWAP1 RETURN JUMPDEST PUSH1 0x40 MLOAD PUSH3 0x461BCD PUSH1 0xE5 SHL DUP2 MSTORE PUSH1 0x20 PUSH1 0x4 DUP3 ADD MSTORE PUSH1 0x2B PUSH1 0x24 DUP3 ADD MSTORE PUSH32 0x455243373231456E756D657261626C653A206F776E657220696E646578206F75 PUSH1 0x44 DUP3 ADD MSTORE PUSH11 0x74206F6620626F756E6473 PUSH1 0xA8 SHL PUSH1 0x64 DUP3 ADD MSTORE PUSH1 0x84 SWAP1 REVERT JUMPDEST POP CALLVALUE PUSH2 0xE JUMPI PUSH2 0xFA1 CALLDATASIZE PUSH2 0xB57 JUMP JUMPDEST SWAP1 PUSH2 0xFAB DUP3 PUSH2 0x3EC4 JUMP JUMPDEST SWAP2 PUSH1 0x0 JUMPDEST DUP2 DUP2 LT PUSH2 0xFCC JUMPI PUSH1 0x40 MLOAD PUSH1 0x20 DUP1 DUP3 MSTORE DUP2 SWAP1 PUSH2 0x53F SWAP1 DUP3 ADD DUP8 PUSH2 0x498 JUMP JUMPDEST DUP1 PUSH2 0xEA0 PUSH2 0xFDE PUSH2 0x1003 SWAP4 DUP6 DUP8 PUSH2 0x2FD3 JUMP JUMPDEST CALLDATALOAD PUSH2 0xFE8 DUP2 PUSH2 0x76E JUMP JUMPDEST PUSH1 0x1 PUSH1 0x1 PUSH1 0xA0 SHL SUB AND PUSH1 0x0 SWAP1 DUP2 MSTORE PUSH1 0x12 PUSH1 0x20 MSTORE PUSH1 0x40 SWAP1 KECCAK256 SLOAD SWAP1 JUMP JUMPDEST PUSH2 0xFAF JUMP JUMPDEST POP CALLVALUE PUSH2 0xE JUMPI PUSH1 0x40 CALLDATASIZE PUSH1 0x3 NOT ADD SLT PUSH2 0xE JUMPI PUSH1 0x20 PUSH2 0xA5C PUSH1 0x24 CALLDATALOAD PUSH1 0x4 CALLDATALOAD PUSH2 0x4532 JUMP JUMPDEST POP CALLVALUE PUSH2 0xE JUMPI PUSH1 0x20 CALLDATASIZE PUSH1 0x3 NOT ADD SLT PUSH2 0xE JUMPI PUSH1 0x0 DUP1 PUSH2 0x53F PUSH2 0x104D PUSH1 0x4 CALLDATALOAD PUSH2 0x41DE JUMP JUMPDEST SWAP2 PUSH1 0xF SLOAD SWAP4 DUP4 DUP6 SUB SWAP5 DUP6 GT PUSH2 0x10F7 JUMPI JUMPDEST PUSH1 0x0 NOT DUP6 DUP2 ADD SWAP6 DUP7 GT PUSH2 0x10EA JUMPI JUMPDEST DUP5 PUSH2 0x10B5 JUMPI JUMPDEST POP DUP5 PUSH2 0x109B JUMPI JUMPDEST PUSH1 0x40 MLOAD SWAP5 DUP6 SWAP5 DUP6 SWAP1 SWAP5 SWAP4 SWAP3 PUSH1 0x60 SWAP3 PUSH1 0x80 DUP4 ADD SWAP7 DUP4 MSTORE PUSH1 0x20 DUP4 ADD MSTORE PUSH1 0x40 DUP3 ADD MSTORE ADD MSTORE JUMP JUMPDEST SWAP1 POP PUSH2 0x10AE PUSH2 0x10A9 DUP5 PUSH2 0x23AD JUMP JUMPDEST PUSH2 0x4169 JUMP JUMPDEST POP SWAP1 PUSH2 0x1078 JUMP JUMPDEST PUSH2 0x10C8 SWAP2 POP DUP5 ADD DUP5 DUP2 GT PUSH2 0x10DD JUMPI PUSH2 0x2776 JUMP JUMPDEST SWAP1 SLOAD SWAP1 PUSH1 0x3 SHL SHR DUP1 DUP3 MSTORE PUSH1 0x11 PUSH1 0x20 MSTORE CODESIZE PUSH2 0x1071 JUMP JUMPDEST PUSH2 0x10E5 PUSH2 0x237F JUMP JUMPDEST PUSH2 0x2776 JUMP JUMPDEST PUSH2 0x10F2 PUSH2 0x237F JUMP JUMPDEST PUSH2 0x106B JUMP JUMPDEST PUSH2 0x10FF PUSH2 0x237F JUMP JUMPDEST PUSH2 0x105D JUMP JUMPDEST PUSH1 0x20 SWAP1 DUP2 PUSH1 0x40 DUP2 DUP4 ADD SWAP3 DUP3 DUP2 MSTORE DUP6 MLOAD DUP1 SWAP5 MSTORE ADD SWAP4 ADD SWAP2 PUSH1 0x0 JUMPDEST DUP3 DUP2 LT PUSH2 0x112B JUMPI POP POP POP POP SWAP1 JUMP JUMPDEST DUP4 MLOAD PUSH1 0x1 PUSH1 0x1 PUSH1 0xA0 SHL SUB AND DUP6 MSTORE SWAP4 DUP2 ADD SWAP4 SWAP3 DUP2 ADD SWAP3 PUSH1 0x1 ADD PUSH2 0x111D JUMP JUMPDEST POP CALLVALUE PUSH2 0xE JUMPI PUSH1 0x0 CALLDATASIZE PUSH1 0x3 NOT ADD SLT PUSH2 0xE JUMPI PUSH1 0x40 MLOAD DUP1 PUSH1 0x13 SLOAD SWAP2 DUP3 DUP2 MSTORE PUSH1 0x20 DUP1 SWAP2 ADD SWAP3 PUSH1 0x13 PUSH1 0x0 MSTORE PUSH32 0x66DE8FFDA797E3DE9C05E8FC57B3BF0EC28A930D40B0D285D93C06501CF6A090 SWAP2 PUSH1 0x0 SWAP1 JUMPDEST DUP3 DUP3 LT PUSH2 0x11B9 JUMPI PUSH2 0x53F DUP6 PUSH2 0x11AD DUP2 DUP10 SUB DUP3 PUSH2 0x1A44 JUMP JUMPDEST PUSH1 0x40 MLOAD SWAP2 DUP3 SWAP2 DUP3 PUSH2 0x1104 JUMP JUMPDEST DUP4 SLOAD DUP7 MSTORE SWAP5 DUP6 ADD SWAP5 PUSH1 0x1 SWAP4 DUP5 ADD SWAP4 SWAP1 SWAP2 ADD SWAP1 PUSH2 0x1196 JUMP JUMPDEST POP CALLVALUE PUSH2 0xE JUMPI PUSH2 0x7E8 PUSH2 0x11E2 CALLDATASIZE PUSH2 0x9E7 JUMP JUMPDEST SWAP1 PUSH1 0x40 MLOAD SWAP3 PUSH2 0x11F0 DUP5 PUSH2 0x1A01 JUMP JUMPDEST PUSH1 0x0 DUP5 MSTORE PUSH2 0x220C JUMP JUMPDEST POP CALLVALUE PUSH2 0xE JUMPI PUSH1 0x20 CALLDATASIZE PUSH1 0x3 NOT ADD SLT PUSH2 0xE JUMPI PUSH1 0x4 CALLDATALOAD PUSH2 0x121B PUSH2 0xA33 DUP3 CALLER PUSH2 0x22AF JUMP JUMPDEST PUSH2 0x12AB PUSH2 0x1227 DUP3 PUSH2 0x1FEB JUMP JUMPDEST PUSH2 0x1231 DUP4 DUP3 PUSH2 0x2FF1 JUMP JUMPDEST PUSH2 0x123A DUP4 PUSH2 0x24FC JUMP JUMPDEST PUSH1 0x1 PUSH1 0x1 PUSH1 0xA0 SHL SUB AND PUSH1 0x0 DUP2 DUP2 MSTORE PUSH1 0x3 PUSH1 0x20 MSTORE PUSH1 0x40 DUP2 KECCAK256 DUP1 SLOAD SWAP2 SWAP5 SWAP3 DUP4 SWAP3 DUP7 SWAP3 PUSH1 0x0 NOT DUP3 ADD SWAP2 DUP3 GT PUSH2 0x12AE JUMPI JUMPDEST SSTORE DUP3 DUP3 MSTORE PUSH1 0x2 PUSH1 0x20 MSTORE PUSH1 0x40 DUP3 KECCAK256 DUP1 SLOAD PUSH1 0x1 PUSH1 0x1 PUSH1 0xA0 SHL SUB NOT AND SWAP1 SSTORE PUSH32 0xDDF252AD1BE2C89B69C2B068FC378DAA952BA7F163C4A11628F55A4DF523B3EF DUP3 DUP1 LOG4 PUSH2 0x355A JUMP JUMPDEST DUP1 RETURN JUMPDEST PUSH2 0x12B6 PUSH2 0x237F JUMP JUMPDEST PUSH2 0x1267 JUMP JUMPDEST POP CALLVALUE PUSH2 0xE JUMPI PUSH1 0x20 CALLDATASIZE PUSH1 0x3 NOT ADD SLT PUSH2 0xE JUMPI PUSH1 0x20 PUSH2 0xA5C PUSH1 0x4 CALLDATALOAD PUSH1 0x0 MSTORE PUSH1 0x17 PUSH1 0x20 MSTORE PUSH1 0x40 PUSH1 0x0 KECCAK256 SLOAD SWAP1 JUMP JUMPDEST SWAP1 DUP2 PUSH2 0x120 SWAP2 SUB SLT PUSH2 0xE JUMPI SWAP1 JUMP JUMPDEST SWAP2 DUP2 PUSH1 0x1F DUP5 ADD SLT ISZERO PUSH2 0xE JUMPI DUP3 CALLDATALOAD SWAP2 PUSH1 0x1 PUSH1 0x1 PUSH1 0x40 SHL SUB DUP4 GT PUSH2 0xE JUMPI PUSH1 0x20 DUP4 DUP2 DUP7 ADD SWAP6 ADD ADD GT PUSH2 0xE JUMPI JUMP JUMPDEST PUSH1 0x60 PUSH1 0x3 NOT DUP3 ADD SLT PUSH2 0xE JUMPI PUSH1 0x1 PUSH1 0x1 PUSH1 0x40 SHL SUB SWAP1 PUSH1 0x4 CALLDATALOAD DUP3 DUP2 GT PUSH2 0xE JUMPI DUP2 PUSH2 0x134E SWAP2 PUSH1 0x4 ADD PUSH2 0x12E6 JUMP JUMPDEST SWAP3 PUSH1 0x24 CALLDATALOAD DUP4 DUP2 GT PUSH2 0xE JUMPI DUP3 PUSH2 0x1366 SWAP2 PUSH1 0x4 ADD PUSH2 0x12F5 JUMP JUMPDEST SWAP4 SWAP1 SWAP4 SWAP3 PUSH1 0x44 CALLDATALOAD SWAP2 DUP3 GT PUSH2 0xE JUMPI PUSH2 0x8BB SWAP2 PUSH1 0x4 ADD PUSH2 0x12F5 JUMP JUMPDEST POP CALLVALUE PUSH2 0xE JUMPI PUSH2 0x139E PUSH2 0x1392 CALLDATASIZE PUSH2 0x1322 JUMP JUMPDEST SWAP3 DUP5 SWAP6 SWAP5 SWAP3 SWAP2 SWAP3 PUSH2 0x2C70 JUMP JUMPDEST PUSH1 0xF SLOAD DUP2 PUSH1 0x0 MSTORE PUSH1 0x11 PUSH1 0x20 MSTORE PUSH1 0x40 PUSH1 0x0 KECCAK256 SSTORE PUSH2 0x13B9 DUP2 PUSH2 0x429E JUMP JUMPDEST POP PUSH2 0x13CC DUP2 PUSH2 0x13C7 DUP5 PUSH2 0x2BB3 JUMP JUMPDEST PUSH2 0x4467 JUMP JUMPDEST PUSH2 0x13DD PUSH2 0x13D8 DUP4 PUSH2 0x2BB3 JUMP JUMPDEST PUSH2 0x44E9 JUMP JUMPDEST PUSH1 0xC0 DUP3 ADD PUSH2 0x13EB DUP2 DUP5 PUSH2 0x2C3B JUMP JUMPDEST SWAP2 SWAP1 POP PUSH1 0x0 JUMPDEST DUP3 DUP2 LT PUSH2 0x140F JUMPI PUSH2 0x7E8 DUP5 PUSH2 0x1409 PUSH1 0xE0 DUP9 ADD DUP9 PUSH2 0x2C3B JUMP JUMPDEST SWAP2 PUSH2 0x454B JUMP JUMPDEST DUP1 PUSH2 0x1431 PUSH2 0x142A PUSH2 0x1471 SWAP4 PUSH2 0x1424 DUP7 DUP11 PUSH2 0x2C3B JUMP JUMPDEST SWAP1 PUSH2 0x2FD3 JUMP JUMPDEST CALLDATALOAD DUP7 PUSH2 0x44FB JUMP JUMPDEST PUSH2 0x146C DUP6 PUSH2 0x1467 PUSH2 0x145A PUSH2 0x1449 DUP6 PUSH2 0x1424 DUP10 DUP14 PUSH2 0x2C3B JUMP JUMPDEST CALLDATALOAD PUSH1 0x0 MSTORE PUSH1 0xA PUSH1 0x20 MSTORE PUSH1 0x40 PUSH1 0x0 KECCAK256 SWAP1 JUMP JUMPDEST SLOAD PUSH1 0x1 PUSH1 0x1 PUSH1 0xA0 SHL SUB AND SWAP1 JUMP JUMPDEST PUSH2 0x4511 JUMP JUMPDEST PUSH2 0x2F80 JUMP JUMPDEST PUSH2 0x13F1 JUMP JUMPDEST POP CALLVALUE PUSH2 0xE JUMPI PUSH1 0x20 CALLDATASIZE PUSH1 0x3 NOT ADD SLT PUSH2 0xE JUMPI PUSH1 0x4 CALLDATALOAD PUSH1 0x8 SLOAD DUP2 LT ISZERO PUSH2 0x14C8 JUMPI PUSH1 0x8 PUSH1 0x0 MSTORE PUSH32 0xF3F7A9FE364FAAB93B216DA50A3214154F22A0A2B415B23A84C8169E8B636EE3 ADD SLOAD PUSH1 0x40 MLOAD SWAP1 DUP2 MSTORE PUSH1 0x20 SWAP1 RETURN JUMPDEST PUSH1 0x40 MLOAD PUSH3 0x461BCD PUSH1 0xE5 SHL DUP2 MSTORE PUSH1 0x20 PUSH1 0x4 DUP3 ADD MSTORE PUSH1 0x2C PUSH1 0x24 DUP3 ADD MSTORE PUSH32 0x455243373231456E756D657261626C653A20676C6F62616C20696E646578206F PUSH1 0x44 DUP3 ADD MSTORE PUSH12 0x7574206F6620626F756E6473 PUSH1 0xA0 SHL PUSH1 0x64 DUP3 ADD MSTORE PUSH1 0x84 SWAP1 REVERT JUMPDEST POP CALLVALUE PUSH2 0xE JUMPI PUSH1 0x40 CALLDATASIZE PUSH1 0x3 NOT ADD SLT PUSH2 0xE JUMPI PUSH1 0x20 PUSH2 0xA5C PUSH1 0x4 CALLDATALOAD PUSH2 0x1545 DUP2 PUSH2 0x76E JUMP JUMPDEST PUSH1 0x24 CALLDATALOAD SWAP1 PUSH2 0x4433 JUMP JUMPDEST POP CALLVALUE PUSH2 0xE JUMPI PUSH1 0x20 CALLDATASIZE PUSH1 0x3 NOT ADD SLT PUSH2 0xE JUMPI PUSH1 0x20 PUSH2 0xA5C PUSH1 0x4 CALLDATALOAD PUSH2 0xFE8 DUP2 PUSH2 0x76E JUMP JUMPDEST POP CALLVALUE PUSH2 0xE JUMPI PUSH1 0x20 CALLDATASIZE PUSH1 0x3 NOT ADD SLT PUSH2 0xE JUMPI PUSH1 0x20 PUSH2 0x75C PUSH1 0x4 CALLDATALOAD PUSH2 0x1FEB JUMP JUMPDEST POP CALLVALUE PUSH2 0xE JUMPI PUSH1 0x20 CALLDATASIZE PUSH1 0x3 NOT ADD SLT PUSH2 0xE JUMPI PUSH1 0x4 CALLDATALOAD PUSH1 0x1 PUSH1 0x1 PUSH1 0x40 SHL SUB DUP2 GT PUSH2 0xE JUMPI PUSH2 0xA5C PUSH2 0x15C6 PUSH1 0x20 SWAP3 CALLDATASIZE SWAP1 PUSH1 0x4 ADD PUSH2 0x12E6 JUMP JUMPDEST PUSH2 0x2AB0 JUMP JUMPDEST POP CALLVALUE PUSH2 0xE JUMPI PUSH1 0x20 CALLDATASIZE PUSH1 0x3 NOT ADD SLT PUSH2 0xE JUMPI PUSH1 0x20 PUSH2 0x75C PUSH1 0x4 CALLDATALOAD PUSH2 0x449D JUMP JUMPDEST POP CALLVALUE PUSH2 0xE JUMPI PUSH1 0x20 CALLDATASIZE PUSH1 0x3 NOT ADD SLT PUSH2 0xE JUMPI PUSH1 0x20 PUSH2 0xA5C PUSH1 0x4 CALLDATALOAD PUSH2 0x160D DUP2 PUSH2 0x76E JUMP JUMPDEST PUSH2 0x1F28 JUMP JUMPDEST POP CALLVALUE PUSH2 0xE JUMPI PUSH1 0x20 PUSH2 0xA5C PUSH2 0x1626 CALLDATASIZE PUSH2 0x1322 JUMP JUMPDEST SWAP4 SWAP3 SWAP1 SWAP3 PUSH2 0x2C70 JUMP JUMPDEST POP CALLVALUE PUSH2 0xE JUMPI PUSH1 0x20 CALLDATASIZE PUSH1 0x3 NOT ADD SLT PUSH2 0xE JUMPI PUSH1 0x4 CALLDATALOAD PUSH1 0x0 MSTORE PUSH1 0xB PUSH1 0x20 MSTORE PUSH1 0x20 PUSH1 0x40 PUSH1 0x0 KECCAK256 SLOAD PUSH1 0x40 MLOAD SWAP1 DUP2 MSTORE RETURN JUMPDEST POP CALLVALUE PUSH2 0xE JUMPI PUSH1 0x20 CALLDATASIZE PUSH1 0x3 NOT ADD SLT PUSH2 0xE JUMPI PUSH1 0x4 CALLDATALOAD PUSH1 0x0 MSTORE PUSH1 0x15 PUSH1 0x20 MSTORE PUSH2 0x53F PUSH2 0x1689 PUSH1 0x40 PUSH1 0x0 KECCAK256 PUSH2 0x3F62 JUMP JUMPDEST PUSH1 0x40 MLOAD SWAP2 DUP3 SWAP2 PUSH1 0x20 DUP4 MSTORE PUSH1 0x20 DUP4 ADD SWAP1 PUSH2 0x498 JUMP JUMPDEST POP CALLVALUE PUSH2 0xE JUMPI PUSH1 0x20 CALLDATASIZE PUSH1 0x3 NOT ADD SLT PUSH2 0xE JUMPI PUSH1 0x4 CALLDATALOAD PUSH1 0x0 MSTORE PUSH1 0xE PUSH1 0x20 MSTORE PUSH1 0x20 PUSH1 0x40 PUSH1 0x0 KECCAK256 SLOAD PUSH1 0x40 MLOAD SWAP1 DUP2 MSTORE RETURN JUMPDEST POP CALLVALUE PUSH2 0xE JUMPI PUSH2 0x16D9 CALLDATASIZE PUSH2 0xB57 JUMP JUMPDEST SWAP1 PUSH2 0x16E3 DUP3 PUSH2 0x3EC4 JUMP JUMPDEST SWAP2 PUSH1 0x0 JUMPDEST DUP2 DUP2 LT PUSH2 0x1704 JUMPI PUSH1 0x40 MLOAD PUSH1 0x20 DUP1 DUP3 MSTORE DUP2 SWAP1 PUSH2 0x53F SWAP1 DUP3 ADD DUP8 PUSH2 0x498 JUMP JUMPDEST DUP1 PUSH2 0xEA0 PUSH2 0x1716 PUSH2 0x1728 SWAP4 DUP6 DUP8 PUSH2 0x2FD3 JUMP JUMPDEST CALLDATALOAD PUSH1 0x0 MSTORE PUSH1 0x17 PUSH1 0x20 MSTORE PUSH1 0x40 PUSH1 0x0 KECCAK256 SLOAD SWAP1 JUMP JUMPDEST PUSH2 0x16E7 JUMP JUMPDEST POP CALLVALUE PUSH2 0xE JUMPI PUSH1 0x0 DUP1 PUSH1 0x3 NOT CALLDATASIZE ADD SLT PUSH2 0x73A JUMPI PUSH1 0x40 MLOAD SWAP1 DUP1 PUSH1 0x1 DUP1 SLOAD SWAP2 PUSH2 0x1753 DUP4 PUSH2 0x200E JUMP JUMPDEST DUP1 DUP7 MSTORE SWAP3 DUP3 DUP2 AND SWAP1 DUP2 ISZERO PUSH2 0x710 JUMPI POP PUSH1 0x1 EQ PUSH2 0x1779 JUMPI PUSH2 0x53F DUP6 PUSH2 0x6AA DUP2 DUP8 SUB DUP3 PUSH2 0x1A44 JUMP JUMPDEST SWAP3 POP DUP1 DUP4 MSTORE PUSH32 0xB10E2D527612073B26EECDFD717E6A320CF44B4AFAC2B0732D9FCBE2B7FA0CF6 JUMPDEST DUP3 DUP5 LT PUSH2 0x17BB JUMPI POP POP POP DUP2 ADD PUSH1 0x20 ADD PUSH2 0x6AA DUP3 PUSH2 0x53F PUSH2 0x69A JUMP JUMPDEST DUP1 SLOAD PUSH1 0x20 DUP6 DUP8 ADD DUP2 ADD SWAP2 SWAP1 SWAP2 MSTORE SWAP1 SWAP4 ADD SWAP3 DUP2 ADD PUSH2 0x17A0 JUMP JUMPDEST POP CALLVALUE PUSH2 0xE JUMPI PUSH1 0x20 DUP1 PUSH1 0x3 NOT CALLDATASIZE ADD SLT PUSH2 0xE JUMPI PUSH1 0x4 CALLDATALOAD PUSH2 0x17F2 DUP2 PUSH2 0x76E JUMP JUMPDEST PUSH1 0x1 PUSH1 0x1 PUSH1 0xA0 SHL SUB AND PUSH1 0x0 SWAP1 DUP2 MSTORE PUSH1 0x12 DUP3 MSTORE PUSH1 0x40 DUP2 KECCAK256 DUP1 SLOAD SWAP2 SWAP1 PUSH2 0x1815 DUP4 PUSH2 0x3EC4 JUMP JUMPDEST SWAP4 PUSH1 0x2 DUP3 ADD SWAP2 DUP4 JUMPDEST DUP6 DUP2 LT PUSH2 0x1832 JUMPI PUSH1 0x40 MLOAD DUP1 PUSH2 0x53F DUP10 DUP3 PUSH2 0x4CC JUMP JUMPDEST DUP1 PUSH2 0x1840 PUSH2 0x1857 SWAP3 DUP5 PUSH2 0x27BB JUMP JUMPDEST SWAP1 SLOAD SWAP1 PUSH1 0x3 SHL SHR DUP1 DUP8 MSTORE DUP6 DUP6 MSTORE PUSH2 0x566 DUP3 DUP11 PUSH2 0x3F40 JUMP JUMPDEST PUSH2 0x181D JUMP JUMPDEST POP CALLVALUE PUSH2 0xE JUMPI PUSH1 0x40 CALLDATASIZE PUSH1 0x3 NOT ADD SLT PUSH2 0xE JUMPI PUSH1 0x4 CALLDATALOAD PUSH2 0x187A DUP2 PUSH2 0x76E JUMP JUMPDEST PUSH1 0x24 CALLDATALOAD DUP1 ISZERO ISZERO DUP2 SUB PUSH2 0xE JUMPI PUSH1 0x1 PUSH1 0x1 PUSH1 0xA0 SHL SUB DUP3 AND SWAP2 CALLER DUP4 EQ PUSH2 0x1908 JUMPI DUP2 PUSH2 0x18C5 PUSH2 0x18D6 SWAP3 CALLER PUSH1 0x0 MSTORE PUSH1 0x5 PUSH1 0x20 MSTORE PUSH1 0x40 PUSH1 0x0 KECCAK256 SWAP1 PUSH1 0x1 DUP1 PUSH1 0xA0 SHL SUB AND PUSH1 0x0 MSTORE PUSH1 0x20 MSTORE PUSH1 0x40 PUSH1 0x0 KECCAK256 SWAP1 JUMP JUMPDEST SWAP1 PUSH1 0xFF DUP1 NOT DUP4 SLOAD AND SWAP2 ISZERO ISZERO AND OR SWAP1 SSTORE JUMP JUMPDEST PUSH1 0x40 MLOAD SWAP1 ISZERO ISZERO DUP2 MSTORE CALLER SWAP1 PUSH32 0x17307EAB39AB6107E8899845AD3D59BD9653F200F220920489CA2B5937696C31 SWAP1 PUSH1 0x20 SWAP1 LOG3 STOP JUMPDEST PUSH1 0x40 MLOAD PUSH3 0x461BCD PUSH1 0xE5 SHL DUP2 MSTORE PUSH1 0x20 PUSH1 0x4 DUP3 ADD MSTORE PUSH1 0x19 PUSH1 0x24 DUP3 ADD MSTORE PUSH32 0x4552433732313A20617070726F766520746F2063616C6C657200000000000000 PUSH1 0x44 DUP3 ADD MSTORE PUSH1 0x64 SWAP1 REVERT JUMPDEST POP CALLVALUE PUSH2 0xE JUMPI PUSH1 0x20 DUP1 PUSH1 0x3 NOT CALLDATASIZE ADD SLT PUSH2 0xE JUMPI PUSH1 0x0 PUSH1 0x4 CALLDATALOAD DUP2 MSTORE PUSH1 0x17 DUP3 MSTORE PUSH1 0x40 DUP2 KECCAK256 SWAP1 DUP2 SLOAD SWAP2 PUSH2 0x197C DUP4 PUSH2 0x3EC4 JUMP JUMPDEST SWAP4 PUSH1 0x2 DUP3 ADD SWAP2 DUP4 JUMPDEST DUP6 DUP2 LT PUSH2 0x1999 JUMPI PUSH1 0x40 MLOAD DUP1 PUSH2 0x53F DUP10 DUP3 PUSH2 0x4CC JUMP JUMPDEST DUP1 PUSH2 0x1840 PUSH2 0x19A7 SWAP3 DUP5 PUSH2 0x27BB JUMP JUMPDEST PUSH2 0x1984 JUMP JUMPDEST POP CALLVALUE PUSH2 0xE JUMPI PUSH1 0x20 CALLDATASIZE PUSH1 0x3 NOT ADD SLT PUSH2 0xE JUMPI PUSH1 0x4 CALLDATALOAD PUSH2 0x19CA DUP2 PUSH2 0x76E JUMP JUMPDEST PUSH1 0x1 DUP1 PUSH1 0xA0 SHL SUB AND PUSH1 0x0 MSTORE PUSH1 0x16 PUSH1 0x20 MSTORE PUSH2 0x53F PUSH2 0x1689 PUSH1 0x40 PUSH1 0x0 KECCAK256 PUSH2 0x3F62 JUMP JUMPDEST POP PUSH4 0x4E487B71 PUSH1 0xE0 SHL PUSH1 0x0 MSTORE PUSH1 0x41 PUSH1 0x4 MSTORE PUSH1 0x24 PUSH1 0x0 REVERT JUMPDEST PUSH1 0x20 DUP2 ADD SWAP1 DUP2 LT PUSH1 0x1 PUSH1 0x1 PUSH1 0x40 SHL SUB DUP3 GT OR PUSH2 0x1A1C JUMPI PUSH1 0x40 MSTORE JUMP JUMPDEST PUSH2 0x1A24 PUSH2 0x19EA JUMP JUMPDEST PUSH1 0x40 MSTORE JUMP JUMPDEST PUSH1 0x60 DUP2 ADD SWAP1 DUP2 LT PUSH1 0x1 PUSH1 0x1 PUSH1 0x40 SHL SUB DUP3 GT OR PUSH2 0x1A1C JUMPI PUSH1 0x40 MSTORE JUMP JUMPDEST SWAP1 PUSH1 0x1F DUP1 NOT SWAP2 ADD AND DUP2 ADD SWAP1 DUP2 LT PUSH1 0x1 PUSH1 0x1 PUSH1 0x40 SHL SUB DUP3 GT OR PUSH2 0x1A1C JUMPI PUSH1 0x40 MSTORE JUMP JUMPDEST PUSH1 0x40 MLOAD SWAP1 PUSH2 0x120 DUP3 ADD DUP3 DUP2 LT PUSH1 0x1 PUSH1 0x1 PUSH1 0x40 SHL SUB DUP3 GT OR PUSH2 0x1A1C JUMPI PUSH1 0x40 MSTORE JUMP JUMPDEST PUSH1 0x20 SWAP1 PUSH1 0x1 PUSH1 0x1 PUSH1 0x40 SHL SUB DUP2 GT PUSH2 0x1AA2 JUMPI JUMPDEST PUSH1 0x1F ADD PUSH1 0x1F NOT AND ADD SWAP1 JUMP JUMPDEST PUSH2 0x1AAA PUSH2 0x19EA JUMP JUMPDEST PUSH2 0x1A97 JUMP JUMPDEST SWAP3 SWAP2 SWAP3 PUSH2 0x1ABB DUP3 PUSH2 0x1A85 JUMP JUMPDEST SWAP2 PUSH2 0x1AC9 PUSH1 0x40 MLOAD SWAP4 DUP5 PUSH2 0x1A44 JUMP JUMPDEST DUP3 SWAP5 DUP2 DUP5 MSTORE DUP2 DUP4 ADD GT PUSH2 0xE JUMPI DUP3 DUP2 PUSH1 0x20 SWAP4 DUP5 PUSH1 0x0 SWAP7 ADD CALLDATACOPY ADD ADD MSTORE JUMP JUMPDEST POP CALLVALUE PUSH2 0xE JUMPI PUSH1 0x80 CALLDATASIZE PUSH1 0x3 NOT ADD SLT PUSH2 0xE JUMPI PUSH1 0x4 CALLDATALOAD PUSH2 0x1B04 DUP2 PUSH2 0x76E JUMP JUMPDEST PUSH1 0x24 CALLDATALOAD PUSH2 0x1B10 DUP2 PUSH2 0x76E JUMP JUMPDEST PUSH1 0x64 CALLDATALOAD SWAP2 PUSH1 0x1 PUSH1 0x1 PUSH1 0x40 SHL SUB DUP4 GT PUSH2 0xE JUMPI CALLDATASIZE PUSH1 0x23 DUP5 ADD SLT ISZERO PUSH2 0xE JUMPI PUSH2 0x1B44 PUSH2 0x7E8 SWAP4 CALLDATASIZE SWAP1 PUSH1 0x24 DUP2 PUSH1 0x4 ADD CALLDATALOAD SWAP2 ADD PUSH2 0x1AAF JUMP JUMPDEST SWAP2 PUSH1 0x44 CALLDATALOAD SWAP2 PUSH2 0x220C JUMP JUMPDEST POP CALLVALUE PUSH2 0xE JUMPI PUSH1 0x40 CALLDATASIZE PUSH1 0x3 NOT ADD SLT PUSH2 0xE JUMPI PUSH1 0x4 CALLDATALOAD PUSH1 0x0 MSTORE PUSH1 0x15 PUSH1 0x20 MSTORE PUSH1 0x20 PUSH2 0x1B7D PUSH1 0x24 CALLDATALOAD PUSH1 0x40 PUSH1 0x0 KECCAK256 PUSH2 0x27BB JUMP JUMPDEST SWAP1 SLOAD PUSH1 0x40 MLOAD SWAP2 PUSH1 0x3 SHL SHR DUP2 MSTORE RETURN JUMPDEST POP CALLVALUE PUSH2 0xE JUMPI PUSH2 0x1B9A CALLDATASIZE PUSH2 0xB57 JUMP JUMPDEST SWAP1 PUSH2 0x1BA4 DUP3 PUSH2 0x3E3D JUMP JUMPDEST SWAP2 PUSH2 0x1BB2 PUSH1 0x40 MLOAD SWAP4 DUP5 PUSH2 0x1A44 JUMP JUMPDEST DUP1 DUP4 MSTORE PUSH1 0x1F NOT PUSH2 0x1BC1 DUP3 PUSH2 0x3E3D JUMP JUMPDEST ADD CALLDATASIZE PUSH1 0x20 DUP6 ADD CALLDATACOPY PUSH1 0x0 JUMPDEST DUP2 DUP2 LT PUSH2 0x1BE0 JUMPI PUSH1 0x40 MLOAD DUP1 PUSH2 0x53F DUP7 DUP3 PUSH2 0x1104 JUMP JUMPDEST DUP1 PUSH2 0x1BF8 PUSH2 0x1BF2 PUSH2 0x1C14 SWAP4 DUP6 DUP8 PUSH2 0x2FD3 JUMP JUMPDEST CALLDATALOAD PUSH2 0x449D JUMP JUMPDEST PUSH2 0x1C02 DUP3 DUP8 PUSH2 0x3F40 JUMP JUMPDEST PUSH1 0x1 PUSH1 0x1 PUSH1 0xA0 SHL SUB SWAP1 SWAP2 AND SWAP1 MSTORE PUSH2 0x2F80 JUMP JUMPDEST PUSH2 0x1BCB JUMP JUMPDEST POP CALLVALUE PUSH2 0xE JUMPI PUSH1 0x40 CALLDATASIZE PUSH1 0x3 NOT ADD SLT PUSH2 0xE JUMPI PUSH1 0x4 CALLDATALOAD PUSH2 0x1C37 DUP2 PUSH2 0x76E JUMP JUMPDEST PUSH1 0x1 PUSH1 0x1 PUSH1 0xA0 SHL SUB AND PUSH1 0x0 SWAP1 DUP2 MSTORE PUSH1 0x12 PUSH1 0x20 MSTORE PUSH1 0x40 DUP2 KECCAK256 SWAP1 PUSH2 0x53F DUP2 PUSH2 0xA97 PUSH1 0x24 CALLDATALOAD DUP6 PUSH2 0x4256 JUMP JUMPDEST POP CALLVALUE PUSH2 0xE JUMPI PUSH1 0x20 CALLDATASIZE PUSH1 0x3 NOT ADD SLT PUSH2 0xE JUMPI PUSH1 0x4 CALLDATALOAD PUSH1 0x0 MSTORE PUSH1 0xA PUSH1 0x20 MSTORE PUSH2 0x53F PUSH2 0x1C99 PUSH2 0x1CA0 PUSH1 0x4 PUSH1 0x40 PUSH1 0x0 KECCAK256 ADD PUSH1 0x40 MLOAD SWAP3 DUP4 DUP1 SWAP3 PUSH2 0x2048 JUMP JUMPDEST SUB DUP3 PUSH2 0x1A44 JUMP JUMPDEST PUSH1 0x40 MLOAD SWAP2 DUP3 SWAP2 PUSH1 0x20 DUP4 MSTORE PUSH1 0x20 DUP4 ADD SWAP1 PUSH2 0x60C JUMP JUMPDEST POP CALLVALUE PUSH2 0xE JUMPI PUSH1 0x20 CALLDATASIZE PUSH1 0x3 NOT ADD SLT PUSH2 0xE JUMPI PUSH2 0x1CF2 PUSH2 0x1D05 PUSH2 0x53F PUSH2 0x1CDA PUSH1 0x4 CALLDATALOAD PUSH2 0x4044 JUMP JUMPDEST SWAP3 SWAP5 SWAP2 SWAP1 PUSH1 0x40 MLOAD SWAP7 DUP8 SWAP7 PUSH1 0x80 DUP9 MSTORE PUSH1 0x80 DUP9 ADD SWAP1 PUSH2 0xBCD JUMP JUMPDEST SWAP2 PUSH1 0x20 DUP8 ADD MSTORE DUP6 DUP3 SUB PUSH1 0x40 DUP8 ADD MSTORE PUSH2 0x60C JUMP JUMPDEST SWAP1 DUP4 DUP3 SUB PUSH1 0x60 DUP6 ADD MSTORE PUSH2 0x60C JUMP JUMPDEST POP CALLVALUE PUSH2 0xE JUMPI PUSH2 0x1D22 CALLDATASIZE PUSH2 0xB57 JUMP JUMPDEST SWAP1 PUSH2 0x1D2C DUP3 PUSH2 0x3EC4 JUMP JUMPDEST SWAP2 PUSH1 0x0 JUMPDEST DUP2 DUP2 LT PUSH2 0x1D4D JUMPI PUSH1 0x40 MLOAD PUSH1 0x20 DUP1 DUP3 MSTORE DUP2 SWAP1 PUSH2 0x53F SWAP1 DUP3 ADD DUP8 PUSH2 0x498 JUMP JUMPDEST DUP1 PUSH2 0xEA0 PUSH2 0x1D5F PUSH2 0x1D71 SWAP4 DUP6 DUP8 PUSH2 0x2FD3 JUMP JUMPDEST CALLDATALOAD PUSH1 0x0 MSTORE PUSH1 0x15 PUSH1 0x20 MSTORE PUSH1 0x40 PUSH1 0x0 KECCAK256 SLOAD SWAP1 JUMP JUMPDEST PUSH2 0x1D30 JUMP JUMPDEST POP CALLVALUE PUSH2 0xE JUMPI PUSH1 0x0 CALLDATASIZE PUSH1 0x3 NOT ADD SLT PUSH2 0xE JUMPI PUSH1 0x20 PUSH1 0xF SLOAD PUSH1 0x40 MLOAD SWAP1 DUP2 MSTORE RETURN JUMPDEST POP CALLVALUE PUSH2 0xE JUMPI PUSH1 0x40 CALLDATASIZE PUSH1 0x3 NOT ADD SLT PUSH2 0xE JUMPI PUSH1 0x20 PUSH1 0xFF PUSH2 0x1DF2 PUSH1 0x4 CALLDATALOAD PUSH2 0x1DBA DUP2 PUSH2 0x76E JUMP JUMPDEST PUSH1 0x24 CALLDATALOAD SWAP1 PUSH2 0x1DC7 DUP3 PUSH2 0x76E JUMP JUMPDEST PUSH1 0x1 DUP1 PUSH1 0xA0 SHL SUB AND PUSH1 0x0 MSTORE PUSH1 0x5 DUP5 MSTORE PUSH1 0x40 PUSH1 0x0 KECCAK256 SWAP1 PUSH1 0x1 DUP1 PUSH1 0xA0 SHL SUB AND PUSH1 0x0 MSTORE PUSH1 0x20 MSTORE PUSH1 0x40 PUSH1 0x0 KECCAK256 SWAP1 JUMP JUMPDEST SLOAD AND PUSH1 0x40 MLOAD SWAP1 ISZERO ISZERO DUP2 MSTORE RETURN JUMPDEST POP CALLVALUE PUSH2 0xE JUMPI PUSH1 0x20 CALLDATASIZE PUSH1 0x3 NOT ADD SLT PUSH2 0xE JUMPI PUSH1 0x20 PUSH2 0xA5C PUSH1 0x4 CALLDATALOAD PUSH2 0xE85 DUP2 PUSH2 0x76E JUMP JUMPDEST POP CALLVALUE PUSH2 0xE JUMPI PUSH2 0x1E30 CALLDATASIZE PUSH2 0xB57 JUMP JUMPDEST SWAP1 PUSH2 0x1E3A DUP3 PUSH2 0x3EC4 JUMP JUMPDEST SWAP2 PUSH1 0x0 JUMPDEST DUP2 DUP2 LT PUSH2 0x1E5B JUMPI PUSH1 0x40 MLOAD PUSH1 0x20 DUP1 DUP3 MSTORE DUP2 SWAP1 PUSH2 0x53F SWAP1 DUP3 ADD DUP8 PUSH2 0x498 JUMP JUMPDEST DUP1 PUSH2 0xEA0 PUSH2 0x1E6D PUSH2 0x1E73 SWAP4 DUP6 DUP8 PUSH2 0x2FD3 JUMP JUMPDEST CALLDATALOAD PUSH2 0x414D JUMP JUMPDEST PUSH2 0x1E3E JUMP JUMPDEST POP CALLVALUE PUSH2 0xE JUMPI PUSH1 0x40 CALLDATASIZE PUSH1 0x3 NOT ADD SLT PUSH2 0xE JUMPI PUSH1 0x4 CALLDATALOAD PUSH2 0x1E96 DUP2 PUSH2 0x76E JUMP JUMPDEST PUSH1 0x1 DUP1 PUSH1 0xA0 SHL SUB AND PUSH1 0x0 MSTORE PUSH1 0x16 PUSH1 0x20 MSTORE PUSH1 0x20 PUSH2 0x1B7D PUSH1 0x24 CALLDATALOAD PUSH1 0x40 PUSH1 0x0 KECCAK256 PUSH2 0x27BB JUMP JUMPDEST POP CALLVALUE PUSH2 0xE JUMPI PUSH2 0x1EC7 CALLDATASIZE PUSH2 0x883 JUMP JUMPDEST SWAP2 PUSH2 0x1ED1 DUP4 PUSH2 0x3EC4 JUMP JUMPDEST SWAP3 PUSH1 0x0 SWAP1 DUP2 JUMPDEST DUP2 DUP2 LT PUSH2 0x1EF4 JUMPI PUSH1 0x40 MLOAD PUSH1 0x20 DUP1 DUP3 MSTORE DUP2 SWAP1 PUSH2 0x53F SWAP1 DUP3 ADD DUP10 PUSH2 0x498 JUMP JUMPDEST DUP1 PUSH2 0x993 PUSH2 0x1F06 PUSH2 0x1F23 SWAP4 DUP6 DUP10 PUSH2 0x2FD3 JUMP JUMPDEST PUSH1 0x1 PUSH1 0x1 PUSH1 0xA0 SHL SUB DUP8 AND DUP7 MSTORE PUSH1 0x16 PUSH1 0x20 MSTORE PUSH1 0x40 DUP7 KECCAK256 SWAP1 CALLDATALOAD SWAP1 PUSH2 0x27BB JUMP JUMPDEST PUSH2 0x1ED7 JUMP JUMPDEST PUSH1 0x1 PUSH1 0x1 PUSH1 0xA0 SHL SUB AND DUP1 ISZERO PUSH2 0x1F48 JUMPI PUSH1 0x0 MSTORE PUSH1 0x3 PUSH1 0x20 MSTORE PUSH1 0x40 PUSH1 0x0 KECCAK256 SLOAD SWAP1 JUMP JUMPDEST PUSH1 0x40 MLOAD PUSH3 0x461BCD PUSH1 0xE5 SHL DUP2 MSTORE PUSH1 0x20 PUSH1 0x4 DUP3 ADD MSTORE PUSH1 0x29 PUSH1 0x24 DUP3 ADD MSTORE PUSH32 0x4552433732313A2061646472657373207A65726F206973206E6F742061207661 PUSH1 0x44 DUP3 ADD MSTORE PUSH9 0x3634B21037BBB732B9 PUSH1 0xB9 SHL PUSH1 0x64 DUP3 ADD MSTORE PUSH1 0x84 SWAP1 REVERT JUMPDEST ISZERO PUSH2 0x1FA6 JUMPI JUMP JUMPDEST PUSH1 0x40 MLOAD PUSH3 0x461BCD PUSH1 0xE5 SHL DUP2 MSTORE PUSH1 0x20 PUSH1 0x4 DUP3 ADD MSTORE PUSH1 0x18 PUSH1 0x24 DUP3 ADD MSTORE PUSH32 0x4552433732313A20696E76616C696420746F6B656E2049440000000000000000 PUSH1 0x44 DUP3 ADD MSTORE PUSH1 0x64 SWAP1 REVERT JUMPDEST PUSH1 0x0 SWAP1 DUP2 MSTORE PUSH1 0x2 PUSH1 0x20 MSTORE PUSH1 0x40 SWAP1 KECCAK256 SLOAD PUSH1 0x1 PUSH1 0x1 PUSH1 0xA0 SHL SUB AND PUSH2 0x4DD DUP2 ISZERO ISZERO PUSH2 0x1F9F JUMP JUMPDEST SWAP1 PUSH1 0x1 DUP3 DUP2 SHR SWAP3 AND DUP1 ISZERO PUSH2 0x203E JUMPI JUMPDEST PUSH1 0x20 DUP4 LT EQ PUSH2 0x2028 JUMPI JUMP JUMPDEST PUSH4 0x4E487B71 PUSH1 0xE0 SHL PUSH1 0x0 MSTORE PUSH1 0x22 PUSH1 0x4 MSTORE PUSH1 0x24 PUSH1 0x0 REVERT JUMPDEST SWAP2 PUSH1 0x7F AND SWAP2 PUSH2 0x201D JUMP JUMPDEST SWAP1 PUSH1 0x0 SWAP3 SWAP2 DUP1 SLOAD SWAP2 PUSH2 0x2059 DUP4 PUSH2 0x200E JUMP JUMPDEST SWAP2 DUP3 DUP3 MSTORE PUSH1 0x1 SWAP4 DUP5 DUP2 AND SWAP1 DUP2 PUSH1 0x0 EQ PUSH2 0x20BB JUMPI POP PUSH1 0x1 EQ PUSH2 0x207B JUMPI JUMPDEST POP POP POP POP JUMP JUMPDEST SWAP1 SWAP2 SWAP4 SWAP5 POP PUSH1 0x0 MSTORE PUSH1 0x20 SWAP3 DUP4 PUSH1 0x0 KECCAK256 SWAP3 DUP5 PUSH1 0x0 SWAP5 JUMPDEST DUP4 DUP7 LT PUSH2 0x20A7 JUMPI POP POP POP POP ADD ADD SWAP1 CODESIZE DUP1 DUP1 DUP1 PUSH2 0x2075 JUMP JUMPDEST DUP1 SLOAD DUP6 DUP8 ADD DUP4 ADD MSTORE SWAP5 ADD SWAP4 DUP6 SWAP1 DUP3 ADD PUSH2 0x2090 JUMP JUMPDEST SWAP3 SWAP5 POP POP POP PUSH1 0x20 SWAP4 SWAP5 POP PUSH1 0xFF NOT AND DUP4 DUP4 ADD MSTORE ISZERO ISZERO PUSH1 0x5 SHL ADD ADD SWAP1 CODESIZE DUP1 DUP1 DUP1 PUSH2 0x2075 JUMP JUMPDEST SWAP1 PUSH2 0x78A PUSH2 0x20F2 SWAP3 PUSH1 0x40 MLOAD SWAP4 DUP5 DUP1 SWAP3 PUSH2 0x2048 JUMP JUMPDEST SUB DUP4 PUSH2 0x1A44 JUMP JUMPDEST ISZERO PUSH2 0x2100 JUMPI JUMP JUMPDEST PUSH1 0x40 MLOAD PUSH3 0x461BCD PUSH1 0xE5 SHL DUP2 MSTORE PUSH1 0x20 PUSH1 0x4 DUP3 ADD MSTORE PUSH1 0x3E PUSH1 0x24 DUP3 ADD MSTORE PUSH32 0x4552433732313A20617070726F76652063616C6C6572206973206E6F7420746F PUSH1 0x44 DUP3 ADD MSTORE PUSH32 0x6B656E206F776E6572206E6F7220617070726F76656420666F7220616C6C0000 PUSH1 0x64 DUP3 ADD MSTORE PUSH1 0x84 SWAP1 REVERT JUMPDEST PUSH1 0x0 DUP2 DUP2 MSTORE PUSH1 0x2 PUSH1 0x20 MSTORE PUSH1 0x40 SWAP1 KECCAK256 SLOAD PUSH2 0x218E SWAP1 PUSH1 0x1 PUSH1 0x1 PUSH1 0xA0 SHL SUB AND ISZERO ISZERO PUSH2 0x1F9F JUMP JUMPDEST PUSH1 0x0 SWAP1 DUP2 MSTORE PUSH1 0x4 PUSH1 0x20 MSTORE PUSH1 0x40 SWAP1 KECCAK256 SLOAD PUSH1 0x1 PUSH1 0x1 PUSH1 0xA0 SHL SUB AND SWAP1 JUMP JUMPDEST ISZERO PUSH2 0x21B0 JUMPI JUMP JUMPDEST PUSH1 0x40 MLOAD PUSH3 0x461BCD PUSH1 0xE5 SHL DUP2 MSTORE PUSH1 0x20 PUSH1 0x4 DUP3 ADD MSTORE PUSH1 0x2E PUSH1 0x24 DUP3 ADD MSTORE PUSH32 0x4552433732313A2063616C6C6572206973206E6F7420746F6B656E206F776E65 PUSH1 0x44 DUP3 ADD MSTORE PUSH14 0x1C881B9BDC88185C1C1C9BDD9959 PUSH1 0x92 SHL PUSH1 0x64 DUP3 ADD MSTORE PUSH1 0x84 SWAP1 REVERT JUMPDEST SWAP2 PUSH2 0x78A SWAP4 SWAP2 PUSH2 0x2233 SWAP4 PUSH2 0x2223 PUSH2 0xA33 DUP5 CALLER PUSH2 0x22AF JUMP JUMPDEST PUSH2 0x222E DUP4 DUP4 DUP4 PUSH2 0x23BB JUMP JUMPDEST PUSH2 0x2723 JUMP JUMPDEST PUSH2 0x228B JUMP JUMPDEST PUSH1 0x80 SWAP1 PUSH1 0x20 DUP2 MSTORE PUSH1 0x32 PUSH1 0x20 DUP3 ADD MSTORE PUSH32 0x4552433732313A207472616E7366657220746F206E6F6E204552433732315265 PUSH1 0x40 DUP3 ADD MSTORE PUSH18 0x31B2B4BB32B91034B6B83632B6B2B73A32B9 PUSH1 0x71 SHL PUSH1 0x60 DUP3 ADD MSTORE ADD SWAP1 JUMP JUMPDEST ISZERO PUSH2 0x2292 JUMPI JUMP JUMPDEST PUSH1 0x40 MLOAD PUSH3 0x461BCD PUSH1 0xE5 SHL DUP2 MSTORE DUP1 PUSH2 0x22AB PUSH1 0x4 DUP3 ADD PUSH2 0x2238 JUMP JUMPDEST SUB SWAP1 REVERT JUMPDEST PUSH1 0x1 PUSH1 0x1 PUSH1 0xA0 SHL SUB DUP1 PUSH2 0x22C1 DUP5 PUSH2 0x1FEB JUMP JUMPDEST AND SWAP3 DUP2 DUP4 AND SWAP3 DUP5 DUP5 EQ SWAP5 DUP6 ISZERO PUSH2 0x22F7 JUMPI JUMPDEST POP POP DUP4 ISZERO PUSH2 0x22E1 JUMPI JUMPDEST POP POP POP SWAP1 JUMP JUMPDEST PUSH2 0x22ED SWAP2 SWAP3 SWAP4 POP PUSH2 0x216B JUMP JUMPDEST AND EQ CODESIZE DUP1 DUP1 PUSH2 0x22DB JUMP JUMPDEST PUSH1 0x0 SWAP1 DUP2 MSTORE PUSH1 0x5 PUSH1 0x20 SWAP1 DUP2 MSTORE PUSH1 0x40 DUP1 DUP4 KECCAK256 PUSH1 0x1 PUSH1 0x1 PUSH1 0xA0 SHL SUB SWAP5 SWAP1 SWAP5 AND DUP4 MSTORE SWAP3 SWAP1 MSTORE KECCAK256 SLOAD PUSH1 0xFF AND SWAP4 POP CODESIZE DUP1 PUSH2 0x22D2 JUMP JUMPDEST ISZERO PUSH2 0x232E JUMPI JUMP JUMPDEST PUSH1 0x40 MLOAD PUSH3 0x461BCD PUSH1 0xE5 SHL DUP2 MSTORE PUSH1 0x20 PUSH1 0x4 DUP3 ADD MSTORE PUSH1 0x24 DUP1 DUP3 ADD MSTORE PUSH32 0x4552433732313A207472616E7366657220746F20746865207A65726F20616464 PUSH1 0x44 DUP3 ADD MSTORE PUSH4 0x72657373 PUSH1 0xE0 SHL PUSH1 0x64 DUP3 ADD MSTORE PUSH1 0x84 SWAP1 REVERT JUMPDEST POP PUSH4 0x4E487B71 PUSH1 0xE0 SHL PUSH1 0x0 MSTORE PUSH1 0x11 PUSH1 0x4 MSTORE PUSH1 0x24 PUSH1 0x0 REVERT JUMPDEST PUSH1 0x0 NOT DUP2 ADD SWAP2 SWAP1 DUP3 GT PUSH2 0x23A5 JUMPI JUMP JUMPDEST PUSH2 0x78A PUSH2 0x237F JUMP JUMPDEST SWAP1 PUSH1 0x1 DUP3 ADD DUP1 SWAP3 GT PUSH2 0x23A5 JUMPI JUMP JUMPDEST SWAP1 PUSH2 0x23C5 DUP4 PUSH2 0x1FEB JUMP JUMPDEST PUSH1 0x1 PUSH1 0x1 PUSH1 0xA0 SHL SUB DUP4 DUP2 AND SWAP3 SWAP1 SWAP2 DUP3 AND DUP4 SWAP1 SUB PUSH2 0x24A9 JUMPI PUSH2 0x241F PUSH2 0x2482 SWAP3 DUP3 AND SWAP5 PUSH2 0x23F1 DUP7 ISZERO ISZERO PUSH2 0x2327 JUMP JUMPDEST PUSH2 0x23FC DUP8 DUP5 DUP4 PUSH2 0x319A JUMP JUMPDEST PUSH2 0x2405 DUP8 PUSH2 0x24FC JUMP JUMPDEST PUSH1 0x1 PUSH1 0x1 PUSH1 0xA0 SHL SUB AND PUSH1 0x0 SWAP1 DUP2 MSTORE PUSH1 0x3 PUSH1 0x20 MSTORE PUSH1 0x40 SWAP1 KECCAK256 SWAP1 JUMP JUMPDEST PUSH2 0x2429 DUP2 SLOAD PUSH2 0x2396 JUMP JUMPDEST SWAP1 SSTORE PUSH1 0x1 PUSH1 0x1 PUSH1 0xA0 SHL SUB DUP2 AND PUSH1 0x0 SWAP1 DUP2 MSTORE PUSH1 0x3 PUSH1 0x20 MSTORE PUSH1 0x40 SWAP1 KECCAK256 PUSH2 0x244D DUP2 SLOAD PUSH2 0x23AD JUMP JUMPDEST SWAP1 SSTORE PUSH2 0x2463 DUP6 PUSH1 0x0 MSTORE PUSH1 0x2 PUSH1 0x20 MSTORE PUSH1 0x40 PUSH1 0x0 KECCAK256 SWAP1 JUMP JUMPDEST DUP1 SLOAD PUSH1 0x1 PUSH1 0x1 PUSH1 0xA0 SHL SUB NOT AND PUSH1 0x1 PUSH1 0x1 PUSH1 0xA0 SHL SUB SWAP1 SWAP3 AND SWAP2 SWAP1 SWAP2 OR SWAP1 SSTORE JUMP JUMPDEST PUSH32 0xDDF252AD1BE2C89B69C2B068FC378DAA952BA7F163C4A11628F55A4DF523B3EF PUSH1 0x0 DUP1 LOG4 JUMP JUMPDEST PUSH1 0x40 MLOAD PUSH3 0x461BCD PUSH1 0xE5 SHL DUP2 MSTORE PUSH1 0x20 PUSH1 0x4 DUP3 ADD MSTORE PUSH1 0x25 PUSH1 0x24 DUP3 ADD MSTORE PUSH32 0x4552433732313A207472616E736665722066726F6D20696E636F727265637420 PUSH1 0x44 DUP3 ADD MSTORE PUSH5 0x37BBB732B9 PUSH1 0xD9 SHL PUSH1 0x64 DUP3 ADD MSTORE PUSH1 0x84 SWAP1 REVERT JUMPDEST PUSH1 0x0 DUP2 DUP2 MSTORE PUSH1 0x4 PUSH1 0x20 MSTORE PUSH1 0x40 DUP2 KECCAK256 DUP1 SLOAD PUSH1 0x1 PUSH1 0x1 PUSH1 0xA0 SHL SUB NOT AND SWAP1 SSTORE PUSH1 0x1 PUSH1 0x1 PUSH1 0xA0 SHL SUB PUSH2 0x2529 DUP4 PUSH2 0x1FEB JUMP JUMPDEST AND PUSH32 0x8C5BE1E5EBEC7D5BD14F71427D1E84F3DD0314C0F7B2291E5B200AC8C7C3B925 DUP3 DUP1 LOG4 JUMP JUMPDEST PUSH1 0x0 DUP3 DUP2 MSTORE PUSH1 0x4 PUSH1 0x20 MSTORE PUSH1 0x40 SWAP1 KECCAK256 DUP1 SLOAD PUSH1 0x1 PUSH1 0x1 PUSH1 0xA0 SHL SUB NOT AND PUSH1 0x1 PUSH1 0x1 PUSH1 0xA0 SHL SUB DUP4 AND OR SWAP1 SSTORE PUSH1 0x1 PUSH1 0x1 PUSH1 0xA0 SHL SUB DUP1 PUSH2 0x2589 DUP5 PUSH2 0x1FEB JUMP JUMPDEST AND SWAP2 AND SWAP1 PUSH32 0x8C5BE1E5EBEC7D5BD14F71427D1E84F3DD0314C0F7B2291E5B200AC8C7C3B925 PUSH1 0x0 DUP1 LOG4 JUMP JUMPDEST SWAP1 DUP2 PUSH1 0x20 SWAP2 SUB SLT PUSH2 0xE JUMPI MLOAD PUSH2 0x4DD DUP2 PUSH2 0x571 JUMP JUMPDEST PUSH2 0x4DD SWAP4 SWAP3 PUSH1 0x80 SWAP3 PUSH1 0x1 DUP1 PUSH1 0xA0 SHL SUB AND DUP3 MSTORE PUSH1 0x0 PUSH1 0x20 DUP4 ADD MSTORE PUSH1 0x40 DUP3 ADD MSTORE DUP2 PUSH1 0x60 DUP3 ADD MSTORE ADD SWAP1 PUSH2 0x60C JUMP JUMPDEST PUSH1 0x1 PUSH1 0x1 PUSH1 0xA0 SHL SUB SWAP2 DUP3 AND DUP2 MSTORE SWAP2 AND PUSH1 0x20 DUP3 ADD MSTORE PUSH1 0x40 DUP2 ADD SWAP2 SWAP1 SWAP2 MSTORE PUSH1 0x80 PUSH1 0x60 DUP3 ADD DUP2 SWAP1 MSTORE PUSH2 0x4DD SWAP3 SWAP2 ADD SWAP1 PUSH2 0x60C JUMP JUMPDEST POP PUSH1 0x40 MLOAD RETURNDATASIZE PUSH1 0x0 DUP3 RETURNDATACOPY RETURNDATASIZE SWAP1 REVERT JUMPDEST RETURNDATASIZE ISZERO PUSH2 0x265D JUMPI RETURNDATASIZE SWAP1 PUSH2 0x2643 DUP3 PUSH2 0x1A85 JUMP JUMPDEST SWAP2 PUSH2 0x2651 PUSH1 0x40 MLOAD SWAP4 DUP5 PUSH2 0x1A44 JUMP JUMPDEST DUP3 MSTORE RETURNDATASIZE PUSH1 0x0 PUSH1 0x20 DUP5 ADD RETURNDATACOPY JUMP JUMPDEST PUSH1 0x60 SWAP1 JUMP JUMPDEST SWAP1 SWAP2 SWAP1 DUP1 EXTCODESIZE ISZERO PUSH2 0x271B JUMPI PUSH2 0x2694 PUSH1 0x20 SWAP2 PUSH1 0x0 SWAP4 PUSH1 0x40 MLOAD SWAP5 DUP6 DUP1 SWAP5 DUP2 SWAP4 PUSH4 0xA85BD01 PUSH1 0xE1 SHL SWAP10 DUP11 DUP5 MSTORE CALLER PUSH1 0x4 DUP6 ADD PUSH2 0x25C9 JUMP JUMPDEST SUB SWAP3 PUSH1 0x1 PUSH1 0x1 PUSH1 0xA0 SHL SUB AND GAS CALL PUSH1 0x0 SWAP2 DUP2 PUSH2 0x26EB JUMPI JUMPDEST POP PUSH2 0x26DD JUMPI PUSH2 0x26B7 PUSH2 0x2632 JUMP JUMPDEST DUP1 MLOAD SWAP1 DUP2 PUSH2 0x26D8 JUMPI PUSH1 0x40 MLOAD PUSH3 0x461BCD PUSH1 0xE5 SHL DUP2 MSTORE DUP1 PUSH2 0x22AB PUSH1 0x4 DUP3 ADD PUSH2 0x2238 JUMP JUMPDEST PUSH1 0x20 ADD REVERT JUMPDEST PUSH1 0x1 PUSH1 0x1 PUSH1 0xE0 SHL SUB NOT AND EQ SWAP1 JUMP JUMPDEST PUSH2 0x270D SWAP2 SWAP3 POP PUSH1 0x20 RETURNDATASIZE DUP2 GT PUSH2 0x2714 JUMPI JUMPDEST PUSH2 0x2705 DUP2 DUP4 PUSH2 0x1A44 JUMP JUMPDEST DUP2 ADD SWAP1 PUSH2 0x25B4 JUMP JUMPDEST SWAP1 CODESIZE PUSH2 0x26AA JUMP JUMPDEST POP RETURNDATASIZE PUSH2 0x26FB JUMP JUMPDEST POP POP POP PUSH1 0x1 SWAP1 JUMP JUMPDEST SWAP3 SWAP1 SWAP2 SWAP1 DUP3 EXTCODESIZE ISZERO PUSH2 0x2756 JUMPI PUSH2 0x2694 SWAP3 PUSH1 0x20 SWAP3 PUSH1 0x0 PUSH1 0x40 MLOAD DUP1 SWAP7 DUP2 SWAP6 DUP3 SWAP5 PUSH4 0xA85BD01 PUSH1 0xE1 SHL SWAP11 DUP12 DUP6 MSTORE CALLER PUSH1 0x4 DUP7 ADD PUSH2 0x25F4 JUMP JUMPDEST POP POP POP POP PUSH1 0x1 SWAP1 JUMP JUMPDEST POP PUSH4 0x4E487B71 PUSH1 0xE0 SHL PUSH1 0x0 MSTORE PUSH1 0x32 PUSH1 0x4 MSTORE PUSH1 0x24 PUSH1 0x0 REVERT JUMPDEST PUSH1 0xF SLOAD DUP2 LT ISZERO PUSH2 0x27AE JUMPI JUMPDEST PUSH1 0xF PUSH1 0x0 MSTORE PUSH32 0x8D1108E10BCB7C27DDDFC02ED9D693A074039D026CF4EA4240B40F7D581AC802 ADD SWAP1 PUSH1 0x0 SWAP1 JUMP JUMPDEST PUSH2 0x27B6 PUSH2 0x275F JUMP JUMPDEST PUSH2 0x2781 JUMP JUMPDEST DUP1 SLOAD DUP3 LT ISZERO PUSH2 0x27D4 JUMPI JUMPDEST PUSH1 0x0 MSTORE PUSH1 0x20 PUSH1 0x0 KECCAK256 ADD SWAP1 PUSH1 0x0 SWAP1 JUMP JUMPDEST PUSH2 0x27DC PUSH2 0x275F JUMP JUMPDEST PUSH2 0x27C5 JUMP JUMPDEST ISZERO PUSH2 0x27E8 JUMPI JUMP JUMPDEST PUSH1 0x40 MLOAD PUSH3 0x461BCD PUSH1 0xE5 SHL DUP2 MSTORE PUSH1 0x20 PUSH1 0x4 DUP3 ADD MSTORE PUSH1 0x5C PUSH1 0x24 DUP3 ADD MSTORE PUSH32 0x4B6174696265683732313A207369676E2074696D65206D757374206265206C65 PUSH1 0x44 DUP3 ADD MSTORE PUSH32 0x7373207468616E20696E69742074696D65202620696E69742074696D65206D75 PUSH1 0x64 DUP3 ADD MSTORE PUSH32 0x7374206265206C657373207468616E206578706972652074696D652E00000000 PUSH1 0x84 DUP3 ADD MSTORE PUSH1 0xA4 SWAP1 REVERT JUMPDEST SWAP1 CALLDATALOAD PUSH1 0x1E NOT DUP3 CALLDATASIZE SUB ADD DUP2 SLT ISZERO PUSH2 0xE JUMPI ADD PUSH1 0x20 DUP2 CALLDATALOAD SWAP2 ADD SWAP2 PUSH1 0x1 PUSH1 0x1 PUSH1 0x40 SHL SUB DUP3 GT PUSH2 0xE JUMPI DUP2 CALLDATASIZE SUB DUP4 SGT PUSH2 0xE JUMPI JUMP JUMPDEST SWAP1 DUP1 PUSH1 0x20 SWAP4 SWAP3 DUP2 DUP5 MSTORE DUP5 DUP5 ADD CALLDATACOPY PUSH1 0x0 DUP3 DUP3 ADD DUP5 ADD MSTORE PUSH1 0x1F ADD PUSH1 0x1F NOT AND ADD ADD SWAP1 JUMP JUMPDEST SWAP1 CALLDATALOAD PUSH1 0x1E NOT DUP3 CALLDATASIZE SUB ADD DUP2 SLT ISZERO PUSH2 0xE JUMPI ADD PUSH1 0x20 DUP2 CALLDATALOAD SWAP2 ADD SWAP2 PUSH1 0x1 PUSH1 0x1 PUSH1 0x40 SHL SUB DUP3 GT PUSH2 0xE JUMPI DUP2 PUSH1 0x5 SHL CALLDATASIZE SUB DUP4 SGT PUSH2 0xE JUMPI JUMP JUMPDEST DUP2 DUP4 MSTORE SWAP1 SWAP2 PUSH1 0x1 PUSH1 0x1 PUSH1 0xFB SHL SUB DUP4 GT PUSH2 0xE JUMPI PUSH1 0x20 SWAP3 PUSH1 0x5 SHL DUP1 SWAP3 DUP5 DUP4 ADD CALLDATACOPY ADD ADD SWAP1 JUMP JUMPDEST SWAP1 CALLDATALOAD PUSH1 0x1E NOT DUP3 CALLDATASIZE SUB ADD DUP2 SLT ISZERO PUSH2 0xE JUMPI ADD PUSH1 0x20 DUP2 CALLDATALOAD SWAP2 ADD SWAP2 PUSH1 0x1 PUSH1 0x1 PUSH1 0x40 SHL SUB DUP3 GT PUSH2 0xE JUMPI DUP2 PUSH1 0x6 SHL CALLDATASIZE SUB DUP4 SGT PUSH2 0xE JUMPI JUMP JUMPDEST PUSH2 0xFFFF DUP2 AND SUB PUSH2 0xE JUMPI JUMP JUMPDEST SWAP2 SWAP1 DUP1 DUP3 MSTORE PUSH1 0x20 DUP1 SWAP3 ADD SWAP3 SWAP2 PUSH1 0x0 SWAP1 JUMPDEST DUP3 DUP3 LT PUSH2 0x2981 JUMPI POP POP POP POP SWAP1 JUMP JUMPDEST SWAP1 SWAP2 SWAP3 SWAP4 PUSH1 0x1 SWAP1 DUP6 CALLDATALOAD PUSH2 0x2993 DUP2 PUSH2 0x76E JUMP JUMPDEST DUP3 DUP1 PUSH1 0xA0 SHL SUB AND DUP2 MSTORE PUSH2 0xFFFF DUP4 DUP8 ADD CALLDATALOAD PUSH2 0x29AC DUP2 PUSH2 0x2957 JUMP JUMPDEST AND DUP2 DUP5 ADD MSTORE PUSH1 0x40 SWAP1 DUP2 ADD SWAP6 ADD SWAP4 SWAP3 ADD SWAP1 PUSH2 0x2973 JUMP JUMPDEST SWAP1 PUSH2 0x2A2C PUSH2 0x4DD SWAP3 PUSH1 0x20 DUP2 MSTORE PUSH2 0x29EA PUSH1 0x20 DUP3 ADD PUSH2 0x29DD DUP6 PUSH2 0x77F JUMP JUMPDEST PUSH1 0x1 PUSH1 0x1 PUSH1 0xA0 SHL SUB AND SWAP1 MSTORE JUMP JUMPDEST PUSH1 0x20 DUP4 ADD CALLDATALOAD PUSH1 0x40 DUP3 ADD MSTORE PUSH1 0x40 DUP4 ADD CALLDATALOAD PUSH1 0x60 DUP3 ADD MSTORE PUSH1 0x60 DUP4 ADD CALLDATALOAD PUSH1 0x80 DUP3 ADD MSTORE PUSH2 0x2A15 PUSH1 0x80 DUP5 ADD DUP5 PUSH2 0x2879 JUMP JUMPDEST SWAP3 SWAP1 PUSH2 0x120 SWAP4 DUP5 PUSH1 0xA0 DUP6 ADD MSTORE PUSH2 0x140 DUP5 ADD SWAP2 PUSH2 0x28AA JUMP JUMPDEST SWAP1 PUSH2 0x2AA1 PUSH2 0x2A74 PUSH2 0x2A57 PUSH2 0x2A43 PUSH1 0xA0 DUP9 ADD DUP9 PUSH2 0x2879 JUMP JUMPDEST PUSH1 0x1F NOT DUP7 DUP9 SUB DUP2 ADD PUSH1 0xC0 DUP9 ADD MSTORE SWAP7 SWAP2 PUSH2 0x28AA JUMP JUMPDEST PUSH2 0x2A64 PUSH1 0xC0 DUP9 ADD DUP9 PUSH2 0x28CB JUMP JUMPDEST SWAP1 DUP7 DUP7 DUP5 SUB ADD PUSH1 0xE0 DUP8 ADD MSTORE PUSH2 0x28FF JUMP JUMPDEST SWAP5 PUSH2 0x2A98 PUSH2 0x2A85 PUSH1 0xE0 DUP4 ADD DUP4 PUSH2 0x28CB JUMP JUMPDEST PUSH2 0x100 SWAP9 SWAP2 DUP8 DUP8 DUP5 SUB ADD DUP11 DUP9 ADD MSTORE PUSH2 0x28FF JUMP JUMPDEST SWAP6 DUP2 ADD SWAP1 PUSH2 0x2923 JUMP JUMPDEST SWAP4 SWAP1 SWAP3 DUP3 DUP7 SUB ADD SWAP2 ADD MSTORE PUSH2 0x2963 JUMP JUMPDEST PUSH1 0x20 DUP2 ADD CALLDATALOAD PUSH2 0xE0F NOT DUP2 ADD DUP2 DUP2 GT PUSH2 0x2BA6 JUMPI JUMPDEST TIMESTAMP LT ISZERO DUP1 PUSH2 0x2B84 JUMPI JUMPDEST ISZERO PUSH2 0x2B23 JUMPI PUSH2 0x2AEB SWAP1 PUSH1 0x40 DUP4 ADD CALLDATALOAD DUP1 SWAP2 GT ISZERO SWAP1 DUP2 PUSH2 0x2B14 JUMPI JUMPDEST POP PUSH2 0x27E1 JUMP JUMPDEST PUSH1 0x40 MLOAD PUSH2 0x2B0E DUP2 PUSH2 0x2B00 PUSH1 0x20 DUP3 ADD SWAP5 DUP6 PUSH2 0x29C1 JUMP JUMPDEST SUB PUSH1 0x1F NOT DUP2 ADD DUP4 MSTORE DUP3 PUSH2 0x1A44 JUMP JUMPDEST MLOAD SWAP1 KECCAK256 SWAP1 JUMP JUMPDEST SWAP1 POP PUSH1 0x60 DUP4 ADD CALLDATALOAD LT ISZERO CODESIZE PUSH2 0x2AE5 JUMP JUMPDEST PUSH1 0x40 MLOAD PUSH3 0x461BCD PUSH1 0xE5 SHL DUP2 MSTORE PUSH1 0x20 PUSH1 0x4 DUP3 ADD MSTORE PUSH1 0x33 PUSH1 0x24 DUP3 ADD MSTORE PUSH32 0x4B6174696265683732313A206D6F7265207468616E203120686F757273207369 PUSH1 0x44 DUP3 ADD MSTORE PUSH19 0x33B7103A34B6B2903234B33332B932B731B297 PUSH1 0x69 SHL PUSH1 0x64 DUP3 ADD MSTORE PUSH1 0x84 SWAP1 REVERT JUMPDEST POP PUSH2 0xE10 DUP2 ADD DUP1 DUP3 GT PUSH2 0x2B99 JUMPI JUMPDEST TIMESTAMP LT PUSH2 0x2ACC JUMP JUMPDEST PUSH2 0x2BA1 PUSH2 0x237F JUMP JUMPDEST PUSH2 0x2B92 JUMP JUMPDEST PUSH2 0x2BAE PUSH2 0x237F JUMP JUMPDEST PUSH2 0x2AC3 JUMP JUMPDEST CALLDATALOAD PUSH2 0x4DD DUP2 PUSH2 0x76E JUMP JUMPDEST ISZERO PUSH2 0x2BC4 JUMPI JUMP JUMPDEST PUSH1 0x40 MLOAD PUSH3 0x461BCD PUSH1 0xE5 SHL DUP2 MSTORE PUSH1 0x20 PUSH1 0x4 DUP3 ADD MSTORE PUSH1 0x1D PUSH1 0x24 DUP3 ADD MSTORE PUSH32 0x4B6174696265683732313A20496E76616C6964207369676E6174757265000000 PUSH1 0x44 DUP3 ADD MSTORE PUSH1 0x64 SWAP1 REVERT JUMPDEST SWAP1 CALLDATALOAD SWAP1 PUSH1 0x1E NOT DUP2 CALLDATASIZE SUB ADD DUP3 SLT ISZERO PUSH2 0xE JUMPI ADD DUP1 CALLDATALOAD SWAP1 PUSH1 0x1 PUSH1 0x1 PUSH1 0x40 SHL SUB DUP3 GT PUSH2 0xE JUMPI PUSH1 0x20 ADD SWAP2 DUP2 CALLDATASIZE SUB DUP4 SGT PUSH2 0xE JUMPI JUMP JUMPDEST SWAP1 CALLDATALOAD SWAP1 PUSH1 0x1E NOT DUP2 CALLDATASIZE SUB ADD DUP3 SLT ISZERO PUSH2 0xE JUMPI ADD DUP1 CALLDATALOAD SWAP1 PUSH1 0x1 PUSH1 0x1 PUSH1 0x40 SHL SUB DUP3 GT PUSH2 0xE JUMPI PUSH1 0x20 ADD SWAP2 DUP2 PUSH1 0x5 SHL CALLDATASIZE SUB DUP4 SGT PUSH2 0xE JUMPI JUMP JUMPDEST SWAP4 SWAP5 SWAP3 SWAP5 PUSH1 0x40 MLOAD SWAP6 PUSH1 0x20 SWAP7 DUP8 DUP2 ADD SWAP1 DUP6 DUP6 DUP4 CALLDATACOPY PUSH2 0x2CAE PUSH1 0x2C DUP3 DUP9 DUP2 ADD PUSH12 0x39B0B6B0B7103BB4B639B7B7 PUSH1 0xA1 SHL DUP14 DUP3 ADD MSTORE SUB PUSH1 0xC DUP2 ADD DUP5 MSTORE ADD DUP3 PUSH2 0x1A44 JUMP JUMPDEST MLOAD SWAP1 KECCAK256 SWAP6 DUP1 CALLDATALOAD PUSH2 0x2CBD DUP2 PUSH2 0x76E JUMP JUMPDEST PUSH2 0x2CC6 DUP3 PUSH2 0x2AB0 JUMP JUMPDEST PUSH1 0x40 MLOAD DUP11 DUP2 ADD SWAP2 PUSH32 0x19457468657265756D205369676E6564204D6573736167653A0A333200000000 DUP4 MSTORE PUSH1 0x3C DUP3 ADD MSTORE PUSH1 0x3C DUP2 MSTORE PUSH2 0x2D02 DUP2 PUSH2 0x1A29 JUMP JUMPDEST MLOAD SWAP1 KECCAK256 PUSH2 0x2D10 CALLDATASIZE DUP9 DUP9 PUSH2 0x1AAF JUMP JUMPDEST PUSH1 0x41 DUP2 MLOAD SUB PUSH2 0x2DFA JUMPI DUP1 DUP12 ADD MLOAD PUSH1 0x40 DUP1 DUP4 ADD MLOAD PUSH1 0x60 SWAP4 DUP5 ADD MLOAD DUP3 MLOAD SWAP6 DUP7 MSTORE PUSH1 0x0 SWAP1 DUP2 BYTE PUSH1 0x20 DUP8 ADD MSTORE SWAP2 DUP6 ADD SWAP3 SWAP1 SWAP3 MSTORE SWAP2 DUP4 ADD MSTORE DUP1 DUP1 MSTORE SWAP9 SWAP10 SWAP8 SWAP9 PUSH2 0x78A SWAP9 PUSH2 0x2DE7 SWAP7 SWAP6 SWAP5 PUSH2 0x2DE1 SWAP5 PUSH2 0x2DDA SWAP5 SWAP2 SWAP4 PUSH2 0x2D87 SWAP4 SWAP2 SWAP3 PUSH1 0x80 SWAP1 PUSH1 0x1 GAS STATICCALL ISZERO PUSH2 0x2DED JUMPI JUMPDEST PUSH1 0x0 MLOAD PUSH1 0x1 PUSH1 0x1 PUSH1 0xA0 SHL SUB SWAP1 DUP2 AND SWAP2 AND EQ PUSH2 0x2BBD JUMP JUMPDEST TIMESTAMP PUSH2 0x2D9C DUP13 PUSH1 0x0 MSTORE PUSH1 0xE PUSH1 0x20 MSTORE PUSH1 0x40 PUSH1 0x0 KECCAK256 SWAP1 JUMP JUMPDEST SSTORE PUSH2 0x2DAF DUP12 PUSH2 0x2DAA DUP4 PUSH2 0x2BB3 JUMP JUMPDEST PUSH2 0x2E3F JUMP JUMPDEST PUSH2 0x2DC6 DUP12 PUSH2 0x2DC0 PUSH1 0x80 DUP5 ADD DUP5 PUSH2 0x2C09 JUMP JUMPDEST SWAP1 PUSH2 0x345F JUMP JUMPDEST PUSH2 0x2DD0 DUP2 DUP13 PUSH2 0x39F2 JUMP JUMPDEST PUSH1 0xE0 DUP2 ADD SWAP1 PUSH2 0x2C3B JUMP JUMPDEST SWAP1 DUP11 PUSH2 0x3D0E JUMP JUMPDEST DUP8 PUSH2 0x3B8C JUMP JUMPDEST DUP5 PUSH2 0x3C50 JUMP JUMPDEST PUSH2 0x2DF5 PUSH2 0x2625 JUMP JUMPDEST PUSH2 0x2D71 JUMP JUMPDEST PUSH1 0x40 MLOAD PUSH3 0x461BCD PUSH1 0xE5 SHL DUP2 MSTORE PUSH1 0x4 DUP2 ADD DUP13 SWAP1 MSTORE PUSH1 0x18 PUSH1 0x24 DUP3 ADD MSTORE PUSH32 0x696E76616C6964207369676E6174757265206C656E6774680000000000000000 PUSH1 0x44 DUP3 ADD MSTORE PUSH1 0x64 SWAP1 REVERT JUMPDEST SWAP1 PUSH1 0x40 MLOAD PUSH2 0x2E4C DUP2 PUSH2 0x1A01 JUMP JUMPDEST PUSH1 0x0 DUP2 MSTORE PUSH1 0x1 PUSH1 0x1 PUSH1 0xA0 SHL SUB DUP4 AND SWAP2 DUP3 ISZERO PUSH2 0x2F3C JUMPI PUSH1 0x0 DUP2 DUP2 MSTORE PUSH1 0x2 PUSH1 0x20 MSTORE PUSH1 0x40 SWAP1 KECCAK256 SLOAD PUSH1 0x1 PUSH1 0x1 PUSH1 0xA0 SHL SUB AND PUSH2 0x2EF7 JUMPI DUP4 DUP2 PUSH2 0x2233 SWAP5 PUSH2 0x2E90 DUP3 PUSH2 0x78A SWAP9 PUSH2 0x316F JUMP JUMPDEST PUSH1 0x1 PUSH1 0x1 PUSH1 0xA0 SHL SUB DUP4 AND PUSH1 0x0 SWAP1 DUP2 MSTORE PUSH1 0x3 PUSH1 0x20 MSTORE PUSH1 0x40 SWAP1 KECCAK256 PUSH2 0x2EB2 DUP2 SLOAD PUSH2 0x23AD JUMP JUMPDEST SWAP1 SSTORE PUSH2 0x2ECC DUP4 PUSH2 0x2463 DUP5 PUSH1 0x0 MSTORE PUSH1 0x2 PUSH1 0x20 MSTORE PUSH1 0x40 PUSH1 0x0 KECCAK256 SWAP1 JUMP JUMPDEST PUSH1 0x0 PUSH32 0xDDF252AD1BE2C89B69C2B068FC378DAA952BA7F163C4A11628F55A4DF523B3EF DUP2 DUP1 LOG4 PUSH2 0x2662 JUMP JUMPDEST PUSH1 0x40 MLOAD PUSH3 0x461BCD PUSH1 0xE5 SHL DUP2 MSTORE PUSH1 0x20 PUSH1 0x4 DUP3 ADD MSTORE PUSH1 0x1C PUSH1 0x24 DUP3 ADD MSTORE PUSH32 0x4552433732313A20746F6B656E20616C7265616479206D696E74656400000000 PUSH1 0x44 DUP3 ADD MSTORE PUSH1 0x64 SWAP1 REVERT JUMPDEST PUSH1 0x64 PUSH1 0x40 MLOAD PUSH3 0x461BCD PUSH1 0xE5 SHL DUP2 MSTORE PUSH1 0x20 PUSH1 0x4 DUP3 ADD MSTORE PUSH1 0x20 PUSH1 0x24 DUP3 ADD MSTORE PUSH32 0x4552433732313A206D696E7420746F20746865207A65726F2061646472657373 PUSH1 0x44 DUP3 ADD MSTORE REVERT JUMPDEST PUSH1 0x1 SWAP1 PUSH1 0x0 NOT DUP2 EQ PUSH2 0x2F90 JUMPI ADD SWAP1 JUMP JUMPDEST PUSH2 0x2F98 PUSH2 0x237F JUMP JUMPDEST ADD SWAP1 JUMP JUMPDEST SWAP1 ISZERO PUSH2 0x2FA5 JUMPI SWAP1 JUMP JUMPDEST PUSH2 0x4DD PUSH2 0x275F JUMP JUMPDEST PUSH1 0x20 SWAP2 PUSH1 0x1 LT ISZERO PUSH2 0x2FBC JUMPI ADD SWAP1 JUMP JUMPDEST PUSH2 0x2F98 PUSH2 0x275F JUMP JUMPDEST PUSH1 0x40 SWAP2 PUSH1 0x2 LT ISZERO PUSH2 0x2FBC JUMPI ADD SWAP1 JUMP JUMPDEST SWAP2 SWAP1 DUP2 LT ISZERO PUSH2 0x2FE4 JUMPI JUMPDEST PUSH1 0x5 SHL ADD SWAP1 JUMP JUMPDEST PUSH2 0x2FEC PUSH2 0x275F JUMP JUMPDEST PUSH2 0x2FDD JUMP JUMPDEST PUSH1 0x1 PUSH1 0x1 PUSH1 0xA0 SHL SUB DUP2 AND DUP1 ISZERO SWAP3 SWAP2 DUP4 ISZERO DUP5 DUP2 PUSH2 0x3167 JUMPI JUMPDEST ISZERO PUSH2 0x3113 JUMPI PUSH2 0x78A SWAP5 ISZERO PUSH2 0x3027 JUMPI POP POP POP PUSH2 0x3022 DUP2 PUSH2 0x32D5 JUMP JUMPDEST PUSH2 0x3349 JUMP JUMPDEST PUSH2 0x3033 JUMPI JUMPDEST POP POP PUSH2 0x3349 JUMP JUMPDEST DUP1 PUSH2 0x309C PUSH2 0x3043 PUSH2 0x30AB SWAP4 PUSH2 0x1F28 JUMP JUMPDEST PUSH1 0x0 NOT DUP2 ADD SWAP3 SWAP1 DUP4 GT PUSH2 0x3106 JUMPI JUMPDEST PUSH1 0x0 SWAP5 DUP7 DUP7 MSTORE PUSH1 0x7 PUSH1 0x20 MSTORE PUSH1 0x40 DUP7 KECCAK256 SLOAD SWAP1 DUP5 DUP3 SUB PUSH2 0x30B3 JUMPI JUMPDEST POP POP DUP5 PUSH2 0x3081 DUP8 PUSH1 0x0 MSTORE PUSH1 0x7 PUSH1 0x20 MSTORE PUSH1 0x40 PUSH1 0x0 KECCAK256 SWAP1 JUMP JUMPDEST SSTORE PUSH1 0x1 PUSH1 0x1 PUSH1 0xA0 SHL SUB AND PUSH1 0x0 SWAP1 DUP2 MSTORE PUSH1 0x6 PUSH1 0x20 MSTORE PUSH1 0x40 SWAP1 KECCAK256 SWAP1 JUMP JUMPDEST SWAP1 PUSH1 0x0 MSTORE PUSH1 0x20 MSTORE PUSH1 0x40 PUSH1 0x0 KECCAK256 SWAP1 JUMP JUMPDEST SSTORE CODESIZE DUP1 PUSH2 0x302C JUMP JUMPDEST DUP7 MSTORE PUSH1 0x6 PUSH1 0x20 MSTORE PUSH1 0x40 DUP7 KECCAK256 DUP5 DUP8 MSTORE PUSH1 0x20 MSTORE PUSH2 0x30FE PUSH1 0x40 DUP8 KECCAK256 SLOAD DUP1 PUSH2 0x30ED DUP5 PUSH2 0x309C DUP8 PUSH1 0x1 DUP1 PUSH1 0xA0 SHL SUB AND PUSH1 0x0 MSTORE PUSH1 0x6 PUSH1 0x20 MSTORE PUSH1 0x40 PUSH1 0x0 KECCAK256 SWAP1 JUMP JUMPDEST SSTORE PUSH1 0x0 MSTORE PUSH1 0x7 PUSH1 0x20 MSTORE PUSH1 0x40 PUSH1 0x0 KECCAK256 SWAP1 JUMP JUMPDEST SSTORE CODESIZE DUP1 PUSH2 0x306A JUMP JUMPDEST PUSH2 0x310E PUSH2 0x237F JUMP JUMPDEST PUSH2 0x3051 JUMP JUMPDEST PUSH1 0x40 MLOAD PUSH3 0x461BCD PUSH1 0xE5 SHL DUP2 MSTORE PUSH1 0x20 PUSH1 0x4 DUP3 ADD MSTORE PUSH1 0x26 PUSH1 0x24 DUP3 ADD MSTORE PUSH32 0x746F6B656E732063616E6E6F74206265207472616E736665726564206F6E2074 PUSH1 0x44 DUP3 ADD MSTORE PUSH6 0x195CDD1B995D PUSH1 0xD2 SHL PUSH1 0x64 DUP3 ADD MSTORE PUSH1 0x84 SWAP1 REVERT JUMPDEST POP PUSH1 0x1 PUSH2 0x3008 JUMP JUMPDEST SWAP1 PUSH2 0x3179 DUP2 PUSH2 0x32D5 JUMP JUMPDEST PUSH1 0x1 PUSH1 0x1 PUSH1 0xA0 SHL SUB DUP3 AND PUSH2 0x3191 JUMPI PUSH2 0x78A SWAP2 POP PUSH2 0x3349 JUMP JUMPDEST PUSH2 0x78A SWAP2 PUSH2 0x329D JUMP JUMPDEST SWAP1 SWAP2 SWAP1 PUSH1 0x1 PUSH1 0x1 PUSH1 0xA0 SHL SUB DUP1 DUP3 AND SWAP2 DUP3 ISZERO DUP1 DUP1 ISZERO PUSH2 0x3293 JUMPI JUMPDEST ISZERO PUSH2 0x3113 JUMPI ISZERO PUSH2 0x31E3 JUMPI POP PUSH2 0x31C7 DUP4 PUSH2 0x32D5 JUMP JUMPDEST DUP4 AND DUP1 PUSH2 0x31DA JUMPI POP POP PUSH2 0x78A SWAP2 POP PUSH2 0x3349 JUMP JUMPDEST SUB PUSH2 0x3191 JUMPI POP POP JUMP JUMPDEST DUP2 DUP6 AND DUP4 SUB PUSH2 0x31F3 JUMPI JUMPDEST POP PUSH2 0x31C7 JUMP JUMPDEST PUSH2 0x323D PUSH2 0x31FF DUP3 PUSH2 0x1F28 JUMP JUMPDEST PUSH1 0x0 NOT DUP2 ADD SWAP1 DUP2 GT PUSH2 0x3286 JUMPI JUMPDEST PUSH2 0x309C PUSH1 0x0 SWAP4 DUP8 DUP6 MSTORE PUSH1 0x7 PUSH1 0x20 MSTORE PUSH1 0x40 DUP6 KECCAK256 SLOAD DUP4 DUP2 SUB PUSH2 0x3244 JUMPI JUMPDEST POP DUP5 PUSH2 0x3081 DUP10 PUSH1 0x0 MSTORE PUSH1 0x7 PUSH1 0x20 MSTORE PUSH1 0x40 PUSH1 0x0 KECCAK256 SWAP1 JUMP JUMPDEST SSTORE CODESIZE PUSH2 0x31ED JUMP JUMPDEST DUP8 DUP7 MSTORE PUSH1 0x6 PUSH1 0x20 MSTORE PUSH1 0x40 DUP7 KECCAK256 DUP5 DUP8 MSTORE PUSH1 0x20 MSTORE PUSH2 0x327F PUSH1 0x40 DUP8 KECCAK256 SLOAD DUP1 PUSH2 0x30ED DUP5 PUSH2 0x309C DUP8 PUSH1 0x1 DUP1 PUSH1 0xA0 SHL SUB AND PUSH1 0x0 MSTORE PUSH1 0x6 PUSH1 0x20 MSTORE PUSH1 0x40 PUSH1 0x0 KECCAK256 SWAP1 JUMP JUMPDEST SSTORE CODESIZE PUSH2 0x3227 JUMP JUMPDEST PUSH2 0x328E PUSH2 0x237F JUMP JUMPDEST PUSH2 0x320C JUMP JUMPDEST POP DUP3 DUP7 AND ISZERO PUSH2 0x31B3 JUMP JUMPDEST PUSH1 0x40 SWAP1 PUSH2 0x32A9 DUP2 PUSH2 0x1F28 JUMP JUMPDEST SWAP3 PUSH1 0x0 SWAP2 PUSH1 0x1 DUP1 PUSH1 0xA0 SHL SUB AND DUP3 MSTORE PUSH1 0x6 PUSH1 0x20 MSTORE DUP3 DUP3 KECCAK256 DUP5 DUP4 MSTORE PUSH1 0x20 MSTORE DUP1 DUP4 DUP4 KECCAK256 SSTORE DUP2 MSTORE PUSH1 0x7 PUSH1 0x20 MSTORE KECCAK256 SSTORE JUMP JUMPDEST PUSH1 0x8 SLOAD DUP2 PUSH1 0x0 MSTORE PUSH1 0x9 PUSH1 0x20 MSTORE DUP1 PUSH1 0x40 PUSH1 0x0 KECCAK256 SSTORE PUSH1 0x1 PUSH1 0x40 SHL DUP2 LT ISZERO PUSH2 0x333C JUMPI JUMPDEST PUSH1 0x1 DUP2 ADD DUP1 PUSH1 0x8 SSTORE DUP2 LT ISZERO PUSH2 0x332F JUMPI JUMPDEST PUSH1 0x8 PUSH1 0x0 MSTORE PUSH32 0xF3F7A9FE364FAAB93B216DA50A3214154F22A0A2B415B23A84C8169E8B636EE3 ADD SSTORE JUMP JUMPDEST PUSH2 0x3337 PUSH2 0x275F JUMP JUMPDEST PUSH2 0x3305 JUMP JUMPDEST PUSH2 0x3344 PUSH2 0x19EA JUMP JUMPDEST PUSH2 0x32F5 JUMP JUMPDEST PUSH1 0x8 DUP1 SLOAD PUSH1 0x0 NOT SWAP3 SWAP1 DUP4 DUP2 ADD DUP2 DUP2 GT PUSH2 0x3452 JUMPI JUMPDEST PUSH2 0x33F9 PUSH1 0x0 SWAP4 DUP5 SWAP3 DUP2 DUP5 MSTORE PUSH1 0x9 PUSH1 0x20 MSTORE DUP5 PUSH1 0x40 DUP6 KECCAK256 SLOAD SWAP2 LT ISZERO PUSH2 0x3445 JUMPI JUMPDEST DUP7 DUP5 MSTORE PUSH2 0x33E8 PUSH32 0xF3F7A9FE364FAAB93B216DA50A3214154F22A0A2B415B23A84C8169E8B636EE2 SWAP6 DUP7 DUP2 ADD SLOAD SWAP1 DUP4 LT ISZERO PUSH2 0x3438 JUMPI JUMPDEST DUP9 DUP7 MSTORE DUP1 DUP4 PUSH32 0xF3F7A9FE364FAAB93B216DA50A3214154F22A0A2B415B23A84C8169E8B636EE3 ADD SSTORE PUSH1 0x0 MSTORE PUSH1 0x9 PUSH1 0x20 MSTORE PUSH1 0x40 PUSH1 0x0 KECCAK256 SWAP1 JUMP JUMPDEST SSTORE PUSH1 0x0 MSTORE PUSH1 0x9 PUSH1 0x20 MSTORE PUSH1 0x40 PUSH1 0x0 KECCAK256 SWAP1 JUMP JUMPDEST SSTORE DUP3 SLOAD SWAP4 DUP5 ISZERO PUSH2 0x3424 JUMPI DUP5 ADD SWAP4 DUP1 DUP6 LT ISZERO PUSH2 0x3417 JUMPI JUMPDEST DUP4 DUP4 MSTORE ADD SSTORE SSTORE JUMP JUMPDEST PUSH2 0x341F PUSH2 0x275F JUMP JUMPDEST PUSH2 0x340F JUMP JUMPDEST PUSH4 0x4E487B71 PUSH1 0xE0 SHL DUP4 MSTORE PUSH1 0x31 PUSH1 0x4 MSTORE PUSH1 0x24 DUP4 REVERT JUMPDEST PUSH2 0x3440 PUSH2 0x275F JUMP JUMPDEST PUSH2 0x33B0 JUMP JUMPDEST PUSH2 0x344D PUSH2 0x275F JUMP JUMPDEST PUSH2 0x337B JUMP JUMPDEST PUSH2 0x345A PUSH2 0x237F JUMP JUMPDEST PUSH2 0x335D JUMP JUMPDEST PUSH2 0x3488 SWAP2 PUSH1 0x40 MLOAD SWAP3 DUP4 SWAP2 PUSH1 0x20 SWAP5 DUP2 DUP7 SWAP3 DUP4 DUP4 ADD SWAP7 DUP8 CALLDATACOPY DUP2 ADD PUSH1 0x0 DUP4 DUP3 ADD MSTORE SUB DUP1 DUP5 MSTORE ADD DUP3 PUSH2 0x1A44 JUMP JUMPDEST MLOAD SWAP1 KECCAK256 DUP1 PUSH1 0x0 MSTORE PUSH1 0xB DUP3 MSTORE PUSH1 0x40 PUSH1 0x0 KECCAK256 SLOAD PUSH2 0x34AD JUMPI SWAP1 PUSH1 0xB SWAP2 PUSH1 0x0 MSTORE MSTORE PUSH1 0x40 PUSH1 0x0 KECCAK256 SSTORE JUMP JUMPDEST PUSH1 0x40 MLOAD PUSH3 0x461BCD PUSH1 0xE5 SHL DUP2 MSTORE PUSH1 0x4 DUP2 ADD DUP4 SWAP1 MSTORE PUSH1 0x23 PUSH1 0x24 DUP3 ADD MSTORE PUSH32 0x4461746153746F726167653A20757269207265676973746572656420616C7265 PUSH1 0x44 DUP3 ADD MSTORE PUSH3 0x616479 PUSH1 0xE8 SHL PUSH1 0x64 DUP3 ADD MSTORE PUSH1 0x84 SWAP1 REVERT JUMPDEST DUP2 DUP2 LT PUSH2 0x3509 JUMPI POP POP JUMP JUMPDEST PUSH1 0x0 DUP2 SSTORE PUSH1 0x1 ADD PUSH2 0x34FE JUMP JUMPDEST SWAP2 SWAP1 PUSH1 0x1F DUP2 GT PUSH2 0x3524 JUMPI POP POP POP JUMP JUMPDEST PUSH2 0x78A SWAP3 PUSH1 0x0 MSTORE PUSH1 0x20 PUSH1 0x0 KECCAK256 SWAP1 PUSH1 0x20 PUSH1 0x1F DUP5 ADD PUSH1 0x5 SHR DUP4 ADD SWAP4 LT PUSH2 0x3550 JUMPI JUMPDEST PUSH1 0x1F ADD PUSH1 0x5 SHR ADD SWAP1 PUSH2 0x34FE JUMP JUMPDEST SWAP1 SWAP2 POP DUP2 SWAP1 PUSH2 0x3543 JUMP JUMPDEST PUSH1 0x4 PUSH32 0x766269423061476C7A4947356C64486476636D7375496E300000000000000000 SWAP2 PUSH1 0x0 SWAP1 DUP2 MSTORE PUSH1 0x20 SWAP1 PUSH1 0xA DUP3 MSTORE DUP3 PUSH1 0x40 DUP3 KECCAK256 PUSH1 0xD DUP5 MSTORE DUP3 PUSH1 0x40 DUP2 KECCAK256 PUSH2 0x35A2 DUP2 SLOAD PUSH2 0x200E JUMP JUMPDEST DUP1 PUSH2 0x3682 JUMPI JUMPDEST POP POP POP ADD PUSH2 0x35B6 DUP2 SLOAD PUSH2 0x200E JUMP JUMPDEST PUSH1 0x1F DUP2 GT PUSH2 0x3661 JUMPI JUMPDEST POP PUSH2 0x131 DUP2 SSTORE DUP2 MSTORE KECCAK256 PUSH32 0x646174613A6170706C69636174696F6E2F6A736F6E3B6261736536342C65794A DUP2 SSTORE PUSH32 0x755957316C496A6F67496C526F61584D67644739725A57346761584D67596E56 PUSH1 0x1 DUP3 ADD SSTORE PUSH32 0x79626D566B4C694973496D526C63324E796158423061573975496A6F67496C52 PUSH1 0x2 DUP3 ADD SSTORE PUSH32 0x766132567549476C7A494735766443426A623278735A574E3061574A735A5342 PUSH1 0x3 DUP3 ADD SSTORE ADD SSTORE JUMP JUMPDEST PUSH2 0x367C SWAP1 DUP3 DUP5 MSTORE PUSH1 0x5 PUSH1 0x1F DUP7 DUP7 KECCAK256 SWAP3 ADD DUP2 SHR DUP3 ADD SWAP2 ADD PUSH2 0x34FE JUMP JUMPDEST CODESIZE PUSH2 0x35BF JUMP JUMPDEST PUSH1 0x1F DUP2 GT PUSH1 0x1 EQ PUSH2 0x3698 JUMPI POP SSTORE JUMPDEST DUP3 CODESIZE DUP1 PUSH2 0x35A8 JUMP JUMPDEST DUP2 DUP4 MSTORE DUP7 DUP4 KECCAK256 PUSH2 0x36B3 SWAP2 PUSH1 0x1F ADD PUSH1 0x5 SHR DUP2 ADD SWAP1 PUSH1 0x1 ADD PUSH2 0x34FE JUMP JUMPDEST DUP2 DUP7 DUP2 KECCAK256 SWAP2 SSTORE SSTORE PUSH2 0x3690 JUMP JUMPDEST SWAP1 SWAP3 SWAP2 PUSH1 0x1 PUSH1 0x1 PUSH1 0x40 SHL SUB DUP2 GT PUSH2 0x3787 JUMPI JUMPDEST PUSH2 0x36E5 DUP2 PUSH2 0x36DF DUP5 SLOAD PUSH2 0x200E JUMP JUMPDEST DUP5 PUSH2 0x3515 JUMP JUMPDEST PUSH1 0x0 PUSH1 0x1F DUP3 GT PUSH1 0x1 EQ PUSH2 0x371F JUMPI DUP2 SWAP3 SWAP4 SWAP5 PUSH1 0x0 SWAP3 PUSH2 0x3714 JUMPI JUMPDEST POP POP DUP2 PUSH1 0x1 SHL SWAP2 PUSH1 0x0 NOT SWAP1 PUSH1 0x3 SHL SHR NOT AND OR SWAP1 SSTORE JUMP JUMPDEST ADD CALLDATALOAD SWAP1 POP CODESIZE DUP1 PUSH2 0x36FE JUMP JUMPDEST PUSH1 0x1F NOT DUP3 AND SWAP5 PUSH2 0x3734 DUP5 PUSH1 0x0 MSTORE PUSH1 0x20 PUSH1 0x0 KECCAK256 SWAP1 JUMP JUMPDEST SWAP2 DUP1 JUMPDEST DUP8 DUP2 LT PUSH2 0x376F JUMPI POP DUP4 PUSH1 0x1 SWAP6 SWAP7 SWAP8 LT PUSH2 0x3755 JUMPI JUMPDEST POP POP POP DUP2 SHL ADD SWAP1 SSTORE JUMP JUMPDEST ADD CALLDATALOAD PUSH1 0x0 NOT PUSH1 0x3 DUP5 SWAP1 SHL PUSH1 0xF8 AND SHR NOT AND SWAP1 SSTORE CODESIZE DUP1 DUP1 PUSH2 0x374B JUMP JUMPDEST SWAP1 SWAP3 PUSH1 0x20 PUSH1 0x1 DUP2 SWAP3 DUP7 DUP7 ADD CALLDATALOAD DUP2 SSTORE ADD SWAP5 ADD SWAP2 ADD PUSH2 0x3737 JUMP JUMPDEST PUSH2 0x378F PUSH2 0x19EA JUMP JUMPDEST PUSH2 0x36D1 JUMP JUMPDEST SWAP1 PUSH1 0x1 PUSH1 0x1 PUSH1 0x40 SHL SUB DUP4 GT PUSH2 0x3817 JUMPI JUMPDEST PUSH1 0x1 PUSH1 0x40 SHL DUP4 GT PUSH2 0x380A JUMPI JUMPDEST DUP2 SLOAD DUP4 DUP4 SSTORE DUP1 DUP5 LT PUSH2 0x37EC JUMPI JUMPDEST POP SWAP1 PUSH1 0x0 MSTORE PUSH1 0x20 DUP1 PUSH1 0x0 KECCAK256 SWAP1 PUSH1 0x0 JUMPDEST DUP5 DUP2 LT PUSH2 0x37DA JUMPI POP POP POP POP POP JUMP JUMPDEST DUP4 CALLDATALOAD DUP4 DUP3 ADD SSTORE SWAP3 DUP2 ADD SWAP3 PUSH1 0x1 ADD PUSH2 0x37CC JUMP JUMPDEST PUSH2 0x3804 SWAP1 DUP4 PUSH1 0x0 MSTORE DUP5 PUSH1 0x20 PUSH1 0x0 KECCAK256 SWAP2 DUP3 ADD SWAP2 ADD PUSH2 0x34FE JUMP JUMPDEST CODESIZE PUSH2 0x37BD JUMP JUMPDEST PUSH2 0x3812 PUSH2 0x19EA JUMP JUMPDEST PUSH2 0x37B0 JUMP JUMPDEST PUSH2 0x381F PUSH2 0x19EA JUMP JUMPDEST PUSH2 0x37A4 JUMP JUMPDEST SWAP1 PUSH1 0x1 PUSH1 0x1 PUSH1 0x40 SHL SUB DUP4 GT PUSH2 0x38B8 JUMPI JUMPDEST PUSH1 0x1 PUSH1 0x40 SHL DUP4 GT PUSH2 0x38AB JUMPI JUMPDEST DUP2 SLOAD DUP4 DUP4 SSTORE DUP1 DUP5 LT PUSH2 0x3882 JUMPI JUMPDEST POP PUSH2 0x385E SWAP1 SWAP2 PUSH1 0x0 MSTORE PUSH1 0x20 PUSH1 0x0 KECCAK256 SWAP1 JUMP JUMPDEST PUSH1 0x0 JUMPDEST DUP4 DUP2 LT PUSH2 0x386E JUMPI POP POP POP POP JUMP JUMPDEST PUSH1 0x1 SWAP1 PUSH1 0x20 DUP5 CALLDATALOAD SWAP5 ADD SWAP4 DUP2 DUP5 ADD SSTORE ADD PUSH2 0x3861 JUMP JUMPDEST PUSH1 0x0 DUP4 DUP2 MSTORE DUP5 PUSH1 0x20 DUP3 KECCAK256 SWAP3 DUP4 ADD SWAP3 ADD JUMPDEST DUP3 DUP2 LT PUSH2 0x38A0 JUMPI POP POP PUSH2 0x384D JUMP JUMPDEST DUP2 DUP2 SSTORE PUSH1 0x1 ADD PUSH2 0x3892 JUMP JUMPDEST PUSH2 0x38B3 PUSH2 0x19EA JUMP JUMPDEST PUSH2 0x3840 JUMP JUMPDEST PUSH2 0x38C0 PUSH2 0x19EA JUMP JUMPDEST PUSH2 0x3834 JUMP JUMPDEST SWAP1 CALLDATALOAD SWAP1 PUSH1 0x1E NOT DUP2 CALLDATASIZE SUB ADD DUP3 SLT ISZERO PUSH2 0xE JUMPI ADD DUP1 CALLDATALOAD SWAP1 PUSH1 0x1 PUSH1 0x1 PUSH1 0x40 SHL SUB DUP3 GT PUSH2 0xE JUMPI PUSH1 0x20 ADD SWAP2 DUP2 PUSH1 0x6 SHL CALLDATASIZE SUB DUP4 SGT PUSH2 0xE JUMPI JUMP JUMPDEST SWAP1 PUSH1 0x20 SWAP1 PUSH2 0x3928 DUP2 CALLDATALOAD PUSH2 0x390C DUP2 PUSH2 0x76E JUMP JUMPDEST DUP5 SLOAD PUSH1 0x1 PUSH1 0x1 PUSH1 0xA0 SHL SUB NOT AND PUSH1 0x1 PUSH1 0x1 PUSH1 0xA0 SHL SUB SWAP1 SWAP2 AND OR DUP5 SSTORE JUMP JUMPDEST ADD CALLDATALOAD PUSH2 0x3933 DUP2 PUSH2 0x2957 JUMP JUMPDEST DUP2 SLOAD PUSH2 0xFFFF PUSH1 0xA0 SHL NOT AND PUSH1 0xA0 SWAP2 SWAP1 SWAP2 SHL PUSH2 0xFFFF PUSH1 0xA0 SHL AND OR SWAP1 SSTORE JUMP JUMPDEST SWAP1 PUSH1 0x1 PUSH1 0x40 SHL DUP4 GT PUSH2 0x39D0 JUMPI JUMPDEST DUP2 SLOAD DUP4 DUP4 SSTORE DUP1 DUP5 LT PUSH2 0x39A7 JUMPI JUMPDEST POP PUSH2 0x397A SWAP1 SWAP2 PUSH1 0x0 MSTORE PUSH1 0x20 PUSH1 0x0 KECCAK256 SWAP1 JUMP JUMPDEST PUSH1 0x0 SWAP2 JUMPDEST DUP4 DUP4 LT PUSH2 0x398B JUMPI POP POP POP POP JUMP JUMPDEST PUSH1 0x1 PUSH1 0x40 DUP3 PUSH2 0x399B DUP4 SWAP5 DUP7 PUSH2 0x38FA JUMP JUMPDEST ADD SWAP3 ADD SWAP3 ADD SWAP2 SWAP1 PUSH2 0x397E JUMP JUMPDEST PUSH1 0x0 DUP4 DUP2 MSTORE DUP5 PUSH1 0x20 DUP3 KECCAK256 SWAP3 DUP4 ADD SWAP3 ADD JUMPDEST DUP3 DUP2 LT PUSH2 0x39C5 JUMPI POP POP PUSH2 0x3969 JUMP JUMPDEST DUP2 DUP2 SSTORE PUSH1 0x1 ADD PUSH2 0x39B7 JUMP JUMPDEST PUSH2 0x39D8 PUSH2 0x19EA JUMP JUMPDEST PUSH2 0x395C JUMP JUMPDEST DUP2 PUSH1 0x40 MLOAD SWAP3 DUP4 SWAP3 DUP4 CALLDATACOPY DUP2 ADD PUSH1 0x0 DUP2 MSTORE SUB SWAP1 KECCAK256 SWAP1 JUMP JUMPDEST SWAP1 PUSH2 0x3A07 DUP3 PUSH1 0x0 MSTORE PUSH1 0xA PUSH1 0x20 MSTORE PUSH1 0x40 PUSH1 0x0 KECCAK256 SWAP1 JUMP JUMPDEST SWAP2 PUSH2 0x3A14 PUSH2 0x390C DUP4 PUSH2 0x2BB3 JUMP JUMPDEST PUSH1 0x20 DUP3 ADD CALLDATALOAD DUP1 PUSH1 0x1 DUP6 ADD SSTORE PUSH1 0x40 DUP4 ADD CALLDATALOAD SWAP1 DUP2 PUSH1 0x2 DUP7 ADD SSTORE DUP3 PUSH32 0xB85051017293732C5B533B177EFC66475411A9FDD5FBC8ECB619906658413D6 PUSH1 0x60 DUP7 ADD CALLDATALOAD SWAP4 DUP5 PUSH1 0x3 DUP10 ADD SSTORE PUSH2 0x3A73 PUSH2 0x3A69 PUSH1 0x80 DUP10 ADD DUP10 PUSH2 0x2C09 JUMP JUMPDEST SWAP1 PUSH1 0x4 DUP12 ADD PUSH2 0x36BF JUMP JUMPDEST PUSH1 0xA0 DUP8 ADD PUSH2 0x3A8E PUSH2 0x3A84 DUP3 DUP11 PUSH2 0x2C09 JUMP JUMPDEST SWAP1 PUSH1 0x5 DUP13 ADD PUSH2 0x36BF JUMP JUMPDEST PUSH2 0x3AE0 PUSH1 0x8 PUSH1 0xC0 DUP11 ADD SWAP11 PUSH2 0x3AAF PUSH2 0x3AA5 DUP14 DUP14 PUSH2 0x2C3B JUMP JUMPDEST SWAP1 PUSH1 0x6 DUP5 ADD PUSH2 0x3794 JUMP JUMPDEST PUSH2 0x3AC9 PUSH2 0x3ABF PUSH1 0xE0 DUP14 ADD DUP14 PUSH2 0x2C3B JUMP JUMPDEST SWAP1 PUSH1 0x7 DUP5 ADD PUSH2 0x3824 JUMP JUMPDEST PUSH2 0x3AD7 PUSH2 0x100 DUP13 ADD DUP13 PUSH2 0x38C5 JUMP JUMPDEST SWAP3 SWAP1 SWAP2 ADD PUSH2 0x394F JUMP JUMPDEST PUSH2 0x3B26 PUSH2 0x3AFF PUSH2 0x3AF9 PUSH2 0x3AF2 DUP12 PUSH2 0x2BB3 JUMP JUMPDEST SWAP4 DUP12 PUSH2 0x2C09 JUMP JUMPDEST SWAP1 PUSH2 0x39DD JUMP JUMPDEST SWAP7 PUSH1 0x40 MLOAD SWAP4 DUP5 SWAP4 PUSH1 0x1 DUP1 PUSH1 0xA0 SHL SUB AND SWAP8 DUP5 PUSH1 0x40 SWAP2 SWAP5 SWAP4 SWAP3 PUSH1 0x60 DUP3 ADD SWAP6 DUP3 MSTORE PUSH1 0x20 DUP3 ADD MSTORE ADD MSTORE JUMP JUMPDEST SUB SWAP1 LOG4 PUSH2 0x3B33 DUP4 DUP4 PUSH2 0x2C3B JUMP JUMPDEST SWAP4 SWAP1 POP PUSH1 0x0 SWAP3 DUP4 JUMPDEST DUP6 DUP2 LT PUSH2 0x3B4A JUMPI POP POP POP POP POP POP JUMP JUMPDEST DUP1 PUSH2 0x3B5C PUSH2 0x3B87 SWAP3 PUSH2 0x1424 DUP7 DUP7 PUSH2 0x2C3B JUMP JUMPDEST CALLDATALOAD DUP6 PUSH32 0x65327253F8D67C2E23CB4DFAB28CA7437B04E9098CF4E985073D76DF25209AD4 DUP9 DUP1 LOG3 PUSH2 0x2F80 JUMP JUMPDEST PUSH2 0x3B3B JUMP JUMPDEST SWAP3 SWAP2 SWAP3 PUSH1 0x0 MSTORE PUSH1 0x20 SWAP3 PUSH1 0xC DUP5 MSTORE PUSH1 0x40 PUSH1 0x0 KECCAK256 SWAP2 PUSH1 0x1 PUSH1 0x1 PUSH1 0x40 SHL SUB DUP3 GT PUSH2 0x3C43 JUMPI JUMPDEST PUSH2 0x3BC2 DUP3 PUSH2 0x3BBC DUP6 SLOAD PUSH2 0x200E JUMP JUMPDEST DUP6 PUSH2 0x3515 JUMP JUMPDEST PUSH1 0x0 SWAP5 PUSH1 0x1F DUP4 GT PUSH1 0x1 EQ PUSH2 0x3BF3 JUMPI POP SWAP4 DUP2 SWAP3 SWAP4 SWAP5 PUSH1 0x0 SWAP3 PUSH2 0x3714 JUMPI POP POP DUP2 PUSH1 0x1 SHL SWAP2 PUSH1 0x0 NOT SWAP1 PUSH1 0x3 SHL SHR NOT AND OR SWAP1 SSTORE JUMP JUMPDEST SWAP1 PUSH1 0x1F NOT DUP4 AND SWAP6 PUSH2 0x3C09 DUP6 PUSH1 0x0 MSTORE PUSH1 0x20 PUSH1 0x0 KECCAK256 SWAP1 JUMP JUMPDEST SWAP3 DUP2 SWAP1 JUMPDEST DUP9 DUP3 LT PUSH2 0x3C2B JUMPI POP POP DUP4 PUSH1 0x1 SWAP6 SWAP7 SWAP8 LT PUSH2 0x3755 JUMPI POP POP POP DUP2 SHL ADD SWAP1 SSTORE JUMP JUMPDEST DUP1 PUSH1 0x1 DUP5 SWAP7 DUP3 SWAP5 SWAP6 DUP8 ADD CALLDATALOAD DUP2 SSTORE ADD SWAP6 ADD SWAP3 ADD SWAP1 PUSH2 0x3C0D JUMP JUMPDEST PUSH2 0x3C4B PUSH2 0x19EA JUMP JUMPDEST PUSH2 0x3BAE JUMP JUMPDEST SWAP3 SWAP2 SWAP3 PUSH1 0x0 MSTORE PUSH1 0x20 SWAP3 PUSH1 0xD DUP5 MSTORE PUSH1 0x40 PUSH1 0x0 KECCAK256 SWAP2 PUSH1 0x1 PUSH1 0x1 PUSH1 0x40 SHL SUB DUP3 GT PUSH2 0x3D01 JUMPI JUMPDEST PUSH2 0x3C80 DUP3 PUSH2 0x3BBC DUP6 SLOAD PUSH2 0x200E JUMP JUMPDEST PUSH1 0x0 SWAP5 PUSH1 0x1F DUP4 GT PUSH1 0x1 EQ PUSH2 0x3CB1 JUMPI POP SWAP4 DUP2 SWAP3 SWAP4 SWAP5 PUSH1 0x0 SWAP3 PUSH2 0x3714 JUMPI POP POP DUP2 PUSH1 0x1 SHL SWAP2 PUSH1 0x0 NOT SWAP1 PUSH1 0x3 SHL SHR NOT AND OR SWAP1 SSTORE JUMP JUMPDEST SWAP1 PUSH1 0x1F NOT DUP4 AND SWAP6 PUSH2 0x3CC7 DUP6 PUSH1 0x0 MSTORE PUSH1 0x20 PUSH1 0x0 KECCAK256 SWAP1 JUMP JUMPDEST SWAP3 DUP2 SWAP1 JUMPDEST DUP9 DUP3 LT PUSH2 0x3CE9 JUMPI POP POP DUP4 PUSH1 0x1 SWAP6 SWAP7 SWAP8 LT PUSH2 0x3755 JUMPI POP POP POP DUP2 SHL ADD SWAP1 SSTORE JUMP JUMPDEST DUP1 PUSH1 0x1 DUP5 SWAP7 DUP3 SWAP5 SWAP6 DUP8 ADD CALLDATALOAD DUP2 SSTORE ADD SWAP6 ADD SWAP3 ADD SWAP1 PUSH2 0x3CCB JUMP JUMPDEST PUSH2 0x3D09 PUSH2 0x19EA JUMP JUMPDEST PUSH2 0x3C72 JUMP JUMPDEST SWAP2 SWAP1 PUSH1 0x3 DUP3 GT PUSH2 0x3DD2 JUMPI PUSH1 0x0 DUP3 ISZERO PUSH2 0x3DA7 JUMPI POP PUSH32 0xB237134D29775150B1EDF87AF1DC343262244AF7CBB474CFC64CB6E8824AF663 PUSH2 0x3D94 PUSH2 0x3D4F DUP5 DUP5 PUSH2 0x2F9C JUMP JUMPDEST CALLDATALOAD SWAP3 JUMPDEST PUSH1 0x0 PUSH1 0x1 DUP7 GT ISZERO PUSH2 0x3DA1 JUMPI POP PUSH2 0x3D68 DUP6 DUP3 PUSH2 0x2FAD JUMP JUMPDEST CALLDATALOAD SWAP5 JUMPDEST PUSH1 0x0 SWAP2 PUSH1 0x2 DUP3 GT ISZERO PUSH2 0x3D99 JUMPI PUSH2 0x3D81 SWAP3 POP PUSH2 0x2FC4 JUMP JUMPDEST CALLDATALOAD SWAP5 JUMPDEST PUSH1 0x40 MLOAD SWAP1 DUP2 MSTORE SWAP1 DUP2 SWAP1 PUSH1 0x20 DUP3 ADD SWAP1 JUMP JUMPDEST SUB SWAP1 LOG4 JUMP JUMPDEST POP POP SWAP5 PUSH2 0x3D84 JUMP JUMPDEST SWAP5 PUSH2 0x3D6B JUMP JUMPDEST PUSH2 0x3D94 PUSH32 0xB237134D29775150B1EDF87AF1DC343262244AF7CBB474CFC64CB6E8824AF663 SWAP2 SWAP3 PUSH2 0x3D52 JUMP JUMPDEST PUSH1 0x40 MLOAD PUSH3 0x461BCD PUSH1 0xE5 SHL DUP2 MSTORE PUSH1 0x20 PUSH1 0x4 DUP3 ADD MSTORE PUSH1 0x38 PUSH1 0x24 DUP3 ADD MSTORE PUSH32 0x4461746153746F726167653A2074616773206C656E677468206D757374206265 PUSH1 0x44 DUP3 ADD MSTORE PUSH32 0x206C657373207468616E206F7220657175616C20746F20330000000000000000 PUSH1 0x64 DUP3 ADD MSTORE PUSH1 0x84 SWAP1 REVERT JUMPDEST PUSH1 0x20 SWAP1 PUSH1 0x1 PUSH1 0x1 PUSH1 0x40 SHL SUB DUP2 GT PUSH2 0x3E55 JUMPI PUSH1 0x5 SHL ADD SWAP1 JUMP JUMPDEST PUSH2 0x2FEC PUSH2 0x19EA JUMP JUMPDEST PUSH1 0x40 MLOAD SWAP1 PUSH2 0x120 DUP3 ADD DUP3 DUP2 LT PUSH1 0x1 PUSH1 0x1 PUSH1 0x40 SHL SUB DUP3 GT OR PUSH2 0x3EB7 JUMPI JUMPDEST PUSH1 0x40 MSTORE DUP2 PUSH1 0x0 DUP2 MSTORE PUSH1 0x0 PUSH1 0x20 DUP3 ADD MSTORE PUSH1 0x0 PUSH1 0x40 DUP3 ADD MSTORE PUSH2 0x100 PUSH1 0x60 SWAP2 PUSH1 0x0 DUP4 DUP3 ADD MSTORE DUP3 PUSH1 0x80 DUP3 ADD MSTORE DUP3 PUSH1 0xA0 DUP3 ADD MSTORE DUP3 PUSH1 0xC0 DUP3 ADD MSTORE DUP3 PUSH1 0xE0 DUP3 ADD MSTORE ADD MSTORE JUMP JUMPDEST PUSH2 0x3EBF PUSH2 0x19EA JUMP JUMPDEST PUSH2 0x3E79 JUMP JUMPDEST SWAP1 PUSH2 0x3ECE DUP3 PUSH2 0x3E3D JUMP JUMPDEST PUSH2 0x3EDB PUSH1 0x40 MLOAD SWAP2 DUP3 PUSH2 0x1A44 JUMP JUMPDEST DUP3 DUP2 MSTORE DUP1 SWAP3 PUSH2 0x3EEC PUSH1 0x1F NOT SWAP2 PUSH2 0x3E3D JUMP JUMPDEST ADD SWAP1 PUSH1 0x20 CALLDATASIZE SWAP2 ADD CALLDATACOPY JUMP JUMPDEST SWAP1 PUSH2 0x3F00 DUP3 PUSH2 0x3E3D JUMP JUMPDEST PUSH2 0x3F0D PUSH1 0x40 MLOAD SWAP2 DUP3 PUSH2 0x1A44 JUMP JUMPDEST DUP3 DUP2 MSTORE DUP1 SWAP3 PUSH2 0x3F1E PUSH1 0x1F NOT SWAP2 PUSH2 0x3E3D JUMP JUMPDEST ADD SWAP1 PUSH1 0x0 JUMPDEST DUP3 DUP2 LT PUSH2 0x3F2F JUMPI POP POP POP JUMP JUMPDEST DUP1 PUSH1 0x60 PUSH1 0x20 DUP1 SWAP4 DUP6 ADD ADD MSTORE ADD PUSH2 0x3F23 JUMP JUMPDEST PUSH1 0x20 SWAP2 DUP2 MLOAD DUP2 LT ISZERO PUSH2 0x3F55 JUMPI JUMPDEST PUSH1 0x5 SHL ADD ADD SWAP1 JUMP JUMPDEST PUSH2 0x3F5D PUSH2 0x275F JUMP JUMPDEST PUSH2 0x3F4D JUMP JUMPDEST SWAP1 PUSH1 0x40 MLOAD SWAP2 DUP3 DUP2 SLOAD SWAP2 DUP3 DUP3 MSTORE PUSH1 0x20 SWAP3 DUP4 DUP4 ADD SWAP2 PUSH1 0x0 MSTORE DUP4 PUSH1 0x0 KECCAK256 SWAP4 PUSH1 0x0 SWAP1 JUMPDEST DUP3 DUP3 LT PUSH2 0x3F97 JUMPI POP POP POP PUSH2 0x78A SWAP3 POP SUB DUP4 PUSH2 0x1A44 JUMP JUMPDEST DUP6 SLOAD DUP5 MSTORE PUSH1 0x1 SWAP6 DUP7 ADD SWAP6 DUP9 SWAP6 POP SWAP4 DUP2 ADD SWAP4 SWAP1 SWAP2 ADD SWAP1 PUSH2 0x3F81 JUMP JUMPDEST SWAP1 DUP2 SLOAD PUSH2 0x3FBD DUP2 PUSH2 0x3E3D JUMP JUMPDEST SWAP3 PUSH1 0x40 SWAP4 PUSH2 0x3FCD DUP6 MLOAD SWAP2 DUP3 PUSH2 0x1A44 JUMP JUMPDEST DUP3 DUP2 MSTORE DUP1 SWAP5 PUSH1 0x20 DUP1 SWAP3 ADD SWAP3 PUSH1 0x0 MSTORE DUP2 PUSH1 0x0 KECCAK256 SWAP1 PUSH1 0x0 SWAP4 JUMPDEST DUP6 DUP6 LT PUSH2 0x3FF3 JUMPI POP POP POP POP POP POP JUMP JUMPDEST PUSH1 0x1 DUP5 DUP2 SWAP3 DUP5 MLOAD DUP6 DUP2 ADD DUP2 DUP2 LT PUSH1 0x1 PUSH1 0x1 PUSH1 0x40 SHL SUB DUP3 GT OR PUSH2 0x4037 JUMPI JUMPDEST DUP7 MSTORE PUSH2 0xFFFF DUP8 SLOAD DUP6 DUP1 PUSH1 0xA0 SHL SUB DUP2 AND DUP4 MSTORE PUSH1 0xA0 SHR AND DUP4 DUP3 ADD MSTORE DUP2 MSTORE ADD SWAP4 ADD SWAP5 ADD SWAP4 SWAP2 PUSH2 0x3FE4 JUMP JUMPDEST PUSH2 0x403F PUSH2 0x19EA JUMP JUMPDEST PUSH2 0x4010 JUMP JUMPDEST SWAP1 PUSH2 0x404D PUSH2 0x3E5D JUMP JUMPDEST POP PUSH1 0x60 DUP3 PUSH1 0x0 MSTORE PUSH1 0xA PUSH1 0x20 MSTORE PUSH1 0x40 PUSH1 0x0 KECCAK256 SWAP2 PUSH2 0x4067 PUSH2 0x1A65 JUMP JUMPDEST DUP4 SLOAD PUSH1 0x1 PUSH1 0x1 PUSH1 0xA0 SHL SUB AND DUP2 MSTORE PUSH1 0x1 DUP5 ADD SLOAD PUSH1 0x20 DUP3 ADD MSTORE PUSH2 0x40E3 PUSH1 0x8 PUSH1 0x2 DUP7 ADD SLOAD SWAP6 PUSH1 0x40 DUP5 ADD SWAP7 DUP8 MSTORE PUSH1 0x3 DUP2 ADD SLOAD DUP7 DUP6 ADD MSTORE PUSH2 0x40A5 PUSH1 0x4 DUP3 ADD PUSH2 0x20DE JUMP JUMPDEST PUSH1 0x80 DUP6 ADD MSTORE PUSH2 0x40B6 PUSH1 0x5 DUP3 ADD PUSH2 0x20DE JUMP JUMPDEST PUSH1 0xA0 DUP6 ADD MSTORE PUSH2 0x40C7 PUSH1 0x6 DUP3 ADD PUSH2 0x3F62 JUMP JUMPDEST PUSH1 0xC0 DUP6 ADD MSTORE PUSH2 0x40D8 PUSH1 0x7 DUP3 ADD PUSH2 0x3F62 JUMP JUMPDEST PUSH1 0xE0 DUP6 ADD MSTORE ADD PUSH2 0x3FB1 JUMP JUMPDEST PUSH2 0x100 DUP3 ADD MSTORE SWAP4 PUSH2 0x40FE DUP2 PUSH1 0x0 MSTORE PUSH1 0xE PUSH1 0x20 MSTORE PUSH1 0x40 PUSH1 0x0 KECCAK256 SWAP1 JUMP JUMPDEST SLOAD SWAP4 MLOAD TIMESTAMP LT ISZERO PUSH2 0x4125 JUMPI JUMPDEST PUSH2 0x4120 PUSH2 0x4DD SWAP2 PUSH1 0x0 MSTORE PUSH1 0xC PUSH1 0x20 MSTORE PUSH1 0x40 PUSH1 0x0 KECCAK256 SWAP1 JUMP JUMPDEST PUSH2 0x20DE JUMP JUMPDEST SWAP2 POP PUSH2 0x4DD PUSH2 0x4120 PUSH2 0x4144 PUSH2 0x4120 DUP6 PUSH1 0x0 MSTORE PUSH1 0xD PUSH1 0x20 MSTORE PUSH1 0x40 PUSH1 0x0 KECCAK256 SWAP1 JUMP JUMPDEST SWAP4 SWAP2 POP POP PUSH2 0x4109 JUMP JUMPDEST PUSH2 0x4156 SWAP1 PUSH2 0x2776 JUMP JUMPDEST SWAP1 SLOAD SWAP1 PUSH1 0x3 SHL SHR DUP1 PUSH1 0x0 MSTORE PUSH1 0x11 PUSH1 0x20 MSTORE SWAP1 JUMP JUMPDEST PUSH1 0xF SLOAD DUP2 LT ISZERO PUSH2 0x41AA JUMPI JUMPDEST PUSH32 0x8D1108E10BCB7C27DDDFC02ED9D693A074039D026CF4EA4240B40F7D581AC802 ADD SLOAD SWAP1 DUP2 PUSH1 0x0 MSTORE PUSH1 0x11 PUSH1 0x20 MSTORE PUSH1 0x40 PUSH1 0x0 KECCAK256 SLOAD SWAP1 JUMP JUMPDEST PUSH2 0x41B2 PUSH2 0x275F JUMP JUMPDEST PUSH2 0x4174 JUMP JUMPDEST SWAP2 SWAP1 PUSH2 0x41C5 PUSH1 0x2 SWAP2 DUP5 PUSH2 0x27BB JUMP JUMPDEST SWAP1 SLOAD SWAP1 PUSH1 0x3 SHL SHR SWAP3 DUP4 PUSH1 0x0 MSTORE ADD PUSH1 0x20 MSTORE PUSH1 0x40 PUSH1 0x0 KECCAK256 SLOAD SWAP1 JUMP JUMPDEST PUSH1 0x0 MSTORE PUSH1 0x11 PUSH1 0x20 MSTORE PUSH1 0x40 PUSH1 0x0 KECCAK256 SLOAD DUP1 ISZERO DUP1 ISZERO SWAP1 PUSH2 0x4243 JUMPI JUMPDEST ISZERO PUSH2 0x41FE JUMPI SWAP1 JUMP JUMPDEST PUSH1 0x40 MLOAD PUSH3 0x461BCD PUSH1 0xE5 SHL DUP2 MSTORE PUSH1 0x20 PUSH1 0x4 DUP3 ADD MSTORE PUSH1 0x1E PUSH1 0x24 DUP3 ADD MSTORE PUSH32 0x456E756D657261626C654D61703A206E6F6E6578697374656E74206B65790000 PUSH1 0x44 DUP3 ADD MSTORE PUSH1 0x64 SWAP1 REVERT JUMPDEST POP PUSH1 0x10 PUSH1 0x20 MSTORE PUSH1 0x40 PUSH1 0x0 KECCAK256 SLOAD ISZERO ISZERO PUSH2 0x41F6 JUMP JUMPDEST DUP2 PUSH1 0x0 MSTORE PUSH1 0x2 DUP2 ADD PUSH1 0x20 MSTORE PUSH1 0x40 PUSH1 0x0 KECCAK256 SLOAD SWAP2 DUP3 ISZERO SWAP2 DUP3 ISZERO SWAP3 PUSH2 0x427D JUMPI JUMPDEST POP POP ISZERO PUSH2 0x41FE JUMPI SWAP1 JUMP JUMPDEST PUSH2 0x4297 SWAP3 POP PUSH1 0x1 SWAP2 PUSH1 0x0 MSTORE ADD PUSH1 0x20 MSTORE PUSH1 0x40 PUSH1 0x0 KECCAK256 SLOAD ISZERO ISZERO SWAP1 JUMP JUMPDEST CODESIZE DUP1 PUSH2 0x4273 JUMP JUMPDEST DUP1 PUSH1 0x0 MSTORE PUSH1 0x10 PUSH1 0x20 MSTORE PUSH1 0x40 PUSH1 0x0 KECCAK256 SLOAD ISZERO PUSH1 0x0 EQ PUSH2 0x432A JUMPI DUP1 PUSH1 0xF SLOAD PUSH1 0x1 PUSH1 0x40 SHL DUP2 LT ISZERO PUSH2 0x431D JUMPI JUMPDEST PUSH1 0x1 DUP2 ADD DUP1 PUSH1 0xF SSTORE DUP2 LT ISZERO PUSH2 0x4310 JUMPI JUMPDEST PUSH32 0x8D1108E10BCB7C27DDDFC02ED9D693A074039D026CF4EA4240B40F7D581AC802 ADD SSTORE PUSH1 0xF SLOAD SWAP1 PUSH1 0x0 MSTORE PUSH1 0x10 PUSH1 0x20 MSTORE PUSH1 0x40 PUSH1 0x0 KECCAK256 SSTORE PUSH1 0x1 SWAP1 JUMP JUMPDEST PUSH2 0x4318 PUSH2 0x275F JUMP JUMPDEST PUSH2 0x42D6 JUMP JUMPDEST PUSH2 0x4325 PUSH2 0x19EA JUMP JUMPDEST PUSH2 0x42C6 JUMP JUMPDEST POP PUSH1 0x0 SWAP1 JUMP JUMPDEST DUP1 PUSH1 0x0 MSTORE PUSH1 0x14 PUSH1 0x20 MSTORE PUSH1 0x40 PUSH1 0x0 KECCAK256 SLOAD ISZERO PUSH1 0x0 EQ PUSH2 0x432A JUMPI DUP1 PUSH1 0x13 SLOAD PUSH1 0x1 PUSH1 0x40 SHL DUP2 LT ISZERO PUSH2 0x43AF JUMPI JUMPDEST PUSH1 0x1 DUP2 ADD DUP1 PUSH1 0x13 SSTORE DUP2 LT ISZERO PUSH2 0x43A2 JUMPI JUMPDEST PUSH32 0x66DE8FFDA797E3DE9C05E8FC57B3BF0EC28A930D40B0D285D93C06501CF6A090 ADD SSTORE PUSH1 0x13 SLOAD SWAP1 PUSH1 0x0 MSTORE PUSH1 0x14 PUSH1 0x20 MSTORE PUSH1 0x40 PUSH1 0x0 KECCAK256 SSTORE PUSH1 0x1 SWAP1 JUMP JUMPDEST PUSH2 0x43AA PUSH2 0x275F JUMP JUMPDEST PUSH2 0x4368 JUMP JUMPDEST PUSH2 0x43B7 PUSH2 0x19EA JUMP JUMPDEST PUSH2 0x4358 JUMP JUMPDEST PUSH1 0x0 DUP3 DUP2 MSTORE PUSH1 0x1 DUP3 ADD PUSH1 0x20 MSTORE PUSH1 0x40 SWAP1 KECCAK256 SLOAD PUSH2 0x442C JUMPI DUP1 DUP3 PUSH2 0x43F2 PUSH1 0x1 SWAP4 SLOAD PUSH1 0x1 PUSH1 0x40 SHL DUP2 LT ISZERO PUSH2 0x441F JUMPI JUMPDEST DUP5 DUP2 ADD DUP5 SSTORE DUP4 PUSH2 0x27BB JUMP JUMPDEST DUP2 SWAP3 SWAP2 SLOAD SWAP1 PUSH1 0x3 SHL PUSH1 0x0 NOT DUP2 SHL SWAP3 DUP4 SWAP2 SHL AND SWAP2 NOT AND OR SWAP1 SSTORE DUP1 SLOAD SWAP3 PUSH1 0x0 MSTORE ADD PUSH1 0x20 MSTORE PUSH1 0x40 PUSH1 0x0 KECCAK256 SSTORE PUSH1 0x1 SWAP1 JUMP JUMPDEST PUSH2 0x4427 PUSH2 0x19EA JUMP JUMPDEST PUSH2 0x43E7 JUMP JUMPDEST POP POP PUSH1 0x0 SWAP1 JUMP JUMPDEST PUSH1 0x1 DUP1 PUSH1 0xA0 SHL SUB AND PUSH1 0x0 MSTORE PUSH1 0x12 PUSH1 0x20 MSTORE PUSH1 0x2 PUSH2 0x4454 PUSH1 0x40 PUSH1 0x0 KECCAK256 SWAP3 DUP4 PUSH2 0x27BB JUMP JUMPDEST SWAP1 SLOAD SWAP1 PUSH1 0x3 SHL SHR SWAP2 DUP3 PUSH1 0x0 MSTORE ADD PUSH1 0x20 MSTORE SWAP1 JUMP JUMPDEST PUSH1 0x1 PUSH1 0x1 PUSH1 0xA0 SHL SUB AND PUSH1 0x0 SWAP1 DUP2 MSTORE PUSH1 0x12 PUSH1 0x20 SWAP1 DUP2 MSTORE PUSH1 0x40 DUP1 DUP4 KECCAK256 DUP1 SLOAD DUP6 DUP6 MSTORE PUSH1 0x2 DUP3 ADD SWAP1 SWAP4 MSTORE SWAP3 KECCAK256 SSTORE PUSH2 0x449A SWAP2 SWAP1 PUSH2 0x43BC JUMP JUMPDEST POP JUMP JUMPDEST PUSH1 0x13 SLOAD DUP2 LT ISZERO PUSH2 0x44DC JUMPI JUMPDEST PUSH1 0x13 PUSH1 0x0 MSTORE PUSH32 0x66DE8FFDA797E3DE9C05E8FC57B3BF0EC28A930D40B0D285D93C06501CF6A090 ADD SLOAD PUSH1 0x1 PUSH1 0x1 PUSH1 0xA0 SHL SUB AND SWAP1 JUMP JUMPDEST PUSH2 0x44E4 PUSH2 0x275F JUMP JUMPDEST PUSH2 0x44A8 JUMP JUMPDEST PUSH2 0x449A SWAP1 PUSH1 0x1 PUSH1 0x1 PUSH1 0xA0 SHL SUB AND PUSH2 0x4330 JUMP JUMPDEST PUSH2 0x449A SWAP2 PUSH1 0x0 MSTORE PUSH1 0x15 PUSH1 0x20 MSTORE PUSH1 0x40 PUSH1 0x0 KECCAK256 PUSH2 0x43BC JUMP JUMPDEST PUSH1 0x1 PUSH1 0x1 PUSH1 0xA0 SHL SUB AND PUSH1 0x0 SWAP1 DUP2 MSTORE PUSH1 0x16 PUSH1 0x20 MSTORE PUSH1 0x40 SWAP1 KECCAK256 PUSH2 0x449A SWAP2 SWAP1 PUSH2 0x43BC JUMP JUMPDEST PUSH1 0x0 MSTORE PUSH1 0x17 PUSH1 0x20 MSTORE PUSH1 0x2 PUSH2 0x4454 PUSH1 0x40 PUSH1 0x0 KECCAK256 SWAP3 DUP4 PUSH2 0x27BB JUMP JUMPDEST SWAP1 SWAP2 DUP1 PUSH2 0x4557 JUMPI POP POP POP JUMP JUMPDEST PUSH2 0x456B PUSH2 0x4564 DUP3 DUP6 PUSH2 0x2F9C JUMP JUMPDEST CALLDATALOAD DUP4 PUSH2 0x46AE JUMP JUMPDEST PUSH1 0x1 DUP2 GT PUSH2 0x4578 JUMPI POP POP POP JUMP JUMPDEST DUP3 PUSH2 0x4590 PUSH2 0x4589 DUP4 PUSH2 0x45C3 SWAP7 PUSH2 0x2FAD JUMP JUMPDEST CALLDATALOAD DUP5 PUSH2 0x46AE JUMP JUMPDEST PUSH2 0x45E0 PUSH2 0x459D DUP4 DUP4 PUSH2 0x2F9C JUMP JUMPDEST CALLDATALOAD PUSH2 0x45A8 DUP5 DUP5 PUSH2 0x2FAD JUMP JUMPDEST PUSH1 0x40 DUP1 MLOAD PUSH1 0x20 DUP2 ADD SWAP4 DUP5 MSTORE SWAP2 CALLDATALOAD SWAP1 DUP3 ADD MSTORE SWAP6 DUP7 SWAP1 PUSH1 0x60 DUP3 ADD SWAP1 JUMP JUMPDEST SUB SWAP6 PUSH2 0x45D7 PUSH1 0x1F NOT SWAP8 DUP9 DUP2 ADD DUP4 MSTORE DUP3 PUSH2 0x1A44 JUMP JUMPDEST MLOAD SWAP1 KECCAK256 DUP5 PUSH2 0x46AE JUMP JUMPDEST PUSH1 0x2 DUP3 GT PUSH2 0x45EE JUMPI POP POP POP POP JUMP JUMPDEST PUSH2 0x469C PUSH2 0x46A5 SWAP5 PUSH2 0x4609 PUSH2 0x4602 DUP6 DUP6 PUSH2 0x2FC4 JUMP JUMPDEST CALLDATALOAD DUP7 PUSH2 0x46AE JUMP JUMPDEST PUSH2 0x4657 PUSH2 0x4616 DUP6 DUP6 PUSH2 0x2FAD JUMP JUMPDEST CALLDATALOAD PUSH2 0x4642 PUSH2 0x464E PUSH2 0x4627 DUP9 DUP9 PUSH2 0x2FC4 JUMP JUMPDEST PUSH1 0x40 DUP1 MLOAD PUSH1 0x20 DUP2 ADD SWAP6 DUP7 MSTORE SWAP2 CALLDATALOAD SWAP1 DUP3 ADD MSTORE SWAP2 DUP3 SWAP1 PUSH1 0x60 DUP3 ADD SWAP1 JUMP JUMPDEST SUB DUP6 DUP2 ADD DUP4 MSTORE DUP3 PUSH2 0x1A44 JUMP JUMPDEST MLOAD SWAP1 KECCAK256 DUP7 PUSH2 0x46AE JUMP JUMPDEST PUSH2 0x4677 PUSH2 0x4664 DUP6 DUP6 PUSH2 0x2F9C JUMP JUMPDEST CALLDATALOAD SWAP5 PUSH2 0x4670 DUP2 DUP7 PUSH2 0x2FAD JUMP JUMPDEST CALLDATALOAD SWAP5 PUSH2 0x2FC4 JUMP JUMPDEST PUSH1 0x40 DUP1 MLOAD PUSH1 0x20 DUP2 ADD SWAP7 DUP8 MSTORE SWAP1 DUP2 ADD SWAP5 SWAP1 SWAP5 MSTORE CALLDATALOAD PUSH1 0x60 DUP5 ADD MSTORE PUSH1 0x80 SWAP1 DUP2 ADD DUP4 MSTORE DUP3 PUSH2 0x1A44 JUMP JUMPDEST MLOAD SWAP1 KECCAK256 SWAP1 PUSH2 0x46AE JUMP JUMPDEST CODESIZE DUP1 DUP1 DUP1 PUSH2 0x2075 JUMP JUMPDEST PUSH1 0x0 DUP3 DUP2 MSTORE PUSH1 0x17 PUSH1 0x20 MSTORE PUSH1 0x40 DUP2 KECCAK256 SWAP1 PUSH2 0x46D7 DUP4 DUP4 PUSH1 0x1 SWAP2 PUSH1 0x0 MSTORE ADD PUSH1 0x20 MSTORE PUSH1 0x40 PUSH1 0x0 KECCAK256 SLOAD ISZERO ISZERO SWAP1 JUMP JUMPDEST ISZERO PUSH2 0x46E2 JUMPI POP POP POP POP JUMP JUMPDEST PUSH2 0x4705 SWAP4 DUP2 MSTORE PUSH1 0x17 PUSH1 0x20 MSTORE PUSH1 0x40 DUP1 DUP3 KECCAK256 SLOAD SWAP2 DUP5 DUP2 MSTORE PUSH1 0x2 DUP5 ADD PUSH1 0x20 MSTORE KECCAK256 SSTORE PUSH2 0x43BC JUMP JUMPDEST POP CODESIZE DUP1 DUP1 DUP1 PUSH2 0x2075 JUMP INVALID LOG2 PUSH5 0x6970667358 0x22 SLT KECCAK256 0xBD 0x5E LOG1 PUSH15 0x2362BDA49299502F4309CE34AC2AF7 MSIZE INVALID SSTORE CALLCODE 0xC2 PUSH28 0x1D5803F58A642A64736F6C6343000811003300000000000000000000 "},"methodIdentifiers":{"approve(address,uint256)":"095ea7b3","balanceOf(address)":"70a08231","burn(uint256)":"42966c68","creatorAddresses()":"40b94757","creatorByIndex(uint256)":"6d571b6a","creatorsByIndexBatch(uint256[])":"c03d1d91","getApproved(uint256)":"081812fc","getHash((address,uint256,uint256,uint256,string,bytes,uint256[],bytes32[],(address,uint16)[]))":"662ec09e","getUriId(bytes32)":"78292236","isApprovedForAll(address,address)":"e985e9c5","name()":"06fdde03","numberOfCreators()":"1ae69b61","numberOfRepliesToCreator(address)":"f353a732","numberOfRepliesToCreatorBatch(address[])":"2c230901","numberOfTokenReplies(uint256)":"2e0d0718","numberOfTokenRepliesBatch(uint256[])":"cca3c766","numberOfTokensByTag(bytes32)":"4667c884","numberOfTokensByTagBatch(bytes32[])":"8f93fb39","numberOfTokensOfCreator(address)":"60f6a4a3","numberOfTokensOfCreatorBatch(address[])":"31d99545","numberOfTokensTraceable()":"dd468791","ownerOf(uint256)":"6352211e","repliesToCreator(address)":"b1582201","repliesToCreatorByIndex(address,uint256)":"f99458a4","repliesToCreatorByIndexBatch(address,uint256[])":"fe649b7e","safeMint((address,uint256,uint256,uint256,string,bytes,uint256[],bytes32[],(address,uint16)[]),bytes,bytes)":"7372e98d","safeMintAndSetTraceStorage((address,uint256,uint256,uint256,string,bytes,uint256[],bytes32[],(address,uint16)[]),bytes,bytes)":"4832e8f3","safeTransferFrom(address,address,uint256)":"42842e0e","safeTransferFrom(address,address,uint256,bytes)":"b88d4fde","setApprovalForAll(address,bool)":"a22cb465","supportsInterface(bytes4)":"01ffc9a7","symbol()":"95d89b41","timeStamp()":"0ab0df87","tokenByIndex(uint256)":"4f6ccce7","tokenByIndexTraceable(uint256)":"26156636","tokenInfo(uint256)":"cc33c875","tokenMintTime(uint256)":"83b81ebd","tokenOfCreatorByIndex(address,uint256)":"4fc09275","tokenOfOwnerByIndex(address,uint256)":"2f745c59","tokenOfTagByIndex(bytes32,uint256)":"3552d220","tokenReplies(uint256)":"8282674f","tokenRepliesByIndexBatch(uint256,uint256[])":"1674ed4b","tokenReplyByIndex(uint256,uint256)":"bfc9b364","tokenURI(uint256)":"c87b56dd","tokensByIndexTraceableBatch(uint256[])":"f6bd7ab8","tokensInfoBatch(uint256[])":"2b0eca8c","tokensOfCreator(address)":"96cc6a34","tokensOfCreatorByIndexBatch(address,uint256[])":"132e75d6","tokensOfTag(bytes32)":"af3ea105","tokensOfTagByIndexBatch(bytes32,uint256[])":"017642e4","totalSupply()":"18160ddd","traceTokenByCreator(address,uint256)":"c3512876","traceTokenById(uint256)":"39d77f25","traceTokenByTag(bytes32,uint256)":"29c7785f","transferFrom(address,address,uint256)":"23b872dd"}}}}}