{"contracts/katibeh1155/Katibeh1155.sol":{"Katibeh1155":{"abi":[{"inputs":[],"stateMutability":"nonpayable","type":"constructor"},{"anonymous":false,"inputs":[{"indexed":true,"internalType":"address","name":"account","type":"address"},{"indexed":true,"internalType":"address","name":"operator","type":"address"},{"indexed":false,"internalType":"bool","name":"approved","type":"bool"}],"name":"ApprovalForAll","type":"event"},{"anonymous":false,"inputs":[{"indexed":false,"internalType":"uint8","name":"version","type":"uint8"}],"name":"Initialized","type":"event"},{"anonymous":false,"inputs":[{"indexed":true,"internalType":"address","name":"operator","type":"address"},{"indexed":true,"internalType":"address","name":"from","type":"address"},{"indexed":true,"internalType":"address","name":"to","type":"address"},{"indexed":false,"internalType":"uint256[]","name":"ids","type":"uint256[]"},{"indexed":false,"internalType":"uint256[]","name":"values","type":"uint256[]"}],"name":"TransferBatch","type":"event"},{"anonymous":false,"inputs":[{"indexed":true,"internalType":"address","name":"operator","type":"address"},{"indexed":true,"internalType":"address","name":"from","type":"address"},{"indexed":true,"internalType":"address","name":"to","type":"address"},{"indexed":false,"internalType":"uint256","name":"id","type":"uint256"},{"indexed":false,"internalType":"uint256","name":"value","type":"uint256"}],"name":"TransferSingle","type":"event"},{"anonymous":false,"inputs":[{"indexed":false,"internalType":"string","name":"value","type":"string"},{"indexed":true,"internalType":"uint256","name":"id","type":"uint256"}],"name":"URI","type":"event"},{"inputs":[{"internalType":"address","name":"account","type":"address"},{"internalType":"uint256","name":"id","type":"uint256"}],"name":"balanceOf","outputs":[{"internalType":"uint256","name":"","type":"uint256"}],"stateMutability":"view","type":"function"},{"inputs":[{"internalType":"address[]","name":"accounts","type":"address[]"},{"internalType":"uint256[]","name":"ids","type":"uint256[]"}],"name":"balanceOfBatch","outputs":[{"internalType":"uint256[]","name":"","type":"uint256[]"}],"stateMutability":"view","type":"function"},{"inputs":[{"internalType":"address","name":"account","type":"address"},{"internalType":"uint256","name":"id","type":"uint256"},{"internalType":"uint256","name":"value","type":"uint256"}],"name":"burn","outputs":[],"stateMutability":"nonpayable","type":"function"},{"inputs":[{"internalType":"address","name":"account","type":"address"},{"internalType":"uint256[]","name":"ids","type":"uint256[]"},{"internalType":"uint256[]","name":"values","type":"uint256[]"}],"name":"burnBatch","outputs":[],"stateMutability":"nonpayable","type":"function"},{"inputs":[{"internalType":"uint256","name":"id","type":"uint256"}],"name":"exists","outputs":[{"internalType":"bool","name":"","type":"bool"}],"stateMutability":"view","type":"function"},{"inputs":[{"internalType":"address","name":"owner_","type":"address"},{"internalType":"string","name":"name_","type":"string"},{"internalType":"string","name":"symbol_","type":"string"}],"name":"init","outputs":[],"stateMutability":"nonpayable","type":"function"},{"inputs":[{"internalType":"address","name":"account","type":"address"},{"internalType":"address","name":"operator","type":"address"}],"name":"isApprovedForAll","outputs":[{"internalType":"bool","name":"","type":"bool"}],"stateMutability":"view","type":"function"},{"inputs":[{"internalType":"address","name":"addr","type":"address"},{"internalType":"uint256","name":"id","type":"uint256"},{"internalType":"uint256","name":"amount","type":"uint256"},{"internalType":"bytes","name":"data","type":"bytes"}],"name":"mint","outputs":[],"stateMutability":"nonpayable","type":"function"},{"inputs":[],"name":"name","outputs":[{"internalType":"string","name":"","type":"string"}],"stateMutability":"view","type":"function"},{"inputs":[],"name":"owner","outputs":[{"internalType":"address","name":"","type":"address"}],"stateMutability":"view","type":"function"},{"inputs":[{"internalType":"address","name":"from","type":"address"},{"internalType":"address","name":"to","type":"address"},{"internalType":"uint256[]","name":"ids","type":"uint256[]"},{"internalType":"uint256[]","name":"amounts","type":"uint256[]"},{"internalType":"bytes","name":"data","type":"bytes"}],"name":"safeBatchTransferFrom","outputs":[],"stateMutability":"nonpayable","type":"function"},{"inputs":[{"internalType":"address","name":"from","type":"address"},{"internalType":"address","name":"to","type":"address"},{"internalType":"uint256","name":"id","type":"uint256"},{"internalType":"uint256","name":"amount","type":"uint256"},{"internalType":"bytes","name":"data","type":"bytes"}],"name":"safeTransferFrom","outputs":[],"stateMutability":"nonpayable","type":"function"},{"inputs":[{"internalType":"address","name":"operator","type":"address"},{"internalType":"bool","name":"approved","type":"bool"}],"name":"setApprovalForAll","outputs":[],"stateMutability":"nonpayable","type":"function"},{"inputs":[{"internalType":"uint256","name":"tokenId","type":"uint256"},{"internalType":"string","name":"tokenURI","type":"string"}],"name":"setURI","outputs":[],"stateMutability":"nonpayable","type":"function"},{"inputs":[{"internalType":"bytes4","name":"interfaceId","type":"bytes4"}],"name":"supportsInterface","outputs":[{"internalType":"bool","name":"","type":"bool"}],"stateMutability":"view","type":"function"},{"inputs":[],"name":"symbol","outputs":[{"internalType":"string","name":"","type":"string"}],"stateMutability":"view","type":"function"},{"inputs":[{"internalType":"uint256","name":"id","type":"uint256"}],"name":"totalSupply","outputs":[{"internalType":"uint256","name":"","type":"uint256"}],"stateMutability":"view","type":"function"},{"inputs":[{"internalType":"uint256","name":"tokenId","type":"uint256"}],"name":"uri","outputs":[{"internalType":"string","name":"","type":"string"}],"stateMutability":"view","type":"function"}],"evm":{"bytecode":{"linkReferences":{},"object":"608034620000e957602081016001600160401b03811182821017620000d357604052600080915262000033600254620000ee565b601f811162000092575b50806002556200004f600454620000ee565b601f81116200006e575b6000600455604051612fc99081620001458239f35b601f60208360046200008a955220910160051c8101906200012b565b388062000059565b60028252620000cc90601f0160051c7f405787fa12a823e0f2b7631cc41b3ba8828b3321ca811111fa75cd3aa3bb5ace908101906200012b565b386200003d565b634e487b7160e01b600052604160045260246000fd5b600080fd5b90600182811c9216801562000120575b60208310146200010a57565b634e487b7160e01b600052602260045260246000fd5b91607f1691620000fe565b81811062000137575050565b600081556001016200012b56fe6080604052600436101561001257600080fd5b60003560e01c8062fdd58e1461239157806301ffc9a7146122a157806306fdde03146121dd5780630e89341c146121a05780632eb2c2d614611ca15780634e1273f414611a805780634f558e7914611a345780636b20c4541461176f578063731133e914611541578063862440e2146112d65780638da5cb5b1461128157806395d89b411461115f578063a22cb46514611005578063b2b45df514610954578063bd85b0391461090a578063e985e9c514610888578063f242432a146103635763f5298aca146100e157600080fd5b3461035e5760607ffffffffffffffffffffffffffffffffffffffffffffffffffffffffffffffffc36011261035e576101186123de565b6024908135604473ffffffffffffffffffffffffffffffffffffffff81359316913383148015610335575b61014c906127c4565b8215926101598415612b3b565b61016282612b05565b9161016c86612b05565b94600060405161017b81612477565b526102db575b60005b835181101561025e576101978185612781565b516101a28288612781565b51908060005260036020818152604060002054928484106101db57906101d695949392916000525203604060002055612725565b610184565b506084907f455243313135353a206275726e20616d6f756e74206578636565647320746f748a60288f604051947f08c379a000000000000000000000000000000000000000000000000000000000865260048601528401528201527f616c537570706c790000000000000000000000000000000000000000000000006064820152fd5b6000838389818452836020526040842083855260205280604085205461028682821015612bc6565b838652856020526040862085875260205203604085205560405191825260208201527fc3d58168c5ae7397731d063d5bbf3d657854427343f4c083240f7aacaa2d0f6260403392a46102d9604051612477565b005b949195929060005b875181101561032a57806102fa6103259288612781565b51610305828b612781565b51600052600360205261031e6040600020918254612965565b9055612725565b6102e3565b509092959194610181565b5082600052600160205260406000203360005260205261014c60ff604060002054169050610143565b600080fd5b3461035e5760a07ffffffffffffffffffffffffffffffffffffffffffffffffffffffffffffffffc36011261035e5761039a6123de565b6103a2612401565b906084803567ffffffffffffffff811161035e576103c4903690600401612615565b9073ffffffffffffffffffffffffffffffffffffffff913383851614801561085d575b6103f0906127c4565b828516156103fe811561284f565b610409604435612b05565b610414606435612b05565b918587161561081d575b61072f575b505060443560005260209460008652604060002084861660005286526040600020546104536064358210156128da565b604435600052600087526040600020858716600052875260643590036040600020556044356000526000865260406000208482166000528652604060002061049e6064358254612965565b905560405160443581526064358782015284821690858716907fc3d58168c5ae7397731d063d5bbf3d657854427343f4c083240f7aacaa2d0f6260403392a4803b6104e557005b60a0600061054895889560405197889687958693857ff23a6e61000000000000000000000000000000000000000000000000000000009d8e87523360048801521660248601526044356044860152606435606486015284015260a48301906124f7565b0393165af160009181610700575b50610652575050600190610568612a5a565b6308c379a014610603575b5061057a57005b6040517f08c379a000000000000000000000000000000000000000000000000000000000815260206004820152603460248201527f455243313135353a207472616e7366657220746f206e6f6e2d4552433131353560448201527f526563656976657220696d706c656d656e7465720000000000000000000000006064820152608490fd5b0390fd5b61060b612a78565b90816106175750610573565b6105ff6040519283927f08c379a0000000000000000000000000000000000000000000000000000000008452600484015260248301906124f7565b7fffffffff00000000000000000000000000000000000000000000000000000000161490506102d9576040517f08c379a000000000000000000000000000000000000000000000000000000000815260206004820152602860248201527f455243313135353a204552433131353552656365697665722072656a6563746560448201527f6420746f6b656e730000000000000000000000000000000000000000000000006064820152608490fd5b610721919250843d8611610728575b6107198183612493565b810190612a22565b9084610556565b503d61070f565b92959194909360005b845181101561080e5761074b8186612781565b51906107578188612781565b5182600052600360205260406000205481811061078b5761078693600052600360205203604060002055612725565b610738565b8a6040517f08c379a000000000000000000000000000000000000000000000000000000000815260206004820152602860248201527f455243313135353a206275726e20616d6f756e74206578636565647320746f7460448201527f616c537570706c790000000000000000000000000000000000000000000000006064820152fd5b50935093909491508580610423565b959260009794919592975b865181101561084f578061083f61084a928b612781565b51610305828a612781565b610828565b50929596919490939661041e565b5082841660005260016020526040600020336000526020526103f060ff6040600020541690506103e7565b3461035e5760407ffffffffffffffffffffffffffffffffffffffffffffffffffffffffffffffffc36011261035e576108bf6123de565b6108c7612401565b9073ffffffffffffffffffffffffffffffffffffffff809116600052600160205260406000209116600052602052602060ff604060002054166040519015158152f35b3461035e5760207ffffffffffffffffffffffffffffffffffffffffffffffffffffffffffffffffc36011261035e5760043560005260036020526020604060002054604051908152f35b3461035e5760607ffffffffffffffffffffffffffffffffffffffffffffffffffffffffffffffffc36011261035e5761098b6123de565b60243567ffffffffffffffff811161035e576109ab903690600401612615565b9060443567ffffffffffffffff811161035e576109cc903690600401612615565b906006549060ff8260081c161591828093610ff8575b8015610fe1575b15610f5d578260017fffffffffffffffffffffffffffffffffffffffffffffffffffffffffffffff00831617600655610f2e575b50835167ffffffffffffffff8111610d9157610a3a600854612424565b601f8111610e8b575b50602094601f8211600114610dcb57948192939495600092610dc0575b50507fffffffffffffffffffffffffffffffffffffffffffffffffffffffffffffffff8260011b9260031b1c1916176008555b825167ffffffffffffffff8111610d9157610aaf600954612424565b601f8111610d2c575b506020601f8211600114610c6c5781929394600092610c61575b50507fffffffffffffffffffffffffffffffffffffffffffffffffffffffffffffffff8260011b9260031b1c1916176009555b337fffffffffffffffffffffffff000000000000000000000000000000000000000060075416176007556006549060ff8260081c1615610bdd5775ffffffffffffffffffffffffffffffffffffffff00009060101b1691827fffffffffffffffffffff0000000000000000000000000000000000000000ffff831617600655610b8a57005b7fffffffffffffffffffff000000000000000000000000000000000000000000ff16176006557f7f26b83ff96e1f2b6a682f133852f6798a09c465da95921460cefb3847402498602060405160018152a1005b60846040517f08c379a000000000000000000000000000000000000000000000000000000000815260206004820152602b60248201527f496e697469616c697a61626c653a20636f6e7472616374206973206e6f74206960448201527f6e697469616c697a696e670000000000000000000000000000000000000000006064820152fd5b015190508480610ad2565b7fffffffffffffffffffffffffffffffffffffffffffffffffffffffffffffffe082169060096000527f6e1540171b6c0c960b71a7020d9f60077f6af931a8bbf590da0223dacf75c7af9160005b818110610d1457509583600195969710610cdd575b505050811b01600955610b05565b01517fffffffffffffffffffffffffffffffffffffffffffffffffffffffffffffffff60f88460031b161c19169055848080610ccf565b9192602060018192868b015181550194019201610cba565b60096000527f6e1540171b6c0c960b71a7020d9f60077f6af931a8bbf590da0223dacf75c7af601f830160051c81019160208410610d87575b601f0160051c01905b818110610d7b5750610ab8565b60008155600101610d6e565b9091508190610d65565b7f4e487b7100000000000000000000000000000000000000000000000000000000600052604160045260246000fd5b015190508580610a60565b7fffffffffffffffffffffffffffffffffffffffffffffffffffffffffffffffe082169560086000527ff3f7a9fe364faab93b216da50a3214154f22a0a2b415b23a84c8169e8b636ee39160005b888110610e7357508360019596979810610e3c575b505050811b01600855610a93565b01517fffffffffffffffffffffffffffffffffffffffffffffffffffffffffffffffff60f88460031b161c19169055858080610e2e565b91926020600181928685015181550194019201610e19565b6008600052601f820160051c7ff3f7a9fe364faab93b216da50a3214154f22a0a2b415b23a84c8169e8b636ee3019060208310610f06575b601f0160051c7ff3f7a9fe364faab93b216da50a3214154f22a0a2b415b23a84c8169e8b636ee301905b818110610efa5750610a43565b60008155600101610eed565b7ff3f7a9fe364faab93b216da50a3214154f22a0a2b415b23a84c8169e8b636ee39150610ec3565b7fffffffffffffffffffffffffffffffffffffffffffffffffffffffffffff0000166101011760065584610a1d565b60846040517f08c379a000000000000000000000000000000000000000000000000000000000815260206004820152602e60248201527f496e697469616c697a61626c653a20636f6e747261637420697320616c72656160448201527f647920696e697469616c697a65640000000000000000000000000000000000006064820152fd5b50303b1580156109e95750600160ff8216146109e9565b50600160ff8216106109e2565b3461035e5760407ffffffffffffffffffffffffffffffffffffffffffffffffffffffffffffffffc36011261035e5761103c6123de565b6024359081151580920361035e5773ffffffffffffffffffffffffffffffffffffffff16908133146110db5733600052600160205260406000208260005260205260406000207fffffffffffffffffffffffffffffffffffffffffffffffffffffffffffffff0081541660ff83161790556040519081527f17307eab39ab6107e8899845ad3d59bd9653f200f220920489ca2b5937696c3160203392a3005b60846040517f08c379a000000000000000000000000000000000000000000000000000000000815260206004820152602960248201527f455243313135353a2073657474696e6720617070726f76616c2073746174757360448201527f20666f722073656c6600000000000000000000000000000000000000000000006064820152fd5b3461035e5760007ffffffffffffffffffffffffffffffffffffffffffffffffffffffffffffffffc36011261035e57604051600060095461119f81612424565b8084529060019081811690811561123c57506001146111e1575b6111dd846111c981860382612493565b6040519182916020835260208301906124f7565b0390f35b6009600090815292507f6e1540171b6c0c960b71a7020d9f60077f6af931a8bbf590da0223dacf75c7af5b8284106112245750505081016020016111c9826111b9565b8054602085870181019190915290930192810161120c565b7fffffffffffffffffffffffffffffffffffffffffffffffffffffffffffffff001660208087019190915292151560051b850190920192506111c991508390506111b9565b3461035e5760007ffffffffffffffffffffffffffffffffffffffffffffffffffffffffffffffffc36011261035e57602073ffffffffffffffffffffffffffffffffffffffff60065460101c16604051908152f35b3461035e5760407ffffffffffffffffffffffffffffffffffffffffffffffffffffffffffffffffc36011261035e5767ffffffffffffffff60043560243582811161035e573660238201121561035e5780600401359083821161035e57366024838301011161035e576113709161136673ffffffffffffffffffffffffffffffffffffffff600754163314612c50565b60243692016125b0565b9181600052602090600582526040600020908451908111610d91576113958254612424565b601f81116114fb575b5082601f82116001146114385781907f6bb7ff708619ba0610cba295a58592e0451dee2622938c8755667688daf3529b959660009261142d575b50507fffffffffffffffffffffffffffffffffffffffffffffffffffffffffffffffff8260011b9260031b1c19161790555b61141383612cdb565b906114286040519282849384528301906124f7565b0390a2005b0151905086806113d8565b7fffffffffffffffffffffffffffffffffffffffffffffffffffffffffffffffe082169583600052846000209660005b8181106114e45750917f6bb7ff708619ba0610cba295a58592e0451dee2622938c8755667688daf3529b9697918460019594106114ad575b505050811b01905561140a565b01517fffffffffffffffffffffffffffffffffffffffffffffffffffffffffffffffff60f88460031b161c191690558680806114a0565b838301518955600190980197928601928601611468565b8260005283600020601f830160051c810191858410611537575b601f0160051c01905b81811061152b575061139e565b6000815560010161151e565b9091508190611515565b3461035e5760807ffffffffffffffffffffffffffffffffffffffffffffffffffffffffffffffffc36011261035e576115786123de565b6044359060243560643567ffffffffffffffff811161035e5761159f903690600401612615565b9173ffffffffffffffffffffffffffffffffffffffff6115c481600754163314612c50565b81169182156116eb576115d681612b05565b926115e086612b05565b9560005b855181101561160b57806115fb611606928a612781565b516103058289612781565b6115e4565b5085836000526020946000865260406000208460005286526040600020611633848254612965565b905583600060405187815285898201527fc3d58168c5ae7397731d063d5bbf3d657854427343f4c083240f7aacaa2d0f6260403392a43b61167057005b6116cd92859260006040518096819582947ff23a6e61000000000000000000000000000000000000000000000000000000009a8b85523360048601528560248601526044850152606484015260a0608484015260a48301906124f7565b03925af1600091816107005750610652575050600190610568612a5a565b60846040517f08c379a000000000000000000000000000000000000000000000000000000000815260206004820152602160248201527f455243313135353a206d696e7420746f20746865207a65726f2061646472657360448201527f73000000000000000000000000000000000000000000000000000000000000006064820152fd5b3461035e5760607ffffffffffffffffffffffffffffffffffffffffffffffffffffffffffffffffc36011261035e576117a66123de565b60249067ffffffffffffffff90823582811161035e576117ca903690600401612552565b91604490813590811161035e576117fa73ffffffffffffffffffffffffffffffffffffffff913690600401612552565b9216923384148015611a0b575b611810906127c4565b831561181c8115612b3b565b6118298251855114612972565b600060405161183781612477565b526119d3575b60005b8151811015611919576118538183612781565b5161185e8286612781565b5190806000526003602081815260406000205492848410611897579061189295949392916000525203604060002055612725565b611840565b6084827f455243313135353a206275726e20616d6f756e74206578636565647320746f748a60288f604051947f08c379a000000000000000000000000000000000000000000000000000000000865260048601528401528201527f616c537570706c790000000000000000000000000000000000000000000000006064820152fd5b83828660005b825181101561198e57806119366119899285612781565b516119418287612781565b51908060005260206000815260406000208660005281526040600020549161196b84841015612bc6565b60005260008152604060002090866000525203604060002055612725565b61191f565b50907f4a39dc06d4c0dbc64b70af90fd698a233a518aa5d07e595d983b8c0526c8f7fb6119c56000946040519182913395836129fd565b0390a46102d9604051612477565b9260009491945b8451811015611a0157806119f16119fc9286612781565b516103058288612781565b6119da565b509293909361183d565b5083600052600160205260406000203360005260205261181060ff604060002054169050611807565b3461035e5760207ffffffffffffffffffffffffffffffffffffffffffffffffffffffffffffffffc36011261035e57600435600052600360205260206040600020541515604051908152f35b3461035e5760407ffffffffffffffffffffffffffffffffffffffffffffffffffffffffffffffffc36011261035e5760043567ffffffffffffffff80821161035e573660238301121561035e57816004013590611adc8261253a565b92611aea6040519485612493565b82845260209260248486019160051b8301019136831161035e57602401905b828210611c755750505060243590811161035e57611b2b903690600401612552565b8251815103611bf1578251927fffffffffffffffffffffffffffffffffffffffffffffffffffffffffffffffe0611b7a611b648661253a565b95611b726040519788612493565b80875261253a565b01368486013760005b8151811015611bda5780611bc573ffffffffffffffffffffffffffffffffffffffff611bb2611bd59486612781565b5116611bbe8387612781565b5190612667565b611bcf8288612781565b52612725565b611b83565b5050506111dd604051928284938452830190612633565b608482604051907f08c379a00000000000000000000000000000000000000000000000000000000082526004820152602960248201527f455243313135353a206163636f756e747320616e6420696473206c656e67746860448201527f206d69736d6174636800000000000000000000000000000000000000000000006064820152fd5b813573ffffffffffffffffffffffffffffffffffffffff8116810361035e578152908401908401611b09565b3461035e577ffffffffffffffffffffffffffffffffffffffffffffffffffffffffffffffffc60a08136011261035e57611cd96123de565b90611ce2612401565b60449081359267ffffffffffffffff9384811161035e57611d07903690600401612552565b6064803586811161035e57611d20903690600401612552565b94608496873590811161035e57611d3b903690600401612615565b73ffffffffffffffffffffffffffffffffffffffff9433868b16148015612175575b611d66906127c4565b611d738551895114612972565b85871615611d81811561284f565b868b1615612132575b61203c575b60005b8551811015611e285780611da9611e239288612781565b518c611db5838d612781565b519180600052826020926000845260406000208d8216600052845260406000205490611de3838310156128da565b83600052600085528d60406000209116600052845203604060002055600052600081526040600020908a8c166000525261031e6040600020918254612965565b611d92565b50888a989796949789604051887f4a39dc06d4c0dbc64b70af90fd698a233a518aa5d07e595d983b8c0526c8f7fb89808d1694169280611e6a873395836129fd565b0390a4873b611e7557005b6040519889978896887fbc197c81000000000000000000000000000000000000000000000000000000009d8e8a523360048b0152166024890152870160a0905260a48701611ec291612633565b90848783030190870152611ed591612633565b918483030190840152611ee7916124f7565b03921691815a602094600091f16000918161201c575b50611f705750506001611f0e612a5a565b6308c379a014611f1f575b61057a57005b611f27612a78565b80611f325750611f19565b6105ff906040519182917f08c379a00000000000000000000000000000000000000000000000000000000083526020600484015260248301906124f7565b7fffffffff0000000000000000000000000000000000000000000000000000000016146102d9576040517f08c379a000000000000000000000000000000000000000000000000000000000815260206004820152602860248201527f455243313135353a204552433131353552656365697665722072656a6563746560448201527f6420746f6b656e730000000000000000000000000000000000000000000000006064820152608490fd5b61203591925060203d8111610728576107198183612493565b9083611efd565b9796949060009993999692965b85518110156121225761205c8187612781565b516120678289612781565b519080600052602060038152604060002054918383106120a05761209b949392916003916000525203604060002055612725565b612049565b508b907f616c537570706c790000000000000000000000000000000000000000000000008f7f455243313135353a206275726e20616d6f756e74206578636565647320746f748e604051947f08c379a0000000000000000000000000000000000000000000000000000000008652600486015260286024860152840152820152fd5b5090949697989298959195611d8f565b99969498959392919060005b8a5181101561216657808b6103058261215a612161958f612781565b5192612781565b61213e565b50909192939598949699611d8a565b50858a166000526001602052604060002033600052602052611d6660ff604060002054169050611d5d565b3461035e5760207ffffffffffffffffffffffffffffffffffffffffffffffffffffffffffffffffc36011261035e576111dd6111c9600435612cdb565b3461035e5760007ffffffffffffffffffffffffffffffffffffffffffffffffffffffffffffffffc36011261035e57604051600060085461221d81612424565b8084529060019081811690811561123c5750600114612246576111dd846111c981860382612493565b6008600090815292507ff3f7a9fe364faab93b216da50a3214154f22a0a2b415b23a84c8169e8b636ee35b8284106122895750505081016020016111c9826111b9565b80546020858701810191909152909301928101612271565b3461035e5760207ffffffffffffffffffffffffffffffffffffffffffffffffffffffffffffffffc36011261035e576004357fffffffff00000000000000000000000000000000000000000000000000000000811680910361035e57807fd9b67a260000000000000000000000000000000000000000000000000000000060209214908115612367575b811561233d575b506040519015158152f35b7f01ffc9a70000000000000000000000000000000000000000000000000000000091501482612332565b7f0e89341c000000000000000000000000000000000000000000000000000000008114915061232b565b3461035e5760407ffffffffffffffffffffffffffffffffffffffffffffffffffffffffffffffffc36011261035e5760206123d66123cd6123de565b60243590612667565b604051908152f35b6004359073ffffffffffffffffffffffffffffffffffffffff8216820361035e57565b6024359073ffffffffffffffffffffffffffffffffffffffff8216820361035e57565b90600182811c9216801561246d575b602083101461243e57565b7f4e487b7100000000000000000000000000000000000000000000000000000000600052602260045260246000fd5b91607f1691612433565b6020810190811067ffffffffffffffff821117610d9157604052565b90601f7fffffffffffffffffffffffffffffffffffffffffffffffffffffffffffffffe0910116810190811067ffffffffffffffff821117610d9157604052565b60005b8381106124e75750506000910152565b81810151838201526020016124d7565b907fffffffffffffffffffffffffffffffffffffffffffffffffffffffffffffffe0601f602093612533815180928187528780880191016124d4565b0116010190565b67ffffffffffffffff8111610d915760051b60200190565b81601f8201121561035e578035916125698361253a565b926125776040519485612493565b808452602092838086019260051b82010192831161035e578301905b8282106125a1575050505090565b81358152908301908301612593565b92919267ffffffffffffffff8211610d9157604051916125f860207fffffffffffffffffffffffffffffffffffffffffffffffffffffffffffffffe0601f8401160184612493565b82948184528183011161035e578281602093846000960137010152565b9080601f8301121561035e57816020612630933591016125b0565b90565b90815180825260208080930193019160005b828110612653575050505090565b835185529381019392810192600101612645565b73ffffffffffffffffffffffffffffffffffffffff169081156126a157600052600060205260406000209060005260205260406000205490565b60846040517f08c379a000000000000000000000000000000000000000000000000000000000815260206004820152602a60248201527f455243313135353a2061646472657373207a65726f206973206e6f742061207660448201527f616c6964206f776e6572000000000000000000000000000000000000000000006064820152fd5b7fffffffffffffffffffffffffffffffffffffffffffffffffffffffffffffffff81146127525760010190565b7f4e487b7100000000000000000000000000000000000000000000000000000000600052601160045260246000fd5b80518210156127955760209160051b010190565b7f4e487b7100000000000000000000000000000000000000000000000000000000600052603260045260246000fd5b156127cb57565b60846040517f08c379a000000000000000000000000000000000000000000000000000000000815260206004820152602e60248201527f455243313135353a2063616c6c6572206973206e6f7420746f6b656e206f776e60448201527f6572206f7220617070726f7665640000000000000000000000000000000000006064820152fd5b1561285657565b60846040517f08c379a000000000000000000000000000000000000000000000000000000000815260206004820152602560248201527f455243313135353a207472616e7366657220746f20746865207a65726f20616460448201527f64726573730000000000000000000000000000000000000000000000000000006064820152fd5b156128e157565b60846040517f08c379a000000000000000000000000000000000000000000000000000000000815260206004820152602a60248201527f455243313135353a20696e73756666696369656e742062616c616e636520666f60448201527f72207472616e73666572000000000000000000000000000000000000000000006064820152fd5b9190820180921161275257565b1561297957565b60846040517f08c379a000000000000000000000000000000000000000000000000000000000815260206004820152602860248201527f455243313135353a2069647320616e6420616d6f756e7473206c656e6774682060448201527f6d69736d617463680000000000000000000000000000000000000000000000006064820152fd5b9091612a1461263093604084526040840190612633565b916020818403910152612633565b9081602091031261035e57517fffffffff000000000000000000000000000000000000000000000000000000008116810361035e5790565b60009060033d11612a6757565b905060046000803e60005160e01c90565b600060443d10612630576040517ffffffffffffffffffffffffffffffffffffffffffffffffffffffffffffffffc91823d016004833e815167ffffffffffffffff918282113d602484011117612af457818401948551938411612afc573d85010160208487010111612af4575061263092910160200190612493565b949350505050565b50949350505050565b604051906040820182811067ffffffffffffffff821117610d915760405260018252602082016020368237825115612795575290565b15612b4257565b60846040517f08c379a000000000000000000000000000000000000000000000000000000000815260206004820152602360248201527f455243313135353a206275726e2066726f6d20746865207a65726f206164647260448201527f65737300000000000000000000000000000000000000000000000000000000006064820152fd5b15612bcd57565b60846040517f08c379a0000000000000000000000000000000000000000000000000000000008152602060048201526024808201527f455243313135353a206275726e20616d6f756e7420657863656564732062616c60448201527f616e6365000000000000000000000000000000000000000000000000000000006064820152fd5b15612c5757565b60846040517f08c379a000000000000000000000000000000000000000000000000000000000815260206004820152602d60248201527f4b617469626568313135353a207265737472696374656420616363657373207460448201527f6f2074686520466163746f7279000000000000000000000000000000000000006064820152fd5b600090815260209060058252604081209060405190809183549281612cff85612424565b9182825287820196600196898882169182600014612f57575050600114612f19575b50612d2e92500382612493565b805115612e3f576040519485938360045491612d4983612424565b92818116908115612e005750600114612da0575b50505050612d73612630948392519384916124d4565b01037fffffffffffffffffffffffffffffffffffffffffffffffffffffffffffffffe08101835282612493565b909192969450600482527f8a35acfbc15ff81a39ae7d344fd709f28e8600b4aa8c65c6b64bfe7fe36bd19b5b838310612dea5750505061263094612d739185010192943880612d5d565b8054898401890152889650918701918101612dcc565b7fffffffffffffffffffffffffffffffffffffffffffffffffffffffffffffff001688860152505050801515028401019150612d736126303880612d5d565b5060405160025490949350849282612e5683612424565b80865292828116908115612ed85750600114612e7c575b50505061263092500382612493565b600281527f405787fa12a823e0f2b7631cc41b3ba8828b3321ca811111fa75cd3aa3bb5ace95935091905b818310612ec05750506126309350820101388080612e6d565b85548784018501529485019486945091830191612ea7565b9150506126309593507fffffffffffffffffffffffffffffffffffffffffffffffffffffffffffffff0091501682840152151560051b820101388080612e6d565b915050835281868085208686915b858310612f3e575050612d2e935082010138612d21565b8091929450548385880101520191018790868593612f27565b7fffffffffffffffffffffffffffffffffffffffffffffffffffffffffffffff00168a52612d2e95151560051b8501019250389150612d21905056fea2646970667358221220c0b612b65b91253a9022aae1b51a2899696ca53a5e97f95820e165061ca7fcb764736f6c63430008130033","opcodes":"PUSH1 0x80 CALLVALUE PUSH3 0xE9 JUMPI PUSH1 0x20 DUP2 ADD PUSH1 0x1 PUSH1 0x1 PUSH1 0x40 SHL SUB DUP2 GT DUP3 DUP3 LT OR PUSH3 0xD3 JUMPI PUSH1 0x40 MSTORE PUSH1 0x0 DUP1 SWAP2 MSTORE PUSH3 0x33 PUSH1 0x2 SLOAD PUSH3 0xEE JUMP JUMPDEST PUSH1 0x1F DUP2 GT PUSH3 0x92 JUMPI JUMPDEST POP DUP1 PUSH1 0x2 SSTORE PUSH3 0x4F PUSH1 0x4 SLOAD PUSH3 0xEE JUMP JUMPDEST PUSH1 0x1F DUP2 GT PUSH3 0x6E JUMPI JUMPDEST PUSH1 0x0 PUSH1 0x4 SSTORE PUSH1 0x40 MLOAD PUSH2 0x2FC9 SWAP1 DUP2 PUSH3 0x145 DUP3 CODECOPY RETURN JUMPDEST PUSH1 0x1F PUSH1 0x20 DUP4 PUSH1 0x4 PUSH3 0x8A SWAP6 MSTORE KECCAK256 SWAP2 ADD PUSH1 0x5 SHR DUP2 ADD SWAP1 PUSH3 0x12B JUMP JUMPDEST CODESIZE DUP1 PUSH3 0x59 JUMP JUMPDEST PUSH1 0x2 DUP3 MSTORE PUSH3 0xCC SWAP1 PUSH1 0x1F ADD PUSH1 0x5 SHR PUSH32 0x405787FA12A823E0F2B7631CC41B3BA8828B3321CA811111FA75CD3AA3BB5ACE SWAP1 DUP2 ADD SWAP1 PUSH3 0x12B JUMP JUMPDEST CODESIZE PUSH3 0x3D JUMP JUMPDEST PUSH4 0x4E487B71 PUSH1 0xE0 SHL PUSH1 0x0 MSTORE PUSH1 0x41 PUSH1 0x4 MSTORE PUSH1 0x24 PUSH1 0x0 REVERT JUMPDEST PUSH1 0x0 DUP1 REVERT JUMPDEST SWAP1 PUSH1 0x1 DUP3 DUP2 SHR SWAP3 AND DUP1 ISZERO PUSH3 0x120 JUMPI JUMPDEST PUSH1 0x20 DUP4 LT EQ PUSH3 0x10A JUMPI JUMP JUMPDEST PUSH4 0x4E487B71 PUSH1 0xE0 SHL PUSH1 0x0 MSTORE PUSH1 0x22 PUSH1 0x4 MSTORE PUSH1 0x24 PUSH1 0x0 REVERT JUMPDEST SWAP2 PUSH1 0x7F AND SWAP2 PUSH3 0xFE JUMP JUMPDEST DUP2 DUP2 LT PUSH3 0x137 JUMPI POP POP JUMP JUMPDEST PUSH1 0x0 DUP2 SSTORE PUSH1 0x1 ADD PUSH3 0x12B JUMP INVALID PUSH1 0x80 PUSH1 0x40 MSTORE PUSH1 0x4 CALLDATASIZE LT ISZERO PUSH2 0x12 JUMPI PUSH1 0x0 DUP1 REVERT JUMPDEST PUSH1 0x0 CALLDATALOAD PUSH1 0xE0 SHR DUP1 PUSH3 0xFDD58E EQ PUSH2 0x2391 JUMPI DUP1 PUSH4 0x1FFC9A7 EQ PUSH2 0x22A1 JUMPI DUP1 PUSH4 0x6FDDE03 EQ PUSH2 0x21DD JUMPI DUP1 PUSH4 0xE89341C EQ PUSH2 0x21A0 JUMPI DUP1 PUSH4 0x2EB2C2D6 EQ PUSH2 0x1CA1 JUMPI DUP1 PUSH4 0x4E1273F4 EQ PUSH2 0x1A80 JUMPI DUP1 PUSH4 0x4F558E79 EQ PUSH2 0x1A34 JUMPI DUP1 PUSH4 0x6B20C454 EQ PUSH2 0x176F JUMPI DUP1 PUSH4 0x731133E9 EQ PUSH2 0x1541 JUMPI DUP1 PUSH4 0x862440E2 EQ PUSH2 0x12D6 JUMPI DUP1 PUSH4 0x8DA5CB5B EQ PUSH2 0x1281 JUMPI DUP1 PUSH4 0x95D89B41 EQ PUSH2 0x115F JUMPI DUP1 PUSH4 0xA22CB465 EQ PUSH2 0x1005 JUMPI DUP1 PUSH4 0xB2B45DF5 EQ PUSH2 0x954 JUMPI DUP1 PUSH4 0xBD85B039 EQ PUSH2 0x90A JUMPI DUP1 PUSH4 0xE985E9C5 EQ PUSH2 0x888 JUMPI DUP1 PUSH4 0xF242432A EQ PUSH2 0x363 JUMPI PUSH4 0xF5298ACA EQ PUSH2 0xE1 JUMPI PUSH1 0x0 DUP1 REVERT JUMPDEST CALLVALUE PUSH2 0x35E JUMPI PUSH1 0x60 PUSH32 0xFFFFFFFFFFFFFFFFFFFFFFFFFFFFFFFFFFFFFFFFFFFFFFFFFFFFFFFFFFFFFFFC CALLDATASIZE ADD SLT PUSH2 0x35E JUMPI PUSH2 0x118 PUSH2 0x23DE JUMP JUMPDEST PUSH1 0x24 SWAP1 DUP2 CALLDATALOAD PUSH1 0x44 PUSH20 0xFFFFFFFFFFFFFFFFFFFFFFFFFFFFFFFFFFFFFFFF DUP2 CALLDATALOAD SWAP4 AND SWAP2 CALLER DUP4 EQ DUP1 ISZERO PUSH2 0x335 JUMPI JUMPDEST PUSH2 0x14C SWAP1 PUSH2 0x27C4 JUMP JUMPDEST DUP3 ISZERO SWAP3 PUSH2 0x159 DUP5 ISZERO PUSH2 0x2B3B JUMP JUMPDEST PUSH2 0x162 DUP3 PUSH2 0x2B05 JUMP JUMPDEST SWAP2 PUSH2 0x16C DUP7 PUSH2 0x2B05 JUMP JUMPDEST SWAP5 PUSH1 0x0 PUSH1 0x40 MLOAD PUSH2 0x17B DUP2 PUSH2 0x2477 JUMP JUMPDEST MSTORE PUSH2 0x2DB JUMPI JUMPDEST PUSH1 0x0 JUMPDEST DUP4 MLOAD DUP2 LT ISZERO PUSH2 0x25E JUMPI PUSH2 0x197 DUP2 DUP6 PUSH2 0x2781 JUMP JUMPDEST MLOAD PUSH2 0x1A2 DUP3 DUP9 PUSH2 0x2781 JUMP JUMPDEST MLOAD SWAP1 DUP1 PUSH1 0x0 MSTORE PUSH1 0x3 PUSH1 0x20 DUP2 DUP2 MSTORE PUSH1 0x40 PUSH1 0x0 KECCAK256 SLOAD SWAP3 DUP5 DUP5 LT PUSH2 0x1DB JUMPI SWAP1 PUSH2 0x1D6 SWAP6 SWAP5 SWAP4 SWAP3 SWAP2 PUSH1 0x0 MSTORE MSTORE SUB PUSH1 0x40 PUSH1 0x0 KECCAK256 SSTORE PUSH2 0x2725 JUMP JUMPDEST PUSH2 0x184 JUMP JUMPDEST POP PUSH1 0x84 SWAP1 PUSH32 0x455243313135353A206275726E20616D6F756E74206578636565647320746F74 DUP11 PUSH1 0x28 DUP16 PUSH1 0x40 MLOAD SWAP5 PUSH32 0x8C379A000000000000000000000000000000000000000000000000000000000 DUP7 MSTORE PUSH1 0x4 DUP7 ADD MSTORE DUP5 ADD MSTORE DUP3 ADD MSTORE PUSH32 0x616C537570706C79000000000000000000000000000000000000000000000000 PUSH1 0x64 DUP3 ADD MSTORE REVERT JUMPDEST PUSH1 0x0 DUP4 DUP4 DUP10 DUP2 DUP5 MSTORE DUP4 PUSH1 0x20 MSTORE PUSH1 0x40 DUP5 KECCAK256 DUP4 DUP6 MSTORE PUSH1 0x20 MSTORE DUP1 PUSH1 0x40 DUP6 KECCAK256 SLOAD PUSH2 0x286 DUP3 DUP3 LT ISZERO PUSH2 0x2BC6 JUMP JUMPDEST DUP4 DUP7 MSTORE DUP6 PUSH1 0x20 MSTORE PUSH1 0x40 DUP7 KECCAK256 DUP6 DUP8 MSTORE PUSH1 0x20 MSTORE SUB PUSH1 0x40 DUP6 KECCAK256 SSTORE PUSH1 0x40 MLOAD SWAP2 DUP3 MSTORE PUSH1 0x20 DUP3 ADD MSTORE PUSH32 0xC3D58168C5AE7397731D063D5BBF3D657854427343F4C083240F7AACAA2D0F62 PUSH1 0x40 CALLER SWAP3 LOG4 PUSH2 0x2D9 PUSH1 0x40 MLOAD PUSH2 0x2477 JUMP JUMPDEST STOP JUMPDEST SWAP5 SWAP2 SWAP6 SWAP3 SWAP1 PUSH1 0x0 JUMPDEST DUP8 MLOAD DUP2 LT ISZERO PUSH2 0x32A JUMPI DUP1 PUSH2 0x2FA PUSH2 0x325 SWAP3 DUP9 PUSH2 0x2781 JUMP JUMPDEST MLOAD PUSH2 0x305 DUP3 DUP12 PUSH2 0x2781 JUMP JUMPDEST MLOAD PUSH1 0x0 MSTORE PUSH1 0x3 PUSH1 0x20 MSTORE PUSH2 0x31E PUSH1 0x40 PUSH1 0x0 KECCAK256 SWAP2 DUP3 SLOAD PUSH2 0x2965 JUMP JUMPDEST SWAP1 SSTORE PUSH2 0x2725 JUMP JUMPDEST PUSH2 0x2E3 JUMP JUMPDEST POP SWAP1 SWAP3 SWAP6 SWAP2 SWAP5 PUSH2 0x181 JUMP JUMPDEST POP DUP3 PUSH1 0x0 MSTORE PUSH1 0x1 PUSH1 0x20 MSTORE PUSH1 0x40 PUSH1 0x0 KECCAK256 CALLER PUSH1 0x0 MSTORE PUSH1 0x20 MSTORE PUSH2 0x14C PUSH1 0xFF PUSH1 0x40 PUSH1 0x0 KECCAK256 SLOAD AND SWAP1 POP PUSH2 0x143 JUMP JUMPDEST PUSH1 0x0 DUP1 REVERT JUMPDEST CALLVALUE PUSH2 0x35E JUMPI PUSH1 0xA0 PUSH32 0xFFFFFFFFFFFFFFFFFFFFFFFFFFFFFFFFFFFFFFFFFFFFFFFFFFFFFFFFFFFFFFFC CALLDATASIZE ADD SLT PUSH2 0x35E JUMPI PUSH2 0x39A PUSH2 0x23DE JUMP JUMPDEST PUSH2 0x3A2 PUSH2 0x2401 JUMP JUMPDEST SWAP1 PUSH1 0x84 DUP1 CALLDATALOAD PUSH8 0xFFFFFFFFFFFFFFFF DUP2 GT PUSH2 0x35E JUMPI PUSH2 0x3C4 SWAP1 CALLDATASIZE SWAP1 PUSH1 0x4 ADD PUSH2 0x2615 JUMP JUMPDEST SWAP1 PUSH20 0xFFFFFFFFFFFFFFFFFFFFFFFFFFFFFFFFFFFFFFFF SWAP2 CALLER DUP4 DUP6 AND EQ DUP1 ISZERO PUSH2 0x85D JUMPI JUMPDEST PUSH2 0x3F0 SWAP1 PUSH2 0x27C4 JUMP JUMPDEST DUP3 DUP6 AND ISZERO PUSH2 0x3FE DUP2 ISZERO PUSH2 0x284F JUMP JUMPDEST PUSH2 0x409 PUSH1 0x44 CALLDATALOAD PUSH2 0x2B05 JUMP JUMPDEST PUSH2 0x414 PUSH1 0x64 CALLDATALOAD PUSH2 0x2B05 JUMP JUMPDEST SWAP2 DUP6 DUP8 AND ISZERO PUSH2 0x81D JUMPI JUMPDEST PUSH2 0x72F JUMPI JUMPDEST POP POP PUSH1 0x44 CALLDATALOAD PUSH1 0x0 MSTORE PUSH1 0x20 SWAP5 PUSH1 0x0 DUP7 MSTORE PUSH1 0x40 PUSH1 0x0 KECCAK256 DUP5 DUP7 AND PUSH1 0x0 MSTORE DUP7 MSTORE PUSH1 0x40 PUSH1 0x0 KECCAK256 SLOAD PUSH2 0x453 PUSH1 0x64 CALLDATALOAD DUP3 LT ISZERO PUSH2 0x28DA JUMP JUMPDEST PUSH1 0x44 CALLDATALOAD PUSH1 0x0 MSTORE PUSH1 0x0 DUP8 MSTORE PUSH1 0x40 PUSH1 0x0 KECCAK256 DUP6 DUP8 AND PUSH1 0x0 MSTORE DUP8 MSTORE PUSH1 0x64 CALLDATALOAD SWAP1 SUB PUSH1 0x40 PUSH1 0x0 KECCAK256 SSTORE PUSH1 0x44 CALLDATALOAD PUSH1 0x0 MSTORE PUSH1 0x0 DUP7 MSTORE PUSH1 0x40 PUSH1 0x0 KECCAK256 DUP5 DUP3 AND PUSH1 0x0 MSTORE DUP7 MSTORE PUSH1 0x40 PUSH1 0x0 KECCAK256 PUSH2 0x49E PUSH1 0x64 CALLDATALOAD DUP3 SLOAD PUSH2 0x2965 JUMP JUMPDEST SWAP1 SSTORE PUSH1 0x40 MLOAD PUSH1 0x44 CALLDATALOAD DUP2 MSTORE PUSH1 0x64 CALLDATALOAD DUP8 DUP3 ADD MSTORE DUP5 DUP3 AND SWAP1 DUP6 DUP8 AND SWAP1 PUSH32 0xC3D58168C5AE7397731D063D5BBF3D657854427343F4C083240F7AACAA2D0F62 PUSH1 0x40 CALLER SWAP3 LOG4 DUP1 EXTCODESIZE PUSH2 0x4E5 JUMPI STOP JUMPDEST PUSH1 0xA0 PUSH1 0x0 PUSH2 0x548 SWAP6 DUP9 SWAP6 PUSH1 0x40 MLOAD SWAP8 DUP9 SWAP7 DUP8 SWAP6 DUP7 SWAP4 DUP6 PUSH32 0xF23A6E6100000000000000000000000000000000000000000000000000000000 SWAP14 DUP15 DUP8 MSTORE CALLER PUSH1 0x4 DUP9 ADD MSTORE AND PUSH1 0x24 DUP7 ADD MSTORE PUSH1 0x44 CALLDATALOAD PUSH1 0x44 DUP7 ADD MSTORE PUSH1 0x64 CALLDATALOAD PUSH1 0x64 DUP7 ADD MSTORE DUP5 ADD MSTORE PUSH1 0xA4 DUP4 ADD SWAP1 PUSH2 0x24F7 JUMP JUMPDEST SUB SWAP4 AND GAS CALL PUSH1 0x0 SWAP2 DUP2 PUSH2 0x700 JUMPI JUMPDEST POP PUSH2 0x652 JUMPI POP POP PUSH1 0x1 SWAP1 PUSH2 0x568 PUSH2 0x2A5A JUMP JUMPDEST PUSH4 0x8C379A0 EQ PUSH2 0x603 JUMPI JUMPDEST POP PUSH2 0x57A JUMPI STOP JUMPDEST PUSH1 0x40 MLOAD PUSH32 0x8C379A000000000000000000000000000000000000000000000000000000000 DUP2 MSTORE PUSH1 0x20 PUSH1 0x4 DUP3 ADD MSTORE PUSH1 0x34 PUSH1 0x24 DUP3 ADD MSTORE PUSH32 0x455243313135353A207472616E7366657220746F206E6F6E2D45524331313535 PUSH1 0x44 DUP3 ADD MSTORE PUSH32 0x526563656976657220696D706C656D656E746572000000000000000000000000 PUSH1 0x64 DUP3 ADD MSTORE PUSH1 0x84 SWAP1 REVERT JUMPDEST SUB SWAP1 REVERT JUMPDEST PUSH2 0x60B PUSH2 0x2A78 JUMP JUMPDEST SWAP1 DUP2 PUSH2 0x617 JUMPI POP PUSH2 0x573 JUMP JUMPDEST PUSH2 0x5FF PUSH1 0x40 MLOAD SWAP3 DUP4 SWAP3 PUSH32 0x8C379A000000000000000000000000000000000000000000000000000000000 DUP5 MSTORE PUSH1 0x4 DUP5 ADD MSTORE PUSH1 0x24 DUP4 ADD SWAP1 PUSH2 0x24F7 JUMP JUMPDEST PUSH32 0xFFFFFFFF00000000000000000000000000000000000000000000000000000000 AND EQ SWAP1 POP PUSH2 0x2D9 JUMPI PUSH1 0x40 MLOAD PUSH32 0x8C379A000000000000000000000000000000000000000000000000000000000 DUP2 MSTORE PUSH1 0x20 PUSH1 0x4 DUP3 ADD MSTORE PUSH1 0x28 PUSH1 0x24 DUP3 ADD MSTORE PUSH32 0x455243313135353A204552433131353552656365697665722072656A65637465 PUSH1 0x44 DUP3 ADD MSTORE PUSH32 0x6420746F6B656E73000000000000000000000000000000000000000000000000 PUSH1 0x64 DUP3 ADD MSTORE PUSH1 0x84 SWAP1 REVERT JUMPDEST PUSH2 0x721 SWAP2 SWAP3 POP DUP5 RETURNDATASIZE DUP7 GT PUSH2 0x728 JUMPI JUMPDEST PUSH2 0x719 DUP2 DUP4 PUSH2 0x2493 JUMP JUMPDEST DUP2 ADD SWAP1 PUSH2 0x2A22 JUMP JUMPDEST SWAP1 DUP5 PUSH2 0x556 JUMP JUMPDEST POP RETURNDATASIZE PUSH2 0x70F JUMP JUMPDEST SWAP3 SWAP6 SWAP2 SWAP5 SWAP1 SWAP4 PUSH1 0x0 JUMPDEST DUP5 MLOAD DUP2 LT ISZERO PUSH2 0x80E JUMPI PUSH2 0x74B DUP2 DUP7 PUSH2 0x2781 JUMP JUMPDEST MLOAD SWAP1 PUSH2 0x757 DUP2 DUP9 PUSH2 0x2781 JUMP JUMPDEST MLOAD DUP3 PUSH1 0x0 MSTORE PUSH1 0x3 PUSH1 0x20 MSTORE PUSH1 0x40 PUSH1 0x0 KECCAK256 SLOAD DUP2 DUP2 LT PUSH2 0x78B JUMPI PUSH2 0x786 SWAP4 PUSH1 0x0 MSTORE PUSH1 0x3 PUSH1 0x20 MSTORE SUB PUSH1 0x40 PUSH1 0x0 KECCAK256 SSTORE PUSH2 0x2725 JUMP JUMPDEST PUSH2 0x738 JUMP JUMPDEST DUP11 PUSH1 0x40 MLOAD PUSH32 0x8C379A000000000000000000000000000000000000000000000000000000000 DUP2 MSTORE PUSH1 0x20 PUSH1 0x4 DUP3 ADD MSTORE PUSH1 0x28 PUSH1 0x24 DUP3 ADD MSTORE PUSH32 0x455243313135353A206275726E20616D6F756E74206578636565647320746F74 PUSH1 0x44 DUP3 ADD MSTORE PUSH32 0x616C537570706C79000000000000000000000000000000000000000000000000 PUSH1 0x64 DUP3 ADD MSTORE REVERT JUMPDEST POP SWAP4 POP SWAP4 SWAP1 SWAP5 SWAP2 POP DUP6 DUP1 PUSH2 0x423 JUMP JUMPDEST SWAP6 SWAP3 PUSH1 0x0 SWAP8 SWAP5 SWAP2 SWAP6 SWAP3 SWAP8 JUMPDEST DUP7 MLOAD DUP2 LT ISZERO PUSH2 0x84F JUMPI DUP1 PUSH2 0x83F PUSH2 0x84A SWAP3 DUP12 PUSH2 0x2781 JUMP JUMPDEST MLOAD PUSH2 0x305 DUP3 DUP11 PUSH2 0x2781 JUMP JUMPDEST PUSH2 0x828 JUMP JUMPDEST POP SWAP3 SWAP6 SWAP7 SWAP2 SWAP5 SWAP1 SWAP4 SWAP7 PUSH2 0x41E JUMP JUMPDEST POP DUP3 DUP5 AND PUSH1 0x0 MSTORE PUSH1 0x1 PUSH1 0x20 MSTORE PUSH1 0x40 PUSH1 0x0 KECCAK256 CALLER PUSH1 0x0 MSTORE PUSH1 0x20 MSTORE PUSH2 0x3F0 PUSH1 0xFF PUSH1 0x40 PUSH1 0x0 KECCAK256 SLOAD AND SWAP1 POP PUSH2 0x3E7 JUMP JUMPDEST CALLVALUE PUSH2 0x35E JUMPI PUSH1 0x40 PUSH32 0xFFFFFFFFFFFFFFFFFFFFFFFFFFFFFFFFFFFFFFFFFFFFFFFFFFFFFFFFFFFFFFFC CALLDATASIZE ADD SLT PUSH2 0x35E JUMPI PUSH2 0x8BF PUSH2 0x23DE JUMP JUMPDEST PUSH2 0x8C7 PUSH2 0x2401 JUMP JUMPDEST SWAP1 PUSH20 0xFFFFFFFFFFFFFFFFFFFFFFFFFFFFFFFFFFFFFFFF DUP1 SWAP2 AND PUSH1 0x0 MSTORE PUSH1 0x1 PUSH1 0x20 MSTORE PUSH1 0x40 PUSH1 0x0 KECCAK256 SWAP2 AND PUSH1 0x0 MSTORE PUSH1 0x20 MSTORE PUSH1 0x20 PUSH1 0xFF PUSH1 0x40 PUSH1 0x0 KECCAK256 SLOAD AND PUSH1 0x40 MLOAD SWAP1 ISZERO ISZERO DUP2 MSTORE RETURN JUMPDEST CALLVALUE PUSH2 0x35E JUMPI PUSH1 0x20 PUSH32 0xFFFFFFFFFFFFFFFFFFFFFFFFFFFFFFFFFFFFFFFFFFFFFFFFFFFFFFFFFFFFFFFC CALLDATASIZE ADD SLT PUSH2 0x35E JUMPI PUSH1 0x4 CALLDATALOAD PUSH1 0x0 MSTORE PUSH1 0x3 PUSH1 0x20 MSTORE PUSH1 0x20 PUSH1 0x40 PUSH1 0x0 KECCAK256 SLOAD PUSH1 0x40 MLOAD SWAP1 DUP2 MSTORE RETURN JUMPDEST CALLVALUE PUSH2 0x35E JUMPI PUSH1 0x60 PUSH32 0xFFFFFFFFFFFFFFFFFFFFFFFFFFFFFFFFFFFFFFFFFFFFFFFFFFFFFFFFFFFFFFFC CALLDATASIZE ADD SLT PUSH2 0x35E JUMPI PUSH2 0x98B PUSH2 0x23DE JUMP JUMPDEST PUSH1 0x24 CALLDATALOAD PUSH8 0xFFFFFFFFFFFFFFFF DUP2 GT PUSH2 0x35E JUMPI PUSH2 0x9AB SWAP1 CALLDATASIZE SWAP1 PUSH1 0x4 ADD PUSH2 0x2615 JUMP JUMPDEST SWAP1 PUSH1 0x44 CALLDATALOAD PUSH8 0xFFFFFFFFFFFFFFFF DUP2 GT PUSH2 0x35E JUMPI PUSH2 0x9CC SWAP1 CALLDATASIZE SWAP1 PUSH1 0x4 ADD PUSH2 0x2615 JUMP JUMPDEST SWAP1 PUSH1 0x6 SLOAD SWAP1 PUSH1 0xFF DUP3 PUSH1 0x8 SHR AND ISZERO SWAP2 DUP3 DUP1 SWAP4 PUSH2 0xFF8 JUMPI JUMPDEST DUP1 ISZERO PUSH2 0xFE1 JUMPI JUMPDEST ISZERO PUSH2 0xF5D JUMPI DUP3 PUSH1 0x1 PUSH32 0xFFFFFFFFFFFFFFFFFFFFFFFFFFFFFFFFFFFFFFFFFFFFFFFFFFFFFFFFFFFFFF00 DUP4 AND OR PUSH1 0x6 SSTORE PUSH2 0xF2E JUMPI JUMPDEST POP DUP4 MLOAD PUSH8 0xFFFFFFFFFFFFFFFF DUP2 GT PUSH2 0xD91 JUMPI PUSH2 0xA3A PUSH1 0x8 SLOAD PUSH2 0x2424 JUMP JUMPDEST PUSH1 0x1F DUP2 GT PUSH2 0xE8B JUMPI JUMPDEST POP PUSH1 0x20 SWAP5 PUSH1 0x1F DUP3 GT PUSH1 0x1 EQ PUSH2 0xDCB JUMPI SWAP5 DUP2 SWAP3 SWAP4 SWAP5 SWAP6 PUSH1 0x0 SWAP3 PUSH2 0xDC0 JUMPI JUMPDEST POP POP PUSH32 0xFFFFFFFFFFFFFFFFFFFFFFFFFFFFFFFFFFFFFFFFFFFFFFFFFFFFFFFFFFFFFFFF DUP3 PUSH1 0x1 SHL SWAP3 PUSH1 0x3 SHL SHR NOT AND OR PUSH1 0x8 SSTORE JUMPDEST DUP3 MLOAD PUSH8 0xFFFFFFFFFFFFFFFF DUP2 GT PUSH2 0xD91 JUMPI PUSH2 0xAAF PUSH1 0x9 SLOAD PUSH2 0x2424 JUMP JUMPDEST PUSH1 0x1F DUP2 GT PUSH2 0xD2C JUMPI JUMPDEST POP PUSH1 0x20 PUSH1 0x1F DUP3 GT PUSH1 0x1 EQ PUSH2 0xC6C JUMPI DUP2 SWAP3 SWAP4 SWAP5 PUSH1 0x0 SWAP3 PUSH2 0xC61 JUMPI JUMPDEST POP POP PUSH32 0xFFFFFFFFFFFFFFFFFFFFFFFFFFFFFFFFFFFFFFFFFFFFFFFFFFFFFFFFFFFFFFFF DUP3 PUSH1 0x1 SHL SWAP3 PUSH1 0x3 SHL SHR NOT AND OR PUSH1 0x9 SSTORE JUMPDEST CALLER PUSH32 0xFFFFFFFFFFFFFFFFFFFFFFFF0000000000000000000000000000000000000000 PUSH1 0x7 SLOAD AND OR PUSH1 0x7 SSTORE PUSH1 0x6 SLOAD SWAP1 PUSH1 0xFF DUP3 PUSH1 0x8 SHR AND ISZERO PUSH2 0xBDD JUMPI PUSH22 0xFFFFFFFFFFFFFFFFFFFFFFFFFFFFFFFFFFFFFFFF0000 SWAP1 PUSH1 0x10 SHL AND SWAP2 DUP3 PUSH32 0xFFFFFFFFFFFFFFFFFFFF0000000000000000000000000000000000000000FFFF DUP4 AND OR PUSH1 0x6 SSTORE PUSH2 0xB8A JUMPI STOP JUMPDEST PUSH32 0xFFFFFFFFFFFFFFFFFFFF000000000000000000000000000000000000000000FF AND OR PUSH1 0x6 SSTORE PUSH32 0x7F26B83FF96E1F2B6A682F133852F6798A09C465DA95921460CEFB3847402498 PUSH1 0x20 PUSH1 0x40 MLOAD PUSH1 0x1 DUP2 MSTORE LOG1 STOP JUMPDEST PUSH1 0x84 PUSH1 0x40 MLOAD PUSH32 0x8C379A000000000000000000000000000000000000000000000000000000000 DUP2 MSTORE PUSH1 0x20 PUSH1 0x4 DUP3 ADD MSTORE PUSH1 0x2B PUSH1 0x24 DUP3 ADD MSTORE PUSH32 0x496E697469616C697A61626C653A20636F6E7472616374206973206E6F742069 PUSH1 0x44 DUP3 ADD MSTORE PUSH32 0x6E697469616C697A696E67000000000000000000000000000000000000000000 PUSH1 0x64 DUP3 ADD MSTORE REVERT JUMPDEST ADD MLOAD SWAP1 POP DUP5 DUP1 PUSH2 0xAD2 JUMP JUMPDEST PUSH32 0xFFFFFFFFFFFFFFFFFFFFFFFFFFFFFFFFFFFFFFFFFFFFFFFFFFFFFFFFFFFFFFE0 DUP3 AND SWAP1 PUSH1 0x9 PUSH1 0x0 MSTORE PUSH32 0x6E1540171B6C0C960B71A7020D9F60077F6AF931A8BBF590DA0223DACF75C7AF SWAP2 PUSH1 0x0 JUMPDEST DUP2 DUP2 LT PUSH2 0xD14 JUMPI POP SWAP6 DUP4 PUSH1 0x1 SWAP6 SWAP7 SWAP8 LT PUSH2 0xCDD JUMPI JUMPDEST POP POP POP DUP2 SHL ADD PUSH1 0x9 SSTORE PUSH2 0xB05 JUMP JUMPDEST ADD MLOAD PUSH32 0xFFFFFFFFFFFFFFFFFFFFFFFFFFFFFFFFFFFFFFFFFFFFFFFFFFFFFFFFFFFFFFFF PUSH1 0xF8 DUP5 PUSH1 0x3 SHL AND SHR NOT AND SWAP1 SSTORE DUP5 DUP1 DUP1 PUSH2 0xCCF JUMP JUMPDEST SWAP2 SWAP3 PUSH1 0x20 PUSH1 0x1 DUP2 SWAP3 DUP7 DUP12 ADD MLOAD DUP2 SSTORE ADD SWAP5 ADD SWAP3 ADD PUSH2 0xCBA JUMP JUMPDEST PUSH1 0x9 PUSH1 0x0 MSTORE PUSH32 0x6E1540171B6C0C960B71A7020D9F60077F6AF931A8BBF590DA0223DACF75C7AF PUSH1 0x1F DUP4 ADD PUSH1 0x5 SHR DUP2 ADD SWAP2 PUSH1 0x20 DUP5 LT PUSH2 0xD87 JUMPI JUMPDEST PUSH1 0x1F ADD PUSH1 0x5 SHR ADD SWAP1 JUMPDEST DUP2 DUP2 LT PUSH2 0xD7B JUMPI POP PUSH2 0xAB8 JUMP JUMPDEST PUSH1 0x0 DUP2 SSTORE PUSH1 0x1 ADD PUSH2 0xD6E JUMP JUMPDEST SWAP1 SWAP2 POP DUP2 SWAP1 PUSH2 0xD65 JUMP JUMPDEST PUSH32 0x4E487B7100000000000000000000000000000000000000000000000000000000 PUSH1 0x0 MSTORE PUSH1 0x41 PUSH1 0x4 MSTORE PUSH1 0x24 PUSH1 0x0 REVERT JUMPDEST ADD MLOAD SWAP1 POP DUP6 DUP1 PUSH2 0xA60 JUMP JUMPDEST PUSH32 0xFFFFFFFFFFFFFFFFFFFFFFFFFFFFFFFFFFFFFFFFFFFFFFFFFFFFFFFFFFFFFFE0 DUP3 AND SWAP6 PUSH1 0x8 PUSH1 0x0 MSTORE PUSH32 0xF3F7A9FE364FAAB93B216DA50A3214154F22A0A2B415B23A84C8169E8B636EE3 SWAP2 PUSH1 0x0 JUMPDEST DUP9 DUP2 LT PUSH2 0xE73 JUMPI POP DUP4 PUSH1 0x1 SWAP6 SWAP7 SWAP8 SWAP9 LT PUSH2 0xE3C JUMPI JUMPDEST POP POP POP DUP2 SHL ADD PUSH1 0x8 SSTORE PUSH2 0xA93 JUMP JUMPDEST ADD MLOAD PUSH32 0xFFFFFFFFFFFFFFFFFFFFFFFFFFFFFFFFFFFFFFFFFFFFFFFFFFFFFFFFFFFFFFFF PUSH1 0xF8 DUP5 PUSH1 0x3 SHL AND SHR NOT AND SWAP1 SSTORE DUP6 DUP1 DUP1 PUSH2 0xE2E JUMP JUMPDEST SWAP2 SWAP3 PUSH1 0x20 PUSH1 0x1 DUP2 SWAP3 DUP7 DUP6 ADD MLOAD DUP2 SSTORE ADD SWAP5 ADD SWAP3 ADD PUSH2 0xE19 JUMP JUMPDEST PUSH1 0x8 PUSH1 0x0 MSTORE PUSH1 0x1F DUP3 ADD PUSH1 0x5 SHR PUSH32 0xF3F7A9FE364FAAB93B216DA50A3214154F22A0A2B415B23A84C8169E8B636EE3 ADD SWAP1 PUSH1 0x20 DUP4 LT PUSH2 0xF06 JUMPI JUMPDEST PUSH1 0x1F ADD PUSH1 0x5 SHR PUSH32 0xF3F7A9FE364FAAB93B216DA50A3214154F22A0A2B415B23A84C8169E8B636EE3 ADD SWAP1 JUMPDEST DUP2 DUP2 LT PUSH2 0xEFA JUMPI POP PUSH2 0xA43 JUMP JUMPDEST PUSH1 0x0 DUP2 SSTORE PUSH1 0x1 ADD PUSH2 0xEED JUMP JUMPDEST PUSH32 0xF3F7A9FE364FAAB93B216DA50A3214154F22A0A2B415B23A84C8169E8B636EE3 SWAP2 POP PUSH2 0xEC3 JUMP JUMPDEST PUSH32 0xFFFFFFFFFFFFFFFFFFFFFFFFFFFFFFFFFFFFFFFFFFFFFFFFFFFFFFFFFFFF0000 AND PUSH2 0x101 OR PUSH1 0x6 SSTORE DUP5 PUSH2 0xA1D JUMP JUMPDEST PUSH1 0x84 PUSH1 0x40 MLOAD PUSH32 0x8C379A000000000000000000000000000000000000000000000000000000000 DUP2 MSTORE PUSH1 0x20 PUSH1 0x4 DUP3 ADD MSTORE PUSH1 0x2E PUSH1 0x24 DUP3 ADD MSTORE PUSH32 0x496E697469616C697A61626C653A20636F6E747261637420697320616C726561 PUSH1 0x44 DUP3 ADD MSTORE PUSH32 0x647920696E697469616C697A6564000000000000000000000000000000000000 PUSH1 0x64 DUP3 ADD MSTORE REVERT JUMPDEST POP ADDRESS EXTCODESIZE ISZERO DUP1 ISZERO PUSH2 0x9E9 JUMPI POP PUSH1 0x1 PUSH1 0xFF DUP3 AND EQ PUSH2 0x9E9 JUMP JUMPDEST POP PUSH1 0x1 PUSH1 0xFF DUP3 AND LT PUSH2 0x9E2 JUMP JUMPDEST CALLVALUE PUSH2 0x35E JUMPI PUSH1 0x40 PUSH32 0xFFFFFFFFFFFFFFFFFFFFFFFFFFFFFFFFFFFFFFFFFFFFFFFFFFFFFFFFFFFFFFFC CALLDATASIZE ADD SLT PUSH2 0x35E JUMPI PUSH2 0x103C PUSH2 0x23DE JUMP JUMPDEST PUSH1 0x24 CALLDATALOAD SWAP1 DUP2 ISZERO ISZERO DUP1 SWAP3 SUB PUSH2 0x35E JUMPI PUSH20 0xFFFFFFFFFFFFFFFFFFFFFFFFFFFFFFFFFFFFFFFF AND SWAP1 DUP2 CALLER EQ PUSH2 0x10DB JUMPI CALLER PUSH1 0x0 MSTORE PUSH1 0x1 PUSH1 0x20 MSTORE PUSH1 0x40 PUSH1 0x0 KECCAK256 DUP3 PUSH1 0x0 MSTORE PUSH1 0x20 MSTORE PUSH1 0x40 PUSH1 0x0 KECCAK256 PUSH32 0xFFFFFFFFFFFFFFFFFFFFFFFFFFFFFFFFFFFFFFFFFFFFFFFFFFFFFFFFFFFFFF00 DUP2 SLOAD AND PUSH1 0xFF DUP4 AND OR SWAP1 SSTORE PUSH1 0x40 MLOAD SWAP1 DUP2 MSTORE PUSH32 0x17307EAB39AB6107E8899845AD3D59BD9653F200F220920489CA2B5937696C31 PUSH1 0x20 CALLER SWAP3 LOG3 STOP JUMPDEST PUSH1 0x84 PUSH1 0x40 MLOAD PUSH32 0x8C379A000000000000000000000000000000000000000000000000000000000 DUP2 MSTORE PUSH1 0x20 PUSH1 0x4 DUP3 ADD MSTORE PUSH1 0x29 PUSH1 0x24 DUP3 ADD MSTORE PUSH32 0x455243313135353A2073657474696E6720617070726F76616C20737461747573 PUSH1 0x44 DUP3 ADD MSTORE PUSH32 0x20666F722073656C660000000000000000000000000000000000000000000000 PUSH1 0x64 DUP3 ADD MSTORE REVERT JUMPDEST CALLVALUE PUSH2 0x35E JUMPI PUSH1 0x0 PUSH32 0xFFFFFFFFFFFFFFFFFFFFFFFFFFFFFFFFFFFFFFFFFFFFFFFFFFFFFFFFFFFFFFFC CALLDATASIZE ADD SLT PUSH2 0x35E JUMPI PUSH1 0x40 MLOAD PUSH1 0x0 PUSH1 0x9 SLOAD PUSH2 0x119F DUP2 PUSH2 0x2424 JUMP JUMPDEST DUP1 DUP5 MSTORE SWAP1 PUSH1 0x1 SWAP1 DUP2 DUP2 AND SWAP1 DUP2 ISZERO PUSH2 0x123C JUMPI POP PUSH1 0x1 EQ PUSH2 0x11E1 JUMPI JUMPDEST PUSH2 0x11DD DUP5 PUSH2 0x11C9 DUP2 DUP7 SUB DUP3 PUSH2 0x2493 JUMP JUMPDEST PUSH1 0x40 MLOAD SWAP2 DUP3 SWAP2 PUSH1 0x20 DUP4 MSTORE PUSH1 0x20 DUP4 ADD SWAP1 PUSH2 0x24F7 JUMP JUMPDEST SUB SWAP1 RETURN JUMPDEST PUSH1 0x9 PUSH1 0x0 SWAP1 DUP2 MSTORE SWAP3 POP PUSH32 0x6E1540171B6C0C960B71A7020D9F60077F6AF931A8BBF590DA0223DACF75C7AF JUMPDEST DUP3 DUP5 LT PUSH2 0x1224 JUMPI POP POP POP DUP2 ADD PUSH1 0x20 ADD PUSH2 0x11C9 DUP3 PUSH2 0x11B9 JUMP JUMPDEST DUP1 SLOAD PUSH1 0x20 DUP6 DUP8 ADD DUP2 ADD SWAP2 SWAP1 SWAP2 MSTORE SWAP1 SWAP4 ADD SWAP3 DUP2 ADD PUSH2 0x120C JUMP JUMPDEST PUSH32 0xFFFFFFFFFFFFFFFFFFFFFFFFFFFFFFFFFFFFFFFFFFFFFFFFFFFFFFFFFFFFFF00 AND PUSH1 0x20 DUP1 DUP8 ADD SWAP2 SWAP1 SWAP2 MSTORE SWAP3 ISZERO ISZERO PUSH1 0x5 SHL DUP6 ADD SWAP1 SWAP3 ADD SWAP3 POP PUSH2 0x11C9 SWAP2 POP DUP4 SWAP1 POP PUSH2 0x11B9 JUMP JUMPDEST CALLVALUE PUSH2 0x35E JUMPI PUSH1 0x0 PUSH32 0xFFFFFFFFFFFFFFFFFFFFFFFFFFFFFFFFFFFFFFFFFFFFFFFFFFFFFFFFFFFFFFFC CALLDATASIZE ADD SLT PUSH2 0x35E JUMPI PUSH1 0x20 PUSH20 0xFFFFFFFFFFFFFFFFFFFFFFFFFFFFFFFFFFFFFFFF PUSH1 0x6 SLOAD PUSH1 0x10 SHR AND PUSH1 0x40 MLOAD SWAP1 DUP2 MSTORE RETURN JUMPDEST CALLVALUE PUSH2 0x35E JUMPI PUSH1 0x40 PUSH32 0xFFFFFFFFFFFFFFFFFFFFFFFFFFFFFFFFFFFFFFFFFFFFFFFFFFFFFFFFFFFFFFFC CALLDATASIZE ADD SLT PUSH2 0x35E JUMPI PUSH8 0xFFFFFFFFFFFFFFFF PUSH1 0x4 CALLDATALOAD PUSH1 0x24 CALLDATALOAD DUP3 DUP2 GT PUSH2 0x35E JUMPI CALLDATASIZE PUSH1 0x23 DUP3 ADD SLT ISZERO PUSH2 0x35E JUMPI DUP1 PUSH1 0x4 ADD CALLDATALOAD SWAP1 DUP4 DUP3 GT PUSH2 0x35E JUMPI CALLDATASIZE PUSH1 0x24 DUP4 DUP4 ADD ADD GT PUSH2 0x35E JUMPI PUSH2 0x1370 SWAP2 PUSH2 0x1366 PUSH20 0xFFFFFFFFFFFFFFFFFFFFFFFFFFFFFFFFFFFFFFFF PUSH1 0x7 SLOAD AND CALLER EQ PUSH2 0x2C50 JUMP JUMPDEST PUSH1 0x24 CALLDATASIZE SWAP3 ADD PUSH2 0x25B0 JUMP JUMPDEST SWAP2 DUP2 PUSH1 0x0 MSTORE PUSH1 0x20 SWAP1 PUSH1 0x5 DUP3 MSTORE PUSH1 0x40 PUSH1 0x0 KECCAK256 SWAP1 DUP5 MLOAD SWAP1 DUP2 GT PUSH2 0xD91 JUMPI PUSH2 0x1395 DUP3 SLOAD PUSH2 0x2424 JUMP JUMPDEST PUSH1 0x1F DUP2 GT PUSH2 0x14FB JUMPI JUMPDEST POP DUP3 PUSH1 0x1F DUP3 GT PUSH1 0x1 EQ PUSH2 0x1438 JUMPI DUP2 SWAP1 PUSH32 0x6BB7FF708619BA0610CBA295A58592E0451DEE2622938C8755667688DAF3529B SWAP6 SWAP7 PUSH1 0x0 SWAP3 PUSH2 0x142D JUMPI JUMPDEST POP POP PUSH32 0xFFFFFFFFFFFFFFFFFFFFFFFFFFFFFFFFFFFFFFFFFFFFFFFFFFFFFFFFFFFFFFFF DUP3 PUSH1 0x1 SHL SWAP3 PUSH1 0x3 SHL SHR NOT AND OR SWAP1 SSTORE JUMPDEST PUSH2 0x1413 DUP4 PUSH2 0x2CDB JUMP JUMPDEST SWAP1 PUSH2 0x1428 PUSH1 0x40 MLOAD SWAP3 DUP3 DUP5 SWAP4 DUP5 MSTORE DUP4 ADD SWAP1 PUSH2 0x24F7 JUMP JUMPDEST SUB SWAP1 LOG2 STOP JUMPDEST ADD MLOAD SWAP1 POP DUP7 DUP1 PUSH2 0x13D8 JUMP JUMPDEST PUSH32 0xFFFFFFFFFFFFFFFFFFFFFFFFFFFFFFFFFFFFFFFFFFFFFFFFFFFFFFFFFFFFFFE0 DUP3 AND SWAP6 DUP4 PUSH1 0x0 MSTORE DUP5 PUSH1 0x0 KECCAK256 SWAP7 PUSH1 0x0 JUMPDEST DUP2 DUP2 LT PUSH2 0x14E4 JUMPI POP SWAP2 PUSH32 0x6BB7FF708619BA0610CBA295A58592E0451DEE2622938C8755667688DAF3529B SWAP7 SWAP8 SWAP2 DUP5 PUSH1 0x1 SWAP6 SWAP5 LT PUSH2 0x14AD JUMPI JUMPDEST POP POP POP DUP2 SHL ADD SWAP1 SSTORE PUSH2 0x140A JUMP JUMPDEST ADD MLOAD PUSH32 0xFFFFFFFFFFFFFFFFFFFFFFFFFFFFFFFFFFFFFFFFFFFFFFFFFFFFFFFFFFFFFFFF PUSH1 0xF8 DUP5 PUSH1 0x3 SHL AND SHR NOT AND SWAP1 SSTORE DUP7 DUP1 DUP1 PUSH2 0x14A0 JUMP JUMPDEST DUP4 DUP4 ADD MLOAD DUP10 SSTORE PUSH1 0x1 SWAP1 SWAP9 ADD SWAP8 SWAP3 DUP7 ADD SWAP3 DUP7 ADD PUSH2 0x1468 JUMP JUMPDEST DUP3 PUSH1 0x0 MSTORE DUP4 PUSH1 0x0 KECCAK256 PUSH1 0x1F DUP4 ADD PUSH1 0x5 SHR DUP2 ADD SWAP2 DUP6 DUP5 LT PUSH2 0x1537 JUMPI JUMPDEST PUSH1 0x1F ADD PUSH1 0x5 SHR ADD SWAP1 JUMPDEST DUP2 DUP2 LT PUSH2 0x152B JUMPI POP PUSH2 0x139E JUMP JUMPDEST PUSH1 0x0 DUP2 SSTORE PUSH1 0x1 ADD PUSH2 0x151E JUMP JUMPDEST SWAP1 SWAP2 POP DUP2 SWAP1 PUSH2 0x1515 JUMP JUMPDEST CALLVALUE PUSH2 0x35E JUMPI PUSH1 0x80 PUSH32 0xFFFFFFFFFFFFFFFFFFFFFFFFFFFFFFFFFFFFFFFFFFFFFFFFFFFFFFFFFFFFFFFC CALLDATASIZE ADD SLT PUSH2 0x35E JUMPI PUSH2 0x1578 PUSH2 0x23DE JUMP JUMPDEST PUSH1 0x44 CALLDATALOAD SWAP1 PUSH1 0x24 CALLDATALOAD PUSH1 0x64 CALLDATALOAD PUSH8 0xFFFFFFFFFFFFFFFF DUP2 GT PUSH2 0x35E JUMPI PUSH2 0x159F SWAP1 CALLDATASIZE SWAP1 PUSH1 0x4 ADD PUSH2 0x2615 JUMP JUMPDEST SWAP2 PUSH20 0xFFFFFFFFFFFFFFFFFFFFFFFFFFFFFFFFFFFFFFFF PUSH2 0x15C4 DUP2 PUSH1 0x7 SLOAD AND CALLER EQ PUSH2 0x2C50 JUMP JUMPDEST DUP2 AND SWAP2 DUP3 ISZERO PUSH2 0x16EB JUMPI PUSH2 0x15D6 DUP2 PUSH2 0x2B05 JUMP JUMPDEST SWAP3 PUSH2 0x15E0 DUP7 PUSH2 0x2B05 JUMP JUMPDEST SWAP6 PUSH1 0x0 JUMPDEST DUP6 MLOAD DUP2 LT ISZERO PUSH2 0x160B JUMPI DUP1 PUSH2 0x15FB PUSH2 0x1606 SWAP3 DUP11 PUSH2 0x2781 JUMP JUMPDEST MLOAD PUSH2 0x305 DUP3 DUP10 PUSH2 0x2781 JUMP JUMPDEST PUSH2 0x15E4 JUMP JUMPDEST POP DUP6 DUP4 PUSH1 0x0 MSTORE PUSH1 0x20 SWAP5 PUSH1 0x0 DUP7 MSTORE PUSH1 0x40 PUSH1 0x0 KECCAK256 DUP5 PUSH1 0x0 MSTORE DUP7 MSTORE PUSH1 0x40 PUSH1 0x0 KECCAK256 PUSH2 0x1633 DUP5 DUP3 SLOAD PUSH2 0x2965 JUMP JUMPDEST SWAP1 SSTORE DUP4 PUSH1 0x0 PUSH1 0x40 MLOAD DUP8 DUP2 MSTORE DUP6 DUP10 DUP3 ADD MSTORE PUSH32 0xC3D58168C5AE7397731D063D5BBF3D657854427343F4C083240F7AACAA2D0F62 PUSH1 0x40 CALLER SWAP3 LOG4 EXTCODESIZE PUSH2 0x1670 JUMPI STOP JUMPDEST PUSH2 0x16CD SWAP3 DUP6 SWAP3 PUSH1 0x0 PUSH1 0x40 MLOAD DUP1 SWAP7 DUP2 SWAP6 DUP3 SWAP5 PUSH32 0xF23A6E6100000000000000000000000000000000000000000000000000000000 SWAP11 DUP12 DUP6 MSTORE CALLER PUSH1 0x4 DUP7 ADD MSTORE DUP6 PUSH1 0x24 DUP7 ADD MSTORE PUSH1 0x44 DUP6 ADD MSTORE PUSH1 0x64 DUP5 ADD MSTORE PUSH1 0xA0 PUSH1 0x84 DUP5 ADD MSTORE PUSH1 0xA4 DUP4 ADD SWAP1 PUSH2 0x24F7 JUMP JUMPDEST SUB SWAP3 GAS CALL PUSH1 0x0 SWAP2 DUP2 PUSH2 0x700 JUMPI POP PUSH2 0x652 JUMPI POP POP PUSH1 0x1 SWAP1 PUSH2 0x568 PUSH2 0x2A5A JUMP JUMPDEST PUSH1 0x84 PUSH1 0x40 MLOAD PUSH32 0x8C379A000000000000000000000000000000000000000000000000000000000 DUP2 MSTORE PUSH1 0x20 PUSH1 0x4 DUP3 ADD MSTORE PUSH1 0x21 PUSH1 0x24 DUP3 ADD MSTORE PUSH32 0x455243313135353A206D696E7420746F20746865207A65726F20616464726573 PUSH1 0x44 DUP3 ADD MSTORE PUSH32 0x7300000000000000000000000000000000000000000000000000000000000000 PUSH1 0x64 DUP3 ADD MSTORE REVERT JUMPDEST CALLVALUE PUSH2 0x35E JUMPI PUSH1 0x60 PUSH32 0xFFFFFFFFFFFFFFFFFFFFFFFFFFFFFFFFFFFFFFFFFFFFFFFFFFFFFFFFFFFFFFFC CALLDATASIZE ADD SLT PUSH2 0x35E JUMPI PUSH2 0x17A6 PUSH2 0x23DE JUMP JUMPDEST PUSH1 0x24 SWAP1 PUSH8 0xFFFFFFFFFFFFFFFF SWAP1 DUP3 CALLDATALOAD DUP3 DUP2 GT PUSH2 0x35E JUMPI PUSH2 0x17CA SWAP1 CALLDATASIZE SWAP1 PUSH1 0x4 ADD PUSH2 0x2552 JUMP JUMPDEST SWAP2 PUSH1 0x44 SWAP1 DUP2 CALLDATALOAD SWAP1 DUP2 GT PUSH2 0x35E JUMPI PUSH2 0x17FA PUSH20 0xFFFFFFFFFFFFFFFFFFFFFFFFFFFFFFFFFFFFFFFF SWAP2 CALLDATASIZE SWAP1 PUSH1 0x4 ADD PUSH2 0x2552 JUMP JUMPDEST SWAP3 AND SWAP3 CALLER DUP5 EQ DUP1 ISZERO PUSH2 0x1A0B JUMPI JUMPDEST PUSH2 0x1810 SWAP1 PUSH2 0x27C4 JUMP JUMPDEST DUP4 ISZERO PUSH2 0x181C DUP2 ISZERO PUSH2 0x2B3B JUMP JUMPDEST PUSH2 0x1829 DUP3 MLOAD DUP6 MLOAD EQ PUSH2 0x2972 JUMP JUMPDEST PUSH1 0x0 PUSH1 0x40 MLOAD PUSH2 0x1837 DUP2 PUSH2 0x2477 JUMP JUMPDEST MSTORE PUSH2 0x19D3 JUMPI JUMPDEST PUSH1 0x0 JUMPDEST DUP2 MLOAD DUP2 LT ISZERO PUSH2 0x1919 JUMPI PUSH2 0x1853 DUP2 DUP4 PUSH2 0x2781 JUMP JUMPDEST MLOAD PUSH2 0x185E DUP3 DUP7 PUSH2 0x2781 JUMP JUMPDEST MLOAD SWAP1 DUP1 PUSH1 0x0 MSTORE PUSH1 0x3 PUSH1 0x20 DUP2 DUP2 MSTORE PUSH1 0x40 PUSH1 0x0 KECCAK256 SLOAD SWAP3 DUP5 DUP5 LT PUSH2 0x1897 JUMPI SWAP1 PUSH2 0x1892 SWAP6 SWAP5 SWAP4 SWAP3 SWAP2 PUSH1 0x0 MSTORE MSTORE SUB PUSH1 0x40 PUSH1 0x0 KECCAK256 SSTORE PUSH2 0x2725 JUMP JUMPDEST PUSH2 0x1840 JUMP JUMPDEST PUSH1 0x84 DUP3 PUSH32 0x455243313135353A206275726E20616D6F756E74206578636565647320746F74 DUP11 PUSH1 0x28 DUP16 PUSH1 0x40 MLOAD SWAP5 PUSH32 0x8C379A000000000000000000000000000000000000000000000000000000000 DUP7 MSTORE PUSH1 0x4 DUP7 ADD MSTORE DUP5 ADD MSTORE DUP3 ADD MSTORE PUSH32 0x616C537570706C79000000000000000000000000000000000000000000000000 PUSH1 0x64 DUP3 ADD MSTORE REVERT JUMPDEST DUP4 DUP3 DUP7 PUSH1 0x0 JUMPDEST DUP3 MLOAD DUP2 LT ISZERO PUSH2 0x198E JUMPI DUP1 PUSH2 0x1936 PUSH2 0x1989 SWAP3 DUP6 PUSH2 0x2781 JUMP JUMPDEST MLOAD PUSH2 0x1941 DUP3 DUP8 PUSH2 0x2781 JUMP JUMPDEST MLOAD SWAP1 DUP1 PUSH1 0x0 MSTORE PUSH1 0x20 PUSH1 0x0 DUP2 MSTORE PUSH1 0x40 PUSH1 0x0 KECCAK256 DUP7 PUSH1 0x0 MSTORE DUP2 MSTORE PUSH1 0x40 PUSH1 0x0 KECCAK256 SLOAD SWAP2 PUSH2 0x196B DUP5 DUP5 LT ISZERO PUSH2 0x2BC6 JUMP JUMPDEST PUSH1 0x0 MSTORE PUSH1 0x0 DUP2 MSTORE PUSH1 0x40 PUSH1 0x0 KECCAK256 SWAP1 DUP7 PUSH1 0x0 MSTORE MSTORE SUB PUSH1 0x40 PUSH1 0x0 KECCAK256 SSTORE PUSH2 0x2725 JUMP JUMPDEST PUSH2 0x191F JUMP JUMPDEST POP SWAP1 PUSH32 0x4A39DC06D4C0DBC64B70AF90FD698A233A518AA5D07E595D983B8C0526C8F7FB PUSH2 0x19C5 PUSH1 0x0 SWAP5 PUSH1 0x40 MLOAD SWAP2 DUP3 SWAP2 CALLER SWAP6 DUP4 PUSH2 0x29FD JUMP JUMPDEST SUB SWAP1 LOG4 PUSH2 0x2D9 PUSH1 0x40 MLOAD PUSH2 0x2477 JUMP JUMPDEST SWAP3 PUSH1 0x0 SWAP5 SWAP2 SWAP5 JUMPDEST DUP5 MLOAD DUP2 LT ISZERO PUSH2 0x1A01 JUMPI DUP1 PUSH2 0x19F1 PUSH2 0x19FC SWAP3 DUP7 PUSH2 0x2781 JUMP JUMPDEST MLOAD PUSH2 0x305 DUP3 DUP9 PUSH2 0x2781 JUMP JUMPDEST PUSH2 0x19DA JUMP JUMPDEST POP SWAP3 SWAP4 SWAP1 SWAP4 PUSH2 0x183D JUMP JUMPDEST POP DUP4 PUSH1 0x0 MSTORE PUSH1 0x1 PUSH1 0x20 MSTORE PUSH1 0x40 PUSH1 0x0 KECCAK256 CALLER PUSH1 0x0 MSTORE PUSH1 0x20 MSTORE PUSH2 0x1810 PUSH1 0xFF PUSH1 0x40 PUSH1 0x0 KECCAK256 SLOAD AND SWAP1 POP PUSH2 0x1807 JUMP JUMPDEST CALLVALUE PUSH2 0x35E JUMPI PUSH1 0x20 PUSH32 0xFFFFFFFFFFFFFFFFFFFFFFFFFFFFFFFFFFFFFFFFFFFFFFFFFFFFFFFFFFFFFFFC CALLDATASIZE ADD SLT PUSH2 0x35E JUMPI PUSH1 0x4 CALLDATALOAD PUSH1 0x0 MSTORE PUSH1 0x3 PUSH1 0x20 MSTORE PUSH1 0x20 PUSH1 0x40 PUSH1 0x0 KECCAK256 SLOAD ISZERO ISZERO PUSH1 0x40 MLOAD SWAP1 DUP2 MSTORE RETURN JUMPDEST CALLVALUE PUSH2 0x35E JUMPI PUSH1 0x40 PUSH32 0xFFFFFFFFFFFFFFFFFFFFFFFFFFFFFFFFFFFFFFFFFFFFFFFFFFFFFFFFFFFFFFFC CALLDATASIZE ADD SLT PUSH2 0x35E JUMPI PUSH1 0x4 CALLDATALOAD PUSH8 0xFFFFFFFFFFFFFFFF DUP1 DUP3 GT PUSH2 0x35E JUMPI CALLDATASIZE PUSH1 0x23 DUP4 ADD SLT ISZERO PUSH2 0x35E JUMPI DUP2 PUSH1 0x4 ADD CALLDATALOAD SWAP1 PUSH2 0x1ADC DUP3 PUSH2 0x253A JUMP JUMPDEST SWAP3 PUSH2 0x1AEA PUSH1 0x40 MLOAD SWAP5 DUP6 PUSH2 0x2493 JUMP JUMPDEST DUP3 DUP5 MSTORE PUSH1 0x20 SWAP3 PUSH1 0x24 DUP5 DUP7 ADD SWAP2 PUSH1 0x5 SHL DUP4 ADD ADD SWAP2 CALLDATASIZE DUP4 GT PUSH2 0x35E JUMPI PUSH1 0x24 ADD SWAP1 JUMPDEST DUP3 DUP3 LT PUSH2 0x1C75 JUMPI POP POP POP PUSH1 0x24 CALLDATALOAD SWAP1 DUP2 GT PUSH2 0x35E JUMPI PUSH2 0x1B2B SWAP1 CALLDATASIZE SWAP1 PUSH1 0x4 ADD PUSH2 0x2552 JUMP JUMPDEST DUP3 MLOAD DUP2 MLOAD SUB PUSH2 0x1BF1 JUMPI DUP3 MLOAD SWAP3 PUSH32 0xFFFFFFFFFFFFFFFFFFFFFFFFFFFFFFFFFFFFFFFFFFFFFFFFFFFFFFFFFFFFFFE0 PUSH2 0x1B7A PUSH2 0x1B64 DUP7 PUSH2 0x253A JUMP JUMPDEST SWAP6 PUSH2 0x1B72 PUSH1 0x40 MLOAD SWAP8 DUP9 PUSH2 0x2493 JUMP JUMPDEST DUP1 DUP8 MSTORE PUSH2 0x253A JUMP JUMPDEST ADD CALLDATASIZE DUP5 DUP7 ADD CALLDATACOPY PUSH1 0x0 JUMPDEST DUP2 MLOAD DUP2 LT ISZERO PUSH2 0x1BDA JUMPI DUP1 PUSH2 0x1BC5 PUSH20 0xFFFFFFFFFFFFFFFFFFFFFFFFFFFFFFFFFFFFFFFF PUSH2 0x1BB2 PUSH2 0x1BD5 SWAP5 DUP7 PUSH2 0x2781 JUMP JUMPDEST MLOAD AND PUSH2 0x1BBE DUP4 DUP8 PUSH2 0x2781 JUMP JUMPDEST MLOAD SWAP1 PUSH2 0x2667 JUMP JUMPDEST PUSH2 0x1BCF DUP3 DUP9 PUSH2 0x2781 JUMP JUMPDEST MSTORE PUSH2 0x2725 JUMP JUMPDEST PUSH2 0x1B83 JUMP JUMPDEST POP POP POP PUSH2 0x11DD PUSH1 0x40 MLOAD SWAP3 DUP3 DUP5 SWAP4 DUP5 MSTORE DUP4 ADD SWAP1 PUSH2 0x2633 JUMP JUMPDEST PUSH1 0x84 DUP3 PUSH1 0x40 MLOAD SWAP1 PUSH32 0x8C379A000000000000000000000000000000000000000000000000000000000 DUP3 MSTORE PUSH1 0x4 DUP3 ADD MSTORE PUSH1 0x29 PUSH1 0x24 DUP3 ADD MSTORE PUSH32 0x455243313135353A206163636F756E747320616E6420696473206C656E677468 PUSH1 0x44 DUP3 ADD MSTORE PUSH32 0x206D69736D617463680000000000000000000000000000000000000000000000 PUSH1 0x64 DUP3 ADD MSTORE REVERT JUMPDEST DUP2 CALLDATALOAD PUSH20 0xFFFFFFFFFFFFFFFFFFFFFFFFFFFFFFFFFFFFFFFF DUP2 AND DUP2 SUB PUSH2 0x35E JUMPI DUP2 MSTORE SWAP1 DUP5 ADD SWAP1 DUP5 ADD PUSH2 0x1B09 JUMP JUMPDEST CALLVALUE PUSH2 0x35E JUMPI PUSH32 0xFFFFFFFFFFFFFFFFFFFFFFFFFFFFFFFFFFFFFFFFFFFFFFFFFFFFFFFFFFFFFFFC PUSH1 0xA0 DUP2 CALLDATASIZE ADD SLT PUSH2 0x35E JUMPI PUSH2 0x1CD9 PUSH2 0x23DE JUMP JUMPDEST SWAP1 PUSH2 0x1CE2 PUSH2 0x2401 JUMP JUMPDEST PUSH1 0x44 SWAP1 DUP2 CALLDATALOAD SWAP3 PUSH8 0xFFFFFFFFFFFFFFFF SWAP4 DUP5 DUP2 GT PUSH2 0x35E JUMPI PUSH2 0x1D07 SWAP1 CALLDATASIZE SWAP1 PUSH1 0x4 ADD PUSH2 0x2552 JUMP JUMPDEST PUSH1 0x64 DUP1 CALLDATALOAD DUP7 DUP2 GT PUSH2 0x35E JUMPI PUSH2 0x1D20 SWAP1 CALLDATASIZE SWAP1 PUSH1 0x4 ADD PUSH2 0x2552 JUMP JUMPDEST SWAP5 PUSH1 0x84 SWAP7 DUP8 CALLDATALOAD SWAP1 DUP2 GT PUSH2 0x35E JUMPI PUSH2 0x1D3B SWAP1 CALLDATASIZE SWAP1 PUSH1 0x4 ADD PUSH2 0x2615 JUMP JUMPDEST PUSH20 0xFFFFFFFFFFFFFFFFFFFFFFFFFFFFFFFFFFFFFFFF SWAP5 CALLER DUP7 DUP12 AND EQ DUP1 ISZERO PUSH2 0x2175 JUMPI JUMPDEST PUSH2 0x1D66 SWAP1 PUSH2 0x27C4 JUMP JUMPDEST PUSH2 0x1D73 DUP6 MLOAD DUP10 MLOAD EQ PUSH2 0x2972 JUMP JUMPDEST DUP6 DUP8 AND ISZERO PUSH2 0x1D81 DUP2 ISZERO PUSH2 0x284F JUMP JUMPDEST DUP7 DUP12 AND ISZERO PUSH2 0x2132 JUMPI JUMPDEST PUSH2 0x203C JUMPI JUMPDEST PUSH1 0x0 JUMPDEST DUP6 MLOAD DUP2 LT ISZERO PUSH2 0x1E28 JUMPI DUP1 PUSH2 0x1DA9 PUSH2 0x1E23 SWAP3 DUP9 PUSH2 0x2781 JUMP JUMPDEST MLOAD DUP13 PUSH2 0x1DB5 DUP4 DUP14 PUSH2 0x2781 JUMP JUMPDEST MLOAD SWAP2 DUP1 PUSH1 0x0 MSTORE DUP3 PUSH1 0x20 SWAP3 PUSH1 0x0 DUP5 MSTORE PUSH1 0x40 PUSH1 0x0 KECCAK256 DUP14 DUP3 AND PUSH1 0x0 MSTORE DUP5 MSTORE PUSH1 0x40 PUSH1 0x0 KECCAK256 SLOAD SWAP1 PUSH2 0x1DE3 DUP4 DUP4 LT ISZERO PUSH2 0x28DA JUMP JUMPDEST DUP4 PUSH1 0x0 MSTORE PUSH1 0x0 DUP6 MSTORE DUP14 PUSH1 0x40 PUSH1 0x0 KECCAK256 SWAP2 AND PUSH1 0x0 MSTORE DUP5 MSTORE SUB PUSH1 0x40 PUSH1 0x0 KECCAK256 SSTORE PUSH1 0x0 MSTORE PUSH1 0x0 DUP2 MSTORE PUSH1 0x40 PUSH1 0x0 KECCAK256 SWAP1 DUP11 DUP13 AND PUSH1 0x0 MSTORE MSTORE PUSH2 0x31E PUSH1 0x40 PUSH1 0x0 KECCAK256 SWAP2 DUP3 SLOAD PUSH2 0x2965 JUMP JUMPDEST PUSH2 0x1D92 JUMP JUMPDEST POP DUP9 DUP11 SWAP9 SWAP8 SWAP7 SWAP5 SWAP8 DUP10 PUSH1 0x40 MLOAD DUP9 PUSH32 0x4A39DC06D4C0DBC64B70AF90FD698A233A518AA5D07E595D983B8C0526C8F7FB DUP10 DUP1 DUP14 AND SWAP5 AND SWAP3 DUP1 PUSH2 0x1E6A DUP8 CALLER SWAP6 DUP4 PUSH2 0x29FD JUMP JUMPDEST SUB SWAP1 LOG4 DUP8 EXTCODESIZE PUSH2 0x1E75 JUMPI STOP JUMPDEST PUSH1 0x40 MLOAD SWAP9 DUP10 SWAP8 DUP9 SWAP7 DUP9 PUSH32 0xBC197C8100000000000000000000000000000000000000000000000000000000 SWAP14 DUP15 DUP11 MSTORE CALLER PUSH1 0x4 DUP12 ADD MSTORE AND PUSH1 0x24 DUP10 ADD MSTORE DUP8 ADD PUSH1 0xA0 SWAP1 MSTORE PUSH1 0xA4 DUP8 ADD PUSH2 0x1EC2 SWAP2 PUSH2 0x2633 JUMP JUMPDEST SWAP1 DUP5 DUP8 DUP4 SUB ADD SWAP1 DUP8 ADD MSTORE PUSH2 0x1ED5 SWAP2 PUSH2 0x2633 JUMP JUMPDEST SWAP2 DUP5 DUP4 SUB ADD SWAP1 DUP5 ADD MSTORE PUSH2 0x1EE7 SWAP2 PUSH2 0x24F7 JUMP JUMPDEST SUB SWAP3 AND SWAP2 DUP2 GAS PUSH1 0x20 SWAP5 PUSH1 0x0 SWAP2 CALL PUSH1 0x0 SWAP2 DUP2 PUSH2 0x201C JUMPI JUMPDEST POP PUSH2 0x1F70 JUMPI POP POP PUSH1 0x1 PUSH2 0x1F0E PUSH2 0x2A5A JUMP JUMPDEST PUSH4 0x8C379A0 EQ PUSH2 0x1F1F JUMPI JUMPDEST PUSH2 0x57A JUMPI STOP JUMPDEST PUSH2 0x1F27 PUSH2 0x2A78 JUMP JUMPDEST DUP1 PUSH2 0x1F32 JUMPI POP PUSH2 0x1F19 JUMP JUMPDEST PUSH2 0x5FF SWAP1 PUSH1 0x40 MLOAD SWAP2 DUP3 SWAP2 PUSH32 0x8C379A000000000000000000000000000000000000000000000000000000000 DUP4 MSTORE PUSH1 0x20 PUSH1 0x4 DUP5 ADD MSTORE PUSH1 0x24 DUP4 ADD SWAP1 PUSH2 0x24F7 JUMP JUMPDEST PUSH32 0xFFFFFFFF00000000000000000000000000000000000000000000000000000000 AND EQ PUSH2 0x2D9 JUMPI PUSH1 0x40 MLOAD PUSH32 0x8C379A000000000000000000000000000000000000000000000000000000000 DUP2 MSTORE PUSH1 0x20 PUSH1 0x4 DUP3 ADD MSTORE PUSH1 0x28 PUSH1 0x24 DUP3 ADD MSTORE PUSH32 0x455243313135353A204552433131353552656365697665722072656A65637465 PUSH1 0x44 DUP3 ADD MSTORE PUSH32 0x6420746F6B656E73000000000000000000000000000000000000000000000000 PUSH1 0x64 DUP3 ADD MSTORE PUSH1 0x84 SWAP1 REVERT JUMPDEST PUSH2 0x2035 SWAP2 SWAP3 POP PUSH1 0x20 RETURNDATASIZE DUP2 GT PUSH2 0x728 JUMPI PUSH2 0x719 DUP2 DUP4 PUSH2 0x2493 JUMP JUMPDEST SWAP1 DUP4 PUSH2 0x1EFD JUMP JUMPDEST SWAP8 SWAP7 SWAP5 SWAP1 PUSH1 0x0 SWAP10 SWAP4 SWAP10 SWAP7 SWAP3 SWAP7 JUMPDEST DUP6 MLOAD DUP2 LT ISZERO PUSH2 0x2122 JUMPI PUSH2 0x205C DUP2 DUP8 PUSH2 0x2781 JUMP JUMPDEST MLOAD PUSH2 0x2067 DUP3 DUP10 PUSH2 0x2781 JUMP JUMPDEST MLOAD SWAP1 DUP1 PUSH1 0x0 MSTORE PUSH1 0x20 PUSH1 0x3 DUP2 MSTORE PUSH1 0x40 PUSH1 0x0 KECCAK256 SLOAD SWAP2 DUP4 DUP4 LT PUSH2 0x20A0 JUMPI PUSH2 0x209B SWAP5 SWAP4 SWAP3 SWAP2 PUSH1 0x3 SWAP2 PUSH1 0x0 MSTORE MSTORE SUB PUSH1 0x40 PUSH1 0x0 KECCAK256 SSTORE PUSH2 0x2725 JUMP JUMPDEST PUSH2 0x2049 JUMP JUMPDEST POP DUP12 SWAP1 PUSH32 0x616C537570706C79000000000000000000000000000000000000000000000000 DUP16 PUSH32 0x455243313135353A206275726E20616D6F756E74206578636565647320746F74 DUP15 PUSH1 0x40 MLOAD SWAP5 PUSH32 0x8C379A000000000000000000000000000000000000000000000000000000000 DUP7 MSTORE PUSH1 0x4 DUP7 ADD MSTORE PUSH1 0x28 PUSH1 0x24 DUP7 ADD MSTORE DUP5 ADD MSTORE DUP3 ADD MSTORE REVERT JUMPDEST POP SWAP1 SWAP5 SWAP7 SWAP8 SWAP9 SWAP3 SWAP9 SWAP6 SWAP2 SWAP6 PUSH2 0x1D8F JUMP JUMPDEST SWAP10 SWAP7 SWAP5 SWAP9 SWAP6 SWAP4 SWAP3 SWAP2 SWAP1 PUSH1 0x0 JUMPDEST DUP11 MLOAD DUP2 LT ISZERO PUSH2 0x2166 JUMPI DUP1 DUP12 PUSH2 0x305 DUP3 PUSH2 0x215A PUSH2 0x2161 SWAP6 DUP16 PUSH2 0x2781 JUMP JUMPDEST MLOAD SWAP3 PUSH2 0x2781 JUMP JUMPDEST PUSH2 0x213E JUMP JUMPDEST POP SWAP1 SWAP2 SWAP3 SWAP4 SWAP6 SWAP9 SWAP5 SWAP7 SWAP10 PUSH2 0x1D8A JUMP JUMPDEST POP DUP6 DUP11 AND PUSH1 0x0 MSTORE PUSH1 0x1 PUSH1 0x20 MSTORE PUSH1 0x40 PUSH1 0x0 KECCAK256 CALLER PUSH1 0x0 MSTORE PUSH1 0x20 MSTORE PUSH2 0x1D66 PUSH1 0xFF PUSH1 0x40 PUSH1 0x0 KECCAK256 SLOAD AND SWAP1 POP PUSH2 0x1D5D JUMP JUMPDEST CALLVALUE PUSH2 0x35E JUMPI PUSH1 0x20 PUSH32 0xFFFFFFFFFFFFFFFFFFFFFFFFFFFFFFFFFFFFFFFFFFFFFFFFFFFFFFFFFFFFFFFC CALLDATASIZE ADD SLT PUSH2 0x35E JUMPI PUSH2 0x11DD PUSH2 0x11C9 PUSH1 0x4 CALLDATALOAD PUSH2 0x2CDB JUMP JUMPDEST CALLVALUE PUSH2 0x35E JUMPI PUSH1 0x0 PUSH32 0xFFFFFFFFFFFFFFFFFFFFFFFFFFFFFFFFFFFFFFFFFFFFFFFFFFFFFFFFFFFFFFFC CALLDATASIZE ADD SLT PUSH2 0x35E JUMPI PUSH1 0x40 MLOAD PUSH1 0x0 PUSH1 0x8 SLOAD PUSH2 0x221D DUP2 PUSH2 0x2424 JUMP JUMPDEST DUP1 DUP5 MSTORE SWAP1 PUSH1 0x1 SWAP1 DUP2 DUP2 AND SWAP1 DUP2 ISZERO PUSH2 0x123C JUMPI POP PUSH1 0x1 EQ PUSH2 0x2246 JUMPI PUSH2 0x11DD DUP5 PUSH2 0x11C9 DUP2 DUP7 SUB DUP3 PUSH2 0x2493 JUMP JUMPDEST PUSH1 0x8 PUSH1 0x0 SWAP1 DUP2 MSTORE SWAP3 POP PUSH32 0xF3F7A9FE364FAAB93B216DA50A3214154F22A0A2B415B23A84C8169E8B636EE3 JUMPDEST DUP3 DUP5 LT PUSH2 0x2289 JUMPI POP POP POP DUP2 ADD PUSH1 0x20 ADD PUSH2 0x11C9 DUP3 PUSH2 0x11B9 JUMP JUMPDEST DUP1 SLOAD PUSH1 0x20 DUP6 DUP8 ADD DUP2 ADD SWAP2 SWAP1 SWAP2 MSTORE SWAP1 SWAP4 ADD SWAP3 DUP2 ADD PUSH2 0x2271 JUMP JUMPDEST CALLVALUE PUSH2 0x35E JUMPI PUSH1 0x20 PUSH32 0xFFFFFFFFFFFFFFFFFFFFFFFFFFFFFFFFFFFFFFFFFFFFFFFFFFFFFFFFFFFFFFFC CALLDATASIZE ADD SLT PUSH2 0x35E JUMPI PUSH1 0x4 CALLDATALOAD PUSH32 0xFFFFFFFF00000000000000000000000000000000000000000000000000000000 DUP2 AND DUP1 SWAP2 SUB PUSH2 0x35E JUMPI DUP1 PUSH32 0xD9B67A2600000000000000000000000000000000000000000000000000000000 PUSH1 0x20 SWAP3 EQ SWAP1 DUP2 ISZERO PUSH2 0x2367 JUMPI JUMPDEST DUP2 ISZERO PUSH2 0x233D JUMPI JUMPDEST POP PUSH1 0x40 MLOAD SWAP1 ISZERO ISZERO DUP2 MSTORE RETURN JUMPDEST PUSH32 0x1FFC9A700000000000000000000000000000000000000000000000000000000 SWAP2 POP EQ DUP3 PUSH2 0x2332 JUMP JUMPDEST PUSH32 0xE89341C00000000000000000000000000000000000000000000000000000000 DUP2 EQ SWAP2 POP PUSH2 0x232B JUMP JUMPDEST CALLVALUE PUSH2 0x35E JUMPI PUSH1 0x40 PUSH32 0xFFFFFFFFFFFFFFFFFFFFFFFFFFFFFFFFFFFFFFFFFFFFFFFFFFFFFFFFFFFFFFFC CALLDATASIZE ADD SLT PUSH2 0x35E JUMPI PUSH1 0x20 PUSH2 0x23D6 PUSH2 0x23CD PUSH2 0x23DE JUMP JUMPDEST PUSH1 0x24 CALLDATALOAD SWAP1 PUSH2 0x2667 JUMP JUMPDEST PUSH1 0x40 MLOAD SWAP1 DUP2 MSTORE RETURN JUMPDEST PUSH1 0x4 CALLDATALOAD SWAP1 PUSH20 0xFFFFFFFFFFFFFFFFFFFFFFFFFFFFFFFFFFFFFFFF DUP3 AND DUP3 SUB PUSH2 0x35E JUMPI JUMP JUMPDEST PUSH1 0x24 CALLDATALOAD SWAP1 PUSH20 0xFFFFFFFFFFFFFFFFFFFFFFFFFFFFFFFFFFFFFFFF DUP3 AND DUP3 SUB PUSH2 0x35E JUMPI JUMP JUMPDEST SWAP1 PUSH1 0x1 DUP3 DUP2 SHR SWAP3 AND DUP1 ISZERO PUSH2 0x246D JUMPI JUMPDEST PUSH1 0x20 DUP4 LT EQ PUSH2 0x243E JUMPI JUMP JUMPDEST PUSH32 0x4E487B7100000000000000000000000000000000000000000000000000000000 PUSH1 0x0 MSTORE PUSH1 0x22 PUSH1 0x4 MSTORE PUSH1 0x24 PUSH1 0x0 REVERT JUMPDEST SWAP2 PUSH1 0x7F AND SWAP2 PUSH2 0x2433 JUMP JUMPDEST PUSH1 0x20 DUP2 ADD SWAP1 DUP2 LT PUSH8 0xFFFFFFFFFFFFFFFF DUP3 GT OR PUSH2 0xD91 JUMPI PUSH1 0x40 MSTORE JUMP JUMPDEST SWAP1 PUSH1 0x1F PUSH32 0xFFFFFFFFFFFFFFFFFFFFFFFFFFFFFFFFFFFFFFFFFFFFFFFFFFFFFFFFFFFFFFE0 SWAP2 ADD AND DUP2 ADD SWAP1 DUP2 LT PUSH8 0xFFFFFFFFFFFFFFFF DUP3 GT OR PUSH2 0xD91 JUMPI PUSH1 0x40 MSTORE JUMP JUMPDEST PUSH1 0x0 JUMPDEST DUP4 DUP2 LT PUSH2 0x24E7 JUMPI POP POP PUSH1 0x0 SWAP2 ADD MSTORE JUMP JUMPDEST DUP2 DUP2 ADD MLOAD DUP4 DUP3 ADD MSTORE PUSH1 0x20 ADD PUSH2 0x24D7 JUMP JUMPDEST SWAP1 PUSH32 0xFFFFFFFFFFFFFFFFFFFFFFFFFFFFFFFFFFFFFFFFFFFFFFFFFFFFFFFFFFFFFFE0 PUSH1 0x1F PUSH1 0x20 SWAP4 PUSH2 0x2533 DUP2 MLOAD DUP1 SWAP3 DUP2 DUP8 MSTORE DUP8 DUP1 DUP9 ADD SWAP2 ADD PUSH2 0x24D4 JUMP JUMPDEST ADD AND ADD ADD SWAP1 JUMP JUMPDEST PUSH8 0xFFFFFFFFFFFFFFFF DUP2 GT PUSH2 0xD91 JUMPI PUSH1 0x5 SHL PUSH1 0x20 ADD SWAP1 JUMP JUMPDEST DUP2 PUSH1 0x1F DUP3 ADD SLT ISZERO PUSH2 0x35E JUMPI DUP1 CALLDATALOAD SWAP2 PUSH2 0x2569 DUP4 PUSH2 0x253A JUMP JUMPDEST SWAP3 PUSH2 0x2577 PUSH1 0x40 MLOAD SWAP5 DUP6 PUSH2 0x2493 JUMP JUMPDEST DUP1 DUP5 MSTORE PUSH1 0x20 SWAP3 DUP4 DUP1 DUP7 ADD SWAP3 PUSH1 0x5 SHL DUP3 ADD ADD SWAP3 DUP4 GT PUSH2 0x35E JUMPI DUP4 ADD SWAP1 JUMPDEST DUP3 DUP3 LT PUSH2 0x25A1 JUMPI POP POP POP POP SWAP1 JUMP JUMPDEST DUP2 CALLDATALOAD DUP2 MSTORE SWAP1 DUP4 ADD SWAP1 DUP4 ADD PUSH2 0x2593 JUMP JUMPDEST SWAP3 SWAP2 SWAP3 PUSH8 0xFFFFFFFFFFFFFFFF DUP3 GT PUSH2 0xD91 JUMPI PUSH1 0x40 MLOAD SWAP2 PUSH2 0x25F8 PUSH1 0x20 PUSH32 0xFFFFFFFFFFFFFFFFFFFFFFFFFFFFFFFFFFFFFFFFFFFFFFFFFFFFFFFFFFFFFFE0 PUSH1 0x1F DUP5 ADD AND ADD DUP5 PUSH2 0x2493 JUMP JUMPDEST DUP3 SWAP5 DUP2 DUP5 MSTORE DUP2 DUP4 ADD GT PUSH2 0x35E JUMPI DUP3 DUP2 PUSH1 0x20 SWAP4 DUP5 PUSH1 0x0 SWAP7 ADD CALLDATACOPY ADD ADD MSTORE JUMP JUMPDEST SWAP1 DUP1 PUSH1 0x1F DUP4 ADD SLT ISZERO PUSH2 0x35E JUMPI DUP2 PUSH1 0x20 PUSH2 0x2630 SWAP4 CALLDATALOAD SWAP2 ADD PUSH2 0x25B0 JUMP JUMPDEST SWAP1 JUMP JUMPDEST SWAP1 DUP2 MLOAD DUP1 DUP3 MSTORE PUSH1 0x20 DUP1 DUP1 SWAP4 ADD SWAP4 ADD SWAP2 PUSH1 0x0 JUMPDEST DUP3 DUP2 LT PUSH2 0x2653 JUMPI POP POP POP POP SWAP1 JUMP JUMPDEST DUP4 MLOAD DUP6 MSTORE SWAP4 DUP2 ADD SWAP4 SWAP3 DUP2 ADD SWAP3 PUSH1 0x1 ADD PUSH2 0x2645 JUMP JUMPDEST PUSH20 0xFFFFFFFFFFFFFFFFFFFFFFFFFFFFFFFFFFFFFFFF AND SWAP1 DUP2 ISZERO PUSH2 0x26A1 JUMPI PUSH1 0x0 MSTORE PUSH1 0x0 PUSH1 0x20 MSTORE PUSH1 0x40 PUSH1 0x0 KECCAK256 SWAP1 PUSH1 0x0 MSTORE PUSH1 0x20 MSTORE PUSH1 0x40 PUSH1 0x0 KECCAK256 SLOAD SWAP1 JUMP JUMPDEST PUSH1 0x84 PUSH1 0x40 MLOAD PUSH32 0x8C379A000000000000000000000000000000000000000000000000000000000 DUP2 MSTORE PUSH1 0x20 PUSH1 0x4 DUP3 ADD MSTORE PUSH1 0x2A PUSH1 0x24 DUP3 ADD MSTORE PUSH32 0x455243313135353A2061646472657373207A65726F206973206E6F7420612076 PUSH1 0x44 DUP3 ADD MSTORE PUSH32 0x616C6964206F776E657200000000000000000000000000000000000000000000 PUSH1 0x64 DUP3 ADD MSTORE REVERT JUMPDEST PUSH32 0xFFFFFFFFFFFFFFFFFFFFFFFFFFFFFFFFFFFFFFFFFFFFFFFFFFFFFFFFFFFFFFFF DUP2 EQ PUSH2 0x2752 JUMPI PUSH1 0x1 ADD SWAP1 JUMP JUMPDEST PUSH32 0x4E487B7100000000000000000000000000000000000000000000000000000000 PUSH1 0x0 MSTORE PUSH1 0x11 PUSH1 0x4 MSTORE PUSH1 0x24 PUSH1 0x0 REVERT JUMPDEST DUP1 MLOAD DUP3 LT ISZERO PUSH2 0x2795 JUMPI PUSH1 0x20 SWAP2 PUSH1 0x5 SHL ADD ADD SWAP1 JUMP JUMPDEST PUSH32 0x4E487B7100000000000000000000000000000000000000000000000000000000 PUSH1 0x0 MSTORE PUSH1 0x32 PUSH1 0x4 MSTORE PUSH1 0x24 PUSH1 0x0 REVERT JUMPDEST ISZERO PUSH2 0x27CB JUMPI JUMP JUMPDEST PUSH1 0x84 PUSH1 0x40 MLOAD PUSH32 0x8C379A000000000000000000000000000000000000000000000000000000000 DUP2 MSTORE PUSH1 0x20 PUSH1 0x4 DUP3 ADD MSTORE PUSH1 0x2E PUSH1 0x24 DUP3 ADD MSTORE PUSH32 0x455243313135353A2063616C6C6572206973206E6F7420746F6B656E206F776E PUSH1 0x44 DUP3 ADD MSTORE PUSH32 0x6572206F7220617070726F766564000000000000000000000000000000000000 PUSH1 0x64 DUP3 ADD MSTORE REVERT JUMPDEST ISZERO PUSH2 0x2856 JUMPI JUMP JUMPDEST PUSH1 0x84 PUSH1 0x40 MLOAD PUSH32 0x8C379A000000000000000000000000000000000000000000000000000000000 DUP2 MSTORE PUSH1 0x20 PUSH1 0x4 DUP3 ADD MSTORE PUSH1 0x25 PUSH1 0x24 DUP3 ADD MSTORE PUSH32 0x455243313135353A207472616E7366657220746F20746865207A65726F206164 PUSH1 0x44 DUP3 ADD MSTORE PUSH32 0x6472657373000000000000000000000000000000000000000000000000000000 PUSH1 0x64 DUP3 ADD MSTORE REVERT JUMPDEST ISZERO PUSH2 0x28E1 JUMPI JUMP JUMPDEST PUSH1 0x84 PUSH1 0x40 MLOAD PUSH32 0x8C379A000000000000000000000000000000000000000000000000000000000 DUP2 MSTORE PUSH1 0x20 PUSH1 0x4 DUP3 ADD MSTORE PUSH1 0x2A PUSH1 0x24 DUP3 ADD MSTORE PUSH32 0x455243313135353A20696E73756666696369656E742062616C616E636520666F PUSH1 0x44 DUP3 ADD MSTORE PUSH32 0x72207472616E7366657200000000000000000000000000000000000000000000 PUSH1 0x64 DUP3 ADD MSTORE REVERT JUMPDEST SWAP2 SWAP1 DUP3 ADD DUP1 SWAP3 GT PUSH2 0x2752 JUMPI JUMP JUMPDEST ISZERO PUSH2 0x2979 JUMPI JUMP JUMPDEST PUSH1 0x84 PUSH1 0x40 MLOAD PUSH32 0x8C379A000000000000000000000000000000000000000000000000000000000 DUP2 MSTORE PUSH1 0x20 PUSH1 0x4 DUP3 ADD MSTORE PUSH1 0x28 PUSH1 0x24 DUP3 ADD MSTORE PUSH32 0x455243313135353A2069647320616E6420616D6F756E7473206C656E67746820 PUSH1 0x44 DUP3 ADD MSTORE PUSH32 0x6D69736D61746368000000000000000000000000000000000000000000000000 PUSH1 0x64 DUP3 ADD MSTORE REVERT JUMPDEST SWAP1 SWAP2 PUSH2 0x2A14 PUSH2 0x2630 SWAP4 PUSH1 0x40 DUP5 MSTORE PUSH1 0x40 DUP5 ADD SWAP1 PUSH2 0x2633 JUMP JUMPDEST SWAP2 PUSH1 0x20 DUP2 DUP5 SUB SWAP2 ADD MSTORE PUSH2 0x2633 JUMP JUMPDEST SWAP1 DUP2 PUSH1 0x20 SWAP2 SUB SLT PUSH2 0x35E JUMPI MLOAD PUSH32 0xFFFFFFFF00000000000000000000000000000000000000000000000000000000 DUP2 AND DUP2 SUB PUSH2 0x35E JUMPI SWAP1 JUMP JUMPDEST PUSH1 0x0 SWAP1 PUSH1 0x3 RETURNDATASIZE GT PUSH2 0x2A67 JUMPI JUMP JUMPDEST SWAP1 POP PUSH1 0x4 PUSH1 0x0 DUP1 RETURNDATACOPY PUSH1 0x0 MLOAD PUSH1 0xE0 SHR SWAP1 JUMP JUMPDEST PUSH1 0x0 PUSH1 0x44 RETURNDATASIZE LT PUSH2 0x2630 JUMPI PUSH1 0x40 MLOAD PUSH32 0xFFFFFFFFFFFFFFFFFFFFFFFFFFFFFFFFFFFFFFFFFFFFFFFFFFFFFFFFFFFFFFFC SWAP2 DUP3 RETURNDATASIZE ADD PUSH1 0x4 DUP4 RETURNDATACOPY DUP2 MLOAD PUSH8 0xFFFFFFFFFFFFFFFF SWAP2 DUP3 DUP3 GT RETURNDATASIZE PUSH1 0x24 DUP5 ADD GT OR PUSH2 0x2AF4 JUMPI DUP2 DUP5 ADD SWAP5 DUP6 MLOAD SWAP4 DUP5 GT PUSH2 0x2AFC JUMPI RETURNDATASIZE DUP6 ADD ADD PUSH1 0x20 DUP5 DUP8 ADD ADD GT PUSH2 0x2AF4 JUMPI POP PUSH2 0x2630 SWAP3 SWAP2 ADD PUSH1 0x20 ADD SWAP1 PUSH2 0x2493 JUMP JUMPDEST SWAP5 SWAP4 POP POP POP POP JUMP JUMPDEST POP SWAP5 SWAP4 POP POP POP POP JUMP JUMPDEST PUSH1 0x40 MLOAD SWAP1 PUSH1 0x40 DUP3 ADD DUP3 DUP2 LT PUSH8 0xFFFFFFFFFFFFFFFF DUP3 GT OR PUSH2 0xD91 JUMPI PUSH1 0x40 MSTORE PUSH1 0x1 DUP3 MSTORE PUSH1 0x20 DUP3 ADD PUSH1 0x20 CALLDATASIZE DUP3 CALLDATACOPY DUP3 MLOAD ISZERO PUSH2 0x2795 JUMPI MSTORE SWAP1 JUMP JUMPDEST ISZERO PUSH2 0x2B42 JUMPI JUMP JUMPDEST PUSH1 0x84 PUSH1 0x40 MLOAD PUSH32 0x8C379A000000000000000000000000000000000000000000000000000000000 DUP2 MSTORE PUSH1 0x20 PUSH1 0x4 DUP3 ADD MSTORE PUSH1 0x23 PUSH1 0x24 DUP3 ADD MSTORE PUSH32 0x455243313135353A206275726E2066726F6D20746865207A65726F2061646472 PUSH1 0x44 DUP3 ADD MSTORE PUSH32 0x6573730000000000000000000000000000000000000000000000000000000000 PUSH1 0x64 DUP3 ADD MSTORE REVERT JUMPDEST ISZERO PUSH2 0x2BCD JUMPI JUMP JUMPDEST PUSH1 0x84 PUSH1 0x40 MLOAD PUSH32 0x8C379A000000000000000000000000000000000000000000000000000000000 DUP2 MSTORE PUSH1 0x20 PUSH1 0x4 DUP3 ADD MSTORE PUSH1 0x24 DUP1 DUP3 ADD MSTORE PUSH32 0x455243313135353A206275726E20616D6F756E7420657863656564732062616C PUSH1 0x44 DUP3 ADD MSTORE PUSH32 0x616E636500000000000000000000000000000000000000000000000000000000 PUSH1 0x64 DUP3 ADD MSTORE REVERT JUMPDEST ISZERO PUSH2 0x2C57 JUMPI JUMP JUMPDEST PUSH1 0x84 PUSH1 0x40 MLOAD PUSH32 0x8C379A000000000000000000000000000000000000000000000000000000000 DUP2 MSTORE PUSH1 0x20 PUSH1 0x4 DUP3 ADD MSTORE PUSH1 0x2D PUSH1 0x24 DUP3 ADD MSTORE PUSH32 0x4B617469626568313135353A2072657374726963746564206163636573732074 PUSH1 0x44 DUP3 ADD MSTORE PUSH32 0x6F2074686520466163746F727900000000000000000000000000000000000000 PUSH1 0x64 DUP3 ADD MSTORE REVERT JUMPDEST PUSH1 0x0 SWAP1 DUP2 MSTORE PUSH1 0x20 SWAP1 PUSH1 0x5 DUP3 MSTORE PUSH1 0x40 DUP2 KECCAK256 SWAP1 PUSH1 0x40 MLOAD SWAP1 DUP1 SWAP2 DUP4 SLOAD SWAP3 DUP2 PUSH2 0x2CFF DUP6 PUSH2 0x2424 JUMP JUMPDEST SWAP2 DUP3 DUP3 MSTORE DUP8 DUP3 ADD SWAP7 PUSH1 0x1 SWAP7 DUP10 DUP9 DUP3 AND SWAP2 DUP3 PUSH1 0x0 EQ PUSH2 0x2F57 JUMPI POP POP PUSH1 0x1 EQ PUSH2 0x2F19 JUMPI JUMPDEST POP PUSH2 0x2D2E SWAP3 POP SUB DUP3 PUSH2 0x2493 JUMP JUMPDEST DUP1 MLOAD ISZERO PUSH2 0x2E3F JUMPI PUSH1 0x40 MLOAD SWAP5 DUP6 SWAP4 DUP4 PUSH1 0x4 SLOAD SWAP2 PUSH2 0x2D49 DUP4 PUSH2 0x2424 JUMP JUMPDEST SWAP3 DUP2 DUP2 AND SWAP1 DUP2 ISZERO PUSH2 0x2E00 JUMPI POP PUSH1 0x1 EQ PUSH2 0x2DA0 JUMPI JUMPDEST POP POP POP POP PUSH2 0x2D73 PUSH2 0x2630 SWAP5 DUP4 SWAP3 MLOAD SWAP4 DUP5 SWAP2 PUSH2 0x24D4 JUMP JUMPDEST ADD SUB PUSH32 0xFFFFFFFFFFFFFFFFFFFFFFFFFFFFFFFFFFFFFFFFFFFFFFFFFFFFFFFFFFFFFFE0 DUP2 ADD DUP4 MSTORE DUP3 PUSH2 0x2493 JUMP JUMPDEST SWAP1 SWAP2 SWAP3 SWAP7 SWAP5 POP PUSH1 0x4 DUP3 MSTORE PUSH32 0x8A35ACFBC15FF81A39AE7D344FD709F28E8600B4AA8C65C6B64BFE7FE36BD19B JUMPDEST DUP4 DUP4 LT PUSH2 0x2DEA JUMPI POP POP POP PUSH2 0x2630 SWAP5 PUSH2 0x2D73 SWAP2 DUP6 ADD ADD SWAP3 SWAP5 CODESIZE DUP1 PUSH2 0x2D5D JUMP JUMPDEST DUP1 SLOAD DUP10 DUP5 ADD DUP10 ADD MSTORE DUP9 SWAP7 POP SWAP2 DUP8 ADD SWAP2 DUP2 ADD PUSH2 0x2DCC JUMP JUMPDEST PUSH32 0xFFFFFFFFFFFFFFFFFFFFFFFFFFFFFFFFFFFFFFFFFFFFFFFFFFFFFFFFFFFFFF00 AND DUP9 DUP7 ADD MSTORE POP POP POP DUP1 ISZERO ISZERO MUL DUP5 ADD ADD SWAP2 POP PUSH2 0x2D73 PUSH2 0x2630 CODESIZE DUP1 PUSH2 0x2D5D JUMP JUMPDEST POP PUSH1 0x40 MLOAD PUSH1 0x2 SLOAD SWAP1 SWAP5 SWAP4 POP DUP5 SWAP3 DUP3 PUSH2 0x2E56 DUP4 PUSH2 0x2424 JUMP JUMPDEST DUP1 DUP7 MSTORE SWAP3 DUP3 DUP2 AND SWAP1 DUP2 ISZERO PUSH2 0x2ED8 JUMPI POP PUSH1 0x1 EQ PUSH2 0x2E7C JUMPI JUMPDEST POP POP POP PUSH2 0x2630 SWAP3 POP SUB DUP3 PUSH2 0x2493 JUMP JUMPDEST PUSH1 0x2 DUP2 MSTORE PUSH32 0x405787FA12A823E0F2B7631CC41B3BA8828B3321CA811111FA75CD3AA3BB5ACE SWAP6 SWAP4 POP SWAP2 SWAP1 JUMPDEST DUP2 DUP4 LT PUSH2 0x2EC0 JUMPI POP POP PUSH2 0x2630 SWAP4 POP DUP3 ADD ADD CODESIZE DUP1 DUP1 PUSH2 0x2E6D JUMP JUMPDEST DUP6 SLOAD DUP8 DUP5 ADD DUP6 ADD MSTORE SWAP5 DUP6 ADD SWAP5 DUP7 SWAP5 POP SWAP2 DUP4 ADD SWAP2 PUSH2 0x2EA7 JUMP JUMPDEST SWAP2 POP POP PUSH2 0x2630 SWAP6 SWAP4 POP PUSH32 0xFFFFFFFFFFFFFFFFFFFFFFFFFFFFFFFFFFFFFFFFFFFFFFFFFFFFFFFFFFFFFF00 SWAP2 POP AND DUP3 DUP5 ADD MSTORE ISZERO ISZERO PUSH1 0x5 SHL DUP3 ADD ADD CODESIZE DUP1 DUP1 PUSH2 0x2E6D JUMP JUMPDEST SWAP2 POP POP DUP4 MSTORE DUP2 DUP7 DUP1 DUP6 KECCAK256 DUP7 DUP7 SWAP2 JUMPDEST DUP6 DUP4 LT PUSH2 0x2F3E JUMPI POP POP PUSH2 0x2D2E SWAP4 POP DUP3 ADD ADD CODESIZE PUSH2 0x2D21 JUMP JUMPDEST DUP1 SWAP2 SWAP3 SWAP5 POP SLOAD DUP4 DUP6 DUP9 ADD ADD MSTORE ADD SWAP2 ADD DUP8 SWAP1 DUP7 DUP6 SWAP4 PUSH2 0x2F27 JUMP JUMPDEST PUSH32 0xFFFFFFFFFFFFFFFFFFFFFFFFFFFFFFFFFFFFFFFFFFFFFFFFFFFFFFFFFFFFFF00 AND DUP11 MSTORE PUSH2 0x2D2E SWAP6 ISZERO ISZERO PUSH1 0x5 SHL DUP6 ADD ADD SWAP3 POP CODESIZE SWAP2 POP PUSH2 0x2D21 SWAP1 POP JUMP INVALID LOG2 PUSH5 0x6970667358 0x22 SLT KECCAK256 0xC0 0xB6 SLT 0xB6 JUMPDEST SWAP2 0x25 GASPRICE SWAP1 0x22 0xAA 0xE1 0xB5 BYTE 0x28 SWAP10 PUSH10 0x6CA53A5E97F95820E165 MOD SHR 0xA7 0xFC 0xB7 PUSH5 0x736F6C6343 STOP ADDMOD SGT STOP CALLER "},"methodIdentifiers":{"balanceOf(address,uint256)":"00fdd58e","balanceOfBatch(address[],uint256[])":"4e1273f4","burn(address,uint256,uint256)":"f5298aca","burnBatch(address,uint256[],uint256[])":"6b20c454","exists(uint256)":"4f558e79","init(address,string,string)":"b2b45df5","isApprovedForAll(address,address)":"e985e9c5","mint(address,uint256,uint256,bytes)":"731133e9","name()":"06fdde03","owner()":"8da5cb5b","safeBatchTransferFrom(address,address,uint256[],uint256[],bytes)":"2eb2c2d6","safeTransferFrom(address,address,uint256,uint256,bytes)":"f242432a","setApprovalForAll(address,bool)":"a22cb465","setURI(uint256,string)":"862440e2","supportsInterface(bytes4)":"01ffc9a7","symbol()":"95d89b41","totalSupply(uint256)":"bd85b039","uri(uint256)":"0e89341c"}}}}}