{"contracts/katibeh1155/Factory1155.sol":{"Factory1155":{"abi":[{"anonymous":false,"inputs":[{"indexed":true,"internalType":"uint256","name":"tokenId","type":"uint256"},{"indexed":true,"internalType":"uint256","name":"toTokenId","type":"uint256"}],"name":"NewReply","type":"event"},{"anonymous":false,"inputs":[{"indexed":true,"internalType":"uint256","name":"tokenId","type":"uint256"},{"indexed":true,"internalType":"address","name":"creator","type":"address"},{"indexed":true,"internalType":"bytes","name":"data","type":"bytes"},{"indexed":false,"internalType":"uint256","name":"mintTime","type":"uint256"},{"indexed":false,"internalType":"uint256","name":"initTime","type":"uint256"},{"indexed":false,"internalType":"uint256","name":"expTime","type":"uint256"}],"name":"NewToken","type":"event"},{"anonymous":false,"inputs":[{"indexed":true,"internalType":"uint256","name":"tokenId","type":"uint256"},{"indexed":false,"internalType":"bytes","name":"data","type":"bytes"}],"name":"TokenData","type":"event"},{"inputs":[{"internalType":"uint256","name":"","type":"uint256"}],"name":"_tokenCollection","outputs":[{"internalType":"address","name":"","type":"address"}],"stateMutability":"view","type":"function"},{"inputs":[{"internalType":"address","name":"","type":"address"}],"name":"_userCollection","outputs":[{"internalType":"address","name":"","type":"address"}],"stateMutability":"view","type":"function"},{"inputs":[{"internalType":"uint256","name":"tokenId","type":"uint256"},{"internalType":"bytes","name":"data","type":"bytes"},{"components":[{"internalType":"address","name":"addr","type":"address"},{"internalType":"uint16","name":"share","type":"uint16"}],"internalType":"struct DataStorage.Payee[]","name":"dapps","type":"tuple[]"}],"name":"collect","outputs":[],"stateMutability":"payable","type":"function"},{"inputs":[{"internalType":"uint256","name":"tokenId","type":"uint256"}],"name":"fee","outputs":[{"internalType":"uint256","name":"","type":"uint256"}],"stateMutability":"view","type":"function"},{"inputs":[{"internalType":"uint256","name":"tokenId","type":"uint256"},{"components":[{"internalType":"address","name":"creator","type":"address"},{"internalType":"uint256","name":"mintTime","type":"uint256"},{"internalType":"uint256","name":"initTime","type":"uint256"},{"internalType":"uint256","name":"expTime","type":"uint256"},{"internalType":"string","name":"tokenURI","type":"string"},{"internalType":"bytes","name":"data","type":"bytes"},{"internalType":"uint256[]","name":"toTokenId","type":"uint256[]"},{"internalType":"bytes32[]","name":"tags","type":"bytes32[]"},{"components":[{"internalType":"address","name":"addr","type":"address"},{"internalType":"uint16","name":"share","type":"uint16"}],"internalType":"struct DataStorage.Payee[]","name":"owners","type":"tuple[]"}],"internalType":"struct DataStorage.Katibeh","name":"katibeh","type":"tuple"},{"internalType":"bytes","name":"sig","type":"bytes"},{"internalType":"bytes","name":"data","type":"bytes"}],"name":"firstFreeCollect","outputs":[],"stateMutability":"nonpayable","type":"function"},{"inputs":[],"name":"implementation","outputs":[{"internalType":"contract Katibeh1155","name":"","type":"address"}],"stateMutability":"view","type":"function"},{"inputs":[{"internalType":"address","name":"creatorAddr","type":"address"}],"name":"predictCollectionAddr","outputs":[{"internalType":"address","name":"","type":"address"}],"stateMutability":"view","type":"function"},{"inputs":[{"internalType":"address payable","name":"newAddr","type":"address"}],"name":"setReceiver1","outputs":[],"stateMutability":"nonpayable","type":"function"},{"inputs":[{"internalType":"uint256","name":"tokenId","type":"uint256"}],"name":"uri","outputs":[{"internalType":"string","name":"","type":"string"}],"stateMutability":"view","type":"function"}],"evm":{"bytecode":{"linkReferences":{},"object":"60808060405234610085576124e88181016001600160401b0381118382101761006f578291611f99833903906000f0801561006357600480546001600160a01b0319166001600160a01b0392909216919091179055604051611f0e908161008b8239f35b6040513d6000823e3d90fd5b634e487b7160e01b600052604160045260246000fd5b600080fdfe60806040526004361015610013575b600080fd5b6000803560e01c908162797df8146100c95750806303c13148146100c057806307d32f2a146100b75780630e89341c146100ae57806339b37ab0146100a55780635c60da1b1461009c5780635fd099e614610093578063836f71e01461008a57639f9028d51461008257600080fd5b61000e61058a565b5061000e610518565b5061000e6104e3565b5061000e6104b9565b5061000e610487565b5061000e610395565b5061000e610247565b5061000e610193565b346101525760031960803682011261014e576024356001600160401b03918282116101465761012090823603011261014a5760443582811161014657610113903690600401610155565b6064929192359384116101425761013161013f943690600401610155565b939092600401600435610ba2565b80f35b8480fd5b8380fd5b8280fd5b5080fd5b80fd5b9181601f8401121561000e578235916001600160401b03831161000e576020838186019501011161000e57565b6001600160a01b0381160361000e57565b503461000e57602036600319011261000e576004356101b181610182565b600154906001600160a01b039081831633036101db576001600160a01b0319909216911617600155005b60405162461bcd60e51b815260206004820152603160248201527f4665654d616e616765723a206f6e6c79207265636569766572312063616e206360448201527068616e676520697473206164647265737360781b6064820152608490fd5b359061024582610182565b565b503461000e57602036600319011261000e576103356055603760043561026c81610182565b60045460405160609290921b6bffffffffffffffffffffffff19166020830152906102ad906102a881603481015b03601f198101835282610637565b610a4d565b60408051733d602d80600a3d3981f3363d3d373d3d3d363d7360601b8152606093841b6bffffffffffffffffffffffff191660148201526f5af43d82803e903d91602b57fd5bf3ff60801b60288201523090931b6038840152604c830191909152828220606c83015291019190912090516001600160a01b0390911681529081906020820190565b0390f35b60005b83811061034c5750506000910152565b818101518382015260200161033c565b9060209161037581518092818552858086019101610339565b601f01601f1916010190565b90602061039292818152019061035c565b90565b503461000e5760208060031936011261000e5760043590600091808352600382528260018060a01b03604082205416916024604051809481936303a24d0760e21b835260048301525afa91821561047a575b83926103fc575b604051806103358582610381565b9091503d8084843e61040e8184610637565b8201918181840312610146578051906001600160401b03821161014257019082601f8301121561014657815193610444856107c8565b936104526040519586610637565b85855282868501011161015257509261047391846103359585019101610339565b38806103ee565b610482610667565b6103e7565b503461000e57602036600319011261000e5760206104a660043561070c565b604051908152f35b600091031261000e57565b503461000e57600036600319011261000e576004546040516001600160a01b039091168152602090f35b503461000e57602036600319011261000e576004356000526003602052602060018060a01b0360406000205416604051908152f35b50606036600319011261000e576001600160401b0360243581811161000e57610545903690600401610155565b91906044359282841161000e573660238501121561000e57836004013592831161000e573660248460061b8601011161000e5760246105889401916004356115f2565b005b503461000e57602036600319011261000e5760206004356105aa81610182565b60018060a01b038091166000526002825260406000205416604051908152f35b50634e487b7160e01b600052604160045260246000fd5b6001600160401b0381116105f457604052565b6105fc6105ca565b604052565b604081019081106001600160401b038211176105f457604052565b606081019081106001600160401b038211176105f457604052565b90601f801991011681019081106001600160401b038211176105f457604052565b9081602091031261000e575190565b506040513d6000823e3d90fd5b50634e487b7160e01b600052601160045260246000fd5b60001981019190821161069a57565b610245610674565b9190820391821161069a57565b9067016345785d8a00009182810292818404149015171561069a57565b9060148202918083046014149015171561069a57565b9061015e9182810292818404149015171561069a57565b8181029291811591840414171561069a57565b806000526003602052602060018060a01b03604060002054169160246040518094819363bd85b03960e01b835260048301525afa9081156107ae575b600091610780575b50600090600581111561077c5761039291506004198101908111156106af57610777610674565b6106af565b5090565b6107a1915060203d81116107a7575b6107998183610637565b810190610658565b38610750565b503d61078f565b6107b6610667565b610748565b6040519061024582610601565b6020906001600160401b0381116107e5575b601f01601f19160190565b6107ed6105ca565b6107da565b3561039281610182565b1561080357565b60405162461bcd60e51b815260206004820152601d60248201527f4b6174696265683732313a20496e76616c6964207369676e61747572650000006044820152606490fd5b1561084f57565b60405162461bcd60e51b815260206004820152601b60248201527f466163746f7279313135353a2077726f6e6720746f6b656e20696400000000006044820152606490fd5b1561089b57565b60405162461bcd60e51b815260206004820152602760248201527f466163746f7279313135353a20746f6b656e2073616c652074696d6520697320604482015266195e1c1a5c995960ca1b6064820152608490fd5b156108f757565b60405162461bcd60e51b815260206004820152603060248201527f466163746f7279313135353a20746f6b656e2073616c652074696d652068617360448201526f081b9bdd081cdd185c9d1959081e595d60821b6064820152608490fd5b6001906000198114610965570190565b61096d610674565b0190565b903590601e198136030182121561000e57018035906001600160401b03821161000e57602001918160051b3603831361000e57565b50634e487b7160e01b600052603260045260246000fd5b91908110156109ce575b60051b0190565b6109d66109a6565b6109c7565b156109e257565b60405162461bcd60e51b815260206004820152603860248201527f466163746f7279313135353a20746f20746f6b656e20696420686173206e6f7460448201527f206d696e746564206f6e2063757272656e7420636861696e00000000000000006064820152608490fd5b602081519101519060208110610a61575090565b6000199060200360031b1b1690565b6001600160a01b039091168152606060208201819052604092610a959183019061035c565b90828183039101526007815266096c2e8d2c4cad60cb1b60208201520190565b15610abc57565b60405162461bcd60e51b815260206004820152603760248201527f466163746f7279313135353a207468697320636f6c6c656374696f6e2068617360448201527f206265656e20616c726561647920636f6c6c65637465640000000000000000006064820152608490fd5b903590601e198136030182121561000e57018035906001600160401b03821161000e5760200191813603831361000e57565b908060209392818452848401376000828201840152601f01601f1916010190565b604090610392949281528160208201520191610b59565b916020610392938181520191610b59565b9591610be091959493610bd991610bd4610bcf610bbe8a6107f2565b610bc78b611390565b908585611d7e565b6107fc565b611ea0565b8614610848565b610bf06060850135421115610894565b604092610c02848601354210156108f0565b60005b60c08601610c138188610971565b9050821015610cf55790610cc1610ca483610c8084610c49610c79610c6d610c6d8f610c4f86610c49610cc69e610c6094610971565b906109bd565b356000526003602052604060002090565b546001600160a01b031690565b6001600160a01b031690565b938d610971565b358951809263bd85b03960e01b825281806020968795600483019190602083019252565b03915afa918215610ce8575b600092610ccb575b505015156109db565b610955565b610c05565b610ce19250803d106107a7576107998183610637565b3880610cb8565b610cf0610667565b610cb0565b5091956001600160a01b0395909392509085610d30610c60610d16856107f2565b6001600160a01b0316600090815260026020526040902090565b1661105857600454610d8b90610d4e906001600160a01b0316610c6d565b610d8561029a6102a8610d60876107f2565b8a51928391602083016014916bffffffffffffffffffffffff199060601b1681520190565b90611073565b95610dbb87610d9c610d16866107f2565b80546001600160a01b0319166001600160a01b03909216919091179055565b80871690610dc8846107f2565b91610dda610dd5866107f2565b611110565b813b1561000e576000610e0591610e68958b51938492839263b2b45df560e01b845260048401610a70565b038183865af1801561104b575b611038575b505b875163bd85b03960e01b81526004810188905291169790610e54906020816024818d5afa90811561102b575b60009161100d575b5015610ab5565b610d9c866000526003602052604060002090565b610e756080830183610b27565b939091873b1561000e578651634312207160e11b8152610ed195879460009183918291610ea6918960048501610b7a565b0381838d5af18015611000575b610fed575b50610ec384846119f0565b80610fb2575b5050506107f2565b92803b1561000e57825163731133e960e01b8082526001600160a01b039590951660048201526024810183905260056044820152608060648201526000608482018190528160a48183865af18015610fa5575b610f92575b50803b1561000e5791519283523360048401526024830152600160448301526080606483015260006084830181905290829060a490829084905af18015610f85575b610f725750565b80610f7f610245926105e1565b806104ae565b610f8d610667565b610f6b565b80610f7f610f9f926105e1565b38610f29565b610fad610667565b610f24565b7fe3efb4090b64f6dead06906e59a91359e0c1ca9cad88a633d749431442e5bebf91610fe2885192839283610b91565b0390a2823880610ec9565b80610f7f610ffa926105e1565b38610eb8565b611008610667565b610eb3565b611025915060203d81116107a7576107998183610637565b38610e4d565b611033610667565b610e45565b80610f7f611045926105e1565b38610e17565b611053610667565b610e12565b610e6861106a610c60610d16856107f2565b96808816610e19565b604051733d602d80600a3d3981f3363d3d373d3d3d363d7360601b815260609190911b60148201526e5af43d82803e903d91602b57fd5bf360881b60288201526037906000f5906001600160a01b038216156110cb57565b60405162461bcd60e51b815260206004820152601760248201527f455243313136373a2063726561746532206661696c65640000000000000000006044820152606490fd5b604051906001600160a01b03166111268261061c565b602a82526040366020840137603061113d836111bd565b536078611149836111d3565b536029905b600182116111615761039291501561121e565b80600f61119d921660108110156111a3575b6f181899199a1a9b1b9c1cb0b131b232b360811b901a61119384866111e4565b5360041c91611203565b9061114e565b6111ab6109a6565b611173565b9190820180921161069a57565b6020908051156111cb570190565b61096d6109a6565b6021908051600110156111cb570190565b9060209180518210156111f657010190565b6111fe6109a6565b010190565b8015611211575b6000190190565b611219610674565b61120a565b1561122557565b606460405162461bcd60e51b815260206004820152602060248201527f537472696e67733a20686578206c656e67746820696e73756666696369656e746044820152fd5b9035601e198236030181121561000e5701602081359101916001600160401b03821161000e57813603831361000e57565b9035601e198236030181121561000e5701602081359101916001600160401b03821161000e578160051b3603831361000e57565b81835290916001600160fb1b03831161000e5760209260051b809284830137010190565b9035601e198236030181121561000e5701602081359101916001600160401b03821161000e578160061b3603831361000e57565b61ffff81160361000e57565b9190808252602080920192916000905b828210611350575050505090565b90919293600190853561136281610182565b828060a01b0316815261ffff8387013561137b81611326565b16818401526040908101950193920190611342565b60405161148a8161029a6114086020830195602087526113c3604085016113b68361023a565b6001600160a01b03169052565b6020810135606085015260408101356080850152606081013560a085015261147a6113f16080830183611269565b9390610120948560c0890152610160880191610b59565b9161147161143061141c60a0840184611269565b603f198a8803810160e08c01529691610b59565b9461145461144160c085018561129a565b6101009891888c8403018a8d01526112ce565b9061146260e085018561129a565b91878b850301908b01526112ce565b938101906112f2565b9185840301610140860152611332565b51902090565b1561149757565b60405162461bcd60e51b815260206004820152603560248201527f466163746f7279313135353a207468697320636f6c6c656374696f6e20686173604482015274206e6f7420636f6c6c6563746564206265666f726560581b6064820152608490fd5b1561150157565b60405162461bcd60e51b815260206004820152601d60248201527f466163746f7279313135353a20696e73756666696369656e74206665650000006044820152606490fd5b9081602091031261000e575161039281610182565b6020906001600160401b0381116115735760051b0190565b6109d66105ca565b9081546115878161155b565b9260409361159785519182610637565b828152809460208092019260005281600020906000935b8585106115bd57505050505050565b600184819284516115cd81610601565b61ffff8754858060a01b038116835260a01c16838201528152019301940193916115ae565b939291611612610c6d610c6d610c60886000526003602052604060002090565b60405163bd85b03960e01b815260048101879052909560209290916116519084816024818c5afa908115611834575b600091611817575b501515611490565b61165a8261070c565b9361167b611672846000526000602052604060002090565b54421115610894565b611687853410156114fa565b8434116117e3575b873b1561000e5760405163731133e960e01b8152336004808301919091526024820185905260016044830152608060648301526000608483018190526102459a9194879492938793928160a48183895af180156117d6575b6117c3575b5080611787575b50505060405192838092638da5cb5b60e01b82525afa92831561177a575b600093611740575b5050600161173461173a926000526000602052604060002090565b0161157b565b91611b87565b61173a92935061176b6001928261173493903d10611773575b6117638183610637565b810190611546565b939250611719565b503d611759565b611782610667565b611711565b7fe3efb4090b64f6dead06906e59a91359e0c1ca9cad88a633d749431442e5bebf916117b860405192839283610b91565b0390a28338806116f3565b80610f7f6117d0926105e1565b386116ec565b6117de610667565b6116e7565b60008080806117f289346106a2565b81811561180e575b3390f161168f57611809610667565b61168f565b506108fc6117fa565b61182e9150853d87116107a7576107998183610637565b38611649565b61183c610667565b611641565b903590601e198136030182121561000e57018035906001600160401b03821161000e57602001918160061b3603831361000e57565b9291926118828261155b565b60409261189184519283610637565b819581835260208093019160061b84019381851161000e57915b8483106118ba57505050505050565b858383031261000e5783869182516118d181610601565b85356118dc81610182565b8152828601356118eb81611326565b838201528152019201916118ab565b9190805183556001809301602080920151918251926801000000000000000084116119ce575b8183548585558086106119a1575b50611940910192600052602060002090565b6000925b8484106119545750505050509050565b868382611995839451868151815460209093015161ffff60a01b60a09190911b166001600160b01b03199093166001600160a01b0390911617919091179055565b01920193019290611944565b6000858152888784832093840193015b8381106119c05750505061192e565b8281558694508a91016119b1565b6119d66105ca565b611920565b81604051928392833781016000815203902090565b906060810135611a3d611a1f611a0a610100850185611841565b9190611a146107bb565b928584523691611876565b6020820152611a38856000526000602052604060002090565b6118fa565b611a46826107f2565b90837f0b85051017293732c5b533b177efc66475411a9fdd5fbc8ecb619906658413d6611ab2611a82611a7c60a0880188610b27565b906119db565b604080516020808a01358252898301359082015290810195909552946001600160a01b0316939081906060820190565b0390a460c0810191611ac48383610971565b939050600092835b858110611adb57505050505050565b80611aed611b1892610c498686610971565b35857f65327253f8d67c2e23cb4dfab28ca7437b04e9098cf4e985073d76df25209ad48880a3610955565b611acc565b8115611b27570490565b634e487b7160e01b600052601260045260246000fd5b9190811015611b4e575b60061b0190565b611b566109a6565b611b47565b3561039281611326565b6020918151811015611b7a575b60051b010190565b611b826109a6565b611b72565b9293909193611bac611b9e611ba6611b9e876106cc565b6103e8900490565b956106e2565b600180549095611bcd91611bc8906001600160a01b0316610c6d565b611d4a565b600090815b848110611d24575060005b848110611ce457505050505047918351908115600014611c035750506102459250611d4a565b909260009250825b848110611cb957506000825b611c4e575b50505050611c3961024592611c33611c479361068b565b90611b65565b51516001600160a01b031690565b4790611d4a565b611c578561068b565b811015611cb45780610cc187611ca887611ca3611c9d611c966020611c8c89611c86611c39611cae9d8b611b65565b98611b65565b51015161ffff1690565b61ffff1690565b886106f9565b611b1d565b90611d4a565b82611c17565b611c1c565b92611cd9611cdf91611cd3611c966020611c8c898c611b65565b906111b0565b93610955565b611c0b565b80610cc185611ca886611ca3611c9d611c966020611d19898f611d13611d0e611d1f9e838d611b3d565b6107f2565b99611b3d565b01611b5b565b611bdd565b91611d3f611d4591611cd3611c966020611d19888b8b611b3d565b92610955565b611bd2565b6000808093819382908215611d74575b6001600160a01b031690f115611d6c57565b610245610667565b6108fc9150611d5a565b919260405160208101917f19457468657265756d205369676e6564204d6573736167653a0a3332000000008352603c820152603c8152611dbd8161061c565b51902090611dca816107c8565b611dd76040519182610637565b8181526020810191368186011161000e578060209584376000948591830101526041815103611e5b5790516040808301516060938401518251958652861a602080870191909152918501929092529183015282805290829060809060015afa15611e4e575b516001600160a01b0390811691161490565b611e56610667565b611e3c565b60405162461bcd60e51b815260206004820152601860248201527f696e76616c6964207369676e6174757265206c656e67746800000000000000006044820152606490fd5b9061148a602c6040518381946020830196873781016b39b0b6b0b7103bb4b639b7b760a11b602082015203600c81018452018261063756fea26469706673582212209165af967675b29dd81f1f164c08387a0e6914848a41647e67d96d913ac826e264736f6c63430008110033608034620000e957602081016001600160401b03811182821017620000d357604052600080915262000033600254620000ee565b601f811162000092575b50806002556200004f600454620000ee565b601f81116200006e575b60006004556040516123a39081620001458239f35b601f60208360046200008a955220910160051c8101906200012b565b388062000059565b60028252620000cc90601f0160051c7f405787fa12a823e0f2b7631cc41b3ba8828b3321ca811111fa75cd3aa3bb5ace908101906200012b565b386200003d565b634e487b7160e01b600052604160045260246000fd5b600080fd5b90600182811c9216801562000120575b60208310146200010a57565b634e487b7160e01b600052602260045260246000fd5b91607f1691620000fe565b81811062000137575050565b600081556001016200012b56fe6080604052600436101561001257600080fd5b60003560e01c8062fdd58e146119cc57806301ffc9a71461195e57806306fdde03146118b85780630e89341c146118995780632eb2c2d6146114be5780634e1273f4146113205780634f558e79146112f25780636b20c45414611098578063731133e914610e83578063862440e214610c9e5780638da5cb5b14610c7157806395d89b4114610b8b578063a22cb46514610aa7578063b2b45df514610758578063bd85b0391461072c578063e985e9c5146106d6578063f242432a146102f75763f5298aca146100e157600080fd5b346102f25760603660031901126102f2576100fa6119fb565b60249060448035916001600160a01b031690833533831480156102c9575b61012190611cc6565b82159261012e8415611f9c565b61013782611f67565b9161014186611f67565b94600060405161015081611a61565b5261026f575b60005b83518110156101f25761016c8185611c9c565b516101778288611c9c565b51908060005260036020818152604060002054928484106101b057906101ab95949392916000525203604060002055611c77565b610159565b5060849060008051602061234e8339815191528a60288f6040519462461bcd60e51b8652600486015284015282015267616c537570706c7960c01b6064820152fd5b6000838389818452836020526040842083855260205280604085205461021a82821015611ff4565b838652856020526040862085875260205203604085205560405191825260208201527fc3d58168c5ae7397731d063d5bbf3d657854427343f4c083240f7aacaa2d0f6260403392a461026d604051611a61565b005b949195929060005b87518110156102be578061028e6102b99288611c9c565b51610299828b611c9c565b5160005260036020526102b26040600020918254611de3565b9055611c77565b610277565b509092959194610156565b5082600052600160205260406000203360005260205261012160ff604060002054169050610118565b600080fd5b346102f25760a03660031901126102f2576103106119fb565b610318611a11565b90608480356001600160401b0381116102f257610339903690600401611ba0565b6001600160a01b039190838316331480156106ab575b61035890611cc6565b828516156103668115611d2a565b610371604435611f67565b61037c606435611f67565b918587161561066b575b6105bd575b505060443560005260209460008652604060002084861660005286526040600020546103bb606435821015611d84565b60443560005260008752604060002085871660005287526064359003604060002055604435600052600086526040600020848216600052865260406000206104066064358254611de3565b905560405160443581526064358782015284821690858716907fc3d58168c5ae7397731d063d5bbf3d657854427343f4c083240f7aacaa2d0f6260403392a4803b61044d57005b60a06000610497958895604051978896879586938563f23a6e6160e01b9d8e87523360048801521660248601526044356044860152606435606486015284015260a4830190611ac0565b0393165af16000918161058e575b506105645750506001906104b7611edb565b6308c379a01461052f575b506104c957005b60405162461bcd60e51b815260206004820152603460248201527f455243313135353a207472616e7366657220746f206e6f6e20455243313135356044820152732932b1b2b4bb32b91034b6b83632b6b2b73a32b960611b6064820152608490fd5b0390fd5b610537611ef9565b908161054357506104c2565b61052b60405192839262461bcd60e51b845260048401526024830190611ac0565b6001600160e01b03191614905061026d5760405162461bcd60e51b81528061052b60048201611e92565b6105af919250843d86116105b6575b6105a78183611a7c565b810190611e72565b90846104a5565b503d61059d565b92959194909360005b845181101561065c576105d98186611c9c565b51906105e58188611c9c565b518260005260036020526040600020548181106106195761061493600052600360205203604060002055611c77565b6105c6565b60405162461bcd60e51b8152602060048201526028602482015260008051602061234e833981519152604482015267616c537570706c7960c01b60648201528b90fd5b5093509390949150858061038b565b959260009794919592975b865181101561069d578061068d610698928b611c9c565b51610299828a611c9c565b610676565b509295969194909396610386565b50828416600052600160205260406000203360005260205261035860ff60406000205416905061034f565b346102f25760403660031901126102f2576106ef6119fb565b6106f7611a11565b9060018060a01b03809116600052600160205260406000209116600052602052602060ff604060002054166040519015158152f35b346102f25760203660031901126102f25760043560005260036020526020604060002054604051908152f35b346102f25760603660031901126102f2576107716119fb565b6001600160401b03906024358281116102f257610792903690600401611ba0565b906044358381116102f2576107ab903690600401611ba0565b92600654926107c060ff600895861c1661204c565b805182811161099657806107d48654611a27565b92601f93848111610a3a575b506020908483116001146109b7576000926109ac575b50508160011b916000199060031b1c19161784555b84519182116109965761081f600954611a27565b818111610934575b5060209082116001146108b057819293946000926108a5575b50508160011b916000199060031b1c1916176009555b336bffffffffffffffffffffffff60a01b600754161760075561088060ff60065480941c1661204c565b62010000600160b01b031990911660109190911b62010000600160b01b031617600655005b015190508480610840565b601f1982169060096000527f6e1540171b6c0c960b71a7020d9f60077f6af931a8bbf590da0223dacf75c7af9160005b81811061091c57509583600195969710610903575b505050811b01600955610856565b015160001960f88460031b161c191690558480806108f5565b9192602060018192868b0151815501940192016108e0565b60096000527f6e1540171b6c0c960b71a7020d9f60077f6af931a8bbf590da0223dacf75c7af8280850160051c8201926020861061098d575b0160051c01905b8181106109815750610827565b60008155600101610974565b9250819261096d565b634e487b7160e01b600052604160045260246000fd5b0151905087806107f6565b60008881527ff3f7a9fe364faab93b216da50a3214154f22a0a2b415b23a84c8169e8b636ee39350601f198516905b818110610a225750908460019594939210610a09575b505050811b01845561080b565b015160001960f88460031b161c191690558780806109fc565b929360206001819287860151815501950193016109e6565b909150866000527ff3f7a9fe364faab93b216da50a3214154f22a0a2b415b23a84c8169e8b636ee38480850160051c82019260208610610a9e575b9085949392910160051c01905b818110610a8f57506107e0565b60008155849350600101610a82565b92508192610a75565b346102f25760403660031901126102f257610ac06119fb565b602435908115158092036102f2576001600160a01b031690338214610b3457336000526001602052604060002082600052602052604060002060ff1981541660ff83161790556040519081527f17307eab39ab6107e8899845ad3d59bd9653f200f220920489ca2b5937696c3160203392a3005b60405162461bcd60e51b815260206004820152602960248201527f455243313135353a2073657474696e6720617070726f76616c20737461747573604482015268103337b91039b2b63360b91b6064820152608490fd5b346102f25760003660031901126102f2576040516000600954610bad81611a27565b80845290600190818116908115610c4a5750600114610bef575b610beb84610bd781860382611a7c565b604051918291602083526020830190611ac0565b0390f35b6009600090815292507f6e1540171b6c0c960b71a7020d9f60077f6af931a8bbf590da0223dacf75c7af5b828410610c32575050508101602001610bd782610bc7565b80546020858701810191909152909301928101610c1a565b60ff191660208087019190915292151560051b85019092019250610bd79150839050610bc7565b346102f25760003660031901126102f25760065460405160109190911c6001600160a01b03168152602090f35b346102f25760403660031901126102f2576001600160401b036004356024358281116102f257366023820112156102f2578060040135908382116102f25736602483830101116102f257610d0b91610d0160018060a01b036007541633146120ac565b6024369201611b5a565b918160005260209060058252604060002090845190811161099657610d308254611a27565b601f8111610e3d575b5082601f8211600114610db65781907f6bb7ff708619ba0610cba295a58592e0451dee2622938c8755667688daf3529b9596600092610dab575b50508160011b916000199060031b1c19161790555b610d918361210e565b90610da6604051928284938452830190611ac0565b0390a2005b015190508680610d73565b601f1982169583600052846000209660005b818110610e265750917f6bb7ff708619ba0610cba295a58592e0451dee2622938c8755667688daf3529b969791846001959410610e0d575b505050811b019055610d88565b015160001960f88460031b161c19169055868080610e00565b838301518955600190980197928601928601610dc8565b8260005283600020601f830160051c810191858410610e79575b601f0160051c01905b818110610e6d5750610d39565b60008155600101610e60565b9091508190610e57565b346102f25760803660031901126102f257610e9c6119fb565b604435906024356064356001600160401b0381116102f257610ec2903690600401611ba0565b9160018060a01b03610ed9816007541633146120ac565b610ee38383611bf2565b611044578116918215610ff557610ef981611f67565b92610f0386611f67565b9560005b8551811015610f2e5780610f1e610f29928a611c9c565b516102998289611c9c565b610f07565b5085836000526020946000865260406000208460005286526040600020610f56848254611de3565b905583600060405187815285898201527fc3d58168c5ae7397731d063d5bbf3d657854427343f4c083240f7aacaa2d0f6260403392a43b610f9357005b610fd7928592600060405180968195829463f23a6e6160e01b9a8b85523360048601528560248601526044850152606484015260a0608484015260a4830190611ac0565b03925af16000918161058e57506105645750506001906104b7611edb565b60405162461bcd60e51b815260206004820152602160248201527f455243313135353a206d696e7420746f20746865207a65726f206164647265736044820152607360f81b6064820152608490fd5b60405162461bcd60e51b815260206004820152602660248201527f4d61696e6e65742046617273693a20746f6b656e20636f6c6c656374656420616044820152656c726561647960d01b6064820152608490fd5b346102f25760603660031901126102f2576110b16119fb565b6024906001600160401b039082358281116102f2576110d4903690600401611afc565b9160449081359081116102f2576110ef903690600401611afc565b6001600160a01b039092169233841480156112c9575b61110e90611cc6565b831561111a8115611f9c565b6111278251855114611df0565b600060405161113581611a61565b52611291575b60005b81518110156111d7576111518183611c9c565b5161115c8286611c9c565b5190806000526003602081815260406000205492848410611195579061119095949392916000525203604060002055611c77565b61113e565b60405162461bcd60e51b8152600481018390526028818d015260008051602061234e833981519152818a015267616c537570706c7960c01b6064820152608490fd5b83828660005b825181101561124c57806111f46112479285611c9c565b516111ff8287611c9c565b51908060005260206000815260406000208660005281526040600020549161122984841015611ff4565b60005260008152604060002090866000525203604060002055611c77565b6111dd565b50907f4a39dc06d4c0dbc64b70af90fd698a233a518aa5d07e595d983b8c0526c8f7fb611283600094604051918291339583611e4d565b0390a461026d604051611a61565b9260009491945b84518110156112bf57806112af6112ba9286611c9c565b516102998288611c9c565b611298565b509293909361113b565b5083600052600160205260406000203360005260205261110e60ff604060002054169050611105565b346102f25760203660031901126102f257600435600052600360205260206040600020541515604051908152f35b346102f25760403660031901126102f2576004356001600160401b038082116102f257366023830112156102f25781600401359061135d82611ae5565b9261136b6040519485611a7c565b82845260209260248486019160051b830101913683116102f257602401905b82821061149f575050506024359081116102f2576113ac903690600401611afc565b8251815103611448578251926113c184611ae5565b936113cf6040519586611a7c565b8085526113de601f1991611ae5565b01368486013760005b81518110156114315761142c9061141c6001600160a01b036114098386611c9c565b51166114158387611c9c565b5190611bf2565b6114268288611c9c565b52611c77565b6113e7565b505050610beb604051928284938452830190611bbe565b60405162461bcd60e51b815260048101839052602960248201527f455243313135353a206163636f756e747320616e6420696473206c656e677468604482015268040dad2e6dac2e8c6d60bb1b6064820152608490fd5b81356001600160a01b03811681036102f257815290840190840161138a565b346102f25760031960a0368201126102f2576114d86119fb565b906114e1611a11565b6044908135926001600160401b03938481116102f257611505903690600401611afc565b606480358681116102f25761151e903690600401611afc565b9460849687359081116102f257611539903690600401611ba0565b6001600160a01b03948986163314801561186e575b61155790611cc6565b6115648551895114611df0565b858716156115728115611d2a565b868b161561182b575b611776575b60005b8551811015611619578061159a6116149288611c9c565b518c6115a6838d611c9c565b519180600052826020926000845260406000208d82166000528452604060002054906115d483831015611d84565b83600052600085528d60406000209116600052845203604060002055600052600081526040600020908a8c16600052526102b26040600020918254611de3565b611583565b50888a989796949789604051887f4a39dc06d4c0dbc64b70af90fd698a233a518aa5d07e595d983b8c0526c8f7fb89808d169416928061165b87339583611e4d565b0390a4873b61166657005b60405198899788968863bc197c8160e01b9d8e8a523360048b0152166024890152870160a0905260a4870161169a91611bbe565b908487830301908701526116ad91611bbe565b9184830301908401526116bf91611ac0565b03921691815a602094600091f160009181611756575b5061172e57505060016116e6611edb565b6308c379a0146116f7575b6104c957005b6116ff611ef9565b8061170a57506116f1565b60405162461bcd60e51b81526020600482015290819061052b906024830190611ac0565b6001600160e01b0319161461026d5760405162461bcd60e51b81528061052b60048201611e92565b61176f91925060203d81116105b6576105a78183611a7c565b90836116d5565b9796949060009993999692965b855181101561181b576117968187611c9c565b516117a18289611c9c565b519080600052602060038152604060002054918383106117da576117d5949392916003916000525203604060002055611c77565b611783565b508b9067616c537570706c7960c01b8f60008051602061234e8339815191528e6040519462461bcd60e51b8652600486015260286024860152840152820152fd5b5090949697989298959195611580565b99969498959392919060005b8a5181101561185f57808b6102998261185361185a958f611c9c565b5192611c9c565b611837565b5090919293959894969961157b565b50858a16600052600160205260406000203360005260205261155760ff60406000205416905061154e565b346102f25760203660031901126102f257610beb610bd760043561210e565b346102f25760003660031901126102f25760405160006008546118da81611a27565b80845290600190818116908115610c4a575060011461190357610beb84610bd781860382611a7c565b6008600090815292507ff3f7a9fe364faab93b216da50a3214154f22a0a2b415b23a84c8169e8b636ee35b828410611946575050508101602001610bd782610bc7565b8054602085870181019190915290930192810161192e565b346102f25760203660031901126102f25760043563ffffffff60e01b81168091036102f257602090636cdb3d1360e11b81149081156119bb575b81156119aa575b506040519015158152f35b6301ffc9a760e01b1490508261199f565b6303a24d0760e21b81149150611998565b346102f25760403660031901126102f25760206119f36119ea6119fb565b60243590611bf2565b604051908152f35b600435906001600160a01b03821682036102f257565b602435906001600160a01b03821682036102f257565b90600182811c92168015611a57575b6020831014611a4157565b634e487b7160e01b600052602260045260246000fd5b91607f1691611a36565b602081019081106001600160401b0382111761099657604052565b90601f801991011681019081106001600160401b0382111761099657604052565b60005b838110611ab05750506000910152565b8181015183820152602001611aa0565b90602091611ad981518092818552858086019101611a9d565b601f01601f1916010190565b6001600160401b0381116109965760051b60200190565b81601f820112156102f257803591611b1383611ae5565b92611b216040519485611a7c565b808452602092838086019260051b8201019283116102f2578301905b828210611b4b575050505090565b81358152908301908301611b3d565b9291926001600160401b0382116109965760405191611b83601f8201601f191660200184611a7c565b8294818452818301116102f2578281602093846000960137010152565b9080601f830112156102f257816020611bbb93359101611b5a565b90565b90815180825260208080930193019160005b828110611bde575050505090565b835185529381019392810192600101611bd0565b6001600160a01b0316908115611c1f57600052600060205260406000209060005260205260406000205490565b60405162461bcd60e51b815260206004820152602a60248201527f455243313135353a2061646472657373207a65726f206973206e6f742061207660448201526930b634b21037bbb732b960b11b6064820152608490fd5b6000198114611c865760010190565b634e487b7160e01b600052601160045260246000fd5b8051821015611cb05760209160051b010190565b634e487b7160e01b600052603260045260246000fd5b15611ccd57565b60405162461bcd60e51b815260206004820152602f60248201527f455243313135353a2063616c6c6572206973206e6f7420746f6b656e206f776e60448201526e195c881b9bdc88185c1c1c9bdd9959608a1b6064820152608490fd5b15611d3157565b60405162461bcd60e51b815260206004820152602560248201527f455243313135353a207472616e7366657220746f20746865207a65726f206164604482015264647265737360d81b6064820152608490fd5b15611d8b57565b60405162461bcd60e51b815260206004820152602a60248201527f455243313135353a20696e73756666696369656e742062616c616e636520666f60448201526939103a3930b739b332b960b11b6064820152608490fd5b91908201809211611c8657565b15611df757565b60405162461bcd60e51b815260206004820152602860248201527f455243313135353a2069647320616e6420616d6f756e7473206c656e677468206044820152670dad2e6dac2e8c6d60c31b6064820152608490fd5b9091611e64611bbb93604084526040840190611bbe565b916020818403910152611bbe565b908160209103126102f257516001600160e01b0319811681036102f25790565b60809060208152602860208201527f455243313135353a204552433131353552656365697665722072656a656374656040820152676420746f6b656e7360c01b60608201520190565b60009060033d11611ee857565b905060046000803e60005160e01c90565b600060443d10611bbb57604051600319913d83016004833e81516001600160401b03918282113d602484011117611f5657818401948551938411611f5e573d85010160208487010111611f565750611bbb92910160200190611a7c565b949350505050565b50949350505050565b60405190604082018281106001600160401b038211176109965760405260018252602082016020368237825115611cb0575290565b15611fa357565b60405162461bcd60e51b815260206004820152602360248201527f455243313135353a206275726e2066726f6d20746865207a65726f206164647260448201526265737360e81b6064820152608490fd5b15611ffb57565b60405162461bcd60e51b8152602060048201526024808201527f455243313135353a206275726e20616d6f756e7420657863656564732062616c604482015263616e636560e01b6064820152608490fd5b1561205357565b60405162461bcd60e51b815260206004820152602b60248201527f496e697469616c697a61626c653a20636f6e7472616374206973206e6f74206960448201526a6e697469616c697a696e6760a81b6064820152608490fd5b156120b357565b60405162461bcd60e51b815260206004820152602d60248201527f4b617469626568313135353a207265737472696374656420616363657373207460448201526c6f2074686520466163746f727960981b6064820152608490fd5b60009081526020906005825260408120906040519080918354928161213285611a27565b918282528782019660019689888216918260001461232f5750506001146122f1575b5061216192500382611a7c565b80511561223657604051948593836004549161217c83611a27565b9281811690811561221557506001146121b5575b505050506121a6611bbb94839251938491611a9d565b0103601f198101835282611a7c565b909192969450600482527f8a35acfbc15ff81a39ae7d344fd709f28e8600b4aa8c65c6b64bfe7fe36bd19b5b8383106121ff57505050611bbb946121a69185010192943880612190565b80548984018901528896509187019181016121e1565b60ff1916888601525050508015150284010191506121a6611bbb3880612190565b506040516002549094935084928261224d83611a27565b808652928281169081156122cf5750600114612273575b505050611bbb92500382611a7c565b600281527f405787fa12a823e0f2b7631cc41b3ba8828b3321ca811111fa75cd3aa3bb5ace95935091905b8183106122b7575050611bbb9350820101388080612264565b8554878401850152948501948694509183019161229e565b92505050611bbb94925060ff191682840152151560051b820101388080612264565b915050835281868085208686915b858310612316575050612161935082010138612154565b80919294505483858801015201910187908685936122ff565b60ff19168a5261216195151560051b8501019250389150612154905056fe455243313135353a206275726e20616d6f756e74206578636565647320746f74a264697066735822122039ad39761ab192ae6a1b0b7d0c212f04461c55b923e005588bf93ad30a3512c764736f6c63430008110033","opcodes":"PUSH1 0x80 DUP1 PUSH1 0x40 MSTORE CALLVALUE PUSH2 0x85 JUMPI PUSH2 0x24E8 DUP2 DUP2 ADD PUSH1 0x1 PUSH1 0x1 PUSH1 0x40 SHL SUB DUP2 GT DUP4 DUP3 LT OR PUSH2 0x6F JUMPI DUP3 SWAP2 PUSH2 0x1F99 DUP4 CODECOPY SUB SWAP1 PUSH1 0x0 CREATE DUP1 ISZERO PUSH2 0x63 JUMPI PUSH1 0x4 DUP1 SLOAD PUSH1 0x1 PUSH1 0x1 PUSH1 0xA0 SHL SUB NOT AND PUSH1 0x1 PUSH1 0x1 PUSH1 0xA0 SHL SUB SWAP3 SWAP1 SWAP3 AND SWAP2 SWAP1 SWAP2 OR SWAP1 SSTORE PUSH1 0x40 MLOAD PUSH2 0x1F0E SWAP1 DUP2 PUSH2 0x8B DUP3 CODECOPY RETURN JUMPDEST PUSH1 0x40 MLOAD RETURNDATASIZE PUSH1 0x0 DUP3 RETURNDATACOPY RETURNDATASIZE SWAP1 REVERT JUMPDEST PUSH4 0x4E487B71 PUSH1 0xE0 SHL PUSH1 0x0 MSTORE PUSH1 0x41 PUSH1 0x4 MSTORE PUSH1 0x24 PUSH1 0x0 REVERT JUMPDEST PUSH1 0x0 DUP1 REVERT INVALID PUSH1 0x80 PUSH1 0x40 MSTORE PUSH1 0x4 CALLDATASIZE LT ISZERO PUSH2 0x13 JUMPI JUMPDEST PUSH1 0x0 DUP1 REVERT JUMPDEST PUSH1 0x0 DUP1 CALLDATALOAD PUSH1 0xE0 SHR SWAP1 DUP2 PUSH3 0x797DF8 EQ PUSH2 0xC9 JUMPI POP DUP1 PUSH4 0x3C13148 EQ PUSH2 0xC0 JUMPI DUP1 PUSH4 0x7D32F2A EQ PUSH2 0xB7 JUMPI DUP1 PUSH4 0xE89341C EQ PUSH2 0xAE JUMPI DUP1 PUSH4 0x39B37AB0 EQ PUSH2 0xA5 JUMPI DUP1 PUSH4 0x5C60DA1B EQ PUSH2 0x9C JUMPI DUP1 PUSH4 0x5FD099E6 EQ PUSH2 0x93 JUMPI DUP1 PUSH4 0x836F71E0 EQ PUSH2 0x8A JUMPI PUSH4 0x9F9028D5 EQ PUSH2 0x82 JUMPI PUSH1 0x0 DUP1 REVERT JUMPDEST PUSH2 0xE PUSH2 0x58A JUMP JUMPDEST POP PUSH2 0xE PUSH2 0x518 JUMP JUMPDEST POP PUSH2 0xE PUSH2 0x4E3 JUMP JUMPDEST POP PUSH2 0xE PUSH2 0x4B9 JUMP JUMPDEST POP PUSH2 0xE PUSH2 0x487 JUMP JUMPDEST POP PUSH2 0xE PUSH2 0x395 JUMP JUMPDEST POP PUSH2 0xE PUSH2 0x247 JUMP JUMPDEST POP PUSH2 0xE PUSH2 0x193 JUMP JUMPDEST CALLVALUE PUSH2 0x152 JUMPI PUSH1 0x3 NOT PUSH1 0x80 CALLDATASIZE DUP3 ADD SLT PUSH2 0x14E JUMPI PUSH1 0x24 CALLDATALOAD PUSH1 0x1 PUSH1 0x1 PUSH1 0x40 SHL SUB SWAP2 DUP3 DUP3 GT PUSH2 0x146 JUMPI PUSH2 0x120 SWAP1 DUP3 CALLDATASIZE SUB ADD SLT PUSH2 0x14A JUMPI PUSH1 0x44 CALLDATALOAD DUP3 DUP2 GT PUSH2 0x146 JUMPI PUSH2 0x113 SWAP1 CALLDATASIZE SWAP1 PUSH1 0x4 ADD PUSH2 0x155 JUMP JUMPDEST PUSH1 0x64 SWAP3 SWAP2 SWAP3 CALLDATALOAD SWAP4 DUP5 GT PUSH2 0x142 JUMPI PUSH2 0x131 PUSH2 0x13F SWAP5 CALLDATASIZE SWAP1 PUSH1 0x4 ADD PUSH2 0x155 JUMP JUMPDEST SWAP4 SWAP1 SWAP3 PUSH1 0x4 ADD PUSH1 0x4 CALLDATALOAD PUSH2 0xBA2 JUMP JUMPDEST DUP1 RETURN JUMPDEST DUP5 DUP1 REVERT JUMPDEST DUP4 DUP1 REVERT JUMPDEST DUP3 DUP1 REVERT JUMPDEST POP DUP1 REVERT JUMPDEST DUP1 REVERT JUMPDEST SWAP2 DUP2 PUSH1 0x1F DUP5 ADD SLT ISZERO PUSH2 0xE JUMPI DUP3 CALLDATALOAD SWAP2 PUSH1 0x1 PUSH1 0x1 PUSH1 0x40 SHL SUB DUP4 GT PUSH2 0xE JUMPI PUSH1 0x20 DUP4 DUP2 DUP7 ADD SWAP6 ADD ADD GT PUSH2 0xE JUMPI JUMP JUMPDEST PUSH1 0x1 PUSH1 0x1 PUSH1 0xA0 SHL SUB DUP2 AND SUB PUSH2 0xE JUMPI JUMP JUMPDEST POP CALLVALUE PUSH2 0xE JUMPI PUSH1 0x20 CALLDATASIZE PUSH1 0x3 NOT ADD SLT PUSH2 0xE JUMPI PUSH1 0x4 CALLDATALOAD PUSH2 0x1B1 DUP2 PUSH2 0x182 JUMP JUMPDEST PUSH1 0x1 SLOAD SWAP1 PUSH1 0x1 PUSH1 0x1 PUSH1 0xA0 SHL SUB SWAP1 DUP2 DUP4 AND CALLER SUB PUSH2 0x1DB JUMPI PUSH1 0x1 PUSH1 0x1 PUSH1 0xA0 SHL SUB NOT SWAP1 SWAP3 AND SWAP2 AND OR PUSH1 0x1 SSTORE STOP JUMPDEST PUSH1 0x40 MLOAD PUSH3 0x461BCD PUSH1 0xE5 SHL DUP2 MSTORE PUSH1 0x20 PUSH1 0x4 DUP3 ADD MSTORE PUSH1 0x31 PUSH1 0x24 DUP3 ADD MSTORE PUSH32 0x4665654D616E616765723A206F6E6C79207265636569766572312063616E2063 PUSH1 0x44 DUP3 ADD MSTORE PUSH17 0x68616E6765206974732061646472657373 PUSH1 0x78 SHL PUSH1 0x64 DUP3 ADD MSTORE PUSH1 0x84 SWAP1 REVERT JUMPDEST CALLDATALOAD SWAP1 PUSH2 0x245 DUP3 PUSH2 0x182 JUMP JUMPDEST JUMP JUMPDEST POP CALLVALUE PUSH2 0xE JUMPI PUSH1 0x20 CALLDATASIZE PUSH1 0x3 NOT ADD SLT PUSH2 0xE JUMPI PUSH2 0x335 PUSH1 0x55 PUSH1 0x37 PUSH1 0x4 CALLDATALOAD PUSH2 0x26C DUP2 PUSH2 0x182 JUMP JUMPDEST PUSH1 0x4 SLOAD PUSH1 0x40 MLOAD PUSH1 0x60 SWAP3 SWAP1 SWAP3 SHL PUSH12 0xFFFFFFFFFFFFFFFFFFFFFFFF NOT AND PUSH1 0x20 DUP4 ADD MSTORE SWAP1 PUSH2 0x2AD SWAP1 PUSH2 0x2A8 DUP2 PUSH1 0x34 DUP2 ADD JUMPDEST SUB PUSH1 0x1F NOT DUP2 ADD DUP4 MSTORE DUP3 PUSH2 0x637 JUMP JUMPDEST PUSH2 0xA4D JUMP JUMPDEST PUSH1 0x40 DUP1 MLOAD PUSH20 0x3D602D80600A3D3981F3363D3D373D3D3D363D73 PUSH1 0x60 SHL DUP2 MSTORE PUSH1 0x60 SWAP4 DUP5 SHL PUSH12 0xFFFFFFFFFFFFFFFFFFFFFFFF NOT AND PUSH1 0x14 DUP3 ADD MSTORE PUSH16 0x5AF43D82803E903D91602B57FD5BF3FF PUSH1 0x80 SHL PUSH1 0x28 DUP3 ADD MSTORE ADDRESS SWAP1 SWAP4 SHL PUSH1 0x38 DUP5 ADD MSTORE PUSH1 0x4C DUP4 ADD SWAP2 SWAP1 SWAP2 MSTORE DUP3 DUP3 KECCAK256 PUSH1 0x6C DUP4 ADD MSTORE SWAP2 ADD SWAP2 SWAP1 SWAP2 KECCAK256 SWAP1 MLOAD PUSH1 0x1 PUSH1 0x1 PUSH1 0xA0 SHL SUB SWAP1 SWAP2 AND DUP2 MSTORE SWAP1 DUP2 SWAP1 PUSH1 0x20 DUP3 ADD SWAP1 JUMP JUMPDEST SUB SWAP1 RETURN JUMPDEST PUSH1 0x0 JUMPDEST DUP4 DUP2 LT PUSH2 0x34C JUMPI POP POP PUSH1 0x0 SWAP2 ADD MSTORE JUMP JUMPDEST DUP2 DUP2 ADD MLOAD DUP4 DUP3 ADD MSTORE PUSH1 0x20 ADD PUSH2 0x33C JUMP JUMPDEST SWAP1 PUSH1 0x20 SWAP2 PUSH2 0x375 DUP2 MLOAD DUP1 SWAP3 DUP2 DUP6 MSTORE DUP6 DUP1 DUP7 ADD SWAP2 ADD PUSH2 0x339 JUMP JUMPDEST PUSH1 0x1F ADD PUSH1 0x1F NOT AND ADD ADD SWAP1 JUMP JUMPDEST SWAP1 PUSH1 0x20 PUSH2 0x392 SWAP3 DUP2 DUP2 MSTORE ADD SWAP1 PUSH2 0x35C JUMP JUMPDEST SWAP1 JUMP JUMPDEST POP CALLVALUE PUSH2 0xE JUMPI PUSH1 0x20 DUP1 PUSH1 0x3 NOT CALLDATASIZE ADD SLT PUSH2 0xE JUMPI PUSH1 0x4 CALLDATALOAD SWAP1 PUSH1 0x0 SWAP2 DUP1 DUP4 MSTORE PUSH1 0x3 DUP3 MSTORE DUP3 PUSH1 0x1 DUP1 PUSH1 0xA0 SHL SUB PUSH1 0x40 DUP3 KECCAK256 SLOAD AND SWAP2 PUSH1 0x24 PUSH1 0x40 MLOAD DUP1 SWAP5 DUP2 SWAP4 PUSH4 0x3A24D07 PUSH1 0xE2 SHL DUP4 MSTORE PUSH1 0x4 DUP4 ADD MSTORE GAS STATICCALL SWAP2 DUP3 ISZERO PUSH2 0x47A JUMPI JUMPDEST DUP4 SWAP3 PUSH2 0x3FC JUMPI JUMPDEST PUSH1 0x40 MLOAD DUP1 PUSH2 0x335 DUP6 DUP3 PUSH2 0x381 JUMP JUMPDEST SWAP1 SWAP2 POP RETURNDATASIZE DUP1 DUP5 DUP5 RETURNDATACOPY PUSH2 0x40E DUP2 DUP5 PUSH2 0x637 JUMP JUMPDEST DUP3 ADD SWAP2 DUP2 DUP2 DUP5 SUB SLT PUSH2 0x146 JUMPI DUP1 MLOAD SWAP1 PUSH1 0x1 PUSH1 0x1 PUSH1 0x40 SHL SUB DUP3 GT PUSH2 0x142 JUMPI ADD SWAP1 DUP3 PUSH1 0x1F DUP4 ADD SLT ISZERO PUSH2 0x146 JUMPI DUP2 MLOAD SWAP4 PUSH2 0x444 DUP6 PUSH2 0x7C8 JUMP JUMPDEST SWAP4 PUSH2 0x452 PUSH1 0x40 MLOAD SWAP6 DUP7 PUSH2 0x637 JUMP JUMPDEST DUP6 DUP6 MSTORE DUP3 DUP7 DUP6 ADD ADD GT PUSH2 0x152 JUMPI POP SWAP3 PUSH2 0x473 SWAP2 DUP5 PUSH2 0x335 SWAP6 DUP6 ADD SWAP2 ADD PUSH2 0x339 JUMP JUMPDEST CODESIZE DUP1 PUSH2 0x3EE JUMP JUMPDEST PUSH2 0x482 PUSH2 0x667 JUMP JUMPDEST PUSH2 0x3E7 JUMP JUMPDEST POP CALLVALUE PUSH2 0xE JUMPI PUSH1 0x20 CALLDATASIZE PUSH1 0x3 NOT ADD SLT PUSH2 0xE JUMPI PUSH1 0x20 PUSH2 0x4A6 PUSH1 0x4 CALLDATALOAD PUSH2 0x70C JUMP JUMPDEST PUSH1 0x40 MLOAD SWAP1 DUP2 MSTORE RETURN JUMPDEST PUSH1 0x0 SWAP2 SUB SLT PUSH2 0xE JUMPI JUMP JUMPDEST POP CALLVALUE PUSH2 0xE JUMPI PUSH1 0x0 CALLDATASIZE PUSH1 0x3 NOT ADD SLT PUSH2 0xE JUMPI PUSH1 0x4 SLOAD PUSH1 0x40 MLOAD PUSH1 0x1 PUSH1 0x1 PUSH1 0xA0 SHL SUB SWAP1 SWAP2 AND DUP2 MSTORE PUSH1 0x20 SWAP1 RETURN JUMPDEST POP CALLVALUE PUSH2 0xE JUMPI PUSH1 0x20 CALLDATASIZE PUSH1 0x3 NOT ADD SLT PUSH2 0xE JUMPI PUSH1 0x4 CALLDATALOAD PUSH1 0x0 MSTORE PUSH1 0x3 PUSH1 0x20 MSTORE PUSH1 0x20 PUSH1 0x1 DUP1 PUSH1 0xA0 SHL SUB PUSH1 0x40 PUSH1 0x0 KECCAK256 SLOAD AND PUSH1 0x40 MLOAD SWAP1 DUP2 MSTORE RETURN JUMPDEST POP PUSH1 0x60 CALLDATASIZE PUSH1 0x3 NOT ADD SLT PUSH2 0xE JUMPI PUSH1 0x1 PUSH1 0x1 PUSH1 0x40 SHL SUB PUSH1 0x24 CALLDATALOAD DUP2 DUP2 GT PUSH2 0xE JUMPI PUSH2 0x545 SWAP1 CALLDATASIZE SWAP1 PUSH1 0x4 ADD PUSH2 0x155 JUMP JUMPDEST SWAP2 SWAP1 PUSH1 0x44 CALLDATALOAD SWAP3 DUP3 DUP5 GT PUSH2 0xE JUMPI CALLDATASIZE PUSH1 0x23 DUP6 ADD SLT ISZERO PUSH2 0xE JUMPI DUP4 PUSH1 0x4 ADD CALLDATALOAD SWAP3 DUP4 GT PUSH2 0xE JUMPI CALLDATASIZE PUSH1 0x24 DUP5 PUSH1 0x6 SHL DUP7 ADD ADD GT PUSH2 0xE JUMPI PUSH1 0x24 PUSH2 0x588 SWAP5 ADD SWAP2 PUSH1 0x4 CALLDATALOAD PUSH2 0x15F2 JUMP JUMPDEST STOP JUMPDEST POP CALLVALUE PUSH2 0xE JUMPI PUSH1 0x20 CALLDATASIZE PUSH1 0x3 NOT ADD SLT PUSH2 0xE JUMPI PUSH1 0x20 PUSH1 0x4 CALLDATALOAD PUSH2 0x5AA DUP2 PUSH2 0x182 JUMP JUMPDEST PUSH1 0x1 DUP1 PUSH1 0xA0 SHL SUB DUP1 SWAP2 AND PUSH1 0x0 MSTORE PUSH1 0x2 DUP3 MSTORE PUSH1 0x40 PUSH1 0x0 KECCAK256 SLOAD AND PUSH1 0x40 MLOAD SWAP1 DUP2 MSTORE RETURN JUMPDEST POP PUSH4 0x4E487B71 PUSH1 0xE0 SHL PUSH1 0x0 MSTORE PUSH1 0x41 PUSH1 0x4 MSTORE PUSH1 0x24 PUSH1 0x0 REVERT JUMPDEST PUSH1 0x1 PUSH1 0x1 PUSH1 0x40 SHL SUB DUP2 GT PUSH2 0x5F4 JUMPI PUSH1 0x40 MSTORE JUMP JUMPDEST PUSH2 0x5FC PUSH2 0x5CA JUMP JUMPDEST PUSH1 0x40 MSTORE JUMP JUMPDEST PUSH1 0x40 DUP2 ADD SWAP1 DUP2 LT PUSH1 0x1 PUSH1 0x1 PUSH1 0x40 SHL SUB DUP3 GT OR PUSH2 0x5F4 JUMPI PUSH1 0x40 MSTORE JUMP JUMPDEST PUSH1 0x60 DUP2 ADD SWAP1 DUP2 LT PUSH1 0x1 PUSH1 0x1 PUSH1 0x40 SHL SUB DUP3 GT OR PUSH2 0x5F4 JUMPI PUSH1 0x40 MSTORE JUMP JUMPDEST SWAP1 PUSH1 0x1F DUP1 NOT SWAP2 ADD AND DUP2 ADD SWAP1 DUP2 LT PUSH1 0x1 PUSH1 0x1 PUSH1 0x40 SHL SUB DUP3 GT OR PUSH2 0x5F4 JUMPI PUSH1 0x40 MSTORE JUMP JUMPDEST SWAP1 DUP2 PUSH1 0x20 SWAP2 SUB SLT PUSH2 0xE JUMPI MLOAD SWAP1 JUMP JUMPDEST POP PUSH1 0x40 MLOAD RETURNDATASIZE PUSH1 0x0 DUP3 RETURNDATACOPY RETURNDATASIZE SWAP1 REVERT JUMPDEST POP PUSH4 0x4E487B71 PUSH1 0xE0 SHL PUSH1 0x0 MSTORE PUSH1 0x11 PUSH1 0x4 MSTORE PUSH1 0x24 PUSH1 0x0 REVERT JUMPDEST PUSH1 0x0 NOT DUP2 ADD SWAP2 SWAP1 DUP3 GT PUSH2 0x69A JUMPI JUMP JUMPDEST PUSH2 0x245 PUSH2 0x674 JUMP JUMPDEST SWAP2 SWAP1 DUP3 SUB SWAP2 DUP3 GT PUSH2 0x69A JUMPI JUMP JUMPDEST SWAP1 PUSH8 0x16345785D8A0000 SWAP2 DUP3 DUP2 MUL SWAP3 DUP2 DUP5 DIV EQ SWAP1 ISZERO OR ISZERO PUSH2 0x69A JUMPI JUMP JUMPDEST SWAP1 PUSH1 0x14 DUP3 MUL SWAP2 DUP1 DUP4 DIV PUSH1 0x14 EQ SWAP1 ISZERO OR ISZERO PUSH2 0x69A JUMPI JUMP JUMPDEST SWAP1 PUSH2 0x15E SWAP2 DUP3 DUP2 MUL SWAP3 DUP2 DUP5 DIV EQ SWAP1 ISZERO OR ISZERO PUSH2 0x69A JUMPI JUMP JUMPDEST DUP2 DUP2 MUL SWAP3 SWAP2 DUP2 ISZERO SWAP2 DUP5 DIV EQ OR ISZERO PUSH2 0x69A JUMPI JUMP JUMPDEST DUP1 PUSH1 0x0 MSTORE PUSH1 0x3 PUSH1 0x20 MSTORE PUSH1 0x20 PUSH1 0x1 DUP1 PUSH1 0xA0 SHL SUB PUSH1 0x40 PUSH1 0x0 KECCAK256 SLOAD AND SWAP2 PUSH1 0x24 PUSH1 0x40 MLOAD DUP1 SWAP5 DUP2 SWAP4 PUSH4 0xBD85B039 PUSH1 0xE0 SHL DUP4 MSTORE PUSH1 0x4 DUP4 ADD MSTORE GAS STATICCALL SWAP1 DUP2 ISZERO PUSH2 0x7AE JUMPI JUMPDEST PUSH1 0x0 SWAP2 PUSH2 0x780 JUMPI JUMPDEST POP PUSH1 0x0 SWAP1 PUSH1 0x5 DUP2 GT ISZERO PUSH2 0x77C JUMPI PUSH2 0x392 SWAP2 POP PUSH1 0x4 NOT DUP2 ADD SWAP1 DUP2 GT ISZERO PUSH2 0x6AF JUMPI PUSH2 0x777 PUSH2 0x674 JUMP JUMPDEST PUSH2 0x6AF JUMP JUMPDEST POP SWAP1 JUMP JUMPDEST PUSH2 0x7A1 SWAP2 POP PUSH1 0x20 RETURNDATASIZE DUP2 GT PUSH2 0x7A7 JUMPI JUMPDEST PUSH2 0x799 DUP2 DUP4 PUSH2 0x637 JUMP JUMPDEST DUP2 ADD SWAP1 PUSH2 0x658 JUMP JUMPDEST CODESIZE PUSH2 0x750 JUMP JUMPDEST POP RETURNDATASIZE PUSH2 0x78F JUMP JUMPDEST PUSH2 0x7B6 PUSH2 0x667 JUMP JUMPDEST PUSH2 0x748 JUMP JUMPDEST PUSH1 0x40 MLOAD SWAP1 PUSH2 0x245 DUP3 PUSH2 0x601 JUMP JUMPDEST PUSH1 0x20 SWAP1 PUSH1 0x1 PUSH1 0x1 PUSH1 0x40 SHL SUB DUP2 GT PUSH2 0x7E5 JUMPI JUMPDEST PUSH1 0x1F ADD PUSH1 0x1F NOT AND ADD SWAP1 JUMP JUMPDEST PUSH2 0x7ED PUSH2 0x5CA JUMP JUMPDEST PUSH2 0x7DA JUMP JUMPDEST CALLDATALOAD PUSH2 0x392 DUP2 PUSH2 0x182 JUMP JUMPDEST ISZERO PUSH2 0x803 JUMPI JUMP JUMPDEST PUSH1 0x40 MLOAD PUSH3 0x461BCD PUSH1 0xE5 SHL DUP2 MSTORE PUSH1 0x20 PUSH1 0x4 DUP3 ADD MSTORE PUSH1 0x1D PUSH1 0x24 DUP3 ADD MSTORE PUSH32 0x4B6174696265683732313A20496E76616C6964207369676E6174757265000000 PUSH1 0x44 DUP3 ADD MSTORE PUSH1 0x64 SWAP1 REVERT JUMPDEST ISZERO PUSH2 0x84F JUMPI JUMP JUMPDEST PUSH1 0x40 MLOAD PUSH3 0x461BCD PUSH1 0xE5 SHL DUP2 MSTORE PUSH1 0x20 PUSH1 0x4 DUP3 ADD MSTORE PUSH1 0x1B PUSH1 0x24 DUP3 ADD MSTORE PUSH32 0x466163746F7279313135353A2077726F6E6720746F6B656E2069640000000000 PUSH1 0x44 DUP3 ADD MSTORE PUSH1 0x64 SWAP1 REVERT JUMPDEST ISZERO PUSH2 0x89B JUMPI JUMP JUMPDEST PUSH1 0x40 MLOAD PUSH3 0x461BCD PUSH1 0xE5 SHL DUP2 MSTORE PUSH1 0x20 PUSH1 0x4 DUP3 ADD MSTORE PUSH1 0x27 PUSH1 0x24 DUP3 ADD MSTORE PUSH32 0x466163746F7279313135353A20746F6B656E2073616C652074696D6520697320 PUSH1 0x44 DUP3 ADD MSTORE PUSH7 0x195E1C1A5C9959 PUSH1 0xCA SHL PUSH1 0x64 DUP3 ADD MSTORE PUSH1 0x84 SWAP1 REVERT JUMPDEST ISZERO PUSH2 0x8F7 JUMPI JUMP JUMPDEST PUSH1 0x40 MLOAD PUSH3 0x461BCD PUSH1 0xE5 SHL DUP2 MSTORE PUSH1 0x20 PUSH1 0x4 DUP3 ADD MSTORE PUSH1 0x30 PUSH1 0x24 DUP3 ADD MSTORE PUSH32 0x466163746F7279313135353A20746F6B656E2073616C652074696D6520686173 PUSH1 0x44 DUP3 ADD MSTORE PUSH16 0x81B9BDD081CDD185C9D1959081E595D PUSH1 0x82 SHL PUSH1 0x64 DUP3 ADD MSTORE PUSH1 0x84 SWAP1 REVERT JUMPDEST PUSH1 0x1 SWAP1 PUSH1 0x0 NOT DUP2 EQ PUSH2 0x965 JUMPI ADD SWAP1 JUMP JUMPDEST PUSH2 0x96D PUSH2 0x674 JUMP JUMPDEST ADD SWAP1 JUMP JUMPDEST SWAP1 CALLDATALOAD SWAP1 PUSH1 0x1E NOT DUP2 CALLDATASIZE SUB ADD DUP3 SLT ISZERO PUSH2 0xE JUMPI ADD DUP1 CALLDATALOAD SWAP1 PUSH1 0x1 PUSH1 0x1 PUSH1 0x40 SHL SUB DUP3 GT PUSH2 0xE JUMPI PUSH1 0x20 ADD SWAP2 DUP2 PUSH1 0x5 SHL CALLDATASIZE SUB DUP4 SGT PUSH2 0xE JUMPI JUMP JUMPDEST POP PUSH4 0x4E487B71 PUSH1 0xE0 SHL PUSH1 0x0 MSTORE PUSH1 0x32 PUSH1 0x4 MSTORE PUSH1 0x24 PUSH1 0x0 REVERT JUMPDEST SWAP2 SWAP1 DUP2 LT ISZERO PUSH2 0x9CE JUMPI JUMPDEST PUSH1 0x5 SHL ADD SWAP1 JUMP JUMPDEST PUSH2 0x9D6 PUSH2 0x9A6 JUMP JUMPDEST PUSH2 0x9C7 JUMP JUMPDEST ISZERO PUSH2 0x9E2 JUMPI JUMP JUMPDEST PUSH1 0x40 MLOAD PUSH3 0x461BCD PUSH1 0xE5 SHL DUP2 MSTORE PUSH1 0x20 PUSH1 0x4 DUP3 ADD MSTORE PUSH1 0x38 PUSH1 0x24 DUP3 ADD MSTORE PUSH32 0x466163746F7279313135353A20746F20746F6B656E20696420686173206E6F74 PUSH1 0x44 DUP3 ADD MSTORE PUSH32 0x206D696E746564206F6E2063757272656E7420636861696E0000000000000000 PUSH1 0x64 DUP3 ADD MSTORE PUSH1 0x84 SWAP1 REVERT JUMPDEST PUSH1 0x20 DUP2 MLOAD SWAP2 ADD MLOAD SWAP1 PUSH1 0x20 DUP2 LT PUSH2 0xA61 JUMPI POP SWAP1 JUMP JUMPDEST PUSH1 0x0 NOT SWAP1 PUSH1 0x20 SUB PUSH1 0x3 SHL SHL AND SWAP1 JUMP JUMPDEST PUSH1 0x1 PUSH1 0x1 PUSH1 0xA0 SHL SUB SWAP1 SWAP2 AND DUP2 MSTORE PUSH1 0x60 PUSH1 0x20 DUP3 ADD DUP2 SWAP1 MSTORE PUSH1 0x40 SWAP3 PUSH2 0xA95 SWAP2 DUP4 ADD SWAP1 PUSH2 0x35C JUMP JUMPDEST SWAP1 DUP3 DUP2 DUP4 SUB SWAP2 ADD MSTORE PUSH1 0x7 DUP2 MSTORE PUSH7 0x96C2E8D2C4CAD PUSH1 0xCB SHL PUSH1 0x20 DUP3 ADD MSTORE ADD SWAP1 JUMP JUMPDEST ISZERO PUSH2 0xABC JUMPI JUMP JUMPDEST PUSH1 0x40 MLOAD PUSH3 0x461BCD PUSH1 0xE5 SHL DUP2 MSTORE PUSH1 0x20 PUSH1 0x4 DUP3 ADD MSTORE PUSH1 0x37 PUSH1 0x24 DUP3 ADD MSTORE PUSH32 0x466163746F7279313135353A207468697320636F6C6C656374696F6E20686173 PUSH1 0x44 DUP3 ADD MSTORE PUSH32 0x206265656E20616C726561647920636F6C6C6563746564000000000000000000 PUSH1 0x64 DUP3 ADD MSTORE PUSH1 0x84 SWAP1 REVERT JUMPDEST SWAP1 CALLDATALOAD SWAP1 PUSH1 0x1E NOT DUP2 CALLDATASIZE SUB ADD DUP3 SLT ISZERO PUSH2 0xE JUMPI ADD DUP1 CALLDATALOAD SWAP1 PUSH1 0x1 PUSH1 0x1 PUSH1 0x40 SHL SUB DUP3 GT PUSH2 0xE JUMPI PUSH1 0x20 ADD SWAP2 DUP2 CALLDATASIZE SUB DUP4 SGT PUSH2 0xE JUMPI JUMP JUMPDEST SWAP1 DUP1 PUSH1 0x20 SWAP4 SWAP3 DUP2 DUP5 MSTORE DUP5 DUP5 ADD CALLDATACOPY PUSH1 0x0 DUP3 DUP3 ADD DUP5 ADD MSTORE PUSH1 0x1F ADD PUSH1 0x1F NOT AND ADD ADD SWAP1 JUMP JUMPDEST PUSH1 0x40 SWAP1 PUSH2 0x392 SWAP5 SWAP3 DUP2 MSTORE DUP2 PUSH1 0x20 DUP3 ADD MSTORE ADD SWAP2 PUSH2 0xB59 JUMP JUMPDEST SWAP2 PUSH1 0x20 PUSH2 0x392 SWAP4 DUP2 DUP2 MSTORE ADD SWAP2 PUSH2 0xB59 JUMP JUMPDEST SWAP6 SWAP2 PUSH2 0xBE0 SWAP2 SWAP6 SWAP5 SWAP4 PUSH2 0xBD9 SWAP2 PUSH2 0xBD4 PUSH2 0xBCF PUSH2 0xBBE DUP11 PUSH2 0x7F2 JUMP JUMPDEST PUSH2 0xBC7 DUP12 PUSH2 0x1390 JUMP JUMPDEST SWAP1 DUP6 DUP6 PUSH2 0x1D7E JUMP JUMPDEST PUSH2 0x7FC JUMP JUMPDEST PUSH2 0x1EA0 JUMP JUMPDEST DUP7 EQ PUSH2 0x848 JUMP JUMPDEST PUSH2 0xBF0 PUSH1 0x60 DUP6 ADD CALLDATALOAD TIMESTAMP GT ISZERO PUSH2 0x894 JUMP JUMPDEST PUSH1 0x40 SWAP3 PUSH2 0xC02 DUP5 DUP7 ADD CALLDATALOAD TIMESTAMP LT ISZERO PUSH2 0x8F0 JUMP JUMPDEST PUSH1 0x0 JUMPDEST PUSH1 0xC0 DUP7 ADD PUSH2 0xC13 DUP2 DUP9 PUSH2 0x971 JUMP JUMPDEST SWAP1 POP DUP3 LT ISZERO PUSH2 0xCF5 JUMPI SWAP1 PUSH2 0xCC1 PUSH2 0xCA4 DUP4 PUSH2 0xC80 DUP5 PUSH2 0xC49 PUSH2 0xC79 PUSH2 0xC6D PUSH2 0xC6D DUP16 PUSH2 0xC4F DUP7 PUSH2 0xC49 PUSH2 0xCC6 SWAP15 PUSH2 0xC60 SWAP5 PUSH2 0x971 JUMP JUMPDEST SWAP1 PUSH2 0x9BD JUMP JUMPDEST CALLDATALOAD PUSH1 0x0 MSTORE PUSH1 0x3 PUSH1 0x20 MSTORE PUSH1 0x40 PUSH1 0x0 KECCAK256 SWAP1 JUMP JUMPDEST SLOAD PUSH1 0x1 PUSH1 0x1 PUSH1 0xA0 SHL SUB AND SWAP1 JUMP JUMPDEST PUSH1 0x1 PUSH1 0x1 PUSH1 0xA0 SHL SUB AND SWAP1 JUMP JUMPDEST SWAP4 DUP14 PUSH2 0x971 JUMP JUMPDEST CALLDATALOAD DUP10 MLOAD DUP1 SWAP3 PUSH4 0xBD85B039 PUSH1 0xE0 SHL DUP3 MSTORE DUP2 DUP1 PUSH1 0x20 SWAP7 DUP8 SWAP6 PUSH1 0x4 DUP4 ADD SWAP2 SWAP1 PUSH1 0x20 DUP4 ADD SWAP3 MSTORE JUMP JUMPDEST SUB SWAP2 GAS STATICCALL SWAP2 DUP3 ISZERO PUSH2 0xCE8 JUMPI JUMPDEST PUSH1 0x0 SWAP3 PUSH2 0xCCB JUMPI JUMPDEST POP POP ISZERO ISZERO PUSH2 0x9DB JUMP JUMPDEST PUSH2 0x955 JUMP JUMPDEST PUSH2 0xC05 JUMP JUMPDEST PUSH2 0xCE1 SWAP3 POP DUP1 RETURNDATASIZE LT PUSH2 0x7A7 JUMPI PUSH2 0x799 DUP2 DUP4 PUSH2 0x637 JUMP JUMPDEST CODESIZE DUP1 PUSH2 0xCB8 JUMP JUMPDEST PUSH2 0xCF0 PUSH2 0x667 JUMP JUMPDEST PUSH2 0xCB0 JUMP JUMPDEST POP SWAP2 SWAP6 PUSH1 0x1 PUSH1 0x1 PUSH1 0xA0 SHL SUB SWAP6 SWAP1 SWAP4 SWAP3 POP SWAP1 DUP6 PUSH2 0xD30 PUSH2 0xC60 PUSH2 0xD16 DUP6 PUSH2 0x7F2 JUMP JUMPDEST PUSH1 0x1 PUSH1 0x1 PUSH1 0xA0 SHL SUB AND PUSH1 0x0 SWAP1 DUP2 MSTORE PUSH1 0x2 PUSH1 0x20 MSTORE PUSH1 0x40 SWAP1 KECCAK256 SWAP1 JUMP JUMPDEST AND PUSH2 0x1058 JUMPI PUSH1 0x4 SLOAD PUSH2 0xD8B SWAP1 PUSH2 0xD4E SWAP1 PUSH1 0x1 PUSH1 0x1 PUSH1 0xA0 SHL SUB AND PUSH2 0xC6D JUMP JUMPDEST PUSH2 0xD85 PUSH2 0x29A PUSH2 0x2A8 PUSH2 0xD60 DUP8 PUSH2 0x7F2 JUMP JUMPDEST DUP11 MLOAD SWAP3 DUP4 SWAP2 PUSH1 0x20 DUP4 ADD PUSH1 0x14 SWAP2 PUSH12 0xFFFFFFFFFFFFFFFFFFFFFFFF NOT SWAP1 PUSH1 0x60 SHL AND DUP2 MSTORE ADD SWAP1 JUMP JUMPDEST SWAP1 PUSH2 0x1073 JUMP JUMPDEST SWAP6 PUSH2 0xDBB DUP8 PUSH2 0xD9C PUSH2 0xD16 DUP7 PUSH2 0x7F2 JUMP JUMPDEST DUP1 SLOAD PUSH1 0x1 PUSH1 0x1 PUSH1 0xA0 SHL SUB NOT AND PUSH1 0x1 PUSH1 0x1 PUSH1 0xA0 SHL SUB SWAP1 SWAP3 AND SWAP2 SWAP1 SWAP2 OR SWAP1 SSTORE JUMP JUMPDEST DUP1 DUP8 AND SWAP1 PUSH2 0xDC8 DUP5 PUSH2 0x7F2 JUMP JUMPDEST SWAP2 PUSH2 0xDDA PUSH2 0xDD5 DUP7 PUSH2 0x7F2 JUMP JUMPDEST PUSH2 0x1110 JUMP JUMPDEST DUP2 EXTCODESIZE ISZERO PUSH2 0xE JUMPI PUSH1 0x0 PUSH2 0xE05 SWAP2 PUSH2 0xE68 SWAP6 DUP12 MLOAD SWAP4 DUP5 SWAP3 DUP4 SWAP3 PUSH4 0xB2B45DF5 PUSH1 0xE0 SHL DUP5 MSTORE PUSH1 0x4 DUP5 ADD PUSH2 0xA70 JUMP JUMPDEST SUB DUP2 DUP4 DUP7 GAS CALL DUP1 ISZERO PUSH2 0x104B JUMPI JUMPDEST PUSH2 0x1038 JUMPI JUMPDEST POP JUMPDEST DUP8 MLOAD PUSH4 0xBD85B039 PUSH1 0xE0 SHL DUP2 MSTORE PUSH1 0x4 DUP2 ADD DUP9 SWAP1 MSTORE SWAP2 AND SWAP8 SWAP1 PUSH2 0xE54 SWAP1 PUSH1 0x20 DUP2 PUSH1 0x24 DUP2 DUP14 GAS STATICCALL SWAP1 DUP2 ISZERO PUSH2 0x102B JUMPI JUMPDEST PUSH1 0x0 SWAP2 PUSH2 0x100D JUMPI JUMPDEST POP ISZERO PUSH2 0xAB5 JUMP JUMPDEST PUSH2 0xD9C DUP7 PUSH1 0x0 MSTORE PUSH1 0x3 PUSH1 0x20 MSTORE PUSH1 0x40 PUSH1 0x0 KECCAK256 SWAP1 JUMP JUMPDEST PUSH2 0xE75 PUSH1 0x80 DUP4 ADD DUP4 PUSH2 0xB27 JUMP JUMPDEST SWAP4 SWAP1 SWAP2 DUP8 EXTCODESIZE ISZERO PUSH2 0xE JUMPI DUP7 MLOAD PUSH4 0x43122071 PUSH1 0xE1 SHL DUP2 MSTORE PUSH2 0xED1 SWAP6 DUP8 SWAP5 PUSH1 0x0 SWAP2 DUP4 SWAP2 DUP3 SWAP2 PUSH2 0xEA6 SWAP2 DUP10 PUSH1 0x4 DUP6 ADD PUSH2 0xB7A JUMP JUMPDEST SUB DUP2 DUP4 DUP14 GAS CALL DUP1 ISZERO PUSH2 0x1000 JUMPI JUMPDEST PUSH2 0xFED JUMPI JUMPDEST POP PUSH2 0xEC3 DUP5 DUP5 PUSH2 0x19F0 JUMP JUMPDEST DUP1 PUSH2 0xFB2 JUMPI JUMPDEST POP POP POP PUSH2 0x7F2 JUMP JUMPDEST SWAP3 DUP1 EXTCODESIZE ISZERO PUSH2 0xE JUMPI DUP3 MLOAD PUSH4 0x731133E9 PUSH1 0xE0 SHL DUP1 DUP3 MSTORE PUSH1 0x1 PUSH1 0x1 PUSH1 0xA0 SHL SUB SWAP6 SWAP1 SWAP6 AND PUSH1 0x4 DUP3 ADD MSTORE PUSH1 0x24 DUP2 ADD DUP4 SWAP1 MSTORE PUSH1 0x5 PUSH1 0x44 DUP3 ADD MSTORE PUSH1 0x80 PUSH1 0x64 DUP3 ADD MSTORE PUSH1 0x0 PUSH1 0x84 DUP3 ADD DUP2 SWAP1 MSTORE DUP2 PUSH1 0xA4 DUP2 DUP4 DUP7 GAS CALL DUP1 ISZERO PUSH2 0xFA5 JUMPI JUMPDEST PUSH2 0xF92 JUMPI JUMPDEST POP DUP1 EXTCODESIZE ISZERO PUSH2 0xE JUMPI SWAP2 MLOAD SWAP3 DUP4 MSTORE CALLER PUSH1 0x4 DUP5 ADD MSTORE PUSH1 0x24 DUP4 ADD MSTORE PUSH1 0x1 PUSH1 0x44 DUP4 ADD MSTORE PUSH1 0x80 PUSH1 0x64 DUP4 ADD MSTORE PUSH1 0x0 PUSH1 0x84 DUP4 ADD DUP2 SWAP1 MSTORE SWAP1 DUP3 SWAP1 PUSH1 0xA4 SWAP1 DUP3 SWAP1 DUP5 SWAP1 GAS CALL DUP1 ISZERO PUSH2 0xF85 JUMPI JUMPDEST PUSH2 0xF72 JUMPI POP JUMP JUMPDEST DUP1 PUSH2 0xF7F PUSH2 0x245 SWAP3 PUSH2 0x5E1 JUMP JUMPDEST DUP1 PUSH2 0x4AE JUMP JUMPDEST PUSH2 0xF8D PUSH2 0x667 JUMP JUMPDEST PUSH2 0xF6B JUMP JUMPDEST DUP1 PUSH2 0xF7F PUSH2 0xF9F SWAP3 PUSH2 0x5E1 JUMP JUMPDEST CODESIZE PUSH2 0xF29 JUMP JUMPDEST PUSH2 0xFAD PUSH2 0x667 JUMP JUMPDEST PUSH2 0xF24 JUMP JUMPDEST PUSH32 0xE3EFB4090B64F6DEAD06906E59A91359E0C1CA9CAD88A633D749431442E5BEBF SWAP2 PUSH2 0xFE2 DUP9 MLOAD SWAP3 DUP4 SWAP3 DUP4 PUSH2 0xB91 JUMP JUMPDEST SUB SWAP1 LOG2 DUP3 CODESIZE DUP1 PUSH2 0xEC9 JUMP JUMPDEST DUP1 PUSH2 0xF7F PUSH2 0xFFA SWAP3 PUSH2 0x5E1 JUMP JUMPDEST CODESIZE PUSH2 0xEB8 JUMP JUMPDEST PUSH2 0x1008 PUSH2 0x667 JUMP JUMPDEST PUSH2 0xEB3 JUMP JUMPDEST PUSH2 0x1025 SWAP2 POP PUSH1 0x20 RETURNDATASIZE DUP2 GT PUSH2 0x7A7 JUMPI PUSH2 0x799 DUP2 DUP4 PUSH2 0x637 JUMP JUMPDEST CODESIZE PUSH2 0xE4D JUMP JUMPDEST PUSH2 0x1033 PUSH2 0x667 JUMP JUMPDEST PUSH2 0xE45 JUMP JUMPDEST DUP1 PUSH2 0xF7F PUSH2 0x1045 SWAP3 PUSH2 0x5E1 JUMP JUMPDEST CODESIZE PUSH2 0xE17 JUMP JUMPDEST PUSH2 0x1053 PUSH2 0x667 JUMP JUMPDEST PUSH2 0xE12 JUMP JUMPDEST PUSH2 0xE68 PUSH2 0x106A PUSH2 0xC60 PUSH2 0xD16 DUP6 PUSH2 0x7F2 JUMP JUMPDEST SWAP7 DUP1 DUP9 AND PUSH2 0xE19 JUMP JUMPDEST PUSH1 0x40 MLOAD PUSH20 0x3D602D80600A3D3981F3363D3D373D3D3D363D73 PUSH1 0x60 SHL DUP2 MSTORE PUSH1 0x60 SWAP2 SWAP1 SWAP2 SHL PUSH1 0x14 DUP3 ADD MSTORE PUSH15 0x5AF43D82803E903D91602B57FD5BF3 PUSH1 0x88 SHL PUSH1 0x28 DUP3 ADD MSTORE PUSH1 0x37 SWAP1 PUSH1 0x0 CREATE2 SWAP1 PUSH1 0x1 PUSH1 0x1 PUSH1 0xA0 SHL SUB DUP3 AND ISZERO PUSH2 0x10CB JUMPI JUMP JUMPDEST PUSH1 0x40 MLOAD PUSH3 0x461BCD PUSH1 0xE5 SHL DUP2 MSTORE PUSH1 0x20 PUSH1 0x4 DUP3 ADD MSTORE PUSH1 0x17 PUSH1 0x24 DUP3 ADD MSTORE PUSH32 0x455243313136373A2063726561746532206661696C6564000000000000000000 PUSH1 0x44 DUP3 ADD MSTORE PUSH1 0x64 SWAP1 REVERT JUMPDEST PUSH1 0x40 MLOAD SWAP1 PUSH1 0x1 PUSH1 0x1 PUSH1 0xA0 SHL SUB AND PUSH2 0x1126 DUP3 PUSH2 0x61C JUMP JUMPDEST PUSH1 0x2A DUP3 MSTORE PUSH1 0x40 CALLDATASIZE PUSH1 0x20 DUP5 ADD CALLDATACOPY PUSH1 0x30 PUSH2 0x113D DUP4 PUSH2 0x11BD JUMP JUMPDEST MSTORE8 PUSH1 0x78 PUSH2 0x1149 DUP4 PUSH2 0x11D3 JUMP JUMPDEST MSTORE8 PUSH1 0x29 SWAP1 JUMPDEST PUSH1 0x1 DUP3 GT PUSH2 0x1161 JUMPI PUSH2 0x392 SWAP2 POP ISZERO PUSH2 0x121E JUMP JUMPDEST DUP1 PUSH1 0xF PUSH2 0x119D SWAP3 AND PUSH1 0x10 DUP2 LT ISZERO PUSH2 0x11A3 JUMPI JUMPDEST PUSH16 0x181899199A1A9B1B9C1CB0B131B232B3 PUSH1 0x81 SHL SWAP1 BYTE PUSH2 0x1193 DUP5 DUP7 PUSH2 0x11E4 JUMP JUMPDEST MSTORE8 PUSH1 0x4 SHR SWAP2 PUSH2 0x1203 JUMP JUMPDEST SWAP1 PUSH2 0x114E JUMP JUMPDEST PUSH2 0x11AB PUSH2 0x9A6 JUMP JUMPDEST PUSH2 0x1173 JUMP JUMPDEST SWAP2 SWAP1 DUP3 ADD DUP1 SWAP3 GT PUSH2 0x69A JUMPI JUMP JUMPDEST PUSH1 0x20 SWAP1 DUP1 MLOAD ISZERO PUSH2 0x11CB JUMPI ADD SWAP1 JUMP JUMPDEST PUSH2 0x96D PUSH2 0x9A6 JUMP JUMPDEST PUSH1 0x21 SWAP1 DUP1 MLOAD PUSH1 0x1 LT ISZERO PUSH2 0x11CB JUMPI ADD SWAP1 JUMP JUMPDEST SWAP1 PUSH1 0x20 SWAP2 DUP1 MLOAD DUP3 LT ISZERO PUSH2 0x11F6 JUMPI ADD ADD SWAP1 JUMP JUMPDEST PUSH2 0x11FE PUSH2 0x9A6 JUMP JUMPDEST ADD ADD SWAP1 JUMP JUMPDEST DUP1 ISZERO PUSH2 0x1211 JUMPI JUMPDEST PUSH1 0x0 NOT ADD SWAP1 JUMP JUMPDEST PUSH2 0x1219 PUSH2 0x674 JUMP JUMPDEST PUSH2 0x120A JUMP JUMPDEST ISZERO PUSH2 0x1225 JUMPI JUMP JUMPDEST PUSH1 0x64 PUSH1 0x40 MLOAD PUSH3 0x461BCD PUSH1 0xE5 SHL DUP2 MSTORE PUSH1 0x20 PUSH1 0x4 DUP3 ADD MSTORE PUSH1 0x20 PUSH1 0x24 DUP3 ADD MSTORE PUSH32 0x537472696E67733A20686578206C656E67746820696E73756666696369656E74 PUSH1 0x44 DUP3 ADD MSTORE REVERT JUMPDEST SWAP1 CALLDATALOAD PUSH1 0x1E NOT DUP3 CALLDATASIZE SUB ADD DUP2 SLT ISZERO PUSH2 0xE JUMPI ADD PUSH1 0x20 DUP2 CALLDATALOAD SWAP2 ADD SWAP2 PUSH1 0x1 PUSH1 0x1 PUSH1 0x40 SHL SUB DUP3 GT PUSH2 0xE JUMPI DUP2 CALLDATASIZE SUB DUP4 SGT PUSH2 0xE JUMPI JUMP JUMPDEST SWAP1 CALLDATALOAD PUSH1 0x1E NOT DUP3 CALLDATASIZE SUB ADD DUP2 SLT ISZERO PUSH2 0xE JUMPI ADD PUSH1 0x20 DUP2 CALLDATALOAD SWAP2 ADD SWAP2 PUSH1 0x1 PUSH1 0x1 PUSH1 0x40 SHL SUB DUP3 GT PUSH2 0xE JUMPI DUP2 PUSH1 0x5 SHL CALLDATASIZE SUB DUP4 SGT PUSH2 0xE JUMPI JUMP JUMPDEST DUP2 DUP4 MSTORE SWAP1 SWAP2 PUSH1 0x1 PUSH1 0x1 PUSH1 0xFB SHL SUB DUP4 GT PUSH2 0xE JUMPI PUSH1 0x20 SWAP3 PUSH1 0x5 SHL DUP1 SWAP3 DUP5 DUP4 ADD CALLDATACOPY ADD ADD SWAP1 JUMP JUMPDEST SWAP1 CALLDATALOAD PUSH1 0x1E NOT DUP3 CALLDATASIZE SUB ADD DUP2 SLT ISZERO PUSH2 0xE JUMPI ADD PUSH1 0x20 DUP2 CALLDATALOAD SWAP2 ADD SWAP2 PUSH1 0x1 PUSH1 0x1 PUSH1 0x40 SHL SUB DUP3 GT PUSH2 0xE JUMPI DUP2 PUSH1 0x6 SHL CALLDATASIZE SUB DUP4 SGT PUSH2 0xE JUMPI JUMP JUMPDEST PUSH2 0xFFFF DUP2 AND SUB PUSH2 0xE JUMPI JUMP JUMPDEST SWAP2 SWAP1 DUP1 DUP3 MSTORE PUSH1 0x20 DUP1 SWAP3 ADD SWAP3 SWAP2 PUSH1 0x0 SWAP1 JUMPDEST DUP3 DUP3 LT PUSH2 0x1350 JUMPI POP POP POP POP SWAP1 JUMP JUMPDEST SWAP1 SWAP2 SWAP3 SWAP4 PUSH1 0x1 SWAP1 DUP6 CALLDATALOAD PUSH2 0x1362 DUP2 PUSH2 0x182 JUMP JUMPDEST DUP3 DUP1 PUSH1 0xA0 SHL SUB AND DUP2 MSTORE PUSH2 0xFFFF DUP4 DUP8 ADD CALLDATALOAD PUSH2 0x137B DUP2 PUSH2 0x1326 JUMP JUMPDEST AND DUP2 DUP5 ADD MSTORE PUSH1 0x40 SWAP1 DUP2 ADD SWAP6 ADD SWAP4 SWAP3 ADD SWAP1 PUSH2 0x1342 JUMP JUMPDEST PUSH1 0x40 MLOAD PUSH2 0x148A DUP2 PUSH2 0x29A PUSH2 0x1408 PUSH1 0x20 DUP4 ADD SWAP6 PUSH1 0x20 DUP8 MSTORE PUSH2 0x13C3 PUSH1 0x40 DUP6 ADD PUSH2 0x13B6 DUP4 PUSH2 0x23A JUMP JUMPDEST PUSH1 0x1 PUSH1 0x1 PUSH1 0xA0 SHL SUB AND SWAP1 MSTORE JUMP JUMPDEST PUSH1 0x20 DUP2 ADD CALLDATALOAD PUSH1 0x60 DUP6 ADD MSTORE PUSH1 0x40 DUP2 ADD CALLDATALOAD PUSH1 0x80 DUP6 ADD MSTORE PUSH1 0x60 DUP2 ADD CALLDATALOAD PUSH1 0xA0 DUP6 ADD MSTORE PUSH2 0x147A PUSH2 0x13F1 PUSH1 0x80 DUP4 ADD DUP4 PUSH2 0x1269 JUMP JUMPDEST SWAP4 SWAP1 PUSH2 0x120 SWAP5 DUP6 PUSH1 0xC0 DUP10 ADD MSTORE PUSH2 0x160 DUP9 ADD SWAP2 PUSH2 0xB59 JUMP JUMPDEST SWAP2 PUSH2 0x1471 PUSH2 0x1430 PUSH2 0x141C PUSH1 0xA0 DUP5 ADD DUP5 PUSH2 0x1269 JUMP JUMPDEST PUSH1 0x3F NOT DUP11 DUP9 SUB DUP2 ADD PUSH1 0xE0 DUP13 ADD MSTORE SWAP7 SWAP2 PUSH2 0xB59 JUMP JUMPDEST SWAP5 PUSH2 0x1454 PUSH2 0x1441 PUSH1 0xC0 DUP6 ADD DUP6 PUSH2 0x129A JUMP JUMPDEST PUSH2 0x100 SWAP9 SWAP2 DUP9 DUP13 DUP5 SUB ADD DUP11 DUP14 ADD MSTORE PUSH2 0x12CE JUMP JUMPDEST SWAP1 PUSH2 0x1462 PUSH1 0xE0 DUP6 ADD DUP6 PUSH2 0x129A JUMP JUMPDEST SWAP2 DUP8 DUP12 DUP6 SUB ADD SWAP1 DUP12 ADD MSTORE PUSH2 0x12CE JUMP JUMPDEST SWAP4 DUP2 ADD SWAP1 PUSH2 0x12F2 JUMP JUMPDEST SWAP2 DUP6 DUP5 SUB ADD PUSH2 0x140 DUP7 ADD MSTORE PUSH2 0x1332 JUMP JUMPDEST MLOAD SWAP1 KECCAK256 SWAP1 JUMP JUMPDEST ISZERO PUSH2 0x1497 JUMPI JUMP JUMPDEST PUSH1 0x40 MLOAD PUSH3 0x461BCD PUSH1 0xE5 SHL DUP2 MSTORE PUSH1 0x20 PUSH1 0x4 DUP3 ADD MSTORE PUSH1 0x35 PUSH1 0x24 DUP3 ADD MSTORE PUSH32 0x466163746F7279313135353A207468697320636F6C6C656374696F6E20686173 PUSH1 0x44 DUP3 ADD MSTORE PUSH21 0x206E6F7420636F6C6C6563746564206265666F7265 PUSH1 0x58 SHL PUSH1 0x64 DUP3 ADD MSTORE PUSH1 0x84 SWAP1 REVERT JUMPDEST ISZERO PUSH2 0x1501 JUMPI JUMP JUMPDEST PUSH1 0x40 MLOAD PUSH3 0x461BCD PUSH1 0xE5 SHL DUP2 MSTORE PUSH1 0x20 PUSH1 0x4 DUP3 ADD MSTORE PUSH1 0x1D PUSH1 0x24 DUP3 ADD MSTORE PUSH32 0x466163746F7279313135353A20696E73756666696369656E7420666565000000 PUSH1 0x44 DUP3 ADD MSTORE PUSH1 0x64 SWAP1 REVERT JUMPDEST SWAP1 DUP2 PUSH1 0x20 SWAP2 SUB SLT PUSH2 0xE JUMPI MLOAD PUSH2 0x392 DUP2 PUSH2 0x182 JUMP JUMPDEST PUSH1 0x20 SWAP1 PUSH1 0x1 PUSH1 0x1 PUSH1 0x40 SHL SUB DUP2 GT PUSH2 0x1573 JUMPI PUSH1 0x5 SHL ADD SWAP1 JUMP JUMPDEST PUSH2 0x9D6 PUSH2 0x5CA JUMP JUMPDEST SWAP1 DUP2 SLOAD PUSH2 0x1587 DUP2 PUSH2 0x155B JUMP JUMPDEST SWAP3 PUSH1 0x40 SWAP4 PUSH2 0x1597 DUP6 MLOAD SWAP2 DUP3 PUSH2 0x637 JUMP JUMPDEST DUP3 DUP2 MSTORE DUP1 SWAP5 PUSH1 0x20 DUP1 SWAP3 ADD SWAP3 PUSH1 0x0 MSTORE DUP2 PUSH1 0x0 KECCAK256 SWAP1 PUSH1 0x0 SWAP4 JUMPDEST DUP6 DUP6 LT PUSH2 0x15BD JUMPI POP POP POP POP POP POP JUMP JUMPDEST PUSH1 0x1 DUP5 DUP2 SWAP3 DUP5 MLOAD PUSH2 0x15CD DUP2 PUSH2 0x601 JUMP JUMPDEST PUSH2 0xFFFF DUP8 SLOAD DUP6 DUP1 PUSH1 0xA0 SHL SUB DUP2 AND DUP4 MSTORE PUSH1 0xA0 SHR AND DUP4 DUP3 ADD MSTORE DUP2 MSTORE ADD SWAP4 ADD SWAP5 ADD SWAP4 SWAP2 PUSH2 0x15AE JUMP JUMPDEST SWAP4 SWAP3 SWAP2 PUSH2 0x1612 PUSH2 0xC6D PUSH2 0xC6D PUSH2 0xC60 DUP9 PUSH1 0x0 MSTORE PUSH1 0x3 PUSH1 0x20 MSTORE PUSH1 0x40 PUSH1 0x0 KECCAK256 SWAP1 JUMP JUMPDEST PUSH1 0x40 MLOAD PUSH4 0xBD85B039 PUSH1 0xE0 SHL DUP2 MSTORE PUSH1 0x4 DUP2 ADD DUP8 SWAP1 MSTORE SWAP1 SWAP6 PUSH1 0x20 SWAP3 SWAP1 SWAP2 PUSH2 0x1651 SWAP1 DUP5 DUP2 PUSH1 0x24 DUP2 DUP13 GAS STATICCALL SWAP1 DUP2 ISZERO PUSH2 0x1834 JUMPI JUMPDEST PUSH1 0x0 SWAP2 PUSH2 0x1817 JUMPI JUMPDEST POP ISZERO ISZERO PUSH2 0x1490 JUMP JUMPDEST PUSH2 0x165A DUP3 PUSH2 0x70C JUMP JUMPDEST SWAP4 PUSH2 0x167B PUSH2 0x1672 DUP5 PUSH1 0x0 MSTORE PUSH1 0x0 PUSH1 0x20 MSTORE PUSH1 0x40 PUSH1 0x0 KECCAK256 SWAP1 JUMP JUMPDEST SLOAD TIMESTAMP GT ISZERO PUSH2 0x894 JUMP JUMPDEST PUSH2 0x1687 DUP6 CALLVALUE LT ISZERO PUSH2 0x14FA JUMP JUMPDEST DUP5 CALLVALUE GT PUSH2 0x17E3 JUMPI JUMPDEST DUP8 EXTCODESIZE ISZERO PUSH2 0xE JUMPI PUSH1 0x40 MLOAD PUSH4 0x731133E9 PUSH1 0xE0 SHL DUP2 MSTORE CALLER PUSH1 0x4 DUP1 DUP4 ADD SWAP2 SWAP1 SWAP2 MSTORE PUSH1 0x24 DUP3 ADD DUP6 SWAP1 MSTORE PUSH1 0x1 PUSH1 0x44 DUP4 ADD MSTORE PUSH1 0x80 PUSH1 0x64 DUP4 ADD MSTORE PUSH1 0x0 PUSH1 0x84 DUP4 ADD DUP2 SWAP1 MSTORE PUSH2 0x245 SWAP11 SWAP2 SWAP5 DUP8 SWAP5 SWAP3 SWAP4 DUP8 SWAP4 SWAP3 DUP2 PUSH1 0xA4 DUP2 DUP4 DUP10 GAS CALL DUP1 ISZERO PUSH2 0x17D6 JUMPI JUMPDEST PUSH2 0x17C3 JUMPI JUMPDEST POP DUP1 PUSH2 0x1787 JUMPI JUMPDEST POP POP POP PUSH1 0x40 MLOAD SWAP3 DUP4 DUP1 SWAP3 PUSH4 0x8DA5CB5B PUSH1 0xE0 SHL DUP3 MSTORE GAS STATICCALL SWAP3 DUP4 ISZERO PUSH2 0x177A JUMPI JUMPDEST PUSH1 0x0 SWAP4 PUSH2 0x1740 JUMPI JUMPDEST POP POP PUSH1 0x1 PUSH2 0x1734 PUSH2 0x173A SWAP3 PUSH1 0x0 MSTORE PUSH1 0x0 PUSH1 0x20 MSTORE PUSH1 0x40 PUSH1 0x0 KECCAK256 SWAP1 JUMP JUMPDEST ADD PUSH2 0x157B JUMP JUMPDEST SWAP2 PUSH2 0x1B87 JUMP JUMPDEST PUSH2 0x173A SWAP3 SWAP4 POP PUSH2 0x176B PUSH1 0x1 SWAP3 DUP3 PUSH2 0x1734 SWAP4 SWAP1 RETURNDATASIZE LT PUSH2 0x1773 JUMPI JUMPDEST PUSH2 0x1763 DUP2 DUP4 PUSH2 0x637 JUMP JUMPDEST DUP2 ADD SWAP1 PUSH2 0x1546 JUMP JUMPDEST SWAP4 SWAP3 POP PUSH2 0x1719 JUMP JUMPDEST POP RETURNDATASIZE PUSH2 0x1759 JUMP JUMPDEST PUSH2 0x1782 PUSH2 0x667 JUMP JUMPDEST PUSH2 0x1711 JUMP JUMPDEST PUSH32 0xE3EFB4090B64F6DEAD06906E59A91359E0C1CA9CAD88A633D749431442E5BEBF SWAP2 PUSH2 0x17B8 PUSH1 0x40 MLOAD SWAP3 DUP4 SWAP3 DUP4 PUSH2 0xB91 JUMP JUMPDEST SUB SWAP1 LOG2 DUP4 CODESIZE DUP1 PUSH2 0x16F3 JUMP JUMPDEST DUP1 PUSH2 0xF7F PUSH2 0x17D0 SWAP3 PUSH2 0x5E1 JUMP JUMPDEST CODESIZE PUSH2 0x16EC JUMP JUMPDEST PUSH2 0x17DE PUSH2 0x667 JUMP JUMPDEST PUSH2 0x16E7 JUMP JUMPDEST PUSH1 0x0 DUP1 DUP1 DUP1 PUSH2 0x17F2 DUP10 CALLVALUE PUSH2 0x6A2 JUMP JUMPDEST DUP2 DUP2 ISZERO PUSH2 0x180E JUMPI JUMPDEST CALLER SWAP1 CALL PUSH2 0x168F JUMPI PUSH2 0x1809 PUSH2 0x667 JUMP JUMPDEST PUSH2 0x168F JUMP JUMPDEST POP PUSH2 0x8FC PUSH2 0x17FA JUMP JUMPDEST PUSH2 0x182E SWAP2 POP DUP6 RETURNDATASIZE DUP8 GT PUSH2 0x7A7 JUMPI PUSH2 0x799 DUP2 DUP4 PUSH2 0x637 JUMP JUMPDEST CODESIZE PUSH2 0x1649 JUMP JUMPDEST PUSH2 0x183C PUSH2 0x667 JUMP JUMPDEST PUSH2 0x1641 JUMP JUMPDEST SWAP1 CALLDATALOAD SWAP1 PUSH1 0x1E NOT DUP2 CALLDATASIZE SUB ADD DUP3 SLT ISZERO PUSH2 0xE JUMPI ADD DUP1 CALLDATALOAD SWAP1 PUSH1 0x1 PUSH1 0x1 PUSH1 0x40 SHL SUB DUP3 GT PUSH2 0xE JUMPI PUSH1 0x20 ADD SWAP2 DUP2 PUSH1 0x6 SHL CALLDATASIZE SUB DUP4 SGT PUSH2 0xE JUMPI JUMP JUMPDEST SWAP3 SWAP2 SWAP3 PUSH2 0x1882 DUP3 PUSH2 0x155B JUMP JUMPDEST PUSH1 0x40 SWAP3 PUSH2 0x1891 DUP5 MLOAD SWAP3 DUP4 PUSH2 0x637 JUMP JUMPDEST DUP2 SWAP6 DUP2 DUP4 MSTORE PUSH1 0x20 DUP1 SWAP4 ADD SWAP2 PUSH1 0x6 SHL DUP5 ADD SWAP4 DUP2 DUP6 GT PUSH2 0xE JUMPI SWAP2 JUMPDEST DUP5 DUP4 LT PUSH2 0x18BA JUMPI POP POP POP POP POP POP JUMP JUMPDEST DUP6 DUP4 DUP4 SUB SLT PUSH2 0xE JUMPI DUP4 DUP7 SWAP2 DUP3 MLOAD PUSH2 0x18D1 DUP2 PUSH2 0x601 JUMP JUMPDEST DUP6 CALLDATALOAD PUSH2 0x18DC DUP2 PUSH2 0x182 JUMP JUMPDEST DUP2 MSTORE DUP3 DUP7 ADD CALLDATALOAD PUSH2 0x18EB DUP2 PUSH2 0x1326 JUMP JUMPDEST DUP4 DUP3 ADD MSTORE DUP2 MSTORE ADD SWAP3 ADD SWAP2 PUSH2 0x18AB JUMP JUMPDEST SWAP2 SWAP1 DUP1 MLOAD DUP4 SSTORE PUSH1 0x1 DUP1 SWAP4 ADD PUSH1 0x20 DUP1 SWAP3 ADD MLOAD SWAP2 DUP3 MLOAD SWAP3 PUSH9 0x10000000000000000 DUP5 GT PUSH2 0x19CE JUMPI JUMPDEST DUP2 DUP4 SLOAD DUP6 DUP6 SSTORE DUP1 DUP7 LT PUSH2 0x19A1 JUMPI JUMPDEST POP PUSH2 0x1940 SWAP2 ADD SWAP3 PUSH1 0x0 MSTORE PUSH1 0x20 PUSH1 0x0 KECCAK256 SWAP1 JUMP JUMPDEST PUSH1 0x0 SWAP3 JUMPDEST DUP5 DUP5 LT PUSH2 0x1954 JUMPI POP POP POP POP POP SWAP1 POP JUMP JUMPDEST DUP7 DUP4 DUP3 PUSH2 0x1995 DUP4 SWAP5 MLOAD DUP7 DUP2 MLOAD DUP2 SLOAD PUSH1 0x20 SWAP1 SWAP4 ADD MLOAD PUSH2 0xFFFF PUSH1 0xA0 SHL PUSH1 0xA0 SWAP2 SWAP1 SWAP2 SHL AND PUSH1 0x1 PUSH1 0x1 PUSH1 0xB0 SHL SUB NOT SWAP1 SWAP4 AND PUSH1 0x1 PUSH1 0x1 PUSH1 0xA0 SHL SUB SWAP1 SWAP2 AND OR SWAP2 SWAP1 SWAP2 OR SWAP1 SSTORE JUMP JUMPDEST ADD SWAP3 ADD SWAP4 ADD SWAP3 SWAP1 PUSH2 0x1944 JUMP JUMPDEST PUSH1 0x0 DUP6 DUP2 MSTORE DUP9 DUP8 DUP5 DUP4 KECCAK256 SWAP4 DUP5 ADD SWAP4 ADD JUMPDEST DUP4 DUP2 LT PUSH2 0x19C0 JUMPI POP POP POP PUSH2 0x192E JUMP JUMPDEST DUP3 DUP2 SSTORE DUP7 SWAP5 POP DUP11 SWAP2 ADD PUSH2 0x19B1 JUMP JUMPDEST PUSH2 0x19D6 PUSH2 0x5CA JUMP JUMPDEST PUSH2 0x1920 JUMP JUMPDEST DUP2 PUSH1 0x40 MLOAD SWAP3 DUP4 SWAP3 DUP4 CALLDATACOPY DUP2 ADD PUSH1 0x0 DUP2 MSTORE SUB SWAP1 KECCAK256 SWAP1 JUMP JUMPDEST SWAP1 PUSH1 0x60 DUP2 ADD CALLDATALOAD PUSH2 0x1A3D PUSH2 0x1A1F PUSH2 0x1A0A PUSH2 0x100 DUP6 ADD DUP6 PUSH2 0x1841 JUMP JUMPDEST SWAP2 SWAP1 PUSH2 0x1A14 PUSH2 0x7BB JUMP JUMPDEST SWAP3 DUP6 DUP5 MSTORE CALLDATASIZE SWAP2 PUSH2 0x1876 JUMP JUMPDEST PUSH1 0x20 DUP3 ADD MSTORE PUSH2 0x1A38 DUP6 PUSH1 0x0 MSTORE PUSH1 0x0 PUSH1 0x20 MSTORE PUSH1 0x40 PUSH1 0x0 KECCAK256 SWAP1 JUMP JUMPDEST PUSH2 0x18FA JUMP JUMPDEST PUSH2 0x1A46 DUP3 PUSH2 0x7F2 JUMP JUMPDEST SWAP1 DUP4 PUSH32 0xB85051017293732C5B533B177EFC66475411A9FDD5FBC8ECB619906658413D6 PUSH2 0x1AB2 PUSH2 0x1A82 PUSH2 0x1A7C PUSH1 0xA0 DUP9 ADD DUP9 PUSH2 0xB27 JUMP JUMPDEST SWAP1 PUSH2 0x19DB JUMP JUMPDEST PUSH1 0x40 DUP1 MLOAD PUSH1 0x20 DUP1 DUP11 ADD CALLDATALOAD DUP3 MSTORE DUP10 DUP4 ADD CALLDATALOAD SWAP1 DUP3 ADD MSTORE SWAP1 DUP2 ADD SWAP6 SWAP1 SWAP6 MSTORE SWAP5 PUSH1 0x1 PUSH1 0x1 PUSH1 0xA0 SHL SUB AND SWAP4 SWAP1 DUP2 SWAP1 PUSH1 0x60 DUP3 ADD SWAP1 JUMP JUMPDEST SUB SWAP1 LOG4 PUSH1 0xC0 DUP2 ADD SWAP2 PUSH2 0x1AC4 DUP4 DUP4 PUSH2 0x971 JUMP JUMPDEST SWAP4 SWAP1 POP PUSH1 0x0 SWAP3 DUP4 JUMPDEST DUP6 DUP2 LT PUSH2 0x1ADB JUMPI POP POP POP POP POP POP JUMP JUMPDEST DUP1 PUSH2 0x1AED PUSH2 0x1B18 SWAP3 PUSH2 0xC49 DUP7 DUP7 PUSH2 0x971 JUMP JUMPDEST CALLDATALOAD DUP6 PUSH32 0x65327253F8D67C2E23CB4DFAB28CA7437B04E9098CF4E985073D76DF25209AD4 DUP9 DUP1 LOG3 PUSH2 0x955 JUMP JUMPDEST PUSH2 0x1ACC JUMP JUMPDEST DUP2 ISZERO PUSH2 0x1B27 JUMPI DIV SWAP1 JUMP JUMPDEST PUSH4 0x4E487B71 PUSH1 0xE0 SHL PUSH1 0x0 MSTORE PUSH1 0x12 PUSH1 0x4 MSTORE PUSH1 0x24 PUSH1 0x0 REVERT JUMPDEST SWAP2 SWAP1 DUP2 LT ISZERO PUSH2 0x1B4E JUMPI JUMPDEST PUSH1 0x6 SHL ADD SWAP1 JUMP JUMPDEST PUSH2 0x1B56 PUSH2 0x9A6 JUMP JUMPDEST PUSH2 0x1B47 JUMP JUMPDEST CALLDATALOAD PUSH2 0x392 DUP2 PUSH2 0x1326 JUMP JUMPDEST PUSH1 0x20 SWAP2 DUP2 MLOAD DUP2 LT ISZERO PUSH2 0x1B7A JUMPI JUMPDEST PUSH1 0x5 SHL ADD ADD SWAP1 JUMP JUMPDEST PUSH2 0x1B82 PUSH2 0x9A6 JUMP JUMPDEST PUSH2 0x1B72 JUMP JUMPDEST SWAP3 SWAP4 SWAP1 SWAP2 SWAP4 PUSH2 0x1BAC PUSH2 0x1B9E PUSH2 0x1BA6 PUSH2 0x1B9E DUP8 PUSH2 0x6CC JUMP JUMPDEST PUSH2 0x3E8 SWAP1 DIV SWAP1 JUMP JUMPDEST SWAP6 PUSH2 0x6E2 JUMP JUMPDEST PUSH1 0x1 DUP1 SLOAD SWAP1 SWAP6 PUSH2 0x1BCD SWAP2 PUSH2 0x1BC8 SWAP1 PUSH1 0x1 PUSH1 0x1 PUSH1 0xA0 SHL SUB AND PUSH2 0xC6D JUMP JUMPDEST PUSH2 0x1D4A JUMP JUMPDEST PUSH1 0x0 SWAP1 DUP2 JUMPDEST DUP5 DUP2 LT PUSH2 0x1D24 JUMPI POP PUSH1 0x0 JUMPDEST DUP5 DUP2 LT PUSH2 0x1CE4 JUMPI POP POP POP POP POP SELFBALANCE SWAP2 DUP4 MLOAD SWAP1 DUP2 ISZERO PUSH1 0x0 EQ PUSH2 0x1C03 JUMPI POP POP PUSH2 0x245 SWAP3 POP PUSH2 0x1D4A JUMP JUMPDEST SWAP1 SWAP3 PUSH1 0x0 SWAP3 POP DUP3 JUMPDEST DUP5 DUP2 LT PUSH2 0x1CB9 JUMPI POP PUSH1 0x0 DUP3 JUMPDEST PUSH2 0x1C4E JUMPI JUMPDEST POP POP POP POP PUSH2 0x1C39 PUSH2 0x245 SWAP3 PUSH2 0x1C33 PUSH2 0x1C47 SWAP4 PUSH2 0x68B JUMP JUMPDEST SWAP1 PUSH2 0x1B65 JUMP JUMPDEST MLOAD MLOAD PUSH1 0x1 PUSH1 0x1 PUSH1 0xA0 SHL SUB AND SWAP1 JUMP JUMPDEST SELFBALANCE SWAP1 PUSH2 0x1D4A JUMP JUMPDEST PUSH2 0x1C57 DUP6 PUSH2 0x68B JUMP JUMPDEST DUP2 LT ISZERO PUSH2 0x1CB4 JUMPI DUP1 PUSH2 0xCC1 DUP8 PUSH2 0x1CA8 DUP8 PUSH2 0x1CA3 PUSH2 0x1C9D PUSH2 0x1C96 PUSH1 0x20 PUSH2 0x1C8C DUP10 PUSH2 0x1C86 PUSH2 0x1C39 PUSH2 0x1CAE SWAP14 DUP12 PUSH2 0x1B65 JUMP JUMPDEST SWAP9 PUSH2 0x1B65 JUMP JUMPDEST MLOAD ADD MLOAD PUSH2 0xFFFF AND SWAP1 JUMP JUMPDEST PUSH2 0xFFFF AND SWAP1 JUMP JUMPDEST DUP9 PUSH2 0x6F9 JUMP JUMPDEST PUSH2 0x1B1D JUMP JUMPDEST SWAP1 PUSH2 0x1D4A JUMP JUMPDEST DUP3 PUSH2 0x1C17 JUMP JUMPDEST PUSH2 0x1C1C JUMP JUMPDEST SWAP3 PUSH2 0x1CD9 PUSH2 0x1CDF SWAP2 PUSH2 0x1CD3 PUSH2 0x1C96 PUSH1 0x20 PUSH2 0x1C8C DUP10 DUP13 PUSH2 0x1B65 JUMP JUMPDEST SWAP1 PUSH2 0x11B0 JUMP JUMPDEST SWAP4 PUSH2 0x955 JUMP JUMPDEST PUSH2 0x1C0B JUMP JUMPDEST DUP1 PUSH2 0xCC1 DUP6 PUSH2 0x1CA8 DUP7 PUSH2 0x1CA3 PUSH2 0x1C9D PUSH2 0x1C96 PUSH1 0x20 PUSH2 0x1D19 DUP10 DUP16 PUSH2 0x1D13 PUSH2 0x1D0E PUSH2 0x1D1F SWAP15 DUP4 DUP14 PUSH2 0x1B3D JUMP JUMPDEST PUSH2 0x7F2 JUMP JUMPDEST SWAP10 PUSH2 0x1B3D JUMP JUMPDEST ADD PUSH2 0x1B5B JUMP JUMPDEST PUSH2 0x1BDD JUMP JUMPDEST SWAP2 PUSH2 0x1D3F PUSH2 0x1D45 SWAP2 PUSH2 0x1CD3 PUSH2 0x1C96 PUSH1 0x20 PUSH2 0x1D19 DUP9 DUP12 DUP12 PUSH2 0x1B3D JUMP JUMPDEST SWAP3 PUSH2 0x955 JUMP JUMPDEST PUSH2 0x1BD2 JUMP JUMPDEST PUSH1 0x0 DUP1 DUP1 SWAP4 DUP2 SWAP4 DUP3 SWAP1 DUP3 ISZERO PUSH2 0x1D74 JUMPI JUMPDEST PUSH1 0x1 PUSH1 0x1 PUSH1 0xA0 SHL SUB AND SWAP1 CALL ISZERO PUSH2 0x1D6C JUMPI JUMP JUMPDEST PUSH2 0x245 PUSH2 0x667 JUMP JUMPDEST PUSH2 0x8FC SWAP2 POP PUSH2 0x1D5A JUMP JUMPDEST SWAP2 SWAP3 PUSH1 0x40 MLOAD PUSH1 0x20 DUP2 ADD SWAP2 PUSH32 0x19457468657265756D205369676E6564204D6573736167653A0A333200000000 DUP4 MSTORE PUSH1 0x3C DUP3 ADD MSTORE PUSH1 0x3C DUP2 MSTORE PUSH2 0x1DBD DUP2 PUSH2 0x61C JUMP JUMPDEST MLOAD SWAP1 KECCAK256 SWAP1 PUSH2 0x1DCA DUP2 PUSH2 0x7C8 JUMP JUMPDEST PUSH2 0x1DD7 PUSH1 0x40 MLOAD SWAP2 DUP3 PUSH2 0x637 JUMP JUMPDEST DUP2 DUP2 MSTORE PUSH1 0x20 DUP2 ADD SWAP2 CALLDATASIZE DUP2 DUP7 ADD GT PUSH2 0xE JUMPI DUP1 PUSH1 0x20 SWAP6 DUP5 CALLDATACOPY PUSH1 0x0 SWAP5 DUP6 SWAP2 DUP4 ADD ADD MSTORE PUSH1 0x41 DUP2 MLOAD SUB PUSH2 0x1E5B JUMPI SWAP1 MLOAD PUSH1 0x40 DUP1 DUP4 ADD MLOAD PUSH1 0x60 SWAP4 DUP5 ADD MLOAD DUP3 MLOAD SWAP6 DUP7 MSTORE DUP7 BYTE PUSH1 0x20 DUP1 DUP8 ADD SWAP2 SWAP1 SWAP2 MSTORE SWAP2 DUP6 ADD SWAP3 SWAP1 SWAP3 MSTORE SWAP2 DUP4 ADD MSTORE DUP3 DUP1 MSTORE SWAP1 DUP3 SWAP1 PUSH1 0x80 SWAP1 PUSH1 0x1 GAS STATICCALL ISZERO PUSH2 0x1E4E JUMPI JUMPDEST MLOAD PUSH1 0x1 PUSH1 0x1 PUSH1 0xA0 SHL SUB SWAP1 DUP2 AND SWAP2 AND EQ SWAP1 JUMP JUMPDEST PUSH2 0x1E56 PUSH2 0x667 JUMP JUMPDEST PUSH2 0x1E3C JUMP JUMPDEST PUSH1 0x40 MLOAD PUSH3 0x461BCD PUSH1 0xE5 SHL DUP2 MSTORE PUSH1 0x20 PUSH1 0x4 DUP3 ADD MSTORE PUSH1 0x18 PUSH1 0x24 DUP3 ADD MSTORE PUSH32 0x696E76616C6964207369676E6174757265206C656E6774680000000000000000 PUSH1 0x44 DUP3 ADD MSTORE PUSH1 0x64 SWAP1 REVERT JUMPDEST SWAP1 PUSH2 0x148A PUSH1 0x2C PUSH1 0x40 MLOAD DUP4 DUP2 SWAP5 PUSH1 0x20 DUP4 ADD SWAP7 DUP8 CALLDATACOPY DUP2 ADD PUSH12 0x39B0B6B0B7103BB4B639B7B7 PUSH1 0xA1 SHL PUSH1 0x20 DUP3 ADD MSTORE SUB PUSH1 0xC DUP2 ADD DUP5 MSTORE ADD DUP3 PUSH2 0x637 JUMP INVALID LOG2 PUSH5 0x6970667358 0x22 SLT KECCAK256 SWAP2 PUSH6 0xAF967675B29D 0xD8 0x1F 0x1F AND 0x4C ADDMOD CODESIZE PUSH27 0xE6914848A41647E67D96D913AC826E264736F6C63430008110033 PUSH1 0x80 CALLVALUE PUSH3 0xE9 JUMPI PUSH1 0x20 DUP2 ADD PUSH1 0x1 PUSH1 0x1 PUSH1 0x40 SHL SUB DUP2 GT DUP3 DUP3 LT OR PUSH3 0xD3 JUMPI PUSH1 0x40 MSTORE PUSH1 0x0 DUP1 SWAP2 MSTORE PUSH3 0x33 PUSH1 0x2 SLOAD PUSH3 0xEE JUMP JUMPDEST PUSH1 0x1F DUP2 GT PUSH3 0x92 JUMPI JUMPDEST POP DUP1 PUSH1 0x2 SSTORE PUSH3 0x4F PUSH1 0x4 SLOAD PUSH3 0xEE JUMP JUMPDEST PUSH1 0x1F DUP2 GT PUSH3 0x6E JUMPI JUMPDEST PUSH1 0x0 PUSH1 0x4 SSTORE PUSH1 0x40 MLOAD PUSH2 0x23A3 SWAP1 DUP2 PUSH3 0x145 DUP3 CODECOPY RETURN JUMPDEST PUSH1 0x1F PUSH1 0x20 DUP4 PUSH1 0x4 PUSH3 0x8A SWAP6 MSTORE KECCAK256 SWAP2 ADD PUSH1 0x5 SHR DUP2 ADD SWAP1 PUSH3 0x12B JUMP JUMPDEST CODESIZE DUP1 PUSH3 0x59 JUMP JUMPDEST PUSH1 0x2 DUP3 MSTORE PUSH3 0xCC SWAP1 PUSH1 0x1F ADD PUSH1 0x5 SHR PUSH32 0x405787FA12A823E0F2B7631CC41B3BA8828B3321CA811111FA75CD3AA3BB5ACE SWAP1 DUP2 ADD SWAP1 PUSH3 0x12B JUMP JUMPDEST CODESIZE PUSH3 0x3D JUMP JUMPDEST PUSH4 0x4E487B71 PUSH1 0xE0 SHL PUSH1 0x0 MSTORE PUSH1 0x41 PUSH1 0x4 MSTORE PUSH1 0x24 PUSH1 0x0 REVERT JUMPDEST PUSH1 0x0 DUP1 REVERT JUMPDEST SWAP1 PUSH1 0x1 DUP3 DUP2 SHR SWAP3 AND DUP1 ISZERO PUSH3 0x120 JUMPI JUMPDEST PUSH1 0x20 DUP4 LT EQ PUSH3 0x10A JUMPI JUMP JUMPDEST PUSH4 0x4E487B71 PUSH1 0xE0 SHL PUSH1 0x0 MSTORE PUSH1 0x22 PUSH1 0x4 MSTORE PUSH1 0x24 PUSH1 0x0 REVERT JUMPDEST SWAP2 PUSH1 0x7F AND SWAP2 PUSH3 0xFE JUMP JUMPDEST DUP2 DUP2 LT PUSH3 0x137 JUMPI POP POP JUMP JUMPDEST PUSH1 0x0 DUP2 SSTORE PUSH1 0x1 ADD PUSH3 0x12B JUMP INVALID PUSH1 0x80 PUSH1 0x40 MSTORE PUSH1 0x4 CALLDATASIZE LT ISZERO PUSH2 0x12 JUMPI PUSH1 0x0 DUP1 REVERT JUMPDEST PUSH1 0x0 CALLDATALOAD PUSH1 0xE0 SHR DUP1 PUSH3 0xFDD58E EQ PUSH2 0x19CC JUMPI DUP1 PUSH4 0x1FFC9A7 EQ PUSH2 0x195E JUMPI DUP1 PUSH4 0x6FDDE03 EQ PUSH2 0x18B8 JUMPI DUP1 PUSH4 0xE89341C EQ PUSH2 0x1899 JUMPI DUP1 PUSH4 0x2EB2C2D6 EQ PUSH2 0x14BE JUMPI DUP1 PUSH4 0x4E1273F4 EQ PUSH2 0x1320 JUMPI DUP1 PUSH4 0x4F558E79 EQ PUSH2 0x12F2 JUMPI DUP1 PUSH4 0x6B20C454 EQ PUSH2 0x1098 JUMPI DUP1 PUSH4 0x731133E9 EQ PUSH2 0xE83 JUMPI DUP1 PUSH4 0x862440E2 EQ PUSH2 0xC9E JUMPI DUP1 PUSH4 0x8DA5CB5B EQ PUSH2 0xC71 JUMPI DUP1 PUSH4 0x95D89B41 EQ PUSH2 0xB8B JUMPI DUP1 PUSH4 0xA22CB465 EQ PUSH2 0xAA7 JUMPI DUP1 PUSH4 0xB2B45DF5 EQ PUSH2 0x758 JUMPI DUP1 PUSH4 0xBD85B039 EQ PUSH2 0x72C JUMPI DUP1 PUSH4 0xE985E9C5 EQ PUSH2 0x6D6 JUMPI DUP1 PUSH4 0xF242432A EQ PUSH2 0x2F7 JUMPI PUSH4 0xF5298ACA EQ PUSH2 0xE1 JUMPI PUSH1 0x0 DUP1 REVERT JUMPDEST CALLVALUE PUSH2 0x2F2 JUMPI PUSH1 0x60 CALLDATASIZE PUSH1 0x3 NOT ADD SLT PUSH2 0x2F2 JUMPI PUSH2 0xFA PUSH2 0x19FB JUMP JUMPDEST PUSH1 0x24 SWAP1 PUSH1 0x44 DUP1 CALLDATALOAD SWAP2 PUSH1 0x1 PUSH1 0x1 PUSH1 0xA0 SHL SUB AND SWAP1 DUP4 CALLDATALOAD CALLER DUP4 EQ DUP1 ISZERO PUSH2 0x2C9 JUMPI JUMPDEST PUSH2 0x121 SWAP1 PUSH2 0x1CC6 JUMP JUMPDEST DUP3 ISZERO SWAP3 PUSH2 0x12E DUP5 ISZERO PUSH2 0x1F9C JUMP JUMPDEST PUSH2 0x137 DUP3 PUSH2 0x1F67 JUMP JUMPDEST SWAP2 PUSH2 0x141 DUP7 PUSH2 0x1F67 JUMP JUMPDEST SWAP5 PUSH1 0x0 PUSH1 0x40 MLOAD PUSH2 0x150 DUP2 PUSH2 0x1A61 JUMP JUMPDEST MSTORE PUSH2 0x26F JUMPI JUMPDEST PUSH1 0x0 JUMPDEST DUP4 MLOAD DUP2 LT ISZERO PUSH2 0x1F2 JUMPI PUSH2 0x16C DUP2 DUP6 PUSH2 0x1C9C JUMP JUMPDEST MLOAD PUSH2 0x177 DUP3 DUP9 PUSH2 0x1C9C JUMP JUMPDEST MLOAD SWAP1 DUP1 PUSH1 0x0 MSTORE PUSH1 0x3 PUSH1 0x20 DUP2 DUP2 MSTORE PUSH1 0x40 PUSH1 0x0 KECCAK256 SLOAD SWAP3 DUP5 DUP5 LT PUSH2 0x1B0 JUMPI SWAP1 PUSH2 0x1AB SWAP6 SWAP5 SWAP4 SWAP3 SWAP2 PUSH1 0x0 MSTORE MSTORE SUB PUSH1 0x40 PUSH1 0x0 KECCAK256 SSTORE PUSH2 0x1C77 JUMP JUMPDEST PUSH2 0x159 JUMP JUMPDEST POP PUSH1 0x84 SWAP1 PUSH1 0x0 DUP1 MLOAD PUSH1 0x20 PUSH2 0x234E DUP4 CODECOPY DUP2 MLOAD SWAP2 MSTORE DUP11 PUSH1 0x28 DUP16 PUSH1 0x40 MLOAD SWAP5 PUSH3 0x461BCD PUSH1 0xE5 SHL DUP7 MSTORE PUSH1 0x4 DUP7 ADD MSTORE DUP5 ADD MSTORE DUP3 ADD MSTORE PUSH8 0x616C537570706C79 PUSH1 0xC0 SHL PUSH1 0x64 DUP3 ADD MSTORE REVERT JUMPDEST PUSH1 0x0 DUP4 DUP4 DUP10 DUP2 DUP5 MSTORE DUP4 PUSH1 0x20 MSTORE PUSH1 0x40 DUP5 KECCAK256 DUP4 DUP6 MSTORE PUSH1 0x20 MSTORE DUP1 PUSH1 0x40 DUP6 KECCAK256 SLOAD PUSH2 0x21A DUP3 DUP3 LT ISZERO PUSH2 0x1FF4 JUMP JUMPDEST DUP4 DUP7 MSTORE DUP6 PUSH1 0x20 MSTORE PUSH1 0x40 DUP7 KECCAK256 DUP6 DUP8 MSTORE PUSH1 0x20 MSTORE SUB PUSH1 0x40 DUP6 KECCAK256 SSTORE PUSH1 0x40 MLOAD SWAP2 DUP3 MSTORE PUSH1 0x20 DUP3 ADD MSTORE PUSH32 0xC3D58168C5AE7397731D063D5BBF3D657854427343F4C083240F7AACAA2D0F62 PUSH1 0x40 CALLER SWAP3 LOG4 PUSH2 0x26D PUSH1 0x40 MLOAD PUSH2 0x1A61 JUMP JUMPDEST STOP JUMPDEST SWAP5 SWAP2 SWAP6 SWAP3 SWAP1 PUSH1 0x0 JUMPDEST DUP8 MLOAD DUP2 LT ISZERO PUSH2 0x2BE JUMPI DUP1 PUSH2 0x28E PUSH2 0x2B9 SWAP3 DUP9 PUSH2 0x1C9C JUMP JUMPDEST MLOAD PUSH2 0x299 DUP3 DUP12 PUSH2 0x1C9C JUMP JUMPDEST MLOAD PUSH1 0x0 MSTORE PUSH1 0x3 PUSH1 0x20 MSTORE PUSH2 0x2B2 PUSH1 0x40 PUSH1 0x0 KECCAK256 SWAP2 DUP3 SLOAD PUSH2 0x1DE3 JUMP JUMPDEST SWAP1 SSTORE PUSH2 0x1C77 JUMP JUMPDEST PUSH2 0x277 JUMP JUMPDEST POP SWAP1 SWAP3 SWAP6 SWAP2 SWAP5 PUSH2 0x156 JUMP JUMPDEST POP DUP3 PUSH1 0x0 MSTORE PUSH1 0x1 PUSH1 0x20 MSTORE PUSH1 0x40 PUSH1 0x0 KECCAK256 CALLER PUSH1 0x0 MSTORE PUSH1 0x20 MSTORE PUSH2 0x121 PUSH1 0xFF PUSH1 0x40 PUSH1 0x0 KECCAK256 SLOAD AND SWAP1 POP PUSH2 0x118 JUMP JUMPDEST PUSH1 0x0 DUP1 REVERT JUMPDEST CALLVALUE PUSH2 0x2F2 JUMPI PUSH1 0xA0 CALLDATASIZE PUSH1 0x3 NOT ADD SLT PUSH2 0x2F2 JUMPI PUSH2 0x310 PUSH2 0x19FB JUMP JUMPDEST PUSH2 0x318 PUSH2 0x1A11 JUMP JUMPDEST SWAP1 PUSH1 0x84 DUP1 CALLDATALOAD PUSH1 0x1 PUSH1 0x1 PUSH1 0x40 SHL SUB DUP2 GT PUSH2 0x2F2 JUMPI PUSH2 0x339 SWAP1 CALLDATASIZE SWAP1 PUSH1 0x4 ADD PUSH2 0x1BA0 JUMP JUMPDEST PUSH1 0x1 PUSH1 0x1 PUSH1 0xA0 SHL SUB SWAP2 SWAP1 DUP4 DUP4 AND CALLER EQ DUP1 ISZERO PUSH2 0x6AB JUMPI JUMPDEST PUSH2 0x358 SWAP1 PUSH2 0x1CC6 JUMP JUMPDEST DUP3 DUP6 AND ISZERO PUSH2 0x366 DUP2 ISZERO PUSH2 0x1D2A JUMP JUMPDEST PUSH2 0x371 PUSH1 0x44 CALLDATALOAD PUSH2 0x1F67 JUMP JUMPDEST PUSH2 0x37C PUSH1 0x64 CALLDATALOAD PUSH2 0x1F67 JUMP JUMPDEST SWAP2 DUP6 DUP8 AND ISZERO PUSH2 0x66B JUMPI JUMPDEST PUSH2 0x5BD JUMPI JUMPDEST POP POP PUSH1 0x44 CALLDATALOAD PUSH1 0x0 MSTORE PUSH1 0x20 SWAP5 PUSH1 0x0 DUP7 MSTORE PUSH1 0x40 PUSH1 0x0 KECCAK256 DUP5 DUP7 AND PUSH1 0x0 MSTORE DUP7 MSTORE PUSH1 0x40 PUSH1 0x0 KECCAK256 SLOAD PUSH2 0x3BB PUSH1 0x64 CALLDATALOAD DUP3 LT ISZERO PUSH2 0x1D84 JUMP JUMPDEST PUSH1 0x44 CALLDATALOAD PUSH1 0x0 MSTORE PUSH1 0x0 DUP8 MSTORE PUSH1 0x40 PUSH1 0x0 KECCAK256 DUP6 DUP8 AND PUSH1 0x0 MSTORE DUP8 MSTORE PUSH1 0x64 CALLDATALOAD SWAP1 SUB PUSH1 0x40 PUSH1 0x0 KECCAK256 SSTORE PUSH1 0x44 CALLDATALOAD PUSH1 0x0 MSTORE PUSH1 0x0 DUP7 MSTORE PUSH1 0x40 PUSH1 0x0 KECCAK256 DUP5 DUP3 AND PUSH1 0x0 MSTORE DUP7 MSTORE PUSH1 0x40 PUSH1 0x0 KECCAK256 PUSH2 0x406 PUSH1 0x64 CALLDATALOAD DUP3 SLOAD PUSH2 0x1DE3 JUMP JUMPDEST SWAP1 SSTORE PUSH1 0x40 MLOAD PUSH1 0x44 CALLDATALOAD DUP2 MSTORE PUSH1 0x64 CALLDATALOAD DUP8 DUP3 ADD MSTORE DUP5 DUP3 AND SWAP1 DUP6 DUP8 AND SWAP1 PUSH32 0xC3D58168C5AE7397731D063D5BBF3D657854427343F4C083240F7AACAA2D0F62 PUSH1 0x40 CALLER SWAP3 LOG4 DUP1 EXTCODESIZE PUSH2 0x44D JUMPI STOP JUMPDEST PUSH1 0xA0 PUSH1 0x0 PUSH2 0x497 SWAP6 DUP9 SWAP6 PUSH1 0x40 MLOAD SWAP8 DUP9 SWAP7 DUP8 SWAP6 DUP7 SWAP4 DUP6 PUSH4 0xF23A6E61 PUSH1 0xE0 SHL SWAP14 DUP15 DUP8 MSTORE CALLER PUSH1 0x4 DUP9 ADD MSTORE AND PUSH1 0x24 DUP7 ADD MSTORE PUSH1 0x44 CALLDATALOAD PUSH1 0x44 DUP7 ADD MSTORE PUSH1 0x64 CALLDATALOAD PUSH1 0x64 DUP7 ADD MSTORE DUP5 ADD MSTORE PUSH1 0xA4 DUP4 ADD SWAP1 PUSH2 0x1AC0 JUMP JUMPDEST SUB SWAP4 AND GAS CALL PUSH1 0x0 SWAP2 DUP2 PUSH2 0x58E JUMPI JUMPDEST POP PUSH2 0x564 JUMPI POP POP PUSH1 0x1 SWAP1 PUSH2 0x4B7 PUSH2 0x1EDB JUMP JUMPDEST PUSH4 0x8C379A0 EQ PUSH2 0x52F JUMPI JUMPDEST POP PUSH2 0x4C9 JUMPI STOP JUMPDEST PUSH1 0x40 MLOAD PUSH3 0x461BCD PUSH1 0xE5 SHL DUP2 MSTORE PUSH1 0x20 PUSH1 0x4 DUP3 ADD MSTORE PUSH1 0x34 PUSH1 0x24 DUP3 ADD MSTORE PUSH32 0x455243313135353A207472616E7366657220746F206E6F6E2045524331313535 PUSH1 0x44 DUP3 ADD MSTORE PUSH20 0x2932B1B2B4BB32B91034B6B83632B6B2B73A32B9 PUSH1 0x61 SHL PUSH1 0x64 DUP3 ADD MSTORE PUSH1 0x84 SWAP1 REVERT JUMPDEST SUB SWAP1 REVERT JUMPDEST PUSH2 0x537 PUSH2 0x1EF9 JUMP JUMPDEST SWAP1 DUP2 PUSH2 0x543 JUMPI POP PUSH2 0x4C2 JUMP JUMPDEST PUSH2 0x52B PUSH1 0x40 MLOAD SWAP3 DUP4 SWAP3 PUSH3 0x461BCD PUSH1 0xE5 SHL DUP5 MSTORE PUSH1 0x4 DUP5 ADD MSTORE PUSH1 0x24 DUP4 ADD SWAP1 PUSH2 0x1AC0 JUMP JUMPDEST PUSH1 0x1 PUSH1 0x1 PUSH1 0xE0 SHL SUB NOT AND EQ SWAP1 POP PUSH2 0x26D JUMPI PUSH1 0x40 MLOAD PUSH3 0x461BCD PUSH1 0xE5 SHL DUP2 MSTORE DUP1 PUSH2 0x52B PUSH1 0x4 DUP3 ADD PUSH2 0x1E92 JUMP JUMPDEST PUSH2 0x5AF SWAP2 SWAP3 POP DUP5 RETURNDATASIZE DUP7 GT PUSH2 0x5B6 JUMPI JUMPDEST PUSH2 0x5A7 DUP2 DUP4 PUSH2 0x1A7C JUMP JUMPDEST DUP2 ADD SWAP1 PUSH2 0x1E72 JUMP JUMPDEST SWAP1 DUP5 PUSH2 0x4A5 JUMP JUMPDEST POP RETURNDATASIZE PUSH2 0x59D JUMP JUMPDEST SWAP3 SWAP6 SWAP2 SWAP5 SWAP1 SWAP4 PUSH1 0x0 JUMPDEST DUP5 MLOAD DUP2 LT ISZERO PUSH2 0x65C JUMPI PUSH2 0x5D9 DUP2 DUP7 PUSH2 0x1C9C JUMP JUMPDEST MLOAD SWAP1 PUSH2 0x5E5 DUP2 DUP9 PUSH2 0x1C9C JUMP JUMPDEST MLOAD DUP3 PUSH1 0x0 MSTORE PUSH1 0x3 PUSH1 0x20 MSTORE PUSH1 0x40 PUSH1 0x0 KECCAK256 SLOAD DUP2 DUP2 LT PUSH2 0x619 JUMPI PUSH2 0x614 SWAP4 PUSH1 0x0 MSTORE PUSH1 0x3 PUSH1 0x20 MSTORE SUB PUSH1 0x40 PUSH1 0x0 KECCAK256 SSTORE PUSH2 0x1C77 JUMP JUMPDEST PUSH2 0x5C6 JUMP JUMPDEST PUSH1 0x40 MLOAD PUSH3 0x461BCD PUSH1 0xE5 SHL DUP2 MSTORE PUSH1 0x20 PUSH1 0x4 DUP3 ADD MSTORE PUSH1 0x28 PUSH1 0x24 DUP3 ADD MSTORE PUSH1 0x0 DUP1 MLOAD PUSH1 0x20 PUSH2 0x234E DUP4 CODECOPY DUP2 MLOAD SWAP2 MSTORE PUSH1 0x44 DUP3 ADD MSTORE PUSH8 0x616C537570706C79 PUSH1 0xC0 SHL PUSH1 0x64 DUP3 ADD MSTORE DUP12 SWAP1 REVERT JUMPDEST POP SWAP4 POP SWAP4 SWAP1 SWAP5 SWAP2 POP DUP6 DUP1 PUSH2 0x38B JUMP JUMPDEST SWAP6 SWAP3 PUSH1 0x0 SWAP8 SWAP5 SWAP2 SWAP6 SWAP3 SWAP8 JUMPDEST DUP7 MLOAD DUP2 LT ISZERO PUSH2 0x69D JUMPI DUP1 PUSH2 0x68D PUSH2 0x698 SWAP3 DUP12 PUSH2 0x1C9C JUMP JUMPDEST MLOAD PUSH2 0x299 DUP3 DUP11 PUSH2 0x1C9C JUMP JUMPDEST PUSH2 0x676 JUMP JUMPDEST POP SWAP3 SWAP6 SWAP7 SWAP2 SWAP5 SWAP1 SWAP4 SWAP7 PUSH2 0x386 JUMP JUMPDEST POP DUP3 DUP5 AND PUSH1 0x0 MSTORE PUSH1 0x1 PUSH1 0x20 MSTORE PUSH1 0x40 PUSH1 0x0 KECCAK256 CALLER PUSH1 0x0 MSTORE PUSH1 0x20 MSTORE PUSH2 0x358 PUSH1 0xFF PUSH1 0x40 PUSH1 0x0 KECCAK256 SLOAD AND SWAP1 POP PUSH2 0x34F JUMP JUMPDEST CALLVALUE PUSH2 0x2F2 JUMPI PUSH1 0x40 CALLDATASIZE PUSH1 0x3 NOT ADD SLT PUSH2 0x2F2 JUMPI PUSH2 0x6EF PUSH2 0x19FB JUMP JUMPDEST PUSH2 0x6F7 PUSH2 0x1A11 JUMP JUMPDEST SWAP1 PUSH1 0x1 DUP1 PUSH1 0xA0 SHL SUB DUP1 SWAP2 AND PUSH1 0x0 MSTORE PUSH1 0x1 PUSH1 0x20 MSTORE PUSH1 0x40 PUSH1 0x0 KECCAK256 SWAP2 AND PUSH1 0x0 MSTORE PUSH1 0x20 MSTORE PUSH1 0x20 PUSH1 0xFF PUSH1 0x40 PUSH1 0x0 KECCAK256 SLOAD AND PUSH1 0x40 MLOAD SWAP1 ISZERO ISZERO DUP2 MSTORE RETURN JUMPDEST CALLVALUE PUSH2 0x2F2 JUMPI PUSH1 0x20 CALLDATASIZE PUSH1 0x3 NOT ADD SLT PUSH2 0x2F2 JUMPI PUSH1 0x4 CALLDATALOAD PUSH1 0x0 MSTORE PUSH1 0x3 PUSH1 0x20 MSTORE PUSH1 0x20 PUSH1 0x40 PUSH1 0x0 KECCAK256 SLOAD PUSH1 0x40 MLOAD SWAP1 DUP2 MSTORE RETURN JUMPDEST CALLVALUE PUSH2 0x2F2 JUMPI PUSH1 0x60 CALLDATASIZE PUSH1 0x3 NOT ADD SLT PUSH2 0x2F2 JUMPI PUSH2 0x771 PUSH2 0x19FB JUMP JUMPDEST PUSH1 0x1 PUSH1 0x1 PUSH1 0x40 SHL SUB SWAP1 PUSH1 0x24 CALLDATALOAD DUP3 DUP2 GT PUSH2 0x2F2 JUMPI PUSH2 0x792 SWAP1 CALLDATASIZE SWAP1 PUSH1 0x4 ADD PUSH2 0x1BA0 JUMP JUMPDEST SWAP1 PUSH1 0x44 CALLDATALOAD DUP4 DUP2 GT PUSH2 0x2F2 JUMPI PUSH2 0x7AB SWAP1 CALLDATASIZE SWAP1 PUSH1 0x4 ADD PUSH2 0x1BA0 JUMP JUMPDEST SWAP3 PUSH1 0x6 SLOAD SWAP3 PUSH2 0x7C0 PUSH1 0xFF PUSH1 0x8 SWAP6 DUP7 SHR AND PUSH2 0x204C JUMP JUMPDEST DUP1 MLOAD DUP3 DUP2 GT PUSH2 0x996 JUMPI DUP1 PUSH2 0x7D4 DUP7 SLOAD PUSH2 0x1A27 JUMP JUMPDEST SWAP3 PUSH1 0x1F SWAP4 DUP5 DUP2 GT PUSH2 0xA3A JUMPI JUMPDEST POP PUSH1 0x20 SWAP1 DUP5 DUP4 GT PUSH1 0x1 EQ PUSH2 0x9B7 JUMPI PUSH1 0x0 SWAP3 PUSH2 0x9AC JUMPI JUMPDEST POP POP DUP2 PUSH1 0x1 SHL SWAP2 PUSH1 0x0 NOT SWAP1 PUSH1 0x3 SHL SHR NOT AND OR DUP5 SSTORE JUMPDEST DUP5 MLOAD SWAP2 DUP3 GT PUSH2 0x996 JUMPI PUSH2 0x81F PUSH1 0x9 SLOAD PUSH2 0x1A27 JUMP JUMPDEST DUP2 DUP2 GT PUSH2 0x934 JUMPI JUMPDEST POP PUSH1 0x20 SWAP1 DUP3 GT PUSH1 0x1 EQ PUSH2 0x8B0 JUMPI DUP2 SWAP3 SWAP4 SWAP5 PUSH1 0x0 SWAP3 PUSH2 0x8A5 JUMPI JUMPDEST POP POP DUP2 PUSH1 0x1 SHL SWAP2 PUSH1 0x0 NOT SWAP1 PUSH1 0x3 SHL SHR NOT AND OR PUSH1 0x9 SSTORE JUMPDEST CALLER PUSH12 0xFFFFFFFFFFFFFFFFFFFFFFFF PUSH1 0xA0 SHL PUSH1 0x7 SLOAD AND OR PUSH1 0x7 SSTORE PUSH2 0x880 PUSH1 0xFF PUSH1 0x6 SLOAD DUP1 SWAP5 SHR AND PUSH2 0x204C JUMP JUMPDEST PUSH3 0x10000 PUSH1 0x1 PUSH1 0xB0 SHL SUB NOT SWAP1 SWAP2 AND PUSH1 0x10 SWAP2 SWAP1 SWAP2 SHL PUSH3 0x10000 PUSH1 0x1 PUSH1 0xB0 SHL SUB AND OR PUSH1 0x6 SSTORE STOP JUMPDEST ADD MLOAD SWAP1 POP DUP5 DUP1 PUSH2 0x840 JUMP JUMPDEST PUSH1 0x1F NOT DUP3 AND SWAP1 PUSH1 0x9 PUSH1 0x0 MSTORE PUSH32 0x6E1540171B6C0C960B71A7020D9F60077F6AF931A8BBF590DA0223DACF75C7AF SWAP2 PUSH1 0x0 JUMPDEST DUP2 DUP2 LT PUSH2 0x91C JUMPI POP SWAP6 DUP4 PUSH1 0x1 SWAP6 SWAP7 SWAP8 LT PUSH2 0x903 JUMPI JUMPDEST POP POP POP DUP2 SHL ADD PUSH1 0x9 SSTORE PUSH2 0x856 JUMP JUMPDEST ADD MLOAD PUSH1 0x0 NOT PUSH1 0xF8 DUP5 PUSH1 0x3 SHL AND SHR NOT AND SWAP1 SSTORE DUP5 DUP1 DUP1 PUSH2 0x8F5 JUMP JUMPDEST SWAP2 SWAP3 PUSH1 0x20 PUSH1 0x1 DUP2 SWAP3 DUP7 DUP12 ADD MLOAD DUP2 SSTORE ADD SWAP5 ADD SWAP3 ADD PUSH2 0x8E0 JUMP JUMPDEST PUSH1 0x9 PUSH1 0x0 MSTORE PUSH32 0x6E1540171B6C0C960B71A7020D9F60077F6AF931A8BBF590DA0223DACF75C7AF DUP3 DUP1 DUP6 ADD PUSH1 0x5 SHR DUP3 ADD SWAP3 PUSH1 0x20 DUP7 LT PUSH2 0x98D JUMPI JUMPDEST ADD PUSH1 0x5 SHR ADD SWAP1 JUMPDEST DUP2 DUP2 LT PUSH2 0x981 JUMPI POP PUSH2 0x827 JUMP JUMPDEST PUSH1 0x0 DUP2 SSTORE PUSH1 0x1 ADD PUSH2 0x974 JUMP JUMPDEST SWAP3 POP DUP2 SWAP3 PUSH2 0x96D JUMP JUMPDEST PUSH4 0x4E487B71 PUSH1 0xE0 SHL PUSH1 0x0 MSTORE PUSH1 0x41 PUSH1 0x4 MSTORE PUSH1 0x24 PUSH1 0x0 REVERT JUMPDEST ADD MLOAD SWAP1 POP DUP8 DUP1 PUSH2 0x7F6 JUMP JUMPDEST PUSH1 0x0 DUP9 DUP2 MSTORE PUSH32 0xF3F7A9FE364FAAB93B216DA50A3214154F22A0A2B415B23A84C8169E8B636EE3 SWAP4 POP PUSH1 0x1F NOT DUP6 AND SWAP1 JUMPDEST DUP2 DUP2 LT PUSH2 0xA22 JUMPI POP SWAP1 DUP5 PUSH1 0x1 SWAP6 SWAP5 SWAP4 SWAP3 LT PUSH2 0xA09 JUMPI JUMPDEST POP POP POP DUP2 SHL ADD DUP5 SSTORE PUSH2 0x80B JUMP JUMPDEST ADD MLOAD PUSH1 0x0 NOT PUSH1 0xF8 DUP5 PUSH1 0x3 SHL AND SHR NOT AND SWAP1 SSTORE DUP8 DUP1 DUP1 PUSH2 0x9FC JUMP JUMPDEST SWAP3 SWAP4 PUSH1 0x20 PUSH1 0x1 DUP2 SWAP3 DUP8 DUP7 ADD MLOAD DUP2 SSTORE ADD SWAP6 ADD SWAP4 ADD PUSH2 0x9E6 JUMP JUMPDEST SWAP1 SWAP2 POP DUP7 PUSH1 0x0 MSTORE PUSH32 0xF3F7A9FE364FAAB93B216DA50A3214154F22A0A2B415B23A84C8169E8B636EE3 DUP5 DUP1 DUP6 ADD PUSH1 0x5 SHR DUP3 ADD SWAP3 PUSH1 0x20 DUP7 LT PUSH2 0xA9E JUMPI JUMPDEST SWAP1 DUP6 SWAP5 SWAP4 SWAP3 SWAP2 ADD PUSH1 0x5 SHR ADD SWAP1 JUMPDEST DUP2 DUP2 LT PUSH2 0xA8F JUMPI POP PUSH2 0x7E0 JUMP JUMPDEST PUSH1 0x0 DUP2 SSTORE DUP5 SWAP4 POP PUSH1 0x1 ADD PUSH2 0xA82 JUMP JUMPDEST SWAP3 POP DUP2 SWAP3 PUSH2 0xA75 JUMP JUMPDEST CALLVALUE PUSH2 0x2F2 JUMPI PUSH1 0x40 CALLDATASIZE PUSH1 0x3 NOT ADD SLT PUSH2 0x2F2 JUMPI PUSH2 0xAC0 PUSH2 0x19FB JUMP JUMPDEST PUSH1 0x24 CALLDATALOAD SWAP1 DUP2 ISZERO ISZERO DUP1 SWAP3 SUB PUSH2 0x2F2 JUMPI PUSH1 0x1 PUSH1 0x1 PUSH1 0xA0 SHL SUB AND SWAP1 CALLER DUP3 EQ PUSH2 0xB34 JUMPI CALLER PUSH1 0x0 MSTORE PUSH1 0x1 PUSH1 0x20 MSTORE PUSH1 0x40 PUSH1 0x0 KECCAK256 DUP3 PUSH1 0x0 MSTORE PUSH1 0x20 MSTORE PUSH1 0x40 PUSH1 0x0 KECCAK256 PUSH1 0xFF NOT DUP2 SLOAD AND PUSH1 0xFF DUP4 AND OR SWAP1 SSTORE PUSH1 0x40 MLOAD SWAP1 DUP2 MSTORE PUSH32 0x17307EAB39AB6107E8899845AD3D59BD9653F200F220920489CA2B5937696C31 PUSH1 0x20 CALLER SWAP3 LOG3 STOP JUMPDEST PUSH1 0x40 MLOAD PUSH3 0x461BCD PUSH1 0xE5 SHL DUP2 MSTORE PUSH1 0x20 PUSH1 0x4 DUP3 ADD MSTORE PUSH1 0x29 PUSH1 0x24 DUP3 ADD MSTORE PUSH32 0x455243313135353A2073657474696E6720617070726F76616C20737461747573 PUSH1 0x44 DUP3 ADD MSTORE PUSH9 0x103337B91039B2B633 PUSH1 0xB9 SHL PUSH1 0x64 DUP3 ADD MSTORE PUSH1 0x84 SWAP1 REVERT JUMPDEST CALLVALUE PUSH2 0x2F2 JUMPI PUSH1 0x0 CALLDATASIZE PUSH1 0x3 NOT ADD SLT PUSH2 0x2F2 JUMPI PUSH1 0x40 MLOAD PUSH1 0x0 PUSH1 0x9 SLOAD PUSH2 0xBAD DUP2 PUSH2 0x1A27 JUMP JUMPDEST DUP1 DUP5 MSTORE SWAP1 PUSH1 0x1 SWAP1 DUP2 DUP2 AND SWAP1 DUP2 ISZERO PUSH2 0xC4A JUMPI POP PUSH1 0x1 EQ PUSH2 0xBEF JUMPI JUMPDEST PUSH2 0xBEB DUP5 PUSH2 0xBD7 DUP2 DUP7 SUB DUP3 PUSH2 0x1A7C JUMP JUMPDEST PUSH1 0x40 MLOAD SWAP2 DUP3 SWAP2 PUSH1 0x20 DUP4 MSTORE PUSH1 0x20 DUP4 ADD SWAP1 PUSH2 0x1AC0 JUMP JUMPDEST SUB SWAP1 RETURN JUMPDEST PUSH1 0x9 PUSH1 0x0 SWAP1 DUP2 MSTORE SWAP3 POP PUSH32 0x6E1540171B6C0C960B71A7020D9F60077F6AF931A8BBF590DA0223DACF75C7AF JUMPDEST DUP3 DUP5 LT PUSH2 0xC32 JUMPI POP POP POP DUP2 ADD PUSH1 0x20 ADD PUSH2 0xBD7 DUP3 PUSH2 0xBC7 JUMP JUMPDEST DUP1 SLOAD PUSH1 0x20 DUP6 DUP8 ADD DUP2 ADD SWAP2 SWAP1 SWAP2 MSTORE SWAP1 SWAP4 ADD SWAP3 DUP2 ADD PUSH2 0xC1A JUMP JUMPDEST PUSH1 0xFF NOT AND PUSH1 0x20 DUP1 DUP8 ADD SWAP2 SWAP1 SWAP2 MSTORE SWAP3 ISZERO ISZERO PUSH1 0x5 SHL DUP6 ADD SWAP1 SWAP3 ADD SWAP3 POP PUSH2 0xBD7 SWAP2 POP DUP4 SWAP1 POP PUSH2 0xBC7 JUMP JUMPDEST CALLVALUE PUSH2 0x2F2 JUMPI PUSH1 0x0 CALLDATASIZE PUSH1 0x3 NOT ADD SLT PUSH2 0x2F2 JUMPI PUSH1 0x6 SLOAD PUSH1 0x40 MLOAD PUSH1 0x10 SWAP2 SWAP1 SWAP2 SHR PUSH1 0x1 PUSH1 0x1 PUSH1 0xA0 SHL SUB AND DUP2 MSTORE PUSH1 0x20 SWAP1 RETURN JUMPDEST CALLVALUE PUSH2 0x2F2 JUMPI PUSH1 0x40 CALLDATASIZE PUSH1 0x3 NOT ADD SLT PUSH2 0x2F2 JUMPI PUSH1 0x1 PUSH1 0x1 PUSH1 0x40 SHL SUB PUSH1 0x4 CALLDATALOAD PUSH1 0x24 CALLDATALOAD DUP3 DUP2 GT PUSH2 0x2F2 JUMPI CALLDATASIZE PUSH1 0x23 DUP3 ADD SLT ISZERO PUSH2 0x2F2 JUMPI DUP1 PUSH1 0x4 ADD CALLDATALOAD SWAP1 DUP4 DUP3 GT PUSH2 0x2F2 JUMPI CALLDATASIZE PUSH1 0x24 DUP4 DUP4 ADD ADD GT PUSH2 0x2F2 JUMPI PUSH2 0xD0B SWAP2 PUSH2 0xD01 PUSH1 0x1 DUP1 PUSH1 0xA0 SHL SUB PUSH1 0x7 SLOAD AND CALLER EQ PUSH2 0x20AC JUMP JUMPDEST PUSH1 0x24 CALLDATASIZE SWAP3 ADD PUSH2 0x1B5A JUMP JUMPDEST SWAP2 DUP2 PUSH1 0x0 MSTORE PUSH1 0x20 SWAP1 PUSH1 0x5 DUP3 MSTORE PUSH1 0x40 PUSH1 0x0 KECCAK256 SWAP1 DUP5 MLOAD SWAP1 DUP2 GT PUSH2 0x996 JUMPI PUSH2 0xD30 DUP3 SLOAD PUSH2 0x1A27 JUMP JUMPDEST PUSH1 0x1F DUP2 GT PUSH2 0xE3D JUMPI JUMPDEST POP DUP3 PUSH1 0x1F DUP3 GT PUSH1 0x1 EQ PUSH2 0xDB6 JUMPI DUP2 SWAP1 PUSH32 0x6BB7FF708619BA0610CBA295A58592E0451DEE2622938C8755667688DAF3529B SWAP6 SWAP7 PUSH1 0x0 SWAP3 PUSH2 0xDAB JUMPI JUMPDEST POP POP DUP2 PUSH1 0x1 SHL SWAP2 PUSH1 0x0 NOT SWAP1 PUSH1 0x3 SHL SHR NOT AND OR SWAP1 SSTORE JUMPDEST PUSH2 0xD91 DUP4 PUSH2 0x210E JUMP JUMPDEST SWAP1 PUSH2 0xDA6 PUSH1 0x40 MLOAD SWAP3 DUP3 DUP5 SWAP4 DUP5 MSTORE DUP4 ADD SWAP1 PUSH2 0x1AC0 JUMP JUMPDEST SUB SWAP1 LOG2 STOP JUMPDEST ADD MLOAD SWAP1 POP DUP7 DUP1 PUSH2 0xD73 JUMP JUMPDEST PUSH1 0x1F NOT DUP3 AND SWAP6 DUP4 PUSH1 0x0 MSTORE DUP5 PUSH1 0x0 KECCAK256 SWAP7 PUSH1 0x0 JUMPDEST DUP2 DUP2 LT PUSH2 0xE26 JUMPI POP SWAP2 PUSH32 0x6BB7FF708619BA0610CBA295A58592E0451DEE2622938C8755667688DAF3529B SWAP7 SWAP8 SWAP2 DUP5 PUSH1 0x1 SWAP6 SWAP5 LT PUSH2 0xE0D JUMPI JUMPDEST POP POP POP DUP2 SHL ADD SWAP1 SSTORE PUSH2 0xD88 JUMP JUMPDEST ADD MLOAD PUSH1 0x0 NOT PUSH1 0xF8 DUP5 PUSH1 0x3 SHL AND SHR NOT AND SWAP1 SSTORE DUP7 DUP1 DUP1 PUSH2 0xE00 JUMP JUMPDEST DUP4 DUP4 ADD MLOAD DUP10 SSTORE PUSH1 0x1 SWAP1 SWAP9 ADD SWAP8 SWAP3 DUP7 ADD SWAP3 DUP7 ADD PUSH2 0xDC8 JUMP JUMPDEST DUP3 PUSH1 0x0 MSTORE DUP4 PUSH1 0x0 KECCAK256 PUSH1 0x1F DUP4 ADD PUSH1 0x5 SHR DUP2 ADD SWAP2 DUP6 DUP5 LT PUSH2 0xE79 JUMPI JUMPDEST PUSH1 0x1F ADD PUSH1 0x5 SHR ADD SWAP1 JUMPDEST DUP2 DUP2 LT PUSH2 0xE6D JUMPI POP PUSH2 0xD39 JUMP JUMPDEST PUSH1 0x0 DUP2 SSTORE PUSH1 0x1 ADD PUSH2 0xE60 JUMP JUMPDEST SWAP1 SWAP2 POP DUP2 SWAP1 PUSH2 0xE57 JUMP JUMPDEST CALLVALUE PUSH2 0x2F2 JUMPI PUSH1 0x80 CALLDATASIZE PUSH1 0x3 NOT ADD SLT PUSH2 0x2F2 JUMPI PUSH2 0xE9C PUSH2 0x19FB JUMP JUMPDEST PUSH1 0x44 CALLDATALOAD SWAP1 PUSH1 0x24 CALLDATALOAD PUSH1 0x64 CALLDATALOAD PUSH1 0x1 PUSH1 0x1 PUSH1 0x40 SHL SUB DUP2 GT PUSH2 0x2F2 JUMPI PUSH2 0xEC2 SWAP1 CALLDATASIZE SWAP1 PUSH1 0x4 ADD PUSH2 0x1BA0 JUMP JUMPDEST SWAP2 PUSH1 0x1 DUP1 PUSH1 0xA0 SHL SUB PUSH2 0xED9 DUP2 PUSH1 0x7 SLOAD AND CALLER EQ PUSH2 0x20AC JUMP JUMPDEST PUSH2 0xEE3 DUP4 DUP4 PUSH2 0x1BF2 JUMP JUMPDEST PUSH2 0x1044 JUMPI DUP2 AND SWAP2 DUP3 ISZERO PUSH2 0xFF5 JUMPI PUSH2 0xEF9 DUP2 PUSH2 0x1F67 JUMP JUMPDEST SWAP3 PUSH2 0xF03 DUP7 PUSH2 0x1F67 JUMP JUMPDEST SWAP6 PUSH1 0x0 JUMPDEST DUP6 MLOAD DUP2 LT ISZERO PUSH2 0xF2E JUMPI DUP1 PUSH2 0xF1E PUSH2 0xF29 SWAP3 DUP11 PUSH2 0x1C9C JUMP JUMPDEST MLOAD PUSH2 0x299 DUP3 DUP10 PUSH2 0x1C9C JUMP JUMPDEST PUSH2 0xF07 JUMP JUMPDEST POP DUP6 DUP4 PUSH1 0x0 MSTORE PUSH1 0x20 SWAP5 PUSH1 0x0 DUP7 MSTORE PUSH1 0x40 PUSH1 0x0 KECCAK256 DUP5 PUSH1 0x0 MSTORE DUP7 MSTORE PUSH1 0x40 PUSH1 0x0 KECCAK256 PUSH2 0xF56 DUP5 DUP3 SLOAD PUSH2 0x1DE3 JUMP JUMPDEST SWAP1 SSTORE DUP4 PUSH1 0x0 PUSH1 0x40 MLOAD DUP8 DUP2 MSTORE DUP6 DUP10 DUP3 ADD MSTORE PUSH32 0xC3D58168C5AE7397731D063D5BBF3D657854427343F4C083240F7AACAA2D0F62 PUSH1 0x40 CALLER SWAP3 LOG4 EXTCODESIZE PUSH2 0xF93 JUMPI STOP JUMPDEST PUSH2 0xFD7 SWAP3 DUP6 SWAP3 PUSH1 0x0 PUSH1 0x40 MLOAD DUP1 SWAP7 DUP2 SWAP6 DUP3 SWAP5 PUSH4 0xF23A6E61 PUSH1 0xE0 SHL SWAP11 DUP12 DUP6 MSTORE CALLER PUSH1 0x4 DUP7 ADD MSTORE DUP6 PUSH1 0x24 DUP7 ADD MSTORE PUSH1 0x44 DUP6 ADD MSTORE PUSH1 0x64 DUP5 ADD MSTORE PUSH1 0xA0 PUSH1 0x84 DUP5 ADD MSTORE PUSH1 0xA4 DUP4 ADD SWAP1 PUSH2 0x1AC0 JUMP JUMPDEST SUB SWAP3 GAS CALL PUSH1 0x0 SWAP2 DUP2 PUSH2 0x58E JUMPI POP PUSH2 0x564 JUMPI POP POP PUSH1 0x1 SWAP1 PUSH2 0x4B7 PUSH2 0x1EDB JUMP JUMPDEST PUSH1 0x40 MLOAD PUSH3 0x461BCD PUSH1 0xE5 SHL DUP2 MSTORE PUSH1 0x20 PUSH1 0x4 DUP3 ADD MSTORE PUSH1 0x21 PUSH1 0x24 DUP3 ADD MSTORE PUSH32 0x455243313135353A206D696E7420746F20746865207A65726F20616464726573 PUSH1 0x44 DUP3 ADD MSTORE PUSH1 0x73 PUSH1 0xF8 SHL PUSH1 0x64 DUP3 ADD MSTORE PUSH1 0x84 SWAP1 REVERT JUMPDEST PUSH1 0x40 MLOAD PUSH3 0x461BCD PUSH1 0xE5 SHL DUP2 MSTORE PUSH1 0x20 PUSH1 0x4 DUP3 ADD MSTORE PUSH1 0x26 PUSH1 0x24 DUP3 ADD MSTORE PUSH32 0x4D61696E6E65742046617273693A20746F6B656E20636F6C6C65637465642061 PUSH1 0x44 DUP3 ADD MSTORE PUSH6 0x6C7265616479 PUSH1 0xD0 SHL PUSH1 0x64 DUP3 ADD MSTORE PUSH1 0x84 SWAP1 REVERT JUMPDEST CALLVALUE PUSH2 0x2F2 JUMPI PUSH1 0x60 CALLDATASIZE PUSH1 0x3 NOT ADD SLT PUSH2 0x2F2 JUMPI PUSH2 0x10B1 PUSH2 0x19FB JUMP JUMPDEST PUSH1 0x24 SWAP1 PUSH1 0x1 PUSH1 0x1 PUSH1 0x40 SHL SUB SWAP1 DUP3 CALLDATALOAD DUP3 DUP2 GT PUSH2 0x2F2 JUMPI PUSH2 0x10D4 SWAP1 CALLDATASIZE SWAP1 PUSH1 0x4 ADD PUSH2 0x1AFC JUMP JUMPDEST SWAP2 PUSH1 0x44 SWAP1 DUP2 CALLDATALOAD SWAP1 DUP2 GT PUSH2 0x2F2 JUMPI PUSH2 0x10EF SWAP1 CALLDATASIZE SWAP1 PUSH1 0x4 ADD PUSH2 0x1AFC JUMP JUMPDEST PUSH1 0x1 PUSH1 0x1 PUSH1 0xA0 SHL SUB SWAP1 SWAP3 AND SWAP3 CALLER DUP5 EQ DUP1 ISZERO PUSH2 0x12C9 JUMPI JUMPDEST PUSH2 0x110E SWAP1 PUSH2 0x1CC6 JUMP JUMPDEST DUP4 ISZERO PUSH2 0x111A DUP2 ISZERO PUSH2 0x1F9C JUMP JUMPDEST PUSH2 0x1127 DUP3 MLOAD DUP6 MLOAD EQ PUSH2 0x1DF0 JUMP JUMPDEST PUSH1 0x0 PUSH1 0x40 MLOAD PUSH2 0x1135 DUP2 PUSH2 0x1A61 JUMP JUMPDEST MSTORE PUSH2 0x1291 JUMPI JUMPDEST PUSH1 0x0 JUMPDEST DUP2 MLOAD DUP2 LT ISZERO PUSH2 0x11D7 JUMPI PUSH2 0x1151 DUP2 DUP4 PUSH2 0x1C9C JUMP JUMPDEST MLOAD PUSH2 0x115C DUP3 DUP7 PUSH2 0x1C9C JUMP JUMPDEST MLOAD SWAP1 DUP1 PUSH1 0x0 MSTORE PUSH1 0x3 PUSH1 0x20 DUP2 DUP2 MSTORE PUSH1 0x40 PUSH1 0x0 KECCAK256 SLOAD SWAP3 DUP5 DUP5 LT PUSH2 0x1195 JUMPI SWAP1 PUSH2 0x1190 SWAP6 SWAP5 SWAP4 SWAP3 SWAP2 PUSH1 0x0 MSTORE MSTORE SUB PUSH1 0x40 PUSH1 0x0 KECCAK256 SSTORE PUSH2 0x1C77 JUMP JUMPDEST PUSH2 0x113E JUMP JUMPDEST PUSH1 0x40 MLOAD PUSH3 0x461BCD PUSH1 0xE5 SHL DUP2 MSTORE PUSH1 0x4 DUP2 ADD DUP4 SWAP1 MSTORE PUSH1 0x28 DUP2 DUP14 ADD MSTORE PUSH1 0x0 DUP1 MLOAD PUSH1 0x20 PUSH2 0x234E DUP4 CODECOPY DUP2 MLOAD SWAP2 MSTORE DUP2 DUP11 ADD MSTORE PUSH8 0x616C537570706C79 PUSH1 0xC0 SHL PUSH1 0x64 DUP3 ADD MSTORE PUSH1 0x84 SWAP1 REVERT JUMPDEST DUP4 DUP3 DUP7 PUSH1 0x0 JUMPDEST DUP3 MLOAD DUP2 LT ISZERO PUSH2 0x124C JUMPI DUP1 PUSH2 0x11F4 PUSH2 0x1247 SWAP3 DUP6 PUSH2 0x1C9C JUMP JUMPDEST MLOAD PUSH2 0x11FF DUP3 DUP8 PUSH2 0x1C9C JUMP JUMPDEST MLOAD SWAP1 DUP1 PUSH1 0x0 MSTORE PUSH1 0x20 PUSH1 0x0 DUP2 MSTORE PUSH1 0x40 PUSH1 0x0 KECCAK256 DUP7 PUSH1 0x0 MSTORE DUP2 MSTORE PUSH1 0x40 PUSH1 0x0 KECCAK256 SLOAD SWAP2 PUSH2 0x1229 DUP5 DUP5 LT ISZERO PUSH2 0x1FF4 JUMP JUMPDEST PUSH1 0x0 MSTORE PUSH1 0x0 DUP2 MSTORE PUSH1 0x40 PUSH1 0x0 KECCAK256 SWAP1 DUP7 PUSH1 0x0 MSTORE MSTORE SUB PUSH1 0x40 PUSH1 0x0 KECCAK256 SSTORE PUSH2 0x1C77 JUMP JUMPDEST PUSH2 0x11DD JUMP JUMPDEST POP SWAP1 PUSH32 0x4A39DC06D4C0DBC64B70AF90FD698A233A518AA5D07E595D983B8C0526C8F7FB PUSH2 0x1283 PUSH1 0x0 SWAP5 PUSH1 0x40 MLOAD SWAP2 DUP3 SWAP2 CALLER SWAP6 DUP4 PUSH2 0x1E4D JUMP JUMPDEST SUB SWAP1 LOG4 PUSH2 0x26D PUSH1 0x40 MLOAD PUSH2 0x1A61 JUMP JUMPDEST SWAP3 PUSH1 0x0 SWAP5 SWAP2 SWAP5 JUMPDEST DUP5 MLOAD DUP2 LT ISZERO PUSH2 0x12BF JUMPI DUP1 PUSH2 0x12AF PUSH2 0x12BA SWAP3 DUP7 PUSH2 0x1C9C JUMP JUMPDEST MLOAD PUSH2 0x299 DUP3 DUP9 PUSH2 0x1C9C JUMP JUMPDEST PUSH2 0x1298 JUMP JUMPDEST POP SWAP3 SWAP4 SWAP1 SWAP4 PUSH2 0x113B JUMP JUMPDEST POP DUP4 PUSH1 0x0 MSTORE PUSH1 0x1 PUSH1 0x20 MSTORE PUSH1 0x40 PUSH1 0x0 KECCAK256 CALLER PUSH1 0x0 MSTORE PUSH1 0x20 MSTORE PUSH2 0x110E PUSH1 0xFF PUSH1 0x40 PUSH1 0x0 KECCAK256 SLOAD AND SWAP1 POP PUSH2 0x1105 JUMP JUMPDEST CALLVALUE PUSH2 0x2F2 JUMPI PUSH1 0x20 CALLDATASIZE PUSH1 0x3 NOT ADD SLT PUSH2 0x2F2 JUMPI PUSH1 0x4 CALLDATALOAD PUSH1 0x0 MSTORE PUSH1 0x3 PUSH1 0x20 MSTORE PUSH1 0x20 PUSH1 0x40 PUSH1 0x0 KECCAK256 SLOAD ISZERO ISZERO PUSH1 0x40 MLOAD SWAP1 DUP2 MSTORE RETURN JUMPDEST CALLVALUE PUSH2 0x2F2 JUMPI PUSH1 0x40 CALLDATASIZE PUSH1 0x3 NOT ADD SLT PUSH2 0x2F2 JUMPI PUSH1 0x4 CALLDATALOAD PUSH1 0x1 PUSH1 0x1 PUSH1 0x40 SHL SUB DUP1 DUP3 GT PUSH2 0x2F2 JUMPI CALLDATASIZE PUSH1 0x23 DUP4 ADD SLT ISZERO PUSH2 0x2F2 JUMPI DUP2 PUSH1 0x4 ADD CALLDATALOAD SWAP1 PUSH2 0x135D DUP3 PUSH2 0x1AE5 JUMP JUMPDEST SWAP3 PUSH2 0x136B PUSH1 0x40 MLOAD SWAP5 DUP6 PUSH2 0x1A7C JUMP JUMPDEST DUP3 DUP5 MSTORE PUSH1 0x20 SWAP3 PUSH1 0x24 DUP5 DUP7 ADD SWAP2 PUSH1 0x5 SHL DUP4 ADD ADD SWAP2 CALLDATASIZE DUP4 GT PUSH2 0x2F2 JUMPI PUSH1 0x24 ADD SWAP1 JUMPDEST DUP3 DUP3 LT PUSH2 0x149F JUMPI POP POP POP PUSH1 0x24 CALLDATALOAD SWAP1 DUP2 GT PUSH2 0x2F2 JUMPI PUSH2 0x13AC SWAP1 CALLDATASIZE SWAP1 PUSH1 0x4 ADD PUSH2 0x1AFC JUMP JUMPDEST DUP3 MLOAD DUP2 MLOAD SUB PUSH2 0x1448 JUMPI DUP3 MLOAD SWAP3 PUSH2 0x13C1 DUP5 PUSH2 0x1AE5 JUMP JUMPDEST SWAP4 PUSH2 0x13CF PUSH1 0x40 MLOAD SWAP6 DUP7 PUSH2 0x1A7C JUMP JUMPDEST DUP1 DUP6 MSTORE PUSH2 0x13DE PUSH1 0x1F NOT SWAP2 PUSH2 0x1AE5 JUMP JUMPDEST ADD CALLDATASIZE DUP5 DUP7 ADD CALLDATACOPY PUSH1 0x0 JUMPDEST DUP2 MLOAD DUP2 LT ISZERO PUSH2 0x1431 JUMPI PUSH2 0x142C SWAP1 PUSH2 0x141C PUSH1 0x1 PUSH1 0x1 PUSH1 0xA0 SHL SUB PUSH2 0x1409 DUP4 DUP7 PUSH2 0x1C9C JUMP JUMPDEST MLOAD AND PUSH2 0x1415 DUP4 DUP8 PUSH2 0x1C9C JUMP JUMPDEST MLOAD SWAP1 PUSH2 0x1BF2 JUMP JUMPDEST PUSH2 0x1426 DUP3 DUP9 PUSH2 0x1C9C JUMP JUMPDEST MSTORE PUSH2 0x1C77 JUMP JUMPDEST PUSH2 0x13E7 JUMP JUMPDEST POP POP POP PUSH2 0xBEB PUSH1 0x40 MLOAD SWAP3 DUP3 DUP5 SWAP4 DUP5 MSTORE DUP4 ADD SWAP1 PUSH2 0x1BBE JUMP JUMPDEST PUSH1 0x40 MLOAD PUSH3 0x461BCD PUSH1 0xE5 SHL DUP2 MSTORE PUSH1 0x4 DUP2 ADD DUP4 SWAP1 MSTORE PUSH1 0x29 PUSH1 0x24 DUP3 ADD MSTORE PUSH32 0x455243313135353A206163636F756E747320616E6420696473206C656E677468 PUSH1 0x44 DUP3 ADD MSTORE PUSH9 0x40DAD2E6DAC2E8C6D PUSH1 0xBB SHL PUSH1 0x64 DUP3 ADD MSTORE PUSH1 0x84 SWAP1 REVERT JUMPDEST DUP2 CALLDATALOAD PUSH1 0x1 PUSH1 0x1 PUSH1 0xA0 SHL SUB DUP2 AND DUP2 SUB PUSH2 0x2F2 JUMPI DUP2 MSTORE SWAP1 DUP5 ADD SWAP1 DUP5 ADD PUSH2 0x138A JUMP JUMPDEST CALLVALUE PUSH2 0x2F2 JUMPI PUSH1 0x3 NOT PUSH1 0xA0 CALLDATASIZE DUP3 ADD SLT PUSH2 0x2F2 JUMPI PUSH2 0x14D8 PUSH2 0x19FB JUMP JUMPDEST SWAP1 PUSH2 0x14E1 PUSH2 0x1A11 JUMP JUMPDEST PUSH1 0x44 SWAP1 DUP2 CALLDATALOAD SWAP3 PUSH1 0x1 PUSH1 0x1 PUSH1 0x40 SHL SUB SWAP4 DUP5 DUP2 GT PUSH2 0x2F2 JUMPI PUSH2 0x1505 SWAP1 CALLDATASIZE SWAP1 PUSH1 0x4 ADD PUSH2 0x1AFC JUMP JUMPDEST PUSH1 0x64 DUP1 CALLDATALOAD DUP7 DUP2 GT PUSH2 0x2F2 JUMPI PUSH2 0x151E SWAP1 CALLDATASIZE SWAP1 PUSH1 0x4 ADD PUSH2 0x1AFC JUMP JUMPDEST SWAP5 PUSH1 0x84 SWAP7 DUP8 CALLDATALOAD SWAP1 DUP2 GT PUSH2 0x2F2 JUMPI PUSH2 0x1539 SWAP1 CALLDATASIZE SWAP1 PUSH1 0x4 ADD PUSH2 0x1BA0 JUMP JUMPDEST PUSH1 0x1 PUSH1 0x1 PUSH1 0xA0 SHL SUB SWAP5 DUP10 DUP7 AND CALLER EQ DUP1 ISZERO PUSH2 0x186E JUMPI JUMPDEST PUSH2 0x1557 SWAP1 PUSH2 0x1CC6 JUMP JUMPDEST PUSH2 0x1564 DUP6 MLOAD DUP10 MLOAD EQ PUSH2 0x1DF0 JUMP JUMPDEST DUP6 DUP8 AND ISZERO PUSH2 0x1572 DUP2 ISZERO PUSH2 0x1D2A JUMP JUMPDEST DUP7 DUP12 AND ISZERO PUSH2 0x182B JUMPI JUMPDEST PUSH2 0x1776 JUMPI JUMPDEST PUSH1 0x0 JUMPDEST DUP6 MLOAD DUP2 LT ISZERO PUSH2 0x1619 JUMPI DUP1 PUSH2 0x159A PUSH2 0x1614 SWAP3 DUP9 PUSH2 0x1C9C JUMP JUMPDEST MLOAD DUP13 PUSH2 0x15A6 DUP4 DUP14 PUSH2 0x1C9C JUMP JUMPDEST MLOAD SWAP2 DUP1 PUSH1 0x0 MSTORE DUP3 PUSH1 0x20 SWAP3 PUSH1 0x0 DUP5 MSTORE PUSH1 0x40 PUSH1 0x0 KECCAK256 DUP14 DUP3 AND PUSH1 0x0 MSTORE DUP5 MSTORE PUSH1 0x40 PUSH1 0x0 KECCAK256 SLOAD SWAP1 PUSH2 0x15D4 DUP4 DUP4 LT ISZERO PUSH2 0x1D84 JUMP JUMPDEST DUP4 PUSH1 0x0 MSTORE PUSH1 0x0 DUP6 MSTORE DUP14 PUSH1 0x40 PUSH1 0x0 KECCAK256 SWAP2 AND PUSH1 0x0 MSTORE DUP5 MSTORE SUB PUSH1 0x40 PUSH1 0x0 KECCAK256 SSTORE PUSH1 0x0 MSTORE PUSH1 0x0 DUP2 MSTORE PUSH1 0x40 PUSH1 0x0 KECCAK256 SWAP1 DUP11 DUP13 AND PUSH1 0x0 MSTORE MSTORE PUSH2 0x2B2 PUSH1 0x40 PUSH1 0x0 KECCAK256 SWAP2 DUP3 SLOAD PUSH2 0x1DE3 JUMP JUMPDEST PUSH2 0x1583 JUMP JUMPDEST POP DUP9 DUP11 SWAP9 SWAP8 SWAP7 SWAP5 SWAP8 DUP10 PUSH1 0x40 MLOAD DUP9 PUSH32 0x4A39DC06D4C0DBC64B70AF90FD698A233A518AA5D07E595D983B8C0526C8F7FB DUP10 DUP1 DUP14 AND SWAP5 AND SWAP3 DUP1 PUSH2 0x165B DUP8 CALLER SWAP6 DUP4 PUSH2 0x1E4D JUMP JUMPDEST SUB SWAP1 LOG4 DUP8 EXTCODESIZE PUSH2 0x1666 JUMPI STOP JUMPDEST PUSH1 0x40 MLOAD SWAP9 DUP10 SWAP8 DUP9 SWAP7 DUP9 PUSH4 0xBC197C81 PUSH1 0xE0 SHL SWAP14 DUP15 DUP11 MSTORE CALLER PUSH1 0x4 DUP12 ADD MSTORE AND PUSH1 0x24 DUP10 ADD MSTORE DUP8 ADD PUSH1 0xA0 SWAP1 MSTORE PUSH1 0xA4 DUP8 ADD PUSH2 0x169A SWAP2 PUSH2 0x1BBE JUMP JUMPDEST SWAP1 DUP5 DUP8 DUP4 SUB ADD SWAP1 DUP8 ADD MSTORE PUSH2 0x16AD SWAP2 PUSH2 0x1BBE JUMP JUMPDEST SWAP2 DUP5 DUP4 SUB ADD SWAP1 DUP5 ADD MSTORE PUSH2 0x16BF SWAP2 PUSH2 0x1AC0 JUMP JUMPDEST SUB SWAP3 AND SWAP2 DUP2 GAS PUSH1 0x20 SWAP5 PUSH1 0x0 SWAP2 CALL PUSH1 0x0 SWAP2 DUP2 PUSH2 0x1756 JUMPI JUMPDEST POP PUSH2 0x172E JUMPI POP POP PUSH1 0x1 PUSH2 0x16E6 PUSH2 0x1EDB JUMP JUMPDEST PUSH4 0x8C379A0 EQ PUSH2 0x16F7 JUMPI JUMPDEST PUSH2 0x4C9 JUMPI STOP JUMPDEST PUSH2 0x16FF PUSH2 0x1EF9 JUMP JUMPDEST DUP1 PUSH2 0x170A JUMPI POP PUSH2 0x16F1 JUMP JUMPDEST PUSH1 0x40 MLOAD PUSH3 0x461BCD PUSH1 0xE5 SHL DUP2 MSTORE PUSH1 0x20 PUSH1 0x4 DUP3 ADD MSTORE SWAP1 DUP2 SWAP1 PUSH2 0x52B SWAP1 PUSH1 0x24 DUP4 ADD SWAP1 PUSH2 0x1AC0 JUMP JUMPDEST PUSH1 0x1 PUSH1 0x1 PUSH1 0xE0 SHL SUB NOT AND EQ PUSH2 0x26D JUMPI PUSH1 0x40 MLOAD PUSH3 0x461BCD PUSH1 0xE5 SHL DUP2 MSTORE DUP1 PUSH2 0x52B PUSH1 0x4 DUP3 ADD PUSH2 0x1E92 JUMP JUMPDEST PUSH2 0x176F SWAP2 SWAP3 POP PUSH1 0x20 RETURNDATASIZE DUP2 GT PUSH2 0x5B6 JUMPI PUSH2 0x5A7 DUP2 DUP4 PUSH2 0x1A7C JUMP JUMPDEST SWAP1 DUP4 PUSH2 0x16D5 JUMP JUMPDEST SWAP8 SWAP7 SWAP5 SWAP1 PUSH1 0x0 SWAP10 SWAP4 SWAP10 SWAP7 SWAP3 SWAP7 JUMPDEST DUP6 MLOAD DUP2 LT ISZERO PUSH2 0x181B JUMPI PUSH2 0x1796 DUP2 DUP8 PUSH2 0x1C9C JUMP JUMPDEST MLOAD PUSH2 0x17A1 DUP3 DUP10 PUSH2 0x1C9C JUMP JUMPDEST MLOAD SWAP1 DUP1 PUSH1 0x0 MSTORE PUSH1 0x20 PUSH1 0x3 DUP2 MSTORE PUSH1 0x40 PUSH1 0x0 KECCAK256 SLOAD SWAP2 DUP4 DUP4 LT PUSH2 0x17DA JUMPI PUSH2 0x17D5 SWAP5 SWAP4 SWAP3 SWAP2 PUSH1 0x3 SWAP2 PUSH1 0x0 MSTORE MSTORE SUB PUSH1 0x40 PUSH1 0x0 KECCAK256 SSTORE PUSH2 0x1C77 JUMP JUMPDEST PUSH2 0x1783 JUMP JUMPDEST POP DUP12 SWAP1 PUSH8 0x616C537570706C79 PUSH1 0xC0 SHL DUP16 PUSH1 0x0 DUP1 MLOAD PUSH1 0x20 PUSH2 0x234E DUP4 CODECOPY DUP2 MLOAD SWAP2 MSTORE DUP15 PUSH1 0x40 MLOAD SWAP5 PUSH3 0x461BCD PUSH1 0xE5 SHL DUP7 MSTORE PUSH1 0x4 DUP7 ADD MSTORE PUSH1 0x28 PUSH1 0x24 DUP7 ADD MSTORE DUP5 ADD MSTORE DUP3 ADD MSTORE REVERT JUMPDEST POP SWAP1 SWAP5 SWAP7 SWAP8 SWAP9 SWAP3 SWAP9 SWAP6 SWAP2 SWAP6 PUSH2 0x1580 JUMP JUMPDEST SWAP10 SWAP7 SWAP5 SWAP9 SWAP6 SWAP4 SWAP3 SWAP2 SWAP1 PUSH1 0x0 JUMPDEST DUP11 MLOAD DUP2 LT ISZERO PUSH2 0x185F JUMPI DUP1 DUP12 PUSH2 0x299 DUP3 PUSH2 0x1853 PUSH2 0x185A SWAP6 DUP16 PUSH2 0x1C9C JUMP JUMPDEST MLOAD SWAP3 PUSH2 0x1C9C JUMP JUMPDEST PUSH2 0x1837 JUMP JUMPDEST POP SWAP1 SWAP2 SWAP3 SWAP4 SWAP6 SWAP9 SWAP5 SWAP7 SWAP10 PUSH2 0x157B JUMP JUMPDEST POP DUP6 DUP11 AND PUSH1 0x0 MSTORE PUSH1 0x1 PUSH1 0x20 MSTORE PUSH1 0x40 PUSH1 0x0 KECCAK256 CALLER PUSH1 0x0 MSTORE PUSH1 0x20 MSTORE PUSH2 0x1557 PUSH1 0xFF PUSH1 0x40 PUSH1 0x0 KECCAK256 SLOAD AND SWAP1 POP PUSH2 0x154E JUMP JUMPDEST CALLVALUE PUSH2 0x2F2 JUMPI PUSH1 0x20 CALLDATASIZE PUSH1 0x3 NOT ADD SLT PUSH2 0x2F2 JUMPI PUSH2 0xBEB PUSH2 0xBD7 PUSH1 0x4 CALLDATALOAD PUSH2 0x210E JUMP JUMPDEST CALLVALUE PUSH2 0x2F2 JUMPI PUSH1 0x0 CALLDATASIZE PUSH1 0x3 NOT ADD SLT PUSH2 0x2F2 JUMPI PUSH1 0x40 MLOAD PUSH1 0x0 PUSH1 0x8 SLOAD PUSH2 0x18DA DUP2 PUSH2 0x1A27 JUMP JUMPDEST DUP1 DUP5 MSTORE SWAP1 PUSH1 0x1 SWAP1 DUP2 DUP2 AND SWAP1 DUP2 ISZERO PUSH2 0xC4A JUMPI POP PUSH1 0x1 EQ PUSH2 0x1903 JUMPI PUSH2 0xBEB DUP5 PUSH2 0xBD7 DUP2 DUP7 SUB DUP3 PUSH2 0x1A7C JUMP JUMPDEST PUSH1 0x8 PUSH1 0x0 SWAP1 DUP2 MSTORE SWAP3 POP PUSH32 0xF3F7A9FE364FAAB93B216DA50A3214154F22A0A2B415B23A84C8169E8B636EE3 JUMPDEST DUP3 DUP5 LT PUSH2 0x1946 JUMPI POP POP POP DUP2 ADD PUSH1 0x20 ADD PUSH2 0xBD7 DUP3 PUSH2 0xBC7 JUMP JUMPDEST DUP1 SLOAD PUSH1 0x20 DUP6 DUP8 ADD DUP2 ADD SWAP2 SWAP1 SWAP2 MSTORE SWAP1 SWAP4 ADD SWAP3 DUP2 ADD PUSH2 0x192E JUMP JUMPDEST CALLVALUE PUSH2 0x2F2 JUMPI PUSH1 0x20 CALLDATASIZE PUSH1 0x3 NOT ADD SLT PUSH2 0x2F2 JUMPI PUSH1 0x4 CALLDATALOAD PUSH4 0xFFFFFFFF PUSH1 0xE0 SHL DUP2 AND DUP1 SWAP2 SUB PUSH2 0x2F2 JUMPI PUSH1 0x20 SWAP1 PUSH4 0x6CDB3D13 PUSH1 0xE1 SHL DUP2 EQ SWAP1 DUP2 ISZERO PUSH2 0x19BB JUMPI JUMPDEST DUP2 ISZERO PUSH2 0x19AA JUMPI JUMPDEST POP PUSH1 0x40 MLOAD SWAP1 ISZERO ISZERO DUP2 MSTORE RETURN JUMPDEST PUSH4 0x1FFC9A7 PUSH1 0xE0 SHL EQ SWAP1 POP DUP3 PUSH2 0x199F JUMP JUMPDEST PUSH4 0x3A24D07 PUSH1 0xE2 SHL DUP2 EQ SWAP2 POP PUSH2 0x1998 JUMP JUMPDEST CALLVALUE PUSH2 0x2F2 JUMPI PUSH1 0x40 CALLDATASIZE PUSH1 0x3 NOT ADD SLT PUSH2 0x2F2 JUMPI PUSH1 0x20 PUSH2 0x19F3 PUSH2 0x19EA PUSH2 0x19FB JUMP JUMPDEST PUSH1 0x24 CALLDATALOAD SWAP1 PUSH2 0x1BF2 JUMP JUMPDEST PUSH1 0x40 MLOAD SWAP1 DUP2 MSTORE RETURN JUMPDEST PUSH1 0x4 CALLDATALOAD SWAP1 PUSH1 0x1 PUSH1 0x1 PUSH1 0xA0 SHL SUB DUP3 AND DUP3 SUB PUSH2 0x2F2 JUMPI JUMP JUMPDEST PUSH1 0x24 CALLDATALOAD SWAP1 PUSH1 0x1 PUSH1 0x1 PUSH1 0xA0 SHL SUB DUP3 AND DUP3 SUB PUSH2 0x2F2 JUMPI JUMP JUMPDEST SWAP1 PUSH1 0x1 DUP3 DUP2 SHR SWAP3 AND DUP1 ISZERO PUSH2 0x1A57 JUMPI JUMPDEST PUSH1 0x20 DUP4 LT EQ PUSH2 0x1A41 JUMPI JUMP JUMPDEST PUSH4 0x4E487B71 PUSH1 0xE0 SHL PUSH1 0x0 MSTORE PUSH1 0x22 PUSH1 0x4 MSTORE PUSH1 0x24 PUSH1 0x0 REVERT JUMPDEST SWAP2 PUSH1 0x7F AND SWAP2 PUSH2 0x1A36 JUMP JUMPDEST PUSH1 0x20 DUP2 ADD SWAP1 DUP2 LT PUSH1 0x1 PUSH1 0x1 PUSH1 0x40 SHL SUB DUP3 GT OR PUSH2 0x996 JUMPI PUSH1 0x40 MSTORE JUMP JUMPDEST SWAP1 PUSH1 0x1F DUP1 NOT SWAP2 ADD AND DUP2 ADD SWAP1 DUP2 LT PUSH1 0x1 PUSH1 0x1 PUSH1 0x40 SHL SUB DUP3 GT OR PUSH2 0x996 JUMPI PUSH1 0x40 MSTORE JUMP JUMPDEST PUSH1 0x0 JUMPDEST DUP4 DUP2 LT PUSH2 0x1AB0 JUMPI POP POP PUSH1 0x0 SWAP2 ADD MSTORE JUMP JUMPDEST DUP2 DUP2 ADD MLOAD DUP4 DUP3 ADD MSTORE PUSH1 0x20 ADD PUSH2 0x1AA0 JUMP JUMPDEST SWAP1 PUSH1 0x20 SWAP2 PUSH2 0x1AD9 DUP2 MLOAD DUP1 SWAP3 DUP2 DUP6 MSTORE DUP6 DUP1 DUP7 ADD SWAP2 ADD PUSH2 0x1A9D JUMP JUMPDEST PUSH1 0x1F ADD PUSH1 0x1F NOT AND ADD ADD SWAP1 JUMP JUMPDEST PUSH1 0x1 PUSH1 0x1 PUSH1 0x40 SHL SUB DUP2 GT PUSH2 0x996 JUMPI PUSH1 0x5 SHL PUSH1 0x20 ADD SWAP1 JUMP JUMPDEST DUP2 PUSH1 0x1F DUP3 ADD SLT ISZERO PUSH2 0x2F2 JUMPI DUP1 CALLDATALOAD SWAP2 PUSH2 0x1B13 DUP4 PUSH2 0x1AE5 JUMP JUMPDEST SWAP3 PUSH2 0x1B21 PUSH1 0x40 MLOAD SWAP5 DUP6 PUSH2 0x1A7C JUMP JUMPDEST DUP1 DUP5 MSTORE PUSH1 0x20 SWAP3 DUP4 DUP1 DUP7 ADD SWAP3 PUSH1 0x5 SHL DUP3 ADD ADD SWAP3 DUP4 GT PUSH2 0x2F2 JUMPI DUP4 ADD SWAP1 JUMPDEST DUP3 DUP3 LT PUSH2 0x1B4B JUMPI POP POP POP POP SWAP1 JUMP JUMPDEST DUP2 CALLDATALOAD DUP2 MSTORE SWAP1 DUP4 ADD SWAP1 DUP4 ADD PUSH2 0x1B3D JUMP JUMPDEST SWAP3 SWAP2 SWAP3 PUSH1 0x1 PUSH1 0x1 PUSH1 0x40 SHL SUB DUP3 GT PUSH2 0x996 JUMPI PUSH1 0x40 MLOAD SWAP2 PUSH2 0x1B83 PUSH1 0x1F DUP3 ADD PUSH1 0x1F NOT AND PUSH1 0x20 ADD DUP5 PUSH2 0x1A7C JUMP JUMPDEST DUP3 SWAP5 DUP2 DUP5 MSTORE DUP2 DUP4 ADD GT PUSH2 0x2F2 JUMPI DUP3 DUP2 PUSH1 0x20 SWAP4 DUP5 PUSH1 0x0 SWAP7 ADD CALLDATACOPY ADD ADD MSTORE JUMP JUMPDEST SWAP1 DUP1 PUSH1 0x1F DUP4 ADD SLT ISZERO PUSH2 0x2F2 JUMPI DUP2 PUSH1 0x20 PUSH2 0x1BBB SWAP4 CALLDATALOAD SWAP2 ADD PUSH2 0x1B5A JUMP JUMPDEST SWAP1 JUMP JUMPDEST SWAP1 DUP2 MLOAD DUP1 DUP3 MSTORE PUSH1 0x20 DUP1 DUP1 SWAP4 ADD SWAP4 ADD SWAP2 PUSH1 0x0 JUMPDEST DUP3 DUP2 LT PUSH2 0x1BDE JUMPI POP POP POP POP SWAP1 JUMP JUMPDEST DUP4 MLOAD DUP6 MSTORE SWAP4 DUP2 ADD SWAP4 SWAP3 DUP2 ADD SWAP3 PUSH1 0x1 ADD PUSH2 0x1BD0 JUMP JUMPDEST PUSH1 0x1 PUSH1 0x1 PUSH1 0xA0 SHL SUB AND SWAP1 DUP2 ISZERO PUSH2 0x1C1F JUMPI PUSH1 0x0 MSTORE PUSH1 0x0 PUSH1 0x20 MSTORE PUSH1 0x40 PUSH1 0x0 KECCAK256 SWAP1 PUSH1 0x0 MSTORE PUSH1 0x20 MSTORE PUSH1 0x40 PUSH1 0x0 KECCAK256 SLOAD SWAP1 JUMP JUMPDEST PUSH1 0x40 MLOAD PUSH3 0x461BCD PUSH1 0xE5 SHL DUP2 MSTORE PUSH1 0x20 PUSH1 0x4 DUP3 ADD MSTORE PUSH1 0x2A PUSH1 0x24 DUP3 ADD MSTORE PUSH32 0x455243313135353A2061646472657373207A65726F206973206E6F7420612076 PUSH1 0x44 DUP3 ADD MSTORE PUSH10 0x30B634B21037BBB732B9 PUSH1 0xB1 SHL PUSH1 0x64 DUP3 ADD MSTORE PUSH1 0x84 SWAP1 REVERT JUMPDEST PUSH1 0x0 NOT DUP2 EQ PUSH2 0x1C86 JUMPI PUSH1 0x1 ADD SWAP1 JUMP JUMPDEST PUSH4 0x4E487B71 PUSH1 0xE0 SHL PUSH1 0x0 MSTORE PUSH1 0x11 PUSH1 0x4 MSTORE PUSH1 0x24 PUSH1 0x0 REVERT JUMPDEST DUP1 MLOAD DUP3 LT ISZERO PUSH2 0x1CB0 JUMPI PUSH1 0x20 SWAP2 PUSH1 0x5 SHL ADD ADD SWAP1 JUMP JUMPDEST PUSH4 0x4E487B71 PUSH1 0xE0 SHL PUSH1 0x0 MSTORE PUSH1 0x32 PUSH1 0x4 MSTORE PUSH1 0x24 PUSH1 0x0 REVERT JUMPDEST ISZERO PUSH2 0x1CCD JUMPI JUMP JUMPDEST PUSH1 0x40 MLOAD PUSH3 0x461BCD PUSH1 0xE5 SHL DUP2 MSTORE PUSH1 0x20 PUSH1 0x4 DUP3 ADD MSTORE PUSH1 0x2F PUSH1 0x24 DUP3 ADD MSTORE PUSH32 0x455243313135353A2063616C6C6572206973206E6F7420746F6B656E206F776E PUSH1 0x44 DUP3 ADD MSTORE PUSH15 0x195C881B9BDC88185C1C1C9BDD9959 PUSH1 0x8A SHL PUSH1 0x64 DUP3 ADD MSTORE PUSH1 0x84 SWAP1 REVERT JUMPDEST ISZERO PUSH2 0x1D31 JUMPI JUMP JUMPDEST PUSH1 0x40 MLOAD PUSH3 0x461BCD PUSH1 0xE5 SHL DUP2 MSTORE PUSH1 0x20 PUSH1 0x4 DUP3 ADD MSTORE PUSH1 0x25 PUSH1 0x24 DUP3 ADD MSTORE PUSH32 0x455243313135353A207472616E7366657220746F20746865207A65726F206164 PUSH1 0x44 DUP3 ADD MSTORE PUSH5 0x6472657373 PUSH1 0xD8 SHL PUSH1 0x64 DUP3 ADD MSTORE PUSH1 0x84 SWAP1 REVERT JUMPDEST ISZERO PUSH2 0x1D8B JUMPI JUMP JUMPDEST PUSH1 0x40 MLOAD PUSH3 0x461BCD PUSH1 0xE5 SHL DUP2 MSTORE PUSH1 0x20 PUSH1 0x4 DUP3 ADD MSTORE PUSH1 0x2A PUSH1 0x24 DUP3 ADD MSTORE PUSH32 0x455243313135353A20696E73756666696369656E742062616C616E636520666F PUSH1 0x44 DUP3 ADD MSTORE PUSH10 0x39103A3930B739B332B9 PUSH1 0xB1 SHL PUSH1 0x64 DUP3 ADD MSTORE PUSH1 0x84 SWAP1 REVERT JUMPDEST SWAP2 SWAP1 DUP3 ADD DUP1 SWAP3 GT PUSH2 0x1C86 JUMPI JUMP JUMPDEST ISZERO PUSH2 0x1DF7 JUMPI JUMP JUMPDEST PUSH1 0x40 MLOAD PUSH3 0x461BCD PUSH1 0xE5 SHL DUP2 MSTORE PUSH1 0x20 PUSH1 0x4 DUP3 ADD MSTORE PUSH1 0x28 PUSH1 0x24 DUP3 ADD MSTORE PUSH32 0x455243313135353A2069647320616E6420616D6F756E7473206C656E67746820 PUSH1 0x44 DUP3 ADD MSTORE PUSH8 0xDAD2E6DAC2E8C6D PUSH1 0xC3 SHL PUSH1 0x64 DUP3 ADD MSTORE PUSH1 0x84 SWAP1 REVERT JUMPDEST SWAP1 SWAP2 PUSH2 0x1E64 PUSH2 0x1BBB SWAP4 PUSH1 0x40 DUP5 MSTORE PUSH1 0x40 DUP5 ADD SWAP1 PUSH2 0x1BBE JUMP JUMPDEST SWAP2 PUSH1 0x20 DUP2 DUP5 SUB SWAP2 ADD MSTORE PUSH2 0x1BBE JUMP JUMPDEST SWAP1 DUP2 PUSH1 0x20 SWAP2 SUB SLT PUSH2 0x2F2 JUMPI MLOAD PUSH1 0x1 PUSH1 0x1 PUSH1 0xE0 SHL SUB NOT DUP2 AND DUP2 SUB PUSH2 0x2F2 JUMPI SWAP1 JUMP JUMPDEST PUSH1 0x80 SWAP1 PUSH1 0x20 DUP2 MSTORE PUSH1 0x28 PUSH1 0x20 DUP3 ADD MSTORE PUSH32 0x455243313135353A204552433131353552656365697665722072656A65637465 PUSH1 0x40 DUP3 ADD MSTORE PUSH8 0x6420746F6B656E73 PUSH1 0xC0 SHL PUSH1 0x60 DUP3 ADD MSTORE ADD SWAP1 JUMP JUMPDEST PUSH1 0x0 SWAP1 PUSH1 0x3 RETURNDATASIZE GT PUSH2 0x1EE8 JUMPI JUMP JUMPDEST SWAP1 POP PUSH1 0x4 PUSH1 0x0 DUP1 RETURNDATACOPY PUSH1 0x0 MLOAD PUSH1 0xE0 SHR SWAP1 JUMP JUMPDEST PUSH1 0x0 PUSH1 0x44 RETURNDATASIZE LT PUSH2 0x1BBB JUMPI PUSH1 0x40 MLOAD PUSH1 0x3 NOT SWAP2 RETURNDATASIZE DUP4 ADD PUSH1 0x4 DUP4 RETURNDATACOPY DUP2 MLOAD PUSH1 0x1 PUSH1 0x1 PUSH1 0x40 SHL SUB SWAP2 DUP3 DUP3 GT RETURNDATASIZE PUSH1 0x24 DUP5 ADD GT OR PUSH2 0x1F56 JUMPI DUP2 DUP5 ADD SWAP5 DUP6 MLOAD SWAP4 DUP5 GT PUSH2 0x1F5E JUMPI RETURNDATASIZE DUP6 ADD ADD PUSH1 0x20 DUP5 DUP8 ADD ADD GT PUSH2 0x1F56 JUMPI POP PUSH2 0x1BBB SWAP3 SWAP2 ADD PUSH1 0x20 ADD SWAP1 PUSH2 0x1A7C JUMP JUMPDEST SWAP5 SWAP4 POP POP POP POP JUMP JUMPDEST POP SWAP5 SWAP4 POP POP POP POP JUMP JUMPDEST PUSH1 0x40 MLOAD SWAP1 PUSH1 0x40 DUP3 ADD DUP3 DUP2 LT PUSH1 0x1 PUSH1 0x1 PUSH1 0x40 SHL SUB DUP3 GT OR PUSH2 0x996 JUMPI PUSH1 0x40 MSTORE PUSH1 0x1 DUP3 MSTORE PUSH1 0x20 DUP3 ADD PUSH1 0x20 CALLDATASIZE DUP3 CALLDATACOPY DUP3 MLOAD ISZERO PUSH2 0x1CB0 JUMPI MSTORE SWAP1 JUMP JUMPDEST ISZERO PUSH2 0x1FA3 JUMPI JUMP JUMPDEST PUSH1 0x40 MLOAD PUSH3 0x461BCD PUSH1 0xE5 SHL DUP2 MSTORE PUSH1 0x20 PUSH1 0x4 DUP3 ADD MSTORE PUSH1 0x23 PUSH1 0x24 DUP3 ADD MSTORE PUSH32 0x455243313135353A206275726E2066726F6D20746865207A65726F2061646472 PUSH1 0x44 DUP3 ADD MSTORE PUSH3 0x657373 PUSH1 0xE8 SHL PUSH1 0x64 DUP3 ADD MSTORE PUSH1 0x84 SWAP1 REVERT JUMPDEST ISZERO PUSH2 0x1FFB JUMPI JUMP JUMPDEST PUSH1 0x40 MLOAD PUSH3 0x461BCD PUSH1 0xE5 SHL DUP2 MSTORE PUSH1 0x20 PUSH1 0x4 DUP3 ADD MSTORE PUSH1 0x24 DUP1 DUP3 ADD MSTORE PUSH32 0x455243313135353A206275726E20616D6F756E7420657863656564732062616C PUSH1 0x44 DUP3 ADD MSTORE PUSH4 0x616E6365 PUSH1 0xE0 SHL PUSH1 0x64 DUP3 ADD MSTORE PUSH1 0x84 SWAP1 REVERT JUMPDEST ISZERO PUSH2 0x2053 JUMPI JUMP JUMPDEST PUSH1 0x40 MLOAD PUSH3 0x461BCD PUSH1 0xE5 SHL DUP2 MSTORE PUSH1 0x20 PUSH1 0x4 DUP3 ADD MSTORE PUSH1 0x2B PUSH1 0x24 DUP3 ADD MSTORE PUSH32 0x496E697469616C697A61626C653A20636F6E7472616374206973206E6F742069 PUSH1 0x44 DUP3 ADD MSTORE PUSH11 0x6E697469616C697A696E67 PUSH1 0xA8 SHL PUSH1 0x64 DUP3 ADD MSTORE PUSH1 0x84 SWAP1 REVERT JUMPDEST ISZERO PUSH2 0x20B3 JUMPI JUMP JUMPDEST PUSH1 0x40 MLOAD PUSH3 0x461BCD PUSH1 0xE5 SHL DUP2 MSTORE PUSH1 0x20 PUSH1 0x4 DUP3 ADD MSTORE PUSH1 0x2D PUSH1 0x24 DUP3 ADD MSTORE PUSH32 0x4B617469626568313135353A2072657374726963746564206163636573732074 PUSH1 0x44 DUP3 ADD MSTORE PUSH13 0x6F2074686520466163746F7279 PUSH1 0x98 SHL PUSH1 0x64 DUP3 ADD MSTORE PUSH1 0x84 SWAP1 REVERT JUMPDEST PUSH1 0x0 SWAP1 DUP2 MSTORE PUSH1 0x20 SWAP1 PUSH1 0x5 DUP3 MSTORE PUSH1 0x40 DUP2 KECCAK256 SWAP1 PUSH1 0x40 MLOAD SWAP1 DUP1 SWAP2 DUP4 SLOAD SWAP3 DUP2 PUSH2 0x2132 DUP6 PUSH2 0x1A27 JUMP JUMPDEST SWAP2 DUP3 DUP3 MSTORE DUP8 DUP3 ADD SWAP7 PUSH1 0x1 SWAP7 DUP10 DUP9 DUP3 AND SWAP2 DUP3 PUSH1 0x0 EQ PUSH2 0x232F JUMPI POP POP PUSH1 0x1 EQ PUSH2 0x22F1 JUMPI JUMPDEST POP PUSH2 0x2161 SWAP3 POP SUB DUP3 PUSH2 0x1A7C JUMP JUMPDEST DUP1 MLOAD ISZERO PUSH2 0x2236 JUMPI PUSH1 0x40 MLOAD SWAP5 DUP6 SWAP4 DUP4 PUSH1 0x4 SLOAD SWAP2 PUSH2 0x217C DUP4 PUSH2 0x1A27 JUMP JUMPDEST SWAP3 DUP2 DUP2 AND SWAP1 DUP2 ISZERO PUSH2 0x2215 JUMPI POP PUSH1 0x1 EQ PUSH2 0x21B5 JUMPI JUMPDEST POP POP POP POP PUSH2 0x21A6 PUSH2 0x1BBB SWAP5 DUP4 SWAP3 MLOAD SWAP4 DUP5 SWAP2 PUSH2 0x1A9D JUMP JUMPDEST ADD SUB PUSH1 0x1F NOT DUP2 ADD DUP4 MSTORE DUP3 PUSH2 0x1A7C JUMP JUMPDEST SWAP1 SWAP2 SWAP3 SWAP7 SWAP5 POP PUSH1 0x4 DUP3 MSTORE PUSH32 0x8A35ACFBC15FF81A39AE7D344FD709F28E8600B4AA8C65C6B64BFE7FE36BD19B JUMPDEST DUP4 DUP4 LT PUSH2 0x21FF JUMPI POP POP POP PUSH2 0x1BBB SWAP5 PUSH2 0x21A6 SWAP2 DUP6 ADD ADD SWAP3 SWAP5 CODESIZE DUP1 PUSH2 0x2190 JUMP JUMPDEST DUP1 SLOAD DUP10 DUP5 ADD DUP10 ADD MSTORE DUP9 SWAP7 POP SWAP2 DUP8 ADD SWAP2 DUP2 ADD PUSH2 0x21E1 JUMP JUMPDEST PUSH1 0xFF NOT AND DUP9 DUP7 ADD MSTORE POP POP POP DUP1 ISZERO ISZERO MUL DUP5 ADD ADD SWAP2 POP PUSH2 0x21A6 PUSH2 0x1BBB CODESIZE DUP1 PUSH2 0x2190 JUMP JUMPDEST POP PUSH1 0x40 MLOAD PUSH1 0x2 SLOAD SWAP1 SWAP5 SWAP4 POP DUP5 SWAP3 DUP3 PUSH2 0x224D DUP4 PUSH2 0x1A27 JUMP JUMPDEST DUP1 DUP7 MSTORE SWAP3 DUP3 DUP2 AND SWAP1 DUP2 ISZERO PUSH2 0x22CF JUMPI POP PUSH1 0x1 EQ PUSH2 0x2273 JUMPI JUMPDEST POP POP POP PUSH2 0x1BBB SWAP3 POP SUB DUP3 PUSH2 0x1A7C JUMP JUMPDEST PUSH1 0x2 DUP2 MSTORE PUSH32 0x405787FA12A823E0F2B7631CC41B3BA8828B3321CA811111FA75CD3AA3BB5ACE SWAP6 SWAP4 POP SWAP2 SWAP1 JUMPDEST DUP2 DUP4 LT PUSH2 0x22B7 JUMPI POP POP PUSH2 0x1BBB SWAP4 POP DUP3 ADD ADD CODESIZE DUP1 DUP1 PUSH2 0x2264 JUMP JUMPDEST DUP6 SLOAD DUP8 DUP5 ADD DUP6 ADD MSTORE SWAP5 DUP6 ADD SWAP5 DUP7 SWAP5 POP SWAP2 DUP4 ADD SWAP2 PUSH2 0x229E JUMP JUMPDEST SWAP3 POP POP POP PUSH2 0x1BBB SWAP5 SWAP3 POP PUSH1 0xFF NOT AND DUP3 DUP5 ADD MSTORE ISZERO ISZERO PUSH1 0x5 SHL DUP3 ADD ADD CODESIZE DUP1 DUP1 PUSH2 0x2264 JUMP JUMPDEST SWAP2 POP POP DUP4 MSTORE DUP2 DUP7 DUP1 DUP6 KECCAK256 DUP7 DUP7 SWAP2 JUMPDEST DUP6 DUP4 LT PUSH2 0x2316 JUMPI POP POP PUSH2 0x2161 SWAP4 POP DUP3 ADD ADD CODESIZE PUSH2 0x2154 JUMP JUMPDEST DUP1 SWAP2 SWAP3 SWAP5 POP SLOAD DUP4 DUP6 DUP9 ADD ADD MSTORE ADD SWAP2 ADD DUP8 SWAP1 DUP7 DUP6 SWAP4 PUSH2 0x22FF JUMP JUMPDEST PUSH1 0xFF NOT AND DUP11 MSTORE PUSH2 0x2161 SWAP6 ISZERO ISZERO PUSH1 0x5 SHL DUP6 ADD ADD SWAP3 POP CODESIZE SWAP2 POP PUSH2 0x2154 SWAP1 POP JUMP INVALID GASLIMIT MSTORE NUMBER BALANCE BALANCE CALLDATALOAD CALLDATALOAD GASPRICE KECCAK256 PUSH3 0x75726E KECCAK256 PUSH2 0x6D6F PUSH22 0x6E74206578636565647320746F74A264697066735822 SLT KECCAK256 CODECOPY 0xAD CODECOPY PUSH23 0x1AB192AE6A1B0B7D0C212F04461C55B923E005588BF93A 0xD3 EXP CALLDATALOAD SLT 0xC7 PUSH5 0x736F6C6343 STOP ADDMOD GT STOP CALLER "},"methodIdentifiers":{"_tokenCollection(uint256)":"5fd099e6","_userCollection(address)":"9f9028d5","collect(uint256,bytes,(address,uint16)[])":"836f71e0","fee(uint256)":"39b37ab0","firstFreeCollect(uint256,(address,uint256,uint256,uint256,string,bytes,uint256[],bytes32[],(address,uint16)[]),bytes,bytes)":"00797df8","implementation()":"5c60da1b","predictCollectionAddr(address)":"07d32f2a","setReceiver1(address)":"03c13148","uri(uint256)":"0e89341c"}}}}}