{"contracts/katibeh721/Katibeh721.sol":{"Katibeh721":{"abi":[{"inputs":[{"internalType":"address","name":"qvhAddr","type":"address"}],"stateMutability":"nonpayable","type":"constructor"},{"anonymous":false,"inputs":[{"indexed":true,"internalType":"address","name":"owner","type":"address"},{"indexed":true,"internalType":"address","name":"approved","type":"address"},{"indexed":true,"internalType":"uint256","name":"tokenId","type":"uint256"}],"name":"Approval","type":"event"},{"anonymous":false,"inputs":[{"indexed":true,"internalType":"address","name":"owner","type":"address"},{"indexed":true,"internalType":"address","name":"operator","type":"address"},{"indexed":false,"internalType":"bool","name":"approved","type":"bool"}],"name":"ApprovalForAll","type":"event"},{"anonymous":false,"inputs":[{"indexed":true,"internalType":"uint256","name":"tokenId","type":"uint256"},{"indexed":true,"internalType":"uint256","name":"toTokenId","type":"uint256"}],"name":"NewReply","type":"event"},{"anonymous":false,"inputs":[{"indexed":true,"internalType":"uint256","name":"tokenId","type":"uint256"},{"indexed":true,"internalType":"address","name":"creator","type":"address"},{"indexed":true,"internalType":"bytes","name":"data","type":"bytes"},{"indexed":false,"internalType":"uint256","name":"signTime","type":"uint256"},{"indexed":false,"internalType":"uint256","name":"initTime","type":"uint256"},{"indexed":false,"internalType":"uint256","name":"expTime","type":"uint256"}],"name":"NewToken","type":"event"},{"anonymous":false,"inputs":[{"indexed":false,"internalType":"uint256","name":"tokenId","type":"uint256"},{"indexed":true,"internalType":"bytes32","name":"tag1","type":"bytes32"},{"indexed":true,"internalType":"bytes32","name":"tag2","type":"bytes32"},{"indexed":true,"internalType":"bytes32","name":"tag3","type":"bytes32"}],"name":"Tags","type":"event"},{"anonymous":false,"inputs":[{"indexed":true,"internalType":"address","name":"from","type":"address"},{"indexed":true,"internalType":"address","name":"to","type":"address"},{"indexed":true,"internalType":"uint256","name":"tokenId","type":"uint256"}],"name":"Transfer","type":"event"},{"inputs":[],"name":"QVH","outputs":[{"internalType":"contract IQVHash","name":"","type":"address"}],"stateMutability":"view","type":"function"},{"inputs":[{"internalType":"address","name":"to","type":"address"},{"internalType":"uint256","name":"tokenId","type":"uint256"}],"name":"approve","outputs":[],"stateMutability":"nonpayable","type":"function"},{"inputs":[{"internalType":"address","name":"owner","type":"address"}],"name":"balanceOf","outputs":[{"internalType":"uint256","name":"","type":"uint256"}],"stateMutability":"view","type":"function"},{"inputs":[{"internalType":"uint256","name":"tokenId","type":"uint256"}],"name":"burn","outputs":[],"stateMutability":"nonpayable","type":"function"},{"inputs":[],"name":"creatorAddresses","outputs":[{"internalType":"address[]","name":"creator","type":"address[]"}],"stateMutability":"view","type":"function"},{"inputs":[{"internalType":"uint256","name":"index","type":"uint256"}],"name":"creatorByIndex","outputs":[{"internalType":"address","name":"creator","type":"address"}],"stateMutability":"view","type":"function"},{"inputs":[{"internalType":"uint256[]","name":"index","type":"uint256[]"}],"name":"creatorsByIndexBatch","outputs":[{"internalType":"address[]","name":"creator","type":"address[]"}],"stateMutability":"view","type":"function"},{"inputs":[{"internalType":"uint256","name":"tokenId","type":"uint256"}],"name":"getApproved","outputs":[{"internalType":"address","name":"","type":"address"}],"stateMutability":"view","type":"function"},{"inputs":[{"internalType":"bytes32","name":"uriHash","type":"bytes32"}],"name":"getUriId","outputs":[{"internalType":"uint256","name":"","type":"uint256"}],"stateMutability":"view","type":"function"},{"inputs":[{"internalType":"address","name":"owner","type":"address"},{"internalType":"address","name":"operator","type":"address"}],"name":"isApprovedForAll","outputs":[{"internalType":"bool","name":"","type":"bool"}],"stateMutability":"view","type":"function"},{"inputs":[],"name":"name","outputs":[{"internalType":"string","name":"","type":"string"}],"stateMutability":"view","type":"function"},{"inputs":[],"name":"numberOfCreators","outputs":[{"internalType":"uint256","name":"","type":"uint256"}],"stateMutability":"view","type":"function"},{"inputs":[{"internalType":"address","name":"toCreator","type":"address"}],"name":"numberOfRepliesToCreator","outputs":[{"internalType":"uint256","name":"","type":"uint256"}],"stateMutability":"view","type":"function"},{"inputs":[{"internalType":"address[]","name":"toCreator","type":"address[]"}],"name":"numberOfRepliesToCreatorBatch","outputs":[{"internalType":"uint256[]","name":"count","type":"uint256[]"}],"stateMutability":"view","type":"function"},{"inputs":[{"internalType":"uint256","name":"tokenId","type":"uint256"}],"name":"numberOfTokenReplies","outputs":[{"internalType":"uint256","name":"","type":"uint256"}],"stateMutability":"view","type":"function"},{"inputs":[{"internalType":"uint256[]","name":"tokenId","type":"uint256[]"}],"name":"numberOfTokenRepliesBatch","outputs":[{"internalType":"uint256[]","name":"count","type":"uint256[]"}],"stateMutability":"view","type":"function"},{"inputs":[{"internalType":"bytes32","name":"tag","type":"bytes32"}],"name":"numberOfTokensByTag","outputs":[{"internalType":"uint256","name":"","type":"uint256"}],"stateMutability":"view","type":"function"},{"inputs":[{"internalType":"bytes32[]","name":"tag","type":"bytes32[]"}],"name":"numberOfTokensByTagBatch","outputs":[{"internalType":"uint256[]","name":"count","type":"uint256[]"}],"stateMutability":"view","type":"function"},{"inputs":[{"internalType":"address","name":"creator","type":"address"}],"name":"numberOfTokensOfCreator","outputs":[{"internalType":"uint256","name":"","type":"uint256"}],"stateMutability":"view","type":"function"},{"inputs":[{"internalType":"address[]","name":"creator","type":"address[]"}],"name":"numberOfTokensOfCreatorBatch","outputs":[{"internalType":"uint256[]","name":"count","type":"uint256[]"}],"stateMutability":"view","type":"function"},{"inputs":[],"name":"numberOfTokensTraceable","outputs":[{"internalType":"uint256","name":"count","type":"uint256"}],"stateMutability":"view","type":"function"},{"inputs":[{"internalType":"uint256","name":"tokenId","type":"uint256"}],"name":"ownerOf","outputs":[{"internalType":"address","name":"","type":"address"}],"stateMutability":"view","type":"function"},{"inputs":[{"internalType":"address","name":"toCreator","type":"address"}],"name":"repliesToCreator","outputs":[{"internalType":"uint256[]","name":"ids","type":"uint256[]"}],"stateMutability":"view","type":"function"},{"inputs":[{"internalType":"address","name":"toCreator","type":"address"},{"internalType":"uint256","name":"index","type":"uint256"}],"name":"repliesToCreatorByIndex","outputs":[{"internalType":"uint256","name":"id","type":"uint256"}],"stateMutability":"view","type":"function"},{"inputs":[{"internalType":"address","name":"toCreator","type":"address"},{"internalType":"uint256[]","name":"index","type":"uint256[]"}],"name":"repliesToCreatorByIndexBatch","outputs":[{"internalType":"uint256[]","name":"id","type":"uint256[]"}],"stateMutability":"view","type":"function"},{"inputs":[{"components":[{"internalType":"address","name":"creator","type":"address"},{"internalType":"uint256","name":"signTime","type":"uint256"},{"internalType":"uint256","name":"initTime","type":"uint256"},{"internalType":"uint256","name":"expTime","type":"uint256"},{"internalType":"string","name":"tokenURI","type":"string"},{"internalType":"bytes","name":"data","type":"bytes"},{"internalType":"uint256[]","name":"toTokenId","type":"uint256[]"},{"internalType":"bytes32[]","name":"tags","type":"bytes32[]"},{"components":[{"internalType":"address","name":"addr","type":"address"},{"internalType":"uint16","name":"share","type":"uint16"}],"internalType":"struct DataStorage.Payee[]","name":"owners","type":"tuple[]"}],"internalType":"struct DataStorage.Katibeh","name":"katibeh","type":"tuple"},{"internalType":"bytes","name":"sig","type":"bytes"},{"internalType":"bytes","name":"dappData","type":"bytes"}],"name":"safeMint","outputs":[{"internalType":"uint256","name":"tokenId","type":"uint256"}],"stateMutability":"nonpayable","type":"function"},{"inputs":[{"components":[{"internalType":"address","name":"creator","type":"address"},{"internalType":"uint256","name":"signTime","type":"uint256"},{"internalType":"uint256","name":"initTime","type":"uint256"},{"internalType":"uint256","name":"expTime","type":"uint256"},{"internalType":"string","name":"tokenURI","type":"string"},{"internalType":"bytes","name":"data","type":"bytes"},{"internalType":"uint256[]","name":"toTokenId","type":"uint256[]"},{"internalType":"bytes32[]","name":"tags","type":"bytes32[]"},{"components":[{"internalType":"address","name":"addr","type":"address"},{"internalType":"uint16","name":"share","type":"uint16"}],"internalType":"struct DataStorage.Payee[]","name":"owners","type":"tuple[]"}],"internalType":"struct DataStorage.Katibeh","name":"katibeh","type":"tuple"},{"internalType":"bytes","name":"sig","type":"bytes"},{"internalType":"bytes","name":"dappData","type":"bytes"}],"name":"safeMintAndSetTraceStorage","outputs":[],"stateMutability":"nonpayable","type":"function"},{"inputs":[{"internalType":"address","name":"from","type":"address"},{"internalType":"address","name":"to","type":"address"},{"internalType":"uint256","name":"tokenId","type":"uint256"}],"name":"safeTransferFrom","outputs":[],"stateMutability":"nonpayable","type":"function"},{"inputs":[{"internalType":"address","name":"from","type":"address"},{"internalType":"address","name":"to","type":"address"},{"internalType":"uint256","name":"tokenId","type":"uint256"},{"internalType":"bytes","name":"data","type":"bytes"}],"name":"safeTransferFrom","outputs":[],"stateMutability":"nonpayable","type":"function"},{"inputs":[{"internalType":"address","name":"operator","type":"address"},{"internalType":"bool","name":"approved","type":"bool"}],"name":"setApprovalForAll","outputs":[],"stateMutability":"nonpayable","type":"function"},{"inputs":[{"internalType":"bytes4","name":"interfaceId","type":"bytes4"}],"name":"supportsInterface","outputs":[{"internalType":"bool","name":"","type":"bool"}],"stateMutability":"view","type":"function"},{"inputs":[],"name":"symbol","outputs":[{"internalType":"string","name":"","type":"string"}],"stateMutability":"view","type":"function"},{"inputs":[],"name":"timeStamp","outputs":[{"internalType":"uint256","name":"","type":"uint256"}],"stateMutability":"view","type":"function"},{"inputs":[{"internalType":"uint256","name":"index","type":"uint256"}],"name":"tokenByIndex","outputs":[{"internalType":"uint256","name":"","type":"uint256"}],"stateMutability":"view","type":"function"},{"inputs":[{"internalType":"uint256","name":"index","type":"uint256"}],"name":"tokenByIndexTraceable","outputs":[{"internalType":"uint256","name":"id","type":"uint256"}],"stateMutability":"view","type":"function"},{"inputs":[{"internalType":"uint256","name":"tokenId","type":"uint256"}],"name":"tokenInfo","outputs":[{"components":[{"internalType":"address","name":"creator","type":"address"},{"internalType":"uint256","name":"signTime","type":"uint256"},{"internalType":"uint256","name":"initTime","type":"uint256"},{"internalType":"uint256","name":"expTime","type":"uint256"},{"internalType":"string","name":"tokenURI","type":"string"},{"internalType":"bytes","name":"data","type":"bytes"},{"internalType":"uint256[]","name":"toTokenId","type":"uint256[]"},{"internalType":"bytes32[]","name":"tags","type":"bytes32[]"},{"components":[{"internalType":"address","name":"addr","type":"address"},{"internalType":"uint16","name":"share","type":"uint16"}],"internalType":"struct DataStorage.Payee[]","name":"owners","type":"tuple[]"}],"internalType":"struct DataStorage.Katibeh","name":"katibeh","type":"tuple"},{"internalType":"uint256","name":"mintTime","type":"uint256"},{"internalType":"bytes","name":"sig","type":"bytes"},{"internalType":"bytes","name":"dappData","type":"bytes"}],"stateMutability":"view","type":"function"},{"inputs":[{"internalType":"uint256","name":"","type":"uint256"}],"name":"tokenMintTime","outputs":[{"internalType":"uint256","name":"","type":"uint256"}],"stateMutability":"view","type":"function"},{"inputs":[{"internalType":"address","name":"creator","type":"address"},{"internalType":"uint256","name":"index","type":"uint256"}],"name":"tokenOfCreatorByIndex","outputs":[{"internalType":"uint256","name":"id","type":"uint256"}],"stateMutability":"view","type":"function"},{"inputs":[{"internalType":"address","name":"owner","type":"address"},{"internalType":"uint256","name":"index","type":"uint256"}],"name":"tokenOfOwnerByIndex","outputs":[{"internalType":"uint256","name":"","type":"uint256"}],"stateMutability":"view","type":"function"},{"inputs":[{"internalType":"bytes32","name":"tag","type":"bytes32"},{"internalType":"uint256","name":"index","type":"uint256"}],"name":"tokenOfTagByIndex","outputs":[{"internalType":"uint256","name":"id","type":"uint256"}],"stateMutability":"view","type":"function"},{"inputs":[{"internalType":"uint256","name":"tokenId","type":"uint256"}],"name":"tokenReplies","outputs":[{"internalType":"uint256[]","name":"ids","type":"uint256[]"}],"stateMutability":"view","type":"function"},{"inputs":[{"internalType":"uint256","name":"tokenId","type":"uint256"},{"internalType":"uint256[]","name":"index","type":"uint256[]"}],"name":"tokenRepliesByIndexBatch","outputs":[{"internalType":"uint256[]","name":"id","type":"uint256[]"}],"stateMutability":"view","type":"function"},{"inputs":[{"internalType":"uint256","name":"tokenId","type":"uint256"},{"internalType":"uint256","name":"index","type":"uint256"}],"name":"tokenReplyByIndex","outputs":[{"internalType":"uint256","name":"id","type":"uint256"}],"stateMutability":"view","type":"function"},{"inputs":[{"internalType":"uint256","name":"tokenId","type":"uint256"}],"name":"tokenShareholders","outputs":[{"components":[{"internalType":"address","name":"addr","type":"address"},{"internalType":"uint16","name":"share","type":"uint16"}],"internalType":"struct DataStorage.Payee[]","name":"_owners_","type":"tuple[]"}],"stateMutability":"view","type":"function"},{"inputs":[{"internalType":"uint256","name":"tokenId","type":"uint256"}],"name":"tokenURI","outputs":[{"internalType":"string","name":"","type":"string"}],"stateMutability":"view","type":"function"},{"inputs":[{"internalType":"uint256[]","name":"index","type":"uint256[]"}],"name":"tokensByIndexTraceableBatch","outputs":[{"internalType":"uint256[]","name":"id","type":"uint256[]"}],"stateMutability":"view","type":"function"},{"inputs":[{"internalType":"uint256[]","name":"tokenId","type":"uint256[]"}],"name":"tokensInfoBatch","outputs":[{"components":[{"internalType":"address","name":"creator","type":"address"},{"internalType":"uint256","name":"signTime","type":"uint256"},{"internalType":"uint256","name":"initTime","type":"uint256"},{"internalType":"uint256","name":"expTime","type":"uint256"},{"internalType":"string","name":"tokenURI","type":"string"},{"internalType":"bytes","name":"data","type":"bytes"},{"internalType":"uint256[]","name":"toTokenId","type":"uint256[]"},{"internalType":"bytes32[]","name":"tags","type":"bytes32[]"},{"components":[{"internalType":"address","name":"addr","type":"address"},{"internalType":"uint16","name":"share","type":"uint16"}],"internalType":"struct DataStorage.Payee[]","name":"owners","type":"tuple[]"}],"internalType":"struct DataStorage.Katibeh[]","name":"katibeh","type":"tuple[]"},{"internalType":"uint256[]","name":"mintTime","type":"uint256[]"},{"internalType":"bytes[]","name":"sig","type":"bytes[]"},{"internalType":"bytes[]","name":"dappData","type":"bytes[]"}],"stateMutability":"view","type":"function"},{"inputs":[{"internalType":"address","name":"creator","type":"address"}],"name":"tokensOfCreator","outputs":[{"internalType":"uint256[]","name":"ids","type":"uint256[]"}],"stateMutability":"view","type":"function"},{"inputs":[{"internalType":"address","name":"creator","type":"address"},{"internalType":"uint256[]","name":"index","type":"uint256[]"}],"name":"tokensOfCreatorByIndexBatch","outputs":[{"internalType":"uint256[]","name":"id","type":"uint256[]"}],"stateMutability":"view","type":"function"},{"inputs":[{"internalType":"bytes32","name":"tag","type":"bytes32"}],"name":"tokensOfTag","outputs":[{"internalType":"uint256[]","name":"ids","type":"uint256[]"}],"stateMutability":"view","type":"function"},{"inputs":[{"internalType":"bytes32","name":"tag","type":"bytes32"},{"internalType":"uint256[]","name":"index","type":"uint256[]"}],"name":"tokensOfTagByIndexBatch","outputs":[{"internalType":"uint256[]","name":"id","type":"uint256[]"}],"stateMutability":"view","type":"function"},{"inputs":[],"name":"totalSupply","outputs":[{"internalType":"uint256","name":"","type":"uint256"}],"stateMutability":"view","type":"function"},{"inputs":[{"internalType":"address","name":"creator","type":"address"},{"internalType":"uint256","name":"id","type":"uint256"}],"name":"traceTokenByCreator","outputs":[{"internalType":"uint256","name":"numberOfPreviousIds","type":"uint256"},{"internalType":"uint256","name":"numberOfNextIds","type":"uint256"},{"internalType":"uint256","name":"previousId","type":"uint256"},{"internalType":"uint256","name":"nextId","type":"uint256"}],"stateMutability":"view","type":"function"},{"inputs":[{"internalType":"uint256","name":"id","type":"uint256"}],"name":"traceTokenById","outputs":[{"internalType":"uint256","name":"numberOfPreviousIds","type":"uint256"},{"internalType":"uint256","name":"numberOfNextIds","type":"uint256"},{"internalType":"uint256","name":"previousId","type":"uint256"},{"internalType":"uint256","name":"nextId","type":"uint256"}],"stateMutability":"view","type":"function"},{"inputs":[{"internalType":"bytes32","name":"tag","type":"bytes32"},{"internalType":"uint256","name":"id","type":"uint256"}],"name":"traceTokenByTag","outputs":[{"internalType":"uint256","name":"numberOfPreviousIds","type":"uint256"},{"internalType":"uint256","name":"numberOfNextIds","type":"uint256"},{"internalType":"uint256","name":"previousId","type":"uint256"},{"internalType":"uint256","name":"nextId","type":"uint256"}],"stateMutability":"view","type":"function"},{"inputs":[{"internalType":"address","name":"from","type":"address"},{"internalType":"address","name":"to","type":"address"},{"internalType":"uint256","name":"tokenId","type":"uint256"}],"name":"transferFrom","outputs":[],"stateMutability":"nonpayable","type":"function"}],"evm":{"bytecode":{"linkReferences":{},"object":"6080346200035c57601f601f196001600160401b03620056e538819003848101841686018381118782101762000346578692829160405283396020958691810103126200035c57516001600160a01b03811693908490036200035c576200006562000361565b92600a8452694b61746962656837323160b01b868501526200008662000361565b90600782526609682a892848a960cb1b8783015284519084821162000346576000918254966001978881811c911680156200033b575b8b8210146200032757908187849311620002d4575b508a908783116001146200027157859262000265575b5050600019600383901b1c191690871b1782555b8251948511620002515785548681811c9116801562000246575b898210146200023257848111620001ea575b508793851160011462000185575083949596509262000179575b5050600019600383901b1c191690821b1790555b601880546001600160a01b0319169190911790556040516153639081620003828239f35b01519050388062000141565b8493929193169685845280842093905b888210620001d25750508385969710620001b8575b505050811b01905562000155565b015160001960f88460031b161c19169055388080620001aa565b80878596829496860151815501950193019062000195565b8683528883208580880160051c8201928b891062000228575b0160051c019087905b8281106200021c57505062000127565b8481550187906200020c565b9250819262000203565b634e487b7160e01b83526022600452602483fd5b90607f169062000115565b634e487b7160e01b82526041600452602482fd5b015190503880620000e7565b90848a9416918680528c8720928d88905b828210620002bc5750508411620002a2575b505050811b018255620000fb565b015160001960f88460031b161c1916905538808062000294565b8385015186558d979095019493840193018e62000282565b9091508480528a85208780850160051c8201928d86106200031d575b918b91869594930160051c01915b8281106200030e575050620000d1565b8781558594508b9101620002fe565b92508192620002f0565b634e487b7160e01b85526022600452602485fd5b90607f1690620000bc565b634e487b7160e01b600052604160045260246000fd5b600080fd5b60408051919082016001600160401b03811183821017620003465760405256fe60406080815260048036101561001457600080fd5b600090813560e01c908163017642e41461294257816301ffc9a71461281b57816306fdde0314612755578163081812fc14612702578163095ea7b3146125025781630ab0df87146124c9578163132e75d6146124675781631674ed4b146123c257816318160ddd146123855781631ae69b611461234857816323b872dd1461232357816326156636146122e557816329c7785f146122bc5781632b0eca8c146120b75781632c230901146120285781632e0d071814611fe15781632f745c5914611ede57816331d9954514611e4a5781633552d22014611e2e57816339d77f2514611c1d57816340b9475714611b7b57816342842e0e14611b4757816342966c68146116325781634667c884146115eb5781634832e8f3146113485781634f6ccce7146112795781634fc092751461123257816360f6a4a3146111cc5781636352211e146111795781636d571b6a1461111e57816370a08231146110da5781637372e98d146110bb57816378292236146110745781638282674f1461102b57816383b81ebd14610fe457816389f6571514610f925781638f93fb3914610ef157816395d89b4114610de457816396cc6a3414610d49578163a22cb46514610c1a578163af3ea10514610b84578163b158220114610b0d578163b88d4fde14610a3b578163bfc9b364146109f1578163c03d1d91146108fc578163c35128761461073f578163c87b56dd146106d1578163cc33c87514610656578163cca3c766146105ad578163dd46879114610570578163e985e9c5146104f7578163f076ed3b146104a4578163f353a73214610437578163f6bd7ab81461039757508063f99458a4146103205763fe649b7e1461028a57600080fd5b3461031d5761029836612ae9565b926102a584939293614b0d565b93815b8181106102c8578651602080825281906102c490820189612a11565b0390f35b806103016102da610318938589614a32565b3573ffffffffffffffffffffffffffffffffffffffff871686526016602052898620613b1b565b90549060031b1c6103128289614bd0565b52614a05565b6102a8565b80fd5b50903461039357807ffffffffffffffffffffffffffffffffffffffffffffffffffffffffffffffffc3601126103935761038560209273ffffffffffffffffffffffffffffffffffffffff610373612aa3565b16815260168452826024359120613b1b565b91905490519160031b1c8152f35b5080fd5b9050346103935760207ffffffffffffffffffffffffffffffffffffffffffffffffffffffffffffffffc36011261039357803567ffffffffffffffff8111610433576103e5913691016129db565b6103ee81614b0d565b925b81811061040c578451602080825281906102c490820187612a11565b8061042461041e61042e938587614a32565b35614fe7565b6103128287614bd0565b6103f0565b8280fd5b8284346103935760207ffffffffffffffffffffffffffffffffffffffffffffffffffffffffffffffffc3601126103935760209061049d610476612aa3565b73ffffffffffffffffffffffffffffffffffffffff16600052601660205260406000205490565b9051908152f35b82843461039357817ffffffffffffffffffffffffffffffffffffffffffffffffffffffffffffffffc3601126103935760209073ffffffffffffffffffffffffffffffffffffffff601854169051908152f35b82843461039357807ffffffffffffffffffffffffffffffffffffffffffffffffffffffffffffffffc3601126103935760ff81602093610535612aa3565b61053d612ac6565b73ffffffffffffffffffffffffffffffffffffffff91821683526005875283832091168252855220549151911615158152f35b82843461039357817ffffffffffffffffffffffffffffffffffffffffffffffffffffffffffffffffc36011261039357602090600f549051908152f35b9050823461043357602091827ffffffffffffffffffffffffffffffffffffffffffffffffffffffffffffffffc3601126106525780359067ffffffffffffffff821161064e576105ff913691016129db565b9361060985614b0d565b94815b818110610625578451868152806102c48189018a612a11565b80610634610649928487614a32565b3584526015875285842054610312828a614bd0565b61060c565b8480fd5b8380fd5b83833461031d5760207ffffffffffffffffffffffffffffffffffffffffffffffffffffffffffffffffc36011261031d57506102c46106c361069b6106b19435614c33565b9392958051978897608089526080890190612c45565b92602088015286830390870152612a45565b908382036060850152612a45565b839150346104335760207ffffffffffffffffffffffffffffffffffffffffffffffffffffffffffffffffc360112610433579061072d82826102c49561072695358152600a6020522001825193848092613171565b0383612f5e565b51918291602083526020830190612a45565b83833461031d57817ffffffffffffffffffffffffffffffffffffffffffffffffffffffffffffffffc36011261031d57610777612aa3565b8173ffffffffffffffffffffffffffffffffffffffff83921683526012602052838320936107a760243586615003565b936107b3858754614a42565b957fffffffffffffffffffffffffffffffffffffffffffffffffffffffffffffffff8088019788116108d05786610876575b508661080f575b505051928352602083019390935260408201929092526060810191909152608090f35b909193506001850180861161084a576102c4959697509061083260029282613b1b565b90549060031b1c8093520160205291859493876107ec565b60248360118a7f4e487b7100000000000000000000000000000000000000000000000000000000835252fd5b90935085018581116108a45761088c9084613b1b565b90549060031b1c8082526002840160205292886107e5565b60248260118a7f4e487b7100000000000000000000000000000000000000000000000000000000835252fd5b60248360118b7f4e487b7100000000000000000000000000000000000000000000000000000000835252fd5b9050346103935760207ffffffffffffffffffffffffffffffffffffffffffffffffffffffffffffffffc36011261039357803567ffffffffffffffff81116104335761094a913691016129db565b61095681949294614aad565b9261096383519485612f5e565b8184527fffffffffffffffffffffffffffffffffffffffffffffffffffffffffffffffe061099083614aad565b013660208601375b8181106109ac578251806102c48682612dbd565b806109c46109be6109ec938589614a32565b35615268565b73ffffffffffffffffffffffffffffffffffffffff6109e38388614bd0565b91169052614a05565b610998565b8391503461043357817ffffffffffffffffffffffffffffffffffffffffffffffffffffffffffffffffc360112610433576020926103859135815260158452826024359120613b1b565b905082346104335760807ffffffffffffffffffffffffffffffffffffffffffffffffffffffffffffffffc36011261043357610a75612aa3565b90610a7e612ac6565b604435906064359467ffffffffffffffff8611610b095736602387011215610b095785013593610ab9610ab086612f9f565b94519485612f5e565b84845286366024878901011161031d57602086610b01976024610b069a018389013786010152610af1610aec8433613380565b613269565b610afc838383613486565b6139f2565b6132f4565b80f35b8680fd5b8284346103935760207ffffffffffffffffffffffffffffffffffffffffffffffffffffffffffffffffc36011261039357610b71816102c49373ffffffffffffffffffffffffffffffffffffffff610b63612aa3565b168152601660205220614be4565b9051918291602083526020830190612a11565b9050823461043357602091827ffffffffffffffffffffffffffffffffffffffffffffffffffffffffffffffffc360112610652573583526017825280832092835490610bcf82614b0d565b946002810190825b848110610bf0578551878152806102c4818a018b612a11565b80610bfe610c159284613b1b565b90549060031b1c808652848952610312828b614bd0565b610bd7565b9050823461043357807ffffffffffffffffffffffffffffffffffffffffffffffffffffffffffffffffc36011261043357610c53612aa3565b906024359182151580930361064e5773ffffffffffffffffffffffffffffffffffffffff1692833314610ced575033845260056020528084208385526020528084207fffffffffffffffffffffffffffffffffffffffffffffffffffffffffffffff0081541660ff8416179055519081527f17307eab39ab6107e8899845ad3d59bd9653f200f220920489ca2b5937696c3160203392a380f35b602060649251917f08c379a0000000000000000000000000000000000000000000000000000000008352820152601960248201527f4552433732313a20617070726f766520746f2063616c6c6572000000000000006044820152fd5b82843461039357602090817ffffffffffffffffffffffffffffffffffffffffffffffffffffffffffffffffc3601126104335773ffffffffffffffffffffffffffffffffffffffff610d99612aa3565b1683526012825280832092835490610db082614b0d565b946002810190825b848110610dd1578551878152806102c4818a018b612a11565b80610bfe610ddf9284613b1b565b610db8565b82843461039357817ffffffffffffffffffffffffffffffffffffffffffffffffffffffffffffffffc36011261039357805190826001805491610e268361311e565b80865292828116908115610eab5750600114610e4f575b50505061072d826102c4940383612f5e565b94508085527fb10e2d527612073b26eecdfd717e6a320cf44b4afac2b0732d9fcbe2b7fa0cf65b828610610e935750505061072d8260206102c49582010194610e3d565b80546020878701810191909152909501948101610e76565b6102c497508693506020925061072d9491507fffffffffffffffffffffffffffffffffffffffffffffffffffffffffffffff001682840152151560051b82010194610e3d565b9050823461043357602091827ffffffffffffffffffffffffffffffffffffffffffffffffffffffffffffffffc3601126106525780359067ffffffffffffffff821161064e57610f43913691016129db565b93610f4d85614b0d565b94815b818110610f69578451868152806102c48189018a612a11565b80610f78610f8d928487614a32565b3584526017875285842054610312828a614bd0565b610f50565b83833461031d5760207ffffffffffffffffffffffffffffffffffffffffffffffffffffffffffffffffc36011261031d5750610fd16102c49235614e0e565b9051918291602083526020830190612bec565b839150346104335760207ffffffffffffffffffffffffffffffffffffffffffffffffffffffffffffffffc360112610433576020928291358152600e845220549051908152f35b839150346104335760207ffffffffffffffffffffffffffffffffffffffffffffffffffffffffffffffffc36011261043357816102c493610b7192358152601560205220614be4565b839150346104335760207ffffffffffffffffffffffffffffffffffffffffffffffffffffffffffffffffc360112610433576020928291358152600b845220549051908152f35b8284346103935760209061049d6110d136612e3c565b93929092613bf9565b8284346103935760207ffffffffffffffffffffffffffffffffffffffffffffffffffffffffffffffffc3601126103935760209061049d611119612aa3565b612fd9565b83833461031d5760207ffffffffffffffffffffffffffffffffffffffffffffffffffffffffffffffffc36011261031d575073ffffffffffffffffffffffffffffffffffffffff61117160209335615268565b915191168152f35b83833461031d5760207ffffffffffffffffffffffffffffffffffffffffffffffffffffffffffffffffc36011261031d575073ffffffffffffffffffffffffffffffffffffffff611171602093356130ef565b8284346103935760207ffffffffffffffffffffffffffffffffffffffffffffffffffffffffffffffffc3601126103935760209061049d61120b612aa3565b73ffffffffffffffffffffffffffffffffffffffff16600052601260205260406000205490565b82843461039357807ffffffffffffffffffffffffffffffffffffffffffffffffffffffffffffffffc3601126103935760209061049d611270612aa3565b60243590615226565b9190503461031d5760207ffffffffffffffffffffffffffffffffffffffffffffffffffffffffffffffffc36011261031d57508035906008548210156112c55760208361038584613ae4565b60849060208451917f08c379a0000000000000000000000000000000000000000000000000000000008352820152602c60248201527f455243373231456e756d657261626c653a20676c6f62616c20696e646578206f60448201527f7574206f6620626f756e647300000000000000000000000000000000000000006064820152fd5b828434610393576113689061135c36612e3c565b92849694929192613bf9565b91600f54908385526020916011835283862055611384846150a9565b5073ffffffffffffffffffffffffffffffffffffffff806113a483613b33565b168652601283526113c6858588208054828a52600282018752878a20556151ca565b506113da816113d484613b33565b1661512d565b5060c08201906113ea8284613ba5565b929050875b83811061158757505050508060e0611408920190613ba5565b80939193158015611417578680f35b61155b5783359361142885876152cc565b60018211611434578680f35b816001101561152f57838101359161144c83886152cc565b611472845186810190888252858782015286815261146981612f42565b519020886152cc565b6002811161147f57508680f35b6002101561152f578201359061149582876152cc565b6114bb83518581019083825284868201528581526114b281612f42565b519020876152cc565b825193840194855282840152606083015260608252608082019082821067ffffffffffffffff831117611503576114f895965052519020906152cc565b808280808080808680f35b6024866041897f4e487b7100000000000000000000000000000000000000000000000000000000835252fd5b60248760328a7f4e487b7100000000000000000000000000000000000000000000000000000000835252fd5b6024866032897f4e487b7100000000000000000000000000000000000000000000000000000000835252fd5b8061159f6115e6926115998589613ba5565b90614a32565b358a52601587526115b289898c206151ca565b506115c1816115998589613ba5565b358a52600a875283888b2054168a52601687526115e089898c206151ca565b50614a05565b6113ef565b839150346104335760207ffffffffffffffffffffffffffffffffffffffffffffffffffffffffffffffffc3601126104335760209282913581526017845220549051908152f35b905034610393576020807ffffffffffffffffffffffffffffffffffffffffffffffffffffffffffffffffc360112610433578135611673610aec8233613380565b61167c816130ef565b73ffffffffffffffffffffffffffffffffffffffff908181169081158081159182611b3f575b15611abd5715611a1057505050600854828652600984528087872055680100000000000000008110156119e4576117186116e3826001869401600855613ae4565b81939154907fffffffffffffffffffffffffffffffffffffffffffffffffffffffffffffffff9060031b92831b921b19161790565b90555b600854907fffffffffffffffffffffffffffffffffffffffffffffffffffffffffffffffff918281019081116119b8578387526009855261175f8888205491613ae4565b90549060031b1c806117736116e384613ae4565b9055875260098552878720558286528587812055600854801561198c5795828694928299947f766269423061476c7a4947356c64486476636d7375496e30000000000000000099016117c481613ae4565b8482549160031b1b191690556008556117dc846130ef565b90848452868852858420917fffffffffffffffffffffffff000000000000000000000000000000000000000092838154169055169182845260038852858420908154019055838352600287528483209081541690557fddf252ad1be2c89b69c2b068fc378daa952ba7f163c4a11628f55a4df523b3ef8280a4600a83528581812091600d8552812061186e815461311e565b80611950575b50505001611882815461311e565b601f811161192f575b506101318155845283207f646174613a6170706c69636174696f6e2f6a736f6e3b6261736536342c65794a81557f755957316c496a6f67496c526f61584d67644739725a57346761584d67596e5660018201557f79626d566b4c694973496d526c63324e796158423061573975496a6f67496c5260028201557f766132567549476c7a494735766443426a623278735a574e3061574a735a53426003820155015580f35b61194a908287526005601f8589209201811c82019101614a4f565b3861188b565b82601f8211600114611968575050555b853880611874565b9091808252611985601f888420940160051c840160018501614a4f565b5555611960565b6024876031887f4e487b7100000000000000000000000000000000000000000000000000000000835252fd5b6024876011887f4e487b7100000000000000000000000000000000000000000000000000000000835252fd5b6024866041877f4e487b7100000000000000000000000000000000000000000000000000000000835252fd5b611a1c575b505061171b565b611a2590612fd9565b907fffffffffffffffffffffffffffffffffffffffffffffffffffffffffffffffff82019182116119b8578387526007855287872054828103611a86575b508387528688812055865260068452868620908652835284868120553880611a15565b8188526006865288882083895286528888205482895260068752898920828a528752808a8a20558852600786528888205538611a63565b608488888c51917f08c379a0000000000000000000000000000000000000000000000000000000008352820152602660248201527f746f6b656e732063616e6e6f74206265207472616e736665726564206f6e207460448201527f6573746e657400000000000000000000000000000000000000000000000000006064820152fd5b5060016116a2565b82843461039357610b01610b0691611b5e36612b58565b91925192611b6b84612f26565b868452610af1610aec8433613380565b50503461031d57807ffffffffffffffffffffffffffffffffffffffffffffffffffffffffffffffffc36011261031d578151918291601354808552602080950194601383527f66de8ffda797e3de9c05e8fc57b3bf0ec28a930d40b0d285d93c06501cf6a09092905b828210611c06576102c48686611bfc828b0383612f5e565b5191829182612dbd565b835487529586019560019384019390910190611be4565b83833461031d57602091827ffffffffffffffffffffffffffffffffffffffffffffffffffffffffffffffffc3601126103935781829185358452601193848652818120549485159687158098611e1e575b15611dc257611c7f87600f54614a42565b977fffffffffffffffffffffffffffffffffffffffffffffffffffffffffffffffff90818a01998a11611d9757611d43575b5087611ce2575b505050906102c4929151948594859094939260609260808301968352602083015260408201520152565b90919294506001860197888711611d185750611d026102c4969798613a7e565b90549060031b1c80935252918594938780611cb8565b83836024927f4e487b7100000000000000000000000000000000000000000000000000000000835252fd5b9094508601868111611d6c57611d5890613a7e565b90549060031b1c8083528185529389611cb1565b602483838b7f4e487b7100000000000000000000000000000000000000000000000000000000835252fd5b602485858d7f4e487b7100000000000000000000000000000000000000000000000000000000835252fd5b886064918551917f08c379a0000000000000000000000000000000000000000000000000000000008352820152601e60248201527f456e756d657261626c654d61703a206e6f6e6578697374656e74206b657900006044820152fd5b5060108152838320541515611c6e565b8284346103935760209061049d611e4436612bb8565b906152b3565b9050346103935760207ffffffffffffffffffffffffffffffffffffffffffffffffffffffffffffffffc36011261039357803567ffffffffffffffff811161043357611e98913691016129db565b611ea181614b0d565b925b818110611ebf578451602080825281906102c490820187612a11565b8061042461120b611ed4611ed9948688614a32565b613b33565b611ea3565b83833461031d57817ffffffffffffffffffffffffffffffffffffffffffffffffffffffffffffffffc36011261031d57611f16612aa3565b60243590611f2381612fd9565b821015611f5e57602092849273ffffffffffffffffffffffffffffffffffffffff849316825260068552828220908252845220549051908152f35b60848560208651917f08c379a0000000000000000000000000000000000000000000000000000000008352820152602b60248201527f455243373231456e756d657261626c653a206f776e657220696e646578206f7560448201527f74206f6620626f756e64730000000000000000000000000000000000000000006064820152fd5b839150346104335760207ffffffffffffffffffffffffffffffffffffffffffffffffffffffffffffffffc3601126104335760209282913581526015845220549051908152f35b9050346103935760207ffffffffffffffffffffffffffffffffffffffffffffffffffffffffffffffffc36011261039357803567ffffffffffffffff811161043357612076913691016129db565b61207f81614b0d565b925b81811061209d578451602080825281906102c490820187612a11565b80610424610476611ed46120b2948688614a32565b612081565b9050823461043357602091827ffffffffffffffffffffffffffffffffffffffffffffffffffffffffffffffffc3601126106525780359067ffffffffffffffff821161064e5761210c919493943691016129db565b919061211783614aad565b61212383519182612f5e565b8381527fffffffffffffffffffffffffffffffffffffffffffffffffffffffffffffffe061215085614aad565b01855b81811061229957505061216584614b0d565b61216e85614b5c565b9261217886614b5c565b95875b81811061223b5750505083519687966080880160808952845180915260a089018360a08360051b8c0101960192905b8282106121e8578a8703858c01528a806102c48c6121da8d8d6121cd8e8e612a11565b9186830390870152612d43565b908382036060850152612d43565b919380612226887fffffffffffffffffffffffffffffffffffffffffffffffffffffffffffffff60600195979b9c9d9e849a9b030186528a51612c45565b9801920192018a9998979695949391926121aa565b8061226b818a61226061225a9d9e98999a9b9c9d61228c96888a614a32565b35614c33565b929591949093614bd0565b52612276848c614bd0565b526122818389614bd0565b526103128289614bd0565b989796959493929861217b565b96809293949596976122a9614ac5565b8282870101520196959493929196612153565b83833461031d576122cc36612bb8565b9282908392845260176020526107a78185209586615003565b83833461031d5760207ffffffffffffffffffffffffffffffffffffffffffffffffffffffffffffffffc36011261031d575061049d60209235614fe7565b823461031d57610b0661233536612b58565b91612343610aec8433613380565b613486565b82843461039357817ffffffffffffffffffffffffffffffffffffffffffffffffffffffffffffffffc360112610393576020906013549051908152f35b82843461039357817ffffffffffffffffffffffffffffffffffffffffffffffffffffffffffffffffc360112610393576020906008549051908152f35b9190503461031d57827ffffffffffffffffffffffffffffffffffffffffffffffffffffffffffffffffc36011261031d5781359160243567ffffffffffffffff811161043357612414913691016129db565b92909161242084614b0d565b93815b81811061243f578651602080825281906102c490820189612a11565b80610301612451612462938589614a32565b358686526015602052898620613b1b565b612423565b50503461031d5761247736612ae9565b61248381939293614b0d565b935b8181106124a1578551602080825281906102c490820188612a11565b806124ba6124b36124c4938588614a32565b3585615226565b6103128288614bd0565b612485565b82843461039357817ffffffffffffffffffffffffffffffffffffffffffffffffffffffffffffffffc3601126103935760209051428152f35b8391503461043357817ffffffffffffffffffffffffffffffffffffffffffffffffffffffffffffffffc3601126104335761253b612aa3565b906024359273ffffffffffffffffffffffffffffffffffffffff918280612561876130ef565b1694169380851461267f57803314908115612660575b50156125de578486526020528420827fffffffffffffffffffffffff00000000000000000000000000000000000000008254161790556125b6836130ef565b167f8c5be1e5ebec7d5bd14f71427d1e84f3dd0314c0f7b2291e5b200ac8c7c3b9258480a480f35b602060849251917f08c379a0000000000000000000000000000000000000000000000000000000008352820152603d60248201527f4552433732313a20617070726f76652063616c6c6572206973206e6f7420746f60448201527f6b656e206f776e6572206f7220617070726f76656420666f7220616c6c0000006064820152fd5b90508652600560205281862033875260205260ff828720541687612577565b50602060849251917f08c379a0000000000000000000000000000000000000000000000000000000008352820152602160248201527f4552433732313a20617070726f76616c20746f2063757272656e74206f776e6560448201527f72000000000000000000000000000000000000000000000000000000000000006064820152fd5b83833461031d5760207ffffffffffffffffffffffffffffffffffffffffffffffffffffffffffffffffc36011261031d575073ffffffffffffffffffffffffffffffffffffffff61117160209335613226565b82843461039357817ffffffffffffffffffffffffffffffffffffffffffffffffffffffffffffffffc360112610393578051908280546127948161311e565b80855291600191808316908115610eab57506001146127bf5750505061072d826102c4940383612f5e565b80809650527f290decd9548b62a8d60345a988386fc84ba6bc95484008f6362f93160ef3e5635b8286106128035750505061072d8260206102c49582010194610e3d565b805460208787018101919091529095019481016127e6565b839150346104335760207ffffffffffffffffffffffffffffffffffffffffffffffffffffffffffffffffc3601126104335735907fffffffff00000000000000000000000000000000000000000000000000000000821680920361043357602092507f780e9d630000000000000000000000000000000000000000000000000000000082149182156128b1575b50519015158152f35b9091507f80ac58cd000000000000000000000000000000000000000000000000000000008114908115612918575b81156128ee575b5090836128a8565b7f01ffc9a700000000000000000000000000000000000000000000000000000000915014836128e6565b7f5b5e139f00000000000000000000000000000000000000000000000000000000811491506128df565b90503461039357827ffffffffffffffffffffffffffffffffffffffffffffffffffffffffffffffffc3601126103935780359060243567ffffffffffffffff811161065257612993913691016129db565b61299f81939293614b0d565b935b8181106129bd578551602080825281906102c490820188612a11565b806124ba6129cf6129d6938588614a32565b35856152b3565b6129a1565b9181601f84011215612a0c5782359167ffffffffffffffff8311612a0c576020808501948460051b010111612a0c57565b600080fd5b90815180825260208080930193019160005b828110612a31575050505090565b835185529381019392810192600101612a23565b919082519283825260005b848110612a8f5750507fffffffffffffffffffffffffffffffffffffffffffffffffffffffffffffffe0601f8460006020809697860101520116010190565b602081830181015184830182015201612a50565b6004359073ffffffffffffffffffffffffffffffffffffffff82168203612a0c57565b6024359073ffffffffffffffffffffffffffffffffffffffff82168203612a0c57565b9060407ffffffffffffffffffffffffffffffffffffffffffffffffffffffffffffffffc830112612a0c5760043573ffffffffffffffffffffffffffffffffffffffff81168103612a0c57916024359067ffffffffffffffff8211612a0c57612b54916004016129db565b9091565b7ffffffffffffffffffffffffffffffffffffffffffffffffffffffffffffffffc6060910112612a0c5773ffffffffffffffffffffffffffffffffffffffff906004358281168103612a0c57916024359081168103612a0c579060443590565b7ffffffffffffffffffffffffffffffffffffffffffffffffffffffffffffffffc6040910112612a0c576004359060243590565b90815180825260208080930193019160005b828110612c0c575050505090565b8351805173ffffffffffffffffffffffffffffffffffffffff16865282015161ffff168583015260409094019392810192600101612bfe565b919073ffffffffffffffffffffffffffffffffffffffff835116815260209283810151848301526040810151604083015260608101516060830152612cae612c9c6080830151610120806080870152850190612a45565b60a083015184820360a0860152612a45565b9160c08201519281810360c083015285808551928381520194019060005b87828210612d2f575050505060e08201519281810360e083015285808551928381520194019060005b818110612d1b57505050612d189394506101008092015191818403910152612bec565b90565b825186529487019491870191600101612cf5565b835187529586019590920191600101612ccc565b908082519081815260208091019281808460051b8301019501936000915b848310612d715750505050505090565b9091929394958480612dad837fffffffffffffffffffffffffffffffffffffffffffffffffffffffffffffffe086600196030187528a51612a45565b9801930193019194939290612d61565b6020908160408183019282815285518094520193019160005b828110612de4575050505090565b835173ffffffffffffffffffffffffffffffffffffffff1685529381019392810192600101612dd6565b9181601f84011215612a0c5782359167ffffffffffffffff8311612a0c5760208381860195010111612a0c57565b7ffffffffffffffffffffffffffffffffffffffffffffffffffffffffffffffffc90606082820112612a0c5760043567ffffffffffffffff92838211612a0c57610120908284030112612a0c5760040192602435838111612a0c5782612ea491600401612e0e565b93909392604435918211612a0c57612b5491600401612e0e565b610120810190811067ffffffffffffffff821117612edb57604052565b7f4e487b7100000000000000000000000000000000000000000000000000000000600052604160045260246000fd5b6040810190811067ffffffffffffffff821117612edb57604052565b6020810190811067ffffffffffffffff821117612edb57604052565b6060810190811067ffffffffffffffff821117612edb57604052565b90601f7fffffffffffffffffffffffffffffffffffffffffffffffffffffffffffffffe0910116810190811067ffffffffffffffff821117612edb57604052565b67ffffffffffffffff8111612edb57601f017fffffffffffffffffffffffffffffffffffffffffffffffffffffffffffffffe01660200190565b73ffffffffffffffffffffffffffffffffffffffff16801561300657600052600360205260406000205490565b60846040517f08c379a000000000000000000000000000000000000000000000000000000000815260206004820152602960248201527f4552433732313a2061646472657373207a65726f206973206e6f74206120766160448201527f6c6964206f776e657200000000000000000000000000000000000000000000006064820152fd5b1561309157565b60646040517f08c379a000000000000000000000000000000000000000000000000000000000815260206004820152601860248201527f4552433732313a20696e76616c696420746f6b656e20494400000000000000006044820152fd5b600052600260205273ffffffffffffffffffffffffffffffffffffffff60406000205416612d1881151561308a565b90600182811c92168015613167575b602083101461313857565b7f4e487b7100000000000000000000000000000000000000000000000000000000600052602260045260246000fd5b91607f169161312d565b90600092918054916131828361311e565b9182825260019384811690816000146131e457506001146131a4575b50505050565b90919394506000526020928360002092846000945b8386106131d057505050500101903880808061319e565b8054858701830152940193859082016131b9565b91505060209495507fffffffffffffffffffffffffffffffffffffffffffffffffffffffffffffff009193501683830152151560051b0101903880808061319e565b80600052600260205273ffffffffffffffffffffffffffffffffffffffff906132578260406000205416151561308a565b60005260046020526040600020541690565b1561327057565b60846040517f08c379a000000000000000000000000000000000000000000000000000000000815260206004820152602d60248201527f4552433732313a2063616c6c6572206973206e6f7420746f6b656e206f776e6560448201527f72206f7220617070726f766564000000000000000000000000000000000000006064820152fd5b156132fb57565b6040517f08c379a000000000000000000000000000000000000000000000000000000000815260206004820152603260248201527f4552433732313a207472616e7366657220746f206e6f6e20455243373231526560448201527f63656976657220696d706c656d656e74657200000000000000000000000000006064820152608490fd5b9073ffffffffffffffffffffffffffffffffffffffff80806133a1846130ef565b169316918383149384156133d4575b5083156133be575b50505090565b6133ca91929350613226565b16143880806133b8565b909350600052600560205260406000208260005260205260ff6040600020541692386133b0565b1561340257565b60846040517f08c379a000000000000000000000000000000000000000000000000000000000815260206004820152602560248201527f4552433732313a207472616e736665722066726f6d20696e636f72726563742060448201527f6f776e65720000000000000000000000000000000000000000000000000000006064820152fd5b6134b791613493846130ef565b73ffffffffffffffffffffffffffffffffffffffff938484169391851684146133fb565b8382169384156137935783159182801561378b575b156137075784921561361757509050600854908560005260096020528160406000205568010000000000000000821015612edb5761353592866135196116e3856001899701600855613ae4565b90555b8286036135e4575b5061352e866130ef565b16146133fb565b7fddf252ad1be2c89b69c2b068fc378daa952ba7f163c4a11628f55a4df523b3ef60008481526004602052604081207fffffffffffffffffffffffff0000000000000000000000000000000000000000908181541690558382526003602052604082207fffffffffffffffffffffffffffffffffffffffffffffffffffffffffffffffff81540190558482526040822060018154019055858252600260205284604083209182541617905580a4565b6135ed90612fd9565b60406000878152600660205281812083825260205288828220558881526007602052205538613524565b858303613629575b506135359261351c565b613634919250612fd9565b907fffffffffffffffffffffffffffffffffffffffffffffffffffffffffffffffff82019182116136d85761353592849260009088825260209060078252604091828420548281036136a1575b508a8452838381205586845260068152828420918452528120559261361f565b8785526006825283852083865282528385205488865260068352848620828752835280858720558552600782528385205538613681565b7f4e487b7100000000000000000000000000000000000000000000000000000000600052601160045260246000fd5b60846040517f08c379a000000000000000000000000000000000000000000000000000000000815260206004820152602660248201527f746f6b656e732063616e6e6f74206265207472616e736665726564206f6e207460448201527f6573746e657400000000000000000000000000000000000000000000000000006064820152fd5b5060006134cc565b60846040517f08c379a0000000000000000000000000000000000000000000000000000000008152602060048201526024808201527f4552433732313a207472616e7366657220746f20746865207a65726f2061646460448201527f72657373000000000000000000000000000000000000000000000000000000006064820152fd5b9091600091803b156139e9576138919360405190817f150b7a020000000000000000000000000000000000000000000000000000000093848252336004830152866024830152600a604483015260806064830152818773ffffffffffffffffffffffffffffffffffffffff8260209b8c976084830190612a45565b0393165af1849181613991575b50613968575050503d600014613960573d6138b881612f9f565b906138c66040519283612f5e565b81528091833d92013e5b8051918261395d576040517f08c379a000000000000000000000000000000000000000000000000000000000815260206004820152603260248201527f4552433732313a207472616e7366657220746f206e6f6e20455243373231526560448201527f63656976657220696d706c656d656e74657200000000000000000000000000006064820152608490fd5b01fd5b5060606138d0565b7fffffffff00000000000000000000000000000000000000000000000000000000161492509050565b9091508581813d83116139e2575b6139a98183612f5e565b8101031261064e57517fffffffff000000000000000000000000000000000000000000000000000000008116810361064e57903861389e565b503d61399f565b50915050600190565b9293600093909291803b15613a735794849161389196604051809481937f150b7a02000000000000000000000000000000000000000000000000000000009788845233600485015273ffffffffffffffffffffffffffffffffffffffff80921660248501526044840152608060648401528260209b8c976084830190612a45565b505050915050600190565b600f54811015613ab557600f6000527f8d1108e10bcb7c27dddfc02ed9d693a074039d026cf4ea4240b40f7d581ac8020190600090565b7f4e487b7100000000000000000000000000000000000000000000000000000000600052603260045260246000fd5b600854811015613ab55760086000527ff3f7a9fe364faab93b216da50a3214154f22a0a2b415b23a84c8169e8b636ee30190600090565b8054821015613ab55760005260206000200190600090565b3573ffffffffffffffffffffffffffffffffffffffff81168103612a0c5790565b9035907fffffffffffffffffffffffffffffffffffffffffffffffffffffffffffffffe181360301821215612a0c570180359067ffffffffffffffff8211612a0c57602001918136038313612a0c57565b9035907fffffffffffffffffffffffffffffffffffffffffffffffffffffffffffffffe181360301821215612a0c570180359067ffffffffffffffff8211612a0c57602001918160051b36038313612a0c57565b9394929094600a9485600052600e60205242604060002055613c1a81613b33565b604051613c2681612f26565b6000815273ffffffffffffffffffffffffffffffffffffffff82161561494257600a60005260026020527fd3604db978f6137b0d18816b77b2ce810487a3af08a922e0b184963be5f3adfc54613c959073ffffffffffffffffffffffffffffffffffffffff1615155b156149a0565b600854908860005260096020528160406000205568010000000000000000821015612edb57613e3992613cd1836001610b019501600855613ae4565b81547fffffffffffffffffffffffffffffffffffffffffffffffffffffffffffffffff8d8360031b1b9260031b1b1916179055613d0d81612fd9565b73ffffffffffffffffffffffffffffffffffffffff821660005260066020526040600020816000526020528a6040600020558a6000526007602052604060002055613d7f613c8f600a600052600260205273ffffffffffffffffffffffffffffffffffffffff60406000205416151590565b73ffffffffffffffffffffffffffffffffffffffff81166000526003602052604060002060018154019055896000526002602052604060002073ffffffffffffffffffffffffffffffffffffffff82167fffffffffffffffffffffffff00000000000000000000000000000000000000008254161790558973ffffffffffffffffffffffffffffffffffffffff821660007fddf252ad1be2c89b69c2b068fc378daa952ba7f163c4a11628f55a4df523b3ef8180a4613816565b613e466080820182613b54565b613e6a60206040518381948383019687378101600083820152038084520182612f5e565b51902080600052600b6020526040600020546148be57600052600b602052856040600020558560005285602052604060002073ffffffffffffffffffffffffffffffffffffffff613eba83613b33565b167fffffffffffffffffffffffff0000000000000000000000000000000000000000825416178155602082013560018201556040820135600282015560608201356003820155613f0d6080830183613b54565b9067ffffffffffffffff8211612edb578190613f3982613f30600487015461311e565b60048701614a66565b600090601f83116001146147f3576000926147e8575b50507fffffffffffffffffffffffffffffffffffffffffffffffffffffffffffffffff8260011b9260031b1c19161760048201555b613f9160a0830183613b54565b9067ffffffffffffffff8211612edb578190613fbd82613fb4600587015461311e565b60058701614a66565b600090601f831160011461471d57600092614712575b50507fffffffffffffffffffffffffffffffffffffffffffffffffffffffffffffffff8260011b9260031b1c19161760058201555b61401560c0830183613ba5565b9067ffffffffffffffff8211612edb57680100000000000000008211612edb5760068301548260068501558083106146f1575b5060068301600052602060002060005b8381106146dd575050505061407060e0830183613ba5565b9067ffffffffffffffff8211612edb57680100000000000000008211612edb5760078301548260078501558083106146b0575b5060078301600052602060002060005b83811061469c57505050507fffffffffffffffffffffffffffffffffffffffffffffffffffffffffffffffe1823603016101008301351215612a0c5767ffffffffffffffff61010083013583013511612a0c576101008201358201803560061b3603602090910113612a0c576801000000000000000061010083013583013511612edb5760088101805461010084013584013591829055908111614667575b506008602061010084013584010191016000526020600020906000905b61010084013584013582106145da5750505061418a81613b33565b61419760a0830183613b54565b9081604051928392833781016000815203902090877f0b85051017293732c5b533b177efc66475411a9fdd5fbc8ecb619906658413d6606073ffffffffffffffffffffffffffffffffffffffff6040519460208801358652604088013560208701528288013560408701521693a461421260c0820182613ba5565b905060005b8181106145945750508060e061422e920190613ba5565b600381116145105780158061450757613ab5578135915b60018211156144ff578160011015613ab5576020810135915b60028111156144f55760021015613ab55760400135915b7fb237134d29775150b1edf87af1dc343262244af7cbb474cfc64cb6e8824af66360206040518a8152a484600052600c60205260406000209167ffffffffffffffff8211612edb5781906142d3826142cd865461311e565b86614a66565b600090601f831160011461445057600092614445575b50507fffffffffffffffffffffffffffffffffffffffffffffffffffffffffffffffff8260011b9260031b1c19161790555b82600052600d60205260406000209067ffffffffffffffff8111612edb5761434d81614347845461311e565b84614a66565b6000601f82116001146143a557819293949560009261439a575b50507fffffffffffffffffffffffffffffffffffffffffffffffffffffffffffffffff8260011b9260031b1c1916179055565b013590503880614367565b7fffffffffffffffffffffffffffffffffffffffffffffffffffffffffffffffe08216958360005260206000209160005b88811061442d575083600195969798106143f5575b505050811b019055565b7fffffffffffffffffffffffffffffffffffffffffffffffffffffffffffffffff60f88560031b161c199101351690553880806143eb565b909260206001819286860135815501940191016143d6565b0135905038806142e9565b90917fffffffffffffffffffffffffffffffffffffffffffffffffffffffffffffffe016918460005260206000209260005b8181106144dd57509084600195949392106144a5575b505050811b01905561431b565b7fffffffffffffffffffffffffffffffffffffffffffffffffffffffffffffffff60f88560031b161c19910135169055388080614498565b91936020600181928787013581550195019201614482565b5050600091614275565b60009161425e565b50600091614245565b60846040517f08c379a000000000000000000000000000000000000000000000000000000000815260206004820152603860248201527f4461746153746f726167653a2074616773206c656e677468206d75737420626560448201527f206c657373207468616e206f7220657175616c20746f203300000000000000006064820152fd5b806145a96145d59261159960c0870187613ba5565b35897f65327253f8d67c2e23cb4dfab28ca7437b04e9098cf4e985073d76df25209ad4600080a3614a05565b614217565b73ffffffffffffffffffffffffffffffffffffffff6145f882613b33565b84549116602083013561ffff81169003612a0c577fffffffffffffffffffff0000000000000000000000000000000000000000000090911617602082013560a01b75ffff000000000000000000000000000000000000000016178355600192830192919091019060400161416f565b6008820160005260206000209061010084013584013582015b8183018110614690575050614152565b60008155600101614680565b6001906020843594019381840155016140b3565b600784016000526020600020908382015b81830181106146d15750506140a3565b600081556001016146c1565b600190602084359401938184015501614058565b61470c90600685016000528360206000209182019101614a4f565b38614048565b013590503880613fd3565b909250600584016000526020600020906000935b7fffffffffffffffffffffffffffffffffffffffffffffffffffffffffffffffe0841685106147d05760019450837fffffffffffffffffffffffffffffffffffffffffffffffffffffffffffffffe0811610614798575b505050811b016005820155614008565b7fffffffffffffffffffffffffffffffffffffffffffffffffffffffffffffffff60f88560031b161c19910135169055388080614788565b81810135835560209485019460019093019201614731565b013590503880613f4f565b909250600484016000526020600020906000935b7fffffffffffffffffffffffffffffffffffffffffffffffffffffffffffffffe0841685106148a65760019450837fffffffffffffffffffffffffffffffffffffffffffffffffffffffffffffffe081161061486e575b505050811b016004820155613f84565b7fffffffffffffffffffffffffffffffffffffffffffffffffffffffffffffffff60f88560031b161c1991013516905538808061485e565b81810135835560209485019460019093019201614807565b60846040517f08c379a000000000000000000000000000000000000000000000000000000000815260206004820152602360248201527f4461746153746f726167653a20757269207265676973746572656420616c726560448201527f61647900000000000000000000000000000000000000000000000000000000006064820152fd5b60646040517f08c379a000000000000000000000000000000000000000000000000000000000815260206004820152602060248201527f4552433732313a206d696e7420746f20746865207a65726f20616464726573736044820152fd5b156149a757565b60646040517f08c379a000000000000000000000000000000000000000000000000000000000815260206004820152601c60248201527f4552433732313a20746f6b656e20616c7265616479206d696e746564000000006044820152fd5b7fffffffffffffffffffffffffffffffffffffffffffffffffffffffffffffffff81146136d85760010190565b9190811015613ab55760051b0190565b919082039182116136d857565b818110614a5a575050565b60008155600101614a4f565b9190601f8111614a7557505050565b614aa1926000526020600020906020601f840160051c83019310614aa3575b601f0160051c0190614a4f565b565b9091508190614a94565b67ffffffffffffffff8111612edb5760051b60200190565b60405190614ad282612ebe565b816000815260006020820152600060408201526101006060916000838201528260808201528260a08201528260c08201528260e08201520152565b90614b1782614aad565b614b246040519182612f5e565b8281527fffffffffffffffffffffffffffffffffffffffffffffffffffffffffffffffe0614b528294614aad565b0190602036910137565b90614b6682614aad565b614b736040519182612f5e565b8281527fffffffffffffffffffffffffffffffffffffffffffffffffffffffffffffffe0614ba18294614aad565b019060005b828110614bb257505050565b806060602080938501015201614ba6565b805115613ab55760200190565b8051821015613ab55760209160051b010190565b9060405191828154918282526020928383019160005283600020936000905b828210614c1957505050614aa192500383612f5e565b855484526001958601958895509381019390910190614c03565b90614c3c614ac5565b506060600091838352602092600a8452604090818120948251614c5e81612ebe565b73ffffffffffffffffffffffffffffffffffffffff9687815416825260018082015484840152600282015498868401998a526003830154898501528651614cb381614cac8160048801613171565b0382612f5e565b6080850152865192614cd384614ccc8160058501613171565b0385612f5e565b60a0938486015260068101885190818882549182815201918a52888a20908a5b878b838310614dfc57505050505090614d1181600894930382612f5e565b60c0870152614d2260078201614be4565b60e087015201805491614d3483614aad565b94614d418a519687612f5e565b8386528786019289528789209189935b8b8a878710614dcf5750505050505050505061010082015296808352600e8252838320549651421015614d9b575b9282600c8293614cac96612d1896525220905192838092613171565b94509180612d1892600c85600d614cac9752614cac614dc1858520865192838092613171565b989350939550509250614d7f565b8892839251614ddd81612f0a565b61ffff88548781168352881c1683820152815201940194019392614d51565b84548652909401939283019201614cf3565b6000908152602091600a835260409182812092805193614e2d85612ebe565b73ffffffffffffffffffffffffffffffffffffffff8082541686526001918281015488880152600281015484880152600381015460608801528351614e7981614cac8160048601613171565b6080880152835190614e92826107268160058501613171565b60a08881019290925284516006820180548083529088528a88208b83019189888e5b838310614fd357505050505090614ed081600894930382612f5e565b60c08a0152614ee160078201614be4565b60e08a015201805490614ef382614aad565b92614f0087519485612f5e565b8284529087528987208791868c86015b8d868610614fa5575050505050505080610100880152805115600014614f9a5750825193614f3d85612f0a565b828552805b888110614f7957505095614f7694959684975116925192614f6284612f0a565b8352820152614f7082614bc3565b52614bc3565b50565b88908551614f8681612f0a565b838152838382015282828901015201614f42565b955050505050915090565b82918b51614fb281612f0a565b61ffff87548c81168352871c16838201528152019301930192918790614f10565b84548652909401939283019201888e614eb4565b614ff090613a7e565b90549060031b1c80600052601160205290565b816000526002810160205260406000205491821591821592615088575b50501561502a5790565b60646040517f08c379a000000000000000000000000000000000000000000000000000000000815260206004820152601e60248201527f456e756d657261626c654d61703a206e6f6e6578697374656e74206b657900006044820152fd5b6150a2925060019160005201602052604060002054151590565b3880615020565b60008181526010602052604081205461512857600f54680100000000000000008110156150fb5790826150e76116e384600160409601600f55613a7e565b9055600f5492815260106020522055600190565b6024827f4e487b710000000000000000000000000000000000000000000000000000000081526041600452fd5b905090565b60008181526014602052604081205461512857601354680100000000000000008110156150fb57600181018060135581101561519d5790826040927f66de8ffda797e3de9c05e8fc57b3bf0ec28a930d40b0d285d93c06501cf6a090015560135492815260146020522055600190565b6024827f4e487b710000000000000000000000000000000000000000000000000000000081526032600452fd5b600082815260018201602052604090205461521f5780549068010000000000000000821015612edb57826152086116e3846001809601855584613b1b565b905580549260005201602052604060002055600190565b5050600090565b73ffffffffffffffffffffffffffffffffffffffff166000526012602052600261525560406000209283613b1b565b90549060031b1c91826000520160205290565b601354811015613ab55760136000527f66de8ffda797e3de9c05e8fc57b3bf0ec28a930d40b0d285d93c06501cf6a090015473ffffffffffffffffffffffffffffffffffffffff1690565b6000526017602052600261525560406000209283613b1b565b6000828152601760205260408120906152f5838360019160005201602052604060002054151590565b156153005750505050565b6153239381526017602052604080822054918481526002840160205220556151ca565b503880808061319e56fea26469706673582212205bfc1f7c66b12a0131c8deb160265d7c8824b36125a5a1c4951239c7d2bf978b64736f6c63430008130033","opcodes":"PUSH1 0x80 CALLVALUE PUSH3 0x35C JUMPI PUSH1 0x1F PUSH1 0x1F NOT PUSH1 0x1 PUSH1 0x1 PUSH1 0x40 SHL SUB PUSH3 0x56E5 CODESIZE DUP2 SWAP1 SUB DUP5 DUP2 ADD DUP5 AND DUP7 ADD DUP4 DUP2 GT DUP8 DUP3 LT OR PUSH3 0x346 JUMPI DUP7 SWAP3 DUP3 SWAP2 PUSH1 0x40 MSTORE DUP4 CODECOPY PUSH1 0x20 SWAP6 DUP7 SWAP2 DUP2 ADD SUB SLT PUSH3 0x35C JUMPI MLOAD PUSH1 0x1 PUSH1 0x1 PUSH1 0xA0 SHL SUB DUP2 AND SWAP4 SWAP1 DUP5 SWAP1 SUB PUSH3 0x35C JUMPI PUSH3 0x65 PUSH3 0x361 JUMP JUMPDEST SWAP3 PUSH1 0xA DUP5 MSTORE PUSH10 0x4B617469626568373231 PUSH1 0xB0 SHL DUP7 DUP6 ADD MSTORE PUSH3 0x86 PUSH3 0x361 JUMP JUMPDEST SWAP1 PUSH1 0x7 DUP3 MSTORE PUSH7 0x9682A892848A9 PUSH1 0xCB SHL DUP8 DUP4 ADD MSTORE DUP5 MLOAD SWAP1 DUP5 DUP3 GT PUSH3 0x346 JUMPI PUSH1 0x0 SWAP2 DUP3 SLOAD SWAP7 PUSH1 0x1 SWAP8 DUP9 DUP2 DUP2 SHR SWAP2 AND DUP1 ISZERO PUSH3 0x33B JUMPI JUMPDEST DUP12 DUP3 LT EQ PUSH3 0x327 JUMPI SWAP1 DUP2 DUP8 DUP5 SWAP4 GT PUSH3 0x2D4 JUMPI JUMPDEST POP DUP11 SWAP1 DUP8 DUP4 GT PUSH1 0x1 EQ PUSH3 0x271 JUMPI DUP6 SWAP3 PUSH3 0x265 JUMPI JUMPDEST POP POP PUSH1 0x0 NOT PUSH1 0x3 DUP4 SWAP1 SHL SHR NOT AND SWAP1 DUP8 SHL OR DUP3 SSTORE JUMPDEST DUP3 MLOAD SWAP5 DUP6 GT PUSH3 0x251 JUMPI DUP6 SLOAD DUP7 DUP2 DUP2 SHR SWAP2 AND DUP1 ISZERO PUSH3 0x246 JUMPI JUMPDEST DUP10 DUP3 LT EQ PUSH3 0x232 JUMPI DUP5 DUP2 GT PUSH3 0x1EA JUMPI JUMPDEST POP DUP8 SWAP4 DUP6 GT PUSH1 0x1 EQ PUSH3 0x185 JUMPI POP DUP4 SWAP5 SWAP6 SWAP7 POP SWAP3 PUSH3 0x179 JUMPI JUMPDEST POP POP PUSH1 0x0 NOT PUSH1 0x3 DUP4 SWAP1 SHL SHR NOT AND SWAP1 DUP3 SHL OR SWAP1 SSTORE JUMPDEST PUSH1 0x18 DUP1 SLOAD PUSH1 0x1 PUSH1 0x1 PUSH1 0xA0 SHL SUB NOT AND SWAP2 SWAP1 SWAP2 OR SWAP1 SSTORE PUSH1 0x40 MLOAD PUSH2 0x5363 SWAP1 DUP2 PUSH3 0x382 DUP3 CODECOPY RETURN JUMPDEST ADD MLOAD SWAP1 POP CODESIZE DUP1 PUSH3 0x141 JUMP JUMPDEST DUP5 SWAP4 SWAP3 SWAP2 SWAP4 AND SWAP7 DUP6 DUP5 MSTORE DUP1 DUP5 KECCAK256 SWAP4 SWAP1 JUMPDEST DUP9 DUP3 LT PUSH3 0x1D2 JUMPI POP POP DUP4 DUP6 SWAP7 SWAP8 LT PUSH3 0x1B8 JUMPI JUMPDEST POP POP POP DUP2 SHL ADD SWAP1 SSTORE PUSH3 0x155 JUMP JUMPDEST ADD MLOAD PUSH1 0x0 NOT PUSH1 0xF8 DUP5 PUSH1 0x3 SHL AND SHR NOT AND SWAP1 SSTORE CODESIZE DUP1 DUP1 PUSH3 0x1AA JUMP JUMPDEST DUP1 DUP8 DUP6 SWAP7 DUP3 SWAP5 SWAP7 DUP7 ADD MLOAD DUP2 SSTORE ADD SWAP6 ADD SWAP4 ADD SWAP1 PUSH3 0x195 JUMP JUMPDEST DUP7 DUP4 MSTORE DUP9 DUP4 KECCAK256 DUP6 DUP1 DUP9 ADD PUSH1 0x5 SHR DUP3 ADD SWAP3 DUP12 DUP10 LT PUSH3 0x228 JUMPI JUMPDEST ADD PUSH1 0x5 SHR ADD SWAP1 DUP8 SWAP1 JUMPDEST DUP3 DUP2 LT PUSH3 0x21C JUMPI POP POP PUSH3 0x127 JUMP JUMPDEST DUP5 DUP2 SSTORE ADD DUP8 SWAP1 PUSH3 0x20C JUMP JUMPDEST SWAP3 POP DUP2 SWAP3 PUSH3 0x203 JUMP JUMPDEST PUSH4 0x4E487B71 PUSH1 0xE0 SHL DUP4 MSTORE PUSH1 0x22 PUSH1 0x4 MSTORE PUSH1 0x24 DUP4 REVERT JUMPDEST SWAP1 PUSH1 0x7F AND SWAP1 PUSH3 0x115 JUMP JUMPDEST PUSH4 0x4E487B71 PUSH1 0xE0 SHL DUP3 MSTORE PUSH1 0x41 PUSH1 0x4 MSTORE PUSH1 0x24 DUP3 REVERT JUMPDEST ADD MLOAD SWAP1 POP CODESIZE DUP1 PUSH3 0xE7 JUMP JUMPDEST SWAP1 DUP5 DUP11 SWAP5 AND SWAP2 DUP7 DUP1 MSTORE DUP13 DUP8 KECCAK256 SWAP3 DUP14 DUP9 SWAP1 JUMPDEST DUP3 DUP3 LT PUSH3 0x2BC JUMPI POP POP DUP5 GT PUSH3 0x2A2 JUMPI JUMPDEST POP POP POP DUP2 SHL ADD DUP3 SSTORE PUSH3 0xFB JUMP JUMPDEST ADD MLOAD PUSH1 0x0 NOT PUSH1 0xF8 DUP5 PUSH1 0x3 SHL AND SHR NOT AND SWAP1 SSTORE CODESIZE DUP1 DUP1 PUSH3 0x294 JUMP JUMPDEST DUP4 DUP6 ADD MLOAD DUP7 SSTORE DUP14 SWAP8 SWAP1 SWAP6 ADD SWAP5 SWAP4 DUP5 ADD SWAP4 ADD DUP15 PUSH3 0x282 JUMP JUMPDEST SWAP1 SWAP2 POP DUP5 DUP1 MSTORE DUP11 DUP6 KECCAK256 DUP8 DUP1 DUP6 ADD PUSH1 0x5 SHR DUP3 ADD SWAP3 DUP14 DUP7 LT PUSH3 0x31D JUMPI JUMPDEST SWAP2 DUP12 SWAP2 DUP7 SWAP6 SWAP5 SWAP4 ADD PUSH1 0x5 SHR ADD SWAP2 JUMPDEST DUP3 DUP2 LT PUSH3 0x30E JUMPI POP POP PUSH3 0xD1 JUMP JUMPDEST DUP8 DUP2 SSTORE DUP6 SWAP5 POP DUP12 SWAP2 ADD PUSH3 0x2FE JUMP JUMPDEST SWAP3 POP DUP2 SWAP3 PUSH3 0x2F0 JUMP JUMPDEST PUSH4 0x4E487B71 PUSH1 0xE0 SHL DUP6 MSTORE PUSH1 0x22 PUSH1 0x4 MSTORE PUSH1 0x24 DUP6 REVERT JUMPDEST SWAP1 PUSH1 0x7F AND SWAP1 PUSH3 0xBC JUMP JUMPDEST PUSH4 0x4E487B71 PUSH1 0xE0 SHL PUSH1 0x0 MSTORE PUSH1 0x41 PUSH1 0x4 MSTORE PUSH1 0x24 PUSH1 0x0 REVERT JUMPDEST PUSH1 0x0 DUP1 REVERT JUMPDEST PUSH1 0x40 DUP1 MLOAD SWAP2 SWAP1 DUP3 ADD PUSH1 0x1 PUSH1 0x1 PUSH1 0x40 SHL SUB DUP2 GT DUP4 DUP3 LT OR PUSH3 0x346 JUMPI PUSH1 0x40 MSTORE JUMP INVALID PUSH1 0x40 PUSH1 0x80 DUP2 MSTORE PUSH1 0x4 DUP1 CALLDATASIZE LT ISZERO PUSH2 0x14 JUMPI PUSH1 0x0 DUP1 REVERT JUMPDEST PUSH1 0x0 SWAP1 DUP2 CALLDATALOAD PUSH1 0xE0 SHR SWAP1 DUP2 PUSH4 0x17642E4 EQ PUSH2 0x2942 JUMPI DUP2 PUSH4 0x1FFC9A7 EQ PUSH2 0x281B JUMPI DUP2 PUSH4 0x6FDDE03 EQ PUSH2 0x2755 JUMPI DUP2 PUSH4 0x81812FC EQ PUSH2 0x2702 JUMPI DUP2 PUSH4 0x95EA7B3 EQ PUSH2 0x2502 JUMPI DUP2 PUSH4 0xAB0DF87 EQ PUSH2 0x24C9 JUMPI DUP2 PUSH4 0x132E75D6 EQ PUSH2 0x2467 JUMPI DUP2 PUSH4 0x1674ED4B EQ PUSH2 0x23C2 JUMPI DUP2 PUSH4 0x18160DDD EQ PUSH2 0x2385 JUMPI DUP2 PUSH4 0x1AE69B61 EQ PUSH2 0x2348 JUMPI DUP2 PUSH4 0x23B872DD EQ PUSH2 0x2323 JUMPI DUP2 PUSH4 0x26156636 EQ PUSH2 0x22E5 JUMPI DUP2 PUSH4 0x29C7785F EQ PUSH2 0x22BC JUMPI DUP2 PUSH4 0x2B0ECA8C EQ PUSH2 0x20B7 JUMPI DUP2 PUSH4 0x2C230901 EQ PUSH2 0x2028 JUMPI DUP2 PUSH4 0x2E0D0718 EQ PUSH2 0x1FE1 JUMPI DUP2 PUSH4 0x2F745C59 EQ PUSH2 0x1EDE JUMPI DUP2 PUSH4 0x31D99545 EQ PUSH2 0x1E4A JUMPI DUP2 PUSH4 0x3552D220 EQ PUSH2 0x1E2E JUMPI DUP2 PUSH4 0x39D77F25 EQ PUSH2 0x1C1D JUMPI DUP2 PUSH4 0x40B94757 EQ PUSH2 0x1B7B JUMPI DUP2 PUSH4 0x42842E0E EQ PUSH2 0x1B47 JUMPI DUP2 PUSH4 0x42966C68 EQ PUSH2 0x1632 JUMPI DUP2 PUSH4 0x4667C884 EQ PUSH2 0x15EB JUMPI DUP2 PUSH4 0x4832E8F3 EQ PUSH2 0x1348 JUMPI DUP2 PUSH4 0x4F6CCCE7 EQ PUSH2 0x1279 JUMPI DUP2 PUSH4 0x4FC09275 EQ PUSH2 0x1232 JUMPI DUP2 PUSH4 0x60F6A4A3 EQ PUSH2 0x11CC JUMPI DUP2 PUSH4 0x6352211E EQ PUSH2 0x1179 JUMPI DUP2 PUSH4 0x6D571B6A EQ PUSH2 0x111E JUMPI DUP2 PUSH4 0x70A08231 EQ PUSH2 0x10DA JUMPI DUP2 PUSH4 0x7372E98D EQ PUSH2 0x10BB JUMPI DUP2 PUSH4 0x78292236 EQ PUSH2 0x1074 JUMPI DUP2 PUSH4 0x8282674F EQ PUSH2 0x102B JUMPI DUP2 PUSH4 0x83B81EBD EQ PUSH2 0xFE4 JUMPI DUP2 PUSH4 0x89F65715 EQ PUSH2 0xF92 JUMPI DUP2 PUSH4 0x8F93FB39 EQ PUSH2 0xEF1 JUMPI DUP2 PUSH4 0x95D89B41 EQ PUSH2 0xDE4 JUMPI DUP2 PUSH4 0x96CC6A34 EQ PUSH2 0xD49 JUMPI DUP2 PUSH4 0xA22CB465 EQ PUSH2 0xC1A JUMPI DUP2 PUSH4 0xAF3EA105 EQ PUSH2 0xB84 JUMPI DUP2 PUSH4 0xB1582201 EQ PUSH2 0xB0D JUMPI DUP2 PUSH4 0xB88D4FDE EQ PUSH2 0xA3B JUMPI DUP2 PUSH4 0xBFC9B364 EQ PUSH2 0x9F1 JUMPI DUP2 PUSH4 0xC03D1D91 EQ PUSH2 0x8FC JUMPI DUP2 PUSH4 0xC3512876 EQ PUSH2 0x73F JUMPI DUP2 PUSH4 0xC87B56DD EQ PUSH2 0x6D1 JUMPI DUP2 PUSH4 0xCC33C875 EQ PUSH2 0x656 JUMPI DUP2 PUSH4 0xCCA3C766 EQ PUSH2 0x5AD JUMPI DUP2 PUSH4 0xDD468791 EQ PUSH2 0x570 JUMPI DUP2 PUSH4 0xE985E9C5 EQ PUSH2 0x4F7 JUMPI DUP2 PUSH4 0xF076ED3B EQ PUSH2 0x4A4 JUMPI DUP2 PUSH4 0xF353A732 EQ PUSH2 0x437 JUMPI DUP2 PUSH4 0xF6BD7AB8 EQ PUSH2 0x397 JUMPI POP DUP1 PUSH4 0xF99458A4 EQ PUSH2 0x320 JUMPI PUSH4 0xFE649B7E EQ PUSH2 0x28A JUMPI PUSH1 0x0 DUP1 REVERT JUMPDEST CALLVALUE PUSH2 0x31D JUMPI PUSH2 0x298 CALLDATASIZE PUSH2 0x2AE9 JUMP JUMPDEST SWAP3 PUSH2 0x2A5 DUP5 SWAP4 SWAP3 SWAP4 PUSH2 0x4B0D JUMP JUMPDEST SWAP4 DUP2 JUMPDEST DUP2 DUP2 LT PUSH2 0x2C8 JUMPI DUP7 MLOAD PUSH1 0x20 DUP1 DUP3 MSTORE DUP2 SWAP1 PUSH2 0x2C4 SWAP1 DUP3 ADD DUP10 PUSH2 0x2A11 JUMP JUMPDEST SUB SWAP1 RETURN JUMPDEST DUP1 PUSH2 0x301 PUSH2 0x2DA PUSH2 0x318 SWAP4 DUP6 DUP10 PUSH2 0x4A32 JUMP JUMPDEST CALLDATALOAD PUSH20 0xFFFFFFFFFFFFFFFFFFFFFFFFFFFFFFFFFFFFFFFF DUP8 AND DUP7 MSTORE PUSH1 0x16 PUSH1 0x20 MSTORE DUP10 DUP7 KECCAK256 PUSH2 0x3B1B JUMP JUMPDEST SWAP1 SLOAD SWAP1 PUSH1 0x3 SHL SHR PUSH2 0x312 DUP3 DUP10 PUSH2 0x4BD0 JUMP JUMPDEST MSTORE PUSH2 0x4A05 JUMP JUMPDEST PUSH2 0x2A8 JUMP JUMPDEST DUP1 REVERT JUMPDEST POP SWAP1 CALLVALUE PUSH2 0x393 JUMPI DUP1 PUSH32 0xFFFFFFFFFFFFFFFFFFFFFFFFFFFFFFFFFFFFFFFFFFFFFFFFFFFFFFFFFFFFFFFC CALLDATASIZE ADD SLT PUSH2 0x393 JUMPI PUSH2 0x385 PUSH1 0x20 SWAP3 PUSH20 0xFFFFFFFFFFFFFFFFFFFFFFFFFFFFFFFFFFFFFFFF PUSH2 0x373 PUSH2 0x2AA3 JUMP JUMPDEST AND DUP2 MSTORE PUSH1 0x16 DUP5 MSTORE DUP3 PUSH1 0x24 CALLDATALOAD SWAP2 KECCAK256 PUSH2 0x3B1B JUMP JUMPDEST SWAP2 SWAP1 SLOAD SWAP1 MLOAD SWAP2 PUSH1 0x3 SHL SHR DUP2 MSTORE RETURN JUMPDEST POP DUP1 REVERT JUMPDEST SWAP1 POP CALLVALUE PUSH2 0x393 JUMPI PUSH1 0x20 PUSH32 0xFFFFFFFFFFFFFFFFFFFFFFFFFFFFFFFFFFFFFFFFFFFFFFFFFFFFFFFFFFFFFFFC CALLDATASIZE ADD SLT PUSH2 0x393 JUMPI DUP1 CALLDATALOAD PUSH8 0xFFFFFFFFFFFFFFFF DUP2 GT PUSH2 0x433 JUMPI PUSH2 0x3E5 SWAP2 CALLDATASIZE SWAP2 ADD PUSH2 0x29DB JUMP JUMPDEST PUSH2 0x3EE DUP2 PUSH2 0x4B0D JUMP JUMPDEST SWAP3 JUMPDEST DUP2 DUP2 LT PUSH2 0x40C JUMPI DUP5 MLOAD PUSH1 0x20 DUP1 DUP3 MSTORE DUP2 SWAP1 PUSH2 0x2C4 SWAP1 DUP3 ADD DUP8 PUSH2 0x2A11 JUMP JUMPDEST DUP1 PUSH2 0x424 PUSH2 0x41E PUSH2 0x42E SWAP4 DUP6 DUP8 PUSH2 0x4A32 JUMP JUMPDEST CALLDATALOAD PUSH2 0x4FE7 JUMP JUMPDEST PUSH2 0x312 DUP3 DUP8 PUSH2 0x4BD0 JUMP JUMPDEST PUSH2 0x3F0 JUMP JUMPDEST DUP3 DUP1 REVERT JUMPDEST DUP3 DUP5 CALLVALUE PUSH2 0x393 JUMPI PUSH1 0x20 PUSH32 0xFFFFFFFFFFFFFFFFFFFFFFFFFFFFFFFFFFFFFFFFFFFFFFFFFFFFFFFFFFFFFFFC CALLDATASIZE ADD SLT PUSH2 0x393 JUMPI PUSH1 0x20 SWAP1 PUSH2 0x49D PUSH2 0x476 PUSH2 0x2AA3 JUMP JUMPDEST PUSH20 0xFFFFFFFFFFFFFFFFFFFFFFFFFFFFFFFFFFFFFFFF AND PUSH1 0x0 MSTORE PUSH1 0x16 PUSH1 0x20 MSTORE PUSH1 0x40 PUSH1 0x0 KECCAK256 SLOAD SWAP1 JUMP JUMPDEST SWAP1 MLOAD SWAP1 DUP2 MSTORE RETURN JUMPDEST DUP3 DUP5 CALLVALUE PUSH2 0x393 JUMPI DUP2 PUSH32 0xFFFFFFFFFFFFFFFFFFFFFFFFFFFFFFFFFFFFFFFFFFFFFFFFFFFFFFFFFFFFFFFC CALLDATASIZE ADD SLT PUSH2 0x393 JUMPI PUSH1 0x20 SWAP1 PUSH20 0xFFFFFFFFFFFFFFFFFFFFFFFFFFFFFFFFFFFFFFFF PUSH1 0x18 SLOAD AND SWAP1 MLOAD SWAP1 DUP2 MSTORE RETURN JUMPDEST DUP3 DUP5 CALLVALUE PUSH2 0x393 JUMPI DUP1 PUSH32 0xFFFFFFFFFFFFFFFFFFFFFFFFFFFFFFFFFFFFFFFFFFFFFFFFFFFFFFFFFFFFFFFC CALLDATASIZE ADD SLT PUSH2 0x393 JUMPI PUSH1 0xFF DUP2 PUSH1 0x20 SWAP4 PUSH2 0x535 PUSH2 0x2AA3 JUMP JUMPDEST PUSH2 0x53D PUSH2 0x2AC6 JUMP JUMPDEST PUSH20 0xFFFFFFFFFFFFFFFFFFFFFFFFFFFFFFFFFFFFFFFF SWAP2 DUP3 AND DUP4 MSTORE PUSH1 0x5 DUP8 MSTORE DUP4 DUP4 KECCAK256 SWAP2 AND DUP3 MSTORE DUP6 MSTORE KECCAK256 SLOAD SWAP2 MLOAD SWAP2 AND ISZERO ISZERO DUP2 MSTORE RETURN JUMPDEST DUP3 DUP5 CALLVALUE PUSH2 0x393 JUMPI DUP2 PUSH32 0xFFFFFFFFFFFFFFFFFFFFFFFFFFFFFFFFFFFFFFFFFFFFFFFFFFFFFFFFFFFFFFFC CALLDATASIZE ADD SLT PUSH2 0x393 JUMPI PUSH1 0x20 SWAP1 PUSH1 0xF SLOAD SWAP1 MLOAD SWAP1 DUP2 MSTORE RETURN JUMPDEST SWAP1 POP DUP3 CALLVALUE PUSH2 0x433 JUMPI PUSH1 0x20 SWAP2 DUP3 PUSH32 0xFFFFFFFFFFFFFFFFFFFFFFFFFFFFFFFFFFFFFFFFFFFFFFFFFFFFFFFFFFFFFFFC CALLDATASIZE ADD SLT PUSH2 0x652 JUMPI DUP1 CALLDATALOAD SWAP1 PUSH8 0xFFFFFFFFFFFFFFFF DUP3 GT PUSH2 0x64E JUMPI PUSH2 0x5FF SWAP2 CALLDATASIZE SWAP2 ADD PUSH2 0x29DB JUMP JUMPDEST SWAP4 PUSH2 0x609 DUP6 PUSH2 0x4B0D JUMP JUMPDEST SWAP5 DUP2 JUMPDEST DUP2 DUP2 LT PUSH2 0x625 JUMPI DUP5 MLOAD DUP7 DUP2 MSTORE DUP1 PUSH2 0x2C4 DUP2 DUP10 ADD DUP11 PUSH2 0x2A11 JUMP JUMPDEST DUP1 PUSH2 0x634 PUSH2 0x649 SWAP3 DUP5 DUP8 PUSH2 0x4A32 JUMP JUMPDEST CALLDATALOAD DUP5 MSTORE PUSH1 0x15 DUP8 MSTORE DUP6 DUP5 KECCAK256 SLOAD PUSH2 0x312 DUP3 DUP11 PUSH2 0x4BD0 JUMP JUMPDEST PUSH2 0x60C JUMP JUMPDEST DUP5 DUP1 REVERT JUMPDEST DUP4 DUP1 REVERT JUMPDEST DUP4 DUP4 CALLVALUE PUSH2 0x31D JUMPI PUSH1 0x20 PUSH32 0xFFFFFFFFFFFFFFFFFFFFFFFFFFFFFFFFFFFFFFFFFFFFFFFFFFFFFFFFFFFFFFFC CALLDATASIZE ADD SLT PUSH2 0x31D JUMPI POP PUSH2 0x2C4 PUSH2 0x6C3 PUSH2 0x69B PUSH2 0x6B1 SWAP5 CALLDATALOAD PUSH2 0x4C33 JUMP JUMPDEST SWAP4 SWAP3 SWAP6 DUP1 MLOAD SWAP8 DUP9 SWAP8 PUSH1 0x80 DUP10 MSTORE PUSH1 0x80 DUP10 ADD SWAP1 PUSH2 0x2C45 JUMP JUMPDEST SWAP3 PUSH1 0x20 DUP9 ADD MSTORE DUP7 DUP4 SUB SWAP1 DUP8 ADD MSTORE PUSH2 0x2A45 JUMP JUMPDEST SWAP1 DUP4 DUP3 SUB PUSH1 0x60 DUP6 ADD MSTORE PUSH2 0x2A45 JUMP JUMPDEST DUP4 SWAP2 POP CALLVALUE PUSH2 0x433 JUMPI PUSH1 0x20 PUSH32 0xFFFFFFFFFFFFFFFFFFFFFFFFFFFFFFFFFFFFFFFFFFFFFFFFFFFFFFFFFFFFFFFC CALLDATASIZE ADD SLT PUSH2 0x433 JUMPI SWAP1 PUSH2 0x72D DUP3 DUP3 PUSH2 0x2C4 SWAP6 PUSH2 0x726 SWAP6 CALLDATALOAD DUP2 MSTORE PUSH1 0xA PUSH1 0x20 MSTORE KECCAK256 ADD DUP3 MLOAD SWAP4 DUP5 DUP1 SWAP3 PUSH2 0x3171 JUMP JUMPDEST SUB DUP4 PUSH2 0x2F5E JUMP JUMPDEST MLOAD SWAP2 DUP3 SWAP2 PUSH1 0x20 DUP4 MSTORE PUSH1 0x20 DUP4 ADD SWAP1 PUSH2 0x2A45 JUMP JUMPDEST DUP4 DUP4 CALLVALUE PUSH2 0x31D JUMPI DUP2 PUSH32 0xFFFFFFFFFFFFFFFFFFFFFFFFFFFFFFFFFFFFFFFFFFFFFFFFFFFFFFFFFFFFFFFC CALLDATASIZE ADD SLT PUSH2 0x31D JUMPI PUSH2 0x777 PUSH2 0x2AA3 JUMP JUMPDEST DUP2 PUSH20 0xFFFFFFFFFFFFFFFFFFFFFFFFFFFFFFFFFFFFFFFF DUP4 SWAP3 AND DUP4 MSTORE PUSH1 0x12 PUSH1 0x20 MSTORE DUP4 DUP4 KECCAK256 SWAP4 PUSH2 0x7A7 PUSH1 0x24 CALLDATALOAD DUP7 PUSH2 0x5003 JUMP JUMPDEST SWAP4 PUSH2 0x7B3 DUP6 DUP8 SLOAD PUSH2 0x4A42 JUMP JUMPDEST SWAP6 PUSH32 0xFFFFFFFFFFFFFFFFFFFFFFFFFFFFFFFFFFFFFFFFFFFFFFFFFFFFFFFFFFFFFFFF DUP1 DUP9 ADD SWAP8 DUP9 GT PUSH2 0x8D0 JUMPI DUP7 PUSH2 0x876 JUMPI JUMPDEST POP DUP7 PUSH2 0x80F JUMPI JUMPDEST POP POP MLOAD SWAP3 DUP4 MSTORE PUSH1 0x20 DUP4 ADD SWAP4 SWAP1 SWAP4 MSTORE PUSH1 0x40 DUP3 ADD SWAP3 SWAP1 SWAP3 MSTORE PUSH1 0x60 DUP2 ADD SWAP2 SWAP1 SWAP2 MSTORE PUSH1 0x80 SWAP1 RETURN JUMPDEST SWAP1 SWAP2 SWAP4 POP PUSH1 0x1 DUP6 ADD DUP1 DUP7 GT PUSH2 0x84A JUMPI PUSH2 0x2C4 SWAP6 SWAP7 SWAP8 POP SWAP1 PUSH2 0x832 PUSH1 0x2 SWAP3 DUP3 PUSH2 0x3B1B JUMP JUMPDEST SWAP1 SLOAD SWAP1 PUSH1 0x3 SHL SHR DUP1 SWAP4 MSTORE ADD PUSH1 0x20 MSTORE SWAP2 DUP6 SWAP5 SWAP4 DUP8 PUSH2 0x7EC JUMP JUMPDEST PUSH1 0x24 DUP4 PUSH1 0x11 DUP11 PUSH32 0x4E487B7100000000000000000000000000000000000000000000000000000000 DUP4 MSTORE MSTORE REVERT JUMPDEST SWAP1 SWAP4 POP DUP6 ADD DUP6 DUP2 GT PUSH2 0x8A4 JUMPI PUSH2 0x88C SWAP1 DUP5 PUSH2 0x3B1B JUMP JUMPDEST SWAP1 SLOAD SWAP1 PUSH1 0x3 SHL SHR DUP1 DUP3 MSTORE PUSH1 0x2 DUP5 ADD PUSH1 0x20 MSTORE SWAP3 DUP9 PUSH2 0x7E5 JUMP JUMPDEST PUSH1 0x24 DUP3 PUSH1 0x11 DUP11 PUSH32 0x4E487B7100000000000000000000000000000000000000000000000000000000 DUP4 MSTORE MSTORE REVERT JUMPDEST PUSH1 0x24 DUP4 PUSH1 0x11 DUP12 PUSH32 0x4E487B7100000000000000000000000000000000000000000000000000000000 DUP4 MSTORE MSTORE REVERT JUMPDEST SWAP1 POP CALLVALUE PUSH2 0x393 JUMPI PUSH1 0x20 PUSH32 0xFFFFFFFFFFFFFFFFFFFFFFFFFFFFFFFFFFFFFFFFFFFFFFFFFFFFFFFFFFFFFFFC CALLDATASIZE ADD SLT PUSH2 0x393 JUMPI DUP1 CALLDATALOAD PUSH8 0xFFFFFFFFFFFFFFFF DUP2 GT PUSH2 0x433 JUMPI PUSH2 0x94A SWAP2 CALLDATASIZE SWAP2 ADD PUSH2 0x29DB JUMP JUMPDEST PUSH2 0x956 DUP2 SWAP5 SWAP3 SWAP5 PUSH2 0x4AAD JUMP JUMPDEST SWAP3 PUSH2 0x963 DUP4 MLOAD SWAP5 DUP6 PUSH2 0x2F5E JUMP JUMPDEST DUP2 DUP5 MSTORE PUSH32 0xFFFFFFFFFFFFFFFFFFFFFFFFFFFFFFFFFFFFFFFFFFFFFFFFFFFFFFFFFFFFFFE0 PUSH2 0x990 DUP4 PUSH2 0x4AAD JUMP JUMPDEST ADD CALLDATASIZE PUSH1 0x20 DUP7 ADD CALLDATACOPY JUMPDEST DUP2 DUP2 LT PUSH2 0x9AC JUMPI DUP3 MLOAD DUP1 PUSH2 0x2C4 DUP7 DUP3 PUSH2 0x2DBD JUMP JUMPDEST DUP1 PUSH2 0x9C4 PUSH2 0x9BE PUSH2 0x9EC SWAP4 DUP6 DUP10 PUSH2 0x4A32 JUMP JUMPDEST CALLDATALOAD PUSH2 0x5268 JUMP JUMPDEST PUSH20 0xFFFFFFFFFFFFFFFFFFFFFFFFFFFFFFFFFFFFFFFF PUSH2 0x9E3 DUP4 DUP9 PUSH2 0x4BD0 JUMP JUMPDEST SWAP2 AND SWAP1 MSTORE PUSH2 0x4A05 JUMP JUMPDEST PUSH2 0x998 JUMP JUMPDEST DUP4 SWAP2 POP CALLVALUE PUSH2 0x433 JUMPI DUP2 PUSH32 0xFFFFFFFFFFFFFFFFFFFFFFFFFFFFFFFFFFFFFFFFFFFFFFFFFFFFFFFFFFFFFFFC CALLDATASIZE ADD SLT PUSH2 0x433 JUMPI PUSH1 0x20 SWAP3 PUSH2 0x385 SWAP2 CALLDATALOAD DUP2 MSTORE PUSH1 0x15 DUP5 MSTORE DUP3 PUSH1 0x24 CALLDATALOAD SWAP2 KECCAK256 PUSH2 0x3B1B JUMP JUMPDEST SWAP1 POP DUP3 CALLVALUE PUSH2 0x433 JUMPI PUSH1 0x80 PUSH32 0xFFFFFFFFFFFFFFFFFFFFFFFFFFFFFFFFFFFFFFFFFFFFFFFFFFFFFFFFFFFFFFFC CALLDATASIZE ADD SLT PUSH2 0x433 JUMPI PUSH2 0xA75 PUSH2 0x2AA3 JUMP JUMPDEST SWAP1 PUSH2 0xA7E PUSH2 0x2AC6 JUMP JUMPDEST PUSH1 0x44 CALLDATALOAD SWAP1 PUSH1 0x64 CALLDATALOAD SWAP5 PUSH8 0xFFFFFFFFFFFFFFFF DUP7 GT PUSH2 0xB09 JUMPI CALLDATASIZE PUSH1 0x23 DUP8 ADD SLT ISZERO PUSH2 0xB09 JUMPI DUP6 ADD CALLDATALOAD SWAP4 PUSH2 0xAB9 PUSH2 0xAB0 DUP7 PUSH2 0x2F9F JUMP JUMPDEST SWAP5 MLOAD SWAP5 DUP6 PUSH2 0x2F5E JUMP JUMPDEST DUP5 DUP5 MSTORE DUP7 CALLDATASIZE PUSH1 0x24 DUP8 DUP10 ADD ADD GT PUSH2 0x31D JUMPI PUSH1 0x20 DUP7 PUSH2 0xB01 SWAP8 PUSH1 0x24 PUSH2 0xB06 SWAP11 ADD DUP4 DUP10 ADD CALLDATACOPY DUP7 ADD ADD MSTORE PUSH2 0xAF1 PUSH2 0xAEC DUP5 CALLER PUSH2 0x3380 JUMP JUMPDEST PUSH2 0x3269 JUMP JUMPDEST PUSH2 0xAFC DUP4 DUP4 DUP4 PUSH2 0x3486 JUMP JUMPDEST PUSH2 0x39F2 JUMP JUMPDEST PUSH2 0x32F4 JUMP JUMPDEST DUP1 RETURN JUMPDEST DUP7 DUP1 REVERT JUMPDEST DUP3 DUP5 CALLVALUE PUSH2 0x393 JUMPI PUSH1 0x20 PUSH32 0xFFFFFFFFFFFFFFFFFFFFFFFFFFFFFFFFFFFFFFFFFFFFFFFFFFFFFFFFFFFFFFFC CALLDATASIZE ADD SLT PUSH2 0x393 JUMPI PUSH2 0xB71 DUP2 PUSH2 0x2C4 SWAP4 PUSH20 0xFFFFFFFFFFFFFFFFFFFFFFFFFFFFFFFFFFFFFFFF PUSH2 0xB63 PUSH2 0x2AA3 JUMP JUMPDEST AND DUP2 MSTORE PUSH1 0x16 PUSH1 0x20 MSTORE KECCAK256 PUSH2 0x4BE4 JUMP JUMPDEST SWAP1 MLOAD SWAP2 DUP3 SWAP2 PUSH1 0x20 DUP4 MSTORE PUSH1 0x20 DUP4 ADD SWAP1 PUSH2 0x2A11 JUMP JUMPDEST SWAP1 POP DUP3 CALLVALUE PUSH2 0x433 JUMPI PUSH1 0x20 SWAP2 DUP3 PUSH32 0xFFFFFFFFFFFFFFFFFFFFFFFFFFFFFFFFFFFFFFFFFFFFFFFFFFFFFFFFFFFFFFFC CALLDATASIZE ADD SLT PUSH2 0x652 JUMPI CALLDATALOAD DUP4 MSTORE PUSH1 0x17 DUP3 MSTORE DUP1 DUP4 KECCAK256 SWAP3 DUP4 SLOAD SWAP1 PUSH2 0xBCF DUP3 PUSH2 0x4B0D JUMP JUMPDEST SWAP5 PUSH1 0x2 DUP2 ADD SWAP1 DUP3 JUMPDEST DUP5 DUP2 LT PUSH2 0xBF0 JUMPI DUP6 MLOAD DUP8 DUP2 MSTORE DUP1 PUSH2 0x2C4 DUP2 DUP11 ADD DUP12 PUSH2 0x2A11 JUMP JUMPDEST DUP1 PUSH2 0xBFE PUSH2 0xC15 SWAP3 DUP5 PUSH2 0x3B1B JUMP JUMPDEST SWAP1 SLOAD SWAP1 PUSH1 0x3 SHL SHR DUP1 DUP7 MSTORE DUP5 DUP10 MSTORE PUSH2 0x312 DUP3 DUP12 PUSH2 0x4BD0 JUMP JUMPDEST PUSH2 0xBD7 JUMP JUMPDEST SWAP1 POP DUP3 CALLVALUE PUSH2 0x433 JUMPI DUP1 PUSH32 0xFFFFFFFFFFFFFFFFFFFFFFFFFFFFFFFFFFFFFFFFFFFFFFFFFFFFFFFFFFFFFFFC CALLDATASIZE ADD SLT PUSH2 0x433 JUMPI PUSH2 0xC53 PUSH2 0x2AA3 JUMP JUMPDEST SWAP1 PUSH1 0x24 CALLDATALOAD SWAP2 DUP3 ISZERO ISZERO DUP1 SWAP4 SUB PUSH2 0x64E JUMPI PUSH20 0xFFFFFFFFFFFFFFFFFFFFFFFFFFFFFFFFFFFFFFFF AND SWAP3 DUP4 CALLER EQ PUSH2 0xCED JUMPI POP CALLER DUP5 MSTORE PUSH1 0x5 PUSH1 0x20 MSTORE DUP1 DUP5 KECCAK256 DUP4 DUP6 MSTORE PUSH1 0x20 MSTORE DUP1 DUP5 KECCAK256 PUSH32 0xFFFFFFFFFFFFFFFFFFFFFFFFFFFFFFFFFFFFFFFFFFFFFFFFFFFFFFFFFFFFFF00 DUP2 SLOAD AND PUSH1 0xFF DUP5 AND OR SWAP1 SSTORE MLOAD SWAP1 DUP2 MSTORE PUSH32 0x17307EAB39AB6107E8899845AD3D59BD9653F200F220920489CA2B5937696C31 PUSH1 0x20 CALLER SWAP3 LOG3 DUP1 RETURN JUMPDEST PUSH1 0x20 PUSH1 0x64 SWAP3 MLOAD SWAP2 PUSH32 0x8C379A000000000000000000000000000000000000000000000000000000000 DUP4 MSTORE DUP3 ADD MSTORE PUSH1 0x19 PUSH1 0x24 DUP3 ADD MSTORE PUSH32 0x4552433732313A20617070726F766520746F2063616C6C657200000000000000 PUSH1 0x44 DUP3 ADD MSTORE REVERT JUMPDEST DUP3 DUP5 CALLVALUE PUSH2 0x393 JUMPI PUSH1 0x20 SWAP1 DUP2 PUSH32 0xFFFFFFFFFFFFFFFFFFFFFFFFFFFFFFFFFFFFFFFFFFFFFFFFFFFFFFFFFFFFFFFC CALLDATASIZE ADD SLT PUSH2 0x433 JUMPI PUSH20 0xFFFFFFFFFFFFFFFFFFFFFFFFFFFFFFFFFFFFFFFF PUSH2 0xD99 PUSH2 0x2AA3 JUMP JUMPDEST AND DUP4 MSTORE PUSH1 0x12 DUP3 MSTORE DUP1 DUP4 KECCAK256 SWAP3 DUP4 SLOAD SWAP1 PUSH2 0xDB0 DUP3 PUSH2 0x4B0D JUMP JUMPDEST SWAP5 PUSH1 0x2 DUP2 ADD SWAP1 DUP3 JUMPDEST DUP5 DUP2 LT PUSH2 0xDD1 JUMPI DUP6 MLOAD DUP8 DUP2 MSTORE DUP1 PUSH2 0x2C4 DUP2 DUP11 ADD DUP12 PUSH2 0x2A11 JUMP JUMPDEST DUP1 PUSH2 0xBFE PUSH2 0xDDF SWAP3 DUP5 PUSH2 0x3B1B JUMP JUMPDEST PUSH2 0xDB8 JUMP JUMPDEST DUP3 DUP5 CALLVALUE PUSH2 0x393 JUMPI DUP2 PUSH32 0xFFFFFFFFFFFFFFFFFFFFFFFFFFFFFFFFFFFFFFFFFFFFFFFFFFFFFFFFFFFFFFFC CALLDATASIZE ADD SLT PUSH2 0x393 JUMPI DUP1 MLOAD SWAP1 DUP3 PUSH1 0x1 DUP1 SLOAD SWAP2 PUSH2 0xE26 DUP4 PUSH2 0x311E JUMP JUMPDEST DUP1 DUP7 MSTORE SWAP3 DUP3 DUP2 AND SWAP1 DUP2 ISZERO PUSH2 0xEAB JUMPI POP PUSH1 0x1 EQ PUSH2 0xE4F JUMPI JUMPDEST POP POP POP PUSH2 0x72D DUP3 PUSH2 0x2C4 SWAP5 SUB DUP4 PUSH2 0x2F5E JUMP JUMPDEST SWAP5 POP DUP1 DUP6 MSTORE PUSH32 0xB10E2D527612073B26EECDFD717E6A320CF44B4AFAC2B0732D9FCBE2B7FA0CF6 JUMPDEST DUP3 DUP7 LT PUSH2 0xE93 JUMPI POP POP POP PUSH2 0x72D DUP3 PUSH1 0x20 PUSH2 0x2C4 SWAP6 DUP3 ADD ADD SWAP5 PUSH2 0xE3D JUMP JUMPDEST DUP1 SLOAD PUSH1 0x20 DUP8 DUP8 ADD DUP2 ADD SWAP2 SWAP1 SWAP2 MSTORE SWAP1 SWAP6 ADD SWAP5 DUP2 ADD PUSH2 0xE76 JUMP JUMPDEST PUSH2 0x2C4 SWAP8 POP DUP7 SWAP4 POP PUSH1 0x20 SWAP3 POP PUSH2 0x72D SWAP5 SWAP2 POP PUSH32 0xFFFFFFFFFFFFFFFFFFFFFFFFFFFFFFFFFFFFFFFFFFFFFFFFFFFFFFFFFFFFFF00 AND DUP3 DUP5 ADD MSTORE ISZERO ISZERO PUSH1 0x5 SHL DUP3 ADD ADD SWAP5 PUSH2 0xE3D JUMP JUMPDEST SWAP1 POP DUP3 CALLVALUE PUSH2 0x433 JUMPI PUSH1 0x20 SWAP2 DUP3 PUSH32 0xFFFFFFFFFFFFFFFFFFFFFFFFFFFFFFFFFFFFFFFFFFFFFFFFFFFFFFFFFFFFFFFC CALLDATASIZE ADD SLT PUSH2 0x652 JUMPI DUP1 CALLDATALOAD SWAP1 PUSH8 0xFFFFFFFFFFFFFFFF DUP3 GT PUSH2 0x64E JUMPI PUSH2 0xF43 SWAP2 CALLDATASIZE SWAP2 ADD PUSH2 0x29DB JUMP JUMPDEST SWAP4 PUSH2 0xF4D DUP6 PUSH2 0x4B0D JUMP JUMPDEST SWAP5 DUP2 JUMPDEST DUP2 DUP2 LT PUSH2 0xF69 JUMPI DUP5 MLOAD DUP7 DUP2 MSTORE DUP1 PUSH2 0x2C4 DUP2 DUP10 ADD DUP11 PUSH2 0x2A11 JUMP JUMPDEST DUP1 PUSH2 0xF78 PUSH2 0xF8D SWAP3 DUP5 DUP8 PUSH2 0x4A32 JUMP JUMPDEST CALLDATALOAD DUP5 MSTORE PUSH1 0x17 DUP8 MSTORE DUP6 DUP5 KECCAK256 SLOAD PUSH2 0x312 DUP3 DUP11 PUSH2 0x4BD0 JUMP JUMPDEST PUSH2 0xF50 JUMP JUMPDEST DUP4 DUP4 CALLVALUE PUSH2 0x31D JUMPI PUSH1 0x20 PUSH32 0xFFFFFFFFFFFFFFFFFFFFFFFFFFFFFFFFFFFFFFFFFFFFFFFFFFFFFFFFFFFFFFFC CALLDATASIZE ADD SLT PUSH2 0x31D JUMPI POP PUSH2 0xFD1 PUSH2 0x2C4 SWAP3 CALLDATALOAD PUSH2 0x4E0E JUMP JUMPDEST SWAP1 MLOAD SWAP2 DUP3 SWAP2 PUSH1 0x20 DUP4 MSTORE PUSH1 0x20 DUP4 ADD SWAP1 PUSH2 0x2BEC JUMP JUMPDEST DUP4 SWAP2 POP CALLVALUE PUSH2 0x433 JUMPI PUSH1 0x20 PUSH32 0xFFFFFFFFFFFFFFFFFFFFFFFFFFFFFFFFFFFFFFFFFFFFFFFFFFFFFFFFFFFFFFFC CALLDATASIZE ADD SLT PUSH2 0x433 JUMPI PUSH1 0x20 SWAP3 DUP3 SWAP2 CALLDATALOAD DUP2 MSTORE PUSH1 0xE DUP5 MSTORE KECCAK256 SLOAD SWAP1 MLOAD SWAP1 DUP2 MSTORE RETURN JUMPDEST DUP4 SWAP2 POP CALLVALUE PUSH2 0x433 JUMPI PUSH1 0x20 PUSH32 0xFFFFFFFFFFFFFFFFFFFFFFFFFFFFFFFFFFFFFFFFFFFFFFFFFFFFFFFFFFFFFFFC CALLDATASIZE ADD SLT PUSH2 0x433 JUMPI DUP2 PUSH2 0x2C4 SWAP4 PUSH2 0xB71 SWAP3 CALLDATALOAD DUP2 MSTORE PUSH1 0x15 PUSH1 0x20 MSTORE KECCAK256 PUSH2 0x4BE4 JUMP JUMPDEST DUP4 SWAP2 POP CALLVALUE PUSH2 0x433 JUMPI PUSH1 0x20 PUSH32 0xFFFFFFFFFFFFFFFFFFFFFFFFFFFFFFFFFFFFFFFFFFFFFFFFFFFFFFFFFFFFFFFC CALLDATASIZE ADD SLT PUSH2 0x433 JUMPI PUSH1 0x20 SWAP3 DUP3 SWAP2 CALLDATALOAD DUP2 MSTORE PUSH1 0xB DUP5 MSTORE KECCAK256 SLOAD SWAP1 MLOAD SWAP1 DUP2 MSTORE RETURN JUMPDEST DUP3 DUP5 CALLVALUE PUSH2 0x393 JUMPI PUSH1 0x20 SWAP1 PUSH2 0x49D PUSH2 0x10D1 CALLDATASIZE PUSH2 0x2E3C JUMP JUMPDEST SWAP4 SWAP3 SWAP1 SWAP3 PUSH2 0x3BF9 JUMP JUMPDEST DUP3 DUP5 CALLVALUE PUSH2 0x393 JUMPI PUSH1 0x20 PUSH32 0xFFFFFFFFFFFFFFFFFFFFFFFFFFFFFFFFFFFFFFFFFFFFFFFFFFFFFFFFFFFFFFFC CALLDATASIZE ADD SLT PUSH2 0x393 JUMPI PUSH1 0x20 SWAP1 PUSH2 0x49D PUSH2 0x1119 PUSH2 0x2AA3 JUMP JUMPDEST PUSH2 0x2FD9 JUMP JUMPDEST DUP4 DUP4 CALLVALUE PUSH2 0x31D JUMPI PUSH1 0x20 PUSH32 0xFFFFFFFFFFFFFFFFFFFFFFFFFFFFFFFFFFFFFFFFFFFFFFFFFFFFFFFFFFFFFFFC CALLDATASIZE ADD SLT PUSH2 0x31D JUMPI POP PUSH20 0xFFFFFFFFFFFFFFFFFFFFFFFFFFFFFFFFFFFFFFFF PUSH2 0x1171 PUSH1 0x20 SWAP4 CALLDATALOAD PUSH2 0x5268 JUMP JUMPDEST SWAP2 MLOAD SWAP2 AND DUP2 MSTORE RETURN JUMPDEST DUP4 DUP4 CALLVALUE PUSH2 0x31D JUMPI PUSH1 0x20 PUSH32 0xFFFFFFFFFFFFFFFFFFFFFFFFFFFFFFFFFFFFFFFFFFFFFFFFFFFFFFFFFFFFFFFC CALLDATASIZE ADD SLT PUSH2 0x31D JUMPI POP PUSH20 0xFFFFFFFFFFFFFFFFFFFFFFFFFFFFFFFFFFFFFFFF PUSH2 0x1171 PUSH1 0x20 SWAP4 CALLDATALOAD PUSH2 0x30EF JUMP JUMPDEST DUP3 DUP5 CALLVALUE PUSH2 0x393 JUMPI PUSH1 0x20 PUSH32 0xFFFFFFFFFFFFFFFFFFFFFFFFFFFFFFFFFFFFFFFFFFFFFFFFFFFFFFFFFFFFFFFC CALLDATASIZE ADD SLT PUSH2 0x393 JUMPI PUSH1 0x20 SWAP1 PUSH2 0x49D PUSH2 0x120B PUSH2 0x2AA3 JUMP JUMPDEST PUSH20 0xFFFFFFFFFFFFFFFFFFFFFFFFFFFFFFFFFFFFFFFF AND PUSH1 0x0 MSTORE PUSH1 0x12 PUSH1 0x20 MSTORE PUSH1 0x40 PUSH1 0x0 KECCAK256 SLOAD SWAP1 JUMP JUMPDEST DUP3 DUP5 CALLVALUE PUSH2 0x393 JUMPI DUP1 PUSH32 0xFFFFFFFFFFFFFFFFFFFFFFFFFFFFFFFFFFFFFFFFFFFFFFFFFFFFFFFFFFFFFFFC CALLDATASIZE ADD SLT PUSH2 0x393 JUMPI PUSH1 0x20 SWAP1 PUSH2 0x49D PUSH2 0x1270 PUSH2 0x2AA3 JUMP JUMPDEST PUSH1 0x24 CALLDATALOAD SWAP1 PUSH2 0x5226 JUMP JUMPDEST SWAP2 SWAP1 POP CALLVALUE PUSH2 0x31D JUMPI PUSH1 0x20 PUSH32 0xFFFFFFFFFFFFFFFFFFFFFFFFFFFFFFFFFFFFFFFFFFFFFFFFFFFFFFFFFFFFFFFC CALLDATASIZE ADD SLT PUSH2 0x31D JUMPI POP DUP1 CALLDATALOAD SWAP1 PUSH1 0x8 SLOAD DUP3 LT ISZERO PUSH2 0x12C5 JUMPI PUSH1 0x20 DUP4 PUSH2 0x385 DUP5 PUSH2 0x3AE4 JUMP JUMPDEST PUSH1 0x84 SWAP1 PUSH1 0x20 DUP5 MLOAD SWAP2 PUSH32 0x8C379A000000000000000000000000000000000000000000000000000000000 DUP4 MSTORE DUP3 ADD MSTORE PUSH1 0x2C PUSH1 0x24 DUP3 ADD MSTORE PUSH32 0x455243373231456E756D657261626C653A20676C6F62616C20696E646578206F PUSH1 0x44 DUP3 ADD MSTORE PUSH32 0x7574206F6620626F756E64730000000000000000000000000000000000000000 PUSH1 0x64 DUP3 ADD MSTORE REVERT JUMPDEST DUP3 DUP5 CALLVALUE PUSH2 0x393 JUMPI PUSH2 0x1368 SWAP1 PUSH2 0x135C CALLDATASIZE PUSH2 0x2E3C JUMP JUMPDEST SWAP3 DUP5 SWAP7 SWAP5 SWAP3 SWAP2 SWAP3 PUSH2 0x3BF9 JUMP JUMPDEST SWAP2 PUSH1 0xF SLOAD SWAP1 DUP4 DUP6 MSTORE PUSH1 0x20 SWAP2 PUSH1 0x11 DUP4 MSTORE DUP4 DUP7 KECCAK256 SSTORE PUSH2 0x1384 DUP5 PUSH2 0x50A9 JUMP JUMPDEST POP PUSH20 0xFFFFFFFFFFFFFFFFFFFFFFFFFFFFFFFFFFFFFFFF DUP1 PUSH2 0x13A4 DUP4 PUSH2 0x3B33 JUMP JUMPDEST AND DUP7 MSTORE PUSH1 0x12 DUP4 MSTORE PUSH2 0x13C6 DUP6 DUP6 DUP9 KECCAK256 DUP1 SLOAD DUP3 DUP11 MSTORE PUSH1 0x2 DUP3 ADD DUP8 MSTORE DUP8 DUP11 KECCAK256 SSTORE PUSH2 0x51CA JUMP JUMPDEST POP PUSH2 0x13DA DUP2 PUSH2 0x13D4 DUP5 PUSH2 0x3B33 JUMP JUMPDEST AND PUSH2 0x512D JUMP JUMPDEST POP PUSH1 0xC0 DUP3 ADD SWAP1 PUSH2 0x13EA DUP3 DUP5 PUSH2 0x3BA5 JUMP JUMPDEST SWAP3 SWAP1 POP DUP8 JUMPDEST DUP4 DUP2 LT PUSH2 0x1587 JUMPI POP POP POP POP DUP1 PUSH1 0xE0 PUSH2 0x1408 SWAP3 ADD SWAP1 PUSH2 0x3BA5 JUMP JUMPDEST DUP1 SWAP4 SWAP2 SWAP4 ISZERO DUP1 ISZERO PUSH2 0x1417 JUMPI DUP7 DUP1 RETURN JUMPDEST PUSH2 0x155B JUMPI DUP4 CALLDATALOAD SWAP4 PUSH2 0x1428 DUP6 DUP8 PUSH2 0x52CC JUMP JUMPDEST PUSH1 0x1 DUP3 GT PUSH2 0x1434 JUMPI DUP7 DUP1 RETURN JUMPDEST DUP2 PUSH1 0x1 LT ISZERO PUSH2 0x152F JUMPI DUP4 DUP2 ADD CALLDATALOAD SWAP2 PUSH2 0x144C DUP4 DUP9 PUSH2 0x52CC JUMP JUMPDEST PUSH2 0x1472 DUP5 MLOAD DUP7 DUP2 ADD SWAP1 DUP9 DUP3 MSTORE DUP6 DUP8 DUP3 ADD MSTORE DUP7 DUP2 MSTORE PUSH2 0x1469 DUP2 PUSH2 0x2F42 JUMP JUMPDEST MLOAD SWAP1 KECCAK256 DUP9 PUSH2 0x52CC JUMP JUMPDEST PUSH1 0x2 DUP2 GT PUSH2 0x147F JUMPI POP DUP7 DUP1 RETURN JUMPDEST PUSH1 0x2 LT ISZERO PUSH2 0x152F JUMPI DUP3 ADD CALLDATALOAD SWAP1 PUSH2 0x1495 DUP3 DUP8 PUSH2 0x52CC JUMP JUMPDEST PUSH2 0x14BB DUP4 MLOAD DUP6 DUP2 ADD SWAP1 DUP4 DUP3 MSTORE DUP5 DUP7 DUP3 ADD MSTORE DUP6 DUP2 MSTORE PUSH2 0x14B2 DUP2 PUSH2 0x2F42 JUMP JUMPDEST MLOAD SWAP1 KECCAK256 DUP8 PUSH2 0x52CC JUMP JUMPDEST DUP3 MLOAD SWAP4 DUP5 ADD SWAP5 DUP6 MSTORE DUP3 DUP5 ADD MSTORE PUSH1 0x60 DUP4 ADD MSTORE PUSH1 0x60 DUP3 MSTORE PUSH1 0x80 DUP3 ADD SWAP1 DUP3 DUP3 LT PUSH8 0xFFFFFFFFFFFFFFFF DUP4 GT OR PUSH2 0x1503 JUMPI PUSH2 0x14F8 SWAP6 SWAP7 POP MSTORE MLOAD SWAP1 KECCAK256 SWAP1 PUSH2 0x52CC JUMP JUMPDEST DUP1 DUP3 DUP1 DUP1 DUP1 DUP1 DUP1 DUP7 DUP1 RETURN JUMPDEST PUSH1 0x24 DUP7 PUSH1 0x41 DUP10 PUSH32 0x4E487B7100000000000000000000000000000000000000000000000000000000 DUP4 MSTORE MSTORE REVERT JUMPDEST PUSH1 0x24 DUP8 PUSH1 0x32 DUP11 PUSH32 0x4E487B7100000000000000000000000000000000000000000000000000000000 DUP4 MSTORE MSTORE REVERT JUMPDEST PUSH1 0x24 DUP7 PUSH1 0x32 DUP10 PUSH32 0x4E487B7100000000000000000000000000000000000000000000000000000000 DUP4 MSTORE MSTORE REVERT JUMPDEST DUP1 PUSH2 0x159F PUSH2 0x15E6 SWAP3 PUSH2 0x1599 DUP6 DUP10 PUSH2 0x3BA5 JUMP JUMPDEST SWAP1 PUSH2 0x4A32 JUMP JUMPDEST CALLDATALOAD DUP11 MSTORE PUSH1 0x15 DUP8 MSTORE PUSH2 0x15B2 DUP10 DUP10 DUP13 KECCAK256 PUSH2 0x51CA JUMP JUMPDEST POP PUSH2 0x15C1 DUP2 PUSH2 0x1599 DUP6 DUP10 PUSH2 0x3BA5 JUMP JUMPDEST CALLDATALOAD DUP11 MSTORE PUSH1 0xA DUP8 MSTORE DUP4 DUP9 DUP12 KECCAK256 SLOAD AND DUP11 MSTORE PUSH1 0x16 DUP8 MSTORE PUSH2 0x15E0 DUP10 DUP10 DUP13 KECCAK256 PUSH2 0x51CA JUMP JUMPDEST POP PUSH2 0x4A05 JUMP JUMPDEST PUSH2 0x13EF JUMP JUMPDEST DUP4 SWAP2 POP CALLVALUE PUSH2 0x433 JUMPI PUSH1 0x20 PUSH32 0xFFFFFFFFFFFFFFFFFFFFFFFFFFFFFFFFFFFFFFFFFFFFFFFFFFFFFFFFFFFFFFFC CALLDATASIZE ADD SLT PUSH2 0x433 JUMPI PUSH1 0x20 SWAP3 DUP3 SWAP2 CALLDATALOAD DUP2 MSTORE PUSH1 0x17 DUP5 MSTORE KECCAK256 SLOAD SWAP1 MLOAD SWAP1 DUP2 MSTORE RETURN JUMPDEST SWAP1 POP CALLVALUE PUSH2 0x393 JUMPI PUSH1 0x20 DUP1 PUSH32 0xFFFFFFFFFFFFFFFFFFFFFFFFFFFFFFFFFFFFFFFFFFFFFFFFFFFFFFFFFFFFFFFC CALLDATASIZE ADD SLT PUSH2 0x433 JUMPI DUP2 CALLDATALOAD PUSH2 0x1673 PUSH2 0xAEC DUP3 CALLER PUSH2 0x3380 JUMP JUMPDEST PUSH2 0x167C DUP2 PUSH2 0x30EF JUMP JUMPDEST PUSH20 0xFFFFFFFFFFFFFFFFFFFFFFFFFFFFFFFFFFFFFFFF SWAP1 DUP2 DUP2 AND SWAP1 DUP2 ISZERO DUP1 DUP2 ISZERO SWAP2 DUP3 PUSH2 0x1B3F JUMPI JUMPDEST ISZERO PUSH2 0x1ABD JUMPI ISZERO PUSH2 0x1A10 JUMPI POP POP POP PUSH1 0x8 SLOAD DUP3 DUP7 MSTORE PUSH1 0x9 DUP5 MSTORE DUP1 DUP8 DUP8 KECCAK256 SSTORE PUSH9 0x10000000000000000 DUP2 LT ISZERO PUSH2 0x19E4 JUMPI PUSH2 0x1718 PUSH2 0x16E3 DUP3 PUSH1 0x1 DUP7 SWAP5 ADD PUSH1 0x8 SSTORE PUSH2 0x3AE4 JUMP JUMPDEST DUP2 SWAP4 SWAP2 SLOAD SWAP1 PUSH32 0xFFFFFFFFFFFFFFFFFFFFFFFFFFFFFFFFFFFFFFFFFFFFFFFFFFFFFFFFFFFFFFFF SWAP1 PUSH1 0x3 SHL SWAP3 DUP4 SHL SWAP3 SHL NOT AND OR SWAP1 JUMP JUMPDEST SWAP1 SSTORE JUMPDEST PUSH1 0x8 SLOAD SWAP1 PUSH32 0xFFFFFFFFFFFFFFFFFFFFFFFFFFFFFFFFFFFFFFFFFFFFFFFFFFFFFFFFFFFFFFFF SWAP2 DUP3 DUP2 ADD SWAP1 DUP2 GT PUSH2 0x19B8 JUMPI DUP4 DUP8 MSTORE PUSH1 0x9 DUP6 MSTORE PUSH2 0x175F DUP9 DUP9 KECCAK256 SLOAD SWAP2 PUSH2 0x3AE4 JUMP JUMPDEST SWAP1 SLOAD SWAP1 PUSH1 0x3 SHL SHR DUP1 PUSH2 0x1773 PUSH2 0x16E3 DUP5 PUSH2 0x3AE4 JUMP JUMPDEST SWAP1 SSTORE DUP8 MSTORE PUSH1 0x9 DUP6 MSTORE DUP8 DUP8 KECCAK256 SSTORE DUP3 DUP7 MSTORE DUP6 DUP8 DUP2 KECCAK256 SSTORE PUSH1 0x8 SLOAD DUP1 ISZERO PUSH2 0x198C JUMPI SWAP6 DUP3 DUP7 SWAP5 SWAP3 DUP3 SWAP10 SWAP5 PUSH32 0x766269423061476C7A4947356C64486476636D7375496E300000000000000000 SWAP10 ADD PUSH2 0x17C4 DUP2 PUSH2 0x3AE4 JUMP JUMPDEST DUP5 DUP3 SLOAD SWAP2 PUSH1 0x3 SHL SHL NOT AND SWAP1 SSTORE PUSH1 0x8 SSTORE PUSH2 0x17DC DUP5 PUSH2 0x30EF JUMP JUMPDEST SWAP1 DUP5 DUP5 MSTORE DUP7 DUP9 MSTORE DUP6 DUP5 KECCAK256 SWAP2 PUSH32 0xFFFFFFFFFFFFFFFFFFFFFFFF0000000000000000000000000000000000000000 SWAP3 DUP4 DUP2 SLOAD AND SWAP1 SSTORE AND SWAP2 DUP3 DUP5 MSTORE PUSH1 0x3 DUP9 MSTORE DUP6 DUP5 KECCAK256 SWAP1 DUP2 SLOAD ADD SWAP1 SSTORE DUP4 DUP4 MSTORE PUSH1 0x2 DUP8 MSTORE DUP5 DUP4 KECCAK256 SWAP1 DUP2 SLOAD AND SWAP1 SSTORE PUSH32 0xDDF252AD1BE2C89B69C2B068FC378DAA952BA7F163C4A11628F55A4DF523B3EF DUP3 DUP1 LOG4 PUSH1 0xA DUP4 MSTORE DUP6 DUP2 DUP2 KECCAK256 SWAP2 PUSH1 0xD DUP6 MSTORE DUP2 KECCAK256 PUSH2 0x186E DUP2 SLOAD PUSH2 0x311E JUMP JUMPDEST DUP1 PUSH2 0x1950 JUMPI JUMPDEST POP POP POP ADD PUSH2 0x1882 DUP2 SLOAD PUSH2 0x311E JUMP JUMPDEST PUSH1 0x1F DUP2 GT PUSH2 0x192F JUMPI JUMPDEST POP PUSH2 0x131 DUP2 SSTORE DUP5 MSTORE DUP4 KECCAK256 PUSH32 0x646174613A6170706C69636174696F6E2F6A736F6E3B6261736536342C65794A DUP2 SSTORE PUSH32 0x755957316C496A6F67496C526F61584D67644739725A57346761584D67596E56 PUSH1 0x1 DUP3 ADD SSTORE PUSH32 0x79626D566B4C694973496D526C63324E796158423061573975496A6F67496C52 PUSH1 0x2 DUP3 ADD SSTORE PUSH32 0x766132567549476C7A494735766443426A623278735A574E3061574A735A5342 PUSH1 0x3 DUP3 ADD SSTORE ADD SSTORE DUP1 RETURN JUMPDEST PUSH2 0x194A SWAP1 DUP3 DUP8 MSTORE PUSH1 0x5 PUSH1 0x1F DUP6 DUP10 KECCAK256 SWAP3 ADD DUP2 SHR DUP3 ADD SWAP2 ADD PUSH2 0x4A4F JUMP JUMPDEST CODESIZE PUSH2 0x188B JUMP JUMPDEST DUP3 PUSH1 0x1F DUP3 GT PUSH1 0x1 EQ PUSH2 0x1968 JUMPI POP POP SSTORE JUMPDEST DUP6 CODESIZE DUP1 PUSH2 0x1874 JUMP JUMPDEST SWAP1 SWAP2 DUP1 DUP3 MSTORE PUSH2 0x1985 PUSH1 0x1F DUP9 DUP5 KECCAK256 SWAP5 ADD PUSH1 0x5 SHR DUP5 ADD PUSH1 0x1 DUP6 ADD PUSH2 0x4A4F JUMP JUMPDEST SSTORE SSTORE PUSH2 0x1960 JUMP JUMPDEST PUSH1 0x24 DUP8 PUSH1 0x31 DUP9 PUSH32 0x4E487B7100000000000000000000000000000000000000000000000000000000 DUP4 MSTORE MSTORE REVERT JUMPDEST PUSH1 0x24 DUP8 PUSH1 0x11 DUP9 PUSH32 0x4E487B7100000000000000000000000000000000000000000000000000000000 DUP4 MSTORE MSTORE REVERT JUMPDEST PUSH1 0x24 DUP7 PUSH1 0x41 DUP8 PUSH32 0x4E487B7100000000000000000000000000000000000000000000000000000000 DUP4 MSTORE MSTORE REVERT JUMPDEST PUSH2 0x1A1C JUMPI JUMPDEST POP POP PUSH2 0x171B JUMP JUMPDEST PUSH2 0x1A25 SWAP1 PUSH2 0x2FD9 JUMP JUMPDEST SWAP1 PUSH32 0xFFFFFFFFFFFFFFFFFFFFFFFFFFFFFFFFFFFFFFFFFFFFFFFFFFFFFFFFFFFFFFFF DUP3 ADD SWAP2 DUP3 GT PUSH2 0x19B8 JUMPI DUP4 DUP8 MSTORE PUSH1 0x7 DUP6 MSTORE DUP8 DUP8 KECCAK256 SLOAD DUP3 DUP2 SUB PUSH2 0x1A86 JUMPI JUMPDEST POP DUP4 DUP8 MSTORE DUP7 DUP9 DUP2 KECCAK256 SSTORE DUP7 MSTORE PUSH1 0x6 DUP5 MSTORE DUP7 DUP7 KECCAK256 SWAP1 DUP7 MSTORE DUP4 MSTORE DUP5 DUP7 DUP2 KECCAK256 SSTORE CODESIZE DUP1 PUSH2 0x1A15 JUMP JUMPDEST DUP2 DUP9 MSTORE PUSH1 0x6 DUP7 MSTORE DUP9 DUP9 KECCAK256 DUP4 DUP10 MSTORE DUP7 MSTORE DUP9 DUP9 KECCAK256 SLOAD DUP3 DUP10 MSTORE PUSH1 0x6 DUP8 MSTORE DUP10 DUP10 KECCAK256 DUP3 DUP11 MSTORE DUP8 MSTORE DUP1 DUP11 DUP11 KECCAK256 SSTORE DUP9 MSTORE PUSH1 0x7 DUP7 MSTORE DUP9 DUP9 KECCAK256 SSTORE CODESIZE PUSH2 0x1A63 JUMP JUMPDEST PUSH1 0x84 DUP9 DUP9 DUP13 MLOAD SWAP2 PUSH32 0x8C379A000000000000000000000000000000000000000000000000000000000 DUP4 MSTORE DUP3 ADD MSTORE PUSH1 0x26 PUSH1 0x24 DUP3 ADD MSTORE PUSH32 0x746F6B656E732063616E6E6F74206265207472616E736665726564206F6E2074 PUSH1 0x44 DUP3 ADD MSTORE PUSH32 0x6573746E65740000000000000000000000000000000000000000000000000000 PUSH1 0x64 DUP3 ADD MSTORE REVERT JUMPDEST POP PUSH1 0x1 PUSH2 0x16A2 JUMP JUMPDEST DUP3 DUP5 CALLVALUE PUSH2 0x393 JUMPI PUSH2 0xB01 PUSH2 0xB06 SWAP2 PUSH2 0x1B5E CALLDATASIZE PUSH2 0x2B58 JUMP JUMPDEST SWAP2 SWAP3 MLOAD SWAP3 PUSH2 0x1B6B DUP5 PUSH2 0x2F26 JUMP JUMPDEST DUP7 DUP5 MSTORE PUSH2 0xAF1 PUSH2 0xAEC DUP5 CALLER PUSH2 0x3380 JUMP JUMPDEST POP POP CALLVALUE PUSH2 0x31D JUMPI DUP1 PUSH32 0xFFFFFFFFFFFFFFFFFFFFFFFFFFFFFFFFFFFFFFFFFFFFFFFFFFFFFFFFFFFFFFFC CALLDATASIZE ADD SLT PUSH2 0x31D JUMPI DUP2 MLOAD SWAP2 DUP3 SWAP2 PUSH1 0x13 SLOAD DUP1 DUP6 MSTORE PUSH1 0x20 DUP1 SWAP6 ADD SWAP5 PUSH1 0x13 DUP4 MSTORE PUSH32 0x66DE8FFDA797E3DE9C05E8FC57B3BF0EC28A930D40B0D285D93C06501CF6A090 SWAP3 SWAP1 JUMPDEST DUP3 DUP3 LT PUSH2 0x1C06 JUMPI PUSH2 0x2C4 DUP7 DUP7 PUSH2 0x1BFC DUP3 DUP12 SUB DUP4 PUSH2 0x2F5E JUMP JUMPDEST MLOAD SWAP2 DUP3 SWAP2 DUP3 PUSH2 0x2DBD JUMP JUMPDEST DUP4 SLOAD DUP8 MSTORE SWAP6 DUP7 ADD SWAP6 PUSH1 0x1 SWAP4 DUP5 ADD SWAP4 SWAP1 SWAP2 ADD SWAP1 PUSH2 0x1BE4 JUMP JUMPDEST DUP4 DUP4 CALLVALUE PUSH2 0x31D JUMPI PUSH1 0x20 SWAP2 DUP3 PUSH32 0xFFFFFFFFFFFFFFFFFFFFFFFFFFFFFFFFFFFFFFFFFFFFFFFFFFFFFFFFFFFFFFFC CALLDATASIZE ADD SLT PUSH2 0x393 JUMPI DUP2 DUP3 SWAP2 DUP6 CALLDATALOAD DUP5 MSTORE PUSH1 0x11 SWAP4 DUP5 DUP7 MSTORE DUP2 DUP2 KECCAK256 SLOAD SWAP5 DUP6 ISZERO SWAP7 DUP8 ISZERO DUP1 SWAP9 PUSH2 0x1E1E JUMPI JUMPDEST ISZERO PUSH2 0x1DC2 JUMPI PUSH2 0x1C7F DUP8 PUSH1 0xF SLOAD PUSH2 0x4A42 JUMP JUMPDEST SWAP8 PUSH32 0xFFFFFFFFFFFFFFFFFFFFFFFFFFFFFFFFFFFFFFFFFFFFFFFFFFFFFFFFFFFFFFFF SWAP1 DUP2 DUP11 ADD SWAP10 DUP11 GT PUSH2 0x1D97 JUMPI PUSH2 0x1D43 JUMPI JUMPDEST POP DUP8 PUSH2 0x1CE2 JUMPI JUMPDEST POP POP POP SWAP1 PUSH2 0x2C4 SWAP3 SWAP2 MLOAD SWAP5 DUP6 SWAP5 DUP6 SWAP1 SWAP5 SWAP4 SWAP3 PUSH1 0x60 SWAP3 PUSH1 0x80 DUP4 ADD SWAP7 DUP4 MSTORE PUSH1 0x20 DUP4 ADD MSTORE PUSH1 0x40 DUP3 ADD MSTORE ADD MSTORE JUMP JUMPDEST SWAP1 SWAP2 SWAP3 SWAP5 POP PUSH1 0x1 DUP7 ADD SWAP8 DUP9 DUP8 GT PUSH2 0x1D18 JUMPI POP PUSH2 0x1D02 PUSH2 0x2C4 SWAP7 SWAP8 SWAP9 PUSH2 0x3A7E JUMP JUMPDEST SWAP1 SLOAD SWAP1 PUSH1 0x3 SHL SHR DUP1 SWAP4 MSTORE MSTORE SWAP2 DUP6 SWAP5 SWAP4 DUP8 DUP1 PUSH2 0x1CB8 JUMP JUMPDEST DUP4 DUP4 PUSH1 0x24 SWAP3 PUSH32 0x4E487B7100000000000000000000000000000000000000000000000000000000 DUP4 MSTORE MSTORE REVERT JUMPDEST SWAP1 SWAP5 POP DUP7 ADD DUP7 DUP2 GT PUSH2 0x1D6C JUMPI PUSH2 0x1D58 SWAP1 PUSH2 0x3A7E JUMP JUMPDEST SWAP1 SLOAD SWAP1 PUSH1 0x3 SHL SHR DUP1 DUP4 MSTORE DUP2 DUP6 MSTORE SWAP4 DUP10 PUSH2 0x1CB1 JUMP JUMPDEST PUSH1 0x24 DUP4 DUP4 DUP12 PUSH32 0x4E487B7100000000000000000000000000000000000000000000000000000000 DUP4 MSTORE MSTORE REVERT JUMPDEST PUSH1 0x24 DUP6 DUP6 DUP14 PUSH32 0x4E487B7100000000000000000000000000000000000000000000000000000000 DUP4 MSTORE MSTORE REVERT JUMPDEST DUP9 PUSH1 0x64 SWAP2 DUP6 MLOAD SWAP2 PUSH32 0x8C379A000000000000000000000000000000000000000000000000000000000 DUP4 MSTORE DUP3 ADD MSTORE PUSH1 0x1E PUSH1 0x24 DUP3 ADD MSTORE PUSH32 0x456E756D657261626C654D61703A206E6F6E6578697374656E74206B65790000 PUSH1 0x44 DUP3 ADD MSTORE REVERT JUMPDEST POP PUSH1 0x10 DUP2 MSTORE DUP4 DUP4 KECCAK256 SLOAD ISZERO ISZERO PUSH2 0x1C6E JUMP JUMPDEST DUP3 DUP5 CALLVALUE PUSH2 0x393 JUMPI PUSH1 0x20 SWAP1 PUSH2 0x49D PUSH2 0x1E44 CALLDATASIZE PUSH2 0x2BB8 JUMP JUMPDEST SWAP1 PUSH2 0x52B3 JUMP JUMPDEST SWAP1 POP CALLVALUE PUSH2 0x393 JUMPI PUSH1 0x20 PUSH32 0xFFFFFFFFFFFFFFFFFFFFFFFFFFFFFFFFFFFFFFFFFFFFFFFFFFFFFFFFFFFFFFFC CALLDATASIZE ADD SLT PUSH2 0x393 JUMPI DUP1 CALLDATALOAD PUSH8 0xFFFFFFFFFFFFFFFF DUP2 GT PUSH2 0x433 JUMPI PUSH2 0x1E98 SWAP2 CALLDATASIZE SWAP2 ADD PUSH2 0x29DB JUMP JUMPDEST PUSH2 0x1EA1 DUP2 PUSH2 0x4B0D JUMP JUMPDEST SWAP3 JUMPDEST DUP2 DUP2 LT PUSH2 0x1EBF JUMPI DUP5 MLOAD PUSH1 0x20 DUP1 DUP3 MSTORE DUP2 SWAP1 PUSH2 0x2C4 SWAP1 DUP3 ADD DUP8 PUSH2 0x2A11 JUMP JUMPDEST DUP1 PUSH2 0x424 PUSH2 0x120B PUSH2 0x1ED4 PUSH2 0x1ED9 SWAP5 DUP7 DUP9 PUSH2 0x4A32 JUMP JUMPDEST PUSH2 0x3B33 JUMP JUMPDEST PUSH2 0x1EA3 JUMP JUMPDEST DUP4 DUP4 CALLVALUE PUSH2 0x31D JUMPI DUP2 PUSH32 0xFFFFFFFFFFFFFFFFFFFFFFFFFFFFFFFFFFFFFFFFFFFFFFFFFFFFFFFFFFFFFFFC CALLDATASIZE ADD SLT PUSH2 0x31D JUMPI PUSH2 0x1F16 PUSH2 0x2AA3 JUMP JUMPDEST PUSH1 0x24 CALLDATALOAD SWAP1 PUSH2 0x1F23 DUP2 PUSH2 0x2FD9 JUMP JUMPDEST DUP3 LT ISZERO PUSH2 0x1F5E JUMPI PUSH1 0x20 SWAP3 DUP5 SWAP3 PUSH20 0xFFFFFFFFFFFFFFFFFFFFFFFFFFFFFFFFFFFFFFFF DUP5 SWAP4 AND DUP3 MSTORE PUSH1 0x6 DUP6 MSTORE DUP3 DUP3 KECCAK256 SWAP1 DUP3 MSTORE DUP5 MSTORE KECCAK256 SLOAD SWAP1 MLOAD SWAP1 DUP2 MSTORE RETURN JUMPDEST PUSH1 0x84 DUP6 PUSH1 0x20 DUP7 MLOAD SWAP2 PUSH32 0x8C379A000000000000000000000000000000000000000000000000000000000 DUP4 MSTORE DUP3 ADD MSTORE PUSH1 0x2B PUSH1 0x24 DUP3 ADD MSTORE PUSH32 0x455243373231456E756D657261626C653A206F776E657220696E646578206F75 PUSH1 0x44 DUP3 ADD MSTORE PUSH32 0x74206F6620626F756E6473000000000000000000000000000000000000000000 PUSH1 0x64 DUP3 ADD MSTORE REVERT JUMPDEST DUP4 SWAP2 POP CALLVALUE PUSH2 0x433 JUMPI PUSH1 0x20 PUSH32 0xFFFFFFFFFFFFFFFFFFFFFFFFFFFFFFFFFFFFFFFFFFFFFFFFFFFFFFFFFFFFFFFC CALLDATASIZE ADD SLT PUSH2 0x433 JUMPI PUSH1 0x20 SWAP3 DUP3 SWAP2 CALLDATALOAD DUP2 MSTORE PUSH1 0x15 DUP5 MSTORE KECCAK256 SLOAD SWAP1 MLOAD SWAP1 DUP2 MSTORE RETURN JUMPDEST SWAP1 POP CALLVALUE PUSH2 0x393 JUMPI PUSH1 0x20 PUSH32 0xFFFFFFFFFFFFFFFFFFFFFFFFFFFFFFFFFFFFFFFFFFFFFFFFFFFFFFFFFFFFFFFC CALLDATASIZE ADD SLT PUSH2 0x393 JUMPI DUP1 CALLDATALOAD PUSH8 0xFFFFFFFFFFFFFFFF DUP2 GT PUSH2 0x433 JUMPI PUSH2 0x2076 SWAP2 CALLDATASIZE SWAP2 ADD PUSH2 0x29DB JUMP JUMPDEST PUSH2 0x207F DUP2 PUSH2 0x4B0D JUMP JUMPDEST SWAP3 JUMPDEST DUP2 DUP2 LT PUSH2 0x209D JUMPI DUP5 MLOAD PUSH1 0x20 DUP1 DUP3 MSTORE DUP2 SWAP1 PUSH2 0x2C4 SWAP1 DUP3 ADD DUP8 PUSH2 0x2A11 JUMP JUMPDEST DUP1 PUSH2 0x424 PUSH2 0x476 PUSH2 0x1ED4 PUSH2 0x20B2 SWAP5 DUP7 DUP9 PUSH2 0x4A32 JUMP JUMPDEST PUSH2 0x2081 JUMP JUMPDEST SWAP1 POP DUP3 CALLVALUE PUSH2 0x433 JUMPI PUSH1 0x20 SWAP2 DUP3 PUSH32 0xFFFFFFFFFFFFFFFFFFFFFFFFFFFFFFFFFFFFFFFFFFFFFFFFFFFFFFFFFFFFFFFC CALLDATASIZE ADD SLT PUSH2 0x652 JUMPI DUP1 CALLDATALOAD SWAP1 PUSH8 0xFFFFFFFFFFFFFFFF DUP3 GT PUSH2 0x64E JUMPI PUSH2 0x210C SWAP2 SWAP5 SWAP4 SWAP5 CALLDATASIZE SWAP2 ADD PUSH2 0x29DB JUMP JUMPDEST SWAP2 SWAP1 PUSH2 0x2117 DUP4 PUSH2 0x4AAD JUMP JUMPDEST PUSH2 0x2123 DUP4 MLOAD SWAP2 DUP3 PUSH2 0x2F5E JUMP JUMPDEST DUP4 DUP2 MSTORE PUSH32 0xFFFFFFFFFFFFFFFFFFFFFFFFFFFFFFFFFFFFFFFFFFFFFFFFFFFFFFFFFFFFFFE0 PUSH2 0x2150 DUP6 PUSH2 0x4AAD JUMP JUMPDEST ADD DUP6 JUMPDEST DUP2 DUP2 LT PUSH2 0x2299 JUMPI POP POP PUSH2 0x2165 DUP5 PUSH2 0x4B0D JUMP JUMPDEST PUSH2 0x216E DUP6 PUSH2 0x4B5C JUMP JUMPDEST SWAP3 PUSH2 0x2178 DUP7 PUSH2 0x4B5C JUMP JUMPDEST SWAP6 DUP8 JUMPDEST DUP2 DUP2 LT PUSH2 0x223B JUMPI POP POP POP DUP4 MLOAD SWAP7 DUP8 SWAP7 PUSH1 0x80 DUP9 ADD PUSH1 0x80 DUP10 MSTORE DUP5 MLOAD DUP1 SWAP2 MSTORE PUSH1 0xA0 DUP10 ADD DUP4 PUSH1 0xA0 DUP4 PUSH1 0x5 SHL DUP13 ADD ADD SWAP7 ADD SWAP3 SWAP1 JUMPDEST DUP3 DUP3 LT PUSH2 0x21E8 JUMPI DUP11 DUP8 SUB DUP6 DUP13 ADD MSTORE DUP11 DUP1 PUSH2 0x2C4 DUP13 PUSH2 0x21DA DUP14 DUP14 PUSH2 0x21CD DUP15 DUP15 PUSH2 0x2A11 JUMP JUMPDEST SWAP2 DUP7 DUP4 SUB SWAP1 DUP8 ADD MSTORE PUSH2 0x2D43 JUMP JUMPDEST SWAP1 DUP4 DUP3 SUB PUSH1 0x60 DUP6 ADD MSTORE PUSH2 0x2D43 JUMP JUMPDEST SWAP2 SWAP4 DUP1 PUSH2 0x2226 DUP9 PUSH32 0xFFFFFFFFFFFFFFFFFFFFFFFFFFFFFFFFFFFFFFFFFFFFFFFFFFFFFFFFFFFFFF60 PUSH1 0x1 SWAP6 SWAP8 SWAP12 SWAP13 SWAP14 SWAP15 DUP5 SWAP11 SWAP12 SUB ADD DUP7 MSTORE DUP11 MLOAD PUSH2 0x2C45 JUMP JUMPDEST SWAP9 ADD SWAP3 ADD SWAP3 ADD DUP11 SWAP10 SWAP9 SWAP8 SWAP7 SWAP6 SWAP5 SWAP4 SWAP2 SWAP3 PUSH2 0x21AA JUMP JUMPDEST DUP1 PUSH2 0x226B DUP2 DUP11 PUSH2 0x2260 PUSH2 0x225A SWAP14 SWAP15 SWAP9 SWAP10 SWAP11 SWAP12 SWAP13 SWAP14 PUSH2 0x228C SWAP7 DUP9 DUP11 PUSH2 0x4A32 JUMP JUMPDEST CALLDATALOAD PUSH2 0x4C33 JUMP JUMPDEST SWAP3 SWAP6 SWAP2 SWAP5 SWAP1 SWAP4 PUSH2 0x4BD0 JUMP JUMPDEST MSTORE PUSH2 0x2276 DUP5 DUP13 PUSH2 0x4BD0 JUMP JUMPDEST MSTORE PUSH2 0x2281 DUP4 DUP10 PUSH2 0x4BD0 JUMP JUMPDEST MSTORE PUSH2 0x312 DUP3 DUP10 PUSH2 0x4BD0 JUMP JUMPDEST SWAP9 SWAP8 SWAP7 SWAP6 SWAP5 SWAP4 SWAP3 SWAP9 PUSH2 0x217B JUMP JUMPDEST SWAP7 DUP1 SWAP3 SWAP4 SWAP5 SWAP6 SWAP7 SWAP8 PUSH2 0x22A9 PUSH2 0x4AC5 JUMP JUMPDEST DUP3 DUP3 DUP8 ADD ADD MSTORE ADD SWAP7 SWAP6 SWAP5 SWAP4 SWAP3 SWAP2 SWAP7 PUSH2 0x2153 JUMP JUMPDEST DUP4 DUP4 CALLVALUE PUSH2 0x31D JUMPI PUSH2 0x22CC CALLDATASIZE PUSH2 0x2BB8 JUMP JUMPDEST SWAP3 DUP3 SWAP1 DUP4 SWAP3 DUP5 MSTORE PUSH1 0x17 PUSH1 0x20 MSTORE PUSH2 0x7A7 DUP2 DUP6 KECCAK256 SWAP6 DUP7 PUSH2 0x5003 JUMP JUMPDEST DUP4 DUP4 CALLVALUE PUSH2 0x31D JUMPI PUSH1 0x20 PUSH32 0xFFFFFFFFFFFFFFFFFFFFFFFFFFFFFFFFFFFFFFFFFFFFFFFFFFFFFFFFFFFFFFFC CALLDATASIZE ADD SLT PUSH2 0x31D JUMPI POP PUSH2 0x49D PUSH1 0x20 SWAP3 CALLDATALOAD PUSH2 0x4FE7 JUMP JUMPDEST DUP3 CALLVALUE PUSH2 0x31D JUMPI PUSH2 0xB06 PUSH2 0x2335 CALLDATASIZE PUSH2 0x2B58 JUMP JUMPDEST SWAP2 PUSH2 0x2343 PUSH2 0xAEC DUP5 CALLER PUSH2 0x3380 JUMP JUMPDEST PUSH2 0x3486 JUMP JUMPDEST DUP3 DUP5 CALLVALUE PUSH2 0x393 JUMPI DUP2 PUSH32 0xFFFFFFFFFFFFFFFFFFFFFFFFFFFFFFFFFFFFFFFFFFFFFFFFFFFFFFFFFFFFFFFC CALLDATASIZE ADD SLT PUSH2 0x393 JUMPI PUSH1 0x20 SWAP1 PUSH1 0x13 SLOAD SWAP1 MLOAD SWAP1 DUP2 MSTORE RETURN JUMPDEST DUP3 DUP5 CALLVALUE PUSH2 0x393 JUMPI DUP2 PUSH32 0xFFFFFFFFFFFFFFFFFFFFFFFFFFFFFFFFFFFFFFFFFFFFFFFFFFFFFFFFFFFFFFFC CALLDATASIZE ADD SLT PUSH2 0x393 JUMPI PUSH1 0x20 SWAP1 PUSH1 0x8 SLOAD SWAP1 MLOAD SWAP1 DUP2 MSTORE RETURN JUMPDEST SWAP2 SWAP1 POP CALLVALUE PUSH2 0x31D JUMPI DUP3 PUSH32 0xFFFFFFFFFFFFFFFFFFFFFFFFFFFFFFFFFFFFFFFFFFFFFFFFFFFFFFFFFFFFFFFC CALLDATASIZE ADD SLT PUSH2 0x31D JUMPI DUP2 CALLDATALOAD SWAP2 PUSH1 0x24 CALLDATALOAD PUSH8 0xFFFFFFFFFFFFFFFF DUP2 GT PUSH2 0x433 JUMPI PUSH2 0x2414 SWAP2 CALLDATASIZE SWAP2 ADD PUSH2 0x29DB JUMP JUMPDEST SWAP3 SWAP1 SWAP2 PUSH2 0x2420 DUP5 PUSH2 0x4B0D JUMP JUMPDEST SWAP4 DUP2 JUMPDEST DUP2 DUP2 LT PUSH2 0x243F JUMPI DUP7 MLOAD PUSH1 0x20 DUP1 DUP3 MSTORE DUP2 SWAP1 PUSH2 0x2C4 SWAP1 DUP3 ADD DUP10 PUSH2 0x2A11 JUMP JUMPDEST DUP1 PUSH2 0x301 PUSH2 0x2451 PUSH2 0x2462 SWAP4 DUP6 DUP10 PUSH2 0x4A32 JUMP JUMPDEST CALLDATALOAD DUP7 DUP7 MSTORE PUSH1 0x15 PUSH1 0x20 MSTORE DUP10 DUP7 KECCAK256 PUSH2 0x3B1B JUMP JUMPDEST PUSH2 0x2423 JUMP JUMPDEST POP POP CALLVALUE PUSH2 0x31D JUMPI PUSH2 0x2477 CALLDATASIZE PUSH2 0x2AE9 JUMP JUMPDEST PUSH2 0x2483 DUP2 SWAP4 SWAP3 SWAP4 PUSH2 0x4B0D JUMP JUMPDEST SWAP4 JUMPDEST DUP2 DUP2 LT PUSH2 0x24A1 JUMPI DUP6 MLOAD PUSH1 0x20 DUP1 DUP3 MSTORE DUP2 SWAP1 PUSH2 0x2C4 SWAP1 DUP3 ADD DUP9 PUSH2 0x2A11 JUMP JUMPDEST DUP1 PUSH2 0x24BA PUSH2 0x24B3 PUSH2 0x24C4 SWAP4 DUP6 DUP9 PUSH2 0x4A32 JUMP JUMPDEST CALLDATALOAD DUP6 PUSH2 0x5226 JUMP JUMPDEST PUSH2 0x312 DUP3 DUP9 PUSH2 0x4BD0 JUMP JUMPDEST PUSH2 0x2485 JUMP JUMPDEST DUP3 DUP5 CALLVALUE PUSH2 0x393 JUMPI DUP2 PUSH32 0xFFFFFFFFFFFFFFFFFFFFFFFFFFFFFFFFFFFFFFFFFFFFFFFFFFFFFFFFFFFFFFFC CALLDATASIZE ADD SLT PUSH2 0x393 JUMPI PUSH1 0x20 SWAP1 MLOAD TIMESTAMP DUP2 MSTORE RETURN JUMPDEST DUP4 SWAP2 POP CALLVALUE PUSH2 0x433 JUMPI DUP2 PUSH32 0xFFFFFFFFFFFFFFFFFFFFFFFFFFFFFFFFFFFFFFFFFFFFFFFFFFFFFFFFFFFFFFFC CALLDATASIZE ADD SLT PUSH2 0x433 JUMPI PUSH2 0x253B PUSH2 0x2AA3 JUMP JUMPDEST SWAP1 PUSH1 0x24 CALLDATALOAD SWAP3 PUSH20 0xFFFFFFFFFFFFFFFFFFFFFFFFFFFFFFFFFFFFFFFF SWAP2 DUP3 DUP1 PUSH2 0x2561 DUP8 PUSH2 0x30EF JUMP JUMPDEST AND SWAP5 AND SWAP4 DUP1 DUP6 EQ PUSH2 0x267F JUMPI DUP1 CALLER EQ SWAP1 DUP2 ISZERO PUSH2 0x2660 JUMPI JUMPDEST POP ISZERO PUSH2 0x25DE JUMPI DUP5 DUP7 MSTORE PUSH1 0x20 MSTORE DUP5 KECCAK256 DUP3 PUSH32 0xFFFFFFFFFFFFFFFFFFFFFFFF0000000000000000000000000000000000000000 DUP3 SLOAD AND OR SWAP1 SSTORE PUSH2 0x25B6 DUP4 PUSH2 0x30EF JUMP JUMPDEST AND PUSH32 0x8C5BE1E5EBEC7D5BD14F71427D1E84F3DD0314C0F7B2291E5B200AC8C7C3B925 DUP5 DUP1 LOG4 DUP1 RETURN JUMPDEST PUSH1 0x20 PUSH1 0x84 SWAP3 MLOAD SWAP2 PUSH32 0x8C379A000000000000000000000000000000000000000000000000000000000 DUP4 MSTORE DUP3 ADD MSTORE PUSH1 0x3D PUSH1 0x24 DUP3 ADD MSTORE PUSH32 0x4552433732313A20617070726F76652063616C6C6572206973206E6F7420746F PUSH1 0x44 DUP3 ADD MSTORE PUSH32 0x6B656E206F776E6572206F7220617070726F76656420666F7220616C6C000000 PUSH1 0x64 DUP3 ADD MSTORE REVERT JUMPDEST SWAP1 POP DUP7 MSTORE PUSH1 0x5 PUSH1 0x20 MSTORE DUP2 DUP7 KECCAK256 CALLER DUP8 MSTORE PUSH1 0x20 MSTORE PUSH1 0xFF DUP3 DUP8 KECCAK256 SLOAD AND DUP8 PUSH2 0x2577 JUMP JUMPDEST POP PUSH1 0x20 PUSH1 0x84 SWAP3 MLOAD SWAP2 PUSH32 0x8C379A000000000000000000000000000000000000000000000000000000000 DUP4 MSTORE DUP3 ADD MSTORE PUSH1 0x21 PUSH1 0x24 DUP3 ADD MSTORE PUSH32 0x4552433732313A20617070726F76616C20746F2063757272656E74206F776E65 PUSH1 0x44 DUP3 ADD MSTORE PUSH32 0x7200000000000000000000000000000000000000000000000000000000000000 PUSH1 0x64 DUP3 ADD MSTORE REVERT JUMPDEST DUP4 DUP4 CALLVALUE PUSH2 0x31D JUMPI PUSH1 0x20 PUSH32 0xFFFFFFFFFFFFFFFFFFFFFFFFFFFFFFFFFFFFFFFFFFFFFFFFFFFFFFFFFFFFFFFC CALLDATASIZE ADD SLT PUSH2 0x31D JUMPI POP PUSH20 0xFFFFFFFFFFFFFFFFFFFFFFFFFFFFFFFFFFFFFFFF PUSH2 0x1171 PUSH1 0x20 SWAP4 CALLDATALOAD PUSH2 0x3226 JUMP JUMPDEST DUP3 DUP5 CALLVALUE PUSH2 0x393 JUMPI DUP2 PUSH32 0xFFFFFFFFFFFFFFFFFFFFFFFFFFFFFFFFFFFFFFFFFFFFFFFFFFFFFFFFFFFFFFFC CALLDATASIZE ADD SLT PUSH2 0x393 JUMPI DUP1 MLOAD SWAP1 DUP3 DUP1 SLOAD PUSH2 0x2794 DUP2 PUSH2 0x311E JUMP JUMPDEST DUP1 DUP6 MSTORE SWAP2 PUSH1 0x1 SWAP2 DUP1 DUP4 AND SWAP1 DUP2 ISZERO PUSH2 0xEAB JUMPI POP PUSH1 0x1 EQ PUSH2 0x27BF JUMPI POP POP POP PUSH2 0x72D DUP3 PUSH2 0x2C4 SWAP5 SUB DUP4 PUSH2 0x2F5E JUMP JUMPDEST DUP1 DUP1 SWAP7 POP MSTORE PUSH32 0x290DECD9548B62A8D60345A988386FC84BA6BC95484008F6362F93160EF3E563 JUMPDEST DUP3 DUP7 LT PUSH2 0x2803 JUMPI POP POP POP PUSH2 0x72D DUP3 PUSH1 0x20 PUSH2 0x2C4 SWAP6 DUP3 ADD ADD SWAP5 PUSH2 0xE3D JUMP JUMPDEST DUP1 SLOAD PUSH1 0x20 DUP8 DUP8 ADD DUP2 ADD SWAP2 SWAP1 SWAP2 MSTORE SWAP1 SWAP6 ADD SWAP5 DUP2 ADD PUSH2 0x27E6 JUMP JUMPDEST DUP4 SWAP2 POP CALLVALUE PUSH2 0x433 JUMPI PUSH1 0x20 PUSH32 0xFFFFFFFFFFFFFFFFFFFFFFFFFFFFFFFFFFFFFFFFFFFFFFFFFFFFFFFFFFFFFFFC CALLDATASIZE ADD SLT PUSH2 0x433 JUMPI CALLDATALOAD SWAP1 PUSH32 0xFFFFFFFF00000000000000000000000000000000000000000000000000000000 DUP3 AND DUP1 SWAP3 SUB PUSH2 0x433 JUMPI PUSH1 0x20 SWAP3 POP PUSH32 0x780E9D6300000000000000000000000000000000000000000000000000000000 DUP3 EQ SWAP2 DUP3 ISZERO PUSH2 0x28B1 JUMPI JUMPDEST POP MLOAD SWAP1 ISZERO ISZERO DUP2 MSTORE RETURN JUMPDEST SWAP1 SWAP2 POP PUSH32 0x80AC58CD00000000000000000000000000000000000000000000000000000000 DUP2 EQ SWAP1 DUP2 ISZERO PUSH2 0x2918 JUMPI JUMPDEST DUP2 ISZERO PUSH2 0x28EE JUMPI JUMPDEST POP SWAP1 DUP4 PUSH2 0x28A8 JUMP JUMPDEST PUSH32 0x1FFC9A700000000000000000000000000000000000000000000000000000000 SWAP2 POP EQ DUP4 PUSH2 0x28E6 JUMP JUMPDEST PUSH32 0x5B5E139F00000000000000000000000000000000000000000000000000000000 DUP2 EQ SWAP2 POP PUSH2 0x28DF JUMP JUMPDEST SWAP1 POP CALLVALUE PUSH2 0x393 JUMPI DUP3 PUSH32 0xFFFFFFFFFFFFFFFFFFFFFFFFFFFFFFFFFFFFFFFFFFFFFFFFFFFFFFFFFFFFFFFC CALLDATASIZE ADD SLT PUSH2 0x393 JUMPI DUP1 CALLDATALOAD SWAP1 PUSH1 0x24 CALLDATALOAD PUSH8 0xFFFFFFFFFFFFFFFF DUP2 GT PUSH2 0x652 JUMPI PUSH2 0x2993 SWAP2 CALLDATASIZE SWAP2 ADD PUSH2 0x29DB JUMP JUMPDEST PUSH2 0x299F DUP2 SWAP4 SWAP3 SWAP4 PUSH2 0x4B0D JUMP JUMPDEST SWAP4 JUMPDEST DUP2 DUP2 LT PUSH2 0x29BD JUMPI DUP6 MLOAD PUSH1 0x20 DUP1 DUP3 MSTORE DUP2 SWAP1 PUSH2 0x2C4 SWAP1 DUP3 ADD DUP9 PUSH2 0x2A11 JUMP JUMPDEST DUP1 PUSH2 0x24BA PUSH2 0x29CF PUSH2 0x29D6 SWAP4 DUP6 DUP9 PUSH2 0x4A32 JUMP JUMPDEST CALLDATALOAD DUP6 PUSH2 0x52B3 JUMP JUMPDEST PUSH2 0x29A1 JUMP JUMPDEST SWAP2 DUP2 PUSH1 0x1F DUP5 ADD SLT ISZERO PUSH2 0x2A0C JUMPI DUP3 CALLDATALOAD SWAP2 PUSH8 0xFFFFFFFFFFFFFFFF DUP4 GT PUSH2 0x2A0C JUMPI PUSH1 0x20 DUP1 DUP6 ADD SWAP5 DUP5 PUSH1 0x5 SHL ADD ADD GT PUSH2 0x2A0C JUMPI JUMP JUMPDEST PUSH1 0x0 DUP1 REVERT JUMPDEST SWAP1 DUP2 MLOAD DUP1 DUP3 MSTORE PUSH1 0x20 DUP1 DUP1 SWAP4 ADD SWAP4 ADD SWAP2 PUSH1 0x0 JUMPDEST DUP3 DUP2 LT PUSH2 0x2A31 JUMPI POP POP POP POP SWAP1 JUMP JUMPDEST DUP4 MLOAD DUP6 MSTORE SWAP4 DUP2 ADD SWAP4 SWAP3 DUP2 ADD SWAP3 PUSH1 0x1 ADD PUSH2 0x2A23 JUMP JUMPDEST SWAP2 SWAP1 DUP3 MLOAD SWAP3 DUP4 DUP3 MSTORE PUSH1 0x0 JUMPDEST DUP5 DUP2 LT PUSH2 0x2A8F JUMPI POP POP PUSH32 0xFFFFFFFFFFFFFFFFFFFFFFFFFFFFFFFFFFFFFFFFFFFFFFFFFFFFFFFFFFFFFFE0 PUSH1 0x1F DUP5 PUSH1 0x0 PUSH1 0x20 DUP1 SWAP7 SWAP8 DUP7 ADD ADD MSTORE ADD AND ADD ADD SWAP1 JUMP JUMPDEST PUSH1 0x20 DUP2 DUP4 ADD DUP2 ADD MLOAD DUP5 DUP4 ADD DUP3 ADD MSTORE ADD PUSH2 0x2A50 JUMP JUMPDEST PUSH1 0x4 CALLDATALOAD SWAP1 PUSH20 0xFFFFFFFFFFFFFFFFFFFFFFFFFFFFFFFFFFFFFFFF DUP3 AND DUP3 SUB PUSH2 0x2A0C JUMPI JUMP JUMPDEST PUSH1 0x24 CALLDATALOAD SWAP1 PUSH20 0xFFFFFFFFFFFFFFFFFFFFFFFFFFFFFFFFFFFFFFFF DUP3 AND DUP3 SUB PUSH2 0x2A0C JUMPI JUMP JUMPDEST SWAP1 PUSH1 0x40 PUSH32 0xFFFFFFFFFFFFFFFFFFFFFFFFFFFFFFFFFFFFFFFFFFFFFFFFFFFFFFFFFFFFFFFC DUP4 ADD SLT PUSH2 0x2A0C JUMPI PUSH1 0x4 CALLDATALOAD PUSH20 0xFFFFFFFFFFFFFFFFFFFFFFFFFFFFFFFFFFFFFFFF DUP2 AND DUP2 SUB PUSH2 0x2A0C JUMPI SWAP2 PUSH1 0x24 CALLDATALOAD SWAP1 PUSH8 0xFFFFFFFFFFFFFFFF DUP3 GT PUSH2 0x2A0C JUMPI PUSH2 0x2B54 SWAP2 PUSH1 0x4 ADD PUSH2 0x29DB JUMP JUMPDEST SWAP1 SWAP2 JUMP JUMPDEST PUSH32 0xFFFFFFFFFFFFFFFFFFFFFFFFFFFFFFFFFFFFFFFFFFFFFFFFFFFFFFFFFFFFFFFC PUSH1 0x60 SWAP2 ADD SLT PUSH2 0x2A0C JUMPI PUSH20 0xFFFFFFFFFFFFFFFFFFFFFFFFFFFFFFFFFFFFFFFF SWAP1 PUSH1 0x4 CALLDATALOAD DUP3 DUP2 AND DUP2 SUB PUSH2 0x2A0C JUMPI SWAP2 PUSH1 0x24 CALLDATALOAD SWAP1 DUP2 AND DUP2 SUB PUSH2 0x2A0C JUMPI SWAP1 PUSH1 0x44 CALLDATALOAD SWAP1 JUMP JUMPDEST PUSH32 0xFFFFFFFFFFFFFFFFFFFFFFFFFFFFFFFFFFFFFFFFFFFFFFFFFFFFFFFFFFFFFFFC PUSH1 0x40 SWAP2 ADD SLT PUSH2 0x2A0C JUMPI PUSH1 0x4 CALLDATALOAD SWAP1 PUSH1 0x24 CALLDATALOAD SWAP1 JUMP JUMPDEST SWAP1 DUP2 MLOAD DUP1 DUP3 MSTORE PUSH1 0x20 DUP1 DUP1 SWAP4 ADD SWAP4 ADD SWAP2 PUSH1 0x0 JUMPDEST DUP3 DUP2 LT PUSH2 0x2C0C JUMPI POP POP POP POP SWAP1 JUMP JUMPDEST DUP4 MLOAD DUP1 MLOAD PUSH20 0xFFFFFFFFFFFFFFFFFFFFFFFFFFFFFFFFFFFFFFFF AND DUP7 MSTORE DUP3 ADD MLOAD PUSH2 0xFFFF AND DUP6 DUP4 ADD MSTORE PUSH1 0x40 SWAP1 SWAP5 ADD SWAP4 SWAP3 DUP2 ADD SWAP3 PUSH1 0x1 ADD PUSH2 0x2BFE JUMP JUMPDEST SWAP2 SWAP1 PUSH20 0xFFFFFFFFFFFFFFFFFFFFFFFFFFFFFFFFFFFFFFFF DUP4 MLOAD AND DUP2 MSTORE PUSH1 0x20 SWAP3 DUP4 DUP2 ADD MLOAD DUP5 DUP4 ADD MSTORE PUSH1 0x40 DUP2 ADD MLOAD PUSH1 0x40 DUP4 ADD MSTORE PUSH1 0x60 DUP2 ADD MLOAD PUSH1 0x60 DUP4 ADD MSTORE PUSH2 0x2CAE PUSH2 0x2C9C PUSH1 0x80 DUP4 ADD MLOAD PUSH2 0x120 DUP1 PUSH1 0x80 DUP8 ADD MSTORE DUP6 ADD SWAP1 PUSH2 0x2A45 JUMP JUMPDEST PUSH1 0xA0 DUP4 ADD MLOAD DUP5 DUP3 SUB PUSH1 0xA0 DUP7 ADD MSTORE PUSH2 0x2A45 JUMP JUMPDEST SWAP2 PUSH1 0xC0 DUP3 ADD MLOAD SWAP3 DUP2 DUP2 SUB PUSH1 0xC0 DUP4 ADD MSTORE DUP6 DUP1 DUP6 MLOAD SWAP3 DUP4 DUP2 MSTORE ADD SWAP5 ADD SWAP1 PUSH1 0x0 JUMPDEST DUP8 DUP3 DUP3 LT PUSH2 0x2D2F JUMPI POP POP POP POP PUSH1 0xE0 DUP3 ADD MLOAD SWAP3 DUP2 DUP2 SUB PUSH1 0xE0 DUP4 ADD MSTORE DUP6 DUP1 DUP6 MLOAD SWAP3 DUP4 DUP2 MSTORE ADD SWAP5 ADD SWAP1 PUSH1 0x0 JUMPDEST DUP2 DUP2 LT PUSH2 0x2D1B JUMPI POP POP POP PUSH2 0x2D18 SWAP4 SWAP5 POP PUSH2 0x100 DUP1 SWAP3 ADD MLOAD SWAP2 DUP2 DUP5 SUB SWAP2 ADD MSTORE PUSH2 0x2BEC JUMP JUMPDEST SWAP1 JUMP JUMPDEST DUP3 MLOAD DUP7 MSTORE SWAP5 DUP8 ADD SWAP5 SWAP2 DUP8 ADD SWAP2 PUSH1 0x1 ADD PUSH2 0x2CF5 JUMP JUMPDEST DUP4 MLOAD DUP8 MSTORE SWAP6 DUP7 ADD SWAP6 SWAP1 SWAP3 ADD SWAP2 PUSH1 0x1 ADD PUSH2 0x2CCC JUMP JUMPDEST SWAP1 DUP1 DUP3 MLOAD SWAP1 DUP2 DUP2 MSTORE PUSH1 0x20 DUP1 SWAP2 ADD SWAP3 DUP2 DUP1 DUP5 PUSH1 0x5 SHL DUP4 ADD ADD SWAP6 ADD SWAP4 PUSH1 0x0 SWAP2 JUMPDEST DUP5 DUP4 LT PUSH2 0x2D71 JUMPI POP POP POP POP POP POP SWAP1 JUMP JUMPDEST SWAP1 SWAP2 SWAP3 SWAP4 SWAP5 SWAP6 DUP5 DUP1 PUSH2 0x2DAD DUP4 PUSH32 0xFFFFFFFFFFFFFFFFFFFFFFFFFFFFFFFFFFFFFFFFFFFFFFFFFFFFFFFFFFFFFFE0 DUP7 PUSH1 0x1 SWAP7 SUB ADD DUP8 MSTORE DUP11 MLOAD PUSH2 0x2A45 JUMP JUMPDEST SWAP9 ADD SWAP4 ADD SWAP4 ADD SWAP2 SWAP5 SWAP4 SWAP3 SWAP1 PUSH2 0x2D61 JUMP JUMPDEST PUSH1 0x20 SWAP1 DUP2 PUSH1 0x40 DUP2 DUP4 ADD SWAP3 DUP3 DUP2 MSTORE DUP6 MLOAD DUP1 SWAP5 MSTORE ADD SWAP4 ADD SWAP2 PUSH1 0x0 JUMPDEST DUP3 DUP2 LT PUSH2 0x2DE4 JUMPI POP POP POP POP SWAP1 JUMP JUMPDEST DUP4 MLOAD PUSH20 0xFFFFFFFFFFFFFFFFFFFFFFFFFFFFFFFFFFFFFFFF AND DUP6 MSTORE SWAP4 DUP2 ADD SWAP4 SWAP3 DUP2 ADD SWAP3 PUSH1 0x1 ADD PUSH2 0x2DD6 JUMP JUMPDEST SWAP2 DUP2 PUSH1 0x1F DUP5 ADD SLT ISZERO PUSH2 0x2A0C JUMPI DUP3 CALLDATALOAD SWAP2 PUSH8 0xFFFFFFFFFFFFFFFF DUP4 GT PUSH2 0x2A0C JUMPI PUSH1 0x20 DUP4 DUP2 DUP7 ADD SWAP6 ADD ADD GT PUSH2 0x2A0C JUMPI JUMP JUMPDEST PUSH32 0xFFFFFFFFFFFFFFFFFFFFFFFFFFFFFFFFFFFFFFFFFFFFFFFFFFFFFFFFFFFFFFFC SWAP1 PUSH1 0x60 DUP3 DUP3 ADD SLT PUSH2 0x2A0C JUMPI PUSH1 0x4 CALLDATALOAD PUSH8 0xFFFFFFFFFFFFFFFF SWAP3 DUP4 DUP3 GT PUSH2 0x2A0C JUMPI PUSH2 0x120 SWAP1 DUP3 DUP5 SUB ADD SLT PUSH2 0x2A0C JUMPI PUSH1 0x4 ADD SWAP3 PUSH1 0x24 CALLDATALOAD DUP4 DUP2 GT PUSH2 0x2A0C JUMPI DUP3 PUSH2 0x2EA4 SWAP2 PUSH1 0x4 ADD PUSH2 0x2E0E JUMP JUMPDEST SWAP4 SWAP1 SWAP4 SWAP3 PUSH1 0x44 CALLDATALOAD SWAP2 DUP3 GT PUSH2 0x2A0C JUMPI PUSH2 0x2B54 SWAP2 PUSH1 0x4 ADD PUSH2 0x2E0E JUMP JUMPDEST PUSH2 0x120 DUP2 ADD SWAP1 DUP2 LT PUSH8 0xFFFFFFFFFFFFFFFF DUP3 GT OR PUSH2 0x2EDB JUMPI PUSH1 0x40 MSTORE JUMP JUMPDEST PUSH32 0x4E487B7100000000000000000000000000000000000000000000000000000000 PUSH1 0x0 MSTORE PUSH1 0x41 PUSH1 0x4 MSTORE PUSH1 0x24 PUSH1 0x0 REVERT JUMPDEST PUSH1 0x40 DUP2 ADD SWAP1 DUP2 LT PUSH8 0xFFFFFFFFFFFFFFFF DUP3 GT OR PUSH2 0x2EDB JUMPI PUSH1 0x40 MSTORE JUMP JUMPDEST PUSH1 0x20 DUP2 ADD SWAP1 DUP2 LT PUSH8 0xFFFFFFFFFFFFFFFF DUP3 GT OR PUSH2 0x2EDB JUMPI PUSH1 0x40 MSTORE JUMP JUMPDEST PUSH1 0x60 DUP2 ADD SWAP1 DUP2 LT PUSH8 0xFFFFFFFFFFFFFFFF DUP3 GT OR PUSH2 0x2EDB JUMPI PUSH1 0x40 MSTORE JUMP JUMPDEST SWAP1 PUSH1 0x1F PUSH32 0xFFFFFFFFFFFFFFFFFFFFFFFFFFFFFFFFFFFFFFFFFFFFFFFFFFFFFFFFFFFFFFE0 SWAP2 ADD AND DUP2 ADD SWAP1 DUP2 LT PUSH8 0xFFFFFFFFFFFFFFFF DUP3 GT OR PUSH2 0x2EDB JUMPI PUSH1 0x40 MSTORE JUMP JUMPDEST PUSH8 0xFFFFFFFFFFFFFFFF DUP2 GT PUSH2 0x2EDB JUMPI PUSH1 0x1F ADD PUSH32 0xFFFFFFFFFFFFFFFFFFFFFFFFFFFFFFFFFFFFFFFFFFFFFFFFFFFFFFFFFFFFFFE0 AND PUSH1 0x20 ADD SWAP1 JUMP JUMPDEST PUSH20 0xFFFFFFFFFFFFFFFFFFFFFFFFFFFFFFFFFFFFFFFF AND DUP1 ISZERO PUSH2 0x3006 JUMPI PUSH1 0x0 MSTORE PUSH1 0x3 PUSH1 0x20 MSTORE PUSH1 0x40 PUSH1 0x0 KECCAK256 SLOAD SWAP1 JUMP JUMPDEST PUSH1 0x84 PUSH1 0x40 MLOAD PUSH32 0x8C379A000000000000000000000000000000000000000000000000000000000 DUP2 MSTORE PUSH1 0x20 PUSH1 0x4 DUP3 ADD MSTORE PUSH1 0x29 PUSH1 0x24 DUP3 ADD MSTORE PUSH32 0x4552433732313A2061646472657373207A65726F206973206E6F742061207661 PUSH1 0x44 DUP3 ADD MSTORE PUSH32 0x6C6964206F776E65720000000000000000000000000000000000000000000000 PUSH1 0x64 DUP3 ADD MSTORE REVERT JUMPDEST ISZERO PUSH2 0x3091 JUMPI JUMP JUMPDEST PUSH1 0x64 PUSH1 0x40 MLOAD PUSH32 0x8C379A000000000000000000000000000000000000000000000000000000000 DUP2 MSTORE PUSH1 0x20 PUSH1 0x4 DUP3 ADD MSTORE PUSH1 0x18 PUSH1 0x24 DUP3 ADD MSTORE PUSH32 0x4552433732313A20696E76616C696420746F6B656E2049440000000000000000 PUSH1 0x44 DUP3 ADD MSTORE REVERT JUMPDEST PUSH1 0x0 MSTORE PUSH1 0x2 PUSH1 0x20 MSTORE PUSH20 0xFFFFFFFFFFFFFFFFFFFFFFFFFFFFFFFFFFFFFFFF PUSH1 0x40 PUSH1 0x0 KECCAK256 SLOAD AND PUSH2 0x2D18 DUP2 ISZERO ISZERO PUSH2 0x308A JUMP JUMPDEST SWAP1 PUSH1 0x1 DUP3 DUP2 SHR SWAP3 AND DUP1 ISZERO PUSH2 0x3167 JUMPI JUMPDEST PUSH1 0x20 DUP4 LT EQ PUSH2 0x3138 JUMPI JUMP JUMPDEST PUSH32 0x4E487B7100000000000000000000000000000000000000000000000000000000 PUSH1 0x0 MSTORE PUSH1 0x22 PUSH1 0x4 MSTORE PUSH1 0x24 PUSH1 0x0 REVERT JUMPDEST SWAP2 PUSH1 0x7F AND SWAP2 PUSH2 0x312D JUMP JUMPDEST SWAP1 PUSH1 0x0 SWAP3 SWAP2 DUP1 SLOAD SWAP2 PUSH2 0x3182 DUP4 PUSH2 0x311E JUMP JUMPDEST SWAP2 DUP3 DUP3 MSTORE PUSH1 0x1 SWAP4 DUP5 DUP2 AND SWAP1 DUP2 PUSH1 0x0 EQ PUSH2 0x31E4 JUMPI POP PUSH1 0x1 EQ PUSH2 0x31A4 JUMPI JUMPDEST POP POP POP POP JUMP JUMPDEST SWAP1 SWAP2 SWAP4 SWAP5 POP PUSH1 0x0 MSTORE PUSH1 0x20 SWAP3 DUP4 PUSH1 0x0 KECCAK256 SWAP3 DUP5 PUSH1 0x0 SWAP5 JUMPDEST DUP4 DUP7 LT PUSH2 0x31D0 JUMPI POP POP POP POP ADD ADD SWAP1 CODESIZE DUP1 DUP1 DUP1 PUSH2 0x319E JUMP JUMPDEST DUP1 SLOAD DUP6 DUP8 ADD DUP4 ADD MSTORE SWAP5 ADD SWAP4 DUP6 SWAP1 DUP3 ADD PUSH2 0x31B9 JUMP JUMPDEST SWAP2 POP POP PUSH1 0x20 SWAP5 SWAP6 POP PUSH32 0xFFFFFFFFFFFFFFFFFFFFFFFFFFFFFFFFFFFFFFFFFFFFFFFFFFFFFFFFFFFFFF00 SWAP2 SWAP4 POP AND DUP4 DUP4 ADD MSTORE ISZERO ISZERO PUSH1 0x5 SHL ADD ADD SWAP1 CODESIZE DUP1 DUP1 DUP1 PUSH2 0x319E JUMP JUMPDEST DUP1 PUSH1 0x0 MSTORE PUSH1 0x2 PUSH1 0x20 MSTORE PUSH20 0xFFFFFFFFFFFFFFFFFFFFFFFFFFFFFFFFFFFFFFFF SWAP1 PUSH2 0x3257 DUP3 PUSH1 0x40 PUSH1 0x0 KECCAK256 SLOAD AND ISZERO ISZERO PUSH2 0x308A JUMP JUMPDEST PUSH1 0x0 MSTORE PUSH1 0x4 PUSH1 0x20 MSTORE PUSH1 0x40 PUSH1 0x0 KECCAK256 SLOAD AND SWAP1 JUMP JUMPDEST ISZERO PUSH2 0x3270 JUMPI JUMP JUMPDEST PUSH1 0x84 PUSH1 0x40 MLOAD PUSH32 0x8C379A000000000000000000000000000000000000000000000000000000000 DUP2 MSTORE PUSH1 0x20 PUSH1 0x4 DUP3 ADD MSTORE PUSH1 0x2D PUSH1 0x24 DUP3 ADD MSTORE PUSH32 0x4552433732313A2063616C6C6572206973206E6F7420746F6B656E206F776E65 PUSH1 0x44 DUP3 ADD MSTORE PUSH32 0x72206F7220617070726F76656400000000000000000000000000000000000000 PUSH1 0x64 DUP3 ADD MSTORE REVERT JUMPDEST ISZERO PUSH2 0x32FB JUMPI JUMP JUMPDEST PUSH1 0x40 MLOAD PUSH32 0x8C379A000000000000000000000000000000000000000000000000000000000 DUP2 MSTORE PUSH1 0x20 PUSH1 0x4 DUP3 ADD MSTORE PUSH1 0x32 PUSH1 0x24 DUP3 ADD MSTORE PUSH32 0x4552433732313A207472616E7366657220746F206E6F6E204552433732315265 PUSH1 0x44 DUP3 ADD MSTORE PUSH32 0x63656976657220696D706C656D656E7465720000000000000000000000000000 PUSH1 0x64 DUP3 ADD MSTORE PUSH1 0x84 SWAP1 REVERT JUMPDEST SWAP1 PUSH20 0xFFFFFFFFFFFFFFFFFFFFFFFFFFFFFFFFFFFFFFFF DUP1 DUP1 PUSH2 0x33A1 DUP5 PUSH2 0x30EF JUMP JUMPDEST AND SWAP4 AND SWAP2 DUP4 DUP4 EQ SWAP4 DUP5 ISZERO PUSH2 0x33D4 JUMPI JUMPDEST POP DUP4 ISZERO PUSH2 0x33BE JUMPI JUMPDEST POP POP POP SWAP1 JUMP JUMPDEST PUSH2 0x33CA SWAP2 SWAP3 SWAP4 POP PUSH2 0x3226 JUMP JUMPDEST AND EQ CODESIZE DUP1 DUP1 PUSH2 0x33B8 JUMP JUMPDEST SWAP1 SWAP4 POP PUSH1 0x0 MSTORE PUSH1 0x5 PUSH1 0x20 MSTORE PUSH1 0x40 PUSH1 0x0 KECCAK256 DUP3 PUSH1 0x0 MSTORE PUSH1 0x20 MSTORE PUSH1 0xFF PUSH1 0x40 PUSH1 0x0 KECCAK256 SLOAD AND SWAP3 CODESIZE PUSH2 0x33B0 JUMP JUMPDEST ISZERO PUSH2 0x3402 JUMPI JUMP JUMPDEST PUSH1 0x84 PUSH1 0x40 MLOAD PUSH32 0x8C379A000000000000000000000000000000000000000000000000000000000 DUP2 MSTORE PUSH1 0x20 PUSH1 0x4 DUP3 ADD MSTORE PUSH1 0x25 PUSH1 0x24 DUP3 ADD MSTORE PUSH32 0x4552433732313A207472616E736665722066726F6D20696E636F727265637420 PUSH1 0x44 DUP3 ADD MSTORE PUSH32 0x6F776E6572000000000000000000000000000000000000000000000000000000 PUSH1 0x64 DUP3 ADD MSTORE REVERT JUMPDEST PUSH2 0x34B7 SWAP2 PUSH2 0x3493 DUP5 PUSH2 0x30EF JUMP JUMPDEST PUSH20 0xFFFFFFFFFFFFFFFFFFFFFFFFFFFFFFFFFFFFFFFF SWAP4 DUP5 DUP5 AND SWAP4 SWAP2 DUP6 AND DUP5 EQ PUSH2 0x33FB JUMP JUMPDEST DUP4 DUP3 AND SWAP4 DUP5 ISZERO PUSH2 0x3793 JUMPI DUP4 ISZERO SWAP2 DUP3 DUP1 ISZERO PUSH2 0x378B JUMPI JUMPDEST ISZERO PUSH2 0x3707 JUMPI DUP5 SWAP3 ISZERO PUSH2 0x3617 JUMPI POP SWAP1 POP PUSH1 0x8 SLOAD SWAP1 DUP6 PUSH1 0x0 MSTORE PUSH1 0x9 PUSH1 0x20 MSTORE DUP2 PUSH1 0x40 PUSH1 0x0 KECCAK256 SSTORE PUSH9 0x10000000000000000 DUP3 LT ISZERO PUSH2 0x2EDB JUMPI PUSH2 0x3535 SWAP3 DUP7 PUSH2 0x3519 PUSH2 0x16E3 DUP6 PUSH1 0x1 DUP10 SWAP8 ADD PUSH1 0x8 SSTORE PUSH2 0x3AE4 JUMP JUMPDEST SWAP1 SSTORE JUMPDEST DUP3 DUP7 SUB PUSH2 0x35E4 JUMPI JUMPDEST POP PUSH2 0x352E DUP7 PUSH2 0x30EF JUMP JUMPDEST AND EQ PUSH2 0x33FB JUMP JUMPDEST PUSH32 0xDDF252AD1BE2C89B69C2B068FC378DAA952BA7F163C4A11628F55A4DF523B3EF PUSH1 0x0 DUP5 DUP2 MSTORE PUSH1 0x4 PUSH1 0x20 MSTORE PUSH1 0x40 DUP2 KECCAK256 PUSH32 0xFFFFFFFFFFFFFFFFFFFFFFFF0000000000000000000000000000000000000000 SWAP1 DUP2 DUP2 SLOAD AND SWAP1 SSTORE DUP4 DUP3 MSTORE PUSH1 0x3 PUSH1 0x20 MSTORE PUSH1 0x40 DUP3 KECCAK256 PUSH32 0xFFFFFFFFFFFFFFFFFFFFFFFFFFFFFFFFFFFFFFFFFFFFFFFFFFFFFFFFFFFFFFFF DUP2 SLOAD ADD SWAP1 SSTORE DUP5 DUP3 MSTORE PUSH1 0x40 DUP3 KECCAK256 PUSH1 0x1 DUP2 SLOAD ADD SWAP1 SSTORE DUP6 DUP3 MSTORE PUSH1 0x2 PUSH1 0x20 MSTORE DUP5 PUSH1 0x40 DUP4 KECCAK256 SWAP2 DUP3 SLOAD AND OR SWAP1 SSTORE DUP1 LOG4 JUMP JUMPDEST PUSH2 0x35ED SWAP1 PUSH2 0x2FD9 JUMP JUMPDEST PUSH1 0x40 PUSH1 0x0 DUP8 DUP2 MSTORE PUSH1 0x6 PUSH1 0x20 MSTORE DUP2 DUP2 KECCAK256 DUP4 DUP3 MSTORE PUSH1 0x20 MSTORE DUP9 DUP3 DUP3 KECCAK256 SSTORE DUP9 DUP2 MSTORE PUSH1 0x7 PUSH1 0x20 MSTORE KECCAK256 SSTORE CODESIZE PUSH2 0x3524 JUMP JUMPDEST DUP6 DUP4 SUB PUSH2 0x3629 JUMPI JUMPDEST POP PUSH2 0x3535 SWAP3 PUSH2 0x351C JUMP JUMPDEST PUSH2 0x3634 SWAP2 SWAP3 POP PUSH2 0x2FD9 JUMP JUMPDEST SWAP1 PUSH32 0xFFFFFFFFFFFFFFFFFFFFFFFFFFFFFFFFFFFFFFFFFFFFFFFFFFFFFFFFFFFFFFFF DUP3 ADD SWAP2 DUP3 GT PUSH2 0x36D8 JUMPI PUSH2 0x3535 SWAP3 DUP5 SWAP3 PUSH1 0x0 SWAP1 DUP9 DUP3 MSTORE PUSH1 0x20 SWAP1 PUSH1 0x7 DUP3 MSTORE PUSH1 0x40 SWAP2 DUP3 DUP5 KECCAK256 SLOAD DUP3 DUP2 SUB PUSH2 0x36A1 JUMPI JUMPDEST POP DUP11 DUP5 MSTORE DUP4 DUP4 DUP2 KECCAK256 SSTORE DUP7 DUP5 MSTORE PUSH1 0x6 DUP2 MSTORE DUP3 DUP5 KECCAK256 SWAP2 DUP5 MSTORE MSTORE DUP2 KECCAK256 SSTORE SWAP3 PUSH2 0x361F JUMP JUMPDEST DUP8 DUP6 MSTORE PUSH1 0x6 DUP3 MSTORE DUP4 DUP6 KECCAK256 DUP4 DUP7 MSTORE DUP3 MSTORE DUP4 DUP6 KECCAK256 SLOAD DUP9 DUP7 MSTORE PUSH1 0x6 DUP4 MSTORE DUP5 DUP7 KECCAK256 DUP3 DUP8 MSTORE DUP4 MSTORE DUP1 DUP6 DUP8 KECCAK256 SSTORE DUP6 MSTORE PUSH1 0x7 DUP3 MSTORE DUP4 DUP6 KECCAK256 SSTORE CODESIZE PUSH2 0x3681 JUMP JUMPDEST PUSH32 0x4E487B7100000000000000000000000000000000000000000000000000000000 PUSH1 0x0 MSTORE PUSH1 0x11 PUSH1 0x4 MSTORE PUSH1 0x24 PUSH1 0x0 REVERT JUMPDEST PUSH1 0x84 PUSH1 0x40 MLOAD PUSH32 0x8C379A000000000000000000000000000000000000000000000000000000000 DUP2 MSTORE PUSH1 0x20 PUSH1 0x4 DUP3 ADD MSTORE PUSH1 0x26 PUSH1 0x24 DUP3 ADD MSTORE PUSH32 0x746F6B656E732063616E6E6F74206265207472616E736665726564206F6E2074 PUSH1 0x44 DUP3 ADD MSTORE PUSH32 0x6573746E65740000000000000000000000000000000000000000000000000000 PUSH1 0x64 DUP3 ADD MSTORE REVERT JUMPDEST POP PUSH1 0x0 PUSH2 0x34CC JUMP JUMPDEST PUSH1 0x84 PUSH1 0x40 MLOAD PUSH32 0x8C379A000000000000000000000000000000000000000000000000000000000 DUP2 MSTORE PUSH1 0x20 PUSH1 0x4 DUP3 ADD MSTORE PUSH1 0x24 DUP1 DUP3 ADD MSTORE PUSH32 0x4552433732313A207472616E7366657220746F20746865207A65726F20616464 PUSH1 0x44 DUP3 ADD MSTORE PUSH32 0x7265737300000000000000000000000000000000000000000000000000000000 PUSH1 0x64 DUP3 ADD MSTORE REVERT JUMPDEST SWAP1 SWAP2 PUSH1 0x0 SWAP2 DUP1 EXTCODESIZE ISZERO PUSH2 0x39E9 JUMPI PUSH2 0x3891 SWAP4 PUSH1 0x40 MLOAD SWAP1 DUP2 PUSH32 0x150B7A0200000000000000000000000000000000000000000000000000000000 SWAP4 DUP5 DUP3 MSTORE CALLER PUSH1 0x4 DUP4 ADD MSTORE DUP7 PUSH1 0x24 DUP4 ADD MSTORE PUSH1 0xA PUSH1 0x44 DUP4 ADD MSTORE PUSH1 0x80 PUSH1 0x64 DUP4 ADD MSTORE DUP2 DUP8 PUSH20 0xFFFFFFFFFFFFFFFFFFFFFFFFFFFFFFFFFFFFFFFF DUP3 PUSH1 0x20 SWAP12 DUP13 SWAP8 PUSH1 0x84 DUP4 ADD SWAP1 PUSH2 0x2A45 JUMP JUMPDEST SUB SWAP4 AND GAS CALL DUP5 SWAP2 DUP2 PUSH2 0x3991 JUMPI JUMPDEST POP PUSH2 0x3968 JUMPI POP POP POP RETURNDATASIZE PUSH1 0x0 EQ PUSH2 0x3960 JUMPI RETURNDATASIZE PUSH2 0x38B8 DUP2 PUSH2 0x2F9F JUMP JUMPDEST SWAP1 PUSH2 0x38C6 PUSH1 0x40 MLOAD SWAP3 DUP4 PUSH2 0x2F5E JUMP JUMPDEST DUP2 MSTORE DUP1 SWAP2 DUP4 RETURNDATASIZE SWAP3 ADD RETURNDATACOPY JUMPDEST DUP1 MLOAD SWAP2 DUP3 PUSH2 0x395D JUMPI PUSH1 0x40 MLOAD PUSH32 0x8C379A000000000000000000000000000000000000000000000000000000000 DUP2 MSTORE PUSH1 0x20 PUSH1 0x4 DUP3 ADD MSTORE PUSH1 0x32 PUSH1 0x24 DUP3 ADD MSTORE PUSH32 0x4552433732313A207472616E7366657220746F206E6F6E204552433732315265 PUSH1 0x44 DUP3 ADD MSTORE PUSH32 0x63656976657220696D706C656D656E7465720000000000000000000000000000 PUSH1 0x64 DUP3 ADD MSTORE PUSH1 0x84 SWAP1 REVERT JUMPDEST ADD REVERT JUMPDEST POP PUSH1 0x60 PUSH2 0x38D0 JUMP JUMPDEST PUSH32 0xFFFFFFFF00000000000000000000000000000000000000000000000000000000 AND EQ SWAP3 POP SWAP1 POP JUMP JUMPDEST SWAP1 SWAP2 POP DUP6 DUP2 DUP2 RETURNDATASIZE DUP4 GT PUSH2 0x39E2 JUMPI JUMPDEST PUSH2 0x39A9 DUP2 DUP4 PUSH2 0x2F5E JUMP JUMPDEST DUP2 ADD SUB SLT PUSH2 0x64E JUMPI MLOAD PUSH32 0xFFFFFFFF00000000000000000000000000000000000000000000000000000000 DUP2 AND DUP2 SUB PUSH2 0x64E JUMPI SWAP1 CODESIZE PUSH2 0x389E JUMP JUMPDEST POP RETURNDATASIZE PUSH2 0x399F JUMP JUMPDEST POP SWAP2 POP POP PUSH1 0x1 SWAP1 JUMP JUMPDEST SWAP3 SWAP4 PUSH1 0x0 SWAP4 SWAP1 SWAP3 SWAP2 DUP1 EXTCODESIZE ISZERO PUSH2 0x3A73 JUMPI SWAP5 DUP5 SWAP2 PUSH2 0x3891 SWAP7 PUSH1 0x40 MLOAD DUP1 SWAP5 DUP2 SWAP4 PUSH32 0x150B7A0200000000000000000000000000000000000000000000000000000000 SWAP8 DUP9 DUP5 MSTORE CALLER PUSH1 0x4 DUP6 ADD MSTORE PUSH20 0xFFFFFFFFFFFFFFFFFFFFFFFFFFFFFFFFFFFFFFFF DUP1 SWAP3 AND PUSH1 0x24 DUP6 ADD MSTORE PUSH1 0x44 DUP5 ADD MSTORE PUSH1 0x80 PUSH1 0x64 DUP5 ADD MSTORE DUP3 PUSH1 0x20 SWAP12 DUP13 SWAP8 PUSH1 0x84 DUP4 ADD SWAP1 PUSH2 0x2A45 JUMP JUMPDEST POP POP POP SWAP2 POP POP PUSH1 0x1 SWAP1 JUMP JUMPDEST PUSH1 0xF SLOAD DUP2 LT ISZERO PUSH2 0x3AB5 JUMPI PUSH1 0xF PUSH1 0x0 MSTORE PUSH32 0x8D1108E10BCB7C27DDDFC02ED9D693A074039D026CF4EA4240B40F7D581AC802 ADD SWAP1 PUSH1 0x0 SWAP1 JUMP JUMPDEST PUSH32 0x4E487B7100000000000000000000000000000000000000000000000000000000 PUSH1 0x0 MSTORE PUSH1 0x32 PUSH1 0x4 MSTORE PUSH1 0x24 PUSH1 0x0 REVERT JUMPDEST PUSH1 0x8 SLOAD DUP2 LT ISZERO PUSH2 0x3AB5 JUMPI PUSH1 0x8 PUSH1 0x0 MSTORE PUSH32 0xF3F7A9FE364FAAB93B216DA50A3214154F22A0A2B415B23A84C8169E8B636EE3 ADD SWAP1 PUSH1 0x0 SWAP1 JUMP JUMPDEST DUP1 SLOAD DUP3 LT ISZERO PUSH2 0x3AB5 JUMPI PUSH1 0x0 MSTORE PUSH1 0x20 PUSH1 0x0 KECCAK256 ADD SWAP1 PUSH1 0x0 SWAP1 JUMP JUMPDEST CALLDATALOAD PUSH20 0xFFFFFFFFFFFFFFFFFFFFFFFFFFFFFFFFFFFFFFFF DUP2 AND DUP2 SUB PUSH2 0x2A0C JUMPI SWAP1 JUMP JUMPDEST SWAP1 CALLDATALOAD SWAP1 PUSH32 0xFFFFFFFFFFFFFFFFFFFFFFFFFFFFFFFFFFFFFFFFFFFFFFFFFFFFFFFFFFFFFFE1 DUP2 CALLDATASIZE SUB ADD DUP3 SLT ISZERO PUSH2 0x2A0C JUMPI ADD DUP1 CALLDATALOAD SWAP1 PUSH8 0xFFFFFFFFFFFFFFFF DUP3 GT PUSH2 0x2A0C JUMPI PUSH1 0x20 ADD SWAP2 DUP2 CALLDATASIZE SUB DUP4 SGT PUSH2 0x2A0C JUMPI JUMP JUMPDEST SWAP1 CALLDATALOAD SWAP1 PUSH32 0xFFFFFFFFFFFFFFFFFFFFFFFFFFFFFFFFFFFFFFFFFFFFFFFFFFFFFFFFFFFFFFE1 DUP2 CALLDATASIZE SUB ADD DUP3 SLT ISZERO PUSH2 0x2A0C JUMPI ADD DUP1 CALLDATALOAD SWAP1 PUSH8 0xFFFFFFFFFFFFFFFF DUP3 GT PUSH2 0x2A0C JUMPI PUSH1 0x20 ADD SWAP2 DUP2 PUSH1 0x5 SHL CALLDATASIZE SUB DUP4 SGT PUSH2 0x2A0C JUMPI JUMP JUMPDEST SWAP4 SWAP5 SWAP3 SWAP1 SWAP5 PUSH1 0xA SWAP5 DUP6 PUSH1 0x0 MSTORE PUSH1 0xE PUSH1 0x20 MSTORE TIMESTAMP PUSH1 0x40 PUSH1 0x0 KECCAK256 SSTORE PUSH2 0x3C1A DUP2 PUSH2 0x3B33 JUMP JUMPDEST PUSH1 0x40 MLOAD PUSH2 0x3C26 DUP2 PUSH2 0x2F26 JUMP JUMPDEST PUSH1 0x0 DUP2 MSTORE PUSH20 0xFFFFFFFFFFFFFFFFFFFFFFFFFFFFFFFFFFFFFFFF DUP3 AND ISZERO PUSH2 0x4942 JUMPI PUSH1 0xA PUSH1 0x0 MSTORE PUSH1 0x2 PUSH1 0x20 MSTORE PUSH32 0xD3604DB978F6137B0D18816B77B2CE810487A3AF08A922E0B184963BE5F3ADFC SLOAD PUSH2 0x3C95 SWAP1 PUSH20 0xFFFFFFFFFFFFFFFFFFFFFFFFFFFFFFFFFFFFFFFF AND ISZERO ISZERO JUMPDEST ISZERO PUSH2 0x49A0 JUMP JUMPDEST PUSH1 0x8 SLOAD SWAP1 DUP9 PUSH1 0x0 MSTORE PUSH1 0x9 PUSH1 0x20 MSTORE DUP2 PUSH1 0x40 PUSH1 0x0 KECCAK256 SSTORE PUSH9 0x10000000000000000 DUP3 LT ISZERO PUSH2 0x2EDB JUMPI PUSH2 0x3E39 SWAP3 PUSH2 0x3CD1 DUP4 PUSH1 0x1 PUSH2 0xB01 SWAP6 ADD PUSH1 0x8 SSTORE PUSH2 0x3AE4 JUMP JUMPDEST DUP2 SLOAD PUSH32 0xFFFFFFFFFFFFFFFFFFFFFFFFFFFFFFFFFFFFFFFFFFFFFFFFFFFFFFFFFFFFFFFF DUP14 DUP4 PUSH1 0x3 SHL SHL SWAP3 PUSH1 0x3 SHL SHL NOT AND OR SWAP1 SSTORE PUSH2 0x3D0D DUP2 PUSH2 0x2FD9 JUMP JUMPDEST PUSH20 0xFFFFFFFFFFFFFFFFFFFFFFFFFFFFFFFFFFFFFFFF DUP3 AND PUSH1 0x0 MSTORE PUSH1 0x6 PUSH1 0x20 MSTORE PUSH1 0x40 PUSH1 0x0 KECCAK256 DUP2 PUSH1 0x0 MSTORE PUSH1 0x20 MSTORE DUP11 PUSH1 0x40 PUSH1 0x0 KECCAK256 SSTORE DUP11 PUSH1 0x0 MSTORE PUSH1 0x7 PUSH1 0x20 MSTORE PUSH1 0x40 PUSH1 0x0 KECCAK256 SSTORE PUSH2 0x3D7F PUSH2 0x3C8F PUSH1 0xA PUSH1 0x0 MSTORE PUSH1 0x2 PUSH1 0x20 MSTORE PUSH20 0xFFFFFFFFFFFFFFFFFFFFFFFFFFFFFFFFFFFFFFFF PUSH1 0x40 PUSH1 0x0 KECCAK256 SLOAD AND ISZERO ISZERO SWAP1 JUMP JUMPDEST PUSH20 0xFFFFFFFFFFFFFFFFFFFFFFFFFFFFFFFFFFFFFFFF DUP2 AND PUSH1 0x0 MSTORE PUSH1 0x3 PUSH1 0x20 MSTORE PUSH1 0x40 PUSH1 0x0 KECCAK256 PUSH1 0x1 DUP2 SLOAD ADD SWAP1 SSTORE DUP10 PUSH1 0x0 MSTORE PUSH1 0x2 PUSH1 0x20 MSTORE PUSH1 0x40 PUSH1 0x0 KECCAK256 PUSH20 0xFFFFFFFFFFFFFFFFFFFFFFFFFFFFFFFFFFFFFFFF DUP3 AND PUSH32 0xFFFFFFFFFFFFFFFFFFFFFFFF0000000000000000000000000000000000000000 DUP3 SLOAD AND OR SWAP1 SSTORE DUP10 PUSH20 0xFFFFFFFFFFFFFFFFFFFFFFFFFFFFFFFFFFFFFFFF DUP3 AND PUSH1 0x0 PUSH32 0xDDF252AD1BE2C89B69C2B068FC378DAA952BA7F163C4A11628F55A4DF523B3EF DUP2 DUP1 LOG4 PUSH2 0x3816 JUMP JUMPDEST PUSH2 0x3E46 PUSH1 0x80 DUP3 ADD DUP3 PUSH2 0x3B54 JUMP JUMPDEST PUSH2 0x3E6A PUSH1 0x20 PUSH1 0x40 MLOAD DUP4 DUP2 SWAP5 DUP4 DUP4 ADD SWAP7 DUP8 CALLDATACOPY DUP2 ADD PUSH1 0x0 DUP4 DUP3 ADD MSTORE SUB DUP1 DUP5 MSTORE ADD DUP3 PUSH2 0x2F5E JUMP JUMPDEST MLOAD SWAP1 KECCAK256 DUP1 PUSH1 0x0 MSTORE PUSH1 0xB PUSH1 0x20 MSTORE PUSH1 0x40 PUSH1 0x0 KECCAK256 SLOAD PUSH2 0x48BE JUMPI PUSH1 0x0 MSTORE PUSH1 0xB PUSH1 0x20 MSTORE DUP6 PUSH1 0x40 PUSH1 0x0 KECCAK256 SSTORE DUP6 PUSH1 0x0 MSTORE DUP6 PUSH1 0x20 MSTORE PUSH1 0x40 PUSH1 0x0 KECCAK256 PUSH20 0xFFFFFFFFFFFFFFFFFFFFFFFFFFFFFFFFFFFFFFFF PUSH2 0x3EBA DUP4 PUSH2 0x3B33 JUMP JUMPDEST AND PUSH32 0xFFFFFFFFFFFFFFFFFFFFFFFF0000000000000000000000000000000000000000 DUP3 SLOAD AND OR DUP2 SSTORE PUSH1 0x20 DUP3 ADD CALLDATALOAD PUSH1 0x1 DUP3 ADD SSTORE PUSH1 0x40 DUP3 ADD CALLDATALOAD PUSH1 0x2 DUP3 ADD SSTORE PUSH1 0x60 DUP3 ADD CALLDATALOAD PUSH1 0x3 DUP3 ADD SSTORE PUSH2 0x3F0D PUSH1 0x80 DUP4 ADD DUP4 PUSH2 0x3B54 JUMP JUMPDEST SWAP1 PUSH8 0xFFFFFFFFFFFFFFFF DUP3 GT PUSH2 0x2EDB JUMPI DUP2 SWAP1 PUSH2 0x3F39 DUP3 PUSH2 0x3F30 PUSH1 0x4 DUP8 ADD SLOAD PUSH2 0x311E JUMP JUMPDEST PUSH1 0x4 DUP8 ADD PUSH2 0x4A66 JUMP JUMPDEST PUSH1 0x0 SWAP1 PUSH1 0x1F DUP4 GT PUSH1 0x1 EQ PUSH2 0x47F3 JUMPI PUSH1 0x0 SWAP3 PUSH2 0x47E8 JUMPI JUMPDEST POP POP PUSH32 0xFFFFFFFFFFFFFFFFFFFFFFFFFFFFFFFFFFFFFFFFFFFFFFFFFFFFFFFFFFFFFFFF DUP3 PUSH1 0x1 SHL SWAP3 PUSH1 0x3 SHL SHR NOT AND OR PUSH1 0x4 DUP3 ADD SSTORE JUMPDEST PUSH2 0x3F91 PUSH1 0xA0 DUP4 ADD DUP4 PUSH2 0x3B54 JUMP JUMPDEST SWAP1 PUSH8 0xFFFFFFFFFFFFFFFF DUP3 GT PUSH2 0x2EDB JUMPI DUP2 SWAP1 PUSH2 0x3FBD DUP3 PUSH2 0x3FB4 PUSH1 0x5 DUP8 ADD SLOAD PUSH2 0x311E JUMP JUMPDEST PUSH1 0x5 DUP8 ADD PUSH2 0x4A66 JUMP JUMPDEST PUSH1 0x0 SWAP1 PUSH1 0x1F DUP4 GT PUSH1 0x1 EQ PUSH2 0x471D JUMPI PUSH1 0x0 SWAP3 PUSH2 0x4712 JUMPI JUMPDEST POP POP PUSH32 0xFFFFFFFFFFFFFFFFFFFFFFFFFFFFFFFFFFFFFFFFFFFFFFFFFFFFFFFFFFFFFFFF DUP3 PUSH1 0x1 SHL SWAP3 PUSH1 0x3 SHL SHR NOT AND OR PUSH1 0x5 DUP3 ADD SSTORE JUMPDEST PUSH2 0x4015 PUSH1 0xC0 DUP4 ADD DUP4 PUSH2 0x3BA5 JUMP JUMPDEST SWAP1 PUSH8 0xFFFFFFFFFFFFFFFF DUP3 GT PUSH2 0x2EDB JUMPI PUSH9 0x10000000000000000 DUP3 GT PUSH2 0x2EDB JUMPI PUSH1 0x6 DUP4 ADD SLOAD DUP3 PUSH1 0x6 DUP6 ADD SSTORE DUP1 DUP4 LT PUSH2 0x46F1 JUMPI JUMPDEST POP PUSH1 0x6 DUP4 ADD PUSH1 0x0 MSTORE PUSH1 0x20 PUSH1 0x0 KECCAK256 PUSH1 0x0 JUMPDEST DUP4 DUP2 LT PUSH2 0x46DD JUMPI POP POP POP POP PUSH2 0x4070 PUSH1 0xE0 DUP4 ADD DUP4 PUSH2 0x3BA5 JUMP JUMPDEST SWAP1 PUSH8 0xFFFFFFFFFFFFFFFF DUP3 GT PUSH2 0x2EDB JUMPI PUSH9 0x10000000000000000 DUP3 GT PUSH2 0x2EDB JUMPI PUSH1 0x7 DUP4 ADD SLOAD DUP3 PUSH1 0x7 DUP6 ADD SSTORE DUP1 DUP4 LT PUSH2 0x46B0 JUMPI JUMPDEST POP PUSH1 0x7 DUP4 ADD PUSH1 0x0 MSTORE PUSH1 0x20 PUSH1 0x0 KECCAK256 PUSH1 0x0 JUMPDEST DUP4 DUP2 LT PUSH2 0x469C JUMPI POP POP POP POP PUSH32 0xFFFFFFFFFFFFFFFFFFFFFFFFFFFFFFFFFFFFFFFFFFFFFFFFFFFFFFFFFFFFFFE1 DUP3 CALLDATASIZE SUB ADD PUSH2 0x100 DUP4 ADD CALLDATALOAD SLT ISZERO PUSH2 0x2A0C JUMPI PUSH8 0xFFFFFFFFFFFFFFFF PUSH2 0x100 DUP4 ADD CALLDATALOAD DUP4 ADD CALLDATALOAD GT PUSH2 0x2A0C JUMPI PUSH2 0x100 DUP3 ADD CALLDATALOAD DUP3 ADD DUP1 CALLDATALOAD PUSH1 0x6 SHL CALLDATASIZE SUB PUSH1 0x20 SWAP1 SWAP2 ADD SGT PUSH2 0x2A0C JUMPI PUSH9 0x10000000000000000 PUSH2 0x100 DUP4 ADD CALLDATALOAD DUP4 ADD CALLDATALOAD GT PUSH2 0x2EDB JUMPI PUSH1 0x8 DUP2 ADD DUP1 SLOAD PUSH2 0x100 DUP5 ADD CALLDATALOAD DUP5 ADD CALLDATALOAD SWAP2 DUP3 SWAP1 SSTORE SWAP1 DUP2 GT PUSH2 0x4667 JUMPI JUMPDEST POP PUSH1 0x8 PUSH1 0x20 PUSH2 0x100 DUP5 ADD CALLDATALOAD DUP5 ADD ADD SWAP2 ADD PUSH1 0x0 MSTORE PUSH1 0x20 PUSH1 0x0 KECCAK256 SWAP1 PUSH1 0x0 SWAP1 JUMPDEST PUSH2 0x100 DUP5 ADD CALLDATALOAD DUP5 ADD CALLDATALOAD DUP3 LT PUSH2 0x45DA JUMPI POP POP POP PUSH2 0x418A DUP2 PUSH2 0x3B33 JUMP JUMPDEST PUSH2 0x4197 PUSH1 0xA0 DUP4 ADD DUP4 PUSH2 0x3B54 JUMP JUMPDEST SWAP1 DUP2 PUSH1 0x40 MLOAD SWAP3 DUP4 SWAP3 DUP4 CALLDATACOPY DUP2 ADD PUSH1 0x0 DUP2 MSTORE SUB SWAP1 KECCAK256 SWAP1 DUP8 PUSH32 0xB85051017293732C5B533B177EFC66475411A9FDD5FBC8ECB619906658413D6 PUSH1 0x60 PUSH20 0xFFFFFFFFFFFFFFFFFFFFFFFFFFFFFFFFFFFFFFFF PUSH1 0x40 MLOAD SWAP5 PUSH1 0x20 DUP9 ADD CALLDATALOAD DUP7 MSTORE PUSH1 0x40 DUP9 ADD CALLDATALOAD PUSH1 0x20 DUP8 ADD MSTORE DUP3 DUP9 ADD CALLDATALOAD PUSH1 0x40 DUP8 ADD MSTORE AND SWAP4 LOG4 PUSH2 0x4212 PUSH1 0xC0 DUP3 ADD DUP3 PUSH2 0x3BA5 JUMP JUMPDEST SWAP1 POP PUSH1 0x0 JUMPDEST DUP2 DUP2 LT PUSH2 0x4594 JUMPI POP POP DUP1 PUSH1 0xE0 PUSH2 0x422E SWAP3 ADD SWAP1 PUSH2 0x3BA5 JUMP JUMPDEST PUSH1 0x3 DUP2 GT PUSH2 0x4510 JUMPI DUP1 ISZERO DUP1 PUSH2 0x4507 JUMPI PUSH2 0x3AB5 JUMPI DUP2 CALLDATALOAD SWAP2 JUMPDEST PUSH1 0x1 DUP3 GT ISZERO PUSH2 0x44FF JUMPI DUP2 PUSH1 0x1 LT ISZERO PUSH2 0x3AB5 JUMPI PUSH1 0x20 DUP2 ADD CALLDATALOAD SWAP2 JUMPDEST PUSH1 0x2 DUP2 GT ISZERO PUSH2 0x44F5 JUMPI PUSH1 0x2 LT ISZERO PUSH2 0x3AB5 JUMPI PUSH1 0x40 ADD CALLDATALOAD SWAP2 JUMPDEST PUSH32 0xB237134D29775150B1EDF87AF1DC343262244AF7CBB474CFC64CB6E8824AF663 PUSH1 0x20 PUSH1 0x40 MLOAD DUP11 DUP2 MSTORE LOG4 DUP5 PUSH1 0x0 MSTORE PUSH1 0xC PUSH1 0x20 MSTORE PUSH1 0x40 PUSH1 0x0 KECCAK256 SWAP2 PUSH8 0xFFFFFFFFFFFFFFFF DUP3 GT PUSH2 0x2EDB JUMPI DUP2 SWAP1 PUSH2 0x42D3 DUP3 PUSH2 0x42CD DUP7 SLOAD PUSH2 0x311E JUMP JUMPDEST DUP7 PUSH2 0x4A66 JUMP JUMPDEST PUSH1 0x0 SWAP1 PUSH1 0x1F DUP4 GT PUSH1 0x1 EQ PUSH2 0x4450 JUMPI PUSH1 0x0 SWAP3 PUSH2 0x4445 JUMPI JUMPDEST POP POP PUSH32 0xFFFFFFFFFFFFFFFFFFFFFFFFFFFFFFFFFFFFFFFFFFFFFFFFFFFFFFFFFFFFFFFF DUP3 PUSH1 0x1 SHL SWAP3 PUSH1 0x3 SHL SHR NOT AND OR SWAP1 SSTORE JUMPDEST DUP3 PUSH1 0x0 MSTORE PUSH1 0xD PUSH1 0x20 MSTORE PUSH1 0x40 PUSH1 0x0 KECCAK256 SWAP1 PUSH8 0xFFFFFFFFFFFFFFFF DUP2 GT PUSH2 0x2EDB JUMPI PUSH2 0x434D DUP2 PUSH2 0x4347 DUP5 SLOAD PUSH2 0x311E JUMP JUMPDEST DUP5 PUSH2 0x4A66 JUMP JUMPDEST PUSH1 0x0 PUSH1 0x1F DUP3 GT PUSH1 0x1 EQ PUSH2 0x43A5 JUMPI DUP2 SWAP3 SWAP4 SWAP5 SWAP6 PUSH1 0x0 SWAP3 PUSH2 0x439A JUMPI JUMPDEST POP POP PUSH32 0xFFFFFFFFFFFFFFFFFFFFFFFFFFFFFFFFFFFFFFFFFFFFFFFFFFFFFFFFFFFFFFFF DUP3 PUSH1 0x1 SHL SWAP3 PUSH1 0x3 SHL SHR NOT AND OR SWAP1 SSTORE JUMP JUMPDEST ADD CALLDATALOAD SWAP1 POP CODESIZE DUP1 PUSH2 0x4367 JUMP JUMPDEST PUSH32 0xFFFFFFFFFFFFFFFFFFFFFFFFFFFFFFFFFFFFFFFFFFFFFFFFFFFFFFFFFFFFFFE0 DUP3 AND SWAP6 DUP4 PUSH1 0x0 MSTORE PUSH1 0x20 PUSH1 0x0 KECCAK256 SWAP2 PUSH1 0x0 JUMPDEST DUP9 DUP2 LT PUSH2 0x442D JUMPI POP DUP4 PUSH1 0x1 SWAP6 SWAP7 SWAP8 SWAP9 LT PUSH2 0x43F5 JUMPI JUMPDEST POP POP POP DUP2 SHL ADD SWAP1 SSTORE JUMP JUMPDEST PUSH32 0xFFFFFFFFFFFFFFFFFFFFFFFFFFFFFFFFFFFFFFFFFFFFFFFFFFFFFFFFFFFFFFFF PUSH1 0xF8 DUP6 PUSH1 0x3 SHL AND SHR NOT SWAP2 ADD CALLDATALOAD AND SWAP1 SSTORE CODESIZE DUP1 DUP1 PUSH2 0x43EB JUMP JUMPDEST SWAP1 SWAP3 PUSH1 0x20 PUSH1 0x1 DUP2 SWAP3 DUP7 DUP7 ADD CALLDATALOAD DUP2 SSTORE ADD SWAP5 ADD SWAP2 ADD PUSH2 0x43D6 JUMP JUMPDEST ADD CALLDATALOAD SWAP1 POP CODESIZE DUP1 PUSH2 0x42E9 JUMP JUMPDEST SWAP1 SWAP2 PUSH32 0xFFFFFFFFFFFFFFFFFFFFFFFFFFFFFFFFFFFFFFFFFFFFFFFFFFFFFFFFFFFFFFE0 AND SWAP2 DUP5 PUSH1 0x0 MSTORE PUSH1 0x20 PUSH1 0x0 KECCAK256 SWAP3 PUSH1 0x0 JUMPDEST DUP2 DUP2 LT PUSH2 0x44DD JUMPI POP SWAP1 DUP5 PUSH1 0x1 SWAP6 SWAP5 SWAP4 SWAP3 LT PUSH2 0x44A5 JUMPI JUMPDEST POP POP POP DUP2 SHL ADD SWAP1 SSTORE PUSH2 0x431B JUMP JUMPDEST PUSH32 0xFFFFFFFFFFFFFFFFFFFFFFFFFFFFFFFFFFFFFFFFFFFFFFFFFFFFFFFFFFFFFFFF PUSH1 0xF8 DUP6 PUSH1 0x3 SHL AND SHR NOT SWAP2 ADD CALLDATALOAD AND SWAP1 SSTORE CODESIZE DUP1 DUP1 PUSH2 0x4498 JUMP JUMPDEST SWAP2 SWAP4 PUSH1 0x20 PUSH1 0x1 DUP2 SWAP3 DUP8 DUP8 ADD CALLDATALOAD DUP2 SSTORE ADD SWAP6 ADD SWAP3 ADD PUSH2 0x4482 JUMP JUMPDEST POP POP PUSH1 0x0 SWAP2 PUSH2 0x4275 JUMP JUMPDEST PUSH1 0x0 SWAP2 PUSH2 0x425E JUMP JUMPDEST POP PUSH1 0x0 SWAP2 PUSH2 0x4245 JUMP JUMPDEST PUSH1 0x84 PUSH1 0x40 MLOAD PUSH32 0x8C379A000000000000000000000000000000000000000000000000000000000 DUP2 MSTORE PUSH1 0x20 PUSH1 0x4 DUP3 ADD MSTORE PUSH1 0x38 PUSH1 0x24 DUP3 ADD MSTORE PUSH32 0x4461746153746F726167653A2074616773206C656E677468206D757374206265 PUSH1 0x44 DUP3 ADD MSTORE PUSH32 0x206C657373207468616E206F7220657175616C20746F20330000000000000000 PUSH1 0x64 DUP3 ADD MSTORE REVERT JUMPDEST DUP1 PUSH2 0x45A9 PUSH2 0x45D5 SWAP3 PUSH2 0x1599 PUSH1 0xC0 DUP8 ADD DUP8 PUSH2 0x3BA5 JUMP JUMPDEST CALLDATALOAD DUP10 PUSH32 0x65327253F8D67C2E23CB4DFAB28CA7437B04E9098CF4E985073D76DF25209AD4 PUSH1 0x0 DUP1 LOG3 PUSH2 0x4A05 JUMP JUMPDEST PUSH2 0x4217 JUMP JUMPDEST PUSH20 0xFFFFFFFFFFFFFFFFFFFFFFFFFFFFFFFFFFFFFFFF PUSH2 0x45F8 DUP3 PUSH2 0x3B33 JUMP JUMPDEST DUP5 SLOAD SWAP2 AND PUSH1 0x20 DUP4 ADD CALLDATALOAD PUSH2 0xFFFF DUP2 AND SWAP1 SUB PUSH2 0x2A0C JUMPI PUSH32 0xFFFFFFFFFFFFFFFFFFFF00000000000000000000000000000000000000000000 SWAP1 SWAP2 AND OR PUSH1 0x20 DUP3 ADD CALLDATALOAD PUSH1 0xA0 SHL PUSH22 0xFFFF0000000000000000000000000000000000000000 AND OR DUP4 SSTORE PUSH1 0x1 SWAP3 DUP4 ADD SWAP3 SWAP2 SWAP1 SWAP2 ADD SWAP1 PUSH1 0x40 ADD PUSH2 0x416F JUMP JUMPDEST PUSH1 0x8 DUP3 ADD PUSH1 0x0 MSTORE PUSH1 0x20 PUSH1 0x0 KECCAK256 SWAP1 PUSH2 0x100 DUP5 ADD CALLDATALOAD DUP5 ADD CALLDATALOAD DUP3 ADD JUMPDEST DUP2 DUP4 ADD DUP2 LT PUSH2 0x4690 JUMPI POP POP PUSH2 0x4152 JUMP JUMPDEST PUSH1 0x0 DUP2 SSTORE PUSH1 0x1 ADD PUSH2 0x4680 JUMP JUMPDEST PUSH1 0x1 SWAP1 PUSH1 0x20 DUP5 CALLDATALOAD SWAP5 ADD SWAP4 DUP2 DUP5 ADD SSTORE ADD PUSH2 0x40B3 JUMP JUMPDEST PUSH1 0x7 DUP5 ADD PUSH1 0x0 MSTORE PUSH1 0x20 PUSH1 0x0 KECCAK256 SWAP1 DUP4 DUP3 ADD JUMPDEST DUP2 DUP4 ADD DUP2 LT PUSH2 0x46D1 JUMPI POP POP PUSH2 0x40A3 JUMP JUMPDEST PUSH1 0x0 DUP2 SSTORE PUSH1 0x1 ADD PUSH2 0x46C1 JUMP JUMPDEST PUSH1 0x1 SWAP1 PUSH1 0x20 DUP5 CALLDATALOAD SWAP5 ADD SWAP4 DUP2 DUP5 ADD SSTORE ADD PUSH2 0x4058 JUMP JUMPDEST PUSH2 0x470C SWAP1 PUSH1 0x6 DUP6 ADD PUSH1 0x0 MSTORE DUP4 PUSH1 0x20 PUSH1 0x0 KECCAK256 SWAP2 DUP3 ADD SWAP2 ADD PUSH2 0x4A4F JUMP JUMPDEST CODESIZE PUSH2 0x4048 JUMP JUMPDEST ADD CALLDATALOAD SWAP1 POP CODESIZE DUP1 PUSH2 0x3FD3 JUMP JUMPDEST SWAP1 SWAP3 POP PUSH1 0x5 DUP5 ADD PUSH1 0x0 MSTORE PUSH1 0x20 PUSH1 0x0 KECCAK256 SWAP1 PUSH1 0x0 SWAP4 JUMPDEST PUSH32 0xFFFFFFFFFFFFFFFFFFFFFFFFFFFFFFFFFFFFFFFFFFFFFFFFFFFFFFFFFFFFFFE0 DUP5 AND DUP6 LT PUSH2 0x47D0 JUMPI PUSH1 0x1 SWAP5 POP DUP4 PUSH32 0xFFFFFFFFFFFFFFFFFFFFFFFFFFFFFFFFFFFFFFFFFFFFFFFFFFFFFFFFFFFFFFE0 DUP2 AND LT PUSH2 0x4798 JUMPI JUMPDEST POP POP POP DUP2 SHL ADD PUSH1 0x5 DUP3 ADD SSTORE PUSH2 0x4008 JUMP JUMPDEST PUSH32 0xFFFFFFFFFFFFFFFFFFFFFFFFFFFFFFFFFFFFFFFFFFFFFFFFFFFFFFFFFFFFFFFF PUSH1 0xF8 DUP6 PUSH1 0x3 SHL AND SHR NOT SWAP2 ADD CALLDATALOAD AND SWAP1 SSTORE CODESIZE DUP1 DUP1 PUSH2 0x4788 JUMP JUMPDEST DUP2 DUP2 ADD CALLDATALOAD DUP4 SSTORE PUSH1 0x20 SWAP5 DUP6 ADD SWAP5 PUSH1 0x1 SWAP1 SWAP4 ADD SWAP3 ADD PUSH2 0x4731 JUMP JUMPDEST ADD CALLDATALOAD SWAP1 POP CODESIZE DUP1 PUSH2 0x3F4F JUMP JUMPDEST SWAP1 SWAP3 POP PUSH1 0x4 DUP5 ADD PUSH1 0x0 MSTORE PUSH1 0x20 PUSH1 0x0 KECCAK256 SWAP1 PUSH1 0x0 SWAP4 JUMPDEST PUSH32 0xFFFFFFFFFFFFFFFFFFFFFFFFFFFFFFFFFFFFFFFFFFFFFFFFFFFFFFFFFFFFFFE0 DUP5 AND DUP6 LT PUSH2 0x48A6 JUMPI PUSH1 0x1 SWAP5 POP DUP4 PUSH32 0xFFFFFFFFFFFFFFFFFFFFFFFFFFFFFFFFFFFFFFFFFFFFFFFFFFFFFFFFFFFFFFE0 DUP2 AND LT PUSH2 0x486E JUMPI JUMPDEST POP POP POP DUP2 SHL ADD PUSH1 0x4 DUP3 ADD SSTORE PUSH2 0x3F84 JUMP JUMPDEST PUSH32 0xFFFFFFFFFFFFFFFFFFFFFFFFFFFFFFFFFFFFFFFFFFFFFFFFFFFFFFFFFFFFFFFF PUSH1 0xF8 DUP6 PUSH1 0x3 SHL AND SHR NOT SWAP2 ADD CALLDATALOAD AND SWAP1 SSTORE CODESIZE DUP1 DUP1 PUSH2 0x485E JUMP JUMPDEST DUP2 DUP2 ADD CALLDATALOAD DUP4 SSTORE PUSH1 0x20 SWAP5 DUP6 ADD SWAP5 PUSH1 0x1 SWAP1 SWAP4 ADD SWAP3 ADD PUSH2 0x4807 JUMP JUMPDEST PUSH1 0x84 PUSH1 0x40 MLOAD PUSH32 0x8C379A000000000000000000000000000000000000000000000000000000000 DUP2 MSTORE PUSH1 0x20 PUSH1 0x4 DUP3 ADD MSTORE PUSH1 0x23 PUSH1 0x24 DUP3 ADD MSTORE PUSH32 0x4461746153746F726167653A20757269207265676973746572656420616C7265 PUSH1 0x44 DUP3 ADD MSTORE PUSH32 0x6164790000000000000000000000000000000000000000000000000000000000 PUSH1 0x64 DUP3 ADD MSTORE REVERT JUMPDEST PUSH1 0x64 PUSH1 0x40 MLOAD PUSH32 0x8C379A000000000000000000000000000000000000000000000000000000000 DUP2 MSTORE PUSH1 0x20 PUSH1 0x4 DUP3 ADD MSTORE PUSH1 0x20 PUSH1 0x24 DUP3 ADD MSTORE PUSH32 0x4552433732313A206D696E7420746F20746865207A65726F2061646472657373 PUSH1 0x44 DUP3 ADD MSTORE REVERT JUMPDEST ISZERO PUSH2 0x49A7 JUMPI JUMP JUMPDEST PUSH1 0x64 PUSH1 0x40 MLOAD PUSH32 0x8C379A000000000000000000000000000000000000000000000000000000000 DUP2 MSTORE PUSH1 0x20 PUSH1 0x4 DUP3 ADD MSTORE PUSH1 0x1C PUSH1 0x24 DUP3 ADD MSTORE PUSH32 0x4552433732313A20746F6B656E20616C7265616479206D696E74656400000000 PUSH1 0x44 DUP3 ADD MSTORE REVERT JUMPDEST PUSH32 0xFFFFFFFFFFFFFFFFFFFFFFFFFFFFFFFFFFFFFFFFFFFFFFFFFFFFFFFFFFFFFFFF DUP2 EQ PUSH2 0x36D8 JUMPI PUSH1 0x1 ADD SWAP1 JUMP JUMPDEST SWAP2 SWAP1 DUP2 LT ISZERO PUSH2 0x3AB5 JUMPI PUSH1 0x5 SHL ADD SWAP1 JUMP JUMPDEST SWAP2 SWAP1 DUP3 SUB SWAP2 DUP3 GT PUSH2 0x36D8 JUMPI JUMP JUMPDEST DUP2 DUP2 LT PUSH2 0x4A5A JUMPI POP POP JUMP JUMPDEST PUSH1 0x0 DUP2 SSTORE PUSH1 0x1 ADD PUSH2 0x4A4F JUMP JUMPDEST SWAP2 SWAP1 PUSH1 0x1F DUP2 GT PUSH2 0x4A75 JUMPI POP POP POP JUMP JUMPDEST PUSH2 0x4AA1 SWAP3 PUSH1 0x0 MSTORE PUSH1 0x20 PUSH1 0x0 KECCAK256 SWAP1 PUSH1 0x20 PUSH1 0x1F DUP5 ADD PUSH1 0x5 SHR DUP4 ADD SWAP4 LT PUSH2 0x4AA3 JUMPI JUMPDEST PUSH1 0x1F ADD PUSH1 0x5 SHR ADD SWAP1 PUSH2 0x4A4F JUMP JUMPDEST JUMP JUMPDEST SWAP1 SWAP2 POP DUP2 SWAP1 PUSH2 0x4A94 JUMP JUMPDEST PUSH8 0xFFFFFFFFFFFFFFFF DUP2 GT PUSH2 0x2EDB JUMPI PUSH1 0x5 SHL PUSH1 0x20 ADD SWAP1 JUMP JUMPDEST PUSH1 0x40 MLOAD SWAP1 PUSH2 0x4AD2 DUP3 PUSH2 0x2EBE JUMP JUMPDEST DUP2 PUSH1 0x0 DUP2 MSTORE PUSH1 0x0 PUSH1 0x20 DUP3 ADD MSTORE PUSH1 0x0 PUSH1 0x40 DUP3 ADD MSTORE PUSH2 0x100 PUSH1 0x60 SWAP2 PUSH1 0x0 DUP4 DUP3 ADD MSTORE DUP3 PUSH1 0x80 DUP3 ADD MSTORE DUP3 PUSH1 0xA0 DUP3 ADD MSTORE DUP3 PUSH1 0xC0 DUP3 ADD MSTORE DUP3 PUSH1 0xE0 DUP3 ADD MSTORE ADD MSTORE JUMP JUMPDEST SWAP1 PUSH2 0x4B17 DUP3 PUSH2 0x4AAD JUMP JUMPDEST PUSH2 0x4B24 PUSH1 0x40 MLOAD SWAP2 DUP3 PUSH2 0x2F5E JUMP JUMPDEST DUP3 DUP2 MSTORE PUSH32 0xFFFFFFFFFFFFFFFFFFFFFFFFFFFFFFFFFFFFFFFFFFFFFFFFFFFFFFFFFFFFFFE0 PUSH2 0x4B52 DUP3 SWAP5 PUSH2 0x4AAD JUMP JUMPDEST ADD SWAP1 PUSH1 0x20 CALLDATASIZE SWAP2 ADD CALLDATACOPY JUMP JUMPDEST SWAP1 PUSH2 0x4B66 DUP3 PUSH2 0x4AAD JUMP JUMPDEST PUSH2 0x4B73 PUSH1 0x40 MLOAD SWAP2 DUP3 PUSH2 0x2F5E JUMP JUMPDEST DUP3 DUP2 MSTORE PUSH32 0xFFFFFFFFFFFFFFFFFFFFFFFFFFFFFFFFFFFFFFFFFFFFFFFFFFFFFFFFFFFFFFE0 PUSH2 0x4BA1 DUP3 SWAP5 PUSH2 0x4AAD JUMP JUMPDEST ADD SWAP1 PUSH1 0x0 JUMPDEST DUP3 DUP2 LT PUSH2 0x4BB2 JUMPI POP POP POP JUMP JUMPDEST DUP1 PUSH1 0x60 PUSH1 0x20 DUP1 SWAP4 DUP6 ADD ADD MSTORE ADD PUSH2 0x4BA6 JUMP JUMPDEST DUP1 MLOAD ISZERO PUSH2 0x3AB5 JUMPI PUSH1 0x20 ADD SWAP1 JUMP JUMPDEST DUP1 MLOAD DUP3 LT ISZERO PUSH2 0x3AB5 JUMPI PUSH1 0x20 SWAP2 PUSH1 0x5 SHL ADD ADD SWAP1 JUMP JUMPDEST SWAP1 PUSH1 0x40 MLOAD SWAP2 DUP3 DUP2 SLOAD SWAP2 DUP3 DUP3 MSTORE PUSH1 0x20 SWAP3 DUP4 DUP4 ADD SWAP2 PUSH1 0x0 MSTORE DUP4 PUSH1 0x0 KECCAK256 SWAP4 PUSH1 0x0 SWAP1 JUMPDEST DUP3 DUP3 LT PUSH2 0x4C19 JUMPI POP POP POP PUSH2 0x4AA1 SWAP3 POP SUB DUP4 PUSH2 0x2F5E JUMP JUMPDEST DUP6 SLOAD DUP5 MSTORE PUSH1 0x1 SWAP6 DUP7 ADD SWAP6 DUP9 SWAP6 POP SWAP4 DUP2 ADD SWAP4 SWAP1 SWAP2 ADD SWAP1 PUSH2 0x4C03 JUMP JUMPDEST SWAP1 PUSH2 0x4C3C PUSH2 0x4AC5 JUMP JUMPDEST POP PUSH1 0x60 PUSH1 0x0 SWAP2 DUP4 DUP4 MSTORE PUSH1 0x20 SWAP3 PUSH1 0xA DUP5 MSTORE PUSH1 0x40 SWAP1 DUP2 DUP2 KECCAK256 SWAP5 DUP3 MLOAD PUSH2 0x4C5E DUP2 PUSH2 0x2EBE JUMP JUMPDEST PUSH20 0xFFFFFFFFFFFFFFFFFFFFFFFFFFFFFFFFFFFFFFFF SWAP7 DUP8 DUP2 SLOAD AND DUP3 MSTORE PUSH1 0x1 DUP1 DUP3 ADD SLOAD DUP5 DUP5 ADD MSTORE PUSH1 0x2 DUP3 ADD SLOAD SWAP9 DUP7 DUP5 ADD SWAP10 DUP11 MSTORE PUSH1 0x3 DUP4 ADD SLOAD DUP10 DUP6 ADD MSTORE DUP7 MLOAD PUSH2 0x4CB3 DUP2 PUSH2 0x4CAC DUP2 PUSH1 0x4 DUP9 ADD PUSH2 0x3171 JUMP JUMPDEST SUB DUP3 PUSH2 0x2F5E JUMP JUMPDEST PUSH1 0x80 DUP6 ADD MSTORE DUP7 MLOAD SWAP3 PUSH2 0x4CD3 DUP5 PUSH2 0x4CCC DUP2 PUSH1 0x5 DUP6 ADD PUSH2 0x3171 JUMP JUMPDEST SUB DUP6 PUSH2 0x2F5E JUMP JUMPDEST PUSH1 0xA0 SWAP4 DUP5 DUP7 ADD MSTORE PUSH1 0x6 DUP2 ADD DUP9 MLOAD SWAP1 DUP2 DUP9 DUP3 SLOAD SWAP2 DUP3 DUP2 MSTORE ADD SWAP2 DUP11 MSTORE DUP9 DUP11 KECCAK256 SWAP1 DUP11 JUMPDEST DUP8 DUP12 DUP4 DUP4 LT PUSH2 0x4DFC JUMPI POP POP POP POP POP SWAP1 PUSH2 0x4D11 DUP2 PUSH1 0x8 SWAP5 SWAP4 SUB DUP3 PUSH2 0x2F5E JUMP JUMPDEST PUSH1 0xC0 DUP8 ADD MSTORE PUSH2 0x4D22 PUSH1 0x7 DUP3 ADD PUSH2 0x4BE4 JUMP JUMPDEST PUSH1 0xE0 DUP8 ADD MSTORE ADD DUP1 SLOAD SWAP2 PUSH2 0x4D34 DUP4 PUSH2 0x4AAD JUMP JUMPDEST SWAP5 PUSH2 0x4D41 DUP11 MLOAD SWAP7 DUP8 PUSH2 0x2F5E JUMP JUMPDEST DUP4 DUP7 MSTORE DUP8 DUP7 ADD SWAP3 DUP10 MSTORE DUP8 DUP10 KECCAK256 SWAP2 DUP10 SWAP4 JUMPDEST DUP12 DUP11 DUP8 DUP8 LT PUSH2 0x4DCF JUMPI POP POP POP POP POP POP POP POP POP PUSH2 0x100 DUP3 ADD MSTORE SWAP7 DUP1 DUP4 MSTORE PUSH1 0xE DUP3 MSTORE DUP4 DUP4 KECCAK256 SLOAD SWAP7 MLOAD TIMESTAMP LT ISZERO PUSH2 0x4D9B JUMPI JUMPDEST SWAP3 DUP3 PUSH1 0xC DUP3 SWAP4 PUSH2 0x4CAC SWAP7 PUSH2 0x2D18 SWAP7 MSTORE MSTORE KECCAK256 SWAP1 MLOAD SWAP3 DUP4 DUP1 SWAP3 PUSH2 0x3171 JUMP JUMPDEST SWAP5 POP SWAP2 DUP1 PUSH2 0x2D18 SWAP3 PUSH1 0xC DUP6 PUSH1 0xD PUSH2 0x4CAC SWAP8 MSTORE PUSH2 0x4CAC PUSH2 0x4DC1 DUP6 DUP6 KECCAK256 DUP7 MLOAD SWAP3 DUP4 DUP1 SWAP3 PUSH2 0x3171 JUMP JUMPDEST SWAP9 SWAP4 POP SWAP4 SWAP6 POP POP SWAP3 POP PUSH2 0x4D7F JUMP JUMPDEST DUP9 SWAP3 DUP4 SWAP3 MLOAD PUSH2 0x4DDD DUP2 PUSH2 0x2F0A JUMP JUMPDEST PUSH2 0xFFFF DUP9 SLOAD DUP8 DUP2 AND DUP4 MSTORE DUP9 SHR AND DUP4 DUP3 ADD MSTORE DUP2 MSTORE ADD SWAP5 ADD SWAP5 ADD SWAP4 SWAP3 PUSH2 0x4D51 JUMP JUMPDEST DUP5 SLOAD DUP7 MSTORE SWAP1 SWAP5 ADD SWAP4 SWAP3 DUP4 ADD SWAP3 ADD PUSH2 0x4CF3 JUMP JUMPDEST PUSH1 0x0 SWAP1 DUP2 MSTORE PUSH1 0x20 SWAP2 PUSH1 0xA DUP4 MSTORE PUSH1 0x40 SWAP2 DUP3 DUP2 KECCAK256 SWAP3 DUP1 MLOAD SWAP4 PUSH2 0x4E2D DUP6 PUSH2 0x2EBE JUMP JUMPDEST PUSH20 0xFFFFFFFFFFFFFFFFFFFFFFFFFFFFFFFFFFFFFFFF DUP1 DUP3 SLOAD AND DUP7 MSTORE PUSH1 0x1 SWAP2 DUP3 DUP2 ADD SLOAD DUP9 DUP9 ADD MSTORE PUSH1 0x2 DUP2 ADD SLOAD DUP5 DUP9 ADD MSTORE PUSH1 0x3 DUP2 ADD SLOAD PUSH1 0x60 DUP9 ADD MSTORE DUP4 MLOAD PUSH2 0x4E79 DUP2 PUSH2 0x4CAC DUP2 PUSH1 0x4 DUP7 ADD PUSH2 0x3171 JUMP JUMPDEST PUSH1 0x80 DUP9 ADD MSTORE DUP4 MLOAD SWAP1 PUSH2 0x4E92 DUP3 PUSH2 0x726 DUP2 PUSH1 0x5 DUP6 ADD PUSH2 0x3171 JUMP JUMPDEST PUSH1 0xA0 DUP9 DUP2 ADD SWAP3 SWAP1 SWAP3 MSTORE DUP5 MLOAD PUSH1 0x6 DUP3 ADD DUP1 SLOAD DUP1 DUP4 MSTORE SWAP1 DUP9 MSTORE DUP11 DUP9 KECCAK256 DUP12 DUP4 ADD SWAP2 DUP10 DUP9 DUP15 JUMPDEST DUP4 DUP4 LT PUSH2 0x4FD3 JUMPI POP POP POP POP POP SWAP1 PUSH2 0x4ED0 DUP2 PUSH1 0x8 SWAP5 SWAP4 SUB DUP3 PUSH2 0x2F5E JUMP JUMPDEST PUSH1 0xC0 DUP11 ADD MSTORE PUSH2 0x4EE1 PUSH1 0x7 DUP3 ADD PUSH2 0x4BE4 JUMP JUMPDEST PUSH1 0xE0 DUP11 ADD MSTORE ADD DUP1 SLOAD SWAP1 PUSH2 0x4EF3 DUP3 PUSH2 0x4AAD JUMP JUMPDEST SWAP3 PUSH2 0x4F00 DUP8 MLOAD SWAP5 DUP6 PUSH2 0x2F5E JUMP JUMPDEST DUP3 DUP5 MSTORE SWAP1 DUP8 MSTORE DUP10 DUP8 KECCAK256 DUP8 SWAP2 DUP7 DUP13 DUP7 ADD JUMPDEST DUP14 DUP7 DUP7 LT PUSH2 0x4FA5 JUMPI POP POP POP POP POP POP POP DUP1 PUSH2 0x100 DUP9 ADD MSTORE DUP1 MLOAD ISZERO PUSH1 0x0 EQ PUSH2 0x4F9A JUMPI POP DUP3 MLOAD SWAP4 PUSH2 0x4F3D DUP6 PUSH2 0x2F0A JUMP JUMPDEST DUP3 DUP6 MSTORE DUP1 JUMPDEST DUP9 DUP2 LT PUSH2 0x4F79 JUMPI POP POP SWAP6 PUSH2 0x4F76 SWAP5 SWAP6 SWAP7 DUP5 SWAP8 MLOAD AND SWAP3 MLOAD SWAP3 PUSH2 0x4F62 DUP5 PUSH2 0x2F0A JUMP JUMPDEST DUP4 MSTORE DUP3 ADD MSTORE PUSH2 0x4F70 DUP3 PUSH2 0x4BC3 JUMP JUMPDEST MSTORE PUSH2 0x4BC3 JUMP JUMPDEST POP JUMP JUMPDEST DUP9 SWAP1 DUP6 MLOAD PUSH2 0x4F86 DUP2 PUSH2 0x2F0A JUMP JUMPDEST DUP4 DUP2 MSTORE DUP4 DUP4 DUP3 ADD MSTORE DUP3 DUP3 DUP10 ADD ADD MSTORE ADD PUSH2 0x4F42 JUMP JUMPDEST SWAP6 POP POP POP POP POP SWAP2 POP SWAP1 JUMP JUMPDEST DUP3 SWAP2 DUP12 MLOAD PUSH2 0x4FB2 DUP2 PUSH2 0x2F0A JUMP JUMPDEST PUSH2 0xFFFF DUP8 SLOAD DUP13 DUP2 AND DUP4 MSTORE DUP8 SHR AND DUP4 DUP3 ADD MSTORE DUP2 MSTORE ADD SWAP4 ADD SWAP4 ADD SWAP3 SWAP2 DUP8 SWAP1 PUSH2 0x4F10 JUMP JUMPDEST DUP5 SLOAD DUP7 MSTORE SWAP1 SWAP5 ADD SWAP4 SWAP3 DUP4 ADD SWAP3 ADD DUP9 DUP15 PUSH2 0x4EB4 JUMP JUMPDEST PUSH2 0x4FF0 SWAP1 PUSH2 0x3A7E JUMP JUMPDEST SWAP1 SLOAD SWAP1 PUSH1 0x3 SHL SHR DUP1 PUSH1 0x0 MSTORE PUSH1 0x11 PUSH1 0x20 MSTORE SWAP1 JUMP JUMPDEST DUP2 PUSH1 0x0 MSTORE PUSH1 0x2 DUP2 ADD PUSH1 0x20 MSTORE PUSH1 0x40 PUSH1 0x0 KECCAK256 SLOAD SWAP2 DUP3 ISZERO SWAP2 DUP3 ISZERO SWAP3 PUSH2 0x5088 JUMPI JUMPDEST POP POP ISZERO PUSH2 0x502A JUMPI SWAP1 JUMP JUMPDEST PUSH1 0x64 PUSH1 0x40 MLOAD PUSH32 0x8C379A000000000000000000000000000000000000000000000000000000000 DUP2 MSTORE PUSH1 0x20 PUSH1 0x4 DUP3 ADD MSTORE PUSH1 0x1E PUSH1 0x24 DUP3 ADD MSTORE PUSH32 0x456E756D657261626C654D61703A206E6F6E6578697374656E74206B65790000 PUSH1 0x44 DUP3 ADD MSTORE REVERT JUMPDEST PUSH2 0x50A2 SWAP3 POP PUSH1 0x1 SWAP2 PUSH1 0x0 MSTORE ADD PUSH1 0x20 MSTORE PUSH1 0x40 PUSH1 0x0 KECCAK256 SLOAD ISZERO ISZERO SWAP1 JUMP JUMPDEST CODESIZE DUP1 PUSH2 0x5020 JUMP JUMPDEST PUSH1 0x0 DUP2 DUP2 MSTORE PUSH1 0x10 PUSH1 0x20 MSTORE PUSH1 0x40 DUP2 KECCAK256 SLOAD PUSH2 0x5128 JUMPI PUSH1 0xF SLOAD PUSH9 0x10000000000000000 DUP2 LT ISZERO PUSH2 0x50FB JUMPI SWAP1 DUP3 PUSH2 0x50E7 PUSH2 0x16E3 DUP5 PUSH1 0x1 PUSH1 0x40 SWAP7 ADD PUSH1 0xF SSTORE PUSH2 0x3A7E JUMP JUMPDEST SWAP1 SSTORE PUSH1 0xF SLOAD SWAP3 DUP2 MSTORE PUSH1 0x10 PUSH1 0x20 MSTORE KECCAK256 SSTORE PUSH1 0x1 SWAP1 JUMP JUMPDEST PUSH1 0x24 DUP3 PUSH32 0x4E487B7100000000000000000000000000000000000000000000000000000000 DUP2 MSTORE PUSH1 0x41 PUSH1 0x4 MSTORE REVERT JUMPDEST SWAP1 POP SWAP1 JUMP JUMPDEST PUSH1 0x0 DUP2 DUP2 MSTORE PUSH1 0x14 PUSH1 0x20 MSTORE PUSH1 0x40 DUP2 KECCAK256 SLOAD PUSH2 0x5128 JUMPI PUSH1 0x13 SLOAD PUSH9 0x10000000000000000 DUP2 LT ISZERO PUSH2 0x50FB JUMPI PUSH1 0x1 DUP2 ADD DUP1 PUSH1 0x13 SSTORE DUP2 LT ISZERO PUSH2 0x519D JUMPI SWAP1 DUP3 PUSH1 0x40 SWAP3 PUSH32 0x66DE8FFDA797E3DE9C05E8FC57B3BF0EC28A930D40B0D285D93C06501CF6A090 ADD SSTORE PUSH1 0x13 SLOAD SWAP3 DUP2 MSTORE PUSH1 0x14 PUSH1 0x20 MSTORE KECCAK256 SSTORE PUSH1 0x1 SWAP1 JUMP JUMPDEST PUSH1 0x24 DUP3 PUSH32 0x4E487B7100000000000000000000000000000000000000000000000000000000 DUP2 MSTORE PUSH1 0x32 PUSH1 0x4 MSTORE REVERT JUMPDEST PUSH1 0x0 DUP3 DUP2 MSTORE PUSH1 0x1 DUP3 ADD PUSH1 0x20 MSTORE PUSH1 0x40 SWAP1 KECCAK256 SLOAD PUSH2 0x521F JUMPI DUP1 SLOAD SWAP1 PUSH9 0x10000000000000000 DUP3 LT ISZERO PUSH2 0x2EDB JUMPI DUP3 PUSH2 0x5208 PUSH2 0x16E3 DUP5 PUSH1 0x1 DUP1 SWAP7 ADD DUP6 SSTORE DUP5 PUSH2 0x3B1B JUMP JUMPDEST SWAP1 SSTORE DUP1 SLOAD SWAP3 PUSH1 0x0 MSTORE ADD PUSH1 0x20 MSTORE PUSH1 0x40 PUSH1 0x0 KECCAK256 SSTORE PUSH1 0x1 SWAP1 JUMP JUMPDEST POP POP PUSH1 0x0 SWAP1 JUMP JUMPDEST PUSH20 0xFFFFFFFFFFFFFFFFFFFFFFFFFFFFFFFFFFFFFFFF AND PUSH1 0x0 MSTORE PUSH1 0x12 PUSH1 0x20 MSTORE PUSH1 0x2 PUSH2 0x5255 PUSH1 0x40 PUSH1 0x0 KECCAK256 SWAP3 DUP4 PUSH2 0x3B1B JUMP JUMPDEST SWAP1 SLOAD SWAP1 PUSH1 0x3 SHL SHR SWAP2 DUP3 PUSH1 0x0 MSTORE ADD PUSH1 0x20 MSTORE SWAP1 JUMP JUMPDEST PUSH1 0x13 SLOAD DUP2 LT ISZERO PUSH2 0x3AB5 JUMPI PUSH1 0x13 PUSH1 0x0 MSTORE PUSH32 0x66DE8FFDA797E3DE9C05E8FC57B3BF0EC28A930D40B0D285D93C06501CF6A090 ADD SLOAD PUSH20 0xFFFFFFFFFFFFFFFFFFFFFFFFFFFFFFFFFFFFFFFF AND SWAP1 JUMP JUMPDEST PUSH1 0x0 MSTORE PUSH1 0x17 PUSH1 0x20 MSTORE PUSH1 0x2 PUSH2 0x5255 PUSH1 0x40 PUSH1 0x0 KECCAK256 SWAP3 DUP4 PUSH2 0x3B1B JUMP JUMPDEST PUSH1 0x0 DUP3 DUP2 MSTORE PUSH1 0x17 PUSH1 0x20 MSTORE PUSH1 0x40 DUP2 KECCAK256 SWAP1 PUSH2 0x52F5 DUP4 DUP4 PUSH1 0x1 SWAP2 PUSH1 0x0 MSTORE ADD PUSH1 0x20 MSTORE PUSH1 0x40 PUSH1 0x0 KECCAK256 SLOAD ISZERO ISZERO SWAP1 JUMP JUMPDEST ISZERO PUSH2 0x5300 JUMPI POP POP POP POP JUMP JUMPDEST PUSH2 0x5323 SWAP4 DUP2 MSTORE PUSH1 0x17 PUSH1 0x20 MSTORE PUSH1 0x40 DUP1 DUP3 KECCAK256 SLOAD SWAP2 DUP5 DUP2 MSTORE PUSH1 0x2 DUP5 ADD PUSH1 0x20 MSTORE KECCAK256 SSTORE PUSH2 0x51CA JUMP JUMPDEST POP CODESIZE DUP1 DUP1 DUP1 PUSH2 0x319E JUMP INVALID LOG2 PUSH5 0x6970667358 0x22 SLT KECCAK256 JUMPDEST 0xFC 0x1F PUSH29 0x66B12A0131C8DEB160265D7C8824B36125A5A1C4951239C7D2BF978B64 PUSH20 0x6F6C634300081300330000000000000000000000 "},"methodIdentifiers":{"QVH()":"f076ed3b","approve(address,uint256)":"095ea7b3","balanceOf(address)":"70a08231","burn(uint256)":"42966c68","creatorAddresses()":"40b94757","creatorByIndex(uint256)":"6d571b6a","creatorsByIndexBatch(uint256[])":"c03d1d91","getApproved(uint256)":"081812fc","getUriId(bytes32)":"78292236","isApprovedForAll(address,address)":"e985e9c5","name()":"06fdde03","numberOfCreators()":"1ae69b61","numberOfRepliesToCreator(address)":"f353a732","numberOfRepliesToCreatorBatch(address[])":"2c230901","numberOfTokenReplies(uint256)":"2e0d0718","numberOfTokenRepliesBatch(uint256[])":"cca3c766","numberOfTokensByTag(bytes32)":"4667c884","numberOfTokensByTagBatch(bytes32[])":"8f93fb39","numberOfTokensOfCreator(address)":"60f6a4a3","numberOfTokensOfCreatorBatch(address[])":"31d99545","numberOfTokensTraceable()":"dd468791","ownerOf(uint256)":"6352211e","repliesToCreator(address)":"b1582201","repliesToCreatorByIndex(address,uint256)":"f99458a4","repliesToCreatorByIndexBatch(address,uint256[])":"fe649b7e","safeMint((address,uint256,uint256,uint256,string,bytes,uint256[],bytes32[],(address,uint16)[]),bytes,bytes)":"7372e98d","safeMintAndSetTraceStorage((address,uint256,uint256,uint256,string,bytes,uint256[],bytes32[],(address,uint16)[]),bytes,bytes)":"4832e8f3","safeTransferFrom(address,address,uint256)":"42842e0e","safeTransferFrom(address,address,uint256,bytes)":"b88d4fde","setApprovalForAll(address,bool)":"a22cb465","supportsInterface(bytes4)":"01ffc9a7","symbol()":"95d89b41","timeStamp()":"0ab0df87","tokenByIndex(uint256)":"4f6ccce7","tokenByIndexTraceable(uint256)":"26156636","tokenInfo(uint256)":"cc33c875","tokenMintTime(uint256)":"83b81ebd","tokenOfCreatorByIndex(address,uint256)":"4fc09275","tokenOfOwnerByIndex(address,uint256)":"2f745c59","tokenOfTagByIndex(bytes32,uint256)":"3552d220","tokenReplies(uint256)":"8282674f","tokenRepliesByIndexBatch(uint256,uint256[])":"1674ed4b","tokenReplyByIndex(uint256,uint256)":"bfc9b364","tokenShareholders(uint256)":"89f65715","tokenURI(uint256)":"c87b56dd","tokensByIndexTraceableBatch(uint256[])":"f6bd7ab8","tokensInfoBatch(uint256[])":"2b0eca8c","tokensOfCreator(address)":"96cc6a34","tokensOfCreatorByIndexBatch(address,uint256[])":"132e75d6","tokensOfTag(bytes32)":"af3ea105","tokensOfTagByIndexBatch(bytes32,uint256[])":"017642e4","totalSupply()":"18160ddd","traceTokenByCreator(address,uint256)":"c3512876","traceTokenById(uint256)":"39d77f25","traceTokenByTag(bytes32,uint256)":"29c7785f","transferFrom(address,address,uint256)":"23b872dd"}}}}}