{"contracts/Test.sol":{"Test":{"abi":[{"inputs":[],"name":"a","outputs":[{"internalType":"uint256","name":"","type":"uint256"}],"stateMutability":"view","type":"function"},{"inputs":[{"internalType":"address","name":"","type":"address"}],"name":"balance","outputs":[{"internalType":"uint256","name":"","type":"uint256"}],"stateMutability":"view","type":"function"},{"inputs":[{"internalType":"uint256","name":"_a","type":"uint256"}],"name":"set","outputs":[],"stateMutability":"payable","type":"function"},{"inputs":[],"name":"withdraw","outputs":[],"stateMutability":"nonpayable","type":"function"}],"evm":{"bytecode":{"linkReferences":{},"object":"6080806040523461001657610206908161001c8239f35b600080fdfe60806040818152600436101561001457600080fd5b600091823560e01c9081630dbe671f14610198575080633ccfd60b1461013257806360fe47b1146100ba5763e3d670d71461004e57600080fd5b346100b65760207ffffffffffffffffffffffffffffffffffffffffffffffffffffffffffffffffc3601126100b65760043573ffffffffffffffffffffffffffffffffffffffff81168091036100b257828291602094526001845220549051908152f35b8280fd5b5080fd5b5060207ffffffffffffffffffffffffffffffffffffffffffffffffffffffffffffffffc3601126100b657338252600160205281208054903482018092116101055755600435815580f35b6024837f4e487b710000000000000000000000000000000000000000000000000000000081526011600452fd5b50346100b657817ffffffffffffffffffffffffffffffffffffffffffffffffffffffffffffffffc3601126100b6573382526001602052818080808481205481811561018f575b3390f115610185575080f35b51903d90823e3d90fd5b506108fc610179565b8390346100b657817ffffffffffffffffffffffffffffffffffffffffffffffffffffffffffffffffc3601126100b657602091548152f3fea2646970667358221220ab164cbc6ac174efed6d9510f3e352e4bfed2b2a088ba127ca1b35c66a46c0d464736f6c63430008130033","opcodes":"PUSH1 0x80 DUP1 PUSH1 0x40 MSTORE CALLVALUE PUSH2 0x16 JUMPI PUSH2 0x206 SWAP1 DUP2 PUSH2 0x1C DUP3 CODECOPY RETURN JUMPDEST PUSH1 0x0 DUP1 REVERT INVALID PUSH1 0x80 PUSH1 0x40 DUP2 DUP2 MSTORE PUSH1 0x4 CALLDATASIZE LT ISZERO PUSH2 0x14 JUMPI PUSH1 0x0 DUP1 REVERT JUMPDEST PUSH1 0x0 SWAP2 DUP3 CALLDATALOAD PUSH1 0xE0 SHR SWAP1 DUP2 PUSH4 0xDBE671F EQ PUSH2 0x198 JUMPI POP DUP1 PUSH4 0x3CCFD60B EQ PUSH2 0x132 JUMPI DUP1 PUSH4 0x60FE47B1 EQ PUSH2 0xBA JUMPI PUSH4 0xE3D670D7 EQ PUSH2 0x4E JUMPI PUSH1 0x0 DUP1 REVERT JUMPDEST CALLVALUE PUSH2 0xB6 JUMPI PUSH1 0x20 PUSH32 0xFFFFFFFFFFFFFFFFFFFFFFFFFFFFFFFFFFFFFFFFFFFFFFFFFFFFFFFFFFFFFFFC CALLDATASIZE ADD SLT PUSH2 0xB6 JUMPI PUSH1 0x4 CALLDATALOAD PUSH20 0xFFFFFFFFFFFFFFFFFFFFFFFFFFFFFFFFFFFFFFFF DUP2 AND DUP1 SWAP2 SUB PUSH2 0xB2 JUMPI DUP3 DUP3 SWAP2 PUSH1 0x20 SWAP5 MSTORE PUSH1 0x1 DUP5 MSTORE KECCAK256 SLOAD SWAP1 MLOAD SWAP1 DUP2 MSTORE RETURN JUMPDEST DUP3 DUP1 REVERT JUMPDEST POP DUP1 REVERT JUMPDEST POP PUSH1 0x20 PUSH32 0xFFFFFFFFFFFFFFFFFFFFFFFFFFFFFFFFFFFFFFFFFFFFFFFFFFFFFFFFFFFFFFFC CALLDATASIZE ADD SLT PUSH2 0xB6 JUMPI CALLER DUP3 MSTORE PUSH1 0x1 PUSH1 0x20 MSTORE DUP2 KECCAK256 DUP1 SLOAD SWAP1 CALLVALUE DUP3 ADD DUP1 SWAP3 GT PUSH2 0x105 JUMPI SSTORE PUSH1 0x4 CALLDATALOAD DUP2 SSTORE DUP1 RETURN JUMPDEST PUSH1 0x24 DUP4 PUSH32 0x4E487B7100000000000000000000000000000000000000000000000000000000 DUP2 MSTORE PUSH1 0x11 PUSH1 0x4 MSTORE REVERT JUMPDEST POP CALLVALUE PUSH2 0xB6 JUMPI DUP2 PUSH32 0xFFFFFFFFFFFFFFFFFFFFFFFFFFFFFFFFFFFFFFFFFFFFFFFFFFFFFFFFFFFFFFFC CALLDATASIZE ADD SLT PUSH2 0xB6 JUMPI CALLER DUP3 MSTORE PUSH1 0x1 PUSH1 0x20 MSTORE DUP2 DUP1 DUP1 DUP1 DUP5 DUP2 KECCAK256 SLOAD DUP2 DUP2 ISZERO PUSH2 0x18F JUMPI JUMPDEST CALLER SWAP1 CALL ISZERO PUSH2 0x185 JUMPI POP DUP1 RETURN JUMPDEST MLOAD SWAP1 RETURNDATASIZE SWAP1 DUP3 RETURNDATACOPY RETURNDATASIZE SWAP1 REVERT JUMPDEST POP PUSH2 0x8FC PUSH2 0x179 JUMP JUMPDEST DUP4 SWAP1 CALLVALUE PUSH2 0xB6 JUMPI DUP2 PUSH32 0xFFFFFFFFFFFFFFFFFFFFFFFFFFFFFFFFFFFFFFFFFFFFFFFFFFFFFFFFFFFFFFFC CALLDATASIZE ADD SLT PUSH2 0xB6 JUMPI PUSH1 0x20 SWAP2 SLOAD DUP2 MSTORE RETURN INVALID LOG2 PUSH5 0x6970667358 0x22 SLT KECCAK256 0xAB AND 0x4C 0xBC PUSH11 0xC174EFED6D9510F3E352E4 0xBF 0xED 0x2B 0x2A ADDMOD DUP12 LOG1 0x27 0xCA SHL CALLDATALOAD 0xC6 PUSH11 0x46C0D464736F6C63430008 SGT STOP CALLER "},"methodIdentifiers":{"a()":"0dbe671f","balance(address)":"e3d670d7","set(uint256)":"60fe47b1","withdraw()":"3ccfd60b"}}}}}