{"contracts/QHash/QHash.sol":{"QHash":{"abi":[{"inputs":[{"internalType":"bytes","name":"sig","type":"bytes"},{"internalType":"uint256","name":"hash","type":"uint256"}],"name":"checkHash","outputs":[{"internalType":"bool","name":"","type":"bool"}],"stateMutability":"pure","type":"function"}],"evm":{"bytecode":{"linkReferences":{},"object":"608080604052346100165761017e908161001c8239f35b600080fdfe6080600436101561000f57600080fd5b600090813560e01c63096c87231461002657600080fd5b346101445760407ffffffffffffffffffffffffffffffffffffffffffffffffffffffffffffffffc3601126101445767ffffffffffffffff90600435828111610140573660238201121561014057806004013583811161013c57366024828401011161013c57604b83827fffffffffffffffffffffffffffffffffffffffffffffffffffffffffffffffe0936024602084019601863781017f73616d616e2077696c736f6e0000000000000000000000000000000000000000602082015203600c8101855201168201928284109084111761010f57602093508260405260243591519020148152f35b6024847f4e487b710000000000000000000000000000000000000000000000000000000081526041600452fd5b8480fd5b8380fd5b5080fdfea2646970667358221220af05c9ed4728559109eccb6d44ae9e279938ee6a26d87740f02921001f48b44b64736f6c63430008130033","opcodes":"PUSH1 0x80 DUP1 PUSH1 0x40 MSTORE CALLVALUE PUSH2 0x16 JUMPI PUSH2 0x17E SWAP1 DUP2 PUSH2 0x1C DUP3 CODECOPY RETURN JUMPDEST PUSH1 0x0 DUP1 REVERT INVALID PUSH1 0x80 PUSH1 0x4 CALLDATASIZE LT ISZERO PUSH2 0xF JUMPI PUSH1 0x0 DUP1 REVERT JUMPDEST PUSH1 0x0 SWAP1 DUP2 CALLDATALOAD PUSH1 0xE0 SHR PUSH4 0x96C8723 EQ PUSH2 0x26 JUMPI PUSH1 0x0 DUP1 REVERT JUMPDEST CALLVALUE PUSH2 0x144 JUMPI PUSH1 0x40 PUSH32 0xFFFFFFFFFFFFFFFFFFFFFFFFFFFFFFFFFFFFFFFFFFFFFFFFFFFFFFFFFFFFFFFC CALLDATASIZE ADD SLT PUSH2 0x144 JUMPI PUSH8 0xFFFFFFFFFFFFFFFF SWAP1 PUSH1 0x4 CALLDATALOAD DUP3 DUP2 GT PUSH2 0x140 JUMPI CALLDATASIZE PUSH1 0x23 DUP3 ADD SLT ISZERO PUSH2 0x140 JUMPI DUP1 PUSH1 0x4 ADD CALLDATALOAD DUP4 DUP2 GT PUSH2 0x13C JUMPI CALLDATASIZE PUSH1 0x24 DUP3 DUP5 ADD ADD GT PUSH2 0x13C JUMPI PUSH1 0x4B DUP4 DUP3 PUSH32 0xFFFFFFFFFFFFFFFFFFFFFFFFFFFFFFFFFFFFFFFFFFFFFFFFFFFFFFFFFFFFFFE0 SWAP4 PUSH1 0x24 PUSH1 0x20 DUP5 ADD SWAP7 ADD DUP7 CALLDATACOPY DUP2 ADD PUSH32 0x73616D616E2077696C736F6E0000000000000000000000000000000000000000 PUSH1 0x20 DUP3 ADD MSTORE SUB PUSH1 0xC DUP2 ADD DUP6 MSTORE ADD AND DUP3 ADD SWAP3 DUP3 DUP5 LT SWAP1 DUP5 GT OR PUSH2 0x10F JUMPI PUSH1 0x20 SWAP4 POP DUP3 PUSH1 0x40 MSTORE PUSH1 0x24 CALLDATALOAD SWAP2 MLOAD SWAP1 KECCAK256 EQ DUP2 MSTORE RETURN JUMPDEST PUSH1 0x24 DUP5 PUSH32 0x4E487B7100000000000000000000000000000000000000000000000000000000 DUP2 MSTORE PUSH1 0x41 PUSH1 0x4 MSTORE REVERT JUMPDEST DUP5 DUP1 REVERT JUMPDEST DUP4 DUP1 REVERT JUMPDEST POP DUP1 REVERT INVALID LOG2 PUSH5 0x6970667358 0x22 SLT KECCAK256 0xAF SDIV 0xC9 0xED SELFBALANCE 0x28 SSTORE SWAP2 MULMOD 0xEC 0xCB PUSH14 0x44AE9E279938EE6A26D87740F029 0x21 STOP 0x1F BASEFEE 0xB4 0x4B PUSH5 0x736F6C6343 STOP ADDMOD SGT STOP CALLER "},"methodIdentifiers":{"checkHash(bytes,uint256)":"096c8723"}}}}}