{"contracts/katibeh1155/Factory1155.sol":{"Factory1155":{"abi":[{"anonymous":false,"inputs":[{"indexed":true,"internalType":"uint256","name":"tokenId","type":"uint256"},{"indexed":true,"internalType":"uint256","name":"toTokenId","type":"uint256"}],"name":"NewReply","type":"event"},{"anonymous":false,"inputs":[{"indexed":true,"internalType":"uint256","name":"tokenId","type":"uint256"},{"indexed":true,"internalType":"address","name":"creator","type":"address"},{"indexed":true,"internalType":"bytes","name":"data","type":"bytes"},{"indexed":false,"internalType":"uint256","name":"mintTime","type":"uint256"},{"indexed":false,"internalType":"uint256","name":"initTime","type":"uint256"},{"indexed":false,"internalType":"uint256","name":"expTime","type":"uint256"}],"name":"NewToken","type":"event"},{"anonymous":false,"inputs":[{"indexed":false,"internalType":"uint256","name":"tokenId","type":"uint256"},{"indexed":true,"internalType":"bytes32","name":"tag1","type":"bytes32"},{"indexed":true,"internalType":"bytes32","name":"tag2","type":"bytes32"},{"indexed":true,"internalType":"bytes32","name":"tag3","type":"bytes32"}],"name":"Tags","type":"event"},{"anonymous":false,"inputs":[{"indexed":true,"internalType":"uint256","name":"tokenId","type":"uint256"},{"indexed":false,"internalType":"bytes","name":"data","type":"bytes"}],"name":"TokenData","type":"event"},{"inputs":[{"internalType":"uint256","name":"","type":"uint256"}],"name":"_tokenCollection","outputs":[{"internalType":"address","name":"","type":"address"}],"stateMutability":"view","type":"function"},{"inputs":[{"internalType":"address","name":"","type":"address"}],"name":"_userCollection","outputs":[{"internalType":"address","name":"","type":"address"}],"stateMutability":"view","type":"function"},{"inputs":[{"internalType":"uint256","name":"tokenId","type":"uint256"},{"components":[{"internalType":"address","name":"creator","type":"address"},{"internalType":"uint256","name":"mintTime","type":"uint256"},{"internalType":"uint256","name":"initTime","type":"uint256"},{"internalType":"uint256","name":"expTime","type":"uint256"},{"internalType":"string","name":"tokenURI","type":"string"},{"internalType":"bytes","name":"data","type":"bytes"},{"internalType":"uint256[]","name":"toTokenId","type":"uint256[]"},{"internalType":"bytes32[]","name":"tags","type":"bytes32[]"},{"components":[{"internalType":"address","name":"addr","type":"address"},{"internalType":"uint16","name":"share","type":"uint16"}],"internalType":"struct DataStorage.Payee[]","name":"owners","type":"tuple[]"}],"internalType":"struct DataStorage.Katibeh","name":"katibeh","type":"tuple"},{"internalType":"bytes","name":"sig","type":"bytes"},{"internalType":"bytes","name":"data","type":"bytes"}],"name":"collect1","outputs":[],"stateMutability":"nonpayable","type":"function"},{"inputs":[{"internalType":"uint256","name":"tokenId","type":"uint256"},{"internalType":"bytes","name":"data","type":"bytes"},{"components":[{"internalType":"address","name":"addr","type":"address"},{"internalType":"uint16","name":"share","type":"uint16"}],"internalType":"struct DataStorage.Payee[]","name":"dapps","type":"tuple[]"}],"name":"collect2","outputs":[],"stateMutability":"payable","type":"function"},{"inputs":[{"internalType":"uint256","name":"tokenId","type":"uint256"}],"name":"fee","outputs":[{"internalType":"uint256","name":"","type":"uint256"}],"stateMutability":"view","type":"function"},{"inputs":[{"components":[{"internalType":"address","name":"creator","type":"address"},{"internalType":"uint256","name":"mintTime","type":"uint256"},{"internalType":"uint256","name":"initTime","type":"uint256"},{"internalType":"uint256","name":"expTime","type":"uint256"},{"internalType":"string","name":"tokenURI","type":"string"},{"internalType":"bytes","name":"data","type":"bytes"},{"internalType":"uint256[]","name":"toTokenId","type":"uint256[]"},{"internalType":"bytes32[]","name":"tags","type":"bytes32[]"},{"components":[{"internalType":"address","name":"addr","type":"address"},{"internalType":"uint16","name":"share","type":"uint16"}],"internalType":"struct DataStorage.Payee[]","name":"owners","type":"tuple[]"}],"internalType":"struct DataStorage.Katibeh","name":"katibeh","type":"tuple"}],"name":"getHash","outputs":[{"internalType":"bytes32","name":"","type":"bytes32"}],"stateMutability":"pure","type":"function"},{"inputs":[{"internalType":"bytes32","name":"uriHash","type":"bytes32"}],"name":"getUriId","outputs":[{"internalType":"uint256","name":"","type":"uint256"}],"stateMutability":"view","type":"function"},{"inputs":[],"name":"implementation","outputs":[{"internalType":"contract Katibeh1155","name":"","type":"address"}],"stateMutability":"view","type":"function"},{"inputs":[{"internalType":"address","name":"creatorAddr","type":"address"}],"name":"predictCollectionAddr","outputs":[{"internalType":"address","name":"","type":"address"}],"stateMutability":"view","type":"function"},{"inputs":[{"internalType":"address payable","name":"newAddr","type":"address"}],"name":"setReceiver1","outputs":[],"stateMutability":"nonpayable","type":"function"},{"inputs":[{"internalType":"uint256","name":"tokenId","type":"uint256"}],"name":"tokenInfo","outputs":[{"components":[{"internalType":"address","name":"creator","type":"address"},{"internalType":"uint256","name":"mintTime","type":"uint256"},{"internalType":"uint256","name":"initTime","type":"uint256"},{"internalType":"uint256","name":"expTime","type":"uint256"},{"internalType":"string","name":"tokenURI","type":"string"},{"internalType":"bytes","name":"data","type":"bytes"},{"internalType":"uint256[]","name":"toTokenId","type":"uint256[]"},{"internalType":"bytes32[]","name":"tags","type":"bytes32[]"},{"components":[{"internalType":"address","name":"addr","type":"address"},{"internalType":"uint16","name":"share","type":"uint16"}],"internalType":"struct DataStorage.Payee[]","name":"owners","type":"tuple[]"}],"internalType":"struct DataStorage.Katibeh","name":"katibeh","type":"tuple"},{"internalType":"bytes","name":"sig","type":"bytes"},{"internalType":"bytes","name":"dappData","type":"bytes"}],"stateMutability":"view","type":"function"},{"inputs":[{"internalType":"uint256[]","name":"tokenId","type":"uint256[]"}],"name":"tokensInfoBatch","outputs":[{"components":[{"internalType":"address","name":"creator","type":"address"},{"internalType":"uint256","name":"mintTime","type":"uint256"},{"internalType":"uint256","name":"initTime","type":"uint256"},{"internalType":"uint256","name":"expTime","type":"uint256"},{"internalType":"string","name":"tokenURI","type":"string"},{"internalType":"bytes","name":"data","type":"bytes"},{"internalType":"uint256[]","name":"toTokenId","type":"uint256[]"},{"internalType":"bytes32[]","name":"tags","type":"bytes32[]"},{"components":[{"internalType":"address","name":"addr","type":"address"},{"internalType":"uint16","name":"share","type":"uint16"}],"internalType":"struct DataStorage.Payee[]","name":"owners","type":"tuple[]"}],"internalType":"struct DataStorage.Katibeh[]","name":"katibeh","type":"tuple[]"},{"internalType":"bytes[]","name":"sig","type":"bytes[]"},{"internalType":"bytes[]","name":"dappData","type":"bytes[]"}],"stateMutability":"view","type":"function"},{"inputs":[{"internalType":"uint256","name":"tokenId","type":"uint256"}],"name":"uri","outputs":[{"internalType":"string","name":"","type":"string"}],"stateMutability":"view","type":"function"}],"evm":{"bytecode":{"linkReferences":{},"object":"608080604052346100875761268e8181016001600160401b0381118382101761007157829162002702833903906000f0801561006557600880546001600160a01b0319166001600160a01b039290921691909117905560405161267590816200008d8239f35b6040513d6000823e3d90fd5b634e487b7160e01b600052604160045260246000fd5b600080fdfe60806040526004361015610013575b600080fd5b60003560e01c806303c131481461011757806305e6ec4a1461010e57806307d32f2a146101055780630e89341c146100fc5780632b0eca8c146100f357806339b37ab0146100ea5780635c60da1b146100e15780635fd099e6146100d8578063662ec09e146100cf57806378292236146100c6578063958785ea146100bd5780639f9028d5146100b45763cc33c875146100ac57600080fd5b61000e610d5b565b5061000e610d1b565b5061000e610ca9565b5061000e610c7c565b5061000e610c41565b5061000e610c0c565b5061000e610be2565b5061000e610bb0565b5061000e610b47565b5061000e61084e565b5061000e61070f565b5061000e610214565b5061000e610131565b6001600160a01b0381160361000e57565b503461000e57602036600319011261000e5760043561014f81610120565b600554906001600160a01b03908183163303610179576001600160a01b0319909216911617600555005b60405162461bcd60e51b815260206004820152603160248201527f4665654d616e616765723a206f6e6c79207265636569766572312063616e206360448201527068616e676520697473206164647265737360781b6064820152608490fd5b908161012091031261000e5790565b9181601f8401121561000e578235916001600160401b03831161000e576020838186019501011161000e57565b503461000e57608036600319011261000e5760046001600160401b03813560243582811161000e5761024990369085016101d8565b9260443583811161000e5761026190369083016101e7565b9360643590811161000e576102af6102826102b692969396369086016101e7565b9390966102aa6102a56102948b611225565b61029d8c611125565b90858561250e565b61122f565b612607565b841461127b565b6102c660608601354211156112c7565b6040926102d884870135421015611323565b60c086019160005b6102ea84896113a4565b90508110156103d65780610392896103538361031d8961034d6103416103416103346103236103979c61031d878c6113a4565b906113f0565b356000526007602052604060002090565b546001600160a01b031690565b6001600160a01b031690565b946113a4565b895163bd85b03960e01b81529035818a01908152602092839183919082908190850103915afa9182156103c9575b60009261039c575b5050151561140e565b611388565b6102e0565b6103bb9250803d106103c2575b6103b38183610e21565b810190610e42565b3880610389565b503d6103a9565b6103d1610e51565b610381565b508490866001600160a01b0389878261040e6103346103f485611225565b6001600160a01b0316600090815260066020526040902090565b166106e75760085461047c9061042c906001600160a01b0316610341565b61047661046361047161043e87611225565b8b51928391602083016014916bffffffffffffffffffffffff199060601b1681520190565b03601f198101835282610e21565b611480565b906115b4565b926104ac8461048d6103f486611225565b80546001600160a01b0319166001600160a01b03909216919091179055565b808416906104b984611225565b916104cb6104c686611225565b611651565b813b1561000e5760006104f591610561958c51938492839263b2b45df560e01b84528a84016114a3565b038183865af180156106da575b6106c7575b505b169361054d61053160208b8b518093819263bd85b03960e01b83528983019190602083019252565b03818a5afa9081156106ba575b60009161069c575b50156114e8565b61048d896000526007602052604060002090565b61056a82611225565b833b1561000e57865163731133e960e01b81526001600160a01b0390911682820190815260208101899052600560408201526080606082018190526000908201819052908290819060a001038183885af1801561068f575b61067c575b506105d5608083018361155a565b9190843b1561000e5761061b9489600080946106048c5197889687958694634312207160e11b8652850161158c565b03925af1801561066f575b610656575b5085612078565b8161062257005b6106517fe3efb4090b64f6dead06906e59a91359e0c1ca9cad88a633d749431442e5bebf9351928392836115a3565b0390a2005b8061066361066992610dcb565b80610bd7565b86610614565b610677610e51565b61060f565b8061066361068992610dcb565b876105c7565b610697610e51565b6105c2565b6106b4915060203d81116103c2576103b38183610e21565b8b610546565b6106c2610e51565b61053e565b806106636106d492610dcb565b8a610507565b6106e2610e51565b610502565b6105616106f96103346103f485611225565b93808516610509565b359061070d82610120565b565b503461000e57602036600319011261000e576107ee6055603760043561073481610120565b60085460405160609290921b6bffffffffffffffffffffffff1916602083015290610766906104718160348101610463565b60408051733d602d80600a3d3981f3363d3d373d3d3d363d7360601b8152606093841b6bffffffffffffffffffffffff191660148201526f5af43d82803e903d91602b57fd5bf3ff60801b60288201523090931b6038840152604c830191909152828220606c83015291019190912090516001600160a01b0390911681529081906020820190565b0390f35b60005b8381106108055750506000910152565b81810151838201526020016107f5565b9060209161082e815180928185528580860191016107f2565b601f01601f1916010190565b90602061084b928181520190610815565b90565b503461000e5760208060031936011261000e5760043590600091808352600782528260018060a01b03604082205416916024604051809481936303a24d0760e21b835260048301525afa91821561093e575b83926108b5575b604051806107ee858261083a565b9091503d8084843e6108c78184610e21565b8201918181840312610936578051906001600160401b03821161093a57019082601f83011215610936578151936108fd85610fb3565b9361090b6040519586610e21565b85855282868501011161093357509261092c91846107ee95850191016107f2565b38806108a7565b80fd5b8380fd5b8480fd5b610946610e51565b6108a0565b90815180825260208080930193019160005b82811061096b575050505090565b83518552938101939281019260010161095d565b90815180825260208080930193019160005b82811061099f575050505090565b835180516001600160a01b0316865282015161ffff168583015260409094019392810192600101610991565b80516001600160a01b0316825261084b9190602081015160208301526040810151604083015260608101516060830152610a53610a41610a2f610a1d6080850151610120806080890152870190610815565b60a085015186820360a0880152610815565b60c084015185820360c087015261094b565b60e083015184820360e086015261094b565b91610100809201519181840391015261097f565b908082519081815260208091019281808460051b8301019501936000915b848310610a955750505050505090565b9091929394958480610ab3600193601f198682030187528a51610815565b9801930193019194939290610a85565b919392909360608301906060845285518092526080840160808360051b860101926020809801916000905b828210610b1d575050505090610b0f9161084b959685830390860152610a67565b916040818403910152610a67565b909192948980610b39600193607f198c820301865289516109cb565b970192019201909291610aee565b503461000e57602036600319011261000e576001600160401b0360043581811161000e573660238201121561000e57806004013591821161000e573660248360051b8301011161000e576107ee916024610ba19201612272565b60409391935193849384610ac3565b503461000e57602036600319011261000e576020610bcf600435610ee7565b604051908152f35b600091031261000e57565b503461000e57600036600319011261000e576008546040516001600160a01b039091168152602090f35b503461000e57602036600319011261000e576004356000526007602052602060018060a01b0360406000205416604051908152f35b503461000e57602036600319011261000e576004356001600160401b03811161000e57610bcf610c7760209236906004016101d8565b611125565b503461000e57602036600319011261000e5760043560005260026020526020604060002054604051908152f35b50606036600319011261000e576001600160401b0360243581811161000e57610cd69036906004016101e7565b91906044359282841161000e573660238501121561000e57836004013592831161000e573660248460061b8601011161000e576024610d199401916004356118f7565b005b503461000e57602036600319011261000e576020600435610d3b81610120565b60018060a01b038091166000526006825260406000205416604051908152f35b503461000e57602036600319011261000e57610d98610da66107ee610d8160043561241a565b9193906040519586956060875260608701906109cb565b908582036020870152610815565b908382036040850152610815565b50634e487b7160e01b600052604160045260246000fd5b6001600160401b038111610dde57604052565b610de6610db4565b604052565b604081019081106001600160401b03821117610dde57604052565b606081019081106001600160401b03821117610dde57604052565b90601f801991011681019081106001600160401b03821117610dde57604052565b9081602091031261000e575190565b506040513d6000823e3d90fd5b50634e487b7160e01b600052601160045260246000fd5b91908203918211610e8257565b61070d610e5e565b90670de0b6b3a764000091828102928184041490151715610e8257565b90601982029180830460191490151715610e8257565b906102ee91828102928184041490151715610e8257565b81810292918115918404141715610e8257565b806000526007602052602060018060a01b03604060002054169160246040518094819363bd85b03960e01b835260048301525afa908115610f79575b600091610f5b575b506000906005811115610f575761084b9150600419810190811115610e8a57610f52610e5e565b610e8a565b5090565b610f73915060203d81116103c2576103b38183610e21565b38610f2b565b610f81610e51565b610f23565b6040519061070d82610e06565b6040519061012082018281106001600160401b03821117610dde57604052565b6020906001600160401b038111610fd0575b601f01601f19160190565b610fd8610db4565b610fc5565b9035601e198236030181121561000e5701602081359101916001600160401b03821161000e57813603831361000e57565b908060209392818452848401376000828201840152601f01601f1916010190565b9035601e198236030181121561000e5701602081359101916001600160401b03821161000e578160051b3603831361000e57565b81835290916001600160fb1b03831161000e5760209260051b809284830137010190565b9035601e198236030181121561000e5701602081359101916001600160401b03821161000e578160061b3603831361000e57565b61ffff81160361000e57565b9190808252602080920192916000905b8282106110e5575050505090565b9091929360019085356110f781610120565b828060a01b0316815261ffff83870135611110816110bb565b168184015260409081019501939201906110d7565b60405161121f8161046361119d6020830195602087526111586040850161114b83610702565b6001600160a01b03169052565b6020810135606085015260408101356080850152606081013560a085015261120f6111866080830183610fdd565b9390610120948560c089015261016088019161100e565b916112066111c56111b160a0840184610fdd565b603f198a8803810160e08c0152969161100e565b946111e96111d660c085018561102f565b6101009891888c8403018a8d0152611063565b906111f760e085018561102f565b91878b850301908b0152611063565b93810190611087565b91858403016101408601526110c7565b51902090565b3561084b81610120565b1561123657565b60405162461bcd60e51b815260206004820152601d60248201527f4b6174696265683732313a20496e76616c6964207369676e61747572650000006044820152606490fd5b1561128257565b60405162461bcd60e51b815260206004820152601b60248201527f466163746f7279313135353a2077726f6e6720746f6b656e20696400000000006044820152606490fd5b156112ce57565b60405162461bcd60e51b815260206004820152602760248201527f466163746f7279313135353a20746f6b656e2073616c652074696d6520697320604482015266195e1c1a5c995960ca1b6064820152608490fd5b1561132a57565b60405162461bcd60e51b815260206004820152603060248201527f466163746f7279313135353a20746f6b656e2073616c652074696d652068617360448201526f081b9bdd081cdd185c9d1959081e595d60821b6064820152608490fd5b6001906000198114611398570190565b6113a0610e5e565b0190565b903590601e198136030182121561000e57018035906001600160401b03821161000e57602001918160051b3603831361000e57565b50634e487b7160e01b600052603260045260246000fd5b9190811015611401575b60051b0190565b6114096113d9565b6113fa565b1561141557565b60405162461bcd60e51b815260206004820152603860248201527f466163746f7279313135353a20746f20746f6b656e20696420686173206e6f7460448201527f206d696e746564206f6e2063757272656e7420636861696e00000000000000006064820152608490fd5b602081519101519060208110611494575090565b6000199060200360031b1b1690565b6001600160a01b0390911681526060602082018190526040926114c891830190610815565b90828183039101526007815266096c2e8d2c4cad60cb1b60208201520190565b156114ef57565b60405162461bcd60e51b815260206004820152603760248201527f466163746f7279313135353a207468697320636f6c6c656374696f6e2068617360448201527f206265656e20616c726561647920636f6c6c65637465640000000000000000006064820152608490fd5b903590601e198136030182121561000e57018035906001600160401b03821161000e5760200191813603831361000e57565b60409061084b94928152816020820152019161100e565b91602061084b93818152019161100e565b604051733d602d80600a3d3981f3363d3d373d3d3d363d7360601b815260609190911b60148201526e5af43d82803e903d91602b57fd5bf360881b60288201526037906000f5906001600160a01b0382161561160c57565b60405162461bcd60e51b815260206004820152601760248201527f455243313136373a2063726561746532206661696c65640000000000000000006044820152606490fd5b604051906001600160a01b031661166782610e06565b602a82526040366020840137603061167e836116fe565b53607861168a83611714565b536029905b600182116116a25761084b91501561175f565b80600f6116de921660108110156116e4575b6f181899199a1a9b1b9c1cb0b131b232b360811b901a6116d48486611725565b5360041c91611744565b9061168f565b6116ec6113d9565b6116b4565b91908201809211610e8257565b60209080511561170c570190565b6113a06113d9565b60219080516001101561170c570190565b90602091805182101561173757010190565b61173f6113d9565b010190565b8015611752575b6000190190565b61175a610e5e565b61174b565b1561176657565b606460405162461bcd60e51b815260206004820152602060248201527f537472696e67733a20686578206c656e67746820696e73756666696369656e746044820152fd5b156117b157565b60405162461bcd60e51b815260206004820152603560248201527f466163746f7279313135353a207468697320636f6c6c656374696f6e20686173604482015274206e6f7420636f6c6c6563746564206265666f726560581b6064820152608490fd5b1561181b57565b60405162461bcd60e51b815260206004820152601d60248201527f466163746f7279313135353a20696e73756666696369656e74206665650000006044820152606490fd5b6020906001600160401b0381116118785760051b0190565b611409610db4565b90815461188c81611860565b9260409361189c85519182610e21565b828152809460208092019260005281600020906000935b8585106118c257505050505050565b600184819284516118d281610deb565b61ffff8754858060a01b038116835260a01c16838201528152019301940193916118b3565b93909261199161191a610341610341610334896000526007602052604060002090565b60405163bd85b03960e01b81526004810188905290939061195690602081602481895afa908115611aa6575b600091611a88575b5015156117aa565b61195f87610ee7565b9261196c84341015611814565b61198b60026119858a6000526001602052604060002090565b01611880565b84611b65565b803411611a4c575b50803b1561000e5760405163731133e960e01b81523360048201526024810185905260016044820152608060648201526000608482018190529091829060a490829084905af18015611a3f575b611a2c575b50806119f657505050565b7fe3efb4090b64f6dead06906e59a91359e0c1ca9cad88a633d749431442e5bebf91611a27604051928392836115a3565b0390a2565b80610663611a3992610dcb565b386119eb565b611a47610e51565b6119e6565b60008080611a5b819434610e75565b818115611a7f575b3390f115611a72575b38611999565b611a7a610e51565b611a6c565b506108fc611a63565b611aa0915060203d81116103c2576103b38183610e21565b3861194e565b611aae610e51565b611946565b6020918151811015611ac8575b60051b010190565b611ad06113d9565b611ac0565b9190811015611ae6575b60061b0190565b611aee6113d9565b611adf565b3561084b816110bb565b15611b0457565b60405162461bcd60e51b815260206004820152603360248201527f4665654d616e616765723a20746f74616c206672616374696f6e73206e756d6260448201527206572206d75737420657175616c20313030303606c1b6064820152608490fd5b6005549093929190611b9d906001600160a01b0316611b8e611b8687610ea7565b6103e8900490565b906001600160a01b0316611cdc565b611bd4611bac611b8686610ebd565b94611bce611bbc611b8683610ea7565b611bc8611b8684610ebd565b906116f1565b90610e75565b908051916000805b848110611c76575050505050600092835b838110611c05575050505061271061070d9114611afd565b611c7190610392611c31602097611bc8611c2a8a611c24878c8c611ad5565b01611af3565b61ffff1690565b96611c6b611c63611c5d611c2a611c51611c4c888d8d611ad5565b611225565b94611c24888d8d611ad5565b87610ed4565b612710900490565b90611cdc565b611bed565b611cd790610392611c9e602094611bc8611c2a87611c94878c611ab3565b51015161ffff1690565b93611c6b611c63611cd1611c2a611cc6611cb8888d611ab3565b51516001600160a01b031690565b94611c94888d611ab3565b88610ed4565b611bdc565b6000808093819382908215611d06575b6001600160a01b031690f115611cfe57565b61070d610e51565b6108fc9150611cec565b903590601e198136030182121561000e57018035906001600160401b03821161000e57602001918160061b3603831361000e57565b929192611d5182610fb3565b91611d5f6040519384610e21565b82948184528183011161000e578281602093846000960137010152565b929192611d8882611860565b604092611d9784519283610e21565b819581835260208093019160061b84019381851161000e57915b848310611dc057505050505050565b858383031261000e578386918251611dd781610deb565b8535611de281610120565b815282860135611df1816110bb565b83820152815201920191611db1565b90600182811c92168015611e30575b6020831014611e1a57565b634e487b7160e01b600052602260045260246000fd5b91607f1691611e0f565b90601f8111611e4857505050565b600091825260208220906020601f850160051c83019410611e84575b601f0160051c01915b828110611e7957505050565b818155600101611e6d565b9092508290611e64565b815191680100000000000000008311611f4d575b8154838355808410611f24575b50611ec4602080920192600052602060002090565b6000925b848410611ed6575050505050565b60018382611f18839451868151815460209093015161ffff60a01b60a09190911b166001600160b01b03199093166001600160a01b0390911617919091179055565b01920193019290611ec8565b6000838152846020822092830192015b828110611f42575050611eaf565b818155600101611f34565b611f55610db4565b611ea2565b81518155600191828201602080830151948551916001600160401b038311612056575b611f9183611f8b8654611e00565b86611e3a565b80601f8411600114611fdb5750918080604095936002979561070d9a600094611fd0575b50501b916000199060031b1c19161790555b01519101611e8e565b015192503880611fb5565b9193949596601f198416611ff487600052602060002090565b936000905b82821061203f5750509260409592859261070d9a99966002999610612026575b505050811b019055611fc7565b015160001960f88460031b161c19169055388080612019565b808886978294978701518155019601940190611ff9565b61205e610db4565b611f7d565b81604051928392833781016000815203902090565b9060a0810160608201356120e56120c7612092848661155a565b91906120bb6120a5610100890189611d10565b9190926120b0610f86565b958887523691611d45565b60208501523691611d7c565b60408201526120e0866000526001602052604060002090565b611f5a565b837f0b85051017293732c5b533b177efc66475411a9fdd5fbc8ecb619906658413d661215661212661212061211988611225565b968861155a565b90612063565b604080516020808a01358252898301359082015290810195909552946001600160a01b0316939081906060820190565b0390a460c081019161216883836113a4565b939050600092835b85811061217f57505050505050565b806121916121bc9261031d86866113a4565b35857f65327253f8d67c2e23cb4dfab28ca7437b04e9098cf4e985073d76df25209ad48880a3611388565b612170565b6040519061012082018281106001600160401b0382111761221b575b604052816000815260006020820152600060408201526101006060916000838201528260808201528260a08201528260c08201528260e08201520152565b612223610db4565b6121dd565b9061223282611860565b61223f6040519182610e21565b8281528092612250601f1991611860565b019060005b82811061226157505050565b806060602080938501015201612255565b919061227d81611860565b9161228b6040519384610e21565b818352601f1961229a83611860565b0160005b81811061231057505082936122b283612228565b936122bc84612228565b9360005b8181106122cd5750505050565b806122e56122df61230b9385886113f0565b3561241a565b6122ef848b611ab3565b526122fa838b611ab3565b526123058286611ab3565b52611388565b6122c0565b60209061231b6121c1565b8282880101520161229e565b906040519182600082549261233b84611e00565b9081845260019485811690816000146123a85750600114612365575b505061070d92500383610e21565b9093915060005260209081600020936000915b81831061239057505061070d93508201013880612357565b85548884018501529485019487945091830191612378565b91505061070d94506020925060ff191682840152151560051b8201013880612357565b9060405191828154918282526020928383019160005283600020936000905b8282106124005750505061070d92500383610e21565b8554845260019586019588955093810193909101906123ea565b906124236121c1565b5060609082600052600060205260406000209261243e610f93565b84546001600160a01b03168152600185015460208201526124ba60086002870154966040840197885260038101548785015261247c60048201612327565b608085015261248d60058201612327565b60a085015261249e600682016123cb565b60c08501526124af600782016123cb565b60e085015201611880565b61010082015293514210156124e6575b6124e161084b916000526003602052604060002090565b612327565b915061084b6124e16125056124e1856000526004602052604060002090565b939150506124ca565b61255c91929360405160208101917f19457468657265756d205369676e6564204d6573736167653a0a3332000000008352603c820152603c815261255181610e06565b519020923691611d45565b60418151036125c2576020818101516040808401516060948501518251968752600090811a8786015291860192909252928401528180529160809060015afa156125b5575b6000516001600160a01b0390811691161490565b6125bd610e51565b6125a1565b60405162461bcd60e51b815260206004820152601860248201527f696e76616c6964207369676e6174757265206c656e67746800000000000000006044820152606490fd5b9061121f602c6040518381946020830196873781016b39b0b6b0b7103bb4b639b7b760a11b602082015203600c810184520182610e2156fea2646970667358221220ff4772e274c54b430d669253d1c0cad4612acffb167eb0cf7a693c8fb799885264736f6c63430008110033608034620000e957602081016001600160401b03811182821017620000d357604052600080915262000033600254620000ee565b601f811162000092575b50806002556200004f600454620000ee565b601f81116200006e575b60006004556040516125499081620001458239f35b601f60208360046200008a955220910160051c8101906200012b565b388062000059565b60028252620000cc90601f0160051c7f405787fa12a823e0f2b7631cc41b3ba8828b3321ca811111fa75cd3aa3bb5ace908101906200012b565b386200003d565b634e487b7160e01b600052604160045260246000fd5b600080fd5b90600182811c9216801562000120575b60208310146200010a57565b634e487b7160e01b600052602260045260246000fd5b91607f1691620000fe565b81811062000137575050565b600081556001016200012b56fe6080604052600436101561001257600080fd5b60003560e01c8062fdd58e14611ab957806301ffc9a714611a4b57806306fdde03146119a55780630e89341c146119865780632eb2c2d6146115ab5780634e1273f41461140d5780634f558e79146113df5780636b20c45414611185578063715018a614611123578063731133e914610f0e578063862440e214610d295780638da5cb5b14610cfc57806395d89b4114610c16578063a22cb46514610b32578063b2b45df5146107fb578063bd85b039146107cf578063e985e9c514610779578063f242432a1461039a578063f2fde38b1461030d5763f5298aca146100f757600080fd5b3461030857606036600319011261030857610110611ae8565b60249060448035916001600160a01b031690833533831480156102df575b61013790611db3565b8215926101448415612089565b61014d82612054565b9161015786612054565b94600060405161016681611b4e565b52610285575b60005b8351811015610208576101828185611d89565b5161018d8288611d89565b51908060005260036020818152604060002054928484106101c657906101c195949392916000525203604060002055611d64565b61016f565b506084906000805160206124f48339815191528a60288f6040519462461bcd60e51b8652600486015284015282015267616c537570706c7960c01b6064820152fd5b60008383898184528360205260408420838552602052806040852054610230828210156120e1565b838652856020526040862085875260205203604085205560405191825260208201527fc3d58168c5ae7397731d063d5bbf3d657854427343f4c083240f7aacaa2d0f6260403392a4610283604051611b4e565b005b949195929060005b87518110156102d457806102a46102cf9288611d89565b516102af828b611d89565b5160005260036020526102c86040600020918254611ed0565b9055611d64565b61028d565b50909295919461016c565b5082600052600160205260406000203360005260205261013760ff60406000205416905061012e565b600080fd5b3461030857602036600319011261030857610326611ae8565b61032e61243a565b6001600160a01b038116156103465761028390612495565b60405162461bcd60e51b815260206004820152602660248201527f4f776e61626c653a206e6577206f776e657220697320746865207a65726f206160448201526564647265737360d01b6064820152608490fd5b346103085760a0366003190112610308576103b3611ae8565b6103bb611afe565b90608480356001600160401b038111610308576103dc903690600401611c8d565b6001600160a01b0391908383163314801561074e575b6103fb90611db3565b828516156104098115611e17565b610414604435612054565b61041f606435612054565b918587161561070e575b610660575b5050604435600052602094600086526040600020848616600052865260406000205461045e606435821015611e71565b60443560005260008752604060002085871660005287526064359003604060002055604435600052600086526040600020848216600052865260406000206104a96064358254611ed0565b905560405160443581526064358782015284821690858716907fc3d58168c5ae7397731d063d5bbf3d657854427343f4c083240f7aacaa2d0f6260403392a4803b6104f057005b60a0600061053a958895604051978896879586938563f23a6e6160e01b9d8e87523360048801521660248601526044356044860152606435606486015284015260a4830190611bad565b0393165af160009181610631575b5061060757505060019061055a611fc8565b6308c379a0146105d2575b5061056c57005b60405162461bcd60e51b815260206004820152603460248201527f455243313135353a207472616e7366657220746f206e6f6e20455243313135356044820152732932b1b2b4bb32b91034b6b83632b6b2b73a32b960611b6064820152608490fd5b0390fd5b6105da611fe6565b90816105e65750610565565b6105ce60405192839262461bcd60e51b845260048401526024830190611bad565b6001600160e01b0319161490506102835760405162461bcd60e51b8152806105ce60048201611f7f565b610652919250843d8611610659575b61064a8183611b69565b810190611f5f565b9084610548565b503d610640565b92959194909360005b84518110156106ff5761067c8186611d89565b51906106888188611d89565b518260005260036020526040600020548181106106bc576106b793600052600360205203604060002055611d64565b610669565b60405162461bcd60e51b815260206004820152602860248201526000805160206124f4833981519152604482015267616c537570706c7960c01b60648201528b90fd5b5093509390949150858061042e565b959260009794919592975b8651811015610740578061073061073b928b611d89565b516102af828a611d89565b610719565b509295969194909396610429565b5082841660005260016020526040600020336000526020526103fb60ff6040600020541690506103f2565b3461030857604036600319011261030857610792611ae8565b61079a611afe565b9060018060a01b03809116600052600160205260406000209116600052602052602060ff604060002054166040519015158152f35b346103085760203660031901126103085760043560005260036020526020604060002054604051908152f35b3461030857606036600319011261030857610814611ae8565b6001600160401b039060243582811161030857610835903690600401611c8d565b6044358381116103085761084d903690600401611c8d565b61085e60ff60065460081c16612139565b8151848111610a1d5780610873603954611b14565b93601f94858111610ac4575b50602090858311600114610a3e57600092610a33575b50508160011b916000199060031b1c1916176039555b8051938411610a1d576108bf603a54611b14565b8281116109bb575b50602091841160011461093257610283939160009183610927575b50508160011b916000199060031b1c191617603a555b336bffffffffffffffffffffffff60a01b603854161760385561092260ff60065460081c16612139565b612495565b0151905084806108e2565b90601f19841691603a6000527fa2999d817b6757290b50e8ecf3fa939673403dd35c97de392fdb343b4015ce9e9260005b8181106109a3575091600193918661028397941061098a575b505050811b01603a556108f8565b015160001960f88460031b161c1916905584808061097c565b92936020600181928786015181550195019301610963565b603a6000527fa2999d817b6757290b50e8ecf3fa939673403dd35c97de392fdb343b4015ce9e8380870160051c82019260208810610a14575b0160051c01905b818110610a0857506108c7565b600081556001016109fb565b925081926109f4565b634e487b7160e01b600052604160045260246000fd5b015190508680610895565b603960009081527fdc16fef70f8d5ddbc01ee3d903d1e69c18a3c7be080eb86a81e0578814ee58d39350601f198516905b818110610aac5750908460019594939210610a93575b505050811b016039556108ab565b015160001960f88460031b161c19169055868080610a85565b92936020600181928786015181550195019301610a6f565b90915060396000527fdc16fef70f8d5ddbc01ee3d903d1e69c18a3c7be080eb86a81e0578814ee58d38580850160051c82019260208610610b29575b9085949392910160051c01905b818110610b1a575061087f565b60008155849350600101610b0d565b92508192610b00565b3461030857604036600319011261030857610b4b611ae8565b60243590811515809203610308576001600160a01b031690338214610bbf57336000526001602052604060002082600052602052604060002060ff1981541660ff83161790556040519081527f17307eab39ab6107e8899845ad3d59bd9653f200f220920489ca2b5937696c3160203392a3005b60405162461bcd60e51b815260206004820152602960248201527f455243313135353a2073657474696e6720617070726f76616c20737461747573604482015268103337b91039b2b63360b91b6064820152608490fd5b34610308576000366003190112610308576040516000603a54610c3881611b14565b80845290600190818116908115610cd55750600114610c7a575b610c7684610c6281860382611b69565b604051918291602083526020830190611bad565b0390f35b603a600090815292507fa2999d817b6757290b50e8ecf3fa939673403dd35c97de392fdb343b4015ce9e5b828410610cbd575050508101602001610c6282610c52565b80546020858701810191909152909301928101610ca5565b60ff191660208087019190915292151560051b85019092019250610c629150839050610c52565b346103085760003660031901126103085760065460405160109190911c6001600160a01b03168152602090f35b34610308576040366003190112610308576001600160401b0360043560243582811161030857366023820112156103085780600401359083821161030857366024838301011161030857610d9691610d8c60018060a01b03603854163314612199565b6024369201611c47565b9181600052602090600582526040600020908451908111610a1d57610dbb8254611b14565b601f8111610ec8575b5082601f8211600114610e415781907f6bb7ff708619ba0610cba295a58592e0451dee2622938c8755667688daf3529b9596600092610e36575b50508160011b916000199060031b1c19161790555b610e1c836121fb565b90610e31604051928284938452830190611bad565b0390a2005b015190508680610dfe565b601f1982169583600052846000209660005b818110610eb15750917f6bb7ff708619ba0610cba295a58592e0451dee2622938c8755667688daf3529b969791846001959410610e98575b505050811b019055610e13565b015160001960f88460031b161c19169055868080610e8b565b838301518955600190980197928601928601610e53565b8260005283600020601f830160051c810191858410610f04575b601f0160051c01905b818110610ef85750610dc4565b60008155600101610eeb565b9091508190610ee2565b3461030857608036600319011261030857610f27611ae8565b604435906024356064356001600160401b03811161030857610f4d903690600401611c8d565b9160018060a01b03610f6481603854163314612199565b610f6e8383611cdf565b6110cf57811691821561108057610f8481612054565b92610f8e86612054565b9560005b8551811015610fb95780610fa9610fb4928a611d89565b516102af8289611d89565b610f92565b5085836000526020946000865260406000208460005286526040600020610fe1848254611ed0565b905583600060405187815285898201527fc3d58168c5ae7397731d063d5bbf3d657854427343f4c083240f7aacaa2d0f6260403392a43b61101e57005b611062928592600060405180968195829463f23a6e6160e01b9a8b85523360048601528560248601526044850152606484015260a0608484015260a4830190611bad565b03925af160009181610631575061060757505060019061055a611fc8565b60405162461bcd60e51b815260206004820152602160248201527f455243313135353a206d696e7420746f20746865207a65726f206164647265736044820152607360f81b6064820152608490fd5b60405162461bcd60e51b815260206004820152602660248201527f4d61696e6e65742046617273693a20746f6b656e20636f6c6c656374656420616044820152656c726561647960d01b6064820152608490fd5b346103085760003660031901126103085761113c61243a565b6006805462010000600160b01b0319811690915560009060101c6001600160a01b03167f8be0079c531659141344cd1fd0a4f28419497f9722a3daafe3b4186f6b6457e08280a3005b346103085760603660031901126103085761119e611ae8565b6024906001600160401b03908235828111610308576111c1903690600401611be9565b916044908135908111610308576111dc903690600401611be9565b6001600160a01b039092169233841480156113b6575b6111fb90611db3565b83156112078115612089565b6112148251855114611edd565b600060405161122281611b4e565b5261137e575b60005b81518110156112c45761123e8183611d89565b516112498286611d89565b5190806000526003602081815260406000205492848410611282579061127d95949392916000525203604060002055611d64565b61122b565b60405162461bcd60e51b8152600481018390526028818d01526000805160206124f4833981519152818a015267616c537570706c7960c01b6064820152608490fd5b83828660005b825181101561133957806112e16113349285611d89565b516112ec8287611d89565b519080600052602060008152604060002086600052815260406000205491611316848410156120e1565b60005260008152604060002090866000525203604060002055611d64565b6112ca565b50907f4a39dc06d4c0dbc64b70af90fd698a233a518aa5d07e595d983b8c0526c8f7fb611370600094604051918291339583611f3a565b0390a4610283604051611b4e565b9260009491945b84518110156113ac578061139c6113a79286611d89565b516102af8288611d89565b611385565b5092939093611228565b508360005260016020526040600020336000526020526111fb60ff6040600020541690506111f2565b3461030857602036600319011261030857600435600052600360205260206040600020541515604051908152f35b34610308576040366003190112610308576004356001600160401b0380821161030857366023830112156103085781600401359061144a82611bd2565b926114586040519485611b69565b82845260209260248486019160051b8301019136831161030857602401905b82821061158c5750505060243590811161030857611499903690600401611be9565b8251815103611535578251926114ae84611bd2565b936114bc6040519586611b69565b8085526114cb601f1991611bd2565b01368486013760005b815181101561151e57611519906115096001600160a01b036114f68386611d89565b51166115028387611d89565b5190611cdf565b6115138288611d89565b52611d64565b6114d4565b505050610c76604051928284938452830190611cab565b60405162461bcd60e51b815260048101839052602960248201527f455243313135353a206163636f756e747320616e6420696473206c656e677468604482015268040dad2e6dac2e8c6d60bb1b6064820152608490fd5b81356001600160a01b0381168103610308578152908401908401611477565b346103085760031960a036820112610308576115c5611ae8565b906115ce611afe565b6044908135926001600160401b0393848111610308576115f2903690600401611be9565b606480358681116103085761160b903690600401611be9565b94608496873590811161030857611626903690600401611c8d565b6001600160a01b03948986163314801561195b575b61164490611db3565b6116518551895114611edd565b8587161561165f8115611e17565b868b1615611918575b611863575b60005b855181101561170657806116876117019288611d89565b518c611693838d611d89565b519180600052826020926000845260406000208d82166000528452604060002054906116c183831015611e71565b83600052600085528d60406000209116600052845203604060002055600052600081526040600020908a8c16600052526102c86040600020918254611ed0565b611670565b50888a989796949789604051887f4a39dc06d4c0dbc64b70af90fd698a233a518aa5d07e595d983b8c0526c8f7fb89808d169416928061174887339583611f3a565b0390a4873b61175357005b60405198899788968863bc197c8160e01b9d8e8a523360048b0152166024890152870160a0905260a4870161178791611cab565b9084878303019087015261179a91611cab565b9184830301908401526117ac91611bad565b03921691815a602094600091f160009181611843575b5061181b57505060016117d3611fc8565b6308c379a0146117e4575b61056c57005b6117ec611fe6565b806117f757506117de565b60405162461bcd60e51b8152602060048201529081906105ce906024830190611bad565b6001600160e01b031916146102835760405162461bcd60e51b8152806105ce60048201611f7f565b61185c91925060203d81116106595761064a8183611b69565b90836117c2565b9796949060009993999692965b8551811015611908576118838187611d89565b5161188e8289611d89565b519080600052602060038152604060002054918383106118c7576118c2949392916003916000525203604060002055611d64565b611870565b508b9067616c537570706c7960c01b8f6000805160206124f48339815191528e6040519462461bcd60e51b8652600486015260286024860152840152820152fd5b509094969798929895919561166d565b99969498959392919060005b8a5181101561194c57808b6102af82611940611947958f611d89565b5192611d89565b611924565b50909192939598949699611668565b50858a16600052600160205260406000203360005260205261164460ff60406000205416905061163b565b3461030857602036600319011261030857610c76610c626004356121fb565b346103085760003660031901126103085760405160006039546119c781611b14565b80845290600190818116908115610cd557506001146119f057610c7684610c6281860382611b69565b6039600090815292507fdc16fef70f8d5ddbc01ee3d903d1e69c18a3c7be080eb86a81e0578814ee58d35b828410611a33575050508101602001610c6282610c52565b80546020858701810191909152909301928101611a1b565b346103085760203660031901126103085760043563ffffffff60e01b811680910361030857602090636cdb3d1360e11b8114908115611aa8575b8115611a97575b506040519015158152f35b6301ffc9a760e01b14905082611a8c565b6303a24d0760e21b81149150611a85565b34610308576040366003190112610308576020611ae0611ad7611ae8565b60243590611cdf565b604051908152f35b600435906001600160a01b038216820361030857565b602435906001600160a01b038216820361030857565b90600182811c92168015611b44575b6020831014611b2e57565b634e487b7160e01b600052602260045260246000fd5b91607f1691611b23565b602081019081106001600160401b03821117610a1d57604052565b90601f801991011681019081106001600160401b03821117610a1d57604052565b60005b838110611b9d5750506000910152565b8181015183820152602001611b8d565b90602091611bc681518092818552858086019101611b8a565b601f01601f1916010190565b6001600160401b038111610a1d5760051b60200190565b81601f8201121561030857803591611c0083611bd2565b92611c0e6040519485611b69565b808452602092838086019260051b820101928311610308578301905b828210611c38575050505090565b81358152908301908301611c2a565b9291926001600160401b038211610a1d5760405191611c70601f8201601f191660200184611b69565b829481845281830111610308578281602093846000960137010152565b9080601f8301121561030857816020611ca893359101611c47565b90565b90815180825260208080930193019160005b828110611ccb575050505090565b835185529381019392810192600101611cbd565b6001600160a01b0316908115611d0c57600052600060205260406000209060005260205260406000205490565b60405162461bcd60e51b815260206004820152602a60248201527f455243313135353a2061646472657373207a65726f206973206e6f742061207660448201526930b634b21037bbb732b960b11b6064820152608490fd5b6000198114611d735760010190565b634e487b7160e01b600052601160045260246000fd5b8051821015611d9d5760209160051b010190565b634e487b7160e01b600052603260045260246000fd5b15611dba57565b60405162461bcd60e51b815260206004820152602f60248201527f455243313135353a2063616c6c6572206973206e6f7420746f6b656e206f776e60448201526e195c881b9bdc88185c1c1c9bdd9959608a1b6064820152608490fd5b15611e1e57565b60405162461bcd60e51b815260206004820152602560248201527f455243313135353a207472616e7366657220746f20746865207a65726f206164604482015264647265737360d81b6064820152608490fd5b15611e7857565b60405162461bcd60e51b815260206004820152602a60248201527f455243313135353a20696e73756666696369656e742062616c616e636520666f60448201526939103a3930b739b332b960b11b6064820152608490fd5b91908201809211611d7357565b15611ee457565b60405162461bcd60e51b815260206004820152602860248201527f455243313135353a2069647320616e6420616d6f756e7473206c656e677468206044820152670dad2e6dac2e8c6d60c31b6064820152608490fd5b9091611f51611ca893604084526040840190611cab565b916020818403910152611cab565b9081602091031261030857516001600160e01b0319811681036103085790565b60809060208152602860208201527f455243313135353a204552433131353552656365697665722072656a656374656040820152676420746f6b656e7360c01b60608201520190565b60009060033d11611fd557565b905060046000803e60005160e01c90565b600060443d10611ca857604051600319913d83016004833e81516001600160401b03918282113d6024840111176120435781840194855193841161204b573d850101602084870101116120435750611ca892910160200190611b69565b949350505050565b50949350505050565b60405190604082018281106001600160401b03821117610a1d5760405260018252602082016020368237825115611d9d575290565b1561209057565b60405162461bcd60e51b815260206004820152602360248201527f455243313135353a206275726e2066726f6d20746865207a65726f206164647260448201526265737360e81b6064820152608490fd5b156120e857565b60405162461bcd60e51b8152602060048201526024808201527f455243313135353a206275726e20616d6f756e7420657863656564732062616c604482015263616e636560e01b6064820152608490fd5b1561214057565b60405162461bcd60e51b815260206004820152602b60248201527f496e697469616c697a61626c653a20636f6e7472616374206973206e6f74206960448201526a6e697469616c697a696e6760a81b6064820152608490fd5b156121a057565b60405162461bcd60e51b815260206004820152602d60248201527f4b617469626568313135353a207265737472696374656420616363657373207460448201526c6f2074686520466163746f727960981b6064820152608490fd5b60009081526020906005825260408120906040519080918354928161221f85611b14565b918282528782019660019689888216918260001461241c5750506001146123de575b5061224e92500382611b69565b80511561232357604051948593836004549161226983611b14565b9281811690811561230257506001146122a2575b50505050612293611ca894839251938491611b8a565b0103601f198101835282611b69565b909192969450600482527f8a35acfbc15ff81a39ae7d344fd709f28e8600b4aa8c65c6b64bfe7fe36bd19b5b8383106122ec57505050611ca894612293918501019294388061227d565b80548984018901528896509187019181016122ce565b60ff191688860152505050801515028401019150612293611ca8388061227d565b506040516002549094935084928261233a83611b14565b808652928281169081156123bc5750600114612360575b505050611ca892500382611b69565b600281527f405787fa12a823e0f2b7631cc41b3ba8828b3321ca811111fa75cd3aa3bb5ace95935091905b8183106123a4575050611ca89350820101388080612351565b8554878401850152948501948694509183019161238b565b92505050611ca894925060ff191682840152151560051b820101388080612351565b915050835281868085208686915b85831061240357505061224e935082010138612241565b80919294505483858801015201910187908685936123ec565b60ff19168a5261224e95151560051b85010192503891506122419050565b60065460101c6001600160a01b0316330361245157565b606460405162461bcd60e51b815260206004820152602060248201527f4f776e61626c653a2063616c6c6572206973206e6f7420746865206f776e65726044820152fd5b6006805462010000600160b01b03198116601084811b62010000600160b01b0316919091179092556001600160a01b0392831692911c167f8be0079c531659141344cd1fd0a4f28419497f9722a3daafe3b4186f6b6457e0600080a356fe455243313135353a206275726e20616d6f756e74206578636565647320746f74a264697066735822122082f3af386902e9dc069861d7e7abed2959d627b69cdd5e9f5a756b697fd7c85364736f6c63430008110033","opcodes":"PUSH1 0x80 DUP1 PUSH1 0x40 MSTORE CALLVALUE PUSH2 0x87 JUMPI PUSH2 0x268E DUP2 DUP2 ADD PUSH1 0x1 PUSH1 0x1 PUSH1 0x40 SHL SUB DUP2 GT DUP4 DUP3 LT OR PUSH2 0x71 JUMPI DUP3 SWAP2 PUSH3 0x2702 DUP4 CODECOPY SUB SWAP1 PUSH1 0x0 CREATE DUP1 ISZERO PUSH2 0x65 JUMPI PUSH1 0x8 DUP1 SLOAD PUSH1 0x1 PUSH1 0x1 PUSH1 0xA0 SHL SUB NOT AND PUSH1 0x1 PUSH1 0x1 PUSH1 0xA0 SHL SUB SWAP3 SWAP1 SWAP3 AND SWAP2 SWAP1 SWAP2 OR SWAP1 SSTORE PUSH1 0x40 MLOAD PUSH2 0x2675 SWAP1 DUP2 PUSH3 0x8D DUP3 CODECOPY RETURN JUMPDEST PUSH1 0x40 MLOAD RETURNDATASIZE PUSH1 0x0 DUP3 RETURNDATACOPY RETURNDATASIZE SWAP1 REVERT JUMPDEST PUSH4 0x4E487B71 PUSH1 0xE0 SHL PUSH1 0x0 MSTORE PUSH1 0x41 PUSH1 0x4 MSTORE PUSH1 0x24 PUSH1 0x0 REVERT JUMPDEST PUSH1 0x0 DUP1 REVERT INVALID PUSH1 0x80 PUSH1 0x40 MSTORE PUSH1 0x4 CALLDATASIZE LT ISZERO PUSH2 0x13 JUMPI JUMPDEST PUSH1 0x0 DUP1 REVERT JUMPDEST PUSH1 0x0 CALLDATALOAD PUSH1 0xE0 SHR DUP1 PUSH4 0x3C13148 EQ PUSH2 0x117 JUMPI DUP1 PUSH4 0x5E6EC4A EQ PUSH2 0x10E JUMPI DUP1 PUSH4 0x7D32F2A EQ PUSH2 0x105 JUMPI DUP1 PUSH4 0xE89341C EQ PUSH2 0xFC JUMPI DUP1 PUSH4 0x2B0ECA8C EQ PUSH2 0xF3 JUMPI DUP1 PUSH4 0x39B37AB0 EQ PUSH2 0xEA JUMPI DUP1 PUSH4 0x5C60DA1B EQ PUSH2 0xE1 JUMPI DUP1 PUSH4 0x5FD099E6 EQ PUSH2 0xD8 JUMPI DUP1 PUSH4 0x662EC09E EQ PUSH2 0xCF JUMPI DUP1 PUSH4 0x78292236 EQ PUSH2 0xC6 JUMPI DUP1 PUSH4 0x958785EA EQ PUSH2 0xBD JUMPI DUP1 PUSH4 0x9F9028D5 EQ PUSH2 0xB4 JUMPI PUSH4 0xCC33C875 EQ PUSH2 0xAC JUMPI PUSH1 0x0 DUP1 REVERT JUMPDEST PUSH2 0xE PUSH2 0xD5B JUMP JUMPDEST POP PUSH2 0xE PUSH2 0xD1B JUMP JUMPDEST POP PUSH2 0xE PUSH2 0xCA9 JUMP JUMPDEST POP PUSH2 0xE PUSH2 0xC7C JUMP JUMPDEST POP PUSH2 0xE PUSH2 0xC41 JUMP JUMPDEST POP PUSH2 0xE PUSH2 0xC0C JUMP JUMPDEST POP PUSH2 0xE PUSH2 0xBE2 JUMP JUMPDEST POP PUSH2 0xE PUSH2 0xBB0 JUMP JUMPDEST POP PUSH2 0xE PUSH2 0xB47 JUMP JUMPDEST POP PUSH2 0xE PUSH2 0x84E JUMP JUMPDEST POP PUSH2 0xE PUSH2 0x70F JUMP JUMPDEST POP PUSH2 0xE PUSH2 0x214 JUMP JUMPDEST POP PUSH2 0xE PUSH2 0x131 JUMP JUMPDEST PUSH1 0x1 PUSH1 0x1 PUSH1 0xA0 SHL SUB DUP2 AND SUB PUSH2 0xE JUMPI JUMP JUMPDEST POP CALLVALUE PUSH2 0xE JUMPI PUSH1 0x20 CALLDATASIZE PUSH1 0x3 NOT ADD SLT PUSH2 0xE JUMPI PUSH1 0x4 CALLDATALOAD PUSH2 0x14F DUP2 PUSH2 0x120 JUMP JUMPDEST PUSH1 0x5 SLOAD SWAP1 PUSH1 0x1 PUSH1 0x1 PUSH1 0xA0 SHL SUB SWAP1 DUP2 DUP4 AND CALLER SUB PUSH2 0x179 JUMPI PUSH1 0x1 PUSH1 0x1 PUSH1 0xA0 SHL SUB NOT SWAP1 SWAP3 AND SWAP2 AND OR PUSH1 0x5 SSTORE STOP JUMPDEST PUSH1 0x40 MLOAD PUSH3 0x461BCD PUSH1 0xE5 SHL DUP2 MSTORE PUSH1 0x20 PUSH1 0x4 DUP3 ADD MSTORE PUSH1 0x31 PUSH1 0x24 DUP3 ADD MSTORE PUSH32 0x4665654D616E616765723A206F6E6C79207265636569766572312063616E2063 PUSH1 0x44 DUP3 ADD MSTORE PUSH17 0x68616E6765206974732061646472657373 PUSH1 0x78 SHL PUSH1 0x64 DUP3 ADD MSTORE PUSH1 0x84 SWAP1 REVERT JUMPDEST SWAP1 DUP2 PUSH2 0x120 SWAP2 SUB SLT PUSH2 0xE JUMPI SWAP1 JUMP JUMPDEST SWAP2 DUP2 PUSH1 0x1F DUP5 ADD SLT ISZERO PUSH2 0xE JUMPI DUP3 CALLDATALOAD SWAP2 PUSH1 0x1 PUSH1 0x1 PUSH1 0x40 SHL SUB DUP4 GT PUSH2 0xE JUMPI PUSH1 0x20 DUP4 DUP2 DUP7 ADD SWAP6 ADD ADD GT PUSH2 0xE JUMPI JUMP JUMPDEST POP CALLVALUE PUSH2 0xE JUMPI PUSH1 0x80 CALLDATASIZE PUSH1 0x3 NOT ADD SLT PUSH2 0xE JUMPI PUSH1 0x4 PUSH1 0x1 PUSH1 0x1 PUSH1 0x40 SHL SUB DUP2 CALLDATALOAD PUSH1 0x24 CALLDATALOAD DUP3 DUP2 GT PUSH2 0xE JUMPI PUSH2 0x249 SWAP1 CALLDATASIZE SWAP1 DUP6 ADD PUSH2 0x1D8 JUMP JUMPDEST SWAP3 PUSH1 0x44 CALLDATALOAD DUP4 DUP2 GT PUSH2 0xE JUMPI PUSH2 0x261 SWAP1 CALLDATASIZE SWAP1 DUP4 ADD PUSH2 0x1E7 JUMP JUMPDEST SWAP4 PUSH1 0x64 CALLDATALOAD SWAP1 DUP2 GT PUSH2 0xE JUMPI PUSH2 0x2AF PUSH2 0x282 PUSH2 0x2B6 SWAP3 SWAP7 SWAP4 SWAP7 CALLDATASIZE SWAP1 DUP7 ADD PUSH2 0x1E7 JUMP JUMPDEST SWAP4 SWAP1 SWAP7 PUSH2 0x2AA PUSH2 0x2A5 PUSH2 0x294 DUP12 PUSH2 0x1225 JUMP JUMPDEST PUSH2 0x29D DUP13 PUSH2 0x1125 JUMP JUMPDEST SWAP1 DUP6 DUP6 PUSH2 0x250E JUMP JUMPDEST PUSH2 0x122F JUMP JUMPDEST PUSH2 0x2607 JUMP JUMPDEST DUP5 EQ PUSH2 0x127B JUMP JUMPDEST PUSH2 0x2C6 PUSH1 0x60 DUP7 ADD CALLDATALOAD TIMESTAMP GT ISZERO PUSH2 0x12C7 JUMP JUMPDEST PUSH1 0x40 SWAP3 PUSH2 0x2D8 DUP5 DUP8 ADD CALLDATALOAD TIMESTAMP LT ISZERO PUSH2 0x1323 JUMP JUMPDEST PUSH1 0xC0 DUP7 ADD SWAP2 PUSH1 0x0 JUMPDEST PUSH2 0x2EA DUP5 DUP10 PUSH2 0x13A4 JUMP JUMPDEST SWAP1 POP DUP2 LT ISZERO PUSH2 0x3D6 JUMPI DUP1 PUSH2 0x392 DUP10 PUSH2 0x353 DUP4 PUSH2 0x31D DUP10 PUSH2 0x34D PUSH2 0x341 PUSH2 0x341 PUSH2 0x334 PUSH2 0x323 PUSH2 0x397 SWAP13 PUSH2 0x31D DUP8 DUP13 PUSH2 0x13A4 JUMP JUMPDEST SWAP1 PUSH2 0x13F0 JUMP JUMPDEST CALLDATALOAD PUSH1 0x0 MSTORE PUSH1 0x7 PUSH1 0x20 MSTORE PUSH1 0x40 PUSH1 0x0 KECCAK256 SWAP1 JUMP JUMPDEST SLOAD PUSH1 0x1 PUSH1 0x1 PUSH1 0xA0 SHL SUB AND SWAP1 JUMP JUMPDEST PUSH1 0x1 PUSH1 0x1 PUSH1 0xA0 SHL SUB AND SWAP1 JUMP JUMPDEST SWAP5 PUSH2 0x13A4 JUMP JUMPDEST DUP10 MLOAD PUSH4 0xBD85B039 PUSH1 0xE0 SHL DUP2 MSTORE SWAP1 CALLDATALOAD DUP2 DUP11 ADD SWAP1 DUP2 MSTORE PUSH1 0x20 SWAP3 DUP4 SWAP2 DUP4 SWAP2 SWAP1 DUP3 SWAP1 DUP2 SWAP1 DUP6 ADD SUB SWAP2 GAS STATICCALL SWAP2 DUP3 ISZERO PUSH2 0x3C9 JUMPI JUMPDEST PUSH1 0x0 SWAP3 PUSH2 0x39C JUMPI JUMPDEST POP POP ISZERO ISZERO PUSH2 0x140E JUMP JUMPDEST PUSH2 0x1388 JUMP JUMPDEST PUSH2 0x2E0 JUMP JUMPDEST PUSH2 0x3BB SWAP3 POP DUP1 RETURNDATASIZE LT PUSH2 0x3C2 JUMPI JUMPDEST PUSH2 0x3B3 DUP2 DUP4 PUSH2 0xE21 JUMP JUMPDEST DUP2 ADD SWAP1 PUSH2 0xE42 JUMP JUMPDEST CODESIZE DUP1 PUSH2 0x389 JUMP JUMPDEST POP RETURNDATASIZE PUSH2 0x3A9 JUMP JUMPDEST PUSH2 0x3D1 PUSH2 0xE51 JUMP JUMPDEST PUSH2 0x381 JUMP JUMPDEST POP DUP5 SWAP1 DUP7 PUSH1 0x1 PUSH1 0x1 PUSH1 0xA0 SHL SUB DUP10 DUP8 DUP3 PUSH2 0x40E PUSH2 0x334 PUSH2 0x3F4 DUP6 PUSH2 0x1225 JUMP JUMPDEST PUSH1 0x1 PUSH1 0x1 PUSH1 0xA0 SHL SUB AND PUSH1 0x0 SWAP1 DUP2 MSTORE PUSH1 0x6 PUSH1 0x20 MSTORE PUSH1 0x40 SWAP1 KECCAK256 SWAP1 JUMP JUMPDEST AND PUSH2 0x6E7 JUMPI PUSH1 0x8 SLOAD PUSH2 0x47C SWAP1 PUSH2 0x42C SWAP1 PUSH1 0x1 PUSH1 0x1 PUSH1 0xA0 SHL SUB AND PUSH2 0x341 JUMP JUMPDEST PUSH2 0x476 PUSH2 0x463 PUSH2 0x471 PUSH2 0x43E DUP8 PUSH2 0x1225 JUMP JUMPDEST DUP12 MLOAD SWAP3 DUP4 SWAP2 PUSH1 0x20 DUP4 ADD PUSH1 0x14 SWAP2 PUSH12 0xFFFFFFFFFFFFFFFFFFFFFFFF NOT SWAP1 PUSH1 0x60 SHL AND DUP2 MSTORE ADD SWAP1 JUMP JUMPDEST SUB PUSH1 0x1F NOT DUP2 ADD DUP4 MSTORE DUP3 PUSH2 0xE21 JUMP JUMPDEST PUSH2 0x1480 JUMP JUMPDEST SWAP1 PUSH2 0x15B4 JUMP JUMPDEST SWAP3 PUSH2 0x4AC DUP5 PUSH2 0x48D PUSH2 0x3F4 DUP7 PUSH2 0x1225 JUMP JUMPDEST DUP1 SLOAD PUSH1 0x1 PUSH1 0x1 PUSH1 0xA0 SHL SUB NOT AND PUSH1 0x1 PUSH1 0x1 PUSH1 0xA0 SHL SUB SWAP1 SWAP3 AND SWAP2 SWAP1 SWAP2 OR SWAP1 SSTORE JUMP JUMPDEST DUP1 DUP5 AND SWAP1 PUSH2 0x4B9 DUP5 PUSH2 0x1225 JUMP JUMPDEST SWAP2 PUSH2 0x4CB PUSH2 0x4C6 DUP7 PUSH2 0x1225 JUMP JUMPDEST PUSH2 0x1651 JUMP JUMPDEST DUP2 EXTCODESIZE ISZERO PUSH2 0xE JUMPI PUSH1 0x0 PUSH2 0x4F5 SWAP2 PUSH2 0x561 SWAP6 DUP13 MLOAD SWAP4 DUP5 SWAP3 DUP4 SWAP3 PUSH4 0xB2B45DF5 PUSH1 0xE0 SHL DUP5 MSTORE DUP11 DUP5 ADD PUSH2 0x14A3 JUMP JUMPDEST SUB DUP2 DUP4 DUP7 GAS CALL DUP1 ISZERO PUSH2 0x6DA JUMPI JUMPDEST PUSH2 0x6C7 JUMPI JUMPDEST POP JUMPDEST AND SWAP4 PUSH2 0x54D PUSH2 0x531 PUSH1 0x20 DUP12 DUP12 MLOAD DUP1 SWAP4 DUP2 SWAP3 PUSH4 0xBD85B039 PUSH1 0xE0 SHL DUP4 MSTORE DUP10 DUP4 ADD SWAP2 SWAP1 PUSH1 0x20 DUP4 ADD SWAP3 MSTORE JUMP JUMPDEST SUB DUP2 DUP11 GAS STATICCALL SWAP1 DUP2 ISZERO PUSH2 0x6BA JUMPI JUMPDEST PUSH1 0x0 SWAP2 PUSH2 0x69C JUMPI JUMPDEST POP ISZERO PUSH2 0x14E8 JUMP JUMPDEST PUSH2 0x48D DUP10 PUSH1 0x0 MSTORE PUSH1 0x7 PUSH1 0x20 MSTORE PUSH1 0x40 PUSH1 0x0 KECCAK256 SWAP1 JUMP JUMPDEST PUSH2 0x56A DUP3 PUSH2 0x1225 JUMP JUMPDEST DUP4 EXTCODESIZE ISZERO PUSH2 0xE JUMPI DUP7 MLOAD PUSH4 0x731133E9 PUSH1 0xE0 SHL DUP2 MSTORE PUSH1 0x1 PUSH1 0x1 PUSH1 0xA0 SHL SUB SWAP1 SWAP2 AND DUP3 DUP3 ADD SWAP1 DUP2 MSTORE PUSH1 0x20 DUP2 ADD DUP10 SWAP1 MSTORE PUSH1 0x5 PUSH1 0x40 DUP3 ADD MSTORE PUSH1 0x80 PUSH1 0x60 DUP3 ADD DUP2 SWAP1 MSTORE PUSH1 0x0 SWAP1 DUP3 ADD DUP2 SWAP1 MSTORE SWAP1 DUP3 SWAP1 DUP2 SWAP1 PUSH1 0xA0 ADD SUB DUP2 DUP4 DUP9 GAS CALL DUP1 ISZERO PUSH2 0x68F JUMPI JUMPDEST PUSH2 0x67C JUMPI JUMPDEST POP PUSH2 0x5D5 PUSH1 0x80 DUP4 ADD DUP4 PUSH2 0x155A JUMP JUMPDEST SWAP2 SWAP1 DUP5 EXTCODESIZE ISZERO PUSH2 0xE JUMPI PUSH2 0x61B SWAP5 DUP10 PUSH1 0x0 DUP1 SWAP5 PUSH2 0x604 DUP13 MLOAD SWAP8 DUP9 SWAP7 DUP8 SWAP6 DUP7 SWAP5 PUSH4 0x43122071 PUSH1 0xE1 SHL DUP7 MSTORE DUP6 ADD PUSH2 0x158C JUMP JUMPDEST SUB SWAP3 GAS CALL DUP1 ISZERO PUSH2 0x66F JUMPI JUMPDEST PUSH2 0x656 JUMPI JUMPDEST POP DUP6 PUSH2 0x2078 JUMP JUMPDEST DUP2 PUSH2 0x622 JUMPI STOP JUMPDEST PUSH2 0x651 PUSH32 0xE3EFB4090B64F6DEAD06906E59A91359E0C1CA9CAD88A633D749431442E5BEBF SWAP4 MLOAD SWAP3 DUP4 SWAP3 DUP4 PUSH2 0x15A3 JUMP JUMPDEST SUB SWAP1 LOG2 STOP JUMPDEST DUP1 PUSH2 0x663 PUSH2 0x669 SWAP3 PUSH2 0xDCB JUMP JUMPDEST DUP1 PUSH2 0xBD7 JUMP JUMPDEST DUP7 PUSH2 0x614 JUMP JUMPDEST PUSH2 0x677 PUSH2 0xE51 JUMP JUMPDEST PUSH2 0x60F JUMP JUMPDEST DUP1 PUSH2 0x663 PUSH2 0x689 SWAP3 PUSH2 0xDCB JUMP JUMPDEST DUP8 PUSH2 0x5C7 JUMP JUMPDEST PUSH2 0x697 PUSH2 0xE51 JUMP JUMPDEST PUSH2 0x5C2 JUMP JUMPDEST PUSH2 0x6B4 SWAP2 POP PUSH1 0x20 RETURNDATASIZE DUP2 GT PUSH2 0x3C2 JUMPI PUSH2 0x3B3 DUP2 DUP4 PUSH2 0xE21 JUMP JUMPDEST DUP12 PUSH2 0x546 JUMP JUMPDEST PUSH2 0x6C2 PUSH2 0xE51 JUMP JUMPDEST PUSH2 0x53E JUMP JUMPDEST DUP1 PUSH2 0x663 PUSH2 0x6D4 SWAP3 PUSH2 0xDCB JUMP JUMPDEST DUP11 PUSH2 0x507 JUMP JUMPDEST PUSH2 0x6E2 PUSH2 0xE51 JUMP JUMPDEST PUSH2 0x502 JUMP JUMPDEST PUSH2 0x561 PUSH2 0x6F9 PUSH2 0x334 PUSH2 0x3F4 DUP6 PUSH2 0x1225 JUMP JUMPDEST SWAP4 DUP1 DUP6 AND PUSH2 0x509 JUMP JUMPDEST CALLDATALOAD SWAP1 PUSH2 0x70D DUP3 PUSH2 0x120 JUMP JUMPDEST JUMP JUMPDEST POP CALLVALUE PUSH2 0xE JUMPI PUSH1 0x20 CALLDATASIZE PUSH1 0x3 NOT ADD SLT PUSH2 0xE JUMPI PUSH2 0x7EE PUSH1 0x55 PUSH1 0x37 PUSH1 0x4 CALLDATALOAD PUSH2 0x734 DUP2 PUSH2 0x120 JUMP JUMPDEST PUSH1 0x8 SLOAD PUSH1 0x40 MLOAD PUSH1 0x60 SWAP3 SWAP1 SWAP3 SHL PUSH12 0xFFFFFFFFFFFFFFFFFFFFFFFF NOT AND PUSH1 0x20 DUP4 ADD MSTORE SWAP1 PUSH2 0x766 SWAP1 PUSH2 0x471 DUP2 PUSH1 0x34 DUP2 ADD PUSH2 0x463 JUMP JUMPDEST PUSH1 0x40 DUP1 MLOAD PUSH20 0x3D602D80600A3D3981F3363D3D373D3D3D363D73 PUSH1 0x60 SHL DUP2 MSTORE PUSH1 0x60 SWAP4 DUP5 SHL PUSH12 0xFFFFFFFFFFFFFFFFFFFFFFFF NOT AND PUSH1 0x14 DUP3 ADD MSTORE PUSH16 0x5AF43D82803E903D91602B57FD5BF3FF PUSH1 0x80 SHL PUSH1 0x28 DUP3 ADD MSTORE ADDRESS SWAP1 SWAP4 SHL PUSH1 0x38 DUP5 ADD MSTORE PUSH1 0x4C DUP4 ADD SWAP2 SWAP1 SWAP2 MSTORE DUP3 DUP3 KECCAK256 PUSH1 0x6C DUP4 ADD MSTORE SWAP2 ADD SWAP2 SWAP1 SWAP2 KECCAK256 SWAP1 MLOAD PUSH1 0x1 PUSH1 0x1 PUSH1 0xA0 SHL SUB SWAP1 SWAP2 AND DUP2 MSTORE SWAP1 DUP2 SWAP1 PUSH1 0x20 DUP3 ADD SWAP1 JUMP JUMPDEST SUB SWAP1 RETURN JUMPDEST PUSH1 0x0 JUMPDEST DUP4 DUP2 LT PUSH2 0x805 JUMPI POP POP PUSH1 0x0 SWAP2 ADD MSTORE JUMP JUMPDEST DUP2 DUP2 ADD MLOAD DUP4 DUP3 ADD MSTORE PUSH1 0x20 ADD PUSH2 0x7F5 JUMP JUMPDEST SWAP1 PUSH1 0x20 SWAP2 PUSH2 0x82E DUP2 MLOAD DUP1 SWAP3 DUP2 DUP6 MSTORE DUP6 DUP1 DUP7 ADD SWAP2 ADD PUSH2 0x7F2 JUMP JUMPDEST PUSH1 0x1F ADD PUSH1 0x1F NOT AND ADD ADD SWAP1 JUMP JUMPDEST SWAP1 PUSH1 0x20 PUSH2 0x84B SWAP3 DUP2 DUP2 MSTORE ADD SWAP1 PUSH2 0x815 JUMP JUMPDEST SWAP1 JUMP JUMPDEST POP CALLVALUE PUSH2 0xE JUMPI PUSH1 0x20 DUP1 PUSH1 0x3 NOT CALLDATASIZE ADD SLT PUSH2 0xE JUMPI PUSH1 0x4 CALLDATALOAD SWAP1 PUSH1 0x0 SWAP2 DUP1 DUP4 MSTORE PUSH1 0x7 DUP3 MSTORE DUP3 PUSH1 0x1 DUP1 PUSH1 0xA0 SHL SUB PUSH1 0x40 DUP3 KECCAK256 SLOAD AND SWAP2 PUSH1 0x24 PUSH1 0x40 MLOAD DUP1 SWAP5 DUP2 SWAP4 PUSH4 0x3A24D07 PUSH1 0xE2 SHL DUP4 MSTORE PUSH1 0x4 DUP4 ADD MSTORE GAS STATICCALL SWAP2 DUP3 ISZERO PUSH2 0x93E JUMPI JUMPDEST DUP4 SWAP3 PUSH2 0x8B5 JUMPI JUMPDEST PUSH1 0x40 MLOAD DUP1 PUSH2 0x7EE DUP6 DUP3 PUSH2 0x83A JUMP JUMPDEST SWAP1 SWAP2 POP RETURNDATASIZE DUP1 DUP5 DUP5 RETURNDATACOPY PUSH2 0x8C7 DUP2 DUP5 PUSH2 0xE21 JUMP JUMPDEST DUP3 ADD SWAP2 DUP2 DUP2 DUP5 SUB SLT PUSH2 0x936 JUMPI DUP1 MLOAD SWAP1 PUSH1 0x1 PUSH1 0x1 PUSH1 0x40 SHL SUB DUP3 GT PUSH2 0x93A JUMPI ADD SWAP1 DUP3 PUSH1 0x1F DUP4 ADD SLT ISZERO PUSH2 0x936 JUMPI DUP2 MLOAD SWAP4 PUSH2 0x8FD DUP6 PUSH2 0xFB3 JUMP JUMPDEST SWAP4 PUSH2 0x90B PUSH1 0x40 MLOAD SWAP6 DUP7 PUSH2 0xE21 JUMP JUMPDEST DUP6 DUP6 MSTORE DUP3 DUP7 DUP6 ADD ADD GT PUSH2 0x933 JUMPI POP SWAP3 PUSH2 0x92C SWAP2 DUP5 PUSH2 0x7EE SWAP6 DUP6 ADD SWAP2 ADD PUSH2 0x7F2 JUMP JUMPDEST CODESIZE DUP1 PUSH2 0x8A7 JUMP JUMPDEST DUP1 REVERT JUMPDEST DUP4 DUP1 REVERT JUMPDEST DUP5 DUP1 REVERT JUMPDEST PUSH2 0x946 PUSH2 0xE51 JUMP JUMPDEST PUSH2 0x8A0 JUMP JUMPDEST SWAP1 DUP2 MLOAD DUP1 DUP3 MSTORE PUSH1 0x20 DUP1 DUP1 SWAP4 ADD SWAP4 ADD SWAP2 PUSH1 0x0 JUMPDEST DUP3 DUP2 LT PUSH2 0x96B JUMPI POP POP POP POP SWAP1 JUMP JUMPDEST DUP4 MLOAD DUP6 MSTORE SWAP4 DUP2 ADD SWAP4 SWAP3 DUP2 ADD SWAP3 PUSH1 0x1 ADD PUSH2 0x95D JUMP JUMPDEST SWAP1 DUP2 MLOAD DUP1 DUP3 MSTORE PUSH1 0x20 DUP1 DUP1 SWAP4 ADD SWAP4 ADD SWAP2 PUSH1 0x0 JUMPDEST DUP3 DUP2 LT PUSH2 0x99F JUMPI POP POP POP POP SWAP1 JUMP JUMPDEST DUP4 MLOAD DUP1 MLOAD PUSH1 0x1 PUSH1 0x1 PUSH1 0xA0 SHL SUB AND DUP7 MSTORE DUP3 ADD MLOAD PUSH2 0xFFFF AND DUP6 DUP4 ADD MSTORE PUSH1 0x40 SWAP1 SWAP5 ADD SWAP4 SWAP3 DUP2 ADD SWAP3 PUSH1 0x1 ADD PUSH2 0x991 JUMP JUMPDEST DUP1 MLOAD PUSH1 0x1 PUSH1 0x1 PUSH1 0xA0 SHL SUB AND DUP3 MSTORE PUSH2 0x84B SWAP2 SWAP1 PUSH1 0x20 DUP2 ADD MLOAD PUSH1 0x20 DUP4 ADD MSTORE PUSH1 0x40 DUP2 ADD MLOAD PUSH1 0x40 DUP4 ADD MSTORE PUSH1 0x60 DUP2 ADD MLOAD PUSH1 0x60 DUP4 ADD MSTORE PUSH2 0xA53 PUSH2 0xA41 PUSH2 0xA2F PUSH2 0xA1D PUSH1 0x80 DUP6 ADD MLOAD PUSH2 0x120 DUP1 PUSH1 0x80 DUP10 ADD MSTORE DUP8 ADD SWAP1 PUSH2 0x815 JUMP JUMPDEST PUSH1 0xA0 DUP6 ADD MLOAD DUP7 DUP3 SUB PUSH1 0xA0 DUP9 ADD MSTORE PUSH2 0x815 JUMP JUMPDEST PUSH1 0xC0 DUP5 ADD MLOAD DUP6 DUP3 SUB PUSH1 0xC0 DUP8 ADD MSTORE PUSH2 0x94B JUMP JUMPDEST PUSH1 0xE0 DUP4 ADD MLOAD DUP5 DUP3 SUB PUSH1 0xE0 DUP7 ADD MSTORE PUSH2 0x94B JUMP JUMPDEST SWAP2 PUSH2 0x100 DUP1 SWAP3 ADD MLOAD SWAP2 DUP2 DUP5 SUB SWAP2 ADD MSTORE PUSH2 0x97F JUMP JUMPDEST SWAP1 DUP1 DUP3 MLOAD SWAP1 DUP2 DUP2 MSTORE PUSH1 0x20 DUP1 SWAP2 ADD SWAP3 DUP2 DUP1 DUP5 PUSH1 0x5 SHL DUP4 ADD ADD SWAP6 ADD SWAP4 PUSH1 0x0 SWAP2 JUMPDEST DUP5 DUP4 LT PUSH2 0xA95 JUMPI POP POP POP POP POP POP SWAP1 JUMP JUMPDEST SWAP1 SWAP2 SWAP3 SWAP4 SWAP5 SWAP6 DUP5 DUP1 PUSH2 0xAB3 PUSH1 0x1 SWAP4 PUSH1 0x1F NOT DUP7 DUP3 SUB ADD DUP8 MSTORE DUP11 MLOAD PUSH2 0x815 JUMP JUMPDEST SWAP9 ADD SWAP4 ADD SWAP4 ADD SWAP2 SWAP5 SWAP4 SWAP3 SWAP1 PUSH2 0xA85 JUMP JUMPDEST SWAP2 SWAP4 SWAP3 SWAP1 SWAP4 PUSH1 0x60 DUP4 ADD SWAP1 PUSH1 0x60 DUP5 MSTORE DUP6 MLOAD DUP1 SWAP3 MSTORE PUSH1 0x80 DUP5 ADD PUSH1 0x80 DUP4 PUSH1 0x5 SHL DUP7 ADD ADD SWAP3 PUSH1 0x20 DUP1 SWAP9 ADD SWAP2 PUSH1 0x0 SWAP1 JUMPDEST DUP3 DUP3 LT PUSH2 0xB1D JUMPI POP POP POP POP SWAP1 PUSH2 0xB0F SWAP2 PUSH2 0x84B SWAP6 SWAP7 DUP6 DUP4 SUB SWAP1 DUP7 ADD MSTORE PUSH2 0xA67 JUMP JUMPDEST SWAP2 PUSH1 0x40 DUP2 DUP5 SUB SWAP2 ADD MSTORE PUSH2 0xA67 JUMP JUMPDEST SWAP1 SWAP2 SWAP3 SWAP5 DUP10 DUP1 PUSH2 0xB39 PUSH1 0x1 SWAP4 PUSH1 0x7F NOT DUP13 DUP3 SUB ADD DUP7 MSTORE DUP10 MLOAD PUSH2 0x9CB JUMP JUMPDEST SWAP8 ADD SWAP3 ADD SWAP3 ADD SWAP1 SWAP3 SWAP2 PUSH2 0xAEE JUMP JUMPDEST POP CALLVALUE PUSH2 0xE JUMPI PUSH1 0x20 CALLDATASIZE PUSH1 0x3 NOT ADD SLT PUSH2 0xE JUMPI PUSH1 0x1 PUSH1 0x1 PUSH1 0x40 SHL SUB PUSH1 0x4 CALLDATALOAD DUP2 DUP2 GT PUSH2 0xE JUMPI CALLDATASIZE PUSH1 0x23 DUP3 ADD SLT ISZERO PUSH2 0xE JUMPI DUP1 PUSH1 0x4 ADD CALLDATALOAD SWAP2 DUP3 GT PUSH2 0xE JUMPI CALLDATASIZE PUSH1 0x24 DUP4 PUSH1 0x5 SHL DUP4 ADD ADD GT PUSH2 0xE JUMPI PUSH2 0x7EE SWAP2 PUSH1 0x24 PUSH2 0xBA1 SWAP3 ADD PUSH2 0x2272 JUMP JUMPDEST PUSH1 0x40 SWAP4 SWAP2 SWAP4 MLOAD SWAP4 DUP5 SWAP4 DUP5 PUSH2 0xAC3 JUMP JUMPDEST POP CALLVALUE PUSH2 0xE JUMPI PUSH1 0x20 CALLDATASIZE PUSH1 0x3 NOT ADD SLT PUSH2 0xE JUMPI PUSH1 0x20 PUSH2 0xBCF PUSH1 0x4 CALLDATALOAD PUSH2 0xEE7 JUMP JUMPDEST PUSH1 0x40 MLOAD SWAP1 DUP2 MSTORE RETURN JUMPDEST PUSH1 0x0 SWAP2 SUB SLT PUSH2 0xE JUMPI JUMP JUMPDEST POP CALLVALUE PUSH2 0xE JUMPI PUSH1 0x0 CALLDATASIZE PUSH1 0x3 NOT ADD SLT PUSH2 0xE JUMPI PUSH1 0x8 SLOAD PUSH1 0x40 MLOAD PUSH1 0x1 PUSH1 0x1 PUSH1 0xA0 SHL SUB SWAP1 SWAP2 AND DUP2 MSTORE PUSH1 0x20 SWAP1 RETURN JUMPDEST POP CALLVALUE PUSH2 0xE JUMPI PUSH1 0x20 CALLDATASIZE PUSH1 0x3 NOT ADD SLT PUSH2 0xE JUMPI PUSH1 0x4 CALLDATALOAD PUSH1 0x0 MSTORE PUSH1 0x7 PUSH1 0x20 MSTORE PUSH1 0x20 PUSH1 0x1 DUP1 PUSH1 0xA0 SHL SUB PUSH1 0x40 PUSH1 0x0 KECCAK256 SLOAD AND PUSH1 0x40 MLOAD SWAP1 DUP2 MSTORE RETURN JUMPDEST POP CALLVALUE PUSH2 0xE JUMPI PUSH1 0x20 CALLDATASIZE PUSH1 0x3 NOT ADD SLT PUSH2 0xE JUMPI PUSH1 0x4 CALLDATALOAD PUSH1 0x1 PUSH1 0x1 PUSH1 0x40 SHL SUB DUP2 GT PUSH2 0xE JUMPI PUSH2 0xBCF PUSH2 0xC77 PUSH1 0x20 SWAP3 CALLDATASIZE SWAP1 PUSH1 0x4 ADD PUSH2 0x1D8 JUMP JUMPDEST PUSH2 0x1125 JUMP JUMPDEST POP CALLVALUE PUSH2 0xE JUMPI PUSH1 0x20 CALLDATASIZE PUSH1 0x3 NOT ADD SLT PUSH2 0xE JUMPI PUSH1 0x4 CALLDATALOAD PUSH1 0x0 MSTORE PUSH1 0x2 PUSH1 0x20 MSTORE PUSH1 0x20 PUSH1 0x40 PUSH1 0x0 KECCAK256 SLOAD PUSH1 0x40 MLOAD SWAP1 DUP2 MSTORE RETURN JUMPDEST POP PUSH1 0x60 CALLDATASIZE PUSH1 0x3 NOT ADD SLT PUSH2 0xE JUMPI PUSH1 0x1 PUSH1 0x1 PUSH1 0x40 SHL SUB PUSH1 0x24 CALLDATALOAD DUP2 DUP2 GT PUSH2 0xE JUMPI PUSH2 0xCD6 SWAP1 CALLDATASIZE SWAP1 PUSH1 0x4 ADD PUSH2 0x1E7 JUMP JUMPDEST SWAP2 SWAP1 PUSH1 0x44 CALLDATALOAD SWAP3 DUP3 DUP5 GT PUSH2 0xE JUMPI CALLDATASIZE PUSH1 0x23 DUP6 ADD SLT ISZERO PUSH2 0xE JUMPI DUP4 PUSH1 0x4 ADD CALLDATALOAD SWAP3 DUP4 GT PUSH2 0xE JUMPI CALLDATASIZE PUSH1 0x24 DUP5 PUSH1 0x6 SHL DUP7 ADD ADD GT PUSH2 0xE JUMPI PUSH1 0x24 PUSH2 0xD19 SWAP5 ADD SWAP2 PUSH1 0x4 CALLDATALOAD PUSH2 0x18F7 JUMP JUMPDEST STOP JUMPDEST POP CALLVALUE PUSH2 0xE JUMPI PUSH1 0x20 CALLDATASIZE PUSH1 0x3 NOT ADD SLT PUSH2 0xE JUMPI PUSH1 0x20 PUSH1 0x4 CALLDATALOAD PUSH2 0xD3B DUP2 PUSH2 0x120 JUMP JUMPDEST PUSH1 0x1 DUP1 PUSH1 0xA0 SHL SUB DUP1 SWAP2 AND PUSH1 0x0 MSTORE PUSH1 0x6 DUP3 MSTORE PUSH1 0x40 PUSH1 0x0 KECCAK256 SLOAD AND PUSH1 0x40 MLOAD SWAP1 DUP2 MSTORE RETURN JUMPDEST POP CALLVALUE PUSH2 0xE JUMPI PUSH1 0x20 CALLDATASIZE PUSH1 0x3 NOT ADD SLT PUSH2 0xE JUMPI PUSH2 0xD98 PUSH2 0xDA6 PUSH2 0x7EE PUSH2 0xD81 PUSH1 0x4 CALLDATALOAD PUSH2 0x241A JUMP JUMPDEST SWAP2 SWAP4 SWAP1 PUSH1 0x40 MLOAD SWAP6 DUP7 SWAP6 PUSH1 0x60 DUP8 MSTORE PUSH1 0x60 DUP8 ADD SWAP1 PUSH2 0x9CB JUMP JUMPDEST SWAP1 DUP6 DUP3 SUB PUSH1 0x20 DUP8 ADD MSTORE PUSH2 0x815 JUMP JUMPDEST SWAP1 DUP4 DUP3 SUB PUSH1 0x40 DUP6 ADD MSTORE PUSH2 0x815 JUMP JUMPDEST POP PUSH4 0x4E487B71 PUSH1 0xE0 SHL PUSH1 0x0 MSTORE PUSH1 0x41 PUSH1 0x4 MSTORE PUSH1 0x24 PUSH1 0x0 REVERT JUMPDEST PUSH1 0x1 PUSH1 0x1 PUSH1 0x40 SHL SUB DUP2 GT PUSH2 0xDDE JUMPI PUSH1 0x40 MSTORE JUMP JUMPDEST PUSH2 0xDE6 PUSH2 0xDB4 JUMP JUMPDEST PUSH1 0x40 MSTORE JUMP JUMPDEST PUSH1 0x40 DUP2 ADD SWAP1 DUP2 LT PUSH1 0x1 PUSH1 0x1 PUSH1 0x40 SHL SUB DUP3 GT OR PUSH2 0xDDE JUMPI PUSH1 0x40 MSTORE JUMP JUMPDEST PUSH1 0x60 DUP2 ADD SWAP1 DUP2 LT PUSH1 0x1 PUSH1 0x1 PUSH1 0x40 SHL SUB DUP3 GT OR PUSH2 0xDDE JUMPI PUSH1 0x40 MSTORE JUMP JUMPDEST SWAP1 PUSH1 0x1F DUP1 NOT SWAP2 ADD AND DUP2 ADD SWAP1 DUP2 LT PUSH1 0x1 PUSH1 0x1 PUSH1 0x40 SHL SUB DUP3 GT OR PUSH2 0xDDE JUMPI PUSH1 0x40 MSTORE JUMP JUMPDEST SWAP1 DUP2 PUSH1 0x20 SWAP2 SUB SLT PUSH2 0xE JUMPI MLOAD SWAP1 JUMP JUMPDEST POP PUSH1 0x40 MLOAD RETURNDATASIZE PUSH1 0x0 DUP3 RETURNDATACOPY RETURNDATASIZE SWAP1 REVERT JUMPDEST POP PUSH4 0x4E487B71 PUSH1 0xE0 SHL PUSH1 0x0 MSTORE PUSH1 0x11 PUSH1 0x4 MSTORE PUSH1 0x24 PUSH1 0x0 REVERT JUMPDEST SWAP2 SWAP1 DUP3 SUB SWAP2 DUP3 GT PUSH2 0xE82 JUMPI JUMP JUMPDEST PUSH2 0x70D PUSH2 0xE5E JUMP JUMPDEST SWAP1 PUSH8 0xDE0B6B3A7640000 SWAP2 DUP3 DUP2 MUL SWAP3 DUP2 DUP5 DIV EQ SWAP1 ISZERO OR ISZERO PUSH2 0xE82 JUMPI JUMP JUMPDEST SWAP1 PUSH1 0x19 DUP3 MUL SWAP2 DUP1 DUP4 DIV PUSH1 0x19 EQ SWAP1 ISZERO OR ISZERO PUSH2 0xE82 JUMPI JUMP JUMPDEST SWAP1 PUSH2 0x2EE SWAP2 DUP3 DUP2 MUL SWAP3 DUP2 DUP5 DIV EQ SWAP1 ISZERO OR ISZERO PUSH2 0xE82 JUMPI JUMP JUMPDEST DUP2 DUP2 MUL SWAP3 SWAP2 DUP2 ISZERO SWAP2 DUP5 DIV EQ OR ISZERO PUSH2 0xE82 JUMPI JUMP JUMPDEST DUP1 PUSH1 0x0 MSTORE PUSH1 0x7 PUSH1 0x20 MSTORE PUSH1 0x20 PUSH1 0x1 DUP1 PUSH1 0xA0 SHL SUB PUSH1 0x40 PUSH1 0x0 KECCAK256 SLOAD AND SWAP2 PUSH1 0x24 PUSH1 0x40 MLOAD DUP1 SWAP5 DUP2 SWAP4 PUSH4 0xBD85B039 PUSH1 0xE0 SHL DUP4 MSTORE PUSH1 0x4 DUP4 ADD MSTORE GAS STATICCALL SWAP1 DUP2 ISZERO PUSH2 0xF79 JUMPI JUMPDEST PUSH1 0x0 SWAP2 PUSH2 0xF5B JUMPI JUMPDEST POP PUSH1 0x0 SWAP1 PUSH1 0x5 DUP2 GT ISZERO PUSH2 0xF57 JUMPI PUSH2 0x84B SWAP2 POP PUSH1 0x4 NOT DUP2 ADD SWAP1 DUP2 GT ISZERO PUSH2 0xE8A JUMPI PUSH2 0xF52 PUSH2 0xE5E JUMP JUMPDEST PUSH2 0xE8A JUMP JUMPDEST POP SWAP1 JUMP JUMPDEST PUSH2 0xF73 SWAP2 POP PUSH1 0x20 RETURNDATASIZE DUP2 GT PUSH2 0x3C2 JUMPI PUSH2 0x3B3 DUP2 DUP4 PUSH2 0xE21 JUMP JUMPDEST CODESIZE PUSH2 0xF2B JUMP JUMPDEST PUSH2 0xF81 PUSH2 0xE51 JUMP JUMPDEST PUSH2 0xF23 JUMP JUMPDEST PUSH1 0x40 MLOAD SWAP1 PUSH2 0x70D DUP3 PUSH2 0xE06 JUMP JUMPDEST PUSH1 0x40 MLOAD SWAP1 PUSH2 0x120 DUP3 ADD DUP3 DUP2 LT PUSH1 0x1 PUSH1 0x1 PUSH1 0x40 SHL SUB DUP3 GT OR PUSH2 0xDDE JUMPI PUSH1 0x40 MSTORE JUMP JUMPDEST PUSH1 0x20 SWAP1 PUSH1 0x1 PUSH1 0x1 PUSH1 0x40 SHL SUB DUP2 GT PUSH2 0xFD0 JUMPI JUMPDEST PUSH1 0x1F ADD PUSH1 0x1F NOT AND ADD SWAP1 JUMP JUMPDEST PUSH2 0xFD8 PUSH2 0xDB4 JUMP JUMPDEST PUSH2 0xFC5 JUMP JUMPDEST SWAP1 CALLDATALOAD PUSH1 0x1E NOT DUP3 CALLDATASIZE SUB ADD DUP2 SLT ISZERO PUSH2 0xE JUMPI ADD PUSH1 0x20 DUP2 CALLDATALOAD SWAP2 ADD SWAP2 PUSH1 0x1 PUSH1 0x1 PUSH1 0x40 SHL SUB DUP3 GT PUSH2 0xE JUMPI DUP2 CALLDATASIZE SUB DUP4 SGT PUSH2 0xE JUMPI JUMP JUMPDEST SWAP1 DUP1 PUSH1 0x20 SWAP4 SWAP3 DUP2 DUP5 MSTORE DUP5 DUP5 ADD CALLDATACOPY PUSH1 0x0 DUP3 DUP3 ADD DUP5 ADD MSTORE PUSH1 0x1F ADD PUSH1 0x1F NOT AND ADD ADD SWAP1 JUMP JUMPDEST SWAP1 CALLDATALOAD PUSH1 0x1E NOT DUP3 CALLDATASIZE SUB ADD DUP2 SLT ISZERO PUSH2 0xE JUMPI ADD PUSH1 0x20 DUP2 CALLDATALOAD SWAP2 ADD SWAP2 PUSH1 0x1 PUSH1 0x1 PUSH1 0x40 SHL SUB DUP3 GT PUSH2 0xE JUMPI DUP2 PUSH1 0x5 SHL CALLDATASIZE SUB DUP4 SGT PUSH2 0xE JUMPI JUMP JUMPDEST DUP2 DUP4 MSTORE SWAP1 SWAP2 PUSH1 0x1 PUSH1 0x1 PUSH1 0xFB SHL SUB DUP4 GT PUSH2 0xE JUMPI PUSH1 0x20 SWAP3 PUSH1 0x5 SHL DUP1 SWAP3 DUP5 DUP4 ADD CALLDATACOPY ADD ADD SWAP1 JUMP JUMPDEST SWAP1 CALLDATALOAD PUSH1 0x1E NOT DUP3 CALLDATASIZE SUB ADD DUP2 SLT ISZERO PUSH2 0xE JUMPI ADD PUSH1 0x20 DUP2 CALLDATALOAD SWAP2 ADD SWAP2 PUSH1 0x1 PUSH1 0x1 PUSH1 0x40 SHL SUB DUP3 GT PUSH2 0xE JUMPI DUP2 PUSH1 0x6 SHL CALLDATASIZE SUB DUP4 SGT PUSH2 0xE JUMPI JUMP JUMPDEST PUSH2 0xFFFF DUP2 AND SUB PUSH2 0xE JUMPI JUMP JUMPDEST SWAP2 SWAP1 DUP1 DUP3 MSTORE PUSH1 0x20 DUP1 SWAP3 ADD SWAP3 SWAP2 PUSH1 0x0 SWAP1 JUMPDEST DUP3 DUP3 LT PUSH2 0x10E5 JUMPI POP POP POP POP SWAP1 JUMP JUMPDEST SWAP1 SWAP2 SWAP3 SWAP4 PUSH1 0x1 SWAP1 DUP6 CALLDATALOAD PUSH2 0x10F7 DUP2 PUSH2 0x120 JUMP JUMPDEST DUP3 DUP1 PUSH1 0xA0 SHL SUB AND DUP2 MSTORE PUSH2 0xFFFF DUP4 DUP8 ADD CALLDATALOAD PUSH2 0x1110 DUP2 PUSH2 0x10BB JUMP JUMPDEST AND DUP2 DUP5 ADD MSTORE PUSH1 0x40 SWAP1 DUP2 ADD SWAP6 ADD SWAP4 SWAP3 ADD SWAP1 PUSH2 0x10D7 JUMP JUMPDEST PUSH1 0x40 MLOAD PUSH2 0x121F DUP2 PUSH2 0x463 PUSH2 0x119D PUSH1 0x20 DUP4 ADD SWAP6 PUSH1 0x20 DUP8 MSTORE PUSH2 0x1158 PUSH1 0x40 DUP6 ADD PUSH2 0x114B DUP4 PUSH2 0x702 JUMP JUMPDEST PUSH1 0x1 PUSH1 0x1 PUSH1 0xA0 SHL SUB AND SWAP1 MSTORE JUMP JUMPDEST PUSH1 0x20 DUP2 ADD CALLDATALOAD PUSH1 0x60 DUP6 ADD MSTORE PUSH1 0x40 DUP2 ADD CALLDATALOAD PUSH1 0x80 DUP6 ADD MSTORE PUSH1 0x60 DUP2 ADD CALLDATALOAD PUSH1 0xA0 DUP6 ADD MSTORE PUSH2 0x120F PUSH2 0x1186 PUSH1 0x80 DUP4 ADD DUP4 PUSH2 0xFDD JUMP JUMPDEST SWAP4 SWAP1 PUSH2 0x120 SWAP5 DUP6 PUSH1 0xC0 DUP10 ADD MSTORE PUSH2 0x160 DUP9 ADD SWAP2 PUSH2 0x100E JUMP JUMPDEST SWAP2 PUSH2 0x1206 PUSH2 0x11C5 PUSH2 0x11B1 PUSH1 0xA0 DUP5 ADD DUP5 PUSH2 0xFDD JUMP JUMPDEST PUSH1 0x3F NOT DUP11 DUP9 SUB DUP2 ADD PUSH1 0xE0 DUP13 ADD MSTORE SWAP7 SWAP2 PUSH2 0x100E JUMP JUMPDEST SWAP5 PUSH2 0x11E9 PUSH2 0x11D6 PUSH1 0xC0 DUP6 ADD DUP6 PUSH2 0x102F JUMP JUMPDEST PUSH2 0x100 SWAP9 SWAP2 DUP9 DUP13 DUP5 SUB ADD DUP11 DUP14 ADD MSTORE PUSH2 0x1063 JUMP JUMPDEST SWAP1 PUSH2 0x11F7 PUSH1 0xE0 DUP6 ADD DUP6 PUSH2 0x102F JUMP JUMPDEST SWAP2 DUP8 DUP12 DUP6 SUB ADD SWAP1 DUP12 ADD MSTORE PUSH2 0x1063 JUMP JUMPDEST SWAP4 DUP2 ADD SWAP1 PUSH2 0x1087 JUMP JUMPDEST SWAP2 DUP6 DUP5 SUB ADD PUSH2 0x140 DUP7 ADD MSTORE PUSH2 0x10C7 JUMP JUMPDEST MLOAD SWAP1 KECCAK256 SWAP1 JUMP JUMPDEST CALLDATALOAD PUSH2 0x84B DUP2 PUSH2 0x120 JUMP JUMPDEST ISZERO PUSH2 0x1236 JUMPI JUMP JUMPDEST PUSH1 0x40 MLOAD PUSH3 0x461BCD PUSH1 0xE5 SHL DUP2 MSTORE PUSH1 0x20 PUSH1 0x4 DUP3 ADD MSTORE PUSH1 0x1D PUSH1 0x24 DUP3 ADD MSTORE PUSH32 0x4B6174696265683732313A20496E76616C6964207369676E6174757265000000 PUSH1 0x44 DUP3 ADD MSTORE PUSH1 0x64 SWAP1 REVERT JUMPDEST ISZERO PUSH2 0x1282 JUMPI JUMP JUMPDEST PUSH1 0x40 MLOAD PUSH3 0x461BCD PUSH1 0xE5 SHL DUP2 MSTORE PUSH1 0x20 PUSH1 0x4 DUP3 ADD MSTORE PUSH1 0x1B PUSH1 0x24 DUP3 ADD MSTORE PUSH32 0x466163746F7279313135353A2077726F6E6720746F6B656E2069640000000000 PUSH1 0x44 DUP3 ADD MSTORE PUSH1 0x64 SWAP1 REVERT JUMPDEST ISZERO PUSH2 0x12CE JUMPI JUMP JUMPDEST PUSH1 0x40 MLOAD PUSH3 0x461BCD PUSH1 0xE5 SHL DUP2 MSTORE PUSH1 0x20 PUSH1 0x4 DUP3 ADD MSTORE PUSH1 0x27 PUSH1 0x24 DUP3 ADD MSTORE PUSH32 0x466163746F7279313135353A20746F6B656E2073616C652074696D6520697320 PUSH1 0x44 DUP3 ADD MSTORE PUSH7 0x195E1C1A5C9959 PUSH1 0xCA SHL PUSH1 0x64 DUP3 ADD MSTORE PUSH1 0x84 SWAP1 REVERT JUMPDEST ISZERO PUSH2 0x132A JUMPI JUMP JUMPDEST PUSH1 0x40 MLOAD PUSH3 0x461BCD PUSH1 0xE5 SHL DUP2 MSTORE PUSH1 0x20 PUSH1 0x4 DUP3 ADD MSTORE PUSH1 0x30 PUSH1 0x24 DUP3 ADD MSTORE PUSH32 0x466163746F7279313135353A20746F6B656E2073616C652074696D6520686173 PUSH1 0x44 DUP3 ADD MSTORE PUSH16 0x81B9BDD081CDD185C9D1959081E595D PUSH1 0x82 SHL PUSH1 0x64 DUP3 ADD MSTORE PUSH1 0x84 SWAP1 REVERT JUMPDEST PUSH1 0x1 SWAP1 PUSH1 0x0 NOT DUP2 EQ PUSH2 0x1398 JUMPI ADD SWAP1 JUMP JUMPDEST PUSH2 0x13A0 PUSH2 0xE5E JUMP JUMPDEST ADD SWAP1 JUMP JUMPDEST SWAP1 CALLDATALOAD SWAP1 PUSH1 0x1E NOT DUP2 CALLDATASIZE SUB ADD DUP3 SLT ISZERO PUSH2 0xE JUMPI ADD DUP1 CALLDATALOAD SWAP1 PUSH1 0x1 PUSH1 0x1 PUSH1 0x40 SHL SUB DUP3 GT PUSH2 0xE JUMPI PUSH1 0x20 ADD SWAP2 DUP2 PUSH1 0x5 SHL CALLDATASIZE SUB DUP4 SGT PUSH2 0xE JUMPI JUMP JUMPDEST POP PUSH4 0x4E487B71 PUSH1 0xE0 SHL PUSH1 0x0 MSTORE PUSH1 0x32 PUSH1 0x4 MSTORE PUSH1 0x24 PUSH1 0x0 REVERT JUMPDEST SWAP2 SWAP1 DUP2 LT ISZERO PUSH2 0x1401 JUMPI JUMPDEST PUSH1 0x5 SHL ADD SWAP1 JUMP JUMPDEST PUSH2 0x1409 PUSH2 0x13D9 JUMP JUMPDEST PUSH2 0x13FA JUMP JUMPDEST ISZERO PUSH2 0x1415 JUMPI JUMP JUMPDEST PUSH1 0x40 MLOAD PUSH3 0x461BCD PUSH1 0xE5 SHL DUP2 MSTORE PUSH1 0x20 PUSH1 0x4 DUP3 ADD MSTORE PUSH1 0x38 PUSH1 0x24 DUP3 ADD MSTORE PUSH32 0x466163746F7279313135353A20746F20746F6B656E20696420686173206E6F74 PUSH1 0x44 DUP3 ADD MSTORE PUSH32 0x206D696E746564206F6E2063757272656E7420636861696E0000000000000000 PUSH1 0x64 DUP3 ADD MSTORE PUSH1 0x84 SWAP1 REVERT JUMPDEST PUSH1 0x20 DUP2 MLOAD SWAP2 ADD MLOAD SWAP1 PUSH1 0x20 DUP2 LT PUSH2 0x1494 JUMPI POP SWAP1 JUMP JUMPDEST PUSH1 0x0 NOT SWAP1 PUSH1 0x20 SUB PUSH1 0x3 SHL SHL AND SWAP1 JUMP JUMPDEST PUSH1 0x1 PUSH1 0x1 PUSH1 0xA0 SHL SUB SWAP1 SWAP2 AND DUP2 MSTORE PUSH1 0x60 PUSH1 0x20 DUP3 ADD DUP2 SWAP1 MSTORE PUSH1 0x40 SWAP3 PUSH2 0x14C8 SWAP2 DUP4 ADD SWAP1 PUSH2 0x815 JUMP JUMPDEST SWAP1 DUP3 DUP2 DUP4 SUB SWAP2 ADD MSTORE PUSH1 0x7 DUP2 MSTORE PUSH7 0x96C2E8D2C4CAD PUSH1 0xCB SHL PUSH1 0x20 DUP3 ADD MSTORE ADD SWAP1 JUMP JUMPDEST ISZERO PUSH2 0x14EF JUMPI JUMP JUMPDEST PUSH1 0x40 MLOAD PUSH3 0x461BCD PUSH1 0xE5 SHL DUP2 MSTORE PUSH1 0x20 PUSH1 0x4 DUP3 ADD MSTORE PUSH1 0x37 PUSH1 0x24 DUP3 ADD MSTORE PUSH32 0x466163746F7279313135353A207468697320636F6C6C656374696F6E20686173 PUSH1 0x44 DUP3 ADD MSTORE PUSH32 0x206265656E20616C726561647920636F6C6C6563746564000000000000000000 PUSH1 0x64 DUP3 ADD MSTORE PUSH1 0x84 SWAP1 REVERT JUMPDEST SWAP1 CALLDATALOAD SWAP1 PUSH1 0x1E NOT DUP2 CALLDATASIZE SUB ADD DUP3 SLT ISZERO PUSH2 0xE JUMPI ADD DUP1 CALLDATALOAD SWAP1 PUSH1 0x1 PUSH1 0x1 PUSH1 0x40 SHL SUB DUP3 GT PUSH2 0xE JUMPI PUSH1 0x20 ADD SWAP2 DUP2 CALLDATASIZE SUB DUP4 SGT PUSH2 0xE JUMPI JUMP JUMPDEST PUSH1 0x40 SWAP1 PUSH2 0x84B SWAP5 SWAP3 DUP2 MSTORE DUP2 PUSH1 0x20 DUP3 ADD MSTORE ADD SWAP2 PUSH2 0x100E JUMP JUMPDEST SWAP2 PUSH1 0x20 PUSH2 0x84B SWAP4 DUP2 DUP2 MSTORE ADD SWAP2 PUSH2 0x100E JUMP JUMPDEST PUSH1 0x40 MLOAD PUSH20 0x3D602D80600A3D3981F3363D3D373D3D3D363D73 PUSH1 0x60 SHL DUP2 MSTORE PUSH1 0x60 SWAP2 SWAP1 SWAP2 SHL PUSH1 0x14 DUP3 ADD MSTORE PUSH15 0x5AF43D82803E903D91602B57FD5BF3 PUSH1 0x88 SHL PUSH1 0x28 DUP3 ADD MSTORE PUSH1 0x37 SWAP1 PUSH1 0x0 CREATE2 SWAP1 PUSH1 0x1 PUSH1 0x1 PUSH1 0xA0 SHL SUB DUP3 AND ISZERO PUSH2 0x160C JUMPI JUMP JUMPDEST PUSH1 0x40 MLOAD PUSH3 0x461BCD PUSH1 0xE5 SHL DUP2 MSTORE PUSH1 0x20 PUSH1 0x4 DUP3 ADD MSTORE PUSH1 0x17 PUSH1 0x24 DUP3 ADD MSTORE PUSH32 0x455243313136373A2063726561746532206661696C6564000000000000000000 PUSH1 0x44 DUP3 ADD MSTORE PUSH1 0x64 SWAP1 REVERT JUMPDEST PUSH1 0x40 MLOAD SWAP1 PUSH1 0x1 PUSH1 0x1 PUSH1 0xA0 SHL SUB AND PUSH2 0x1667 DUP3 PUSH2 0xE06 JUMP JUMPDEST PUSH1 0x2A DUP3 MSTORE PUSH1 0x40 CALLDATASIZE PUSH1 0x20 DUP5 ADD CALLDATACOPY PUSH1 0x30 PUSH2 0x167E DUP4 PUSH2 0x16FE JUMP JUMPDEST MSTORE8 PUSH1 0x78 PUSH2 0x168A DUP4 PUSH2 0x1714 JUMP JUMPDEST MSTORE8 PUSH1 0x29 SWAP1 JUMPDEST PUSH1 0x1 DUP3 GT PUSH2 0x16A2 JUMPI PUSH2 0x84B SWAP2 POP ISZERO PUSH2 0x175F JUMP JUMPDEST DUP1 PUSH1 0xF PUSH2 0x16DE SWAP3 AND PUSH1 0x10 DUP2 LT ISZERO PUSH2 0x16E4 JUMPI JUMPDEST PUSH16 0x181899199A1A9B1B9C1CB0B131B232B3 PUSH1 0x81 SHL SWAP1 BYTE PUSH2 0x16D4 DUP5 DUP7 PUSH2 0x1725 JUMP JUMPDEST MSTORE8 PUSH1 0x4 SHR SWAP2 PUSH2 0x1744 JUMP JUMPDEST SWAP1 PUSH2 0x168F JUMP JUMPDEST PUSH2 0x16EC PUSH2 0x13D9 JUMP JUMPDEST PUSH2 0x16B4 JUMP JUMPDEST SWAP2 SWAP1 DUP3 ADD DUP1 SWAP3 GT PUSH2 0xE82 JUMPI JUMP JUMPDEST PUSH1 0x20 SWAP1 DUP1 MLOAD ISZERO PUSH2 0x170C JUMPI ADD SWAP1 JUMP JUMPDEST PUSH2 0x13A0 PUSH2 0x13D9 JUMP JUMPDEST PUSH1 0x21 SWAP1 DUP1 MLOAD PUSH1 0x1 LT ISZERO PUSH2 0x170C JUMPI ADD SWAP1 JUMP JUMPDEST SWAP1 PUSH1 0x20 SWAP2 DUP1 MLOAD DUP3 LT ISZERO PUSH2 0x1737 JUMPI ADD ADD SWAP1 JUMP JUMPDEST PUSH2 0x173F PUSH2 0x13D9 JUMP JUMPDEST ADD ADD SWAP1 JUMP JUMPDEST DUP1 ISZERO PUSH2 0x1752 JUMPI JUMPDEST PUSH1 0x0 NOT ADD SWAP1 JUMP JUMPDEST PUSH2 0x175A PUSH2 0xE5E JUMP JUMPDEST PUSH2 0x174B JUMP JUMPDEST ISZERO PUSH2 0x1766 JUMPI JUMP JUMPDEST PUSH1 0x64 PUSH1 0x40 MLOAD PUSH3 0x461BCD PUSH1 0xE5 SHL DUP2 MSTORE PUSH1 0x20 PUSH1 0x4 DUP3 ADD MSTORE PUSH1 0x20 PUSH1 0x24 DUP3 ADD MSTORE PUSH32 0x537472696E67733A20686578206C656E67746820696E73756666696369656E74 PUSH1 0x44 DUP3 ADD MSTORE REVERT JUMPDEST ISZERO PUSH2 0x17B1 JUMPI JUMP JUMPDEST PUSH1 0x40 MLOAD PUSH3 0x461BCD PUSH1 0xE5 SHL DUP2 MSTORE PUSH1 0x20 PUSH1 0x4 DUP3 ADD MSTORE PUSH1 0x35 PUSH1 0x24 DUP3 ADD MSTORE PUSH32 0x466163746F7279313135353A207468697320636F6C6C656374696F6E20686173 PUSH1 0x44 DUP3 ADD MSTORE PUSH21 0x206E6F7420636F6C6C6563746564206265666F7265 PUSH1 0x58 SHL PUSH1 0x64 DUP3 ADD MSTORE PUSH1 0x84 SWAP1 REVERT JUMPDEST ISZERO PUSH2 0x181B JUMPI JUMP JUMPDEST PUSH1 0x40 MLOAD PUSH3 0x461BCD PUSH1 0xE5 SHL DUP2 MSTORE PUSH1 0x20 PUSH1 0x4 DUP3 ADD MSTORE PUSH1 0x1D PUSH1 0x24 DUP3 ADD MSTORE PUSH32 0x466163746F7279313135353A20696E73756666696369656E7420666565000000 PUSH1 0x44 DUP3 ADD MSTORE PUSH1 0x64 SWAP1 REVERT JUMPDEST PUSH1 0x20 SWAP1 PUSH1 0x1 PUSH1 0x1 PUSH1 0x40 SHL SUB DUP2 GT PUSH2 0x1878 JUMPI PUSH1 0x5 SHL ADD SWAP1 JUMP JUMPDEST PUSH2 0x1409 PUSH2 0xDB4 JUMP JUMPDEST SWAP1 DUP2 SLOAD PUSH2 0x188C DUP2 PUSH2 0x1860 JUMP JUMPDEST SWAP3 PUSH1 0x40 SWAP4 PUSH2 0x189C DUP6 MLOAD SWAP2 DUP3 PUSH2 0xE21 JUMP JUMPDEST DUP3 DUP2 MSTORE DUP1 SWAP5 PUSH1 0x20 DUP1 SWAP3 ADD SWAP3 PUSH1 0x0 MSTORE DUP2 PUSH1 0x0 KECCAK256 SWAP1 PUSH1 0x0 SWAP4 JUMPDEST DUP6 DUP6 LT PUSH2 0x18C2 JUMPI POP POP POP POP POP POP JUMP JUMPDEST PUSH1 0x1 DUP5 DUP2 SWAP3 DUP5 MLOAD PUSH2 0x18D2 DUP2 PUSH2 0xDEB JUMP JUMPDEST PUSH2 0xFFFF DUP8 SLOAD DUP6 DUP1 PUSH1 0xA0 SHL SUB DUP2 AND DUP4 MSTORE PUSH1 0xA0 SHR AND DUP4 DUP3 ADD MSTORE DUP2 MSTORE ADD SWAP4 ADD SWAP5 ADD SWAP4 SWAP2 PUSH2 0x18B3 JUMP JUMPDEST SWAP4 SWAP1 SWAP3 PUSH2 0x1991 PUSH2 0x191A PUSH2 0x341 PUSH2 0x341 PUSH2 0x334 DUP10 PUSH1 0x0 MSTORE PUSH1 0x7 PUSH1 0x20 MSTORE PUSH1 0x40 PUSH1 0x0 KECCAK256 SWAP1 JUMP JUMPDEST PUSH1 0x40 MLOAD PUSH4 0xBD85B039 PUSH1 0xE0 SHL DUP2 MSTORE PUSH1 0x4 DUP2 ADD DUP9 SWAP1 MSTORE SWAP1 SWAP4 SWAP1 PUSH2 0x1956 SWAP1 PUSH1 0x20 DUP2 PUSH1 0x24 DUP2 DUP10 GAS STATICCALL SWAP1 DUP2 ISZERO PUSH2 0x1AA6 JUMPI JUMPDEST PUSH1 0x0 SWAP2 PUSH2 0x1A88 JUMPI JUMPDEST POP ISZERO ISZERO PUSH2 0x17AA JUMP JUMPDEST PUSH2 0x195F DUP8 PUSH2 0xEE7 JUMP JUMPDEST SWAP3 PUSH2 0x196C DUP5 CALLVALUE LT ISZERO PUSH2 0x1814 JUMP JUMPDEST PUSH2 0x198B PUSH1 0x2 PUSH2 0x1985 DUP11 PUSH1 0x0 MSTORE PUSH1 0x1 PUSH1 0x20 MSTORE PUSH1 0x40 PUSH1 0x0 KECCAK256 SWAP1 JUMP JUMPDEST ADD PUSH2 0x1880 JUMP JUMPDEST DUP5 PUSH2 0x1B65 JUMP JUMPDEST DUP1 CALLVALUE GT PUSH2 0x1A4C JUMPI JUMPDEST POP DUP1 EXTCODESIZE ISZERO PUSH2 0xE JUMPI PUSH1 0x40 MLOAD PUSH4 0x731133E9 PUSH1 0xE0 SHL DUP2 MSTORE CALLER PUSH1 0x4 DUP3 ADD MSTORE PUSH1 0x24 DUP2 ADD DUP6 SWAP1 MSTORE PUSH1 0x1 PUSH1 0x44 DUP3 ADD MSTORE PUSH1 0x80 PUSH1 0x64 DUP3 ADD MSTORE PUSH1 0x0 PUSH1 0x84 DUP3 ADD DUP2 SWAP1 MSTORE SWAP1 SWAP2 DUP3 SWAP1 PUSH1 0xA4 SWAP1 DUP3 SWAP1 DUP5 SWAP1 GAS CALL DUP1 ISZERO PUSH2 0x1A3F JUMPI JUMPDEST PUSH2 0x1A2C JUMPI JUMPDEST POP DUP1 PUSH2 0x19F6 JUMPI POP POP POP JUMP JUMPDEST PUSH32 0xE3EFB4090B64F6DEAD06906E59A91359E0C1CA9CAD88A633D749431442E5BEBF SWAP2 PUSH2 0x1A27 PUSH1 0x40 MLOAD SWAP3 DUP4 SWAP3 DUP4 PUSH2 0x15A3 JUMP JUMPDEST SUB SWAP1 LOG2 JUMP JUMPDEST DUP1 PUSH2 0x663 PUSH2 0x1A39 SWAP3 PUSH2 0xDCB JUMP JUMPDEST CODESIZE PUSH2 0x19EB JUMP JUMPDEST PUSH2 0x1A47 PUSH2 0xE51 JUMP JUMPDEST PUSH2 0x19E6 JUMP JUMPDEST PUSH1 0x0 DUP1 DUP1 PUSH2 0x1A5B DUP2 SWAP5 CALLVALUE PUSH2 0xE75 JUMP JUMPDEST DUP2 DUP2 ISZERO PUSH2 0x1A7F JUMPI JUMPDEST CALLER SWAP1 CALL ISZERO PUSH2 0x1A72 JUMPI JUMPDEST CODESIZE PUSH2 0x1999 JUMP JUMPDEST PUSH2 0x1A7A PUSH2 0xE51 JUMP JUMPDEST PUSH2 0x1A6C JUMP JUMPDEST POP PUSH2 0x8FC PUSH2 0x1A63 JUMP JUMPDEST PUSH2 0x1AA0 SWAP2 POP PUSH1 0x20 RETURNDATASIZE DUP2 GT PUSH2 0x3C2 JUMPI PUSH2 0x3B3 DUP2 DUP4 PUSH2 0xE21 JUMP JUMPDEST CODESIZE PUSH2 0x194E JUMP JUMPDEST PUSH2 0x1AAE PUSH2 0xE51 JUMP JUMPDEST PUSH2 0x1946 JUMP JUMPDEST PUSH1 0x20 SWAP2 DUP2 MLOAD DUP2 LT ISZERO PUSH2 0x1AC8 JUMPI JUMPDEST PUSH1 0x5 SHL ADD ADD SWAP1 JUMP JUMPDEST PUSH2 0x1AD0 PUSH2 0x13D9 JUMP JUMPDEST PUSH2 0x1AC0 JUMP JUMPDEST SWAP2 SWAP1 DUP2 LT ISZERO PUSH2 0x1AE6 JUMPI JUMPDEST PUSH1 0x6 SHL ADD SWAP1 JUMP JUMPDEST PUSH2 0x1AEE PUSH2 0x13D9 JUMP JUMPDEST PUSH2 0x1ADF JUMP JUMPDEST CALLDATALOAD PUSH2 0x84B DUP2 PUSH2 0x10BB JUMP JUMPDEST ISZERO PUSH2 0x1B04 JUMPI JUMP JUMPDEST PUSH1 0x40 MLOAD PUSH3 0x461BCD PUSH1 0xE5 SHL DUP2 MSTORE PUSH1 0x20 PUSH1 0x4 DUP3 ADD MSTORE PUSH1 0x33 PUSH1 0x24 DUP3 ADD MSTORE PUSH32 0x4665654D616E616765723A20746F74616C206672616374696F6E73206E756D62 PUSH1 0x44 DUP3 ADD MSTORE PUSH19 0x6572206D75737420657175616C20313030303 PUSH1 0x6C SHL PUSH1 0x64 DUP3 ADD MSTORE PUSH1 0x84 SWAP1 REVERT JUMPDEST PUSH1 0x5 SLOAD SWAP1 SWAP4 SWAP3 SWAP2 SWAP1 PUSH2 0x1B9D SWAP1 PUSH1 0x1 PUSH1 0x1 PUSH1 0xA0 SHL SUB AND PUSH2 0x1B8E PUSH2 0x1B86 DUP8 PUSH2 0xEA7 JUMP JUMPDEST PUSH2 0x3E8 SWAP1 DIV SWAP1 JUMP JUMPDEST SWAP1 PUSH1 0x1 PUSH1 0x1 PUSH1 0xA0 SHL SUB AND PUSH2 0x1CDC JUMP JUMPDEST PUSH2 0x1BD4 PUSH2 0x1BAC PUSH2 0x1B86 DUP7 PUSH2 0xEBD JUMP JUMPDEST SWAP5 PUSH2 0x1BCE PUSH2 0x1BBC PUSH2 0x1B86 DUP4 PUSH2 0xEA7 JUMP JUMPDEST PUSH2 0x1BC8 PUSH2 0x1B86 DUP5 PUSH2 0xEBD JUMP JUMPDEST SWAP1 PUSH2 0x16F1 JUMP JUMPDEST SWAP1 PUSH2 0xE75 JUMP JUMPDEST SWAP1 DUP1 MLOAD SWAP2 PUSH1 0x0 DUP1 JUMPDEST DUP5 DUP2 LT PUSH2 0x1C76 JUMPI POP POP POP POP POP PUSH1 0x0 SWAP3 DUP4 JUMPDEST DUP4 DUP2 LT PUSH2 0x1C05 JUMPI POP POP POP POP PUSH2 0x2710 PUSH2 0x70D SWAP2 EQ PUSH2 0x1AFD JUMP JUMPDEST PUSH2 0x1C71 SWAP1 PUSH2 0x392 PUSH2 0x1C31 PUSH1 0x20 SWAP8 PUSH2 0x1BC8 PUSH2 0x1C2A DUP11 PUSH2 0x1C24 DUP8 DUP13 DUP13 PUSH2 0x1AD5 JUMP JUMPDEST ADD PUSH2 0x1AF3 JUMP JUMPDEST PUSH2 0xFFFF AND SWAP1 JUMP JUMPDEST SWAP7 PUSH2 0x1C6B PUSH2 0x1C63 PUSH2 0x1C5D PUSH2 0x1C2A PUSH2 0x1C51 PUSH2 0x1C4C DUP9 DUP14 DUP14 PUSH2 0x1AD5 JUMP JUMPDEST PUSH2 0x1225 JUMP JUMPDEST SWAP5 PUSH2 0x1C24 DUP9 DUP14 DUP14 PUSH2 0x1AD5 JUMP JUMPDEST DUP8 PUSH2 0xED4 JUMP JUMPDEST PUSH2 0x2710 SWAP1 DIV SWAP1 JUMP JUMPDEST SWAP1 PUSH2 0x1CDC JUMP JUMPDEST PUSH2 0x1BED JUMP JUMPDEST PUSH2 0x1CD7 SWAP1 PUSH2 0x392 PUSH2 0x1C9E PUSH1 0x20 SWAP5 PUSH2 0x1BC8 PUSH2 0x1C2A DUP8 PUSH2 0x1C94 DUP8 DUP13 PUSH2 0x1AB3 JUMP JUMPDEST MLOAD ADD MLOAD PUSH2 0xFFFF AND SWAP1 JUMP JUMPDEST SWAP4 PUSH2 0x1C6B PUSH2 0x1C63 PUSH2 0x1CD1 PUSH2 0x1C2A PUSH2 0x1CC6 PUSH2 0x1CB8 DUP9 DUP14 PUSH2 0x1AB3 JUMP JUMPDEST MLOAD MLOAD PUSH1 0x1 PUSH1 0x1 PUSH1 0xA0 SHL SUB AND SWAP1 JUMP JUMPDEST SWAP5 PUSH2 0x1C94 DUP9 DUP14 PUSH2 0x1AB3 JUMP JUMPDEST DUP9 PUSH2 0xED4 JUMP JUMPDEST PUSH2 0x1BDC JUMP JUMPDEST PUSH1 0x0 DUP1 DUP1 SWAP4 DUP2 SWAP4 DUP3 SWAP1 DUP3 ISZERO PUSH2 0x1D06 JUMPI JUMPDEST PUSH1 0x1 PUSH1 0x1 PUSH1 0xA0 SHL SUB AND SWAP1 CALL ISZERO PUSH2 0x1CFE JUMPI JUMP JUMPDEST PUSH2 0x70D PUSH2 0xE51 JUMP JUMPDEST PUSH2 0x8FC SWAP2 POP PUSH2 0x1CEC JUMP JUMPDEST SWAP1 CALLDATALOAD SWAP1 PUSH1 0x1E NOT DUP2 CALLDATASIZE SUB ADD DUP3 SLT ISZERO PUSH2 0xE JUMPI ADD DUP1 CALLDATALOAD SWAP1 PUSH1 0x1 PUSH1 0x1 PUSH1 0x40 SHL SUB DUP3 GT PUSH2 0xE JUMPI PUSH1 0x20 ADD SWAP2 DUP2 PUSH1 0x6 SHL CALLDATASIZE SUB DUP4 SGT PUSH2 0xE JUMPI JUMP JUMPDEST SWAP3 SWAP2 SWAP3 PUSH2 0x1D51 DUP3 PUSH2 0xFB3 JUMP JUMPDEST SWAP2 PUSH2 0x1D5F PUSH1 0x40 MLOAD SWAP4 DUP5 PUSH2 0xE21 JUMP JUMPDEST DUP3 SWAP5 DUP2 DUP5 MSTORE DUP2 DUP4 ADD GT PUSH2 0xE JUMPI DUP3 DUP2 PUSH1 0x20 SWAP4 DUP5 PUSH1 0x0 SWAP7 ADD CALLDATACOPY ADD ADD MSTORE JUMP JUMPDEST SWAP3 SWAP2 SWAP3 PUSH2 0x1D88 DUP3 PUSH2 0x1860 JUMP JUMPDEST PUSH1 0x40 SWAP3 PUSH2 0x1D97 DUP5 MLOAD SWAP3 DUP4 PUSH2 0xE21 JUMP JUMPDEST DUP2 SWAP6 DUP2 DUP4 MSTORE PUSH1 0x20 DUP1 SWAP4 ADD SWAP2 PUSH1 0x6 SHL DUP5 ADD SWAP4 DUP2 DUP6 GT PUSH2 0xE JUMPI SWAP2 JUMPDEST DUP5 DUP4 LT PUSH2 0x1DC0 JUMPI POP POP POP POP POP POP JUMP JUMPDEST DUP6 DUP4 DUP4 SUB SLT PUSH2 0xE JUMPI DUP4 DUP7 SWAP2 DUP3 MLOAD PUSH2 0x1DD7 DUP2 PUSH2 0xDEB JUMP JUMPDEST DUP6 CALLDATALOAD PUSH2 0x1DE2 DUP2 PUSH2 0x120 JUMP JUMPDEST DUP2 MSTORE DUP3 DUP7 ADD CALLDATALOAD PUSH2 0x1DF1 DUP2 PUSH2 0x10BB JUMP JUMPDEST DUP4 DUP3 ADD MSTORE DUP2 MSTORE ADD SWAP3 ADD SWAP2 PUSH2 0x1DB1 JUMP JUMPDEST SWAP1 PUSH1 0x1 DUP3 DUP2 SHR SWAP3 AND DUP1 ISZERO PUSH2 0x1E30 JUMPI JUMPDEST PUSH1 0x20 DUP4 LT EQ PUSH2 0x1E1A JUMPI JUMP JUMPDEST PUSH4 0x4E487B71 PUSH1 0xE0 SHL PUSH1 0x0 MSTORE PUSH1 0x22 PUSH1 0x4 MSTORE PUSH1 0x24 PUSH1 0x0 REVERT JUMPDEST SWAP2 PUSH1 0x7F AND SWAP2 PUSH2 0x1E0F JUMP JUMPDEST SWAP1 PUSH1 0x1F DUP2 GT PUSH2 0x1E48 JUMPI POP POP POP JUMP JUMPDEST PUSH1 0x0 SWAP2 DUP3 MSTORE PUSH1 0x20 DUP3 KECCAK256 SWAP1 PUSH1 0x20 PUSH1 0x1F DUP6 ADD PUSH1 0x5 SHR DUP4 ADD SWAP5 LT PUSH2 0x1E84 JUMPI JUMPDEST PUSH1 0x1F ADD PUSH1 0x5 SHR ADD SWAP2 JUMPDEST DUP3 DUP2 LT PUSH2 0x1E79 JUMPI POP POP POP JUMP JUMPDEST DUP2 DUP2 SSTORE PUSH1 0x1 ADD PUSH2 0x1E6D JUMP JUMPDEST SWAP1 SWAP3 POP DUP3 SWAP1 PUSH2 0x1E64 JUMP JUMPDEST DUP2 MLOAD SWAP2 PUSH9 0x10000000000000000 DUP4 GT PUSH2 0x1F4D JUMPI JUMPDEST DUP2 SLOAD DUP4 DUP4 SSTORE DUP1 DUP5 LT PUSH2 0x1F24 JUMPI JUMPDEST POP PUSH2 0x1EC4 PUSH1 0x20 DUP1 SWAP3 ADD SWAP3 PUSH1 0x0 MSTORE PUSH1 0x20 PUSH1 0x0 KECCAK256 SWAP1 JUMP JUMPDEST PUSH1 0x0 SWAP3 JUMPDEST DUP5 DUP5 LT PUSH2 0x1ED6 JUMPI POP POP POP POP POP JUMP JUMPDEST PUSH1 0x1 DUP4 DUP3 PUSH2 0x1F18 DUP4 SWAP5 MLOAD DUP7 DUP2 MLOAD DUP2 SLOAD PUSH1 0x20 SWAP1 SWAP4 ADD MLOAD PUSH2 0xFFFF PUSH1 0xA0 SHL PUSH1 0xA0 SWAP2 SWAP1 SWAP2 SHL AND PUSH1 0x1 PUSH1 0x1 PUSH1 0xB0 SHL SUB NOT SWAP1 SWAP4 AND PUSH1 0x1 PUSH1 0x1 PUSH1 0xA0 SHL SUB SWAP1 SWAP2 AND OR SWAP2 SWAP1 SWAP2 OR SWAP1 SSTORE JUMP JUMPDEST ADD SWAP3 ADD SWAP4 ADD SWAP3 SWAP1 PUSH2 0x1EC8 JUMP JUMPDEST PUSH1 0x0 DUP4 DUP2 MSTORE DUP5 PUSH1 0x20 DUP3 KECCAK256 SWAP3 DUP4 ADD SWAP3 ADD JUMPDEST DUP3 DUP2 LT PUSH2 0x1F42 JUMPI POP POP PUSH2 0x1EAF JUMP JUMPDEST DUP2 DUP2 SSTORE PUSH1 0x1 ADD PUSH2 0x1F34 JUMP JUMPDEST PUSH2 0x1F55 PUSH2 0xDB4 JUMP JUMPDEST PUSH2 0x1EA2 JUMP JUMPDEST DUP2 MLOAD DUP2 SSTORE PUSH1 0x1 SWAP2 DUP3 DUP3 ADD PUSH1 0x20 DUP1 DUP4 ADD MLOAD SWAP5 DUP6 MLOAD SWAP2 PUSH1 0x1 PUSH1 0x1 PUSH1 0x40 SHL SUB DUP4 GT PUSH2 0x2056 JUMPI JUMPDEST PUSH2 0x1F91 DUP4 PUSH2 0x1F8B DUP7 SLOAD PUSH2 0x1E00 JUMP JUMPDEST DUP7 PUSH2 0x1E3A JUMP JUMPDEST DUP1 PUSH1 0x1F DUP5 GT PUSH1 0x1 EQ PUSH2 0x1FDB JUMPI POP SWAP2 DUP1 DUP1 PUSH1 0x40 SWAP6 SWAP4 PUSH1 0x2 SWAP8 SWAP6 PUSH2 0x70D SWAP11 PUSH1 0x0 SWAP5 PUSH2 0x1FD0 JUMPI JUMPDEST POP POP SHL SWAP2 PUSH1 0x0 NOT SWAP1 PUSH1 0x3 SHL SHR NOT AND OR SWAP1 SSTORE JUMPDEST ADD MLOAD SWAP2 ADD PUSH2 0x1E8E JUMP JUMPDEST ADD MLOAD SWAP3 POP CODESIZE DUP1 PUSH2 0x1FB5 JUMP JUMPDEST SWAP2 SWAP4 SWAP5 SWAP6 SWAP7 PUSH1 0x1F NOT DUP5 AND PUSH2 0x1FF4 DUP8 PUSH1 0x0 MSTORE PUSH1 0x20 PUSH1 0x0 KECCAK256 SWAP1 JUMP JUMPDEST SWAP4 PUSH1 0x0 SWAP1 JUMPDEST DUP3 DUP3 LT PUSH2 0x203F JUMPI POP POP SWAP3 PUSH1 0x40 SWAP6 SWAP3 DUP6 SWAP3 PUSH2 0x70D SWAP11 SWAP10 SWAP7 PUSH1 0x2 SWAP10 SWAP7 LT PUSH2 0x2026 JUMPI JUMPDEST POP POP POP DUP2 SHL ADD SWAP1 SSTORE PUSH2 0x1FC7 JUMP JUMPDEST ADD MLOAD PUSH1 0x0 NOT PUSH1 0xF8 DUP5 PUSH1 0x3 SHL AND SHR NOT AND SWAP1 SSTORE CODESIZE DUP1 DUP1 PUSH2 0x2019 JUMP JUMPDEST DUP1 DUP9 DUP7 SWAP8 DUP3 SWAP5 SWAP8 DUP8 ADD MLOAD DUP2 SSTORE ADD SWAP7 ADD SWAP5 ADD SWAP1 PUSH2 0x1FF9 JUMP JUMPDEST PUSH2 0x205E PUSH2 0xDB4 JUMP JUMPDEST PUSH2 0x1F7D JUMP JUMPDEST DUP2 PUSH1 0x40 MLOAD SWAP3 DUP4 SWAP3 DUP4 CALLDATACOPY DUP2 ADD PUSH1 0x0 DUP2 MSTORE SUB SWAP1 KECCAK256 SWAP1 JUMP JUMPDEST SWAP1 PUSH1 0xA0 DUP2 ADD PUSH1 0x60 DUP3 ADD CALLDATALOAD PUSH2 0x20E5 PUSH2 0x20C7 PUSH2 0x2092 DUP5 DUP7 PUSH2 0x155A JUMP JUMPDEST SWAP2 SWAP1 PUSH2 0x20BB PUSH2 0x20A5 PUSH2 0x100 DUP10 ADD DUP10 PUSH2 0x1D10 JUMP JUMPDEST SWAP2 SWAP1 SWAP3 PUSH2 0x20B0 PUSH2 0xF86 JUMP JUMPDEST SWAP6 DUP9 DUP8 MSTORE CALLDATASIZE SWAP2 PUSH2 0x1D45 JUMP JUMPDEST PUSH1 0x20 DUP6 ADD MSTORE CALLDATASIZE SWAP2 PUSH2 0x1D7C JUMP JUMPDEST PUSH1 0x40 DUP3 ADD MSTORE PUSH2 0x20E0 DUP7 PUSH1 0x0 MSTORE PUSH1 0x1 PUSH1 0x20 MSTORE PUSH1 0x40 PUSH1 0x0 KECCAK256 SWAP1 JUMP JUMPDEST PUSH2 0x1F5A JUMP JUMPDEST DUP4 PUSH32 0xB85051017293732C5B533B177EFC66475411A9FDD5FBC8ECB619906658413D6 PUSH2 0x2156 PUSH2 0x2126 PUSH2 0x2120 PUSH2 0x2119 DUP9 PUSH2 0x1225 JUMP JUMPDEST SWAP7 DUP9 PUSH2 0x155A JUMP JUMPDEST SWAP1 PUSH2 0x2063 JUMP JUMPDEST PUSH1 0x40 DUP1 MLOAD PUSH1 0x20 DUP1 DUP11 ADD CALLDATALOAD DUP3 MSTORE DUP10 DUP4 ADD CALLDATALOAD SWAP1 DUP3 ADD MSTORE SWAP1 DUP2 ADD SWAP6 SWAP1 SWAP6 MSTORE SWAP5 PUSH1 0x1 PUSH1 0x1 PUSH1 0xA0 SHL SUB AND SWAP4 SWAP1 DUP2 SWAP1 PUSH1 0x60 DUP3 ADD SWAP1 JUMP JUMPDEST SUB SWAP1 LOG4 PUSH1 0xC0 DUP2 ADD SWAP2 PUSH2 0x2168 DUP4 DUP4 PUSH2 0x13A4 JUMP JUMPDEST SWAP4 SWAP1 POP PUSH1 0x0 SWAP3 DUP4 JUMPDEST DUP6 DUP2 LT PUSH2 0x217F JUMPI POP POP POP POP POP POP JUMP JUMPDEST DUP1 PUSH2 0x2191 PUSH2 0x21BC SWAP3 PUSH2 0x31D DUP7 DUP7 PUSH2 0x13A4 JUMP JUMPDEST CALLDATALOAD DUP6 PUSH32 0x65327253F8D67C2E23CB4DFAB28CA7437B04E9098CF4E985073D76DF25209AD4 DUP9 DUP1 LOG3 PUSH2 0x1388 JUMP JUMPDEST PUSH2 0x2170 JUMP JUMPDEST PUSH1 0x40 MLOAD SWAP1 PUSH2 0x120 DUP3 ADD DUP3 DUP2 LT PUSH1 0x1 PUSH1 0x1 PUSH1 0x40 SHL SUB DUP3 GT OR PUSH2 0x221B JUMPI JUMPDEST PUSH1 0x40 MSTORE DUP2 PUSH1 0x0 DUP2 MSTORE PUSH1 0x0 PUSH1 0x20 DUP3 ADD MSTORE PUSH1 0x0 PUSH1 0x40 DUP3 ADD MSTORE PUSH2 0x100 PUSH1 0x60 SWAP2 PUSH1 0x0 DUP4 DUP3 ADD MSTORE DUP3 PUSH1 0x80 DUP3 ADD MSTORE DUP3 PUSH1 0xA0 DUP3 ADD MSTORE DUP3 PUSH1 0xC0 DUP3 ADD MSTORE DUP3 PUSH1 0xE0 DUP3 ADD MSTORE ADD MSTORE JUMP JUMPDEST PUSH2 0x2223 PUSH2 0xDB4 JUMP JUMPDEST PUSH2 0x21DD JUMP JUMPDEST SWAP1 PUSH2 0x2232 DUP3 PUSH2 0x1860 JUMP JUMPDEST PUSH2 0x223F PUSH1 0x40 MLOAD SWAP2 DUP3 PUSH2 0xE21 JUMP JUMPDEST DUP3 DUP2 MSTORE DUP1 SWAP3 PUSH2 0x2250 PUSH1 0x1F NOT SWAP2 PUSH2 0x1860 JUMP JUMPDEST ADD SWAP1 PUSH1 0x0 JUMPDEST DUP3 DUP2 LT PUSH2 0x2261 JUMPI POP POP POP JUMP JUMPDEST DUP1 PUSH1 0x60 PUSH1 0x20 DUP1 SWAP4 DUP6 ADD ADD MSTORE ADD PUSH2 0x2255 JUMP JUMPDEST SWAP2 SWAP1 PUSH2 0x227D DUP2 PUSH2 0x1860 JUMP JUMPDEST SWAP2 PUSH2 0x228B PUSH1 0x40 MLOAD SWAP4 DUP5 PUSH2 0xE21 JUMP JUMPDEST DUP2 DUP4 MSTORE PUSH1 0x1F NOT PUSH2 0x229A DUP4 PUSH2 0x1860 JUMP JUMPDEST ADD PUSH1 0x0 JUMPDEST DUP2 DUP2 LT PUSH2 0x2310 JUMPI POP POP DUP3 SWAP4 PUSH2 0x22B2 DUP4 PUSH2 0x2228 JUMP JUMPDEST SWAP4 PUSH2 0x22BC DUP5 PUSH2 0x2228 JUMP JUMPDEST SWAP4 PUSH1 0x0 JUMPDEST DUP2 DUP2 LT PUSH2 0x22CD JUMPI POP POP POP POP JUMP JUMPDEST DUP1 PUSH2 0x22E5 PUSH2 0x22DF PUSH2 0x230B SWAP4 DUP6 DUP9 PUSH2 0x13F0 JUMP JUMPDEST CALLDATALOAD PUSH2 0x241A JUMP JUMPDEST PUSH2 0x22EF DUP5 DUP12 PUSH2 0x1AB3 JUMP JUMPDEST MSTORE PUSH2 0x22FA DUP4 DUP12 PUSH2 0x1AB3 JUMP JUMPDEST MSTORE PUSH2 0x2305 DUP3 DUP7 PUSH2 0x1AB3 JUMP JUMPDEST MSTORE PUSH2 0x1388 JUMP JUMPDEST PUSH2 0x22C0 JUMP JUMPDEST PUSH1 0x20 SWAP1 PUSH2 0x231B PUSH2 0x21C1 JUMP JUMPDEST DUP3 DUP3 DUP9 ADD ADD MSTORE ADD PUSH2 0x229E JUMP JUMPDEST SWAP1 PUSH1 0x40 MLOAD SWAP2 DUP3 PUSH1 0x0 DUP3 SLOAD SWAP3 PUSH2 0x233B DUP5 PUSH2 0x1E00 JUMP JUMPDEST SWAP1 DUP2 DUP5 MSTORE PUSH1 0x1 SWAP5 DUP6 DUP2 AND SWAP1 DUP2 PUSH1 0x0 EQ PUSH2 0x23A8 JUMPI POP PUSH1 0x1 EQ PUSH2 0x2365 JUMPI JUMPDEST POP POP PUSH2 0x70D SWAP3 POP SUB DUP4 PUSH2 0xE21 JUMP JUMPDEST SWAP1 SWAP4 SWAP2 POP PUSH1 0x0 MSTORE PUSH1 0x20 SWAP1 DUP2 PUSH1 0x0 KECCAK256 SWAP4 PUSH1 0x0 SWAP2 JUMPDEST DUP2 DUP4 LT PUSH2 0x2390 JUMPI POP POP PUSH2 0x70D SWAP4 POP DUP3 ADD ADD CODESIZE DUP1 PUSH2 0x2357 JUMP JUMPDEST DUP6 SLOAD DUP9 DUP5 ADD DUP6 ADD MSTORE SWAP5 DUP6 ADD SWAP5 DUP8 SWAP5 POP SWAP2 DUP4 ADD SWAP2 PUSH2 0x2378 JUMP JUMPDEST SWAP2 POP POP PUSH2 0x70D SWAP5 POP PUSH1 0x20 SWAP3 POP PUSH1 0xFF NOT AND DUP3 DUP5 ADD MSTORE ISZERO ISZERO PUSH1 0x5 SHL DUP3 ADD ADD CODESIZE DUP1 PUSH2 0x2357 JUMP JUMPDEST SWAP1 PUSH1 0x40 MLOAD SWAP2 DUP3 DUP2 SLOAD SWAP2 DUP3 DUP3 MSTORE PUSH1 0x20 SWAP3 DUP4 DUP4 ADD SWAP2 PUSH1 0x0 MSTORE DUP4 PUSH1 0x0 KECCAK256 SWAP4 PUSH1 0x0 SWAP1 JUMPDEST DUP3 DUP3 LT PUSH2 0x2400 JUMPI POP POP POP PUSH2 0x70D SWAP3 POP SUB DUP4 PUSH2 0xE21 JUMP JUMPDEST DUP6 SLOAD DUP5 MSTORE PUSH1 0x1 SWAP6 DUP7 ADD SWAP6 DUP9 SWAP6 POP SWAP4 DUP2 ADD SWAP4 SWAP1 SWAP2 ADD SWAP1 PUSH2 0x23EA JUMP JUMPDEST SWAP1 PUSH2 0x2423 PUSH2 0x21C1 JUMP JUMPDEST POP PUSH1 0x60 SWAP1 DUP3 PUSH1 0x0 MSTORE PUSH1 0x0 PUSH1 0x20 MSTORE PUSH1 0x40 PUSH1 0x0 KECCAK256 SWAP3 PUSH2 0x243E PUSH2 0xF93 JUMP JUMPDEST DUP5 SLOAD PUSH1 0x1 PUSH1 0x1 PUSH1 0xA0 SHL SUB AND DUP2 MSTORE PUSH1 0x1 DUP6 ADD SLOAD PUSH1 0x20 DUP3 ADD MSTORE PUSH2 0x24BA PUSH1 0x8 PUSH1 0x2 DUP8 ADD SLOAD SWAP7 PUSH1 0x40 DUP5 ADD SWAP8 DUP9 MSTORE PUSH1 0x3 DUP2 ADD SLOAD DUP8 DUP6 ADD MSTORE PUSH2 0x247C PUSH1 0x4 DUP3 ADD PUSH2 0x2327 JUMP JUMPDEST PUSH1 0x80 DUP6 ADD MSTORE PUSH2 0x248D PUSH1 0x5 DUP3 ADD PUSH2 0x2327 JUMP JUMPDEST PUSH1 0xA0 DUP6 ADD MSTORE PUSH2 0x249E PUSH1 0x6 DUP3 ADD PUSH2 0x23CB JUMP JUMPDEST PUSH1 0xC0 DUP6 ADD MSTORE PUSH2 0x24AF PUSH1 0x7 DUP3 ADD PUSH2 0x23CB JUMP JUMPDEST PUSH1 0xE0 DUP6 ADD MSTORE ADD PUSH2 0x1880 JUMP JUMPDEST PUSH2 0x100 DUP3 ADD MSTORE SWAP4 MLOAD TIMESTAMP LT ISZERO PUSH2 0x24E6 JUMPI JUMPDEST PUSH2 0x24E1 PUSH2 0x84B SWAP2 PUSH1 0x0 MSTORE PUSH1 0x3 PUSH1 0x20 MSTORE PUSH1 0x40 PUSH1 0x0 KECCAK256 SWAP1 JUMP JUMPDEST PUSH2 0x2327 JUMP JUMPDEST SWAP2 POP PUSH2 0x84B PUSH2 0x24E1 PUSH2 0x2505 PUSH2 0x24E1 DUP6 PUSH1 0x0 MSTORE PUSH1 0x4 PUSH1 0x20 MSTORE PUSH1 0x40 PUSH1 0x0 KECCAK256 SWAP1 JUMP JUMPDEST SWAP4 SWAP2 POP POP PUSH2 0x24CA JUMP JUMPDEST PUSH2 0x255C SWAP2 SWAP3 SWAP4 PUSH1 0x40 MLOAD PUSH1 0x20 DUP2 ADD SWAP2 PUSH32 0x19457468657265756D205369676E6564204D6573736167653A0A333200000000 DUP4 MSTORE PUSH1 0x3C DUP3 ADD MSTORE PUSH1 0x3C DUP2 MSTORE PUSH2 0x2551 DUP2 PUSH2 0xE06 JUMP JUMPDEST MLOAD SWAP1 KECCAK256 SWAP3 CALLDATASIZE SWAP2 PUSH2 0x1D45 JUMP JUMPDEST PUSH1 0x41 DUP2 MLOAD SUB PUSH2 0x25C2 JUMPI PUSH1 0x20 DUP2 DUP2 ADD MLOAD PUSH1 0x40 DUP1 DUP5 ADD MLOAD PUSH1 0x60 SWAP5 DUP6 ADD MLOAD DUP3 MLOAD SWAP7 DUP8 MSTORE PUSH1 0x0 SWAP1 DUP2 BYTE DUP8 DUP7 ADD MSTORE SWAP2 DUP7 ADD SWAP3 SWAP1 SWAP3 MSTORE SWAP3 DUP5 ADD MSTORE DUP2 DUP1 MSTORE SWAP2 PUSH1 0x80 SWAP1 PUSH1 0x1 GAS STATICCALL ISZERO PUSH2 0x25B5 JUMPI JUMPDEST PUSH1 0x0 MLOAD PUSH1 0x1 PUSH1 0x1 PUSH1 0xA0 SHL SUB SWAP1 DUP2 AND SWAP2 AND EQ SWAP1 JUMP JUMPDEST PUSH2 0x25BD PUSH2 0xE51 JUMP JUMPDEST PUSH2 0x25A1 JUMP JUMPDEST PUSH1 0x40 MLOAD PUSH3 0x461BCD PUSH1 0xE5 SHL DUP2 MSTORE PUSH1 0x20 PUSH1 0x4 DUP3 ADD MSTORE PUSH1 0x18 PUSH1 0x24 DUP3 ADD MSTORE PUSH32 0x696E76616C6964207369676E6174757265206C656E6774680000000000000000 PUSH1 0x44 DUP3 ADD MSTORE PUSH1 0x64 SWAP1 REVERT JUMPDEST SWAP1 PUSH2 0x121F PUSH1 0x2C PUSH1 0x40 MLOAD DUP4 DUP2 SWAP5 PUSH1 0x20 DUP4 ADD SWAP7 DUP8 CALLDATACOPY DUP2 ADD PUSH12 0x39B0B6B0B7103BB4B639B7B7 PUSH1 0xA1 SHL PUSH1 0x20 DUP3 ADD MSTORE SUB PUSH1 0xC DUP2 ADD DUP5 MSTORE ADD DUP3 PUSH2 0xE21 JUMP INVALID LOG2 PUSH5 0x6970667358 0x22 SLT KECCAK256 SELFDESTRUCT SELFBALANCE PUSH19 0xE274C54B430D669253D1C0CAD4612ACFFB167E 0xB0 0xCF PUSH27 0x693C8FB799885264736F6C63430008110033608034620000E95760 KECCAK256 DUP2 ADD PUSH1 0x1 PUSH1 0x1 PUSH1 0x40 SHL SUB DUP2 GT DUP3 DUP3 LT OR PUSH3 0xD3 JUMPI PUSH1 0x40 MSTORE PUSH1 0x0 DUP1 SWAP2 MSTORE PUSH3 0x33 PUSH1 0x2 SLOAD PUSH3 0xEE JUMP JUMPDEST PUSH1 0x1F DUP2 GT PUSH3 0x92 JUMPI JUMPDEST POP DUP1 PUSH1 0x2 SSTORE PUSH3 0x4F PUSH1 0x4 SLOAD PUSH3 0xEE JUMP JUMPDEST PUSH1 0x1F DUP2 GT PUSH3 0x6E JUMPI JUMPDEST PUSH1 0x0 PUSH1 0x4 SSTORE PUSH1 0x40 MLOAD PUSH2 0x2549 SWAP1 DUP2 PUSH3 0x145 DUP3 CODECOPY RETURN JUMPDEST PUSH1 0x1F PUSH1 0x20 DUP4 PUSH1 0x4 PUSH3 0x8A SWAP6 MSTORE KECCAK256 SWAP2 ADD PUSH1 0x5 SHR DUP2 ADD SWAP1 PUSH3 0x12B JUMP JUMPDEST CODESIZE DUP1 PUSH3 0x59 JUMP JUMPDEST PUSH1 0x2 DUP3 MSTORE PUSH3 0xCC SWAP1 PUSH1 0x1F ADD PUSH1 0x5 SHR PUSH32 0x405787FA12A823E0F2B7631CC41B3BA8828B3321CA811111FA75CD3AA3BB5ACE SWAP1 DUP2 ADD SWAP1 PUSH3 0x12B JUMP JUMPDEST CODESIZE PUSH3 0x3D JUMP JUMPDEST PUSH4 0x4E487B71 PUSH1 0xE0 SHL PUSH1 0x0 MSTORE PUSH1 0x41 PUSH1 0x4 MSTORE PUSH1 0x24 PUSH1 0x0 REVERT JUMPDEST PUSH1 0x0 DUP1 REVERT JUMPDEST SWAP1 PUSH1 0x1 DUP3 DUP2 SHR SWAP3 AND DUP1 ISZERO PUSH3 0x120 JUMPI JUMPDEST PUSH1 0x20 DUP4 LT EQ PUSH3 0x10A JUMPI JUMP JUMPDEST PUSH4 0x4E487B71 PUSH1 0xE0 SHL PUSH1 0x0 MSTORE PUSH1 0x22 PUSH1 0x4 MSTORE PUSH1 0x24 PUSH1 0x0 REVERT JUMPDEST SWAP2 PUSH1 0x7F AND SWAP2 PUSH3 0xFE JUMP JUMPDEST DUP2 DUP2 LT PUSH3 0x137 JUMPI POP POP JUMP JUMPDEST PUSH1 0x0 DUP2 SSTORE PUSH1 0x1 ADD PUSH3 0x12B JUMP INVALID PUSH1 0x80 PUSH1 0x40 MSTORE PUSH1 0x4 CALLDATASIZE LT ISZERO PUSH2 0x12 JUMPI PUSH1 0x0 DUP1 REVERT JUMPDEST PUSH1 0x0 CALLDATALOAD PUSH1 0xE0 SHR DUP1 PUSH3 0xFDD58E EQ PUSH2 0x1AB9 JUMPI DUP1 PUSH4 0x1FFC9A7 EQ PUSH2 0x1A4B JUMPI DUP1 PUSH4 0x6FDDE03 EQ PUSH2 0x19A5 JUMPI DUP1 PUSH4 0xE89341C EQ PUSH2 0x1986 JUMPI DUP1 PUSH4 0x2EB2C2D6 EQ PUSH2 0x15AB JUMPI DUP1 PUSH4 0x4E1273F4 EQ PUSH2 0x140D JUMPI DUP1 PUSH4 0x4F558E79 EQ PUSH2 0x13DF JUMPI DUP1 PUSH4 0x6B20C454 EQ PUSH2 0x1185 JUMPI DUP1 PUSH4 0x715018A6 EQ PUSH2 0x1123 JUMPI DUP1 PUSH4 0x731133E9 EQ PUSH2 0xF0E JUMPI DUP1 PUSH4 0x862440E2 EQ PUSH2 0xD29 JUMPI DUP1 PUSH4 0x8DA5CB5B EQ PUSH2 0xCFC JUMPI DUP1 PUSH4 0x95D89B41 EQ PUSH2 0xC16 JUMPI DUP1 PUSH4 0xA22CB465 EQ PUSH2 0xB32 JUMPI DUP1 PUSH4 0xB2B45DF5 EQ PUSH2 0x7FB JUMPI DUP1 PUSH4 0xBD85B039 EQ PUSH2 0x7CF JUMPI DUP1 PUSH4 0xE985E9C5 EQ PUSH2 0x779 JUMPI DUP1 PUSH4 0xF242432A EQ PUSH2 0x39A JUMPI DUP1 PUSH4 0xF2FDE38B EQ PUSH2 0x30D JUMPI PUSH4 0xF5298ACA EQ PUSH2 0xF7 JUMPI PUSH1 0x0 DUP1 REVERT JUMPDEST CALLVALUE PUSH2 0x308 JUMPI PUSH1 0x60 CALLDATASIZE PUSH1 0x3 NOT ADD SLT PUSH2 0x308 JUMPI PUSH2 0x110 PUSH2 0x1AE8 JUMP JUMPDEST PUSH1 0x24 SWAP1 PUSH1 0x44 DUP1 CALLDATALOAD SWAP2 PUSH1 0x1 PUSH1 0x1 PUSH1 0xA0 SHL SUB AND SWAP1 DUP4 CALLDATALOAD CALLER DUP4 EQ DUP1 ISZERO PUSH2 0x2DF JUMPI JUMPDEST PUSH2 0x137 SWAP1 PUSH2 0x1DB3 JUMP JUMPDEST DUP3 ISZERO SWAP3 PUSH2 0x144 DUP5 ISZERO PUSH2 0x2089 JUMP JUMPDEST PUSH2 0x14D DUP3 PUSH2 0x2054 JUMP JUMPDEST SWAP2 PUSH2 0x157 DUP7 PUSH2 0x2054 JUMP JUMPDEST SWAP5 PUSH1 0x0 PUSH1 0x40 MLOAD PUSH2 0x166 DUP2 PUSH2 0x1B4E JUMP JUMPDEST MSTORE PUSH2 0x285 JUMPI JUMPDEST PUSH1 0x0 JUMPDEST DUP4 MLOAD DUP2 LT ISZERO PUSH2 0x208 JUMPI PUSH2 0x182 DUP2 DUP6 PUSH2 0x1D89 JUMP JUMPDEST MLOAD PUSH2 0x18D DUP3 DUP9 PUSH2 0x1D89 JUMP JUMPDEST MLOAD SWAP1 DUP1 PUSH1 0x0 MSTORE PUSH1 0x3 PUSH1 0x20 DUP2 DUP2 MSTORE PUSH1 0x40 PUSH1 0x0 KECCAK256 SLOAD SWAP3 DUP5 DUP5 LT PUSH2 0x1C6 JUMPI SWAP1 PUSH2 0x1C1 SWAP6 SWAP5 SWAP4 SWAP3 SWAP2 PUSH1 0x0 MSTORE MSTORE SUB PUSH1 0x40 PUSH1 0x0 KECCAK256 SSTORE PUSH2 0x1D64 JUMP JUMPDEST PUSH2 0x16F JUMP JUMPDEST POP PUSH1 0x84 SWAP1 PUSH1 0x0 DUP1 MLOAD PUSH1 0x20 PUSH2 0x24F4 DUP4 CODECOPY DUP2 MLOAD SWAP2 MSTORE DUP11 PUSH1 0x28 DUP16 PUSH1 0x40 MLOAD SWAP5 PUSH3 0x461BCD PUSH1 0xE5 SHL DUP7 MSTORE PUSH1 0x4 DUP7 ADD MSTORE DUP5 ADD MSTORE DUP3 ADD MSTORE PUSH8 0x616C537570706C79 PUSH1 0xC0 SHL PUSH1 0x64 DUP3 ADD MSTORE REVERT JUMPDEST PUSH1 0x0 DUP4 DUP4 DUP10 DUP2 DUP5 MSTORE DUP4 PUSH1 0x20 MSTORE PUSH1 0x40 DUP5 KECCAK256 DUP4 DUP6 MSTORE PUSH1 0x20 MSTORE DUP1 PUSH1 0x40 DUP6 KECCAK256 SLOAD PUSH2 0x230 DUP3 DUP3 LT ISZERO PUSH2 0x20E1 JUMP JUMPDEST DUP4 DUP7 MSTORE DUP6 PUSH1 0x20 MSTORE PUSH1 0x40 DUP7 KECCAK256 DUP6 DUP8 MSTORE PUSH1 0x20 MSTORE SUB PUSH1 0x40 DUP6 KECCAK256 SSTORE PUSH1 0x40 MLOAD SWAP2 DUP3 MSTORE PUSH1 0x20 DUP3 ADD MSTORE PUSH32 0xC3D58168C5AE7397731D063D5BBF3D657854427343F4C083240F7AACAA2D0F62 PUSH1 0x40 CALLER SWAP3 LOG4 PUSH2 0x283 PUSH1 0x40 MLOAD PUSH2 0x1B4E JUMP JUMPDEST STOP JUMPDEST SWAP5 SWAP2 SWAP6 SWAP3 SWAP1 PUSH1 0x0 JUMPDEST DUP8 MLOAD DUP2 LT ISZERO PUSH2 0x2D4 JUMPI DUP1 PUSH2 0x2A4 PUSH2 0x2CF SWAP3 DUP9 PUSH2 0x1D89 JUMP JUMPDEST MLOAD PUSH2 0x2AF DUP3 DUP12 PUSH2 0x1D89 JUMP JUMPDEST MLOAD PUSH1 0x0 MSTORE PUSH1 0x3 PUSH1 0x20 MSTORE PUSH2 0x2C8 PUSH1 0x40 PUSH1 0x0 KECCAK256 SWAP2 DUP3 SLOAD PUSH2 0x1ED0 JUMP JUMPDEST SWAP1 SSTORE PUSH2 0x1D64 JUMP JUMPDEST PUSH2 0x28D JUMP JUMPDEST POP SWAP1 SWAP3 SWAP6 SWAP2 SWAP5 PUSH2 0x16C JUMP JUMPDEST POP DUP3 PUSH1 0x0 MSTORE PUSH1 0x1 PUSH1 0x20 MSTORE PUSH1 0x40 PUSH1 0x0 KECCAK256 CALLER PUSH1 0x0 MSTORE PUSH1 0x20 MSTORE PUSH2 0x137 PUSH1 0xFF PUSH1 0x40 PUSH1 0x0 KECCAK256 SLOAD AND SWAP1 POP PUSH2 0x12E JUMP JUMPDEST PUSH1 0x0 DUP1 REVERT JUMPDEST CALLVALUE PUSH2 0x308 JUMPI PUSH1 0x20 CALLDATASIZE PUSH1 0x3 NOT ADD SLT PUSH2 0x308 JUMPI PUSH2 0x326 PUSH2 0x1AE8 JUMP JUMPDEST PUSH2 0x32E PUSH2 0x243A JUMP JUMPDEST PUSH1 0x1 PUSH1 0x1 PUSH1 0xA0 SHL SUB DUP2 AND ISZERO PUSH2 0x346 JUMPI PUSH2 0x283 SWAP1 PUSH2 0x2495 JUMP JUMPDEST PUSH1 0x40 MLOAD PUSH3 0x461BCD PUSH1 0xE5 SHL DUP2 MSTORE PUSH1 0x20 PUSH1 0x4 DUP3 ADD MSTORE PUSH1 0x26 PUSH1 0x24 DUP3 ADD MSTORE PUSH32 0x4F776E61626C653A206E6577206F776E657220697320746865207A65726F2061 PUSH1 0x44 DUP3 ADD MSTORE PUSH6 0x646472657373 PUSH1 0xD0 SHL PUSH1 0x64 DUP3 ADD MSTORE PUSH1 0x84 SWAP1 REVERT JUMPDEST CALLVALUE PUSH2 0x308 JUMPI PUSH1 0xA0 CALLDATASIZE PUSH1 0x3 NOT ADD SLT PUSH2 0x308 JUMPI PUSH2 0x3B3 PUSH2 0x1AE8 JUMP JUMPDEST PUSH2 0x3BB PUSH2 0x1AFE JUMP JUMPDEST SWAP1 PUSH1 0x84 DUP1 CALLDATALOAD PUSH1 0x1 PUSH1 0x1 PUSH1 0x40 SHL SUB DUP2 GT PUSH2 0x308 JUMPI PUSH2 0x3DC SWAP1 CALLDATASIZE SWAP1 PUSH1 0x4 ADD PUSH2 0x1C8D JUMP JUMPDEST PUSH1 0x1 PUSH1 0x1 PUSH1 0xA0 SHL SUB SWAP2 SWAP1 DUP4 DUP4 AND CALLER EQ DUP1 ISZERO PUSH2 0x74E JUMPI JUMPDEST PUSH2 0x3FB SWAP1 PUSH2 0x1DB3 JUMP JUMPDEST DUP3 DUP6 AND ISZERO PUSH2 0x409 DUP2 ISZERO PUSH2 0x1E17 JUMP JUMPDEST PUSH2 0x414 PUSH1 0x44 CALLDATALOAD PUSH2 0x2054 JUMP JUMPDEST PUSH2 0x41F PUSH1 0x64 CALLDATALOAD PUSH2 0x2054 JUMP JUMPDEST SWAP2 DUP6 DUP8 AND ISZERO PUSH2 0x70E JUMPI JUMPDEST PUSH2 0x660 JUMPI JUMPDEST POP POP PUSH1 0x44 CALLDATALOAD PUSH1 0x0 MSTORE PUSH1 0x20 SWAP5 PUSH1 0x0 DUP7 MSTORE PUSH1 0x40 PUSH1 0x0 KECCAK256 DUP5 DUP7 AND PUSH1 0x0 MSTORE DUP7 MSTORE PUSH1 0x40 PUSH1 0x0 KECCAK256 SLOAD PUSH2 0x45E PUSH1 0x64 CALLDATALOAD DUP3 LT ISZERO PUSH2 0x1E71 JUMP JUMPDEST PUSH1 0x44 CALLDATALOAD PUSH1 0x0 MSTORE PUSH1 0x0 DUP8 MSTORE PUSH1 0x40 PUSH1 0x0 KECCAK256 DUP6 DUP8 AND PUSH1 0x0 MSTORE DUP8 MSTORE PUSH1 0x64 CALLDATALOAD SWAP1 SUB PUSH1 0x40 PUSH1 0x0 KECCAK256 SSTORE PUSH1 0x44 CALLDATALOAD PUSH1 0x0 MSTORE PUSH1 0x0 DUP7 MSTORE PUSH1 0x40 PUSH1 0x0 KECCAK256 DUP5 DUP3 AND PUSH1 0x0 MSTORE DUP7 MSTORE PUSH1 0x40 PUSH1 0x0 KECCAK256 PUSH2 0x4A9 PUSH1 0x64 CALLDATALOAD DUP3 SLOAD PUSH2 0x1ED0 JUMP JUMPDEST SWAP1 SSTORE PUSH1 0x40 MLOAD PUSH1 0x44 CALLDATALOAD DUP2 MSTORE PUSH1 0x64 CALLDATALOAD DUP8 DUP3 ADD MSTORE DUP5 DUP3 AND SWAP1 DUP6 DUP8 AND SWAP1 PUSH32 0xC3D58168C5AE7397731D063D5BBF3D657854427343F4C083240F7AACAA2D0F62 PUSH1 0x40 CALLER SWAP3 LOG4 DUP1 EXTCODESIZE PUSH2 0x4F0 JUMPI STOP JUMPDEST PUSH1 0xA0 PUSH1 0x0 PUSH2 0x53A SWAP6 DUP9 SWAP6 PUSH1 0x40 MLOAD SWAP8 DUP9 SWAP7 DUP8 SWAP6 DUP7 SWAP4 DUP6 PUSH4 0xF23A6E61 PUSH1 0xE0 SHL SWAP14 DUP15 DUP8 MSTORE CALLER PUSH1 0x4 DUP9 ADD MSTORE AND PUSH1 0x24 DUP7 ADD MSTORE PUSH1 0x44 CALLDATALOAD PUSH1 0x44 DUP7 ADD MSTORE PUSH1 0x64 CALLDATALOAD PUSH1 0x64 DUP7 ADD MSTORE DUP5 ADD MSTORE PUSH1 0xA4 DUP4 ADD SWAP1 PUSH2 0x1BAD JUMP JUMPDEST SUB SWAP4 AND GAS CALL PUSH1 0x0 SWAP2 DUP2 PUSH2 0x631 JUMPI JUMPDEST POP PUSH2 0x607 JUMPI POP POP PUSH1 0x1 SWAP1 PUSH2 0x55A PUSH2 0x1FC8 JUMP JUMPDEST PUSH4 0x8C379A0 EQ PUSH2 0x5D2 JUMPI JUMPDEST POP PUSH2 0x56C JUMPI STOP JUMPDEST PUSH1 0x40 MLOAD PUSH3 0x461BCD PUSH1 0xE5 SHL DUP2 MSTORE PUSH1 0x20 PUSH1 0x4 DUP3 ADD MSTORE PUSH1 0x34 PUSH1 0x24 DUP3 ADD MSTORE PUSH32 0x455243313135353A207472616E7366657220746F206E6F6E2045524331313535 PUSH1 0x44 DUP3 ADD MSTORE PUSH20 0x2932B1B2B4BB32B91034B6B83632B6B2B73A32B9 PUSH1 0x61 SHL PUSH1 0x64 DUP3 ADD MSTORE PUSH1 0x84 SWAP1 REVERT JUMPDEST SUB SWAP1 REVERT JUMPDEST PUSH2 0x5DA PUSH2 0x1FE6 JUMP JUMPDEST SWAP1 DUP2 PUSH2 0x5E6 JUMPI POP PUSH2 0x565 JUMP JUMPDEST PUSH2 0x5CE PUSH1 0x40 MLOAD SWAP3 DUP4 SWAP3 PUSH3 0x461BCD PUSH1 0xE5 SHL DUP5 MSTORE PUSH1 0x4 DUP5 ADD MSTORE PUSH1 0x24 DUP4 ADD SWAP1 PUSH2 0x1BAD JUMP JUMPDEST PUSH1 0x1 PUSH1 0x1 PUSH1 0xE0 SHL SUB NOT AND EQ SWAP1 POP PUSH2 0x283 JUMPI PUSH1 0x40 MLOAD PUSH3 0x461BCD PUSH1 0xE5 SHL DUP2 MSTORE DUP1 PUSH2 0x5CE PUSH1 0x4 DUP3 ADD PUSH2 0x1F7F JUMP JUMPDEST PUSH2 0x652 SWAP2 SWAP3 POP DUP5 RETURNDATASIZE DUP7 GT PUSH2 0x659 JUMPI JUMPDEST PUSH2 0x64A DUP2 DUP4 PUSH2 0x1B69 JUMP JUMPDEST DUP2 ADD SWAP1 PUSH2 0x1F5F JUMP JUMPDEST SWAP1 DUP5 PUSH2 0x548 JUMP JUMPDEST POP RETURNDATASIZE PUSH2 0x640 JUMP JUMPDEST SWAP3 SWAP6 SWAP2 SWAP5 SWAP1 SWAP4 PUSH1 0x0 JUMPDEST DUP5 MLOAD DUP2 LT ISZERO PUSH2 0x6FF JUMPI PUSH2 0x67C DUP2 DUP7 PUSH2 0x1D89 JUMP JUMPDEST MLOAD SWAP1 PUSH2 0x688 DUP2 DUP9 PUSH2 0x1D89 JUMP JUMPDEST MLOAD DUP3 PUSH1 0x0 MSTORE PUSH1 0x3 PUSH1 0x20 MSTORE PUSH1 0x40 PUSH1 0x0 KECCAK256 SLOAD DUP2 DUP2 LT PUSH2 0x6BC JUMPI PUSH2 0x6B7 SWAP4 PUSH1 0x0 MSTORE PUSH1 0x3 PUSH1 0x20 MSTORE SUB PUSH1 0x40 PUSH1 0x0 KECCAK256 SSTORE PUSH2 0x1D64 JUMP JUMPDEST PUSH2 0x669 JUMP JUMPDEST PUSH1 0x40 MLOAD PUSH3 0x461BCD PUSH1 0xE5 SHL DUP2 MSTORE PUSH1 0x20 PUSH1 0x4 DUP3 ADD MSTORE PUSH1 0x28 PUSH1 0x24 DUP3 ADD MSTORE PUSH1 0x0 DUP1 MLOAD PUSH1 0x20 PUSH2 0x24F4 DUP4 CODECOPY DUP2 MLOAD SWAP2 MSTORE PUSH1 0x44 DUP3 ADD MSTORE PUSH8 0x616C537570706C79 PUSH1 0xC0 SHL PUSH1 0x64 DUP3 ADD MSTORE DUP12 SWAP1 REVERT JUMPDEST POP SWAP4 POP SWAP4 SWAP1 SWAP5 SWAP2 POP DUP6 DUP1 PUSH2 0x42E JUMP JUMPDEST SWAP6 SWAP3 PUSH1 0x0 SWAP8 SWAP5 SWAP2 SWAP6 SWAP3 SWAP8 JUMPDEST DUP7 MLOAD DUP2 LT ISZERO PUSH2 0x740 JUMPI DUP1 PUSH2 0x730 PUSH2 0x73B SWAP3 DUP12 PUSH2 0x1D89 JUMP JUMPDEST MLOAD PUSH2 0x2AF DUP3 DUP11 PUSH2 0x1D89 JUMP JUMPDEST PUSH2 0x719 JUMP JUMPDEST POP SWAP3 SWAP6 SWAP7 SWAP2 SWAP5 SWAP1 SWAP4 SWAP7 PUSH2 0x429 JUMP JUMPDEST POP DUP3 DUP5 AND PUSH1 0x0 MSTORE PUSH1 0x1 PUSH1 0x20 MSTORE PUSH1 0x40 PUSH1 0x0 KECCAK256 CALLER PUSH1 0x0 MSTORE PUSH1 0x20 MSTORE PUSH2 0x3FB PUSH1 0xFF PUSH1 0x40 PUSH1 0x0 KECCAK256 SLOAD AND SWAP1 POP PUSH2 0x3F2 JUMP JUMPDEST CALLVALUE PUSH2 0x308 JUMPI PUSH1 0x40 CALLDATASIZE PUSH1 0x3 NOT ADD SLT PUSH2 0x308 JUMPI PUSH2 0x792 PUSH2 0x1AE8 JUMP JUMPDEST PUSH2 0x79A PUSH2 0x1AFE JUMP JUMPDEST SWAP1 PUSH1 0x1 DUP1 PUSH1 0xA0 SHL SUB DUP1 SWAP2 AND PUSH1 0x0 MSTORE PUSH1 0x1 PUSH1 0x20 MSTORE PUSH1 0x40 PUSH1 0x0 KECCAK256 SWAP2 AND PUSH1 0x0 MSTORE PUSH1 0x20 MSTORE PUSH1 0x20 PUSH1 0xFF PUSH1 0x40 PUSH1 0x0 KECCAK256 SLOAD AND PUSH1 0x40 MLOAD SWAP1 ISZERO ISZERO DUP2 MSTORE RETURN JUMPDEST CALLVALUE PUSH2 0x308 JUMPI PUSH1 0x20 CALLDATASIZE PUSH1 0x3 NOT ADD SLT PUSH2 0x308 JUMPI PUSH1 0x4 CALLDATALOAD PUSH1 0x0 MSTORE PUSH1 0x3 PUSH1 0x20 MSTORE PUSH1 0x20 PUSH1 0x40 PUSH1 0x0 KECCAK256 SLOAD PUSH1 0x40 MLOAD SWAP1 DUP2 MSTORE RETURN JUMPDEST CALLVALUE PUSH2 0x308 JUMPI PUSH1 0x60 CALLDATASIZE PUSH1 0x3 NOT ADD SLT PUSH2 0x308 JUMPI PUSH2 0x814 PUSH2 0x1AE8 JUMP JUMPDEST PUSH1 0x1 PUSH1 0x1 PUSH1 0x40 SHL SUB SWAP1 PUSH1 0x24 CALLDATALOAD DUP3 DUP2 GT PUSH2 0x308 JUMPI PUSH2 0x835 SWAP1 CALLDATASIZE SWAP1 PUSH1 0x4 ADD PUSH2 0x1C8D JUMP JUMPDEST PUSH1 0x44 CALLDATALOAD DUP4 DUP2 GT PUSH2 0x308 JUMPI PUSH2 0x84D SWAP1 CALLDATASIZE SWAP1 PUSH1 0x4 ADD PUSH2 0x1C8D JUMP JUMPDEST PUSH2 0x85E PUSH1 0xFF PUSH1 0x6 SLOAD PUSH1 0x8 SHR AND PUSH2 0x2139 JUMP JUMPDEST DUP2 MLOAD DUP5 DUP2 GT PUSH2 0xA1D JUMPI DUP1 PUSH2 0x873 PUSH1 0x39 SLOAD PUSH2 0x1B14 JUMP JUMPDEST SWAP4 PUSH1 0x1F SWAP5 DUP6 DUP2 GT PUSH2 0xAC4 JUMPI JUMPDEST POP PUSH1 0x20 SWAP1 DUP6 DUP4 GT PUSH1 0x1 EQ PUSH2 0xA3E JUMPI PUSH1 0x0 SWAP3 PUSH2 0xA33 JUMPI JUMPDEST POP POP DUP2 PUSH1 0x1 SHL SWAP2 PUSH1 0x0 NOT SWAP1 PUSH1 0x3 SHL SHR NOT AND OR PUSH1 0x39 SSTORE JUMPDEST DUP1 MLOAD SWAP4 DUP5 GT PUSH2 0xA1D JUMPI PUSH2 0x8BF PUSH1 0x3A SLOAD PUSH2 0x1B14 JUMP JUMPDEST DUP3 DUP2 GT PUSH2 0x9BB JUMPI JUMPDEST POP PUSH1 0x20 SWAP2 DUP5 GT PUSH1 0x1 EQ PUSH2 0x932 JUMPI PUSH2 0x283 SWAP4 SWAP2 PUSH1 0x0 SWAP2 DUP4 PUSH2 0x927 JUMPI JUMPDEST POP POP DUP2 PUSH1 0x1 SHL SWAP2 PUSH1 0x0 NOT SWAP1 PUSH1 0x3 SHL SHR NOT AND OR PUSH1 0x3A SSTORE JUMPDEST CALLER PUSH12 0xFFFFFFFFFFFFFFFFFFFFFFFF PUSH1 0xA0 SHL PUSH1 0x38 SLOAD AND OR PUSH1 0x38 SSTORE PUSH2 0x922 PUSH1 0xFF PUSH1 0x6 SLOAD PUSH1 0x8 SHR AND PUSH2 0x2139 JUMP JUMPDEST PUSH2 0x2495 JUMP JUMPDEST ADD MLOAD SWAP1 POP DUP5 DUP1 PUSH2 0x8E2 JUMP JUMPDEST SWAP1 PUSH1 0x1F NOT DUP5 AND SWAP2 PUSH1 0x3A PUSH1 0x0 MSTORE PUSH32 0xA2999D817B6757290B50E8ECF3FA939673403DD35C97DE392FDB343B4015CE9E SWAP3 PUSH1 0x0 JUMPDEST DUP2 DUP2 LT PUSH2 0x9A3 JUMPI POP SWAP2 PUSH1 0x1 SWAP4 SWAP2 DUP7 PUSH2 0x283 SWAP8 SWAP5 LT PUSH2 0x98A JUMPI JUMPDEST POP POP POP DUP2 SHL ADD PUSH1 0x3A SSTORE PUSH2 0x8F8 JUMP JUMPDEST ADD MLOAD PUSH1 0x0 NOT PUSH1 0xF8 DUP5 PUSH1 0x3 SHL AND SHR NOT AND SWAP1 SSTORE DUP5 DUP1 DUP1 PUSH2 0x97C JUMP JUMPDEST SWAP3 SWAP4 PUSH1 0x20 PUSH1 0x1 DUP2 SWAP3 DUP8 DUP7 ADD MLOAD DUP2 SSTORE ADD SWAP6 ADD SWAP4 ADD PUSH2 0x963 JUMP JUMPDEST PUSH1 0x3A PUSH1 0x0 MSTORE PUSH32 0xA2999D817B6757290B50E8ECF3FA939673403DD35C97DE392FDB343B4015CE9E DUP4 DUP1 DUP8 ADD PUSH1 0x5 SHR DUP3 ADD SWAP3 PUSH1 0x20 DUP9 LT PUSH2 0xA14 JUMPI JUMPDEST ADD PUSH1 0x5 SHR ADD SWAP1 JUMPDEST DUP2 DUP2 LT PUSH2 0xA08 JUMPI POP PUSH2 0x8C7 JUMP JUMPDEST PUSH1 0x0 DUP2 SSTORE PUSH1 0x1 ADD PUSH2 0x9FB JUMP JUMPDEST SWAP3 POP DUP2 SWAP3 PUSH2 0x9F4 JUMP JUMPDEST PUSH4 0x4E487B71 PUSH1 0xE0 SHL PUSH1 0x0 MSTORE PUSH1 0x41 PUSH1 0x4 MSTORE PUSH1 0x24 PUSH1 0x0 REVERT JUMPDEST ADD MLOAD SWAP1 POP DUP7 DUP1 PUSH2 0x895 JUMP JUMPDEST PUSH1 0x39 PUSH1 0x0 SWAP1 DUP2 MSTORE PUSH32 0xDC16FEF70F8D5DDBC01EE3D903D1E69C18A3C7BE080EB86A81E0578814EE58D3 SWAP4 POP PUSH1 0x1F NOT DUP6 AND SWAP1 JUMPDEST DUP2 DUP2 LT PUSH2 0xAAC JUMPI POP SWAP1 DUP5 PUSH1 0x1 SWAP6 SWAP5 SWAP4 SWAP3 LT PUSH2 0xA93 JUMPI JUMPDEST POP POP POP DUP2 SHL ADD PUSH1 0x39 SSTORE PUSH2 0x8AB JUMP JUMPDEST ADD MLOAD PUSH1 0x0 NOT PUSH1 0xF8 DUP5 PUSH1 0x3 SHL AND SHR NOT AND SWAP1 SSTORE DUP7 DUP1 DUP1 PUSH2 0xA85 JUMP JUMPDEST SWAP3 SWAP4 PUSH1 0x20 PUSH1 0x1 DUP2 SWAP3 DUP8 DUP7 ADD MLOAD DUP2 SSTORE ADD SWAP6 ADD SWAP4 ADD PUSH2 0xA6F JUMP JUMPDEST SWAP1 SWAP2 POP PUSH1 0x39 PUSH1 0x0 MSTORE PUSH32 0xDC16FEF70F8D5DDBC01EE3D903D1E69C18A3C7BE080EB86A81E0578814EE58D3 DUP6 DUP1 DUP6 ADD PUSH1 0x5 SHR DUP3 ADD SWAP3 PUSH1 0x20 DUP7 LT PUSH2 0xB29 JUMPI JUMPDEST SWAP1 DUP6 SWAP5 SWAP4 SWAP3 SWAP2 ADD PUSH1 0x5 SHR ADD SWAP1 JUMPDEST DUP2 DUP2 LT PUSH2 0xB1A JUMPI POP PUSH2 0x87F JUMP JUMPDEST PUSH1 0x0 DUP2 SSTORE DUP5 SWAP4 POP PUSH1 0x1 ADD PUSH2 0xB0D JUMP JUMPDEST SWAP3 POP DUP2 SWAP3 PUSH2 0xB00 JUMP JUMPDEST CALLVALUE PUSH2 0x308 JUMPI PUSH1 0x40 CALLDATASIZE PUSH1 0x3 NOT ADD SLT PUSH2 0x308 JUMPI PUSH2 0xB4B PUSH2 0x1AE8 JUMP JUMPDEST PUSH1 0x24 CALLDATALOAD SWAP1 DUP2 ISZERO ISZERO DUP1 SWAP3 SUB PUSH2 0x308 JUMPI PUSH1 0x1 PUSH1 0x1 PUSH1 0xA0 SHL SUB AND SWAP1 CALLER DUP3 EQ PUSH2 0xBBF JUMPI CALLER PUSH1 0x0 MSTORE PUSH1 0x1 PUSH1 0x20 MSTORE PUSH1 0x40 PUSH1 0x0 KECCAK256 DUP3 PUSH1 0x0 MSTORE PUSH1 0x20 MSTORE PUSH1 0x40 PUSH1 0x0 KECCAK256 PUSH1 0xFF NOT DUP2 SLOAD AND PUSH1 0xFF DUP4 AND OR SWAP1 SSTORE PUSH1 0x40 MLOAD SWAP1 DUP2 MSTORE PUSH32 0x17307EAB39AB6107E8899845AD3D59BD9653F200F220920489CA2B5937696C31 PUSH1 0x20 CALLER SWAP3 LOG3 STOP JUMPDEST PUSH1 0x40 MLOAD PUSH3 0x461BCD PUSH1 0xE5 SHL DUP2 MSTORE PUSH1 0x20 PUSH1 0x4 DUP3 ADD MSTORE PUSH1 0x29 PUSH1 0x24 DUP3 ADD MSTORE PUSH32 0x455243313135353A2073657474696E6720617070726F76616C20737461747573 PUSH1 0x44 DUP3 ADD MSTORE PUSH9 0x103337B91039B2B633 PUSH1 0xB9 SHL PUSH1 0x64 DUP3 ADD MSTORE PUSH1 0x84 SWAP1 REVERT JUMPDEST CALLVALUE PUSH2 0x308 JUMPI PUSH1 0x0 CALLDATASIZE PUSH1 0x3 NOT ADD SLT PUSH2 0x308 JUMPI PUSH1 0x40 MLOAD PUSH1 0x0 PUSH1 0x3A SLOAD PUSH2 0xC38 DUP2 PUSH2 0x1B14 JUMP JUMPDEST DUP1 DUP5 MSTORE SWAP1 PUSH1 0x1 SWAP1 DUP2 DUP2 AND SWAP1 DUP2 ISZERO PUSH2 0xCD5 JUMPI POP PUSH1 0x1 EQ PUSH2 0xC7A JUMPI JUMPDEST PUSH2 0xC76 DUP5 PUSH2 0xC62 DUP2 DUP7 SUB DUP3 PUSH2 0x1B69 JUMP JUMPDEST PUSH1 0x40 MLOAD SWAP2 DUP3 SWAP2 PUSH1 0x20 DUP4 MSTORE PUSH1 0x20 DUP4 ADD SWAP1 PUSH2 0x1BAD JUMP JUMPDEST SUB SWAP1 RETURN JUMPDEST PUSH1 0x3A PUSH1 0x0 SWAP1 DUP2 MSTORE SWAP3 POP PUSH32 0xA2999D817B6757290B50E8ECF3FA939673403DD35C97DE392FDB343B4015CE9E JUMPDEST DUP3 DUP5 LT PUSH2 0xCBD JUMPI POP POP POP DUP2 ADD PUSH1 0x20 ADD PUSH2 0xC62 DUP3 PUSH2 0xC52 JUMP JUMPDEST DUP1 SLOAD PUSH1 0x20 DUP6 DUP8 ADD DUP2 ADD SWAP2 SWAP1 SWAP2 MSTORE SWAP1 SWAP4 ADD SWAP3 DUP2 ADD PUSH2 0xCA5 JUMP JUMPDEST PUSH1 0xFF NOT AND PUSH1 0x20 DUP1 DUP8 ADD SWAP2 SWAP1 SWAP2 MSTORE SWAP3 ISZERO ISZERO PUSH1 0x5 SHL DUP6 ADD SWAP1 SWAP3 ADD SWAP3 POP PUSH2 0xC62 SWAP2 POP DUP4 SWAP1 POP PUSH2 0xC52 JUMP JUMPDEST CALLVALUE PUSH2 0x308 JUMPI PUSH1 0x0 CALLDATASIZE PUSH1 0x3 NOT ADD SLT PUSH2 0x308 JUMPI PUSH1 0x6 SLOAD PUSH1 0x40 MLOAD PUSH1 0x10 SWAP2 SWAP1 SWAP2 SHR PUSH1 0x1 PUSH1 0x1 PUSH1 0xA0 SHL SUB AND DUP2 MSTORE PUSH1 0x20 SWAP1 RETURN JUMPDEST CALLVALUE PUSH2 0x308 JUMPI PUSH1 0x40 CALLDATASIZE PUSH1 0x3 NOT ADD SLT PUSH2 0x308 JUMPI PUSH1 0x1 PUSH1 0x1 PUSH1 0x40 SHL SUB PUSH1 0x4 CALLDATALOAD PUSH1 0x24 CALLDATALOAD DUP3 DUP2 GT PUSH2 0x308 JUMPI CALLDATASIZE PUSH1 0x23 DUP3 ADD SLT ISZERO PUSH2 0x308 JUMPI DUP1 PUSH1 0x4 ADD CALLDATALOAD SWAP1 DUP4 DUP3 GT PUSH2 0x308 JUMPI CALLDATASIZE PUSH1 0x24 DUP4 DUP4 ADD ADD GT PUSH2 0x308 JUMPI PUSH2 0xD96 SWAP2 PUSH2 0xD8C PUSH1 0x1 DUP1 PUSH1 0xA0 SHL SUB PUSH1 0x38 SLOAD AND CALLER EQ PUSH2 0x2199 JUMP JUMPDEST PUSH1 0x24 CALLDATASIZE SWAP3 ADD PUSH2 0x1C47 JUMP JUMPDEST SWAP2 DUP2 PUSH1 0x0 MSTORE PUSH1 0x20 SWAP1 PUSH1 0x5 DUP3 MSTORE PUSH1 0x40 PUSH1 0x0 KECCAK256 SWAP1 DUP5 MLOAD SWAP1 DUP2 GT PUSH2 0xA1D JUMPI PUSH2 0xDBB DUP3 SLOAD PUSH2 0x1B14 JUMP JUMPDEST PUSH1 0x1F DUP2 GT PUSH2 0xEC8 JUMPI JUMPDEST POP DUP3 PUSH1 0x1F DUP3 GT PUSH1 0x1 EQ PUSH2 0xE41 JUMPI DUP2 SWAP1 PUSH32 0x6BB7FF708619BA0610CBA295A58592E0451DEE2622938C8755667688DAF3529B SWAP6 SWAP7 PUSH1 0x0 SWAP3 PUSH2 0xE36 JUMPI JUMPDEST POP POP DUP2 PUSH1 0x1 SHL SWAP2 PUSH1 0x0 NOT SWAP1 PUSH1 0x3 SHL SHR NOT AND OR SWAP1 SSTORE JUMPDEST PUSH2 0xE1C DUP4 PUSH2 0x21FB JUMP JUMPDEST SWAP1 PUSH2 0xE31 PUSH1 0x40 MLOAD SWAP3 DUP3 DUP5 SWAP4 DUP5 MSTORE DUP4 ADD SWAP1 PUSH2 0x1BAD JUMP JUMPDEST SUB SWAP1 LOG2 STOP JUMPDEST ADD MLOAD SWAP1 POP DUP7 DUP1 PUSH2 0xDFE JUMP JUMPDEST PUSH1 0x1F NOT DUP3 AND SWAP6 DUP4 PUSH1 0x0 MSTORE DUP5 PUSH1 0x0 KECCAK256 SWAP7 PUSH1 0x0 JUMPDEST DUP2 DUP2 LT PUSH2 0xEB1 JUMPI POP SWAP2 PUSH32 0x6BB7FF708619BA0610CBA295A58592E0451DEE2622938C8755667688DAF3529B SWAP7 SWAP8 SWAP2 DUP5 PUSH1 0x1 SWAP6 SWAP5 LT PUSH2 0xE98 JUMPI JUMPDEST POP POP POP DUP2 SHL ADD SWAP1 SSTORE PUSH2 0xE13 JUMP JUMPDEST ADD MLOAD PUSH1 0x0 NOT PUSH1 0xF8 DUP5 PUSH1 0x3 SHL AND SHR NOT AND SWAP1 SSTORE DUP7 DUP1 DUP1 PUSH2 0xE8B JUMP JUMPDEST DUP4 DUP4 ADD MLOAD DUP10 SSTORE PUSH1 0x1 SWAP1 SWAP9 ADD SWAP8 SWAP3 DUP7 ADD SWAP3 DUP7 ADD PUSH2 0xE53 JUMP JUMPDEST DUP3 PUSH1 0x0 MSTORE DUP4 PUSH1 0x0 KECCAK256 PUSH1 0x1F DUP4 ADD PUSH1 0x5 SHR DUP2 ADD SWAP2 DUP6 DUP5 LT PUSH2 0xF04 JUMPI JUMPDEST PUSH1 0x1F ADD PUSH1 0x5 SHR ADD SWAP1 JUMPDEST DUP2 DUP2 LT PUSH2 0xEF8 JUMPI POP PUSH2 0xDC4 JUMP JUMPDEST PUSH1 0x0 DUP2 SSTORE PUSH1 0x1 ADD PUSH2 0xEEB JUMP JUMPDEST SWAP1 SWAP2 POP DUP2 SWAP1 PUSH2 0xEE2 JUMP JUMPDEST CALLVALUE PUSH2 0x308 JUMPI PUSH1 0x80 CALLDATASIZE PUSH1 0x3 NOT ADD SLT PUSH2 0x308 JUMPI PUSH2 0xF27 PUSH2 0x1AE8 JUMP JUMPDEST PUSH1 0x44 CALLDATALOAD SWAP1 PUSH1 0x24 CALLDATALOAD PUSH1 0x64 CALLDATALOAD PUSH1 0x1 PUSH1 0x1 PUSH1 0x40 SHL SUB DUP2 GT PUSH2 0x308 JUMPI PUSH2 0xF4D SWAP1 CALLDATASIZE SWAP1 PUSH1 0x4 ADD PUSH2 0x1C8D JUMP JUMPDEST SWAP2 PUSH1 0x1 DUP1 PUSH1 0xA0 SHL SUB PUSH2 0xF64 DUP2 PUSH1 0x38 SLOAD AND CALLER EQ PUSH2 0x2199 JUMP JUMPDEST PUSH2 0xF6E DUP4 DUP4 PUSH2 0x1CDF JUMP JUMPDEST PUSH2 0x10CF JUMPI DUP2 AND SWAP2 DUP3 ISZERO PUSH2 0x1080 JUMPI PUSH2 0xF84 DUP2 PUSH2 0x2054 JUMP JUMPDEST SWAP3 PUSH2 0xF8E DUP7 PUSH2 0x2054 JUMP JUMPDEST SWAP6 PUSH1 0x0 JUMPDEST DUP6 MLOAD DUP2 LT ISZERO PUSH2 0xFB9 JUMPI DUP1 PUSH2 0xFA9 PUSH2 0xFB4 SWAP3 DUP11 PUSH2 0x1D89 JUMP JUMPDEST MLOAD PUSH2 0x2AF DUP3 DUP10 PUSH2 0x1D89 JUMP JUMPDEST PUSH2 0xF92 JUMP JUMPDEST POP DUP6 DUP4 PUSH1 0x0 MSTORE PUSH1 0x20 SWAP5 PUSH1 0x0 DUP7 MSTORE PUSH1 0x40 PUSH1 0x0 KECCAK256 DUP5 PUSH1 0x0 MSTORE DUP7 MSTORE PUSH1 0x40 PUSH1 0x0 KECCAK256 PUSH2 0xFE1 DUP5 DUP3 SLOAD PUSH2 0x1ED0 JUMP JUMPDEST SWAP1 SSTORE DUP4 PUSH1 0x0 PUSH1 0x40 MLOAD DUP8 DUP2 MSTORE DUP6 DUP10 DUP3 ADD MSTORE PUSH32 0xC3D58168C5AE7397731D063D5BBF3D657854427343F4C083240F7AACAA2D0F62 PUSH1 0x40 CALLER SWAP3 LOG4 EXTCODESIZE PUSH2 0x101E JUMPI STOP JUMPDEST PUSH2 0x1062 SWAP3 DUP6 SWAP3 PUSH1 0x0 PUSH1 0x40 MLOAD DUP1 SWAP7 DUP2 SWAP6 DUP3 SWAP5 PUSH4 0xF23A6E61 PUSH1 0xE0 SHL SWAP11 DUP12 DUP6 MSTORE CALLER PUSH1 0x4 DUP7 ADD MSTORE DUP6 PUSH1 0x24 DUP7 ADD MSTORE PUSH1 0x44 DUP6 ADD MSTORE PUSH1 0x64 DUP5 ADD MSTORE PUSH1 0xA0 PUSH1 0x84 DUP5 ADD MSTORE PUSH1 0xA4 DUP4 ADD SWAP1 PUSH2 0x1BAD JUMP JUMPDEST SUB SWAP3 GAS CALL PUSH1 0x0 SWAP2 DUP2 PUSH2 0x631 JUMPI POP PUSH2 0x607 JUMPI POP POP PUSH1 0x1 SWAP1 PUSH2 0x55A PUSH2 0x1FC8 JUMP JUMPDEST PUSH1 0x40 MLOAD PUSH3 0x461BCD PUSH1 0xE5 SHL DUP2 MSTORE PUSH1 0x20 PUSH1 0x4 DUP3 ADD MSTORE PUSH1 0x21 PUSH1 0x24 DUP3 ADD MSTORE PUSH32 0x455243313135353A206D696E7420746F20746865207A65726F20616464726573 PUSH1 0x44 DUP3 ADD MSTORE PUSH1 0x73 PUSH1 0xF8 SHL PUSH1 0x64 DUP3 ADD MSTORE PUSH1 0x84 SWAP1 REVERT JUMPDEST PUSH1 0x40 MLOAD PUSH3 0x461BCD PUSH1 0xE5 SHL DUP2 MSTORE PUSH1 0x20 PUSH1 0x4 DUP3 ADD MSTORE PUSH1 0x26 PUSH1 0x24 DUP3 ADD MSTORE PUSH32 0x4D61696E6E65742046617273693A20746F6B656E20636F6C6C65637465642061 PUSH1 0x44 DUP3 ADD MSTORE PUSH6 0x6C7265616479 PUSH1 0xD0 SHL PUSH1 0x64 DUP3 ADD MSTORE PUSH1 0x84 SWAP1 REVERT JUMPDEST CALLVALUE PUSH2 0x308 JUMPI PUSH1 0x0 CALLDATASIZE PUSH1 0x3 NOT ADD SLT PUSH2 0x308 JUMPI PUSH2 0x113C PUSH2 0x243A JUMP JUMPDEST PUSH1 0x6 DUP1 SLOAD PUSH3 0x10000 PUSH1 0x1 PUSH1 0xB0 SHL SUB NOT DUP2 AND SWAP1 SWAP2 SSTORE PUSH1 0x0 SWAP1 PUSH1 0x10 SHR PUSH1 0x1 PUSH1 0x1 PUSH1 0xA0 SHL SUB AND PUSH32 0x8BE0079C531659141344CD1FD0A4F28419497F9722A3DAAFE3B4186F6B6457E0 DUP3 DUP1 LOG3 STOP JUMPDEST CALLVALUE PUSH2 0x308 JUMPI PUSH1 0x60 CALLDATASIZE PUSH1 0x3 NOT ADD SLT PUSH2 0x308 JUMPI PUSH2 0x119E PUSH2 0x1AE8 JUMP JUMPDEST PUSH1 0x24 SWAP1 PUSH1 0x1 PUSH1 0x1 PUSH1 0x40 SHL SUB SWAP1 DUP3 CALLDATALOAD DUP3 DUP2 GT PUSH2 0x308 JUMPI PUSH2 0x11C1 SWAP1 CALLDATASIZE SWAP1 PUSH1 0x4 ADD PUSH2 0x1BE9 JUMP JUMPDEST SWAP2 PUSH1 0x44 SWAP1 DUP2 CALLDATALOAD SWAP1 DUP2 GT PUSH2 0x308 JUMPI PUSH2 0x11DC SWAP1 CALLDATASIZE SWAP1 PUSH1 0x4 ADD PUSH2 0x1BE9 JUMP JUMPDEST PUSH1 0x1 PUSH1 0x1 PUSH1 0xA0 SHL SUB SWAP1 SWAP3 AND SWAP3 CALLER DUP5 EQ DUP1 ISZERO PUSH2 0x13B6 JUMPI JUMPDEST PUSH2 0x11FB SWAP1 PUSH2 0x1DB3 JUMP JUMPDEST DUP4 ISZERO PUSH2 0x1207 DUP2 ISZERO PUSH2 0x2089 JUMP JUMPDEST PUSH2 0x1214 DUP3 MLOAD DUP6 MLOAD EQ PUSH2 0x1EDD JUMP JUMPDEST PUSH1 0x0 PUSH1 0x40 MLOAD PUSH2 0x1222 DUP2 PUSH2 0x1B4E JUMP JUMPDEST MSTORE PUSH2 0x137E JUMPI JUMPDEST PUSH1 0x0 JUMPDEST DUP2 MLOAD DUP2 LT ISZERO PUSH2 0x12C4 JUMPI PUSH2 0x123E DUP2 DUP4 PUSH2 0x1D89 JUMP JUMPDEST MLOAD PUSH2 0x1249 DUP3 DUP7 PUSH2 0x1D89 JUMP JUMPDEST MLOAD SWAP1 DUP1 PUSH1 0x0 MSTORE PUSH1 0x3 PUSH1 0x20 DUP2 DUP2 MSTORE PUSH1 0x40 PUSH1 0x0 KECCAK256 SLOAD SWAP3 DUP5 DUP5 LT PUSH2 0x1282 JUMPI SWAP1 PUSH2 0x127D SWAP6 SWAP5 SWAP4 SWAP3 SWAP2 PUSH1 0x0 MSTORE MSTORE SUB PUSH1 0x40 PUSH1 0x0 KECCAK256 SSTORE PUSH2 0x1D64 JUMP JUMPDEST PUSH2 0x122B JUMP JUMPDEST PUSH1 0x40 MLOAD PUSH3 0x461BCD PUSH1 0xE5 SHL DUP2 MSTORE PUSH1 0x4 DUP2 ADD DUP4 SWAP1 MSTORE PUSH1 0x28 DUP2 DUP14 ADD MSTORE PUSH1 0x0 DUP1 MLOAD PUSH1 0x20 PUSH2 0x24F4 DUP4 CODECOPY DUP2 MLOAD SWAP2 MSTORE DUP2 DUP11 ADD MSTORE PUSH8 0x616C537570706C79 PUSH1 0xC0 SHL PUSH1 0x64 DUP3 ADD MSTORE PUSH1 0x84 SWAP1 REVERT JUMPDEST DUP4 DUP3 DUP7 PUSH1 0x0 JUMPDEST DUP3 MLOAD DUP2 LT ISZERO PUSH2 0x1339 JUMPI DUP1 PUSH2 0x12E1 PUSH2 0x1334 SWAP3 DUP6 PUSH2 0x1D89 JUMP JUMPDEST MLOAD PUSH2 0x12EC DUP3 DUP8 PUSH2 0x1D89 JUMP JUMPDEST MLOAD SWAP1 DUP1 PUSH1 0x0 MSTORE PUSH1 0x20 PUSH1 0x0 DUP2 MSTORE PUSH1 0x40 PUSH1 0x0 KECCAK256 DUP7 PUSH1 0x0 MSTORE DUP2 MSTORE PUSH1 0x40 PUSH1 0x0 KECCAK256 SLOAD SWAP2 PUSH2 0x1316 DUP5 DUP5 LT ISZERO PUSH2 0x20E1 JUMP JUMPDEST PUSH1 0x0 MSTORE PUSH1 0x0 DUP2 MSTORE PUSH1 0x40 PUSH1 0x0 KECCAK256 SWAP1 DUP7 PUSH1 0x0 MSTORE MSTORE SUB PUSH1 0x40 PUSH1 0x0 KECCAK256 SSTORE PUSH2 0x1D64 JUMP JUMPDEST PUSH2 0x12CA JUMP JUMPDEST POP SWAP1 PUSH32 0x4A39DC06D4C0DBC64B70AF90FD698A233A518AA5D07E595D983B8C0526C8F7FB PUSH2 0x1370 PUSH1 0x0 SWAP5 PUSH1 0x40 MLOAD SWAP2 DUP3 SWAP2 CALLER SWAP6 DUP4 PUSH2 0x1F3A JUMP JUMPDEST SUB SWAP1 LOG4 PUSH2 0x283 PUSH1 0x40 MLOAD PUSH2 0x1B4E JUMP JUMPDEST SWAP3 PUSH1 0x0 SWAP5 SWAP2 SWAP5 JUMPDEST DUP5 MLOAD DUP2 LT ISZERO PUSH2 0x13AC JUMPI DUP1 PUSH2 0x139C PUSH2 0x13A7 SWAP3 DUP7 PUSH2 0x1D89 JUMP JUMPDEST MLOAD PUSH2 0x2AF DUP3 DUP9 PUSH2 0x1D89 JUMP JUMPDEST PUSH2 0x1385 JUMP JUMPDEST POP SWAP3 SWAP4 SWAP1 SWAP4 PUSH2 0x1228 JUMP JUMPDEST POP DUP4 PUSH1 0x0 MSTORE PUSH1 0x1 PUSH1 0x20 MSTORE PUSH1 0x40 PUSH1 0x0 KECCAK256 CALLER PUSH1 0x0 MSTORE PUSH1 0x20 MSTORE PUSH2 0x11FB PUSH1 0xFF PUSH1 0x40 PUSH1 0x0 KECCAK256 SLOAD AND SWAP1 POP PUSH2 0x11F2 JUMP JUMPDEST CALLVALUE PUSH2 0x308 JUMPI PUSH1 0x20 CALLDATASIZE PUSH1 0x3 NOT ADD SLT PUSH2 0x308 JUMPI PUSH1 0x4 CALLDATALOAD PUSH1 0x0 MSTORE PUSH1 0x3 PUSH1 0x20 MSTORE PUSH1 0x20 PUSH1 0x40 PUSH1 0x0 KECCAK256 SLOAD ISZERO ISZERO PUSH1 0x40 MLOAD SWAP1 DUP2 MSTORE RETURN JUMPDEST CALLVALUE PUSH2 0x308 JUMPI PUSH1 0x40 CALLDATASIZE PUSH1 0x3 NOT ADD SLT PUSH2 0x308 JUMPI PUSH1 0x4 CALLDATALOAD PUSH1 0x1 PUSH1 0x1 PUSH1 0x40 SHL SUB DUP1 DUP3 GT PUSH2 0x308 JUMPI CALLDATASIZE PUSH1 0x23 DUP4 ADD SLT ISZERO PUSH2 0x308 JUMPI DUP2 PUSH1 0x4 ADD CALLDATALOAD SWAP1 PUSH2 0x144A DUP3 PUSH2 0x1BD2 JUMP JUMPDEST SWAP3 PUSH2 0x1458 PUSH1 0x40 MLOAD SWAP5 DUP6 PUSH2 0x1B69 JUMP JUMPDEST DUP3 DUP5 MSTORE PUSH1 0x20 SWAP3 PUSH1 0x24 DUP5 DUP7 ADD SWAP2 PUSH1 0x5 SHL DUP4 ADD ADD SWAP2 CALLDATASIZE DUP4 GT PUSH2 0x308 JUMPI PUSH1 0x24 ADD SWAP1 JUMPDEST DUP3 DUP3 LT PUSH2 0x158C JUMPI POP POP POP PUSH1 0x24 CALLDATALOAD SWAP1 DUP2 GT PUSH2 0x308 JUMPI PUSH2 0x1499 SWAP1 CALLDATASIZE SWAP1 PUSH1 0x4 ADD PUSH2 0x1BE9 JUMP JUMPDEST DUP3 MLOAD DUP2 MLOAD SUB PUSH2 0x1535 JUMPI DUP3 MLOAD SWAP3 PUSH2 0x14AE DUP5 PUSH2 0x1BD2 JUMP JUMPDEST SWAP4 PUSH2 0x14BC PUSH1 0x40 MLOAD SWAP6 DUP7 PUSH2 0x1B69 JUMP JUMPDEST DUP1 DUP6 MSTORE PUSH2 0x14CB PUSH1 0x1F NOT SWAP2 PUSH2 0x1BD2 JUMP JUMPDEST ADD CALLDATASIZE DUP5 DUP7 ADD CALLDATACOPY PUSH1 0x0 JUMPDEST DUP2 MLOAD DUP2 LT ISZERO PUSH2 0x151E JUMPI PUSH2 0x1519 SWAP1 PUSH2 0x1509 PUSH1 0x1 PUSH1 0x1 PUSH1 0xA0 SHL SUB PUSH2 0x14F6 DUP4 DUP7 PUSH2 0x1D89 JUMP JUMPDEST MLOAD AND PUSH2 0x1502 DUP4 DUP8 PUSH2 0x1D89 JUMP JUMPDEST MLOAD SWAP1 PUSH2 0x1CDF JUMP JUMPDEST PUSH2 0x1513 DUP3 DUP9 PUSH2 0x1D89 JUMP JUMPDEST MSTORE PUSH2 0x1D64 JUMP JUMPDEST PUSH2 0x14D4 JUMP JUMPDEST POP POP POP PUSH2 0xC76 PUSH1 0x40 MLOAD SWAP3 DUP3 DUP5 SWAP4 DUP5 MSTORE DUP4 ADD SWAP1 PUSH2 0x1CAB JUMP JUMPDEST PUSH1 0x40 MLOAD PUSH3 0x461BCD PUSH1 0xE5 SHL DUP2 MSTORE PUSH1 0x4 DUP2 ADD DUP4 SWAP1 MSTORE PUSH1 0x29 PUSH1 0x24 DUP3 ADD MSTORE PUSH32 0x455243313135353A206163636F756E747320616E6420696473206C656E677468 PUSH1 0x44 DUP3 ADD MSTORE PUSH9 0x40DAD2E6DAC2E8C6D PUSH1 0xBB SHL PUSH1 0x64 DUP3 ADD MSTORE PUSH1 0x84 SWAP1 REVERT JUMPDEST DUP2 CALLDATALOAD PUSH1 0x1 PUSH1 0x1 PUSH1 0xA0 SHL SUB DUP2 AND DUP2 SUB PUSH2 0x308 JUMPI DUP2 MSTORE SWAP1 DUP5 ADD SWAP1 DUP5 ADD PUSH2 0x1477 JUMP JUMPDEST CALLVALUE PUSH2 0x308 JUMPI PUSH1 0x3 NOT PUSH1 0xA0 CALLDATASIZE DUP3 ADD SLT PUSH2 0x308 JUMPI PUSH2 0x15C5 PUSH2 0x1AE8 JUMP JUMPDEST SWAP1 PUSH2 0x15CE PUSH2 0x1AFE JUMP JUMPDEST PUSH1 0x44 SWAP1 DUP2 CALLDATALOAD SWAP3 PUSH1 0x1 PUSH1 0x1 PUSH1 0x40 SHL SUB SWAP4 DUP5 DUP2 GT PUSH2 0x308 JUMPI PUSH2 0x15F2 SWAP1 CALLDATASIZE SWAP1 PUSH1 0x4 ADD PUSH2 0x1BE9 JUMP JUMPDEST PUSH1 0x64 DUP1 CALLDATALOAD DUP7 DUP2 GT PUSH2 0x308 JUMPI PUSH2 0x160B SWAP1 CALLDATASIZE SWAP1 PUSH1 0x4 ADD PUSH2 0x1BE9 JUMP JUMPDEST SWAP5 PUSH1 0x84 SWAP7 DUP8 CALLDATALOAD SWAP1 DUP2 GT PUSH2 0x308 JUMPI PUSH2 0x1626 SWAP1 CALLDATASIZE SWAP1 PUSH1 0x4 ADD PUSH2 0x1C8D JUMP JUMPDEST PUSH1 0x1 PUSH1 0x1 PUSH1 0xA0 SHL SUB SWAP5 DUP10 DUP7 AND CALLER EQ DUP1 ISZERO PUSH2 0x195B JUMPI JUMPDEST PUSH2 0x1644 SWAP1 PUSH2 0x1DB3 JUMP JUMPDEST PUSH2 0x1651 DUP6 MLOAD DUP10 MLOAD EQ PUSH2 0x1EDD JUMP JUMPDEST DUP6 DUP8 AND ISZERO PUSH2 0x165F DUP2 ISZERO PUSH2 0x1E17 JUMP JUMPDEST DUP7 DUP12 AND ISZERO PUSH2 0x1918 JUMPI JUMPDEST PUSH2 0x1863 JUMPI JUMPDEST PUSH1 0x0 JUMPDEST DUP6 MLOAD DUP2 LT ISZERO PUSH2 0x1706 JUMPI DUP1 PUSH2 0x1687 PUSH2 0x1701 SWAP3 DUP9 PUSH2 0x1D89 JUMP JUMPDEST MLOAD DUP13 PUSH2 0x1693 DUP4 DUP14 PUSH2 0x1D89 JUMP JUMPDEST MLOAD SWAP2 DUP1 PUSH1 0x0 MSTORE DUP3 PUSH1 0x20 SWAP3 PUSH1 0x0 DUP5 MSTORE PUSH1 0x40 PUSH1 0x0 KECCAK256 DUP14 DUP3 AND PUSH1 0x0 MSTORE DUP5 MSTORE PUSH1 0x40 PUSH1 0x0 KECCAK256 SLOAD SWAP1 PUSH2 0x16C1 DUP4 DUP4 LT ISZERO PUSH2 0x1E71 JUMP JUMPDEST DUP4 PUSH1 0x0 MSTORE PUSH1 0x0 DUP6 MSTORE DUP14 PUSH1 0x40 PUSH1 0x0 KECCAK256 SWAP2 AND PUSH1 0x0 MSTORE DUP5 MSTORE SUB PUSH1 0x40 PUSH1 0x0 KECCAK256 SSTORE PUSH1 0x0 MSTORE PUSH1 0x0 DUP2 MSTORE PUSH1 0x40 PUSH1 0x0 KECCAK256 SWAP1 DUP11 DUP13 AND PUSH1 0x0 MSTORE MSTORE PUSH2 0x2C8 PUSH1 0x40 PUSH1 0x0 KECCAK256 SWAP2 DUP3 SLOAD PUSH2 0x1ED0 JUMP JUMPDEST PUSH2 0x1670 JUMP JUMPDEST POP DUP9 DUP11 SWAP9 SWAP8 SWAP7 SWAP5 SWAP8 DUP10 PUSH1 0x40 MLOAD DUP9 PUSH32 0x4A39DC06D4C0DBC64B70AF90FD698A233A518AA5D07E595D983B8C0526C8F7FB DUP10 DUP1 DUP14 AND SWAP5 AND SWAP3 DUP1 PUSH2 0x1748 DUP8 CALLER SWAP6 DUP4 PUSH2 0x1F3A JUMP JUMPDEST SUB SWAP1 LOG4 DUP8 EXTCODESIZE PUSH2 0x1753 JUMPI STOP JUMPDEST PUSH1 0x40 MLOAD SWAP9 DUP10 SWAP8 DUP9 SWAP7 DUP9 PUSH4 0xBC197C81 PUSH1 0xE0 SHL SWAP14 DUP15 DUP11 MSTORE CALLER PUSH1 0x4 DUP12 ADD MSTORE AND PUSH1 0x24 DUP10 ADD MSTORE DUP8 ADD PUSH1 0xA0 SWAP1 MSTORE PUSH1 0xA4 DUP8 ADD PUSH2 0x1787 SWAP2 PUSH2 0x1CAB JUMP JUMPDEST SWAP1 DUP5 DUP8 DUP4 SUB ADD SWAP1 DUP8 ADD MSTORE PUSH2 0x179A SWAP2 PUSH2 0x1CAB JUMP JUMPDEST SWAP2 DUP5 DUP4 SUB ADD SWAP1 DUP5 ADD MSTORE PUSH2 0x17AC SWAP2 PUSH2 0x1BAD JUMP JUMPDEST SUB SWAP3 AND SWAP2 DUP2 GAS PUSH1 0x20 SWAP5 PUSH1 0x0 SWAP2 CALL PUSH1 0x0 SWAP2 DUP2 PUSH2 0x1843 JUMPI JUMPDEST POP PUSH2 0x181B JUMPI POP POP PUSH1 0x1 PUSH2 0x17D3 PUSH2 0x1FC8 JUMP JUMPDEST PUSH4 0x8C379A0 EQ PUSH2 0x17E4 JUMPI JUMPDEST PUSH2 0x56C JUMPI STOP JUMPDEST PUSH2 0x17EC PUSH2 0x1FE6 JUMP JUMPDEST DUP1 PUSH2 0x17F7 JUMPI POP PUSH2 0x17DE JUMP JUMPDEST PUSH1 0x40 MLOAD PUSH3 0x461BCD PUSH1 0xE5 SHL DUP2 MSTORE PUSH1 0x20 PUSH1 0x4 DUP3 ADD MSTORE SWAP1 DUP2 SWAP1 PUSH2 0x5CE SWAP1 PUSH1 0x24 DUP4 ADD SWAP1 PUSH2 0x1BAD JUMP JUMPDEST PUSH1 0x1 PUSH1 0x1 PUSH1 0xE0 SHL SUB NOT AND EQ PUSH2 0x283 JUMPI PUSH1 0x40 MLOAD PUSH3 0x461BCD PUSH1 0xE5 SHL DUP2 MSTORE DUP1 PUSH2 0x5CE PUSH1 0x4 DUP3 ADD PUSH2 0x1F7F JUMP JUMPDEST PUSH2 0x185C SWAP2 SWAP3 POP PUSH1 0x20 RETURNDATASIZE DUP2 GT PUSH2 0x659 JUMPI PUSH2 0x64A DUP2 DUP4 PUSH2 0x1B69 JUMP JUMPDEST SWAP1 DUP4 PUSH2 0x17C2 JUMP JUMPDEST SWAP8 SWAP7 SWAP5 SWAP1 PUSH1 0x0 SWAP10 SWAP4 SWAP10 SWAP7 SWAP3 SWAP7 JUMPDEST DUP6 MLOAD DUP2 LT ISZERO PUSH2 0x1908 JUMPI PUSH2 0x1883 DUP2 DUP8 PUSH2 0x1D89 JUMP JUMPDEST MLOAD PUSH2 0x188E DUP3 DUP10 PUSH2 0x1D89 JUMP JUMPDEST MLOAD SWAP1 DUP1 PUSH1 0x0 MSTORE PUSH1 0x20 PUSH1 0x3 DUP2 MSTORE PUSH1 0x40 PUSH1 0x0 KECCAK256 SLOAD SWAP2 DUP4 DUP4 LT PUSH2 0x18C7 JUMPI PUSH2 0x18C2 SWAP5 SWAP4 SWAP3 SWAP2 PUSH1 0x3 SWAP2 PUSH1 0x0 MSTORE MSTORE SUB PUSH1 0x40 PUSH1 0x0 KECCAK256 SSTORE PUSH2 0x1D64 JUMP JUMPDEST PUSH2 0x1870 JUMP JUMPDEST POP DUP12 SWAP1 PUSH8 0x616C537570706C79 PUSH1 0xC0 SHL DUP16 PUSH1 0x0 DUP1 MLOAD PUSH1 0x20 PUSH2 0x24F4 DUP4 CODECOPY DUP2 MLOAD SWAP2 MSTORE DUP15 PUSH1 0x40 MLOAD SWAP5 PUSH3 0x461BCD PUSH1 0xE5 SHL DUP7 MSTORE PUSH1 0x4 DUP7 ADD MSTORE PUSH1 0x28 PUSH1 0x24 DUP7 ADD MSTORE DUP5 ADD MSTORE DUP3 ADD MSTORE REVERT JUMPDEST POP SWAP1 SWAP5 SWAP7 SWAP8 SWAP9 SWAP3 SWAP9 SWAP6 SWAP2 SWAP6 PUSH2 0x166D JUMP JUMPDEST SWAP10 SWAP7 SWAP5 SWAP9 SWAP6 SWAP4 SWAP3 SWAP2 SWAP1 PUSH1 0x0 JUMPDEST DUP11 MLOAD DUP2 LT ISZERO PUSH2 0x194C JUMPI DUP1 DUP12 PUSH2 0x2AF DUP3 PUSH2 0x1940 PUSH2 0x1947 SWAP6 DUP16 PUSH2 0x1D89 JUMP JUMPDEST MLOAD SWAP3 PUSH2 0x1D89 JUMP JUMPDEST PUSH2 0x1924 JUMP JUMPDEST POP SWAP1 SWAP2 SWAP3 SWAP4 SWAP6 SWAP9 SWAP5 SWAP7 SWAP10 PUSH2 0x1668 JUMP JUMPDEST POP DUP6 DUP11 AND PUSH1 0x0 MSTORE PUSH1 0x1 PUSH1 0x20 MSTORE PUSH1 0x40 PUSH1 0x0 KECCAK256 CALLER PUSH1 0x0 MSTORE PUSH1 0x20 MSTORE PUSH2 0x1644 PUSH1 0xFF PUSH1 0x40 PUSH1 0x0 KECCAK256 SLOAD AND SWAP1 POP PUSH2 0x163B JUMP JUMPDEST CALLVALUE PUSH2 0x308 JUMPI PUSH1 0x20 CALLDATASIZE PUSH1 0x3 NOT ADD SLT PUSH2 0x308 JUMPI PUSH2 0xC76 PUSH2 0xC62 PUSH1 0x4 CALLDATALOAD PUSH2 0x21FB JUMP JUMPDEST CALLVALUE PUSH2 0x308 JUMPI PUSH1 0x0 CALLDATASIZE PUSH1 0x3 NOT ADD SLT PUSH2 0x308 JUMPI PUSH1 0x40 MLOAD PUSH1 0x0 PUSH1 0x39 SLOAD PUSH2 0x19C7 DUP2 PUSH2 0x1B14 JUMP JUMPDEST DUP1 DUP5 MSTORE SWAP1 PUSH1 0x1 SWAP1 DUP2 DUP2 AND SWAP1 DUP2 ISZERO PUSH2 0xCD5 JUMPI POP PUSH1 0x1 EQ PUSH2 0x19F0 JUMPI PUSH2 0xC76 DUP5 PUSH2 0xC62 DUP2 DUP7 SUB DUP3 PUSH2 0x1B69 JUMP JUMPDEST PUSH1 0x39 PUSH1 0x0 SWAP1 DUP2 MSTORE SWAP3 POP PUSH32 0xDC16FEF70F8D5DDBC01EE3D903D1E69C18A3C7BE080EB86A81E0578814EE58D3 JUMPDEST DUP3 DUP5 LT PUSH2 0x1A33 JUMPI POP POP POP DUP2 ADD PUSH1 0x20 ADD PUSH2 0xC62 DUP3 PUSH2 0xC52 JUMP JUMPDEST DUP1 SLOAD PUSH1 0x20 DUP6 DUP8 ADD DUP2 ADD SWAP2 SWAP1 SWAP2 MSTORE SWAP1 SWAP4 ADD SWAP3 DUP2 ADD PUSH2 0x1A1B JUMP JUMPDEST CALLVALUE PUSH2 0x308 JUMPI PUSH1 0x20 CALLDATASIZE PUSH1 0x3 NOT ADD SLT PUSH2 0x308 JUMPI PUSH1 0x4 CALLDATALOAD PUSH4 0xFFFFFFFF PUSH1 0xE0 SHL DUP2 AND DUP1 SWAP2 SUB PUSH2 0x308 JUMPI PUSH1 0x20 SWAP1 PUSH4 0x6CDB3D13 PUSH1 0xE1 SHL DUP2 EQ SWAP1 DUP2 ISZERO PUSH2 0x1AA8 JUMPI JUMPDEST DUP2 ISZERO PUSH2 0x1A97 JUMPI JUMPDEST POP PUSH1 0x40 MLOAD SWAP1 ISZERO ISZERO DUP2 MSTORE RETURN JUMPDEST PUSH4 0x1FFC9A7 PUSH1 0xE0 SHL EQ SWAP1 POP DUP3 PUSH2 0x1A8C JUMP JUMPDEST PUSH4 0x3A24D07 PUSH1 0xE2 SHL DUP2 EQ SWAP2 POP PUSH2 0x1A85 JUMP JUMPDEST CALLVALUE PUSH2 0x308 JUMPI PUSH1 0x40 CALLDATASIZE PUSH1 0x3 NOT ADD SLT PUSH2 0x308 JUMPI PUSH1 0x20 PUSH2 0x1AE0 PUSH2 0x1AD7 PUSH2 0x1AE8 JUMP JUMPDEST PUSH1 0x24 CALLDATALOAD SWAP1 PUSH2 0x1CDF JUMP JUMPDEST PUSH1 0x40 MLOAD SWAP1 DUP2 MSTORE RETURN JUMPDEST PUSH1 0x4 CALLDATALOAD SWAP1 PUSH1 0x1 PUSH1 0x1 PUSH1 0xA0 SHL SUB DUP3 AND DUP3 SUB PUSH2 0x308 JUMPI JUMP JUMPDEST PUSH1 0x24 CALLDATALOAD SWAP1 PUSH1 0x1 PUSH1 0x1 PUSH1 0xA0 SHL SUB DUP3 AND DUP3 SUB PUSH2 0x308 JUMPI JUMP JUMPDEST SWAP1 PUSH1 0x1 DUP3 DUP2 SHR SWAP3 AND DUP1 ISZERO PUSH2 0x1B44 JUMPI JUMPDEST PUSH1 0x20 DUP4 LT EQ PUSH2 0x1B2E JUMPI JUMP JUMPDEST PUSH4 0x4E487B71 PUSH1 0xE0 SHL PUSH1 0x0 MSTORE PUSH1 0x22 PUSH1 0x4 MSTORE PUSH1 0x24 PUSH1 0x0 REVERT JUMPDEST SWAP2 PUSH1 0x7F AND SWAP2 PUSH2 0x1B23 JUMP JUMPDEST PUSH1 0x20 DUP2 ADD SWAP1 DUP2 LT PUSH1 0x1 PUSH1 0x1 PUSH1 0x40 SHL SUB DUP3 GT OR PUSH2 0xA1D JUMPI PUSH1 0x40 MSTORE JUMP JUMPDEST SWAP1 PUSH1 0x1F DUP1 NOT SWAP2 ADD AND DUP2 ADD SWAP1 DUP2 LT PUSH1 0x1 PUSH1 0x1 PUSH1 0x40 SHL SUB DUP3 GT OR PUSH2 0xA1D JUMPI PUSH1 0x40 MSTORE JUMP JUMPDEST PUSH1 0x0 JUMPDEST DUP4 DUP2 LT PUSH2 0x1B9D JUMPI POP POP PUSH1 0x0 SWAP2 ADD MSTORE JUMP JUMPDEST DUP2 DUP2 ADD MLOAD DUP4 DUP3 ADD MSTORE PUSH1 0x20 ADD PUSH2 0x1B8D JUMP JUMPDEST SWAP1 PUSH1 0x20 SWAP2 PUSH2 0x1BC6 DUP2 MLOAD DUP1 SWAP3 DUP2 DUP6 MSTORE DUP6 DUP1 DUP7 ADD SWAP2 ADD PUSH2 0x1B8A JUMP JUMPDEST PUSH1 0x1F ADD PUSH1 0x1F NOT AND ADD ADD SWAP1 JUMP JUMPDEST PUSH1 0x1 PUSH1 0x1 PUSH1 0x40 SHL SUB DUP2 GT PUSH2 0xA1D JUMPI PUSH1 0x5 SHL PUSH1 0x20 ADD SWAP1 JUMP JUMPDEST DUP2 PUSH1 0x1F DUP3 ADD SLT ISZERO PUSH2 0x308 JUMPI DUP1 CALLDATALOAD SWAP2 PUSH2 0x1C00 DUP4 PUSH2 0x1BD2 JUMP JUMPDEST SWAP3 PUSH2 0x1C0E PUSH1 0x40 MLOAD SWAP5 DUP6 PUSH2 0x1B69 JUMP JUMPDEST DUP1 DUP5 MSTORE PUSH1 0x20 SWAP3 DUP4 DUP1 DUP7 ADD SWAP3 PUSH1 0x5 SHL DUP3 ADD ADD SWAP3 DUP4 GT PUSH2 0x308 JUMPI DUP4 ADD SWAP1 JUMPDEST DUP3 DUP3 LT PUSH2 0x1C38 JUMPI POP POP POP POP SWAP1 JUMP JUMPDEST DUP2 CALLDATALOAD DUP2 MSTORE SWAP1 DUP4 ADD SWAP1 DUP4 ADD PUSH2 0x1C2A JUMP JUMPDEST SWAP3 SWAP2 SWAP3 PUSH1 0x1 PUSH1 0x1 PUSH1 0x40 SHL SUB DUP3 GT PUSH2 0xA1D JUMPI PUSH1 0x40 MLOAD SWAP2 PUSH2 0x1C70 PUSH1 0x1F DUP3 ADD PUSH1 0x1F NOT AND PUSH1 0x20 ADD DUP5 PUSH2 0x1B69 JUMP JUMPDEST DUP3 SWAP5 DUP2 DUP5 MSTORE DUP2 DUP4 ADD GT PUSH2 0x308 JUMPI DUP3 DUP2 PUSH1 0x20 SWAP4 DUP5 PUSH1 0x0 SWAP7 ADD CALLDATACOPY ADD ADD MSTORE JUMP JUMPDEST SWAP1 DUP1 PUSH1 0x1F DUP4 ADD SLT ISZERO PUSH2 0x308 JUMPI DUP2 PUSH1 0x20 PUSH2 0x1CA8 SWAP4 CALLDATALOAD SWAP2 ADD PUSH2 0x1C47 JUMP JUMPDEST SWAP1 JUMP JUMPDEST SWAP1 DUP2 MLOAD DUP1 DUP3 MSTORE PUSH1 0x20 DUP1 DUP1 SWAP4 ADD SWAP4 ADD SWAP2 PUSH1 0x0 JUMPDEST DUP3 DUP2 LT PUSH2 0x1CCB JUMPI POP POP POP POP SWAP1 JUMP JUMPDEST DUP4 MLOAD DUP6 MSTORE SWAP4 DUP2 ADD SWAP4 SWAP3 DUP2 ADD SWAP3 PUSH1 0x1 ADD PUSH2 0x1CBD JUMP JUMPDEST PUSH1 0x1 PUSH1 0x1 PUSH1 0xA0 SHL SUB AND SWAP1 DUP2 ISZERO PUSH2 0x1D0C JUMPI PUSH1 0x0 MSTORE PUSH1 0x0 PUSH1 0x20 MSTORE PUSH1 0x40 PUSH1 0x0 KECCAK256 SWAP1 PUSH1 0x0 MSTORE PUSH1 0x20 MSTORE PUSH1 0x40 PUSH1 0x0 KECCAK256 SLOAD SWAP1 JUMP JUMPDEST PUSH1 0x40 MLOAD PUSH3 0x461BCD PUSH1 0xE5 SHL DUP2 MSTORE PUSH1 0x20 PUSH1 0x4 DUP3 ADD MSTORE PUSH1 0x2A PUSH1 0x24 DUP3 ADD MSTORE PUSH32 0x455243313135353A2061646472657373207A65726F206973206E6F7420612076 PUSH1 0x44 DUP3 ADD MSTORE PUSH10 0x30B634B21037BBB732B9 PUSH1 0xB1 SHL PUSH1 0x64 DUP3 ADD MSTORE PUSH1 0x84 SWAP1 REVERT JUMPDEST PUSH1 0x0 NOT DUP2 EQ PUSH2 0x1D73 JUMPI PUSH1 0x1 ADD SWAP1 JUMP JUMPDEST PUSH4 0x4E487B71 PUSH1 0xE0 SHL PUSH1 0x0 MSTORE PUSH1 0x11 PUSH1 0x4 MSTORE PUSH1 0x24 PUSH1 0x0 REVERT JUMPDEST DUP1 MLOAD DUP3 LT ISZERO PUSH2 0x1D9D JUMPI PUSH1 0x20 SWAP2 PUSH1 0x5 SHL ADD ADD SWAP1 JUMP JUMPDEST PUSH4 0x4E487B71 PUSH1 0xE0 SHL PUSH1 0x0 MSTORE PUSH1 0x32 PUSH1 0x4 MSTORE PUSH1 0x24 PUSH1 0x0 REVERT JUMPDEST ISZERO PUSH2 0x1DBA JUMPI JUMP JUMPDEST PUSH1 0x40 MLOAD PUSH3 0x461BCD PUSH1 0xE5 SHL DUP2 MSTORE PUSH1 0x20 PUSH1 0x4 DUP3 ADD MSTORE PUSH1 0x2F PUSH1 0x24 DUP3 ADD MSTORE PUSH32 0x455243313135353A2063616C6C6572206973206E6F7420746F6B656E206F776E PUSH1 0x44 DUP3 ADD MSTORE PUSH15 0x195C881B9BDC88185C1C1C9BDD9959 PUSH1 0x8A SHL PUSH1 0x64 DUP3 ADD MSTORE PUSH1 0x84 SWAP1 REVERT JUMPDEST ISZERO PUSH2 0x1E1E JUMPI JUMP JUMPDEST PUSH1 0x40 MLOAD PUSH3 0x461BCD PUSH1 0xE5 SHL DUP2 MSTORE PUSH1 0x20 PUSH1 0x4 DUP3 ADD MSTORE PUSH1 0x25 PUSH1 0x24 DUP3 ADD MSTORE PUSH32 0x455243313135353A207472616E7366657220746F20746865207A65726F206164 PUSH1 0x44 DUP3 ADD MSTORE PUSH5 0x6472657373 PUSH1 0xD8 SHL PUSH1 0x64 DUP3 ADD MSTORE PUSH1 0x84 SWAP1 REVERT JUMPDEST ISZERO PUSH2 0x1E78 JUMPI JUMP JUMPDEST PUSH1 0x40 MLOAD PUSH3 0x461BCD PUSH1 0xE5 SHL DUP2 MSTORE PUSH1 0x20 PUSH1 0x4 DUP3 ADD MSTORE PUSH1 0x2A PUSH1 0x24 DUP3 ADD MSTORE PUSH32 0x455243313135353A20696E73756666696369656E742062616C616E636520666F PUSH1 0x44 DUP3 ADD MSTORE PUSH10 0x39103A3930B739B332B9 PUSH1 0xB1 SHL PUSH1 0x64 DUP3 ADD MSTORE PUSH1 0x84 SWAP1 REVERT JUMPDEST SWAP2 SWAP1 DUP3 ADD DUP1 SWAP3 GT PUSH2 0x1D73 JUMPI JUMP JUMPDEST ISZERO PUSH2 0x1EE4 JUMPI JUMP JUMPDEST PUSH1 0x40 MLOAD PUSH3 0x461BCD PUSH1 0xE5 SHL DUP2 MSTORE PUSH1 0x20 PUSH1 0x4 DUP3 ADD MSTORE PUSH1 0x28 PUSH1 0x24 DUP3 ADD MSTORE PUSH32 0x455243313135353A2069647320616E6420616D6F756E7473206C656E67746820 PUSH1 0x44 DUP3 ADD MSTORE PUSH8 0xDAD2E6DAC2E8C6D PUSH1 0xC3 SHL PUSH1 0x64 DUP3 ADD MSTORE PUSH1 0x84 SWAP1 REVERT JUMPDEST SWAP1 SWAP2 PUSH2 0x1F51 PUSH2 0x1CA8 SWAP4 PUSH1 0x40 DUP5 MSTORE PUSH1 0x40 DUP5 ADD SWAP1 PUSH2 0x1CAB JUMP JUMPDEST SWAP2 PUSH1 0x20 DUP2 DUP5 SUB SWAP2 ADD MSTORE PUSH2 0x1CAB JUMP JUMPDEST SWAP1 DUP2 PUSH1 0x20 SWAP2 SUB SLT PUSH2 0x308 JUMPI MLOAD PUSH1 0x1 PUSH1 0x1 PUSH1 0xE0 SHL SUB NOT DUP2 AND DUP2 SUB PUSH2 0x308 JUMPI SWAP1 JUMP JUMPDEST PUSH1 0x80 SWAP1 PUSH1 0x20 DUP2 MSTORE PUSH1 0x28 PUSH1 0x20 DUP3 ADD MSTORE PUSH32 0x455243313135353A204552433131353552656365697665722072656A65637465 PUSH1 0x40 DUP3 ADD MSTORE PUSH8 0x6420746F6B656E73 PUSH1 0xC0 SHL PUSH1 0x60 DUP3 ADD MSTORE ADD SWAP1 JUMP JUMPDEST PUSH1 0x0 SWAP1 PUSH1 0x3 RETURNDATASIZE GT PUSH2 0x1FD5 JUMPI JUMP JUMPDEST SWAP1 POP PUSH1 0x4 PUSH1 0x0 DUP1 RETURNDATACOPY PUSH1 0x0 MLOAD PUSH1 0xE0 SHR SWAP1 JUMP JUMPDEST PUSH1 0x0 PUSH1 0x44 RETURNDATASIZE LT PUSH2 0x1CA8 JUMPI PUSH1 0x40 MLOAD PUSH1 0x3 NOT SWAP2 RETURNDATASIZE DUP4 ADD PUSH1 0x4 DUP4 RETURNDATACOPY DUP2 MLOAD PUSH1 0x1 PUSH1 0x1 PUSH1 0x40 SHL SUB SWAP2 DUP3 DUP3 GT RETURNDATASIZE PUSH1 0x24 DUP5 ADD GT OR PUSH2 0x2043 JUMPI DUP2 DUP5 ADD SWAP5 DUP6 MLOAD SWAP4 DUP5 GT PUSH2 0x204B JUMPI RETURNDATASIZE DUP6 ADD ADD PUSH1 0x20 DUP5 DUP8 ADD ADD GT PUSH2 0x2043 JUMPI POP PUSH2 0x1CA8 SWAP3 SWAP2 ADD PUSH1 0x20 ADD SWAP1 PUSH2 0x1B69 JUMP JUMPDEST SWAP5 SWAP4 POP POP POP POP JUMP JUMPDEST POP SWAP5 SWAP4 POP POP POP POP JUMP JUMPDEST PUSH1 0x40 MLOAD SWAP1 PUSH1 0x40 DUP3 ADD DUP3 DUP2 LT PUSH1 0x1 PUSH1 0x1 PUSH1 0x40 SHL SUB DUP3 GT OR PUSH2 0xA1D JUMPI PUSH1 0x40 MSTORE PUSH1 0x1 DUP3 MSTORE PUSH1 0x20 DUP3 ADD PUSH1 0x20 CALLDATASIZE DUP3 CALLDATACOPY DUP3 MLOAD ISZERO PUSH2 0x1D9D JUMPI MSTORE SWAP1 JUMP JUMPDEST ISZERO PUSH2 0x2090 JUMPI JUMP JUMPDEST PUSH1 0x40 MLOAD PUSH3 0x461BCD PUSH1 0xE5 SHL DUP2 MSTORE PUSH1 0x20 PUSH1 0x4 DUP3 ADD MSTORE PUSH1 0x23 PUSH1 0x24 DUP3 ADD MSTORE PUSH32 0x455243313135353A206275726E2066726F6D20746865207A65726F2061646472 PUSH1 0x44 DUP3 ADD MSTORE PUSH3 0x657373 PUSH1 0xE8 SHL PUSH1 0x64 DUP3 ADD MSTORE PUSH1 0x84 SWAP1 REVERT JUMPDEST ISZERO PUSH2 0x20E8 JUMPI JUMP JUMPDEST PUSH1 0x40 MLOAD PUSH3 0x461BCD PUSH1 0xE5 SHL DUP2 MSTORE PUSH1 0x20 PUSH1 0x4 DUP3 ADD MSTORE PUSH1 0x24 DUP1 DUP3 ADD MSTORE PUSH32 0x455243313135353A206275726E20616D6F756E7420657863656564732062616C PUSH1 0x44 DUP3 ADD MSTORE PUSH4 0x616E6365 PUSH1 0xE0 SHL PUSH1 0x64 DUP3 ADD MSTORE PUSH1 0x84 SWAP1 REVERT JUMPDEST ISZERO PUSH2 0x2140 JUMPI JUMP JUMPDEST PUSH1 0x40 MLOAD PUSH3 0x461BCD PUSH1 0xE5 SHL DUP2 MSTORE PUSH1 0x20 PUSH1 0x4 DUP3 ADD MSTORE PUSH1 0x2B PUSH1 0x24 DUP3 ADD MSTORE PUSH32 0x496E697469616C697A61626C653A20636F6E7472616374206973206E6F742069 PUSH1 0x44 DUP3 ADD MSTORE PUSH11 0x6E697469616C697A696E67 PUSH1 0xA8 SHL PUSH1 0x64 DUP3 ADD MSTORE PUSH1 0x84 SWAP1 REVERT JUMPDEST ISZERO PUSH2 0x21A0 JUMPI JUMP JUMPDEST PUSH1 0x40 MLOAD PUSH3 0x461BCD PUSH1 0xE5 SHL DUP2 MSTORE PUSH1 0x20 PUSH1 0x4 DUP3 ADD MSTORE PUSH1 0x2D PUSH1 0x24 DUP3 ADD MSTORE PUSH32 0x4B617469626568313135353A2072657374726963746564206163636573732074 PUSH1 0x44 DUP3 ADD MSTORE PUSH13 0x6F2074686520466163746F7279 PUSH1 0x98 SHL PUSH1 0x64 DUP3 ADD MSTORE PUSH1 0x84 SWAP1 REVERT JUMPDEST PUSH1 0x0 SWAP1 DUP2 MSTORE PUSH1 0x20 SWAP1 PUSH1 0x5 DUP3 MSTORE PUSH1 0x40 DUP2 KECCAK256 SWAP1 PUSH1 0x40 MLOAD SWAP1 DUP1 SWAP2 DUP4 SLOAD SWAP3 DUP2 PUSH2 0x221F DUP6 PUSH2 0x1B14 JUMP JUMPDEST SWAP2 DUP3 DUP3 MSTORE DUP8 DUP3 ADD SWAP7 PUSH1 0x1 SWAP7 DUP10 DUP9 DUP3 AND SWAP2 DUP3 PUSH1 0x0 EQ PUSH2 0x241C JUMPI POP POP PUSH1 0x1 EQ PUSH2 0x23DE JUMPI JUMPDEST POP PUSH2 0x224E SWAP3 POP SUB DUP3 PUSH2 0x1B69 JUMP JUMPDEST DUP1 MLOAD ISZERO PUSH2 0x2323 JUMPI PUSH1 0x40 MLOAD SWAP5 DUP6 SWAP4 DUP4 PUSH1 0x4 SLOAD SWAP2 PUSH2 0x2269 DUP4 PUSH2 0x1B14 JUMP JUMPDEST SWAP3 DUP2 DUP2 AND SWAP1 DUP2 ISZERO PUSH2 0x2302 JUMPI POP PUSH1 0x1 EQ PUSH2 0x22A2 JUMPI JUMPDEST POP POP POP POP PUSH2 0x2293 PUSH2 0x1CA8 SWAP5 DUP4 SWAP3 MLOAD SWAP4 DUP5 SWAP2 PUSH2 0x1B8A JUMP JUMPDEST ADD SUB PUSH1 0x1F NOT DUP2 ADD DUP4 MSTORE DUP3 PUSH2 0x1B69 JUMP JUMPDEST SWAP1 SWAP2 SWAP3 SWAP7 SWAP5 POP PUSH1 0x4 DUP3 MSTORE PUSH32 0x8A35ACFBC15FF81A39AE7D344FD709F28E8600B4AA8C65C6B64BFE7FE36BD19B JUMPDEST DUP4 DUP4 LT PUSH2 0x22EC JUMPI POP POP POP PUSH2 0x1CA8 SWAP5 PUSH2 0x2293 SWAP2 DUP6 ADD ADD SWAP3 SWAP5 CODESIZE DUP1 PUSH2 0x227D JUMP JUMPDEST DUP1 SLOAD DUP10 DUP5 ADD DUP10 ADD MSTORE DUP9 SWAP7 POP SWAP2 DUP8 ADD SWAP2 DUP2 ADD PUSH2 0x22CE JUMP JUMPDEST PUSH1 0xFF NOT AND DUP9 DUP7 ADD MSTORE POP POP POP DUP1 ISZERO ISZERO MUL DUP5 ADD ADD SWAP2 POP PUSH2 0x2293 PUSH2 0x1CA8 CODESIZE DUP1 PUSH2 0x227D JUMP JUMPDEST POP PUSH1 0x40 MLOAD PUSH1 0x2 SLOAD SWAP1 SWAP5 SWAP4 POP DUP5 SWAP3 DUP3 PUSH2 0x233A DUP4 PUSH2 0x1B14 JUMP JUMPDEST DUP1 DUP7 MSTORE SWAP3 DUP3 DUP2 AND SWAP1 DUP2 ISZERO PUSH2 0x23BC JUMPI POP PUSH1 0x1 EQ PUSH2 0x2360 JUMPI JUMPDEST POP POP POP PUSH2 0x1CA8 SWAP3 POP SUB DUP3 PUSH2 0x1B69 JUMP JUMPDEST PUSH1 0x2 DUP2 MSTORE PUSH32 0x405787FA12A823E0F2B7631CC41B3BA8828B3321CA811111FA75CD3AA3BB5ACE SWAP6 SWAP4 POP SWAP2 SWAP1 JUMPDEST DUP2 DUP4 LT PUSH2 0x23A4 JUMPI POP POP PUSH2 0x1CA8 SWAP4 POP DUP3 ADD ADD CODESIZE DUP1 DUP1 PUSH2 0x2351 JUMP JUMPDEST DUP6 SLOAD DUP8 DUP5 ADD DUP6 ADD MSTORE SWAP5 DUP6 ADD SWAP5 DUP7 SWAP5 POP SWAP2 DUP4 ADD SWAP2 PUSH2 0x238B JUMP JUMPDEST SWAP3 POP POP POP PUSH2 0x1CA8 SWAP5 SWAP3 POP PUSH1 0xFF NOT AND DUP3 DUP5 ADD MSTORE ISZERO ISZERO PUSH1 0x5 SHL DUP3 ADD ADD CODESIZE DUP1 DUP1 PUSH2 0x2351 JUMP JUMPDEST SWAP2 POP POP DUP4 MSTORE DUP2 DUP7 DUP1 DUP6 KECCAK256 DUP7 DUP7 SWAP2 JUMPDEST DUP6 DUP4 LT PUSH2 0x2403 JUMPI POP POP PUSH2 0x224E SWAP4 POP DUP3 ADD ADD CODESIZE PUSH2 0x2241 JUMP JUMPDEST DUP1 SWAP2 SWAP3 SWAP5 POP SLOAD DUP4 DUP6 DUP9 ADD ADD MSTORE ADD SWAP2 ADD DUP8 SWAP1 DUP7 DUP6 SWAP4 PUSH2 0x23EC JUMP JUMPDEST PUSH1 0xFF NOT AND DUP11 MSTORE PUSH2 0x224E SWAP6 ISZERO ISZERO PUSH1 0x5 SHL DUP6 ADD ADD SWAP3 POP CODESIZE SWAP2 POP PUSH2 0x2241 SWAP1 POP JUMP JUMPDEST PUSH1 0x6 SLOAD PUSH1 0x10 SHR PUSH1 0x1 PUSH1 0x1 PUSH1 0xA0 SHL SUB AND CALLER SUB PUSH2 0x2451 JUMPI JUMP JUMPDEST PUSH1 0x64 PUSH1 0x40 MLOAD PUSH3 0x461BCD PUSH1 0xE5 SHL DUP2 MSTORE PUSH1 0x20 PUSH1 0x4 DUP3 ADD MSTORE PUSH1 0x20 PUSH1 0x24 DUP3 ADD MSTORE PUSH32 0x4F776E61626C653A2063616C6C6572206973206E6F7420746865206F776E6572 PUSH1 0x44 DUP3 ADD MSTORE REVERT JUMPDEST PUSH1 0x6 DUP1 SLOAD PUSH3 0x10000 PUSH1 0x1 PUSH1 0xB0 SHL SUB NOT DUP2 AND PUSH1 0x10 DUP5 DUP2 SHL PUSH3 0x10000 PUSH1 0x1 PUSH1 0xB0 SHL SUB AND SWAP2 SWAP1 SWAP2 OR SWAP1 SWAP3 SSTORE PUSH1 0x1 PUSH1 0x1 PUSH1 0xA0 SHL SUB SWAP3 DUP4 AND SWAP3 SWAP2 SHR AND PUSH32 0x8BE0079C531659141344CD1FD0A4F28419497F9722A3DAAFE3B4186F6B6457E0 PUSH1 0x0 DUP1 LOG3 JUMP INVALID GASLIMIT MSTORE NUMBER BALANCE BALANCE CALLDATALOAD CALLDATALOAD GASPRICE KECCAK256 PUSH3 0x75726E KECCAK256 PUSH2 0x6D6F PUSH22 0x6E74206578636565647320746F74A264697066735822 SLT KECCAK256 DUP3 RETURN 0xAF CODESIZE PUSH10 0x2E9DC069861D7E7ABED 0x29 MSIZE 0xD6 0x27 0xB6 SWAP13 0xDD 0x5E SWAP16 GAS PUSH22 0x6B697FD7C85364736F6C634300081100330000000000 "},"methodIdentifiers":{"_tokenCollection(uint256)":"5fd099e6","_userCollection(address)":"9f9028d5","collect1(uint256,(address,uint256,uint256,uint256,string,bytes,uint256[],bytes32[],(address,uint16)[]),bytes,bytes)":"05e6ec4a","collect2(uint256,bytes,(address,uint16)[])":"958785ea","fee(uint256)":"39b37ab0","getHash((address,uint256,uint256,uint256,string,bytes,uint256[],bytes32[],(address,uint16)[]))":"662ec09e","getUriId(bytes32)":"78292236","implementation()":"5c60da1b","predictCollectionAddr(address)":"07d32f2a","setReceiver1(address)":"03c13148","tokenInfo(uint256)":"cc33c875","tokensInfoBatch(uint256[])":"2b0eca8c","uri(uint256)":"0e89341c"}}}}}