{"contracts/Test.sol":{"Test":{"abi":[{"inputs":[],"name":"a","outputs":[{"internalType":"uint256","name":"","type":"uint256"}],"stateMutability":"view","type":"function"},{"inputs":[{"internalType":"address","name":"","type":"address"}],"name":"balance","outputs":[{"internalType":"uint256","name":"","type":"uint256"}],"stateMutability":"view","type":"function"},{"inputs":[{"internalType":"uint256","name":"_a","type":"uint256"}],"name":"set","outputs":[],"stateMutability":"payable","type":"function"},{"inputs":[],"name":"withdraw","outputs":[],"stateMutability":"nonpayable","type":"function"}],"evm":{"bytecode":{"linkReferences":{},"object":"6080806040523461001657610169908161001c8239f35b600080fdfe60806040818152600436101561001457600080fd5b600091823560e01c9081630dbe671f14610119575080633ccfd60b146100d157806360fe47b1146100905763e3d670d71461004e57600080fd5b3461008c57602036600319011261008c576004356001600160a01b0381169081900361008857828291602094526001845220549051908152f35b8280fd5b5080fd5b50602036600319011261008c57338252600160205281208054903482018092116100bd5755600435815580f35b634e487b7160e01b83526011600452602483fd5b503461008c578160031936011261008c5733825260016020528180808084812054818115610110575b3390f115610106575080f35b51903d90823e3d90fd5b506108fc6100fa565b83903461008c578160031936011261008c57602091548152f3fea264697066735822122076ddde825178891abd21187e4a210c60dabfec82a18b3ec6d07013a35749e06d64736f6c63430008110033","opcodes":"PUSH1 0x80 DUP1 PUSH1 0x40 MSTORE CALLVALUE PUSH2 0x16 JUMPI PUSH2 0x169 SWAP1 DUP2 PUSH2 0x1C DUP3 CODECOPY RETURN JUMPDEST PUSH1 0x0 DUP1 REVERT INVALID PUSH1 0x80 PUSH1 0x40 DUP2 DUP2 MSTORE PUSH1 0x4 CALLDATASIZE LT ISZERO PUSH2 0x14 JUMPI PUSH1 0x0 DUP1 REVERT JUMPDEST PUSH1 0x0 SWAP2 DUP3 CALLDATALOAD PUSH1 0xE0 SHR SWAP1 DUP2 PUSH4 0xDBE671F EQ PUSH2 0x119 JUMPI POP DUP1 PUSH4 0x3CCFD60B EQ PUSH2 0xD1 JUMPI DUP1 PUSH4 0x60FE47B1 EQ PUSH2 0x90 JUMPI PUSH4 0xE3D670D7 EQ PUSH2 0x4E JUMPI PUSH1 0x0 DUP1 REVERT JUMPDEST CALLVALUE PUSH2 0x8C JUMPI PUSH1 0x20 CALLDATASIZE PUSH1 0x3 NOT ADD SLT PUSH2 0x8C JUMPI PUSH1 0x4 CALLDATALOAD PUSH1 0x1 PUSH1 0x1 PUSH1 0xA0 SHL SUB DUP2 AND SWAP1 DUP2 SWAP1 SUB PUSH2 0x88 JUMPI DUP3 DUP3 SWAP2 PUSH1 0x20 SWAP5 MSTORE PUSH1 0x1 DUP5 MSTORE KECCAK256 SLOAD SWAP1 MLOAD SWAP1 DUP2 MSTORE RETURN JUMPDEST DUP3 DUP1 REVERT JUMPDEST POP DUP1 REVERT JUMPDEST POP PUSH1 0x20 CALLDATASIZE PUSH1 0x3 NOT ADD SLT PUSH2 0x8C JUMPI CALLER DUP3 MSTORE PUSH1 0x1 PUSH1 0x20 MSTORE DUP2 KECCAK256 DUP1 SLOAD SWAP1 CALLVALUE DUP3 ADD DUP1 SWAP3 GT PUSH2 0xBD JUMPI SSTORE PUSH1 0x4 CALLDATALOAD DUP2 SSTORE DUP1 RETURN JUMPDEST PUSH4 0x4E487B71 PUSH1 0xE0 SHL DUP4 MSTORE PUSH1 0x11 PUSH1 0x4 MSTORE PUSH1 0x24 DUP4 REVERT JUMPDEST POP CALLVALUE PUSH2 0x8C JUMPI DUP2 PUSH1 0x3 NOT CALLDATASIZE ADD SLT PUSH2 0x8C JUMPI CALLER DUP3 MSTORE PUSH1 0x1 PUSH1 0x20 MSTORE DUP2 DUP1 DUP1 DUP1 DUP5 DUP2 KECCAK256 SLOAD DUP2 DUP2 ISZERO PUSH2 0x110 JUMPI JUMPDEST CALLER SWAP1 CALL ISZERO PUSH2 0x106 JUMPI POP DUP1 RETURN JUMPDEST MLOAD SWAP1 RETURNDATASIZE SWAP1 DUP3 RETURNDATACOPY RETURNDATASIZE SWAP1 REVERT JUMPDEST POP PUSH2 0x8FC PUSH2 0xFA JUMP JUMPDEST DUP4 SWAP1 CALLVALUE PUSH2 0x8C JUMPI DUP2 PUSH1 0x3 NOT CALLDATASIZE ADD SLT PUSH2 0x8C JUMPI PUSH1 0x20 SWAP2 SLOAD DUP2 MSTORE RETURN INVALID LOG2 PUSH5 0x6970667358 0x22 SLT KECCAK256 PUSH23 0xDDDE825178891ABD21187E4A210C60DABFEC82A18B3EC6 0xD0 PUSH17 0x13A35749E06D64736F6C63430008110033 "},"methodIdentifiers":{"a()":"0dbe671f","balance(address)":"e3d670d7","set(uint256)":"60fe47b1","withdraw()":"3ccfd60b"}}}}}