{"contracts/katibeh721/Katibeh721.sol":{"Katibeh721":{"abi":[{"inputs":[],"stateMutability":"nonpayable","type":"constructor"},{"anonymous":false,"inputs":[{"indexed":true,"internalType":"address","name":"owner","type":"address"},{"indexed":true,"internalType":"address","name":"approved","type":"address"},{"indexed":true,"internalType":"uint256","name":"tokenId","type":"uint256"}],"name":"Approval","type":"event"},{"anonymous":false,"inputs":[{"indexed":true,"internalType":"address","name":"owner","type":"address"},{"indexed":true,"internalType":"address","name":"operator","type":"address"},{"indexed":false,"internalType":"bool","name":"approved","type":"bool"}],"name":"ApprovalForAll","type":"event"},{"anonymous":false,"inputs":[{"indexed":true,"internalType":"uint256","name":"tokenId","type":"uint256"},{"indexed":true,"internalType":"uint256","name":"toTokenId","type":"uint256"}],"name":"NewReply","type":"event"},{"anonymous":false,"inputs":[{"indexed":true,"internalType":"uint256","name":"tokenId","type":"uint256"},{"indexed":true,"internalType":"address","name":"creator","type":"address"},{"indexed":true,"internalType":"bytes","name":"data","type":"bytes"},{"indexed":false,"internalType":"uint256","name":"signTime","type":"uint256"},{"indexed":false,"internalType":"uint256","name":"initTime","type":"uint256"},{"indexed":false,"internalType":"uint256","name":"expTime","type":"uint256"}],"name":"NewToken","type":"event"},{"anonymous":false,"inputs":[{"indexed":false,"internalType":"uint256","name":"tokenId","type":"uint256"},{"indexed":true,"internalType":"bytes32","name":"tag1","type":"bytes32"},{"indexed":true,"internalType":"bytes32","name":"tag2","type":"bytes32"},{"indexed":true,"internalType":"bytes32","name":"tag3","type":"bytes32"}],"name":"Tags","type":"event"},{"anonymous":false,"inputs":[{"indexed":true,"internalType":"address","name":"from","type":"address"},{"indexed":true,"internalType":"address","name":"to","type":"address"},{"indexed":true,"internalType":"uint256","name":"tokenId","type":"uint256"}],"name":"Transfer","type":"event"},{"inputs":[{"internalType":"address","name":"to","type":"address"},{"internalType":"uint256","name":"tokenId","type":"uint256"}],"name":"approve","outputs":[],"stateMutability":"nonpayable","type":"function"},{"inputs":[{"internalType":"address","name":"owner","type":"address"}],"name":"balanceOf","outputs":[{"internalType":"uint256","name":"","type":"uint256"}],"stateMutability":"view","type":"function"},{"inputs":[{"internalType":"uint256","name":"tokenId","type":"uint256"}],"name":"burn","outputs":[],"stateMutability":"nonpayable","type":"function"},{"inputs":[],"name":"creatorAddresses","outputs":[{"internalType":"address[]","name":"creator","type":"address[]"}],"stateMutability":"view","type":"function"},{"inputs":[{"internalType":"uint256","name":"index","type":"uint256"}],"name":"creatorByIndex","outputs":[{"internalType":"address","name":"creator","type":"address"}],"stateMutability":"view","type":"function"},{"inputs":[{"internalType":"uint256[]","name":"index","type":"uint256[]"}],"name":"creatorsByIndexBatch","outputs":[{"internalType":"address[]","name":"creator","type":"address[]"}],"stateMutability":"view","type":"function"},{"inputs":[{"internalType":"uint256","name":"tokenId","type":"uint256"}],"name":"getApproved","outputs":[{"internalType":"address","name":"","type":"address"}],"stateMutability":"view","type":"function"},{"inputs":[{"components":[{"internalType":"address","name":"creator","type":"address"},{"internalType":"uint256","name":"signTime","type":"uint256"},{"internalType":"uint256","name":"initTime","type":"uint256"},{"internalType":"uint256","name":"expTime","type":"uint256"},{"internalType":"string","name":"tokenURI","type":"string"},{"internalType":"bytes","name":"data","type":"bytes"},{"internalType":"uint256[]","name":"toTokenId","type":"uint256[]"},{"internalType":"bytes32[]","name":"tags","type":"bytes32[]"},{"components":[{"internalType":"address","name":"addr","type":"address"},{"internalType":"uint16","name":"share","type":"uint16"}],"internalType":"struct DataStorage.Payee[]","name":"owners","type":"tuple[]"}],"internalType":"struct DataStorage.Katibeh","name":"katibeh","type":"tuple"}],"name":"getHash","outputs":[{"internalType":"bytes32","name":"","type":"bytes32"}],"stateMutability":"view","type":"function"},{"inputs":[{"internalType":"bytes32","name":"uriHash","type":"bytes32"}],"name":"getUriId","outputs":[{"internalType":"uint256","name":"","type":"uint256"}],"stateMutability":"view","type":"function"},{"inputs":[{"internalType":"address","name":"owner","type":"address"},{"internalType":"address","name":"operator","type":"address"}],"name":"isApprovedForAll","outputs":[{"internalType":"bool","name":"","type":"bool"}],"stateMutability":"view","type":"function"},{"inputs":[],"name":"name","outputs":[{"internalType":"string","name":"","type":"string"}],"stateMutability":"view","type":"function"},{"inputs":[],"name":"numberOfCreators","outputs":[{"internalType":"uint256","name":"","type":"uint256"}],"stateMutability":"view","type":"function"},{"inputs":[{"internalType":"address","name":"toCreator","type":"address"}],"name":"numberOfRepliesToCreator","outputs":[{"internalType":"uint256","name":"","type":"uint256"}],"stateMutability":"view","type":"function"},{"inputs":[{"internalType":"address[]","name":"toCreator","type":"address[]"}],"name":"numberOfRepliesToCreatorBatch","outputs":[{"internalType":"uint256[]","name":"count","type":"uint256[]"}],"stateMutability":"view","type":"function"},{"inputs":[{"internalType":"uint256","name":"tokenId","type":"uint256"}],"name":"numberOfTokenReplies","outputs":[{"internalType":"uint256","name":"","type":"uint256"}],"stateMutability":"view","type":"function"},{"inputs":[{"internalType":"uint256[]","name":"tokenId","type":"uint256[]"}],"name":"numberOfTokenRepliesBatch","outputs":[{"internalType":"uint256[]","name":"count","type":"uint256[]"}],"stateMutability":"view","type":"function"},{"inputs":[{"internalType":"bytes32","name":"tag","type":"bytes32"}],"name":"numberOfTokensByTag","outputs":[{"internalType":"uint256","name":"","type":"uint256"}],"stateMutability":"view","type":"function"},{"inputs":[{"internalType":"bytes32[]","name":"tag","type":"bytes32[]"}],"name":"numberOfTokensByTagBatch","outputs":[{"internalType":"uint256[]","name":"count","type":"uint256[]"}],"stateMutability":"view","type":"function"},{"inputs":[{"internalType":"address","name":"creator","type":"address"}],"name":"numberOfTokensOfCreator","outputs":[{"internalType":"uint256","name":"","type":"uint256"}],"stateMutability":"view","type":"function"},{"inputs":[{"internalType":"address[]","name":"creator","type":"address[]"}],"name":"numberOfTokensOfCreatorBatch","outputs":[{"internalType":"uint256[]","name":"count","type":"uint256[]"}],"stateMutability":"view","type":"function"},{"inputs":[],"name":"numberOfTokensTraceable","outputs":[{"internalType":"uint256","name":"count","type":"uint256"}],"stateMutability":"view","type":"function"},{"inputs":[{"internalType":"uint256","name":"tokenId","type":"uint256"}],"name":"ownerOf","outputs":[{"internalType":"address","name":"","type":"address"}],"stateMutability":"view","type":"function"},{"inputs":[{"internalType":"address","name":"toCreator","type":"address"}],"name":"repliesToCreator","outputs":[{"internalType":"uint256[]","name":"ids","type":"uint256[]"}],"stateMutability":"view","type":"function"},{"inputs":[{"internalType":"address","name":"toCreator","type":"address"},{"internalType":"uint256","name":"index","type":"uint256"}],"name":"repliesToCreatorByIndex","outputs":[{"internalType":"uint256","name":"id","type":"uint256"}],"stateMutability":"view","type":"function"},{"inputs":[{"internalType":"address","name":"toCreator","type":"address"},{"internalType":"uint256[]","name":"index","type":"uint256[]"}],"name":"repliesToCreatorByIndexBatch","outputs":[{"internalType":"uint256[]","name":"id","type":"uint256[]"}],"stateMutability":"view","type":"function"},{"inputs":[{"components":[{"internalType":"address","name":"creator","type":"address"},{"internalType":"uint256","name":"signTime","type":"uint256"},{"internalType":"uint256","name":"initTime","type":"uint256"},{"internalType":"uint256","name":"expTime","type":"uint256"},{"internalType":"string","name":"tokenURI","type":"string"},{"internalType":"bytes","name":"data","type":"bytes"},{"internalType":"uint256[]","name":"toTokenId","type":"uint256[]"},{"internalType":"bytes32[]","name":"tags","type":"bytes32[]"},{"components":[{"internalType":"address","name":"addr","type":"address"},{"internalType":"uint16","name":"share","type":"uint16"}],"internalType":"struct DataStorage.Payee[]","name":"owners","type":"tuple[]"}],"internalType":"struct DataStorage.Katibeh","name":"katibeh","type":"tuple"},{"internalType":"bytes","name":"sig","type":"bytes"},{"internalType":"bytes","name":"dappData","type":"bytes"}],"name":"safeMint","outputs":[{"internalType":"uint256","name":"tokenId","type":"uint256"}],"stateMutability":"nonpayable","type":"function"},{"inputs":[{"components":[{"internalType":"address","name":"creator","type":"address"},{"internalType":"uint256","name":"signTime","type":"uint256"},{"internalType":"uint256","name":"initTime","type":"uint256"},{"internalType":"uint256","name":"expTime","type":"uint256"},{"internalType":"string","name":"tokenURI","type":"string"},{"internalType":"bytes","name":"data","type":"bytes"},{"internalType":"uint256[]","name":"toTokenId","type":"uint256[]"},{"internalType":"bytes32[]","name":"tags","type":"bytes32[]"},{"components":[{"internalType":"address","name":"addr","type":"address"},{"internalType":"uint16","name":"share","type":"uint16"}],"internalType":"struct DataStorage.Payee[]","name":"owners","type":"tuple[]"}],"internalType":"struct DataStorage.Katibeh","name":"katibeh","type":"tuple"},{"internalType":"bytes","name":"sig","type":"bytes"},{"internalType":"bytes","name":"dappData","type":"bytes"}],"name":"safeMintAndSetTraceStorage","outputs":[],"stateMutability":"nonpayable","type":"function"},{"inputs":[{"internalType":"address","name":"from","type":"address"},{"internalType":"address","name":"to","type":"address"},{"internalType":"uint256","name":"tokenId","type":"uint256"}],"name":"safeTransferFrom","outputs":[],"stateMutability":"nonpayable","type":"function"},{"inputs":[{"internalType":"address","name":"from","type":"address"},{"internalType":"address","name":"to","type":"address"},{"internalType":"uint256","name":"tokenId","type":"uint256"},{"internalType":"bytes","name":"data","type":"bytes"}],"name":"safeTransferFrom","outputs":[],"stateMutability":"nonpayable","type":"function"},{"inputs":[{"internalType":"address","name":"operator","type":"address"},{"internalType":"bool","name":"approved","type":"bool"}],"name":"setApprovalForAll","outputs":[],"stateMutability":"nonpayable","type":"function"},{"inputs":[{"internalType":"bytes4","name":"interfaceId","type":"bytes4"}],"name":"supportsInterface","outputs":[{"internalType":"bool","name":"","type":"bool"}],"stateMutability":"view","type":"function"},{"inputs":[],"name":"symbol","outputs":[{"internalType":"string","name":"","type":"string"}],"stateMutability":"view","type":"function"},{"inputs":[],"name":"timeStamp","outputs":[{"internalType":"uint256","name":"","type":"uint256"}],"stateMutability":"view","type":"function"},{"inputs":[{"internalType":"uint256","name":"index","type":"uint256"}],"name":"tokenByIndex","outputs":[{"internalType":"uint256","name":"","type":"uint256"}],"stateMutability":"view","type":"function"},{"inputs":[{"internalType":"uint256","name":"index","type":"uint256"}],"name":"tokenByIndexTraceable","outputs":[{"internalType":"uint256","name":"id","type":"uint256"}],"stateMutability":"view","type":"function"},{"inputs":[{"internalType":"uint256","name":"tokenId","type":"uint256"}],"name":"tokenInfo","outputs":[{"components":[{"internalType":"address","name":"creator","type":"address"},{"internalType":"uint256","name":"signTime","type":"uint256"},{"internalType":"uint256","name":"initTime","type":"uint256"},{"internalType":"uint256","name":"expTime","type":"uint256"},{"internalType":"string","name":"tokenURI","type":"string"},{"internalType":"bytes","name":"data","type":"bytes"},{"internalType":"uint256[]","name":"toTokenId","type":"uint256[]"},{"internalType":"bytes32[]","name":"tags","type":"bytes32[]"},{"components":[{"internalType":"address","name":"addr","type":"address"},{"internalType":"uint16","name":"share","type":"uint16"}],"internalType":"struct DataStorage.Payee[]","name":"owners","type":"tuple[]"}],"internalType":"struct DataStorage.Katibeh","name":"katibeh","type":"tuple"},{"internalType":"bytes","name":"sig","type":"bytes"},{"internalType":"bytes","name":"dappData","type":"bytes"}],"stateMutability":"view","type":"function"},{"inputs":[{"internalType":"address","name":"creator","type":"address"},{"internalType":"uint256","name":"index","type":"uint256"}],"name":"tokenOfCreatorByIndex","outputs":[{"internalType":"uint256","name":"id","type":"uint256"}],"stateMutability":"view","type":"function"},{"inputs":[{"internalType":"address","name":"owner","type":"address"},{"internalType":"uint256","name":"index","type":"uint256"}],"name":"tokenOfOwnerByIndex","outputs":[{"internalType":"uint256","name":"","type":"uint256"}],"stateMutability":"view","type":"function"},{"inputs":[{"internalType":"bytes32","name":"tag","type":"bytes32"},{"internalType":"uint256","name":"index","type":"uint256"}],"name":"tokenOfTagByIndex","outputs":[{"internalType":"uint256","name":"id","type":"uint256"}],"stateMutability":"view","type":"function"},{"inputs":[{"internalType":"uint256","name":"tokenId","type":"uint256"}],"name":"tokenReplies","outputs":[{"internalType":"uint256[]","name":"ids","type":"uint256[]"}],"stateMutability":"view","type":"function"},{"inputs":[{"internalType":"uint256","name":"tokenId","type":"uint256"},{"internalType":"uint256[]","name":"index","type":"uint256[]"}],"name":"tokenRepliesByIndexBatch","outputs":[{"internalType":"uint256[]","name":"id","type":"uint256[]"}],"stateMutability":"view","type":"function"},{"inputs":[{"internalType":"uint256","name":"tokenId","type":"uint256"},{"internalType":"uint256","name":"index","type":"uint256"}],"name":"tokenReplyByIndex","outputs":[{"internalType":"uint256","name":"id","type":"uint256"}],"stateMutability":"view","type":"function"},{"inputs":[{"internalType":"uint256","name":"tokenId","type":"uint256"}],"name":"tokenURI","outputs":[{"internalType":"string","name":"","type":"string"}],"stateMutability":"view","type":"function"},{"inputs":[{"internalType":"uint256[]","name":"index","type":"uint256[]"}],"name":"tokensByIndexTraceableBatch","outputs":[{"internalType":"uint256[]","name":"id","type":"uint256[]"}],"stateMutability":"view","type":"function"},{"inputs":[{"internalType":"uint256[]","name":"tokenId","type":"uint256[]"}],"name":"tokensInfoBatch","outputs":[{"components":[{"internalType":"address","name":"creator","type":"address"},{"internalType":"uint256","name":"signTime","type":"uint256"},{"internalType":"uint256","name":"initTime","type":"uint256"},{"internalType":"uint256","name":"expTime","type":"uint256"},{"internalType":"string","name":"tokenURI","type":"string"},{"internalType":"bytes","name":"data","type":"bytes"},{"internalType":"uint256[]","name":"toTokenId","type":"uint256[]"},{"internalType":"bytes32[]","name":"tags","type":"bytes32[]"},{"components":[{"internalType":"address","name":"addr","type":"address"},{"internalType":"uint16","name":"share","type":"uint16"}],"internalType":"struct DataStorage.Payee[]","name":"owners","type":"tuple[]"}],"internalType":"struct DataStorage.Katibeh[]","name":"katibeh","type":"tuple[]"},{"internalType":"bytes[]","name":"sig","type":"bytes[]"},{"internalType":"bytes[]","name":"dappData","type":"bytes[]"}],"stateMutability":"view","type":"function"},{"inputs":[{"internalType":"address","name":"creator","type":"address"}],"name":"tokensOfCreator","outputs":[{"internalType":"uint256[]","name":"ids","type":"uint256[]"}],"stateMutability":"view","type":"function"},{"inputs":[{"internalType":"address","name":"creator","type":"address"},{"internalType":"uint256[]","name":"index","type":"uint256[]"}],"name":"tokensOfCreatorByIndexBatch","outputs":[{"internalType":"uint256[]","name":"id","type":"uint256[]"}],"stateMutability":"view","type":"function"},{"inputs":[{"internalType":"bytes32","name":"tag","type":"bytes32"}],"name":"tokensOfTag","outputs":[{"internalType":"uint256[]","name":"ids","type":"uint256[]"}],"stateMutability":"view","type":"function"},{"inputs":[{"internalType":"bytes32","name":"tag","type":"bytes32"},{"internalType":"uint256[]","name":"index","type":"uint256[]"}],"name":"tokensOfTagByIndexBatch","outputs":[{"internalType":"uint256[]","name":"id","type":"uint256[]"}],"stateMutability":"view","type":"function"},{"inputs":[],"name":"totalSupply","outputs":[{"internalType":"uint256","name":"","type":"uint256"}],"stateMutability":"view","type":"function"},{"inputs":[{"internalType":"address","name":"creator","type":"address"},{"internalType":"uint256","name":"id","type":"uint256"}],"name":"traceTokenByCreator","outputs":[{"internalType":"uint256","name":"numberOfPreviousIds","type":"uint256"},{"internalType":"uint256","name":"numberOfNextIds","type":"uint256"},{"internalType":"uint256","name":"previousId","type":"uint256"},{"internalType":"uint256","name":"nextId","type":"uint256"}],"stateMutability":"view","type":"function"},{"inputs":[{"internalType":"uint256","name":"id","type":"uint256"}],"name":"traceTokenById","outputs":[{"internalType":"uint256","name":"numberOfPreviousIds","type":"uint256"},{"internalType":"uint256","name":"numberOfNextIds","type":"uint256"},{"internalType":"uint256","name":"previousId","type":"uint256"},{"internalType":"uint256","name":"nextId","type":"uint256"}],"stateMutability":"view","type":"function"},{"inputs":[{"internalType":"bytes32","name":"tag","type":"bytes32"},{"internalType":"uint256","name":"id","type":"uint256"}],"name":"traceTokenByTag","outputs":[{"internalType":"uint256","name":"numberOfPreviousIds","type":"uint256"},{"internalType":"uint256","name":"numberOfNextIds","type":"uint256"},{"internalType":"uint256","name":"previousId","type":"uint256"},{"internalType":"uint256","name":"nextId","type":"uint256"}],"stateMutability":"view","type":"function"},{"inputs":[{"internalType":"address","name":"from","type":"address"},{"internalType":"address","name":"to","type":"address"},{"internalType":"uint256","name":"tokenId","type":"uint256"}],"name":"transferFrom","outputs":[],"stateMutability":"nonpayable","type":"function"}],"evm":{"bytecode":{"linkReferences":{},"object":"60803462000311576001600160401b039060409080820183811182821017620002fb578252600a8152602092694b61746962656837323160b01b84830152825183810181811083821117620002fb578452600781526609682a892848a960cb1b85820152825190828211620002fb5760008054926001958685811c95168015620002f0575b89861014620002dc578190601f9586811162000289575b5089908683116001146200022557849262000219575b5050600019600383901b1c191690861b1781555b8151938411620002055784548581811c91168015620001fa575b88821014620001e6578381116200019e575b508692841160011462000138578394959650926200012c575b5050600019600383901b1c191690821b1790555b516146569081620003178239f35b0151905038806200010a565b9190601f1984169685845280842093905b8882106200018657505083859697106200016c575b505050811b0190556200011e565b015160001960f88460031b161c191690553880806200015e565b80878596829496860151815501950193019062000149565b8582528782208480870160051c8201928a8810620001dc575b0160051c019086905b828110620001d0575050620000f1565b838155018690620001c0565b92508192620001b7565b634e487b7160e01b82526022600452602482fd5b90607f1690620000df565b634e487b7160e01b81526041600452602490fd5b015190503880620000b1565b8480528a85208994509190601f198416865b8d82821062000272575050841162000258575b505050811b018155620000c5565b015160001960f88460031b161c191690553880806200024a565b8385015186558c9790950194938401930162000237565b9091508380528984208680850160051c8201928c8610620002d2575b918a91869594930160051c01915b828110620002c35750506200009b565b8681558594508a9101620002b3565b92508192620002a5565b634e487b7160e01b83526022600452602483fd5b94607f169462000084565b634e487b7160e01b600052604160045260246000fd5b600080fdfe60806040526004361015610013575b600080fd5b60003560e01c8063017642e41461044b57806301ffc9a71461044257806306fdde0314610439578063081812fc14610430578063095ea7b3146104275780630ab0df871461041e578063132e75d6146104155780631674ed4b1461040c57806318160ddd146104035780631ae69b61146103fa57806323b872dd146103f157806326156636146103e857806329c7785f146103df5780632b0eca8c146103d65780632c230901146103cd5780632e0d0718146103c45780632f745c59146103bb57806331d99545146103b25780633552d220146103a957806339d77f25146103a057806340b947571461039757806342842e0e1461038e57806342966c68146103855780634667c8841461037c5780634832e8f3146103735780634f6ccce71461036a5780634fc092751461036157806360f6a4a3146103585780636352211e1461034f578063662ec09e146103465780636d571b6a1461033d57806370a08231146103345780637372e98d1461032b57806378292236146103225780638282674f146103195780638f93fb391461031057806395d89b411461030757806396cc6a34146102fe578063a22cb465146102f5578063af3ea105146102ec578063b1582201146102e3578063b88d4fde146102da578063bfc9b364146102d1578063c03d1d91146102c8578063c3512876146102bf578063c87b56dd146102b6578063cc33c875146102ad578063cca3c766146102a4578063dd4687911461029b578063e985e9c514610292578063f353a73214610289578063f6bd7ab814610280578063f99458a4146102775763fe649b7e1461026f57600080fd5b61000e611e3b565b5061000e611dfb565b5061000e611dac565b5061000e611d89565b5061000e611d20565b5061000e611d01565b5061000e611ca6565b5061000e611c4d565b5061000e611bf8565b5061000e611bb2565b5061000e611b24565b5061000e611ae7565b5061000e611a7f565b5061000e611945565b5061000e6118e6565b5061000e6117f5565b5061000e61176c565b5061000e6116c6565b5061000e61166b565b5061000e611632565b5061000e611605565b5061000e6115e8565b5061000e6115c0565b5061000e6115a1565b5061000e611566565b5061000e611547565b5061000e611524565b5061000e6114f8565b5061000e61144c565b5061000e611356565b5061000e611291565b5061000e6111cf565b5061000e6111a6565b5061000e61111e565b5061000e611000565b5061000e610fde565b5061000e610f70565b5061000e610eb8565b5061000e610e8d565b5061000e610e15565b5061000e610d4f565b5061000e610a36565b5061000e610a0f565b5061000e6109e5565b5061000e61099a565b5061000e61097b565b5061000e6108e9565b5061000e610899565b5061000e610841565b5061000e610766565b5061000e610717565b5061000e610637565b5061000e61055a565b5061000e6104bf565b9181601f8401121561000e578235916001600160401b03831161000e576020808501948460051b01011161000e57565b6020908160408183019282815285518094520193019160005b8281106104ab575050505090565b83518552938101939281019260010161049d565b503461000e57604036600319011261000e576004356024356001600160401b03811161000e576104f3903690600401610454565b916104fd8361406a565b9260005b81811061051a57604051806105168782610484565b0390f35b8061053361052c610543938588612f38565b3585614481565b61053d8288613e72565b52612ee5565b610501565b6001600160e01b031981160361000e57565b503461000e57602036600319011261000e57602060043561057a81610548565b63ffffffff60e01b1663780e9d6360e01b81149081156105a0575b506040519015158152f35b6380ac58cd60e01b8114915081156105d2575b81156105c1575b5038610595565b6301ffc9a760e01b149050386105ba565b635b5e139f60e01b811491506105b3565b919082519283825260005b84811061060f575050826000602080949584010152601f8019910116010190565b6020818301810151848301820152016105ee565b9060206106349281815201906105e3565b90565b503461000e57600080600319360112610714576040519080805461065a81611f89565b808552916001918083169081156106ea5750600114610690575b61051685610684818703826119dd565b60405191829182610623565b80809450527f290decd9548b62a8d60345a988386fc84ba6bc95484008f6362f93160ef3e5635b8284106106d257505050810160200161068482610516610674565b805460208587018101919091529093019281016106b7565b8695506105169693506020925061068494915060ff191682840152151560051b8201019293610674565b80fd5b503461000e57602036600319011261000e5760206107366004356120e6565b6040516001600160a01b039091168152f35b6001600160a01b0381160361000e57565b359061076482610748565b565b503461000e57604036600319011261000e5760043561078481610748565b60243561079081611f66565b916001600160a01b0380841690821681146107f2576107c2936107bd9133149081156107c4575b50612074565b6124cb565b005b6001600160a01b0316600090815260056020908152604080832033845290915290205460ff169050386107b7565b60405162461bcd60e51b815260206004820152602160248201527f4552433732313a20617070726f76616c20746f2063757272656e74206f776e656044820152603960f91b6064820152608490fd5b503461000e57600036600319011261000e576020604051428152f35b90604060031983011261000e5760043561087681610748565b91602435906001600160401b03821161000e5761089591600401610454565b9091565b503461000e576108a83661085d565b916108b28361406a565b9260005b8181106108cb57604051806105168782610484565b806105336108dd6108e4938588612f38565b3585614382565b6108b6565b503461000e5760408060031936011261000e576004356024356001600160401b03811161000e5761091e903690600401610454565b916109288361406a565b92600090815b818110610942578651806105168882610484565b80610965610954610976938589612f38565b358686526014602052898620612736565b90549060031b1c61053d8289613e72565b61092e565b503461000e57600036600319011261000e576020600854604051908152f35b503461000e57600036600319011261000e576020601254604051908152f35b606090600319011261000e576004356109d181610748565b906024356109de81610748565b9060443590565b503461000e576107c26109f7366109b9565b91610a0a610a05843361222a565b612124565b612336565b503461000e57602036600319011261000e576020610a2e60043561409c565b604051908152f35b503461000e57604036600319011261000e57600080600435825260166020526105166040832092610a69602435856141a5565b92845494848603958611610b1c575b600019868101968711610b0f575b85610ad4575b5085610ab7575b50604051948594859094939260609260808301968352602083015260408201520152565b610acc919250610ac685612328565b90614106565b509038610a93565b610aea9192508501858111610b02575b82612736565b90549060031b1c808352600282016020529038610a8c565b610b0a6122fa565b610ae4565b610b176122fa565b610a86565b610b246122fa565b610a78565b602060031982011261000e57600435906001600160401b03821161000e5761089591600401610454565b90815180825260208080930193019160005b828110610b73575050505090565b835185529381019392810192600101610b65565b90815180825260208080930193019160005b828110610ba7575050505090565b835180516001600160a01b0316865282015161ffff168583015260409094019392810192600101610b99565b80516001600160a01b031682526106349190602081015160208301526040810151604083015260608101516060830152610c5b610c49610c37610c2560808501516101208060808901528701906105e3565b60a085015186820360a08801526105e3565b60c084015185820360c0870152610b53565b60e083015184820360e0860152610b53565b916101008092015191818403910152610b87565b908082519081815260208091019281808460051b8301019501936000915b848310610c9d5750505050505090565b9091929394958480610cbb600193601f198682030187528a516105e3565b9801930193019194939290610c8d565b919392909360608301906060845285518092526080840160808360051b860101926020809801916000905b828210610d25575050505090610d1791610634959685830390860152610c6f565b916040818403910152610c6f565b909192948980610d41600193607f198c82030186528951610bd3565b970192019201909291610cf6565b503461000e57610d5e36610b29565b90610d6882613da1565b610d7560405191826119dd565b828152601f19610d8484613da1565b0160005b818110610dfe575050610d9a83613e28565b91610da484613e28565b9060005b858110610dc15750506105169060405193849384610ccb565b80610dd9610dd3610df9938986612f38565b35613f76565b610de38488613e72565b52610dee8389613e72565b5261053d8287613e72565b610da8565b602090610e09613dc1565b82828601015201610d88565b503461000e57610e2436610b29565b90610e2e8261406a565b9160005b818110610e4757604051806105168682610484565b80610e7e610e59610e88938587612f38565b35610e6381610748565b6001600160a01b031660009081526015602052604090205490565b61053d8287613e72565b610e32565b503461000e57602036600319011261000e576020610a2e600435600052601460205260406000205490565b503461000e57604036600319011261000e57600435610ed681610748565b60243590610ee381611ea3565b821015610f17576001600160a01b031660009081526006602090815260408083209383529281529082902054915191825290f35b60405162461bcd60e51b815260206004820152602b60248201527f455243373231456e756d657261626c653a206f776e657220696e646578206f7560448201526a74206f6620626f756e647360a81b6064820152608490fd5b503461000e57610f7f36610b29565b90610f898261406a565b9160005b818110610fa257604051806105168682610484565b80610e7e610fb4610fd9938587612f38565b35610fbe81610748565b6001600160a01b031660009081526011602052604090205490565b610f8d565b503461000e57604036600319011261000e576020610a2e602435600435614481565b503461000e57602036600319011261000e5760008061051661102360043561412d565b91600e54938385039485116110cd575b6000198581019586116110c0575b8461108b575b5084611071575b604051948594859094939260609260808301968352602083015260408201520152565b905061108461107f84612328565b6140b8565b509061104e565b61109e915084018481116110b3576126f1565b90549060031b1c808252601060205238611047565b6110bb6122fa565b6126f1565b6110c86122fa565b611041565b6110d56122fa565b611033565b6020908160408183019282815285518094520193019160005b828110611101575050505090565b83516001600160a01b0316855293810193928101926001016110f3565b503461000e57600036600319011261000e57604051806012549182815260208091019260126000527fbb8a6a4669ba250d26cd7a459eca9d215f8307e33aebe50379bc5a3617ec3444916000905b82821061118f5761051685611183818903826119dd565b604051918291826110da565b83548652948501946001938401939091019061116c565b503461000e576107c26111b8366109b9565b90604051926111c68461199a565b60008452612187565b503461000e57602036600319011261000e576004356111f1610a05823361222a565b6112816111fd82611f66565b6112078382612f56565b61121083612477565b6001600160a01b031660008181526003602052604081208054919492839286926000198201918211611284575b5582825260026020526040822080546001600160a01b03191690557fddf252ad1be2c89b69c2b068fc378daa952ba7f163c4a11628f55a4df523b3ef8280a46134bf565b80f35b61128c6122fa565b61123d565b503461000e57602036600319011261000e576020610a2e600435600052601660205260406000205490565b908161012091031261000e5790565b9181601f8401121561000e578235916001600160401b03831161000e576020838186019501011161000e57565b606060031982011261000e576001600160401b039060043582811161000e5781611324916004016112bc565b9260243583811161000e578261133c916004016112cb565b9390939260443591821161000e57610895916004016112cb565b503461000e57611374611368366112f8565b92849594929192612beb565b600e5481600052601060205260406000205561138f816141ed565b506113a28161139d84612b2e565b6143b6565b6113b36113ae83612b2e565b614438565b60c082016113c18184612bb6565b91905060005b8281106113e5576107c2846113df60e0880188612bb6565b9161449a565b80611407611400611447936113fa868a612bb6565b90612f38565b358661444a565b6114428561143d61143061141f856113fa898d612bb6565b35600052600a602052604060002090565b546001600160a01b031690565b614460565b612ee5565b6113c7565b503461000e57602036600319011261000e5760043560085481101561149e5760086000527ff3f7a9fe364faab93b216da50a3214154f22a0a2b415b23a84c8169e8b636ee30154604051908152602090f35b60405162461bcd60e51b815260206004820152602c60248201527f455243373231456e756d657261626c653a20676c6f62616c20696e646578206f60448201526b7574206f6620626f756e647360a01b6064820152608490fd5b503461000e57604036600319011261000e576020610a2e60043561151b81610748565b60243590614382565b503461000e57602036600319011261000e576020610a2e600435610fbe81610748565b503461000e57602036600319011261000e576020610736600435611f66565b503461000e57602036600319011261000e576004356001600160401b03811161000e57610a2e61159c60209236906004016112bc565b612a2b565b503461000e57602036600319011261000e5760206107366004356143ec565b503461000e57602036600319011261000e576020610a2e6004356115e381610748565b611ea3565b503461000e576020610a2e6115fc366112f8565b93929092612beb565b503461000e57602036600319011261000e57600435600052600b6020526020604060002054604051908152f35b503461000e57602036600319011261000e57600435600052601460205261051661165f6040600020613e94565b60405191829182610484565b503461000e5761167a36610b29565b906116848261406a565b9160005b81811061169d57604051806105168682610484565b80610e7e6116af6116c1938587612f38565b35600052601660205260406000205490565b611688565b503461000e5760008060031936011261071457604051908060018054916116ec83611f89565b808652928281169081156106ea57506001146117125761051685610684818703826119dd565b92508083527fb10e2d527612073b26eecdfd717e6a320cf44b4afac2b0732d9fcbe2b7fa0cf65b82841061175457505050810160200161068482610516610674565b80546020858701810191909152909301928101611739565b503461000e5760208060031936011261000e5760043561178b81610748565b6001600160a01b031660009081526011825260408120805491906117ae8361406a565b936002820191835b8581106117cb57604051806105168982610484565b806117d96117f09284612736565b90549060031b1c80875285855261053d828a613e72565b6117b6565b503461000e57604036600319011261000e5760043561181381610748565b602435801515810361000e576001600160a01b038216913383146118a1578161185e61186f9233600052600560205260406000209060018060a01b0316600052602052604060002090565b9060ff801983541691151516179055565b604051901515815233907f17307eab39ab6107e8899845ad3d59bd9653f200f220920489ca2b5937696c3190602090a3005b60405162461bcd60e51b815260206004820152601960248201527f4552433732313a20617070726f766520746f2063616c6c6572000000000000006044820152606490fd5b503461000e5760208060031936011261000e57600060043581526016825260408120908154916119158361406a565b936002820191835b85811061193257604051806105168982610484565b806117d96119409284612736565b61191d565b503461000e57602036600319011261000e5760043561196381610748565b60018060a01b0316600052601560205261051661165f6040600020613e94565b50634e487b7160e01b600052604160045260246000fd5b602081019081106001600160401b038211176119b557604052565b6119bd611983565b604052565b606081019081106001600160401b038211176119b557604052565b90601f801991011681019081106001600160401b038211176119b557604052565b6040519061012082018281106001600160401b038211176119b557604052565b6020906001600160401b038111611a3b575b601f01601f19160190565b611a43611983565b611a30565b929192611a5482611a1e565b91611a6260405193846119dd565b82948184528183011161000e578281602093846000960137010152565b503461000e57608036600319011261000e57600435611a9d81610748565b602435611aa981610748565b606435916001600160401b03831161000e573660238401121561000e57611add6107c2933690602481600401359101611a48565b9160443591612187565b503461000e57604036600319011261000e5760043560005260146020526020611b166024356040600020612736565b90546040519160031b1c8152f35b503461000e57611b3336610b29565b90611b3d82613da1565b91611b4b60405193846119dd565b808352601f19611b5a82613da1565b0136602085013760005b818110611b79576040518061051686826110da565b80611b91611b8b611bad938587612f38565b356143ec565b611b9b8287613e72565b6001600160a01b039091169052612ee5565b611b64565b503461000e57604036600319011261000e57600435611bd081610748565b6001600160a01b031660009081526011602052604081209061051681610a69602435856141a5565b503461000e57602036600319011261000e57600435600052600a602052610516611c32611c39600460406000200160405192838092611fc3565b03826119dd565b6040519182916020835260208301906105e3565b503461000e57602036600319011261000e57611c8a611c98610516611c73600435613f76565b919390604051958695606087526060870190610bd3565b9085820360208701526105e3565b9083820360408501526105e3565b503461000e57611cb536610b29565b90611cbf8261406a565b9160005b818110611cd857604051806105168682610484565b80610e7e611cea611cfc938587612f38565b35600052601460205260406000205490565b611cc3565b503461000e57600036600319011261000e576020600e54604051908152f35b503461000e57604036600319011261000e57602060ff611d7d600435611d4581610748565b60243590611d5282610748565b60018060a01b03166000526005845260406000209060018060a01b0316600052602052604060002090565b54166040519015158152f35b503461000e57602036600319011261000e576020610a2e600435610e6381610748565b503461000e57611dbb36610b29565b90611dc58261406a565b9160005b818110611dde57604051806105168682610484565b80610e7e611df0611df6938587612f38565b3561409c565b611dc9565b503461000e57604036600319011261000e57600435611e1981610748565b60018060a01b031660005260156020526020611b166024356040600020612736565b503461000e57611e4a3661085d565b91611e548361406a565b92600090815b818110611e6f57604051806105168882610484565b80610965611e81611e9e938589612f38565b6001600160a01b0387168652601560205260408620903590612736565b611e5a565b6001600160a01b03168015611ec357600052600360205260406000205490565b60405162461bcd60e51b815260206004820152602960248201527f4552433732313a2061646472657373207a65726f206973206e6f7420612076616044820152683634b21037bbb732b960b91b6064820152608490fd5b15611f2157565b60405162461bcd60e51b815260206004820152601860248201527f4552433732313a20696e76616c696420746f6b656e20494400000000000000006044820152606490fd5b6000908152600260205260409020546001600160a01b0316610634811515611f1a565b90600182811c92168015611fb9575b6020831014611fa357565b634e487b7160e01b600052602260045260246000fd5b91607f1691611f98565b9060009291805491611fd483611f89565b9182825260019384811690816000146120365750600114611ff6575b50505050565b90919394506000526020928360002092846000945b838610612022575050505001019038808080611ff0565b80548587018301529401938590820161200b565b9294505050602093945060ff191683830152151560051b01019038808080611ff0565b9061076461206d9260405193848092611fc3565b03836119dd565b1561207b57565b60405162461bcd60e51b815260206004820152603e60248201527f4552433732313a20617070726f76652063616c6c6572206973206e6f7420746f60448201527f6b656e206f776e6572206e6f7220617070726f76656420666f7220616c6c00006064820152608490fd5b600081815260026020526040902054612109906001600160a01b03161515611f1a565b6000908152600460205260409020546001600160a01b031690565b1561212b57565b60405162461bcd60e51b815260206004820152602e60248201527f4552433732313a2063616c6c6572206973206e6f7420746f6b656e206f776e6560448201526d1c881b9bdc88185c1c1c9bdd995960921b6064820152608490fd5b9161076493916121ae9361219e610a05843361222a565b6121a9838383612336565b61269e565b612206565b60809060208152603260208201527f4552433732313a207472616e7366657220746f206e6f6e20455243373231526560408201527131b2b4bb32b91034b6b83632b6b2b73a32b960711b60608201520190565b1561220d57565b60405162461bcd60e51b815280612226600482016121b3565b0390fd5b6001600160a01b038061223c84611f66565b169281831692848414948515612272575b5050831561225c575b50505090565b612268919293506120e6565b1614388080612256565b60009081526005602090815260408083206001600160a01b03949094168352929052205460ff169350388061224d565b156122a957565b60405162461bcd60e51b8152602060048201526024808201527f4552433732313a207472616e7366657220746f20746865207a65726f206164646044820152637265737360e01b6064820152608490fd5b50634e487b7160e01b600052601160045260246000fd5b60001981019190821161232057565b6107646122fa565b906001820180921161232057565b9061234083611f66565b6001600160a01b0383811692909182168390036124245761239a6123fd9282169461236c8615156122a2565b6123778784836130ff565b61238087612477565b6001600160a01b0316600090815260036020526040902090565b6123a48154612311565b90556001600160a01b03811660009081526003602052604090206123c88154612328565b90556123de856000526002602052604060002090565b80546001600160a01b0319166001600160a01b03909216919091179055565b7fddf252ad1be2c89b69c2b068fc378daa952ba7f163c4a11628f55a4df523b3ef600080a4565b60405162461bcd60e51b815260206004820152602560248201527f4552433732313a207472616e736665722066726f6d20696e636f72726563742060448201526437bbb732b960d91b6064820152608490fd5b600081815260046020526040812080546001600160a01b03191690556001600160a01b036124a483611f66565b167f8c5be1e5ebec7d5bd14f71427d1e84f3dd0314c0f7b2291e5b200ac8c7c3b9258280a4565b600082815260046020526040902080546001600160a01b0319166001600160a01b0383161790556001600160a01b038061250484611f66565b169116907f8c5be1e5ebec7d5bd14f71427d1e84f3dd0314c0f7b2291e5b200ac8c7c3b925600080a4565b9081602091031261000e575161063481610548565b610634939260809260018060a01b0316825260006020830152604082015281606082015201906105e3565b6001600160a01b039182168152911660208201526040810191909152608060608201819052610634929101906105e3565b506040513d6000823e3d90fd5b3d156125d8573d906125be82611a1e565b916125cc60405193846119dd565b82523d6000602084013e565b606090565b909190803b156126965761260f602091600093604051948580948193630a85bd0160e11b998a84523360048501612544565b03926001600160a01b03165af160009181612666575b50612658576126326125ad565b805190816126535760405162461bcd60e51b815280612226600482016121b3565b602001fd5b6001600160e01b0319161490565b61268891925060203d811161268f575b61268081836119dd565b81019061252f565b9038612625565b503d612676565b505050600190565b92909190823b156126d15761260f926020926000604051809681958294630a85bd0160e11b9a8b8552336004860161256f565b50505050600190565b50634e487b7160e01b600052603260045260246000fd5b600e54811015612729575b600e6000527fbb7b4a454dc3493923482f07822329ed19e8244eff582cc204f8554c3620c3fd0190600090565b6127316126da565b6126fc565b805482101561274f575b60005260206000200190600090565b6127576126da565b612740565b1561276357565b60405162461bcd60e51b815260206004820152605c60248201527f4b6174696265683732313a206d696e742074696d65206d757374206265206c6560448201527f7373207468616e20696e69742074696d65202620696e69742074696d65206d7560648201527f7374206265206c657373207468616e206578706972652074696d652e00000000608482015260a490fd5b9035601e198236030181121561000e5701602081359101916001600160401b03821161000e57813603831361000e57565b908060209392818452848401376000828201840152601f01601f1916010190565b9035601e198236030181121561000e5701602081359101916001600160401b03821161000e578160051b3603831361000e57565b81835290916001600160fb1b03831161000e5760209260051b809284830137010190565b9035601e198236030181121561000e5701602081359101916001600160401b03821161000e578160061b3603831361000e57565b61ffff81160361000e57565b9190808252602080920192916000905b8282106128fc575050505090565b90919293600190853561290e81610748565b828060a01b0316815261ffff83870135612927816128d2565b168184015260409081019501939201906128ee565b906129a761063492602081526129656020820161295885610759565b6001600160a01b03169052565b60208301356040820152604083013560608201526060830135608082015261299060808401846127f4565b9290610120938460a0850152610140840191612825565b90612a1c6129ef6129d26129be60a08801886127f4565b601f19868803810160c08801529691612825565b6129df60c0880188612846565b90868684030160e087015261287a565b94612a13612a0060e0830183612846565b610100989187878403018a88015261287a565b9581019061289e565b939092828603019101526128de565b6020810135610e104201804211612b21575b811080612afe575b15612a9c57612a64906040830135809111159081612a8d575b5061275c565b604051612a8781612a7960208201948561293c565b03601f1981018352826119dd565b51902090565b90506060830135101538612a5e565b60405162461bcd60e51b815260206004820152603460248201527f4b6174696265683732313a206d6f7265207468616e206f6e6520686f7572206d60448201527334b73a103a34b6b2903234b33332b932b731b29760611b6064820152608490fd5b50610e0f194201428111612b14575b8111612a45565b612b1c6122fa565b612b0d565b612b296122fa565b612a3d565b3561063481610748565b15612b3f57565b60405162461bcd60e51b815260206004820152601d60248201527f4b6174696265683732313a20496e76616c6964207369676e61747572650000006044820152606490fd5b903590601e198136030182121561000e57018035906001600160401b03821161000e5760200191813603831361000e57565b903590601e198136030182121561000e57018035906001600160401b03821161000e57602001918160051b3603831361000e57565b93949294604051956020968781019085858337612c29602c828881016b39b0b6b0b7103bb4b639b7b760a11b8d82015203600c8101845201826119dd565b519020958035612c3881610748565b612c4182612a2b565b6040518a8101917f19457468657265756d205369676e6564204d6573736167653a0a3332000000008352603c820152603c8152612c7d816119c2565b519020612c8b368888611a48565b6041815103612d5f57808b01516040808301516060938401518251958652600090811a602087015291850192909252918301528080529899979861076498612d4c969594612d4694612d3f949193612d0293919260809060015afa15612d52575b6000516001600160a01b03908116911614612b38565b612d148b612d0f83612b2e565b612da4565b612d2b8b612d256080840184612b84565b906133c4565b612d35818c613957565b60e0810190612bb6565b908a613cca565b87613af1565b84613bb5565b612d5a6125a0565b612cec565b60405162461bcd60e51b8152600481018c9052601860248201527f696e76616c6964207369676e6174757265206c656e67746800000000000000006044820152606490fd5b90604051612db18161199a565b600081526001600160a01b038316918215612ea1576000818152600260205260409020546001600160a01b0316612e5c5783816121ae94612df582610764986130d4565b6001600160a01b0383166000908152600360205260409020612e178154612328565b9055612e31836123de846000526002602052604060002090565b60007fddf252ad1be2c89b69c2b068fc378daa952ba7f163c4a11628f55a4df523b3ef8180a46125dd565b60405162461bcd60e51b815260206004820152601c60248201527f4552433732313a20746f6b656e20616c7265616479206d696e746564000000006044820152606490fd5b606460405162461bcd60e51b815260206004820152602060248201527f4552433732313a206d696e7420746f20746865207a65726f20616464726573736044820152fd5b6001906000198114612ef5570190565b612efd6122fa565b0190565b60409160021015612f10570190565b612efd6126da565b9015612f215790565b6106346126da565b60209160011015612f10570190565b9190811015612f49575b60051b0190565b612f516126da565b612f42565b6001600160a01b03811680159291831584816130cc575b15613078576107649415612f8c57505050612f878161323a565b6132ae565b612f98575b50506132ae565b80613001612fa861301093611ea3565b60001981019290831161306b575b6000948686526007602052604086205490848203613018575b505084612fe6876000526007602052604060002090565b556001600160a01b0316600090815260066020526040902090565b90600052602052604060002090565b553880612f91565b8652600660205260408620848752602052613063604087205480613052846130018760018060a01b03166000526006602052604060002090565b556000526007602052604060002090565b553880612fcf565b6130736122fa565b612fb6565b60405162461bcd60e51b815260206004820152602660248201527f746f6b656e732063616e6e6f74206265207472616e736665726564206f6e2074604482015265195cdd1b995d60d21b6064820152608490fd5b506001612f6d565b906130de8161323a565b6001600160a01b0382166130f65761076491506132ae565b61076491613202565b9091906001600160a01b038082169182158080156131f8575b156130785715613148575061312c8361323a565b83168061313f57505061076491506132ae565b036130f6575050565b8185168303613158575b5061312c565b6131a261316482611ea3565b60001981019081116131eb575b613001600093878552600760205260408520548381036131a9575b5084612fe6896000526007602052604060002090565b5538613152565b8786526006602052604086208487526020526131e4604087205480613052846130018760018060a01b03166000526006602052604060002090565b553861318c565b6131f36122fa565b613171565b5082861615613118565b60409061320e81611ea3565b9260009160018060a01b0316825260066020528282208483526020528083832055815260076020522055565b60085481600052600960205280604060002055600160401b8110156132a1575b6001810180600855811015613294575b60086000527ff3f7a9fe364faab93b216da50a3214154f22a0a2b415b23a84c8169e8b636ee30155565b61329c6126da565b61326a565b6132a9611983565b61325a565b6008805460001992908381018181116133b7575b61335e600093849281845260096020528460408520549110156133aa575b86845261334d7ff3f7a9fe364faab93b216da50a3214154f22a0a2b415b23a84c8169e8b636ee295868101549083101561339d575b88865280837ff3f7a9fe364faab93b216da50a3214154f22a0a2b415b23a84c8169e8b636ee301556000526009602052604060002090565b556000526009602052604060002090565b558254938415613389578401938085101561337c575b838352015555565b6133846126da565b613374565b634e487b7160e01b83526031600452602483fd5b6133a56126da565b613315565b6133b26126da565b6132e0565b6133bf6122fa565b6132c2565b6133ed9160405192839160209481869283830196873781016000838201520380845201826119dd565b51902080600052600b82526040600020546134125790600b9160005252604060002055565b60405162461bcd60e51b815260048101839052602360248201527f4461746153746f726167653a20757269207265676973746572656420616c726560448201526261647960e81b6064820152608490fd5b81811061346e575050565b60008155600101613463565b9190601f811161348957505050565b610764926000526020600020906020601f840160051c830193106134b5575b601f0160051c0190613463565b90915081906134a8565b60047f766269423061476c7a4947356c64486476636d7375496e300000000000000000916000908152602090600a82528260408220600d845282604081206135078154611f89565b806135e7575b5050500161351b8154611f89565b601f81116135c6575b5061013181558152207f646174613a6170706c69636174696f6e2f6a736f6e3b6261736536342c65794a81557f755957316c496a6f67496c526f61584d67644739725a57346761584d67596e5660018201557f79626d566b4c694973496d526c63324e796158423061573975496a6f67496c5260028201557f766132567549476c7a494735766443426a623278735a574e3061574a735a534260038201550155565b6135e1908284526005601f8686209201811c82019101613463565b38613524565b601f81116001146135fd5750555b82388061350d565b81835286832061361891601f0160051c810190600101613463565b818681209155556135f5565b9092916001600160401b0381116136ec575b61364a816136448454611f89565b8461347a565b6000601f82116001146136845781929394600092613679575b50508160011b916000199060031b1c1916179055565b013590503880613663565b601f1982169461369984600052602060002090565b91805b8781106136d45750836001959697106136ba575b505050811b019055565b0135600019600384901b60f8161c191690553880806136b0565b9092602060018192868601358155019401910161369c565b6136f4611983565b613636565b906001600160401b03831161377c575b600160401b831161376f575b8154838355808410613751575b50906000526020806000209060005b84811061373f575050505050565b83358382015592810192600101613731565b61376990836000528460206000209182019101613463565b38613722565b613777611983565b613715565b613784611983565b613709565b906001600160401b03831161381d575b600160401b8311613810575b81548383558084106137e7575b506137c39091600052602060002090565b60005b8381106137d35750505050565b6001906020843594019381840155016137c6565b6000838152846020822092830192015b8281106138055750506137b2565b8181556001016137f7565b613818611983565b6137a5565b613825611983565b613799565b903590601e198136030182121561000e57018035906001600160401b03821161000e57602001918160061b3603831361000e57565b9060209061388d813561387181610748565b84546001600160a01b0319166001600160a01b03909116178455565b0135613898816128d2565b815461ffff60a01b191660a09190911b61ffff60a01b16179055565b90600160401b8311613935575b815483835580841061390c575b506138df9091600052602060002090565b6000915b8383106138f05750505050565b600160408261390083948661385f565b019201920191906138e3565b6000838152846020822092830192015b82811061392a5750506138ce565b81815560010161391c565b61393d611983565b6138c1565b81604051928392833781016000815203902090565b9061396c82600052600a602052604060002090565b9161397961387183612b2e565b6020820135806001850155604083013590816002860155827f0b85051017293732c5b533b177efc66475411a9fdd5fbc8ecb619906658413d66060860135938460038901556139d86139ce6080890189612b84565b9060048b01613624565b60a087016139f36139e9828a612b84565b9060058c01613624565b613a45600860c08a019a613a14613a0a8d8d612bb6565b90600684016136f9565b613a2e613a2460e08d018d612bb6565b9060078401613789565b613a3c6101008c018c61382a565b929091016138b4565b613a8b613a64613a5e613a578b612b2e565b938b612b84565b90613942565b9660405193849360018060a01b031697846040919493926060820195825260208201520152565b0390a4613a988383612bb6565b939050600092835b858110613aaf57505050505050565b80613ac1613aec926113fa8686612bb6565b35857f65327253f8d67c2e23cb4dfab28ca7437b04e9098cf4e985073d76df25209ad48880a3612ee5565b613aa0565b929192600052602092600c84526040600020916001600160401b038211613ba8575b613b2782613b218554611f89565b8561347a565b600094601f8311600114613b58575093819293946000926136795750508160011b916000199060031b1c1916179055565b90601f19831695613b6e85600052602060002090565b9281905b888210613b90575050836001959697106136ba57505050811b019055565b80600184968294958701358155019501920190613b72565b613bb0611983565b613b13565b929192600052602092600d84526040600020916001600160401b038211613c66575b613be582613b218554611f89565b600094601f8311600114613c16575093819293946000926136795750508160011b916000199060031b1c1916179055565b90601f19831695613c2c85600052602060002090565b9281905b888210613c4e575050836001959697106136ba57505050811b019055565b80600184968294958701358155019501920190613c30565b613c6e611983565b613bd7565b15613c7a57565b60405162461bcd60e51b815260206004820152602260248201527f4461746153746f726167653a2074616773206c656e677468206d757374206265604482015261203360f01b6064820152608490fd5b9190613cd96003831115613c73565b8115600081613d755750613d68575b7fb237134d29775150b1edf87af1dc343262244af7cbb474cfc64cb6e8824af66360208235925b60006001861115613d6257508460011015613d55575b81810135945b6000916002821115613d4d57613d419250612f01565b35945b604051908152a4565b505094613d44565b613d5d6126da565b613d25565b94613d2b565b613d706126da565b613ce8565b7fb237134d29775150b1edf87af1dc343262244af7cbb474cfc64cb6e8824af663915060209092613d0f565b6020906001600160401b038111613db95760051b0190565b612f51611983565b6040519061012082018281106001600160401b03821117613e1b575b604052816000815260006020820152600060408201526101006060916000838201528260808201528260a08201528260c08201528260e08201520152565b613e23611983565b613ddd565b90613e3282613da1565b613e3f60405191826119dd565b8281528092613e50601f1991613da1565b019060005b828110613e6157505050565b806060602080938501015201613e55565b6020918151811015613e87575b60051b010190565b613e8f6126da565b613e7f565b9060405191828154918282526020928383019160005283600020936000905b828210613ec957505050610764925003836119dd565b855484526001958601958895509381019390910190613eb3565b908154613eef81613da1565b92604093613eff855191826119dd565b828152809460208092019260005281600020906000935b858510613f2557505050505050565b600184819284518581018181106001600160401b03821117613f69575b865261ffff8754858060a01b038116835260a01c1683820152815201930194019391613f16565b613f71611983565b613f42565b90613f7f613dc1565b5060609082600052600a602052604060002092613f9a6119fe565b84546001600160a01b0316815260018501546020820152614016600860028701549660408401978852600381015487850152613fd860048201612059565b6080850152613fe960058201612059565b60a0850152613ffa60068201613e94565b60c085015261400b60078201613e94565b60e085015201613ee3565b6101008201529351421015614042575b61403d61063491600052600c602052604060002090565b612059565b915061063461403d61406161403d85600052600d602052604060002090565b93915050614026565b9061407482613da1565b61408160405191826119dd565b8281528092614092601f1991613da1565b0190602036910137565b6140a5906126f1565b90549060031b1c80600052601060205290565b600e548110156140f9575b7fbb7b4a454dc3493923482f07822329ed19e8244eff582cc204f8554c3620c3fd01549081600052601060205260406000205490565b6141016126da565b6140c3565b919061411460029184612736565b90549060031b1c92836000520160205260406000205490565b60005260106020526040600020548015801590614192575b1561414d5790565b60405162461bcd60e51b815260206004820152601e60248201527f456e756d657261626c654d61703a206e6f6e6578697374656e74206b657900006044820152606490fd5b50600f6020526040600020541515614145565b8160005260028101602052604060002054918215918215926141cc575b50501561414d5790565b6141e6925060019160005201602052604060002054151590565b38806141c2565b80600052600f602052604060002054156000146142795780600e54600160401b81101561426c575b6001810180600e5581101561425f575b7fbb7b4a454dc3493923482f07822329ed19e8244eff582cc204f8554c3620c3fd0155600e5490600052600f602052604060002055600190565b6142676126da565b614225565b614274611983565b614215565b50600090565b806000526013602052604060002054156000146142795780601254600160401b8110156142fe575b60018101806012558110156142f1575b7fbb8a6a4669ba250d26cd7a459eca9d215f8307e33aebe50379bc5a3617ec34440155601254906000526013602052604060002055600190565b6142f96126da565b6142b7565b614306611983565b6142a7565b600082815260018201602052604090205461437b57808261434160019354600160401b81101561436e575b848101845583612736565b819291549060031b600019811b9283911b1691191617905580549260005201602052604060002055600190565b614376611983565b614336565b5050600090565b60018060a01b0316600052601160205260026143a360406000209283612736565b90549060031b1c91826000520160205290565b6001600160a01b031660009081526011602090815260408083208054858552600282019093529220556143e9919061430b565b50565b60125481101561442b575b60126000527fbb8a6a4669ba250d26cd7a459eca9d215f8307e33aebe50379bc5a3617ec344401546001600160a01b031690565b6144336126da565b6143f7565b6143e9906001600160a01b031661427f565b6143e9916000526014602052604060002061430b565b6001600160a01b031660009081526015602052604090206143e9919061430b565b600052601660205260026143a360406000209283612736565b9091610764926144ac60038314613c73565b6144c06144b98383612f18565b35846145bf565b6144cd6144b98383612f29565b6144da6144b98383612f01565b6145ba6145136145306144ed8585612f18565b356144f88686612f29565b60408051602081019384529135908201529283906060820190565b0392614527601f19948581018352826119dd565b519020866145bf565b61457561453d8585612f29565b3561456961452761454e8888612f01565b60408051602081019586529135908201529182906060820190565b038581018352826119dd565b6145956145828585612f18565b359461458e8186612f29565b3594612f01565b60408051602081019687529081019490945235606084015260809081018352826119dd565b519020905b6000828152601660205260408120906145e8838360019160005201602052604060002054151590565b156145f35750505050565b61461693815260166020526040808220549184815260028401602052205561430b565b5038808080611ff056fea264697066735822122056569cc7cc230c877deaca86520326d0d0c2ed7b2eac9f359085ab5b6c4899a764736f6c63430008110033","opcodes":"PUSH1 0x80 CALLVALUE PUSH3 0x311 JUMPI PUSH1 0x1 PUSH1 0x1 PUSH1 0x40 SHL SUB SWAP1 PUSH1 0x40 SWAP1 DUP1 DUP3 ADD DUP4 DUP2 GT DUP3 DUP3 LT OR PUSH3 0x2FB JUMPI DUP3 MSTORE PUSH1 0xA DUP2 MSTORE PUSH1 0x20 SWAP3 PUSH10 0x4B617469626568373231 PUSH1 0xB0 SHL DUP5 DUP4 ADD MSTORE DUP3 MLOAD DUP4 DUP2 ADD DUP2 DUP2 LT DUP4 DUP3 GT OR PUSH3 0x2FB JUMPI DUP5 MSTORE PUSH1 0x7 DUP2 MSTORE PUSH7 0x9682A892848A9 PUSH1 0xCB SHL DUP6 DUP3 ADD MSTORE DUP3 MLOAD SWAP1 DUP3 DUP3 GT PUSH3 0x2FB JUMPI PUSH1 0x0 DUP1 SLOAD SWAP3 PUSH1 0x1 SWAP6 DUP7 DUP6 DUP2 SHR SWAP6 AND DUP1 ISZERO PUSH3 0x2F0 JUMPI JUMPDEST DUP10 DUP7 LT EQ PUSH3 0x2DC JUMPI DUP2 SWAP1 PUSH1 0x1F SWAP6 DUP7 DUP2 GT PUSH3 0x289 JUMPI JUMPDEST POP DUP10 SWAP1 DUP7 DUP4 GT PUSH1 0x1 EQ PUSH3 0x225 JUMPI DUP5 SWAP3 PUSH3 0x219 JUMPI JUMPDEST POP POP PUSH1 0x0 NOT PUSH1 0x3 DUP4 SWAP1 SHL SHR NOT AND SWAP1 DUP7 SHL OR DUP2 SSTORE JUMPDEST DUP2 MLOAD SWAP4 DUP5 GT PUSH3 0x205 JUMPI DUP5 SLOAD DUP6 DUP2 DUP2 SHR SWAP2 AND DUP1 ISZERO PUSH3 0x1FA JUMPI JUMPDEST DUP9 DUP3 LT EQ PUSH3 0x1E6 JUMPI DUP4 DUP2 GT PUSH3 0x19E JUMPI JUMPDEST POP DUP7 SWAP3 DUP5 GT PUSH1 0x1 EQ PUSH3 0x138 JUMPI DUP4 SWAP5 SWAP6 SWAP7 POP SWAP3 PUSH3 0x12C JUMPI JUMPDEST POP POP PUSH1 0x0 NOT PUSH1 0x3 DUP4 SWAP1 SHL SHR NOT AND SWAP1 DUP3 SHL OR SWAP1 SSTORE JUMPDEST MLOAD PUSH2 0x4656 SWAP1 DUP2 PUSH3 0x317 DUP3 CODECOPY RETURN JUMPDEST ADD MLOAD SWAP1 POP CODESIZE DUP1 PUSH3 0x10A JUMP JUMPDEST SWAP2 SWAP1 PUSH1 0x1F NOT DUP5 AND SWAP7 DUP6 DUP5 MSTORE DUP1 DUP5 KECCAK256 SWAP4 SWAP1 JUMPDEST DUP9 DUP3 LT PUSH3 0x186 JUMPI POP POP DUP4 DUP6 SWAP7 SWAP8 LT PUSH3 0x16C JUMPI JUMPDEST POP POP POP DUP2 SHL ADD SWAP1 SSTORE PUSH3 0x11E JUMP JUMPDEST ADD MLOAD PUSH1 0x0 NOT PUSH1 0xF8 DUP5 PUSH1 0x3 SHL AND SHR NOT AND SWAP1 SSTORE CODESIZE DUP1 DUP1 PUSH3 0x15E JUMP JUMPDEST DUP1 DUP8 DUP6 SWAP7 DUP3 SWAP5 SWAP7 DUP7 ADD MLOAD DUP2 SSTORE ADD SWAP6 ADD SWAP4 ADD SWAP1 PUSH3 0x149 JUMP JUMPDEST DUP6 DUP3 MSTORE DUP8 DUP3 KECCAK256 DUP5 DUP1 DUP8 ADD PUSH1 0x5 SHR DUP3 ADD SWAP3 DUP11 DUP9 LT PUSH3 0x1DC JUMPI JUMPDEST ADD PUSH1 0x5 SHR ADD SWAP1 DUP7 SWAP1 JUMPDEST DUP3 DUP2 LT PUSH3 0x1D0 JUMPI POP POP PUSH3 0xF1 JUMP JUMPDEST DUP4 DUP2 SSTORE ADD DUP7 SWAP1 PUSH3 0x1C0 JUMP JUMPDEST SWAP3 POP DUP2 SWAP3 PUSH3 0x1B7 JUMP JUMPDEST PUSH4 0x4E487B71 PUSH1 0xE0 SHL DUP3 MSTORE PUSH1 0x22 PUSH1 0x4 MSTORE PUSH1 0x24 DUP3 REVERT JUMPDEST SWAP1 PUSH1 0x7F AND SWAP1 PUSH3 0xDF JUMP JUMPDEST PUSH4 0x4E487B71 PUSH1 0xE0 SHL DUP2 MSTORE PUSH1 0x41 PUSH1 0x4 MSTORE PUSH1 0x24 SWAP1 REVERT JUMPDEST ADD MLOAD SWAP1 POP CODESIZE DUP1 PUSH3 0xB1 JUMP JUMPDEST DUP5 DUP1 MSTORE DUP11 DUP6 KECCAK256 DUP10 SWAP5 POP SWAP2 SWAP1 PUSH1 0x1F NOT DUP5 AND DUP7 JUMPDEST DUP14 DUP3 DUP3 LT PUSH3 0x272 JUMPI POP POP DUP5 GT PUSH3 0x258 JUMPI JUMPDEST POP POP POP DUP2 SHL ADD DUP2 SSTORE PUSH3 0xC5 JUMP JUMPDEST ADD MLOAD PUSH1 0x0 NOT PUSH1 0xF8 DUP5 PUSH1 0x3 SHL AND SHR NOT AND SWAP1 SSTORE CODESIZE DUP1 DUP1 PUSH3 0x24A JUMP JUMPDEST DUP4 DUP6 ADD MLOAD DUP7 SSTORE DUP13 SWAP8 SWAP1 SWAP6 ADD SWAP5 SWAP4 DUP5 ADD SWAP4 ADD PUSH3 0x237 JUMP JUMPDEST SWAP1 SWAP2 POP DUP4 DUP1 MSTORE DUP10 DUP5 KECCAK256 DUP7 DUP1 DUP6 ADD PUSH1 0x5 SHR DUP3 ADD SWAP3 DUP13 DUP7 LT PUSH3 0x2D2 JUMPI JUMPDEST SWAP2 DUP11 SWAP2 DUP7 SWAP6 SWAP5 SWAP4 ADD PUSH1 0x5 SHR ADD SWAP2 JUMPDEST DUP3 DUP2 LT PUSH3 0x2C3 JUMPI POP POP PUSH3 0x9B JUMP JUMPDEST DUP7 DUP2 SSTORE DUP6 SWAP5 POP DUP11 SWAP2 ADD PUSH3 0x2B3 JUMP JUMPDEST SWAP3 POP DUP2 SWAP3 PUSH3 0x2A5 JUMP JUMPDEST PUSH4 0x4E487B71 PUSH1 0xE0 SHL DUP4 MSTORE PUSH1 0x22 PUSH1 0x4 MSTORE PUSH1 0x24 DUP4 REVERT JUMPDEST SWAP5 PUSH1 0x7F AND SWAP5 PUSH3 0x84 JUMP JUMPDEST PUSH4 0x4E487B71 PUSH1 0xE0 SHL PUSH1 0x0 MSTORE PUSH1 0x41 PUSH1 0x4 MSTORE PUSH1 0x24 PUSH1 0x0 REVERT JUMPDEST PUSH1 0x0 DUP1 REVERT INVALID PUSH1 0x80 PUSH1 0x40 MSTORE PUSH1 0x4 CALLDATASIZE LT ISZERO PUSH2 0x13 JUMPI JUMPDEST PUSH1 0x0 DUP1 REVERT JUMPDEST PUSH1 0x0 CALLDATALOAD PUSH1 0xE0 SHR DUP1 PUSH4 0x17642E4 EQ PUSH2 0x44B JUMPI DUP1 PUSH4 0x1FFC9A7 EQ PUSH2 0x442 JUMPI DUP1 PUSH4 0x6FDDE03 EQ PUSH2 0x439 JUMPI DUP1 PUSH4 0x81812FC EQ PUSH2 0x430 JUMPI DUP1 PUSH4 0x95EA7B3 EQ PUSH2 0x427 JUMPI DUP1 PUSH4 0xAB0DF87 EQ PUSH2 0x41E JUMPI DUP1 PUSH4 0x132E75D6 EQ PUSH2 0x415 JUMPI DUP1 PUSH4 0x1674ED4B EQ PUSH2 0x40C JUMPI DUP1 PUSH4 0x18160DDD EQ PUSH2 0x403 JUMPI DUP1 PUSH4 0x1AE69B61 EQ PUSH2 0x3FA JUMPI DUP1 PUSH4 0x23B872DD EQ PUSH2 0x3F1 JUMPI DUP1 PUSH4 0x26156636 EQ PUSH2 0x3E8 JUMPI DUP1 PUSH4 0x29C7785F EQ PUSH2 0x3DF JUMPI DUP1 PUSH4 0x2B0ECA8C EQ PUSH2 0x3D6 JUMPI DUP1 PUSH4 0x2C230901 EQ PUSH2 0x3CD JUMPI DUP1 PUSH4 0x2E0D0718 EQ PUSH2 0x3C4 JUMPI DUP1 PUSH4 0x2F745C59 EQ PUSH2 0x3BB JUMPI DUP1 PUSH4 0x31D99545 EQ PUSH2 0x3B2 JUMPI DUP1 PUSH4 0x3552D220 EQ PUSH2 0x3A9 JUMPI DUP1 PUSH4 0x39D77F25 EQ PUSH2 0x3A0 JUMPI DUP1 PUSH4 0x40B94757 EQ PUSH2 0x397 JUMPI DUP1 PUSH4 0x42842E0E EQ PUSH2 0x38E JUMPI DUP1 PUSH4 0x42966C68 EQ PUSH2 0x385 JUMPI DUP1 PUSH4 0x4667C884 EQ PUSH2 0x37C JUMPI DUP1 PUSH4 0x4832E8F3 EQ PUSH2 0x373 JUMPI DUP1 PUSH4 0x4F6CCCE7 EQ PUSH2 0x36A JUMPI DUP1 PUSH4 0x4FC09275 EQ PUSH2 0x361 JUMPI DUP1 PUSH4 0x60F6A4A3 EQ PUSH2 0x358 JUMPI DUP1 PUSH4 0x6352211E EQ PUSH2 0x34F JUMPI DUP1 PUSH4 0x662EC09E EQ PUSH2 0x346 JUMPI DUP1 PUSH4 0x6D571B6A EQ PUSH2 0x33D JUMPI DUP1 PUSH4 0x70A08231 EQ PUSH2 0x334 JUMPI DUP1 PUSH4 0x7372E98D EQ PUSH2 0x32B JUMPI DUP1 PUSH4 0x78292236 EQ PUSH2 0x322 JUMPI DUP1 PUSH4 0x8282674F EQ PUSH2 0x319 JUMPI DUP1 PUSH4 0x8F93FB39 EQ PUSH2 0x310 JUMPI DUP1 PUSH4 0x95D89B41 EQ PUSH2 0x307 JUMPI DUP1 PUSH4 0x96CC6A34 EQ PUSH2 0x2FE JUMPI DUP1 PUSH4 0xA22CB465 EQ PUSH2 0x2F5 JUMPI DUP1 PUSH4 0xAF3EA105 EQ PUSH2 0x2EC JUMPI DUP1 PUSH4 0xB1582201 EQ PUSH2 0x2E3 JUMPI DUP1 PUSH4 0xB88D4FDE EQ PUSH2 0x2DA JUMPI DUP1 PUSH4 0xBFC9B364 EQ PUSH2 0x2D1 JUMPI DUP1 PUSH4 0xC03D1D91 EQ PUSH2 0x2C8 JUMPI DUP1 PUSH4 0xC3512876 EQ PUSH2 0x2BF JUMPI DUP1 PUSH4 0xC87B56DD EQ PUSH2 0x2B6 JUMPI DUP1 PUSH4 0xCC33C875 EQ PUSH2 0x2AD JUMPI DUP1 PUSH4 0xCCA3C766 EQ PUSH2 0x2A4 JUMPI DUP1 PUSH4 0xDD468791 EQ PUSH2 0x29B JUMPI DUP1 PUSH4 0xE985E9C5 EQ PUSH2 0x292 JUMPI DUP1 PUSH4 0xF353A732 EQ PUSH2 0x289 JUMPI DUP1 PUSH4 0xF6BD7AB8 EQ PUSH2 0x280 JUMPI DUP1 PUSH4 0xF99458A4 EQ PUSH2 0x277 JUMPI PUSH4 0xFE649B7E EQ PUSH2 0x26F JUMPI PUSH1 0x0 DUP1 REVERT JUMPDEST PUSH2 0xE PUSH2 0x1E3B JUMP JUMPDEST POP PUSH2 0xE PUSH2 0x1DFB JUMP JUMPDEST POP PUSH2 0xE PUSH2 0x1DAC JUMP JUMPDEST POP PUSH2 0xE PUSH2 0x1D89 JUMP JUMPDEST POP PUSH2 0xE PUSH2 0x1D20 JUMP JUMPDEST POP PUSH2 0xE PUSH2 0x1D01 JUMP JUMPDEST POP PUSH2 0xE PUSH2 0x1CA6 JUMP JUMPDEST POP PUSH2 0xE PUSH2 0x1C4D JUMP JUMPDEST POP PUSH2 0xE PUSH2 0x1BF8 JUMP JUMPDEST POP PUSH2 0xE PUSH2 0x1BB2 JUMP JUMPDEST POP PUSH2 0xE PUSH2 0x1B24 JUMP JUMPDEST POP PUSH2 0xE PUSH2 0x1AE7 JUMP JUMPDEST POP PUSH2 0xE PUSH2 0x1A7F JUMP JUMPDEST POP PUSH2 0xE PUSH2 0x1945 JUMP JUMPDEST POP PUSH2 0xE PUSH2 0x18E6 JUMP JUMPDEST POP PUSH2 0xE PUSH2 0x17F5 JUMP JUMPDEST POP PUSH2 0xE PUSH2 0x176C JUMP JUMPDEST POP PUSH2 0xE PUSH2 0x16C6 JUMP JUMPDEST POP PUSH2 0xE PUSH2 0x166B JUMP JUMPDEST POP PUSH2 0xE PUSH2 0x1632 JUMP JUMPDEST POP PUSH2 0xE PUSH2 0x1605 JUMP JUMPDEST POP PUSH2 0xE PUSH2 0x15E8 JUMP JUMPDEST POP PUSH2 0xE PUSH2 0x15C0 JUMP JUMPDEST POP PUSH2 0xE PUSH2 0x15A1 JUMP JUMPDEST POP PUSH2 0xE PUSH2 0x1566 JUMP JUMPDEST POP PUSH2 0xE PUSH2 0x1547 JUMP JUMPDEST POP PUSH2 0xE PUSH2 0x1524 JUMP JUMPDEST POP PUSH2 0xE PUSH2 0x14F8 JUMP JUMPDEST POP PUSH2 0xE PUSH2 0x144C JUMP JUMPDEST POP PUSH2 0xE PUSH2 0x1356 JUMP JUMPDEST POP PUSH2 0xE PUSH2 0x1291 JUMP JUMPDEST POP PUSH2 0xE PUSH2 0x11CF JUMP JUMPDEST POP PUSH2 0xE PUSH2 0x11A6 JUMP JUMPDEST POP PUSH2 0xE PUSH2 0x111E JUMP JUMPDEST POP PUSH2 0xE PUSH2 0x1000 JUMP JUMPDEST POP PUSH2 0xE PUSH2 0xFDE JUMP JUMPDEST POP PUSH2 0xE PUSH2 0xF70 JUMP JUMPDEST POP PUSH2 0xE PUSH2 0xEB8 JUMP JUMPDEST POP PUSH2 0xE PUSH2 0xE8D JUMP JUMPDEST POP PUSH2 0xE PUSH2 0xE15 JUMP JUMPDEST POP PUSH2 0xE PUSH2 0xD4F JUMP JUMPDEST POP PUSH2 0xE PUSH2 0xA36 JUMP JUMPDEST POP PUSH2 0xE PUSH2 0xA0F JUMP JUMPDEST POP PUSH2 0xE PUSH2 0x9E5 JUMP JUMPDEST POP PUSH2 0xE PUSH2 0x99A JUMP JUMPDEST POP PUSH2 0xE PUSH2 0x97B JUMP JUMPDEST POP PUSH2 0xE PUSH2 0x8E9 JUMP JUMPDEST POP PUSH2 0xE PUSH2 0x899 JUMP JUMPDEST POP PUSH2 0xE PUSH2 0x841 JUMP JUMPDEST POP PUSH2 0xE PUSH2 0x766 JUMP JUMPDEST POP PUSH2 0xE PUSH2 0x717 JUMP JUMPDEST POP PUSH2 0xE PUSH2 0x637 JUMP JUMPDEST POP PUSH2 0xE PUSH2 0x55A JUMP JUMPDEST POP PUSH2 0xE PUSH2 0x4BF JUMP JUMPDEST SWAP2 DUP2 PUSH1 0x1F DUP5 ADD SLT ISZERO PUSH2 0xE JUMPI DUP3 CALLDATALOAD SWAP2 PUSH1 0x1 PUSH1 0x1 PUSH1 0x40 SHL SUB DUP4 GT PUSH2 0xE JUMPI PUSH1 0x20 DUP1 DUP6 ADD SWAP5 DUP5 PUSH1 0x5 SHL ADD ADD GT PUSH2 0xE JUMPI JUMP JUMPDEST PUSH1 0x20 SWAP1 DUP2 PUSH1 0x40 DUP2 DUP4 ADD SWAP3 DUP3 DUP2 MSTORE DUP6 MLOAD DUP1 SWAP5 MSTORE ADD SWAP4 ADD SWAP2 PUSH1 0x0 JUMPDEST DUP3 DUP2 LT PUSH2 0x4AB JUMPI POP POP POP POP SWAP1 JUMP JUMPDEST DUP4 MLOAD DUP6 MSTORE SWAP4 DUP2 ADD SWAP4 SWAP3 DUP2 ADD SWAP3 PUSH1 0x1 ADD PUSH2 0x49D JUMP JUMPDEST POP CALLVALUE PUSH2 0xE JUMPI PUSH1 0x40 CALLDATASIZE PUSH1 0x3 NOT ADD SLT PUSH2 0xE JUMPI PUSH1 0x4 CALLDATALOAD PUSH1 0x24 CALLDATALOAD PUSH1 0x1 PUSH1 0x1 PUSH1 0x40 SHL SUB DUP2 GT PUSH2 0xE JUMPI PUSH2 0x4F3 SWAP1 CALLDATASIZE SWAP1 PUSH1 0x4 ADD PUSH2 0x454 JUMP JUMPDEST SWAP2 PUSH2 0x4FD DUP4 PUSH2 0x406A JUMP JUMPDEST SWAP3 PUSH1 0x0 JUMPDEST DUP2 DUP2 LT PUSH2 0x51A JUMPI PUSH1 0x40 MLOAD DUP1 PUSH2 0x516 DUP8 DUP3 PUSH2 0x484 JUMP JUMPDEST SUB SWAP1 RETURN JUMPDEST DUP1 PUSH2 0x533 PUSH2 0x52C PUSH2 0x543 SWAP4 DUP6 DUP9 PUSH2 0x2F38 JUMP JUMPDEST CALLDATALOAD DUP6 PUSH2 0x4481 JUMP JUMPDEST PUSH2 0x53D DUP3 DUP9 PUSH2 0x3E72 JUMP JUMPDEST MSTORE PUSH2 0x2EE5 JUMP JUMPDEST PUSH2 0x501 JUMP JUMPDEST PUSH1 0x1 PUSH1 0x1 PUSH1 0xE0 SHL SUB NOT DUP2 AND SUB PUSH2 0xE JUMPI JUMP JUMPDEST POP CALLVALUE PUSH2 0xE JUMPI PUSH1 0x20 CALLDATASIZE PUSH1 0x3 NOT ADD SLT PUSH2 0xE JUMPI PUSH1 0x20 PUSH1 0x4 CALLDATALOAD PUSH2 0x57A DUP2 PUSH2 0x548 JUMP JUMPDEST PUSH4 0xFFFFFFFF PUSH1 0xE0 SHL AND PUSH4 0x780E9D63 PUSH1 0xE0 SHL DUP2 EQ SWAP1 DUP2 ISZERO PUSH2 0x5A0 JUMPI JUMPDEST POP PUSH1 0x40 MLOAD SWAP1 ISZERO ISZERO DUP2 MSTORE RETURN JUMPDEST PUSH4 0x80AC58CD PUSH1 0xE0 SHL DUP2 EQ SWAP2 POP DUP2 ISZERO PUSH2 0x5D2 JUMPI JUMPDEST DUP2 ISZERO PUSH2 0x5C1 JUMPI JUMPDEST POP CODESIZE PUSH2 0x595 JUMP JUMPDEST PUSH4 0x1FFC9A7 PUSH1 0xE0 SHL EQ SWAP1 POP CODESIZE PUSH2 0x5BA JUMP JUMPDEST PUSH4 0x5B5E139F PUSH1 0xE0 SHL DUP2 EQ SWAP2 POP PUSH2 0x5B3 JUMP JUMPDEST SWAP2 SWAP1 DUP3 MLOAD SWAP3 DUP4 DUP3 MSTORE PUSH1 0x0 JUMPDEST DUP5 DUP2 LT PUSH2 0x60F JUMPI POP POP DUP3 PUSH1 0x0 PUSH1 0x20 DUP1 SWAP5 SWAP6 DUP5 ADD ADD MSTORE PUSH1 0x1F DUP1 NOT SWAP2 ADD AND ADD ADD SWAP1 JUMP JUMPDEST PUSH1 0x20 DUP2 DUP4 ADD DUP2 ADD MLOAD DUP5 DUP4 ADD DUP3 ADD MSTORE ADD PUSH2 0x5EE JUMP JUMPDEST SWAP1 PUSH1 0x20 PUSH2 0x634 SWAP3 DUP2 DUP2 MSTORE ADD SWAP1 PUSH2 0x5E3 JUMP JUMPDEST SWAP1 JUMP JUMPDEST POP CALLVALUE PUSH2 0xE JUMPI PUSH1 0x0 DUP1 PUSH1 0x3 NOT CALLDATASIZE ADD SLT PUSH2 0x714 JUMPI PUSH1 0x40 MLOAD SWAP1 DUP1 DUP1 SLOAD PUSH2 0x65A DUP2 PUSH2 0x1F89 JUMP JUMPDEST DUP1 DUP6 MSTORE SWAP2 PUSH1 0x1 SWAP2 DUP1 DUP4 AND SWAP1 DUP2 ISZERO PUSH2 0x6EA JUMPI POP PUSH1 0x1 EQ PUSH2 0x690 JUMPI JUMPDEST PUSH2 0x516 DUP6 PUSH2 0x684 DUP2 DUP8 SUB DUP3 PUSH2 0x19DD JUMP JUMPDEST PUSH1 0x40 MLOAD SWAP2 DUP3 SWAP2 DUP3 PUSH2 0x623 JUMP JUMPDEST DUP1 DUP1 SWAP5 POP MSTORE PUSH32 0x290DECD9548B62A8D60345A988386FC84BA6BC95484008F6362F93160EF3E563 JUMPDEST DUP3 DUP5 LT PUSH2 0x6D2 JUMPI POP POP POP DUP2 ADD PUSH1 0x20 ADD PUSH2 0x684 DUP3 PUSH2 0x516 PUSH2 0x674 JUMP JUMPDEST DUP1 SLOAD PUSH1 0x20 DUP6 DUP8 ADD DUP2 ADD SWAP2 SWAP1 SWAP2 MSTORE SWAP1 SWAP4 ADD SWAP3 DUP2 ADD PUSH2 0x6B7 JUMP JUMPDEST DUP7 SWAP6 POP PUSH2 0x516 SWAP7 SWAP4 POP PUSH1 0x20 SWAP3 POP PUSH2 0x684 SWAP5 SWAP2 POP PUSH1 0xFF NOT AND DUP3 DUP5 ADD MSTORE ISZERO ISZERO PUSH1 0x5 SHL DUP3 ADD ADD SWAP3 SWAP4 PUSH2 0x674 JUMP JUMPDEST DUP1 REVERT JUMPDEST POP CALLVALUE PUSH2 0xE JUMPI PUSH1 0x20 CALLDATASIZE PUSH1 0x3 NOT ADD SLT PUSH2 0xE JUMPI PUSH1 0x20 PUSH2 0x736 PUSH1 0x4 CALLDATALOAD PUSH2 0x20E6 JUMP JUMPDEST PUSH1 0x40 MLOAD PUSH1 0x1 PUSH1 0x1 PUSH1 0xA0 SHL SUB SWAP1 SWAP2 AND DUP2 MSTORE RETURN JUMPDEST PUSH1 0x1 PUSH1 0x1 PUSH1 0xA0 SHL SUB DUP2 AND SUB PUSH2 0xE JUMPI JUMP JUMPDEST CALLDATALOAD SWAP1 PUSH2 0x764 DUP3 PUSH2 0x748 JUMP JUMPDEST JUMP JUMPDEST POP CALLVALUE PUSH2 0xE JUMPI PUSH1 0x40 CALLDATASIZE PUSH1 0x3 NOT ADD SLT PUSH2 0xE JUMPI PUSH1 0x4 CALLDATALOAD PUSH2 0x784 DUP2 PUSH2 0x748 JUMP JUMPDEST PUSH1 0x24 CALLDATALOAD PUSH2 0x790 DUP2 PUSH2 0x1F66 JUMP JUMPDEST SWAP2 PUSH1 0x1 PUSH1 0x1 PUSH1 0xA0 SHL SUB DUP1 DUP5 AND SWAP1 DUP3 AND DUP2 EQ PUSH2 0x7F2 JUMPI PUSH2 0x7C2 SWAP4 PUSH2 0x7BD SWAP2 CALLER EQ SWAP1 DUP2 ISZERO PUSH2 0x7C4 JUMPI JUMPDEST POP PUSH2 0x2074 JUMP JUMPDEST PUSH2 0x24CB JUMP JUMPDEST STOP JUMPDEST PUSH1 0x1 PUSH1 0x1 PUSH1 0xA0 SHL SUB AND PUSH1 0x0 SWAP1 DUP2 MSTORE PUSH1 0x5 PUSH1 0x20 SWAP1 DUP2 MSTORE PUSH1 0x40 DUP1 DUP4 KECCAK256 CALLER DUP5 MSTORE SWAP1 SWAP2 MSTORE SWAP1 KECCAK256 SLOAD PUSH1 0xFF AND SWAP1 POP CODESIZE PUSH2 0x7B7 JUMP JUMPDEST PUSH1 0x40 MLOAD PUSH3 0x461BCD PUSH1 0xE5 SHL DUP2 MSTORE PUSH1 0x20 PUSH1 0x4 DUP3 ADD MSTORE PUSH1 0x21 PUSH1 0x24 DUP3 ADD MSTORE PUSH32 0x4552433732313A20617070726F76616C20746F2063757272656E74206F776E65 PUSH1 0x44 DUP3 ADD MSTORE PUSH1 0x39 PUSH1 0xF9 SHL PUSH1 0x64 DUP3 ADD MSTORE PUSH1 0x84 SWAP1 REVERT JUMPDEST POP CALLVALUE PUSH2 0xE JUMPI PUSH1 0x0 CALLDATASIZE PUSH1 0x3 NOT ADD SLT PUSH2 0xE JUMPI PUSH1 0x20 PUSH1 0x40 MLOAD TIMESTAMP DUP2 MSTORE RETURN JUMPDEST SWAP1 PUSH1 0x40 PUSH1 0x3 NOT DUP4 ADD SLT PUSH2 0xE JUMPI PUSH1 0x4 CALLDATALOAD PUSH2 0x876 DUP2 PUSH2 0x748 JUMP JUMPDEST SWAP2 PUSH1 0x24 CALLDATALOAD SWAP1 PUSH1 0x1 PUSH1 0x1 PUSH1 0x40 SHL SUB DUP3 GT PUSH2 0xE JUMPI PUSH2 0x895 SWAP2 PUSH1 0x4 ADD PUSH2 0x454 JUMP JUMPDEST SWAP1 SWAP2 JUMP JUMPDEST POP CALLVALUE PUSH2 0xE JUMPI PUSH2 0x8A8 CALLDATASIZE PUSH2 0x85D JUMP JUMPDEST SWAP2 PUSH2 0x8B2 DUP4 PUSH2 0x406A JUMP JUMPDEST SWAP3 PUSH1 0x0 JUMPDEST DUP2 DUP2 LT PUSH2 0x8CB JUMPI PUSH1 0x40 MLOAD DUP1 PUSH2 0x516 DUP8 DUP3 PUSH2 0x484 JUMP JUMPDEST DUP1 PUSH2 0x533 PUSH2 0x8DD PUSH2 0x8E4 SWAP4 DUP6 DUP9 PUSH2 0x2F38 JUMP JUMPDEST CALLDATALOAD DUP6 PUSH2 0x4382 JUMP JUMPDEST PUSH2 0x8B6 JUMP JUMPDEST POP CALLVALUE PUSH2 0xE JUMPI PUSH1 0x40 DUP1 PUSH1 0x3 NOT CALLDATASIZE ADD SLT PUSH2 0xE JUMPI PUSH1 0x4 CALLDATALOAD PUSH1 0x24 CALLDATALOAD PUSH1 0x1 PUSH1 0x1 PUSH1 0x40 SHL SUB DUP2 GT PUSH2 0xE JUMPI PUSH2 0x91E SWAP1 CALLDATASIZE SWAP1 PUSH1 0x4 ADD PUSH2 0x454 JUMP JUMPDEST SWAP2 PUSH2 0x928 DUP4 PUSH2 0x406A JUMP JUMPDEST SWAP3 PUSH1 0x0 SWAP1 DUP2 JUMPDEST DUP2 DUP2 LT PUSH2 0x942 JUMPI DUP7 MLOAD DUP1 PUSH2 0x516 DUP9 DUP3 PUSH2 0x484 JUMP JUMPDEST DUP1 PUSH2 0x965 PUSH2 0x954 PUSH2 0x976 SWAP4 DUP6 DUP10 PUSH2 0x2F38 JUMP JUMPDEST CALLDATALOAD DUP7 DUP7 MSTORE PUSH1 0x14 PUSH1 0x20 MSTORE DUP10 DUP7 KECCAK256 PUSH2 0x2736 JUMP JUMPDEST SWAP1 SLOAD SWAP1 PUSH1 0x3 SHL SHR PUSH2 0x53D DUP3 DUP10 PUSH2 0x3E72 JUMP JUMPDEST PUSH2 0x92E JUMP JUMPDEST POP CALLVALUE PUSH2 0xE JUMPI PUSH1 0x0 CALLDATASIZE PUSH1 0x3 NOT ADD SLT PUSH2 0xE JUMPI PUSH1 0x20 PUSH1 0x8 SLOAD PUSH1 0x40 MLOAD SWAP1 DUP2 MSTORE RETURN JUMPDEST POP CALLVALUE PUSH2 0xE JUMPI PUSH1 0x0 CALLDATASIZE PUSH1 0x3 NOT ADD SLT PUSH2 0xE JUMPI PUSH1 0x20 PUSH1 0x12 SLOAD PUSH1 0x40 MLOAD SWAP1 DUP2 MSTORE RETURN JUMPDEST PUSH1 0x60 SWAP1 PUSH1 0x3 NOT ADD SLT PUSH2 0xE JUMPI PUSH1 0x4 CALLDATALOAD PUSH2 0x9D1 DUP2 PUSH2 0x748 JUMP JUMPDEST SWAP1 PUSH1 0x24 CALLDATALOAD PUSH2 0x9DE DUP2 PUSH2 0x748 JUMP JUMPDEST SWAP1 PUSH1 0x44 CALLDATALOAD SWAP1 JUMP JUMPDEST POP CALLVALUE PUSH2 0xE JUMPI PUSH2 0x7C2 PUSH2 0x9F7 CALLDATASIZE PUSH2 0x9B9 JUMP JUMPDEST SWAP2 PUSH2 0xA0A PUSH2 0xA05 DUP5 CALLER PUSH2 0x222A JUMP JUMPDEST PUSH2 0x2124 JUMP JUMPDEST PUSH2 0x2336 JUMP JUMPDEST POP CALLVALUE PUSH2 0xE JUMPI PUSH1 0x20 CALLDATASIZE PUSH1 0x3 NOT ADD SLT PUSH2 0xE JUMPI PUSH1 0x20 PUSH2 0xA2E PUSH1 0x4 CALLDATALOAD PUSH2 0x409C JUMP JUMPDEST PUSH1 0x40 MLOAD SWAP1 DUP2 MSTORE RETURN JUMPDEST POP CALLVALUE PUSH2 0xE JUMPI PUSH1 0x40 CALLDATASIZE PUSH1 0x3 NOT ADD SLT PUSH2 0xE JUMPI PUSH1 0x0 DUP1 PUSH1 0x4 CALLDATALOAD DUP3 MSTORE PUSH1 0x16 PUSH1 0x20 MSTORE PUSH2 0x516 PUSH1 0x40 DUP4 KECCAK256 SWAP3 PUSH2 0xA69 PUSH1 0x24 CALLDATALOAD DUP6 PUSH2 0x41A5 JUMP JUMPDEST SWAP3 DUP5 SLOAD SWAP5 DUP5 DUP7 SUB SWAP6 DUP7 GT PUSH2 0xB1C JUMPI JUMPDEST PUSH1 0x0 NOT DUP7 DUP2 ADD SWAP7 DUP8 GT PUSH2 0xB0F JUMPI JUMPDEST DUP6 PUSH2 0xAD4 JUMPI JUMPDEST POP DUP6 PUSH2 0xAB7 JUMPI JUMPDEST POP PUSH1 0x40 MLOAD SWAP5 DUP6 SWAP5 DUP6 SWAP1 SWAP5 SWAP4 SWAP3 PUSH1 0x60 SWAP3 PUSH1 0x80 DUP4 ADD SWAP7 DUP4 MSTORE PUSH1 0x20 DUP4 ADD MSTORE PUSH1 0x40 DUP3 ADD MSTORE ADD MSTORE JUMP JUMPDEST PUSH2 0xACC SWAP2 SWAP3 POP PUSH2 0xAC6 DUP6 PUSH2 0x2328 JUMP JUMPDEST SWAP1 PUSH2 0x4106 JUMP JUMPDEST POP SWAP1 CODESIZE PUSH2 0xA93 JUMP JUMPDEST PUSH2 0xAEA SWAP2 SWAP3 POP DUP6 ADD DUP6 DUP2 GT PUSH2 0xB02 JUMPI JUMPDEST DUP3 PUSH2 0x2736 JUMP JUMPDEST SWAP1 SLOAD SWAP1 PUSH1 0x3 SHL SHR DUP1 DUP4 MSTORE PUSH1 0x2 DUP3 ADD PUSH1 0x20 MSTORE SWAP1 CODESIZE PUSH2 0xA8C JUMP JUMPDEST PUSH2 0xB0A PUSH2 0x22FA JUMP JUMPDEST PUSH2 0xAE4 JUMP JUMPDEST PUSH2 0xB17 PUSH2 0x22FA JUMP JUMPDEST PUSH2 0xA86 JUMP JUMPDEST PUSH2 0xB24 PUSH2 0x22FA JUMP JUMPDEST PUSH2 0xA78 JUMP JUMPDEST PUSH1 0x20 PUSH1 0x3 NOT DUP3 ADD SLT PUSH2 0xE JUMPI PUSH1 0x4 CALLDATALOAD SWAP1 PUSH1 0x1 PUSH1 0x1 PUSH1 0x40 SHL SUB DUP3 GT PUSH2 0xE JUMPI PUSH2 0x895 SWAP2 PUSH1 0x4 ADD PUSH2 0x454 JUMP JUMPDEST SWAP1 DUP2 MLOAD DUP1 DUP3 MSTORE PUSH1 0x20 DUP1 DUP1 SWAP4 ADD SWAP4 ADD SWAP2 PUSH1 0x0 JUMPDEST DUP3 DUP2 LT PUSH2 0xB73 JUMPI POP POP POP POP SWAP1 JUMP JUMPDEST DUP4 MLOAD DUP6 MSTORE SWAP4 DUP2 ADD SWAP4 SWAP3 DUP2 ADD SWAP3 PUSH1 0x1 ADD PUSH2 0xB65 JUMP JUMPDEST SWAP1 DUP2 MLOAD DUP1 DUP3 MSTORE PUSH1 0x20 DUP1 DUP1 SWAP4 ADD SWAP4 ADD SWAP2 PUSH1 0x0 JUMPDEST DUP3 DUP2 LT PUSH2 0xBA7 JUMPI POP POP POP POP SWAP1 JUMP JUMPDEST DUP4 MLOAD DUP1 MLOAD PUSH1 0x1 PUSH1 0x1 PUSH1 0xA0 SHL SUB AND DUP7 MSTORE DUP3 ADD MLOAD PUSH2 0xFFFF AND DUP6 DUP4 ADD MSTORE PUSH1 0x40 SWAP1 SWAP5 ADD SWAP4 SWAP3 DUP2 ADD SWAP3 PUSH1 0x1 ADD PUSH2 0xB99 JUMP JUMPDEST DUP1 MLOAD PUSH1 0x1 PUSH1 0x1 PUSH1 0xA0 SHL SUB AND DUP3 MSTORE PUSH2 0x634 SWAP2 SWAP1 PUSH1 0x20 DUP2 ADD MLOAD PUSH1 0x20 DUP4 ADD MSTORE PUSH1 0x40 DUP2 ADD MLOAD PUSH1 0x40 DUP4 ADD MSTORE PUSH1 0x60 DUP2 ADD MLOAD PUSH1 0x60 DUP4 ADD MSTORE PUSH2 0xC5B PUSH2 0xC49 PUSH2 0xC37 PUSH2 0xC25 PUSH1 0x80 DUP6 ADD MLOAD PUSH2 0x120 DUP1 PUSH1 0x80 DUP10 ADD MSTORE DUP8 ADD SWAP1 PUSH2 0x5E3 JUMP JUMPDEST PUSH1 0xA0 DUP6 ADD MLOAD DUP7 DUP3 SUB PUSH1 0xA0 DUP9 ADD MSTORE PUSH2 0x5E3 JUMP JUMPDEST PUSH1 0xC0 DUP5 ADD MLOAD DUP6 DUP3 SUB PUSH1 0xC0 DUP8 ADD MSTORE PUSH2 0xB53 JUMP JUMPDEST PUSH1 0xE0 DUP4 ADD MLOAD DUP5 DUP3 SUB PUSH1 0xE0 DUP7 ADD MSTORE PUSH2 0xB53 JUMP JUMPDEST SWAP2 PUSH2 0x100 DUP1 SWAP3 ADD MLOAD SWAP2 DUP2 DUP5 SUB SWAP2 ADD MSTORE PUSH2 0xB87 JUMP JUMPDEST SWAP1 DUP1 DUP3 MLOAD SWAP1 DUP2 DUP2 MSTORE PUSH1 0x20 DUP1 SWAP2 ADD SWAP3 DUP2 DUP1 DUP5 PUSH1 0x5 SHL DUP4 ADD ADD SWAP6 ADD SWAP4 PUSH1 0x0 SWAP2 JUMPDEST DUP5 DUP4 LT PUSH2 0xC9D JUMPI POP POP POP POP POP POP SWAP1 JUMP JUMPDEST SWAP1 SWAP2 SWAP3 SWAP4 SWAP5 SWAP6 DUP5 DUP1 PUSH2 0xCBB PUSH1 0x1 SWAP4 PUSH1 0x1F NOT DUP7 DUP3 SUB ADD DUP8 MSTORE DUP11 MLOAD PUSH2 0x5E3 JUMP JUMPDEST SWAP9 ADD SWAP4 ADD SWAP4 ADD SWAP2 SWAP5 SWAP4 SWAP3 SWAP1 PUSH2 0xC8D JUMP JUMPDEST SWAP2 SWAP4 SWAP3 SWAP1 SWAP4 PUSH1 0x60 DUP4 ADD SWAP1 PUSH1 0x60 DUP5 MSTORE DUP6 MLOAD DUP1 SWAP3 MSTORE PUSH1 0x80 DUP5 ADD PUSH1 0x80 DUP4 PUSH1 0x5 SHL DUP7 ADD ADD SWAP3 PUSH1 0x20 DUP1 SWAP9 ADD SWAP2 PUSH1 0x0 SWAP1 JUMPDEST DUP3 DUP3 LT PUSH2 0xD25 JUMPI POP POP POP POP SWAP1 PUSH2 0xD17 SWAP2 PUSH2 0x634 SWAP6 SWAP7 DUP6 DUP4 SUB SWAP1 DUP7 ADD MSTORE PUSH2 0xC6F JUMP JUMPDEST SWAP2 PUSH1 0x40 DUP2 DUP5 SUB SWAP2 ADD MSTORE PUSH2 0xC6F JUMP JUMPDEST SWAP1 SWAP2 SWAP3 SWAP5 DUP10 DUP1 PUSH2 0xD41 PUSH1 0x1 SWAP4 PUSH1 0x7F NOT DUP13 DUP3 SUB ADD DUP7 MSTORE DUP10 MLOAD PUSH2 0xBD3 JUMP JUMPDEST SWAP8 ADD SWAP3 ADD SWAP3 ADD SWAP1 SWAP3 SWAP2 PUSH2 0xCF6 JUMP JUMPDEST POP CALLVALUE PUSH2 0xE JUMPI PUSH2 0xD5E CALLDATASIZE PUSH2 0xB29 JUMP JUMPDEST SWAP1 PUSH2 0xD68 DUP3 PUSH2 0x3DA1 JUMP JUMPDEST PUSH2 0xD75 PUSH1 0x40 MLOAD SWAP2 DUP3 PUSH2 0x19DD JUMP JUMPDEST DUP3 DUP2 MSTORE PUSH1 0x1F NOT PUSH2 0xD84 DUP5 PUSH2 0x3DA1 JUMP JUMPDEST ADD PUSH1 0x0 JUMPDEST DUP2 DUP2 LT PUSH2 0xDFE JUMPI POP POP PUSH2 0xD9A DUP4 PUSH2 0x3E28 JUMP JUMPDEST SWAP2 PUSH2 0xDA4 DUP5 PUSH2 0x3E28 JUMP JUMPDEST SWAP1 PUSH1 0x0 JUMPDEST DUP6 DUP2 LT PUSH2 0xDC1 JUMPI POP POP PUSH2 0x516 SWAP1 PUSH1 0x40 MLOAD SWAP4 DUP5 SWAP4 DUP5 PUSH2 0xCCB JUMP JUMPDEST DUP1 PUSH2 0xDD9 PUSH2 0xDD3 PUSH2 0xDF9 SWAP4 DUP10 DUP7 PUSH2 0x2F38 JUMP JUMPDEST CALLDATALOAD PUSH2 0x3F76 JUMP JUMPDEST PUSH2 0xDE3 DUP5 DUP9 PUSH2 0x3E72 JUMP JUMPDEST MSTORE PUSH2 0xDEE DUP4 DUP10 PUSH2 0x3E72 JUMP JUMPDEST MSTORE PUSH2 0x53D DUP3 DUP8 PUSH2 0x3E72 JUMP JUMPDEST PUSH2 0xDA8 JUMP JUMPDEST PUSH1 0x20 SWAP1 PUSH2 0xE09 PUSH2 0x3DC1 JUMP JUMPDEST DUP3 DUP3 DUP7 ADD ADD MSTORE ADD PUSH2 0xD88 JUMP JUMPDEST POP CALLVALUE PUSH2 0xE JUMPI PUSH2 0xE24 CALLDATASIZE PUSH2 0xB29 JUMP JUMPDEST SWAP1 PUSH2 0xE2E DUP3 PUSH2 0x406A JUMP JUMPDEST SWAP2 PUSH1 0x0 JUMPDEST DUP2 DUP2 LT PUSH2 0xE47 JUMPI PUSH1 0x40 MLOAD DUP1 PUSH2 0x516 DUP7 DUP3 PUSH2 0x484 JUMP JUMPDEST DUP1 PUSH2 0xE7E PUSH2 0xE59 PUSH2 0xE88 SWAP4 DUP6 DUP8 PUSH2 0x2F38 JUMP JUMPDEST CALLDATALOAD PUSH2 0xE63 DUP2 PUSH2 0x748 JUMP JUMPDEST PUSH1 0x1 PUSH1 0x1 PUSH1 0xA0 SHL SUB AND PUSH1 0x0 SWAP1 DUP2 MSTORE PUSH1 0x15 PUSH1 0x20 MSTORE PUSH1 0x40 SWAP1 KECCAK256 SLOAD SWAP1 JUMP JUMPDEST PUSH2 0x53D DUP3 DUP8 PUSH2 0x3E72 JUMP JUMPDEST PUSH2 0xE32 JUMP JUMPDEST POP CALLVALUE PUSH2 0xE JUMPI PUSH1 0x20 CALLDATASIZE PUSH1 0x3 NOT ADD SLT PUSH2 0xE JUMPI PUSH1 0x20 PUSH2 0xA2E PUSH1 0x4 CALLDATALOAD PUSH1 0x0 MSTORE PUSH1 0x14 PUSH1 0x20 MSTORE PUSH1 0x40 PUSH1 0x0 KECCAK256 SLOAD SWAP1 JUMP JUMPDEST POP CALLVALUE PUSH2 0xE JUMPI PUSH1 0x40 CALLDATASIZE PUSH1 0x3 NOT ADD SLT PUSH2 0xE JUMPI PUSH1 0x4 CALLDATALOAD PUSH2 0xED6 DUP2 PUSH2 0x748 JUMP JUMPDEST PUSH1 0x24 CALLDATALOAD SWAP1 PUSH2 0xEE3 DUP2 PUSH2 0x1EA3 JUMP JUMPDEST DUP3 LT ISZERO PUSH2 0xF17 JUMPI PUSH1 0x1 PUSH1 0x1 PUSH1 0xA0 SHL SUB AND PUSH1 0x0 SWAP1 DUP2 MSTORE PUSH1 0x6 PUSH1 0x20 SWAP1 DUP2 MSTORE PUSH1 0x40 DUP1 DUP4 KECCAK256 SWAP4 DUP4 MSTORE SWAP3 DUP2 MSTORE SWAP1 DUP3 SWAP1 KECCAK256 SLOAD SWAP2 MLOAD SWAP2 DUP3 MSTORE SWAP1 RETURN JUMPDEST PUSH1 0x40 MLOAD PUSH3 0x461BCD PUSH1 0xE5 SHL DUP2 MSTORE PUSH1 0x20 PUSH1 0x4 DUP3 ADD MSTORE PUSH1 0x2B PUSH1 0x24 DUP3 ADD MSTORE PUSH32 0x455243373231456E756D657261626C653A206F776E657220696E646578206F75 PUSH1 0x44 DUP3 ADD MSTORE PUSH11 0x74206F6620626F756E6473 PUSH1 0xA8 SHL PUSH1 0x64 DUP3 ADD MSTORE PUSH1 0x84 SWAP1 REVERT JUMPDEST POP CALLVALUE PUSH2 0xE JUMPI PUSH2 0xF7F CALLDATASIZE PUSH2 0xB29 JUMP JUMPDEST SWAP1 PUSH2 0xF89 DUP3 PUSH2 0x406A JUMP JUMPDEST SWAP2 PUSH1 0x0 JUMPDEST DUP2 DUP2 LT PUSH2 0xFA2 JUMPI PUSH1 0x40 MLOAD DUP1 PUSH2 0x516 DUP7 DUP3 PUSH2 0x484 JUMP JUMPDEST DUP1 PUSH2 0xE7E PUSH2 0xFB4 PUSH2 0xFD9 SWAP4 DUP6 DUP8 PUSH2 0x2F38 JUMP JUMPDEST CALLDATALOAD PUSH2 0xFBE DUP2 PUSH2 0x748 JUMP JUMPDEST PUSH1 0x1 PUSH1 0x1 PUSH1 0xA0 SHL SUB AND PUSH1 0x0 SWAP1 DUP2 MSTORE PUSH1 0x11 PUSH1 0x20 MSTORE PUSH1 0x40 SWAP1 KECCAK256 SLOAD SWAP1 JUMP JUMPDEST PUSH2 0xF8D JUMP JUMPDEST POP CALLVALUE PUSH2 0xE JUMPI PUSH1 0x40 CALLDATASIZE PUSH1 0x3 NOT ADD SLT PUSH2 0xE JUMPI PUSH1 0x20 PUSH2 0xA2E PUSH1 0x24 CALLDATALOAD PUSH1 0x4 CALLDATALOAD PUSH2 0x4481 JUMP JUMPDEST POP CALLVALUE PUSH2 0xE JUMPI PUSH1 0x20 CALLDATASIZE PUSH1 0x3 NOT ADD SLT PUSH2 0xE JUMPI PUSH1 0x0 DUP1 PUSH2 0x516 PUSH2 0x1023 PUSH1 0x4 CALLDATALOAD PUSH2 0x412D JUMP JUMPDEST SWAP2 PUSH1 0xE SLOAD SWAP4 DUP4 DUP6 SUB SWAP5 DUP6 GT PUSH2 0x10CD JUMPI JUMPDEST PUSH1 0x0 NOT DUP6 DUP2 ADD SWAP6 DUP7 GT PUSH2 0x10C0 JUMPI JUMPDEST DUP5 PUSH2 0x108B JUMPI JUMPDEST POP DUP5 PUSH2 0x1071 JUMPI JUMPDEST PUSH1 0x40 MLOAD SWAP5 DUP6 SWAP5 DUP6 SWAP1 SWAP5 SWAP4 SWAP3 PUSH1 0x60 SWAP3 PUSH1 0x80 DUP4 ADD SWAP7 DUP4 MSTORE PUSH1 0x20 DUP4 ADD MSTORE PUSH1 0x40 DUP3 ADD MSTORE ADD MSTORE JUMP JUMPDEST SWAP1 POP PUSH2 0x1084 PUSH2 0x107F DUP5 PUSH2 0x2328 JUMP JUMPDEST PUSH2 0x40B8 JUMP JUMPDEST POP SWAP1 PUSH2 0x104E JUMP JUMPDEST PUSH2 0x109E SWAP2 POP DUP5 ADD DUP5 DUP2 GT PUSH2 0x10B3 JUMPI PUSH2 0x26F1 JUMP JUMPDEST SWAP1 SLOAD SWAP1 PUSH1 0x3 SHL SHR DUP1 DUP3 MSTORE PUSH1 0x10 PUSH1 0x20 MSTORE CODESIZE PUSH2 0x1047 JUMP JUMPDEST PUSH2 0x10BB PUSH2 0x22FA JUMP JUMPDEST PUSH2 0x26F1 JUMP JUMPDEST PUSH2 0x10C8 PUSH2 0x22FA JUMP JUMPDEST PUSH2 0x1041 JUMP JUMPDEST PUSH2 0x10D5 PUSH2 0x22FA JUMP JUMPDEST PUSH2 0x1033 JUMP JUMPDEST PUSH1 0x20 SWAP1 DUP2 PUSH1 0x40 DUP2 DUP4 ADD SWAP3 DUP3 DUP2 MSTORE DUP6 MLOAD DUP1 SWAP5 MSTORE ADD SWAP4 ADD SWAP2 PUSH1 0x0 JUMPDEST DUP3 DUP2 LT PUSH2 0x1101 JUMPI POP POP POP POP SWAP1 JUMP JUMPDEST DUP4 MLOAD PUSH1 0x1 PUSH1 0x1 PUSH1 0xA0 SHL SUB AND DUP6 MSTORE SWAP4 DUP2 ADD SWAP4 SWAP3 DUP2 ADD SWAP3 PUSH1 0x1 ADD PUSH2 0x10F3 JUMP JUMPDEST POP CALLVALUE PUSH2 0xE JUMPI PUSH1 0x0 CALLDATASIZE PUSH1 0x3 NOT ADD SLT PUSH2 0xE JUMPI PUSH1 0x40 MLOAD DUP1 PUSH1 0x12 SLOAD SWAP2 DUP3 DUP2 MSTORE PUSH1 0x20 DUP1 SWAP2 ADD SWAP3 PUSH1 0x12 PUSH1 0x0 MSTORE PUSH32 0xBB8A6A4669BA250D26CD7A459ECA9D215F8307E33AEBE50379BC5A3617EC3444 SWAP2 PUSH1 0x0 SWAP1 JUMPDEST DUP3 DUP3 LT PUSH2 0x118F JUMPI PUSH2 0x516 DUP6 PUSH2 0x1183 DUP2 DUP10 SUB DUP3 PUSH2 0x19DD JUMP JUMPDEST PUSH1 0x40 MLOAD SWAP2 DUP3 SWAP2 DUP3 PUSH2 0x10DA JUMP JUMPDEST DUP4 SLOAD DUP7 MSTORE SWAP5 DUP6 ADD SWAP5 PUSH1 0x1 SWAP4 DUP5 ADD SWAP4 SWAP1 SWAP2 ADD SWAP1 PUSH2 0x116C JUMP JUMPDEST POP CALLVALUE PUSH2 0xE JUMPI PUSH2 0x7C2 PUSH2 0x11B8 CALLDATASIZE PUSH2 0x9B9 JUMP JUMPDEST SWAP1 PUSH1 0x40 MLOAD SWAP3 PUSH2 0x11C6 DUP5 PUSH2 0x199A JUMP JUMPDEST PUSH1 0x0 DUP5 MSTORE PUSH2 0x2187 JUMP JUMPDEST POP CALLVALUE PUSH2 0xE JUMPI PUSH1 0x20 CALLDATASIZE PUSH1 0x3 NOT ADD SLT PUSH2 0xE JUMPI PUSH1 0x4 CALLDATALOAD PUSH2 0x11F1 PUSH2 0xA05 DUP3 CALLER PUSH2 0x222A JUMP JUMPDEST PUSH2 0x1281 PUSH2 0x11FD DUP3 PUSH2 0x1F66 JUMP JUMPDEST PUSH2 0x1207 DUP4 DUP3 PUSH2 0x2F56 JUMP JUMPDEST PUSH2 0x1210 DUP4 PUSH2 0x2477 JUMP JUMPDEST PUSH1 0x1 PUSH1 0x1 PUSH1 0xA0 SHL SUB AND PUSH1 0x0 DUP2 DUP2 MSTORE PUSH1 0x3 PUSH1 0x20 MSTORE PUSH1 0x40 DUP2 KECCAK256 DUP1 SLOAD SWAP2 SWAP5 SWAP3 DUP4 SWAP3 DUP7 SWAP3 PUSH1 0x0 NOT DUP3 ADD SWAP2 DUP3 GT PUSH2 0x1284 JUMPI JUMPDEST SSTORE DUP3 DUP3 MSTORE PUSH1 0x2 PUSH1 0x20 MSTORE PUSH1 0x40 DUP3 KECCAK256 DUP1 SLOAD PUSH1 0x1 PUSH1 0x1 PUSH1 0xA0 SHL SUB NOT AND SWAP1 SSTORE PUSH32 0xDDF252AD1BE2C89B69C2B068FC378DAA952BA7F163C4A11628F55A4DF523B3EF DUP3 DUP1 LOG4 PUSH2 0x34BF JUMP JUMPDEST DUP1 RETURN JUMPDEST PUSH2 0x128C PUSH2 0x22FA JUMP JUMPDEST PUSH2 0x123D JUMP JUMPDEST POP CALLVALUE PUSH2 0xE JUMPI PUSH1 0x20 CALLDATASIZE PUSH1 0x3 NOT ADD SLT PUSH2 0xE JUMPI PUSH1 0x20 PUSH2 0xA2E PUSH1 0x4 CALLDATALOAD PUSH1 0x0 MSTORE PUSH1 0x16 PUSH1 0x20 MSTORE PUSH1 0x40 PUSH1 0x0 KECCAK256 SLOAD SWAP1 JUMP JUMPDEST SWAP1 DUP2 PUSH2 0x120 SWAP2 SUB SLT PUSH2 0xE JUMPI SWAP1 JUMP JUMPDEST SWAP2 DUP2 PUSH1 0x1F DUP5 ADD SLT ISZERO PUSH2 0xE JUMPI DUP3 CALLDATALOAD SWAP2 PUSH1 0x1 PUSH1 0x1 PUSH1 0x40 SHL SUB DUP4 GT PUSH2 0xE JUMPI PUSH1 0x20 DUP4 DUP2 DUP7 ADD SWAP6 ADD ADD GT PUSH2 0xE JUMPI JUMP JUMPDEST PUSH1 0x60 PUSH1 0x3 NOT DUP3 ADD SLT PUSH2 0xE JUMPI PUSH1 0x1 PUSH1 0x1 PUSH1 0x40 SHL SUB SWAP1 PUSH1 0x4 CALLDATALOAD DUP3 DUP2 GT PUSH2 0xE JUMPI DUP2 PUSH2 0x1324 SWAP2 PUSH1 0x4 ADD PUSH2 0x12BC JUMP JUMPDEST SWAP3 PUSH1 0x24 CALLDATALOAD DUP4 DUP2 GT PUSH2 0xE JUMPI DUP3 PUSH2 0x133C SWAP2 PUSH1 0x4 ADD PUSH2 0x12CB JUMP JUMPDEST SWAP4 SWAP1 SWAP4 SWAP3 PUSH1 0x44 CALLDATALOAD SWAP2 DUP3 GT PUSH2 0xE JUMPI PUSH2 0x895 SWAP2 PUSH1 0x4 ADD PUSH2 0x12CB JUMP JUMPDEST POP CALLVALUE PUSH2 0xE JUMPI PUSH2 0x1374 PUSH2 0x1368 CALLDATASIZE PUSH2 0x12F8 JUMP JUMPDEST SWAP3 DUP5 SWAP6 SWAP5 SWAP3 SWAP2 SWAP3 PUSH2 0x2BEB JUMP JUMPDEST PUSH1 0xE SLOAD DUP2 PUSH1 0x0 MSTORE PUSH1 0x10 PUSH1 0x20 MSTORE PUSH1 0x40 PUSH1 0x0 KECCAK256 SSTORE PUSH2 0x138F DUP2 PUSH2 0x41ED JUMP JUMPDEST POP PUSH2 0x13A2 DUP2 PUSH2 0x139D DUP5 PUSH2 0x2B2E JUMP JUMPDEST PUSH2 0x43B6 JUMP JUMPDEST PUSH2 0x13B3 PUSH2 0x13AE DUP4 PUSH2 0x2B2E JUMP JUMPDEST PUSH2 0x4438 JUMP JUMPDEST PUSH1 0xC0 DUP3 ADD PUSH2 0x13C1 DUP2 DUP5 PUSH2 0x2BB6 JUMP JUMPDEST SWAP2 SWAP1 POP PUSH1 0x0 JUMPDEST DUP3 DUP2 LT PUSH2 0x13E5 JUMPI PUSH2 0x7C2 DUP5 PUSH2 0x13DF PUSH1 0xE0 DUP9 ADD DUP9 PUSH2 0x2BB6 JUMP JUMPDEST SWAP2 PUSH2 0x449A JUMP JUMPDEST DUP1 PUSH2 0x1407 PUSH2 0x1400 PUSH2 0x1447 SWAP4 PUSH2 0x13FA DUP7 DUP11 PUSH2 0x2BB6 JUMP JUMPDEST SWAP1 PUSH2 0x2F38 JUMP JUMPDEST CALLDATALOAD DUP7 PUSH2 0x444A JUMP JUMPDEST PUSH2 0x1442 DUP6 PUSH2 0x143D PUSH2 0x1430 PUSH2 0x141F DUP6 PUSH2 0x13FA DUP10 DUP14 PUSH2 0x2BB6 JUMP JUMPDEST CALLDATALOAD PUSH1 0x0 MSTORE PUSH1 0xA PUSH1 0x20 MSTORE PUSH1 0x40 PUSH1 0x0 KECCAK256 SWAP1 JUMP JUMPDEST SLOAD PUSH1 0x1 PUSH1 0x1 PUSH1 0xA0 SHL SUB AND SWAP1 JUMP JUMPDEST PUSH2 0x4460 JUMP JUMPDEST PUSH2 0x2EE5 JUMP JUMPDEST PUSH2 0x13C7 JUMP JUMPDEST POP CALLVALUE PUSH2 0xE JUMPI PUSH1 0x20 CALLDATASIZE PUSH1 0x3 NOT ADD SLT PUSH2 0xE JUMPI PUSH1 0x4 CALLDATALOAD PUSH1 0x8 SLOAD DUP2 LT ISZERO PUSH2 0x149E JUMPI PUSH1 0x8 PUSH1 0x0 MSTORE PUSH32 0xF3F7A9FE364FAAB93B216DA50A3214154F22A0A2B415B23A84C8169E8B636EE3 ADD SLOAD PUSH1 0x40 MLOAD SWAP1 DUP2 MSTORE PUSH1 0x20 SWAP1 RETURN JUMPDEST PUSH1 0x40 MLOAD PUSH3 0x461BCD PUSH1 0xE5 SHL DUP2 MSTORE PUSH1 0x20 PUSH1 0x4 DUP3 ADD MSTORE PUSH1 0x2C PUSH1 0x24 DUP3 ADD MSTORE PUSH32 0x455243373231456E756D657261626C653A20676C6F62616C20696E646578206F PUSH1 0x44 DUP3 ADD MSTORE PUSH12 0x7574206F6620626F756E6473 PUSH1 0xA0 SHL PUSH1 0x64 DUP3 ADD MSTORE PUSH1 0x84 SWAP1 REVERT JUMPDEST POP CALLVALUE PUSH2 0xE JUMPI PUSH1 0x40 CALLDATASIZE PUSH1 0x3 NOT ADD SLT PUSH2 0xE JUMPI PUSH1 0x20 PUSH2 0xA2E PUSH1 0x4 CALLDATALOAD PUSH2 0x151B DUP2 PUSH2 0x748 JUMP JUMPDEST PUSH1 0x24 CALLDATALOAD SWAP1 PUSH2 0x4382 JUMP JUMPDEST POP CALLVALUE PUSH2 0xE JUMPI PUSH1 0x20 CALLDATASIZE PUSH1 0x3 NOT ADD SLT PUSH2 0xE JUMPI PUSH1 0x20 PUSH2 0xA2E PUSH1 0x4 CALLDATALOAD PUSH2 0xFBE DUP2 PUSH2 0x748 JUMP JUMPDEST POP CALLVALUE PUSH2 0xE JUMPI PUSH1 0x20 CALLDATASIZE PUSH1 0x3 NOT ADD SLT PUSH2 0xE JUMPI PUSH1 0x20 PUSH2 0x736 PUSH1 0x4 CALLDATALOAD PUSH2 0x1F66 JUMP JUMPDEST POP CALLVALUE PUSH2 0xE JUMPI PUSH1 0x20 CALLDATASIZE PUSH1 0x3 NOT ADD SLT PUSH2 0xE JUMPI PUSH1 0x4 CALLDATALOAD PUSH1 0x1 PUSH1 0x1 PUSH1 0x40 SHL SUB DUP2 GT PUSH2 0xE JUMPI PUSH2 0xA2E PUSH2 0x159C PUSH1 0x20 SWAP3 CALLDATASIZE SWAP1 PUSH1 0x4 ADD PUSH2 0x12BC JUMP JUMPDEST PUSH2 0x2A2B JUMP JUMPDEST POP CALLVALUE PUSH2 0xE JUMPI PUSH1 0x20 CALLDATASIZE PUSH1 0x3 NOT ADD SLT PUSH2 0xE JUMPI PUSH1 0x20 PUSH2 0x736 PUSH1 0x4 CALLDATALOAD PUSH2 0x43EC JUMP JUMPDEST POP CALLVALUE PUSH2 0xE JUMPI PUSH1 0x20 CALLDATASIZE PUSH1 0x3 NOT ADD SLT PUSH2 0xE JUMPI PUSH1 0x20 PUSH2 0xA2E PUSH1 0x4 CALLDATALOAD PUSH2 0x15E3 DUP2 PUSH2 0x748 JUMP JUMPDEST PUSH2 0x1EA3 JUMP JUMPDEST POP CALLVALUE PUSH2 0xE JUMPI PUSH1 0x20 PUSH2 0xA2E PUSH2 0x15FC CALLDATASIZE PUSH2 0x12F8 JUMP JUMPDEST SWAP4 SWAP3 SWAP1 SWAP3 PUSH2 0x2BEB JUMP JUMPDEST POP CALLVALUE PUSH2 0xE JUMPI PUSH1 0x20 CALLDATASIZE PUSH1 0x3 NOT ADD SLT PUSH2 0xE JUMPI PUSH1 0x4 CALLDATALOAD PUSH1 0x0 MSTORE PUSH1 0xB PUSH1 0x20 MSTORE PUSH1 0x20 PUSH1 0x40 PUSH1 0x0 KECCAK256 SLOAD PUSH1 0x40 MLOAD SWAP1 DUP2 MSTORE RETURN JUMPDEST POP CALLVALUE PUSH2 0xE JUMPI PUSH1 0x20 CALLDATASIZE PUSH1 0x3 NOT ADD SLT PUSH2 0xE JUMPI PUSH1 0x4 CALLDATALOAD PUSH1 0x0 MSTORE PUSH1 0x14 PUSH1 0x20 MSTORE PUSH2 0x516 PUSH2 0x165F PUSH1 0x40 PUSH1 0x0 KECCAK256 PUSH2 0x3E94 JUMP JUMPDEST PUSH1 0x40 MLOAD SWAP2 DUP3 SWAP2 DUP3 PUSH2 0x484 JUMP JUMPDEST POP CALLVALUE PUSH2 0xE JUMPI PUSH2 0x167A CALLDATASIZE PUSH2 0xB29 JUMP JUMPDEST SWAP1 PUSH2 0x1684 DUP3 PUSH2 0x406A JUMP JUMPDEST SWAP2 PUSH1 0x0 JUMPDEST DUP2 DUP2 LT PUSH2 0x169D JUMPI PUSH1 0x40 MLOAD DUP1 PUSH2 0x516 DUP7 DUP3 PUSH2 0x484 JUMP JUMPDEST DUP1 PUSH2 0xE7E PUSH2 0x16AF PUSH2 0x16C1 SWAP4 DUP6 DUP8 PUSH2 0x2F38 JUMP JUMPDEST CALLDATALOAD PUSH1 0x0 MSTORE PUSH1 0x16 PUSH1 0x20 MSTORE PUSH1 0x40 PUSH1 0x0 KECCAK256 SLOAD SWAP1 JUMP JUMPDEST PUSH2 0x1688 JUMP JUMPDEST POP CALLVALUE PUSH2 0xE JUMPI PUSH1 0x0 DUP1 PUSH1 0x3 NOT CALLDATASIZE ADD SLT PUSH2 0x714 JUMPI PUSH1 0x40 MLOAD SWAP1 DUP1 PUSH1 0x1 DUP1 SLOAD SWAP2 PUSH2 0x16EC DUP4 PUSH2 0x1F89 JUMP JUMPDEST DUP1 DUP7 MSTORE SWAP3 DUP3 DUP2 AND SWAP1 DUP2 ISZERO PUSH2 0x6EA JUMPI POP PUSH1 0x1 EQ PUSH2 0x1712 JUMPI PUSH2 0x516 DUP6 PUSH2 0x684 DUP2 DUP8 SUB DUP3 PUSH2 0x19DD JUMP JUMPDEST SWAP3 POP DUP1 DUP4 MSTORE PUSH32 0xB10E2D527612073B26EECDFD717E6A320CF44B4AFAC2B0732D9FCBE2B7FA0CF6 JUMPDEST DUP3 DUP5 LT PUSH2 0x1754 JUMPI POP POP POP DUP2 ADD PUSH1 0x20 ADD PUSH2 0x684 DUP3 PUSH2 0x516 PUSH2 0x674 JUMP JUMPDEST DUP1 SLOAD PUSH1 0x20 DUP6 DUP8 ADD DUP2 ADD SWAP2 SWAP1 SWAP2 MSTORE SWAP1 SWAP4 ADD SWAP3 DUP2 ADD PUSH2 0x1739 JUMP JUMPDEST POP CALLVALUE PUSH2 0xE JUMPI PUSH1 0x20 DUP1 PUSH1 0x3 NOT CALLDATASIZE ADD SLT PUSH2 0xE JUMPI PUSH1 0x4 CALLDATALOAD PUSH2 0x178B DUP2 PUSH2 0x748 JUMP JUMPDEST PUSH1 0x1 PUSH1 0x1 PUSH1 0xA0 SHL SUB AND PUSH1 0x0 SWAP1 DUP2 MSTORE PUSH1 0x11 DUP3 MSTORE PUSH1 0x40 DUP2 KECCAK256 DUP1 SLOAD SWAP2 SWAP1 PUSH2 0x17AE DUP4 PUSH2 0x406A JUMP JUMPDEST SWAP4 PUSH1 0x2 DUP3 ADD SWAP2 DUP4 JUMPDEST DUP6 DUP2 LT PUSH2 0x17CB JUMPI PUSH1 0x40 MLOAD DUP1 PUSH2 0x516 DUP10 DUP3 PUSH2 0x484 JUMP JUMPDEST DUP1 PUSH2 0x17D9 PUSH2 0x17F0 SWAP3 DUP5 PUSH2 0x2736 JUMP JUMPDEST SWAP1 SLOAD SWAP1 PUSH1 0x3 SHL SHR DUP1 DUP8 MSTORE DUP6 DUP6 MSTORE PUSH2 0x53D DUP3 DUP11 PUSH2 0x3E72 JUMP JUMPDEST PUSH2 0x17B6 JUMP JUMPDEST POP CALLVALUE PUSH2 0xE JUMPI PUSH1 0x40 CALLDATASIZE PUSH1 0x3 NOT ADD SLT PUSH2 0xE JUMPI PUSH1 0x4 CALLDATALOAD PUSH2 0x1813 DUP2 PUSH2 0x748 JUMP JUMPDEST PUSH1 0x24 CALLDATALOAD DUP1 ISZERO ISZERO DUP2 SUB PUSH2 0xE JUMPI PUSH1 0x1 PUSH1 0x1 PUSH1 0xA0 SHL SUB DUP3 AND SWAP2 CALLER DUP4 EQ PUSH2 0x18A1 JUMPI DUP2 PUSH2 0x185E PUSH2 0x186F SWAP3 CALLER PUSH1 0x0 MSTORE PUSH1 0x5 PUSH1 0x20 MSTORE PUSH1 0x40 PUSH1 0x0 KECCAK256 SWAP1 PUSH1 0x1 DUP1 PUSH1 0xA0 SHL SUB AND PUSH1 0x0 MSTORE PUSH1 0x20 MSTORE PUSH1 0x40 PUSH1 0x0 KECCAK256 SWAP1 JUMP JUMPDEST SWAP1 PUSH1 0xFF DUP1 NOT DUP4 SLOAD AND SWAP2 ISZERO ISZERO AND OR SWAP1 SSTORE JUMP JUMPDEST PUSH1 0x40 MLOAD SWAP1 ISZERO ISZERO DUP2 MSTORE CALLER SWAP1 PUSH32 0x17307EAB39AB6107E8899845AD3D59BD9653F200F220920489CA2B5937696C31 SWAP1 PUSH1 0x20 SWAP1 LOG3 STOP JUMPDEST PUSH1 0x40 MLOAD PUSH3 0x461BCD PUSH1 0xE5 SHL DUP2 MSTORE PUSH1 0x20 PUSH1 0x4 DUP3 ADD MSTORE PUSH1 0x19 PUSH1 0x24 DUP3 ADD MSTORE PUSH32 0x4552433732313A20617070726F766520746F2063616C6C657200000000000000 PUSH1 0x44 DUP3 ADD MSTORE PUSH1 0x64 SWAP1 REVERT JUMPDEST POP CALLVALUE PUSH2 0xE JUMPI PUSH1 0x20 DUP1 PUSH1 0x3 NOT CALLDATASIZE ADD SLT PUSH2 0xE JUMPI PUSH1 0x0 PUSH1 0x4 CALLDATALOAD DUP2 MSTORE PUSH1 0x16 DUP3 MSTORE PUSH1 0x40 DUP2 KECCAK256 SWAP1 DUP2 SLOAD SWAP2 PUSH2 0x1915 DUP4 PUSH2 0x406A JUMP JUMPDEST SWAP4 PUSH1 0x2 DUP3 ADD SWAP2 DUP4 JUMPDEST DUP6 DUP2 LT PUSH2 0x1932 JUMPI PUSH1 0x40 MLOAD DUP1 PUSH2 0x516 DUP10 DUP3 PUSH2 0x484 JUMP JUMPDEST DUP1 PUSH2 0x17D9 PUSH2 0x1940 SWAP3 DUP5 PUSH2 0x2736 JUMP JUMPDEST PUSH2 0x191D JUMP JUMPDEST POP CALLVALUE PUSH2 0xE JUMPI PUSH1 0x20 CALLDATASIZE PUSH1 0x3 NOT ADD SLT PUSH2 0xE JUMPI PUSH1 0x4 CALLDATALOAD PUSH2 0x1963 DUP2 PUSH2 0x748 JUMP JUMPDEST PUSH1 0x1 DUP1 PUSH1 0xA0 SHL SUB AND PUSH1 0x0 MSTORE PUSH1 0x15 PUSH1 0x20 MSTORE PUSH2 0x516 PUSH2 0x165F PUSH1 0x40 PUSH1 0x0 KECCAK256 PUSH2 0x3E94 JUMP JUMPDEST POP PUSH4 0x4E487B71 PUSH1 0xE0 SHL PUSH1 0x0 MSTORE PUSH1 0x41 PUSH1 0x4 MSTORE PUSH1 0x24 PUSH1 0x0 REVERT JUMPDEST PUSH1 0x20 DUP2 ADD SWAP1 DUP2 LT PUSH1 0x1 PUSH1 0x1 PUSH1 0x40 SHL SUB DUP3 GT OR PUSH2 0x19B5 JUMPI PUSH1 0x40 MSTORE JUMP JUMPDEST PUSH2 0x19BD PUSH2 0x1983 JUMP JUMPDEST PUSH1 0x40 MSTORE JUMP JUMPDEST PUSH1 0x60 DUP2 ADD SWAP1 DUP2 LT PUSH1 0x1 PUSH1 0x1 PUSH1 0x40 SHL SUB DUP3 GT OR PUSH2 0x19B5 JUMPI PUSH1 0x40 MSTORE JUMP JUMPDEST SWAP1 PUSH1 0x1F DUP1 NOT SWAP2 ADD AND DUP2 ADD SWAP1 DUP2 LT PUSH1 0x1 PUSH1 0x1 PUSH1 0x40 SHL SUB DUP3 GT OR PUSH2 0x19B5 JUMPI PUSH1 0x40 MSTORE JUMP JUMPDEST PUSH1 0x40 MLOAD SWAP1 PUSH2 0x120 DUP3 ADD DUP3 DUP2 LT PUSH1 0x1 PUSH1 0x1 PUSH1 0x40 SHL SUB DUP3 GT OR PUSH2 0x19B5 JUMPI PUSH1 0x40 MSTORE JUMP JUMPDEST PUSH1 0x20 SWAP1 PUSH1 0x1 PUSH1 0x1 PUSH1 0x40 SHL SUB DUP2 GT PUSH2 0x1A3B JUMPI JUMPDEST PUSH1 0x1F ADD PUSH1 0x1F NOT AND ADD SWAP1 JUMP JUMPDEST PUSH2 0x1A43 PUSH2 0x1983 JUMP JUMPDEST PUSH2 0x1A30 JUMP JUMPDEST SWAP3 SWAP2 SWAP3 PUSH2 0x1A54 DUP3 PUSH2 0x1A1E JUMP JUMPDEST SWAP2 PUSH2 0x1A62 PUSH1 0x40 MLOAD SWAP4 DUP5 PUSH2 0x19DD JUMP JUMPDEST DUP3 SWAP5 DUP2 DUP5 MSTORE DUP2 DUP4 ADD GT PUSH2 0xE JUMPI DUP3 DUP2 PUSH1 0x20 SWAP4 DUP5 PUSH1 0x0 SWAP7 ADD CALLDATACOPY ADD ADD MSTORE JUMP JUMPDEST POP CALLVALUE PUSH2 0xE JUMPI PUSH1 0x80 CALLDATASIZE PUSH1 0x3 NOT ADD SLT PUSH2 0xE JUMPI PUSH1 0x4 CALLDATALOAD PUSH2 0x1A9D DUP2 PUSH2 0x748 JUMP JUMPDEST PUSH1 0x24 CALLDATALOAD PUSH2 0x1AA9 DUP2 PUSH2 0x748 JUMP JUMPDEST PUSH1 0x64 CALLDATALOAD SWAP2 PUSH1 0x1 PUSH1 0x1 PUSH1 0x40 SHL SUB DUP4 GT PUSH2 0xE JUMPI CALLDATASIZE PUSH1 0x23 DUP5 ADD SLT ISZERO PUSH2 0xE JUMPI PUSH2 0x1ADD PUSH2 0x7C2 SWAP4 CALLDATASIZE SWAP1 PUSH1 0x24 DUP2 PUSH1 0x4 ADD CALLDATALOAD SWAP2 ADD PUSH2 0x1A48 JUMP JUMPDEST SWAP2 PUSH1 0x44 CALLDATALOAD SWAP2 PUSH2 0x2187 JUMP JUMPDEST POP CALLVALUE PUSH2 0xE JUMPI PUSH1 0x40 CALLDATASIZE PUSH1 0x3 NOT ADD SLT PUSH2 0xE JUMPI PUSH1 0x4 CALLDATALOAD PUSH1 0x0 MSTORE PUSH1 0x14 PUSH1 0x20 MSTORE PUSH1 0x20 PUSH2 0x1B16 PUSH1 0x24 CALLDATALOAD PUSH1 0x40 PUSH1 0x0 KECCAK256 PUSH2 0x2736 JUMP JUMPDEST SWAP1 SLOAD PUSH1 0x40 MLOAD SWAP2 PUSH1 0x3 SHL SHR DUP2 MSTORE RETURN JUMPDEST POP CALLVALUE PUSH2 0xE JUMPI PUSH2 0x1B33 CALLDATASIZE PUSH2 0xB29 JUMP JUMPDEST SWAP1 PUSH2 0x1B3D DUP3 PUSH2 0x3DA1 JUMP JUMPDEST SWAP2 PUSH2 0x1B4B PUSH1 0x40 MLOAD SWAP4 DUP5 PUSH2 0x19DD JUMP JUMPDEST DUP1 DUP4 MSTORE PUSH1 0x1F NOT PUSH2 0x1B5A DUP3 PUSH2 0x3DA1 JUMP JUMPDEST ADD CALLDATASIZE PUSH1 0x20 DUP6 ADD CALLDATACOPY PUSH1 0x0 JUMPDEST DUP2 DUP2 LT PUSH2 0x1B79 JUMPI PUSH1 0x40 MLOAD DUP1 PUSH2 0x516 DUP7 DUP3 PUSH2 0x10DA JUMP JUMPDEST DUP1 PUSH2 0x1B91 PUSH2 0x1B8B PUSH2 0x1BAD SWAP4 DUP6 DUP8 PUSH2 0x2F38 JUMP JUMPDEST CALLDATALOAD PUSH2 0x43EC JUMP JUMPDEST PUSH2 0x1B9B DUP3 DUP8 PUSH2 0x3E72 JUMP JUMPDEST PUSH1 0x1 PUSH1 0x1 PUSH1 0xA0 SHL SUB SWAP1 SWAP2 AND SWAP1 MSTORE PUSH2 0x2EE5 JUMP JUMPDEST PUSH2 0x1B64 JUMP JUMPDEST POP CALLVALUE PUSH2 0xE JUMPI PUSH1 0x40 CALLDATASIZE PUSH1 0x3 NOT ADD SLT PUSH2 0xE JUMPI PUSH1 0x4 CALLDATALOAD PUSH2 0x1BD0 DUP2 PUSH2 0x748 JUMP JUMPDEST PUSH1 0x1 PUSH1 0x1 PUSH1 0xA0 SHL SUB AND PUSH1 0x0 SWAP1 DUP2 MSTORE PUSH1 0x11 PUSH1 0x20 MSTORE PUSH1 0x40 DUP2 KECCAK256 SWAP1 PUSH2 0x516 DUP2 PUSH2 0xA69 PUSH1 0x24 CALLDATALOAD DUP6 PUSH2 0x41A5 JUMP JUMPDEST POP CALLVALUE PUSH2 0xE JUMPI PUSH1 0x20 CALLDATASIZE PUSH1 0x3 NOT ADD SLT PUSH2 0xE JUMPI PUSH1 0x4 CALLDATALOAD PUSH1 0x0 MSTORE PUSH1 0xA PUSH1 0x20 MSTORE PUSH2 0x516 PUSH2 0x1C32 PUSH2 0x1C39 PUSH1 0x4 PUSH1 0x40 PUSH1 0x0 KECCAK256 ADD PUSH1 0x40 MLOAD SWAP3 DUP4 DUP1 SWAP3 PUSH2 0x1FC3 JUMP JUMPDEST SUB DUP3 PUSH2 0x19DD JUMP JUMPDEST PUSH1 0x40 MLOAD SWAP2 DUP3 SWAP2 PUSH1 0x20 DUP4 MSTORE PUSH1 0x20 DUP4 ADD SWAP1 PUSH2 0x5E3 JUMP JUMPDEST POP CALLVALUE PUSH2 0xE JUMPI PUSH1 0x20 CALLDATASIZE PUSH1 0x3 NOT ADD SLT PUSH2 0xE JUMPI PUSH2 0x1C8A PUSH2 0x1C98 PUSH2 0x516 PUSH2 0x1C73 PUSH1 0x4 CALLDATALOAD PUSH2 0x3F76 JUMP JUMPDEST SWAP2 SWAP4 SWAP1 PUSH1 0x40 MLOAD SWAP6 DUP7 SWAP6 PUSH1 0x60 DUP8 MSTORE PUSH1 0x60 DUP8 ADD SWAP1 PUSH2 0xBD3 JUMP JUMPDEST SWAP1 DUP6 DUP3 SUB PUSH1 0x20 DUP8 ADD MSTORE PUSH2 0x5E3 JUMP JUMPDEST SWAP1 DUP4 DUP3 SUB PUSH1 0x40 DUP6 ADD MSTORE PUSH2 0x5E3 JUMP JUMPDEST POP CALLVALUE PUSH2 0xE JUMPI PUSH2 0x1CB5 CALLDATASIZE PUSH2 0xB29 JUMP JUMPDEST SWAP1 PUSH2 0x1CBF DUP3 PUSH2 0x406A JUMP JUMPDEST SWAP2 PUSH1 0x0 JUMPDEST DUP2 DUP2 LT PUSH2 0x1CD8 JUMPI PUSH1 0x40 MLOAD DUP1 PUSH2 0x516 DUP7 DUP3 PUSH2 0x484 JUMP JUMPDEST DUP1 PUSH2 0xE7E PUSH2 0x1CEA PUSH2 0x1CFC SWAP4 DUP6 DUP8 PUSH2 0x2F38 JUMP JUMPDEST CALLDATALOAD PUSH1 0x0 MSTORE PUSH1 0x14 PUSH1 0x20 MSTORE PUSH1 0x40 PUSH1 0x0 KECCAK256 SLOAD SWAP1 JUMP JUMPDEST PUSH2 0x1CC3 JUMP JUMPDEST POP CALLVALUE PUSH2 0xE JUMPI PUSH1 0x0 CALLDATASIZE PUSH1 0x3 NOT ADD SLT PUSH2 0xE JUMPI PUSH1 0x20 PUSH1 0xE SLOAD PUSH1 0x40 MLOAD SWAP1 DUP2 MSTORE RETURN JUMPDEST POP CALLVALUE PUSH2 0xE JUMPI PUSH1 0x40 CALLDATASIZE PUSH1 0x3 NOT ADD SLT PUSH2 0xE JUMPI PUSH1 0x20 PUSH1 0xFF PUSH2 0x1D7D PUSH1 0x4 CALLDATALOAD PUSH2 0x1D45 DUP2 PUSH2 0x748 JUMP JUMPDEST PUSH1 0x24 CALLDATALOAD SWAP1 PUSH2 0x1D52 DUP3 PUSH2 0x748 JUMP JUMPDEST PUSH1 0x1 DUP1 PUSH1 0xA0 SHL SUB AND PUSH1 0x0 MSTORE PUSH1 0x5 DUP5 MSTORE PUSH1 0x40 PUSH1 0x0 KECCAK256 SWAP1 PUSH1 0x1 DUP1 PUSH1 0xA0 SHL SUB AND PUSH1 0x0 MSTORE PUSH1 0x20 MSTORE PUSH1 0x40 PUSH1 0x0 KECCAK256 SWAP1 JUMP JUMPDEST SLOAD AND PUSH1 0x40 MLOAD SWAP1 ISZERO ISZERO DUP2 MSTORE RETURN JUMPDEST POP CALLVALUE PUSH2 0xE JUMPI PUSH1 0x20 CALLDATASIZE PUSH1 0x3 NOT ADD SLT PUSH2 0xE JUMPI PUSH1 0x20 PUSH2 0xA2E PUSH1 0x4 CALLDATALOAD PUSH2 0xE63 DUP2 PUSH2 0x748 JUMP JUMPDEST POP CALLVALUE PUSH2 0xE JUMPI PUSH2 0x1DBB CALLDATASIZE PUSH2 0xB29 JUMP JUMPDEST SWAP1 PUSH2 0x1DC5 DUP3 PUSH2 0x406A JUMP JUMPDEST SWAP2 PUSH1 0x0 JUMPDEST DUP2 DUP2 LT PUSH2 0x1DDE JUMPI PUSH1 0x40 MLOAD DUP1 PUSH2 0x516 DUP7 DUP3 PUSH2 0x484 JUMP JUMPDEST DUP1 PUSH2 0xE7E PUSH2 0x1DF0 PUSH2 0x1DF6 SWAP4 DUP6 DUP8 PUSH2 0x2F38 JUMP JUMPDEST CALLDATALOAD PUSH2 0x409C JUMP JUMPDEST PUSH2 0x1DC9 JUMP JUMPDEST POP CALLVALUE PUSH2 0xE JUMPI PUSH1 0x40 CALLDATASIZE PUSH1 0x3 NOT ADD SLT PUSH2 0xE JUMPI PUSH1 0x4 CALLDATALOAD PUSH2 0x1E19 DUP2 PUSH2 0x748 JUMP JUMPDEST PUSH1 0x1 DUP1 PUSH1 0xA0 SHL SUB AND PUSH1 0x0 MSTORE PUSH1 0x15 PUSH1 0x20 MSTORE PUSH1 0x20 PUSH2 0x1B16 PUSH1 0x24 CALLDATALOAD PUSH1 0x40 PUSH1 0x0 KECCAK256 PUSH2 0x2736 JUMP JUMPDEST POP CALLVALUE PUSH2 0xE JUMPI PUSH2 0x1E4A CALLDATASIZE PUSH2 0x85D JUMP JUMPDEST SWAP2 PUSH2 0x1E54 DUP4 PUSH2 0x406A JUMP JUMPDEST SWAP3 PUSH1 0x0 SWAP1 DUP2 JUMPDEST DUP2 DUP2 LT PUSH2 0x1E6F JUMPI PUSH1 0x40 MLOAD DUP1 PUSH2 0x516 DUP9 DUP3 PUSH2 0x484 JUMP JUMPDEST DUP1 PUSH2 0x965 PUSH2 0x1E81 PUSH2 0x1E9E SWAP4 DUP6 DUP10 PUSH2 0x2F38 JUMP JUMPDEST PUSH1 0x1 PUSH1 0x1 PUSH1 0xA0 SHL SUB DUP8 AND DUP7 MSTORE PUSH1 0x15 PUSH1 0x20 MSTORE PUSH1 0x40 DUP7 KECCAK256 SWAP1 CALLDATALOAD SWAP1 PUSH2 0x2736 JUMP JUMPDEST PUSH2 0x1E5A JUMP JUMPDEST PUSH1 0x1 PUSH1 0x1 PUSH1 0xA0 SHL SUB AND DUP1 ISZERO PUSH2 0x1EC3 JUMPI PUSH1 0x0 MSTORE PUSH1 0x3 PUSH1 0x20 MSTORE PUSH1 0x40 PUSH1 0x0 KECCAK256 SLOAD SWAP1 JUMP JUMPDEST PUSH1 0x40 MLOAD PUSH3 0x461BCD PUSH1 0xE5 SHL DUP2 MSTORE PUSH1 0x20 PUSH1 0x4 DUP3 ADD MSTORE PUSH1 0x29 PUSH1 0x24 DUP3 ADD MSTORE PUSH32 0x4552433732313A2061646472657373207A65726F206973206E6F742061207661 PUSH1 0x44 DUP3 ADD MSTORE PUSH9 0x3634B21037BBB732B9 PUSH1 0xB9 SHL PUSH1 0x64 DUP3 ADD MSTORE PUSH1 0x84 SWAP1 REVERT JUMPDEST ISZERO PUSH2 0x1F21 JUMPI JUMP JUMPDEST PUSH1 0x40 MLOAD PUSH3 0x461BCD PUSH1 0xE5 SHL DUP2 MSTORE PUSH1 0x20 PUSH1 0x4 DUP3 ADD MSTORE PUSH1 0x18 PUSH1 0x24 DUP3 ADD MSTORE PUSH32 0x4552433732313A20696E76616C696420746F6B656E2049440000000000000000 PUSH1 0x44 DUP3 ADD MSTORE PUSH1 0x64 SWAP1 REVERT JUMPDEST PUSH1 0x0 SWAP1 DUP2 MSTORE PUSH1 0x2 PUSH1 0x20 MSTORE PUSH1 0x40 SWAP1 KECCAK256 SLOAD PUSH1 0x1 PUSH1 0x1 PUSH1 0xA0 SHL SUB AND PUSH2 0x634 DUP2 ISZERO ISZERO PUSH2 0x1F1A JUMP JUMPDEST SWAP1 PUSH1 0x1 DUP3 DUP2 SHR SWAP3 AND DUP1 ISZERO PUSH2 0x1FB9 JUMPI JUMPDEST PUSH1 0x20 DUP4 LT EQ PUSH2 0x1FA3 JUMPI JUMP JUMPDEST PUSH4 0x4E487B71 PUSH1 0xE0 SHL PUSH1 0x0 MSTORE PUSH1 0x22 PUSH1 0x4 MSTORE PUSH1 0x24 PUSH1 0x0 REVERT JUMPDEST SWAP2 PUSH1 0x7F AND SWAP2 PUSH2 0x1F98 JUMP JUMPDEST SWAP1 PUSH1 0x0 SWAP3 SWAP2 DUP1 SLOAD SWAP2 PUSH2 0x1FD4 DUP4 PUSH2 0x1F89 JUMP JUMPDEST SWAP2 DUP3 DUP3 MSTORE PUSH1 0x1 SWAP4 DUP5 DUP2 AND SWAP1 DUP2 PUSH1 0x0 EQ PUSH2 0x2036 JUMPI POP PUSH1 0x1 EQ PUSH2 0x1FF6 JUMPI JUMPDEST POP POP POP POP JUMP JUMPDEST SWAP1 SWAP2 SWAP4 SWAP5 POP PUSH1 0x0 MSTORE PUSH1 0x20 SWAP3 DUP4 PUSH1 0x0 KECCAK256 SWAP3 DUP5 PUSH1 0x0 SWAP5 JUMPDEST DUP4 DUP7 LT PUSH2 0x2022 JUMPI POP POP POP POP ADD ADD SWAP1 CODESIZE DUP1 DUP1 DUP1 PUSH2 0x1FF0 JUMP JUMPDEST DUP1 SLOAD DUP6 DUP8 ADD DUP4 ADD MSTORE SWAP5 ADD SWAP4 DUP6 SWAP1 DUP3 ADD PUSH2 0x200B JUMP JUMPDEST SWAP3 SWAP5 POP POP POP PUSH1 0x20 SWAP4 SWAP5 POP PUSH1 0xFF NOT AND DUP4 DUP4 ADD MSTORE ISZERO ISZERO PUSH1 0x5 SHL ADD ADD SWAP1 CODESIZE DUP1 DUP1 DUP1 PUSH2 0x1FF0 JUMP JUMPDEST SWAP1 PUSH2 0x764 PUSH2 0x206D SWAP3 PUSH1 0x40 MLOAD SWAP4 DUP5 DUP1 SWAP3 PUSH2 0x1FC3 JUMP JUMPDEST SUB DUP4 PUSH2 0x19DD JUMP JUMPDEST ISZERO PUSH2 0x207B JUMPI JUMP JUMPDEST PUSH1 0x40 MLOAD PUSH3 0x461BCD PUSH1 0xE5 SHL DUP2 MSTORE PUSH1 0x20 PUSH1 0x4 DUP3 ADD MSTORE PUSH1 0x3E PUSH1 0x24 DUP3 ADD MSTORE PUSH32 0x4552433732313A20617070726F76652063616C6C6572206973206E6F7420746F PUSH1 0x44 DUP3 ADD MSTORE PUSH32 0x6B656E206F776E6572206E6F7220617070726F76656420666F7220616C6C0000 PUSH1 0x64 DUP3 ADD MSTORE PUSH1 0x84 SWAP1 REVERT JUMPDEST PUSH1 0x0 DUP2 DUP2 MSTORE PUSH1 0x2 PUSH1 0x20 MSTORE PUSH1 0x40 SWAP1 KECCAK256 SLOAD PUSH2 0x2109 SWAP1 PUSH1 0x1 PUSH1 0x1 PUSH1 0xA0 SHL SUB AND ISZERO ISZERO PUSH2 0x1F1A JUMP JUMPDEST PUSH1 0x0 SWAP1 DUP2 MSTORE PUSH1 0x4 PUSH1 0x20 MSTORE PUSH1 0x40 SWAP1 KECCAK256 SLOAD PUSH1 0x1 PUSH1 0x1 PUSH1 0xA0 SHL SUB AND SWAP1 JUMP JUMPDEST ISZERO PUSH2 0x212B JUMPI JUMP JUMPDEST PUSH1 0x40 MLOAD PUSH3 0x461BCD PUSH1 0xE5 SHL DUP2 MSTORE PUSH1 0x20 PUSH1 0x4 DUP3 ADD MSTORE PUSH1 0x2E PUSH1 0x24 DUP3 ADD MSTORE PUSH32 0x4552433732313A2063616C6C6572206973206E6F7420746F6B656E206F776E65 PUSH1 0x44 DUP3 ADD MSTORE PUSH14 0x1C881B9BDC88185C1C1C9BDD9959 PUSH1 0x92 SHL PUSH1 0x64 DUP3 ADD MSTORE PUSH1 0x84 SWAP1 REVERT JUMPDEST SWAP2 PUSH2 0x764 SWAP4 SWAP2 PUSH2 0x21AE SWAP4 PUSH2 0x219E PUSH2 0xA05 DUP5 CALLER PUSH2 0x222A JUMP JUMPDEST PUSH2 0x21A9 DUP4 DUP4 DUP4 PUSH2 0x2336 JUMP JUMPDEST PUSH2 0x269E JUMP JUMPDEST PUSH2 0x2206 JUMP JUMPDEST PUSH1 0x80 SWAP1 PUSH1 0x20 DUP2 MSTORE PUSH1 0x32 PUSH1 0x20 DUP3 ADD MSTORE PUSH32 0x4552433732313A207472616E7366657220746F206E6F6E204552433732315265 PUSH1 0x40 DUP3 ADD MSTORE PUSH18 0x31B2B4BB32B91034B6B83632B6B2B73A32B9 PUSH1 0x71 SHL PUSH1 0x60 DUP3 ADD MSTORE ADD SWAP1 JUMP JUMPDEST ISZERO PUSH2 0x220D JUMPI JUMP JUMPDEST PUSH1 0x40 MLOAD PUSH3 0x461BCD PUSH1 0xE5 SHL DUP2 MSTORE DUP1 PUSH2 0x2226 PUSH1 0x4 DUP3 ADD PUSH2 0x21B3 JUMP JUMPDEST SUB SWAP1 REVERT JUMPDEST PUSH1 0x1 PUSH1 0x1 PUSH1 0xA0 SHL SUB DUP1 PUSH2 0x223C DUP5 PUSH2 0x1F66 JUMP JUMPDEST AND SWAP3 DUP2 DUP4 AND SWAP3 DUP5 DUP5 EQ SWAP5 DUP6 ISZERO PUSH2 0x2272 JUMPI JUMPDEST POP POP DUP4 ISZERO PUSH2 0x225C JUMPI JUMPDEST POP POP POP SWAP1 JUMP JUMPDEST PUSH2 0x2268 SWAP2 SWAP3 SWAP4 POP PUSH2 0x20E6 JUMP JUMPDEST AND EQ CODESIZE DUP1 DUP1 PUSH2 0x2256 JUMP JUMPDEST PUSH1 0x0 SWAP1 DUP2 MSTORE PUSH1 0x5 PUSH1 0x20 SWAP1 DUP2 MSTORE PUSH1 0x40 DUP1 DUP4 KECCAK256 PUSH1 0x1 PUSH1 0x1 PUSH1 0xA0 SHL SUB SWAP5 SWAP1 SWAP5 AND DUP4 MSTORE SWAP3 SWAP1 MSTORE KECCAK256 SLOAD PUSH1 0xFF AND SWAP4 POP CODESIZE DUP1 PUSH2 0x224D JUMP JUMPDEST ISZERO PUSH2 0x22A9 JUMPI JUMP JUMPDEST PUSH1 0x40 MLOAD PUSH3 0x461BCD PUSH1 0xE5 SHL DUP2 MSTORE PUSH1 0x20 PUSH1 0x4 DUP3 ADD MSTORE PUSH1 0x24 DUP1 DUP3 ADD MSTORE PUSH32 0x4552433732313A207472616E7366657220746F20746865207A65726F20616464 PUSH1 0x44 DUP3 ADD MSTORE PUSH4 0x72657373 PUSH1 0xE0 SHL PUSH1 0x64 DUP3 ADD MSTORE PUSH1 0x84 SWAP1 REVERT JUMPDEST POP PUSH4 0x4E487B71 PUSH1 0xE0 SHL PUSH1 0x0 MSTORE PUSH1 0x11 PUSH1 0x4 MSTORE PUSH1 0x24 PUSH1 0x0 REVERT JUMPDEST PUSH1 0x0 NOT DUP2 ADD SWAP2 SWAP1 DUP3 GT PUSH2 0x2320 JUMPI JUMP JUMPDEST PUSH2 0x764 PUSH2 0x22FA JUMP JUMPDEST SWAP1 PUSH1 0x1 DUP3 ADD DUP1 SWAP3 GT PUSH2 0x2320 JUMPI JUMP JUMPDEST SWAP1 PUSH2 0x2340 DUP4 PUSH2 0x1F66 JUMP JUMPDEST PUSH1 0x1 PUSH1 0x1 PUSH1 0xA0 SHL SUB DUP4 DUP2 AND SWAP3 SWAP1 SWAP2 DUP3 AND DUP4 SWAP1 SUB PUSH2 0x2424 JUMPI PUSH2 0x239A PUSH2 0x23FD SWAP3 DUP3 AND SWAP5 PUSH2 0x236C DUP7 ISZERO ISZERO PUSH2 0x22A2 JUMP JUMPDEST PUSH2 0x2377 DUP8 DUP5 DUP4 PUSH2 0x30FF JUMP JUMPDEST PUSH2 0x2380 DUP8 PUSH2 0x2477 JUMP JUMPDEST PUSH1 0x1 PUSH1 0x1 PUSH1 0xA0 SHL SUB AND PUSH1 0x0 SWAP1 DUP2 MSTORE PUSH1 0x3 PUSH1 0x20 MSTORE PUSH1 0x40 SWAP1 KECCAK256 SWAP1 JUMP JUMPDEST PUSH2 0x23A4 DUP2 SLOAD PUSH2 0x2311 JUMP JUMPDEST SWAP1 SSTORE PUSH1 0x1 PUSH1 0x1 PUSH1 0xA0 SHL SUB DUP2 AND PUSH1 0x0 SWAP1 DUP2 MSTORE PUSH1 0x3 PUSH1 0x20 MSTORE PUSH1 0x40 SWAP1 KECCAK256 PUSH2 0x23C8 DUP2 SLOAD PUSH2 0x2328 JUMP JUMPDEST SWAP1 SSTORE PUSH2 0x23DE DUP6 PUSH1 0x0 MSTORE PUSH1 0x2 PUSH1 0x20 MSTORE PUSH1 0x40 PUSH1 0x0 KECCAK256 SWAP1 JUMP JUMPDEST DUP1 SLOAD PUSH1 0x1 PUSH1 0x1 PUSH1 0xA0 SHL SUB NOT AND PUSH1 0x1 PUSH1 0x1 PUSH1 0xA0 SHL SUB SWAP1 SWAP3 AND SWAP2 SWAP1 SWAP2 OR SWAP1 SSTORE JUMP JUMPDEST PUSH32 0xDDF252AD1BE2C89B69C2B068FC378DAA952BA7F163C4A11628F55A4DF523B3EF PUSH1 0x0 DUP1 LOG4 JUMP JUMPDEST PUSH1 0x40 MLOAD PUSH3 0x461BCD PUSH1 0xE5 SHL DUP2 MSTORE PUSH1 0x20 PUSH1 0x4 DUP3 ADD MSTORE PUSH1 0x25 PUSH1 0x24 DUP3 ADD MSTORE PUSH32 0x4552433732313A207472616E736665722066726F6D20696E636F727265637420 PUSH1 0x44 DUP3 ADD MSTORE PUSH5 0x37BBB732B9 PUSH1 0xD9 SHL PUSH1 0x64 DUP3 ADD MSTORE PUSH1 0x84 SWAP1 REVERT JUMPDEST PUSH1 0x0 DUP2 DUP2 MSTORE PUSH1 0x4 PUSH1 0x20 MSTORE PUSH1 0x40 DUP2 KECCAK256 DUP1 SLOAD PUSH1 0x1 PUSH1 0x1 PUSH1 0xA0 SHL SUB NOT AND SWAP1 SSTORE PUSH1 0x1 PUSH1 0x1 PUSH1 0xA0 SHL SUB PUSH2 0x24A4 DUP4 PUSH2 0x1F66 JUMP JUMPDEST AND PUSH32 0x8C5BE1E5EBEC7D5BD14F71427D1E84F3DD0314C0F7B2291E5B200AC8C7C3B925 DUP3 DUP1 LOG4 JUMP JUMPDEST PUSH1 0x0 DUP3 DUP2 MSTORE PUSH1 0x4 PUSH1 0x20 MSTORE PUSH1 0x40 SWAP1 KECCAK256 DUP1 SLOAD PUSH1 0x1 PUSH1 0x1 PUSH1 0xA0 SHL SUB NOT AND PUSH1 0x1 PUSH1 0x1 PUSH1 0xA0 SHL SUB DUP4 AND OR SWAP1 SSTORE PUSH1 0x1 PUSH1 0x1 PUSH1 0xA0 SHL SUB DUP1 PUSH2 0x2504 DUP5 PUSH2 0x1F66 JUMP JUMPDEST AND SWAP2 AND SWAP1 PUSH32 0x8C5BE1E5EBEC7D5BD14F71427D1E84F3DD0314C0F7B2291E5B200AC8C7C3B925 PUSH1 0x0 DUP1 LOG4 JUMP JUMPDEST SWAP1 DUP2 PUSH1 0x20 SWAP2 SUB SLT PUSH2 0xE JUMPI MLOAD PUSH2 0x634 DUP2 PUSH2 0x548 JUMP JUMPDEST PUSH2 0x634 SWAP4 SWAP3 PUSH1 0x80 SWAP3 PUSH1 0x1 DUP1 PUSH1 0xA0 SHL SUB AND DUP3 MSTORE PUSH1 0x0 PUSH1 0x20 DUP4 ADD MSTORE PUSH1 0x40 DUP3 ADD MSTORE DUP2 PUSH1 0x60 DUP3 ADD MSTORE ADD SWAP1 PUSH2 0x5E3 JUMP JUMPDEST PUSH1 0x1 PUSH1 0x1 PUSH1 0xA0 SHL SUB SWAP2 DUP3 AND DUP2 MSTORE SWAP2 AND PUSH1 0x20 DUP3 ADD MSTORE PUSH1 0x40 DUP2 ADD SWAP2 SWAP1 SWAP2 MSTORE PUSH1 0x80 PUSH1 0x60 DUP3 ADD DUP2 SWAP1 MSTORE PUSH2 0x634 SWAP3 SWAP2 ADD SWAP1 PUSH2 0x5E3 JUMP JUMPDEST POP PUSH1 0x40 MLOAD RETURNDATASIZE PUSH1 0x0 DUP3 RETURNDATACOPY RETURNDATASIZE SWAP1 REVERT JUMPDEST RETURNDATASIZE ISZERO PUSH2 0x25D8 JUMPI RETURNDATASIZE SWAP1 PUSH2 0x25BE DUP3 PUSH2 0x1A1E JUMP JUMPDEST SWAP2 PUSH2 0x25CC PUSH1 0x40 MLOAD SWAP4 DUP5 PUSH2 0x19DD JUMP JUMPDEST DUP3 MSTORE RETURNDATASIZE PUSH1 0x0 PUSH1 0x20 DUP5 ADD RETURNDATACOPY JUMP JUMPDEST PUSH1 0x60 SWAP1 JUMP JUMPDEST SWAP1 SWAP2 SWAP1 DUP1 EXTCODESIZE ISZERO PUSH2 0x2696 JUMPI PUSH2 0x260F PUSH1 0x20 SWAP2 PUSH1 0x0 SWAP4 PUSH1 0x40 MLOAD SWAP5 DUP6 DUP1 SWAP5 DUP2 SWAP4 PUSH4 0xA85BD01 PUSH1 0xE1 SHL SWAP10 DUP11 DUP5 MSTORE CALLER PUSH1 0x4 DUP6 ADD PUSH2 0x2544 JUMP JUMPDEST SUB SWAP3 PUSH1 0x1 PUSH1 0x1 PUSH1 0xA0 SHL SUB AND GAS CALL PUSH1 0x0 SWAP2 DUP2 PUSH2 0x2666 JUMPI JUMPDEST POP PUSH2 0x2658 JUMPI PUSH2 0x2632 PUSH2 0x25AD JUMP JUMPDEST DUP1 MLOAD SWAP1 DUP2 PUSH2 0x2653 JUMPI PUSH1 0x40 MLOAD PUSH3 0x461BCD PUSH1 0xE5 SHL DUP2 MSTORE DUP1 PUSH2 0x2226 PUSH1 0x4 DUP3 ADD PUSH2 0x21B3 JUMP JUMPDEST PUSH1 0x20 ADD REVERT JUMPDEST PUSH1 0x1 PUSH1 0x1 PUSH1 0xE0 SHL SUB NOT AND EQ SWAP1 JUMP JUMPDEST PUSH2 0x2688 SWAP2 SWAP3 POP PUSH1 0x20 RETURNDATASIZE DUP2 GT PUSH2 0x268F JUMPI JUMPDEST PUSH2 0x2680 DUP2 DUP4 PUSH2 0x19DD JUMP JUMPDEST DUP2 ADD SWAP1 PUSH2 0x252F JUMP JUMPDEST SWAP1 CODESIZE PUSH2 0x2625 JUMP JUMPDEST POP RETURNDATASIZE PUSH2 0x2676 JUMP JUMPDEST POP POP POP PUSH1 0x1 SWAP1 JUMP JUMPDEST SWAP3 SWAP1 SWAP2 SWAP1 DUP3 EXTCODESIZE ISZERO PUSH2 0x26D1 JUMPI PUSH2 0x260F SWAP3 PUSH1 0x20 SWAP3 PUSH1 0x0 PUSH1 0x40 MLOAD DUP1 SWAP7 DUP2 SWAP6 DUP3 SWAP5 PUSH4 0xA85BD01 PUSH1 0xE1 SHL SWAP11 DUP12 DUP6 MSTORE CALLER PUSH1 0x4 DUP7 ADD PUSH2 0x256F JUMP JUMPDEST POP POP POP POP PUSH1 0x1 SWAP1 JUMP JUMPDEST POP PUSH4 0x4E487B71 PUSH1 0xE0 SHL PUSH1 0x0 MSTORE PUSH1 0x32 PUSH1 0x4 MSTORE PUSH1 0x24 PUSH1 0x0 REVERT JUMPDEST PUSH1 0xE SLOAD DUP2 LT ISZERO PUSH2 0x2729 JUMPI JUMPDEST PUSH1 0xE PUSH1 0x0 MSTORE PUSH32 0xBB7B4A454DC3493923482F07822329ED19E8244EFF582CC204F8554C3620C3FD ADD SWAP1 PUSH1 0x0 SWAP1 JUMP JUMPDEST PUSH2 0x2731 PUSH2 0x26DA JUMP JUMPDEST PUSH2 0x26FC JUMP JUMPDEST DUP1 SLOAD DUP3 LT ISZERO PUSH2 0x274F JUMPI JUMPDEST PUSH1 0x0 MSTORE PUSH1 0x20 PUSH1 0x0 KECCAK256 ADD SWAP1 PUSH1 0x0 SWAP1 JUMP JUMPDEST PUSH2 0x2757 PUSH2 0x26DA JUMP JUMPDEST PUSH2 0x2740 JUMP JUMPDEST ISZERO PUSH2 0x2763 JUMPI JUMP JUMPDEST PUSH1 0x40 MLOAD PUSH3 0x461BCD PUSH1 0xE5 SHL DUP2 MSTORE PUSH1 0x20 PUSH1 0x4 DUP3 ADD MSTORE PUSH1 0x5C PUSH1 0x24 DUP3 ADD MSTORE PUSH32 0x4B6174696265683732313A206D696E742074696D65206D757374206265206C65 PUSH1 0x44 DUP3 ADD MSTORE PUSH32 0x7373207468616E20696E69742074696D65202620696E69742074696D65206D75 PUSH1 0x64 DUP3 ADD MSTORE PUSH32 0x7374206265206C657373207468616E206578706972652074696D652E00000000 PUSH1 0x84 DUP3 ADD MSTORE PUSH1 0xA4 SWAP1 REVERT JUMPDEST SWAP1 CALLDATALOAD PUSH1 0x1E NOT DUP3 CALLDATASIZE SUB ADD DUP2 SLT ISZERO PUSH2 0xE JUMPI ADD PUSH1 0x20 DUP2 CALLDATALOAD SWAP2 ADD SWAP2 PUSH1 0x1 PUSH1 0x1 PUSH1 0x40 SHL SUB DUP3 GT PUSH2 0xE JUMPI DUP2 CALLDATASIZE SUB DUP4 SGT PUSH2 0xE JUMPI JUMP JUMPDEST SWAP1 DUP1 PUSH1 0x20 SWAP4 SWAP3 DUP2 DUP5 MSTORE DUP5 DUP5 ADD CALLDATACOPY PUSH1 0x0 DUP3 DUP3 ADD DUP5 ADD MSTORE PUSH1 0x1F ADD PUSH1 0x1F NOT AND ADD ADD SWAP1 JUMP JUMPDEST SWAP1 CALLDATALOAD PUSH1 0x1E NOT DUP3 CALLDATASIZE SUB ADD DUP2 SLT ISZERO PUSH2 0xE JUMPI ADD PUSH1 0x20 DUP2 CALLDATALOAD SWAP2 ADD SWAP2 PUSH1 0x1 PUSH1 0x1 PUSH1 0x40 SHL SUB DUP3 GT PUSH2 0xE JUMPI DUP2 PUSH1 0x5 SHL CALLDATASIZE SUB DUP4 SGT PUSH2 0xE JUMPI JUMP JUMPDEST DUP2 DUP4 MSTORE SWAP1 SWAP2 PUSH1 0x1 PUSH1 0x1 PUSH1 0xFB SHL SUB DUP4 GT PUSH2 0xE JUMPI PUSH1 0x20 SWAP3 PUSH1 0x5 SHL DUP1 SWAP3 DUP5 DUP4 ADD CALLDATACOPY ADD ADD SWAP1 JUMP JUMPDEST SWAP1 CALLDATALOAD PUSH1 0x1E NOT DUP3 CALLDATASIZE SUB ADD DUP2 SLT ISZERO PUSH2 0xE JUMPI ADD PUSH1 0x20 DUP2 CALLDATALOAD SWAP2 ADD SWAP2 PUSH1 0x1 PUSH1 0x1 PUSH1 0x40 SHL SUB DUP3 GT PUSH2 0xE JUMPI DUP2 PUSH1 0x6 SHL CALLDATASIZE SUB DUP4 SGT PUSH2 0xE JUMPI JUMP JUMPDEST PUSH2 0xFFFF DUP2 AND SUB PUSH2 0xE JUMPI JUMP JUMPDEST SWAP2 SWAP1 DUP1 DUP3 MSTORE PUSH1 0x20 DUP1 SWAP3 ADD SWAP3 SWAP2 PUSH1 0x0 SWAP1 JUMPDEST DUP3 DUP3 LT PUSH2 0x28FC JUMPI POP POP POP POP SWAP1 JUMP JUMPDEST SWAP1 SWAP2 SWAP3 SWAP4 PUSH1 0x1 SWAP1 DUP6 CALLDATALOAD PUSH2 0x290E DUP2 PUSH2 0x748 JUMP JUMPDEST DUP3 DUP1 PUSH1 0xA0 SHL SUB AND DUP2 MSTORE PUSH2 0xFFFF DUP4 DUP8 ADD CALLDATALOAD PUSH2 0x2927 DUP2 PUSH2 0x28D2 JUMP JUMPDEST AND DUP2 DUP5 ADD MSTORE PUSH1 0x40 SWAP1 DUP2 ADD SWAP6 ADD SWAP4 SWAP3 ADD SWAP1 PUSH2 0x28EE JUMP JUMPDEST SWAP1 PUSH2 0x29A7 PUSH2 0x634 SWAP3 PUSH1 0x20 DUP2 MSTORE PUSH2 0x2965 PUSH1 0x20 DUP3 ADD PUSH2 0x2958 DUP6 PUSH2 0x759 JUMP JUMPDEST PUSH1 0x1 PUSH1 0x1 PUSH1 0xA0 SHL SUB AND SWAP1 MSTORE JUMP JUMPDEST PUSH1 0x20 DUP4 ADD CALLDATALOAD PUSH1 0x40 DUP3 ADD MSTORE PUSH1 0x40 DUP4 ADD CALLDATALOAD PUSH1 0x60 DUP3 ADD MSTORE PUSH1 0x60 DUP4 ADD CALLDATALOAD PUSH1 0x80 DUP3 ADD MSTORE PUSH2 0x2990 PUSH1 0x80 DUP5 ADD DUP5 PUSH2 0x27F4 JUMP JUMPDEST SWAP3 SWAP1 PUSH2 0x120 SWAP4 DUP5 PUSH1 0xA0 DUP6 ADD MSTORE PUSH2 0x140 DUP5 ADD SWAP2 PUSH2 0x2825 JUMP JUMPDEST SWAP1 PUSH2 0x2A1C PUSH2 0x29EF PUSH2 0x29D2 PUSH2 0x29BE PUSH1 0xA0 DUP9 ADD DUP9 PUSH2 0x27F4 JUMP JUMPDEST PUSH1 0x1F NOT DUP7 DUP9 SUB DUP2 ADD PUSH1 0xC0 DUP9 ADD MSTORE SWAP7 SWAP2 PUSH2 0x2825 JUMP JUMPDEST PUSH2 0x29DF PUSH1 0xC0 DUP9 ADD DUP9 PUSH2 0x2846 JUMP JUMPDEST SWAP1 DUP7 DUP7 DUP5 SUB ADD PUSH1 0xE0 DUP8 ADD MSTORE PUSH2 0x287A JUMP JUMPDEST SWAP5 PUSH2 0x2A13 PUSH2 0x2A00 PUSH1 0xE0 DUP4 ADD DUP4 PUSH2 0x2846 JUMP JUMPDEST PUSH2 0x100 SWAP9 SWAP2 DUP8 DUP8 DUP5 SUB ADD DUP11 DUP9 ADD MSTORE PUSH2 0x287A JUMP JUMPDEST SWAP6 DUP2 ADD SWAP1 PUSH2 0x289E JUMP JUMPDEST SWAP4 SWAP1 SWAP3 DUP3 DUP7 SUB ADD SWAP2 ADD MSTORE PUSH2 0x28DE JUMP JUMPDEST PUSH1 0x20 DUP2 ADD CALLDATALOAD PUSH2 0xE10 TIMESTAMP ADD DUP1 TIMESTAMP GT PUSH2 0x2B21 JUMPI JUMPDEST DUP2 LT DUP1 PUSH2 0x2AFE JUMPI JUMPDEST ISZERO PUSH2 0x2A9C JUMPI PUSH2 0x2A64 SWAP1 PUSH1 0x40 DUP4 ADD CALLDATALOAD DUP1 SWAP2 GT ISZERO SWAP1 DUP2 PUSH2 0x2A8D JUMPI JUMPDEST POP PUSH2 0x275C JUMP JUMPDEST PUSH1 0x40 MLOAD PUSH2 0x2A87 DUP2 PUSH2 0x2A79 PUSH1 0x20 DUP3 ADD SWAP5 DUP6 PUSH2 0x293C JUMP JUMPDEST SUB PUSH1 0x1F NOT DUP2 ADD DUP4 MSTORE DUP3 PUSH2 0x19DD JUMP JUMPDEST MLOAD SWAP1 KECCAK256 SWAP1 JUMP JUMPDEST SWAP1 POP PUSH1 0x60 DUP4 ADD CALLDATALOAD LT ISZERO CODESIZE PUSH2 0x2A5E JUMP JUMPDEST PUSH1 0x40 MLOAD PUSH3 0x461BCD PUSH1 0xE5 SHL DUP2 MSTORE PUSH1 0x20 PUSH1 0x4 DUP3 ADD MSTORE PUSH1 0x34 PUSH1 0x24 DUP3 ADD MSTORE PUSH32 0x4B6174696265683732313A206D6F7265207468616E206F6E6520686F7572206D PUSH1 0x44 DUP3 ADD MSTORE PUSH20 0x34B73A103A34B6B2903234B33332B932B731B297 PUSH1 0x61 SHL PUSH1 0x64 DUP3 ADD MSTORE PUSH1 0x84 SWAP1 REVERT JUMPDEST POP PUSH2 0xE0F NOT TIMESTAMP ADD TIMESTAMP DUP2 GT PUSH2 0x2B14 JUMPI JUMPDEST DUP2 GT PUSH2 0x2A45 JUMP JUMPDEST PUSH2 0x2B1C PUSH2 0x22FA JUMP JUMPDEST PUSH2 0x2B0D JUMP JUMPDEST PUSH2 0x2B29 PUSH2 0x22FA JUMP JUMPDEST PUSH2 0x2A3D JUMP JUMPDEST CALLDATALOAD PUSH2 0x634 DUP2 PUSH2 0x748 JUMP JUMPDEST ISZERO PUSH2 0x2B3F JUMPI JUMP JUMPDEST PUSH1 0x40 MLOAD PUSH3 0x461BCD PUSH1 0xE5 SHL DUP2 MSTORE PUSH1 0x20 PUSH1 0x4 DUP3 ADD MSTORE PUSH1 0x1D PUSH1 0x24 DUP3 ADD MSTORE PUSH32 0x4B6174696265683732313A20496E76616C6964207369676E6174757265000000 PUSH1 0x44 DUP3 ADD MSTORE PUSH1 0x64 SWAP1 REVERT JUMPDEST SWAP1 CALLDATALOAD SWAP1 PUSH1 0x1E NOT DUP2 CALLDATASIZE SUB ADD DUP3 SLT ISZERO PUSH2 0xE JUMPI ADD DUP1 CALLDATALOAD SWAP1 PUSH1 0x1 PUSH1 0x1 PUSH1 0x40 SHL SUB DUP3 GT PUSH2 0xE JUMPI PUSH1 0x20 ADD SWAP2 DUP2 CALLDATASIZE SUB DUP4 SGT PUSH2 0xE JUMPI JUMP JUMPDEST SWAP1 CALLDATALOAD SWAP1 PUSH1 0x1E NOT DUP2 CALLDATASIZE SUB ADD DUP3 SLT ISZERO PUSH2 0xE JUMPI ADD DUP1 CALLDATALOAD SWAP1 PUSH1 0x1 PUSH1 0x1 PUSH1 0x40 SHL SUB DUP3 GT PUSH2 0xE JUMPI PUSH1 0x20 ADD SWAP2 DUP2 PUSH1 0x5 SHL CALLDATASIZE SUB DUP4 SGT PUSH2 0xE JUMPI JUMP JUMPDEST SWAP4 SWAP5 SWAP3 SWAP5 PUSH1 0x40 MLOAD SWAP6 PUSH1 0x20 SWAP7 DUP8 DUP2 ADD SWAP1 DUP6 DUP6 DUP4 CALLDATACOPY PUSH2 0x2C29 PUSH1 0x2C DUP3 DUP9 DUP2 ADD PUSH12 0x39B0B6B0B7103BB4B639B7B7 PUSH1 0xA1 SHL DUP14 DUP3 ADD MSTORE SUB PUSH1 0xC DUP2 ADD DUP5 MSTORE ADD DUP3 PUSH2 0x19DD JUMP JUMPDEST MLOAD SWAP1 KECCAK256 SWAP6 DUP1 CALLDATALOAD PUSH2 0x2C38 DUP2 PUSH2 0x748 JUMP JUMPDEST PUSH2 0x2C41 DUP3 PUSH2 0x2A2B JUMP JUMPDEST PUSH1 0x40 MLOAD DUP11 DUP2 ADD SWAP2 PUSH32 0x19457468657265756D205369676E6564204D6573736167653A0A333200000000 DUP4 MSTORE PUSH1 0x3C DUP3 ADD MSTORE PUSH1 0x3C DUP2 MSTORE PUSH2 0x2C7D DUP2 PUSH2 0x19C2 JUMP JUMPDEST MLOAD SWAP1 KECCAK256 PUSH2 0x2C8B CALLDATASIZE DUP9 DUP9 PUSH2 0x1A48 JUMP JUMPDEST PUSH1 0x41 DUP2 MLOAD SUB PUSH2 0x2D5F JUMPI DUP1 DUP12 ADD MLOAD PUSH1 0x40 DUP1 DUP4 ADD MLOAD PUSH1 0x60 SWAP4 DUP5 ADD MLOAD DUP3 MLOAD SWAP6 DUP7 MSTORE PUSH1 0x0 SWAP1 DUP2 BYTE PUSH1 0x20 DUP8 ADD MSTORE SWAP2 DUP6 ADD SWAP3 SWAP1 SWAP3 MSTORE SWAP2 DUP4 ADD MSTORE DUP1 DUP1 MSTORE SWAP9 SWAP10 SWAP8 SWAP9 PUSH2 0x764 SWAP9 PUSH2 0x2D4C SWAP7 SWAP6 SWAP5 PUSH2 0x2D46 SWAP5 PUSH2 0x2D3F SWAP5 SWAP2 SWAP4 PUSH2 0x2D02 SWAP4 SWAP2 SWAP3 PUSH1 0x80 SWAP1 PUSH1 0x1 GAS STATICCALL ISZERO PUSH2 0x2D52 JUMPI JUMPDEST PUSH1 0x0 MLOAD PUSH1 0x1 PUSH1 0x1 PUSH1 0xA0 SHL SUB SWAP1 DUP2 AND SWAP2 AND EQ PUSH2 0x2B38 JUMP JUMPDEST PUSH2 0x2D14 DUP12 PUSH2 0x2D0F DUP4 PUSH2 0x2B2E JUMP JUMPDEST PUSH2 0x2DA4 JUMP JUMPDEST PUSH2 0x2D2B DUP12 PUSH2 0x2D25 PUSH1 0x80 DUP5 ADD DUP5 PUSH2 0x2B84 JUMP JUMPDEST SWAP1 PUSH2 0x33C4 JUMP JUMPDEST PUSH2 0x2D35 DUP2 DUP13 PUSH2 0x3957 JUMP JUMPDEST PUSH1 0xE0 DUP2 ADD SWAP1 PUSH2 0x2BB6 JUMP JUMPDEST SWAP1 DUP11 PUSH2 0x3CCA JUMP JUMPDEST DUP8 PUSH2 0x3AF1 JUMP JUMPDEST DUP5 PUSH2 0x3BB5 JUMP JUMPDEST PUSH2 0x2D5A PUSH2 0x25A0 JUMP JUMPDEST PUSH2 0x2CEC JUMP JUMPDEST PUSH1 0x40 MLOAD PUSH3 0x461BCD PUSH1 0xE5 SHL DUP2 MSTORE PUSH1 0x4 DUP2 ADD DUP13 SWAP1 MSTORE PUSH1 0x18 PUSH1 0x24 DUP3 ADD MSTORE PUSH32 0x696E76616C6964207369676E6174757265206C656E6774680000000000000000 PUSH1 0x44 DUP3 ADD MSTORE PUSH1 0x64 SWAP1 REVERT JUMPDEST SWAP1 PUSH1 0x40 MLOAD PUSH2 0x2DB1 DUP2 PUSH2 0x199A JUMP JUMPDEST PUSH1 0x0 DUP2 MSTORE PUSH1 0x1 PUSH1 0x1 PUSH1 0xA0 SHL SUB DUP4 AND SWAP2 DUP3 ISZERO PUSH2 0x2EA1 JUMPI PUSH1 0x0 DUP2 DUP2 MSTORE PUSH1 0x2 PUSH1 0x20 MSTORE PUSH1 0x40 SWAP1 KECCAK256 SLOAD PUSH1 0x1 PUSH1 0x1 PUSH1 0xA0 SHL SUB AND PUSH2 0x2E5C JUMPI DUP4 DUP2 PUSH2 0x21AE SWAP5 PUSH2 0x2DF5 DUP3 PUSH2 0x764 SWAP9 PUSH2 0x30D4 JUMP JUMPDEST PUSH1 0x1 PUSH1 0x1 PUSH1 0xA0 SHL SUB DUP4 AND PUSH1 0x0 SWAP1 DUP2 MSTORE PUSH1 0x3 PUSH1 0x20 MSTORE PUSH1 0x40 SWAP1 KECCAK256 PUSH2 0x2E17 DUP2 SLOAD PUSH2 0x2328 JUMP JUMPDEST SWAP1 SSTORE PUSH2 0x2E31 DUP4 PUSH2 0x23DE DUP5 PUSH1 0x0 MSTORE PUSH1 0x2 PUSH1 0x20 MSTORE PUSH1 0x40 PUSH1 0x0 KECCAK256 SWAP1 JUMP JUMPDEST PUSH1 0x0 PUSH32 0xDDF252AD1BE2C89B69C2B068FC378DAA952BA7F163C4A11628F55A4DF523B3EF DUP2 DUP1 LOG4 PUSH2 0x25DD JUMP JUMPDEST PUSH1 0x40 MLOAD PUSH3 0x461BCD PUSH1 0xE5 SHL DUP2 MSTORE PUSH1 0x20 PUSH1 0x4 DUP3 ADD MSTORE PUSH1 0x1C PUSH1 0x24 DUP3 ADD MSTORE PUSH32 0x4552433732313A20746F6B656E20616C7265616479206D696E74656400000000 PUSH1 0x44 DUP3 ADD MSTORE PUSH1 0x64 SWAP1 REVERT JUMPDEST PUSH1 0x64 PUSH1 0x40 MLOAD PUSH3 0x461BCD PUSH1 0xE5 SHL DUP2 MSTORE PUSH1 0x20 PUSH1 0x4 DUP3 ADD MSTORE PUSH1 0x20 PUSH1 0x24 DUP3 ADD MSTORE PUSH32 0x4552433732313A206D696E7420746F20746865207A65726F2061646472657373 PUSH1 0x44 DUP3 ADD MSTORE REVERT JUMPDEST PUSH1 0x1 SWAP1 PUSH1 0x0 NOT DUP2 EQ PUSH2 0x2EF5 JUMPI ADD SWAP1 JUMP JUMPDEST PUSH2 0x2EFD PUSH2 0x22FA JUMP JUMPDEST ADD SWAP1 JUMP JUMPDEST PUSH1 0x40 SWAP2 PUSH1 0x2 LT ISZERO PUSH2 0x2F10 JUMPI ADD SWAP1 JUMP JUMPDEST PUSH2 0x2EFD PUSH2 0x26DA JUMP JUMPDEST SWAP1 ISZERO PUSH2 0x2F21 JUMPI SWAP1 JUMP JUMPDEST PUSH2 0x634 PUSH2 0x26DA JUMP JUMPDEST PUSH1 0x20 SWAP2 PUSH1 0x1 LT ISZERO PUSH2 0x2F10 JUMPI ADD SWAP1 JUMP JUMPDEST SWAP2 SWAP1 DUP2 LT ISZERO PUSH2 0x2F49 JUMPI JUMPDEST PUSH1 0x5 SHL ADD SWAP1 JUMP JUMPDEST PUSH2 0x2F51 PUSH2 0x26DA JUMP JUMPDEST PUSH2 0x2F42 JUMP JUMPDEST PUSH1 0x1 PUSH1 0x1 PUSH1 0xA0 SHL SUB DUP2 AND DUP1 ISZERO SWAP3 SWAP2 DUP4 ISZERO DUP5 DUP2 PUSH2 0x30CC JUMPI JUMPDEST ISZERO PUSH2 0x3078 JUMPI PUSH2 0x764 SWAP5 ISZERO PUSH2 0x2F8C JUMPI POP POP POP PUSH2 0x2F87 DUP2 PUSH2 0x323A JUMP JUMPDEST PUSH2 0x32AE JUMP JUMPDEST PUSH2 0x2F98 JUMPI JUMPDEST POP POP PUSH2 0x32AE JUMP JUMPDEST DUP1 PUSH2 0x3001 PUSH2 0x2FA8 PUSH2 0x3010 SWAP4 PUSH2 0x1EA3 JUMP JUMPDEST PUSH1 0x0 NOT DUP2 ADD SWAP3 SWAP1 DUP4 GT PUSH2 0x306B JUMPI JUMPDEST PUSH1 0x0 SWAP5 DUP7 DUP7 MSTORE PUSH1 0x7 PUSH1 0x20 MSTORE PUSH1 0x40 DUP7 KECCAK256 SLOAD SWAP1 DUP5 DUP3 SUB PUSH2 0x3018 JUMPI JUMPDEST POP POP DUP5 PUSH2 0x2FE6 DUP8 PUSH1 0x0 MSTORE PUSH1 0x7 PUSH1 0x20 MSTORE PUSH1 0x40 PUSH1 0x0 KECCAK256 SWAP1 JUMP JUMPDEST SSTORE PUSH1 0x1 PUSH1 0x1 PUSH1 0xA0 SHL SUB AND PUSH1 0x0 SWAP1 DUP2 MSTORE PUSH1 0x6 PUSH1 0x20 MSTORE PUSH1 0x40 SWAP1 KECCAK256 SWAP1 JUMP JUMPDEST SWAP1 PUSH1 0x0 MSTORE PUSH1 0x20 MSTORE PUSH1 0x40 PUSH1 0x0 KECCAK256 SWAP1 JUMP JUMPDEST SSTORE CODESIZE DUP1 PUSH2 0x2F91 JUMP JUMPDEST DUP7 MSTORE PUSH1 0x6 PUSH1 0x20 MSTORE PUSH1 0x40 DUP7 KECCAK256 DUP5 DUP8 MSTORE PUSH1 0x20 MSTORE PUSH2 0x3063 PUSH1 0x40 DUP8 KECCAK256 SLOAD DUP1 PUSH2 0x3052 DUP5 PUSH2 0x3001 DUP8 PUSH1 0x1 DUP1 PUSH1 0xA0 SHL SUB AND PUSH1 0x0 MSTORE PUSH1 0x6 PUSH1 0x20 MSTORE PUSH1 0x40 PUSH1 0x0 KECCAK256 SWAP1 JUMP JUMPDEST SSTORE PUSH1 0x0 MSTORE PUSH1 0x7 PUSH1 0x20 MSTORE PUSH1 0x40 PUSH1 0x0 KECCAK256 SWAP1 JUMP JUMPDEST SSTORE CODESIZE DUP1 PUSH2 0x2FCF JUMP JUMPDEST PUSH2 0x3073 PUSH2 0x22FA JUMP JUMPDEST PUSH2 0x2FB6 JUMP JUMPDEST PUSH1 0x40 MLOAD PUSH3 0x461BCD PUSH1 0xE5 SHL DUP2 MSTORE PUSH1 0x20 PUSH1 0x4 DUP3 ADD MSTORE PUSH1 0x26 PUSH1 0x24 DUP3 ADD MSTORE PUSH32 0x746F6B656E732063616E6E6F74206265207472616E736665726564206F6E2074 PUSH1 0x44 DUP3 ADD MSTORE PUSH6 0x195CDD1B995D PUSH1 0xD2 SHL PUSH1 0x64 DUP3 ADD MSTORE PUSH1 0x84 SWAP1 REVERT JUMPDEST POP PUSH1 0x1 PUSH2 0x2F6D JUMP JUMPDEST SWAP1 PUSH2 0x30DE DUP2 PUSH2 0x323A JUMP JUMPDEST PUSH1 0x1 PUSH1 0x1 PUSH1 0xA0 SHL SUB DUP3 AND PUSH2 0x30F6 JUMPI PUSH2 0x764 SWAP2 POP PUSH2 0x32AE JUMP JUMPDEST PUSH2 0x764 SWAP2 PUSH2 0x3202 JUMP JUMPDEST SWAP1 SWAP2 SWAP1 PUSH1 0x1 PUSH1 0x1 PUSH1 0xA0 SHL SUB DUP1 DUP3 AND SWAP2 DUP3 ISZERO DUP1 DUP1 ISZERO PUSH2 0x31F8 JUMPI JUMPDEST ISZERO PUSH2 0x3078 JUMPI ISZERO PUSH2 0x3148 JUMPI POP PUSH2 0x312C DUP4 PUSH2 0x323A JUMP JUMPDEST DUP4 AND DUP1 PUSH2 0x313F JUMPI POP POP PUSH2 0x764 SWAP2 POP PUSH2 0x32AE JUMP JUMPDEST SUB PUSH2 0x30F6 JUMPI POP POP JUMP JUMPDEST DUP2 DUP6 AND DUP4 SUB PUSH2 0x3158 JUMPI JUMPDEST POP PUSH2 0x312C JUMP JUMPDEST PUSH2 0x31A2 PUSH2 0x3164 DUP3 PUSH2 0x1EA3 JUMP JUMPDEST PUSH1 0x0 NOT DUP2 ADD SWAP1 DUP2 GT PUSH2 0x31EB JUMPI JUMPDEST PUSH2 0x3001 PUSH1 0x0 SWAP4 DUP8 DUP6 MSTORE PUSH1 0x7 PUSH1 0x20 MSTORE PUSH1 0x40 DUP6 KECCAK256 SLOAD DUP4 DUP2 SUB PUSH2 0x31A9 JUMPI JUMPDEST POP DUP5 PUSH2 0x2FE6 DUP10 PUSH1 0x0 MSTORE PUSH1 0x7 PUSH1 0x20 MSTORE PUSH1 0x40 PUSH1 0x0 KECCAK256 SWAP1 JUMP JUMPDEST SSTORE CODESIZE PUSH2 0x3152 JUMP JUMPDEST DUP8 DUP7 MSTORE PUSH1 0x6 PUSH1 0x20 MSTORE PUSH1 0x40 DUP7 KECCAK256 DUP5 DUP8 MSTORE PUSH1 0x20 MSTORE PUSH2 0x31E4 PUSH1 0x40 DUP8 KECCAK256 SLOAD DUP1 PUSH2 0x3052 DUP5 PUSH2 0x3001 DUP8 PUSH1 0x1 DUP1 PUSH1 0xA0 SHL SUB AND PUSH1 0x0 MSTORE PUSH1 0x6 PUSH1 0x20 MSTORE PUSH1 0x40 PUSH1 0x0 KECCAK256 SWAP1 JUMP JUMPDEST SSTORE CODESIZE PUSH2 0x318C JUMP JUMPDEST PUSH2 0x31F3 PUSH2 0x22FA JUMP JUMPDEST PUSH2 0x3171 JUMP JUMPDEST POP DUP3 DUP7 AND ISZERO PUSH2 0x3118 JUMP JUMPDEST PUSH1 0x40 SWAP1 PUSH2 0x320E DUP2 PUSH2 0x1EA3 JUMP JUMPDEST SWAP3 PUSH1 0x0 SWAP2 PUSH1 0x1 DUP1 PUSH1 0xA0 SHL SUB AND DUP3 MSTORE PUSH1 0x6 PUSH1 0x20 MSTORE DUP3 DUP3 KECCAK256 DUP5 DUP4 MSTORE PUSH1 0x20 MSTORE DUP1 DUP4 DUP4 KECCAK256 SSTORE DUP2 MSTORE PUSH1 0x7 PUSH1 0x20 MSTORE KECCAK256 SSTORE JUMP JUMPDEST PUSH1 0x8 SLOAD DUP2 PUSH1 0x0 MSTORE PUSH1 0x9 PUSH1 0x20 MSTORE DUP1 PUSH1 0x40 PUSH1 0x0 KECCAK256 SSTORE PUSH1 0x1 PUSH1 0x40 SHL DUP2 LT ISZERO PUSH2 0x32A1 JUMPI JUMPDEST PUSH1 0x1 DUP2 ADD DUP1 PUSH1 0x8 SSTORE DUP2 LT ISZERO PUSH2 0x3294 JUMPI JUMPDEST PUSH1 0x8 PUSH1 0x0 MSTORE PUSH32 0xF3F7A9FE364FAAB93B216DA50A3214154F22A0A2B415B23A84C8169E8B636EE3 ADD SSTORE JUMP JUMPDEST PUSH2 0x329C PUSH2 0x26DA JUMP JUMPDEST PUSH2 0x326A JUMP JUMPDEST PUSH2 0x32A9 PUSH2 0x1983 JUMP JUMPDEST PUSH2 0x325A JUMP JUMPDEST PUSH1 0x8 DUP1 SLOAD PUSH1 0x0 NOT SWAP3 SWAP1 DUP4 DUP2 ADD DUP2 DUP2 GT PUSH2 0x33B7 JUMPI JUMPDEST PUSH2 0x335E PUSH1 0x0 SWAP4 DUP5 SWAP3 DUP2 DUP5 MSTORE PUSH1 0x9 PUSH1 0x20 MSTORE DUP5 PUSH1 0x40 DUP6 KECCAK256 SLOAD SWAP2 LT ISZERO PUSH2 0x33AA JUMPI JUMPDEST DUP7 DUP5 MSTORE PUSH2 0x334D PUSH32 0xF3F7A9FE364FAAB93B216DA50A3214154F22A0A2B415B23A84C8169E8B636EE2 SWAP6 DUP7 DUP2 ADD SLOAD SWAP1 DUP4 LT ISZERO PUSH2 0x339D JUMPI JUMPDEST DUP9 DUP7 MSTORE DUP1 DUP4 PUSH32 0xF3F7A9FE364FAAB93B216DA50A3214154F22A0A2B415B23A84C8169E8B636EE3 ADD SSTORE PUSH1 0x0 MSTORE PUSH1 0x9 PUSH1 0x20 MSTORE PUSH1 0x40 PUSH1 0x0 KECCAK256 SWAP1 JUMP JUMPDEST SSTORE PUSH1 0x0 MSTORE PUSH1 0x9 PUSH1 0x20 MSTORE PUSH1 0x40 PUSH1 0x0 KECCAK256 SWAP1 JUMP JUMPDEST SSTORE DUP3 SLOAD SWAP4 DUP5 ISZERO PUSH2 0x3389 JUMPI DUP5 ADD SWAP4 DUP1 DUP6 LT ISZERO PUSH2 0x337C JUMPI JUMPDEST DUP4 DUP4 MSTORE ADD SSTORE SSTORE JUMP JUMPDEST PUSH2 0x3384 PUSH2 0x26DA JUMP JUMPDEST PUSH2 0x3374 JUMP JUMPDEST PUSH4 0x4E487B71 PUSH1 0xE0 SHL DUP4 MSTORE PUSH1 0x31 PUSH1 0x4 MSTORE PUSH1 0x24 DUP4 REVERT JUMPDEST PUSH2 0x33A5 PUSH2 0x26DA JUMP JUMPDEST PUSH2 0x3315 JUMP JUMPDEST PUSH2 0x33B2 PUSH2 0x26DA JUMP JUMPDEST PUSH2 0x32E0 JUMP JUMPDEST PUSH2 0x33BF PUSH2 0x22FA JUMP JUMPDEST PUSH2 0x32C2 JUMP JUMPDEST PUSH2 0x33ED SWAP2 PUSH1 0x40 MLOAD SWAP3 DUP4 SWAP2 PUSH1 0x20 SWAP5 DUP2 DUP7 SWAP3 DUP4 DUP4 ADD SWAP7 DUP8 CALLDATACOPY DUP2 ADD PUSH1 0x0 DUP4 DUP3 ADD MSTORE SUB DUP1 DUP5 MSTORE ADD DUP3 PUSH2 0x19DD JUMP JUMPDEST MLOAD SWAP1 KECCAK256 DUP1 PUSH1 0x0 MSTORE PUSH1 0xB DUP3 MSTORE PUSH1 0x40 PUSH1 0x0 KECCAK256 SLOAD PUSH2 0x3412 JUMPI SWAP1 PUSH1 0xB SWAP2 PUSH1 0x0 MSTORE MSTORE PUSH1 0x40 PUSH1 0x0 KECCAK256 SSTORE JUMP JUMPDEST PUSH1 0x40 MLOAD PUSH3 0x461BCD PUSH1 0xE5 SHL DUP2 MSTORE PUSH1 0x4 DUP2 ADD DUP4 SWAP1 MSTORE PUSH1 0x23 PUSH1 0x24 DUP3 ADD MSTORE PUSH32 0x4461746153746F726167653A20757269207265676973746572656420616C7265 PUSH1 0x44 DUP3 ADD MSTORE PUSH3 0x616479 PUSH1 0xE8 SHL PUSH1 0x64 DUP3 ADD MSTORE PUSH1 0x84 SWAP1 REVERT JUMPDEST DUP2 DUP2 LT PUSH2 0x346E JUMPI POP POP JUMP JUMPDEST PUSH1 0x0 DUP2 SSTORE PUSH1 0x1 ADD PUSH2 0x3463 JUMP JUMPDEST SWAP2 SWAP1 PUSH1 0x1F DUP2 GT PUSH2 0x3489 JUMPI POP POP POP JUMP JUMPDEST PUSH2 0x764 SWAP3 PUSH1 0x0 MSTORE PUSH1 0x20 PUSH1 0x0 KECCAK256 SWAP1 PUSH1 0x20 PUSH1 0x1F DUP5 ADD PUSH1 0x5 SHR DUP4 ADD SWAP4 LT PUSH2 0x34B5 JUMPI JUMPDEST PUSH1 0x1F ADD PUSH1 0x5 SHR ADD SWAP1 PUSH2 0x3463 JUMP JUMPDEST SWAP1 SWAP2 POP DUP2 SWAP1 PUSH2 0x34A8 JUMP JUMPDEST PUSH1 0x4 PUSH32 0x766269423061476C7A4947356C64486476636D7375496E300000000000000000 SWAP2 PUSH1 0x0 SWAP1 DUP2 MSTORE PUSH1 0x20 SWAP1 PUSH1 0xA DUP3 MSTORE DUP3 PUSH1 0x40 DUP3 KECCAK256 PUSH1 0xD DUP5 MSTORE DUP3 PUSH1 0x40 DUP2 KECCAK256 PUSH2 0x3507 DUP2 SLOAD PUSH2 0x1F89 JUMP JUMPDEST DUP1 PUSH2 0x35E7 JUMPI JUMPDEST POP POP POP ADD PUSH2 0x351B DUP2 SLOAD PUSH2 0x1F89 JUMP JUMPDEST PUSH1 0x1F DUP2 GT PUSH2 0x35C6 JUMPI JUMPDEST POP PUSH2 0x131 DUP2 SSTORE DUP2 MSTORE KECCAK256 PUSH32 0x646174613A6170706C69636174696F6E2F6A736F6E3B6261736536342C65794A DUP2 SSTORE PUSH32 0x755957316C496A6F67496C526F61584D67644739725A57346761584D67596E56 PUSH1 0x1 DUP3 ADD SSTORE PUSH32 0x79626D566B4C694973496D526C63324E796158423061573975496A6F67496C52 PUSH1 0x2 DUP3 ADD SSTORE PUSH32 0x766132567549476C7A494735766443426A623278735A574E3061574A735A5342 PUSH1 0x3 DUP3 ADD SSTORE ADD SSTORE JUMP JUMPDEST PUSH2 0x35E1 SWAP1 DUP3 DUP5 MSTORE PUSH1 0x5 PUSH1 0x1F DUP7 DUP7 KECCAK256 SWAP3 ADD DUP2 SHR DUP3 ADD SWAP2 ADD PUSH2 0x3463 JUMP JUMPDEST CODESIZE PUSH2 0x3524 JUMP JUMPDEST PUSH1 0x1F DUP2 GT PUSH1 0x1 EQ PUSH2 0x35FD JUMPI POP SSTORE JUMPDEST DUP3 CODESIZE DUP1 PUSH2 0x350D JUMP JUMPDEST DUP2 DUP4 MSTORE DUP7 DUP4 KECCAK256 PUSH2 0x3618 SWAP2 PUSH1 0x1F ADD PUSH1 0x5 SHR DUP2 ADD SWAP1 PUSH1 0x1 ADD PUSH2 0x3463 JUMP JUMPDEST DUP2 DUP7 DUP2 KECCAK256 SWAP2 SSTORE SSTORE PUSH2 0x35F5 JUMP JUMPDEST SWAP1 SWAP3 SWAP2 PUSH1 0x1 PUSH1 0x1 PUSH1 0x40 SHL SUB DUP2 GT PUSH2 0x36EC JUMPI JUMPDEST PUSH2 0x364A DUP2 PUSH2 0x3644 DUP5 SLOAD PUSH2 0x1F89 JUMP JUMPDEST DUP5 PUSH2 0x347A JUMP JUMPDEST PUSH1 0x0 PUSH1 0x1F DUP3 GT PUSH1 0x1 EQ PUSH2 0x3684 JUMPI DUP2 SWAP3 SWAP4 SWAP5 PUSH1 0x0 SWAP3 PUSH2 0x3679 JUMPI JUMPDEST POP POP DUP2 PUSH1 0x1 SHL SWAP2 PUSH1 0x0 NOT SWAP1 PUSH1 0x3 SHL SHR NOT AND OR SWAP1 SSTORE JUMP JUMPDEST ADD CALLDATALOAD SWAP1 POP CODESIZE DUP1 PUSH2 0x3663 JUMP JUMPDEST PUSH1 0x1F NOT DUP3 AND SWAP5 PUSH2 0x3699 DUP5 PUSH1 0x0 MSTORE PUSH1 0x20 PUSH1 0x0 KECCAK256 SWAP1 JUMP JUMPDEST SWAP2 DUP1 JUMPDEST DUP8 DUP2 LT PUSH2 0x36D4 JUMPI POP DUP4 PUSH1 0x1 SWAP6 SWAP7 SWAP8 LT PUSH2 0x36BA JUMPI JUMPDEST POP POP POP DUP2 SHL ADD SWAP1 SSTORE JUMP JUMPDEST ADD CALLDATALOAD PUSH1 0x0 NOT PUSH1 0x3 DUP5 SWAP1 SHL PUSH1 0xF8 AND SHR NOT AND SWAP1 SSTORE CODESIZE DUP1 DUP1 PUSH2 0x36B0 JUMP JUMPDEST SWAP1 SWAP3 PUSH1 0x20 PUSH1 0x1 DUP2 SWAP3 DUP7 DUP7 ADD CALLDATALOAD DUP2 SSTORE ADD SWAP5 ADD SWAP2 ADD PUSH2 0x369C JUMP JUMPDEST PUSH2 0x36F4 PUSH2 0x1983 JUMP JUMPDEST PUSH2 0x3636 JUMP JUMPDEST SWAP1 PUSH1 0x1 PUSH1 0x1 PUSH1 0x40 SHL SUB DUP4 GT PUSH2 0x377C JUMPI JUMPDEST PUSH1 0x1 PUSH1 0x40 SHL DUP4 GT PUSH2 0x376F JUMPI JUMPDEST DUP2 SLOAD DUP4 DUP4 SSTORE DUP1 DUP5 LT PUSH2 0x3751 JUMPI JUMPDEST POP SWAP1 PUSH1 0x0 MSTORE PUSH1 0x20 DUP1 PUSH1 0x0 KECCAK256 SWAP1 PUSH1 0x0 JUMPDEST DUP5 DUP2 LT PUSH2 0x373F JUMPI POP POP POP POP POP JUMP JUMPDEST DUP4 CALLDATALOAD DUP4 DUP3 ADD SSTORE SWAP3 DUP2 ADD SWAP3 PUSH1 0x1 ADD PUSH2 0x3731 JUMP JUMPDEST PUSH2 0x3769 SWAP1 DUP4 PUSH1 0x0 MSTORE DUP5 PUSH1 0x20 PUSH1 0x0 KECCAK256 SWAP2 DUP3 ADD SWAP2 ADD PUSH2 0x3463 JUMP JUMPDEST CODESIZE PUSH2 0x3722 JUMP JUMPDEST PUSH2 0x3777 PUSH2 0x1983 JUMP JUMPDEST PUSH2 0x3715 JUMP JUMPDEST PUSH2 0x3784 PUSH2 0x1983 JUMP JUMPDEST PUSH2 0x3709 JUMP JUMPDEST SWAP1 PUSH1 0x1 PUSH1 0x1 PUSH1 0x40 SHL SUB DUP4 GT PUSH2 0x381D JUMPI JUMPDEST PUSH1 0x1 PUSH1 0x40 SHL DUP4 GT PUSH2 0x3810 JUMPI JUMPDEST DUP2 SLOAD DUP4 DUP4 SSTORE DUP1 DUP5 LT PUSH2 0x37E7 JUMPI JUMPDEST POP PUSH2 0x37C3 SWAP1 SWAP2 PUSH1 0x0 MSTORE PUSH1 0x20 PUSH1 0x0 KECCAK256 SWAP1 JUMP JUMPDEST PUSH1 0x0 JUMPDEST DUP4 DUP2 LT PUSH2 0x37D3 JUMPI POP POP POP POP JUMP JUMPDEST PUSH1 0x1 SWAP1 PUSH1 0x20 DUP5 CALLDATALOAD SWAP5 ADD SWAP4 DUP2 DUP5 ADD SSTORE ADD PUSH2 0x37C6 JUMP JUMPDEST PUSH1 0x0 DUP4 DUP2 MSTORE DUP5 PUSH1 0x20 DUP3 KECCAK256 SWAP3 DUP4 ADD SWAP3 ADD JUMPDEST DUP3 DUP2 LT PUSH2 0x3805 JUMPI POP POP PUSH2 0x37B2 JUMP JUMPDEST DUP2 DUP2 SSTORE PUSH1 0x1 ADD PUSH2 0x37F7 JUMP JUMPDEST PUSH2 0x3818 PUSH2 0x1983 JUMP JUMPDEST PUSH2 0x37A5 JUMP JUMPDEST PUSH2 0x3825 PUSH2 0x1983 JUMP JUMPDEST PUSH2 0x3799 JUMP JUMPDEST SWAP1 CALLDATALOAD SWAP1 PUSH1 0x1E NOT DUP2 CALLDATASIZE SUB ADD DUP3 SLT ISZERO PUSH2 0xE JUMPI ADD DUP1 CALLDATALOAD SWAP1 PUSH1 0x1 PUSH1 0x1 PUSH1 0x40 SHL SUB DUP3 GT PUSH2 0xE JUMPI PUSH1 0x20 ADD SWAP2 DUP2 PUSH1 0x6 SHL CALLDATASIZE SUB DUP4 SGT PUSH2 0xE JUMPI JUMP JUMPDEST SWAP1 PUSH1 0x20 SWAP1 PUSH2 0x388D DUP2 CALLDATALOAD PUSH2 0x3871 DUP2 PUSH2 0x748 JUMP JUMPDEST DUP5 SLOAD PUSH1 0x1 PUSH1 0x1 PUSH1 0xA0 SHL SUB NOT AND PUSH1 0x1 PUSH1 0x1 PUSH1 0xA0 SHL SUB SWAP1 SWAP2 AND OR DUP5 SSTORE JUMP JUMPDEST ADD CALLDATALOAD PUSH2 0x3898 DUP2 PUSH2 0x28D2 JUMP JUMPDEST DUP2 SLOAD PUSH2 0xFFFF PUSH1 0xA0 SHL NOT AND PUSH1 0xA0 SWAP2 SWAP1 SWAP2 SHL PUSH2 0xFFFF PUSH1 0xA0 SHL AND OR SWAP1 SSTORE JUMP JUMPDEST SWAP1 PUSH1 0x1 PUSH1 0x40 SHL DUP4 GT PUSH2 0x3935 JUMPI JUMPDEST DUP2 SLOAD DUP4 DUP4 SSTORE DUP1 DUP5 LT PUSH2 0x390C JUMPI JUMPDEST POP PUSH2 0x38DF SWAP1 SWAP2 PUSH1 0x0 MSTORE PUSH1 0x20 PUSH1 0x0 KECCAK256 SWAP1 JUMP JUMPDEST PUSH1 0x0 SWAP2 JUMPDEST DUP4 DUP4 LT PUSH2 0x38F0 JUMPI POP POP POP POP JUMP JUMPDEST PUSH1 0x1 PUSH1 0x40 DUP3 PUSH2 0x3900 DUP4 SWAP5 DUP7 PUSH2 0x385F JUMP JUMPDEST ADD SWAP3 ADD SWAP3 ADD SWAP2 SWAP1 PUSH2 0x38E3 JUMP JUMPDEST PUSH1 0x0 DUP4 DUP2 MSTORE DUP5 PUSH1 0x20 DUP3 KECCAK256 SWAP3 DUP4 ADD SWAP3 ADD JUMPDEST DUP3 DUP2 LT PUSH2 0x392A JUMPI POP POP PUSH2 0x38CE JUMP JUMPDEST DUP2 DUP2 SSTORE PUSH1 0x1 ADD PUSH2 0x391C JUMP JUMPDEST PUSH2 0x393D PUSH2 0x1983 JUMP JUMPDEST PUSH2 0x38C1 JUMP JUMPDEST DUP2 PUSH1 0x40 MLOAD SWAP3 DUP4 SWAP3 DUP4 CALLDATACOPY DUP2 ADD PUSH1 0x0 DUP2 MSTORE SUB SWAP1 KECCAK256 SWAP1 JUMP JUMPDEST SWAP1 PUSH2 0x396C DUP3 PUSH1 0x0 MSTORE PUSH1 0xA PUSH1 0x20 MSTORE PUSH1 0x40 PUSH1 0x0 KECCAK256 SWAP1 JUMP JUMPDEST SWAP2 PUSH2 0x3979 PUSH2 0x3871 DUP4 PUSH2 0x2B2E JUMP JUMPDEST PUSH1 0x20 DUP3 ADD CALLDATALOAD DUP1 PUSH1 0x1 DUP6 ADD SSTORE PUSH1 0x40 DUP4 ADD CALLDATALOAD SWAP1 DUP2 PUSH1 0x2 DUP7 ADD SSTORE DUP3 PUSH32 0xB85051017293732C5B533B177EFC66475411A9FDD5FBC8ECB619906658413D6 PUSH1 0x60 DUP7 ADD CALLDATALOAD SWAP4 DUP5 PUSH1 0x3 DUP10 ADD SSTORE PUSH2 0x39D8 PUSH2 0x39CE PUSH1 0x80 DUP10 ADD DUP10 PUSH2 0x2B84 JUMP JUMPDEST SWAP1 PUSH1 0x4 DUP12 ADD PUSH2 0x3624 JUMP JUMPDEST PUSH1 0xA0 DUP8 ADD PUSH2 0x39F3 PUSH2 0x39E9 DUP3 DUP11 PUSH2 0x2B84 JUMP JUMPDEST SWAP1 PUSH1 0x5 DUP13 ADD PUSH2 0x3624 JUMP JUMPDEST PUSH2 0x3A45 PUSH1 0x8 PUSH1 0xC0 DUP11 ADD SWAP11 PUSH2 0x3A14 PUSH2 0x3A0A DUP14 DUP14 PUSH2 0x2BB6 JUMP JUMPDEST SWAP1 PUSH1 0x6 DUP5 ADD PUSH2 0x36F9 JUMP JUMPDEST PUSH2 0x3A2E PUSH2 0x3A24 PUSH1 0xE0 DUP14 ADD DUP14 PUSH2 0x2BB6 JUMP JUMPDEST SWAP1 PUSH1 0x7 DUP5 ADD PUSH2 0x3789 JUMP JUMPDEST PUSH2 0x3A3C PUSH2 0x100 DUP13 ADD DUP13 PUSH2 0x382A JUMP JUMPDEST SWAP3 SWAP1 SWAP2 ADD PUSH2 0x38B4 JUMP JUMPDEST PUSH2 0x3A8B PUSH2 0x3A64 PUSH2 0x3A5E PUSH2 0x3A57 DUP12 PUSH2 0x2B2E JUMP JUMPDEST SWAP4 DUP12 PUSH2 0x2B84 JUMP JUMPDEST SWAP1 PUSH2 0x3942 JUMP JUMPDEST SWAP7 PUSH1 0x40 MLOAD SWAP4 DUP5 SWAP4 PUSH1 0x1 DUP1 PUSH1 0xA0 SHL SUB AND SWAP8 DUP5 PUSH1 0x40 SWAP2 SWAP5 SWAP4 SWAP3 PUSH1 0x60 DUP3 ADD SWAP6 DUP3 MSTORE PUSH1 0x20 DUP3 ADD MSTORE ADD MSTORE JUMP JUMPDEST SUB SWAP1 LOG4 PUSH2 0x3A98 DUP4 DUP4 PUSH2 0x2BB6 JUMP JUMPDEST SWAP4 SWAP1 POP PUSH1 0x0 SWAP3 DUP4 JUMPDEST DUP6 DUP2 LT PUSH2 0x3AAF JUMPI POP POP POP POP POP POP JUMP JUMPDEST DUP1 PUSH2 0x3AC1 PUSH2 0x3AEC SWAP3 PUSH2 0x13FA DUP7 DUP7 PUSH2 0x2BB6 JUMP JUMPDEST CALLDATALOAD DUP6 PUSH32 0x65327253F8D67C2E23CB4DFAB28CA7437B04E9098CF4E985073D76DF25209AD4 DUP9 DUP1 LOG3 PUSH2 0x2EE5 JUMP JUMPDEST PUSH2 0x3AA0 JUMP JUMPDEST SWAP3 SWAP2 SWAP3 PUSH1 0x0 MSTORE PUSH1 0x20 SWAP3 PUSH1 0xC DUP5 MSTORE PUSH1 0x40 PUSH1 0x0 KECCAK256 SWAP2 PUSH1 0x1 PUSH1 0x1 PUSH1 0x40 SHL SUB DUP3 GT PUSH2 0x3BA8 JUMPI JUMPDEST PUSH2 0x3B27 DUP3 PUSH2 0x3B21 DUP6 SLOAD PUSH2 0x1F89 JUMP JUMPDEST DUP6 PUSH2 0x347A JUMP JUMPDEST PUSH1 0x0 SWAP5 PUSH1 0x1F DUP4 GT PUSH1 0x1 EQ PUSH2 0x3B58 JUMPI POP SWAP4 DUP2 SWAP3 SWAP4 SWAP5 PUSH1 0x0 SWAP3 PUSH2 0x3679 JUMPI POP POP DUP2 PUSH1 0x1 SHL SWAP2 PUSH1 0x0 NOT SWAP1 PUSH1 0x3 SHL SHR NOT AND OR SWAP1 SSTORE JUMP JUMPDEST SWAP1 PUSH1 0x1F NOT DUP4 AND SWAP6 PUSH2 0x3B6E DUP6 PUSH1 0x0 MSTORE PUSH1 0x20 PUSH1 0x0 KECCAK256 SWAP1 JUMP JUMPDEST SWAP3 DUP2 SWAP1 JUMPDEST DUP9 DUP3 LT PUSH2 0x3B90 JUMPI POP POP DUP4 PUSH1 0x1 SWAP6 SWAP7 SWAP8 LT PUSH2 0x36BA JUMPI POP POP POP DUP2 SHL ADD SWAP1 SSTORE JUMP JUMPDEST DUP1 PUSH1 0x1 DUP5 SWAP7 DUP3 SWAP5 SWAP6 DUP8 ADD CALLDATALOAD DUP2 SSTORE ADD SWAP6 ADD SWAP3 ADD SWAP1 PUSH2 0x3B72 JUMP JUMPDEST PUSH2 0x3BB0 PUSH2 0x1983 JUMP JUMPDEST PUSH2 0x3B13 JUMP JUMPDEST SWAP3 SWAP2 SWAP3 PUSH1 0x0 MSTORE PUSH1 0x20 SWAP3 PUSH1 0xD DUP5 MSTORE PUSH1 0x40 PUSH1 0x0 KECCAK256 SWAP2 PUSH1 0x1 PUSH1 0x1 PUSH1 0x40 SHL SUB DUP3 GT PUSH2 0x3C66 JUMPI JUMPDEST PUSH2 0x3BE5 DUP3 PUSH2 0x3B21 DUP6 SLOAD PUSH2 0x1F89 JUMP JUMPDEST PUSH1 0x0 SWAP5 PUSH1 0x1F DUP4 GT PUSH1 0x1 EQ PUSH2 0x3C16 JUMPI POP SWAP4 DUP2 SWAP3 SWAP4 SWAP5 PUSH1 0x0 SWAP3 PUSH2 0x3679 JUMPI POP POP DUP2 PUSH1 0x1 SHL SWAP2 PUSH1 0x0 NOT SWAP1 PUSH1 0x3 SHL SHR NOT AND OR SWAP1 SSTORE JUMP JUMPDEST SWAP1 PUSH1 0x1F NOT DUP4 AND SWAP6 PUSH2 0x3C2C DUP6 PUSH1 0x0 MSTORE PUSH1 0x20 PUSH1 0x0 KECCAK256 SWAP1 JUMP JUMPDEST SWAP3 DUP2 SWAP1 JUMPDEST DUP9 DUP3 LT PUSH2 0x3C4E JUMPI POP POP DUP4 PUSH1 0x1 SWAP6 SWAP7 SWAP8 LT PUSH2 0x36BA JUMPI POP POP POP DUP2 SHL ADD SWAP1 SSTORE JUMP JUMPDEST DUP1 PUSH1 0x1 DUP5 SWAP7 DUP3 SWAP5 SWAP6 DUP8 ADD CALLDATALOAD DUP2 SSTORE ADD SWAP6 ADD SWAP3 ADD SWAP1 PUSH2 0x3C30 JUMP JUMPDEST PUSH2 0x3C6E PUSH2 0x1983 JUMP JUMPDEST PUSH2 0x3BD7 JUMP JUMPDEST ISZERO PUSH2 0x3C7A JUMPI JUMP JUMPDEST PUSH1 0x40 MLOAD PUSH3 0x461BCD PUSH1 0xE5 SHL DUP2 MSTORE PUSH1 0x20 PUSH1 0x4 DUP3 ADD MSTORE PUSH1 0x22 PUSH1 0x24 DUP3 ADD MSTORE PUSH32 0x4461746153746F726167653A2074616773206C656E677468206D757374206265 PUSH1 0x44 DUP3 ADD MSTORE PUSH2 0x2033 PUSH1 0xF0 SHL PUSH1 0x64 DUP3 ADD MSTORE PUSH1 0x84 SWAP1 REVERT JUMPDEST SWAP2 SWAP1 PUSH2 0x3CD9 PUSH1 0x3 DUP4 GT ISZERO PUSH2 0x3C73 JUMP JUMPDEST DUP2 ISZERO PUSH1 0x0 DUP2 PUSH2 0x3D75 JUMPI POP PUSH2 0x3D68 JUMPI JUMPDEST PUSH32 0xB237134D29775150B1EDF87AF1DC343262244AF7CBB474CFC64CB6E8824AF663 PUSH1 0x20 DUP3 CALLDATALOAD SWAP3 JUMPDEST PUSH1 0x0 PUSH1 0x1 DUP7 GT ISZERO PUSH2 0x3D62 JUMPI POP DUP5 PUSH1 0x1 LT ISZERO PUSH2 0x3D55 JUMPI JUMPDEST DUP2 DUP2 ADD CALLDATALOAD SWAP5 JUMPDEST PUSH1 0x0 SWAP2 PUSH1 0x2 DUP3 GT ISZERO PUSH2 0x3D4D JUMPI PUSH2 0x3D41 SWAP3 POP PUSH2 0x2F01 JUMP JUMPDEST CALLDATALOAD SWAP5 JUMPDEST PUSH1 0x40 MLOAD SWAP1 DUP2 MSTORE LOG4 JUMP JUMPDEST POP POP SWAP5 PUSH2 0x3D44 JUMP JUMPDEST PUSH2 0x3D5D PUSH2 0x26DA JUMP JUMPDEST PUSH2 0x3D25 JUMP JUMPDEST SWAP5 PUSH2 0x3D2B JUMP JUMPDEST PUSH2 0x3D70 PUSH2 0x26DA JUMP JUMPDEST PUSH2 0x3CE8 JUMP JUMPDEST PUSH32 0xB237134D29775150B1EDF87AF1DC343262244AF7CBB474CFC64CB6E8824AF663 SWAP2 POP PUSH1 0x20 SWAP1 SWAP3 PUSH2 0x3D0F JUMP JUMPDEST PUSH1 0x20 SWAP1 PUSH1 0x1 PUSH1 0x1 PUSH1 0x40 SHL SUB DUP2 GT PUSH2 0x3DB9 JUMPI PUSH1 0x5 SHL ADD SWAP1 JUMP JUMPDEST PUSH2 0x2F51 PUSH2 0x1983 JUMP JUMPDEST PUSH1 0x40 MLOAD SWAP1 PUSH2 0x120 DUP3 ADD DUP3 DUP2 LT PUSH1 0x1 PUSH1 0x1 PUSH1 0x40 SHL SUB DUP3 GT OR PUSH2 0x3E1B JUMPI JUMPDEST PUSH1 0x40 MSTORE DUP2 PUSH1 0x0 DUP2 MSTORE PUSH1 0x0 PUSH1 0x20 DUP3 ADD MSTORE PUSH1 0x0 PUSH1 0x40 DUP3 ADD MSTORE PUSH2 0x100 PUSH1 0x60 SWAP2 PUSH1 0x0 DUP4 DUP3 ADD MSTORE DUP3 PUSH1 0x80 DUP3 ADD MSTORE DUP3 PUSH1 0xA0 DUP3 ADD MSTORE DUP3 PUSH1 0xC0 DUP3 ADD MSTORE DUP3 PUSH1 0xE0 DUP3 ADD MSTORE ADD MSTORE JUMP JUMPDEST PUSH2 0x3E23 PUSH2 0x1983 JUMP JUMPDEST PUSH2 0x3DDD JUMP JUMPDEST SWAP1 PUSH2 0x3E32 DUP3 PUSH2 0x3DA1 JUMP JUMPDEST PUSH2 0x3E3F PUSH1 0x40 MLOAD SWAP2 DUP3 PUSH2 0x19DD JUMP JUMPDEST DUP3 DUP2 MSTORE DUP1 SWAP3 PUSH2 0x3E50 PUSH1 0x1F NOT SWAP2 PUSH2 0x3DA1 JUMP JUMPDEST ADD SWAP1 PUSH1 0x0 JUMPDEST DUP3 DUP2 LT PUSH2 0x3E61 JUMPI POP POP POP JUMP JUMPDEST DUP1 PUSH1 0x60 PUSH1 0x20 DUP1 SWAP4 DUP6 ADD ADD MSTORE ADD PUSH2 0x3E55 JUMP JUMPDEST PUSH1 0x20 SWAP2 DUP2 MLOAD DUP2 LT ISZERO PUSH2 0x3E87 JUMPI JUMPDEST PUSH1 0x5 SHL ADD ADD SWAP1 JUMP JUMPDEST PUSH2 0x3E8F PUSH2 0x26DA JUMP JUMPDEST PUSH2 0x3E7F JUMP JUMPDEST SWAP1 PUSH1 0x40 MLOAD SWAP2 DUP3 DUP2 SLOAD SWAP2 DUP3 DUP3 MSTORE PUSH1 0x20 SWAP3 DUP4 DUP4 ADD SWAP2 PUSH1 0x0 MSTORE DUP4 PUSH1 0x0 KECCAK256 SWAP4 PUSH1 0x0 SWAP1 JUMPDEST DUP3 DUP3 LT PUSH2 0x3EC9 JUMPI POP POP POP PUSH2 0x764 SWAP3 POP SUB DUP4 PUSH2 0x19DD JUMP JUMPDEST DUP6 SLOAD DUP5 MSTORE PUSH1 0x1 SWAP6 DUP7 ADD SWAP6 DUP9 SWAP6 POP SWAP4 DUP2 ADD SWAP4 SWAP1 SWAP2 ADD SWAP1 PUSH2 0x3EB3 JUMP JUMPDEST SWAP1 DUP2 SLOAD PUSH2 0x3EEF DUP2 PUSH2 0x3DA1 JUMP JUMPDEST SWAP3 PUSH1 0x40 SWAP4 PUSH2 0x3EFF DUP6 MLOAD SWAP2 DUP3 PUSH2 0x19DD JUMP JUMPDEST DUP3 DUP2 MSTORE DUP1 SWAP5 PUSH1 0x20 DUP1 SWAP3 ADD SWAP3 PUSH1 0x0 MSTORE DUP2 PUSH1 0x0 KECCAK256 SWAP1 PUSH1 0x0 SWAP4 JUMPDEST DUP6 DUP6 LT PUSH2 0x3F25 JUMPI POP POP POP POP POP POP JUMP JUMPDEST PUSH1 0x1 DUP5 DUP2 SWAP3 DUP5 MLOAD DUP6 DUP2 ADD DUP2 DUP2 LT PUSH1 0x1 PUSH1 0x1 PUSH1 0x40 SHL SUB DUP3 GT OR PUSH2 0x3F69 JUMPI JUMPDEST DUP7 MSTORE PUSH2 0xFFFF DUP8 SLOAD DUP6 DUP1 PUSH1 0xA0 SHL SUB DUP2 AND DUP4 MSTORE PUSH1 0xA0 SHR AND DUP4 DUP3 ADD MSTORE DUP2 MSTORE ADD SWAP4 ADD SWAP5 ADD SWAP4 SWAP2 PUSH2 0x3F16 JUMP JUMPDEST PUSH2 0x3F71 PUSH2 0x1983 JUMP JUMPDEST PUSH2 0x3F42 JUMP JUMPDEST SWAP1 PUSH2 0x3F7F PUSH2 0x3DC1 JUMP JUMPDEST POP PUSH1 0x60 SWAP1 DUP3 PUSH1 0x0 MSTORE PUSH1 0xA PUSH1 0x20 MSTORE PUSH1 0x40 PUSH1 0x0 KECCAK256 SWAP3 PUSH2 0x3F9A PUSH2 0x19FE JUMP JUMPDEST DUP5 SLOAD PUSH1 0x1 PUSH1 0x1 PUSH1 0xA0 SHL SUB AND DUP2 MSTORE PUSH1 0x1 DUP6 ADD SLOAD PUSH1 0x20 DUP3 ADD MSTORE PUSH2 0x4016 PUSH1 0x8 PUSH1 0x2 DUP8 ADD SLOAD SWAP7 PUSH1 0x40 DUP5 ADD SWAP8 DUP9 MSTORE PUSH1 0x3 DUP2 ADD SLOAD DUP8 DUP6 ADD MSTORE PUSH2 0x3FD8 PUSH1 0x4 DUP3 ADD PUSH2 0x2059 JUMP JUMPDEST PUSH1 0x80 DUP6 ADD MSTORE PUSH2 0x3FE9 PUSH1 0x5 DUP3 ADD PUSH2 0x2059 JUMP JUMPDEST PUSH1 0xA0 DUP6 ADD MSTORE PUSH2 0x3FFA PUSH1 0x6 DUP3 ADD PUSH2 0x3E94 JUMP JUMPDEST PUSH1 0xC0 DUP6 ADD MSTORE PUSH2 0x400B PUSH1 0x7 DUP3 ADD PUSH2 0x3E94 JUMP JUMPDEST PUSH1 0xE0 DUP6 ADD MSTORE ADD PUSH2 0x3EE3 JUMP JUMPDEST PUSH2 0x100 DUP3 ADD MSTORE SWAP4 MLOAD TIMESTAMP LT ISZERO PUSH2 0x4042 JUMPI JUMPDEST PUSH2 0x403D PUSH2 0x634 SWAP2 PUSH1 0x0 MSTORE PUSH1 0xC PUSH1 0x20 MSTORE PUSH1 0x40 PUSH1 0x0 KECCAK256 SWAP1 JUMP JUMPDEST PUSH2 0x2059 JUMP JUMPDEST SWAP2 POP PUSH2 0x634 PUSH2 0x403D PUSH2 0x4061 PUSH2 0x403D DUP6 PUSH1 0x0 MSTORE PUSH1 0xD PUSH1 0x20 MSTORE PUSH1 0x40 PUSH1 0x0 KECCAK256 SWAP1 JUMP JUMPDEST SWAP4 SWAP2 POP POP PUSH2 0x4026 JUMP JUMPDEST SWAP1 PUSH2 0x4074 DUP3 PUSH2 0x3DA1 JUMP JUMPDEST PUSH2 0x4081 PUSH1 0x40 MLOAD SWAP2 DUP3 PUSH2 0x19DD JUMP JUMPDEST DUP3 DUP2 MSTORE DUP1 SWAP3 PUSH2 0x4092 PUSH1 0x1F NOT SWAP2 PUSH2 0x3DA1 JUMP JUMPDEST ADD SWAP1 PUSH1 0x20 CALLDATASIZE SWAP2 ADD CALLDATACOPY JUMP JUMPDEST PUSH2 0x40A5 SWAP1 PUSH2 0x26F1 JUMP JUMPDEST SWAP1 SLOAD SWAP1 PUSH1 0x3 SHL SHR DUP1 PUSH1 0x0 MSTORE PUSH1 0x10 PUSH1 0x20 MSTORE SWAP1 JUMP JUMPDEST PUSH1 0xE SLOAD DUP2 LT ISZERO PUSH2 0x40F9 JUMPI JUMPDEST PUSH32 0xBB7B4A454DC3493923482F07822329ED19E8244EFF582CC204F8554C3620C3FD ADD SLOAD SWAP1 DUP2 PUSH1 0x0 MSTORE PUSH1 0x10 PUSH1 0x20 MSTORE PUSH1 0x40 PUSH1 0x0 KECCAK256 SLOAD SWAP1 JUMP JUMPDEST PUSH2 0x4101 PUSH2 0x26DA JUMP JUMPDEST PUSH2 0x40C3 JUMP JUMPDEST SWAP2 SWAP1 PUSH2 0x4114 PUSH1 0x2 SWAP2 DUP5 PUSH2 0x2736 JUMP JUMPDEST SWAP1 SLOAD SWAP1 PUSH1 0x3 SHL SHR SWAP3 DUP4 PUSH1 0x0 MSTORE ADD PUSH1 0x20 MSTORE PUSH1 0x40 PUSH1 0x0 KECCAK256 SLOAD SWAP1 JUMP JUMPDEST PUSH1 0x0 MSTORE PUSH1 0x10 PUSH1 0x20 MSTORE PUSH1 0x40 PUSH1 0x0 KECCAK256 SLOAD DUP1 ISZERO DUP1 ISZERO SWAP1 PUSH2 0x4192 JUMPI JUMPDEST ISZERO PUSH2 0x414D JUMPI SWAP1 JUMP JUMPDEST PUSH1 0x40 MLOAD PUSH3 0x461BCD PUSH1 0xE5 SHL DUP2 MSTORE PUSH1 0x20 PUSH1 0x4 DUP3 ADD MSTORE PUSH1 0x1E PUSH1 0x24 DUP3 ADD MSTORE PUSH32 0x456E756D657261626C654D61703A206E6F6E6578697374656E74206B65790000 PUSH1 0x44 DUP3 ADD MSTORE PUSH1 0x64 SWAP1 REVERT JUMPDEST POP PUSH1 0xF PUSH1 0x20 MSTORE PUSH1 0x40 PUSH1 0x0 KECCAK256 SLOAD ISZERO ISZERO PUSH2 0x4145 JUMP JUMPDEST DUP2 PUSH1 0x0 MSTORE PUSH1 0x2 DUP2 ADD PUSH1 0x20 MSTORE PUSH1 0x40 PUSH1 0x0 KECCAK256 SLOAD SWAP2 DUP3 ISZERO SWAP2 DUP3 ISZERO SWAP3 PUSH2 0x41CC JUMPI JUMPDEST POP POP ISZERO PUSH2 0x414D JUMPI SWAP1 JUMP JUMPDEST PUSH2 0x41E6 SWAP3 POP PUSH1 0x1 SWAP2 PUSH1 0x0 MSTORE ADD PUSH1 0x20 MSTORE PUSH1 0x40 PUSH1 0x0 KECCAK256 SLOAD ISZERO ISZERO SWAP1 JUMP JUMPDEST CODESIZE DUP1 PUSH2 0x41C2 JUMP JUMPDEST DUP1 PUSH1 0x0 MSTORE PUSH1 0xF PUSH1 0x20 MSTORE PUSH1 0x40 PUSH1 0x0 KECCAK256 SLOAD ISZERO PUSH1 0x0 EQ PUSH2 0x4279 JUMPI DUP1 PUSH1 0xE SLOAD PUSH1 0x1 PUSH1 0x40 SHL DUP2 LT ISZERO PUSH2 0x426C JUMPI JUMPDEST PUSH1 0x1 DUP2 ADD DUP1 PUSH1 0xE SSTORE DUP2 LT ISZERO PUSH2 0x425F JUMPI JUMPDEST PUSH32 0xBB7B4A454DC3493923482F07822329ED19E8244EFF582CC204F8554C3620C3FD ADD SSTORE PUSH1 0xE SLOAD SWAP1 PUSH1 0x0 MSTORE PUSH1 0xF PUSH1 0x20 MSTORE PUSH1 0x40 PUSH1 0x0 KECCAK256 SSTORE PUSH1 0x1 SWAP1 JUMP JUMPDEST PUSH2 0x4267 PUSH2 0x26DA JUMP JUMPDEST PUSH2 0x4225 JUMP JUMPDEST PUSH2 0x4274 PUSH2 0x1983 JUMP JUMPDEST PUSH2 0x4215 JUMP JUMPDEST POP PUSH1 0x0 SWAP1 JUMP JUMPDEST DUP1 PUSH1 0x0 MSTORE PUSH1 0x13 PUSH1 0x20 MSTORE PUSH1 0x40 PUSH1 0x0 KECCAK256 SLOAD ISZERO PUSH1 0x0 EQ PUSH2 0x4279 JUMPI DUP1 PUSH1 0x12 SLOAD PUSH1 0x1 PUSH1 0x40 SHL DUP2 LT ISZERO PUSH2 0x42FE JUMPI JUMPDEST PUSH1 0x1 DUP2 ADD DUP1 PUSH1 0x12 SSTORE DUP2 LT ISZERO PUSH2 0x42F1 JUMPI JUMPDEST PUSH32 0xBB8A6A4669BA250D26CD7A459ECA9D215F8307E33AEBE50379BC5A3617EC3444 ADD SSTORE PUSH1 0x12 SLOAD SWAP1 PUSH1 0x0 MSTORE PUSH1 0x13 PUSH1 0x20 MSTORE PUSH1 0x40 PUSH1 0x0 KECCAK256 SSTORE PUSH1 0x1 SWAP1 JUMP JUMPDEST PUSH2 0x42F9 PUSH2 0x26DA JUMP JUMPDEST PUSH2 0x42B7 JUMP JUMPDEST PUSH2 0x4306 PUSH2 0x1983 JUMP JUMPDEST PUSH2 0x42A7 JUMP JUMPDEST PUSH1 0x0 DUP3 DUP2 MSTORE PUSH1 0x1 DUP3 ADD PUSH1 0x20 MSTORE PUSH1 0x40 SWAP1 KECCAK256 SLOAD PUSH2 0x437B JUMPI DUP1 DUP3 PUSH2 0x4341 PUSH1 0x1 SWAP4 SLOAD PUSH1 0x1 PUSH1 0x40 SHL DUP2 LT ISZERO PUSH2 0x436E JUMPI JUMPDEST DUP5 DUP2 ADD DUP5 SSTORE DUP4 PUSH2 0x2736 JUMP JUMPDEST DUP2 SWAP3 SWAP2 SLOAD SWAP1 PUSH1 0x3 SHL PUSH1 0x0 NOT DUP2 SHL SWAP3 DUP4 SWAP2 SHL AND SWAP2 NOT AND OR SWAP1 SSTORE DUP1 SLOAD SWAP3 PUSH1 0x0 MSTORE ADD PUSH1 0x20 MSTORE PUSH1 0x40 PUSH1 0x0 KECCAK256 SSTORE PUSH1 0x1 SWAP1 JUMP JUMPDEST PUSH2 0x4376 PUSH2 0x1983 JUMP JUMPDEST PUSH2 0x4336 JUMP JUMPDEST POP POP PUSH1 0x0 SWAP1 JUMP JUMPDEST PUSH1 0x1 DUP1 PUSH1 0xA0 SHL SUB AND PUSH1 0x0 MSTORE PUSH1 0x11 PUSH1 0x20 MSTORE PUSH1 0x2 PUSH2 0x43A3 PUSH1 0x40 PUSH1 0x0 KECCAK256 SWAP3 DUP4 PUSH2 0x2736 JUMP JUMPDEST SWAP1 SLOAD SWAP1 PUSH1 0x3 SHL SHR SWAP2 DUP3 PUSH1 0x0 MSTORE ADD PUSH1 0x20 MSTORE SWAP1 JUMP JUMPDEST PUSH1 0x1 PUSH1 0x1 PUSH1 0xA0 SHL SUB AND PUSH1 0x0 SWAP1 DUP2 MSTORE PUSH1 0x11 PUSH1 0x20 SWAP1 DUP2 MSTORE PUSH1 0x40 DUP1 DUP4 KECCAK256 DUP1 SLOAD DUP6 DUP6 MSTORE PUSH1 0x2 DUP3 ADD SWAP1 SWAP4 MSTORE SWAP3 KECCAK256 SSTORE PUSH2 0x43E9 SWAP2 SWAP1 PUSH2 0x430B JUMP JUMPDEST POP JUMP JUMPDEST PUSH1 0x12 SLOAD DUP2 LT ISZERO PUSH2 0x442B JUMPI JUMPDEST PUSH1 0x12 PUSH1 0x0 MSTORE PUSH32 0xBB8A6A4669BA250D26CD7A459ECA9D215F8307E33AEBE50379BC5A3617EC3444 ADD SLOAD PUSH1 0x1 PUSH1 0x1 PUSH1 0xA0 SHL SUB AND SWAP1 JUMP JUMPDEST PUSH2 0x4433 PUSH2 0x26DA JUMP JUMPDEST PUSH2 0x43F7 JUMP JUMPDEST PUSH2 0x43E9 SWAP1 PUSH1 0x1 PUSH1 0x1 PUSH1 0xA0 SHL SUB AND PUSH2 0x427F JUMP JUMPDEST PUSH2 0x43E9 SWAP2 PUSH1 0x0 MSTORE PUSH1 0x14 PUSH1 0x20 MSTORE PUSH1 0x40 PUSH1 0x0 KECCAK256 PUSH2 0x430B JUMP JUMPDEST PUSH1 0x1 PUSH1 0x1 PUSH1 0xA0 SHL SUB AND PUSH1 0x0 SWAP1 DUP2 MSTORE PUSH1 0x15 PUSH1 0x20 MSTORE PUSH1 0x40 SWAP1 KECCAK256 PUSH2 0x43E9 SWAP2 SWAP1 PUSH2 0x430B JUMP JUMPDEST PUSH1 0x0 MSTORE PUSH1 0x16 PUSH1 0x20 MSTORE PUSH1 0x2 PUSH2 0x43A3 PUSH1 0x40 PUSH1 0x0 KECCAK256 SWAP3 DUP4 PUSH2 0x2736 JUMP JUMPDEST SWAP1 SWAP2 PUSH2 0x764 SWAP3 PUSH2 0x44AC PUSH1 0x3 DUP4 EQ PUSH2 0x3C73 JUMP JUMPDEST PUSH2 0x44C0 PUSH2 0x44B9 DUP4 DUP4 PUSH2 0x2F18 JUMP JUMPDEST CALLDATALOAD DUP5 PUSH2 0x45BF JUMP JUMPDEST PUSH2 0x44CD PUSH2 0x44B9 DUP4 DUP4 PUSH2 0x2F29 JUMP JUMPDEST PUSH2 0x44DA PUSH2 0x44B9 DUP4 DUP4 PUSH2 0x2F01 JUMP JUMPDEST PUSH2 0x45BA PUSH2 0x4513 PUSH2 0x4530 PUSH2 0x44ED DUP6 DUP6 PUSH2 0x2F18 JUMP JUMPDEST CALLDATALOAD PUSH2 0x44F8 DUP7 DUP7 PUSH2 0x2F29 JUMP JUMPDEST PUSH1 0x40 DUP1 MLOAD PUSH1 0x20 DUP2 ADD SWAP4 DUP5 MSTORE SWAP2 CALLDATALOAD SWAP1 DUP3 ADD MSTORE SWAP3 DUP4 SWAP1 PUSH1 0x60 DUP3 ADD SWAP1 JUMP JUMPDEST SUB SWAP3 PUSH2 0x4527 PUSH1 0x1F NOT SWAP5 DUP6 DUP2 ADD DUP4 MSTORE DUP3 PUSH2 0x19DD JUMP JUMPDEST MLOAD SWAP1 KECCAK256 DUP7 PUSH2 0x45BF JUMP JUMPDEST PUSH2 0x4575 PUSH2 0x453D DUP6 DUP6 PUSH2 0x2F29 JUMP JUMPDEST CALLDATALOAD PUSH2 0x4569 PUSH2 0x4527 PUSH2 0x454E DUP9 DUP9 PUSH2 0x2F01 JUMP JUMPDEST PUSH1 0x40 DUP1 MLOAD PUSH1 0x20 DUP2 ADD SWAP6 DUP7 MSTORE SWAP2 CALLDATALOAD SWAP1 DUP3 ADD MSTORE SWAP2 DUP3 SWAP1 PUSH1 0x60 DUP3 ADD SWAP1 JUMP JUMPDEST SUB DUP6 DUP2 ADD DUP4 MSTORE DUP3 PUSH2 0x19DD JUMP JUMPDEST PUSH2 0x4595 PUSH2 0x4582 DUP6 DUP6 PUSH2 0x2F18 JUMP JUMPDEST CALLDATALOAD SWAP5 PUSH2 0x458E DUP2 DUP7 PUSH2 0x2F29 JUMP JUMPDEST CALLDATALOAD SWAP5 PUSH2 0x2F01 JUMP JUMPDEST PUSH1 0x40 DUP1 MLOAD PUSH1 0x20 DUP2 ADD SWAP7 DUP8 MSTORE SWAP1 DUP2 ADD SWAP5 SWAP1 SWAP5 MSTORE CALLDATALOAD PUSH1 0x60 DUP5 ADD MSTORE PUSH1 0x80 SWAP1 DUP2 ADD DUP4 MSTORE DUP3 PUSH2 0x19DD JUMP JUMPDEST MLOAD SWAP1 KECCAK256 SWAP1 JUMPDEST PUSH1 0x0 DUP3 DUP2 MSTORE PUSH1 0x16 PUSH1 0x20 MSTORE PUSH1 0x40 DUP2 KECCAK256 SWAP1 PUSH2 0x45E8 DUP4 DUP4 PUSH1 0x1 SWAP2 PUSH1 0x0 MSTORE ADD PUSH1 0x20 MSTORE PUSH1 0x40 PUSH1 0x0 KECCAK256 SLOAD ISZERO ISZERO SWAP1 JUMP JUMPDEST ISZERO PUSH2 0x45F3 JUMPI POP POP POP POP JUMP JUMPDEST PUSH2 0x4616 SWAP4 DUP2 MSTORE PUSH1 0x16 PUSH1 0x20 MSTORE PUSH1 0x40 DUP1 DUP3 KECCAK256 SLOAD SWAP2 DUP5 DUP2 MSTORE PUSH1 0x2 DUP5 ADD PUSH1 0x20 MSTORE KECCAK256 SSTORE PUSH2 0x430B JUMP JUMPDEST POP CODESIZE DUP1 DUP1 DUP1 PUSH2 0x1FF0 JUMP INVALID LOG2 PUSH5 0x6970667358 0x22 SLT KECCAK256 JUMP JUMP SWAP13 0xC7 0xCC 0x23 0xC DUP8 PUSH30 0xEACA86520326D0D0C2ED7B2EAC9F359085AB5B6C4899A764736F6C634300 ADDMOD GT STOP CALLER "},"methodIdentifiers":{"approve(address,uint256)":"095ea7b3","balanceOf(address)":"70a08231","burn(uint256)":"42966c68","creatorAddresses()":"40b94757","creatorByIndex(uint256)":"6d571b6a","creatorsByIndexBatch(uint256[])":"c03d1d91","getApproved(uint256)":"081812fc","getHash((address,uint256,uint256,uint256,string,bytes,uint256[],bytes32[],(address,uint16)[]))":"662ec09e","getUriId(bytes32)":"78292236","isApprovedForAll(address,address)":"e985e9c5","name()":"06fdde03","numberOfCreators()":"1ae69b61","numberOfRepliesToCreator(address)":"f353a732","numberOfRepliesToCreatorBatch(address[])":"2c230901","numberOfTokenReplies(uint256)":"2e0d0718","numberOfTokenRepliesBatch(uint256[])":"cca3c766","numberOfTokensByTag(bytes32)":"4667c884","numberOfTokensByTagBatch(bytes32[])":"8f93fb39","numberOfTokensOfCreator(address)":"60f6a4a3","numberOfTokensOfCreatorBatch(address[])":"31d99545","numberOfTokensTraceable()":"dd468791","ownerOf(uint256)":"6352211e","repliesToCreator(address)":"b1582201","repliesToCreatorByIndex(address,uint256)":"f99458a4","repliesToCreatorByIndexBatch(address,uint256[])":"fe649b7e","safeMint((address,uint256,uint256,uint256,string,bytes,uint256[],bytes32[],(address,uint16)[]),bytes,bytes)":"7372e98d","safeMintAndSetTraceStorage((address,uint256,uint256,uint256,string,bytes,uint256[],bytes32[],(address,uint16)[]),bytes,bytes)":"4832e8f3","safeTransferFrom(address,address,uint256)":"42842e0e","safeTransferFrom(address,address,uint256,bytes)":"b88d4fde","setApprovalForAll(address,bool)":"a22cb465","supportsInterface(bytes4)":"01ffc9a7","symbol()":"95d89b41","timeStamp()":"0ab0df87","tokenByIndex(uint256)":"4f6ccce7","tokenByIndexTraceable(uint256)":"26156636","tokenInfo(uint256)":"cc33c875","tokenOfCreatorByIndex(address,uint256)":"4fc09275","tokenOfOwnerByIndex(address,uint256)":"2f745c59","tokenOfTagByIndex(bytes32,uint256)":"3552d220","tokenReplies(uint256)":"8282674f","tokenRepliesByIndexBatch(uint256,uint256[])":"1674ed4b","tokenReplyByIndex(uint256,uint256)":"bfc9b364","tokenURI(uint256)":"c87b56dd","tokensByIndexTraceableBatch(uint256[])":"f6bd7ab8","tokensInfoBatch(uint256[])":"2b0eca8c","tokensOfCreator(address)":"96cc6a34","tokensOfCreatorByIndexBatch(address,uint256[])":"132e75d6","tokensOfTag(bytes32)":"af3ea105","tokensOfTagByIndexBatch(bytes32,uint256[])":"017642e4","totalSupply()":"18160ddd","traceTokenByCreator(address,uint256)":"c3512876","traceTokenById(uint256)":"39d77f25","traceTokenByTag(bytes32,uint256)":"29c7785f","transferFrom(address,address,uint256)":"23b872dd"}}}}}