{
  "_format": "hh-sol-artifact-1",
  "contractName": "Katibeh1155",
  "sourceName": "contracts/katibeh1155/Katibeh1155.sol",
  "abi": [
    {
      "inputs": [],
      "stateMutability": "nonpayable",
      "type": "constructor"
    },
    {
      "anonymous": false,
      "inputs": [
        {
          "indexed": true,
          "internalType": "address",
          "name": "account",
          "type": "address"
        },
        {
          "indexed": true,
          "internalType": "address",
          "name": "operator",
          "type": "address"
        },
        {
          "indexed": false,
          "internalType": "bool",
          "name": "approved",
          "type": "bool"
        }
      ],
      "name": "ApprovalForAll",
      "type": "event"
    },
    {
      "anonymous": false,
      "inputs": [
        {
          "indexed": false,
          "internalType": "uint8",
          "name": "version",
          "type": "uint8"
        }
      ],
      "name": "Initialized",
      "type": "event"
    },
    {
      "anonymous": false,
      "inputs": [
        {
          "indexed": false,
          "internalType": "address",
          "name": "operator",
          "type": "address"
        },
        {
          "indexed": false,
          "internalType": "uint256[]",
          "name": "ids",
          "type": "uint256[]"
        },
        {
          "indexed": false,
          "internalType": "uint256[]",
          "name": "amounts",
          "type": "uint256[]"
        },
        {
          "indexed": false,
          "internalType": "bytes",
          "name": "data",
          "type": "bytes"
        }
      ],
      "name": "TokenData",
      "type": "event"
    },
    {
      "anonymous": false,
      "inputs": [
        {
          "indexed": true,
          "internalType": "address",
          "name": "operator",
          "type": "address"
        },
        {
          "indexed": true,
          "internalType": "address",
          "name": "from",
          "type": "address"
        },
        {
          "indexed": true,
          "internalType": "address",
          "name": "to",
          "type": "address"
        },
        {
          "indexed": false,
          "internalType": "uint256[]",
          "name": "ids",
          "type": "uint256[]"
        },
        {
          "indexed": false,
          "internalType": "uint256[]",
          "name": "values",
          "type": "uint256[]"
        }
      ],
      "name": "TransferBatch",
      "type": "event"
    },
    {
      "anonymous": false,
      "inputs": [
        {
          "indexed": true,
          "internalType": "address",
          "name": "operator",
          "type": "address"
        },
        {
          "indexed": true,
          "internalType": "address",
          "name": "from",
          "type": "address"
        },
        {
          "indexed": true,
          "internalType": "address",
          "name": "to",
          "type": "address"
        },
        {
          "indexed": false,
          "internalType": "uint256",
          "name": "id",
          "type": "uint256"
        },
        {
          "indexed": false,
          "internalType": "uint256",
          "name": "value",
          "type": "uint256"
        }
      ],
      "name": "TransferSingle",
      "type": "event"
    },
    {
      "anonymous": false,
      "inputs": [
        {
          "indexed": false,
          "internalType": "string",
          "name": "value",
          "type": "string"
        },
        {
          "indexed": true,
          "internalType": "uint256",
          "name": "id",
          "type": "uint256"
        }
      ],
      "name": "URI",
      "type": "event"
    },
    {
      "inputs": [
        {
          "internalType": "address",
          "name": "account",
          "type": "address"
        },
        {
          "internalType": "uint256",
          "name": "id",
          "type": "uint256"
        }
      ],
      "name": "balanceOf",
      "outputs": [
        {
          "internalType": "uint256",
          "name": "",
          "type": "uint256"
        }
      ],
      "stateMutability": "view",
      "type": "function"
    },
    {
      "inputs": [
        {
          "internalType": "address[]",
          "name": "accounts",
          "type": "address[]"
        },
        {
          "internalType": "uint256[]",
          "name": "ids",
          "type": "uint256[]"
        }
      ],
      "name": "balanceOfBatch",
      "outputs": [
        {
          "internalType": "uint256[]",
          "name": "",
          "type": "uint256[]"
        }
      ],
      "stateMutability": "view",
      "type": "function"
    },
    {
      "inputs": [
        {
          "internalType": "address",
          "name": "account",
          "type": "address"
        },
        {
          "internalType": "uint256",
          "name": "id",
          "type": "uint256"
        },
        {
          "internalType": "uint256",
          "name": "value",
          "type": "uint256"
        }
      ],
      "name": "burn",
      "outputs": [],
      "stateMutability": "nonpayable",
      "type": "function"
    },
    {
      "inputs": [
        {
          "internalType": "address",
          "name": "account",
          "type": "address"
        },
        {
          "internalType": "uint256[]",
          "name": "ids",
          "type": "uint256[]"
        },
        {
          "internalType": "uint256[]",
          "name": "values",
          "type": "uint256[]"
        }
      ],
      "name": "burnBatch",
      "outputs": [],
      "stateMutability": "nonpayable",
      "type": "function"
    },
    {
      "inputs": [
        {
          "internalType": "uint256",
          "name": "id",
          "type": "uint256"
        }
      ],
      "name": "exists",
      "outputs": [
        {
          "internalType": "bool",
          "name": "",
          "type": "bool"
        }
      ],
      "stateMutability": "view",
      "type": "function"
    },
    {
      "inputs": [
        {
          "internalType": "uint96",
          "name": "tokenId",
          "type": "uint96"
        }
      ],
      "name": "getInitialId",
      "outputs": [
        {
          "internalType": "uint96",
          "name": "_tokenId",
          "type": "uint96"
        }
      ],
      "stateMutability": "view",
      "type": "function"
    },
    {
      "inputs": [
        {
          "internalType": "address",
          "name": "owner_",
          "type": "address"
        },
        {
          "internalType": "string",
          "name": "name_",
          "type": "string"
        },
        {
          "internalType": "string",
          "name": "symbol_",
          "type": "string"
        }
      ],
      "name": "init",
      "outputs": [],
      "stateMutability": "nonpayable",
      "type": "function"
    },
    {
      "inputs": [
        {
          "internalType": "address",
          "name": "account",
          "type": "address"
        },
        {
          "internalType": "address",
          "name": "operator",
          "type": "address"
        }
      ],
      "name": "isApprovedForAll",
      "outputs": [
        {
          "internalType": "bool",
          "name": "",
          "type": "bool"
        }
      ],
      "stateMutability": "view",
      "type": "function"
    },
    {
      "inputs": [
        {
          "internalType": "address",
          "name": "addr",
          "type": "address"
        },
        {
          "internalType": "uint256",
          "name": "id",
          "type": "uint256"
        },
        {
          "internalType": "uint256",
          "name": "amount",
          "type": "uint256"
        },
        {
          "internalType": "bytes",
          "name": "data",
          "type": "bytes"
        }
      ],
      "name": "mint",
      "outputs": [],
      "stateMutability": "nonpayable",
      "type": "function"
    },
    {
      "inputs": [],
      "name": "name",
      "outputs": [
        {
          "internalType": "string",
          "name": "",
          "type": "string"
        }
      ],
      "stateMutability": "view",
      "type": "function"
    },
    {
      "inputs": [],
      "name": "owner",
      "outputs": [
        {
          "internalType": "address",
          "name": "",
          "type": "address"
        }
      ],
      "stateMutability": "view",
      "type": "function"
    },
    {
      "inputs": [
        {
          "internalType": "uint256",
          "name": "tokenId",
          "type": "uint256"
        },
        {
          "internalType": "uint256",
          "name": "salePrice",
          "type": "uint256"
        }
      ],
      "name": "royaltyInfo",
      "outputs": [
        {
          "internalType": "address",
          "name": "",
          "type": "address"
        },
        {
          "internalType": "uint256",
          "name": "",
          "type": "uint256"
        }
      ],
      "stateMutability": "view",
      "type": "function"
    },
    {
      "inputs": [
        {
          "internalType": "address",
          "name": "from",
          "type": "address"
        },
        {
          "internalType": "address",
          "name": "to",
          "type": "address"
        },
        {
          "internalType": "uint256[]",
          "name": "ids",
          "type": "uint256[]"
        },
        {
          "internalType": "uint256[]",
          "name": "amounts",
          "type": "uint256[]"
        },
        {
          "internalType": "bytes",
          "name": "data",
          "type": "bytes"
        }
      ],
      "name": "safeBatchTransferFrom",
      "outputs": [],
      "stateMutability": "nonpayable",
      "type": "function"
    },
    {
      "inputs": [
        {
          "internalType": "address",
          "name": "from",
          "type": "address"
        },
        {
          "internalType": "address",
          "name": "to",
          "type": "address"
        },
        {
          "internalType": "uint256",
          "name": "id",
          "type": "uint256"
        },
        {
          "internalType": "uint256",
          "name": "amount",
          "type": "uint256"
        },
        {
          "internalType": "bytes",
          "name": "data",
          "type": "bytes"
        }
      ],
      "name": "safeTransferFrom",
      "outputs": [],
      "stateMutability": "nonpayable",
      "type": "function"
    },
    {
      "inputs": [
        {
          "internalType": "address",
          "name": "operator",
          "type": "address"
        },
        {
          "internalType": "bool",
          "name": "approved",
          "type": "bool"
        }
      ],
      "name": "setApprovalForAll",
      "outputs": [],
      "stateMutability": "nonpayable",
      "type": "function"
    },
    {
      "inputs": [
        {
          "internalType": "uint256",
          "name": "tokenId",
          "type": "uint256"
        },
        {
          "internalType": "address",
          "name": "receiver",
          "type": "address"
        },
        {
          "internalType": "uint96",
          "name": "feeNumerator",
          "type": "uint96"
        }
      ],
      "name": "setTokenRoyalty",
      "outputs": [],
      "stateMutability": "nonpayable",
      "type": "function"
    },
    {
      "inputs": [
        {
          "internalType": "uint256",
          "name": "tokenId",
          "type": "uint256"
        },
        {
          "internalType": "string",
          "name": "tokenURI",
          "type": "string"
        }
      ],
      "name": "setURI",
      "outputs": [],
      "stateMutability": "nonpayable",
      "type": "function"
    },
    {
      "inputs": [
        {
          "internalType": "bytes4",
          "name": "interfaceId",
          "type": "bytes4"
        }
      ],
      "name": "supportsInterface",
      "outputs": [
        {
          "internalType": "bool",
          "name": "",
          "type": "bool"
        }
      ],
      "stateMutability": "view",
      "type": "function"
    },
    {
      "inputs": [],
      "name": "symbol",
      "outputs": [
        {
          "internalType": "string",
          "name": "",
          "type": "string"
        }
      ],
      "stateMutability": "view",
      "type": "function"
    },
    {
      "inputs": [
        {
          "internalType": "uint256",
          "name": "id",
          "type": "uint256"
        }
      ],
      "name": "totalSupply",
      "outputs": [
        {
          "internalType": "uint256",
          "name": "",
          "type": "uint256"
        }
      ],
      "stateMutability": "view",
      "type": "function"
    },
    {
      "inputs": [
        {
          "internalType": "uint256",
          "name": "tokenId",
          "type": "uint256"
        }
      ],
      "name": "uri",
      "outputs": [
        {
          "internalType": "string",
          "name": "",
          "type": "string"
        }
      ],
      "stateMutability": "view",
      "type": "function"
    }
  ],
  "bytecode": "0x60a0346200010057602081016001600160401b03811182821017620000ec576040525f8091526200003260025462000104565b601f8111620000ab575b50806002556200004e60045462000104565b601f811162000087575b5f600455336080526040516127909081620001588239608051818181610ec1015281816110b401526115920152f35b601f6020836004620000a3955220910160051c8101906200013f565b5f8062000058565b60028252620000e590601f0160051c7f405787fa12a823e0f2b7631cc41b3ba8828b3321ca811111fa75cd3aa3bb5ace908101906200013f565b5f6200003c565b634e487b7160e01b5f52604160045260245ffd5b5f80fd5b90600182811c9216801562000134575b60208310146200012057565b634e487b7160e01b5f52602260045260245ffd5b91607f169162000114565b8181106200014b575050565b5f81556001016200013f56fe60806040526004361015610011575f80fd5b5f3560e01c8062fdd58e14611e2d57806301ffc9a714611da557806306fdde0314611cfd5780630e89341c14611cca5780632a55205a14611c205780632eb2c2d6146118715780634e1273f4146116d45780634f558e79146116a85780635944c753146115565780636b20c45414611314578063731133e914611066578063862440e214610e6d5780638da5cb5b14610e4157806395d89b4114610d60578063a22cb46514610c80578063b2b45df5146107fe578063bd85b039146107d4578063e92331481461076a578063e985e9c514610718578063f242432a146103055763f5298aca146100ff575f80fd5b3461030157606036600319011261030157610118611e5c565b60249060448035916001600160a01b031690833533831480156102dc575b61013f9061211e565b82159261014c84156123eb565b610155826123c6565b9161015f866123c6565b945f60405161016d81611edb565b52610285575b5f5b83518110156102095761018881856120f6565b5161019382886120f6565b5190805f526003602081815260405f2054928484106101c857906101c395949392915f52520360405f20556120e8565b610175565b506084905f8051602061273b8339815191528a60288f6040519462461bcd60e51b8652600486015284015282015267616c537570706c7960c01b6064820152fd5b5f838389818452836020526040842083855260205280604085205461023082821015612443565b838652856020526040862085875260205203604085205560405191825260208201527fc3d58168c5ae7397731d063d5bbf3d657854427343f4c083240f7aacaa2d0f6260403392a4610283604051611edb565b005b94919592905f5b87518110156102d157806102a36102cc92886120f6565b516102ae828b6120f6565b515f5260036020526102c560405f2091825461223a565b90556120e8565b61028c565b509092959194610173565b50825f52600160205260405f20335f5260205261013f60ff60405f2054169050610136565b5f80fd5b346103015760a03660031901126103015761031e611e5c565b610326611e72565b6084356001600160401b03811161030157610345903690600401612017565b6001600160a01b039190838316331480156106f1575b6103649061211e565b828216156103728115612181565b61037d6044356123c6565b906103896064356123c6565b90858716156106b6575b610612575b6044355f525f60205260405f208587165f5260205260405f20546103c06064358210156121db565b6044355f90815260208181526040808320898b16845290915280822060643593849003905586881682529020805490916103f99161223a565b90556040516044358152606435602082015285851690868816907fc3d58168c5ae7397731d063d5bbf3d657854427343f4c083240f7aacaa2d0f6260403392a482516105a6575b5050813b61044a57005b602091610495915f6040519586809581948363f23a6e6160e01b9b8c85523360048601521660248401526044356044840152606435606484015260a0608484015260a4830190611f38565b0393165af15f9181610575575b5061050e576104af6122e9565b6308c379a0146104d7575b60405162461bcd60e51b8152806104d360048201612371565b0390fd5b6104df612304565b806104ea57506104ba565b60405162461bcd60e51b8152602060048201529081906104d3906024830190611f38565b6001600160e01b0319160361051f57005b60405162461bcd60e51b815260206004820152602860248201527f455243313135353a204552433131353552656365697665722072656a656374656044820152676420746f6b656e7360c01b6064820152608490fd5b61059891925060203d60201161059f575b6105908183611ef6565b8101906122c9565b90836104a2565b503d610586565b7f64b6d1b9c6726b4405acbd47f33ee45712403cd8422e6b9ccb562c0dec7965d4916106086105fa6105ec93604051948594338652608060208701526080860190612035565b908482036040860152612035565b828103606084015285611f38565b0390a18480610440565b94919390925f5b84518110156106ab5761062c81866120f6565b519061063881896120f6565b51825f52600360205260405f205481811061066857610663935f5260036020520360405f20556120e8565b610619565b60405162461bcd60e51b815260206004820152602860248201525f8051602061273b833981519152604482015267616c537570706c7960c01b6064820152608490fd5b509290939194610398565b9491939095925f5b85518110156106e557806106d56106e0928a6120f6565b516102ae82896120f6565b6106be565b50929590939194610393565b508284165f52600160205260405f20335f5260205261036460ff60405f205416905061035b565b3461030157604036600319011261030157610731611e5c565b610739611e72565b9060018060a01b038091165f52600160205260405f2091165f52602052602060ff60405f2054166040519015158152f35b3461030157602080600319360112610301576001600160601b036004358181168103610301575b81811690815f526003845260405f2054156107ca57508181146107b657600101610791565b634e487b7160e01b5f52601160045260245ffd5b6040519216825250f35b34610301576020366003190112610301576004355f526003602052602060405f2054604051908152f35b3461030157606036600319011261030157610817611e5c565b6001600160401b039060243582811161030157610838903690600401612017565b9160443581811161030157610851903690600401612017565b9060069081549260ff8460081c161595868097610c73575b8015610c5c575b15610c0057600194878660ff198316178655610bef575b508051838111610ae3578061089d600954611e88565b92601f93848111610b81575b50602090848311600114610b02575f92610af7575b50505f19600383901b1c191690861b176009555b8151928311610ae35782916108e8600a54611e88565b828111610a73575b5060209183116001146109f4575f926109e9575b50505f19600383901b1c191690831b17600a555b80549260ff8460081c16156109905762010000600160b01b0360109190911b1662010000600160b01b03198416811782559361095057005b610100600160b01b031990921690921790556040519081527f7f26b83ff96e1f2b6a682f133852f6798a09c465da95921460cefb384740249890602090a1005b60405162461bcd60e51b815260206004820152602b60248201527f496e697469616c697a61626c653a20636f6e7472616374206973206e6f74206960448201526a6e697469616c697a696e6760a81b6064820152608490fd5b015190508680610904565b90859350601f19831691600a5f527fc65a7bb8d6351c1cf70c95a316cc6a92839c986682d98bc35f958f4883f9d2a8925f5b818110610a5b57508411610a43575b505050811b01600a55610918565b01515f1960f88460031b161c19169055868080610a35565b82840151855588969094019360209384019301610a26565b90919250600a5f527fc65a7bb8d6351c1cf70c95a316cc6a92839c986682d98bc35f958f4883f9d2a88380860160051c82019260208710610ada575b91869589929594930160051c01915b828110610acc5750506108f0565b5f8155869550889101610abe565b92508192610aaf565b634e487b7160e01b5f52604160045260245ffd5b0151905089806108be565b90889350601f1983169160095f527f6e1540171b6c0c960b71a7020d9f60077f6af931a8bbf590da0223dacf75c7af925f5b818110610b6957508411610b51575b505050811b016009556108d2565b01515f1960f88460031b161c19169055898080610b43565b8284015185558b969094019360209384019301610b34565b90915060095f527f6e1540171b6c0c960b71a7020d9f60077f6af931a8bbf590da0223dacf75c7af8480850160051c82019260208610610be6575b918a91869594930160051c01915b828110610bd85750506108a9565b5f81558594508a9101610bca565b92508192610bbc565b61ffff191661010117845587610887565b60405162461bcd60e51b815260206004820152602e60248201527f496e697469616c697a61626c653a20636f6e747261637420697320616c72656160448201526d191e481a5b9a5d1a585b1a5e995960921b6064820152608490fd5b50303b1580156108705750600160ff861614610870565b50600160ff861610610869565b3461030157604036600319011261030157610c99611e5c565b60243590811515809203610301576001600160a01b031690338214610d0957335f52600160205260405f20825f5260205260405f2060ff1981541660ff83161790556040519081527f17307eab39ab6107e8899845ad3d59bd9653f200f220920489ca2b5937696c3160203392a3005b60405162461bcd60e51b815260206004820152602960248201527f455243313135353a2073657474696e6720617070726f76616c20737461747573604482015268103337b91039b2b63360b91b6064820152608490fd5b34610301575f36600319011261030157604051600a545f82610d8183611e88565b918282526020936001908582821691825f14610e21575050600114610dc6575b50610dae92500383611ef6565b610dc2604051928284938452830190611f38565b0390f35b849150600a5f527fc65a7bb8d6351c1cf70c95a316cc6a92839c986682d98bc35f958f4883f9d2a8905f915b858310610e09575050610dae935082010185610da1565b80548389018501528794508693909201918101610df2565b60ff191685820152610dae95151560051b8501019250879150610da19050565b34610301575f3660031901126103015760065460405160109190911c6001600160a01b03168152602090f35b34610301576040366003190112610301576001600160401b0360043560243582811161030157366023820112156103015780600401359083821161030157366024838301011161030157610ef991610eef337f00000000000000000000000000000000000000000000000000000000000000006001600160a01b03161461249b565b6024369201611fd2565b91815f526020906005825260405f20908451908111610ae357610f1c8254611e88565b601f8111611023575b5082601f8211600114610fa05781907f6bb7ff708619ba0610cba295a58592e0451dee2622938c8755667688daf3529b95965f92610f95575b50508160011b915f199060031b1c19161790555b610f7b836124fd565b90610f90604051928284938452830190611f38565b0390a2005b015190508680610f5e565b601f19821695835f52845f20965f5b81811061100c5750917f6bb7ff708619ba0610cba295a58592e0451dee2622938c8755667688daf3529b969791846001959410610ff4575b505050811b019055610f72565b01515f1960f88460031b161c19169055868080610fe7565b838301518955600190980197928601928601610faf565b825f52835f20601f830160051c81019185841061105c575b601f0160051c01905b8181106110515750610f25565b5f8155600101611044565b909150819061103b565b346103015760803660031901126103015761107f611e5c565b604435906024356064356001600160401b038111610301576110a5903690600401612017565b906001600160a01b036110db337f000000000000000000000000000000000000000000000000000000000000000083161461249b565b831680156112c5576110ec826123c6565b946110f6816123c6565b935f5b875181101561111557806102a361111092886120f6565b6110f9565b50858795855f526020965f885260405f20865f52885260405f2061113a86825461223a565b9055855f604051898152878b8201527fc3d58168c5ae7397731d063d5bbf3d657854427343f4c083240f7aacaa2d0f6260403392a4878451611268575b5050503b61118157005b6111c49285925f60405180968195829463f23a6e6160e01b9a8b85523360048601528560248601526044850152606484015260a0608484015260a4830190611f38565b03925af15f9181611249575b5061123657826111de6122e9565b6308c379a0146112015760405162461bcd60e51b8152806104d360048201612371565b611209612304565b908161121557506104ba565b6104d360405192839262461bcd60e51b845260048401526024830190611f38565b6001600160e01b03191603905061051f57005b611261919250843d861161059f576105908183611ef6565b90846111d0565b6112ba6112ac7f64b6d1b9c6726b4405acbd47f33ee45712403cd8422e6b9ccb562c0dec7965d4946105ec6080956040519687963388528701526080860190612035565b828103606084015286611f38565b0390a1868087611177565b60405162461bcd60e51b815260206004820152602160248201527f455243313135353a206d696e7420746f20746865207a65726f206164647265736044820152607360f81b6064820152608490fd5b346103015760603660031901126103015761132d611e5c565b6024906001600160401b0390823582811161030157611350903690600401611f74565b9160449081359081116103015761136b903690600401611f74565b6001600160a01b03909216923384148015611531575b61138a9061211e565b831561139681156123eb565b6113a38251855114612247565b5f6040516113b081611edb565b526114fa575b5f5b815181101561144c576113cb81836120f6565b516113d682866120f6565b5190805f526003602081815260405f20549284841061140b579061140695949392915f52520360405f20556120e8565b6113b8565b60405162461bcd60e51b8152600481018390526028818d01525f8051602061273b833981519152818a015267616c537570706c7960c01b6064820152608490fd5b8382865f5b82518110156114b657806114686114b192856120f6565b5161147382876120f6565b5190805f5260205f815260405f20865f52815260405f20549161149884841015612443565b5f525f815260405f2090865f52520360405f20556120e8565b611451565b50907f4a39dc06d4c0dbc64b70af90fd698a233a518aa5d07e595d983b8c0526c8f7fb6114ec5f946040519182913395836122a4565b0390a4610283604051611edb565b925f9491945b8451811015611527578061151761152292866120f6565b516102ae82886120f6565b611500565b50929390936113b6565b50835f52600160205260405f20335f5260205261138a60ff60405f2054169050611381565b346103015760603660031901126103015761156f611e72565b6044356001600160601b038116809103610301576001600160a01b03916115b9337f000000000000000000000000000000000000000000000000000000000000000085161461249b565b612710821161165057821691821561160b57604051926115d884611ec0565b8352602083019182526004355f52600860205260405f20925116906001600160601b0360a01b905160a01b161790555f80f35b60405162461bcd60e51b815260206004820152601b60248201527f455243323938313a20496e76616c696420706172616d657465727300000000006044820152606490fd5b60405162461bcd60e51b815260206004820152602a60248201527f455243323938313a20726f79616c7479206665652077696c6c206578636565646044820152692073616c65507269636560b01b6064820152608490fd5b34610301576020366003190112610301576004355f526003602052602060405f20541515604051908152f35b34610301576040366003190112610301576004356001600160401b0380821161030157366023830112156103015781600401359061171182611f5d565b9261171f6040519485611ef6565b82845260209260248486019160051b8301019136831161030157602401905b8282106118525750505060243590811161030157611760903690600401611f74565b82518151036117fb5782519261177584611f5d565b936117836040519586611ef6565b808552611792601f1991611f5d565b0136848601375f5b81518110156117e4576117df906117cf6001600160a01b036117bc83866120f6565b51166117c883876120f6565b5190612068565b6117d982886120f6565b526120e8565b61179a565b505050610dc2604051928284938452830190612035565b60405162461bcd60e51b815260048101839052602960248201527f455243313135353a206163636f756e747320616e6420696473206c656e677468604482015268040dad2e6dac2e8c6d60bb1b6064820152608490fd5b81356001600160a01b038116810361030157815290840190840161173e565b346103015760031960a0368201126103015761188b611e5c565b90611894611e72565b6044908135926001600160401b0393848111610301576118b8903690600401611f74565b60648035868111610301576118d1903690600401611f74565b946084968735908111610301576118ec903690600401612017565b6001600160a01b039489861633148015611bf9575b61190a9061211e565b6119178551895114612247565b858716156119258115612181565b868b1615611bb7575b611b08575b5f5b85518110156119bc578061194c6119b792886120f6565b518c611958838d6120f6565b5191805f52826020925f845260405f208d82165f52845260405f205490611981838310156121db565b835f525f85528d60405f2091165f5284520360405f20555f525f815260405f20908a8c165f52526102c560405f2091825461223a565b611935565b50888a989796949789604051887f4a39dc06d4c0dbc64b70af90fd698a233a518aa5d07e595d983b8c0526c8f7fb89808d16941692806119fe873395836122a4565b0390a48351611aa2575b873b611a1057005b60405198899788968863bc197c8160e01b9d8e8a523360048b0152166024890152870160a0905260a48701611a4491612035565b90848783030190870152611a5791612035565b918483030190840152611a6991611f38565b03921691815a6020945f91f15f9181611a89575061050e576104af6122e9565b61059891925060203d811161059f576105908183611ef6565b7f64b6d1b9c6726b4405acbd47f33ee45712403cd8422e6b9ccb562c0dec7965d46040513381526080602082015280611b00611af2611ae4608084018d612035565b838103604085015286612035565b828103606084015288611f38565b0390a1611a08565b979694905f9993999692965b8551811015611ba757611b2781876120f6565b51611b3282896120f6565b5190805f5260206003815260405f205491838310611b6757611b62949392916003915f52520360405f20556120e8565b611b14565b508b9067616c537570706c7960c01b8f5f8051602061273b8339815191528e6040519462461bcd60e51b8652600486015260286024860152840152820152fd5b5090949697989298959195611933565b9996949895939291905f5b8a51811015611bea57808b6102ae82611bde611be5958f6120f6565b51926120f6565b611bc2565b5090919293959894969961192e565b50858a165f52600160205260405f20335f5260205261190a60ff60405f2054169050611901565b34610301576040366003190112610301576024356004355f52600860205260405f209060405191611c5083611ec0565b546001600160a01b0380821680855260a09290921c6020850152929015611ca8575b6001600160601b03602082015116918281029281840414901517156107b657604092612710915116918351928352046020820152f35b50604051611cb581611ec0565b600754838116825260a01c6020820152611c72565b3461030157602036600319011261030157610dc2611ce96004356124fd565b604051918291602083526020830190611f38565b34610301575f366003190112610301576040516009545f82611d1e83611e88565b918282526020936001908582821691825f14610e21575050600114611d4a5750610dae92500383611ef6565b84915060095f527f6e1540171b6c0c960b71a7020d9f60077f6af931a8bbf590da0223dacf75c7af905f915b858310611d8d575050610dae935082010185610da1565b80548389018501528794508693909201918101611d76565b346103015760203660031901126103015760043563ffffffff60e01b81168091036103015760209063152a902d60e11b8114908115611dea575b506040519015158152f35b636cdb3d1360e11b811491508115611e1c575b8115611e0b575b5082611ddf565b6301ffc9a760e01b14905082611e04565b6303a24d0760e21b81149150611dfd565b34610301576040366003190112610301576020611e54611e4b611e5c565b60243590612068565b604051908152f35b600435906001600160a01b038216820361030157565b602435906001600160a01b038216820361030157565b90600182811c92168015611eb6575b6020831014611ea257565b634e487b7160e01b5f52602260045260245ffd5b91607f1691611e97565b604081019081106001600160401b03821117610ae357604052565b602081019081106001600160401b03821117610ae357604052565b90601f801991011681019081106001600160401b03821117610ae357604052565b5f5b838110611f285750505f910152565b8181015183820152602001611f19565b90602091611f5181518092818552858086019101611f17565b601f01601f1916010190565b6001600160401b038111610ae35760051b60200190565b9080601f83011215610301576020908235611f8e81611f5d565b93611f9c6040519586611ef6565b818552838086019260051b820101928311610301578301905b828210611fc3575050505090565b81358152908301908301611fb5565b9291926001600160401b038211610ae35760405191611ffb601f8201601f191660200184611ef6565b829481845281830111610301578281602093845f960137010152565b9080601f830112156103015781602061203293359101611fd2565b90565b9081518082526020808093019301915f5b828110612054575050505090565b835185529381019392810192600101612046565b6001600160a01b0316908115612090575f525f60205260405f20905f5260205260405f205490565b60405162461bcd60e51b815260206004820152602a60248201527f455243313135353a2061646472657373207a65726f206973206e6f742061207660448201526930b634b21037bbb732b960b11b6064820152608490fd5b5f1981146107b65760010190565b805182101561210a5760209160051b010190565b634e487b7160e01b5f52603260045260245ffd5b1561212557565b60405162461bcd60e51b815260206004820152602e60248201527f455243313135353a2063616c6c6572206973206e6f7420746f6b656e206f776e60448201526d195c881bdc88185c1c1c9bdd995960921b6064820152608490fd5b1561218857565b60405162461bcd60e51b815260206004820152602560248201527f455243313135353a207472616e7366657220746f20746865207a65726f206164604482015264647265737360d81b6064820152608490fd5b156121e257565b60405162461bcd60e51b815260206004820152602a60248201527f455243313135353a20696e73756666696369656e742062616c616e636520666f60448201526939103a3930b739b332b960b11b6064820152608490fd5b919082018092116107b657565b1561224e57565b60405162461bcd60e51b815260206004820152602860248201527f455243313135353a2069647320616e6420616d6f756e7473206c656e677468206044820152670dad2e6dac2e8c6d60c31b6064820152608490fd5b90916122bb61203293604084526040840190612035565b916020818403910152612035565b9081602091031261030157516001600160e01b0319811681036103015790565b5f9060033d116122f557565b905060045f803e5f5160e01c90565b5f60443d1061203257604051600319913d83016004833e81516001600160401b03918282113d60248401111761236057818401948551938411612368573d85010160208487010111612360575061203292910160200190611ef6565b949350505050565b50949350505050565b60809060208152603460208201527f455243313135353a207472616e7366657220746f206e6f6e2d455243313135356040820152732932b1b2b4bb32b91034b6b83632b6b2b73a32b960611b60608201520190565b604051906123d382611ec0565b6001825260208201602036823782511561210a575290565b156123f257565b60405162461bcd60e51b815260206004820152602360248201527f455243313135353a206275726e2066726f6d20746865207a65726f206164647260448201526265737360e81b6064820152608490fd5b1561244a57565b60405162461bcd60e51b8152602060048201526024808201527f455243313135353a206275726e20616d6f756e7420657863656564732062616c604482015263616e636560e01b6064820152608490fd5b156124a257565b60405162461bcd60e51b815260206004820152602d60248201527f4b617469626568313135353a207265737472696374656420616363657373207460448201526c6f2074686520466163746f727960981b6064820152608490fd5b5f9081526020906005825260408120906040519080918354928161252085611e88565b91828252878201966001968988821691825f1461271c5750506001146126de575b5061254e92500382611ef6565b80511561262357604051948593836004549161256983611e88565b9281811690811561260257506001146125a2575b5050505061259361203294839251938491611f17565b0103601f198101835282611ef6565b909192969450600482527f8a35acfbc15ff81a39ae7d344fd709f28e8600b4aa8c65c6b64bfe7fe36bd19b5b8383106125ec57505050612032946125939185010192945f8061257d565b80548984018901528896509187019181016125ce565b60ff1916888601525050508015150284010191506125936120325f8061257d565b506040516002549094935084928261263a83611e88565b808652928281169081156126bc5750600114612660575b50505061203292500382611ef6565b600281527f405787fa12a823e0f2b7631cc41b3ba8828b3321ca811111fa75cd3aa3bb5ace95935091905b8183106126a457505061203293508201015f8080612651565b8554878401850152948501948694509183019161268b565b9250505061203294925060ff191682840152151560051b8201015f8080612651565b915050835281868085208686915b85831061270357505061254e93508201015f612541565b80919294505483858801015201910187908685936126ec565b60ff19168a5261254e95151560051b85010192505f9150612541905056fe455243313135353a206275726e20616d6f756e74206578636565647320746f74a2646970667358221220da02185057b8410365f74bc9d089ce7bd127adfbd2abae108ef9d2dd2c158ba964736f6c63430008150033",
  "linkReferences": {},
  "deployedLinkReferences": {}
}