{
  "_format": "hh-sol-artifact-1",
  "contractName": "Katibeh1155",
  "sourceName": "contracts/katibeh1155/Katibeh1155.sol",
  "abi": [
    {
      "inputs": [],
      "stateMutability": "nonpayable",
      "type": "constructor"
    },
    {
      "anonymous": false,
      "inputs": [
        {
          "indexed": true,
          "internalType": "address",
          "name": "account",
          "type": "address"
        },
        {
          "indexed": true,
          "internalType": "address",
          "name": "operator",
          "type": "address"
        },
        {
          "indexed": false,
          "internalType": "bool",
          "name": "approved",
          "type": "bool"
        }
      ],
      "name": "ApprovalForAll",
      "type": "event"
    },
    {
      "anonymous": false,
      "inputs": [
        {
          "indexed": false,
          "internalType": "uint8",
          "name": "version",
          "type": "uint8"
        }
      ],
      "name": "Initialized",
      "type": "event"
    },
    {
      "anonymous": false,
      "inputs": [
        {
          "indexed": true,
          "internalType": "address",
          "name": "operator",
          "type": "address"
        },
        {
          "indexed": true,
          "internalType": "address",
          "name": "from",
          "type": "address"
        },
        {
          "indexed": true,
          "internalType": "address",
          "name": "to",
          "type": "address"
        },
        {
          "indexed": false,
          "internalType": "uint256[]",
          "name": "ids",
          "type": "uint256[]"
        },
        {
          "indexed": false,
          "internalType": "uint256[]",
          "name": "values",
          "type": "uint256[]"
        }
      ],
      "name": "TransferBatch",
      "type": "event"
    },
    {
      "anonymous": false,
      "inputs": [
        {
          "indexed": true,
          "internalType": "address",
          "name": "operator",
          "type": "address"
        },
        {
          "indexed": true,
          "internalType": "address",
          "name": "from",
          "type": "address"
        },
        {
          "indexed": true,
          "internalType": "address",
          "name": "to",
          "type": "address"
        },
        {
          "indexed": false,
          "internalType": "uint256",
          "name": "id",
          "type": "uint256"
        },
        {
          "indexed": false,
          "internalType": "uint256",
          "name": "value",
          "type": "uint256"
        }
      ],
      "name": "TransferSingle",
      "type": "event"
    },
    {
      "anonymous": false,
      "inputs": [
        {
          "indexed": false,
          "internalType": "string",
          "name": "value",
          "type": "string"
        },
        {
          "indexed": true,
          "internalType": "uint256",
          "name": "id",
          "type": "uint256"
        }
      ],
      "name": "URI",
      "type": "event"
    },
    {
      "inputs": [
        {
          "internalType": "address",
          "name": "account",
          "type": "address"
        },
        {
          "internalType": "uint256",
          "name": "id",
          "type": "uint256"
        }
      ],
      "name": "balanceOf",
      "outputs": [
        {
          "internalType": "uint256",
          "name": "",
          "type": "uint256"
        }
      ],
      "stateMutability": "view",
      "type": "function"
    },
    {
      "inputs": [
        {
          "internalType": "address[]",
          "name": "accounts",
          "type": "address[]"
        },
        {
          "internalType": "uint256[]",
          "name": "ids",
          "type": "uint256[]"
        }
      ],
      "name": "balanceOfBatch",
      "outputs": [
        {
          "internalType": "uint256[]",
          "name": "",
          "type": "uint256[]"
        }
      ],
      "stateMutability": "view",
      "type": "function"
    },
    {
      "inputs": [
        {
          "internalType": "address",
          "name": "account",
          "type": "address"
        },
        {
          "internalType": "uint256",
          "name": "id",
          "type": "uint256"
        },
        {
          "internalType": "uint256",
          "name": "value",
          "type": "uint256"
        }
      ],
      "name": "burn",
      "outputs": [],
      "stateMutability": "nonpayable",
      "type": "function"
    },
    {
      "inputs": [
        {
          "internalType": "address",
          "name": "account",
          "type": "address"
        },
        {
          "internalType": "uint256[]",
          "name": "ids",
          "type": "uint256[]"
        },
        {
          "internalType": "uint256[]",
          "name": "values",
          "type": "uint256[]"
        }
      ],
      "name": "burnBatch",
      "outputs": [],
      "stateMutability": "nonpayable",
      "type": "function"
    },
    {
      "inputs": [
        {
          "internalType": "uint256",
          "name": "id",
          "type": "uint256"
        }
      ],
      "name": "exists",
      "outputs": [
        {
          "internalType": "bool",
          "name": "",
          "type": "bool"
        }
      ],
      "stateMutability": "view",
      "type": "function"
    },
    {
      "inputs": [
        {
          "internalType": "address",
          "name": "owner_",
          "type": "address"
        },
        {
          "internalType": "string",
          "name": "name_",
          "type": "string"
        },
        {
          "internalType": "string",
          "name": "symbol_",
          "type": "string"
        }
      ],
      "name": "init",
      "outputs": [],
      "stateMutability": "nonpayable",
      "type": "function"
    },
    {
      "inputs": [
        {
          "internalType": "address",
          "name": "account",
          "type": "address"
        },
        {
          "internalType": "address",
          "name": "operator",
          "type": "address"
        }
      ],
      "name": "isApprovedForAll",
      "outputs": [
        {
          "internalType": "bool",
          "name": "",
          "type": "bool"
        }
      ],
      "stateMutability": "view",
      "type": "function"
    },
    {
      "inputs": [
        {
          "internalType": "address",
          "name": "addr",
          "type": "address"
        },
        {
          "internalType": "uint256",
          "name": "id",
          "type": "uint256"
        },
        {
          "internalType": "uint256",
          "name": "amount",
          "type": "uint256"
        },
        {
          "internalType": "bytes",
          "name": "data",
          "type": "bytes"
        }
      ],
      "name": "mint",
      "outputs": [],
      "stateMutability": "nonpayable",
      "type": "function"
    },
    {
      "inputs": [],
      "name": "name",
      "outputs": [
        {
          "internalType": "string",
          "name": "",
          "type": "string"
        }
      ],
      "stateMutability": "view",
      "type": "function"
    },
    {
      "inputs": [],
      "name": "owner",
      "outputs": [
        {
          "internalType": "address",
          "name": "",
          "type": "address"
        }
      ],
      "stateMutability": "view",
      "type": "function"
    },
    {
      "inputs": [
        {
          "internalType": "uint256",
          "name": "tokenId",
          "type": "uint256"
        },
        {
          "internalType": "uint256",
          "name": "salePrice",
          "type": "uint256"
        }
      ],
      "name": "royaltyInfo",
      "outputs": [
        {
          "internalType": "address",
          "name": "",
          "type": "address"
        },
        {
          "internalType": "uint256",
          "name": "",
          "type": "uint256"
        }
      ],
      "stateMutability": "view",
      "type": "function"
    },
    {
      "inputs": [
        {
          "internalType": "address",
          "name": "from",
          "type": "address"
        },
        {
          "internalType": "address",
          "name": "to",
          "type": "address"
        },
        {
          "internalType": "uint256[]",
          "name": "ids",
          "type": "uint256[]"
        },
        {
          "internalType": "uint256[]",
          "name": "amounts",
          "type": "uint256[]"
        },
        {
          "internalType": "bytes",
          "name": "data",
          "type": "bytes"
        }
      ],
      "name": "safeBatchTransferFrom",
      "outputs": [],
      "stateMutability": "nonpayable",
      "type": "function"
    },
    {
      "inputs": [
        {
          "internalType": "address",
          "name": "from",
          "type": "address"
        },
        {
          "internalType": "address",
          "name": "to",
          "type": "address"
        },
        {
          "internalType": "uint256",
          "name": "id",
          "type": "uint256"
        },
        {
          "internalType": "uint256",
          "name": "amount",
          "type": "uint256"
        },
        {
          "internalType": "bytes",
          "name": "data",
          "type": "bytes"
        }
      ],
      "name": "safeTransferFrom",
      "outputs": [],
      "stateMutability": "nonpayable",
      "type": "function"
    },
    {
      "inputs": [
        {
          "internalType": "address",
          "name": "operator",
          "type": "address"
        },
        {
          "internalType": "bool",
          "name": "approved",
          "type": "bool"
        }
      ],
      "name": "setApprovalForAll",
      "outputs": [],
      "stateMutability": "nonpayable",
      "type": "function"
    },
    {
      "inputs": [
        {
          "internalType": "uint256",
          "name": "tokenId",
          "type": "uint256"
        },
        {
          "internalType": "address",
          "name": "receiver",
          "type": "address"
        },
        {
          "internalType": "uint96",
          "name": "feeNumerator",
          "type": "uint96"
        }
      ],
      "name": "setTokenRoyalty",
      "outputs": [],
      "stateMutability": "nonpayable",
      "type": "function"
    },
    {
      "inputs": [
        {
          "internalType": "uint256",
          "name": "tokenId",
          "type": "uint256"
        },
        {
          "internalType": "string",
          "name": "tokenURI",
          "type": "string"
        }
      ],
      "name": "setURI",
      "outputs": [],
      "stateMutability": "nonpayable",
      "type": "function"
    },
    {
      "inputs": [
        {
          "internalType": "bytes4",
          "name": "interfaceId",
          "type": "bytes4"
        }
      ],
      "name": "supportsInterface",
      "outputs": [
        {
          "internalType": "bool",
          "name": "",
          "type": "bool"
        }
      ],
      "stateMutability": "view",
      "type": "function"
    },
    {
      "inputs": [],
      "name": "symbol",
      "outputs": [
        {
          "internalType": "string",
          "name": "",
          "type": "string"
        }
      ],
      "stateMutability": "view",
      "type": "function"
    },
    {
      "inputs": [
        {
          "internalType": "uint256",
          "name": "id",
          "type": "uint256"
        }
      ],
      "name": "totalSupply",
      "outputs": [
        {
          "internalType": "uint256",
          "name": "",
          "type": "uint256"
        }
      ],
      "stateMutability": "view",
      "type": "function"
    },
    {
      "inputs": [
        {
          "internalType": "uint256",
          "name": "tokenId",
          "type": "uint256"
        }
      ],
      "name": "uri",
      "outputs": [
        {
          "internalType": "string",
          "name": "",
          "type": "string"
        }
      ],
      "stateMutability": "view",
      "type": "function"
    }
  ],
  "bytecode": "0x608034620000e957602081016001600160401b03811182821017620000d357604052600080915262000033600254620000ee565b601f811162000092575b50806002556200004f600454620000ee565b601f81116200006e575b60006004556040516126579081620001458239f35b601f60208360046200008a955220910160051c8101906200012b565b388062000059565b60028252620000cc90601f0160051c7f405787fa12a823e0f2b7631cc41b3ba8828b3321ca811111fa75cd3aa3bb5ace908101906200012b565b386200003d565b634e487b7160e01b600052604160045260246000fd5b600080fd5b90600182811c9216801562000120575b60208310146200010a57565b634e487b7160e01b600052602260045260246000fd5b91607f1691620000fe565b81811062000137575050565b600081556001016200012b56fe6080604052600436101561001257600080fd5b60003560e01c8062fdd58e14611cec57806301ffc9a714611c6457806306fdde0314611bbe5780630e89341c14611b9f5780632a55205a14611add5780632eb2c2d6146117025780634e1273f4146115645780634f558e79146115365780635944c753146113fd5780636b20c454146111a3578063731133e914610ff0578063862440e214610e0b5780638da5cb5b14610dde57806395d89b4114610cf8578063a22cb46514610c14578063b2b45df51461076e578063bd85b03914610742578063e985e9c5146106ec578063f242432a1461030d5763f5298aca146100f757600080fd5b3461030857606036600319011261030857610110611d1b565b60249060448035916001600160a01b031690833533831480156102df575b61013790611feb565b82159261014484156122b0565b61014d8261228b565b916101578661228b565b94600060405161016681611d9c565b52610285575b60005b8351811015610208576101828185611fc1565b5161018d8288611fc1565b51908060005260036020818152604060002054928484106101c657906101c195949392916000525203604060002055611fb2565b61016f565b506084906000805160206126028339815191528a60288f6040519462461bcd60e51b8652600486015284015282015267616c537570706c7960c01b6064820152fd5b6000838389818452836020526040842083855260205280604085205461023082821015612308565b838652856020526040862085875260205203604085205560405191825260208201527fc3d58168c5ae7397731d063d5bbf3d657854427343f4c083240f7aacaa2d0f6260403392a4610283604051611d9c565b005b949195929060005b87518110156102d457806102a46102cf9288611fc1565b516102af828b611fc1565b5160005260036020526102c86040600020918254612107565b9055611fb2565b61028d565b50909295919461016c565b5082600052600160205260406000203360005260205261013760ff60406000205416905061012e565b600080fd5b346103085760a036600319011261030857610326611d1b565b61032e611d31565b90608480356001600160401b0381116103085761034f903690600401611edb565b6001600160a01b039190838316331480156106c1575b61036e90611feb565b8285161561037c811561204e565b61038760443561228b565b61039260643561228b565b9185871615610681575b6105d3575b505060443560005260209460008652604060002084861660005286526040600020546103d16064358210156120a8565b604435600052600087526040600020858716600052875260643590036040600020556044356000526000865260406000208482166000528652604060002061041c6064358254612107565b905560405160443581526064358782015284821690858716907fc3d58168c5ae7397731d063d5bbf3d657854427343f4c083240f7aacaa2d0f6260403392a4803b61046357005b60a060006104ad958895604051978896879586938563f23a6e6160e01b9d8e87523360048801521660248601526044356044860152606435606486015284015260a4830190611dfb565b0393165af1600091816105a4575b5061057a5750506001906104cd6121ff565b6308c379a014610545575b506104df57005b60405162461bcd60e51b815260206004820152603460248201527f455243313135353a207472616e7366657220746f206e6f6e2d455243313135356044820152732932b1b2b4bb32b91034b6b83632b6b2b73a32b960611b6064820152608490fd5b0390fd5b61054d61221d565b908161055957506104d8565b61054160405192839262461bcd60e51b845260048401526024830190611dfb565b6001600160e01b0319161490506102835760405162461bcd60e51b815280610541600482016121b6565b6105c5919250843d86116105cc575b6105bd8183611db7565b810190612196565b90846104bb565b503d6105b3565b92959194909360005b8451811015610672576105ef8186611fc1565b51906105fb8188611fc1565b5182600052600360205260406000205481811061062f5761062a93600052600360205203604060002055611fb2565b6105dc565b60405162461bcd60e51b81526020600482015260286024820152600080516020612602833981519152604482015267616c537570706c7960c01b60648201528b90fd5b509350939094915085806103a1565b959260009794919592975b86518110156106b357806106a36106ae928b611fc1565b516102af828a611fc1565b61068c565b50929596919490939661039c565b50828416600052600160205260406000203360005260205261036e60ff604060002054169050610365565b3461030857604036600319011261030857610705611d1b565b61070d611d31565b9060018060a01b03809116600052600160205260406000209116600052602052602060ff604060002054166040519015158152f35b346103085760203660031901126103085760043560005260036020526020604060002054604051908152f35b3461030857606036600319011261030857610787611d1b565b6001600160401b0390602435828111610308576107a8903690600401611edb565b91604435818111610308576107c1903690600401611edb565b9060069081549260ff8460081c161595868097610c07575b8015610bf0575b15610b9457600194878660ff198316178655610b83575b508051838111610a70578061080d600a54611d47565b92601f93848111610b13575b50602090848311600114610a9157600092610a86575b5050600019600383901b1c191690861b17600a555b8151928311610a7057829161085a600b54611d47565b8281116109fe575b50602091831160011461097c57600092610971575b5050600019600383901b1c191690831b17600b555b336001600160601b0360a01b600954161760095580549260ff8460081c16156109185762010000600160b01b0360109190911b1662010000600160b01b0319841681178255936108d857005b610100600160b01b031990921690921790556040519081527f7f26b83ff96e1f2b6a682f133852f6798a09c465da95921460cefb384740249890602090a1005b60405162461bcd60e51b815260206004820152602b60248201527f496e697469616c697a61626c653a20636f6e7472616374206973206e6f74206960448201526a6e697469616c697a696e6760a81b6064820152608490fd5b015190508680610877565b90859350601f19831691600b6000527f0175b7a638427703f0dbe7bb9bbf987a2551717b34e79f33b5b1008d1fa01db99260005b8181106109e6575084116109cd575b505050811b01600b5561088c565b015160001960f88460031b161c191690558680806109bf565b828401518555889690940193602093840193016109b0565b90919250600b6000527f0175b7a638427703f0dbe7bb9bbf987a2551717b34e79f33b5b1008d1fa01db98380860160051c82019260208710610a67575b91869589929594930160051c01915b828110610a58575050610862565b60008155869550889101610a4a565b92508192610a3b565b634e487b7160e01b600052604160045260246000fd5b01519050898061082f565b90889350601f19831691600a6000527fc65a7bb8d6351c1cf70c95a316cc6a92839c986682d98bc35f958f4883f9d2a89260005b818110610afb57508411610ae2575b505050811b01600a55610844565b015160001960f88460031b161c19169055898080610ad4565b8284015185558b969094019360209384019301610ac5565b909150600a6000527fc65a7bb8d6351c1cf70c95a316cc6a92839c986682d98bc35f958f4883f9d2a88480850160051c82019260208610610b7a575b918a91869594930160051c01915b828110610b6b575050610819565b600081558594508a9101610b5d565b92508192610b4f565b61ffff1916610101178455876107f7565b60405162461bcd60e51b815260206004820152602e60248201527f496e697469616c697a61626c653a20636f6e747261637420697320616c72656160448201526d191e481a5b9a5d1a585b1a5e995960921b6064820152608490fd5b50303b1580156107e05750600160ff8616146107e0565b50600160ff8616106107d9565b3461030857604036600319011261030857610c2d611d1b565b60243590811515809203610308576001600160a01b031690338214610ca157336000526001602052604060002082600052602052604060002060ff1981541660ff83161790556040519081527f17307eab39ab6107e8899845ad3d59bd9653f200f220920489ca2b5937696c3160203392a3005b60405162461bcd60e51b815260206004820152602960248201527f455243313135353a2073657474696e6720617070726f76616c20737461747573604482015268103337b91039b2b63360b91b6064820152608490fd5b34610308576000366003190112610308576040516000600b54610d1a81611d47565b80845290600190818116908115610db75750600114610d5c575b610d5884610d4481860382611db7565b604051918291602083526020830190611dfb565b0390f35b600b600090815292507f0175b7a638427703f0dbe7bb9bbf987a2551717b34e79f33b5b1008d1fa01db95b828410610d9f575050508101602001610d4482610d34565b80546020858701810191909152909301928101610d87565b60ff191660208087019190915292151560051b85019092019250610d449150839050610d34565b346103085760003660031901126103085760065460405160109190911c6001600160a01b03168152602090f35b34610308576040366003190112610308576001600160401b0360043560243582811161030857366023820112156103085780600401359083821161030857366024838301011161030857610e7891610e6e60018060a01b03600954163314612360565b6024369201611e95565b9181600052602090600582526040600020908451908111610a7057610e9d8254611d47565b601f8111610faa575b5082601f8211600114610f235781907f6bb7ff708619ba0610cba295a58592e0451dee2622938c8755667688daf3529b9596600092610f18575b50508160011b916000199060031b1c19161790555b610efe836123c2565b90610f13604051928284938452830190611dfb565b0390a2005b015190508680610ee0565b601f1982169583600052846000209660005b818110610f935750917f6bb7ff708619ba0610cba295a58592e0451dee2622938c8755667688daf3529b969791846001959410610f7a575b505050811b019055610ef5565b015160001960f88460031b161c19169055868080610f6d565b838301518955600190980197928601928601610f35565b8260005283600020601f830160051c810191858410610fe6575b601f0160051c01905b818110610fda5750610ea6565b60008155600101610fcd565b9091508190610fc4565b3461030857608036600319011261030857611009611d1b565b604435906024356064356001600160401b0381116103085761102f903690600401611edb565b9160018060a01b0361104681600954163314612360565b8116918215611154576110588161228b565b926110628661228b565b9560005b855181101561108d578061107d611088928a611fc1565b516102af8289611fc1565b611066565b50858360005260209460008652604060002084600052865260406000206110b5848254612107565b905583600060405187815285898201527fc3d58168c5ae7397731d063d5bbf3d657854427343f4c083240f7aacaa2d0f6260403392a43b6110f257005b611136928592600060405180968195829463f23a6e6160e01b9a8b85523360048601528560248601526044850152606484015260a0608484015260a4830190611dfb565b03925af1600091816105a4575061057a5750506001906104cd6121ff565b60405162461bcd60e51b815260206004820152602160248201527f455243313135353a206d696e7420746f20746865207a65726f206164647265736044820152607360f81b6064820152608490fd5b34610308576060366003190112610308576111bc611d1b565b6024906001600160401b03908235828111610308576111df903690600401611e37565b916044908135908111610308576111fa903690600401611e37565b6001600160a01b039092169233841480156113d4575b61121990611feb565b831561122581156122b0565b6112328251855114612114565b600060405161124081611d9c565b5261139c575b60005b81518110156112e25761125c8183611fc1565b516112678286611fc1565b51908060005260036020818152604060002054928484106112a0579061129b95949392916000525203604060002055611fb2565b611249565b60405162461bcd60e51b8152600481018390526028818d0152600080516020612602833981519152818a015267616c537570706c7960c01b6064820152608490fd5b83828660005b825181101561135757806112ff6113529285611fc1565b5161130a8287611fc1565b51908060005260206000815260406000208660005281526040600020549161133484841015612308565b60005260008152604060002090866000525203604060002055611fb2565b6112e8565b50907f4a39dc06d4c0dbc64b70af90fd698a233a518aa5d07e595d983b8c0526c8f7fb61138e600094604051918291339583612171565b0390a4610283604051611d9c565b9260009491945b84518110156113ca57806113ba6113c59286611fc1565b516102af8288611fc1565b6113a3565b5092939093611246565b5083600052600160205260406000203360005260205261121960ff604060002054169050611210565b3461030857606036600319011261030857611416611d31565b6044356001600160601b038116809103610308576009546001600160a01b0392906114449084163314612360565b61271082116114de578216918215611499576040519261146384611d81565b83526020830191825260043560005260086020526040600020925116906001600160601b0360a01b905160a01b16179055600080f35b60405162461bcd60e51b815260206004820152601b60248201527f455243323938313a20496e76616c696420706172616d657465727300000000006044820152606490fd5b60405162461bcd60e51b815260206004820152602a60248201527f455243323938313a20726f79616c7479206665652077696c6c206578636565646044820152692073616c65507269636560b01b6064820152608490fd5b3461030857602036600319011261030857600435600052600360205260206040600020541515604051908152f35b34610308576040366003190112610308576004356001600160401b038082116103085736602383011215610308578160040135906115a182611e20565b926115af6040519485611db7565b82845260209260248486019160051b8301019136831161030857602401905b8282106116e357505050602435908111610308576115f0903690600401611e37565b825181510361168c5782519261160584611e20565b936116136040519586611db7565b808552611622601f1991611e20565b01368486013760005b815181101561167557611670906116606001600160a01b0361164d8386611fc1565b51166116598387611fc1565b5190611f2d565b61166a8288611fc1565b52611fb2565b61162b565b505050610d58604051928284938452830190611ef9565b60405162461bcd60e51b815260048101839052602960248201527f455243313135353a206163636f756e747320616e6420696473206c656e677468604482015268040dad2e6dac2e8c6d60bb1b6064820152608490fd5b81356001600160a01b03811681036103085781529084019084016115ce565b346103085760031960a0368201126103085761171c611d1b565b90611725611d31565b6044908135926001600160401b039384811161030857611749903690600401611e37565b6064803586811161030857611762903690600401611e37565b9460849687359081116103085761177d903690600401611edb565b6001600160a01b039489861633148015611ab2575b61179b90611feb565b6117a88551895114612114565b858716156117b6811561204e565b868b1615611a6f575b6119ba575b60005b855181101561185d57806117de6118589288611fc1565b518c6117ea838d611fc1565b519180600052826020926000845260406000208d8216600052845260406000205490611818838310156120a8565b83600052600085528d60406000209116600052845203604060002055600052600081526040600020908a8c16600052526102c86040600020918254612107565b6117c7565b50888a989796949789604051887f4a39dc06d4c0dbc64b70af90fd698a233a518aa5d07e595d983b8c0526c8f7fb89808d169416928061189f87339583612171565b0390a4873b6118aa57005b60405198899788968863bc197c8160e01b9d8e8a523360048b0152166024890152870160a0905260a487016118de91611ef9565b908487830301908701526118f191611ef9565b91848303019084015261190391611dfb565b03921691815a602094600091f16000918161199a575b50611972575050600161192a6121ff565b6308c379a01461193b575b6104df57005b61194361221d565b8061194e5750611935565b60405162461bcd60e51b815260206004820152908190610541906024830190611dfb565b6001600160e01b031916146102835760405162461bcd60e51b815280610541600482016121b6565b6119b391925060203d81116105cc576105bd8183611db7565b9083611919565b9796949060009993999692965b8551811015611a5f576119da8187611fc1565b516119e58289611fc1565b51908060005260206003815260406000205491838310611a1e57611a19949392916003916000525203604060002055611fb2565b6119c7565b508b9067616c537570706c7960c01b8f6000805160206126028339815191528e6040519462461bcd60e51b8652600486015260286024860152840152820152fd5b50909496979892989591956117c4565b99969498959392919060005b8a51811015611aa357808b6102af82611a97611a9e958f611fc1565b5192611fc1565b611a7b565b509091929395989496996117bf565b50858a16600052600160205260406000203360005260205261179b60ff604060002054169050611792565b3461030857604036600319011261030857602435600435600052600860205260406000209060405191611b0f83611d81565b546001600160a01b0380821680855260a09290921c6020850152929015611b7d575b6001600160601b0360208201511691828102928184041490151715611b6757604092612710915116918351928352046020820152f35b634e487b7160e01b600052601160045260246000fd5b50604051611b8a81611d81565b600754838116825260a01c6020820152611b31565b3461030857602036600319011261030857610d58610d446004356123c2565b34610308576000366003190112610308576040516000600a54611be081611d47565b80845290600190818116908115610db75750600114611c0957610d5884610d4481860382611db7565b600a600090815292507fc65a7bb8d6351c1cf70c95a316cc6a92839c986682d98bc35f958f4883f9d2a85b828410611c4c575050508101602001610d4482610d34565b80546020858701810191909152909301928101611c34565b346103085760203660031901126103085760043563ffffffff60e01b81168091036103085760209063152a902d60e11b8114908115611ca9575b506040519015158152f35b636cdb3d1360e11b811491508115611cdb575b8115611cca575b5082611c9e565b6301ffc9a760e01b14905082611cc3565b6303a24d0760e21b81149150611cbc565b34610308576040366003190112610308576020611d13611d0a611d1b565b60243590611f2d565b604051908152f35b600435906001600160a01b038216820361030857565b602435906001600160a01b038216820361030857565b90600182811c92168015611d77575b6020831014611d6157565b634e487b7160e01b600052602260045260246000fd5b91607f1691611d56565b604081019081106001600160401b03821117610a7057604052565b602081019081106001600160401b03821117610a7057604052565b90601f801991011681019081106001600160401b03821117610a7057604052565b60005b838110611deb5750506000910152565b8181015183820152602001611ddb565b90602091611e1481518092818552858086019101611dd8565b601f01601f1916010190565b6001600160401b038111610a705760051b60200190565b81601f8201121561030857803591611e4e83611e20565b92611e5c6040519485611db7565b808452602092838086019260051b820101928311610308578301905b828210611e86575050505090565b81358152908301908301611e78565b9291926001600160401b038211610a705760405191611ebe601f8201601f191660200184611db7565b829481845281830111610308578281602093846000960137010152565b9080601f8301121561030857816020611ef693359101611e95565b90565b90815180825260208080930193019160005b828110611f19575050505090565b835185529381019392810192600101611f0b565b6001600160a01b0316908115611f5a57600052600060205260406000209060005260205260406000205490565b60405162461bcd60e51b815260206004820152602a60248201527f455243313135353a2061646472657373207a65726f206973206e6f742061207660448201526930b634b21037bbb732b960b11b6064820152608490fd5b6000198114611b675760010190565b8051821015611fd55760209160051b010190565b634e487b7160e01b600052603260045260246000fd5b15611ff257565b60405162461bcd60e51b815260206004820152602e60248201527f455243313135353a2063616c6c6572206973206e6f7420746f6b656e206f776e60448201526d195c881bdc88185c1c1c9bdd995960921b6064820152608490fd5b1561205557565b60405162461bcd60e51b815260206004820152602560248201527f455243313135353a207472616e7366657220746f20746865207a65726f206164604482015264647265737360d81b6064820152608490fd5b156120af57565b60405162461bcd60e51b815260206004820152602a60248201527f455243313135353a20696e73756666696369656e742062616c616e636520666f60448201526939103a3930b739b332b960b11b6064820152608490fd5b91908201809211611b6757565b1561211b57565b60405162461bcd60e51b815260206004820152602860248201527f455243313135353a2069647320616e6420616d6f756e7473206c656e677468206044820152670dad2e6dac2e8c6d60c31b6064820152608490fd5b9091612188611ef693604084526040840190611ef9565b916020818403910152611ef9565b9081602091031261030857516001600160e01b0319811681036103085790565b60809060208152602860208201527f455243313135353a204552433131353552656365697665722072656a656374656040820152676420746f6b656e7360c01b60608201520190565b60009060033d1161220c57565b905060046000803e60005160e01c90565b600060443d10611ef657604051600319913d83016004833e81516001600160401b03918282113d60248401111761227a57818401948551938411612282573d8501016020848701011161227a5750611ef692910160200190611db7565b949350505050565b50949350505050565b6040519061229882611d81565b60018252602082016020368237825115611fd5575290565b156122b757565b60405162461bcd60e51b815260206004820152602360248201527f455243313135353a206275726e2066726f6d20746865207a65726f206164647260448201526265737360e81b6064820152608490fd5b1561230f57565b60405162461bcd60e51b8152602060048201526024808201527f455243313135353a206275726e20616d6f756e7420657863656564732062616c604482015263616e636560e01b6064820152608490fd5b1561236757565b60405162461bcd60e51b815260206004820152602d60248201527f4b617469626568313135353a207265737472696374656420616363657373207460448201526c6f2074686520466163746f727960981b6064820152608490fd5b6000908152602090600582526040812090604051908091835492816123e685611d47565b91828252878201966001968988821691826000146125e35750506001146125a5575b5061241592500382611db7565b8051156124ea57604051948593836004549161243083611d47565b928181169081156124c95750600114612469575b5050505061245a611ef694839251938491611dd8565b0103601f198101835282611db7565b909192969450600482527f8a35acfbc15ff81a39ae7d344fd709f28e8600b4aa8c65c6b64bfe7fe36bd19b5b8383106124b357505050611ef69461245a9185010192943880612444565b8054898401890152889650918701918101612495565b60ff19168886015250505080151502840101915061245a611ef63880612444565b506040516002549094935084928261250183611d47565b808652928281169081156125835750600114612527575b505050611ef692500382611db7565b600281527f405787fa12a823e0f2b7631cc41b3ba8828b3321ca811111fa75cd3aa3bb5ace95935091905b81831061256b575050611ef69350820101388080612518565b85548784018501529485019486945091830191612552565b92505050611ef694925060ff191682840152151560051b820101388080612518565b915050835281868085208686915b8583106125ca575050612415935082010138612408565b80919294505483858801015201910187908685936125b3565b60ff19168a5261241595151560051b8501019250389150612408905056fe455243313135353a206275726e20616d6f756e74206578636565647320746f74a264697066735822122013d4eabab9e227cabadfc4540d314e97959ddf27d8e6f4651d6e744153b0c40364736f6c63430008130033",
  "linkReferences": {},
  "deployedLinkReferences": {}
}