{
  "_format": "hh-sol-artifact-1",
  "contractName": "Katibeh1155",
  "sourceName": "contracts/katibeh1155/Katibeh1155.sol",
  "abi": [
    {
      "inputs": [],
      "stateMutability": "nonpayable",
      "type": "constructor"
    },
    {
      "anonymous": false,
      "inputs": [
        {
          "indexed": true,
          "internalType": "address",
          "name": "account",
          "type": "address"
        },
        {
          "indexed": true,
          "internalType": "address",
          "name": "operator",
          "type": "address"
        },
        {
          "indexed": false,
          "internalType": "bool",
          "name": "approved",
          "type": "bool"
        }
      ],
      "name": "ApprovalForAll",
      "type": "event"
    },
    {
      "anonymous": false,
      "inputs": [
        {
          "indexed": false,
          "internalType": "uint8",
          "name": "version",
          "type": "uint8"
        }
      ],
      "name": "Initialized",
      "type": "event"
    },
    {
      "anonymous": false,
      "inputs": [
        {
          "indexed": true,
          "internalType": "address",
          "name": "previousOwner",
          "type": "address"
        },
        {
          "indexed": true,
          "internalType": "address",
          "name": "newOwner",
          "type": "address"
        }
      ],
      "name": "OwnershipTransferred",
      "type": "event"
    },
    {
      "anonymous": false,
      "inputs": [
        {
          "indexed": true,
          "internalType": "address",
          "name": "operator",
          "type": "address"
        },
        {
          "indexed": true,
          "internalType": "address",
          "name": "from",
          "type": "address"
        },
        {
          "indexed": true,
          "internalType": "address",
          "name": "to",
          "type": "address"
        },
        {
          "indexed": false,
          "internalType": "uint256[]",
          "name": "ids",
          "type": "uint256[]"
        },
        {
          "indexed": false,
          "internalType": "uint256[]",
          "name": "values",
          "type": "uint256[]"
        }
      ],
      "name": "TransferBatch",
      "type": "event"
    },
    {
      "anonymous": false,
      "inputs": [
        {
          "indexed": true,
          "internalType": "address",
          "name": "operator",
          "type": "address"
        },
        {
          "indexed": true,
          "internalType": "address",
          "name": "from",
          "type": "address"
        },
        {
          "indexed": true,
          "internalType": "address",
          "name": "to",
          "type": "address"
        },
        {
          "indexed": false,
          "internalType": "uint256",
          "name": "id",
          "type": "uint256"
        },
        {
          "indexed": false,
          "internalType": "uint256",
          "name": "value",
          "type": "uint256"
        }
      ],
      "name": "TransferSingle",
      "type": "event"
    },
    {
      "anonymous": false,
      "inputs": [
        {
          "indexed": false,
          "internalType": "string",
          "name": "value",
          "type": "string"
        },
        {
          "indexed": true,
          "internalType": "uint256",
          "name": "id",
          "type": "uint256"
        }
      ],
      "name": "URI",
      "type": "event"
    },
    {
      "inputs": [
        {
          "internalType": "address",
          "name": "account",
          "type": "address"
        },
        {
          "internalType": "uint256",
          "name": "id",
          "type": "uint256"
        }
      ],
      "name": "balanceOf",
      "outputs": [
        {
          "internalType": "uint256",
          "name": "",
          "type": "uint256"
        }
      ],
      "stateMutability": "view",
      "type": "function"
    },
    {
      "inputs": [
        {
          "internalType": "address[]",
          "name": "accounts",
          "type": "address[]"
        },
        {
          "internalType": "uint256[]",
          "name": "ids",
          "type": "uint256[]"
        }
      ],
      "name": "balanceOfBatch",
      "outputs": [
        {
          "internalType": "uint256[]",
          "name": "",
          "type": "uint256[]"
        }
      ],
      "stateMutability": "view",
      "type": "function"
    },
    {
      "inputs": [
        {
          "internalType": "address",
          "name": "account",
          "type": "address"
        },
        {
          "internalType": "uint256",
          "name": "id",
          "type": "uint256"
        },
        {
          "internalType": "uint256",
          "name": "value",
          "type": "uint256"
        }
      ],
      "name": "burn",
      "outputs": [],
      "stateMutability": "nonpayable",
      "type": "function"
    },
    {
      "inputs": [
        {
          "internalType": "address",
          "name": "account",
          "type": "address"
        },
        {
          "internalType": "uint256[]",
          "name": "ids",
          "type": "uint256[]"
        },
        {
          "internalType": "uint256[]",
          "name": "values",
          "type": "uint256[]"
        }
      ],
      "name": "burnBatch",
      "outputs": [],
      "stateMutability": "nonpayable",
      "type": "function"
    },
    {
      "inputs": [
        {
          "internalType": "uint256",
          "name": "id",
          "type": "uint256"
        }
      ],
      "name": "exists",
      "outputs": [
        {
          "internalType": "bool",
          "name": "",
          "type": "bool"
        }
      ],
      "stateMutability": "view",
      "type": "function"
    },
    {
      "inputs": [
        {
          "internalType": "address",
          "name": "owner_",
          "type": "address"
        },
        {
          "internalType": "string",
          "name": "name_",
          "type": "string"
        },
        {
          "internalType": "string",
          "name": "symbol_",
          "type": "string"
        }
      ],
      "name": "init",
      "outputs": [],
      "stateMutability": "nonpayable",
      "type": "function"
    },
    {
      "inputs": [
        {
          "internalType": "address",
          "name": "account",
          "type": "address"
        },
        {
          "internalType": "address",
          "name": "operator",
          "type": "address"
        }
      ],
      "name": "isApprovedForAll",
      "outputs": [
        {
          "internalType": "bool",
          "name": "",
          "type": "bool"
        }
      ],
      "stateMutability": "view",
      "type": "function"
    },
    {
      "inputs": [
        {
          "internalType": "address",
          "name": "addr",
          "type": "address"
        },
        {
          "internalType": "uint256",
          "name": "id",
          "type": "uint256"
        },
        {
          "internalType": "uint256",
          "name": "amount",
          "type": "uint256"
        },
        {
          "internalType": "bytes",
          "name": "data",
          "type": "bytes"
        }
      ],
      "name": "mint",
      "outputs": [],
      "stateMutability": "nonpayable",
      "type": "function"
    },
    {
      "inputs": [],
      "name": "name",
      "outputs": [
        {
          "internalType": "string",
          "name": "",
          "type": "string"
        }
      ],
      "stateMutability": "view",
      "type": "function"
    },
    {
      "inputs": [],
      "name": "owner",
      "outputs": [
        {
          "internalType": "address",
          "name": "",
          "type": "address"
        }
      ],
      "stateMutability": "view",
      "type": "function"
    },
    {
      "inputs": [],
      "name": "renounceOwnership",
      "outputs": [],
      "stateMutability": "nonpayable",
      "type": "function"
    },
    {
      "inputs": [
        {
          "internalType": "address",
          "name": "from",
          "type": "address"
        },
        {
          "internalType": "address",
          "name": "to",
          "type": "address"
        },
        {
          "internalType": "uint256[]",
          "name": "ids",
          "type": "uint256[]"
        },
        {
          "internalType": "uint256[]",
          "name": "amounts",
          "type": "uint256[]"
        },
        {
          "internalType": "bytes",
          "name": "data",
          "type": "bytes"
        }
      ],
      "name": "safeBatchTransferFrom",
      "outputs": [],
      "stateMutability": "nonpayable",
      "type": "function"
    },
    {
      "inputs": [
        {
          "internalType": "address",
          "name": "from",
          "type": "address"
        },
        {
          "internalType": "address",
          "name": "to",
          "type": "address"
        },
        {
          "internalType": "uint256",
          "name": "id",
          "type": "uint256"
        },
        {
          "internalType": "uint256",
          "name": "amount",
          "type": "uint256"
        },
        {
          "internalType": "bytes",
          "name": "data",
          "type": "bytes"
        }
      ],
      "name": "safeTransferFrom",
      "outputs": [],
      "stateMutability": "nonpayable",
      "type": "function"
    },
    {
      "inputs": [
        {
          "internalType": "address",
          "name": "operator",
          "type": "address"
        },
        {
          "internalType": "bool",
          "name": "approved",
          "type": "bool"
        }
      ],
      "name": "setApprovalForAll",
      "outputs": [],
      "stateMutability": "nonpayable",
      "type": "function"
    },
    {
      "inputs": [
        {
          "internalType": "uint256",
          "name": "tokenId",
          "type": "uint256"
        },
        {
          "internalType": "string",
          "name": "tokenURI",
          "type": "string"
        }
      ],
      "name": "setURI",
      "outputs": [],
      "stateMutability": "nonpayable",
      "type": "function"
    },
    {
      "inputs": [
        {
          "internalType": "bytes4",
          "name": "interfaceId",
          "type": "bytes4"
        }
      ],
      "name": "supportsInterface",
      "outputs": [
        {
          "internalType": "bool",
          "name": "",
          "type": "bool"
        }
      ],
      "stateMutability": "view",
      "type": "function"
    },
    {
      "inputs": [],
      "name": "symbol",
      "outputs": [
        {
          "internalType": "string",
          "name": "",
          "type": "string"
        }
      ],
      "stateMutability": "view",
      "type": "function"
    },
    {
      "inputs": [
        {
          "internalType": "uint256",
          "name": "id",
          "type": "uint256"
        }
      ],
      "name": "totalSupply",
      "outputs": [
        {
          "internalType": "uint256",
          "name": "",
          "type": "uint256"
        }
      ],
      "stateMutability": "view",
      "type": "function"
    },
    {
      "inputs": [
        {
          "internalType": "address",
          "name": "newOwner",
          "type": "address"
        }
      ],
      "name": "transferOwnership",
      "outputs": [],
      "stateMutability": "nonpayable",
      "type": "function"
    },
    {
      "inputs": [
        {
          "internalType": "uint256",
          "name": "tokenId",
          "type": "uint256"
        }
      ],
      "name": "uri",
      "outputs": [
        {
          "internalType": "string",
          "name": "",
          "type": "string"
        }
      ],
      "stateMutability": "view",
      "type": "function"
    }
  ],
  "bytecode": "0x608034620000e957602081016001600160401b03811182821017620000d357604052600080915262000033600254620000ee565b601f811162000092575b50806002556200004f600454620000ee565b601f81116200006e575b60006004556040516125499081620001458239f35b601f60208360046200008a955220910160051c8101906200012b565b388062000059565b60028252620000cc90601f0160051c7f405787fa12a823e0f2b7631cc41b3ba8828b3321ca811111fa75cd3aa3bb5ace908101906200012b565b386200003d565b634e487b7160e01b600052604160045260246000fd5b600080fd5b90600182811c9216801562000120575b60208310146200010a57565b634e487b7160e01b600052602260045260246000fd5b91607f1691620000fe565b81811062000137575050565b600081556001016200012b56fe6080604052600436101561001257600080fd5b60003560e01c8062fdd58e14611ab957806301ffc9a714611a4b57806306fdde03146119a55780630e89341c146119865780632eb2c2d6146115ab5780634e1273f41461140d5780634f558e79146113df5780636b20c45414611185578063715018a614611123578063731133e914610f0e578063862440e214610d295780638da5cb5b14610cfc57806395d89b4114610c16578063a22cb46514610b32578063b2b45df5146107fb578063bd85b039146107cf578063e985e9c514610779578063f242432a1461039a578063f2fde38b1461030d5763f5298aca146100f757600080fd5b3461030857606036600319011261030857610110611ae8565b60249060448035916001600160a01b031690833533831480156102df575b61013790611db3565b8215926101448415612089565b61014d82612054565b9161015786612054565b94600060405161016681611b4e565b52610285575b60005b8351811015610208576101828185611d89565b5161018d8288611d89565b51908060005260036020818152604060002054928484106101c657906101c195949392916000525203604060002055611d64565b61016f565b506084906000805160206124f48339815191528a60288f6040519462461bcd60e51b8652600486015284015282015267616c537570706c7960c01b6064820152fd5b60008383898184528360205260408420838552602052806040852054610230828210156120e1565b838652856020526040862085875260205203604085205560405191825260208201527fc3d58168c5ae7397731d063d5bbf3d657854427343f4c083240f7aacaa2d0f6260403392a4610283604051611b4e565b005b949195929060005b87518110156102d457806102a46102cf9288611d89565b516102af828b611d89565b5160005260036020526102c86040600020918254611ed0565b9055611d64565b61028d565b50909295919461016c565b5082600052600160205260406000203360005260205261013760ff60406000205416905061012e565b600080fd5b3461030857602036600319011261030857610326611ae8565b61032e61243a565b6001600160a01b038116156103465761028390612495565b60405162461bcd60e51b815260206004820152602660248201527f4f776e61626c653a206e6577206f776e657220697320746865207a65726f206160448201526564647265737360d01b6064820152608490fd5b346103085760a0366003190112610308576103b3611ae8565b6103bb611afe565b90608480356001600160401b038111610308576103dc903690600401611c8d565b6001600160a01b0391908383163314801561074e575b6103fb90611db3565b828516156104098115611e17565b610414604435612054565b61041f606435612054565b918587161561070e575b610660575b5050604435600052602094600086526040600020848616600052865260406000205461045e606435821015611e71565b60443560005260008752604060002085871660005287526064359003604060002055604435600052600086526040600020848216600052865260406000206104a96064358254611ed0565b905560405160443581526064358782015284821690858716907fc3d58168c5ae7397731d063d5bbf3d657854427343f4c083240f7aacaa2d0f6260403392a4803b6104f057005b60a0600061053a958895604051978896879586938563f23a6e6160e01b9d8e87523360048801521660248601526044356044860152606435606486015284015260a4830190611bad565b0393165af160009181610631575b5061060757505060019061055a611fc8565b6308c379a0146105d2575b5061056c57005b60405162461bcd60e51b815260206004820152603460248201527f455243313135353a207472616e7366657220746f206e6f6e20455243313135356044820152732932b1b2b4bb32b91034b6b83632b6b2b73a32b960611b6064820152608490fd5b0390fd5b6105da611fe6565b90816105e65750610565565b6105ce60405192839262461bcd60e51b845260048401526024830190611bad565b6001600160e01b0319161490506102835760405162461bcd60e51b8152806105ce60048201611f7f565b610652919250843d8611610659575b61064a8183611b69565b810190611f5f565b9084610548565b503d610640565b92959194909360005b84518110156106ff5761067c8186611d89565b51906106888188611d89565b518260005260036020526040600020548181106106bc576106b793600052600360205203604060002055611d64565b610669565b60405162461bcd60e51b815260206004820152602860248201526000805160206124f4833981519152604482015267616c537570706c7960c01b60648201528b90fd5b5093509390949150858061042e565b959260009794919592975b8651811015610740578061073061073b928b611d89565b516102af828a611d89565b610719565b509295969194909396610429565b5082841660005260016020526040600020336000526020526103fb60ff6040600020541690506103f2565b3461030857604036600319011261030857610792611ae8565b61079a611afe565b9060018060a01b03809116600052600160205260406000209116600052602052602060ff604060002054166040519015158152f35b346103085760203660031901126103085760043560005260036020526020604060002054604051908152f35b3461030857606036600319011261030857610814611ae8565b6001600160401b039060243582811161030857610835903690600401611c8d565b6044358381116103085761084d903690600401611c8d565b61085e60ff60065460081c16612139565b8151848111610a1d5780610873603954611b14565b93601f94858111610ac4575b50602090858311600114610a3e57600092610a33575b50508160011b916000199060031b1c1916176039555b8051938411610a1d576108bf603a54611b14565b8281116109bb575b50602091841160011461093257610283939160009183610927575b50508160011b916000199060031b1c191617603a555b336bffffffffffffffffffffffff60a01b603854161760385561092260ff60065460081c16612139565b612495565b0151905084806108e2565b90601f19841691603a6000527fa2999d817b6757290b50e8ecf3fa939673403dd35c97de392fdb343b4015ce9e9260005b8181106109a3575091600193918661028397941061098a575b505050811b01603a556108f8565b015160001960f88460031b161c1916905584808061097c565b92936020600181928786015181550195019301610963565b603a6000527fa2999d817b6757290b50e8ecf3fa939673403dd35c97de392fdb343b4015ce9e8380870160051c82019260208810610a14575b0160051c01905b818110610a0857506108c7565b600081556001016109fb565b925081926109f4565b634e487b7160e01b600052604160045260246000fd5b015190508680610895565b603960009081527fdc16fef70f8d5ddbc01ee3d903d1e69c18a3c7be080eb86a81e0578814ee58d39350601f198516905b818110610aac5750908460019594939210610a93575b505050811b016039556108ab565b015160001960f88460031b161c19169055868080610a85565b92936020600181928786015181550195019301610a6f565b90915060396000527fdc16fef70f8d5ddbc01ee3d903d1e69c18a3c7be080eb86a81e0578814ee58d38580850160051c82019260208610610b29575b9085949392910160051c01905b818110610b1a575061087f565b60008155849350600101610b0d565b92508192610b00565b3461030857604036600319011261030857610b4b611ae8565b60243590811515809203610308576001600160a01b031690338214610bbf57336000526001602052604060002082600052602052604060002060ff1981541660ff83161790556040519081527f17307eab39ab6107e8899845ad3d59bd9653f200f220920489ca2b5937696c3160203392a3005b60405162461bcd60e51b815260206004820152602960248201527f455243313135353a2073657474696e6720617070726f76616c20737461747573604482015268103337b91039b2b63360b91b6064820152608490fd5b34610308576000366003190112610308576040516000603a54610c3881611b14565b80845290600190818116908115610cd55750600114610c7a575b610c7684610c6281860382611b69565b604051918291602083526020830190611bad565b0390f35b603a600090815292507fa2999d817b6757290b50e8ecf3fa939673403dd35c97de392fdb343b4015ce9e5b828410610cbd575050508101602001610c6282610c52565b80546020858701810191909152909301928101610ca5565b60ff191660208087019190915292151560051b85019092019250610c629150839050610c52565b346103085760003660031901126103085760065460405160109190911c6001600160a01b03168152602090f35b34610308576040366003190112610308576001600160401b0360043560243582811161030857366023820112156103085780600401359083821161030857366024838301011161030857610d9691610d8c60018060a01b03603854163314612199565b6024369201611c47565b9181600052602090600582526040600020908451908111610a1d57610dbb8254611b14565b601f8111610ec8575b5082601f8211600114610e415781907f6bb7ff708619ba0610cba295a58592e0451dee2622938c8755667688daf3529b9596600092610e36575b50508160011b916000199060031b1c19161790555b610e1c836121fb565b90610e31604051928284938452830190611bad565b0390a2005b015190508680610dfe565b601f1982169583600052846000209660005b818110610eb15750917f6bb7ff708619ba0610cba295a58592e0451dee2622938c8755667688daf3529b969791846001959410610e98575b505050811b019055610e13565b015160001960f88460031b161c19169055868080610e8b565b838301518955600190980197928601928601610e53565b8260005283600020601f830160051c810191858410610f04575b601f0160051c01905b818110610ef85750610dc4565b60008155600101610eeb565b9091508190610ee2565b3461030857608036600319011261030857610f27611ae8565b604435906024356064356001600160401b03811161030857610f4d903690600401611c8d565b9160018060a01b03610f6481603854163314612199565b610f6e8383611cdf565b6110cf57811691821561108057610f8481612054565b92610f8e86612054565b9560005b8551811015610fb95780610fa9610fb4928a611d89565b516102af8289611d89565b610f92565b5085836000526020946000865260406000208460005286526040600020610fe1848254611ed0565b905583600060405187815285898201527fc3d58168c5ae7397731d063d5bbf3d657854427343f4c083240f7aacaa2d0f6260403392a43b61101e57005b611062928592600060405180968195829463f23a6e6160e01b9a8b85523360048601528560248601526044850152606484015260a0608484015260a4830190611bad565b03925af160009181610631575061060757505060019061055a611fc8565b60405162461bcd60e51b815260206004820152602160248201527f455243313135353a206d696e7420746f20746865207a65726f206164647265736044820152607360f81b6064820152608490fd5b60405162461bcd60e51b815260206004820152602660248201527f4d61696e6e65742046617273693a20746f6b656e20636f6c6c656374656420616044820152656c726561647960d01b6064820152608490fd5b346103085760003660031901126103085761113c61243a565b6006805462010000600160b01b0319811690915560009060101c6001600160a01b03167f8be0079c531659141344cd1fd0a4f28419497f9722a3daafe3b4186f6b6457e08280a3005b346103085760603660031901126103085761119e611ae8565b6024906001600160401b03908235828111610308576111c1903690600401611be9565b916044908135908111610308576111dc903690600401611be9565b6001600160a01b039092169233841480156113b6575b6111fb90611db3565b83156112078115612089565b6112148251855114611edd565b600060405161122281611b4e565b5261137e575b60005b81518110156112c45761123e8183611d89565b516112498286611d89565b5190806000526003602081815260406000205492848410611282579061127d95949392916000525203604060002055611d64565b61122b565b60405162461bcd60e51b8152600481018390526028818d01526000805160206124f4833981519152818a015267616c537570706c7960c01b6064820152608490fd5b83828660005b825181101561133957806112e16113349285611d89565b516112ec8287611d89565b519080600052602060008152604060002086600052815260406000205491611316848410156120e1565b60005260008152604060002090866000525203604060002055611d64565b6112ca565b50907f4a39dc06d4c0dbc64b70af90fd698a233a518aa5d07e595d983b8c0526c8f7fb611370600094604051918291339583611f3a565b0390a4610283604051611b4e565b9260009491945b84518110156113ac578061139c6113a79286611d89565b516102af8288611d89565b611385565b5092939093611228565b508360005260016020526040600020336000526020526111fb60ff6040600020541690506111f2565b3461030857602036600319011261030857600435600052600360205260206040600020541515604051908152f35b34610308576040366003190112610308576004356001600160401b0380821161030857366023830112156103085781600401359061144a82611bd2565b926114586040519485611b69565b82845260209260248486019160051b8301019136831161030857602401905b82821061158c5750505060243590811161030857611499903690600401611be9565b8251815103611535578251926114ae84611bd2565b936114bc6040519586611b69565b8085526114cb601f1991611bd2565b01368486013760005b815181101561151e57611519906115096001600160a01b036114f68386611d89565b51166115028387611d89565b5190611cdf565b6115138288611d89565b52611d64565b6114d4565b505050610c76604051928284938452830190611cab565b60405162461bcd60e51b815260048101839052602960248201527f455243313135353a206163636f756e747320616e6420696473206c656e677468604482015268040dad2e6dac2e8c6d60bb1b6064820152608490fd5b81356001600160a01b0381168103610308578152908401908401611477565b346103085760031960a036820112610308576115c5611ae8565b906115ce611afe565b6044908135926001600160401b0393848111610308576115f2903690600401611be9565b606480358681116103085761160b903690600401611be9565b94608496873590811161030857611626903690600401611c8d565b6001600160a01b03948986163314801561195b575b61164490611db3565b6116518551895114611edd565b8587161561165f8115611e17565b868b1615611918575b611863575b60005b855181101561170657806116876117019288611d89565b518c611693838d611d89565b519180600052826020926000845260406000208d82166000528452604060002054906116c183831015611e71565b83600052600085528d60406000209116600052845203604060002055600052600081526040600020908a8c16600052526102c86040600020918254611ed0565b611670565b50888a989796949789604051887f4a39dc06d4c0dbc64b70af90fd698a233a518aa5d07e595d983b8c0526c8f7fb89808d169416928061174887339583611f3a565b0390a4873b61175357005b60405198899788968863bc197c8160e01b9d8e8a523360048b0152166024890152870160a0905260a4870161178791611cab565b9084878303019087015261179a91611cab565b9184830301908401526117ac91611bad565b03921691815a602094600091f160009181611843575b5061181b57505060016117d3611fc8565b6308c379a0146117e4575b61056c57005b6117ec611fe6565b806117f757506117de565b60405162461bcd60e51b8152602060048201529081906105ce906024830190611bad565b6001600160e01b031916146102835760405162461bcd60e51b8152806105ce60048201611f7f565b61185c91925060203d81116106595761064a8183611b69565b90836117c2565b9796949060009993999692965b8551811015611908576118838187611d89565b5161188e8289611d89565b519080600052602060038152604060002054918383106118c7576118c2949392916003916000525203604060002055611d64565b611870565b508b9067616c537570706c7960c01b8f6000805160206124f48339815191528e6040519462461bcd60e51b8652600486015260286024860152840152820152fd5b509094969798929895919561166d565b99969498959392919060005b8a5181101561194c57808b6102af82611940611947958f611d89565b5192611d89565b611924565b50909192939598949699611668565b50858a16600052600160205260406000203360005260205261164460ff60406000205416905061163b565b3461030857602036600319011261030857610c76610c626004356121fb565b346103085760003660031901126103085760405160006039546119c781611b14565b80845290600190818116908115610cd557506001146119f057610c7684610c6281860382611b69565b6039600090815292507fdc16fef70f8d5ddbc01ee3d903d1e69c18a3c7be080eb86a81e0578814ee58d35b828410611a33575050508101602001610c6282610c52565b80546020858701810191909152909301928101611a1b565b346103085760203660031901126103085760043563ffffffff60e01b811680910361030857602090636cdb3d1360e11b8114908115611aa8575b8115611a97575b506040519015158152f35b6301ffc9a760e01b14905082611a8c565b6303a24d0760e21b81149150611a85565b34610308576040366003190112610308576020611ae0611ad7611ae8565b60243590611cdf565b604051908152f35b600435906001600160a01b038216820361030857565b602435906001600160a01b038216820361030857565b90600182811c92168015611b44575b6020831014611b2e57565b634e487b7160e01b600052602260045260246000fd5b91607f1691611b23565b602081019081106001600160401b03821117610a1d57604052565b90601f801991011681019081106001600160401b03821117610a1d57604052565b60005b838110611b9d5750506000910152565b8181015183820152602001611b8d565b90602091611bc681518092818552858086019101611b8a565b601f01601f1916010190565b6001600160401b038111610a1d5760051b60200190565b81601f8201121561030857803591611c0083611bd2565b92611c0e6040519485611b69565b808452602092838086019260051b820101928311610308578301905b828210611c38575050505090565b81358152908301908301611c2a565b9291926001600160401b038211610a1d5760405191611c70601f8201601f191660200184611b69565b829481845281830111610308578281602093846000960137010152565b9080601f8301121561030857816020611ca893359101611c47565b90565b90815180825260208080930193019160005b828110611ccb575050505090565b835185529381019392810192600101611cbd565b6001600160a01b0316908115611d0c57600052600060205260406000209060005260205260406000205490565b60405162461bcd60e51b815260206004820152602a60248201527f455243313135353a2061646472657373207a65726f206973206e6f742061207660448201526930b634b21037bbb732b960b11b6064820152608490fd5b6000198114611d735760010190565b634e487b7160e01b600052601160045260246000fd5b8051821015611d9d5760209160051b010190565b634e487b7160e01b600052603260045260246000fd5b15611dba57565b60405162461bcd60e51b815260206004820152602f60248201527f455243313135353a2063616c6c6572206973206e6f7420746f6b656e206f776e60448201526e195c881b9bdc88185c1c1c9bdd9959608a1b6064820152608490fd5b15611e1e57565b60405162461bcd60e51b815260206004820152602560248201527f455243313135353a207472616e7366657220746f20746865207a65726f206164604482015264647265737360d81b6064820152608490fd5b15611e7857565b60405162461bcd60e51b815260206004820152602a60248201527f455243313135353a20696e73756666696369656e742062616c616e636520666f60448201526939103a3930b739b332b960b11b6064820152608490fd5b91908201809211611d7357565b15611ee457565b60405162461bcd60e51b815260206004820152602860248201527f455243313135353a2069647320616e6420616d6f756e7473206c656e677468206044820152670dad2e6dac2e8c6d60c31b6064820152608490fd5b9091611f51611ca893604084526040840190611cab565b916020818403910152611cab565b9081602091031261030857516001600160e01b0319811681036103085790565b60809060208152602860208201527f455243313135353a204552433131353552656365697665722072656a656374656040820152676420746f6b656e7360c01b60608201520190565b60009060033d11611fd557565b905060046000803e60005160e01c90565b600060443d10611ca857604051600319913d83016004833e81516001600160401b03918282113d6024840111176120435781840194855193841161204b573d850101602084870101116120435750611ca892910160200190611b69565b949350505050565b50949350505050565b60405190604082018281106001600160401b03821117610a1d5760405260018252602082016020368237825115611d9d575290565b1561209057565b60405162461bcd60e51b815260206004820152602360248201527f455243313135353a206275726e2066726f6d20746865207a65726f206164647260448201526265737360e81b6064820152608490fd5b156120e857565b60405162461bcd60e51b8152602060048201526024808201527f455243313135353a206275726e20616d6f756e7420657863656564732062616c604482015263616e636560e01b6064820152608490fd5b1561214057565b60405162461bcd60e51b815260206004820152602b60248201527f496e697469616c697a61626c653a20636f6e7472616374206973206e6f74206960448201526a6e697469616c697a696e6760a81b6064820152608490fd5b156121a057565b60405162461bcd60e51b815260206004820152602d60248201527f4b617469626568313135353a207265737472696374656420616363657373207460448201526c6f2074686520466163746f727960981b6064820152608490fd5b60009081526020906005825260408120906040519080918354928161221f85611b14565b918282528782019660019689888216918260001461241c5750506001146123de575b5061224e92500382611b69565b80511561232357604051948593836004549161226983611b14565b9281811690811561230257506001146122a2575b50505050612293611ca894839251938491611b8a565b0103601f198101835282611b69565b909192969450600482527f8a35acfbc15ff81a39ae7d344fd709f28e8600b4aa8c65c6b64bfe7fe36bd19b5b8383106122ec57505050611ca894612293918501019294388061227d565b80548984018901528896509187019181016122ce565b60ff191688860152505050801515028401019150612293611ca8388061227d565b506040516002549094935084928261233a83611b14565b808652928281169081156123bc5750600114612360575b505050611ca892500382611b69565b600281527f405787fa12a823e0f2b7631cc41b3ba8828b3321ca811111fa75cd3aa3bb5ace95935091905b8183106123a4575050611ca89350820101388080612351565b8554878401850152948501948694509183019161238b565b92505050611ca894925060ff191682840152151560051b820101388080612351565b915050835281868085208686915b85831061240357505061224e935082010138612241565b80919294505483858801015201910187908685936123ec565b60ff19168a5261224e95151560051b85010192503891506122419050565b60065460101c6001600160a01b0316330361245157565b606460405162461bcd60e51b815260206004820152602060248201527f4f776e61626c653a2063616c6c6572206973206e6f7420746865206f776e65726044820152fd5b6006805462010000600160b01b03198116601084811b62010000600160b01b0316919091179092556001600160a01b0392831692911c167f8be0079c531659141344cd1fd0a4f28419497f9722a3daafe3b4186f6b6457e0600080a356fe455243313135353a206275726e20616d6f756e74206578636565647320746f74a264697066735822122082f3af386902e9dc069861d7e7abed2959d627b69cdd5e9f5a756b697fd7c85364736f6c63430008110033",
  "linkReferences": {},
  "deployedLinkReferences": {}
}