{
  "_format": "hh-sol-artifact-1",
  "contractName": "Katibeh1155",
  "sourceName": "contracts/katibeh1155/Katibeh1155.sol",
  "abi": [
    {
      "inputs": [],
      "stateMutability": "nonpayable",
      "type": "constructor"
    },
    {
      "anonymous": false,
      "inputs": [
        {
          "indexed": true,
          "internalType": "address",
          "name": "account",
          "type": "address"
        },
        {
          "indexed": true,
          "internalType": "address",
          "name": "operator",
          "type": "address"
        },
        {
          "indexed": false,
          "internalType": "bool",
          "name": "approved",
          "type": "bool"
        }
      ],
      "name": "ApprovalForAll",
      "type": "event"
    },
    {
      "anonymous": false,
      "inputs": [
        {
          "indexed": false,
          "internalType": "uint8",
          "name": "version",
          "type": "uint8"
        }
      ],
      "name": "Initialized",
      "type": "event"
    },
    {
      "anonymous": false,
      "inputs": [
        {
          "indexed": true,
          "internalType": "address",
          "name": "operator",
          "type": "address"
        },
        {
          "indexed": true,
          "internalType": "address",
          "name": "from",
          "type": "address"
        },
        {
          "indexed": true,
          "internalType": "address",
          "name": "to",
          "type": "address"
        },
        {
          "indexed": false,
          "internalType": "uint256[]",
          "name": "ids",
          "type": "uint256[]"
        },
        {
          "indexed": false,
          "internalType": "uint256[]",
          "name": "values",
          "type": "uint256[]"
        }
      ],
      "name": "TransferBatch",
      "type": "event"
    },
    {
      "anonymous": false,
      "inputs": [
        {
          "indexed": true,
          "internalType": "address",
          "name": "operator",
          "type": "address"
        },
        {
          "indexed": true,
          "internalType": "address",
          "name": "from",
          "type": "address"
        },
        {
          "indexed": true,
          "internalType": "address",
          "name": "to",
          "type": "address"
        },
        {
          "indexed": false,
          "internalType": "uint256",
          "name": "id",
          "type": "uint256"
        },
        {
          "indexed": false,
          "internalType": "uint256",
          "name": "value",
          "type": "uint256"
        }
      ],
      "name": "TransferSingle",
      "type": "event"
    },
    {
      "anonymous": false,
      "inputs": [
        {
          "indexed": false,
          "internalType": "string",
          "name": "value",
          "type": "string"
        },
        {
          "indexed": true,
          "internalType": "uint256",
          "name": "id",
          "type": "uint256"
        }
      ],
      "name": "URI",
      "type": "event"
    },
    {
      "inputs": [
        {
          "internalType": "address",
          "name": "account",
          "type": "address"
        },
        {
          "internalType": "uint256",
          "name": "id",
          "type": "uint256"
        }
      ],
      "name": "balanceOf",
      "outputs": [
        {
          "internalType": "uint256",
          "name": "",
          "type": "uint256"
        }
      ],
      "stateMutability": "view",
      "type": "function"
    },
    {
      "inputs": [
        {
          "internalType": "address[]",
          "name": "accounts",
          "type": "address[]"
        },
        {
          "internalType": "uint256[]",
          "name": "ids",
          "type": "uint256[]"
        }
      ],
      "name": "balanceOfBatch",
      "outputs": [
        {
          "internalType": "uint256[]",
          "name": "",
          "type": "uint256[]"
        }
      ],
      "stateMutability": "view",
      "type": "function"
    },
    {
      "inputs": [
        {
          "internalType": "address",
          "name": "account",
          "type": "address"
        },
        {
          "internalType": "uint256",
          "name": "id",
          "type": "uint256"
        },
        {
          "internalType": "uint256",
          "name": "value",
          "type": "uint256"
        }
      ],
      "name": "burn",
      "outputs": [],
      "stateMutability": "nonpayable",
      "type": "function"
    },
    {
      "inputs": [
        {
          "internalType": "address",
          "name": "account",
          "type": "address"
        },
        {
          "internalType": "uint256[]",
          "name": "ids",
          "type": "uint256[]"
        },
        {
          "internalType": "uint256[]",
          "name": "values",
          "type": "uint256[]"
        }
      ],
      "name": "burnBatch",
      "outputs": [],
      "stateMutability": "nonpayable",
      "type": "function"
    },
    {
      "inputs": [
        {
          "internalType": "uint256",
          "name": "id",
          "type": "uint256"
        }
      ],
      "name": "exists",
      "outputs": [
        {
          "internalType": "bool",
          "name": "",
          "type": "bool"
        }
      ],
      "stateMutability": "view",
      "type": "function"
    },
    {
      "inputs": [
        {
          "internalType": "address",
          "name": "owner_",
          "type": "address"
        },
        {
          "internalType": "string",
          "name": "name_",
          "type": "string"
        },
        {
          "internalType": "string",
          "name": "symbol_",
          "type": "string"
        }
      ],
      "name": "init",
      "outputs": [],
      "stateMutability": "nonpayable",
      "type": "function"
    },
    {
      "inputs": [
        {
          "internalType": "address",
          "name": "account",
          "type": "address"
        },
        {
          "internalType": "address",
          "name": "operator",
          "type": "address"
        }
      ],
      "name": "isApprovedForAll",
      "outputs": [
        {
          "internalType": "bool",
          "name": "",
          "type": "bool"
        }
      ],
      "stateMutability": "view",
      "type": "function"
    },
    {
      "inputs": [
        {
          "internalType": "address",
          "name": "addr",
          "type": "address"
        },
        {
          "internalType": "uint256",
          "name": "id",
          "type": "uint256"
        },
        {
          "internalType": "uint256",
          "name": "amount",
          "type": "uint256"
        },
        {
          "internalType": "bytes",
          "name": "data",
          "type": "bytes"
        }
      ],
      "name": "mint",
      "outputs": [],
      "stateMutability": "nonpayable",
      "type": "function"
    },
    {
      "inputs": [],
      "name": "name",
      "outputs": [
        {
          "internalType": "string",
          "name": "",
          "type": "string"
        }
      ],
      "stateMutability": "view",
      "type": "function"
    },
    {
      "inputs": [],
      "name": "owner",
      "outputs": [
        {
          "internalType": "address",
          "name": "",
          "type": "address"
        }
      ],
      "stateMutability": "view",
      "type": "function"
    },
    {
      "inputs": [
        {
          "internalType": "uint256",
          "name": "tokenId",
          "type": "uint256"
        },
        {
          "internalType": "uint256",
          "name": "salePrice",
          "type": "uint256"
        }
      ],
      "name": "royaltyInfo",
      "outputs": [
        {
          "internalType": "address",
          "name": "",
          "type": "address"
        },
        {
          "internalType": "uint256",
          "name": "",
          "type": "uint256"
        }
      ],
      "stateMutability": "view",
      "type": "function"
    },
    {
      "inputs": [
        {
          "internalType": "address",
          "name": "from",
          "type": "address"
        },
        {
          "internalType": "address",
          "name": "to",
          "type": "address"
        },
        {
          "internalType": "uint256[]",
          "name": "ids",
          "type": "uint256[]"
        },
        {
          "internalType": "uint256[]",
          "name": "amounts",
          "type": "uint256[]"
        },
        {
          "internalType": "bytes",
          "name": "data",
          "type": "bytes"
        }
      ],
      "name": "safeBatchTransferFrom",
      "outputs": [],
      "stateMutability": "nonpayable",
      "type": "function"
    },
    {
      "inputs": [
        {
          "internalType": "address",
          "name": "from",
          "type": "address"
        },
        {
          "internalType": "address",
          "name": "to",
          "type": "address"
        },
        {
          "internalType": "uint256",
          "name": "id",
          "type": "uint256"
        },
        {
          "internalType": "uint256",
          "name": "amount",
          "type": "uint256"
        },
        {
          "internalType": "bytes",
          "name": "data",
          "type": "bytes"
        }
      ],
      "name": "safeTransferFrom",
      "outputs": [],
      "stateMutability": "nonpayable",
      "type": "function"
    },
    {
      "inputs": [
        {
          "internalType": "address",
          "name": "operator",
          "type": "address"
        },
        {
          "internalType": "bool",
          "name": "approved",
          "type": "bool"
        }
      ],
      "name": "setApprovalForAll",
      "outputs": [],
      "stateMutability": "nonpayable",
      "type": "function"
    },
    {
      "inputs": [
        {
          "internalType": "uint256",
          "name": "tokenId",
          "type": "uint256"
        },
        {
          "internalType": "address",
          "name": "receiver",
          "type": "address"
        },
        {
          "internalType": "uint96",
          "name": "feeNumerator",
          "type": "uint96"
        }
      ],
      "name": "setTokenRoyalty",
      "outputs": [],
      "stateMutability": "nonpayable",
      "type": "function"
    },
    {
      "inputs": [
        {
          "internalType": "uint256",
          "name": "tokenId",
          "type": "uint256"
        },
        {
          "internalType": "string",
          "name": "tokenURI",
          "type": "string"
        }
      ],
      "name": "setURI",
      "outputs": [],
      "stateMutability": "nonpayable",
      "type": "function"
    },
    {
      "inputs": [
        {
          "internalType": "bytes4",
          "name": "interfaceId",
          "type": "bytes4"
        }
      ],
      "name": "supportsInterface",
      "outputs": [
        {
          "internalType": "bool",
          "name": "",
          "type": "bool"
        }
      ],
      "stateMutability": "view",
      "type": "function"
    },
    {
      "inputs": [],
      "name": "symbol",
      "outputs": [
        {
          "internalType": "string",
          "name": "",
          "type": "string"
        }
      ],
      "stateMutability": "view",
      "type": "function"
    },
    {
      "inputs": [
        {
          "internalType": "uint256",
          "name": "id",
          "type": "uint256"
        }
      ],
      "name": "totalSupply",
      "outputs": [
        {
          "internalType": "uint256",
          "name": "",
          "type": "uint256"
        }
      ],
      "stateMutability": "view",
      "type": "function"
    },
    {
      "inputs": [
        {
          "internalType": "uint256",
          "name": "tokenId",
          "type": "uint256"
        }
      ],
      "name": "uri",
      "outputs": [
        {
          "internalType": "string",
          "name": "",
          "type": "string"
        }
      ],
      "stateMutability": "view",
      "type": "function"
    }
  ],
  "bytecode": "0x608034620000e557602081016001600160401b03811182821017620000d1576040525f80915262000032600254620000e9565b601f811162000090575b50806002556200004e600454620000e9565b601f81116200006c575b5f60045560405161259590816200013d8239f35b601f602083600462000088955220910160051c81019062000124565b5f8062000058565b60028252620000ca90601f0160051c7f405787fa12a823e0f2b7631cc41b3ba8828b3321ca811111fa75cd3aa3bb5ace9081019062000124565b5f6200003c565b634e487b7160e01b5f52604160045260245ffd5b5f80fd5b90600182811c9216801562000119575b60208310146200010557565b634e487b7160e01b5f52602260045260245ffd5b91607f1691620000f9565b81811062000130575050565b5f81556001016200012456fe60806040526004361015610011575f80fd5b5f3560e01c8062fdd58e14611c3257806301ffc9a714611baa57806306fdde0314611b025780630e89341c14611acf5780632a55205a14611a115780632eb2c2d61461165c5780634e1273f4146114bf5780634f558e79146114935780635944c7531461135d5780636b20c45414611126578063731133e914610f80578063862440e214610da65780638da5cb5b14610d7a57806395d89b4114610c99578063a22cb46514610bb9578063b2b45df514610723578063bd85b039146106f9578063e985e9c5146106a7578063f242432a146102fa5763f5298aca146100f4575f80fd5b346102f65760603660031901126102f65761010d611c61565b60249060448035916001600160a01b031690833533831480156102d1575b61013490611f23565b82159261014184156121f0565b61014a826121cb565b91610154866121cb565b945f60405161016281611ce0565b5261027a575b5f5b83518110156101fe5761017d8185611efb565b516101888288611efb565b5190805f526003602081815260405f2054928484106101bd57906101b895949392915f52520360405f2055611eed565b61016a565b506084905f805160206125408339815191528a60288f6040519462461bcd60e51b8652600486015284015282015267616c537570706c7960c01b6064820152fd5b5f838389818452836020526040842083855260205280604085205461022582821015612248565b838652856020526040862085875260205203604085205560405191825260208201527fc3d58168c5ae7397731d063d5bbf3d657854427343f4c083240f7aacaa2d0f6260403392a4610278604051611ce0565b005b94919592905f5b87518110156102c657806102986102c19288611efb565b516102a3828b611efb565b515f5260036020526102ba60405f2091825461203f565b9055611eed565b610281565b509092959194610168565b50825f52600160205260405f20335f5260205261013460ff60405f205416905061012b565b5f80fd5b346102f65760a03660031901126102f657610313611c61565b61031b611c77565b906084356001600160401b0381116102f65761033b903690600401611e1c565b916001600160a01b039082821633148015610680575b61035a90611f23565b6103678282161515611f86565b6103726044356121cb565b61037d6064356121cb565b9083851615610645575b8383161561059d575b50506044355f526020935f855260405f208385165f52855260405f20546103bb606435821015611fe0565b6044355f525f865260405f208486165f528652606435900360405f20556044355f525f855260405f208383165f52855260405f206103fc606435825461203f565b905560405160443581526064358682015283831690848616907fc3d58168c5ae7397731d063d5bbf3d657854427343f4c083240f7aacaa2d0f6260403392a4813b61044357005b849161048d915f6040519586809581948363f23a6e6160e01b9b8c85523360048601521660248401526044356044840152606435606484015260a0608484015260a4830190611d3d565b0393165af15f918161056e575b5061050557826104a86120ee565b6308c379a0146104d0575b60405162461bcd60e51b8152806104cc60048201612176565b0390fd5b6104d8612109565b90816104e457506104b3565b6104cc60405192839262461bcd60e51b845260048401526024830190611d3d565b6001600160e01b03191603905061051857005b60405162461bcd60e51b815260206004820152602860248201527f455243313135353a204552433131353552656365697665722072656a656374656044820152676420746f6b656e7360c01b6064820152608490fd5b61058f919250843d8611610596575b6105878183611cfb565b8101906120ce565b908461049a565b503d61057d565b925f95929491955b8451811015610637576105b88186611efb565b51906105c48189611efb565b51825f52600360205260405f20548181106105f4576105ef935f5260036020520360405f2055611eed565b6105a5565b60405162461bcd60e51b815260206004820152602860248201525f80516020612540833981519152604482015267616c537570706c7960c01b6064820152608490fd5b509250929093508480610390565b925f95929491955b8451811015610674578061066461066f9289611efb565b516102a38288611efb565b61064d565b50929490939194610387565b508183165f52600160205260405f20335f5260205261035a60ff60405f2054169050610351565b346102f65760403660031901126102f6576106c0611c61565b6106c8611c77565b9060018060a01b038091165f52600160205260405f2091165f52602052602060ff60405f2054166040519015158152f35b346102f65760203660031901126102f6576004355f526003602052602060405f2054604051908152f35b346102f65760603660031901126102f65761073c611c61565b6001600160401b03906024358281116102f65761075d903690600401611e1c565b916044358181116102f657610776903690600401611e1c565b9060069081549260ff8460081c161595868097610bac575b8015610b95575b15610b3957600194878660ff198316178655610b28575b508051838111610a1c57806107c2600a54611c8d565b92601f93848111610aba575b50602090848311600114610a3b575f92610a30575b50505f19600383901b1c191690861b17600a555b8151928311610a1c57829161080d600b54611c8d565b8281116109ac575b50602091831160011461092d575f92610922575b50505f19600383901b1c191690831b17600b555b336001600160601b0360a01b600954161760095580549260ff8460081c16156108c95762010000600160b01b0360109190911b1662010000600160b01b03198416811782559361088957005b610100600160b01b031990921690921790556040519081527f7f26b83ff96e1f2b6a682f133852f6798a09c465da95921460cefb384740249890602090a1005b60405162461bcd60e51b815260206004820152602b60248201527f496e697469616c697a61626c653a20636f6e7472616374206973206e6f74206960448201526a6e697469616c697a696e6760a81b6064820152608490fd5b015190508680610829565b90859350601f19831691600b5f527f0175b7a638427703f0dbe7bb9bbf987a2551717b34e79f33b5b1008d1fa01db9925f5b8181106109945750841161097c575b505050811b01600b5561083d565b01515f1960f88460031b161c1916905586808061096e565b8284015185558896909401936020938401930161095f565b90919250600b5f527f0175b7a638427703f0dbe7bb9bbf987a2551717b34e79f33b5b1008d1fa01db98380860160051c82019260208710610a13575b91869589929594930160051c01915b828110610a05575050610815565b5f81558695508891016109f7565b925081926109e8565b634e487b7160e01b5f52604160045260245ffd5b0151905089806107e3565b90889350601f19831691600a5f527fc65a7bb8d6351c1cf70c95a316cc6a92839c986682d98bc35f958f4883f9d2a8925f5b818110610aa257508411610a8a575b505050811b01600a556107f7565b01515f1960f88460031b161c19169055898080610a7c565b8284015185558b969094019360209384019301610a6d565b909150600a5f527fc65a7bb8d6351c1cf70c95a316cc6a92839c986682d98bc35f958f4883f9d2a88480850160051c82019260208610610b1f575b918a91869594930160051c01915b828110610b115750506107ce565b5f81558594508a9101610b03565b92508192610af5565b61ffff1916610101178455876107ac565b60405162461bcd60e51b815260206004820152602e60248201527f496e697469616c697a61626c653a20636f6e747261637420697320616c72656160448201526d191e481a5b9a5d1a585b1a5e995960921b6064820152608490fd5b50303b1580156107955750600160ff861614610795565b50600160ff86161061078e565b346102f65760403660031901126102f657610bd2611c61565b602435908115158092036102f6576001600160a01b031690338214610c4257335f52600160205260405f20825f5260205260405f2060ff1981541660ff83161790556040519081527f17307eab39ab6107e8899845ad3d59bd9653f200f220920489ca2b5937696c3160203392a3005b60405162461bcd60e51b815260206004820152602960248201527f455243313135353a2073657474696e6720617070726f76616c20737461747573604482015268103337b91039b2b63360b91b6064820152608490fd5b346102f6575f3660031901126102f657604051600b545f82610cba83611c8d565b918282526020936001908582821691825f14610d5a575050600114610cff575b50610ce792500383611cfb565b610cfb604051928284938452830190611d3d565b0390f35b849150600b5f527f0175b7a638427703f0dbe7bb9bbf987a2551717b34e79f33b5b1008d1fa01db9905f915b858310610d42575050610ce7935082010185610cda565b80548389018501528794508693909201918101610d2b565b60ff191685820152610ce795151560051b8501019250879150610cda9050565b346102f6575f3660031901126102f65760065460405160109190911c6001600160a01b03168152602090f35b346102f65760403660031901126102f6576001600160401b036004356024358281116102f657366023820112156102f6578060040135908382116102f65736602483830101116102f657610e1391610e0960018060a01b036009541633146122a0565b6024369201611dd7565b91815f526020906005825260405f20908451908111610a1c57610e368254611c8d565b601f8111610f3d575b5082601f8211600114610eba5781907f6bb7ff708619ba0610cba295a58592e0451dee2622938c8755667688daf3529b95965f92610eaf575b50508160011b915f199060031b1c19161790555b610e9583612302565b90610eaa604051928284938452830190611d3d565b0390a2005b015190508680610e78565b601f19821695835f52845f20965f5b818110610f265750917f6bb7ff708619ba0610cba295a58592e0451dee2622938c8755667688daf3529b969791846001959410610f0e575b505050811b019055610e8c565b01515f1960f88460031b161c19169055868080610f01565b838301518955600190980197928601928601610ec9565b825f52835f20601f830160051c810191858410610f76575b601f0160051c01905b818110610f6b5750610e3f565b5f8155600101610f5e565b9091508190610f55565b346102f65760803660031901126102f657610f99611c61565b604435906024356064356001600160401b0381116102f657610fbf903690600401611e1c565b9160018060a01b03610fd6816009541633146122a0565b81169182156110d757610fe8816121cb565b92610ff2866121cb565b955f5b855181101561101c578061100c611017928a611efb565b516102a38289611efb565b610ff5565b5085835f526020945f865260405f20845f52865260405f2061103f84825461203f565b9055835f60405187815285898201527fc3d58168c5ae7397731d063d5bbf3d657854427343f4c083240f7aacaa2d0f6260403392a43b61107b57005b6110be9285925f60405180968195829463f23a6e6160e01b9a8b85523360048601528560248601526044850152606484015260a0608484015260a4830190611d3d565b03925af15f918161056e575061050557826104a86120ee565b60405162461bcd60e51b815260206004820152602160248201527f455243313135353a206d696e7420746f20746865207a65726f206164647265736044820152607360f81b6064820152608490fd5b346102f65760603660031901126102f65761113f611c61565b6024906001600160401b039082358281116102f657611162903690600401611d79565b9160449081359081116102f65761117d903690600401611d79565b6001600160a01b03909216923384148015611338575b61119c90611f23565b83156111a881156121f0565b6111b5825185511461204c565b5f6040516111c281611ce0565b5261130c575b5f5b815181101561125e576111dd8183611efb565b516111e88286611efb565b5190805f526003602081815260405f20549284841061121d579061121895949392915f52520360405f2055611eed565b6111ca565b60405162461bcd60e51b8152600481018390526028818d01525f80516020612540833981519152818a015267616c537570706c7960c01b6064820152608490fd5b8382865f5b82518110156112c8578061127a6112c39285611efb565b516112858287611efb565b5190805f5260205f815260405f20865f52815260405f2054916112aa84841015612248565b5f525f815260405f2090865f52520360405f2055611eed565b611263565b50907f4a39dc06d4c0dbc64b70af90fd698a233a518aa5d07e595d983b8c0526c8f7fb6112fe5f946040519182913395836120a9565b0390a4610278604051611ce0565b925f9491945b845181101561132e57806106646113299286611efb565b611312565b50929390936111c8565b50835f52600160205260405f20335f5260205261119c60ff60405f2054169050611193565b346102f65760603660031901126102f657611376611c77565b6044356001600160601b0381168091036102f6576009546001600160a01b0392906113a490841633146122a0565b612710821161143b5782169182156113f657604051926113c384611cc5565b8352602083019182526004355f52600860205260405f20925116906001600160601b0360a01b905160a01b161790555f80f35b60405162461bcd60e51b815260206004820152601b60248201527f455243323938313a20496e76616c696420706172616d657465727300000000006044820152606490fd5b60405162461bcd60e51b815260206004820152602a60248201527f455243323938313a20726f79616c7479206665652077696c6c206578636565646044820152692073616c65507269636560b01b6064820152608490fd5b346102f65760203660031901126102f6576004355f526003602052602060405f20541515604051908152f35b346102f65760403660031901126102f6576004356001600160401b038082116102f657366023830112156102f6578160040135906114fc82611d62565b9261150a6040519485611cfb565b82845260209260248486019160051b830101913683116102f657602401905b82821061163d575050506024359081116102f65761154b903690600401611d79565b82518151036115e65782519261156084611d62565b9361156e6040519586611cfb565b80855261157d601f1991611d62565b0136848601375f5b81518110156115cf576115ca906115ba6001600160a01b036115a78386611efb565b51166115b38387611efb565b5190611e6d565b6115c48288611efb565b52611eed565b611585565b505050610cfb604051928284938452830190611e3a565b60405162461bcd60e51b815260048101839052602960248201527f455243313135353a206163636f756e747320616e6420696473206c656e677468604482015268040dad2e6dac2e8c6d60bb1b6064820152608490fd5b81356001600160a01b03811681036102f6578152908401908401611529565b346102f65760031960a0368201126102f657611676611c61565b9061167f611c77565b6044908135926001600160401b03938481116102f6576116a3903690600401611d79565b606480358681116102f6576116bc903690600401611d79565b9460849687359081116102f6576116d7903690600401611e1c565b6001600160a01b0394898616331480156119ea575b6116f590611f23565b611702855189511461204c565b858716156117108115611f86565b868b16156119a8575b6118f9575b5f5b85518110156117a757806117376117a29288611efb565b518c611743838d611efb565b5191805f52826020925f845260405f208d82165f52845260405f20549061176c83831015611fe0565b835f525f85528d60405f2091165f5284520360405f20555f525f815260405f20908a8c165f52526102ba60405f2091825461203f565b611720565b50888a989796949789604051887f4a39dc06d4c0dbc64b70af90fd698a233a518aa5d07e595d983b8c0526c8f7fb89808d16941692806117e9873395836120a9565b0390a4873b6117f457005b60405198899788968863bc197c8160e01b9d8e8a523360048b0152166024890152870160a0905260a4870161182891611e3a565b9084878303019087015261183b91611e3a565b91848303019084015261184d91611d3d565b03921691815a6020945f91f15f91816118d9575b506118c85761186e6120ee565b6308c379a0146118915760405162461bcd60e51b8152806104cc60048201612176565b611899612109565b806118a457506104b3565b60405162461bcd60e51b8152602060048201529081906104cc906024830190611d3d565b6001600160e01b0319160361051857005b6118f291925060203d8111610596576105878183611cfb565b9083611861565b979694905f9993999692965b8551811015611998576119188187611efb565b516119238289611efb565b5190805f5260206003815260405f20549183831061195857611953949392916003915f52520360405f2055611eed565b611905565b508b9067616c537570706c7960c01b8f5f805160206125408339815191528e6040519462461bcd60e51b8652600486015260286024860152840152820152fd5b509094969798929895919561171e565b9996949895939291905f5b8a518110156119db57808b6102a3826119cf6119d6958f611efb565b5192611efb565b6119b3565b50909192939598949699611719565b50858a165f52600160205260405f20335f526020526116f560ff60405f20541690506116ec565b346102f65760403660031901126102f6576024356004355f52600860205260405f209060405191611a4183611cc5565b546001600160a01b0380821680855260a09290921c6020850152929015611aad575b6001600160601b0360208201511691828102928184041490151715611a9957604092612710915116918351928352046020820152f35b634e487b7160e01b5f52601160045260245ffd5b50604051611aba81611cc5565b600754838116825260a01c6020820152611a63565b346102f65760203660031901126102f657610cfb611aee600435612302565b604051918291602083526020830190611d3d565b346102f6575f3660031901126102f657604051600a545f82611b2383611c8d565b918282526020936001908582821691825f14610d5a575050600114611b4f5750610ce792500383611cfb565b849150600a5f527fc65a7bb8d6351c1cf70c95a316cc6a92839c986682d98bc35f958f4883f9d2a8905f915b858310611b92575050610ce7935082010185610cda565b80548389018501528794508693909201918101611b7b565b346102f65760203660031901126102f65760043563ffffffff60e01b81168091036102f65760209063152a902d60e11b8114908115611bef575b506040519015158152f35b636cdb3d1360e11b811491508115611c21575b8115611c10575b5082611be4565b6301ffc9a760e01b14905082611c09565b6303a24d0760e21b81149150611c02565b346102f65760403660031901126102f6576020611c59611c50611c61565b60243590611e6d565b604051908152f35b600435906001600160a01b03821682036102f657565b602435906001600160a01b03821682036102f657565b90600182811c92168015611cbb575b6020831014611ca757565b634e487b7160e01b5f52602260045260245ffd5b91607f1691611c9c565b604081019081106001600160401b03821117610a1c57604052565b602081019081106001600160401b03821117610a1c57604052565b90601f801991011681019081106001600160401b03821117610a1c57604052565b5f5b838110611d2d5750505f910152565b8181015183820152602001611d1e565b90602091611d5681518092818552858086019101611d1c565b601f01601f1916010190565b6001600160401b038111610a1c5760051b60200190565b9080601f830112156102f6576020908235611d9381611d62565b93611da16040519586611cfb565b818552838086019260051b8201019283116102f6578301905b828210611dc8575050505090565b81358152908301908301611dba565b9291926001600160401b038211610a1c5760405191611e00601f8201601f191660200184611cfb565b8294818452818301116102f6578281602093845f960137010152565b9080601f830112156102f657816020611e3793359101611dd7565b90565b9081518082526020808093019301915f5b828110611e59575050505090565b835185529381019392810192600101611e4b565b6001600160a01b0316908115611e95575f525f60205260405f20905f5260205260405f205490565b60405162461bcd60e51b815260206004820152602a60248201527f455243313135353a2061646472657373207a65726f206973206e6f742061207660448201526930b634b21037bbb732b960b11b6064820152608490fd5b5f198114611a995760010190565b8051821015611f0f5760209160051b010190565b634e487b7160e01b5f52603260045260245ffd5b15611f2a57565b60405162461bcd60e51b815260206004820152602e60248201527f455243313135353a2063616c6c6572206973206e6f7420746f6b656e206f776e60448201526d195c881bdc88185c1c1c9bdd995960921b6064820152608490fd5b15611f8d57565b60405162461bcd60e51b815260206004820152602560248201527f455243313135353a207472616e7366657220746f20746865207a65726f206164604482015264647265737360d81b6064820152608490fd5b15611fe757565b60405162461bcd60e51b815260206004820152602a60248201527f455243313135353a20696e73756666696369656e742062616c616e636520666f60448201526939103a3930b739b332b960b11b6064820152608490fd5b91908201809211611a9957565b1561205357565b60405162461bcd60e51b815260206004820152602860248201527f455243313135353a2069647320616e6420616d6f756e7473206c656e677468206044820152670dad2e6dac2e8c6d60c31b6064820152608490fd5b90916120c0611e3793604084526040840190611e3a565b916020818403910152611e3a565b908160209103126102f657516001600160e01b0319811681036102f65790565b5f9060033d116120fa57565b905060045f803e5f5160e01c90565b5f60443d10611e3757604051600319913d83016004833e81516001600160401b03918282113d6024840111176121655781840194855193841161216d573d850101602084870101116121655750611e3792910160200190611cfb565b949350505050565b50949350505050565b60809060208152603460208201527f455243313135353a207472616e7366657220746f206e6f6e2d455243313135356040820152732932b1b2b4bb32b91034b6b83632b6b2b73a32b960611b60608201520190565b604051906121d882611cc5565b60018252602082016020368237825115611f0f575290565b156121f757565b60405162461bcd60e51b815260206004820152602360248201527f455243313135353a206275726e2066726f6d20746865207a65726f206164647260448201526265737360e81b6064820152608490fd5b1561224f57565b60405162461bcd60e51b8152602060048201526024808201527f455243313135353a206275726e20616d6f756e7420657863656564732062616c604482015263616e636560e01b6064820152608490fd5b156122a757565b60405162461bcd60e51b815260206004820152602d60248201527f4b617469626568313135353a207265737472696374656420616363657373207460448201526c6f2074686520466163746f727960981b6064820152608490fd5b5f9081526020906005825260408120906040519080918354928161232585611c8d565b91828252878201966001968988821691825f146125215750506001146124e3575b5061235392500382611cfb565b80511561242857604051948593836004549161236e83611c8d565b9281811690811561240757506001146123a7575b50505050612398611e3794839251938491611d1c565b0103601f198101835282611cfb565b909192969450600482527f8a35acfbc15ff81a39ae7d344fd709f28e8600b4aa8c65c6b64bfe7fe36bd19b5b8383106123f157505050611e37946123989185010192945f80612382565b80548984018901528896509187019181016123d3565b60ff191688860152505050801515028401019150612398611e375f80612382565b506040516002549094935084928261243f83611c8d565b808652928281169081156124c15750600114612465575b505050611e3792500382611cfb565b600281527f405787fa12a823e0f2b7631cc41b3ba8828b3321ca811111fa75cd3aa3bb5ace95935091905b8183106124a9575050611e3793508201015f8080612456565b85548784018501529485019486945091830191612490565b92505050611e3794925060ff191682840152151560051b8201015f8080612456565b915050835281868085208686915b85831061250857505061235393508201015f612346565b80919294505483858801015201910187908685936124f1565b60ff19168a5261235395151560051b85010192505f9150612346905056fe455243313135353a206275726e20616d6f756e74206578636565647320746f74a26469706673582212206e5248d5429de7a337de0f0f694888a7d2c9468b162c45ba18288c114e2f721f64736f6c63430008150033",
  "linkReferences": {},
  "deployedLinkReferences": {}
}