{
  "_format": "hh-sol-artifact-1",
  "contractName": "Katibeh1155",
  "sourceName": "contracts/katibeh1155/Katibeh1155.sol",
  "abi": [
    {
      "inputs": [],
      "stateMutability": "nonpayable",
      "type": "constructor"
    },
    {
      "anonymous": false,
      "inputs": [
        {
          "indexed": true,
          "internalType": "address",
          "name": "account",
          "type": "address"
        },
        {
          "indexed": true,
          "internalType": "address",
          "name": "operator",
          "type": "address"
        },
        {
          "indexed": false,
          "internalType": "bool",
          "name": "approved",
          "type": "bool"
        }
      ],
      "name": "ApprovalForAll",
      "type": "event"
    },
    {
      "anonymous": false,
      "inputs": [
        {
          "indexed": false,
          "internalType": "uint8",
          "name": "version",
          "type": "uint8"
        }
      ],
      "name": "Initialized",
      "type": "event"
    },
    {
      "anonymous": false,
      "inputs": [
        {
          "indexed": false,
          "internalType": "address",
          "name": "operator",
          "type": "address"
        },
        {
          "indexed": false,
          "internalType": "uint256[]",
          "name": "ids",
          "type": "uint256[]"
        },
        {
          "indexed": false,
          "internalType": "uint256[]",
          "name": "amounts",
          "type": "uint256[]"
        },
        {
          "indexed": false,
          "internalType": "bytes",
          "name": "data",
          "type": "bytes"
        }
      ],
      "name": "TokenData",
      "type": "event"
    },
    {
      "anonymous": false,
      "inputs": [
        {
          "indexed": true,
          "internalType": "address",
          "name": "operator",
          "type": "address"
        },
        {
          "indexed": true,
          "internalType": "address",
          "name": "from",
          "type": "address"
        },
        {
          "indexed": true,
          "internalType": "address",
          "name": "to",
          "type": "address"
        },
        {
          "indexed": false,
          "internalType": "uint256[]",
          "name": "ids",
          "type": "uint256[]"
        },
        {
          "indexed": false,
          "internalType": "uint256[]",
          "name": "values",
          "type": "uint256[]"
        }
      ],
      "name": "TransferBatch",
      "type": "event"
    },
    {
      "anonymous": false,
      "inputs": [
        {
          "indexed": true,
          "internalType": "address",
          "name": "operator",
          "type": "address"
        },
        {
          "indexed": true,
          "internalType": "address",
          "name": "from",
          "type": "address"
        },
        {
          "indexed": true,
          "internalType": "address",
          "name": "to",
          "type": "address"
        },
        {
          "indexed": false,
          "internalType": "uint256",
          "name": "id",
          "type": "uint256"
        },
        {
          "indexed": false,
          "internalType": "uint256",
          "name": "value",
          "type": "uint256"
        }
      ],
      "name": "TransferSingle",
      "type": "event"
    },
    {
      "anonymous": false,
      "inputs": [
        {
          "indexed": false,
          "internalType": "string",
          "name": "value",
          "type": "string"
        },
        {
          "indexed": true,
          "internalType": "uint256",
          "name": "id",
          "type": "uint256"
        }
      ],
      "name": "URI",
      "type": "event"
    },
    {
      "inputs": [
        {
          "internalType": "address",
          "name": "account",
          "type": "address"
        },
        {
          "internalType": "uint256",
          "name": "id",
          "type": "uint256"
        }
      ],
      "name": "balanceOf",
      "outputs": [
        {
          "internalType": "uint256",
          "name": "",
          "type": "uint256"
        }
      ],
      "stateMutability": "view",
      "type": "function"
    },
    {
      "inputs": [
        {
          "internalType": "address[]",
          "name": "accounts",
          "type": "address[]"
        },
        {
          "internalType": "uint256[]",
          "name": "ids",
          "type": "uint256[]"
        }
      ],
      "name": "balanceOfBatch",
      "outputs": [
        {
          "internalType": "uint256[]",
          "name": "",
          "type": "uint256[]"
        }
      ],
      "stateMutability": "view",
      "type": "function"
    },
    {
      "inputs": [
        {
          "internalType": "address",
          "name": "account",
          "type": "address"
        },
        {
          "internalType": "uint256",
          "name": "id",
          "type": "uint256"
        },
        {
          "internalType": "uint256",
          "name": "value",
          "type": "uint256"
        }
      ],
      "name": "burn",
      "outputs": [],
      "stateMutability": "nonpayable",
      "type": "function"
    },
    {
      "inputs": [
        {
          "internalType": "address",
          "name": "account",
          "type": "address"
        },
        {
          "internalType": "uint256[]",
          "name": "ids",
          "type": "uint256[]"
        },
        {
          "internalType": "uint256[]",
          "name": "values",
          "type": "uint256[]"
        }
      ],
      "name": "burnBatch",
      "outputs": [],
      "stateMutability": "nonpayable",
      "type": "function"
    },
    {
      "inputs": [
        {
          "internalType": "uint256",
          "name": "id",
          "type": "uint256"
        }
      ],
      "name": "exists",
      "outputs": [
        {
          "internalType": "bool",
          "name": "",
          "type": "bool"
        }
      ],
      "stateMutability": "view",
      "type": "function"
    },
    {
      "inputs": [
        {
          "internalType": "uint96",
          "name": "tokenId",
          "type": "uint96"
        }
      ],
      "name": "getInitialId",
      "outputs": [
        {
          "internalType": "uint96",
          "name": "_tokenId",
          "type": "uint96"
        }
      ],
      "stateMutability": "view",
      "type": "function"
    },
    {
      "inputs": [
        {
          "internalType": "address",
          "name": "owner_",
          "type": "address"
        },
        {
          "internalType": "string",
          "name": "name_",
          "type": "string"
        },
        {
          "internalType": "string",
          "name": "symbol_",
          "type": "string"
        }
      ],
      "name": "init",
      "outputs": [],
      "stateMutability": "nonpayable",
      "type": "function"
    },
    {
      "inputs": [
        {
          "internalType": "address",
          "name": "account",
          "type": "address"
        },
        {
          "internalType": "address",
          "name": "operator",
          "type": "address"
        }
      ],
      "name": "isApprovedForAll",
      "outputs": [
        {
          "internalType": "bool",
          "name": "",
          "type": "bool"
        }
      ],
      "stateMutability": "view",
      "type": "function"
    },
    {
      "inputs": [
        {
          "internalType": "address",
          "name": "addr",
          "type": "address"
        },
        {
          "internalType": "uint256",
          "name": "id",
          "type": "uint256"
        },
        {
          "internalType": "uint256",
          "name": "amount",
          "type": "uint256"
        },
        {
          "internalType": "bytes",
          "name": "data",
          "type": "bytes"
        }
      ],
      "name": "mint",
      "outputs": [],
      "stateMutability": "nonpayable",
      "type": "function"
    },
    {
      "inputs": [
        {
          "internalType": "address",
          "name": "addr",
          "type": "address"
        },
        {
          "internalType": "uint256[]",
          "name": "ids",
          "type": "uint256[]"
        },
        {
          "internalType": "uint256[]",
          "name": "amounts",
          "type": "uint256[]"
        },
        {
          "internalType": "bytes",
          "name": "data",
          "type": "bytes"
        }
      ],
      "name": "mintBatch",
      "outputs": [],
      "stateMutability": "nonpayable",
      "type": "function"
    },
    {
      "inputs": [],
      "name": "name",
      "outputs": [
        {
          "internalType": "string",
          "name": "",
          "type": "string"
        }
      ],
      "stateMutability": "view",
      "type": "function"
    },
    {
      "inputs": [],
      "name": "owner",
      "outputs": [
        {
          "internalType": "address",
          "name": "",
          "type": "address"
        }
      ],
      "stateMutability": "view",
      "type": "function"
    },
    {
      "inputs": [
        {
          "internalType": "uint256",
          "name": "tokenId",
          "type": "uint256"
        },
        {
          "internalType": "uint256",
          "name": "salePrice",
          "type": "uint256"
        }
      ],
      "name": "royaltyInfo",
      "outputs": [
        {
          "internalType": "address",
          "name": "",
          "type": "address"
        },
        {
          "internalType": "uint256",
          "name": "",
          "type": "uint256"
        }
      ],
      "stateMutability": "view",
      "type": "function"
    },
    {
      "inputs": [
        {
          "internalType": "address",
          "name": "from",
          "type": "address"
        },
        {
          "internalType": "address",
          "name": "to",
          "type": "address"
        },
        {
          "internalType": "uint256[]",
          "name": "ids",
          "type": "uint256[]"
        },
        {
          "internalType": "uint256[]",
          "name": "amounts",
          "type": "uint256[]"
        },
        {
          "internalType": "bytes",
          "name": "data",
          "type": "bytes"
        }
      ],
      "name": "safeBatchTransferFrom",
      "outputs": [],
      "stateMutability": "nonpayable",
      "type": "function"
    },
    {
      "inputs": [
        {
          "internalType": "address",
          "name": "from",
          "type": "address"
        },
        {
          "internalType": "address",
          "name": "to",
          "type": "address"
        },
        {
          "internalType": "uint256",
          "name": "id",
          "type": "uint256"
        },
        {
          "internalType": "uint256",
          "name": "amount",
          "type": "uint256"
        },
        {
          "internalType": "bytes",
          "name": "data",
          "type": "bytes"
        }
      ],
      "name": "safeTransferFrom",
      "outputs": [],
      "stateMutability": "nonpayable",
      "type": "function"
    },
    {
      "inputs": [
        {
          "internalType": "address",
          "name": "operator",
          "type": "address"
        },
        {
          "internalType": "bool",
          "name": "approved",
          "type": "bool"
        }
      ],
      "name": "setApprovalForAll",
      "outputs": [],
      "stateMutability": "nonpayable",
      "type": "function"
    },
    {
      "inputs": [
        {
          "internalType": "uint256",
          "name": "tokenId",
          "type": "uint256"
        },
        {
          "internalType": "address",
          "name": "receiver",
          "type": "address"
        },
        {
          "internalType": "uint96",
          "name": "feeNumerator",
          "type": "uint96"
        }
      ],
      "name": "setTokenRoyalty",
      "outputs": [],
      "stateMutability": "nonpayable",
      "type": "function"
    },
    {
      "inputs": [
        {
          "internalType": "uint256",
          "name": "tokenId",
          "type": "uint256"
        },
        {
          "internalType": "string",
          "name": "tokenURI",
          "type": "string"
        }
      ],
      "name": "setURI",
      "outputs": [],
      "stateMutability": "nonpayable",
      "type": "function"
    },
    {
      "inputs": [
        {
          "internalType": "bytes4",
          "name": "interfaceId",
          "type": "bytes4"
        }
      ],
      "name": "supportsInterface",
      "outputs": [
        {
          "internalType": "bool",
          "name": "",
          "type": "bool"
        }
      ],
      "stateMutability": "view",
      "type": "function"
    },
    {
      "inputs": [],
      "name": "symbol",
      "outputs": [
        {
          "internalType": "string",
          "name": "",
          "type": "string"
        }
      ],
      "stateMutability": "view",
      "type": "function"
    },
    {
      "inputs": [
        {
          "internalType": "uint256",
          "name": "id",
          "type": "uint256"
        }
      ],
      "name": "totalSupply",
      "outputs": [
        {
          "internalType": "uint256",
          "name": "",
          "type": "uint256"
        }
      ],
      "stateMutability": "view",
      "type": "function"
    },
    {
      "inputs": [
        {
          "internalType": "uint256",
          "name": "tokenId",
          "type": "uint256"
        }
      ],
      "name": "uri",
      "outputs": [
        {
          "internalType": "string",
          "name": "",
          "type": "string"
        }
      ],
      "stateMutability": "view",
      "type": "function"
    }
  ],
  "bytecode": "0x60a0346200010757602081016001600160401b03811182821017620000f3576040525f809152620000326002546200010b565b601f8111620000b2575b50806002556200004e6004546200010b565b601f81116200008e575b5f60045533608052604051612b7690816200015f8239608051818181610eb9015281816110a4015281816115a10152611d490152f35b601f6020836004620000aa955220910160051c81019062000146565b5f8062000058565b60028252620000ec90601f0160051c7f405787fa12a823e0f2b7631cc41b3ba8828b3321ca811111fa75cd3aa3bb5ace9081019062000146565b5f6200003c565b634e487b7160e01b5f52604160045260245ffd5b5f80fd5b90600182811c921680156200013b575b60208310146200012757565b634e487b7160e01b5f52602260045260245ffd5b91607f16916200011b565b81811062000152575050565b5f81556001016200014656fe60806040526004361015610011575f80fd5b5f3560e01c8062fdd58e1461219d57806301ffc9a71461211557806306fdde031461206d5780630e89341c1461203a5780631f7fdffa14611cc65780632a55205a14611c1c5780632eb2c2d6146118805780634e1273f4146116e35780634f558e79146116b75780635944c753146115655780636b20c4541461132e578063731133e91461105e578063862440e214610e655780638da5cb5b14610e3957806395d89b4114610d58578063a22cb46514610c78578063b2b45df5146107f6578063bd85b039146107cc578063e923314814610762578063e985e9c514610710578063f242432a146103105763f5298aca1461010a575f80fd5b3461030c57606036600319011261030c576101236121cc565b60249060448035916001600160a01b031690833533831480156102e7575b61014a9061248e565b821592610157841561275b565b61016082612736565b9161016a86612736565b945f6040516101788161224b565b52610290575b5f5b8351811015610214576101938185612466565b5161019e8288612466565b5190805f526003602081815260405f2054928484106101d357906101ce95949392915f52520360405f2055612458565b610180565b506084905f80516020612b218339815191528a60288f6040519462461bcd60e51b8652600486015284015282015267616c537570706c7960c01b6064820152fd5b5f838389818452836020526040842083855260205280604085205461023b828210156127b3565b838652856020526040862085875260205203604085205560405191825260208201527fc3d58168c5ae7397731d063d5bbf3d657854427343f4c083240f7aacaa2d0f6260403392a461028e60405161224b565b005b94919592905f5b87518110156102dc57806102ae6102d79288612466565b516102b9828b612466565b515f5260036020526102d060405f209182546125aa565b9055612458565b610297565b50909295919461017e565b50825f52600160205260405f20335f5260205261014a60ff60405f2054169050610141565b5f80fd5b3461030c5760a036600319011261030c576103296121cc565b6103316121e2565b6084356001600160401b03811161030c57610350903690600401612387565b6001600160a01b039190838316331480156106e9575b61036f9061248e565b8282161561037d81156124f1565b610388604435612736565b90610394606435612736565b90858716156106ae575b61060a575b6044355f525f60205260405f208587165f5260205260405f20546103cb60643582101561254b565b6044355f90815260208181526040808320898b1684529091528082206064359384900390558688168252902080549091610404916125aa565b90556040516044358152606435602082015285851690868816907fc3d58168c5ae7397731d063d5bbf3d657854427343f4c083240f7aacaa2d0f6260403392a482516105b1575b5050813b61045557005b6020916104a0915f6040519586809581948363f23a6e6160e01b9b8c85523360048601521660248401526044356044840152606435606484015260a0608484015260a48301906122a8565b0393165af15f9181610580575b50610519576104ba612659565b6308c379a0146104e2575b60405162461bcd60e51b8152806104de600482016126e1565b0390fd5b6104ea612674565b806104f557506104c5565b60405162461bcd60e51b8152602060048201529081906104de9060248301906122a8565b6001600160e01b0319160361052a57005b60405162461bcd60e51b815260206004820152602860248201527f455243313135353a204552433131353552656365697665722072656a656374656044820152676420746f6b656e7360c01b6064820152608490fd5b6105a391925060203d6020116105aa575b61059b8183612266565b810190612639565b90836104ad565b503d610591565b5f80516020612b01833981519152916106006105f26105e4936040519485943386526080602087015260808601906123a5565b9084820360408601526123a5565b8281036060840152856122a8565b0390a1848061044b565b94919390925f5b84518110156106a3576106248186612466565b51906106308189612466565b51825f52600360205260405f20548181106106605761065b935f5260036020520360405f2055612458565b610611565b60405162461bcd60e51b815260206004820152602860248201525f80516020612b21833981519152604482015267616c537570706c7960c01b6064820152608490fd5b5092909391946103a3565b9491939095925f5b85518110156106dd57806106cd6106d8928a612466565b516102b98289612466565b6106b6565b5092959093919461039e565b508284165f52600160205260405f20335f5260205261036f60ff60405f2054169050610366565b3461030c57604036600319011261030c576107296121cc565b6107316121e2565b9060018060a01b038091165f52600160205260405f2091165f52602052602060ff60405f2054166040519015158152f35b3461030c5760208060031936011261030c576001600160601b03600435818116810361030c575b81811690815f526003845260405f2054156107c257508181146107ae57600101610789565b634e487b7160e01b5f52601160045260245ffd5b6040519216825250f35b3461030c57602036600319011261030c576004355f526003602052602060405f2054604051908152f35b3461030c57606036600319011261030c5761080f6121cc565b6001600160401b039060243582811161030c57610830903690600401612387565b9160443581811161030c57610849903690600401612387565b9060069081549260ff8460081c161595868097610c6b575b8015610c54575b15610bf857600194878660ff198316178655610be7575b508051838111610adb57806108956009546121f8565b92601f93848111610b79575b50602090848311600114610afa575f92610aef575b50505f19600383901b1c191690861b176009555b8151928311610adb5782916108e0600a546121f8565b828111610a6b575b5060209183116001146109ec575f926109e1575b50505f19600383901b1c191690831b17600a555b80549260ff8460081c16156109885762010000600160b01b0360109190911b1662010000600160b01b03198416811782559361094857005b610100600160b01b031990921690921790556040519081527f7f26b83ff96e1f2b6a682f133852f6798a09c465da95921460cefb384740249890602090a1005b60405162461bcd60e51b815260206004820152602b60248201527f496e697469616c697a61626c653a20636f6e7472616374206973206e6f74206960448201526a6e697469616c697a696e6760a81b6064820152608490fd5b0151905086806108fc565b90859350601f19831691600a5f527fc65a7bb8d6351c1cf70c95a316cc6a92839c986682d98bc35f958f4883f9d2a8925f5b818110610a5357508411610a3b575b505050811b01600a55610910565b01515f1960f88460031b161c19169055868080610a2d565b82840151855588969094019360209384019301610a1e565b90919250600a5f527fc65a7bb8d6351c1cf70c95a316cc6a92839c986682d98bc35f958f4883f9d2a88380860160051c82019260208710610ad2575b91869589929594930160051c01915b828110610ac45750506108e8565b5f8155869550889101610ab6565b92508192610aa7565b634e487b7160e01b5f52604160045260245ffd5b0151905089806108b6565b90889350601f1983169160095f527f6e1540171b6c0c960b71a7020d9f60077f6af931a8bbf590da0223dacf75c7af925f5b818110610b6157508411610b49575b505050811b016009556108ca565b01515f1960f88460031b161c19169055898080610b3b565b8284015185558b969094019360209384019301610b2c565b90915060095f527f6e1540171b6c0c960b71a7020d9f60077f6af931a8bbf590da0223dacf75c7af8480850160051c82019260208610610bde575b918a91869594930160051c01915b828110610bd05750506108a1565b5f81558594508a9101610bc2565b92508192610bb4565b61ffff19166101011784558761087f565b60405162461bcd60e51b815260206004820152602e60248201527f496e697469616c697a61626c653a20636f6e747261637420697320616c72656160448201526d191e481a5b9a5d1a585b1a5e995960921b6064820152608490fd5b50303b1580156108685750600160ff861614610868565b50600160ff861610610861565b3461030c57604036600319011261030c57610c916121cc565b6024359081151580920361030c576001600160a01b031690338214610d0157335f52600160205260405f20825f5260205260405f2060ff1981541660ff83161790556040519081527f17307eab39ab6107e8899845ad3d59bd9653f200f220920489ca2b5937696c3160203392a3005b60405162461bcd60e51b815260206004820152602960248201527f455243313135353a2073657474696e6720617070726f76616c20737461747573604482015268103337b91039b2b63360b91b6064820152608490fd5b3461030c575f36600319011261030c57604051600a545f82610d79836121f8565b918282526020936001908582821691825f14610e19575050600114610dbe575b50610da692500383612266565b610dba6040519282849384528301906122a8565b0390f35b849150600a5f527fc65a7bb8d6351c1cf70c95a316cc6a92839c986682d98bc35f958f4883f9d2a8905f915b858310610e01575050610da6935082010185610d99565b80548389018501528794508693909201918101610dea565b60ff191685820152610da695151560051b8501019250879150610d999050565b3461030c575f36600319011261030c5760065460405160109190911c6001600160a01b03168152602090f35b3461030c57604036600319011261030c576001600160401b0360043560243582811161030c573660238201121561030c5780600401359083821161030c57366024838301011161030c57610ef191610ee7337f00000000000000000000000000000000000000000000000000000000000000006001600160a01b03161461280b565b6024369201612342565b91815f526020906005825260405f20908451908111610adb57610f1482546121f8565b601f811161101b575b5082601f8211600114610f985781907f6bb7ff708619ba0610cba295a58592e0451dee2622938c8755667688daf3529b95965f92610f8d575b50508160011b915f199060031b1c19161790555b610f73836128c3565b90610f886040519282849384528301906122a8565b0390a2005b015190508680610f56565b601f19821695835f52845f20965f5b8181106110045750917f6bb7ff708619ba0610cba295a58592e0451dee2622938c8755667688daf3529b969791846001959410610fec575b505050811b019055610f6a565b01515f1960f88460031b161c19169055868080610fdf565b838301518955600190980197928601928601610fa7565b825f52835f20601f830160051c810191858410611054575b601f0160051c01905b8181106110495750610f1d565b5f815560010161103c565b9091508190611033565b3461030c57608036600319011261030c576110776121cc565b6064356001600160401b03811161030c57611096903690600401612387565b6001600160a01b036110cb337f000000000000000000000000000000000000000000000000000000000000000083161461280b565b80831615916110da831561286d565b6110e5602435612736565b916110f1604435612736565b945f5b845181101561111b578061110b6111169289612466565b516102b98288612466565b6110f4565b508593856112cf575b6024355f526020945f865260405f208484165f52865260405f2061114b60443582546125aa565b90556040516024358152604435878201525f858516917fc3d58168c5ae7397731d063d5bbf3d657854427343f4c083240f7aacaa2d0f6260403392a48451611285575b5050803b61119857005b5f91849160405180948193826111e063f23a6e6160e01b998a83523360048401528460248401526024356044840152604435606484015260a0608484015260a48301906122a8565b0393165af15f9181611266575b5061125357826111fb612659565b6308c379a01461121e5760405162461bcd60e51b8152806104de600482016126e1565b611226612674565b908161123257506104c5565b6104de60405192839262461bcd60e51b8452600484015260248301906122a8565b6001600160e01b03191603905061052a57005b61127e919250843d86116105aa5761059b8183612266565b90846111ed565b5f80516020612b01833981519152916112c56112b76105e49360405194859433865260808c87015260808601906123a5565b8281036060840152876122a8565b0390a1848061118e565b915f9391935b8351811015611324576112e88185612466565b51906112f48188612466565b51825f52600360205260405f20548181106106605761131f935f5260036020520360405f2055612458565b6112d5565b5091929092611124565b3461030c57606036600319011261030c576113476121cc565b6024906001600160401b0390823582811161030c5761136a9036906004016122e4565b91604490813590811161030c576113859036906004016122e4565b6001600160a01b03909216923384148015611540575b6113a49061248e565b83156113b0811561275b565b6113bd82518551146125b7565b5f6040516113ca8161224b565b52611514575b5f5b8151811015611466576113e58183612466565b516113f08286612466565b5190805f526003602081815260405f205492848410611425579061142095949392915f52520360405f2055612458565b6113d2565b60405162461bcd60e51b8152600481018390526028818d01525f80516020612b21833981519152818a015267616c537570706c7960c01b6064820152608490fd5b8382865f5b82518110156114d057806114826114cb9285612466565b5161148d8287612466565b5190805f5260205f815260405f20865f52815260405f2054916114b2848410156127b3565b5f525f815260405f2090865f52520360405f2055612458565b61146b565b50907f4a39dc06d4c0dbc64b70af90fd698a233a518aa5d07e595d983b8c0526c8f7fb6115065f94604051918291339583612614565b0390a461028e60405161224b565b925f9491945b8451811015611536578061110b6115319286612466565b61151a565b50929390936113d0565b50835f52600160205260405f20335f526020526113a460ff60405f205416905061139b565b3461030c57606036600319011261030c5761157e6121e2565b6044356001600160601b03811680910361030c576001600160a01b03916115c8337f000000000000000000000000000000000000000000000000000000000000000085161461280b565b612710821161165f57821691821561161a57604051926115e784612230565b8352602083019182526004355f52600860205260405f20925116906001600160601b0360a01b905160a01b161790555f80f35b60405162461bcd60e51b815260206004820152601b60248201527f455243323938313a20496e76616c696420706172616d657465727300000000006044820152606490fd5b60405162461bcd60e51b815260206004820152602a60248201527f455243323938313a20726f79616c7479206665652077696c6c206578636565646044820152692073616c65507269636560b01b6064820152608490fd5b3461030c57602036600319011261030c576004355f526003602052602060405f20541515604051908152f35b3461030c57604036600319011261030c576004356001600160401b0380821161030c573660238301121561030c57816004013590611720826122cd565b9261172e6040519485612266565b82845260209260248486019160051b8301019136831161030c57602401905b8282106118615750505060243590811161030c5761176f9036906004016122e4565b825181510361180a57825192611784846122cd565b936117926040519586612266565b8085526117a1601f19916122cd565b0136848601375f5b81518110156117f3576117ee906117de6001600160a01b036117cb8386612466565b51166117d78387612466565b51906123d8565b6117e88288612466565b52612458565b6117a9565b505050610dba6040519282849384528301906123a5565b60405162461bcd60e51b815260048101839052602960248201527f455243313135353a206163636f756e747320616e6420696473206c656e677468604482015268040dad2e6dac2e8c6d60bb1b6064820152608490fd5b81356001600160a01b038116810361030c57815290840190840161174d565b3461030c5760031960a03682011261030c5761189a6121cc565b906118a36121e2565b6044908135926001600160401b039384811161030c576118c79036906004016122e4565b6064803586811161030c576118e09036906004016122e4565b94608496873590811161030c576118fb903690600401612387565b6001600160a01b039489861633148015611bf5575b6119199061248e565b61192685518951146125b7565b8587161561193481156124f1565b868b1615611bb3575b611b04575b5f5b85518110156119cb578061195b6119c69288612466565b518c611967838d612466565b5191805f52826020925f845260405f208d82165f52845260405f2054906119908383101561254b565b835f525f85528d60405f2091165f5284520360405f20555f525f815260405f20908a8c165f52526102d060405f209182546125aa565b611944565b50888a989796949789604051887f4a39dc06d4c0dbc64b70af90fd698a233a518aa5d07e595d983b8c0526c8f7fb89808d1694169280611a0d87339583612614565b0390a48351611ab1575b873b611a1f57005b60405198899788968863bc197c8160e01b9d8e8a523360048b0152166024890152870160a0905260a48701611a53916123a5565b90848783030190870152611a66916123a5565b918483030190840152611a78916122a8565b03921691815a6020945f91f15f9181611a985750610519576104ba612659565b6105a391925060203d81116105aa5761059b8183612266565b5f80516020612b018339815191526040513381526080602082015280611afc611aee611ae0608084018d6123a5565b8381036040850152866123a5565b8281036060840152886122a8565b0390a1611a17565b979694905f9993999692965b8551811015611ba357611b238187612466565b51611b2e8289612466565b5190805f5260206003815260405f205491838310611b6357611b5e949392916003915f52520360405f2055612458565b611b10565b508b9067616c537570706c7960c01b8f5f80516020612b218339815191528e6040519462461bcd60e51b8652600486015260286024860152840152820152fd5b5090949697989298959195611942565b9996949895939291905f5b8a51811015611be657808b6102b982611bda611be1958f612466565b5192612466565b611bbe565b5090919293959894969961193d565b50858a165f52600160205260405f20335f5260205261191960ff60405f2054169050611910565b3461030c57604036600319011261030c576024356004355f52600860205260405f209060405191611c4c83612230565b546001600160a01b0380821680855260a09290921c6020850152929015611ca4575b6001600160601b03602082015116918281029281840414901517156107ae57604092612710915116918351928352046020820152f35b50604051611cb181612230565b600754838116825260a01c6020820152611c6e565b3461030c5760031960803682011261030c57611ce06121cc565b602491906001600160401b0390833582811161030c57611d049036906004016122e4565b91604494853582811161030c57611d1f9036906004016122e4565b95606492833590811161030c57611d3a903690600401612387565b926001600160a01b03611d70337f000000000000000000000000000000000000000000000000000000000000000083161461280b565b851693841597611d80891561286d565b611d8d88518b51146125b7565b5f5b8851811015611db65780611da6611db1928d612466565b516102b9828c612466565b611d8f565b508998979697611f8c575b5f5b8751811015611e0a5780611dda611e05928c612466565b51611de5828b612466565b515f5260205f815260405f20908a5f52526102d060405f209182546125aa565b611dc3565b5090919397959296855f6040517f4a39dc06d4c0dbc64b70af90fd698a233a518aa5d07e595d983b8c0526c8f7fb339180611e468d8b83612614565b0390a48251611f47575b3b611e5757005b604051958694859463bc197c8160e01b998a87523360048801528b87015f9052860160a0905260a48601611e8a916123a5565b90838683030190860152611e9d916123a5565b90838203016084840152611eb0916122a8565b03815a6020945f91f15f9181611f27575b506112535782611ecf612659565b6308c379a014611ef25760405162461bcd60e51b8152806104de600482016126e1565b611efa612674565b9081611f0657506104c5565b6104de60405192839262461bcd60e51b8452602060048501528301906122a8565b611f4091925060203d81116105aa5761059b8183612266565b9084611ec1565b5f80516020612b018339815191526040513381526080602082015280611f846112b7611f76608084018a6123a5565b83810360408501528c6123a5565b0390a1611e50565b9691959294905f9894985b845181101561202b57611faa8186612466565b51611fb58288612466565b5190805f526003602081815260405f205492848410611fea5790611fe595949392915f52520360405f2055612458565b611f97565b506084818f8e5f80516020612b218339815191528f602867616c537570706c7960c01b946040519662461bcd60e51b88526004880152860152840152820152fd5b50909492959196979397611dc1565b3461030c57602036600319011261030c57610dba6120596004356128c3565b6040519182916020835260208301906122a8565b3461030c575f36600319011261030c576040516009545f8261208e836121f8565b918282526020936001908582821691825f14610e195750506001146120ba5750610da692500383612266565b84915060095f527f6e1540171b6c0c960b71a7020d9f60077f6af931a8bbf590da0223dacf75c7af905f915b8583106120fd575050610da6935082010185610d99565b805483890185015287945086939092019181016120e6565b3461030c57602036600319011261030c5760043563ffffffff60e01b811680910361030c5760209063152a902d60e11b811490811561215a575b506040519015158152f35b636cdb3d1360e11b81149150811561218c575b811561217b575b508261214f565b6301ffc9a760e01b14905082612174565b6303a24d0760e21b8114915061216d565b3461030c57604036600319011261030c5760206121c46121bb6121cc565b602435906123d8565b604051908152f35b600435906001600160a01b038216820361030c57565b602435906001600160a01b038216820361030c57565b90600182811c92168015612226575b602083101461221257565b634e487b7160e01b5f52602260045260245ffd5b91607f1691612207565b604081019081106001600160401b03821117610adb57604052565b602081019081106001600160401b03821117610adb57604052565b90601f801991011681019081106001600160401b03821117610adb57604052565b5f5b8381106122985750505f910152565b8181015183820152602001612289565b906020916122c181518092818552858086019101612287565b601f01601f1916010190565b6001600160401b038111610adb5760051b60200190565b9080601f8301121561030c5760209082356122fe816122cd565b9361230c6040519586612266565b818552838086019260051b82010192831161030c578301905b828210612333575050505090565b81358152908301908301612325565b9291926001600160401b038211610adb576040519161236b601f8201601f191660200184612266565b82948184528183011161030c578281602093845f960137010152565b9080601f8301121561030c578160206123a293359101612342565b90565b9081518082526020808093019301915f5b8281106123c4575050505090565b8351855293810193928101926001016123b6565b6001600160a01b0316908115612400575f525f60205260405f20905f5260205260405f205490565b60405162461bcd60e51b815260206004820152602a60248201527f455243313135353a2061646472657373207a65726f206973206e6f742061207660448201526930b634b21037bbb732b960b11b6064820152608490fd5b5f1981146107ae5760010190565b805182101561247a5760209160051b010190565b634e487b7160e01b5f52603260045260245ffd5b1561249557565b60405162461bcd60e51b815260206004820152602e60248201527f455243313135353a2063616c6c6572206973206e6f7420746f6b656e206f776e60448201526d195c881bdc88185c1c1c9bdd995960921b6064820152608490fd5b156124f857565b60405162461bcd60e51b815260206004820152602560248201527f455243313135353a207472616e7366657220746f20746865207a65726f206164604482015264647265737360d81b6064820152608490fd5b1561255257565b60405162461bcd60e51b815260206004820152602a60248201527f455243313135353a20696e73756666696369656e742062616c616e636520666f60448201526939103a3930b739b332b960b11b6064820152608490fd5b919082018092116107ae57565b156125be57565b60405162461bcd60e51b815260206004820152602860248201527f455243313135353a2069647320616e6420616d6f756e7473206c656e677468206044820152670dad2e6dac2e8c6d60c31b6064820152608490fd5b909161262b6123a2936040845260408401906123a5565b9160208184039101526123a5565b9081602091031261030c57516001600160e01b03198116810361030c5790565b5f9060033d1161266557565b905060045f803e5f5160e01c90565b5f60443d106123a257604051600319913d83016004833e81516001600160401b03918282113d6024840111176126d0578184019485519384116126d8573d850101602084870101116126d057506123a292910160200190612266565b949350505050565b50949350505050565b60809060208152603460208201527f455243313135353a207472616e7366657220746f206e6f6e2d455243313135356040820152732932b1b2b4bb32b91034b6b83632b6b2b73a32b960611b60608201520190565b6040519061274382612230565b6001825260208201602036823782511561247a575290565b1561276257565b60405162461bcd60e51b815260206004820152602360248201527f455243313135353a206275726e2066726f6d20746865207a65726f206164647260448201526265737360e81b6064820152608490fd5b156127ba57565b60405162461bcd60e51b8152602060048201526024808201527f455243313135353a206275726e20616d6f756e7420657863656564732062616c604482015263616e636560e01b6064820152608490fd5b1561281257565b60405162461bcd60e51b815260206004820152602d60248201527f4b617469626568313135353a207265737472696374656420616363657373207460448201526c6f2074686520466163746f727960981b6064820152608490fd5b1561287457565b60405162461bcd60e51b815260206004820152602160248201527f455243313135353a206d696e7420746f20746865207a65726f206164647265736044820152607360f81b6064820152608490fd5b5f908152602090600582526040812090604051908091835492816128e6856121f8565b91828252878201966001968988821691825f14612ae2575050600114612aa4575b5061291492500382612266565b8051156129e957604051948593836004549161292f836121f8565b928181169081156129c85750600114612968575b505050506129596123a294839251938491612287565b0103601f198101835282612266565b909192969450600482527f8a35acfbc15ff81a39ae7d344fd709f28e8600b4aa8c65c6b64bfe7fe36bd19b5b8383106129b2575050506123a2946129599185010192945f80612943565b8054898401890152889650918701918101612994565b60ff1916888601525050508015150284010191506129596123a25f80612943565b5060405160025490949350849282612a00836121f8565b80865292828116908115612a825750600114612a26575b5050506123a292500382612266565b600281527f405787fa12a823e0f2b7631cc41b3ba8828b3321ca811111fa75cd3aa3bb5ace95935091905b818310612a6a5750506123a293508201015f8080612a17565b85548784018501529485019486945091830191612a51565b925050506123a294925060ff191682840152151560051b8201015f8080612a17565b915050835281868085208686915b858310612ac957505061291493508201015f612907565b8091929450548385880101520191018790868593612ab2565b60ff19168a5261291495151560051b85010192505f9150612907905056fe64b6d1b9c6726b4405acbd47f33ee45712403cd8422e6b9ccb562c0dec7965d4455243313135353a206275726e20616d6f756e74206578636565647320746f74a2646970667358221220128bbddd96550948309a9baa7605ba59814afbc1af9bb7e8d2f5b8e9735aa04164736f6c63430008150033",
  "linkReferences": {},
  "deployedLinkReferences": {}
}