{
  "_format": "hh-sol-artifact-1",
  "contractName": "Katibeh1155",
  "sourceName": "contracts/katibeh1155/Katibeh1155.sol",
  "abi": [
    {
      "inputs": [],
      "stateMutability": "nonpayable",
      "type": "constructor"
    },
    {
      "anonymous": false,
      "inputs": [
        {
          "indexed": true,
          "internalType": "address",
          "name": "account",
          "type": "address"
        },
        {
          "indexed": true,
          "internalType": "address",
          "name": "operator",
          "type": "address"
        },
        {
          "indexed": false,
          "internalType": "bool",
          "name": "approved",
          "type": "bool"
        }
      ],
      "name": "ApprovalForAll",
      "type": "event"
    },
    {
      "anonymous": false,
      "inputs": [
        {
          "indexed": false,
          "internalType": "uint8",
          "name": "version",
          "type": "uint8"
        }
      ],
      "name": "Initialized",
      "type": "event"
    },
    {
      "anonymous": false,
      "inputs": [
        {
          "indexed": true,
          "internalType": "address",
          "name": "operator",
          "type": "address"
        },
        {
          "indexed": true,
          "internalType": "address",
          "name": "from",
          "type": "address"
        },
        {
          "indexed": true,
          "internalType": "address",
          "name": "to",
          "type": "address"
        },
        {
          "indexed": false,
          "internalType": "uint256[]",
          "name": "ids",
          "type": "uint256[]"
        },
        {
          "indexed": false,
          "internalType": "uint256[]",
          "name": "values",
          "type": "uint256[]"
        }
      ],
      "name": "TransferBatch",
      "type": "event"
    },
    {
      "anonymous": false,
      "inputs": [
        {
          "indexed": true,
          "internalType": "address",
          "name": "operator",
          "type": "address"
        },
        {
          "indexed": true,
          "internalType": "address",
          "name": "from",
          "type": "address"
        },
        {
          "indexed": true,
          "internalType": "address",
          "name": "to",
          "type": "address"
        },
        {
          "indexed": false,
          "internalType": "uint256",
          "name": "id",
          "type": "uint256"
        },
        {
          "indexed": false,
          "internalType": "uint256",
          "name": "value",
          "type": "uint256"
        }
      ],
      "name": "TransferSingle",
      "type": "event"
    },
    {
      "anonymous": false,
      "inputs": [
        {
          "indexed": false,
          "internalType": "string",
          "name": "value",
          "type": "string"
        },
        {
          "indexed": true,
          "internalType": "uint256",
          "name": "id",
          "type": "uint256"
        }
      ],
      "name": "URI",
      "type": "event"
    },
    {
      "inputs": [
        {
          "internalType": "address",
          "name": "account",
          "type": "address"
        },
        {
          "internalType": "uint256",
          "name": "id",
          "type": "uint256"
        }
      ],
      "name": "balanceOf",
      "outputs": [
        {
          "internalType": "uint256",
          "name": "",
          "type": "uint256"
        }
      ],
      "stateMutability": "view",
      "type": "function"
    },
    {
      "inputs": [
        {
          "internalType": "address[]",
          "name": "accounts",
          "type": "address[]"
        },
        {
          "internalType": "uint256[]",
          "name": "ids",
          "type": "uint256[]"
        }
      ],
      "name": "balanceOfBatch",
      "outputs": [
        {
          "internalType": "uint256[]",
          "name": "",
          "type": "uint256[]"
        }
      ],
      "stateMutability": "view",
      "type": "function"
    },
    {
      "inputs": [
        {
          "internalType": "address",
          "name": "account",
          "type": "address"
        },
        {
          "internalType": "uint256",
          "name": "id",
          "type": "uint256"
        },
        {
          "internalType": "uint256",
          "name": "value",
          "type": "uint256"
        }
      ],
      "name": "burn",
      "outputs": [],
      "stateMutability": "nonpayable",
      "type": "function"
    },
    {
      "inputs": [
        {
          "internalType": "address",
          "name": "account",
          "type": "address"
        },
        {
          "internalType": "uint256[]",
          "name": "ids",
          "type": "uint256[]"
        },
        {
          "internalType": "uint256[]",
          "name": "values",
          "type": "uint256[]"
        }
      ],
      "name": "burnBatch",
      "outputs": [],
      "stateMutability": "nonpayable",
      "type": "function"
    },
    {
      "inputs": [
        {
          "internalType": "uint256",
          "name": "id",
          "type": "uint256"
        }
      ],
      "name": "exists",
      "outputs": [
        {
          "internalType": "bool",
          "name": "",
          "type": "bool"
        }
      ],
      "stateMutability": "view",
      "type": "function"
    },
    {
      "inputs": [
        {
          "internalType": "address",
          "name": "owner_",
          "type": "address"
        },
        {
          "internalType": "string",
          "name": "name_",
          "type": "string"
        },
        {
          "internalType": "string",
          "name": "symbol_",
          "type": "string"
        }
      ],
      "name": "init",
      "outputs": [],
      "stateMutability": "nonpayable",
      "type": "function"
    },
    {
      "inputs": [
        {
          "internalType": "address",
          "name": "account",
          "type": "address"
        },
        {
          "internalType": "address",
          "name": "operator",
          "type": "address"
        }
      ],
      "name": "isApprovedForAll",
      "outputs": [
        {
          "internalType": "bool",
          "name": "",
          "type": "bool"
        }
      ],
      "stateMutability": "view",
      "type": "function"
    },
    {
      "inputs": [
        {
          "internalType": "address",
          "name": "addr",
          "type": "address"
        },
        {
          "internalType": "uint256",
          "name": "id",
          "type": "uint256"
        },
        {
          "internalType": "uint256",
          "name": "amount",
          "type": "uint256"
        },
        {
          "internalType": "bytes",
          "name": "data",
          "type": "bytes"
        }
      ],
      "name": "mint",
      "outputs": [],
      "stateMutability": "nonpayable",
      "type": "function"
    },
    {
      "inputs": [],
      "name": "name",
      "outputs": [
        {
          "internalType": "string",
          "name": "",
          "type": "string"
        }
      ],
      "stateMutability": "view",
      "type": "function"
    },
    {
      "inputs": [],
      "name": "owner",
      "outputs": [
        {
          "internalType": "address",
          "name": "",
          "type": "address"
        }
      ],
      "stateMutability": "view",
      "type": "function"
    },
    {
      "inputs": [
        {
          "internalType": "address",
          "name": "from",
          "type": "address"
        },
        {
          "internalType": "address",
          "name": "to",
          "type": "address"
        },
        {
          "internalType": "uint256[]",
          "name": "ids",
          "type": "uint256[]"
        },
        {
          "internalType": "uint256[]",
          "name": "amounts",
          "type": "uint256[]"
        },
        {
          "internalType": "bytes",
          "name": "data",
          "type": "bytes"
        }
      ],
      "name": "safeBatchTransferFrom",
      "outputs": [],
      "stateMutability": "nonpayable",
      "type": "function"
    },
    {
      "inputs": [
        {
          "internalType": "address",
          "name": "from",
          "type": "address"
        },
        {
          "internalType": "address",
          "name": "to",
          "type": "address"
        },
        {
          "internalType": "uint256",
          "name": "id",
          "type": "uint256"
        },
        {
          "internalType": "uint256",
          "name": "amount",
          "type": "uint256"
        },
        {
          "internalType": "bytes",
          "name": "data",
          "type": "bytes"
        }
      ],
      "name": "safeTransferFrom",
      "outputs": [],
      "stateMutability": "nonpayable",
      "type": "function"
    },
    {
      "inputs": [
        {
          "internalType": "address",
          "name": "operator",
          "type": "address"
        },
        {
          "internalType": "bool",
          "name": "approved",
          "type": "bool"
        }
      ],
      "name": "setApprovalForAll",
      "outputs": [],
      "stateMutability": "nonpayable",
      "type": "function"
    },
    {
      "inputs": [
        {
          "internalType": "uint256",
          "name": "tokenId",
          "type": "uint256"
        },
        {
          "internalType": "string",
          "name": "tokenURI",
          "type": "string"
        }
      ],
      "name": "setURI",
      "outputs": [],
      "stateMutability": "nonpayable",
      "type": "function"
    },
    {
      "inputs": [
        {
          "internalType": "bytes4",
          "name": "interfaceId",
          "type": "bytes4"
        }
      ],
      "name": "supportsInterface",
      "outputs": [
        {
          "internalType": "bool",
          "name": "",
          "type": "bool"
        }
      ],
      "stateMutability": "view",
      "type": "function"
    },
    {
      "inputs": [],
      "name": "symbol",
      "outputs": [
        {
          "internalType": "string",
          "name": "",
          "type": "string"
        }
      ],
      "stateMutability": "view",
      "type": "function"
    },
    {
      "inputs": [
        {
          "internalType": "uint256",
          "name": "id",
          "type": "uint256"
        }
      ],
      "name": "totalSupply",
      "outputs": [
        {
          "internalType": "uint256",
          "name": "",
          "type": "uint256"
        }
      ],
      "stateMutability": "view",
      "type": "function"
    },
    {
      "inputs": [
        {
          "internalType": "uint256",
          "name": "tokenId",
          "type": "uint256"
        }
      ],
      "name": "uri",
      "outputs": [
        {
          "internalType": "string",
          "name": "",
          "type": "string"
        }
      ],
      "stateMutability": "view",
      "type": "function"
    }
  ],
  "bytecode": "0x608034620000e957602081016001600160401b03811182821017620000d357604052600080915262000033600254620000ee565b601f811162000092575b50806002556200004f600454620000ee565b601f81116200006e575b60006004556040516123a39081620001458239f35b601f60208360046200008a955220910160051c8101906200012b565b388062000059565b60028252620000cc90601f0160051c7f405787fa12a823e0f2b7631cc41b3ba8828b3321ca811111fa75cd3aa3bb5ace908101906200012b565b386200003d565b634e487b7160e01b600052604160045260246000fd5b600080fd5b90600182811c9216801562000120575b60208310146200010a57565b634e487b7160e01b600052602260045260246000fd5b91607f1691620000fe565b81811062000137575050565b600081556001016200012b56fe6080604052600436101561001257600080fd5b60003560e01c8062fdd58e146119cc57806301ffc9a71461195e57806306fdde03146118b85780630e89341c146118995780632eb2c2d6146114be5780634e1273f4146113205780634f558e79146112f25780636b20c45414611098578063731133e914610e83578063862440e214610c9e5780638da5cb5b14610c7157806395d89b4114610b8b578063a22cb46514610aa7578063b2b45df514610758578063bd85b0391461072c578063e985e9c5146106d6578063f242432a146102f75763f5298aca146100e157600080fd5b346102f25760603660031901126102f2576100fa6119fb565b60249060448035916001600160a01b031690833533831480156102c9575b61012190611cc6565b82159261012e8415611f9c565b61013782611f67565b9161014186611f67565b94600060405161015081611a61565b5261026f575b60005b83518110156101f25761016c8185611c9c565b516101778288611c9c565b51908060005260036020818152604060002054928484106101b057906101ab95949392916000525203604060002055611c77565b610159565b5060849060008051602061234e8339815191528a60288f6040519462461bcd60e51b8652600486015284015282015267616c537570706c7960c01b6064820152fd5b6000838389818452836020526040842083855260205280604085205461021a82821015611ff4565b838652856020526040862085875260205203604085205560405191825260208201527fc3d58168c5ae7397731d063d5bbf3d657854427343f4c083240f7aacaa2d0f6260403392a461026d604051611a61565b005b949195929060005b87518110156102be578061028e6102b99288611c9c565b51610299828b611c9c565b5160005260036020526102b26040600020918254611de3565b9055611c77565b610277565b509092959194610156565b5082600052600160205260406000203360005260205261012160ff604060002054169050610118565b600080fd5b346102f25760a03660031901126102f2576103106119fb565b610318611a11565b90608480356001600160401b0381116102f257610339903690600401611ba0565b6001600160a01b039190838316331480156106ab575b61035890611cc6565b828516156103668115611d2a565b610371604435611f67565b61037c606435611f67565b918587161561066b575b6105bd575b505060443560005260209460008652604060002084861660005286526040600020546103bb606435821015611d84565b60443560005260008752604060002085871660005287526064359003604060002055604435600052600086526040600020848216600052865260406000206104066064358254611de3565b905560405160443581526064358782015284821690858716907fc3d58168c5ae7397731d063d5bbf3d657854427343f4c083240f7aacaa2d0f6260403392a4803b61044d57005b60a06000610497958895604051978896879586938563f23a6e6160e01b9d8e87523360048801521660248601526044356044860152606435606486015284015260a4830190611ac0565b0393165af16000918161058e575b506105645750506001906104b7611edb565b6308c379a01461052f575b506104c957005b60405162461bcd60e51b815260206004820152603460248201527f455243313135353a207472616e7366657220746f206e6f6e20455243313135356044820152732932b1b2b4bb32b91034b6b83632b6b2b73a32b960611b6064820152608490fd5b0390fd5b610537611ef9565b908161054357506104c2565b61052b60405192839262461bcd60e51b845260048401526024830190611ac0565b6001600160e01b03191614905061026d5760405162461bcd60e51b81528061052b60048201611e92565b6105af919250843d86116105b6575b6105a78183611a7c565b810190611e72565b90846104a5565b503d61059d565b92959194909360005b845181101561065c576105d98186611c9c565b51906105e58188611c9c565b518260005260036020526040600020548181106106195761061493600052600360205203604060002055611c77565b6105c6565b60405162461bcd60e51b8152602060048201526028602482015260008051602061234e833981519152604482015267616c537570706c7960c01b60648201528b90fd5b5093509390949150858061038b565b959260009794919592975b865181101561069d578061068d610698928b611c9c565b51610299828a611c9c565b610676565b509295969194909396610386565b50828416600052600160205260406000203360005260205261035860ff60406000205416905061034f565b346102f25760403660031901126102f2576106ef6119fb565b6106f7611a11565b9060018060a01b03809116600052600160205260406000209116600052602052602060ff604060002054166040519015158152f35b346102f25760203660031901126102f25760043560005260036020526020604060002054604051908152f35b346102f25760603660031901126102f2576107716119fb565b6001600160401b03906024358281116102f257610792903690600401611ba0565b906044358381116102f2576107ab903690600401611ba0565b92600654926107c060ff600895861c1661204c565b805182811161099657806107d48654611a27565b92601f93848111610a3a575b506020908483116001146109b7576000926109ac575b50508160011b916000199060031b1c19161784555b84519182116109965761081f600954611a27565b818111610934575b5060209082116001146108b057819293946000926108a5575b50508160011b916000199060031b1c1916176009555b336bffffffffffffffffffffffff60a01b600754161760075561088060ff60065480941c1661204c565b62010000600160b01b031990911660109190911b62010000600160b01b031617600655005b015190508480610840565b601f1982169060096000527f6e1540171b6c0c960b71a7020d9f60077f6af931a8bbf590da0223dacf75c7af9160005b81811061091c57509583600195969710610903575b505050811b01600955610856565b015160001960f88460031b161c191690558480806108f5565b9192602060018192868b0151815501940192016108e0565b60096000527f6e1540171b6c0c960b71a7020d9f60077f6af931a8bbf590da0223dacf75c7af8280850160051c8201926020861061098d575b0160051c01905b8181106109815750610827565b60008155600101610974565b9250819261096d565b634e487b7160e01b600052604160045260246000fd5b0151905087806107f6565b60008881527ff3f7a9fe364faab93b216da50a3214154f22a0a2b415b23a84c8169e8b636ee39350601f198516905b818110610a225750908460019594939210610a09575b505050811b01845561080b565b015160001960f88460031b161c191690558780806109fc565b929360206001819287860151815501950193016109e6565b909150866000527ff3f7a9fe364faab93b216da50a3214154f22a0a2b415b23a84c8169e8b636ee38480850160051c82019260208610610a9e575b9085949392910160051c01905b818110610a8f57506107e0565b60008155849350600101610a82565b92508192610a75565b346102f25760403660031901126102f257610ac06119fb565b602435908115158092036102f2576001600160a01b031690338214610b3457336000526001602052604060002082600052602052604060002060ff1981541660ff83161790556040519081527f17307eab39ab6107e8899845ad3d59bd9653f200f220920489ca2b5937696c3160203392a3005b60405162461bcd60e51b815260206004820152602960248201527f455243313135353a2073657474696e6720617070726f76616c20737461747573604482015268103337b91039b2b63360b91b6064820152608490fd5b346102f25760003660031901126102f2576040516000600954610bad81611a27565b80845290600190818116908115610c4a5750600114610bef575b610beb84610bd781860382611a7c565b604051918291602083526020830190611ac0565b0390f35b6009600090815292507f6e1540171b6c0c960b71a7020d9f60077f6af931a8bbf590da0223dacf75c7af5b828410610c32575050508101602001610bd782610bc7565b80546020858701810191909152909301928101610c1a565b60ff191660208087019190915292151560051b85019092019250610bd79150839050610bc7565b346102f25760003660031901126102f25760065460405160109190911c6001600160a01b03168152602090f35b346102f25760403660031901126102f2576001600160401b036004356024358281116102f257366023820112156102f2578060040135908382116102f25736602483830101116102f257610d0b91610d0160018060a01b036007541633146120ac565b6024369201611b5a565b918160005260209060058252604060002090845190811161099657610d308254611a27565b601f8111610e3d575b5082601f8211600114610db65781907f6bb7ff708619ba0610cba295a58592e0451dee2622938c8755667688daf3529b9596600092610dab575b50508160011b916000199060031b1c19161790555b610d918361210e565b90610da6604051928284938452830190611ac0565b0390a2005b015190508680610d73565b601f1982169583600052846000209660005b818110610e265750917f6bb7ff708619ba0610cba295a58592e0451dee2622938c8755667688daf3529b969791846001959410610e0d575b505050811b019055610d88565b015160001960f88460031b161c19169055868080610e00565b838301518955600190980197928601928601610dc8565b8260005283600020601f830160051c810191858410610e79575b601f0160051c01905b818110610e6d5750610d39565b60008155600101610e60565b9091508190610e57565b346102f25760803660031901126102f257610e9c6119fb565b604435906024356064356001600160401b0381116102f257610ec2903690600401611ba0565b9160018060a01b03610ed9816007541633146120ac565b610ee38383611bf2565b611044578116918215610ff557610ef981611f67565b92610f0386611f67565b9560005b8551811015610f2e5780610f1e610f29928a611c9c565b516102998289611c9c565b610f07565b5085836000526020946000865260406000208460005286526040600020610f56848254611de3565b905583600060405187815285898201527fc3d58168c5ae7397731d063d5bbf3d657854427343f4c083240f7aacaa2d0f6260403392a43b610f9357005b610fd7928592600060405180968195829463f23a6e6160e01b9a8b85523360048601528560248601526044850152606484015260a0608484015260a4830190611ac0565b03925af16000918161058e57506105645750506001906104b7611edb565b60405162461bcd60e51b815260206004820152602160248201527f455243313135353a206d696e7420746f20746865207a65726f206164647265736044820152607360f81b6064820152608490fd5b60405162461bcd60e51b815260206004820152602660248201527f4d61696e6e65742046617273693a20746f6b656e20636f6c6c656374656420616044820152656c726561647960d01b6064820152608490fd5b346102f25760603660031901126102f2576110b16119fb565b6024906001600160401b039082358281116102f2576110d4903690600401611afc565b9160449081359081116102f2576110ef903690600401611afc565b6001600160a01b039092169233841480156112c9575b61110e90611cc6565b831561111a8115611f9c565b6111278251855114611df0565b600060405161113581611a61565b52611291575b60005b81518110156111d7576111518183611c9c565b5161115c8286611c9c565b5190806000526003602081815260406000205492848410611195579061119095949392916000525203604060002055611c77565b61113e565b60405162461bcd60e51b8152600481018390526028818d015260008051602061234e833981519152818a015267616c537570706c7960c01b6064820152608490fd5b83828660005b825181101561124c57806111f46112479285611c9c565b516111ff8287611c9c565b51908060005260206000815260406000208660005281526040600020549161122984841015611ff4565b60005260008152604060002090866000525203604060002055611c77565b6111dd565b50907f4a39dc06d4c0dbc64b70af90fd698a233a518aa5d07e595d983b8c0526c8f7fb611283600094604051918291339583611e4d565b0390a461026d604051611a61565b9260009491945b84518110156112bf57806112af6112ba9286611c9c565b516102998288611c9c565b611298565b509293909361113b565b5083600052600160205260406000203360005260205261110e60ff604060002054169050611105565b346102f25760203660031901126102f257600435600052600360205260206040600020541515604051908152f35b346102f25760403660031901126102f2576004356001600160401b038082116102f257366023830112156102f25781600401359061135d82611ae5565b9261136b6040519485611a7c565b82845260209260248486019160051b830101913683116102f257602401905b82821061149f575050506024359081116102f2576113ac903690600401611afc565b8251815103611448578251926113c184611ae5565b936113cf6040519586611a7c565b8085526113de601f1991611ae5565b01368486013760005b81518110156114315761142c9061141c6001600160a01b036114098386611c9c565b51166114158387611c9c565b5190611bf2565b6114268288611c9c565b52611c77565b6113e7565b505050610beb604051928284938452830190611bbe565b60405162461bcd60e51b815260048101839052602960248201527f455243313135353a206163636f756e747320616e6420696473206c656e677468604482015268040dad2e6dac2e8c6d60bb1b6064820152608490fd5b81356001600160a01b03811681036102f257815290840190840161138a565b346102f25760031960a0368201126102f2576114d86119fb565b906114e1611a11565b6044908135926001600160401b03938481116102f257611505903690600401611afc565b606480358681116102f25761151e903690600401611afc565b9460849687359081116102f257611539903690600401611ba0565b6001600160a01b03948986163314801561186e575b61155790611cc6565b6115648551895114611df0565b858716156115728115611d2a565b868b161561182b575b611776575b60005b8551811015611619578061159a6116149288611c9c565b518c6115a6838d611c9c565b519180600052826020926000845260406000208d82166000528452604060002054906115d483831015611d84565b83600052600085528d60406000209116600052845203604060002055600052600081526040600020908a8c16600052526102b26040600020918254611de3565b611583565b50888a989796949789604051887f4a39dc06d4c0dbc64b70af90fd698a233a518aa5d07e595d983b8c0526c8f7fb89808d169416928061165b87339583611e4d565b0390a4873b61166657005b60405198899788968863bc197c8160e01b9d8e8a523360048b0152166024890152870160a0905260a4870161169a91611bbe565b908487830301908701526116ad91611bbe565b9184830301908401526116bf91611ac0565b03921691815a602094600091f160009181611756575b5061172e57505060016116e6611edb565b6308c379a0146116f7575b6104c957005b6116ff611ef9565b8061170a57506116f1565b60405162461bcd60e51b81526020600482015290819061052b906024830190611ac0565b6001600160e01b0319161461026d5760405162461bcd60e51b81528061052b60048201611e92565b61176f91925060203d81116105b6576105a78183611a7c565b90836116d5565b9796949060009993999692965b855181101561181b576117968187611c9c565b516117a18289611c9c565b519080600052602060038152604060002054918383106117da576117d5949392916003916000525203604060002055611c77565b611783565b508b9067616c537570706c7960c01b8f60008051602061234e8339815191528e6040519462461bcd60e51b8652600486015260286024860152840152820152fd5b5090949697989298959195611580565b99969498959392919060005b8a5181101561185f57808b6102998261185361185a958f611c9c565b5192611c9c565b611837565b5090919293959894969961157b565b50858a16600052600160205260406000203360005260205261155760ff60406000205416905061154e565b346102f25760203660031901126102f257610beb610bd760043561210e565b346102f25760003660031901126102f25760405160006008546118da81611a27565b80845290600190818116908115610c4a575060011461190357610beb84610bd781860382611a7c565b6008600090815292507ff3f7a9fe364faab93b216da50a3214154f22a0a2b415b23a84c8169e8b636ee35b828410611946575050508101602001610bd782610bc7565b8054602085870181019190915290930192810161192e565b346102f25760203660031901126102f25760043563ffffffff60e01b81168091036102f257602090636cdb3d1360e11b81149081156119bb575b81156119aa575b506040519015158152f35b6301ffc9a760e01b1490508261199f565b6303a24d0760e21b81149150611998565b346102f25760403660031901126102f25760206119f36119ea6119fb565b60243590611bf2565b604051908152f35b600435906001600160a01b03821682036102f257565b602435906001600160a01b03821682036102f257565b90600182811c92168015611a57575b6020831014611a4157565b634e487b7160e01b600052602260045260246000fd5b91607f1691611a36565b602081019081106001600160401b0382111761099657604052565b90601f801991011681019081106001600160401b0382111761099657604052565b60005b838110611ab05750506000910152565b8181015183820152602001611aa0565b90602091611ad981518092818552858086019101611a9d565b601f01601f1916010190565b6001600160401b0381116109965760051b60200190565b81601f820112156102f257803591611b1383611ae5565b92611b216040519485611a7c565b808452602092838086019260051b8201019283116102f2578301905b828210611b4b575050505090565b81358152908301908301611b3d565b9291926001600160401b0382116109965760405191611b83601f8201601f191660200184611a7c565b8294818452818301116102f2578281602093846000960137010152565b9080601f830112156102f257816020611bbb93359101611b5a565b90565b90815180825260208080930193019160005b828110611bde575050505090565b835185529381019392810192600101611bd0565b6001600160a01b0316908115611c1f57600052600060205260406000209060005260205260406000205490565b60405162461bcd60e51b815260206004820152602a60248201527f455243313135353a2061646472657373207a65726f206973206e6f742061207660448201526930b634b21037bbb732b960b11b6064820152608490fd5b6000198114611c865760010190565b634e487b7160e01b600052601160045260246000fd5b8051821015611cb05760209160051b010190565b634e487b7160e01b600052603260045260246000fd5b15611ccd57565b60405162461bcd60e51b815260206004820152602f60248201527f455243313135353a2063616c6c6572206973206e6f7420746f6b656e206f776e60448201526e195c881b9bdc88185c1c1c9bdd9959608a1b6064820152608490fd5b15611d3157565b60405162461bcd60e51b815260206004820152602560248201527f455243313135353a207472616e7366657220746f20746865207a65726f206164604482015264647265737360d81b6064820152608490fd5b15611d8b57565b60405162461bcd60e51b815260206004820152602a60248201527f455243313135353a20696e73756666696369656e742062616c616e636520666f60448201526939103a3930b739b332b960b11b6064820152608490fd5b91908201809211611c8657565b15611df757565b60405162461bcd60e51b815260206004820152602860248201527f455243313135353a2069647320616e6420616d6f756e7473206c656e677468206044820152670dad2e6dac2e8c6d60c31b6064820152608490fd5b9091611e64611bbb93604084526040840190611bbe565b916020818403910152611bbe565b908160209103126102f257516001600160e01b0319811681036102f25790565b60809060208152602860208201527f455243313135353a204552433131353552656365697665722072656a656374656040820152676420746f6b656e7360c01b60608201520190565b60009060033d11611ee857565b905060046000803e60005160e01c90565b600060443d10611bbb57604051600319913d83016004833e81516001600160401b03918282113d602484011117611f5657818401948551938411611f5e573d85010160208487010111611f565750611bbb92910160200190611a7c565b949350505050565b50949350505050565b60405190604082018281106001600160401b038211176109965760405260018252602082016020368237825115611cb0575290565b15611fa357565b60405162461bcd60e51b815260206004820152602360248201527f455243313135353a206275726e2066726f6d20746865207a65726f206164647260448201526265737360e81b6064820152608490fd5b15611ffb57565b60405162461bcd60e51b8152602060048201526024808201527f455243313135353a206275726e20616d6f756e7420657863656564732062616c604482015263616e636560e01b6064820152608490fd5b1561205357565b60405162461bcd60e51b815260206004820152602b60248201527f496e697469616c697a61626c653a20636f6e7472616374206973206e6f74206960448201526a6e697469616c697a696e6760a81b6064820152608490fd5b156120b357565b60405162461bcd60e51b815260206004820152602d60248201527f4b617469626568313135353a207265737472696374656420616363657373207460448201526c6f2074686520466163746f727960981b6064820152608490fd5b60009081526020906005825260408120906040519080918354928161213285611a27565b918282528782019660019689888216918260001461232f5750506001146122f1575b5061216192500382611a7c565b80511561223657604051948593836004549161217c83611a27565b9281811690811561221557506001146121b5575b505050506121a6611bbb94839251938491611a9d565b0103601f198101835282611a7c565b909192969450600482527f8a35acfbc15ff81a39ae7d344fd709f28e8600b4aa8c65c6b64bfe7fe36bd19b5b8383106121ff57505050611bbb946121a69185010192943880612190565b80548984018901528896509187019181016121e1565b60ff1916888601525050508015150284010191506121a6611bbb3880612190565b506040516002549094935084928261224d83611a27565b808652928281169081156122cf5750600114612273575b505050611bbb92500382611a7c565b600281527f405787fa12a823e0f2b7631cc41b3ba8828b3321ca811111fa75cd3aa3bb5ace95935091905b8183106122b7575050611bbb9350820101388080612264565b8554878401850152948501948694509183019161229e565b92505050611bbb94925060ff191682840152151560051b820101388080612264565b915050835281868085208686915b858310612316575050612161935082010138612154565b80919294505483858801015201910187908685936122ff565b60ff19168a5261216195151560051b8501019250389150612154905056fe455243313135353a206275726e20616d6f756e74206578636565647320746f74a264697066735822122039ad39761ab192ae6a1b0b7d0c212f04461c55b923e005588bf93ad30a3512c764736f6c63430008110033",
  "linkReferences": {},
  "deployedLinkReferences": {}
}