{
  "_format": "hh-sol-artifact-1",
  "contractName": "Katibeh1155",
  "sourceName": "contracts/katibeh1155/Katibeh1155.sol",
  "abi": [
    {
      "inputs": [],
      "stateMutability": "nonpayable",
      "type": "constructor"
    },
    {
      "anonymous": false,
      "inputs": [
        {
          "indexed": true,
          "internalType": "address",
          "name": "account",
          "type": "address"
        },
        {
          "indexed": true,
          "internalType": "address",
          "name": "operator",
          "type": "address"
        },
        {
          "indexed": false,
          "internalType": "bool",
          "name": "approved",
          "type": "bool"
        }
      ],
      "name": "ApprovalForAll",
      "type": "event"
    },
    {
      "anonymous": false,
      "inputs": [
        {
          "indexed": false,
          "internalType": "uint8",
          "name": "version",
          "type": "uint8"
        }
      ],
      "name": "Initialized",
      "type": "event"
    },
    {
      "anonymous": false,
      "inputs": [
        {
          "indexed": true,
          "internalType": "address",
          "name": "operator",
          "type": "address"
        },
        {
          "indexed": true,
          "internalType": "address",
          "name": "from",
          "type": "address"
        },
        {
          "indexed": true,
          "internalType": "address",
          "name": "to",
          "type": "address"
        },
        {
          "indexed": false,
          "internalType": "uint256[]",
          "name": "ids",
          "type": "uint256[]"
        },
        {
          "indexed": false,
          "internalType": "uint256[]",
          "name": "values",
          "type": "uint256[]"
        }
      ],
      "name": "TransferBatch",
      "type": "event"
    },
    {
      "anonymous": false,
      "inputs": [
        {
          "indexed": true,
          "internalType": "address",
          "name": "operator",
          "type": "address"
        },
        {
          "indexed": true,
          "internalType": "address",
          "name": "from",
          "type": "address"
        },
        {
          "indexed": true,
          "internalType": "address",
          "name": "to",
          "type": "address"
        },
        {
          "indexed": false,
          "internalType": "uint256",
          "name": "id",
          "type": "uint256"
        },
        {
          "indexed": false,
          "internalType": "uint256",
          "name": "value",
          "type": "uint256"
        }
      ],
      "name": "TransferSingle",
      "type": "event"
    },
    {
      "anonymous": false,
      "inputs": [
        {
          "indexed": false,
          "internalType": "string",
          "name": "value",
          "type": "string"
        },
        {
          "indexed": true,
          "internalType": "uint256",
          "name": "id",
          "type": "uint256"
        }
      ],
      "name": "URI",
      "type": "event"
    },
    {
      "inputs": [
        {
          "internalType": "address",
          "name": "account",
          "type": "address"
        },
        {
          "internalType": "uint256",
          "name": "id",
          "type": "uint256"
        }
      ],
      "name": "balanceOf",
      "outputs": [
        {
          "internalType": "uint256",
          "name": "",
          "type": "uint256"
        }
      ],
      "stateMutability": "view",
      "type": "function"
    },
    {
      "inputs": [
        {
          "internalType": "address[]",
          "name": "accounts",
          "type": "address[]"
        },
        {
          "internalType": "uint256[]",
          "name": "ids",
          "type": "uint256[]"
        }
      ],
      "name": "balanceOfBatch",
      "outputs": [
        {
          "internalType": "uint256[]",
          "name": "",
          "type": "uint256[]"
        }
      ],
      "stateMutability": "view",
      "type": "function"
    },
    {
      "inputs": [
        {
          "internalType": "address",
          "name": "account",
          "type": "address"
        },
        {
          "internalType": "uint256",
          "name": "id",
          "type": "uint256"
        },
        {
          "internalType": "uint256",
          "name": "value",
          "type": "uint256"
        }
      ],
      "name": "burn",
      "outputs": [],
      "stateMutability": "nonpayable",
      "type": "function"
    },
    {
      "inputs": [
        {
          "internalType": "address",
          "name": "account",
          "type": "address"
        },
        {
          "internalType": "uint256[]",
          "name": "ids",
          "type": "uint256[]"
        },
        {
          "internalType": "uint256[]",
          "name": "values",
          "type": "uint256[]"
        }
      ],
      "name": "burnBatch",
      "outputs": [],
      "stateMutability": "nonpayable",
      "type": "function"
    },
    {
      "inputs": [
        {
          "internalType": "uint256",
          "name": "id",
          "type": "uint256"
        }
      ],
      "name": "exists",
      "outputs": [
        {
          "internalType": "bool",
          "name": "",
          "type": "bool"
        }
      ],
      "stateMutability": "view",
      "type": "function"
    },
    {
      "inputs": [
        {
          "internalType": "address",
          "name": "owner_",
          "type": "address"
        },
        {
          "internalType": "string",
          "name": "name_",
          "type": "string"
        },
        {
          "internalType": "string",
          "name": "symbol_",
          "type": "string"
        }
      ],
      "name": "init",
      "outputs": [],
      "stateMutability": "nonpayable",
      "type": "function"
    },
    {
      "inputs": [
        {
          "internalType": "address",
          "name": "account",
          "type": "address"
        },
        {
          "internalType": "address",
          "name": "operator",
          "type": "address"
        }
      ],
      "name": "isApprovedForAll",
      "outputs": [
        {
          "internalType": "bool",
          "name": "",
          "type": "bool"
        }
      ],
      "stateMutability": "view",
      "type": "function"
    },
    {
      "inputs": [
        {
          "internalType": "address",
          "name": "addr",
          "type": "address"
        },
        {
          "internalType": "uint256",
          "name": "id",
          "type": "uint256"
        },
        {
          "internalType": "uint256",
          "name": "amount",
          "type": "uint256"
        },
        {
          "internalType": "bytes",
          "name": "data",
          "type": "bytes"
        }
      ],
      "name": "mint",
      "outputs": [],
      "stateMutability": "nonpayable",
      "type": "function"
    },
    {
      "inputs": [],
      "name": "name",
      "outputs": [
        {
          "internalType": "string",
          "name": "",
          "type": "string"
        }
      ],
      "stateMutability": "view",
      "type": "function"
    },
    {
      "inputs": [],
      "name": "owner",
      "outputs": [
        {
          "internalType": "address",
          "name": "",
          "type": "address"
        }
      ],
      "stateMutability": "view",
      "type": "function"
    },
    {
      "inputs": [
        {
          "internalType": "address",
          "name": "from",
          "type": "address"
        },
        {
          "internalType": "address",
          "name": "to",
          "type": "address"
        },
        {
          "internalType": "uint256[]",
          "name": "ids",
          "type": "uint256[]"
        },
        {
          "internalType": "uint256[]",
          "name": "amounts",
          "type": "uint256[]"
        },
        {
          "internalType": "bytes",
          "name": "data",
          "type": "bytes"
        }
      ],
      "name": "safeBatchTransferFrom",
      "outputs": [],
      "stateMutability": "nonpayable",
      "type": "function"
    },
    {
      "inputs": [
        {
          "internalType": "address",
          "name": "from",
          "type": "address"
        },
        {
          "internalType": "address",
          "name": "to",
          "type": "address"
        },
        {
          "internalType": "uint256",
          "name": "id",
          "type": "uint256"
        },
        {
          "internalType": "uint256",
          "name": "amount",
          "type": "uint256"
        },
        {
          "internalType": "bytes",
          "name": "data",
          "type": "bytes"
        }
      ],
      "name": "safeTransferFrom",
      "outputs": [],
      "stateMutability": "nonpayable",
      "type": "function"
    },
    {
      "inputs": [
        {
          "internalType": "address",
          "name": "operator",
          "type": "address"
        },
        {
          "internalType": "bool",
          "name": "approved",
          "type": "bool"
        }
      ],
      "name": "setApprovalForAll",
      "outputs": [],
      "stateMutability": "nonpayable",
      "type": "function"
    },
    {
      "inputs": [
        {
          "internalType": "uint256",
          "name": "tokenId",
          "type": "uint256"
        },
        {
          "internalType": "string",
          "name": "tokenURI",
          "type": "string"
        }
      ],
      "name": "setURI",
      "outputs": [],
      "stateMutability": "nonpayable",
      "type": "function"
    },
    {
      "inputs": [
        {
          "internalType": "bytes4",
          "name": "interfaceId",
          "type": "bytes4"
        }
      ],
      "name": "supportsInterface",
      "outputs": [
        {
          "internalType": "bool",
          "name": "",
          "type": "bool"
        }
      ],
      "stateMutability": "view",
      "type": "function"
    },
    {
      "inputs": [],
      "name": "symbol",
      "outputs": [
        {
          "internalType": "string",
          "name": "",
          "type": "string"
        }
      ],
      "stateMutability": "view",
      "type": "function"
    },
    {
      "inputs": [
        {
          "internalType": "uint256",
          "name": "id",
          "type": "uint256"
        }
      ],
      "name": "totalSupply",
      "outputs": [
        {
          "internalType": "uint256",
          "name": "",
          "type": "uint256"
        }
      ],
      "stateMutability": "view",
      "type": "function"
    },
    {
      "inputs": [
        {
          "internalType": "uint256",
          "name": "tokenId",
          "type": "uint256"
        }
      ],
      "name": "uri",
      "outputs": [
        {
          "internalType": "string",
          "name": "",
          "type": "string"
        }
      ],
      "stateMutability": "view",
      "type": "function"
    }
  ],
  "bytecode": "0x608034620000e957602081016001600160401b03811182821017620000d357604052600080915262000033600254620000ee565b601f811162000092575b50806002556200004f600454620000ee565b601f81116200006e575b6000600455604051612fc99081620001458239f35b601f60208360046200008a955220910160051c8101906200012b565b388062000059565b60028252620000cc90601f0160051c7f405787fa12a823e0f2b7631cc41b3ba8828b3321ca811111fa75cd3aa3bb5ace908101906200012b565b386200003d565b634e487b7160e01b600052604160045260246000fd5b600080fd5b90600182811c9216801562000120575b60208310146200010a57565b634e487b7160e01b600052602260045260246000fd5b91607f1691620000fe565b81811062000137575050565b600081556001016200012b56fe6080604052600436101561001257600080fd5b60003560e01c8062fdd58e1461239157806301ffc9a7146122a157806306fdde03146121dd5780630e89341c146121a05780632eb2c2d614611ca15780634e1273f414611a805780634f558e7914611a345780636b20c4541461176f578063731133e914611541578063862440e2146112d65780638da5cb5b1461128157806395d89b411461115f578063a22cb46514611005578063b2b45df514610954578063bd85b0391461090a578063e985e9c514610888578063f242432a146103635763f5298aca146100e157600080fd5b3461035e5760607ffffffffffffffffffffffffffffffffffffffffffffffffffffffffffffffffc36011261035e576101186123de565b6024908135604473ffffffffffffffffffffffffffffffffffffffff81359316913383148015610335575b61014c906127c4565b8215926101598415612b3b565b61016282612b05565b9161016c86612b05565b94600060405161017b81612477565b526102db575b60005b835181101561025e576101978185612781565b516101a28288612781565b51908060005260036020818152604060002054928484106101db57906101d695949392916000525203604060002055612725565b610184565b506084907f455243313135353a206275726e20616d6f756e74206578636565647320746f748a60288f604051947f08c379a000000000000000000000000000000000000000000000000000000000865260048601528401528201527f616c537570706c790000000000000000000000000000000000000000000000006064820152fd5b6000838389818452836020526040842083855260205280604085205461028682821015612bc6565b838652856020526040862085875260205203604085205560405191825260208201527fc3d58168c5ae7397731d063d5bbf3d657854427343f4c083240f7aacaa2d0f6260403392a46102d9604051612477565b005b949195929060005b875181101561032a57806102fa6103259288612781565b51610305828b612781565b51600052600360205261031e6040600020918254612965565b9055612725565b6102e3565b509092959194610181565b5082600052600160205260406000203360005260205261014c60ff604060002054169050610143565b600080fd5b3461035e5760a07ffffffffffffffffffffffffffffffffffffffffffffffffffffffffffffffffc36011261035e5761039a6123de565b6103a2612401565b906084803567ffffffffffffffff811161035e576103c4903690600401612615565b9073ffffffffffffffffffffffffffffffffffffffff913383851614801561085d575b6103f0906127c4565b828516156103fe811561284f565b610409604435612b05565b610414606435612b05565b918587161561081d575b61072f575b505060443560005260209460008652604060002084861660005286526040600020546104536064358210156128da565b604435600052600087526040600020858716600052875260643590036040600020556044356000526000865260406000208482166000528652604060002061049e6064358254612965565b905560405160443581526064358782015284821690858716907fc3d58168c5ae7397731d063d5bbf3d657854427343f4c083240f7aacaa2d0f6260403392a4803b6104e557005b60a0600061054895889560405197889687958693857ff23a6e61000000000000000000000000000000000000000000000000000000009d8e87523360048801521660248601526044356044860152606435606486015284015260a48301906124f7565b0393165af160009181610700575b50610652575050600190610568612a5a565b6308c379a014610603575b5061057a57005b6040517f08c379a000000000000000000000000000000000000000000000000000000000815260206004820152603460248201527f455243313135353a207472616e7366657220746f206e6f6e2d4552433131353560448201527f526563656976657220696d706c656d656e7465720000000000000000000000006064820152608490fd5b0390fd5b61060b612a78565b90816106175750610573565b6105ff6040519283927f08c379a0000000000000000000000000000000000000000000000000000000008452600484015260248301906124f7565b7fffffffff00000000000000000000000000000000000000000000000000000000161490506102d9576040517f08c379a000000000000000000000000000000000000000000000000000000000815260206004820152602860248201527f455243313135353a204552433131353552656365697665722072656a6563746560448201527f6420746f6b656e730000000000000000000000000000000000000000000000006064820152608490fd5b610721919250843d8611610728575b6107198183612493565b810190612a22565b9084610556565b503d61070f565b92959194909360005b845181101561080e5761074b8186612781565b51906107578188612781565b5182600052600360205260406000205481811061078b5761078693600052600360205203604060002055612725565b610738565b8a6040517f08c379a000000000000000000000000000000000000000000000000000000000815260206004820152602860248201527f455243313135353a206275726e20616d6f756e74206578636565647320746f7460448201527f616c537570706c790000000000000000000000000000000000000000000000006064820152fd5b50935093909491508580610423565b959260009794919592975b865181101561084f578061083f61084a928b612781565b51610305828a612781565b610828565b50929596919490939661041e565b5082841660005260016020526040600020336000526020526103f060ff6040600020541690506103e7565b3461035e5760407ffffffffffffffffffffffffffffffffffffffffffffffffffffffffffffffffc36011261035e576108bf6123de565b6108c7612401565b9073ffffffffffffffffffffffffffffffffffffffff809116600052600160205260406000209116600052602052602060ff604060002054166040519015158152f35b3461035e5760207ffffffffffffffffffffffffffffffffffffffffffffffffffffffffffffffffc36011261035e5760043560005260036020526020604060002054604051908152f35b3461035e5760607ffffffffffffffffffffffffffffffffffffffffffffffffffffffffffffffffc36011261035e5761098b6123de565b60243567ffffffffffffffff811161035e576109ab903690600401612615565b9060443567ffffffffffffffff811161035e576109cc903690600401612615565b906006549060ff8260081c161591828093610ff8575b8015610fe1575b15610f5d578260017fffffffffffffffffffffffffffffffffffffffffffffffffffffffffffffff00831617600655610f2e575b50835167ffffffffffffffff8111610d9157610a3a600854612424565b601f8111610e8b575b50602094601f8211600114610dcb57948192939495600092610dc0575b50507fffffffffffffffffffffffffffffffffffffffffffffffffffffffffffffffff8260011b9260031b1c1916176008555b825167ffffffffffffffff8111610d9157610aaf600954612424565b601f8111610d2c575b506020601f8211600114610c6c5781929394600092610c61575b50507fffffffffffffffffffffffffffffffffffffffffffffffffffffffffffffffff8260011b9260031b1c1916176009555b337fffffffffffffffffffffffff000000000000000000000000000000000000000060075416176007556006549060ff8260081c1615610bdd5775ffffffffffffffffffffffffffffffffffffffff00009060101b1691827fffffffffffffffffffff0000000000000000000000000000000000000000ffff831617600655610b8a57005b7fffffffffffffffffffff000000000000000000000000000000000000000000ff16176006557f7f26b83ff96e1f2b6a682f133852f6798a09c465da95921460cefb3847402498602060405160018152a1005b60846040517f08c379a000000000000000000000000000000000000000000000000000000000815260206004820152602b60248201527f496e697469616c697a61626c653a20636f6e7472616374206973206e6f74206960448201527f6e697469616c697a696e670000000000000000000000000000000000000000006064820152fd5b015190508480610ad2565b7fffffffffffffffffffffffffffffffffffffffffffffffffffffffffffffffe082169060096000527f6e1540171b6c0c960b71a7020d9f60077f6af931a8bbf590da0223dacf75c7af9160005b818110610d1457509583600195969710610cdd575b505050811b01600955610b05565b01517fffffffffffffffffffffffffffffffffffffffffffffffffffffffffffffffff60f88460031b161c19169055848080610ccf565b9192602060018192868b015181550194019201610cba565b60096000527f6e1540171b6c0c960b71a7020d9f60077f6af931a8bbf590da0223dacf75c7af601f830160051c81019160208410610d87575b601f0160051c01905b818110610d7b5750610ab8565b60008155600101610d6e565b9091508190610d65565b7f4e487b7100000000000000000000000000000000000000000000000000000000600052604160045260246000fd5b015190508580610a60565b7fffffffffffffffffffffffffffffffffffffffffffffffffffffffffffffffe082169560086000527ff3f7a9fe364faab93b216da50a3214154f22a0a2b415b23a84c8169e8b636ee39160005b888110610e7357508360019596979810610e3c575b505050811b01600855610a93565b01517fffffffffffffffffffffffffffffffffffffffffffffffffffffffffffffffff60f88460031b161c19169055858080610e2e565b91926020600181928685015181550194019201610e19565b6008600052601f820160051c7ff3f7a9fe364faab93b216da50a3214154f22a0a2b415b23a84c8169e8b636ee3019060208310610f06575b601f0160051c7ff3f7a9fe364faab93b216da50a3214154f22a0a2b415b23a84c8169e8b636ee301905b818110610efa5750610a43565b60008155600101610eed565b7ff3f7a9fe364faab93b216da50a3214154f22a0a2b415b23a84c8169e8b636ee39150610ec3565b7fffffffffffffffffffffffffffffffffffffffffffffffffffffffffffff0000166101011760065584610a1d565b60846040517f08c379a000000000000000000000000000000000000000000000000000000000815260206004820152602e60248201527f496e697469616c697a61626c653a20636f6e747261637420697320616c72656160448201527f647920696e697469616c697a65640000000000000000000000000000000000006064820152fd5b50303b1580156109e95750600160ff8216146109e9565b50600160ff8216106109e2565b3461035e5760407ffffffffffffffffffffffffffffffffffffffffffffffffffffffffffffffffc36011261035e5761103c6123de565b6024359081151580920361035e5773ffffffffffffffffffffffffffffffffffffffff16908133146110db5733600052600160205260406000208260005260205260406000207fffffffffffffffffffffffffffffffffffffffffffffffffffffffffffffff0081541660ff83161790556040519081527f17307eab39ab6107e8899845ad3d59bd9653f200f220920489ca2b5937696c3160203392a3005b60846040517f08c379a000000000000000000000000000000000000000000000000000000000815260206004820152602960248201527f455243313135353a2073657474696e6720617070726f76616c2073746174757360448201527f20666f722073656c6600000000000000000000000000000000000000000000006064820152fd5b3461035e5760007ffffffffffffffffffffffffffffffffffffffffffffffffffffffffffffffffc36011261035e57604051600060095461119f81612424565b8084529060019081811690811561123c57506001146111e1575b6111dd846111c981860382612493565b6040519182916020835260208301906124f7565b0390f35b6009600090815292507f6e1540171b6c0c960b71a7020d9f60077f6af931a8bbf590da0223dacf75c7af5b8284106112245750505081016020016111c9826111b9565b8054602085870181019190915290930192810161120c565b7fffffffffffffffffffffffffffffffffffffffffffffffffffffffffffffff001660208087019190915292151560051b850190920192506111c991508390506111b9565b3461035e5760007ffffffffffffffffffffffffffffffffffffffffffffffffffffffffffffffffc36011261035e57602073ffffffffffffffffffffffffffffffffffffffff60065460101c16604051908152f35b3461035e5760407ffffffffffffffffffffffffffffffffffffffffffffffffffffffffffffffffc36011261035e5767ffffffffffffffff60043560243582811161035e573660238201121561035e5780600401359083821161035e57366024838301011161035e576113709161136673ffffffffffffffffffffffffffffffffffffffff600754163314612c50565b60243692016125b0565b9181600052602090600582526040600020908451908111610d91576113958254612424565b601f81116114fb575b5082601f82116001146114385781907f6bb7ff708619ba0610cba295a58592e0451dee2622938c8755667688daf3529b959660009261142d575b50507fffffffffffffffffffffffffffffffffffffffffffffffffffffffffffffffff8260011b9260031b1c19161790555b61141383612cdb565b906114286040519282849384528301906124f7565b0390a2005b0151905086806113d8565b7fffffffffffffffffffffffffffffffffffffffffffffffffffffffffffffffe082169583600052846000209660005b8181106114e45750917f6bb7ff708619ba0610cba295a58592e0451dee2622938c8755667688daf3529b9697918460019594106114ad575b505050811b01905561140a565b01517fffffffffffffffffffffffffffffffffffffffffffffffffffffffffffffffff60f88460031b161c191690558680806114a0565b838301518955600190980197928601928601611468565b8260005283600020601f830160051c810191858410611537575b601f0160051c01905b81811061152b575061139e565b6000815560010161151e565b9091508190611515565b3461035e5760807ffffffffffffffffffffffffffffffffffffffffffffffffffffffffffffffffc36011261035e576115786123de565b6044359060243560643567ffffffffffffffff811161035e5761159f903690600401612615565b9173ffffffffffffffffffffffffffffffffffffffff6115c481600754163314612c50565b81169182156116eb576115d681612b05565b926115e086612b05565b9560005b855181101561160b57806115fb611606928a612781565b516103058289612781565b6115e4565b5085836000526020946000865260406000208460005286526040600020611633848254612965565b905583600060405187815285898201527fc3d58168c5ae7397731d063d5bbf3d657854427343f4c083240f7aacaa2d0f6260403392a43b61167057005b6116cd92859260006040518096819582947ff23a6e61000000000000000000000000000000000000000000000000000000009a8b85523360048601528560248601526044850152606484015260a0608484015260a48301906124f7565b03925af1600091816107005750610652575050600190610568612a5a565b60846040517f08c379a000000000000000000000000000000000000000000000000000000000815260206004820152602160248201527f455243313135353a206d696e7420746f20746865207a65726f2061646472657360448201527f73000000000000000000000000000000000000000000000000000000000000006064820152fd5b3461035e5760607ffffffffffffffffffffffffffffffffffffffffffffffffffffffffffffffffc36011261035e576117a66123de565b60249067ffffffffffffffff90823582811161035e576117ca903690600401612552565b91604490813590811161035e576117fa73ffffffffffffffffffffffffffffffffffffffff913690600401612552565b9216923384148015611a0b575b611810906127c4565b831561181c8115612b3b565b6118298251855114612972565b600060405161183781612477565b526119d3575b60005b8151811015611919576118538183612781565b5161185e8286612781565b5190806000526003602081815260406000205492848410611897579061189295949392916000525203604060002055612725565b611840565b6084827f455243313135353a206275726e20616d6f756e74206578636565647320746f748a60288f604051947f08c379a000000000000000000000000000000000000000000000000000000000865260048601528401528201527f616c537570706c790000000000000000000000000000000000000000000000006064820152fd5b83828660005b825181101561198e57806119366119899285612781565b516119418287612781565b51908060005260206000815260406000208660005281526040600020549161196b84841015612bc6565b60005260008152604060002090866000525203604060002055612725565b61191f565b50907f4a39dc06d4c0dbc64b70af90fd698a233a518aa5d07e595d983b8c0526c8f7fb6119c56000946040519182913395836129fd565b0390a46102d9604051612477565b9260009491945b8451811015611a0157806119f16119fc9286612781565b516103058288612781565b6119da565b509293909361183d565b5083600052600160205260406000203360005260205261181060ff604060002054169050611807565b3461035e5760207ffffffffffffffffffffffffffffffffffffffffffffffffffffffffffffffffc36011261035e57600435600052600360205260206040600020541515604051908152f35b3461035e5760407ffffffffffffffffffffffffffffffffffffffffffffffffffffffffffffffffc36011261035e5760043567ffffffffffffffff80821161035e573660238301121561035e57816004013590611adc8261253a565b92611aea6040519485612493565b82845260209260248486019160051b8301019136831161035e57602401905b828210611c755750505060243590811161035e57611b2b903690600401612552565b8251815103611bf1578251927fffffffffffffffffffffffffffffffffffffffffffffffffffffffffffffffe0611b7a611b648661253a565b95611b726040519788612493565b80875261253a565b01368486013760005b8151811015611bda5780611bc573ffffffffffffffffffffffffffffffffffffffff611bb2611bd59486612781565b5116611bbe8387612781565b5190612667565b611bcf8288612781565b52612725565b611b83565b5050506111dd604051928284938452830190612633565b608482604051907f08c379a00000000000000000000000000000000000000000000000000000000082526004820152602960248201527f455243313135353a206163636f756e747320616e6420696473206c656e67746860448201527f206d69736d6174636800000000000000000000000000000000000000000000006064820152fd5b813573ffffffffffffffffffffffffffffffffffffffff8116810361035e578152908401908401611b09565b3461035e577ffffffffffffffffffffffffffffffffffffffffffffffffffffffffffffffffc60a08136011261035e57611cd96123de565b90611ce2612401565b60449081359267ffffffffffffffff9384811161035e57611d07903690600401612552565b6064803586811161035e57611d20903690600401612552565b94608496873590811161035e57611d3b903690600401612615565b73ffffffffffffffffffffffffffffffffffffffff9433868b16148015612175575b611d66906127c4565b611d738551895114612972565b85871615611d81811561284f565b868b1615612132575b61203c575b60005b8551811015611e285780611da9611e239288612781565b518c611db5838d612781565b519180600052826020926000845260406000208d8216600052845260406000205490611de3838310156128da565b83600052600085528d60406000209116600052845203604060002055600052600081526040600020908a8c166000525261031e6040600020918254612965565b611d92565b50888a989796949789604051887f4a39dc06d4c0dbc64b70af90fd698a233a518aa5d07e595d983b8c0526c8f7fb89808d1694169280611e6a873395836129fd565b0390a4873b611e7557005b6040519889978896887fbc197c81000000000000000000000000000000000000000000000000000000009d8e8a523360048b0152166024890152870160a0905260a48701611ec291612633565b90848783030190870152611ed591612633565b918483030190840152611ee7916124f7565b03921691815a602094600091f16000918161201c575b50611f705750506001611f0e612a5a565b6308c379a014611f1f575b61057a57005b611f27612a78565b80611f325750611f19565b6105ff906040519182917f08c379a00000000000000000000000000000000000000000000000000000000083526020600484015260248301906124f7565b7fffffffff0000000000000000000000000000000000000000000000000000000016146102d9576040517f08c379a000000000000000000000000000000000000000000000000000000000815260206004820152602860248201527f455243313135353a204552433131353552656365697665722072656a6563746560448201527f6420746f6b656e730000000000000000000000000000000000000000000000006064820152608490fd5b61203591925060203d8111610728576107198183612493565b9083611efd565b9796949060009993999692965b85518110156121225761205c8187612781565b516120678289612781565b519080600052602060038152604060002054918383106120a05761209b949392916003916000525203604060002055612725565b612049565b508b907f616c537570706c790000000000000000000000000000000000000000000000008f7f455243313135353a206275726e20616d6f756e74206578636565647320746f748e604051947f08c379a0000000000000000000000000000000000000000000000000000000008652600486015260286024860152840152820152fd5b5090949697989298959195611d8f565b99969498959392919060005b8a5181101561216657808b6103058261215a612161958f612781565b5192612781565b61213e565b50909192939598949699611d8a565b50858a166000526001602052604060002033600052602052611d6660ff604060002054169050611d5d565b3461035e5760207ffffffffffffffffffffffffffffffffffffffffffffffffffffffffffffffffc36011261035e576111dd6111c9600435612cdb565b3461035e5760007ffffffffffffffffffffffffffffffffffffffffffffffffffffffffffffffffc36011261035e57604051600060085461221d81612424565b8084529060019081811690811561123c5750600114612246576111dd846111c981860382612493565b6008600090815292507ff3f7a9fe364faab93b216da50a3214154f22a0a2b415b23a84c8169e8b636ee35b8284106122895750505081016020016111c9826111b9565b80546020858701810191909152909301928101612271565b3461035e5760207ffffffffffffffffffffffffffffffffffffffffffffffffffffffffffffffffc36011261035e576004357fffffffff00000000000000000000000000000000000000000000000000000000811680910361035e57807fd9b67a260000000000000000000000000000000000000000000000000000000060209214908115612367575b811561233d575b506040519015158152f35b7f01ffc9a70000000000000000000000000000000000000000000000000000000091501482612332565b7f0e89341c000000000000000000000000000000000000000000000000000000008114915061232b565b3461035e5760407ffffffffffffffffffffffffffffffffffffffffffffffffffffffffffffffffc36011261035e5760206123d66123cd6123de565b60243590612667565b604051908152f35b6004359073ffffffffffffffffffffffffffffffffffffffff8216820361035e57565b6024359073ffffffffffffffffffffffffffffffffffffffff8216820361035e57565b90600182811c9216801561246d575b602083101461243e57565b7f4e487b7100000000000000000000000000000000000000000000000000000000600052602260045260246000fd5b91607f1691612433565b6020810190811067ffffffffffffffff821117610d9157604052565b90601f7fffffffffffffffffffffffffffffffffffffffffffffffffffffffffffffffe0910116810190811067ffffffffffffffff821117610d9157604052565b60005b8381106124e75750506000910152565b81810151838201526020016124d7565b907fffffffffffffffffffffffffffffffffffffffffffffffffffffffffffffffe0601f602093612533815180928187528780880191016124d4565b0116010190565b67ffffffffffffffff8111610d915760051b60200190565b81601f8201121561035e578035916125698361253a565b926125776040519485612493565b808452602092838086019260051b82010192831161035e578301905b8282106125a1575050505090565b81358152908301908301612593565b92919267ffffffffffffffff8211610d9157604051916125f860207fffffffffffffffffffffffffffffffffffffffffffffffffffffffffffffffe0601f8401160184612493565b82948184528183011161035e578281602093846000960137010152565b9080601f8301121561035e57816020612630933591016125b0565b90565b90815180825260208080930193019160005b828110612653575050505090565b835185529381019392810192600101612645565b73ffffffffffffffffffffffffffffffffffffffff169081156126a157600052600060205260406000209060005260205260406000205490565b60846040517f08c379a000000000000000000000000000000000000000000000000000000000815260206004820152602a60248201527f455243313135353a2061646472657373207a65726f206973206e6f742061207660448201527f616c6964206f776e6572000000000000000000000000000000000000000000006064820152fd5b7fffffffffffffffffffffffffffffffffffffffffffffffffffffffffffffffff81146127525760010190565b7f4e487b7100000000000000000000000000000000000000000000000000000000600052601160045260246000fd5b80518210156127955760209160051b010190565b7f4e487b7100000000000000000000000000000000000000000000000000000000600052603260045260246000fd5b156127cb57565b60846040517f08c379a000000000000000000000000000000000000000000000000000000000815260206004820152602e60248201527f455243313135353a2063616c6c6572206973206e6f7420746f6b656e206f776e60448201527f6572206f7220617070726f7665640000000000000000000000000000000000006064820152fd5b1561285657565b60846040517f08c379a000000000000000000000000000000000000000000000000000000000815260206004820152602560248201527f455243313135353a207472616e7366657220746f20746865207a65726f20616460448201527f64726573730000000000000000000000000000000000000000000000000000006064820152fd5b156128e157565b60846040517f08c379a000000000000000000000000000000000000000000000000000000000815260206004820152602a60248201527f455243313135353a20696e73756666696369656e742062616c616e636520666f60448201527f72207472616e73666572000000000000000000000000000000000000000000006064820152fd5b9190820180921161275257565b1561297957565b60846040517f08c379a000000000000000000000000000000000000000000000000000000000815260206004820152602860248201527f455243313135353a2069647320616e6420616d6f756e7473206c656e6774682060448201527f6d69736d617463680000000000000000000000000000000000000000000000006064820152fd5b9091612a1461263093604084526040840190612633565b916020818403910152612633565b9081602091031261035e57517fffffffff000000000000000000000000000000000000000000000000000000008116810361035e5790565b60009060033d11612a6757565b905060046000803e60005160e01c90565b600060443d10612630576040517ffffffffffffffffffffffffffffffffffffffffffffffffffffffffffffffffc91823d016004833e815167ffffffffffffffff918282113d602484011117612af457818401948551938411612afc573d85010160208487010111612af4575061263092910160200190612493565b949350505050565b50949350505050565b604051906040820182811067ffffffffffffffff821117610d915760405260018252602082016020368237825115612795575290565b15612b4257565b60846040517f08c379a000000000000000000000000000000000000000000000000000000000815260206004820152602360248201527f455243313135353a206275726e2066726f6d20746865207a65726f206164647260448201527f65737300000000000000000000000000000000000000000000000000000000006064820152fd5b15612bcd57565b60846040517f08c379a0000000000000000000000000000000000000000000000000000000008152602060048201526024808201527f455243313135353a206275726e20616d6f756e7420657863656564732062616c60448201527f616e6365000000000000000000000000000000000000000000000000000000006064820152fd5b15612c5757565b60846040517f08c379a000000000000000000000000000000000000000000000000000000000815260206004820152602d60248201527f4b617469626568313135353a207265737472696374656420616363657373207460448201527f6f2074686520466163746f7279000000000000000000000000000000000000006064820152fd5b600090815260209060058252604081209060405190809183549281612cff85612424565b9182825287820196600196898882169182600014612f57575050600114612f19575b50612d2e92500382612493565b805115612e3f576040519485938360045491612d4983612424565b92818116908115612e005750600114612da0575b50505050612d73612630948392519384916124d4565b01037fffffffffffffffffffffffffffffffffffffffffffffffffffffffffffffffe08101835282612493565b909192969450600482527f8a35acfbc15ff81a39ae7d344fd709f28e8600b4aa8c65c6b64bfe7fe36bd19b5b838310612dea5750505061263094612d739185010192943880612d5d565b8054898401890152889650918701918101612dcc565b7fffffffffffffffffffffffffffffffffffffffffffffffffffffffffffffff001688860152505050801515028401019150612d736126303880612d5d565b5060405160025490949350849282612e5683612424565b80865292828116908115612ed85750600114612e7c575b50505061263092500382612493565b600281527f405787fa12a823e0f2b7631cc41b3ba8828b3321ca811111fa75cd3aa3bb5ace95935091905b818310612ec05750506126309350820101388080612e6d565b85548784018501529485019486945091830191612ea7565b9150506126309593507fffffffffffffffffffffffffffffffffffffffffffffffffffffffffffffff0091501682840152151560051b820101388080612e6d565b915050835281868085208686915b858310612f3e575050612d2e935082010138612d21565b8091929450548385880101520191018790868593612f27565b7fffffffffffffffffffffffffffffffffffffffffffffffffffffffffffffff00168a52612d2e95151560051b8501019250389150612d21905056fea2646970667358221220c0b612b65b91253a9022aae1b51a2899696ca53a5e97f95820e165061ca7fcb764736f6c63430008130033",
  "linkReferences": {},
  "deployedLinkReferences": {}
}