{
  "_format": "hh-sol-artifact-1",
  "contractName": "QHash",
  "sourceName": "contracts/QHash/QHash.sol",
  "abi": [
    {
      "inputs": [
        {
          "internalType": "bytes",
          "name": "sig",
          "type": "bytes"
        },
        {
          "internalType": "uint256",
          "name": "tokenId",
          "type": "uint256"
        }
      ],
      "name": "checkHash",
      "outputs": [
        {
          "internalType": "bool",
          "name": "",
          "type": "bool"
        }
      ],
      "stateMutability": "pure",
      "type": "function"
    }
  ],
  "bytecode": "0x608080604052346100165761010d908161001b8239f35b5f80fdfe60806004361015600d575f80fd5b5f90813560e01c63096c8723146021575f80fd5b3460d357604036600319011260d35767ffffffffffffffff9060043582811160cf573660238201121560cf57806004013583811160cb57366024828401011160cb578083916024602084019401843781016b39b0b6b0b7103bb4b639b7b760a11b602082015203600c81018352604b601f199101168201928284109084111760b757602093508260405260243591519020148152f35b634e487b7160e01b84526041600452602484fd5b8480fd5b8380fd5b5080fdfea2646970667358221220ca180244b254f4db1ab456d699d2a5b2e360a6887abab5533a4e29783c83b7e764736f6c63430008150033",
  "linkReferences": {},
  "deployedLinkReferences": {}
}