{
  "_format": "hh-sol-artifact-1",
  "contractName": "QHash",
  "sourceName": "contracts/QHash/QHash.sol",
  "abi": [
    {
      "inputs": [
        {
          "internalType": "bytes",
          "name": "sig",
          "type": "bytes"
        },
        {
          "internalType": "uint256",
          "name": "tokenId",
          "type": "uint256"
        }
      ],
      "name": "checkHash",
      "outputs": [
        {
          "internalType": "bool",
          "name": "",
          "type": "bool"
        }
      ],
      "stateMutability": "pure",
      "type": "function"
    }
  ],
  "bytecode": "0x608080604052346100165761017e908161001c8239f35b600080fdfe6080600436101561000f57600080fd5b600090813560e01c63096c87231461002657600080fd5b346101445760407ffffffffffffffffffffffffffffffffffffffffffffffffffffffffffffffffc3601126101445767ffffffffffffffff90600435828111610140573660238201121561014057806004013583811161013c57366024828401011161013c57604b83827fffffffffffffffffffffffffffffffffffffffffffffffffffffffffffffffe0936024602084019601863781017f73616d616e2077696c736f6e0000000000000000000000000000000000000000602082015203600c8101855201168201928284109084111761010f57602093508260405260243591519020148152f35b6024847f4e487b710000000000000000000000000000000000000000000000000000000081526041600452fd5b8480fd5b8380fd5b5080fdfea2646970667358221220a38a017d7a1836da928c3f34758e01d78fce29d3e8a722f62e569f3d46c33c9564736f6c63430008130033",
  "linkReferences": {},
  "deployedLinkReferences": {}
}