{
  "_format": "hh-sol-artifact-1",
  "contractName": "Katibeh721",
  "sourceName": "contracts/katibeh721/Katibeh721.sol",
  "abi": [
    {
      "inputs": [
        {
          "internalType": "address",
          "name": "qvhAddr",
          "type": "address"
        }
      ],
      "stateMutability": "nonpayable",
      "type": "constructor"
    },
    {
      "anonymous": false,
      "inputs": [
        {
          "indexed": true,
          "internalType": "address",
          "name": "owner",
          "type": "address"
        },
        {
          "indexed": true,
          "internalType": "address",
          "name": "approved",
          "type": "address"
        },
        {
          "indexed": true,
          "internalType": "uint256",
          "name": "tokenId",
          "type": "uint256"
        }
      ],
      "name": "Approval",
      "type": "event"
    },
    {
      "anonymous": false,
      "inputs": [
        {
          "indexed": true,
          "internalType": "address",
          "name": "owner",
          "type": "address"
        },
        {
          "indexed": true,
          "internalType": "address",
          "name": "operator",
          "type": "address"
        },
        {
          "indexed": false,
          "internalType": "bool",
          "name": "approved",
          "type": "bool"
        }
      ],
      "name": "ApprovalForAll",
      "type": "event"
    },
    {
      "anonymous": false,
      "inputs": [
        {
          "indexed": true,
          "internalType": "uint256",
          "name": "tokenId",
          "type": "uint256"
        },
        {
          "indexed": true,
          "internalType": "uint256",
          "name": "toTokenId",
          "type": "uint256"
        }
      ],
      "name": "NewReply",
      "type": "event"
    },
    {
      "anonymous": false,
      "inputs": [
        {
          "indexed": true,
          "internalType": "uint256",
          "name": "tokenId",
          "type": "uint256"
        },
        {
          "indexed": true,
          "internalType": "address",
          "name": "creator",
          "type": "address"
        },
        {
          "indexed": true,
          "internalType": "bytes",
          "name": "data",
          "type": "bytes"
        },
        {
          "indexed": false,
          "internalType": "uint256",
          "name": "signTime",
          "type": "uint256"
        },
        {
          "indexed": false,
          "internalType": "uint256",
          "name": "initTime",
          "type": "uint256"
        },
        {
          "indexed": false,
          "internalType": "uint256",
          "name": "expTime",
          "type": "uint256"
        }
      ],
      "name": "NewToken",
      "type": "event"
    },
    {
      "anonymous": false,
      "inputs": [
        {
          "indexed": false,
          "internalType": "uint256",
          "name": "tokenId",
          "type": "uint256"
        },
        {
          "indexed": true,
          "internalType": "bytes32",
          "name": "tag1",
          "type": "bytes32"
        },
        {
          "indexed": true,
          "internalType": "bytes32",
          "name": "tag2",
          "type": "bytes32"
        },
        {
          "indexed": true,
          "internalType": "bytes32",
          "name": "tag3",
          "type": "bytes32"
        }
      ],
      "name": "Tags",
      "type": "event"
    },
    {
      "anonymous": false,
      "inputs": [
        {
          "indexed": true,
          "internalType": "address",
          "name": "from",
          "type": "address"
        },
        {
          "indexed": true,
          "internalType": "address",
          "name": "to",
          "type": "address"
        },
        {
          "indexed": true,
          "internalType": "uint256",
          "name": "tokenId",
          "type": "uint256"
        }
      ],
      "name": "Transfer",
      "type": "event"
    },
    {
      "inputs": [],
      "name": "QVH",
      "outputs": [
        {
          "internalType": "contract IQVHash",
          "name": "",
          "type": "address"
        }
      ],
      "stateMutability": "view",
      "type": "function"
    },
    {
      "inputs": [
        {
          "internalType": "address",
          "name": "to",
          "type": "address"
        },
        {
          "internalType": "uint256",
          "name": "tokenId",
          "type": "uint256"
        }
      ],
      "name": "approve",
      "outputs": [],
      "stateMutability": "nonpayable",
      "type": "function"
    },
    {
      "inputs": [
        {
          "internalType": "address",
          "name": "owner",
          "type": "address"
        }
      ],
      "name": "balanceOf",
      "outputs": [
        {
          "internalType": "uint256",
          "name": "",
          "type": "uint256"
        }
      ],
      "stateMutability": "view",
      "type": "function"
    },
    {
      "inputs": [
        {
          "internalType": "uint256",
          "name": "tokenId",
          "type": "uint256"
        }
      ],
      "name": "burn",
      "outputs": [],
      "stateMutability": "nonpayable",
      "type": "function"
    },
    {
      "inputs": [],
      "name": "creatorAddresses",
      "outputs": [
        {
          "internalType": "address[]",
          "name": "creator",
          "type": "address[]"
        }
      ],
      "stateMutability": "view",
      "type": "function"
    },
    {
      "inputs": [
        {
          "internalType": "uint256",
          "name": "index",
          "type": "uint256"
        }
      ],
      "name": "creatorByIndex",
      "outputs": [
        {
          "internalType": "address",
          "name": "creator",
          "type": "address"
        }
      ],
      "stateMutability": "view",
      "type": "function"
    },
    {
      "inputs": [
        {
          "internalType": "uint256[]",
          "name": "index",
          "type": "uint256[]"
        }
      ],
      "name": "creatorsByIndexBatch",
      "outputs": [
        {
          "internalType": "address[]",
          "name": "creator",
          "type": "address[]"
        }
      ],
      "stateMutability": "view",
      "type": "function"
    },
    {
      "inputs": [
        {
          "internalType": "uint256",
          "name": "tokenId",
          "type": "uint256"
        }
      ],
      "name": "getApproved",
      "outputs": [
        {
          "internalType": "address",
          "name": "",
          "type": "address"
        }
      ],
      "stateMutability": "view",
      "type": "function"
    },
    {
      "inputs": [
        {
          "internalType": "bytes32",
          "name": "uriHash",
          "type": "bytes32"
        }
      ],
      "name": "getUriId",
      "outputs": [
        {
          "internalType": "uint256",
          "name": "",
          "type": "uint256"
        }
      ],
      "stateMutability": "view",
      "type": "function"
    },
    {
      "inputs": [
        {
          "internalType": "address",
          "name": "owner",
          "type": "address"
        },
        {
          "internalType": "address",
          "name": "operator",
          "type": "address"
        }
      ],
      "name": "isApprovedForAll",
      "outputs": [
        {
          "internalType": "bool",
          "name": "",
          "type": "bool"
        }
      ],
      "stateMutability": "view",
      "type": "function"
    },
    {
      "inputs": [],
      "name": "name",
      "outputs": [
        {
          "internalType": "string",
          "name": "",
          "type": "string"
        }
      ],
      "stateMutability": "view",
      "type": "function"
    },
    {
      "inputs": [],
      "name": "numberOfCreators",
      "outputs": [
        {
          "internalType": "uint256",
          "name": "",
          "type": "uint256"
        }
      ],
      "stateMutability": "view",
      "type": "function"
    },
    {
      "inputs": [
        {
          "internalType": "address",
          "name": "toCreator",
          "type": "address"
        }
      ],
      "name": "numberOfRepliesToCreator",
      "outputs": [
        {
          "internalType": "uint256",
          "name": "",
          "type": "uint256"
        }
      ],
      "stateMutability": "view",
      "type": "function"
    },
    {
      "inputs": [
        {
          "internalType": "address[]",
          "name": "toCreator",
          "type": "address[]"
        }
      ],
      "name": "numberOfRepliesToCreatorBatch",
      "outputs": [
        {
          "internalType": "uint256[]",
          "name": "count",
          "type": "uint256[]"
        }
      ],
      "stateMutability": "view",
      "type": "function"
    },
    {
      "inputs": [
        {
          "internalType": "uint256",
          "name": "tokenId",
          "type": "uint256"
        }
      ],
      "name": "numberOfTokenReplies",
      "outputs": [
        {
          "internalType": "uint256",
          "name": "",
          "type": "uint256"
        }
      ],
      "stateMutability": "view",
      "type": "function"
    },
    {
      "inputs": [
        {
          "internalType": "uint256[]",
          "name": "tokenId",
          "type": "uint256[]"
        }
      ],
      "name": "numberOfTokenRepliesBatch",
      "outputs": [
        {
          "internalType": "uint256[]",
          "name": "count",
          "type": "uint256[]"
        }
      ],
      "stateMutability": "view",
      "type": "function"
    },
    {
      "inputs": [
        {
          "internalType": "bytes32",
          "name": "tag",
          "type": "bytes32"
        }
      ],
      "name": "numberOfTokensByTag",
      "outputs": [
        {
          "internalType": "uint256",
          "name": "",
          "type": "uint256"
        }
      ],
      "stateMutability": "view",
      "type": "function"
    },
    {
      "inputs": [
        {
          "internalType": "bytes32[]",
          "name": "tag",
          "type": "bytes32[]"
        }
      ],
      "name": "numberOfTokensByTagBatch",
      "outputs": [
        {
          "internalType": "uint256[]",
          "name": "count",
          "type": "uint256[]"
        }
      ],
      "stateMutability": "view",
      "type": "function"
    },
    {
      "inputs": [
        {
          "internalType": "address",
          "name": "creator",
          "type": "address"
        }
      ],
      "name": "numberOfTokensOfCreator",
      "outputs": [
        {
          "internalType": "uint256",
          "name": "",
          "type": "uint256"
        }
      ],
      "stateMutability": "view",
      "type": "function"
    },
    {
      "inputs": [
        {
          "internalType": "address[]",
          "name": "creator",
          "type": "address[]"
        }
      ],
      "name": "numberOfTokensOfCreatorBatch",
      "outputs": [
        {
          "internalType": "uint256[]",
          "name": "count",
          "type": "uint256[]"
        }
      ],
      "stateMutability": "view",
      "type": "function"
    },
    {
      "inputs": [],
      "name": "numberOfTokensTraceable",
      "outputs": [
        {
          "internalType": "uint256",
          "name": "count",
          "type": "uint256"
        }
      ],
      "stateMutability": "view",
      "type": "function"
    },
    {
      "inputs": [
        {
          "internalType": "uint256",
          "name": "tokenId",
          "type": "uint256"
        }
      ],
      "name": "ownerOf",
      "outputs": [
        {
          "internalType": "address",
          "name": "",
          "type": "address"
        }
      ],
      "stateMutability": "view",
      "type": "function"
    },
    {
      "inputs": [
        {
          "internalType": "address",
          "name": "toCreator",
          "type": "address"
        }
      ],
      "name": "repliesToCreator",
      "outputs": [
        {
          "internalType": "uint256[]",
          "name": "ids",
          "type": "uint256[]"
        }
      ],
      "stateMutability": "view",
      "type": "function"
    },
    {
      "inputs": [
        {
          "internalType": "address",
          "name": "toCreator",
          "type": "address"
        },
        {
          "internalType": "uint256",
          "name": "index",
          "type": "uint256"
        }
      ],
      "name": "repliesToCreatorByIndex",
      "outputs": [
        {
          "internalType": "uint256",
          "name": "id",
          "type": "uint256"
        }
      ],
      "stateMutability": "view",
      "type": "function"
    },
    {
      "inputs": [
        {
          "internalType": "address",
          "name": "toCreator",
          "type": "address"
        },
        {
          "internalType": "uint256[]",
          "name": "index",
          "type": "uint256[]"
        }
      ],
      "name": "repliesToCreatorByIndexBatch",
      "outputs": [
        {
          "internalType": "uint256[]",
          "name": "id",
          "type": "uint256[]"
        }
      ],
      "stateMutability": "view",
      "type": "function"
    },
    {
      "inputs": [
        {
          "components": [
            {
              "internalType": "address",
              "name": "creator",
              "type": "address"
            },
            {
              "internalType": "uint256",
              "name": "signTime",
              "type": "uint256"
            },
            {
              "internalType": "uint256",
              "name": "initTime",
              "type": "uint256"
            },
            {
              "internalType": "uint256",
              "name": "expTime",
              "type": "uint256"
            },
            {
              "internalType": "string",
              "name": "tokenURI",
              "type": "string"
            },
            {
              "internalType": "bytes",
              "name": "data",
              "type": "bytes"
            },
            {
              "internalType": "uint256[]",
              "name": "toTokenId",
              "type": "uint256[]"
            },
            {
              "internalType": "bytes32[]",
              "name": "tags",
              "type": "bytes32[]"
            },
            {
              "components": [
                {
                  "internalType": "address",
                  "name": "addr",
                  "type": "address"
                },
                {
                  "internalType": "uint16",
                  "name": "share",
                  "type": "uint16"
                }
              ],
              "internalType": "struct DataStorage.Payee[]",
              "name": "owners",
              "type": "tuple[]"
            }
          ],
          "internalType": "struct DataStorage.Katibeh",
          "name": "katibeh",
          "type": "tuple"
        },
        {
          "internalType": "bytes",
          "name": "sig",
          "type": "bytes"
        },
        {
          "internalType": "bytes",
          "name": "dappData",
          "type": "bytes"
        }
      ],
      "name": "safeMint",
      "outputs": [
        {
          "internalType": "uint256",
          "name": "tokenId",
          "type": "uint256"
        }
      ],
      "stateMutability": "nonpayable",
      "type": "function"
    },
    {
      "inputs": [
        {
          "components": [
            {
              "internalType": "address",
              "name": "creator",
              "type": "address"
            },
            {
              "internalType": "uint256",
              "name": "signTime",
              "type": "uint256"
            },
            {
              "internalType": "uint256",
              "name": "initTime",
              "type": "uint256"
            },
            {
              "internalType": "uint256",
              "name": "expTime",
              "type": "uint256"
            },
            {
              "internalType": "string",
              "name": "tokenURI",
              "type": "string"
            },
            {
              "internalType": "bytes",
              "name": "data",
              "type": "bytes"
            },
            {
              "internalType": "uint256[]",
              "name": "toTokenId",
              "type": "uint256[]"
            },
            {
              "internalType": "bytes32[]",
              "name": "tags",
              "type": "bytes32[]"
            },
            {
              "components": [
                {
                  "internalType": "address",
                  "name": "addr",
                  "type": "address"
                },
                {
                  "internalType": "uint16",
                  "name": "share",
                  "type": "uint16"
                }
              ],
              "internalType": "struct DataStorage.Payee[]",
              "name": "owners",
              "type": "tuple[]"
            }
          ],
          "internalType": "struct DataStorage.Katibeh",
          "name": "katibeh",
          "type": "tuple"
        },
        {
          "internalType": "bytes",
          "name": "sig",
          "type": "bytes"
        },
        {
          "internalType": "bytes",
          "name": "dappData",
          "type": "bytes"
        }
      ],
      "name": "safeMintAndSetTraceStorage",
      "outputs": [],
      "stateMutability": "nonpayable",
      "type": "function"
    },
    {
      "inputs": [
        {
          "internalType": "address",
          "name": "from",
          "type": "address"
        },
        {
          "internalType": "address",
          "name": "to",
          "type": "address"
        },
        {
          "internalType": "uint256",
          "name": "tokenId",
          "type": "uint256"
        }
      ],
      "name": "safeTransferFrom",
      "outputs": [],
      "stateMutability": "nonpayable",
      "type": "function"
    },
    {
      "inputs": [
        {
          "internalType": "address",
          "name": "from",
          "type": "address"
        },
        {
          "internalType": "address",
          "name": "to",
          "type": "address"
        },
        {
          "internalType": "uint256",
          "name": "tokenId",
          "type": "uint256"
        },
        {
          "internalType": "bytes",
          "name": "data",
          "type": "bytes"
        }
      ],
      "name": "safeTransferFrom",
      "outputs": [],
      "stateMutability": "nonpayable",
      "type": "function"
    },
    {
      "inputs": [
        {
          "internalType": "address",
          "name": "operator",
          "type": "address"
        },
        {
          "internalType": "bool",
          "name": "approved",
          "type": "bool"
        }
      ],
      "name": "setApprovalForAll",
      "outputs": [],
      "stateMutability": "nonpayable",
      "type": "function"
    },
    {
      "inputs": [
        {
          "internalType": "bytes4",
          "name": "interfaceId",
          "type": "bytes4"
        }
      ],
      "name": "supportsInterface",
      "outputs": [
        {
          "internalType": "bool",
          "name": "",
          "type": "bool"
        }
      ],
      "stateMutability": "view",
      "type": "function"
    },
    {
      "inputs": [],
      "name": "symbol",
      "outputs": [
        {
          "internalType": "string",
          "name": "",
          "type": "string"
        }
      ],
      "stateMutability": "view",
      "type": "function"
    },
    {
      "inputs": [],
      "name": "timeStamp",
      "outputs": [
        {
          "internalType": "uint256",
          "name": "",
          "type": "uint256"
        }
      ],
      "stateMutability": "view",
      "type": "function"
    },
    {
      "inputs": [
        {
          "internalType": "uint256",
          "name": "index",
          "type": "uint256"
        }
      ],
      "name": "tokenByIndex",
      "outputs": [
        {
          "internalType": "uint256",
          "name": "",
          "type": "uint256"
        }
      ],
      "stateMutability": "view",
      "type": "function"
    },
    {
      "inputs": [
        {
          "internalType": "uint256",
          "name": "index",
          "type": "uint256"
        }
      ],
      "name": "tokenByIndexTraceable",
      "outputs": [
        {
          "internalType": "uint256",
          "name": "id",
          "type": "uint256"
        }
      ],
      "stateMutability": "view",
      "type": "function"
    },
    {
      "inputs": [
        {
          "internalType": "uint256",
          "name": "tokenId",
          "type": "uint256"
        }
      ],
      "name": "tokenInfo",
      "outputs": [
        {
          "components": [
            {
              "internalType": "address",
              "name": "creator",
              "type": "address"
            },
            {
              "internalType": "uint256",
              "name": "signTime",
              "type": "uint256"
            },
            {
              "internalType": "uint256",
              "name": "initTime",
              "type": "uint256"
            },
            {
              "internalType": "uint256",
              "name": "expTime",
              "type": "uint256"
            },
            {
              "internalType": "string",
              "name": "tokenURI",
              "type": "string"
            },
            {
              "internalType": "bytes",
              "name": "data",
              "type": "bytes"
            },
            {
              "internalType": "uint256[]",
              "name": "toTokenId",
              "type": "uint256[]"
            },
            {
              "internalType": "bytes32[]",
              "name": "tags",
              "type": "bytes32[]"
            },
            {
              "components": [
                {
                  "internalType": "address",
                  "name": "addr",
                  "type": "address"
                },
                {
                  "internalType": "uint16",
                  "name": "share",
                  "type": "uint16"
                }
              ],
              "internalType": "struct DataStorage.Payee[]",
              "name": "owners",
              "type": "tuple[]"
            }
          ],
          "internalType": "struct DataStorage.Katibeh",
          "name": "katibeh",
          "type": "tuple"
        },
        {
          "internalType": "uint256",
          "name": "mintTime",
          "type": "uint256"
        },
        {
          "internalType": "bytes",
          "name": "sig",
          "type": "bytes"
        },
        {
          "internalType": "bytes",
          "name": "dappData",
          "type": "bytes"
        }
      ],
      "stateMutability": "view",
      "type": "function"
    },
    {
      "inputs": [
        {
          "internalType": "uint256",
          "name": "",
          "type": "uint256"
        }
      ],
      "name": "tokenMintTime",
      "outputs": [
        {
          "internalType": "uint256",
          "name": "",
          "type": "uint256"
        }
      ],
      "stateMutability": "view",
      "type": "function"
    },
    {
      "inputs": [
        {
          "internalType": "address",
          "name": "creator",
          "type": "address"
        },
        {
          "internalType": "uint256",
          "name": "index",
          "type": "uint256"
        }
      ],
      "name": "tokenOfCreatorByIndex",
      "outputs": [
        {
          "internalType": "uint256",
          "name": "id",
          "type": "uint256"
        }
      ],
      "stateMutability": "view",
      "type": "function"
    },
    {
      "inputs": [
        {
          "internalType": "address",
          "name": "owner",
          "type": "address"
        },
        {
          "internalType": "uint256",
          "name": "index",
          "type": "uint256"
        }
      ],
      "name": "tokenOfOwnerByIndex",
      "outputs": [
        {
          "internalType": "uint256",
          "name": "",
          "type": "uint256"
        }
      ],
      "stateMutability": "view",
      "type": "function"
    },
    {
      "inputs": [
        {
          "internalType": "bytes32",
          "name": "tag",
          "type": "bytes32"
        },
        {
          "internalType": "uint256",
          "name": "index",
          "type": "uint256"
        }
      ],
      "name": "tokenOfTagByIndex",
      "outputs": [
        {
          "internalType": "uint256",
          "name": "id",
          "type": "uint256"
        }
      ],
      "stateMutability": "view",
      "type": "function"
    },
    {
      "inputs": [
        {
          "internalType": "uint256",
          "name": "tokenId",
          "type": "uint256"
        }
      ],
      "name": "tokenReplies",
      "outputs": [
        {
          "internalType": "uint256[]",
          "name": "ids",
          "type": "uint256[]"
        }
      ],
      "stateMutability": "view",
      "type": "function"
    },
    {
      "inputs": [
        {
          "internalType": "uint256",
          "name": "tokenId",
          "type": "uint256"
        },
        {
          "internalType": "uint256[]",
          "name": "index",
          "type": "uint256[]"
        }
      ],
      "name": "tokenRepliesByIndexBatch",
      "outputs": [
        {
          "internalType": "uint256[]",
          "name": "id",
          "type": "uint256[]"
        }
      ],
      "stateMutability": "view",
      "type": "function"
    },
    {
      "inputs": [
        {
          "internalType": "uint256",
          "name": "tokenId",
          "type": "uint256"
        },
        {
          "internalType": "uint256",
          "name": "index",
          "type": "uint256"
        }
      ],
      "name": "tokenReplyByIndex",
      "outputs": [
        {
          "internalType": "uint256",
          "name": "id",
          "type": "uint256"
        }
      ],
      "stateMutability": "view",
      "type": "function"
    },
    {
      "inputs": [
        {
          "internalType": "uint256",
          "name": "tokenId",
          "type": "uint256"
        }
      ],
      "name": "tokenShareholders",
      "outputs": [
        {
          "components": [
            {
              "internalType": "address",
              "name": "addr",
              "type": "address"
            },
            {
              "internalType": "uint16",
              "name": "share",
              "type": "uint16"
            }
          ],
          "internalType": "struct DataStorage.Payee[]",
          "name": "_owners_",
          "type": "tuple[]"
        }
      ],
      "stateMutability": "view",
      "type": "function"
    },
    {
      "inputs": [
        {
          "internalType": "uint256",
          "name": "tokenId",
          "type": "uint256"
        }
      ],
      "name": "tokenURI",
      "outputs": [
        {
          "internalType": "string",
          "name": "",
          "type": "string"
        }
      ],
      "stateMutability": "view",
      "type": "function"
    },
    {
      "inputs": [
        {
          "internalType": "uint256[]",
          "name": "index",
          "type": "uint256[]"
        }
      ],
      "name": "tokensByIndexTraceableBatch",
      "outputs": [
        {
          "internalType": "uint256[]",
          "name": "id",
          "type": "uint256[]"
        }
      ],
      "stateMutability": "view",
      "type": "function"
    },
    {
      "inputs": [
        {
          "internalType": "uint256[]",
          "name": "tokenId",
          "type": "uint256[]"
        }
      ],
      "name": "tokensInfoBatch",
      "outputs": [
        {
          "components": [
            {
              "internalType": "address",
              "name": "creator",
              "type": "address"
            },
            {
              "internalType": "uint256",
              "name": "signTime",
              "type": "uint256"
            },
            {
              "internalType": "uint256",
              "name": "initTime",
              "type": "uint256"
            },
            {
              "internalType": "uint256",
              "name": "expTime",
              "type": "uint256"
            },
            {
              "internalType": "string",
              "name": "tokenURI",
              "type": "string"
            },
            {
              "internalType": "bytes",
              "name": "data",
              "type": "bytes"
            },
            {
              "internalType": "uint256[]",
              "name": "toTokenId",
              "type": "uint256[]"
            },
            {
              "internalType": "bytes32[]",
              "name": "tags",
              "type": "bytes32[]"
            },
            {
              "components": [
                {
                  "internalType": "address",
                  "name": "addr",
                  "type": "address"
                },
                {
                  "internalType": "uint16",
                  "name": "share",
                  "type": "uint16"
                }
              ],
              "internalType": "struct DataStorage.Payee[]",
              "name": "owners",
              "type": "tuple[]"
            }
          ],
          "internalType": "struct DataStorage.Katibeh[]",
          "name": "katibeh",
          "type": "tuple[]"
        },
        {
          "internalType": "uint256[]",
          "name": "mintTime",
          "type": "uint256[]"
        },
        {
          "internalType": "bytes[]",
          "name": "sig",
          "type": "bytes[]"
        },
        {
          "internalType": "bytes[]",
          "name": "dappData",
          "type": "bytes[]"
        }
      ],
      "stateMutability": "view",
      "type": "function"
    },
    {
      "inputs": [
        {
          "internalType": "address",
          "name": "creator",
          "type": "address"
        }
      ],
      "name": "tokensOfCreator",
      "outputs": [
        {
          "internalType": "uint256[]",
          "name": "ids",
          "type": "uint256[]"
        }
      ],
      "stateMutability": "view",
      "type": "function"
    },
    {
      "inputs": [
        {
          "internalType": "address",
          "name": "creator",
          "type": "address"
        },
        {
          "internalType": "uint256[]",
          "name": "index",
          "type": "uint256[]"
        }
      ],
      "name": "tokensOfCreatorByIndexBatch",
      "outputs": [
        {
          "internalType": "uint256[]",
          "name": "id",
          "type": "uint256[]"
        }
      ],
      "stateMutability": "view",
      "type": "function"
    },
    {
      "inputs": [
        {
          "internalType": "bytes32",
          "name": "tag",
          "type": "bytes32"
        }
      ],
      "name": "tokensOfTag",
      "outputs": [
        {
          "internalType": "uint256[]",
          "name": "ids",
          "type": "uint256[]"
        }
      ],
      "stateMutability": "view",
      "type": "function"
    },
    {
      "inputs": [
        {
          "internalType": "bytes32",
          "name": "tag",
          "type": "bytes32"
        },
        {
          "internalType": "uint256[]",
          "name": "index",
          "type": "uint256[]"
        }
      ],
      "name": "tokensOfTagByIndexBatch",
      "outputs": [
        {
          "internalType": "uint256[]",
          "name": "id",
          "type": "uint256[]"
        }
      ],
      "stateMutability": "view",
      "type": "function"
    },
    {
      "inputs": [],
      "name": "totalSupply",
      "outputs": [
        {
          "internalType": "uint256",
          "name": "",
          "type": "uint256"
        }
      ],
      "stateMutability": "view",
      "type": "function"
    },
    {
      "inputs": [
        {
          "internalType": "address",
          "name": "creator",
          "type": "address"
        },
        {
          "internalType": "uint256",
          "name": "id",
          "type": "uint256"
        }
      ],
      "name": "traceTokenByCreator",
      "outputs": [
        {
          "internalType": "uint256",
          "name": "numberOfPreviousIds",
          "type": "uint256"
        },
        {
          "internalType": "uint256",
          "name": "numberOfNextIds",
          "type": "uint256"
        },
        {
          "internalType": "uint256",
          "name": "previousId",
          "type": "uint256"
        },
        {
          "internalType": "uint256",
          "name": "nextId",
          "type": "uint256"
        }
      ],
      "stateMutability": "view",
      "type": "function"
    },
    {
      "inputs": [
        {
          "internalType": "uint256",
          "name": "id",
          "type": "uint256"
        }
      ],
      "name": "traceTokenById",
      "outputs": [
        {
          "internalType": "uint256",
          "name": "numberOfPreviousIds",
          "type": "uint256"
        },
        {
          "internalType": "uint256",
          "name": "numberOfNextIds",
          "type": "uint256"
        },
        {
          "internalType": "uint256",
          "name": "previousId",
          "type": "uint256"
        },
        {
          "internalType": "uint256",
          "name": "nextId",
          "type": "uint256"
        }
      ],
      "stateMutability": "view",
      "type": "function"
    },
    {
      "inputs": [
        {
          "internalType": "bytes32",
          "name": "tag",
          "type": "bytes32"
        },
        {
          "internalType": "uint256",
          "name": "id",
          "type": "uint256"
        }
      ],
      "name": "traceTokenByTag",
      "outputs": [
        {
          "internalType": "uint256",
          "name": "numberOfPreviousIds",
          "type": "uint256"
        },
        {
          "internalType": "uint256",
          "name": "numberOfNextIds",
          "type": "uint256"
        },
        {
          "internalType": "uint256",
          "name": "previousId",
          "type": "uint256"
        },
        {
          "internalType": "uint256",
          "name": "nextId",
          "type": "uint256"
        }
      ],
      "stateMutability": "view",
      "type": "function"
    },
    {
      "inputs": [
        {
          "internalType": "address",
          "name": "from",
          "type": "address"
        },
        {
          "internalType": "address",
          "name": "to",
          "type": "address"
        },
        {
          "internalType": "uint256",
          "name": "tokenId",
          "type": "uint256"
        }
      ],
      "name": "transferFrom",
      "outputs": [],
      "stateMutability": "nonpayable",
      "type": "function"
    }
  ],
  "bytecode": "0x6080346200035c57601f601f196001600160401b0362005aa138819003848101841686018381118782101762000346578692829160405283396020958691810103126200035c57516001600160a01b03811693908490036200035c576200006562000361565b92600a8452694b61746962656837323160b01b868501526200008662000361565b90600782526609682a892848a960cb1b8783015284519084821162000346576000918254966001978881811c911680156200033b575b8b8210146200032757908187849311620002d4575b508a908783116001146200027157859262000265575b5050600019600383901b1c191690871b1782555b8251948511620002515785548681811c9116801562000246575b898210146200023257848111620001ea575b508793851160011462000185575083949596509262000179575b5050600019600383901b1c191690821b1790555b601880546001600160a01b03191691909117905560405161571f9081620003828239f35b01519050388062000141565b8493929193169685845280842093905b888210620001d25750508385969710620001b8575b505050811b01905562000155565b015160001960f88460031b161c19169055388080620001aa565b80878596829496860151815501950193019062000195565b8683528883208580880160051c8201928b891062000228575b0160051c019087905b8281106200021c57505062000127565b8481550187906200020c565b9250819262000203565b634e487b7160e01b83526022600452602483fd5b90607f169062000115565b634e487b7160e01b82526041600452602482fd5b015190503880620000e7565b90848a9416918680528c8720928d88905b828210620002bc5750508411620002a2575b505050811b018255620000fb565b015160001960f88460031b161c1916905538808062000294565b8385015186558d979095019493840193018e62000282565b9091508480528a85208780850160051c8201928d86106200031d575b918b91869594930160051c01915b8281106200030e575050620000d1565b8781558594508b9101620002fe565b92508192620002f0565b634e487b7160e01b85526022600452602485fd5b90607f1690620000bc565b634e487b7160e01b600052604160045260246000fd5b600080fd5b60408051919082016001600160401b03811183821017620003465760405256fe60406080815260048036101561001457600080fd5b600090813560e01c908163017642e41461294257816301ffc9a71461281b57816306fdde0314612755578163081812fc14612702578163095ea7b3146125025781630ab0df87146124c9578163132e75d6146124675781631674ed4b146123c257816318160ddd146123855781631ae69b611461234857816323b872dd1461232357816326156636146122e557816329c7785f146122bc5781632b0eca8c146120b75781632c230901146120285781632e0d071814611fe15781632f745c5914611ede57816331d9954514611e4a5781633552d22014611e2e57816339d77f2514611c1d57816340b9475714611b7b57816342842e0e14611b4757816342966c68146116325781634667c884146115eb5781634832e8f3146113485781634f6ccce7146112795781634fc092751461123257816360f6a4a3146111cc5781636352211e146111795781636d571b6a1461111e57816370a08231146110da5781637372e98d146110bb57816378292236146110745781638282674f1461102b57816383b81ebd14610fe457816389f6571514610f925781638f93fb3914610ef157816395d89b4114610de457816396cc6a3414610d49578163a22cb46514610c1a578163af3ea10514610b84578163b158220114610b0d578163b88d4fde14610a3b578163bfc9b364146109f1578163c03d1d91146108fc578163c35128761461073f578163c87b56dd146106d1578163cc33c87514610656578163cca3c766146105ad578163dd46879114610570578163e985e9c5146104f7578163f076ed3b146104a4578163f353a73214610437578163f6bd7ab81461039757508063f99458a4146103205763fe649b7e1461028a57600080fd5b3461031d5761029836612b0a565b926102a584939293614ec9565b93815b8181106102c8578651602080825281906102c490820189612a11565b0390f35b806103016102da610318938589614dee565b3573ffffffffffffffffffffffffffffffffffffffff871686526016602052898620613b57565b90549060031b1c6103128289614f8c565b52614dc1565b6102a8565b80fd5b50903461039357807ffffffffffffffffffffffffffffffffffffffffffffffffffffffffffffffffc3601126103935761038560209273ffffffffffffffffffffffffffffffffffffffff610373612aa3565b16815260168452826024359120613b57565b91905490519160031b1c8152f35b5080fd5b9050346103935760207ffffffffffffffffffffffffffffffffffffffffffffffffffffffffffffffffc36011261039357803567ffffffffffffffff8111610433576103e5913691016129db565b6103ee81614ec9565b925b81811061040c578451602080825281906102c490820187612a11565b8061042461041e61042e938587614dee565b356153a3565b6103128287614f8c565b6103f0565b8280fd5b8284346103935760207ffffffffffffffffffffffffffffffffffffffffffffffffffffffffffffffffc3601126103935760209061049d610476612aa3565b73ffffffffffffffffffffffffffffffffffffffff16600052601660205260406000205490565b9051908152f35b82843461039357817ffffffffffffffffffffffffffffffffffffffffffffffffffffffffffffffffc3601126103935760209073ffffffffffffffffffffffffffffffffffffffff601854169051908152f35b82843461039357807ffffffffffffffffffffffffffffffffffffffffffffffffffffffffffffffffc3601126103935760ff81602093610535612aa3565b61053d612ac6565b73ffffffffffffffffffffffffffffffffffffffff91821683526005875283832091168252855220549151911615158152f35b82843461039357817ffffffffffffffffffffffffffffffffffffffffffffffffffffffffffffffffc36011261039357602090600f549051908152f35b9050823461043357602091827ffffffffffffffffffffffffffffffffffffffffffffffffffffffffffffffffc3601126106525780359067ffffffffffffffff821161064e576105ff913691016129db565b9361060985614ec9565b94815b818110610625578451868152806102c48189018a612a11565b80610634610649928487614dee565b3584526015875285842054610312828a614f8c565b61060c565b8480fd5b8380fd5b83833461031d5760207ffffffffffffffffffffffffffffffffffffffffffffffffffffffffffffffffc36011261031d57506102c46106c361069b6106b19435614fef565b9392958051978897608089526080890190612c66565b92602088015286830390870152612a45565b908382036060850152612a45565b839150346104335760207ffffffffffffffffffffffffffffffffffffffffffffffffffffffffffffffffc360112610433579061072d82826102c49561072695358152600a6020522001825193848092613192565b0383612f7f565b51918291602083526020830190612a45565b83833461031d57817ffffffffffffffffffffffffffffffffffffffffffffffffffffffffffffffffc36011261031d57610777612aa3565b8173ffffffffffffffffffffffffffffffffffffffff83921683526012602052838320936107a7602435866153bf565b936107b3858754614dfe565b957fffffffffffffffffffffffffffffffffffffffffffffffffffffffffffffffff8088019788116108d05786610876575b508661080f575b505051928352602083019390935260408201929092526060810191909152608090f35b909193506001850180861161084a576102c4959697509061083260029282613b57565b90549060031b1c8093520160205291859493876107ec565b60248360118a7f4e487b7100000000000000000000000000000000000000000000000000000000835252fd5b90935085018581116108a45761088c9084613b57565b90549060031b1c8082526002840160205292886107e5565b60248260118a7f4e487b7100000000000000000000000000000000000000000000000000000000835252fd5b60248360118b7f4e487b7100000000000000000000000000000000000000000000000000000000835252fd5b9050346103935760207ffffffffffffffffffffffffffffffffffffffffffffffffffffffffffffffffc36011261039357803567ffffffffffffffff81116104335761094a913691016129db565b61095681949294614e69565b9261096383519485612f7f565b8184527fffffffffffffffffffffffffffffffffffffffffffffffffffffffffffffffe061099083614e69565b013660208601375b8181106109ac578251806102c48682612dde565b806109c46109be6109ec938589614dee565b35615624565b73ffffffffffffffffffffffffffffffffffffffff6109e38388614f8c565b91169052614dc1565b610998565b8391503461043357817ffffffffffffffffffffffffffffffffffffffffffffffffffffffffffffffffc360112610433576020926103859135815260158452826024359120613b57565b905082346104335760807ffffffffffffffffffffffffffffffffffffffffffffffffffffffffffffffffc36011261043357610a75612aa3565b90610a7e612ac6565b604435906064359467ffffffffffffffff8611610b095736602387011215610b095785013593610ab9610ab086612fc0565b94519485612f7f565b84845286366024878901011161031d57602086610b01976024610b069a018389013786010152610af1610aec84336133ba565b6132a3565b610afc8383836134c0565b613a2e565b61332e565b80f35b8680fd5b8284346103935760207ffffffffffffffffffffffffffffffffffffffffffffffffffffffffffffffffc36011261039357610b71816102c49373ffffffffffffffffffffffffffffffffffffffff610b63612aa3565b168152601660205220614fa0565b9051918291602083526020830190612a11565b9050823461043357602091827ffffffffffffffffffffffffffffffffffffffffffffffffffffffffffffffffc360112610652573583526017825280832092835490610bcf82614ec9565b946002810190825b848110610bf0578551878152806102c4818a018b612a11565b80610bfe610c159284613b57565b90549060031b1c808652848952610312828b614f8c565b610bd7565b9050823461043357807ffffffffffffffffffffffffffffffffffffffffffffffffffffffffffffffffc36011261043357610c53612aa3565b906024359182151580930361064e5773ffffffffffffffffffffffffffffffffffffffff1692833314610ced575033845260056020528084208385526020528084207fffffffffffffffffffffffffffffffffffffffffffffffffffffffffffffff0081541660ff8416179055519081527f17307eab39ab6107e8899845ad3d59bd9653f200f220920489ca2b5937696c3160203392a380f35b602060649251917f08c379a0000000000000000000000000000000000000000000000000000000008352820152601960248201527f4552433732313a20617070726f766520746f2063616c6c6572000000000000006044820152fd5b82843461039357602090817ffffffffffffffffffffffffffffffffffffffffffffffffffffffffffffffffc3601126104335773ffffffffffffffffffffffffffffffffffffffff610d99612aa3565b1683526012825280832092835490610db082614ec9565b946002810190825b848110610dd1578551878152806102c4818a018b612a11565b80610bfe610ddf9284613b57565b610db8565b82843461039357817ffffffffffffffffffffffffffffffffffffffffffffffffffffffffffffffffc36011261039357805190826001805491610e268361313f565b80865292828116908115610eab5750600114610e4f575b50505061072d826102c4940383612f7f565b94508085527fb10e2d527612073b26eecdfd717e6a320cf44b4afac2b0732d9fcbe2b7fa0cf65b828610610e935750505061072d8260206102c49582010194610e3d565b80546020878701810191909152909501948101610e76565b6102c497508693506020925061072d9491507fffffffffffffffffffffffffffffffffffffffffffffffffffffffffffffff001682840152151560051b82010194610e3d565b9050823461043357602091827ffffffffffffffffffffffffffffffffffffffffffffffffffffffffffffffffc3601126106525780359067ffffffffffffffff821161064e57610f43913691016129db565b93610f4d85614ec9565b94815b818110610f69578451868152806102c48189018a612a11565b80610f78610f8d928487614dee565b3584526017875285842054610312828a614f8c565b610f50565b83833461031d5760207ffffffffffffffffffffffffffffffffffffffffffffffffffffffffffffffffc36011261031d5750610fd16102c492356151ca565b9051918291602083526020830190612c0d565b839150346104335760207ffffffffffffffffffffffffffffffffffffffffffffffffffffffffffffffffc360112610433576020928291358152600e845220549051908152f35b839150346104335760207ffffffffffffffffffffffffffffffffffffffffffffffffffffffffffffffffc36011261043357816102c493610b7192358152601560205220614fa0565b839150346104335760207ffffffffffffffffffffffffffffffffffffffffffffffffffffffffffffffffc360112610433576020928291358152600b845220549051908152f35b8284346103935760209061049d6110d136612e5d565b93929092613d54565b8284346103935760207ffffffffffffffffffffffffffffffffffffffffffffffffffffffffffffffffc3601126103935760209061049d611119612aa3565b612ffa565b83833461031d5760207ffffffffffffffffffffffffffffffffffffffffffffffffffffffffffffffffc36011261031d575073ffffffffffffffffffffffffffffffffffffffff61117160209335615624565b915191168152f35b83833461031d5760207ffffffffffffffffffffffffffffffffffffffffffffffffffffffffffffffffc36011261031d575073ffffffffffffffffffffffffffffffffffffffff61117160209335613110565b8284346103935760207ffffffffffffffffffffffffffffffffffffffffffffffffffffffffffffffffc3601126103935760209061049d61120b612aa3565b73ffffffffffffffffffffffffffffffffffffffff16600052601260205260406000205490565b82843461039357807ffffffffffffffffffffffffffffffffffffffffffffffffffffffffffffffffc3601126103935760209061049d611270612aa3565b602435906155e2565b9190503461031d5760207ffffffffffffffffffffffffffffffffffffffffffffffffffffffffffffffffc36011261031d57508035906008548210156112c55760208361038584613b20565b60849060208451917f08c379a0000000000000000000000000000000000000000000000000000000008352820152602c60248201527f455243373231456e756d657261626c653a20676c6f62616c20696e646578206f60448201527f7574206f6620626f756e647300000000000000000000000000000000000000006064820152fd5b828434610393576113689061135c36612e5d565b92849694929192613d54565b91600f5490838552602091601183528386205561138484615465565b5073ffffffffffffffffffffffffffffffffffffffff806113a483613c8e565b168652601283526113c6858588208054828a52600282018752878a2055615586565b506113da816113d484613c8e565b166154e9565b5060c08201906113ea8284613d00565b929050875b83811061158757505050508060e0611408920190613d00565b80939193158015611417578680f35b61155b578335936114288587615688565b60018211611434578680f35b816001101561152f57838101359161144c8388615688565b611472845186810190888252858782015286815261146981612f63565b51902088615688565b6002811161147f57508680f35b6002101561152f57820135906114958287615688565b6114bb83518581019083825284868201528581526114b281612f63565b51902087615688565b825193840194855282840152606083015260608252608082019082821067ffffffffffffffff831117611503576114f89596505251902090615688565b808280808080808680f35b6024866041897f4e487b7100000000000000000000000000000000000000000000000000000000835252fd5b60248760328a7f4e487b7100000000000000000000000000000000000000000000000000000000835252fd5b6024866032897f4e487b7100000000000000000000000000000000000000000000000000000000835252fd5b8061159f6115e6926115998589613d00565b90614dee565b358a52601587526115b289898c20615586565b506115c1816115998589613d00565b358a52600a875283888b2054168a52601687526115e089898c20615586565b50614dc1565b6113ef565b839150346104335760207ffffffffffffffffffffffffffffffffffffffffffffffffffffffffffffffffc3601126104335760209282913581526017845220549051908152f35b905034610393576020807ffffffffffffffffffffffffffffffffffffffffffffffffffffffffffffffffc360112610433578135611673610aec82336133ba565b61167c81613110565b73ffffffffffffffffffffffffffffffffffffffff908181169081158081159182611b3f575b15611abd5715611a1057505050600854828652600984528087872055680100000000000000008110156119e4576117186116e3826001869401600855613b20565b81939154907fffffffffffffffffffffffffffffffffffffffffffffffffffffffffffffffff9060031b92831b921b19161790565b90555b600854907fffffffffffffffffffffffffffffffffffffffffffffffffffffffffffffffff918281019081116119b8578387526009855261175f8888205491613b20565b90549060031b1c806117736116e384613b20565b9055875260098552878720558286528587812055600854801561198c5795828694928299947f766269423061476c7a4947356c64486476636d7375496e30000000000000000099016117c481613b20565b8482549160031b1b191690556008556117dc84613110565b90848452868852858420917fffffffffffffffffffffffff000000000000000000000000000000000000000092838154169055169182845260038852858420908154019055838352600287528483209081541690557fddf252ad1be2c89b69c2b068fc378daa952ba7f163c4a11628f55a4df523b3ef8280a4600a83528581812091600d8552812061186e815461313f565b80611950575b50505001611882815461313f565b601f811161192f575b506101318155845283207f646174613a6170706c69636174696f6e2f6a736f6e3b6261736536342c65794a81557f755957316c496a6f67496c526f61584d67644739725a57346761584d67596e5660018201557f79626d566b4c694973496d526c63324e796158423061573975496a6f67496c5260028201557f766132567549476c7a494735766443426a623278735a574e3061574a735a53426003820155015580f35b61194a908287526005601f8589209201811c82019101614e0b565b3861188b565b82601f8211600114611968575050555b853880611874565b9091808252611985601f888420940160051c840160018501614e0b565b5555611960565b6024876031887f4e487b7100000000000000000000000000000000000000000000000000000000835252fd5b6024876011887f4e487b7100000000000000000000000000000000000000000000000000000000835252fd5b6024866041877f4e487b7100000000000000000000000000000000000000000000000000000000835252fd5b611a1c575b505061171b565b611a2590612ffa565b907fffffffffffffffffffffffffffffffffffffffffffffffffffffffffffffffff82019182116119b8578387526007855287872054828103611a86575b508387528688812055865260068452868620908652835284868120553880611a15565b8188526006865288882083895286528888205482895260068752898920828a528752808a8a20558852600786528888205538611a63565b608488888c51917f08c379a0000000000000000000000000000000000000000000000000000000008352820152602660248201527f746f6b656e732063616e6e6f74206265207472616e736665726564206f6e207460448201527f6573746e657400000000000000000000000000000000000000000000000000006064820152fd5b5060016116a2565b82843461039357610b01610b0691611b5e36612b79565b91925192611b6b84612f47565b868452610af1610aec84336133ba565b50503461031d57807ffffffffffffffffffffffffffffffffffffffffffffffffffffffffffffffffc36011261031d578151918291601354808552602080950194601383527f66de8ffda797e3de9c05e8fc57b3bf0ec28a930d40b0d285d93c06501cf6a09092905b828210611c06576102c48686611bfc828b0383612f7f565b5191829182612dde565b835487529586019560019384019390910190611be4565b83833461031d57602091827ffffffffffffffffffffffffffffffffffffffffffffffffffffffffffffffffc3601126103935781829185358452601193848652818120549485159687158098611e1e575b15611dc257611c7f87600f54614dfe565b977fffffffffffffffffffffffffffffffffffffffffffffffffffffffffffffffff90818a01998a11611d9757611d43575b5087611ce2575b505050906102c4929151948594859094939260609260808301968352602083015260408201520152565b90919294506001860197888711611d185750611d026102c4969798613aba565b90549060031b1c80935252918594938780611cb8565b83836024927f4e487b7100000000000000000000000000000000000000000000000000000000835252fd5b9094508601868111611d6c57611d5890613aba565b90549060031b1c8083528185529389611cb1565b602483838b7f4e487b7100000000000000000000000000000000000000000000000000000000835252fd5b602485858d7f4e487b7100000000000000000000000000000000000000000000000000000000835252fd5b886064918551917f08c379a0000000000000000000000000000000000000000000000000000000008352820152601e60248201527f456e756d657261626c654d61703a206e6f6e6578697374656e74206b657900006044820152fd5b5060108152838320541515611c6e565b8284346103935760209061049d611e4436612bd9565b9061566f565b9050346103935760207ffffffffffffffffffffffffffffffffffffffffffffffffffffffffffffffffc36011261039357803567ffffffffffffffff811161043357611e98913691016129db565b611ea181614ec9565b925b818110611ebf578451602080825281906102c490820187612a11565b8061042461120b611ed4611ed9948688614dee565b613c8e565b611ea3565b83833461031d57817ffffffffffffffffffffffffffffffffffffffffffffffffffffffffffffffffc36011261031d57611f16612aa3565b60243590611f2381612ffa565b821015611f5e57602092849273ffffffffffffffffffffffffffffffffffffffff849316825260068552828220908252845220549051908152f35b60848560208651917f08c379a0000000000000000000000000000000000000000000000000000000008352820152602b60248201527f455243373231456e756d657261626c653a206f776e657220696e646578206f7560448201527f74206f6620626f756e64730000000000000000000000000000000000000000006064820152fd5b839150346104335760207ffffffffffffffffffffffffffffffffffffffffffffffffffffffffffffffffc3601126104335760209282913581526015845220549051908152f35b9050346103935760207ffffffffffffffffffffffffffffffffffffffffffffffffffffffffffffffffc36011261039357803567ffffffffffffffff811161043357612076913691016129db565b61207f81614ec9565b925b81811061209d578451602080825281906102c490820187612a11565b80610424610476611ed46120b2948688614dee565b612081565b9050823461043357602091827ffffffffffffffffffffffffffffffffffffffffffffffffffffffffffffffffc3601126106525780359067ffffffffffffffff821161064e5761210c919493943691016129db565b919061211783614e69565b61212383519182612f7f565b8381527fffffffffffffffffffffffffffffffffffffffffffffffffffffffffffffffe061215085614e69565b01855b81811061229957505061216584614ec9565b61216e85614f18565b9261217886614f18565b95875b81811061223b5750505083519687966080880160808952845180915260a089018360a08360051b8c0101960192905b8282106121e8578a8703858c01528a806102c48c6121da8d8d6121cd8e8e612a11565b9186830390870152612d64565b908382036060850152612d64565b919380612226887fffffffffffffffffffffffffffffffffffffffffffffffffffffffffffffff60600195979b9c9d9e849a9b030186528a51612c66565b9801920192018a9998979695949391926121aa565b8061226b818a61226061225a9d9e98999a9b9c9d61228c96888a614dee565b35614fef565b929591949093614f8c565b52612276848c614f8c565b526122818389614f8c565b526103128289614f8c565b989796959493929861217b565b96809293949596976122a9614e81565b8282870101520196959493929196612153565b83833461031d576122cc36612bd9565b9282908392845260176020526107a781852095866153bf565b83833461031d5760207ffffffffffffffffffffffffffffffffffffffffffffffffffffffffffffffffc36011261031d575061049d602092356153a3565b823461031d57610b0661233536612b79565b91612343610aec84336133ba565b6134c0565b82843461039357817ffffffffffffffffffffffffffffffffffffffffffffffffffffffffffffffffc360112610393576020906013549051908152f35b82843461039357817ffffffffffffffffffffffffffffffffffffffffffffffffffffffffffffffffc360112610393576020906008549051908152f35b9190503461031d57827ffffffffffffffffffffffffffffffffffffffffffffffffffffffffffffffffc36011261031d5781359160243567ffffffffffffffff811161043357612414913691016129db565b92909161242084614ec9565b93815b81811061243f578651602080825281906102c490820189612a11565b80610301612451612462938589614dee565b358686526015602052898620613b57565b612423565b50503461031d5761247736612b0a565b61248381939293614ec9565b935b8181106124a1578551602080825281906102c490820188612a11565b806124ba6124b36124c4938588614dee565b35856155e2565b6103128288614f8c565b612485565b82843461039357817ffffffffffffffffffffffffffffffffffffffffffffffffffffffffffffffffc3601126103935760209051428152f35b8391503461043357817ffffffffffffffffffffffffffffffffffffffffffffffffffffffffffffffffc3601126104335761253b612aa3565b906024359273ffffffffffffffffffffffffffffffffffffffff91828061256187613110565b1694169380851461267f57803314908115612660575b50156125de578486526020528420827fffffffffffffffffffffffff00000000000000000000000000000000000000008254161790556125b683613110565b167f8c5be1e5ebec7d5bd14f71427d1e84f3dd0314c0f7b2291e5b200ac8c7c3b9258480a480f35b602060849251917f08c379a0000000000000000000000000000000000000000000000000000000008352820152603d60248201527f4552433732313a20617070726f76652063616c6c6572206973206e6f7420746f60448201527f6b656e206f776e6572206f7220617070726f76656420666f7220616c6c0000006064820152fd5b90508652600560205281862033875260205260ff828720541687612577565b50602060849251917f08c379a0000000000000000000000000000000000000000000000000000000008352820152602160248201527f4552433732313a20617070726f76616c20746f2063757272656e74206f776e6560448201527f72000000000000000000000000000000000000000000000000000000000000006064820152fd5b83833461031d5760207ffffffffffffffffffffffffffffffffffffffffffffffffffffffffffffffffc36011261031d575073ffffffffffffffffffffffffffffffffffffffff61117160209335613247565b82843461039357817ffffffffffffffffffffffffffffffffffffffffffffffffffffffffffffffffc360112610393578051908280546127948161313f565b80855291600191808316908115610eab57506001146127bf5750505061072d826102c4940383612f7f565b80809650527f290decd9548b62a8d60345a988386fc84ba6bc95484008f6362f93160ef3e5635b8286106128035750505061072d8260206102c49582010194610e3d565b805460208787018101919091529095019481016127e6565b839150346104335760207ffffffffffffffffffffffffffffffffffffffffffffffffffffffffffffffffc3601126104335735907fffffffff00000000000000000000000000000000000000000000000000000000821680920361043357602092507f780e9d630000000000000000000000000000000000000000000000000000000082149182156128b1575b50519015158152f35b9091507f80ac58cd000000000000000000000000000000000000000000000000000000008114908115612918575b81156128ee575b5090836128a8565b7f01ffc9a700000000000000000000000000000000000000000000000000000000915014836128e6565b7f5b5e139f00000000000000000000000000000000000000000000000000000000811491506128df565b90503461039357827ffffffffffffffffffffffffffffffffffffffffffffffffffffffffffffffffc3601126103935780359060243567ffffffffffffffff811161065257612993913691016129db565b61299f81939293614ec9565b935b8181106129bd578551602080825281906102c490820188612a11565b806124ba6129cf6129d6938588614dee565b358561566f565b6129a1565b9181601f84011215612a0c5782359167ffffffffffffffff8311612a0c576020808501948460051b010111612a0c57565b600080fd5b90815180825260208080930193019160005b828110612a31575050505090565b835185529381019392810192600101612a23565b919082519283825260005b848110612a8f5750507fffffffffffffffffffffffffffffffffffffffffffffffffffffffffffffffe0601f8460006020809697860101520116010190565b602081830181015184830182015201612a50565b6004359073ffffffffffffffffffffffffffffffffffffffff82168203612a0c57565b6024359073ffffffffffffffffffffffffffffffffffffffff82168203612a0c57565b359073ffffffffffffffffffffffffffffffffffffffff82168203612a0c57565b9060407ffffffffffffffffffffffffffffffffffffffffffffffffffffffffffffffffc830112612a0c5760043573ffffffffffffffffffffffffffffffffffffffff81168103612a0c57916024359067ffffffffffffffff8211612a0c57612b75916004016129db565b9091565b7ffffffffffffffffffffffffffffffffffffffffffffffffffffffffffffffffc6060910112612a0c5773ffffffffffffffffffffffffffffffffffffffff906004358281168103612a0c57916024359081168103612a0c579060443590565b7ffffffffffffffffffffffffffffffffffffffffffffffffffffffffffffffffc6040910112612a0c576004359060243590565b90815180825260208080930193019160005b828110612c2d575050505090565b8351805173ffffffffffffffffffffffffffffffffffffffff16865282015161ffff168583015260409094019392810192600101612c1f565b919073ffffffffffffffffffffffffffffffffffffffff835116815260209283810151848301526040810151604083015260608101516060830152612ccf612cbd6080830151610120806080870152850190612a45565b60a083015184820360a0860152612a45565b9160c08201519281810360c083015285808551928381520194019060005b87828210612d50575050505060e08201519281810360e083015285808551928381520194019060005b818110612d3c57505050612d399394506101008092015191818403910152612c0d565b90565b825186529487019491870191600101612d16565b835187529586019590920191600101612ced565b908082519081815260208091019281808460051b8301019501936000915b848310612d925750505050505090565b9091929394958480612dce837fffffffffffffffffffffffffffffffffffffffffffffffffffffffffffffffe086600196030187528a51612a45565b9801930193019194939290612d82565b6020908160408183019282815285518094520193019160005b828110612e05575050505090565b835173ffffffffffffffffffffffffffffffffffffffff1685529381019392810192600101612df7565b9181601f84011215612a0c5782359167ffffffffffffffff8311612a0c5760208381860195010111612a0c57565b7ffffffffffffffffffffffffffffffffffffffffffffffffffffffffffffffffc90606082820112612a0c5760043567ffffffffffffffff92838211612a0c57610120908284030112612a0c5760040192602435838111612a0c5782612ec591600401612e2f565b93909392604435918211612a0c57612b7591600401612e2f565b610120810190811067ffffffffffffffff821117612efc57604052565b7f4e487b7100000000000000000000000000000000000000000000000000000000600052604160045260246000fd5b6040810190811067ffffffffffffffff821117612efc57604052565b6020810190811067ffffffffffffffff821117612efc57604052565b6060810190811067ffffffffffffffff821117612efc57604052565b90601f7fffffffffffffffffffffffffffffffffffffffffffffffffffffffffffffffe0910116810190811067ffffffffffffffff821117612efc57604052565b67ffffffffffffffff8111612efc57601f017fffffffffffffffffffffffffffffffffffffffffffffffffffffffffffffffe01660200190565b73ffffffffffffffffffffffffffffffffffffffff16801561302757600052600360205260406000205490565b60846040517f08c379a000000000000000000000000000000000000000000000000000000000815260206004820152602960248201527f4552433732313a2061646472657373207a65726f206973206e6f74206120766160448201527f6c6964206f776e657200000000000000000000000000000000000000000000006064820152fd5b156130b257565b60646040517f08c379a000000000000000000000000000000000000000000000000000000000815260206004820152601860248201527f4552433732313a20696e76616c696420746f6b656e20494400000000000000006044820152fd5b600052600260205273ffffffffffffffffffffffffffffffffffffffff60406000205416612d398115156130ab565b90600182811c92168015613188575b602083101461315957565b7f4e487b7100000000000000000000000000000000000000000000000000000000600052602260045260246000fd5b91607f169161314e565b90600092918054916131a38361313f565b91828252600193848116908160001461320557506001146131c5575b50505050565b90919394506000526020928360002092846000945b8386106131f15750505050010190388080806131bf565b8054858701830152940193859082016131da565b91505060209495507fffffffffffffffffffffffffffffffffffffffffffffffffffffffffffffff009193501683830152151560051b010190388080806131bf565b61327c61327782600052600260205273ffffffffffffffffffffffffffffffffffffffff60406000205416151590565b6130ab565b600052600460205273ffffffffffffffffffffffffffffffffffffffff6040600020541690565b156132aa57565b60846040517f08c379a000000000000000000000000000000000000000000000000000000000815260206004820152602d60248201527f4552433732313a2063616c6c6572206973206e6f7420746f6b656e206f776e6560448201527f72206f7220617070726f766564000000000000000000000000000000000000006064820152fd5b1561333557565b6040517f08c379a000000000000000000000000000000000000000000000000000000000815260206004820152603260248201527f4552433732313a207472616e7366657220746f206e6f6e20455243373231526560448201527f63656976657220696d706c656d656e74657200000000000000000000000000006064820152608490fd5b9073ffffffffffffffffffffffffffffffffffffffff80806133db84613110565b1693169183831493841561340e575b5083156133f8575b50505090565b61340491929350613247565b16143880806133f2565b909350600052600560205260406000208260005260205260ff6040600020541692386133ea565b1561343c57565b60846040517f08c379a000000000000000000000000000000000000000000000000000000000815260206004820152602560248201527f4552433732313a207472616e736665722066726f6d20696e636f72726563742060448201527f6f776e65720000000000000000000000000000000000000000000000000000006064820152fd5b6134f1916134cd84613110565b73ffffffffffffffffffffffffffffffffffffffff93848416939185168414613435565b8382169384156137cd578315918280156137c5575b156137415784921561365157509050600854908560005260096020528160406000205568010000000000000000821015612efc5761356f92866135536116e3856001899701600855613b20565b90555b82860361361e575b5061356886613110565b1614613435565b7fddf252ad1be2c89b69c2b068fc378daa952ba7f163c4a11628f55a4df523b3ef60008481526004602052604081207fffffffffffffffffffffffff0000000000000000000000000000000000000000908181541690558382526003602052604082207fffffffffffffffffffffffffffffffffffffffffffffffffffffffffffffffff81540190558482526040822060018154019055858252600260205284604083209182541617905580a4565b61362790612ffa565b6040600087815260066020528181208382526020528882822055888152600760205220553861355e565b858303613663575b5061356f92613556565b61366e919250612ffa565b907fffffffffffffffffffffffffffffffffffffffffffffffffffffffffffffffff82019182116137125761356f92849260009088825260209060078252604091828420548281036136db575b508a84528383812055868452600681528284209184525281205592613659565b87855260068252838520838652825283852054888652600683528486208287528352808587205585526007825283852055386136bb565b7f4e487b7100000000000000000000000000000000000000000000000000000000600052601160045260246000fd5b60846040517f08c379a000000000000000000000000000000000000000000000000000000000815260206004820152602660248201527f746f6b656e732063616e6e6f74206265207472616e736665726564206f6e207460448201527f6573746e657400000000000000000000000000000000000000000000000000006064820152fd5b506000613506565b60846040517f08c379a0000000000000000000000000000000000000000000000000000000008152602060048201526024808201527f4552433732313a207472616e7366657220746f20746865207a65726f2061646460448201527f72657373000000000000000000000000000000000000000000000000000000006064820152fd5b9192600092909190803b15613a24576138cc9460405180927f150b7a020000000000000000000000000000000000000000000000000000000094858352336004840152876024840152604483015260806064830152818773ffffffffffffffffffffffffffffffffffffffff8260209b8c976084830190612a45565b0393165af18491816139cc575b506139a3575050503d60001461399b573d6138f381612fc0565b906139016040519283612f7f565b81528091833d92013e5b80519182613998576040517f08c379a000000000000000000000000000000000000000000000000000000000815260206004820152603260248201527f4552433732313a207472616e7366657220746f206e6f6e20455243373231526560448201527f63656976657220696d706c656d656e74657200000000000000000000000000006064820152608490fd5b01fd5b50606061390b565b7fffffffff00000000000000000000000000000000000000000000000000000000161492509050565b9091508581813d8311613a1d575b6139e48183612f7f565b8101031261064e57517fffffffff000000000000000000000000000000000000000000000000000000008116810361064e5790386138d9565b503d6139da565b5050915050600190565b9293600093909291803b15613aaf579484916138cc96604051809481937f150b7a02000000000000000000000000000000000000000000000000000000009788845233600485015273ffffffffffffffffffffffffffffffffffffffff80921660248501526044840152608060648401528260209b8c976084830190612a45565b505050915050600190565b600f54811015613af157600f6000527f8d1108e10bcb7c27dddfc02ed9d693a074039d026cf4ea4240b40f7d581ac8020190600090565b7f4e487b7100000000000000000000000000000000000000000000000000000000600052603260045260246000fd5b600854811015613af15760086000527ff3f7a9fe364faab93b216da50a3214154f22a0a2b415b23a84c8169e8b636ee30190600090565b8054821015613af15760005260206000200190600090565b90357fffffffffffffffffffffffffffffffffffffffffffffffffffffffffffffffe182360301811215612a0c57016020813591019167ffffffffffffffff8211612a0c578136038313612a0c57565b601f82602094937fffffffffffffffffffffffffffffffffffffffffffffffffffffffffffffffe0938186528686013760008582860101520116010190565b90357fffffffffffffffffffffffffffffffffffffffffffffffffffffffffffffffe182360301811215612a0c57016020813591019167ffffffffffffffff8211612a0c578160051b36038313612a0c57565b90918281527f07ffffffffffffffffffffffffffffffffffffffffffffffffffffffffffffff8311612a0c5760209260051b809284830137010190565b3573ffffffffffffffffffffffffffffffffffffffff81168103612a0c5790565b9035907fffffffffffffffffffffffffffffffffffffffffffffffffffffffffffffffe181360301821215612a0c570180359067ffffffffffffffff8211612a0c57602001918136038313612a0c57565b9035907fffffffffffffffffffffffffffffffffffffffffffffffffffffffffffffffe181360301821215612a0c570180359067ffffffffffffffff8211612a0c57602001918160051b36038313612a0c57565b9390949273ffffffffffffffffffffffffffffffffffffffff6018541691604051927fbefe566a0000000000000000000000000000000000000000000000000000000084526040600485015273ffffffffffffffffffffffffffffffffffffffff613dbe88612ae9565b1660448501526020870135606485015260408701356084850152606087013560a4850152613ec7613e89613e4b613e0e613dfb60808c018c613b6f565b61012060c48b01526101648a0191613bbf565b613e1b60a08c018c613b6f565b907fffffffffffffffffffffffffffffffffffffffffffffffffffffffffffffffbc8a84030160e48b0152613bbf565b613e5860c08b018b613bfe565b907fffffffffffffffffffffffffffffffffffffffffffffffffffffffffffffffbc898403016101048a0152613c51565b613e9660e08a018a613bfe565b907fffffffffffffffffffffffffffffffffffffffffffffffffffffffffffffffbc88840301610124890152613c51565b7fffffffffffffffffffffffffffffffffffffffffffffffffffffffffffffffe1883603016101008901351215612a0c5767ffffffffffffffff88610100810135013511612a0c576101008801358801803560061b3603602090910113612a0c5785916020827fffffffffffffffffffffffffffffffffffffffffffffffffffffffffffffffbc88809503016101448501528a61010081013501358152018a60208b610100810135010160005b8c61010081013501358110614d06575050613fbf826020968694937ffffffffffffffffffffffffffffffffffffffffffffffffffffffffffffffffc86809603016024860152613bbf565b03915afa928315614cfa57600093614cc6575b50829583600052600e60205242604060002055613fee81613c8e565b60405190613ffb82612f47565b6000825273ffffffffffffffffffffffffffffffffffffffff811615614c685761405161404b87600052600260205273ffffffffffffffffffffffffffffffffffffffff60406000205416151590565b15614d5c565b600854918660005260096020528260406000205568010000000000000000831015612efc5786610b0192816140926116e38760016141c89901600855613b20565b905561409d81612ffa565b73ffffffffffffffffffffffffffffffffffffffff821660005260066020526040600020816000526020528260406000205582600052600760205260406000205561410e61404b83600052600260205273ffffffffffffffffffffffffffffffffffffffff60406000205416151590565b73ffffffffffffffffffffffffffffffffffffffff81166000526003602052604060002060018154019055816000526002602052604060002073ffffffffffffffffffffffffffffffffffffffff82167fffffffffffffffffffffffff00000000000000000000000000000000000000008254161790558173ffffffffffffffffffffffffffffffffffffffff821660007fddf252ad1be2c89b69c2b068fc378daa952ba7f163c4a11628f55a4df523b3ef8180a4613850565b6141d56080820182613caf565b6141f960206040518381948383019687378101600083820152038084520182612f7f565b51902080600052600b602052604060002054614be457600052600b6020528360406000205583600052600a602052604060002073ffffffffffffffffffffffffffffffffffffffff61424a83613c8e565b167fffffffffffffffffffffffff000000000000000000000000000000000000000082541617815560208201356001820155604082013560028201556060820135600382015561429d6080830183613caf565b9067ffffffffffffffff8211612efc5781906142c9826142c0600487015461313f565b60048701614e22565b600090601f8311600114614b1e57600092614b13575b50507fffffffffffffffffffffffffffffffffffffffffffffffffffffffffffffffff8260011b9260031b1c19161760048201555b61432160a0830183613caf565b9067ffffffffffffffff8211612efc57819061434d82614344600587015461313f565b60058701614e22565b600090601f8311600114614a4d57600092614a42575b50507fffffffffffffffffffffffffffffffffffffffffffffffffffffffffffffffff8260011b9260031b1c19161760058201555b6143a560c0830183613d00565b9067ffffffffffffffff8211612efc57680100000000000000008211612efc576006830154826006850155808310614a21575b5060068301600052602060002060005b838110614a0d575050505061440060e0830183613d00565b9067ffffffffffffffff8211612efc57680100000000000000008211612efc5760078301548260078501558083106149e0575b5060078301600052602060002060005b8381106149cc5750505050610100820135820167ffffffffffffffff813511612a0c57803560061b36036020820113612a0c5768010000000000000000813511612efc576008820154813560088401558082351061499e575b5060086020820192016000526020600020916000905b8235821061491557505050506144c781613c8e565b6144d460a0830183613caf565b9081604051928392833781016000815203902090857f0b85051017293732c5b533b177efc66475411a9fdd5fbc8ecb619906658413d6606073ffffffffffffffffffffffffffffffffffffffff6040519460208801358652604088013560208701528288013560408701521693a461454f60c0820182613d00565b905060005b8181106148cf5750508060e061456b920190613d00565b6003811161484b5780156000816148435750613af1578135915b6000600183111561483d57508160011015613af1576020810135915b60006002821115614834575060021015613af15760400135915b7fb237134d29775150b1edf87af1dc343262244af7cbb474cfc64cb6e8824af6636020604051888152a482600052600c60205260406000209167ffffffffffffffff8211612efc57819061461982614613865461313f565b86614e22565b600090601f831160011461479257600092614787575b50507fffffffffffffffffffffffffffffffffffffffffffffffffffffffffffffffff8260011b9260031b1c19161790555b600052600d60205260406000209067ffffffffffffffff8111612efc576146928161468c845461313f565b84614e22565b6000601f82116001146146ea5781929394956000926146df575b50507fffffffffffffffffffffffffffffffffffffffffffffffffffffffffffffffff8260011b9260031b1c1916179055565b0135905038806146ac565b7fffffffffffffffffffffffffffffffffffffffffffffffffffffffffffffffe08216958382526020822091805b88811061476f57508360019596979810614737575b505050811b019055565b7fffffffffffffffffffffffffffffffffffffffffffffffffffffffffffffffff60f88560031b161c1991013516905538808061472d565b90926020600181928686013581550194019101614718565b01359050388061462f565b90917fffffffffffffffffffffffffffffffffffffffffffffffffffffffffffffffe016918481526020812092815b81811061481c57509084600195949392106147e4575b505050811b019055614661565b7fffffffffffffffffffffffffffffffffffffffffffffffffffffffffffffffff60f88560031b161c199101351690553880806147d7565b919360206001819287870135815501950192016147c1565b915050916145bb565b916145a1565b905091614585565b60846040517f08c379a000000000000000000000000000000000000000000000000000000000815260206004820152603860248201527f4461746153746f726167653a2074616773206c656e677468206d75737420626560448201527f206c657373207468616e206f7220657175616c20746f203300000000000000006064820152fd5b806148e46149109261159960c0870187613d00565b35877f65327253f8d67c2e23cb4dfab28ca7437b04e9098cf4e985073d76df25209ad4600080a3614dc1565b614554565b73ffffffffffffffffffffffffffffffffffffffff61493382613c8e565b1684549160208101359061ffff82168203612a0c5760019384937fffffffffffffffffffff0000000000000000000000000000000000000000000075ffff000000000000000000000000000000000000000060409560a01b16921617178755019401910190926144b2565b60088301600052602060002090823582015b81830181106149c057505061449c565b600081556001016149b0565b600190602084359401938184015501614443565b600784016000526020600020908382015b8183018110614a01575050614433565b600081556001016149f1565b6001906020843594019381840155016143e8565b614a3c90600685016000528360206000209182019101614e0b565b386143d8565b013590503880614363565b60058501825260208220919350835b7fffffffffffffffffffffffffffffffffffffffffffffffffffffffffffffffe084168510614afb5760019450837fffffffffffffffffffffffffffffffffffffffffffffffffffffffffffffffe0811610614ac3575b505050811b016005820155614398565b7fffffffffffffffffffffffffffffffffffffffffffffffffffffffffffffffff60f88560031b161c19910135169055388080614ab3565b81810135835560209485019460019093019201614a5c565b0135905038806142df565b60048501825260208220919350835b7fffffffffffffffffffffffffffffffffffffffffffffffffffffffffffffffe084168510614bcc5760019450837fffffffffffffffffffffffffffffffffffffffffffffffffffffffffffffffe0811610614b94575b505050811b016004820155614314565b7fffffffffffffffffffffffffffffffffffffffffffffffffffffffffffffffff60f88560031b161c19910135169055388080614b84565b81810135835560209485019460019093019201614b2d565b60846040517f08c379a000000000000000000000000000000000000000000000000000000000815260206004820152602360248201527f4461746153746f726167653a20757269207265676973746572656420616c726560448201527f61647900000000000000000000000000000000000000000000000000000000006064820152fd5b60646040517f08c379a000000000000000000000000000000000000000000000000000000000815260206004820152602060248201527f4552433732313a206d696e7420746f20746865207a65726f20616464726573736044820152fd5b90926020823d602011614cf2575b81614ce160209383612f7f565b8101031261031d5750519138613fd2565b3d9150614cd4565b6040513d6000823e3d90fd5b93955093505073ffffffffffffffffffffffffffffffffffffffff614d2a84612ae9565b16815260208301359061ffff8216809203612a0c576040816001936020839401520193019101918a8894928894613f74565b15614d6357565b60646040517f08c379a000000000000000000000000000000000000000000000000000000000815260206004820152601c60248201527f4552433732313a20746f6b656e20616c7265616479206d696e746564000000006044820152fd5b7fffffffffffffffffffffffffffffffffffffffffffffffffffffffffffffffff81146137125760010190565b9190811015613af15760051b0190565b9190820391821161371257565b818110614e16575050565b60008155600101614e0b565b9190601f8111614e3157505050565b614e5d926000526020600020906020601f840160051c83019310614e5f575b601f0160051c0190614e0b565b565b9091508190614e50565b67ffffffffffffffff8111612efc5760051b60200190565b60405190614e8e82612edf565b816000815260006020820152600060408201526101006060916000838201528260808201528260a08201528260c08201528260e08201520152565b90614ed382614e69565b614ee06040519182612f7f565b8281527fffffffffffffffffffffffffffffffffffffffffffffffffffffffffffffffe0614f0e8294614e69565b0190602036910137565b90614f2282614e69565b614f2f6040519182612f7f565b8281527fffffffffffffffffffffffffffffffffffffffffffffffffffffffffffffffe0614f5d8294614e69565b019060005b828110614f6e57505050565b806060602080938501015201614f62565b805115613af15760200190565b8051821015613af15760209160051b010190565b9060405191828154918282526020928383019160005283600020936000905b828210614fd557505050614e5d92500383612f7f565b855484526001958601958895509381019390910190614fbf565b90614ff8614e81565b506060600091838352602092600a845260409081812094825161501a81612edf565b73ffffffffffffffffffffffffffffffffffffffff9687815416825260018082015484840152600282015498868401998a52600383015489850152865161506f816150688160048801613192565b0382612f7f565b608085015286519261508f846150888160058501613192565b0385612f7f565b60a0938486015260068101885190818882549182815201918a52888a20908a5b878b8383106151b8575050505050906150cd81600894930382612f7f565b60c08701526150de60078201614fa0565b60e0870152018054916150f083614e69565b946150fd8a519687612f7f565b8386528786019289528789209189935b8b8a87871061518b5750505050505050505061010082015296808352600e8252838320549651421015615157575b9282600c829361506896612d3996525220905192838092613192565b94509180612d3992600c85600d615068975261506861517d858520865192838092613192565b98935093955050925061513b565b889283925161519981612f2b565b61ffff88548781168352881c168382015281520194019401939261510d565b845486529094019392830192016150af565b6000908152602091600a8352604091828120928051936151e985612edf565b73ffffffffffffffffffffffffffffffffffffffff8082541686526001918281015488880152600281015484880152600381015460608801528351615235816150688160048601613192565b608088015283519061524e826107268160058501613192565b60a08881019290925284516006820180548083529088528a88208b83019189888e5b83831061538f5750505050509061528c81600894930382612f7f565b60c08a015261529d60078201614fa0565b60e08a0152018054906152af82614e69565b926152bc87519485612f7f565b8284529087528987208791868c86015b8d86861061536157505050505050508061010088015280511560001461535657508251936152f985612f2b565b828552805b888110615335575050956153329495968497511692519261531e84612f2b565b835282015261532c82614f7f565b52614f7f565b50565b8890855161534281612f2b565b8381528383820152828289010152016152fe565b955050505050915090565b82918b5161536e81612f2b565b61ffff87548c81168352871c168382015281520193019301929187906152cc565b84548652909401939283019201888e615270565b6153ac90613aba565b90549060031b1c80600052601160205290565b816000526002810160205260406000205491821591821592615444575b5050156153e65790565b60646040517f08c379a000000000000000000000000000000000000000000000000000000000815260206004820152601e60248201527f456e756d657261626c654d61703a206e6f6e6578697374656e74206b657900006044820152fd5b61545e925060019160005201602052604060002054151590565b38806153dc565b6000818152601060205260408120546154e457600f54680100000000000000008110156154b75790826154a36116e384600160409601600f55613aba565b9055600f5492815260106020522055600190565b6024827f4e487b710000000000000000000000000000000000000000000000000000000081526041600452fd5b905090565b6000818152601460205260408120546154e457601354680100000000000000008110156154b75760018101806013558110156155595790826040927f66de8ffda797e3de9c05e8fc57b3bf0ec28a930d40b0d285d93c06501cf6a090015560135492815260146020522055600190565b6024827f4e487b710000000000000000000000000000000000000000000000000000000081526032600452fd5b60008281526001820160205260409020546155db5780549068010000000000000000821015612efc57826155c46116e3846001809601855584613b57565b905580549260005201602052604060002055600190565b5050600090565b73ffffffffffffffffffffffffffffffffffffffff166000526012602052600261561160406000209283613b57565b90549060031b1c91826000520160205290565b601354811015613af15760136000527f66de8ffda797e3de9c05e8fc57b3bf0ec28a930d40b0d285d93c06501cf6a090015473ffffffffffffffffffffffffffffffffffffffff1690565b6000526017602052600261561160406000209283613b57565b6000828152601760205260408120906156b1838360019160005201602052604060002054151590565b156156bc5750505050565b6156df938152601760205260408082205491848152600284016020522055615586565b50388080806131bf56fea2646970667358221220a0cef03f039d9a982ebda92bbf20a553db91932c621e132044f71272230efdc264736f6c63430008130033",
  "linkReferences": {},
  "deployedLinkReferences": {}
}