{
  "_format": "hh-sol-artifact-1",
  "contractName": "Katibeh721",
  "sourceName": "contracts/katibeh721/Katibeh721.sol",
  "abi": [
    {
      "inputs": [
        {
          "internalType": "address",
          "name": "qvhAddr",
          "type": "address"
        }
      ],
      "stateMutability": "nonpayable",
      "type": "constructor"
    },
    {
      "anonymous": false,
      "inputs": [
        {
          "indexed": true,
          "internalType": "address",
          "name": "owner",
          "type": "address"
        },
        {
          "indexed": true,
          "internalType": "address",
          "name": "approved",
          "type": "address"
        },
        {
          "indexed": true,
          "internalType": "uint256",
          "name": "tokenId",
          "type": "uint256"
        }
      ],
      "name": "Approval",
      "type": "event"
    },
    {
      "anonymous": false,
      "inputs": [
        {
          "indexed": true,
          "internalType": "address",
          "name": "owner",
          "type": "address"
        },
        {
          "indexed": true,
          "internalType": "address",
          "name": "operator",
          "type": "address"
        },
        {
          "indexed": false,
          "internalType": "bool",
          "name": "approved",
          "type": "bool"
        }
      ],
      "name": "ApprovalForAll",
      "type": "event"
    },
    {
      "anonymous": false,
      "inputs": [
        {
          "indexed": true,
          "internalType": "uint256",
          "name": "tokenHash",
          "type": "uint256"
        },
        {
          "indexed": true,
          "internalType": "uint256",
          "name": "toTokenHash",
          "type": "uint256"
        },
        {
          "indexed": false,
          "internalType": "int256",
          "name": "value",
          "type": "int256"
        }
      ],
      "name": "NewReply",
      "type": "event"
    },
    {
      "anonymous": false,
      "inputs": [
        {
          "indexed": true,
          "internalType": "uint256",
          "name": "tokenHash",
          "type": "uint256"
        },
        {
          "indexed": true,
          "internalType": "address",
          "name": "creator",
          "type": "address"
        },
        {
          "indexed": true,
          "internalType": "bytes",
          "name": "data",
          "type": "bytes"
        }
      ],
      "name": "NewToken",
      "type": "event"
    },
    {
      "anonymous": false,
      "inputs": [
        {
          "indexed": false,
          "internalType": "uint256",
          "name": "tokenHash",
          "type": "uint256"
        },
        {
          "indexed": true,
          "internalType": "bytes32",
          "name": "tag1",
          "type": "bytes32"
        },
        {
          "indexed": true,
          "internalType": "bytes32",
          "name": "tag2",
          "type": "bytes32"
        },
        {
          "indexed": true,
          "internalType": "bytes32",
          "name": "tag3",
          "type": "bytes32"
        }
      ],
      "name": "Tags",
      "type": "event"
    },
    {
      "anonymous": false,
      "inputs": [
        {
          "indexed": true,
          "internalType": "address",
          "name": "from",
          "type": "address"
        },
        {
          "indexed": true,
          "internalType": "address",
          "name": "to",
          "type": "address"
        },
        {
          "indexed": true,
          "internalType": "uint256",
          "name": "tokenId",
          "type": "uint256"
        }
      ],
      "name": "Transfer",
      "type": "event"
    },
    {
      "inputs": [],
      "name": "QVH",
      "outputs": [
        {
          "internalType": "contract IQVHash",
          "name": "",
          "type": "address"
        }
      ],
      "stateMutability": "view",
      "type": "function"
    },
    {
      "inputs": [
        {
          "internalType": "address",
          "name": "to",
          "type": "address"
        },
        {
          "internalType": "uint256",
          "name": "tokenId",
          "type": "uint256"
        }
      ],
      "name": "approve",
      "outputs": [],
      "stateMutability": "nonpayable",
      "type": "function"
    },
    {
      "inputs": [
        {
          "internalType": "address",
          "name": "owner",
          "type": "address"
        }
      ],
      "name": "balanceOf",
      "outputs": [
        {
          "internalType": "uint256",
          "name": "",
          "type": "uint256"
        }
      ],
      "stateMutability": "view",
      "type": "function"
    },
    {
      "inputs": [
        {
          "internalType": "uint256",
          "name": "tokenId",
          "type": "uint256"
        }
      ],
      "name": "burn",
      "outputs": [],
      "stateMutability": "nonpayable",
      "type": "function"
    },
    {
      "inputs": [],
      "name": "creatorAddresses",
      "outputs": [
        {
          "internalType": "address[]",
          "name": "creator",
          "type": "address[]"
        }
      ],
      "stateMutability": "view",
      "type": "function"
    },
    {
      "inputs": [
        {
          "internalType": "uint256",
          "name": "index",
          "type": "uint256"
        }
      ],
      "name": "creatorByIndex",
      "outputs": [
        {
          "internalType": "address",
          "name": "creator",
          "type": "address"
        }
      ],
      "stateMutability": "view",
      "type": "function"
    },
    {
      "inputs": [
        {
          "internalType": "uint256[]",
          "name": "index",
          "type": "uint256[]"
        }
      ],
      "name": "creatorsByIndexBatch",
      "outputs": [
        {
          "internalType": "address[]",
          "name": "creator",
          "type": "address[]"
        }
      ],
      "stateMutability": "view",
      "type": "function"
    },
    {
      "inputs": [
        {
          "internalType": "uint256",
          "name": "tokenId",
          "type": "uint256"
        }
      ],
      "name": "getApproved",
      "outputs": [
        {
          "internalType": "address",
          "name": "",
          "type": "address"
        }
      ],
      "stateMutability": "view",
      "type": "function"
    },
    {
      "inputs": [
        {
          "components": [
            {
              "internalType": "address",
              "name": "creator",
              "type": "address"
            },
            {
              "internalType": "uint96",
              "name": "signTime",
              "type": "uint96"
            },
            {
              "internalType": "string",
              "name": "tokenURI",
              "type": "string"
            },
            {
              "internalType": "bytes",
              "name": "data",
              "type": "bytes"
            },
            {
              "components": [
                {
                  "internalType": "uint256",
                  "name": "tokenHash",
                  "type": "uint256"
                },
                {
                  "internalType": "int256",
                  "name": "value",
                  "type": "int256"
                }
              ],
              "internalType": "struct DataStorage.ToTokenHash[]",
              "name": "toTokenHash",
              "type": "tuple[]"
            },
            {
              "internalType": "bytes32[]",
              "name": "tags",
              "type": "bytes32[]"
            },
            {
              "components": [
                {
                  "internalType": "address payable",
                  "name": "recipient",
                  "type": "address"
                },
                {
                  "internalType": "uint96",
                  "name": "percentInBasisPoints",
                  "type": "uint96"
                }
              ],
              "internalType": "struct SplitterForOwners.Share[]",
              "name": "owners",
              "type": "tuple[]"
            },
            {
              "components": [
                {
                  "internalType": "int256",
                  "name": "A",
                  "type": "int256"
                },
                {
                  "internalType": "int256",
                  "name": "B",
                  "type": "int256"
                },
                {
                  "internalType": "uint96",
                  "name": "totalSupply",
                  "type": "uint96"
                },
                {
                  "internalType": "uint96",
                  "name": "expTime",
                  "type": "uint96"
                },
                {
                  "internalType": "uint64",
                  "name": "discount",
                  "type": "uint64"
                },
                {
                  "internalType": "uint96",
                  "name": "initTime",
                  "type": "uint96"
                },
                {
                  "internalType": "uint96",
                  "name": "royalty",
                  "type": "uint96"
                },
                {
                  "internalType": "uint256",
                  "name": "chainId",
                  "type": "uint256"
                }
              ],
              "internalType": "struct DataStorage.Pricing[]",
              "name": "pricing",
              "type": "tuple[]"
            }
          ],
          "internalType": "struct DataStorage.Katibeh",
          "name": "katibeh",
          "type": "tuple"
        }
      ],
      "name": "getHash",
      "outputs": [
        {
          "internalType": "bytes32",
          "name": "",
          "type": "bytes32"
        }
      ],
      "stateMutability": "view",
      "type": "function"
    },
    {
      "inputs": [
        {
          "internalType": "bytes32",
          "name": "uriHash",
          "type": "bytes32"
        }
      ],
      "name": "getUriId",
      "outputs": [
        {
          "internalType": "uint256",
          "name": "",
          "type": "uint256"
        }
      ],
      "stateMutability": "view",
      "type": "function"
    },
    {
      "inputs": [
        {
          "internalType": "address",
          "name": "owner",
          "type": "address"
        },
        {
          "internalType": "address",
          "name": "operator",
          "type": "address"
        }
      ],
      "name": "isApprovedForAll",
      "outputs": [
        {
          "internalType": "bool",
          "name": "",
          "type": "bool"
        }
      ],
      "stateMutability": "view",
      "type": "function"
    },
    {
      "inputs": [],
      "name": "name",
      "outputs": [
        {
          "internalType": "string",
          "name": "",
          "type": "string"
        }
      ],
      "stateMutability": "view",
      "type": "function"
    },
    {
      "inputs": [],
      "name": "numberOfCreators",
      "outputs": [
        {
          "internalType": "uint256",
          "name": "",
          "type": "uint256"
        }
      ],
      "stateMutability": "view",
      "type": "function"
    },
    {
      "inputs": [
        {
          "internalType": "address",
          "name": "toCreator",
          "type": "address"
        }
      ],
      "name": "numberOfRepliesToCreator",
      "outputs": [
        {
          "internalType": "uint256",
          "name": "",
          "type": "uint256"
        }
      ],
      "stateMutability": "view",
      "type": "function"
    },
    {
      "inputs": [
        {
          "internalType": "address[]",
          "name": "toCreator",
          "type": "address[]"
        }
      ],
      "name": "numberOfRepliesToCreatorBatch",
      "outputs": [
        {
          "internalType": "uint256[]",
          "name": "count",
          "type": "uint256[]"
        }
      ],
      "stateMutability": "view",
      "type": "function"
    },
    {
      "inputs": [
        {
          "internalType": "uint256",
          "name": "tokenId",
          "type": "uint256"
        }
      ],
      "name": "numberOfTokenReplies",
      "outputs": [
        {
          "internalType": "uint256",
          "name": "",
          "type": "uint256"
        }
      ],
      "stateMutability": "view",
      "type": "function"
    },
    {
      "inputs": [
        {
          "internalType": "uint256[]",
          "name": "tokenId",
          "type": "uint256[]"
        }
      ],
      "name": "numberOfTokenRepliesBatch",
      "outputs": [
        {
          "internalType": "uint256[]",
          "name": "count",
          "type": "uint256[]"
        }
      ],
      "stateMutability": "view",
      "type": "function"
    },
    {
      "inputs": [
        {
          "internalType": "bytes32",
          "name": "tag",
          "type": "bytes32"
        }
      ],
      "name": "numberOfTokensByTag",
      "outputs": [
        {
          "internalType": "uint256",
          "name": "",
          "type": "uint256"
        }
      ],
      "stateMutability": "view",
      "type": "function"
    },
    {
      "inputs": [
        {
          "internalType": "bytes32[]",
          "name": "tag",
          "type": "bytes32[]"
        }
      ],
      "name": "numberOfTokensByTagBatch",
      "outputs": [
        {
          "internalType": "uint256[]",
          "name": "count",
          "type": "uint256[]"
        }
      ],
      "stateMutability": "view",
      "type": "function"
    },
    {
      "inputs": [
        {
          "internalType": "address",
          "name": "creator",
          "type": "address"
        }
      ],
      "name": "numberOfTokensOfCreator",
      "outputs": [
        {
          "internalType": "uint256",
          "name": "",
          "type": "uint256"
        }
      ],
      "stateMutability": "view",
      "type": "function"
    },
    {
      "inputs": [
        {
          "internalType": "address[]",
          "name": "creator",
          "type": "address[]"
        }
      ],
      "name": "numberOfTokensOfCreatorBatch",
      "outputs": [
        {
          "internalType": "uint256[]",
          "name": "count",
          "type": "uint256[]"
        }
      ],
      "stateMutability": "view",
      "type": "function"
    },
    {
      "inputs": [],
      "name": "numberOfTokensTraceable",
      "outputs": [
        {
          "internalType": "uint256",
          "name": "count",
          "type": "uint256"
        }
      ],
      "stateMutability": "view",
      "type": "function"
    },
    {
      "inputs": [
        {
          "internalType": "uint256",
          "name": "tokenId",
          "type": "uint256"
        }
      ],
      "name": "ownerOf",
      "outputs": [
        {
          "internalType": "address",
          "name": "",
          "type": "address"
        }
      ],
      "stateMutability": "view",
      "type": "function"
    },
    {
      "inputs": [
        {
          "internalType": "address",
          "name": "toCreator",
          "type": "address"
        }
      ],
      "name": "repliesToCreator",
      "outputs": [
        {
          "internalType": "uint256[]",
          "name": "ids",
          "type": "uint256[]"
        }
      ],
      "stateMutability": "view",
      "type": "function"
    },
    {
      "inputs": [
        {
          "internalType": "address",
          "name": "toCreator",
          "type": "address"
        },
        {
          "internalType": "uint256",
          "name": "index",
          "type": "uint256"
        }
      ],
      "name": "repliesToCreatorByIndex",
      "outputs": [
        {
          "internalType": "uint256",
          "name": "id",
          "type": "uint256"
        }
      ],
      "stateMutability": "view",
      "type": "function"
    },
    {
      "inputs": [
        {
          "internalType": "address",
          "name": "toCreator",
          "type": "address"
        },
        {
          "internalType": "uint256[]",
          "name": "index",
          "type": "uint256[]"
        }
      ],
      "name": "repliesToCreatorByIndexBatch",
      "outputs": [
        {
          "internalType": "uint256[]",
          "name": "id",
          "type": "uint256[]"
        }
      ],
      "stateMutability": "view",
      "type": "function"
    },
    {
      "inputs": [
        {
          "components": [
            {
              "internalType": "address",
              "name": "creator",
              "type": "address"
            },
            {
              "internalType": "uint96",
              "name": "signTime",
              "type": "uint96"
            },
            {
              "internalType": "string",
              "name": "tokenURI",
              "type": "string"
            },
            {
              "internalType": "bytes",
              "name": "data",
              "type": "bytes"
            },
            {
              "components": [
                {
                  "internalType": "uint256",
                  "name": "tokenHash",
                  "type": "uint256"
                },
                {
                  "internalType": "int256",
                  "name": "value",
                  "type": "int256"
                }
              ],
              "internalType": "struct DataStorage.ToTokenHash[]",
              "name": "toTokenHash",
              "type": "tuple[]"
            },
            {
              "internalType": "bytes32[]",
              "name": "tags",
              "type": "bytes32[]"
            },
            {
              "components": [
                {
                  "internalType": "address payable",
                  "name": "recipient",
                  "type": "address"
                },
                {
                  "internalType": "uint96",
                  "name": "percentInBasisPoints",
                  "type": "uint96"
                }
              ],
              "internalType": "struct SplitterForOwners.Share[]",
              "name": "owners",
              "type": "tuple[]"
            },
            {
              "components": [
                {
                  "internalType": "int256",
                  "name": "A",
                  "type": "int256"
                },
                {
                  "internalType": "int256",
                  "name": "B",
                  "type": "int256"
                },
                {
                  "internalType": "uint96",
                  "name": "totalSupply",
                  "type": "uint96"
                },
                {
                  "internalType": "uint96",
                  "name": "expTime",
                  "type": "uint96"
                },
                {
                  "internalType": "uint64",
                  "name": "discount",
                  "type": "uint64"
                },
                {
                  "internalType": "uint96",
                  "name": "initTime",
                  "type": "uint96"
                },
                {
                  "internalType": "uint96",
                  "name": "royalty",
                  "type": "uint96"
                },
                {
                  "internalType": "uint256",
                  "name": "chainId",
                  "type": "uint256"
                }
              ],
              "internalType": "struct DataStorage.Pricing[]",
              "name": "pricing",
              "type": "tuple[]"
            }
          ],
          "internalType": "struct DataStorage.Katibeh",
          "name": "katibeh",
          "type": "tuple"
        },
        {
          "internalType": "bytes",
          "name": "sig",
          "type": "bytes"
        },
        {
          "internalType": "bytes",
          "name": "dappData",
          "type": "bytes"
        }
      ],
      "name": "safeMint",
      "outputs": [
        {
          "internalType": "uint256",
          "name": "tokenId",
          "type": "uint256"
        }
      ],
      "stateMutability": "nonpayable",
      "type": "function"
    },
    {
      "inputs": [
        {
          "components": [
            {
              "internalType": "address",
              "name": "creator",
              "type": "address"
            },
            {
              "internalType": "uint96",
              "name": "signTime",
              "type": "uint96"
            },
            {
              "internalType": "string",
              "name": "tokenURI",
              "type": "string"
            },
            {
              "internalType": "bytes",
              "name": "data",
              "type": "bytes"
            },
            {
              "components": [
                {
                  "internalType": "uint256",
                  "name": "tokenHash",
                  "type": "uint256"
                },
                {
                  "internalType": "int256",
                  "name": "value",
                  "type": "int256"
                }
              ],
              "internalType": "struct DataStorage.ToTokenHash[]",
              "name": "toTokenHash",
              "type": "tuple[]"
            },
            {
              "internalType": "bytes32[]",
              "name": "tags",
              "type": "bytes32[]"
            },
            {
              "components": [
                {
                  "internalType": "address payable",
                  "name": "recipient",
                  "type": "address"
                },
                {
                  "internalType": "uint96",
                  "name": "percentInBasisPoints",
                  "type": "uint96"
                }
              ],
              "internalType": "struct SplitterForOwners.Share[]",
              "name": "owners",
              "type": "tuple[]"
            },
            {
              "components": [
                {
                  "internalType": "int256",
                  "name": "A",
                  "type": "int256"
                },
                {
                  "internalType": "int256",
                  "name": "B",
                  "type": "int256"
                },
                {
                  "internalType": "uint96",
                  "name": "totalSupply",
                  "type": "uint96"
                },
                {
                  "internalType": "uint96",
                  "name": "expTime",
                  "type": "uint96"
                },
                {
                  "internalType": "uint64",
                  "name": "discount",
                  "type": "uint64"
                },
                {
                  "internalType": "uint96",
                  "name": "initTime",
                  "type": "uint96"
                },
                {
                  "internalType": "uint96",
                  "name": "royalty",
                  "type": "uint96"
                },
                {
                  "internalType": "uint256",
                  "name": "chainId",
                  "type": "uint256"
                }
              ],
              "internalType": "struct DataStorage.Pricing[]",
              "name": "pricing",
              "type": "tuple[]"
            }
          ],
          "internalType": "struct DataStorage.Katibeh",
          "name": "katibeh",
          "type": "tuple"
        },
        {
          "internalType": "bytes",
          "name": "sig",
          "type": "bytes"
        },
        {
          "internalType": "bytes",
          "name": "dappData",
          "type": "bytes"
        }
      ],
      "name": "safeMintAndSetTraceStorage",
      "outputs": [],
      "stateMutability": "nonpayable",
      "type": "function"
    },
    {
      "inputs": [
        {
          "internalType": "address",
          "name": "from",
          "type": "address"
        },
        {
          "internalType": "address",
          "name": "to",
          "type": "address"
        },
        {
          "internalType": "uint256",
          "name": "tokenId",
          "type": "uint256"
        }
      ],
      "name": "safeTransferFrom",
      "outputs": [],
      "stateMutability": "nonpayable",
      "type": "function"
    },
    {
      "inputs": [
        {
          "internalType": "address",
          "name": "from",
          "type": "address"
        },
        {
          "internalType": "address",
          "name": "to",
          "type": "address"
        },
        {
          "internalType": "uint256",
          "name": "tokenId",
          "type": "uint256"
        },
        {
          "internalType": "bytes",
          "name": "data",
          "type": "bytes"
        }
      ],
      "name": "safeTransferFrom",
      "outputs": [],
      "stateMutability": "nonpayable",
      "type": "function"
    },
    {
      "inputs": [
        {
          "internalType": "address",
          "name": "operator",
          "type": "address"
        },
        {
          "internalType": "bool",
          "name": "approved",
          "type": "bool"
        }
      ],
      "name": "setApprovalForAll",
      "outputs": [],
      "stateMutability": "nonpayable",
      "type": "function"
    },
    {
      "inputs": [
        {
          "internalType": "bytes4",
          "name": "interfaceId",
          "type": "bytes4"
        }
      ],
      "name": "supportsInterface",
      "outputs": [
        {
          "internalType": "bool",
          "name": "",
          "type": "bool"
        }
      ],
      "stateMutability": "view",
      "type": "function"
    },
    {
      "inputs": [],
      "name": "symbol",
      "outputs": [
        {
          "internalType": "string",
          "name": "",
          "type": "string"
        }
      ],
      "stateMutability": "view",
      "type": "function"
    },
    {
      "inputs": [],
      "name": "timeStamp",
      "outputs": [
        {
          "internalType": "uint256",
          "name": "",
          "type": "uint256"
        }
      ],
      "stateMutability": "view",
      "type": "function"
    },
    {
      "inputs": [
        {
          "internalType": "uint256",
          "name": "index",
          "type": "uint256"
        }
      ],
      "name": "tokenByIndex",
      "outputs": [
        {
          "internalType": "uint256",
          "name": "",
          "type": "uint256"
        }
      ],
      "stateMutability": "view",
      "type": "function"
    },
    {
      "inputs": [
        {
          "internalType": "uint256",
          "name": "index",
          "type": "uint256"
        }
      ],
      "name": "tokenByIndexTraceable",
      "outputs": [
        {
          "internalType": "uint256",
          "name": "id",
          "type": "uint256"
        }
      ],
      "stateMutability": "view",
      "type": "function"
    },
    {
      "inputs": [
        {
          "internalType": "uint256",
          "name": "tokenId",
          "type": "uint256"
        }
      ],
      "name": "tokenInfo",
      "outputs": [
        {
          "components": [
            {
              "internalType": "address",
              "name": "creator",
              "type": "address"
            },
            {
              "internalType": "uint96",
              "name": "signTime",
              "type": "uint96"
            },
            {
              "internalType": "string",
              "name": "tokenURI",
              "type": "string"
            },
            {
              "internalType": "bytes",
              "name": "data",
              "type": "bytes"
            },
            {
              "components": [
                {
                  "internalType": "uint256",
                  "name": "tokenHash",
                  "type": "uint256"
                },
                {
                  "internalType": "int256",
                  "name": "value",
                  "type": "int256"
                }
              ],
              "internalType": "struct DataStorage.ToTokenHash[]",
              "name": "toTokenHash",
              "type": "tuple[]"
            },
            {
              "internalType": "bytes32[]",
              "name": "tags",
              "type": "bytes32[]"
            },
            {
              "components": [
                {
                  "internalType": "address payable",
                  "name": "recipient",
                  "type": "address"
                },
                {
                  "internalType": "uint96",
                  "name": "percentInBasisPoints",
                  "type": "uint96"
                }
              ],
              "internalType": "struct SplitterForOwners.Share[]",
              "name": "owners",
              "type": "tuple[]"
            },
            {
              "components": [
                {
                  "internalType": "int256",
                  "name": "A",
                  "type": "int256"
                },
                {
                  "internalType": "int256",
                  "name": "B",
                  "type": "int256"
                },
                {
                  "internalType": "uint96",
                  "name": "totalSupply",
                  "type": "uint96"
                },
                {
                  "internalType": "uint96",
                  "name": "expTime",
                  "type": "uint96"
                },
                {
                  "internalType": "uint64",
                  "name": "discount",
                  "type": "uint64"
                },
                {
                  "internalType": "uint96",
                  "name": "initTime",
                  "type": "uint96"
                },
                {
                  "internalType": "uint96",
                  "name": "royalty",
                  "type": "uint96"
                },
                {
                  "internalType": "uint256",
                  "name": "chainId",
                  "type": "uint256"
                }
              ],
              "internalType": "struct DataStorage.Pricing[]",
              "name": "pricing",
              "type": "tuple[]"
            }
          ],
          "internalType": "struct DataStorage.Katibeh",
          "name": "katibeh",
          "type": "tuple"
        },
        {
          "internalType": "uint256",
          "name": "mintTime",
          "type": "uint256"
        },
        {
          "internalType": "bytes",
          "name": "sig",
          "type": "bytes"
        },
        {
          "internalType": "bytes",
          "name": "dappData",
          "type": "bytes"
        }
      ],
      "stateMutability": "view",
      "type": "function"
    },
    {
      "inputs": [
        {
          "internalType": "uint256",
          "name": "",
          "type": "uint256"
        }
      ],
      "name": "tokenMintTime",
      "outputs": [
        {
          "internalType": "uint256",
          "name": "",
          "type": "uint256"
        }
      ],
      "stateMutability": "view",
      "type": "function"
    },
    {
      "inputs": [
        {
          "internalType": "address",
          "name": "creator",
          "type": "address"
        },
        {
          "internalType": "uint256",
          "name": "index",
          "type": "uint256"
        }
      ],
      "name": "tokenOfCreatorByIndex",
      "outputs": [
        {
          "internalType": "uint256",
          "name": "id",
          "type": "uint256"
        }
      ],
      "stateMutability": "view",
      "type": "function"
    },
    {
      "inputs": [
        {
          "internalType": "address",
          "name": "owner",
          "type": "address"
        },
        {
          "internalType": "uint256",
          "name": "index",
          "type": "uint256"
        }
      ],
      "name": "tokenOfOwnerByIndex",
      "outputs": [
        {
          "internalType": "uint256",
          "name": "",
          "type": "uint256"
        }
      ],
      "stateMutability": "view",
      "type": "function"
    },
    {
      "inputs": [
        {
          "internalType": "bytes32",
          "name": "tag",
          "type": "bytes32"
        },
        {
          "internalType": "uint256",
          "name": "index",
          "type": "uint256"
        }
      ],
      "name": "tokenOfTagByIndex",
      "outputs": [
        {
          "internalType": "uint256",
          "name": "id",
          "type": "uint256"
        }
      ],
      "stateMutability": "view",
      "type": "function"
    },
    {
      "inputs": [
        {
          "internalType": "uint256",
          "name": "tokenId",
          "type": "uint256"
        }
      ],
      "name": "tokenReplies",
      "outputs": [
        {
          "internalType": "uint256[]",
          "name": "ids",
          "type": "uint256[]"
        }
      ],
      "stateMutability": "view",
      "type": "function"
    },
    {
      "inputs": [
        {
          "internalType": "uint256",
          "name": "tokenId",
          "type": "uint256"
        },
        {
          "internalType": "uint256[]",
          "name": "index",
          "type": "uint256[]"
        }
      ],
      "name": "tokenRepliesByIndexBatch",
      "outputs": [
        {
          "internalType": "uint256[]",
          "name": "id",
          "type": "uint256[]"
        }
      ],
      "stateMutability": "view",
      "type": "function"
    },
    {
      "inputs": [
        {
          "internalType": "uint256",
          "name": "tokenId",
          "type": "uint256"
        },
        {
          "internalType": "uint256",
          "name": "index",
          "type": "uint256"
        }
      ],
      "name": "tokenReplyByIndex",
      "outputs": [
        {
          "internalType": "uint256",
          "name": "id",
          "type": "uint256"
        }
      ],
      "stateMutability": "view",
      "type": "function"
    },
    {
      "inputs": [
        {
          "internalType": "uint256",
          "name": "tokenId",
          "type": "uint256"
        }
      ],
      "name": "tokenShareholders",
      "outputs": [
        {
          "components": [
            {
              "internalType": "address payable",
              "name": "recipient",
              "type": "address"
            },
            {
              "internalType": "uint96",
              "name": "percentInBasisPoints",
              "type": "uint96"
            }
          ],
          "internalType": "struct SplitterForOwners.Share[]",
          "name": "_owners_",
          "type": "tuple[]"
        }
      ],
      "stateMutability": "view",
      "type": "function"
    },
    {
      "inputs": [
        {
          "internalType": "uint256",
          "name": "tokenId",
          "type": "uint256"
        }
      ],
      "name": "tokenURI",
      "outputs": [
        {
          "internalType": "string",
          "name": "",
          "type": "string"
        }
      ],
      "stateMutability": "view",
      "type": "function"
    },
    {
      "inputs": [
        {
          "internalType": "uint256[]",
          "name": "index",
          "type": "uint256[]"
        }
      ],
      "name": "tokensByIndexTraceableBatch",
      "outputs": [
        {
          "internalType": "uint256[]",
          "name": "id",
          "type": "uint256[]"
        }
      ],
      "stateMutability": "view",
      "type": "function"
    },
    {
      "inputs": [
        {
          "internalType": "uint256[]",
          "name": "tokenId",
          "type": "uint256[]"
        }
      ],
      "name": "tokensInfoBatch",
      "outputs": [
        {
          "components": [
            {
              "internalType": "address",
              "name": "creator",
              "type": "address"
            },
            {
              "internalType": "uint96",
              "name": "signTime",
              "type": "uint96"
            },
            {
              "internalType": "string",
              "name": "tokenURI",
              "type": "string"
            },
            {
              "internalType": "bytes",
              "name": "data",
              "type": "bytes"
            },
            {
              "components": [
                {
                  "internalType": "uint256",
                  "name": "tokenHash",
                  "type": "uint256"
                },
                {
                  "internalType": "int256",
                  "name": "value",
                  "type": "int256"
                }
              ],
              "internalType": "struct DataStorage.ToTokenHash[]",
              "name": "toTokenHash",
              "type": "tuple[]"
            },
            {
              "internalType": "bytes32[]",
              "name": "tags",
              "type": "bytes32[]"
            },
            {
              "components": [
                {
                  "internalType": "address payable",
                  "name": "recipient",
                  "type": "address"
                },
                {
                  "internalType": "uint96",
                  "name": "percentInBasisPoints",
                  "type": "uint96"
                }
              ],
              "internalType": "struct SplitterForOwners.Share[]",
              "name": "owners",
              "type": "tuple[]"
            },
            {
              "components": [
                {
                  "internalType": "int256",
                  "name": "A",
                  "type": "int256"
                },
                {
                  "internalType": "int256",
                  "name": "B",
                  "type": "int256"
                },
                {
                  "internalType": "uint96",
                  "name": "totalSupply",
                  "type": "uint96"
                },
                {
                  "internalType": "uint96",
                  "name": "expTime",
                  "type": "uint96"
                },
                {
                  "internalType": "uint64",
                  "name": "discount",
                  "type": "uint64"
                },
                {
                  "internalType": "uint96",
                  "name": "initTime",
                  "type": "uint96"
                },
                {
                  "internalType": "uint96",
                  "name": "royalty",
                  "type": "uint96"
                },
                {
                  "internalType": "uint256",
                  "name": "chainId",
                  "type": "uint256"
                }
              ],
              "internalType": "struct DataStorage.Pricing[]",
              "name": "pricing",
              "type": "tuple[]"
            }
          ],
          "internalType": "struct DataStorage.Katibeh[]",
          "name": "katibeh",
          "type": "tuple[]"
        },
        {
          "internalType": "uint256[]",
          "name": "mintTime",
          "type": "uint256[]"
        },
        {
          "internalType": "bytes[]",
          "name": "sig",
          "type": "bytes[]"
        },
        {
          "internalType": "bytes[]",
          "name": "dappData",
          "type": "bytes[]"
        }
      ],
      "stateMutability": "view",
      "type": "function"
    },
    {
      "inputs": [
        {
          "internalType": "address",
          "name": "creator",
          "type": "address"
        }
      ],
      "name": "tokensOfCreator",
      "outputs": [
        {
          "internalType": "uint256[]",
          "name": "ids",
          "type": "uint256[]"
        }
      ],
      "stateMutability": "view",
      "type": "function"
    },
    {
      "inputs": [
        {
          "internalType": "address",
          "name": "creator",
          "type": "address"
        },
        {
          "internalType": "uint256[]",
          "name": "index",
          "type": "uint256[]"
        }
      ],
      "name": "tokensOfCreatorByIndexBatch",
      "outputs": [
        {
          "internalType": "uint256[]",
          "name": "id",
          "type": "uint256[]"
        }
      ],
      "stateMutability": "view",
      "type": "function"
    },
    {
      "inputs": [
        {
          "internalType": "bytes32",
          "name": "tag",
          "type": "bytes32"
        }
      ],
      "name": "tokensOfTag",
      "outputs": [
        {
          "internalType": "uint256[]",
          "name": "ids",
          "type": "uint256[]"
        }
      ],
      "stateMutability": "view",
      "type": "function"
    },
    {
      "inputs": [
        {
          "internalType": "bytes32",
          "name": "tag",
          "type": "bytes32"
        },
        {
          "internalType": "uint256[]",
          "name": "index",
          "type": "uint256[]"
        }
      ],
      "name": "tokensOfTagByIndexBatch",
      "outputs": [
        {
          "internalType": "uint256[]",
          "name": "id",
          "type": "uint256[]"
        }
      ],
      "stateMutability": "view",
      "type": "function"
    },
    {
      "inputs": [],
      "name": "totalSupply",
      "outputs": [
        {
          "internalType": "uint256",
          "name": "",
          "type": "uint256"
        }
      ],
      "stateMutability": "view",
      "type": "function"
    },
    {
      "inputs": [
        {
          "internalType": "address",
          "name": "creator",
          "type": "address"
        },
        {
          "internalType": "uint256",
          "name": "id",
          "type": "uint256"
        }
      ],
      "name": "traceTokenByCreator",
      "outputs": [
        {
          "internalType": "uint256",
          "name": "numberOfPreviousIds",
          "type": "uint256"
        },
        {
          "internalType": "uint256",
          "name": "numberOfNextIds",
          "type": "uint256"
        },
        {
          "internalType": "uint256",
          "name": "previousId",
          "type": "uint256"
        },
        {
          "internalType": "uint256",
          "name": "nextId",
          "type": "uint256"
        }
      ],
      "stateMutability": "view",
      "type": "function"
    },
    {
      "inputs": [
        {
          "internalType": "uint256",
          "name": "id",
          "type": "uint256"
        }
      ],
      "name": "traceTokenById",
      "outputs": [
        {
          "internalType": "uint256",
          "name": "numberOfPreviousIds",
          "type": "uint256"
        },
        {
          "internalType": "uint256",
          "name": "numberOfNextIds",
          "type": "uint256"
        },
        {
          "internalType": "uint256",
          "name": "previousId",
          "type": "uint256"
        },
        {
          "internalType": "uint256",
          "name": "nextId",
          "type": "uint256"
        }
      ],
      "stateMutability": "view",
      "type": "function"
    },
    {
      "inputs": [
        {
          "internalType": "bytes32",
          "name": "tag",
          "type": "bytes32"
        },
        {
          "internalType": "uint256",
          "name": "id",
          "type": "uint256"
        }
      ],
      "name": "traceTokenByTag",
      "outputs": [
        {
          "internalType": "uint256",
          "name": "numberOfPreviousIds",
          "type": "uint256"
        },
        {
          "internalType": "uint256",
          "name": "numberOfNextIds",
          "type": "uint256"
        },
        {
          "internalType": "uint256",
          "name": "previousId",
          "type": "uint256"
        },
        {
          "internalType": "uint256",
          "name": "nextId",
          "type": "uint256"
        }
      ],
      "stateMutability": "view",
      "type": "function"
    },
    {
      "inputs": [
        {
          "internalType": "address",
          "name": "from",
          "type": "address"
        },
        {
          "internalType": "address",
          "name": "to",
          "type": "address"
        },
        {
          "internalType": "uint256",
          "name": "tokenId",
          "type": "uint256"
        }
      ],
      "name": "transferFrom",
      "outputs": [],
      "stateMutability": "nonpayable",
      "type": "function"
    }
  ],
  "bytecode": "0x6080346200035557601f601f196001600160401b0362004cfc38819003848101841686018381118782101762000341578692829160405283396020958691810103126200035557516001600160a01b038116939084900362000355576200006562000359565b92600a8452694b61746962656837323160b01b868501526200008662000359565b90600782526609682a892848a960cb1b8783015284519084821162000341575f918254966001978881811c9116801562000336575b8b8210146200032257908187849311620002cf575b508a908783116001146200026d57859262000261575b50505f19600383901b1c191690871b1782555b82519485116200024d5785548681811c9116801562000242575b898210146200022e57848111620001e6575b508793851160011462000182575083949596509262000176575b50505f19600383901b1c191690821b1790555b601880546001600160a01b03191691909117905560405161498290816200037a8239f35b015190505f806200013f565b8493929193169685845280842093905b888210620001ce5750508385969710620001b5575b505050811b01905562000152565b01515f1960f88460031b161c191690555f8080620001a7565b80878596829496860151815501950193019062000192565b8683528883208580880160051c8201928b891062000224575b0160051c019087905b8281106200021857505062000125565b84815501879062000208565b92508192620001ff565b634e487b7160e01b83526022600452602483fd5b90607f169062000113565b634e487b7160e01b82526041600452602482fd5b015190505f80620000e6565b90848a9416918680528c8720928d88905b828210620002b757505084116200029e575b505050811b018255620000f9565b01515f1960f88460031b161c191690555f808062000290565b8385015186558d979095019493840193018e6200027e565b9091508480528a85208780850160051c8201928d861062000318575b918b91869594930160051c01915b82811062000309575050620000d0565b8781558594508b9101620002f9565b92508192620002eb565b634e487b7160e01b85526022600452602485fd5b90607f1690620000bb565b634e487b7160e01b5f52604160045260245ffd5b5f80fd5b60408051919082016001600160401b03811183821017620003415760405256fe604060808152600480361015610013575f80fd5b5f90813560e01c908163017642e41461202257816301ffc9a714611f9657816306fdde0314611ee7578163081812fc14611ec7578163095ea7b314611d585781630ab0df8714611d3d578163132e75d614611cdb5781631674ed4b14611c5557816318160ddd14611c365781631ae69b6114611c1757816323b872dd14611bf257816325e3b43a14611bd35781632615663614611bb357816329c7785f14611b8a5781632b0eca8c146119df5781632c2309011461196f5781632e0d0718146119465781632f745c591461189a57816331d99545146118255781633552d2201461180957816339d77f251461169a578163404a33ec1461145057816340b94757146113cc57816342842e0e1461139857816342966c6814610fa15781634667c88414610f785781634f6ccce714610ef25781634fc0927514610ec957816356df9f2b14610d7a57816360f6a4a314610d3f5781636352211e14610d1f5781636d571b6a14610cee57816370a0823114610cc85781637829223614610c9f5781638282674f14610c7457816383b81ebd14610c4b57816389f6571514610c175781638f93fb3914610b9557816395d89b4114610aae57816396cc6a3414610a3e578163a22cb46514610972578163af3ea105146108fa578163b1582201146108ac578163b88d4fde146107f9578163bfc9b364146107cd578163c03d1d9114610724578163c3512876146105fb578163c87b56dd146105aa578163cc33c8751461054d578163cca3c766146104c3578163dd468791146104a4578163e985e9c514610456578163f076ed3b1461042d578163f353a732146103eb578163f6bd7ab81461036a57508063f99458a41461031d5763fe649b7e14610292575f80fd5b3461031a576102a03661216d565b926102ad849392936140bf565b93815b8181106102d0578651602080825281906102cc908201896120d0565b0390f35b806102fe6102e261031593858961405b565b6001600160a01b03871686526016602052898620903590612dfb565b90549060031b1c61030f8289614147565b52613fd5565b6102b0565b80fd5b509034610366578060031936011261036657602091610358906001600160a01b03610346612141565b16815260168452826024359120612dfb565b91905490519160031b1c8152f35b5080fd5b9050346103665760203660031901126103665780356001600160401b0381116103e7576103999136910161209c565b6103a2816140bf565b925b8181106103c0578451602080825281906102cc908201876120d0565b806103d86103d26103e293858761405b565b3561468e565b61030f8287614147565b6103a4565b8280fd5b8284346103665760203660031901126103665760209061042661040c612141565b6001600160a01b03165f9081526016602052604090205490565b9051908152f35b82843461036657816003193601126103665760185490516001600160a01b039091168152602090f35b82843461036657806003193601126103665760ff81602093610476612141565b61047e612157565b6001600160a01b0391821683526005875283832091168252855220549151911615158152f35b828434610366578160031936011261036657602090600f549051908152f35b905082346103e75760209182600319360112610549578035906001600160401b038211610545576104f69136910161209c565b93610500856140bf565b94815b81811061051c578451868152806102cc8189018a6120d0565b8061052b61054092848761405b565b358452601587528584205461030f828a614147565b610503565b8480fd5b8380fd5b83833461031a57602036600319011261031a57506102cc61059c61057461058a94356141a7565b93929580519788976080895260808901906122db565b92602088015286830390870152612103565b908382036060850152612103565b839150346103e75760203660031901126103e757906105e96001826102cc956105e295358152600a60205220018251938480926126cd565b0383612573565b51918291602083526020830190612103565b83833461031a578160031936011261031a57610615612141565b6001600160a01b0316815260126020528181209181908190610639602435866146a9565b93610645858754613ff3565b5f198082019791881161071157866106d0575b5086610682575b505051928352602083019390935260408201929092526060810191909152608090f35b90919350600185018086116106bd576102cc95969750906106a560029282612dfb565b90549060031b1c80935201602052918594938761065f565b634e487b7160e01b835260118852602483fd5b90935085018581116106fe576106e69084612dfb565b90549060031b1c808252600284016020529288610658565b634e487b7160e01b825260118852602482fd5b634e487b7160e01b835260118952602483fd5b9050346103665760203660031901126103665780356001600160401b0381116103e7576107539136910161209c565b61075c8161406b565b9261076985519485612573565b818452601f196107788361406b565b013660208601375b818110610794578451806102cc86826124af565b806107ac6107a66107c893858761405b565b35614899565b6107b68287614147565b6001600160a01b039091169052613fd5565b610780565b839150346103e757816003193601126103e7576020926103589135815260158452826024359120612dfb565b905082346103e75760803660031901126103e757610815612141565b9061081e612157565b60443590606435946001600160401b0386116108a857366023870112156108a8578501359361085861084f86612594565b94519485612573565b84845286366024878901011161031a576020866108a09760246108a59a01838901378601015261089061088b8433612872565b612799565b61089b838383612936565b612cf6565b61284e565b80f35b8680fd5b828434610366576020366003190112610366576102cc916108e79082906001600160a01b036108d9612141565b16815260166020522061415b565b90519182916020835260208301906120d0565b905082346103e75760209182600319360112610549573583526017825280832092835490610927826140bf565b946002810190825b848110610948578551878152806102cc818a018b6120d0565b8061095661096d9284612dfb565b90549060031b1c80865284895261030f828b614147565b61092f565b905082346103e757806003193601126103e75761098d612141565b9060243591821515809303610545576001600160a01b0316923384146109fc5750338452600560205280842083855260205280842060ff1981541660ff8416179055519081527f17307eab39ab6107e8899845ad3d59bd9653f200f220920489ca2b5937696c3160203392a380f35b6020606492519162461bcd60e51b8352820152601960248201527f4552433732313a20617070726f766520746f2063616c6c6572000000000000006044820152fd5b82843461036657602090816003193601126103e7576001600160a01b03610a63612141565b1683526012825280832092835490610a7a826140bf565b946002810190825b848110610a9b578551878152806102cc818a018b6120d0565b80610956610aa99284612dfb565b610a82565b50503461031a578060031936011261031a578151918282600193845494610ad486612695565b918285526020968783821691825f14610b6e575050600114610b13575b5050506102cc9291610b04910385612573565b51928284938452830190612103565b91908693508083527fb10e2d527612073b26eecdfd717e6a320cf44b4afac2b0732d9fcbe2b7fa0cf65b828410610b565750505082010181610b046102cc610af1565b8054848a018601528895508794909301928101610b3d565b60ff19168782015293151560051b86019093019350849250610b0491506102cc9050610af1565b905082346103e75760209182600319360112610549578035906001600160401b03821161054557610bc89136910161209c565b93610bd2856140bf565b94815b818110610bee578451868152806102cc8189018a6120d0565b80610bfd610c1292848761405b565b358452601787528584205461030f828a614147565b610bd5565b83833461031a57602036600319011261031a5750610c386102cc9235614401565b905191829160208352602083019061228b565b839150346103e75760203660031901126103e7576020928291358152600e845220549051908152f35b839150346103e75760203660031901126103e757816102cc936108e79235815260156020522061415b565b839150346103e75760203660031901126103e7576020928291358152600b845220549051908152f35b82843461036657602036600319011261036657602090610426610ce9612141565b6125af565b83833461031a57602036600319011261031a5750610d0e60209235614899565b90516001600160a01b039091168152f35b83833461031a57602036600319011261031a5750610d0e60209235612670565b82843461036657602036600319011261036657602090610426610d60612141565b6001600160a01b03165f9081526012602052604090205490565b83833461031a576003199060203683011261031a578335916001600160401b0383116103665761010090833603011261031a5760248201906001600160601b0390610e0f1982610dc985612e10565b1601828111610eb65782164210159283610e7c575b50505015610e1d57610e05610e136020948451928391878301958887528784019101612ebd565b03601f198101835282612573565b5190209051908152f35b815162461bcd60e51b8152602081850152603360248201527f4b6174696265683732313a206d6f7265207468616e203120686f75727320736960448201527233b7103a34b6b2903234b33332b932b731b29760691b6064820152608490fd5b82935091610e8d610e109293612e10565b160190828211610ea35750164210848080610dde565b634e487b7160e01b815260118652602490fd5b634e487b7160e01b825260118752602482fd5b828434610366578060031936011261036657602090610426610ee9612141565b60243590614868565b9190503461031a57602036600319011261031a5750803590600854821015610f205760208361035884612dc6565b608490602084519162461bcd60e51b8352820152602c60248201527f455243373231456e756d657261626c653a20676c6f62616c20696e646578206f60448201526b7574206f6620626f756e647360a01b6064820152fd5b839150346103e75760203660031901126103e75760209282913581526017845220549051908152f35b905034610366576020806003193601126103e7578135610fc461088b8233612872565b610fcd81612670565b6001600160a01b03908082169081158015908082611390575b1561133d57156112af57505050600854828652600984528087872055600160401b81101561129c57611038611022826001869401600855612dc6565b819391549060031b91821b915f19901b19161790565b90555b6008545f19919082810190811161128957838752600985526110608888205491612dc6565b90549060031b1c8061107461102284612dc6565b90558752600985528787205582865285878120556008548015611276579582600194928299947f766269423061476c7a4947356c64486476636d7375496e30000000000000000099016110c681612dc6565b8482549160031b1b191690556008556110de84612670565b90848452888852858420916001600160601b0360a01b92838154169055169182845260038852858420908154019055838352600287528483209081541690557fddf252ad1be2c89b69c2b068fc378daa952ba7f163c4a11628f55a4df523b3ef8280a4600a83528581812091600d8552812061115a8154612695565b8061123c575b5050500161116e8154612695565b601f811161121b575b506101318155845283207f646174613a6170706c69636174696f6e2f6a736f6e3b6261736536342c65794a81557f755957316c496a6f67496c526f61584d67644739725a57346761584d67596e5660018201557f79626d566b4c694973496d526c63324e796158423061573975496a6f67496c5260028201557f766132567549476c7a494735766443426a623278735a574e3061574a735a53426003820155015580f35b611236908287526005601f8589209201811c82019101614000565b5f611177565b82601f82118614611253575050555b855f80611160565b909180825261126f601f888420940160051c8401878501614000565b555561124b565b634e487b7160e01b875260318652602487fd5b634e487b7160e01b875260118652602487fd5b634e487b7160e01b865260418552602486fd5b6112bb575b505061103b565b6112c4906125af565b5f19810191908211611289578387526007855287872054828103611306575b508387528688812055865260068452868620908652835284868120555f806112b4565b8188526006865288882083895286528888205482895260068752898920828a528752808a8a2055885260078652888820555f6112e3565b895162461bcd60e51b8152808901889052602760248201527f746f6b656e732063616e6e6f74206265207472616e73666572726564206f6e206044820152661d195cdd1b995d60ca1b6064820152608490fd5b506001610fe6565b828434610366576108a06108a5916113af366121b0565b919251926113bc84612558565b86845261089061088b8433612872565b50503461031a578060031936011261031a578151918291601354808552602080950194601383527f66de8ffda797e3de9c05e8fc57b3bf0ec28a930d40b0d285d93c06501cf6a09092905b828210611439576102cc868661142f828b0383612573565b51918291826124af565b835487529586019560019384019390910190611417565b828434610366576114709061146436612212565b928496949291926131d7565b91600f5490838552602091601183528386205561148c84614732565b506001600160a01b038061149f8361315c565b168652601283526114c1858588208054828a52600282018752878a2055614815565b506114d5816114cf8461315c565b16614797565b5060808201906114e58284613fa0565b929050875b83811061163657505050508060a06115039201906131a2565b80939193158015611512578680f35b6116235783359361152385876148ed565b6001821161152f578680f35b816001101561161057838101359161154783886148ed565b61156d84518681019088825285878201528681526115648161253d565b519020886148ed565b6002811161157a57508680f35b60021015611610578201359061159082876148ed565b6115b683518581019083825284868201528581526115ad8161253d565b519020876148ed565b82519384019485528284015260608301526060825260808201908282106001600160401b038311176115fd576115f295965052519020906148ed565b808280808080808680f35b634e487b7160e01b865260418752602486fd5b634e487b7160e01b875260328852602487fd5b634e487b7160e01b865260328752602486fd5b8061164e611695926116488589613fa0565b90613fe3565b358a526015875261166189898c20614815565b50611670816116488589613fa0565b358a52600a875283888b2054168a526016875261168f89898c20614815565b50613fd5565b6114ea565b83833461031a576020918260031936011261036657818291853584526011938486528181205494851596871580986117f9575b156117b7576116de87600f54613ff3565b5f198082019990918a116117a55761176a575b5087611722575b505050906102cc929151948594859094939260609260808301968352602083015260408201520152565b9091929450600186019788871161175857506117426102cc969798612d7d565b90549060031b1c809352529185949387806116f8565b634e487b7160e01b8452829052602483fd5b90945086018681116117935761177f90612d7d565b90549060031b1c80835281855293896116f1565b634e487b7160e01b8352818952602483fd5b634e487b7160e01b8552838b52602485fd5b8860649185519162461bcd60e51b8352820152601e60248201527f456e756d657261626c654d61703a206e6f6e6578697374656e74206b657900006044820152fd5b50601081528383205415156116cd565b8284346103665760209061042661181f36612275565b906148d6565b9050346103665760203660031901126103665780356001600160401b0381116103e7576118549136910161209c565b61185d816140bf565b925b81811061187b578451602080825281906102cc908201876120d0565b806103d8610d6061189061189594868861405b565b61315c565b61185f565b83833461031a578160031936011261031a576118b4612141565b602435906118c1816125af565b8210156118ef576001600160a01b031682526006602090815283832091835290815290829020548251908152f35b835162461bcd60e51b8152602081870152602b60248201527f455243373231456e756d657261626c653a206f776e657220696e646578206f7560448201526a74206f6620626f756e647360a81b6064820152608490fd5b839150346103e75760203660031901126103e75760209282913581526015845220549051908152f35b9050346103665760203660031901126103665780356001600160401b0381116103e75761199e9136910161209c565b6119a7816140bf565b925b8181106119c5578451602080825281906102cc908201876120d0565b806103d861040c6118906119da94868861405b565b6119a9565b905082346103e75760209182600319360112610549578035906001600160401b03821161054557611a159194939436910161209c565b9190611a208361406b565b611a2c83519182612573565b838152611a388461406b565b601f1901855b818110611b67575050611a50846140bf565b611a59856140f1565b92611a63866140f1565b95875b818110611b095750505083519687966080880160808952845180915260a089018360a08360051b8c0101960192905b828210611ad3578a8703858c01528a806102cc8c611ac58d8d611ab88e8e6120d0565b918683039087015261245b565b90838203606085015261245b565b919380611af4819798600194969a9b9c9d609f199082030186528a516122db565b9801920192018a999897969594939192611a95565b80611b39818a611b2e611b289d9e98999a9b9c9d611b5a96888a61405b565b356141a7565b929591949093614147565b52611b44848c614147565b52611b4f8389614147565b5261030f8289614147565b9897969594939298611a66565b9680929394959697611b77614082565b8282870101520196959493929196611a3e565b83833461031a57611b9a36612275565b92829083928452601760205261063981852095866146a9565b83833461031a57602036600319011261031a57506104266020923561468e565b82843461036657602090610426611be936612212565b939290926131d7565b823461031a576108a5611c04366121b0565b91611c1261088b8433612872565b612936565b8284346103665781600319360112610366576020906013549051908152f35b8284346103665781600319360112610366576020906008549051908152f35b9190503461031a578260031936011261031a578135916024356001600160401b0381116103e757611c889136910161209c565b929091611c94846140bf565b93815b818110611cb3578651602080825281906102cc908201896120d0565b806102fe611cc5611cd693858961405b565b358686526015602052898620612dfb565b611c97565b50503461031a57611ceb3661216d565b611cf7819392936140bf565b935b818110611d15578551602080825281906102cc908201886120d0565b80611d2e611d27611d3893858861405b565b3585614868565b61030f8288614147565b611cf9565b82843461036657816003193601126103665760209051428152f35b839150346103e757816003193601126103e757611d73612141565b6024359290916001600160a01b0391908280611d8e87612670565b16941693808514611e7a57803314908115611e5b575b5015611df357848652602052842080546001600160a01b03191683179055611dcb83612670565b167f8c5be1e5ebec7d5bd14f71427d1e84f3dd0314c0f7b2291e5b200ac8c7c3b9258480a480f35b6020608492519162461bcd60e51b8352820152603d60248201527f4552433732313a20617070726f76652063616c6c6572206973206e6f7420746f60448201527f6b656e206f776e6572206f7220617070726f76656420666f7220616c6c0000006064820152fd5b90508652600560205281862033875260205260ff828720541687611da4565b506020608492519162461bcd60e51b8352820152602160248201527f4552433732313a20617070726f76616c20746f2063757272656e74206f776e656044820152603960f91b6064820152fd5b83833461031a57602036600319011261031a5750610d0e6020923561275d565b50503461031a578060031936011261031a5781519182828354611f0981612695565b908184526020956001918783821691825f14610b6e575050600114611f3b575050506102cc9291610b04910385612573565b91908693508280527f290decd9548b62a8d60345a988386fc84ba6bc95484008f6362f93160ef3e5635b828410611f7e5750505082010181610b046102cc610af1565b8054848a018601528895508794909301928101611f65565b839150346103e75760203660031901126103e757359063ffffffff60e01b82168092036103e7576020925063780e9d6360e01b8214918215611fdc575b50519015158152f35b9091506380ac58cd60e01b8114908115612011575b8115612000575b509083611fd3565b6301ffc9a760e01b14905083611ff8565b635b5e139f60e01b81149150611ff1565b9050346103665782600319360112610366578035906024356001600160401b038111610549576120549136910161209c565b612060819392936140bf565b935b81811061207e578551602080825281906102cc908201886120d0565b80611d2e61209061209793858861405b565b35856148d6565b612062565b9181601f840112156120cc578235916001600160401b0383116120cc576020808501948460051b0101116120cc57565b5f80fd5b9081518082526020808093019301915f5b8281106120ef575050505090565b8351855293810193928101926001016120e1565b91908251928382525f5b84811061212d575050825f602080949584010152601f8019910116010190565b60208183018101518483018201520161210d565b600435906001600160a01b03821682036120cc57565b602435906001600160a01b03821682036120cc57565b9060406003198301126120cc576004356001600160a01b03811681036120cc5791602435906001600160401b0382116120cc576121ac9160040161209c565b9091565b60609060031901126120cc576001600160a01b039060043582811681036120cc579160243590811681036120cc579060443590565b9181601f840112156120cc578235916001600160401b0383116120cc57602083818601950101116120cc57565b600319906060818301126120cc576004356001600160401b03928382116120cc576101009082840301126120cc57600401926024358381116120cc578261225b916004016121e5565b939093926044359182116120cc576121ac916004016121e5565b60409060031901126120cc576004359060243590565b9081518082526020808093019301915f5b8281106122aa575050505090565b835180516001600160a01b031686528201516001600160601b0316858301526040909401939281019260010161229c565b6101009060018060a01b038151168352602080820151906001600160601b0380921681860152604061231881850151868389015286880190612103565b9461232f60609687870151898203898b0152612103565b946080928382015196898103858b01528580895192838152019801905f5b81811061243e5750505060a09687830151908a8103898c01528680835192838152019201905f5b81811061242a5750505061239560c091828501518c8481840391015261228b565b9660e0809401519a84818a0391015286808c51998a8152019b01985f965b8988106123c95750505050505050505050505090565b8a5180518e52808a01518e8b01528086015184168e870152808d015184168e8e0152808201516001600160401b03168e8301528083015184168e8401528085015184168e8601528601518d8701529b86019b998801996001909701966123b3565b825184529288019291880191600101612374565b825180518b528801518a890152988301989187019160010161234d565b90815180825260208092019182818360051b82019501935f915b8483106124855750505050505090565b909192939495848061249f83856001950387528a51612103565b9801930193019194939290612475565b602090816040818301928281528551809452019301915f5b8281106124d5575050505090565b83516001600160a01b0316855293810193928101926001016124c7565b61010081019081106001600160401b0382111761250e57604052565b634e487b7160e01b5f52604160045260245ffd5b604081019081106001600160401b0382111761250e57604052565b606081019081106001600160401b0382111761250e57604052565b602081019081106001600160401b0382111761250e57604052565b90601f801991011681019081106001600160401b0382111761250e57604052565b6001600160401b03811161250e57601f01601f191660200190565b6001600160a01b031680156125cd575f52600360205260405f205490565b60405162461bcd60e51b815260206004820152602960248201527f4552433732313a2061646472657373207a65726f206973206e6f7420612076616044820152683634b21037bbb732b960b91b6064820152608490fd5b1561262b57565b60405162461bcd60e51b815260206004820152601860248201527f4552433732313a20696e76616c696420746f6b656e20494400000000000000006044820152606490fd5b5f908152600260205260409020546001600160a01b0316612692811515612624565b90565b90600182811c921680156126c3575b60208310146126af57565b634e487b7160e01b5f52602260045260245ffd5b91607f16916126a4565b80545f93926126db82612695565b9182825260209360019182811690815f1461273e5750600114612700575b5050505050565b90939495505f92919252835f2092845f945b83861061272a57505050500101905f808080806126f9565b805485870183015294019385908201612712565b60ff19168685015250505090151560051b010191505f808080806126f9565b5f8181526002602052604090205461277f906001600160a01b03161515612624565b5f908152600460205260409020546001600160a01b031690565b156127a057565b60405162461bcd60e51b815260206004820152602d60248201527f4552433732313a2063616c6c6572206973206e6f7420746f6b656e206f776e6560448201526c1c881bdc88185c1c1c9bdd9959609a1b6064820152608490fd5b60809060208152603260208201527f4552433732313a207472616e7366657220746f206e6f6e20455243373231526560408201527131b2b4bb32b91034b6b83632b6b2b73a32b960711b60608201520190565b1561285557565b60405162461bcd60e51b81528061286e600482016127fb565b0390fd5b906001600160a01b03808061288684612670565b169316918383149384156128b9575b5083156128a3575b50505090565b6128af9192935061275d565b16145f808061289d565b9093505f52600560205260405f20825f5260205260ff60405f205416925f612895565b156128e357565b60405162461bcd60e51b815260206004820152602560248201527f4552433732313a207472616e736665722066726f6d20696e636f72726563742060448201526437bbb732b960d91b6064820152608490fd5b61295a9161294384612670565b6001600160a01b03938484169391851684146128dc565b838216938415612b8d57831591828015612b86575b15612b3157849215612a7c5750905060085490855f5260096020528160405f2055600160401b82101561250e576129d192866129b5611022856001899701600855612dc6565b90555b828603612a4a575b506129ca86612670565b16146128dc565b7fddf252ad1be2c89b69c2b068fc378daa952ba7f163c4a11628f55a4df523b3ef5f8481526004602052604081206001600160601b0360a01b908181541690558382526003602052604082205f1981540190558482526040822060018154019055858252600260205284604083209182541617905580a4565b612a53906125af565b60405f87815260066020528181208382526020528882822055888152600760205220555f6129c0565b858303612a8e575b506129d1926129b8565b612a999192506125af565b5f19810191908211612b1d576129d19284925f908882526020906007825260409182842054828103612ae6575b508a84528383812055868452600681528284209184525281205592612a84565b878552600682528385208386528252838520548886526006835284862082875283528085872055855260078252838520555f612ac6565b634e487b7160e01b5f52601160045260245ffd5b60405162461bcd60e51b815260206004820152602760248201527f746f6b656e732063616e6e6f74206265207472616e73666572726564206f6e206044820152661d195cdd1b995d60ca1b6064820152608490fd5b505f61296f565b60405162461bcd60e51b8152602060048201526024808201527f4552433732313a207472616e7366657220746f20746865207a65726f206164646044820152637265737360e01b6064820152608490fd5b91929091803b15612ced57612c2a936040519081630a85bd0160e11b938482523360048301525f9687602484015260448301526080606483015281878160209a8b966084830190612103565b03926001600160a01b03165af1849181612cad575b50612c9c575050503d5f14612c94573d612c5881612594565b90612c666040519283612573565b81528091833d92013e5b80519182612c915760405162461bcd60e51b81528061286e600482016127fb565b01fd5b506060612c70565b6001600160e01b0319161492509050565b9091508581813d8311612ce6575b612cc58183612573565b8101031261054557516001600160e01b03198116810361054557905f612c3f565b503d612cbb565b50915050600190565b9293919290803b15612d7357612d4a9460018060a01b039460405192839187630a85bd0160e11b9687855233600486015216602484015260448301526080606483015281806020998a956084830190612103565b03915f988991165af1849181612cad5750612c9c575050503d5f14612c94573d612c5881612594565b5050915050600190565b600f54811015612db257600f5f527f8d1108e10bcb7c27dddfc02ed9d693a074039d026cf4ea4240b40f7d581ac80201905f90565b634e487b7160e01b5f52603260045260245ffd5b600854811015612db25760085f527ff3f7a9fe364faab93b216da50a3214154f22a0a2b415b23a84c8169e8b636ee301905f90565b8054821015612db2575f5260205f2001905f90565b356001600160601b03811681036120cc5790565b35906001600160601b03821682036120cc57565b9035601e19823603018112156120cc5701602081359101916001600160401b0382116120cc5781360383136120cc57565b908060209392818452848401375f828201840152601f01601f1916010190565b9035601e19823603018112156120cc5701602081359101916001600160401b0382116120cc578160061b360383136120cc57565b9081356001600160a01b038116908190036120cc5781526001600160601b03612ee860208401612e24565b166020820152612f2f612f14612f016040850185612e38565b6101006040860152610100850191612e69565b612f216060850185612e38565b908483036060860152612e69565b916020612f3f6080830183612e89565b848603608086015280865294909101935f5b81811061313c5750505060a0810135601e19823603018112156120cc578101926020843594016001600160401b0385116120cc578460051b9485360382136120cc5784830360a08601528083526001600160fb1b03106120cc5784906020830137604060208583010194612fc860c0850185612e89565b84919760208885849801030160c089015252010193905f905b8082106130f85750505060e09081810135601e19823603018112156120cc570191602083359301936001600160401b0384116120cc578360081b360385136120cc57818360209383969596039101528281520192915f5b828110613046575050505090565b9091929384358152602085013560208201526001600160601b0361306c60408701612e24565b1660408201526001600160601b0361308660608701612e24565b1660608201526080850135906001600160401b0382168092036120cc57610100816001936080839401526001600160601b036130c460a08a01612e24565b1660a08201526001600160601b036130de60c08a01612e24565b1660c0820152878601358682015201950193929101613038565b90919485359060018060a01b0382168092036120cc576040816001938293526001600160601b0361312b60208b01612e24565b166020820152019601920190612fe1565b823586526020808401359087015260409586019590920191600101612f51565b356001600160a01b03811681036120cc5790565b903590601e19813603018212156120cc57018035906001600160401b0382116120cc576020019181360383136120cc57565b903590601e19813603018212156120cc57018035906001600160401b0382116120cc57602001918160051b360383136120cc57565b6018546040805163919a49b360e01b81526004810191909152929691959194919060209084906001600160a01b0316818061322c8c8a61321a604485018f612ebd565b84810360031901602486015291612e69565b03915afa928315613f49575f93613f15575b508295835f52600e6020524260405f20556132588161315c565b6040519061326582612558565b5f82526001600160a01b03811615613ed1575f8681526002602052604090205461329b906001600160a01b031615155b15613f54565b60085491865f5260096020528260405f2055600160401b83101561250e57866108a092816132d56110228760016133909901600855612dc6565b90556132e0816125af565b6001600160a01b038281165f9081526006602090815260408083208584528252808320879055868352600782528083209490945560029052919091205461332991161515613295565b6001600160a01b0381165f818152600360209081526040808320805460010190558583526002909152812080546001600160a01b031916831790558391907fddf252ad1be2c89b69c2b068fc378daa952ba7f163c4a11628f55a4df523b3ef8180a4612bde565b61339d6040820182613170565b6133c0602060405183819483830196873781015f83820152038084520182612573565b519020805f52600b60205260405f2054613e80575f52600b6020528360405f2055835f52600a60205260405f2060018060a01b036133fd8361315c565b82546001600160a01b031916911617815561343d61341d60208401612e10565b82546001600160a01b031660a09190911b6001600160a01b031916178255565b61344a6040830183613170565b906001600160401b03821161250e576134738261346a6001860154612695565b60018601614016565b5f90601f8311600114613e14576134a192915f9183613827575b50508160011b915f199060031b1c19161790565b60018201555b6134b46060830183613170565b906001600160401b03821161250e576134dd826134d46002860154612695565b60028601614016565b5f90601f8311600114613da85761350a92915f91836138275750508160011b915f199060031b1c19161790565b60028201555b61351d6080830183613fa0565b90600160401b821161250e576003830154826003850155808310613d5a575b50600383015f5260205f205f915b838310613d3a575050505061356260a08301836131a2565b906001600160401b03821161250e57600160401b821161250e576004830154826004850155808310613d10575b50600483015f5260205f205f5b838110613cfc57505050506135b460c0830183613fa0565b90600160401b821161250e576005830154826005850155808310613cd2575b5090600583015f5260205f205f925b828410613c69575050505060e0820135601e19833603018112156120cc5782016001600160401b038135116120cc57803560081b360360208201136120cc57600160401b81351161250e5760068201548135600684015580823510613c06575b5060066020820192015f5260205f205f925b82358410613ade57505050506136698161315c565b6136766060830183613170565b9081604051928392833781015f81520390209060018060a01b0316857fc0d62261ee30fa727eab11180362380f5a2d6af2c9ec2b14537843182c7c58265f80a46136c36080820182613fa0565b90505f5b818110613a7f5750508060a06136de9201906131a2565b60038111613a145760028111613990575b6001811161390c575b80155f816139045750612db2578135915b5f60018311156138fe57508160011015612db2576020810135915b5f60028211156138f5575060021015612db25760400135915b7fb237134d29775150b1edf87af1dc343262244af7cbb474cfc64cb6e8824af6636020604051888152a4825f52600c60205260405f20916001600160401b03821161250e57613796826137908554612695565b85614016565b5f90601f8311600114613892576137c392915f91836138275750508160011b915f199060031b1c19161790565b90555b5f52600d60205260405f20906001600160401b03811161250e576137f4816137ee8454612695565b84614016565b5f601f8211600114613832578190613823939495965f926138275750508160011b915f199060031b1c19161790565b9055565b013590505f8061348d565b601f198216958382526020822091805b88811061387a57508360019596979810613861575b505050811b019055565b01355f19600384901b60f8161c191690555f8080613857565b90926020600181928686013581550194019101613842565b8382526020822091601f198416815b8181106138dd57509084600195949392106138c4575b505050811b0190556137c6565b01355f19600384901b60f8161c191690555f80806138b7565b919360206001819287870135815501950192016138a1565b9150509161373d565b91613724565b905091613709565b8060011015612db25760dd60f81b60208301355f1a60f81b6001600160f81b031916016136f85760405162461bcd60e51b815260206004820152602f60248201527f4461746153746f726167653a206e6f742061636365707461626c65206368617260448201526e30b1ba32b910119034b7103a30b39960891b6064820152608490fd5b8060021015612db25760dd60f81b60408301355f1a60f81b6001600160f81b031916016136ef5760405162461bcd60e51b815260206004820152602f60248201527f4461746153746f726167653a206e6f742061636365707461626c65206368617260448201526e6163746572202320696e207461673360881b6064820152608490fd5b60405162461bcd60e51b815260206004820152603860248201527f4461746153746f726167653a2054616773206c656e677468206d75737420626560448201527f206c657373207468616e206f7220657175616c20746f203300000000000000006064820152608490fd5b80613a94613ad9926116486080870187613fa0565b35877f8e02102e2b8cc364a650b1d50e19bf3bb3df2f5c5f3a9ad3dc8413b6a99d3793602080613acb8661164860808c018c613fa0565b0135604051908152a3613fd5565b6136c7565b80358255602081013560018301556001600160601b03906002830182613b0660408401612e10565b16916001600160601b03199283835416178255613b58613b2860608301612e10565b83546bffffffffffffffffffffffff60601b191660609190911b6bffffffffffffffffffffffff60601b16178355565b60808101356001600160401b03811681036120cc5782546001600160c01b031660c09190911b6001600160c01b031916179091556001926005926101009291613bf0916003880191613bac60a08601612e10565b1690825416178155613bc060c08401612e10565b81546bffffffffffffffffffffffff60601b191660609190911b6bffffffffffffffffffffffff60601b16179055565b60e0810135600486015501920193019290613654565b6005818102048103612b1d5760058235810204823503612b1d57600683015f5260205f20823560050281015b8260050282018110613c45575050613642565b805f600592555f60018201555f60028201555f60038201555f600482015501613c32565b80356001600160a01b03811691908290036120cc5760406001929183926001600160601b0360a01b865416178555613cc6613ca660208301612e10565b86546001600160a01b031660a09190911b6001600160a01b031916178655565b019201930192906135e2565b600584015f5260205f20908382015b8183018110613cf15750506135d3565b5f8155600101613ce1565b60019060208435940193818401550161359c565b600484015f5260205f20908382015b8183018110613d2f57505061358f565b5f8155600101613d1f565b60026040826001933585556020810135848601550192019201919061354a565b6001600160ff1b038181168203612b1d5783168303612b1d57600384015f5260205f208360011b81015b8260011b82018110613d9757505061353c565b5f8082556001820155600201613d84565b6002849392930183526020832090835b601f1984168510613dfc576001945083601f19811610613de3575b505050811b016002820155613510565b01355f19600384901b60f8161c191690555f8080613dd3565b81810135835560209485019460019093019201613db8565b6001849392930183526020832090835b601f1984168510613e68576001945083601f19811610613e4f575b505050811b0160018201556134a7565b01355f19600384901b60f8161c191690555f8080613e3f565b81810135835560209485019460019093019201613e24565b60405162461bcd60e51b815260206004820152602360248201527f4461746153746f726167653a20555249207265676973746572656420616c726560448201526261647960e81b6064820152608490fd5b606460405162461bcd60e51b815260206004820152602060248201527f4552433732313a206d696e7420746f20746865207a65726f20616464726573736044820152fd5b90926020823d602011613f41575b81613f3060209383612573565b8101031261031a575051915f61323e565b3d9150613f23565b6040513d5f823e3d90fd5b15613f5b57565b60405162461bcd60e51b815260206004820152601c60248201527f4552433732313a20746f6b656e20616c7265616479206d696e746564000000006044820152606490fd5b903590601e19813603018212156120cc57018035906001600160401b0382116120cc57602001918160061b360383136120cc57565b5f198114612b1d5760010190565b9190811015612db25760061b0190565b91908203918211612b1d57565b81811061400b575050565b5f8155600101614000565b9190601f811161402557505050565b61404f925f5260205f20906020601f840160051c83019310614051575b601f0160051c0190614000565b565b9091508190614042565b9190811015612db25760051b0190565b6001600160401b03811161250e5760051b60200190565b6040519061408f826124f2565b815f81525f602082015260e060609182604082015282808201528260808201528260a08201528260c08201520152565b906140c98261406b565b6140d66040519182612573565b82815280926140e7601f199161406b565b0190602036910137565b906140fb8261406b565b6141086040519182612573565b8281528092614119601f199161406b565b01905f5b82811061412957505050565b80606060208093850101520161411d565b805115612db25760200190565b8051821015612db25760209160051b010190565b906040519182815491828252602092838301915f52835f20935f905b82821061418d5750505061404f92500383612573565b855484526001958601958895509381019390910190614177565b906141b0614082565b50815f52600a60205260405f20604051906141ca826124f2565b80546001600160a01b038116835260a01c60208301526040516141fb816141f481600186016126cd565b0382612573565b6040830152604051614214816141f481600286016126cd565b60608301526003810180546142288161406b565b916142366040519384612573565b81835260208301905f5260205f205f915b8383106143d4575050505060808301526142636004820161415b565b60a08301526005810180546142778161406b565b916142856040519384612573565b81835260208301905f5260205f205f915b8383106143a1575050505060c083015260060180546142b48161406b565b916142c26040519384612573565b81835260208301905f5260205f205f915b83831061432b575050505060e082015291805f52600e60205260405f205491600d6020526141f461430d60405f20604051928380926126cd565b915f52600c6020526141f461269260405f20604051928380926126cd565b6005602060019260405161433e816124f2565b85548152848601548382015260028601546001600160601b03908181166040840152818160601c16606084015260c01c6080830152600387015481811660a084015260601c1660c0820152600486015460e08201528152019201920191906142d3565b6001602081926040516143b381612522565b8554848060a01b038116825260a01c83820152815201920192019190614296565b600260206001926040516143e781612522565b855481528486015483820152815201920192019190614247565b5f52600a60205260405f20906040519161441a836124f2565b80546001600160a01b038116845260a01c6020840152604051614444816141f481600186016126cd565b604084015260405161445d816141f481600286016126cd565b60608401526003810180546144718161406b565b9161447f6040519384612573565b81835260208301905f5260205f205f915b838310614661575050505060808401526144ac6004820161415b565b60a084015260058101546144bf8161406b565b906144cd6040519283612573565b80825260208201600584015f5260205f205f915b83831061462e575050505060c084015260068101546144ff8161406b565b9161450d6040519384612573565b81835260066020840191015f5260205f205f915b8383106145b8575050505060e083015260c082015180516145b4575060405161454981612522565b600181525f5b602081106145915750915160405161458e918491906001600160a01b031661457682612522565b8152600160208201526145888261413a565b5261413a565b50565b6020906040516145a081612522565b5f81525f838201528282850101520161454f565b9150565b600560206001926040516145cb816124f2565b85548152848601548382015260028601546001600160601b03908181166040840152818160601c16606084015260c01c6080830152600387015481811660a084015260601c1660c0820152600486015460e0820152815201920192019190614521565b60016020819260405161464081612522565b8554848060a01b038116825260a01c838201528152019201920191906144e1565b6002602060019260405161467481612522565b855481528486015483820152815201920192019190614490565b61469790612d7d565b90549060031b1c805f52601160205290565b815f526002810160205260405f205491821591821592614713575b5050156146ce5790565b60405162461bcd60e51b815260206004820152601e60248201527f456e756d657261626c654d61703a206e6f6e6578697374656e74206b657900006044820152606490fd5b61472b92506001915f520160205260405f2054151590565b5f806146c4565b5f8181526010602052604081205461479257600f54600160401b81101561477e57908261476a61102284600160409601600f55612d7d565b9055600f5492815260106020522055600190565b634e487b7160e01b82526041600452602482fd5b905090565b5f8181526014602052604081205461479257601354600160401b81101561477e5760018101806013558110156148015790826040927f66de8ffda797e3de9c05e8fc57b3bf0ec28a930d40b0d285d93c06501cf6a090015560135492815260146020522055600190565b634e487b7160e01b82526032600452602482fd5b5f82815260018201602052604090205461486257805490600160401b82101561250e578261484d611022846001809601855584612dfb565b90558054925f520160205260405f2055600190565b50505f90565b60018060a01b03165f526012602052600261488760405f209283612dfb565b90549060031b1c91825f520160205290565b601354811015612db25760135f527f66de8ffda797e3de9c05e8fc57b3bf0ec28a930d40b0d285d93c06501cf6a09001546001600160a01b031690565b5f526017602052600261488760405f209283612dfb565b5f8281526017602052604081209061491383836001915f520160205260405f2054151590565b1561491f575b50505050565b614942938152601760205260408082205491848152600284016020522055614815565b505f80808061491956fea264697066735822122015287e2451ad5fb1b264e6d3f82930ed9bbe049d183647cbaa6f8755a801218f64736f6c63430008150033",
  "linkReferences": {},
  "deployedLinkReferences": {}
}