{
  "_format": "hh-sol-artifact-1",
  "contractName": "Katibeh721",
  "sourceName": "contracts/katibeh721/Katibeh721.sol",
  "abi": [
    {
      "inputs": [],
      "stateMutability": "nonpayable",
      "type": "constructor"
    },
    {
      "anonymous": false,
      "inputs": [
        {
          "indexed": true,
          "internalType": "address",
          "name": "owner",
          "type": "address"
        },
        {
          "indexed": true,
          "internalType": "address",
          "name": "approved",
          "type": "address"
        },
        {
          "indexed": true,
          "internalType": "uint256",
          "name": "tokenId",
          "type": "uint256"
        }
      ],
      "name": "Approval",
      "type": "event"
    },
    {
      "anonymous": false,
      "inputs": [
        {
          "indexed": true,
          "internalType": "address",
          "name": "owner",
          "type": "address"
        },
        {
          "indexed": true,
          "internalType": "address",
          "name": "operator",
          "type": "address"
        },
        {
          "indexed": false,
          "internalType": "bool",
          "name": "approved",
          "type": "bool"
        }
      ],
      "name": "ApprovalForAll",
      "type": "event"
    },
    {
      "anonymous": false,
      "inputs": [
        {
          "indexed": true,
          "internalType": "uint256",
          "name": "tokenId",
          "type": "uint256"
        },
        {
          "indexed": true,
          "internalType": "uint256",
          "name": "toTokenId",
          "type": "uint256"
        }
      ],
      "name": "NewReply",
      "type": "event"
    },
    {
      "anonymous": false,
      "inputs": [
        {
          "indexed": true,
          "internalType": "uint256",
          "name": "tokenId",
          "type": "uint256"
        },
        {
          "indexed": true,
          "internalType": "address",
          "name": "creator",
          "type": "address"
        },
        {
          "indexed": true,
          "internalType": "bytes",
          "name": "data",
          "type": "bytes"
        },
        {
          "indexed": false,
          "internalType": "uint256",
          "name": "signTime",
          "type": "uint256"
        },
        {
          "indexed": false,
          "internalType": "uint256",
          "name": "initTime",
          "type": "uint256"
        },
        {
          "indexed": false,
          "internalType": "uint256",
          "name": "expTime",
          "type": "uint256"
        }
      ],
      "name": "NewToken",
      "type": "event"
    },
    {
      "anonymous": false,
      "inputs": [
        {
          "indexed": false,
          "internalType": "uint256",
          "name": "tokenId",
          "type": "uint256"
        },
        {
          "indexed": true,
          "internalType": "bytes32",
          "name": "tag1",
          "type": "bytes32"
        },
        {
          "indexed": true,
          "internalType": "bytes32",
          "name": "tag2",
          "type": "bytes32"
        },
        {
          "indexed": true,
          "internalType": "bytes32",
          "name": "tag3",
          "type": "bytes32"
        }
      ],
      "name": "Tags",
      "type": "event"
    },
    {
      "anonymous": false,
      "inputs": [
        {
          "indexed": true,
          "internalType": "address",
          "name": "from",
          "type": "address"
        },
        {
          "indexed": true,
          "internalType": "address",
          "name": "to",
          "type": "address"
        },
        {
          "indexed": true,
          "internalType": "uint256",
          "name": "tokenId",
          "type": "uint256"
        }
      ],
      "name": "Transfer",
      "type": "event"
    },
    {
      "inputs": [
        {
          "internalType": "address",
          "name": "to",
          "type": "address"
        },
        {
          "internalType": "uint256",
          "name": "tokenId",
          "type": "uint256"
        }
      ],
      "name": "approve",
      "outputs": [],
      "stateMutability": "nonpayable",
      "type": "function"
    },
    {
      "inputs": [
        {
          "internalType": "address",
          "name": "owner",
          "type": "address"
        }
      ],
      "name": "balanceOf",
      "outputs": [
        {
          "internalType": "uint256",
          "name": "",
          "type": "uint256"
        }
      ],
      "stateMutability": "view",
      "type": "function"
    },
    {
      "inputs": [
        {
          "internalType": "uint256",
          "name": "tokenId",
          "type": "uint256"
        }
      ],
      "name": "burn",
      "outputs": [],
      "stateMutability": "nonpayable",
      "type": "function"
    },
    {
      "inputs": [],
      "name": "creatorAddresses",
      "outputs": [
        {
          "internalType": "address[]",
          "name": "creator",
          "type": "address[]"
        }
      ],
      "stateMutability": "view",
      "type": "function"
    },
    {
      "inputs": [
        {
          "internalType": "uint256",
          "name": "index",
          "type": "uint256"
        }
      ],
      "name": "creatorByIndex",
      "outputs": [
        {
          "internalType": "address",
          "name": "creator",
          "type": "address"
        }
      ],
      "stateMutability": "view",
      "type": "function"
    },
    {
      "inputs": [
        {
          "internalType": "uint256[]",
          "name": "index",
          "type": "uint256[]"
        }
      ],
      "name": "creatorsByIndexBatch",
      "outputs": [
        {
          "internalType": "address[]",
          "name": "creator",
          "type": "address[]"
        }
      ],
      "stateMutability": "view",
      "type": "function"
    },
    {
      "inputs": [
        {
          "internalType": "uint256",
          "name": "tokenId",
          "type": "uint256"
        }
      ],
      "name": "getApproved",
      "outputs": [
        {
          "internalType": "address",
          "name": "",
          "type": "address"
        }
      ],
      "stateMutability": "view",
      "type": "function"
    },
    {
      "inputs": [
        {
          "components": [
            {
              "internalType": "address",
              "name": "creator",
              "type": "address"
            },
            {
              "internalType": "uint256",
              "name": "signTime",
              "type": "uint256"
            },
            {
              "internalType": "uint256",
              "name": "initTime",
              "type": "uint256"
            },
            {
              "internalType": "uint256",
              "name": "expTime",
              "type": "uint256"
            },
            {
              "internalType": "string",
              "name": "tokenURI",
              "type": "string"
            },
            {
              "internalType": "bytes",
              "name": "data",
              "type": "bytes"
            },
            {
              "internalType": "uint256[]",
              "name": "toTokenId",
              "type": "uint256[]"
            },
            {
              "internalType": "bytes32[]",
              "name": "tags",
              "type": "bytes32[]"
            },
            {
              "components": [
                {
                  "internalType": "address",
                  "name": "addr",
                  "type": "address"
                },
                {
                  "internalType": "uint16",
                  "name": "share",
                  "type": "uint16"
                }
              ],
              "internalType": "struct DataStorage.Payee[]",
              "name": "owners",
              "type": "tuple[]"
            }
          ],
          "internalType": "struct DataStorage.Katibeh",
          "name": "katibeh",
          "type": "tuple"
        }
      ],
      "name": "getHash",
      "outputs": [
        {
          "internalType": "bytes32",
          "name": "",
          "type": "bytes32"
        }
      ],
      "stateMutability": "view",
      "type": "function"
    },
    {
      "inputs": [
        {
          "internalType": "bytes32",
          "name": "uriHash",
          "type": "bytes32"
        }
      ],
      "name": "getUriId",
      "outputs": [
        {
          "internalType": "uint256",
          "name": "",
          "type": "uint256"
        }
      ],
      "stateMutability": "view",
      "type": "function"
    },
    {
      "inputs": [
        {
          "internalType": "address",
          "name": "owner",
          "type": "address"
        },
        {
          "internalType": "address",
          "name": "operator",
          "type": "address"
        }
      ],
      "name": "isApprovedForAll",
      "outputs": [
        {
          "internalType": "bool",
          "name": "",
          "type": "bool"
        }
      ],
      "stateMutability": "view",
      "type": "function"
    },
    {
      "inputs": [],
      "name": "name",
      "outputs": [
        {
          "internalType": "string",
          "name": "",
          "type": "string"
        }
      ],
      "stateMutability": "view",
      "type": "function"
    },
    {
      "inputs": [],
      "name": "numberOfCreators",
      "outputs": [
        {
          "internalType": "uint256",
          "name": "",
          "type": "uint256"
        }
      ],
      "stateMutability": "view",
      "type": "function"
    },
    {
      "inputs": [
        {
          "internalType": "address",
          "name": "toCreator",
          "type": "address"
        }
      ],
      "name": "numberOfRepliesToCreator",
      "outputs": [
        {
          "internalType": "uint256",
          "name": "",
          "type": "uint256"
        }
      ],
      "stateMutability": "view",
      "type": "function"
    },
    {
      "inputs": [
        {
          "internalType": "address[]",
          "name": "toCreator",
          "type": "address[]"
        }
      ],
      "name": "numberOfRepliesToCreatorBatch",
      "outputs": [
        {
          "internalType": "uint256[]",
          "name": "count",
          "type": "uint256[]"
        }
      ],
      "stateMutability": "view",
      "type": "function"
    },
    {
      "inputs": [
        {
          "internalType": "uint256",
          "name": "tokenId",
          "type": "uint256"
        }
      ],
      "name": "numberOfTokenReplies",
      "outputs": [
        {
          "internalType": "uint256",
          "name": "",
          "type": "uint256"
        }
      ],
      "stateMutability": "view",
      "type": "function"
    },
    {
      "inputs": [
        {
          "internalType": "uint256[]",
          "name": "tokenId",
          "type": "uint256[]"
        }
      ],
      "name": "numberOfTokenRepliesBatch",
      "outputs": [
        {
          "internalType": "uint256[]",
          "name": "count",
          "type": "uint256[]"
        }
      ],
      "stateMutability": "view",
      "type": "function"
    },
    {
      "inputs": [
        {
          "internalType": "bytes32",
          "name": "tag",
          "type": "bytes32"
        }
      ],
      "name": "numberOfTokensByTag",
      "outputs": [
        {
          "internalType": "uint256",
          "name": "",
          "type": "uint256"
        }
      ],
      "stateMutability": "view",
      "type": "function"
    },
    {
      "inputs": [
        {
          "internalType": "bytes32[]",
          "name": "tag",
          "type": "bytes32[]"
        }
      ],
      "name": "numberOfTokensByTagBatch",
      "outputs": [
        {
          "internalType": "uint256[]",
          "name": "count",
          "type": "uint256[]"
        }
      ],
      "stateMutability": "view",
      "type": "function"
    },
    {
      "inputs": [
        {
          "internalType": "address",
          "name": "creator",
          "type": "address"
        }
      ],
      "name": "numberOfTokensOfCreator",
      "outputs": [
        {
          "internalType": "uint256",
          "name": "",
          "type": "uint256"
        }
      ],
      "stateMutability": "view",
      "type": "function"
    },
    {
      "inputs": [
        {
          "internalType": "address[]",
          "name": "creator",
          "type": "address[]"
        }
      ],
      "name": "numberOfTokensOfCreatorBatch",
      "outputs": [
        {
          "internalType": "uint256[]",
          "name": "count",
          "type": "uint256[]"
        }
      ],
      "stateMutability": "view",
      "type": "function"
    },
    {
      "inputs": [],
      "name": "numberOfTokensTraceable",
      "outputs": [
        {
          "internalType": "uint256",
          "name": "count",
          "type": "uint256"
        }
      ],
      "stateMutability": "view",
      "type": "function"
    },
    {
      "inputs": [
        {
          "internalType": "uint256",
          "name": "tokenId",
          "type": "uint256"
        }
      ],
      "name": "ownerOf",
      "outputs": [
        {
          "internalType": "address",
          "name": "",
          "type": "address"
        }
      ],
      "stateMutability": "view",
      "type": "function"
    },
    {
      "inputs": [
        {
          "internalType": "address",
          "name": "toCreator",
          "type": "address"
        }
      ],
      "name": "repliesToCreator",
      "outputs": [
        {
          "internalType": "uint256[]",
          "name": "ids",
          "type": "uint256[]"
        }
      ],
      "stateMutability": "view",
      "type": "function"
    },
    {
      "inputs": [
        {
          "internalType": "address",
          "name": "toCreator",
          "type": "address"
        },
        {
          "internalType": "uint256",
          "name": "index",
          "type": "uint256"
        }
      ],
      "name": "repliesToCreatorByIndex",
      "outputs": [
        {
          "internalType": "uint256",
          "name": "id",
          "type": "uint256"
        }
      ],
      "stateMutability": "view",
      "type": "function"
    },
    {
      "inputs": [
        {
          "internalType": "address",
          "name": "toCreator",
          "type": "address"
        },
        {
          "internalType": "uint256[]",
          "name": "index",
          "type": "uint256[]"
        }
      ],
      "name": "repliesToCreatorByIndexBatch",
      "outputs": [
        {
          "internalType": "uint256[]",
          "name": "id",
          "type": "uint256[]"
        }
      ],
      "stateMutability": "view",
      "type": "function"
    },
    {
      "inputs": [
        {
          "components": [
            {
              "internalType": "address",
              "name": "creator",
              "type": "address"
            },
            {
              "internalType": "uint256",
              "name": "signTime",
              "type": "uint256"
            },
            {
              "internalType": "uint256",
              "name": "initTime",
              "type": "uint256"
            },
            {
              "internalType": "uint256",
              "name": "expTime",
              "type": "uint256"
            },
            {
              "internalType": "string",
              "name": "tokenURI",
              "type": "string"
            },
            {
              "internalType": "bytes",
              "name": "data",
              "type": "bytes"
            },
            {
              "internalType": "uint256[]",
              "name": "toTokenId",
              "type": "uint256[]"
            },
            {
              "internalType": "bytes32[]",
              "name": "tags",
              "type": "bytes32[]"
            },
            {
              "components": [
                {
                  "internalType": "address",
                  "name": "addr",
                  "type": "address"
                },
                {
                  "internalType": "uint16",
                  "name": "share",
                  "type": "uint16"
                }
              ],
              "internalType": "struct DataStorage.Payee[]",
              "name": "owners",
              "type": "tuple[]"
            }
          ],
          "internalType": "struct DataStorage.Katibeh",
          "name": "katibeh",
          "type": "tuple"
        },
        {
          "internalType": "bytes",
          "name": "sig",
          "type": "bytes"
        },
        {
          "internalType": "bytes",
          "name": "dappData",
          "type": "bytes"
        }
      ],
      "name": "safeMint",
      "outputs": [
        {
          "internalType": "uint256",
          "name": "tokenId",
          "type": "uint256"
        }
      ],
      "stateMutability": "nonpayable",
      "type": "function"
    },
    {
      "inputs": [
        {
          "components": [
            {
              "internalType": "address",
              "name": "creator",
              "type": "address"
            },
            {
              "internalType": "uint256",
              "name": "signTime",
              "type": "uint256"
            },
            {
              "internalType": "uint256",
              "name": "initTime",
              "type": "uint256"
            },
            {
              "internalType": "uint256",
              "name": "expTime",
              "type": "uint256"
            },
            {
              "internalType": "string",
              "name": "tokenURI",
              "type": "string"
            },
            {
              "internalType": "bytes",
              "name": "data",
              "type": "bytes"
            },
            {
              "internalType": "uint256[]",
              "name": "toTokenId",
              "type": "uint256[]"
            },
            {
              "internalType": "bytes32[]",
              "name": "tags",
              "type": "bytes32[]"
            },
            {
              "components": [
                {
                  "internalType": "address",
                  "name": "addr",
                  "type": "address"
                },
                {
                  "internalType": "uint16",
                  "name": "share",
                  "type": "uint16"
                }
              ],
              "internalType": "struct DataStorage.Payee[]",
              "name": "owners",
              "type": "tuple[]"
            }
          ],
          "internalType": "struct DataStorage.Katibeh",
          "name": "katibeh",
          "type": "tuple"
        },
        {
          "internalType": "bytes",
          "name": "sig",
          "type": "bytes"
        },
        {
          "internalType": "bytes",
          "name": "dappData",
          "type": "bytes"
        }
      ],
      "name": "safeMintAndSetTraceStorage",
      "outputs": [],
      "stateMutability": "nonpayable",
      "type": "function"
    },
    {
      "inputs": [
        {
          "internalType": "address",
          "name": "from",
          "type": "address"
        },
        {
          "internalType": "address",
          "name": "to",
          "type": "address"
        },
        {
          "internalType": "uint256",
          "name": "tokenId",
          "type": "uint256"
        }
      ],
      "name": "safeTransferFrom",
      "outputs": [],
      "stateMutability": "nonpayable",
      "type": "function"
    },
    {
      "inputs": [
        {
          "internalType": "address",
          "name": "from",
          "type": "address"
        },
        {
          "internalType": "address",
          "name": "to",
          "type": "address"
        },
        {
          "internalType": "uint256",
          "name": "tokenId",
          "type": "uint256"
        },
        {
          "internalType": "bytes",
          "name": "data",
          "type": "bytes"
        }
      ],
      "name": "safeTransferFrom",
      "outputs": [],
      "stateMutability": "nonpayable",
      "type": "function"
    },
    {
      "inputs": [
        {
          "internalType": "address",
          "name": "operator",
          "type": "address"
        },
        {
          "internalType": "bool",
          "name": "approved",
          "type": "bool"
        }
      ],
      "name": "setApprovalForAll",
      "outputs": [],
      "stateMutability": "nonpayable",
      "type": "function"
    },
    {
      "inputs": [
        {
          "internalType": "bytes4",
          "name": "interfaceId",
          "type": "bytes4"
        }
      ],
      "name": "supportsInterface",
      "outputs": [
        {
          "internalType": "bool",
          "name": "",
          "type": "bool"
        }
      ],
      "stateMutability": "view",
      "type": "function"
    },
    {
      "inputs": [],
      "name": "symbol",
      "outputs": [
        {
          "internalType": "string",
          "name": "",
          "type": "string"
        }
      ],
      "stateMutability": "view",
      "type": "function"
    },
    {
      "inputs": [],
      "name": "timeStamp",
      "outputs": [
        {
          "internalType": "uint256",
          "name": "",
          "type": "uint256"
        }
      ],
      "stateMutability": "view",
      "type": "function"
    },
    {
      "inputs": [
        {
          "internalType": "uint256",
          "name": "index",
          "type": "uint256"
        }
      ],
      "name": "tokenByIndex",
      "outputs": [
        {
          "internalType": "uint256",
          "name": "",
          "type": "uint256"
        }
      ],
      "stateMutability": "view",
      "type": "function"
    },
    {
      "inputs": [
        {
          "internalType": "uint256",
          "name": "index",
          "type": "uint256"
        }
      ],
      "name": "tokenByIndexTraceable",
      "outputs": [
        {
          "internalType": "uint256",
          "name": "id",
          "type": "uint256"
        }
      ],
      "stateMutability": "view",
      "type": "function"
    },
    {
      "inputs": [
        {
          "internalType": "uint256",
          "name": "tokenId",
          "type": "uint256"
        }
      ],
      "name": "tokenInfo",
      "outputs": [
        {
          "components": [
            {
              "internalType": "address",
              "name": "creator",
              "type": "address"
            },
            {
              "internalType": "uint256",
              "name": "signTime",
              "type": "uint256"
            },
            {
              "internalType": "uint256",
              "name": "initTime",
              "type": "uint256"
            },
            {
              "internalType": "uint256",
              "name": "expTime",
              "type": "uint256"
            },
            {
              "internalType": "string",
              "name": "tokenURI",
              "type": "string"
            },
            {
              "internalType": "bytes",
              "name": "data",
              "type": "bytes"
            },
            {
              "internalType": "uint256[]",
              "name": "toTokenId",
              "type": "uint256[]"
            },
            {
              "internalType": "bytes32[]",
              "name": "tags",
              "type": "bytes32[]"
            },
            {
              "components": [
                {
                  "internalType": "address",
                  "name": "addr",
                  "type": "address"
                },
                {
                  "internalType": "uint16",
                  "name": "share",
                  "type": "uint16"
                }
              ],
              "internalType": "struct DataStorage.Payee[]",
              "name": "owners",
              "type": "tuple[]"
            }
          ],
          "internalType": "struct DataStorage.Katibeh",
          "name": "katibeh",
          "type": "tuple"
        },
        {
          "internalType": "uint256",
          "name": "mintTime",
          "type": "uint256"
        },
        {
          "internalType": "bytes",
          "name": "sig",
          "type": "bytes"
        },
        {
          "internalType": "bytes",
          "name": "dappData",
          "type": "bytes"
        }
      ],
      "stateMutability": "view",
      "type": "function"
    },
    {
      "inputs": [
        {
          "internalType": "uint256",
          "name": "",
          "type": "uint256"
        }
      ],
      "name": "tokenMintTime",
      "outputs": [
        {
          "internalType": "uint256",
          "name": "",
          "type": "uint256"
        }
      ],
      "stateMutability": "view",
      "type": "function"
    },
    {
      "inputs": [
        {
          "internalType": "address",
          "name": "creator",
          "type": "address"
        },
        {
          "internalType": "uint256",
          "name": "index",
          "type": "uint256"
        }
      ],
      "name": "tokenOfCreatorByIndex",
      "outputs": [
        {
          "internalType": "uint256",
          "name": "id",
          "type": "uint256"
        }
      ],
      "stateMutability": "view",
      "type": "function"
    },
    {
      "inputs": [
        {
          "internalType": "address",
          "name": "owner",
          "type": "address"
        },
        {
          "internalType": "uint256",
          "name": "index",
          "type": "uint256"
        }
      ],
      "name": "tokenOfOwnerByIndex",
      "outputs": [
        {
          "internalType": "uint256",
          "name": "",
          "type": "uint256"
        }
      ],
      "stateMutability": "view",
      "type": "function"
    },
    {
      "inputs": [
        {
          "internalType": "bytes32",
          "name": "tag",
          "type": "bytes32"
        },
        {
          "internalType": "uint256",
          "name": "index",
          "type": "uint256"
        }
      ],
      "name": "tokenOfTagByIndex",
      "outputs": [
        {
          "internalType": "uint256",
          "name": "id",
          "type": "uint256"
        }
      ],
      "stateMutability": "view",
      "type": "function"
    },
    {
      "inputs": [
        {
          "internalType": "uint256",
          "name": "tokenId",
          "type": "uint256"
        }
      ],
      "name": "tokenReplies",
      "outputs": [
        {
          "internalType": "uint256[]",
          "name": "ids",
          "type": "uint256[]"
        }
      ],
      "stateMutability": "view",
      "type": "function"
    },
    {
      "inputs": [
        {
          "internalType": "uint256",
          "name": "tokenId",
          "type": "uint256"
        },
        {
          "internalType": "uint256[]",
          "name": "index",
          "type": "uint256[]"
        }
      ],
      "name": "tokenRepliesByIndexBatch",
      "outputs": [
        {
          "internalType": "uint256[]",
          "name": "id",
          "type": "uint256[]"
        }
      ],
      "stateMutability": "view",
      "type": "function"
    },
    {
      "inputs": [
        {
          "internalType": "uint256",
          "name": "tokenId",
          "type": "uint256"
        },
        {
          "internalType": "uint256",
          "name": "index",
          "type": "uint256"
        }
      ],
      "name": "tokenReplyByIndex",
      "outputs": [
        {
          "internalType": "uint256",
          "name": "id",
          "type": "uint256"
        }
      ],
      "stateMutability": "view",
      "type": "function"
    },
    {
      "inputs": [
        {
          "internalType": "uint256",
          "name": "tokenId",
          "type": "uint256"
        }
      ],
      "name": "tokenURI",
      "outputs": [
        {
          "internalType": "string",
          "name": "",
          "type": "string"
        }
      ],
      "stateMutability": "view",
      "type": "function"
    },
    {
      "inputs": [
        {
          "internalType": "uint256[]",
          "name": "index",
          "type": "uint256[]"
        }
      ],
      "name": "tokensByIndexTraceableBatch",
      "outputs": [
        {
          "internalType": "uint256[]",
          "name": "id",
          "type": "uint256[]"
        }
      ],
      "stateMutability": "view",
      "type": "function"
    },
    {
      "inputs": [
        {
          "internalType": "uint256[]",
          "name": "tokenId",
          "type": "uint256[]"
        }
      ],
      "name": "tokensInfoBatch",
      "outputs": [
        {
          "components": [
            {
              "internalType": "address",
              "name": "creator",
              "type": "address"
            },
            {
              "internalType": "uint256",
              "name": "signTime",
              "type": "uint256"
            },
            {
              "internalType": "uint256",
              "name": "initTime",
              "type": "uint256"
            },
            {
              "internalType": "uint256",
              "name": "expTime",
              "type": "uint256"
            },
            {
              "internalType": "string",
              "name": "tokenURI",
              "type": "string"
            },
            {
              "internalType": "bytes",
              "name": "data",
              "type": "bytes"
            },
            {
              "internalType": "uint256[]",
              "name": "toTokenId",
              "type": "uint256[]"
            },
            {
              "internalType": "bytes32[]",
              "name": "tags",
              "type": "bytes32[]"
            },
            {
              "components": [
                {
                  "internalType": "address",
                  "name": "addr",
                  "type": "address"
                },
                {
                  "internalType": "uint16",
                  "name": "share",
                  "type": "uint16"
                }
              ],
              "internalType": "struct DataStorage.Payee[]",
              "name": "owners",
              "type": "tuple[]"
            }
          ],
          "internalType": "struct DataStorage.Katibeh[]",
          "name": "katibeh",
          "type": "tuple[]"
        },
        {
          "internalType": "uint256[]",
          "name": "mintTime",
          "type": "uint256[]"
        },
        {
          "internalType": "bytes[]",
          "name": "sig",
          "type": "bytes[]"
        },
        {
          "internalType": "bytes[]",
          "name": "dappData",
          "type": "bytes[]"
        }
      ],
      "stateMutability": "view",
      "type": "function"
    },
    {
      "inputs": [
        {
          "internalType": "address",
          "name": "creator",
          "type": "address"
        }
      ],
      "name": "tokensOfCreator",
      "outputs": [
        {
          "internalType": "uint256[]",
          "name": "ids",
          "type": "uint256[]"
        }
      ],
      "stateMutability": "view",
      "type": "function"
    },
    {
      "inputs": [
        {
          "internalType": "address",
          "name": "creator",
          "type": "address"
        },
        {
          "internalType": "uint256[]",
          "name": "index",
          "type": "uint256[]"
        }
      ],
      "name": "tokensOfCreatorByIndexBatch",
      "outputs": [
        {
          "internalType": "uint256[]",
          "name": "id",
          "type": "uint256[]"
        }
      ],
      "stateMutability": "view",
      "type": "function"
    },
    {
      "inputs": [
        {
          "internalType": "bytes32",
          "name": "tag",
          "type": "bytes32"
        }
      ],
      "name": "tokensOfTag",
      "outputs": [
        {
          "internalType": "uint256[]",
          "name": "ids",
          "type": "uint256[]"
        }
      ],
      "stateMutability": "view",
      "type": "function"
    },
    {
      "inputs": [
        {
          "internalType": "bytes32",
          "name": "tag",
          "type": "bytes32"
        },
        {
          "internalType": "uint256[]",
          "name": "index",
          "type": "uint256[]"
        }
      ],
      "name": "tokensOfTagByIndexBatch",
      "outputs": [
        {
          "internalType": "uint256[]",
          "name": "id",
          "type": "uint256[]"
        }
      ],
      "stateMutability": "view",
      "type": "function"
    },
    {
      "inputs": [],
      "name": "totalSupply",
      "outputs": [
        {
          "internalType": "uint256",
          "name": "",
          "type": "uint256"
        }
      ],
      "stateMutability": "view",
      "type": "function"
    },
    {
      "inputs": [
        {
          "internalType": "address",
          "name": "creator",
          "type": "address"
        },
        {
          "internalType": "uint256",
          "name": "id",
          "type": "uint256"
        }
      ],
      "name": "traceTokenByCreator",
      "outputs": [
        {
          "internalType": "uint256",
          "name": "numberOfPreviousIds",
          "type": "uint256"
        },
        {
          "internalType": "uint256",
          "name": "numberOfNextIds",
          "type": "uint256"
        },
        {
          "internalType": "uint256",
          "name": "previousId",
          "type": "uint256"
        },
        {
          "internalType": "uint256",
          "name": "nextId",
          "type": "uint256"
        }
      ],
      "stateMutability": "view",
      "type": "function"
    },
    {
      "inputs": [
        {
          "internalType": "uint256",
          "name": "id",
          "type": "uint256"
        }
      ],
      "name": "traceTokenById",
      "outputs": [
        {
          "internalType": "uint256",
          "name": "numberOfPreviousIds",
          "type": "uint256"
        },
        {
          "internalType": "uint256",
          "name": "numberOfNextIds",
          "type": "uint256"
        },
        {
          "internalType": "uint256",
          "name": "previousId",
          "type": "uint256"
        },
        {
          "internalType": "uint256",
          "name": "nextId",
          "type": "uint256"
        }
      ],
      "stateMutability": "view",
      "type": "function"
    },
    {
      "inputs": [
        {
          "internalType": "bytes32",
          "name": "tag",
          "type": "bytes32"
        },
        {
          "internalType": "uint256",
          "name": "id",
          "type": "uint256"
        }
      ],
      "name": "traceTokenByTag",
      "outputs": [
        {
          "internalType": "uint256",
          "name": "numberOfPreviousIds",
          "type": "uint256"
        },
        {
          "internalType": "uint256",
          "name": "numberOfNextIds",
          "type": "uint256"
        },
        {
          "internalType": "uint256",
          "name": "previousId",
          "type": "uint256"
        },
        {
          "internalType": "uint256",
          "name": "nextId",
          "type": "uint256"
        }
      ],
      "stateMutability": "view",
      "type": "function"
    },
    {
      "inputs": [
        {
          "internalType": "address",
          "name": "from",
          "type": "address"
        },
        {
          "internalType": "address",
          "name": "to",
          "type": "address"
        },
        {
          "internalType": "uint256",
          "name": "tokenId",
          "type": "uint256"
        }
      ],
      "name": "transferFrom",
      "outputs": [],
      "stateMutability": "nonpayable",
      "type": "function"
    }
  ],
  "bytecode": "0x60803462000311576001600160401b039060409080820183811182821017620002fb578252600a8152602092694b61746962656837323160b01b84830152825183810181811083821117620002fb578452600781526609682a892848a960cb1b85820152825190828211620002fb5760008054926001958685811c95168015620002f0575b89861014620002dc578190601f9586811162000289575b5089908683116001146200022557849262000219575b5050600019600383901b1c191690861b1781555b8151938411620002055784548581811c91168015620001fa575b88821014620001e6578381116200019e575b508692841160011462000138578394959650926200012c575b5050600019600383901b1c191690821b1790555b516155ba9081620003178239f35b0151905038806200010a565b9190601f1984169685845280842093905b8882106200018657505083859697106200016c575b505050811b0190556200011e565b015160001960f88460031b161c191690553880806200015e565b80878596829496860151815501950193019062000149565b8582528782208480870160051c8201928a8810620001dc575b0160051c019086905b828110620001d0575050620000f1565b838155018690620001c0565b92508192620001b7565b634e487b7160e01b82526022600452602482fd5b90607f1690620000df565b634e487b7160e01b81526041600452602490fd5b015190503880620000b1565b8480528a85208994509190601f198416865b8d82821062000272575050841162000258575b505050811b018155620000c5565b015160001960f88460031b161c191690553880806200024a565b8385015186558c9790950194938401930162000237565b9091508380528984208680850160051c8201928c8610620002d2575b918a91869594930160051c01915b828110620002c35750506200009b565b8681558594508a9101620002b3565b92508192620002a5565b634e487b7160e01b83526022600452602483fd5b94607f169462000084565b634e487b7160e01b600052604160045260246000fd5b600080fdfe60406080815260048036101561001457600080fd5b600090813560e01c908163017642e414612c9957816301ffc9a714612b7257816306fdde0314612aac578163081812fc14612a59578163095ea7b3146128595781630ab0df8714612820578163132e75d6146127be5781631674ed4b1461271957816318160ddd146126dc5781631ae69b611461269f57816323b872dd1461267a578163261566361461263c57816329c7785f146126135781632b0eca8c1461240e5781632c2309011461237f5781632e0d0718146123385781632f745c591461223557816331d99545146121a15781633552d2201461218557816339d77f2514611f7457816340b9475714611ed257816342842e0e14611e9e57816342966c68146119895781634667c884146119425781634832e8f31461169f5781634f6ccce7146115d05781634fc092751461158957816360f6a4a3146115235781636352211e146114d0578163662ec09e146110c95781636d571b6a1461106e57816370a082311461102a5781637372e98d1461100b5781637829223614610fc45781638282674f14610f7b57816383b81ebd14610f345781638f93fb3914610e9357816395d89b4114610d8657816396cc6a3414610ceb578163a22cb46514610bbc578163af3ea10514610b26578163b158220114610aaf578163b88d4fde146109dd578163bfc9b36414610993578163c03d1d911461089e578163c3512876146106e1578163c87b56dd14610673578163cc33c875146105f8578163cca3c7661461054f578163dd46879114610512578163e985e9c514610499578163f353a7321461042c578163f6bd7ab81461038c57508063f99458a4146103155763fe649b7e1461027f57600080fd5b346103125761028d36612e61565b9261029a84939293614f16565b93815b8181106102bd578651602080825281906102b990820189612d68565b0390f35b806102f66102cf61030d938589614e48565b3573ffffffffffffffffffffffffffffffffffffffff871686526016602052898620613e73565b90549060031b1c6103078289614fcc565b52614e1b565b61029d565b80fd5b50903461038857807ffffffffffffffffffffffffffffffffffffffffffffffffffffffffffffffffc3601126103885761037a60209273ffffffffffffffffffffffffffffffffffffffff610368612dfa565b16815260168452826024359120613e73565b91905490519160031b1c8152f35b5080fd5b9050346103885760207ffffffffffffffffffffffffffffffffffffffffffffffffffffffffffffffffc36011261038857803567ffffffffffffffff8111610428576103da91369101612d32565b6103e381614f16565b925b818110610401578451602080825281906102b990820187612d68565b80610419610413610423938587614e48565b3561523e565b6103078287614fcc565b6103e5565b8280fd5b8284346103885760207ffffffffffffffffffffffffffffffffffffffffffffffffffffffffffffffffc3601126103885760209061049261046b612dfa565b73ffffffffffffffffffffffffffffffffffffffff16600052601660205260406000205490565b9051908152f35b82843461038857807ffffffffffffffffffffffffffffffffffffffffffffffffffffffffffffffffc3601126103885760ff816020936104d7612dfa565b6104df612e1d565b73ffffffffffffffffffffffffffffffffffffffff91821683526005875283832091168252855220549151911615158152f35b82843461038857817ffffffffffffffffffffffffffffffffffffffffffffffffffffffffffffffffc36011261038857602090600f549051908152f35b9050823461042857602091827ffffffffffffffffffffffffffffffffffffffffffffffffffffffffffffffffc3601126105f45780359067ffffffffffffffff82116105f0576105a191369101612d32565b936105ab85614f16565b94815b8181106105c7578451868152806102b98189018a612d68565b806105d66105eb928487614e48565b3584526015875285842054610307828a614fcc565b6105ae565b8480fd5b8380fd5b8383346103125760207ffffffffffffffffffffffffffffffffffffffffffffffffffffffffffffffffc36011261031257506102b961066561063d610653943561502f565b9392958051978897608089526080890190612f64565b92602088015286830390870152612d9c565b908382036060850152612d9c565b839150346104285760207ffffffffffffffffffffffffffffffffffffffffffffffffffffffffffffffffc36011261042857906106cf82826102b9956106c895358152600a60205220018251938480926134ae565b0383613298565b51918291602083526020830190612d9c565b83833461031257817ffffffffffffffffffffffffffffffffffffffffffffffffffffffffffffffffc36011261031257610719612dfa565b8173ffffffffffffffffffffffffffffffffffffffff83921683526012602052838320936107496024358661525a565b93610755858754613e8b565b957fffffffffffffffffffffffffffffffffffffffffffffffffffffffffffffffff8088019788116108725786610818575b50866107b1575b505051928352602083019390935260408201929092526060810191909152608090f35b90919350600185018086116107ec576102b995969750906107d460029282613e73565b90549060031b1c80935201602052918594938761078e565b60248360118a7f4e487b7100000000000000000000000000000000000000000000000000000000835252fd5b90935085018581116108465761082e9084613e73565b90549060031b1c808252600284016020529288610787565b60248260118a7f4e487b7100000000000000000000000000000000000000000000000000000000835252fd5b60248360118b7f4e487b7100000000000000000000000000000000000000000000000000000000835252fd5b9050346103885760207ffffffffffffffffffffffffffffffffffffffffffffffffffffffffffffffffc36011261038857803567ffffffffffffffff8111610428576108ec91369101612d32565b6108f881949294614eb6565b9261090583519485613298565b8184527fffffffffffffffffffffffffffffffffffffffffffffffffffffffffffffffe061093283614eb6565b013660208601375b81811061094e578251806102b98682613113565b8061096661096061098e938589614e48565b356154bf565b73ffffffffffffffffffffffffffffffffffffffff6109858388614fcc565b91169052614e1b565b61093a565b8391503461042857817ffffffffffffffffffffffffffffffffffffffffffffffffffffffffffffffffc3601126104285760209261037a9135815260158452826024359120613e73565b905082346104285760807ffffffffffffffffffffffffffffffffffffffffffffffffffffffffffffffffc36011261042857610a17612dfa565b90610a20612e1d565b604435906064359467ffffffffffffffff8611610aab5736602387011215610aab5785013593610a5b610a52866132d9565b94519485613298565b84845286366024878901011161031257602086610aa3976024610aa89a018389013786010152610a93610a8e84336136d6565b6135bf565b610a9e8383836137dc565b613d4a565b61364a565b80f35b8680fd5b8284346103885760207ffffffffffffffffffffffffffffffffffffffffffffffffffffffffffffffffc36011261038857610b13816102b99373ffffffffffffffffffffffffffffffffffffffff610b05612dfa565b168152601660205220614fe0565b9051918291602083526020830190612d68565b9050823461042857602091827ffffffffffffffffffffffffffffffffffffffffffffffffffffffffffffffffc3601126105f4573583526017825280832092835490610b7182614f16565b946002810190825b848110610b92578551878152806102b9818a018b612d68565b80610ba0610bb79284613e73565b90549060031b1c808652848952610307828b614fcc565b610b79565b9050823461042857807ffffffffffffffffffffffffffffffffffffffffffffffffffffffffffffffffc36011261042857610bf5612dfa565b90602435918215158093036105f05773ffffffffffffffffffffffffffffffffffffffff1692833314610c8f575033845260056020528084208385526020528084207fffffffffffffffffffffffffffffffffffffffffffffffffffffffffffffff0081541660ff8416179055519081527f17307eab39ab6107e8899845ad3d59bd9653f200f220920489ca2b5937696c3160203392a380f35b602060649251917f08c379a0000000000000000000000000000000000000000000000000000000008352820152601960248201527f4552433732313a20617070726f766520746f2063616c6c6572000000000000006044820152fd5b82843461038857602090817ffffffffffffffffffffffffffffffffffffffffffffffffffffffffffffffffc3601126104285773ffffffffffffffffffffffffffffffffffffffff610d3b612dfa565b1683526012825280832092835490610d5282614f16565b946002810190825b848110610d73578551878152806102b9818a018b612d68565b80610ba0610d819284613e73565b610d5a565b82843461038857817ffffffffffffffffffffffffffffffffffffffffffffffffffffffffffffffffc36011261038857805190826001805491610dc88361345b565b80865292828116908115610e4d5750600114610df1575b5050506106cf826102b9940383613298565b94508085527fb10e2d527612073b26eecdfd717e6a320cf44b4afac2b0732d9fcbe2b7fa0cf65b828610610e35575050506106cf8260206102b99582010194610ddf565b80546020878701810191909152909501948101610e18565b6102b99750869350602092506106cf9491507fffffffffffffffffffffffffffffffffffffffffffffffffffffffffffffff001682840152151560051b82010194610ddf565b9050823461042857602091827ffffffffffffffffffffffffffffffffffffffffffffffffffffffffffffffffc3601126105f45780359067ffffffffffffffff82116105f057610ee591369101612d32565b93610eef85614f16565b94815b818110610f0b578451868152806102b98189018a612d68565b80610f1a610f2f928487614e48565b3584526017875285842054610307828a614fcc565b610ef2565b839150346104285760207ffffffffffffffffffffffffffffffffffffffffffffffffffffffffffffffffc360112610428576020928291358152600e845220549051908152f35b839150346104285760207ffffffffffffffffffffffffffffffffffffffffffffffffffffffffffffffffc36011261042857816102b993610b1392358152601560205220614fe0565b839150346104285760207ffffffffffffffffffffffffffffffffffffffffffffffffffffffffffffffffc360112610428576020928291358152600b845220549051908152f35b8284346103885760209061049261102136613192565b9392909261407d565b8284346103885760207ffffffffffffffffffffffffffffffffffffffffffffffffffffffffffffffffc36011261038857602090610492611069612dfa565b613313565b8383346103125760207ffffffffffffffffffffffffffffffffffffffffffffffffffffffffffffffffc360112610312575073ffffffffffffffffffffffffffffffffffffffff6110c1602093356154bf565b915191168152f35b828434610388576020917ffffffffffffffffffffffffffffffffffffffffffffffffffffffffffffffffc9083823601126103125784359467ffffffffffffffff9182871161031257868201938736039761012080928a01126104285760249081810135967ffffffffffffffffffffffffffffffffffffffffffffffffffffffffffffff1f088018881116114a55742101580611491575b156114105760448201358089111580611402575b1561135b579161126e8b9c94928b9c9b97969488519b8d8d019d8e528c73ffffffffffffffffffffffffffffffffffffffff9a8b6111b286612e40565b1691015260608d015260808c0152606483013560a08c01528a6111ec6111db6084860184613e98565b8860c0850152610160840191613ee8565b9561125e61125361123561120360a4890187613e98565b7fffffffffffffffffffffffffffffffffffffffffffffffffffffffffffffffc09b918c8884030160e0890152613ee8565b61124260c4890187613f27565b908b87840301610100880152613f7a565b9360e4870190613f27565b9290918882860301910152613f7a565b937fffffffffffffffffffffffffffffffffffffffffffffffffffffffffffffffdd61010483013591018112156113575701958601359501958511610428578460061b36038613610428578682030161014087015283815285939089019290919081905b838310611318575050505061130e9250037fffffffffffffffffffffffffffffffffffffffffffffffffffffffffffffffe08101835282613298565b5190209051908152f35b8092949193955061132887612e40565b1681528986013561ffff81168091036105f457898281928d6001950152019601930190918694929593956112d2565b8580fd5b60a487605c868e8e51937f08c379a00000000000000000000000000000000000000000000000000000000085528401528201527f4b6174696265683732313a207369676e2074696d65206d757374206265206c6560448201527f7373207468616e20696e69742074696d65202620696e69742074696d65206d7560648201527f7374206265206c657373207468616e206578706972652074696d652e000000006084820152fd5b506064830135811115611175565b6084866033858d8d51937f08c379a00000000000000000000000000000000000000000000000000000000085528401528201527f4b6174696265683732313a206d6f7265207468616e203120686f75727320736960448201527f676e2074696d6520646966666572656e63652e000000000000000000000000006064820152fd5b50610e1088018089116114a5574210611161565b83866011897f4e487b7100000000000000000000000000000000000000000000000000000000835252fd5b8383346103125760207ffffffffffffffffffffffffffffffffffffffffffffffffffffffffffffffffc360112610312575073ffffffffffffffffffffffffffffffffffffffff6110c160209335613429565b8284346103885760207ffffffffffffffffffffffffffffffffffffffffffffffffffffffffffffffffc36011261038857602090610492611562612dfa565b73ffffffffffffffffffffffffffffffffffffffff16600052601260205260406000205490565b82843461038857807ffffffffffffffffffffffffffffffffffffffffffffffffffffffffffffffffc360112610388576020906104926115c7612dfa565b6024359061547d565b919050346103125760207ffffffffffffffffffffffffffffffffffffffffffffffffffffffffffffffffc360112610312575080359060085482101561161c5760208361037a84613e3c565b60849060208451917f08c379a0000000000000000000000000000000000000000000000000000000008352820152602c60248201527f455243373231456e756d657261626c653a20676c6f62616c20696e646578206f60448201527f7574206f6620626f756e647300000000000000000000000000000000000000006064820152fd5b828434610388576116bf906116b336613192565b9284969492919261407d565b91600f549083855260209160118352838620556116db84615300565b5073ffffffffffffffffffffffffffffffffffffffff806116fb83613fb7565b1686526012835261171d858588208054828a52600282018752878a2055615421565b506117318161172b84613fb7565b16615384565b5060c08201906117418284614029565b929050875b8381106118de57505050508060e061175f920190614029565b8093919315801561176e578680f35b6118b25783359361177f8587615523565b6001821161178b578680f35b81600110156118865783810135916117a38388615523565b6117c984518681019088825285878201528681526117c08161327c565b51902088615523565b600281116117d657508680f35b6002101561188657820135906117ec8287615523565b61181283518581019083825284868201528581526118098161327c565b51902087615523565b825193840194855282840152606083015260608252608082019082821067ffffffffffffffff83111761185a5761184f9596505251902090615523565b808280808080808680f35b6024866041897f4e487b7100000000000000000000000000000000000000000000000000000000835252fd5b60248760328a7f4e487b7100000000000000000000000000000000000000000000000000000000835252fd5b6024866032897f4e487b7100000000000000000000000000000000000000000000000000000000835252fd5b806118f661193d926118f08589614029565b90614e48565b358a526015875261190989898c20615421565b50611918816118f08589614029565b358a52600a875283888b2054168a526016875261193789898c20615421565b50614e1b565b611746565b839150346104285760207ffffffffffffffffffffffffffffffffffffffffffffffffffffffffffffffffc3601126104285760209282913581526017845220549051908152f35b905034610388576020807ffffffffffffffffffffffffffffffffffffffffffffffffffffffffffffffffc3601126104285781356119ca610a8e82336136d6565b6119d381613429565b73ffffffffffffffffffffffffffffffffffffffff908181169081158081159182611e96575b15611e145715611d675750505060085482865260098452808787205568010000000000000000811015611d3b57611a6f611a3a826001869401600855613e3c565b81939154907fffffffffffffffffffffffffffffffffffffffffffffffffffffffffffffffff9060031b92831b921b19161790565b90555b600854907fffffffffffffffffffffffffffffffffffffffffffffffffffffffffffffffff91828101908111611d0f5783875260098552611ab68888205491613e3c565b90549060031b1c80611aca611a3a84613e3c565b90558752600985528787205582865285878120556008548015611ce35795828694928299947f766269423061476c7a4947356c64486476636d7375496e3000000000000000009901611b1b81613e3c565b8482549160031b1b19169055600855611b3384613429565b90848452868852858420917fffffffffffffffffffffffff000000000000000000000000000000000000000092838154169055169182845260038852858420908154019055838352600287528483209081541690557fddf252ad1be2c89b69c2b068fc378daa952ba7f163c4a11628f55a4df523b3ef8280a4600a83528581812091600d85528120611bc5815461345b565b80611ca7575b50505001611bd9815461345b565b601f8111611c86575b506101318155845283207f646174613a6170706c69636174696f6e2f6a736f6e3b6261736536342c65794a81557f755957316c496a6f67496c526f61584d67644739725a57346761584d67596e5660018201557f79626d566b4c694973496d526c63324e796158423061573975496a6f67496c5260028201557f766132567549476c7a494735766443426a623278735a574e3061574a735a53426003820155015580f35b611ca1908287526005601f8589209201811c82019101614e58565b38611be2565b82601f8211600114611cbf575050555b853880611bcb565b9091808252611cdc601f888420940160051c840160018501614e58565b5555611cb7565b6024876031887f4e487b7100000000000000000000000000000000000000000000000000000000835252fd5b6024876011887f4e487b7100000000000000000000000000000000000000000000000000000000835252fd5b6024866041877f4e487b7100000000000000000000000000000000000000000000000000000000835252fd5b611d73575b5050611a72565b611d7c90613313565b907fffffffffffffffffffffffffffffffffffffffffffffffffffffffffffffffff8201918211611d0f578387526007855287872054828103611ddd575b508387528688812055865260068452868620908652835284868120553880611d6c565b8188526006865288882083895286528888205482895260068752898920828a528752808a8a20558852600786528888205538611dba565b608488888c51917f08c379a0000000000000000000000000000000000000000000000000000000008352820152602660248201527f746f6b656e732063616e6e6f74206265207472616e736665726564206f6e207460448201527f6573746e657400000000000000000000000000000000000000000000000000006064820152fd5b5060016119f9565b82843461038857610aa3610aa891611eb536612ed0565b91925192611ec284613260565b868452610a93610a8e84336136d6565b50503461031257807ffffffffffffffffffffffffffffffffffffffffffffffffffffffffffffffffc360112610312578151918291601354808552602080950194601383527f66de8ffda797e3de9c05e8fc57b3bf0ec28a930d40b0d285d93c06501cf6a09092905b828210611f5d576102b98686611f53828b0383613298565b5191829182613113565b835487529586019560019384019390910190611f3b565b83833461031257602091827ffffffffffffffffffffffffffffffffffffffffffffffffffffffffffffffffc3601126103885781829185358452601193848652818120549485159687158098612175575b1561211957611fd687600f54613e8b565b977fffffffffffffffffffffffffffffffffffffffffffffffffffffffffffffffff90818a01998a116120ee5761209a575b5087612039575b505050906102b9929151948594859094939260609260808301968352602083015260408201520152565b9091929450600186019788871161206f57506120596102b9969798613dd6565b90549060031b1c8093525291859493878061200f565b83836024927f4e487b7100000000000000000000000000000000000000000000000000000000835252fd5b90945086018681116120c3576120af90613dd6565b90549060031b1c8083528185529389612008565b602483838b7f4e487b7100000000000000000000000000000000000000000000000000000000835252fd5b602485858d7f4e487b7100000000000000000000000000000000000000000000000000000000835252fd5b886064918551917f08c379a0000000000000000000000000000000000000000000000000000000008352820152601e60248201527f456e756d657261626c654d61703a206e6f6e6578697374656e74206b657900006044820152fd5b5060108152838320541515611fc5565b8284346103885760209061049261219b36612f30565b9061550a565b9050346103885760207ffffffffffffffffffffffffffffffffffffffffffffffffffffffffffffffffc36011261038857803567ffffffffffffffff8111610428576121ef91369101612d32565b6121f881614f16565b925b818110612216578451602080825281906102b990820187612d68565b8061041961156261222b612230948688614e48565b613fb7565b6121fa565b83833461031257817ffffffffffffffffffffffffffffffffffffffffffffffffffffffffffffffffc3601126103125761226d612dfa565b6024359061227a81613313565b8210156122b557602092849273ffffffffffffffffffffffffffffffffffffffff849316825260068552828220908252845220549051908152f35b60848560208651917f08c379a0000000000000000000000000000000000000000000000000000000008352820152602b60248201527f455243373231456e756d657261626c653a206f776e657220696e646578206f7560448201527f74206f6620626f756e64730000000000000000000000000000000000000000006064820152fd5b839150346104285760207ffffffffffffffffffffffffffffffffffffffffffffffffffffffffffffffffc3601126104285760209282913581526015845220549051908152f35b9050346103885760207ffffffffffffffffffffffffffffffffffffffffffffffffffffffffffffffffc36011261038857803567ffffffffffffffff8111610428576123cd91369101612d32565b6123d681614f16565b925b8181106123f4578451602080825281906102b990820187612d68565b8061041961046b61222b612409948688614e48565b6123d8565b9050823461042857602091827ffffffffffffffffffffffffffffffffffffffffffffffffffffffffffffffffc3601126105f45780359067ffffffffffffffff82116105f05761246391949394369101612d32565b919061246e83614eb6565b61247a83519182613298565b8381527fffffffffffffffffffffffffffffffffffffffffffffffffffffffffffffffe06124a785614eb6565b01855b8181106125f05750506124bc84614f16565b6124c585614f65565b926124cf86614f65565b95875b8181106125925750505083519687966080880160808952845180915260a089018360a08360051b8c0101960192905b82821061253f578a8703858c01528a806102b98c6125318d8d6125248e8e612d68565b9186830390870152613099565b908382036060850152613099565b91938061257d887fffffffffffffffffffffffffffffffffffffffffffffffffffffffffffffff60600195979b9c9d9e849a9b030186528a51612f64565b9801920192018a999897969594939192612501565b806125c2818a6125b76125b19d9e98999a9b9c9d6125e396888a614e48565b3561502f565b929591949093614fcc565b526125cd848c614fcc565b526125d88389614fcc565b526103078289614fcc565b98979695949392986124d2565b9680929394959697612600614ece565b82828701015201969594939291966124aa565b8383346103125761262336612f30565b928290839284526017602052610749818520958661525a565b8383346103125760207ffffffffffffffffffffffffffffffffffffffffffffffffffffffffffffffffc36011261031257506104926020923561523e565b823461031257610aa861268c36612ed0565b9161269a610a8e84336136d6565b6137dc565b82843461038857817ffffffffffffffffffffffffffffffffffffffffffffffffffffffffffffffffc360112610388576020906013549051908152f35b82843461038857817ffffffffffffffffffffffffffffffffffffffffffffffffffffffffffffffffc360112610388576020906008549051908152f35b9190503461031257827ffffffffffffffffffffffffffffffffffffffffffffffffffffffffffffffffc3601126103125781359160243567ffffffffffffffff81116104285761276b91369101612d32565b92909161277784614f16565b93815b818110612796578651602080825281906102b990820189612d68565b806102f66127a86127b9938589614e48565b358686526015602052898620613e73565b61277a565b505034610312576127ce36612e61565b6127da81939293614f16565b935b8181106127f8578551602080825281906102b990820188612d68565b8061281161280a61281b938588614e48565b358561547d565b6103078288614fcc565b6127dc565b82843461038857817ffffffffffffffffffffffffffffffffffffffffffffffffffffffffffffffffc3601126103885760209051428152f35b8391503461042857817ffffffffffffffffffffffffffffffffffffffffffffffffffffffffffffffffc36011261042857612892612dfa565b906024359273ffffffffffffffffffffffffffffffffffffffff9182806128b887613429565b169416938085146129d6578033149081156129b7575b5015612935578486526020528420827fffffffffffffffffffffffff000000000000000000000000000000000000000082541617905561290d83613429565b167f8c5be1e5ebec7d5bd14f71427d1e84f3dd0314c0f7b2291e5b200ac8c7c3b9258480a480f35b602060849251917f08c379a0000000000000000000000000000000000000000000000000000000008352820152603d60248201527f4552433732313a20617070726f76652063616c6c6572206973206e6f7420746f60448201527f6b656e206f776e6572206f7220617070726f76656420666f7220616c6c0000006064820152fd5b90508652600560205281862033875260205260ff8287205416876128ce565b50602060849251917f08c379a0000000000000000000000000000000000000000000000000000000008352820152602160248201527f4552433732313a20617070726f76616c20746f2063757272656e74206f776e6560448201527f72000000000000000000000000000000000000000000000000000000000000006064820152fd5b8383346103125760207ffffffffffffffffffffffffffffffffffffffffffffffffffffffffffffffffc360112610312575073ffffffffffffffffffffffffffffffffffffffff6110c160209335613563565b82843461038857817ffffffffffffffffffffffffffffffffffffffffffffffffffffffffffffffffc36011261038857805190828054612aeb8161345b565b80855291600191808316908115610e4d5750600114612b16575050506106cf826102b9940383613298565b80809650527f290decd9548b62a8d60345a988386fc84ba6bc95484008f6362f93160ef3e5635b828610612b5a575050506106cf8260206102b99582010194610ddf565b80546020878701810191909152909501948101612b3d565b839150346104285760207ffffffffffffffffffffffffffffffffffffffffffffffffffffffffffffffffc3601126104285735907fffffffff00000000000000000000000000000000000000000000000000000000821680920361042857602092507f780e9d63000000000000000000000000000000000000000000000000000000008214918215612c08575b50519015158152f35b9091507f80ac58cd000000000000000000000000000000000000000000000000000000008114908115612c6f575b8115612c45575b509083612bff565b7f01ffc9a70000000000000000000000000000000000000000000000000000000091501483612c3d565b7f5b5e139f0000000000000000000000000000000000000000000000000000000081149150612c36565b90503461038857827ffffffffffffffffffffffffffffffffffffffffffffffffffffffffffffffffc3601126103885780359060243567ffffffffffffffff81116105f457612cea91369101612d32565b612cf681939293614f16565b935b818110612d14578551602080825281906102b990820188612d68565b80612811612d26612d2d938588614e48565b358561550a565b612cf8565b9181601f84011215612d635782359167ffffffffffffffff8311612d63576020808501948460051b010111612d6357565b600080fd5b90815180825260208080930193019160005b828110612d88575050505090565b835185529381019392810192600101612d7a565b919082519283825260005b848110612de65750507fffffffffffffffffffffffffffffffffffffffffffffffffffffffffffffffe0601f8460006020809697860101520116010190565b602081830181015184830182015201612da7565b6004359073ffffffffffffffffffffffffffffffffffffffff82168203612d6357565b6024359073ffffffffffffffffffffffffffffffffffffffff82168203612d6357565b359073ffffffffffffffffffffffffffffffffffffffff82168203612d6357565b9060407ffffffffffffffffffffffffffffffffffffffffffffffffffffffffffffffffc830112612d635760043573ffffffffffffffffffffffffffffffffffffffff81168103612d6357916024359067ffffffffffffffff8211612d6357612ecc91600401612d32565b9091565b7ffffffffffffffffffffffffffffffffffffffffffffffffffffffffffffffffc6060910112612d635773ffffffffffffffffffffffffffffffffffffffff906004358281168103612d6357916024359081168103612d63579060443590565b7ffffffffffffffffffffffffffffffffffffffffffffffffffffffffffffffffc6040910112612d63576004359060243590565b9073ffffffffffffffffffffffffffffffffffffffff9081835116815260208084015181830152604092838501518484015260608501516060840152612fce612fbc6080870151610120806080880152860190612d9c565b60a087015185820360a0870152612d9c565b9260c08601519381810360c083015283808651928381520195019060005b8181106130855750505060e08601519381810360e083015283808651928381520195019060005b8181106130715750505061010080960151958185039101528180865194858152019501936000915b84831061304b5750505050505090565b855180518216885284015161ffff1687850152958101959483019460019092019161303b565b825187529585019591850191600101613013565b825187529585019591850191600101612fec565b908082519081815260208091019281808460051b8301019501936000915b8483106130c75750505050505090565b9091929394958480613103837fffffffffffffffffffffffffffffffffffffffffffffffffffffffffffffffe086600196030187528a51612d9c565b98019301930191949392906130b7565b6020908160408183019282815285518094520193019160005b82811061313a575050505090565b835173ffffffffffffffffffffffffffffffffffffffff168552938101939281019260010161312c565b9181601f84011215612d635782359167ffffffffffffffff8311612d635760208381860195010111612d6357565b7ffffffffffffffffffffffffffffffffffffffffffffffffffffffffffffffffc90606082820112612d635760043567ffffffffffffffff92838211612d6357610120908284030112612d635760040192602435838111612d6357826131fa91600401613164565b93909392604435918211612d6357612ecc91600401613164565b610120810190811067ffffffffffffffff82111761323157604052565b7f4e487b7100000000000000000000000000000000000000000000000000000000600052604160045260246000fd5b6020810190811067ffffffffffffffff82111761323157604052565b6060810190811067ffffffffffffffff82111761323157604052565b90601f7fffffffffffffffffffffffffffffffffffffffffffffffffffffffffffffffe0910116810190811067ffffffffffffffff82111761323157604052565b67ffffffffffffffff811161323157601f017fffffffffffffffffffffffffffffffffffffffffffffffffffffffffffffffe01660200190565b73ffffffffffffffffffffffffffffffffffffffff16801561334057600052600360205260406000205490565b60846040517f08c379a000000000000000000000000000000000000000000000000000000000815260206004820152602960248201527f4552433732313a2061646472657373207a65726f206973206e6f74206120766160448201527f6c6964206f776e657200000000000000000000000000000000000000000000006064820152fd5b156133cb57565b60646040517f08c379a000000000000000000000000000000000000000000000000000000000815260206004820152601860248201527f4552433732313a20696e76616c696420746f6b656e20494400000000000000006044820152fd5b600052600260205273ffffffffffffffffffffffffffffffffffffffff604060002054166134588115156133c4565b90565b90600182811c921680156134a4575b602083101461347557565b7f4e487b7100000000000000000000000000000000000000000000000000000000600052602260045260246000fd5b91607f169161346a565b90600092918054916134bf8361345b565b91828252600193848116908160001461352157506001146134e1575b50505050565b90919394506000526020928360002092846000945b83861061350d5750505050010190388080806134db565b8054858701830152940193859082016134f6565b91505060209495507fffffffffffffffffffffffffffffffffffffffffffffffffffffffffffffff009193501683830152151560051b010190388080806134db565b61359861359382600052600260205273ffffffffffffffffffffffffffffffffffffffff60406000205416151590565b6133c4565b600052600460205273ffffffffffffffffffffffffffffffffffffffff6040600020541690565b156135c657565b60846040517f08c379a000000000000000000000000000000000000000000000000000000000815260206004820152602d60248201527f4552433732313a2063616c6c6572206973206e6f7420746f6b656e206f776e6560448201527f72206f7220617070726f766564000000000000000000000000000000000000006064820152fd5b1561365157565b6040517f08c379a000000000000000000000000000000000000000000000000000000000815260206004820152603260248201527f4552433732313a207472616e7366657220746f206e6f6e20455243373231526560448201527f63656976657220696d706c656d656e74657200000000000000000000000000006064820152608490fd5b9073ffffffffffffffffffffffffffffffffffffffff80806136f784613429565b1693169183831493841561372a575b508315613714575b50505090565b61372091929350613563565b161438808061370e565b909350600052600560205260406000208260005260205260ff604060002054169238613706565b1561375857565b60846040517f08c379a000000000000000000000000000000000000000000000000000000000815260206004820152602560248201527f4552433732313a207472616e736665722066726f6d20696e636f72726563742060448201527f6f776e65720000000000000000000000000000000000000000000000000000006064820152fd5b61380d916137e984613429565b73ffffffffffffffffffffffffffffffffffffffff93848416939185168414613751565b838216938415613ae957831591828015613ae1575b15613a5d5784921561396d575090506008549085600052600960205281604060002055680100000000000000008210156132315761388b928661386f611a3a856001899701600855613e3c565b90555b82860361393a575b5061388486613429565b1614613751565b7fddf252ad1be2c89b69c2b068fc378daa952ba7f163c4a11628f55a4df523b3ef60008481526004602052604081207fffffffffffffffffffffffff0000000000000000000000000000000000000000908181541690558382526003602052604082207fffffffffffffffffffffffffffffffffffffffffffffffffffffffffffffffff81540190558482526040822060018154019055858252600260205284604083209182541617905580a4565b61394390613313565b6040600087815260066020528181208382526020528882822055888152600760205220553861387a565b85830361397f575b5061388b92613872565b61398a919250613313565b907fffffffffffffffffffffffffffffffffffffffffffffffffffffffffffffffff8201918211613a2e5761388b92849260009088825260209060078252604091828420548281036139f7575b508a84528383812055868452600681528284209184525281205592613975565b87855260068252838520838652825283852054888652600683528486208287528352808587205585526007825283852055386139d7565b7f4e487b7100000000000000000000000000000000000000000000000000000000600052601160045260246000fd5b60846040517f08c379a000000000000000000000000000000000000000000000000000000000815260206004820152602660248201527f746f6b656e732063616e6e6f74206265207472616e736665726564206f6e207460448201527f6573746e657400000000000000000000000000000000000000000000000000006064820152fd5b506000613822565b60846040517f08c379a0000000000000000000000000000000000000000000000000000000008152602060048201526024808201527f4552433732313a207472616e7366657220746f20746865207a65726f2061646460448201527f72657373000000000000000000000000000000000000000000000000000000006064820152fd5b9192600092909190803b15613d4057613be89460405180927f150b7a020000000000000000000000000000000000000000000000000000000094858352336004840152876024840152604483015260806064830152818773ffffffffffffffffffffffffffffffffffffffff8260209b8c976084830190612d9c565b0393165af1849181613ce8575b50613cbf575050503d600014613cb7573d613c0f816132d9565b90613c1d6040519283613298565b81528091833d92013e5b80519182613cb4576040517f08c379a000000000000000000000000000000000000000000000000000000000815260206004820152603260248201527f4552433732313a207472616e7366657220746f206e6f6e20455243373231526560448201527f63656976657220696d706c656d656e74657200000000000000000000000000006064820152608490fd5b01fd5b506060613c27565b7fffffffff00000000000000000000000000000000000000000000000000000000161492509050565b9091508581813d8311613d39575b613d008183613298565b810103126105f057517fffffffff00000000000000000000000000000000000000000000000000000000811681036105f0579038613bf5565b503d613cf6565b5050915050600190565b9293600093909291803b15613dcb57948491613be896604051809481937f150b7a02000000000000000000000000000000000000000000000000000000009788845233600485015273ffffffffffffffffffffffffffffffffffffffff80921660248501526044840152608060648401528260209b8c976084830190612d9c565b505050915050600190565b600f54811015613e0d57600f6000527f8d1108e10bcb7c27dddfc02ed9d693a074039d026cf4ea4240b40f7d581ac8020190600090565b7f4e487b7100000000000000000000000000000000000000000000000000000000600052603260045260246000fd5b600854811015613e0d5760086000527ff3f7a9fe364faab93b216da50a3214154f22a0a2b415b23a84c8169e8b636ee30190600090565b8054821015613e0d5760005260206000200190600090565b91908203918211613a2e57565b90357fffffffffffffffffffffffffffffffffffffffffffffffffffffffffffffffe182360301811215612d6357016020813591019167ffffffffffffffff8211612d63578136038313612d6357565b601f82602094937fffffffffffffffffffffffffffffffffffffffffffffffffffffffffffffffe0938186528686013760008582860101520116010190565b90357fffffffffffffffffffffffffffffffffffffffffffffffffffffffffffffffe182360301811215612d6357016020813591019167ffffffffffffffff8211612d63578160051b36038313612d6357565b90918281527f07ffffffffffffffffffffffffffffffffffffffffffffffffffffffffffffff8311612d635760209260051b809284830137010190565b3573ffffffffffffffffffffffffffffffffffffffff81168103612d635790565b9035907fffffffffffffffffffffffffffffffffffffffffffffffffffffffffffffffe181360301821215612d63570180359067ffffffffffffffff8211612d6357602001918136038313612d6357565b9035907fffffffffffffffffffffffffffffffffffffffffffffffffffffffffffffffe181360301821215612d63570180359067ffffffffffffffff8211612d6357602001918160051b36038313612d6357565b93949290946040516020810190848883376140cb602c828781017f73616d616e2077696c736f6e0000000000000000000000000000000000000000602082015203600c810184520182613298565b5190209485600052600e602052426040600020556140e881613fb7565b6040516140f481613260565b6000815273ffffffffffffffffffffffffffffffffffffffff8216918215614d585761414c6141468a600052600260205273ffffffffffffffffffffffffffffffffffffffff60406000205416151590565b15614db6565b6008549189600052600960205282604060002055680100000000000000008310156132315789610aa3928161418d611a3a87600161426d9901600855613e3c565b905561419881613313565b866000526006602052604060002081600052602052826040600020558260005260076020526040600020556141f361414683600052600260205273ffffffffffffffffffffffffffffffffffffffff60406000205416151590565b856000526003602052604060002060018154019055816000526002602052816040600020967fffffffffffffffffffffffff000000000000000000000000000000000000000097818982541617905560007fddf252ad1be2c89b69c2b068fc378daa952ba7f163c4a11628f55a4df523b3ef8180a4613b6c565b61427a6080830183613fd8565b61429e60206040518381948383019687378101600083820152038084520182613298565b51902080600052600b602052604060002054614cd457600052600b6020528660406000205586600052600a60205260406000209073ffffffffffffffffffffffffffffffffffffffff6142f084613fb7565b16908254161781556020820135600182015560408201356002820155606082013560038201556143236080830183613fd8565b9067ffffffffffffffff821161323157819061434f82614346600487015461345b565b60048701614e6f565b600090601f8311600114614c0957600092614bfe575b50507fffffffffffffffffffffffffffffffffffffffffffffffffffffffffffffffff8260011b9260031b1c19161760048201555b6143a760a0830183613fd8565b9067ffffffffffffffff82116132315781906143d3826143ca600587015461345b565b60058701614e6f565b600090601f8311600114614b3357600092614b28575b50507fffffffffffffffffffffffffffffffffffffffffffffffffffffffffffffffff8260011b9260031b1c19161760058201555b61442b60c0830183614029565b9067ffffffffffffffff821161323157680100000000000000008211613231576006830154826006850155808310614b07575b5060068301600052602060002060005b838110614af3575050505061448660e0830183614029565b9067ffffffffffffffff821161323157680100000000000000008211613231576007830154826007850155808310614ac6575b5060078301600052602060002060005b838110614ab257505050507fffffffffffffffffffffffffffffffffffffffffffffffffffffffffffffffe1823603016101008301351215612d635767ffffffffffffffff61010083013583013511612d63576101008201358201803560061b3603602090910113612d635768010000000000000000610100830135830135116132315760088101805461010084013584013591829055908111614a7d575b506008602061010084013584010191016000526020600020906000905b61010084013584013582106149f0575050506145a081613fb7565b6145ad60a0830183613fd8565b9081604051928392833781016000815203902090877f0b85051017293732c5b533b177efc66475411a9fdd5fbc8ecb619906658413d6606073ffffffffffffffffffffffffffffffffffffffff6040519460208801358652604088013560208701528288013560408701521693a461462860c0820182614029565b905060005b8181106149aa5750508060e0614644920190614029565b600381116149265780158061491d57613e0d578135915b6001821115614915578160011015613e0d576020810135915b600281111561490b5760021015613e0d5760400135915b7fb237134d29775150b1edf87af1dc343262244af7cbb474cfc64cb6e8824af66360206040518a8152a484600052600c60205260406000209167ffffffffffffffff82116132315781906146e9826146e3865461345b565b86614e6f565b600090601f83116001146148665760009261485b575b50507fffffffffffffffffffffffffffffffffffffffffffffffffffffffffffffffff8260011b9260031b1c19161790555b82600052600d60205260406000209067ffffffffffffffff8111613231576147638161475d845461345b565b84614e6f565b6000601f82116001146147bb5781929394956000926147b0575b50507fffffffffffffffffffffffffffffffffffffffffffffffffffffffffffffffff8260011b9260031b1c1916179055565b01359050388061477d565b7fffffffffffffffffffffffffffffffffffffffffffffffffffffffffffffffe08216958360005260206000209160005b8881106148435750836001959697981061480b575b505050811b019055565b7fffffffffffffffffffffffffffffffffffffffffffffffffffffffffffffffff60f88560031b161c19910135169055388080614801565b909260206001819286860135815501940191016147ec565b0135905038806146ff565b90917fffffffffffffffffffffffffffffffffffffffffffffffffffffffffffffffe016918460005260206000209260005b8181106148f357509084600195949392106148bb575b505050811b019055614731565b7fffffffffffffffffffffffffffffffffffffffffffffffffffffffffffffffff60f88560031b161c199101351690553880806148ae565b91936020600181928787013581550195019201614898565b505060009161468b565b600091614674565b5060009161465b565b60846040517f08c379a000000000000000000000000000000000000000000000000000000000815260206004820152603860248201527f4461746153746f726167653a2074616773206c656e677468206d75737420626560448201527f206c657373207468616e206f7220657175616c20746f203300000000000000006064820152fd5b806149bf6149eb926118f060c0870187614029565b35897f65327253f8d67c2e23cb4dfab28ca7437b04e9098cf4e985073d76df25209ad4600080a3614e1b565b61462d565b73ffffffffffffffffffffffffffffffffffffffff614a0e82613fb7565b84549116602083013561ffff81169003612d63577fffffffffffffffffffff0000000000000000000000000000000000000000000090911617602082013560a01b75ffff0000000000000000000000000000000000000000161783556001928301929190910190604001614585565b6008820160005260206000209061010084013584013582015b8183018110614aa6575050614568565b60008155600101614a96565b6001906020843594019381840155016144c9565b600784016000526020600020908382015b8183018110614ae75750506144b9565b60008155600101614ad7565b60019060208435940193818401550161446e565b614b2290600685016000528360206000209182019101614e58565b3861445e565b0135905038806143e9565b909250600584016000526020600020906000935b7fffffffffffffffffffffffffffffffffffffffffffffffffffffffffffffffe084168510614be65760019450837fffffffffffffffffffffffffffffffffffffffffffffffffffffffffffffffe0811610614bae575b505050811b01600582015561441e565b7fffffffffffffffffffffffffffffffffffffffffffffffffffffffffffffffff60f88560031b161c19910135169055388080614b9e565b81810135835560209485019460019093019201614b47565b013590503880614365565b909250600484016000526020600020906000935b7fffffffffffffffffffffffffffffffffffffffffffffffffffffffffffffffe084168510614cbc5760019450837fffffffffffffffffffffffffffffffffffffffffffffffffffffffffffffffe0811610614c84575b505050811b01600482015561439a565b7fffffffffffffffffffffffffffffffffffffffffffffffffffffffffffffffff60f88560031b161c19910135169055388080614c74565b81810135835560209485019460019093019201614c1d565b60846040517f08c379a000000000000000000000000000000000000000000000000000000000815260206004820152602360248201527f4461746153746f726167653a20757269207265676973746572656420616c726560448201527f61647900000000000000000000000000000000000000000000000000000000006064820152fd5b60646040517f08c379a000000000000000000000000000000000000000000000000000000000815260206004820152602060248201527f4552433732313a206d696e7420746f20746865207a65726f20616464726573736044820152fd5b15614dbd57565b60646040517f08c379a000000000000000000000000000000000000000000000000000000000815260206004820152601c60248201527f4552433732313a20746f6b656e20616c7265616479206d696e746564000000006044820152fd5b7fffffffffffffffffffffffffffffffffffffffffffffffffffffffffffffffff8114613a2e5760010190565b9190811015613e0d5760051b0190565b818110614e63575050565b60008155600101614e58565b9190601f8111614e7e57505050565b614eaa926000526020600020906020601f840160051c83019310614eac575b601f0160051c0190614e58565b565b9091508190614e9d565b67ffffffffffffffff81116132315760051b60200190565b60405190614edb82613214565b816000815260006020820152600060408201526101006060916000838201528260808201528260a08201528260c08201528260e08201520152565b90614f2082614eb6565b614f2d6040519182613298565b8281527fffffffffffffffffffffffffffffffffffffffffffffffffffffffffffffffe0614f5b8294614eb6565b0190602036910137565b90614f6f82614eb6565b614f7c6040519182613298565b8281527fffffffffffffffffffffffffffffffffffffffffffffffffffffffffffffffe0614faa8294614eb6565b019060005b828110614fbb57505050565b806060602080938501015201614faf565b8051821015613e0d5760209160051b010190565b9060405191828154918282526020928383019160005283600020936000905b82821061501557505050614eaa92500383613298565b855484526001958601958895509381019390910190614fff565b90615038614ece565b506060600091838352602092600a845260409081812094825161505a81613214565b73ffffffffffffffffffffffffffffffffffffffff8088541682526001978881015484840152600281015498868401998a526003820154898501528651916004926150b2816150ab818786016134ae565b0382613298565b60808601528751906150cb826106c881600585016134ae565b60a0918287015260068101895190818982549182815201918b52898b20908b5b878c83831061522c5750505050509061510981600894930382613298565b60c088015261511a60078201614fe0565b60e08801520180549161512c83614eb6565b956151398b519788613298565b838752888701928a52888a20918a935b8585106151c457505050505050505061010082015296808352600e8252838320549651421015615190575b9282600c82936150ab96613458965252209051928380926134ae565b9450918061345892600c85600d6150ab97526150ab6151b68585208651928380926134ae565b989350939550509250615174565b8c518d810181811067ffffffffffffffff821117615200578e5284548481168252831c61ffff168c820152815293860193928601928a01615149565b60248e60418c7f4e487b7100000000000000000000000000000000000000000000000000000000835252fd5b845486529094019392830192016150eb565b61524790613dd6565b90549060031b1c80600052601160205290565b8160005260028101602052604060002054918215918215926152df575b5050156152815790565b60646040517f08c379a000000000000000000000000000000000000000000000000000000000815260206004820152601e60248201527f456e756d657261626c654d61703a206e6f6e6578697374656e74206b657900006044820152fd5b6152f9925060019160005201602052604060002054151590565b3880615277565b60008181526010602052604081205461537f57600f546801000000000000000081101561535257908261533e611a3a84600160409601600f55613dd6565b9055600f5492815260106020522055600190565b6024827f4e487b710000000000000000000000000000000000000000000000000000000081526041600452fd5b905090565b60008181526014602052604081205461537f57601354680100000000000000008110156153525760018101806013558110156153f45790826040927f66de8ffda797e3de9c05e8fc57b3bf0ec28a930d40b0d285d93c06501cf6a090015560135492815260146020522055600190565b6024827f4e487b710000000000000000000000000000000000000000000000000000000081526032600452fd5b60008281526001820160205260409020546154765780549068010000000000000000821015613231578261545f611a3a846001809601855584613e73565b905580549260005201602052604060002055600190565b5050600090565b73ffffffffffffffffffffffffffffffffffffffff16600052601260205260026154ac60406000209283613e73565b90549060031b1c91826000520160205290565b601354811015613e0d5760136000527f66de8ffda797e3de9c05e8fc57b3bf0ec28a930d40b0d285d93c06501cf6a090015473ffffffffffffffffffffffffffffffffffffffff1690565b600052601760205260026154ac60406000209283613e73565b60008281526017602052604081209061554c838360019160005201602052604060002054151590565b156155575750505050565b61557a938152601760205260408082205491848152600284016020522055615421565b50388080806134db56fea2646970667358221220da2ca1d9e80dbeeca903ba4eaec1cbacd0673d329170ea8f465aa6287e89895d64736f6c63430008130033",
  "linkReferences": {},
  "deployedLinkReferences": {}
}