{
  "_format": "hh-sol-artifact-1",
  "contractName": "Katibeh721",
  "sourceName": "contracts/katibeh721/Katibeh721.sol",
  "abi": [
    {
      "inputs": [],
      "stateMutability": "nonpayable",
      "type": "constructor"
    },
    {
      "anonymous": false,
      "inputs": [
        {
          "indexed": true,
          "internalType": "address",
          "name": "owner",
          "type": "address"
        },
        {
          "indexed": true,
          "internalType": "address",
          "name": "approved",
          "type": "address"
        },
        {
          "indexed": true,
          "internalType": "uint256",
          "name": "tokenId",
          "type": "uint256"
        }
      ],
      "name": "Approval",
      "type": "event"
    },
    {
      "anonymous": false,
      "inputs": [
        {
          "indexed": true,
          "internalType": "address",
          "name": "owner",
          "type": "address"
        },
        {
          "indexed": true,
          "internalType": "address",
          "name": "operator",
          "type": "address"
        },
        {
          "indexed": false,
          "internalType": "bool",
          "name": "approved",
          "type": "bool"
        }
      ],
      "name": "ApprovalForAll",
      "type": "event"
    },
    {
      "anonymous": false,
      "inputs": [
        {
          "indexed": true,
          "internalType": "uint256",
          "name": "tokenId",
          "type": "uint256"
        },
        {
          "indexed": true,
          "internalType": "uint256",
          "name": "toTokenId",
          "type": "uint256"
        }
      ],
      "name": "NewReply",
      "type": "event"
    },
    {
      "anonymous": false,
      "inputs": [
        {
          "indexed": true,
          "internalType": "uint256",
          "name": "tokenId",
          "type": "uint256"
        },
        {
          "indexed": true,
          "internalType": "address",
          "name": "creator",
          "type": "address"
        },
        {
          "indexed": true,
          "internalType": "bytes",
          "name": "data",
          "type": "bytes"
        },
        {
          "indexed": false,
          "internalType": "uint256",
          "name": "mintTime",
          "type": "uint256"
        },
        {
          "indexed": false,
          "internalType": "uint256",
          "name": "initTime",
          "type": "uint256"
        },
        {
          "indexed": false,
          "internalType": "uint256",
          "name": "expTime",
          "type": "uint256"
        }
      ],
      "name": "NewToken",
      "type": "event"
    },
    {
      "anonymous": false,
      "inputs": [
        {
          "indexed": false,
          "internalType": "uint256",
          "name": "tokenId",
          "type": "uint256"
        },
        {
          "indexed": true,
          "internalType": "bytes32",
          "name": "tag1",
          "type": "bytes32"
        },
        {
          "indexed": true,
          "internalType": "bytes32",
          "name": "tag2",
          "type": "bytes32"
        },
        {
          "indexed": true,
          "internalType": "bytes32",
          "name": "tag3",
          "type": "bytes32"
        }
      ],
      "name": "Tags",
      "type": "event"
    },
    {
      "anonymous": false,
      "inputs": [
        {
          "indexed": true,
          "internalType": "address",
          "name": "from",
          "type": "address"
        },
        {
          "indexed": true,
          "internalType": "address",
          "name": "to",
          "type": "address"
        },
        {
          "indexed": true,
          "internalType": "uint256",
          "name": "tokenId",
          "type": "uint256"
        }
      ],
      "name": "Transfer",
      "type": "event"
    },
    {
      "inputs": [
        {
          "internalType": "address",
          "name": "to",
          "type": "address"
        },
        {
          "internalType": "uint256",
          "name": "tokenId",
          "type": "uint256"
        }
      ],
      "name": "approve",
      "outputs": [],
      "stateMutability": "nonpayable",
      "type": "function"
    },
    {
      "inputs": [
        {
          "internalType": "address",
          "name": "owner",
          "type": "address"
        }
      ],
      "name": "balanceOf",
      "outputs": [
        {
          "internalType": "uint256",
          "name": "",
          "type": "uint256"
        }
      ],
      "stateMutability": "view",
      "type": "function"
    },
    {
      "inputs": [
        {
          "internalType": "uint256",
          "name": "tokenId",
          "type": "uint256"
        }
      ],
      "name": "burn",
      "outputs": [],
      "stateMutability": "nonpayable",
      "type": "function"
    },
    {
      "inputs": [],
      "name": "countAllCreators",
      "outputs": [
        {
          "internalType": "uint256",
          "name": "",
          "type": "uint256"
        }
      ],
      "stateMutability": "view",
      "type": "function"
    },
    {
      "inputs": [
        {
          "internalType": "bytes32[]",
          "name": "tag",
          "type": "bytes32[]"
        }
      ],
      "name": "countAllIds",
      "outputs": [
        {
          "internalType": "uint256[]",
          "name": "count",
          "type": "uint256[]"
        }
      ],
      "stateMutability": "view",
      "type": "function"
    },
    {
      "inputs": [
        {
          "internalType": "address[]",
          "name": "creator",
          "type": "address[]"
        }
      ],
      "name": "countAllIds",
      "outputs": [
        {
          "internalType": "uint256[]",
          "name": "count",
          "type": "uint256[]"
        }
      ],
      "stateMutability": "view",
      "type": "function"
    },
    {
      "inputs": [
        {
          "internalType": "address",
          "name": "creator",
          "type": "address"
        }
      ],
      "name": "countAllIds",
      "outputs": [
        {
          "internalType": "uint256",
          "name": "",
          "type": "uint256"
        }
      ],
      "stateMutability": "view",
      "type": "function"
    },
    {
      "inputs": [
        {
          "internalType": "bytes32",
          "name": "tag",
          "type": "bytes32"
        }
      ],
      "name": "countAllIds",
      "outputs": [
        {
          "internalType": "uint256",
          "name": "",
          "type": "uint256"
        }
      ],
      "stateMutability": "view",
      "type": "function"
    },
    {
      "inputs": [],
      "name": "countAllIds",
      "outputs": [
        {
          "internalType": "uint256",
          "name": "count",
          "type": "uint256"
        }
      ],
      "stateMutability": "view",
      "type": "function"
    },
    {
      "inputs": [
        {
          "internalType": "uint256[]",
          "name": "toId",
          "type": "uint256[]"
        }
      ],
      "name": "countAllReplies",
      "outputs": [
        {
          "internalType": "uint256[]",
          "name": "count",
          "type": "uint256[]"
        }
      ],
      "stateMutability": "view",
      "type": "function"
    },
    {
      "inputs": [
        {
          "internalType": "uint256",
          "name": "toId",
          "type": "uint256"
        }
      ],
      "name": "countAllReplies",
      "outputs": [
        {
          "internalType": "uint256",
          "name": "",
          "type": "uint256"
        }
      ],
      "stateMutability": "view",
      "type": "function"
    },
    {
      "inputs": [
        {
          "internalType": "address[]",
          "name": "toCreator",
          "type": "address[]"
        }
      ],
      "name": "countAllReplies",
      "outputs": [
        {
          "internalType": "uint256[]",
          "name": "count",
          "type": "uint256[]"
        }
      ],
      "stateMutability": "view",
      "type": "function"
    },
    {
      "inputs": [
        {
          "internalType": "address",
          "name": "toCreator",
          "type": "address"
        }
      ],
      "name": "countAllReplies",
      "outputs": [
        {
          "internalType": "uint256",
          "name": "",
          "type": "uint256"
        }
      ],
      "stateMutability": "view",
      "type": "function"
    },
    {
      "inputs": [
        {
          "internalType": "uint256[]",
          "name": "index",
          "type": "uint256[]"
        }
      ],
      "name": "creatorByIndex",
      "outputs": [
        {
          "internalType": "address[]",
          "name": "creator",
          "type": "address[]"
        }
      ],
      "stateMutability": "view",
      "type": "function"
    },
    {
      "inputs": [
        {
          "internalType": "uint256",
          "name": "index",
          "type": "uint256"
        }
      ],
      "name": "creatorByIndex",
      "outputs": [
        {
          "internalType": "address",
          "name": "creator",
          "type": "address"
        }
      ],
      "stateMutability": "view",
      "type": "function"
    },
    {
      "inputs": [],
      "name": "getAllCreators",
      "outputs": [
        {
          "internalType": "address[]",
          "name": "creator",
          "type": "address[]"
        }
      ],
      "stateMutability": "view",
      "type": "function"
    },
    {
      "inputs": [
        {
          "internalType": "bytes32",
          "name": "tag",
          "type": "bytes32"
        }
      ],
      "name": "getAllIds",
      "outputs": [
        {
          "internalType": "uint256[]",
          "name": "ids",
          "type": "uint256[]"
        }
      ],
      "stateMutability": "view",
      "type": "function"
    },
    {
      "inputs": [],
      "name": "getAllIds",
      "outputs": [
        {
          "internalType": "uint256[]",
          "name": "ids",
          "type": "uint256[]"
        }
      ],
      "stateMutability": "view",
      "type": "function"
    },
    {
      "inputs": [
        {
          "internalType": "address",
          "name": "creator",
          "type": "address"
        }
      ],
      "name": "getAllIds",
      "outputs": [
        {
          "internalType": "uint256[]",
          "name": "ids",
          "type": "uint256[]"
        }
      ],
      "stateMutability": "view",
      "type": "function"
    },
    {
      "inputs": [
        {
          "internalType": "address",
          "name": "toCreator",
          "type": "address"
        }
      ],
      "name": "getAllReplies",
      "outputs": [
        {
          "internalType": "uint256[]",
          "name": "ids",
          "type": "uint256[]"
        }
      ],
      "stateMutability": "view",
      "type": "function"
    },
    {
      "inputs": [
        {
          "internalType": "uint256",
          "name": "toId",
          "type": "uint256"
        }
      ],
      "name": "getAllReplies",
      "outputs": [
        {
          "internalType": "uint256[]",
          "name": "ids",
          "type": "uint256[]"
        }
      ],
      "stateMutability": "view",
      "type": "function"
    },
    {
      "inputs": [
        {
          "internalType": "uint256",
          "name": "tokenId",
          "type": "uint256"
        }
      ],
      "name": "getApproved",
      "outputs": [
        {
          "internalType": "address",
          "name": "",
          "type": "address"
        }
      ],
      "stateMutability": "view",
      "type": "function"
    },
    {
      "inputs": [
        {
          "internalType": "uint256",
          "name": "tokenId",
          "type": "uint256"
        }
      ],
      "name": "getData",
      "outputs": [
        {
          "components": [
            {
              "internalType": "address",
              "name": "creator",
              "type": "address"
            },
            {
              "internalType": "uint256",
              "name": "mintTime",
              "type": "uint256"
            },
            {
              "internalType": "uint256",
              "name": "initTime",
              "type": "uint256"
            },
            {
              "internalType": "uint256",
              "name": "expTime",
              "type": "uint256"
            },
            {
              "internalType": "string",
              "name": "tokenURI",
              "type": "string"
            },
            {
              "internalType": "bytes",
              "name": "data",
              "type": "bytes"
            },
            {
              "internalType": "uint256[]",
              "name": "toTokenId",
              "type": "uint256[]"
            },
            {
              "internalType": "bytes32[]",
              "name": "tags",
              "type": "bytes32[]"
            },
            {
              "internalType": "address[]",
              "name": "payableAddresses",
              "type": "address[]"
            },
            {
              "internalType": "uint16[]",
              "name": "payableShares",
              "type": "uint16[]"
            }
          ],
          "internalType": "struct DataStorage.Katibeh",
          "name": "katibeh",
          "type": "tuple"
        },
        {
          "internalType": "bytes",
          "name": "sig",
          "type": "bytes"
        },
        {
          "internalType": "bytes",
          "name": "dappData",
          "type": "bytes"
        }
      ],
      "stateMutability": "view",
      "type": "function"
    },
    {
      "inputs": [
        {
          "internalType": "uint256[]",
          "name": "tokenId",
          "type": "uint256[]"
        }
      ],
      "name": "getData",
      "outputs": [
        {
          "components": [
            {
              "internalType": "address",
              "name": "creator",
              "type": "address"
            },
            {
              "internalType": "uint256",
              "name": "mintTime",
              "type": "uint256"
            },
            {
              "internalType": "uint256",
              "name": "initTime",
              "type": "uint256"
            },
            {
              "internalType": "uint256",
              "name": "expTime",
              "type": "uint256"
            },
            {
              "internalType": "string",
              "name": "tokenURI",
              "type": "string"
            },
            {
              "internalType": "bytes",
              "name": "data",
              "type": "bytes"
            },
            {
              "internalType": "uint256[]",
              "name": "toTokenId",
              "type": "uint256[]"
            },
            {
              "internalType": "bytes32[]",
              "name": "tags",
              "type": "bytes32[]"
            },
            {
              "internalType": "address[]",
              "name": "payableAddresses",
              "type": "address[]"
            },
            {
              "internalType": "uint16[]",
              "name": "payableShares",
              "type": "uint16[]"
            }
          ],
          "internalType": "struct DataStorage.Katibeh[]",
          "name": "katibeh",
          "type": "tuple[]"
        },
        {
          "internalType": "bytes[]",
          "name": "sig",
          "type": "bytes[]"
        },
        {
          "internalType": "bytes[]",
          "name": "dappData",
          "type": "bytes[]"
        }
      ],
      "stateMutability": "view",
      "type": "function"
    },
    {
      "inputs": [
        {
          "internalType": "bytes",
          "name": "sig",
          "type": "bytes"
        }
      ],
      "name": "getId",
      "outputs": [
        {
          "internalType": "uint256",
          "name": "tokenId",
          "type": "uint256"
        }
      ],
      "stateMutability": "pure",
      "type": "function"
    },
    {
      "inputs": [
        {
          "internalType": "address[]",
          "name": "creator",
          "type": "address[]"
        },
        {
          "internalType": "uint256[]",
          "name": "id",
          "type": "uint256[]"
        }
      ],
      "name": "getIdDetails",
      "outputs": [
        {
          "internalType": "uint256[]",
          "name": "numIdsBefore",
          "type": "uint256[]"
        },
        {
          "internalType": "uint256[]",
          "name": "numIdsAfter",
          "type": "uint256[]"
        },
        {
          "internalType": "uint256[]",
          "name": "idBefore",
          "type": "uint256[]"
        },
        {
          "internalType": "uint256[]",
          "name": "idAfter",
          "type": "uint256[]"
        }
      ],
      "stateMutability": "view",
      "type": "function"
    },
    {
      "inputs": [
        {
          "internalType": "uint256[]",
          "name": "id",
          "type": "uint256[]"
        }
      ],
      "name": "getIdDetails",
      "outputs": [
        {
          "internalType": "uint256[]",
          "name": "numIdsBefore",
          "type": "uint256[]"
        },
        {
          "internalType": "uint256[]",
          "name": "numIdsAfter",
          "type": "uint256[]"
        },
        {
          "internalType": "uint256[]",
          "name": "idBefore",
          "type": "uint256[]"
        },
        {
          "internalType": "uint256[]",
          "name": "idAfter",
          "type": "uint256[]"
        }
      ],
      "stateMutability": "view",
      "type": "function"
    },
    {
      "inputs": [
        {
          "internalType": "address",
          "name": "creator",
          "type": "address"
        },
        {
          "internalType": "uint256",
          "name": "id",
          "type": "uint256"
        }
      ],
      "name": "getIdDetails",
      "outputs": [
        {
          "internalType": "uint256",
          "name": "numIdsBefore",
          "type": "uint256"
        },
        {
          "internalType": "uint256",
          "name": "numIdsAfter",
          "type": "uint256"
        },
        {
          "internalType": "uint256",
          "name": "idBefore",
          "type": "uint256"
        },
        {
          "internalType": "uint256",
          "name": "idAfter",
          "type": "uint256"
        }
      ],
      "stateMutability": "view",
      "type": "function"
    },
    {
      "inputs": [
        {
          "internalType": "bytes32",
          "name": "tag",
          "type": "bytes32"
        },
        {
          "internalType": "uint256",
          "name": "id",
          "type": "uint256"
        }
      ],
      "name": "getIdDetails",
      "outputs": [
        {
          "internalType": "uint256",
          "name": "numIdsBefore",
          "type": "uint256"
        },
        {
          "internalType": "uint256",
          "name": "numIdsAfter",
          "type": "uint256"
        },
        {
          "internalType": "uint256",
          "name": "idBefore",
          "type": "uint256"
        },
        {
          "internalType": "uint256",
          "name": "idAfter",
          "type": "uint256"
        }
      ],
      "stateMutability": "view",
      "type": "function"
    },
    {
      "inputs": [
        {
          "internalType": "uint256",
          "name": "id",
          "type": "uint256"
        }
      ],
      "name": "getIdDetails",
      "outputs": [
        {
          "internalType": "uint256",
          "name": "numIdsBefore",
          "type": "uint256"
        },
        {
          "internalType": "uint256",
          "name": "numIdsAfter",
          "type": "uint256"
        },
        {
          "internalType": "uint256",
          "name": "idBefore",
          "type": "uint256"
        },
        {
          "internalType": "uint256",
          "name": "idAfter",
          "type": "uint256"
        }
      ],
      "stateMutability": "view",
      "type": "function"
    },
    {
      "inputs": [
        {
          "internalType": "bytes32[]",
          "name": "tag",
          "type": "bytes32[]"
        },
        {
          "internalType": "uint256[]",
          "name": "id",
          "type": "uint256[]"
        }
      ],
      "name": "getIdDetails",
      "outputs": [
        {
          "internalType": "uint256[]",
          "name": "numIdsBefore",
          "type": "uint256[]"
        },
        {
          "internalType": "uint256[]",
          "name": "numIdsAfter",
          "type": "uint256[]"
        },
        {
          "internalType": "uint256[]",
          "name": "idBefore",
          "type": "uint256[]"
        },
        {
          "internalType": "uint256[]",
          "name": "idAfter",
          "type": "uint256[]"
        }
      ],
      "stateMutability": "view",
      "type": "function"
    },
    {
      "inputs": [
        {
          "components": [
            {
              "internalType": "address",
              "name": "creator",
              "type": "address"
            },
            {
              "internalType": "uint256",
              "name": "mintTime",
              "type": "uint256"
            },
            {
              "internalType": "uint256",
              "name": "initTime",
              "type": "uint256"
            },
            {
              "internalType": "uint256",
              "name": "expTime",
              "type": "uint256"
            },
            {
              "internalType": "string",
              "name": "tokenURI",
              "type": "string"
            },
            {
              "internalType": "bytes",
              "name": "data",
              "type": "bytes"
            },
            {
              "internalType": "uint256[]",
              "name": "toTokenId",
              "type": "uint256[]"
            },
            {
              "internalType": "bytes32[]",
              "name": "tags",
              "type": "bytes32[]"
            },
            {
              "internalType": "address[]",
              "name": "payableAddresses",
              "type": "address[]"
            },
            {
              "internalType": "uint16[]",
              "name": "payableShares",
              "type": "uint16[]"
            }
          ],
          "internalType": "struct DataStorage.Katibeh",
          "name": "katibeh",
          "type": "tuple"
        }
      ],
      "name": "getMessageHash",
      "outputs": [
        {
          "internalType": "bytes32",
          "name": "",
          "type": "bytes32"
        }
      ],
      "stateMutability": "view",
      "type": "function"
    },
    {
      "inputs": [
        {
          "internalType": "bytes32",
          "name": "uriHash",
          "type": "bytes32"
        }
      ],
      "name": "getUriId",
      "outputs": [
        {
          "internalType": "uint256",
          "name": "",
          "type": "uint256"
        }
      ],
      "stateMutability": "view",
      "type": "function"
    },
    {
      "inputs": [
        {
          "components": [
            {
              "internalType": "address",
              "name": "creator",
              "type": "address"
            },
            {
              "internalType": "uint256",
              "name": "mintTime",
              "type": "uint256"
            },
            {
              "internalType": "uint256",
              "name": "initTime",
              "type": "uint256"
            },
            {
              "internalType": "uint256",
              "name": "expTime",
              "type": "uint256"
            },
            {
              "internalType": "string",
              "name": "tokenURI",
              "type": "string"
            },
            {
              "internalType": "bytes",
              "name": "data",
              "type": "bytes"
            },
            {
              "internalType": "uint256[]",
              "name": "toTokenId",
              "type": "uint256[]"
            },
            {
              "internalType": "bytes32[]",
              "name": "tags",
              "type": "bytes32[]"
            },
            {
              "internalType": "address[]",
              "name": "payableAddresses",
              "type": "address[]"
            },
            {
              "internalType": "uint16[]",
              "name": "payableShares",
              "type": "uint16[]"
            }
          ],
          "internalType": "struct DataStorage.Katibeh",
          "name": "katibeh",
          "type": "tuple"
        },
        {
          "internalType": "bytes",
          "name": "sig",
          "type": "bytes"
        },
        {
          "internalType": "bytes",
          "name": "dappData",
          "type": "bytes"
        }
      ],
      "name": "globalMint",
      "outputs": [],
      "stateMutability": "nonpayable",
      "type": "function"
    },
    {
      "inputs": [
        {
          "internalType": "address",
          "name": "creator",
          "type": "address"
        },
        {
          "internalType": "uint256",
          "name": "index",
          "type": "uint256"
        }
      ],
      "name": "idByIndex",
      "outputs": [
        {
          "internalType": "uint256",
          "name": "id",
          "type": "uint256"
        }
      ],
      "stateMutability": "view",
      "type": "function"
    },
    {
      "inputs": [
        {
          "internalType": "bytes32",
          "name": "tag",
          "type": "bytes32"
        },
        {
          "internalType": "uint256",
          "name": "index",
          "type": "uint256"
        }
      ],
      "name": "idByIndex",
      "outputs": [
        {
          "internalType": "uint256",
          "name": "id",
          "type": "uint256"
        }
      ],
      "stateMutability": "view",
      "type": "function"
    },
    {
      "inputs": [
        {
          "internalType": "uint256[]",
          "name": "index",
          "type": "uint256[]"
        }
      ],
      "name": "idByIndex",
      "outputs": [
        {
          "internalType": "uint256[]",
          "name": "id",
          "type": "uint256[]"
        }
      ],
      "stateMutability": "view",
      "type": "function"
    },
    {
      "inputs": [
        {
          "internalType": "address[]",
          "name": "creator",
          "type": "address[]"
        },
        {
          "internalType": "uint256[]",
          "name": "index",
          "type": "uint256[]"
        }
      ],
      "name": "idByIndex",
      "outputs": [
        {
          "internalType": "uint256[]",
          "name": "id",
          "type": "uint256[]"
        }
      ],
      "stateMutability": "view",
      "type": "function"
    },
    {
      "inputs": [
        {
          "internalType": "bytes32[]",
          "name": "tag",
          "type": "bytes32[]"
        },
        {
          "internalType": "uint256[]",
          "name": "index",
          "type": "uint256[]"
        }
      ],
      "name": "idByIndex",
      "outputs": [
        {
          "internalType": "uint256[]",
          "name": "id",
          "type": "uint256[]"
        }
      ],
      "stateMutability": "view",
      "type": "function"
    },
    {
      "inputs": [
        {
          "internalType": "uint256",
          "name": "index",
          "type": "uint256"
        }
      ],
      "name": "idByIndex",
      "outputs": [
        {
          "internalType": "uint256",
          "name": "id",
          "type": "uint256"
        }
      ],
      "stateMutability": "view",
      "type": "function"
    },
    {
      "inputs": [
        {
          "internalType": "address",
          "name": "owner",
          "type": "address"
        },
        {
          "internalType": "address",
          "name": "operator",
          "type": "address"
        }
      ],
      "name": "isApprovedForAll",
      "outputs": [
        {
          "internalType": "bool",
          "name": "",
          "type": "bool"
        }
      ],
      "stateMutability": "view",
      "type": "function"
    },
    {
      "inputs": [
        {
          "components": [
            {
              "internalType": "address",
              "name": "creator",
              "type": "address"
            },
            {
              "internalType": "uint256",
              "name": "mintTime",
              "type": "uint256"
            },
            {
              "internalType": "uint256",
              "name": "initTime",
              "type": "uint256"
            },
            {
              "internalType": "uint256",
              "name": "expTime",
              "type": "uint256"
            },
            {
              "internalType": "string",
              "name": "tokenURI",
              "type": "string"
            },
            {
              "internalType": "bytes",
              "name": "data",
              "type": "bytes"
            },
            {
              "internalType": "uint256[]",
              "name": "toTokenId",
              "type": "uint256[]"
            },
            {
              "internalType": "bytes32[]",
              "name": "tags",
              "type": "bytes32[]"
            },
            {
              "internalType": "address[]",
              "name": "payableAddresses",
              "type": "address[]"
            },
            {
              "internalType": "uint16[]",
              "name": "payableShares",
              "type": "uint16[]"
            }
          ],
          "internalType": "struct DataStorage.Katibeh",
          "name": "katibeh",
          "type": "tuple"
        },
        {
          "internalType": "bytes",
          "name": "sig",
          "type": "bytes"
        },
        {
          "internalType": "bytes",
          "name": "dappData",
          "type": "bytes"
        }
      ],
      "name": "mint",
      "outputs": [
        {
          "internalType": "uint256",
          "name": "tokenId",
          "type": "uint256"
        }
      ],
      "stateMutability": "nonpayable",
      "type": "function"
    },
    {
      "inputs": [],
      "name": "moment",
      "outputs": [
        {
          "internalType": "uint256",
          "name": "",
          "type": "uint256"
        }
      ],
      "stateMutability": "view",
      "type": "function"
    },
    {
      "inputs": [],
      "name": "name",
      "outputs": [
        {
          "internalType": "string",
          "name": "",
          "type": "string"
        }
      ],
      "stateMutability": "view",
      "type": "function"
    },
    {
      "inputs": [
        {
          "internalType": "uint256",
          "name": "tokenId",
          "type": "uint256"
        }
      ],
      "name": "ownerOf",
      "outputs": [
        {
          "internalType": "address",
          "name": "",
          "type": "address"
        }
      ],
      "stateMutability": "view",
      "type": "function"
    },
    {
      "inputs": [
        {
          "internalType": "address[]",
          "name": "toCreator",
          "type": "address[]"
        },
        {
          "internalType": "uint256[]",
          "name": "index",
          "type": "uint256[]"
        }
      ],
      "name": "replyByIndex",
      "outputs": [
        {
          "internalType": "uint256[]",
          "name": "id",
          "type": "uint256[]"
        }
      ],
      "stateMutability": "view",
      "type": "function"
    },
    {
      "inputs": [
        {
          "internalType": "address",
          "name": "toCreator",
          "type": "address"
        },
        {
          "internalType": "uint256",
          "name": "index",
          "type": "uint256"
        }
      ],
      "name": "replyByIndex",
      "outputs": [
        {
          "internalType": "uint256",
          "name": "id",
          "type": "uint256"
        }
      ],
      "stateMutability": "view",
      "type": "function"
    },
    {
      "inputs": [
        {
          "internalType": "uint256",
          "name": "toId",
          "type": "uint256"
        },
        {
          "internalType": "uint256",
          "name": "index",
          "type": "uint256"
        }
      ],
      "name": "replyByIndex",
      "outputs": [
        {
          "internalType": "uint256",
          "name": "id",
          "type": "uint256"
        }
      ],
      "stateMutability": "view",
      "type": "function"
    },
    {
      "inputs": [
        {
          "internalType": "uint256[]",
          "name": "toId",
          "type": "uint256[]"
        },
        {
          "internalType": "uint256[]",
          "name": "index",
          "type": "uint256[]"
        }
      ],
      "name": "replyByIndex",
      "outputs": [
        {
          "internalType": "uint256[]",
          "name": "id",
          "type": "uint256[]"
        }
      ],
      "stateMutability": "view",
      "type": "function"
    },
    {
      "inputs": [
        {
          "internalType": "address",
          "name": "from",
          "type": "address"
        },
        {
          "internalType": "address",
          "name": "to",
          "type": "address"
        },
        {
          "internalType": "uint256",
          "name": "tokenId",
          "type": "uint256"
        }
      ],
      "name": "safeTransferFrom",
      "outputs": [],
      "stateMutability": "nonpayable",
      "type": "function"
    },
    {
      "inputs": [
        {
          "internalType": "address",
          "name": "from",
          "type": "address"
        },
        {
          "internalType": "address",
          "name": "to",
          "type": "address"
        },
        {
          "internalType": "uint256",
          "name": "tokenId",
          "type": "uint256"
        },
        {
          "internalType": "bytes",
          "name": "data",
          "type": "bytes"
        }
      ],
      "name": "safeTransferFrom",
      "outputs": [],
      "stateMutability": "nonpayable",
      "type": "function"
    },
    {
      "inputs": [
        {
          "internalType": "address",
          "name": "operator",
          "type": "address"
        },
        {
          "internalType": "bool",
          "name": "approved",
          "type": "bool"
        }
      ],
      "name": "setApprovalForAll",
      "outputs": [],
      "stateMutability": "nonpayable",
      "type": "function"
    },
    {
      "inputs": [
        {
          "internalType": "bytes4",
          "name": "interfaceId",
          "type": "bytes4"
        }
      ],
      "name": "supportsInterface",
      "outputs": [
        {
          "internalType": "bool",
          "name": "",
          "type": "bool"
        }
      ],
      "stateMutability": "view",
      "type": "function"
    },
    {
      "inputs": [],
      "name": "symbol",
      "outputs": [
        {
          "internalType": "string",
          "name": "",
          "type": "string"
        }
      ],
      "stateMutability": "view",
      "type": "function"
    },
    {
      "inputs": [
        {
          "internalType": "uint256",
          "name": "index",
          "type": "uint256"
        }
      ],
      "name": "tokenByIndex",
      "outputs": [
        {
          "internalType": "uint256",
          "name": "",
          "type": "uint256"
        }
      ],
      "stateMutability": "view",
      "type": "function"
    },
    {
      "inputs": [
        {
          "internalType": "address",
          "name": "owner",
          "type": "address"
        },
        {
          "internalType": "uint256",
          "name": "index",
          "type": "uint256"
        }
      ],
      "name": "tokenOfOwnerByIndex",
      "outputs": [
        {
          "internalType": "uint256",
          "name": "",
          "type": "uint256"
        }
      ],
      "stateMutability": "view",
      "type": "function"
    },
    {
      "inputs": [
        {
          "internalType": "uint256",
          "name": "tokenId",
          "type": "uint256"
        }
      ],
      "name": "tokenURI",
      "outputs": [
        {
          "internalType": "string",
          "name": "",
          "type": "string"
        }
      ],
      "stateMutability": "view",
      "type": "function"
    },
    {
      "inputs": [],
      "name": "totalSupply",
      "outputs": [
        {
          "internalType": "uint256",
          "name": "",
          "type": "uint256"
        }
      ],
      "stateMutability": "view",
      "type": "function"
    },
    {
      "inputs": [
        {
          "internalType": "address",
          "name": "from",
          "type": "address"
        },
        {
          "internalType": "address",
          "name": "to",
          "type": "address"
        },
        {
          "internalType": "uint256",
          "name": "tokenId",
          "type": "uint256"
        }
      ],
      "name": "transferFrom",
      "outputs": [],
      "stateMutability": "nonpayable",
      "type": "function"
    }
  ],
  "bytecode": "0x60803462000311576001600160401b039060409080820183811182821017620002fb578252600a8152602092694b61746962656837323160b01b84830152825183810181811083821117620002fb578452600781526609682a892848a960cb1b85820152825190828211620002fb5760008054926001958685811c95168015620002f0575b89861014620002dc578190601f9586811162000289575b5089908683116001146200022557849262000219575b5050600019600383901b1c191690861b1781555b8151938411620002055784548581811c91168015620001fa575b88821014620001e6578381116200019e575b508692841160011462000138578394959650926200012c575b5050600019600383901b1c191690821b1790555b51614f179081620003178239f35b0151905038806200010a565b9190601f1984169685845280842093905b8882106200018657505083859697106200016c575b505050811b0190556200011e565b015160001960f88460031b161c191690553880806200015e565b80878596829496860151815501950193019062000149565b8582528782208480870160051c8201928a8810620001dc575b0160051c019086905b828110620001d0575050620000f1565b838155018690620001c0565b92508192620001b7565b634e487b7160e01b82526022600452602482fd5b90607f1690620000df565b634e487b7160e01b81526041600452602490fd5b015190503880620000b1565b8480528a85208994509190601f198416865b8d82821062000272575050841162000258575b505050811b018155620000c5565b015160001960f88460031b161c191690553880806200024a565b8385015186558c9790950194938401930162000237565b9091508380528984208680850160051c8201928c8610620002d2575b918a91869594930160051c01915b828110620002c35750506200009b565b8681558594508a9101620002b3565b92508192620002a5565b634e487b7160e01b83526022600452602483fd5b94607f169462000084565b634e487b7160e01b600052604160045260246000fd5b600080fdfe60806040526004361015610013575b600080fd5b60003560e01c80630178fe3f146104af57806301ffc9a7146104a657806306fdde031461049d578063081812fc1461049457806308b430791461048b578063095ea7b31461048257806318160ddd1461047957806319459d22146104705780631b2a6959146104675780631f639da01461045e578063221cb72c1461045557806323b872dd1461044c5780632819bbc6146104435780632f745c591461043a57806335c134161461043157806337f04adb1461042857806342842e0e1461041f57806342966c681461041657806343c63c751461040d5780634646b3c7146104045780634d939cb2146103fb5780634ee99433146103f25780634f6ccce7146103e9578063537d7065146103e0578063553e19eb146103d757806356a688ac146103ce5780635a7873a2146103c55780636352211e146103bc578063697fceca146103b35780636d571b6a146103aa5780636e0d34a5146103a157806370a0823114610398578063782922361461038f5780637cd9da411461038657806386c6b9ec1461037d5780639153d6581461037457806392c9038b1461036b57806395d89b4114610362578063999533ce14610359578063a22cb46514610350578063a2c4dc2914610347578063a62042ed1461033e578063aaa44e5c14610335578063b88d4fde1461032c578063b9f666f914610323578063bd78cbd01461031a578063c87b56dd14610311578063cbd8f87e14610308578063d0e44109146102ff578063df984901146102f6578063e2e8a0ce146102ed578063e4077a1c146102e4578063e4a779e9146102db578063e985e9c5146102d2578063e98e08fb146102c9578063eb429c16146102c0578063f0d014e7146102b7578063f5ea0987146102ae5763f97fac4d146102a657600080fd5b61000e61208b565b5061000e61200e565b5061000e611fd3565b5061000e611fa4565b5061000e611f1a565b5061000e611eb1565b5061000e611e92565b5061000e611e72565b5061000e611e53565b5061000e611e37565b5061000e611e14565b5061000e611de7565b5061000e611d92565b5061000e611d43565b5061000e611cd1565b5061000e611c69565b5061000e611b9e565b5061000e611b2e565b5061000e611b11565b5061000e611a20565b5061000e6119d2565b5061000e61192c565b5061000e611909565b5061000e611843565b5061000e6116f4565b5061000e61167e565b5061000e611651565b5061000e611629565b5061000e6115fe565b5061000e6115df565b5061000e61155c565b5061000e61153d565b5061000e611501565b5061000e6114aa565b5061000e611488565b5061000e611465565b5061000e6113b9565b5061000e61138e565b5061000e611318565b5061000e61127e565b5061000e61111a565b5061000e611058565b5061000e61102f565b5061000e610fdd565b5061000e610fbe565b5061000e610f06565b5061000e610e10565b5061000e610d4c565b5061000e610cbd565b5061000e610c50565b5061000e610bb1565b5061000e610a7f565b5061000e61099e565b5061000e6108c3565b5061000e61088f565b5061000e610840565b5061000e610760565b5061000e6106c6565b5061000e610657565b919082519283825260005b8481106104e4575050826000602080949584010152601f8019910116010190565b6020818301810151848301820152016104c3565b90815180825260208080930193019160005b828110610518575050505090565b83518552938101939281019260010161050a565b90815180825260208080930193019160005b82811061054c575050505090565b83516001600160a01b03168552938101939281019260010161053e565b90815180825260208080930193019160005b828110610589575050505090565b835161ffff168552938101939281019260010161057b565b80516001600160a01b03168252610654919060208101516020830152604081015160408301526060810151606083015261064061062c61061a6106086105f660808601516101408060808a01528801906104b8565b60a086015187820360a08901526104b8565b60c085015186820360c08801526104f8565b60e084015185820360e08701526104f8565b61010080840151908583039086015261052c565b916101208092015191818403910152610569565b90565b503461000e57602036600319011261000e576106946106a26106b061067d600435614da3565b9193906040519586956060875260608701906105a1565b9085820360208701526104b8565b9083820360408501526104b8565b0390f35b6001600160e01b031981160361000e57565b503461000e57602036600319011261000e5760206004356106e6816106b4565b63ffffffff60e01b1663780e9d6360e01b811490811561070c575b506040519015158152f35b6380ac58cd60e01b81149150811561073e575b811561072d575b5038610701565b6301ffc9a760e01b14905038610726565b635b5e139f60e01b8114915061071f565b9060206106549281815201906104b8565b503461000e5760008060031936011261083d5760405190808054610783816121f9565b8085529160019180831690811561081357506001146107b9575b6106b0856107ad81870382611217565b6040519182918261074f565b80809450527f290decd9548b62a8d60345a988386fc84ba6bc95484008f6362f93160ef3e5635b8284106107fb5750505081016020016107ad826106b061079d565b805460208587018101919091529093019281016107e0565b8695506106b0969350602092506107ad94915060ff191682840152151560051b820101929361079d565b80fd5b503461000e57602036600319011261000e57602061085f600435612356565b6040516001600160a01b039091168152f35b6001600160a01b0381160361000e57565b359061088d82610871565b565b503461000e57604036600319011261000e5760206108bb6004356108b281610871565b60243590613a15565b604051908152f35b503461000e57604036600319011261000e576004356108e181610871565b6024356108ed816121d6565b916001600160a01b03808416908216811461094f5761091f9361091a913314908115610921575b506122e4565b61273b565b005b6001600160a01b0316600090815260056020908152604080832033845290915290205460ff16905038610914565b60405162461bcd60e51b815260206004820152602160248201527f4552433732313a20617070726f76616c20746f2063757272656e74206f776e656044820152603960f91b6064820152608490fd5b503461000e57600036600319011261000e576020600854604051908152f35b9181601f8401121561000e578235916001600160401b03831161000e576020808501948460051b01011161000e57565b604060031982011261000e576001600160401b039160043583811161000e5782610a19916004016109bd565b9390939260243591821161000e57610a33916004016109bd565b9091565b92610a636106549593610a55610a71946080885260808801906104f8565b9086820360208801526104f8565b9084820360408601526104f8565b9160608184039101526104f8565b503461000e57610a8e366109ed565b610a9c8184939594146139c9565b610aa58261357e565b92610aaf8361357e565b94610ab98461357e565b92610ac38561357e565b9460005b818110610adf57604051806106b089898d8d85610a37565b80610b0d610af1610b3e9385896130f8565b35610afb81610871565b610b068387896130f8565b3590613a49565b610b17858d6135b0565b52610b22848b6135b0565b52610b2d838d6135b0565b52610b38828b6135b0565b526130a5565b610ac7565b602060031982011261000e57600435906001600160401b03821161000e57610a33916004016109bd565b6020908160408183019282815285518094520193019160005b828110610b94575050505090565b83516001600160a01b031685529381019392810192600101610b86565b503461000e57610bc036610b43565b90610bca82611258565b91610bd86040519384611217565b808352601f19610be782611258565b0136602085013760005b818110610c0657604051806106b08682610b6d565b80610c1e610c18610c3a9385876130f8565b35613b3c565b610c2882876135b0565b6001600160a01b0390911690526130a5565b610bf1565b9060206106549281815201906104f8565b503461000e57610c5f36610b43565b90610c698261357e565b9160005b818110610c8a57604051602080825281906106b0908201876104f8565b80610cae610c9c610cb89385876130f8565b35600052601460205260406000205490565b610b3882876135b0565b610c6d565b503461000e57610ccc36610b43565b90610cd68261357e565b9160005b818110610cf757604051602080825281906106b0908201876104f8565b80610cae610d09610d1b9385876130f8565b35600052601660205260406000205490565b610cda565b606090600319011261000e57600435610d3881610871565b90602435610d4581610871565b9060443590565b503461000e5761091f610d5e36610d20565b91610d71610d6c843361249a565b612394565b6125a6565b908161014091031261000e5790565b9181601f8401121561000e578235916001600160401b03831161000e576020838186019501011161000e57565b606060031982011261000e576001600160401b039060043582811161000e5781610dde91600401610d76565b9260243583811161000e5782610df691600401610d85565b9390939260443591821161000e57610a3391600401610d85565b503461000e57610e2e610e2236610db2565b92849594929192612dd0565b600e54816000526010602052604060002055610e4981613834565b50610e5c81610e5784612d48565b613b06565b610e6d610e6883612d48565b613bd7565b60c08201610e7b81846129cc565b91905060005b828110610e9f5761091f84610e9960e08801886129cc565b91613cad565b80610ec1610eba610f0193610eb4868a6129cc565b906130f8565b3586613be9565b610efc85610ef7610eea610ed985610eb4898d6129cc565b35600052600a602052604060002090565b546001600160a01b031690565b613bff565b6130a5565b610e81565b503461000e57604036600319011261000e57600435610f2481610871565b60243590610f3181612113565b821015610f65576001600160a01b031660009081526006602090815260408083209383529281529082902054915191825290f35b60405162461bcd60e51b815260206004820152602b60248201527f455243373231456e756d657261626c653a206f776e657220696e646578206f7560448201526a74206f6620626f756e647360a81b6064820152608490fd5b503461000e57600036600319011261000e576020601254604051908152f35b503461000e57602036600319011261000e57600435610ffb81610871565b60018060a01b031660005260156020526106b061101b6040600020613b88565b6040519182916020835260208301906104f8565b503461000e5761091f61104136610d20565b906040519261104f846111d4565b600084526123f7565b503461000e57602036600319011261000e5760043561107a610d6c823361249a565b61110a611086826121d6565b6110908382613110565b611099836126e7565b6001600160a01b03166000818152600360205260408120805491949283928692600019820191821161110d575b5582825260026020526040822080546001600160a01b03191690557fddf252ad1be2c89b69c2b068fc378daa952ba7f163c4a11628f55a4df523b3ef8280a4613f2e565b80f35b61111561256a565b6110c6565b503461000e57611129366109ed565b92916111368482146139c9565b61113f8161357e565b93600091825b81811061116257604051602080825281906106b09082018a6104f8565b806111a76111746111b893858a6130f8565b3561117e81610871565b61118983878a6130f8565b6001600160a01b0390911687526015602052604087209035906129a6565b90549060031b1c610b38828a6135b0565b611145565b50634e487b7160e01b600052604160045260246000fd5b602081019081106001600160401b038211176111ef57604052565b6111f76111bd565b604052565b606081019081106001600160401b038211176111ef57604052565b90601f801991011681019081106001600160401b038211176111ef57604052565b6040519061014082018281106001600160401b038211176111ef57604052565b6020906001600160401b038111611271575b60051b0190565b6112796111bd565b61126a565b503461000e5760208060031936011261000e576004356001600160401b03811161000e573660238201121561000e578060040135906112bc82611258565b916112ca6040519384611217565b80835260248484019160051b8301019136831161000e57602401905b828210611309576106b06112f985613663565b9060409492945194859485610a37565b813581529084019084016112e6565b503461000e5761132736610b43565b906113318261357e565b9160005b81811061135257604051602080825281906106b0908201876104f8565b80610cae6113646113899385876130f8565b3561136e81610871565b6001600160a01b031660009081526011602052604090205490565b611335565b503461000e57602036600319011261000e5760206108bb600435600052601460205260406000205490565b503461000e57602036600319011261000e5760043560085481101561140b5760086000527ff3f7a9fe364faab93b216da50a3214154f22a0a2b415b23a84c8169e8b636ee30154604051908152602090f35b60405162461bcd60e51b815260206004820152602c60248201527f455243373231456e756d657261626c653a20676c6f62616c20696e646578206f60448201526b7574206f6620626f756e647360a01b6064820152608490fd5b503461000e57602036600319011261000e5760206108bb60043561136e81610871565b503461000e57604036600319011261000e5760206108bb602435600435613c20565b503461000e576114b936610b43565b906114c38261357e565b9160005b8181106114e457604051602080825281906106b0908201876104f8565b80610cae6114f66114fc9385876130f8565b356135d2565b6114c7565b503461000e57602036600319011261000e576004356001600160401b03811161000e576108bb6115376020923690600401610d85565b90614ea9565b503461000e57602036600319011261000e57602061085f6004356121d6565b503461000e5761156b366109ed565b61157881849594146139c9565b6115818461357e565b9360005b8181106115a257604051602080825281906106b0908201896104f8565b806115d06115b46115da9385896130f8565b356115be81610871565b6115c98387896130f8565b3590613a15565b610b3882896135b0565b611585565b503461000e57602036600319011261000e57602061085f600435613b3c565b503461000e57602036600319011261000e5760206108bb600435600052601660205260406000205490565b503461000e57602036600319011261000e5760206108bb60043561164c81610871565b612113565b503461000e57602036600319011261000e57600435600052600b6020526020604060002054604051908152f35b503461000e5761168d36610b43565b906116978261357e565b9160005b8181106116b857604051602080825281906106b0908201876104f8565b80610cae6116ca6116ef9385876130f8565b356116d481610871565b6001600160a01b031660009081526015602052604090205490565b61169b565b503461000e5760208060031936011261000e57600060043581526016825260408120908154916117238361357e565b936002820191835b85811061174057604051806106b08982610c3f565b8061174e61176592846129a6565b90549060031b1c808752858552610b38828a6135b0565b61172b565b90815180825260208092019182818360051b82019501936000915b8483106117955750505050505090565b90919293949584806117af83856001950387528a516104b8565b9801930193019194939290611785565b919392909360608301906060845285518092526080840160808360051b860101926020809801916000905b82821061181957505050509061180b9161065495968583039086015261176a565b91604081840391015261176a565b909192948980611835600193607f198c820301865289516105a1565b9701920192019092916117ea565b503461000e5761185236610b43565b9061185c82611258565b6118696040519182611217565b828152601f1961187884611258565b0160005b8181106118f257505061188e83614954565b9161189884614954565b9060005b8581106118b55750506106b090604051938493846117bf565b806118cd6118c76118ed9389866130f8565b35614da3565b6118d784886135b0565b526118e283896135b0565b52610b3882876135b0565b61189c565b6020906118fd6148e6565b8282860101520161187c565b503461000e57602036600319011261000e5760206108bb6004356116d481610871565b503461000e5760008060031936011261083d5760405190806001805491611952836121f9565b808652928281169081156108135750600114611978576106b0856107ad81870382611217565b92508083527fb10e2d527612073b26eecdfd717e6a320cf44b4afac2b0732d9fcbe2b7fa0cf65b8284106119ba5750505081016020016107ad826106b061079d565b8054602085870181019190915290930192810161199f565b503461000e57604036600319011261000e576004356119f081610871565b60018060a01b031660005260156020526020611a1260243560406000206129a6565b90546040519160031b1c8152f35b503461000e57604036600319011261000e57600435611a3e81610871565b602435801515810361000e576001600160a01b03821691338314611acc5781611a89611a9a9233600052600560205260406000209060018060a01b0316600052602052604060002090565b9060ff801983541691151516179055565b604051901515815233907f17307eab39ab6107e8899845ad3d59bd9653f200f220920489ca2b5937696c3190602090a3005b60405162461bcd60e51b815260206004820152601960248201527f4552433732313a20617070726f766520746f2063616c6c6572000000000000006044820152606490fd5b503461000e5760206108bb611b2536610db2565b93929092612dd0565b503461000e57611b3d366109ed565b611b4a81849594146139c9565b611b538461357e565b9360005b818110611b7457604051602080825281906106b0908201896104f8565b806115d0611b86611b999385896130f8565b35611b928387896130f8565b3590613c20565b611b57565b503461000e5760008060031936011261083d57600e54611bbd8161357e565b91805b828110611bdd57604051602080825281906106b0908201876104f8565b80611bea611c0392612961565b90549060031b1c8084526010602052610b3882876135b0565b611bc0565b6020906001600160401b038111611c25575b601f01601f19160190565b611c2d6111bd565b611c1a565b929192611c3e82611c08565b91611c4c6040519384611217565b82948184528183011161000e578281602093846000960137010152565b503461000e57608036600319011261000e57600435611c8781610871565b602435611c9381610871565b606435916001600160401b03831161000e573660238401121561000e57611cc761091f933690602481600401359101611c32565b91604435916123f7565b503461000e5760208060031936011261000e57600435611cf081610871565b6001600160a01b03166000908152601182526040812080549190611d138361357e565b936002820191835b858110611d3057604051806106b08982610c3f565b8061174e611d3e92846129a6565b611d1b565b503461000e57604036600319011261000e576106b0611d70600435611d6781610871565b60243590613a49565b6040805194855260208501939093529183015260608201529081906080820190565b503461000e57602036600319011261000e57600435600052600a6020526106b0611dcc611dd3600460406000200160405192838092612233565b0382611217565b6040519182916020835260208301906104b8565b503461000e57602036600319011261000e5760043560005260146020526106b061101b6040600020613b88565b503461000e57604036600319011261000e576106b0611d70602435600435613c39565b503461000e57600036600319011261000e576020604051428152f35b503461000e57600036600319011261000e576020600e54604051908152f35b503461000e57602036600319011261000e576106b0611d706004356136d9565b503461000e57602036600319011261000e5760206108bb6004356135d2565b503461000e57604036600319011261000e57602060ff611f0e600435611ed681610871565b60243590611ee382610871565b60018060a01b03166000526005845260406000209060018060a01b0316600052602052604060002090565b54166040519015158152f35b503461000e57611f29366109ed565b611f378184939594146139c9565b611f408261357e565b92611f4a8361357e565b94611f548461357e565b92611f5e8561357e565b9460005b818110611f7a57604051806106b089898d8d85610a37565b80610b0d611f8c611f9f9385896130f8565b35611f988387896130f8565b3590613c39565b611f62565b503461000e57604036600319011261000e5760043560005260146020526020611a1260243560406000206129a6565b503461000e57602036600319011261000e576004356001600160401b03811161000e576108bb6120096020923690600401610d76565b612c53565b503461000e5761201d366109ed565b929161202a8482146139c9565b6120338161357e565b93600091825b81811061205657604051602080825281906106b09082018a6104f8565b806111a761206861208693858a6130f8565b3561207483878a6130f8565b359087526014602052604087206129a6565b612039565b503461000e57600036600319011261000e57604051806012549182815260208091019260126000527fbb8a6a4669ba250d26cd7a459eca9d215f8307e33aebe50379bc5a3617ec3444916000905b8282106120fc576106b0856120f081890382611217565b60405191829182610b6d565b8354865294850194600193840193909101906120d9565b6001600160a01b0316801561213357600052600360205260406000205490565b60405162461bcd60e51b815260206004820152602960248201527f4552433732313a2061646472657373207a65726f206973206e6f7420612076616044820152683634b21037bbb732b960b91b6064820152608490fd5b1561219157565b60405162461bcd60e51b815260206004820152601860248201527f4552433732313a20696e76616c696420746f6b656e20494400000000000000006044820152606490fd5b6000908152600260205260409020546001600160a01b031661065481151561218a565b90600182811c92168015612229575b602083101461221357565b634e487b7160e01b600052602260045260246000fd5b91607f1691612208565b9060009291805491612244836121f9565b9182825260019384811690816000146122a65750600114612266575b50505050565b90919394506000526020928360002092846000945b838610612292575050505001019038808080612260565b80548587018301529401938590820161227b565b9294505050602093945060ff191683830152151560051b01019038808080612260565b9061088d6122dd9260405193848092612233565b0383611217565b156122eb57565b60405162461bcd60e51b815260206004820152603e60248201527f4552433732313a20617070726f76652063616c6c6572206973206e6f7420746f60448201527f6b656e206f776e6572206e6f7220617070726f76656420666f7220616c6c00006064820152608490fd5b600081815260026020526040902054612379906001600160a01b0316151561218a565b6000908152600460205260409020546001600160a01b031690565b1561239b57565b60405162461bcd60e51b815260206004820152602e60248201527f4552433732313a2063616c6c6572206973206e6f7420746f6b656e206f776e6560448201526d1c881b9bdc88185c1c1c9bdd995960921b6064820152608490fd5b9161088d939161241e9361240e610d6c843361249a565b6124198383836125a6565b61290e565b612476565b60809060208152603260208201527f4552433732313a207472616e7366657220746f206e6f6e20455243373231526560408201527131b2b4bb32b91034b6b83632b6b2b73a32b960711b60608201520190565b1561247d57565b60405162461bcd60e51b81528061249660048201612423565b0390fd5b6001600160a01b03806124ac846121d6565b1692818316928484149485156124e2575b505083156124cc575b50505090565b6124d891929350612356565b16143880806124c6565b60009081526005602090815260408083206001600160a01b03949094168352929052205460ff16935038806124bd565b1561251957565b60405162461bcd60e51b8152602060048201526024808201527f4552433732313a207472616e7366657220746f20746865207a65726f206164646044820152637265737360e01b6064820152608490fd5b50634e487b7160e01b600052601160045260246000fd5b60001981019190821161259057565b61088d61256a565b906001820180921161259057565b906125b0836121d6565b6001600160a01b0383811692909182168390036126945761260a61266d928216946125dc861515612512565b6125e78784836132b9565b6125f0876126e7565b6001600160a01b0316600090815260036020526040902090565b6126148154612581565b90556001600160a01b03811660009081526003602052604090206126388154612598565b905561264e856000526002602052604060002090565b80546001600160a01b0319166001600160a01b03909216919091179055565b7fddf252ad1be2c89b69c2b068fc378daa952ba7f163c4a11628f55a4df523b3ef600080a4565b60405162461bcd60e51b815260206004820152602560248201527f4552433732313a207472616e736665722066726f6d20696e636f72726563742060448201526437bbb732b960d91b6064820152608490fd5b600081815260046020526040812080546001600160a01b03191690556001600160a01b03612714836121d6565b167f8c5be1e5ebec7d5bd14f71427d1e84f3dd0314c0f7b2291e5b200ac8c7c3b9258280a4565b600082815260046020526040902080546001600160a01b0319166001600160a01b0383161790556001600160a01b0380612774846121d6565b169116907f8c5be1e5ebec7d5bd14f71427d1e84f3dd0314c0f7b2291e5b200ac8c7c3b925600080a4565b9081602091031261000e5751610654816106b4565b610654939260809260018060a01b0316825260006020830152604082015281606082015201906104b8565b6001600160a01b039182168152911660208201526040810191909152608060608201819052610654929101906104b8565b506040513d6000823e3d90fd5b3d15612848573d9061282e82611c08565b9161283c6040519384611217565b82523d6000602084013e565b606090565b909190803b156129065761287f602091600093604051948580948193630a85bd0160e11b998a845233600485016127b4565b03926001600160a01b03165af1600091816128d6575b506128c8576128a261281d565b805190816128c35760405162461bcd60e51b81528061249660048201612423565b602001fd5b6001600160e01b0319161490565b6128f891925060203d81116128ff575b6128f08183611217565b81019061279f565b9038612895565b503d6128e6565b505050600190565b92909190823b156129415761287f926020926000604051809681958294630a85bd0160e11b9a8b855233600486016127df565b50505050600190565b50634e487b7160e01b600052603260045260246000fd5b600e54811015612999575b600e6000527fbb7b4a454dc3493923482f07822329ed19e8244eff582cc204f8554c3620c3fd0190600090565b6129a161294a565b61296c565b80548210156129bf575b60005260206000200190600090565b6129c761294a565b6129b0565b903590601e198136030182121561000e57018035906001600160401b03821161000e57602001918160051b3603831361000e57565b9035601e198236030181121561000e5701602081359101916001600160401b03821161000e57813603831361000e57565b908060209392818452848401376000828201840152601f01601f1916010190565b9035601e198236030181121561000e5701602081359101916001600160401b03821161000e578160051b3603831361000e57565b81835290916001600160fb1b03831161000e5760209260051b809284830137010190565b91908082526020809201929160005b828110612ac8575050505090565b9091929382806001928735612adc81610871565b848060a01b03168152019501910192919092612aba565b61ffff81160361000e57565b91908082526020809201929160005b828110612b1c575050505090565b90919293828060019261ffff8835612b3381612af3565b16815201950193929101612b0e565b90612bad6106549260208152612b6b60208201612b5e85610882565b6001600160a01b03169052565b602083013560408201526040830135606082015260608301356080820152612b966080840184612a01565b9290610140938460a0850152610160840191612a32565b90612c44612bf5612bd8612bc460a0880188612a01565b601f19868803810160c08801529691612a32565b612be560c0880188612a53565b90868684030160e0870152612a87565b94612c3b612c28612c1f612c0c60e0850185612a53565b6101009a9189898403018c8a0152612a87565b97830183612a53565b610120989187878403018a880152612aab565b95810190612a53565b93909282860301910152612aff565b6020810135610e104201804211612d3b575b81109081612d17575b501561000e57612c826101008201826129cc565b9050612c926101208301836129cc565b91905003612cc357604051612cbd81612caf602082019485612b42565b03601f198101835282611217565b51902090565b60405162461bcd60e51b815260206004820152602660248201527f70617961626c6520617272617973206d757374206265207468652073616d65206044820152651b195b99da1d60d21b6064820152608490fd5b42610e0f19810192508211612d2e575b1138612c6e565b612d3661256a565b612d27565b612d4361256a565b612c65565b3561065481610871565b15612d5957565b60405162461bcd60e51b815260206004820152601d60248201527f4b6174696265683732313a20496e76616c6964207369676e61747572650000006044820152606490fd5b903590601e198136030182121561000e57018035906001600160401b03821161000e5760200191813603831361000e57565b92949394612dde8383614ea9565b95843591612deb83610871565b612df486612c53565b60405160208101917f19457468657265756d205369676e6564204d6573736167653a0a3332000000008352603c820152603c8152612e31816111fc565b51902092612e40368787611c32565b936041855103612f1f5761088d97612ec2612f069360206000612eff958a612e9d84612f0c9d0151916060604082015191015192604051948594871a90859094939260ff6060936080840197845216602083015260408201520152565b838052039060015afa15612f12575b6000516001600160a01b03908116911614612d52565b612ed48b612ecf83612d48565b612f64565b612eeb8b612ee56080840184612d9e565b90613e33565b612ef5818c61450c565b60e08101906129cc565b908a61485f565b876146dd565b846147a1565b612f1a612810565b612eac565b60405162461bcd60e51b815260206004820152601860248201527f696e76616c6964207369676e6174757265206c656e67746800000000000000006044820152606490fd5b90604051612f71816111d4565b600081526001600160a01b038316918215613061576000818152600260205260409020546001600160a01b031661301c57838161241e94612fb58261088d9861328e565b6001600160a01b0383166000908152600360205260409020612fd78154612598565b9055612ff18361264e846000526002602052604060002090565b60007fddf252ad1be2c89b69c2b068fc378daa952ba7f163c4a11628f55a4df523b3ef8180a461284d565b60405162461bcd60e51b815260206004820152601c60248201527f4552433732313a20746f6b656e20616c7265616479206d696e746564000000006044820152606490fd5b606460405162461bcd60e51b815260206004820152602060248201527f4552433732313a206d696e7420746f20746865207a65726f20616464726573736044820152fd5b60019060001981146130b5570190565b6130bd61256a565b0190565b90156130ca5790565b61065461294a565b602091600110156130e1570190565b6130bd61294a565b604091600210156130e1570190565b91908110156131085760051b0190565b61127961294a565b6001600160a01b0381168015929183158481613286575b156132325761088d941561314657505050613141816133f4565b613468565b613152575b5050613468565b806131bb6131626131ca93612113565b600019810192908311613225575b60009486865260076020526040862054908482036131d2575b5050846131a0876000526007602052604060002090565b556001600160a01b0316600090815260066020526040902090565b90600052602052604060002090565b55388061314b565b865260066020526040862084875260205261321d60408720548061320c846131bb8760018060a01b03166000526006602052604060002090565b556000526007602052604060002090565b553880613189565b61322d61256a565b613170565b60405162461bcd60e51b815260206004820152602660248201527f746f6b656e732063616e6e6f74206265207472616e736665726564206f6e2074604482015265195cdd1b995d60d21b6064820152608490fd5b506001613127565b90613298816133f4565b6001600160a01b0382166132b05761088d9150613468565b61088d916133bc565b9091906001600160a01b038082169182158080156133b2575b15613232571561330257506132e6836133f4565b8316806132f957505061088d9150613468565b036132b0575050565b8185168303613312575b506132e6565b61335c61331e82612113565b60001981019081116133a5575b6131bb60009387855260076020526040852054838103613363575b50846131a0896000526007602052604060002090565b553861330c565b87865260066020526040862084875260205261339e60408720548061320c846131bb8760018060a01b03166000526006602052604060002090565b5538613346565b6133ad61256a565b61332b565b50828616156132d2565b6040906133c881612113565b9260009160018060a01b0316825260066020528282208483526020528083832055815260076020522055565b60085481600052600960205280604060002055600160401b81101561345b575b600181018060085581101561344e575b60086000527ff3f7a9fe364faab93b216da50a3214154f22a0a2b415b23a84c8169e8b636ee30155565b61345661294a565b613424565b6134636111bd565b613414565b600880546000199290838101818111613571575b61351860009384928184526009602052846040852054911015613564575b8684526135077ff3f7a9fe364faab93b216da50a3214154f22a0a2b415b23a84c8169e8b636ee2958681015490831015613557575b88865280837ff3f7a9fe364faab93b216da50a3214154f22a0a2b415b23a84c8169e8b636ee301556000526009602052604060002090565b556000526009602052604060002090565b5582549384156135435784019380851015613536575b838352015555565b61353e61294a565b61352e565b634e487b7160e01b83526031600452602483fd5b61355f61294a565b6134cf565b61356c61294a565b61349a565b61357961256a565b61347c565b9061358882611258565b6135956040519182611217565b82815280926135a6601f1991611258565b0190602036910137565b60209181518110156135c5575b60051b010190565b6135cd61294a565b6135bd565b6135db90612961565b90549060031b1c80600052601060205290565b600e5481101561362f575b7fbb7b4a454dc3493923482f07822329ed19e8244eff582cc204f8554c3620c3fd01549081600052601060205260406000205490565b61363761294a565b6135f9565b919061364a600291846129a6565b90549060031b1c92836000520160205260406000205490565b90815161366f8161357e565b926136798261357e565b926136838361357e565b9261368d8161357e565b9260005b82811061369d57505050565b806136b46136ae6136d493856135b0565b516136d9565b6136be858b6135b0565b526136c9848b6135b0565b52610b2d838b6135b0565b613691565b9060008092600052601060205260406000205492831592831580946137d9575b156137945784600e54818103908111613787575b60001981810191821161377a575b8196613742575b5061372a5750565b61373e91925061373990612598565b6135ee565b5090565b613756919550820182811161376d57612961565b90549060031b1c8060005260106020529338613722565b61377561256a565b612961565b61378261256a565b61371b565b61378f61256a565b61370d565b60405162461bcd60e51b815260206004820152601e60248201527f456e756d657261626c654d61703a206e6f6e6578697374656e74206b657900006044820152606490fd5b50600f60205260406000205415156136f9565b816000526002810160205260406000205491821591821592613813575b5050156137945790565b61382d925060019160005201602052604060002054151590565b3880613809565b80600052600f602052604060002054156000146138c05780600e54600160401b8110156138b3575b6001810180600e558110156138a6575b7fbb7b4a454dc3493923482f07822329ed19e8244eff582cc204f8554c3620c3fd0155600e5490600052600f602052604060002055600190565b6138ae61294a565b61386c565b6138bb6111bd565b61385c565b50600090565b806000526013602052604060002054156000146138c05780601254600160401b811015613945575b6001810180601255811015613938575b7fbb8a6a4669ba250d26cd7a459eca9d215f8307e33aebe50379bc5a3617ec34440155601254906000526013602052604060002055600190565b61394061294a565b6138fe565b61394d6111bd565b6138ee565b60008281526001820160205260409020546139c257808261398860019354600160401b8110156139b5575b8481018455836129a6565b819291549060031b600019811b9283911b1691191617905580549260005201602052604060002055600190565b6139bd6111bd565b61397d565b5050600090565b156139d057565b60405162461bcd60e51b815260206004820152601760248201527f696e707574206c656e67746820646966666572656e63650000000000000000006044820152606490fd5b60018060a01b031660005260116020526002613a36604060002092836129a6565b90549060031b1c91826000520160205290565b6001600160a01b03166000908152601160205260408120918190613a6d90846137ec565b93835493858503948511613af9575b60001994808601908111613aec575b809587613ab0575b50613a9b5750565b61373e919250613aaa86612598565b9061363c565b613ac69195508701878111613adf575b826129a6565b90549060031b1c80600052600282016020529338613a93565b613ae761256a565b613ac0565b613af461256a565b613a8b565b613b0161256a565b613a7c565b6001600160a01b03166000908152601160209081526040808320805485855260028201909352922055613b399190613952565b50565b601254811015613b7b575b60126000527fbb8a6a4669ba250d26cd7a459eca9d215f8307e33aebe50379bc5a3617ec344401546001600160a01b031690565b613b8361294a565b613b47565b9060405191828154918282526020928383019160005283600020936000905b828210613bbd5750505061088d92500383611217565b855484526001958601958895509381019390910190613ba7565b613b39906001600160a01b03166138c6565b613b399160005260146020526040600020613952565b6001600160a01b03166000908152601560205260409020613b399190613952565b60005260166020526002613a36604060002092836129a6565b6000906000906000526016602052613a6d604060002093846137ec565b15613c5d57565b60405162461bcd60e51b815260206004820152602260248201527f4461746153746f726167653a2074616773206c656e677468206d757374206265604482015261203360f01b6064820152608490fd5b909161088d92613cbf60038314613c56565b613cd3613ccc83836130c1565b3584613dd2565b613ce0613ccc83836130d2565b613ced613ccc83836130e9565b613dcd613d26613d43613d0085856130c1565b35613d0b86866130d2565b60408051602081019384529135908201529283906060820190565b0392613d3a601f1994858101835282611217565b51902086613dd2565b613d88613d5085856130d2565b35613d7c613d3a613d6188886130e9565b60408051602081019586529135908201529182906060820190565b03858101835282611217565b613da8613d9585856130c1565b3594613da181866130d2565b35946130e9565b6040805160208101968752908101949094523560608401526080908101835282611217565b519020905b600082815260166020526040812090613dfb838360019160005201602052604060002054151590565b15613e065750505050565b613e29938152601660205260408082205491848152600284016020522055613952565b5038808080612260565b613e5c916040519283916020948186928383019687378101600083820152038084520182611217565b51902080600052600b8252604060002054613e815790600b9160005252604060002055565b60405162461bcd60e51b815260048101839052602360248201527f4461746153746f726167653a20757269207265676973746572656420616c726560448201526261647960e81b6064820152608490fd5b818110613edd575050565b60008155600101613ed2565b9190601f8111613ef857505050565b61088d926000526020600020906020601f840160051c83019310613f24575b601f0160051c0190613ed2565b9091508190613f17565b60076c30516d31705a545978496e303d60981b916000908152602090600a8252600460408220600d84528260408120613f6781546121f9565b806140b9575b50505001613f7b81546121f9565b601f8111614098575b506101db81558152207f646174613a6170706c69636174696f6e2f6a736f6e3b6261736536342c65794a81557f755957316c496a6f6956476870637942306232746c626942706379426964584a60018201557f755a575175496977695a47567a59334a7063485270623234694f694a5a62335560028201557f676257463549475a70626d516764476870637942306232746c6269427662694260038201557f766447686c636942755a58523362334a72637934694c434a706257466e5a534960048201557f36496d6c775a6e4d364c79395262574e6a575735425348563663334e425a6d3060058201557f795655493051586433554570325246704b4d30526d4e6b68484d336c51556b5a60068201550155565b8183528383206140b391601f0160051c810190600801613ed2565b38613f84565b601f81116001146140cf5750555b823880613f6d565b8183528683206140ea91601f0160051c810190600101613ed2565b818681209155556140c7565b9092916001600160401b0381116141be575b61411c8161411684546121f9565b84613ee9565b6000601f8211600114614156578192939460009261414b575b50508160011b916000199060031b1c1916179055565b013590503880614135565b601f1982169461416b84600052602060002090565b91805b8781106141a657508360019596971061418c575b505050811b019055565b0135600019600384901b60f8161c19169055388080614182565b9092602060018192868601358155019401910161416e565b6141c66111bd565b614108565b918181106141d857505050565b61088d9260005260206000209182019101613ed2565b906001600160401b038311614254575b600160401b8311614247575b614219838354818555846141cb565b906000526020806000209060005b848110614235575050505050565b83358382015592810192600101614227565b61424f6111bd565b61420a565b61425c6111bd565b6141fe565b906001600160401b0383116142f5575b600160401b83116142e8575b81548383558084106142bf575b5061429b9091600052602060002090565b60005b8381106142ab5750505050565b60019060208435940193818401550161429e565b6000838152846020822092830192015b8281106142dd57505061428a565b8181556001016142cf565b6142f06111bd565b61427d565b6142fd6111bd565b614271565b906001600160401b038311614372575b600160401b8311614365575b61432d838354818555846141cb565b906000526020806000209060005b848110614349575050505050565b6001908285359561435987610871565b0194818501550161433b565b61436d6111bd565b61431e565b61437a6111bd565b614312565b90600160401b81116143e8575b815481835580821061439d57505050565b61088d92600052600f602060002091601e82850160041c84019460011b16806143cd575b500160041c0190613ed2565b600019908186019182549160200360031b1c169055386143c1565b6143f06111bd565b61438c565b3561065481612af3565b919061442a906001600160401b0383116144ea575b61441e838561437f565b92600052602060002090565b8160041c9160005b83811061449d5750600f19811690038061444c5750505050565b92600093845b81811061446757505050015538808080612260565b909194602061449360019261447b896143f5565b9085851b60031b61ffff811b9283911b169119161790565b9601929101614452565b6000805b601081106144b6575083820155600101614432565b959060206144e16001926144c9856143f5565b908a851b60031b61ffff811b9283911b169119161790565b920196016144a1565b6144f26111bd565b614414565b81604051928392833781016000815203902090565b9061452182600052600a602052604060002090565b9161454a61452e83612d48565b84546001600160a01b0319166001600160a01b03909116178455565b6020820135806001850155604083013590816002860155827f0b85051017293732c5b533b177efc66475411a9fdd5fbc8ecb619906658413d66060860135938460038901556145a961459f6080890189612d9e565b9060048b016140f6565b60a087016145c46145ba828a612d9e565b9060058c016140f6565b614631600960c08a019a6145e56145db8d8d6129cc565b90600684016141ee565b6145ff6145f560e08d018d6129cc565b9060078401614261565b61461a6146106101008d018d6129cc565b9060088401614302565b6146286101208c018c6129cc565b929091016143ff565b61467761465061464a6146438b612d48565b938b612d9e565b906144f7565b9660405193849360018060a01b031697846040919493926060820195825260208201520152565b0390a461468483836129cc565b939050600092835b85811061469b57505050505050565b806146ad6146d892610eb486866129cc565b35857f65327253f8d67c2e23cb4dfab28ca7437b04e9098cf4e985073d76df25209ad48880a36130a5565b61468c565b929192600052602092600c84526040600020916001600160401b038211614794575b6147138261470d85546121f9565b85613ee9565b600094601f83116001146147445750938192939460009261414b5750508160011b916000199060031b1c1916179055565b90601f1983169561475a85600052602060002090565b9281905b88821061477c5750508360019596971061418c57505050811b019055565b8060018496829495870135815501950192019061475e565b61479c6111bd565b6146ff565b929192600052602092600d84526040600020916001600160401b038211614852575b6147d18261470d85546121f9565b600094601f83116001146148025750938192939460009261414b5750508160011b916000199060031b1c1916179055565b90601f1983169561481885600052602060002090565b9281905b88821061483a5750508360019596971061418c57505050811b019055565b8060018496829495870135815501950192019061481c565b61485a6111bd565b6147c3565b9161486c60038214613c56565b80156148d9575b80600110156148cc575b600210156148bf575b6040519182526040810135917fb237134d29775150b1edf87af1dc343262244af7cbb474cfc64cb6e8824af663602080840135933592a4565b6148c761294a565b614886565b6148d461294a565b61487d565b6148e161294a565b614873565b6040519061014082018281106001600160401b03821117614947575b604052816000815260006020820152600060408201526101206060916000838201528260808201528260a08201528260c08201528260e0820152826101008201520152565b61494f6111bd565b614902565b9061495e82611258565b61496b6040519182611217565b828152809261497c601f1991611258565b019060005b82811061498d57505050565b806060602080938501015201614981565b9060405191828154918282526020928383019160005283600020936000905b8282106149d35750505061088d92500383611217565b85546001600160a01b0316845260019586019588955093810193909101906149bd565b90604080518093805492614a1161441e858560209181520190565b9360005b81600f820110614c345761088d955492828210614c1d575b828210614c02575b828210614be7575b828210614bcc575b828210614bb4575b50818110614b9b575b818110614b82575b818110614b69575b818110614b50575b818110614b37575b818110614b1e575b818110614b05575b818110614aec575b818110614ad3575b818110614aba575b10614aac575b500383611217565b60f01c815260200138614aa4565b60e083901c61ffff168452926001906020019301614a9e565b60d083901c61ffff168452926001906020019301614a96565b60c083901c61ffff168452926001906020019301614a8e565b60b083901c61ffff168452926001906020019301614a86565b60a083901c61ffff168452926001906020019301614a7e565b609083901c61ffff168452926001906020019301614a76565b608083901c61ffff168452926001906020019301614a6e565b607083901c61ffff168452926001906020019301614a66565b606083901c61ffff168452926001906020019301614a5e565b605083901c61ffff168452926001906020019301614a56565b83901c61ffff16845292600190602001930138614a4d565b603084901c61ffff1685529093600190602001940190614a45565b602084811c61ffff1686529194909160019101940190614a3d565b601084901c61ffff1685529093600190602001940190614a35565b61ffff841685529093600190602001940190614a2d565b919350916001610200601092614d938854614d888361ffff614c5b8282861661ffff169052565b614c858c8286602092614c788488018f8486911c1661ffff169052565b8601921c1661ffff169052565b614d618c614d39606091614ca3838701868a60301c1661ffff169052565b614cb9608091868a848a01921c1661ffff169052565b614d1160a091614cd3838901888c60501c1661ffff169052565b614ce960c095888c888c01921c1661ffff169052565b868a61010060e09a614d058c8201858560701c1661ffff169052565b01921c1661ffff169052565b614d276101208b01868a60901c1661ffff169052565b84886101408c01921c1661ffff169052565b614d4f6101608901848860b01c1661ffff169052565b82866101808a01921c1661ffff169052565b614d776101a08701828660d01c1661ffff169052565b836101c08701921c1661ffff169052565b60f01c6101e0830152565b0195019101918693919492614a15565b90614dac6148e6565b5060609082600052600a602052604060002092614dc7611238565b84546001600160a01b0316815260018501546020820152614e55600960028701549660408401978852600381015487850152614e05600482016122c9565b6080850152614e16600582016122c9565b60a0850152614e2760068201613b88565b60c0850152614e3860078201613b88565b60e0850152614e496008820161499e565b610100850152016149f6565b6101208201529351421015614e81575b614e7c61065491600052600c602052604060002090565b6122c9565b9150610654614e7c614ea0614e7c85600052600d602052604060002090565b93915050614e65565b90612cbd602c6040518381946020830196873781016b39b0b6b0b7103bb4b639b7b760a11b602082015203600c81018452018261121756fea26469706673582212205aefda5e43dce5d0b95f156fec37aff1cca3de64a6a09a1961cf6c8ebb16858c64736f6c63430008110033",
  "linkReferences": {},
  "deployedLinkReferences": {}
}