{
  "_format": "hh-sol-artifact-1",
  "contractName": "Katibeh721",
  "sourceName": "contracts/katibeh721/Katibeh721.sol",
  "abi": [
    {
      "inputs": [],
      "stateMutability": "nonpayable",
      "type": "constructor"
    },
    {
      "anonymous": false,
      "inputs": [
        {
          "indexed": true,
          "internalType": "address",
          "name": "owner",
          "type": "address"
        },
        {
          "indexed": true,
          "internalType": "address",
          "name": "approved",
          "type": "address"
        },
        {
          "indexed": true,
          "internalType": "uint256",
          "name": "tokenId",
          "type": "uint256"
        }
      ],
      "name": "Approval",
      "type": "event"
    },
    {
      "anonymous": false,
      "inputs": [
        {
          "indexed": true,
          "internalType": "address",
          "name": "owner",
          "type": "address"
        },
        {
          "indexed": true,
          "internalType": "address",
          "name": "operator",
          "type": "address"
        },
        {
          "indexed": false,
          "internalType": "bool",
          "name": "approved",
          "type": "bool"
        }
      ],
      "name": "ApprovalForAll",
      "type": "event"
    },
    {
      "anonymous": false,
      "inputs": [
        {
          "indexed": true,
          "internalType": "uint256",
          "name": "tokenId",
          "type": "uint256"
        },
        {
          "indexed": true,
          "internalType": "uint256",
          "name": "toTokenId",
          "type": "uint256"
        }
      ],
      "name": "NewReply",
      "type": "event"
    },
    {
      "anonymous": false,
      "inputs": [
        {
          "indexed": true,
          "internalType": "uint256",
          "name": "tokenId",
          "type": "uint256"
        },
        {
          "indexed": true,
          "internalType": "address",
          "name": "creator",
          "type": "address"
        },
        {
          "indexed": true,
          "internalType": "bytes",
          "name": "data",
          "type": "bytes"
        },
        {
          "indexed": false,
          "internalType": "uint256",
          "name": "mintTime",
          "type": "uint256"
        },
        {
          "indexed": false,
          "internalType": "uint256",
          "name": "initTime",
          "type": "uint256"
        },
        {
          "indexed": false,
          "internalType": "uint256",
          "name": "expTime",
          "type": "uint256"
        }
      ],
      "name": "NewToken",
      "type": "event"
    },
    {
      "anonymous": false,
      "inputs": [
        {
          "indexed": false,
          "internalType": "uint256",
          "name": "tokenId",
          "type": "uint256"
        },
        {
          "indexed": true,
          "internalType": "bytes32",
          "name": "tag1",
          "type": "bytes32"
        },
        {
          "indexed": true,
          "internalType": "bytes32",
          "name": "tag2",
          "type": "bytes32"
        },
        {
          "indexed": true,
          "internalType": "bytes32",
          "name": "tag3",
          "type": "bytes32"
        }
      ],
      "name": "Tags",
      "type": "event"
    },
    {
      "anonymous": false,
      "inputs": [
        {
          "indexed": true,
          "internalType": "address",
          "name": "from",
          "type": "address"
        },
        {
          "indexed": true,
          "internalType": "address",
          "name": "to",
          "type": "address"
        },
        {
          "indexed": true,
          "internalType": "uint256",
          "name": "tokenId",
          "type": "uint256"
        }
      ],
      "name": "Transfer",
      "type": "event"
    },
    {
      "inputs": [
        {
          "internalType": "address",
          "name": "to",
          "type": "address"
        },
        {
          "internalType": "uint256",
          "name": "tokenId",
          "type": "uint256"
        }
      ],
      "name": "approve",
      "outputs": [],
      "stateMutability": "nonpayable",
      "type": "function"
    },
    {
      "inputs": [
        {
          "internalType": "address",
          "name": "owner",
          "type": "address"
        }
      ],
      "name": "balanceOf",
      "outputs": [
        {
          "internalType": "uint256",
          "name": "",
          "type": "uint256"
        }
      ],
      "stateMutability": "view",
      "type": "function"
    },
    {
      "inputs": [
        {
          "internalType": "uint256",
          "name": "tokenId",
          "type": "uint256"
        }
      ],
      "name": "burn",
      "outputs": [],
      "stateMutability": "nonpayable",
      "type": "function"
    },
    {
      "inputs": [],
      "name": "creatorAddresses",
      "outputs": [
        {
          "internalType": "address[]",
          "name": "creator",
          "type": "address[]"
        }
      ],
      "stateMutability": "view",
      "type": "function"
    },
    {
      "inputs": [
        {
          "internalType": "uint256",
          "name": "index",
          "type": "uint256"
        }
      ],
      "name": "creatorByIndex",
      "outputs": [
        {
          "internalType": "address",
          "name": "creator",
          "type": "address"
        }
      ],
      "stateMutability": "view",
      "type": "function"
    },
    {
      "inputs": [
        {
          "internalType": "uint256[]",
          "name": "index",
          "type": "uint256[]"
        }
      ],
      "name": "creatorsByIndexBatch",
      "outputs": [
        {
          "internalType": "address[]",
          "name": "creator",
          "type": "address[]"
        }
      ],
      "stateMutability": "view",
      "type": "function"
    },
    {
      "inputs": [
        {
          "internalType": "uint256",
          "name": "tokenId",
          "type": "uint256"
        }
      ],
      "name": "getApproved",
      "outputs": [
        {
          "internalType": "address",
          "name": "",
          "type": "address"
        }
      ],
      "stateMutability": "view",
      "type": "function"
    },
    {
      "inputs": [
        {
          "components": [
            {
              "internalType": "address",
              "name": "creator",
              "type": "address"
            },
            {
              "internalType": "uint256",
              "name": "mintTime",
              "type": "uint256"
            },
            {
              "internalType": "uint256",
              "name": "initTime",
              "type": "uint256"
            },
            {
              "internalType": "uint256",
              "name": "expTime",
              "type": "uint256"
            },
            {
              "internalType": "string",
              "name": "tokenURI",
              "type": "string"
            },
            {
              "internalType": "bytes",
              "name": "data",
              "type": "bytes"
            },
            {
              "internalType": "uint256[]",
              "name": "toTokenId",
              "type": "uint256[]"
            },
            {
              "internalType": "bytes32[]",
              "name": "tags",
              "type": "bytes32[]"
            },
            {
              "components": [
                {
                  "internalType": "address",
                  "name": "addr",
                  "type": "address"
                },
                {
                  "internalType": "uint16",
                  "name": "share",
                  "type": "uint16"
                }
              ],
              "internalType": "struct DataStorage.Payee[]",
              "name": "owners",
              "type": "tuple[]"
            }
          ],
          "internalType": "struct DataStorage.Katibeh",
          "name": "katibeh",
          "type": "tuple"
        }
      ],
      "name": "getHash",
      "outputs": [
        {
          "internalType": "bytes32",
          "name": "",
          "type": "bytes32"
        }
      ],
      "stateMutability": "view",
      "type": "function"
    },
    {
      "inputs": [
        {
          "internalType": "bytes32",
          "name": "uriHash",
          "type": "bytes32"
        }
      ],
      "name": "getUriId",
      "outputs": [
        {
          "internalType": "uint256",
          "name": "",
          "type": "uint256"
        }
      ],
      "stateMutability": "view",
      "type": "function"
    },
    {
      "inputs": [
        {
          "internalType": "address",
          "name": "owner",
          "type": "address"
        },
        {
          "internalType": "address",
          "name": "operator",
          "type": "address"
        }
      ],
      "name": "isApprovedForAll",
      "outputs": [
        {
          "internalType": "bool",
          "name": "",
          "type": "bool"
        }
      ],
      "stateMutability": "view",
      "type": "function"
    },
    {
      "inputs": [],
      "name": "name",
      "outputs": [
        {
          "internalType": "string",
          "name": "",
          "type": "string"
        }
      ],
      "stateMutability": "view",
      "type": "function"
    },
    {
      "inputs": [],
      "name": "numberOfCreators",
      "outputs": [
        {
          "internalType": "uint256",
          "name": "",
          "type": "uint256"
        }
      ],
      "stateMutability": "view",
      "type": "function"
    },
    {
      "inputs": [
        {
          "internalType": "address",
          "name": "toCreator",
          "type": "address"
        }
      ],
      "name": "numberOfRepliesToCreator",
      "outputs": [
        {
          "internalType": "uint256",
          "name": "",
          "type": "uint256"
        }
      ],
      "stateMutability": "view",
      "type": "function"
    },
    {
      "inputs": [
        {
          "internalType": "address[]",
          "name": "toCreator",
          "type": "address[]"
        }
      ],
      "name": "numberOfRepliesToCreatorBatch",
      "outputs": [
        {
          "internalType": "uint256[]",
          "name": "count",
          "type": "uint256[]"
        }
      ],
      "stateMutability": "view",
      "type": "function"
    },
    {
      "inputs": [
        {
          "internalType": "uint256",
          "name": "tokenId",
          "type": "uint256"
        }
      ],
      "name": "numberOfTokenReplies",
      "outputs": [
        {
          "internalType": "uint256",
          "name": "",
          "type": "uint256"
        }
      ],
      "stateMutability": "view",
      "type": "function"
    },
    {
      "inputs": [
        {
          "internalType": "uint256[]",
          "name": "tokenId",
          "type": "uint256[]"
        }
      ],
      "name": "numberOfTokenRepliesBatch",
      "outputs": [
        {
          "internalType": "uint256[]",
          "name": "count",
          "type": "uint256[]"
        }
      ],
      "stateMutability": "view",
      "type": "function"
    },
    {
      "inputs": [
        {
          "internalType": "bytes32",
          "name": "tag",
          "type": "bytes32"
        }
      ],
      "name": "numberOfTokensByTag",
      "outputs": [
        {
          "internalType": "uint256",
          "name": "",
          "type": "uint256"
        }
      ],
      "stateMutability": "view",
      "type": "function"
    },
    {
      "inputs": [
        {
          "internalType": "bytes32[]",
          "name": "tag",
          "type": "bytes32[]"
        }
      ],
      "name": "numberOfTokensByTagBatch",
      "outputs": [
        {
          "internalType": "uint256[]",
          "name": "count",
          "type": "uint256[]"
        }
      ],
      "stateMutability": "view",
      "type": "function"
    },
    {
      "inputs": [
        {
          "internalType": "address",
          "name": "creator",
          "type": "address"
        }
      ],
      "name": "numberOfTokensOfCreator",
      "outputs": [
        {
          "internalType": "uint256",
          "name": "",
          "type": "uint256"
        }
      ],
      "stateMutability": "view",
      "type": "function"
    },
    {
      "inputs": [
        {
          "internalType": "address[]",
          "name": "creator",
          "type": "address[]"
        }
      ],
      "name": "numberOfTokensOfCreatorBatch",
      "outputs": [
        {
          "internalType": "uint256[]",
          "name": "count",
          "type": "uint256[]"
        }
      ],
      "stateMutability": "view",
      "type": "function"
    },
    {
      "inputs": [],
      "name": "numberOfTokensTraceable",
      "outputs": [
        {
          "internalType": "uint256",
          "name": "count",
          "type": "uint256"
        }
      ],
      "stateMutability": "view",
      "type": "function"
    },
    {
      "inputs": [
        {
          "internalType": "uint256",
          "name": "tokenId",
          "type": "uint256"
        }
      ],
      "name": "ownerOf",
      "outputs": [
        {
          "internalType": "address",
          "name": "",
          "type": "address"
        }
      ],
      "stateMutability": "view",
      "type": "function"
    },
    {
      "inputs": [
        {
          "internalType": "address",
          "name": "toCreator",
          "type": "address"
        }
      ],
      "name": "repliesToCreator",
      "outputs": [
        {
          "internalType": "uint256[]",
          "name": "ids",
          "type": "uint256[]"
        }
      ],
      "stateMutability": "view",
      "type": "function"
    },
    {
      "inputs": [
        {
          "internalType": "address",
          "name": "toCreator",
          "type": "address"
        },
        {
          "internalType": "uint256",
          "name": "index",
          "type": "uint256"
        }
      ],
      "name": "repliesToCreatorByIndex",
      "outputs": [
        {
          "internalType": "uint256",
          "name": "id",
          "type": "uint256"
        }
      ],
      "stateMutability": "view",
      "type": "function"
    },
    {
      "inputs": [
        {
          "internalType": "address",
          "name": "toCreator",
          "type": "address"
        },
        {
          "internalType": "uint256[]",
          "name": "index",
          "type": "uint256[]"
        }
      ],
      "name": "repliesToCreatorByIndexBatch",
      "outputs": [
        {
          "internalType": "uint256[]",
          "name": "id",
          "type": "uint256[]"
        }
      ],
      "stateMutability": "view",
      "type": "function"
    },
    {
      "inputs": [
        {
          "components": [
            {
              "internalType": "address",
              "name": "creator",
              "type": "address"
            },
            {
              "internalType": "uint256",
              "name": "mintTime",
              "type": "uint256"
            },
            {
              "internalType": "uint256",
              "name": "initTime",
              "type": "uint256"
            },
            {
              "internalType": "uint256",
              "name": "expTime",
              "type": "uint256"
            },
            {
              "internalType": "string",
              "name": "tokenURI",
              "type": "string"
            },
            {
              "internalType": "bytes",
              "name": "data",
              "type": "bytes"
            },
            {
              "internalType": "uint256[]",
              "name": "toTokenId",
              "type": "uint256[]"
            },
            {
              "internalType": "bytes32[]",
              "name": "tags",
              "type": "bytes32[]"
            },
            {
              "components": [
                {
                  "internalType": "address",
                  "name": "addr",
                  "type": "address"
                },
                {
                  "internalType": "uint16",
                  "name": "share",
                  "type": "uint16"
                }
              ],
              "internalType": "struct DataStorage.Payee[]",
              "name": "owners",
              "type": "tuple[]"
            }
          ],
          "internalType": "struct DataStorage.Katibeh",
          "name": "katibeh",
          "type": "tuple"
        },
        {
          "internalType": "bytes",
          "name": "sig",
          "type": "bytes"
        },
        {
          "internalType": "bytes",
          "name": "dappData",
          "type": "bytes"
        }
      ],
      "name": "safeMint",
      "outputs": [
        {
          "internalType": "uint256",
          "name": "tokenId",
          "type": "uint256"
        }
      ],
      "stateMutability": "nonpayable",
      "type": "function"
    },
    {
      "inputs": [
        {
          "components": [
            {
              "internalType": "address",
              "name": "creator",
              "type": "address"
            },
            {
              "internalType": "uint256",
              "name": "mintTime",
              "type": "uint256"
            },
            {
              "internalType": "uint256",
              "name": "initTime",
              "type": "uint256"
            },
            {
              "internalType": "uint256",
              "name": "expTime",
              "type": "uint256"
            },
            {
              "internalType": "string",
              "name": "tokenURI",
              "type": "string"
            },
            {
              "internalType": "bytes",
              "name": "data",
              "type": "bytes"
            },
            {
              "internalType": "uint256[]",
              "name": "toTokenId",
              "type": "uint256[]"
            },
            {
              "internalType": "bytes32[]",
              "name": "tags",
              "type": "bytes32[]"
            },
            {
              "components": [
                {
                  "internalType": "address",
                  "name": "addr",
                  "type": "address"
                },
                {
                  "internalType": "uint16",
                  "name": "share",
                  "type": "uint16"
                }
              ],
              "internalType": "struct DataStorage.Payee[]",
              "name": "owners",
              "type": "tuple[]"
            }
          ],
          "internalType": "struct DataStorage.Katibeh",
          "name": "katibeh",
          "type": "tuple"
        },
        {
          "internalType": "bytes",
          "name": "sig",
          "type": "bytes"
        },
        {
          "internalType": "bytes",
          "name": "dappData",
          "type": "bytes"
        }
      ],
      "name": "safeMintAndSetTraceStorage",
      "outputs": [],
      "stateMutability": "nonpayable",
      "type": "function"
    },
    {
      "inputs": [
        {
          "internalType": "address",
          "name": "from",
          "type": "address"
        },
        {
          "internalType": "address",
          "name": "to",
          "type": "address"
        },
        {
          "internalType": "uint256",
          "name": "tokenId",
          "type": "uint256"
        }
      ],
      "name": "safeTransferFrom",
      "outputs": [],
      "stateMutability": "nonpayable",
      "type": "function"
    },
    {
      "inputs": [
        {
          "internalType": "address",
          "name": "from",
          "type": "address"
        },
        {
          "internalType": "address",
          "name": "to",
          "type": "address"
        },
        {
          "internalType": "uint256",
          "name": "tokenId",
          "type": "uint256"
        },
        {
          "internalType": "bytes",
          "name": "data",
          "type": "bytes"
        }
      ],
      "name": "safeTransferFrom",
      "outputs": [],
      "stateMutability": "nonpayable",
      "type": "function"
    },
    {
      "inputs": [
        {
          "internalType": "address",
          "name": "operator",
          "type": "address"
        },
        {
          "internalType": "bool",
          "name": "approved",
          "type": "bool"
        }
      ],
      "name": "setApprovalForAll",
      "outputs": [],
      "stateMutability": "nonpayable",
      "type": "function"
    },
    {
      "inputs": [
        {
          "internalType": "bytes4",
          "name": "interfaceId",
          "type": "bytes4"
        }
      ],
      "name": "supportsInterface",
      "outputs": [
        {
          "internalType": "bool",
          "name": "",
          "type": "bool"
        }
      ],
      "stateMutability": "view",
      "type": "function"
    },
    {
      "inputs": [],
      "name": "symbol",
      "outputs": [
        {
          "internalType": "string",
          "name": "",
          "type": "string"
        }
      ],
      "stateMutability": "view",
      "type": "function"
    },
    {
      "inputs": [],
      "name": "timeStamp",
      "outputs": [
        {
          "internalType": "uint256",
          "name": "",
          "type": "uint256"
        }
      ],
      "stateMutability": "view",
      "type": "function"
    },
    {
      "inputs": [
        {
          "internalType": "uint256",
          "name": "index",
          "type": "uint256"
        }
      ],
      "name": "tokenByIndex",
      "outputs": [
        {
          "internalType": "uint256",
          "name": "",
          "type": "uint256"
        }
      ],
      "stateMutability": "view",
      "type": "function"
    },
    {
      "inputs": [
        {
          "internalType": "uint256",
          "name": "index",
          "type": "uint256"
        }
      ],
      "name": "tokenByIndexTraceable",
      "outputs": [
        {
          "internalType": "uint256",
          "name": "id",
          "type": "uint256"
        }
      ],
      "stateMutability": "view",
      "type": "function"
    },
    {
      "inputs": [
        {
          "internalType": "uint256",
          "name": "tokenId",
          "type": "uint256"
        }
      ],
      "name": "tokenInfo",
      "outputs": [
        {
          "components": [
            {
              "internalType": "address",
              "name": "creator",
              "type": "address"
            },
            {
              "internalType": "uint256",
              "name": "mintTime",
              "type": "uint256"
            },
            {
              "internalType": "uint256",
              "name": "initTime",
              "type": "uint256"
            },
            {
              "internalType": "uint256",
              "name": "expTime",
              "type": "uint256"
            },
            {
              "internalType": "string",
              "name": "tokenURI",
              "type": "string"
            },
            {
              "internalType": "bytes",
              "name": "data",
              "type": "bytes"
            },
            {
              "internalType": "uint256[]",
              "name": "toTokenId",
              "type": "uint256[]"
            },
            {
              "internalType": "bytes32[]",
              "name": "tags",
              "type": "bytes32[]"
            },
            {
              "components": [
                {
                  "internalType": "address",
                  "name": "addr",
                  "type": "address"
                },
                {
                  "internalType": "uint16",
                  "name": "share",
                  "type": "uint16"
                }
              ],
              "internalType": "struct DataStorage.Payee[]",
              "name": "owners",
              "type": "tuple[]"
            }
          ],
          "internalType": "struct DataStorage.Katibeh",
          "name": "katibeh",
          "type": "tuple"
        },
        {
          "internalType": "bytes",
          "name": "sig",
          "type": "bytes"
        },
        {
          "internalType": "bytes",
          "name": "dappData",
          "type": "bytes"
        }
      ],
      "stateMutability": "view",
      "type": "function"
    },
    {
      "inputs": [
        {
          "internalType": "address",
          "name": "creator",
          "type": "address"
        },
        {
          "internalType": "uint256",
          "name": "index",
          "type": "uint256"
        }
      ],
      "name": "tokenOfCreatorByIndex",
      "outputs": [
        {
          "internalType": "uint256",
          "name": "id",
          "type": "uint256"
        }
      ],
      "stateMutability": "view",
      "type": "function"
    },
    {
      "inputs": [
        {
          "internalType": "address",
          "name": "owner",
          "type": "address"
        },
        {
          "internalType": "uint256",
          "name": "index",
          "type": "uint256"
        }
      ],
      "name": "tokenOfOwnerByIndex",
      "outputs": [
        {
          "internalType": "uint256",
          "name": "",
          "type": "uint256"
        }
      ],
      "stateMutability": "view",
      "type": "function"
    },
    {
      "inputs": [
        {
          "internalType": "bytes32",
          "name": "tag",
          "type": "bytes32"
        },
        {
          "internalType": "uint256",
          "name": "index",
          "type": "uint256"
        }
      ],
      "name": "tokenOfTagByIndex",
      "outputs": [
        {
          "internalType": "uint256",
          "name": "id",
          "type": "uint256"
        }
      ],
      "stateMutability": "view",
      "type": "function"
    },
    {
      "inputs": [
        {
          "internalType": "uint256",
          "name": "tokenId",
          "type": "uint256"
        }
      ],
      "name": "tokenReplies",
      "outputs": [
        {
          "internalType": "uint256[]",
          "name": "ids",
          "type": "uint256[]"
        }
      ],
      "stateMutability": "view",
      "type": "function"
    },
    {
      "inputs": [
        {
          "internalType": "uint256",
          "name": "tokenId",
          "type": "uint256"
        },
        {
          "internalType": "uint256[]",
          "name": "index",
          "type": "uint256[]"
        }
      ],
      "name": "tokenRepliesByIndexBatch",
      "outputs": [
        {
          "internalType": "uint256[]",
          "name": "id",
          "type": "uint256[]"
        }
      ],
      "stateMutability": "view",
      "type": "function"
    },
    {
      "inputs": [
        {
          "internalType": "uint256",
          "name": "tokenId",
          "type": "uint256"
        },
        {
          "internalType": "uint256",
          "name": "index",
          "type": "uint256"
        }
      ],
      "name": "tokenReplyByIndex",
      "outputs": [
        {
          "internalType": "uint256",
          "name": "id",
          "type": "uint256"
        }
      ],
      "stateMutability": "view",
      "type": "function"
    },
    {
      "inputs": [
        {
          "internalType": "uint256",
          "name": "tokenId",
          "type": "uint256"
        }
      ],
      "name": "tokenURI",
      "outputs": [
        {
          "internalType": "string",
          "name": "",
          "type": "string"
        }
      ],
      "stateMutability": "view",
      "type": "function"
    },
    {
      "inputs": [
        {
          "internalType": "uint256[]",
          "name": "index",
          "type": "uint256[]"
        }
      ],
      "name": "tokensByIndexTraceableBatch",
      "outputs": [
        {
          "internalType": "uint256[]",
          "name": "id",
          "type": "uint256[]"
        }
      ],
      "stateMutability": "view",
      "type": "function"
    },
    {
      "inputs": [
        {
          "internalType": "uint256[]",
          "name": "tokenId",
          "type": "uint256[]"
        }
      ],
      "name": "tokensInfoBatch",
      "outputs": [
        {
          "components": [
            {
              "internalType": "address",
              "name": "creator",
              "type": "address"
            },
            {
              "internalType": "uint256",
              "name": "mintTime",
              "type": "uint256"
            },
            {
              "internalType": "uint256",
              "name": "initTime",
              "type": "uint256"
            },
            {
              "internalType": "uint256",
              "name": "expTime",
              "type": "uint256"
            },
            {
              "internalType": "string",
              "name": "tokenURI",
              "type": "string"
            },
            {
              "internalType": "bytes",
              "name": "data",
              "type": "bytes"
            },
            {
              "internalType": "uint256[]",
              "name": "toTokenId",
              "type": "uint256[]"
            },
            {
              "internalType": "bytes32[]",
              "name": "tags",
              "type": "bytes32[]"
            },
            {
              "components": [
                {
                  "internalType": "address",
                  "name": "addr",
                  "type": "address"
                },
                {
                  "internalType": "uint16",
                  "name": "share",
                  "type": "uint16"
                }
              ],
              "internalType": "struct DataStorage.Payee[]",
              "name": "owners",
              "type": "tuple[]"
            }
          ],
          "internalType": "struct DataStorage.Katibeh[]",
          "name": "katibeh",
          "type": "tuple[]"
        },
        {
          "internalType": "bytes[]",
          "name": "sig",
          "type": "bytes[]"
        },
        {
          "internalType": "bytes[]",
          "name": "dappData",
          "type": "bytes[]"
        }
      ],
      "stateMutability": "view",
      "type": "function"
    },
    {
      "inputs": [
        {
          "internalType": "address",
          "name": "creator",
          "type": "address"
        }
      ],
      "name": "tokensOfCreator",
      "outputs": [
        {
          "internalType": "uint256[]",
          "name": "ids",
          "type": "uint256[]"
        }
      ],
      "stateMutability": "view",
      "type": "function"
    },
    {
      "inputs": [
        {
          "internalType": "address",
          "name": "creator",
          "type": "address"
        },
        {
          "internalType": "uint256[]",
          "name": "index",
          "type": "uint256[]"
        }
      ],
      "name": "tokensOfCreatorByIndexBatch",
      "outputs": [
        {
          "internalType": "uint256[]",
          "name": "id",
          "type": "uint256[]"
        }
      ],
      "stateMutability": "view",
      "type": "function"
    },
    {
      "inputs": [
        {
          "internalType": "bytes32",
          "name": "tag",
          "type": "bytes32"
        }
      ],
      "name": "tokensOfTag",
      "outputs": [
        {
          "internalType": "uint256[]",
          "name": "ids",
          "type": "uint256[]"
        }
      ],
      "stateMutability": "view",
      "type": "function"
    },
    {
      "inputs": [
        {
          "internalType": "bytes32",
          "name": "tag",
          "type": "bytes32"
        },
        {
          "internalType": "uint256[]",
          "name": "index",
          "type": "uint256[]"
        }
      ],
      "name": "tokensOfTagByIndexBatch",
      "outputs": [
        {
          "internalType": "uint256[]",
          "name": "id",
          "type": "uint256[]"
        }
      ],
      "stateMutability": "view",
      "type": "function"
    },
    {
      "inputs": [],
      "name": "totalSupply",
      "outputs": [
        {
          "internalType": "uint256",
          "name": "",
          "type": "uint256"
        }
      ],
      "stateMutability": "view",
      "type": "function"
    },
    {
      "inputs": [
        {
          "internalType": "address",
          "name": "creator",
          "type": "address"
        },
        {
          "internalType": "uint256",
          "name": "id",
          "type": "uint256"
        }
      ],
      "name": "traceTokenByCreator",
      "outputs": [
        {
          "internalType": "uint256",
          "name": "numberOfPreviousIds",
          "type": "uint256"
        },
        {
          "internalType": "uint256",
          "name": "numberOfNextIds",
          "type": "uint256"
        },
        {
          "internalType": "uint256",
          "name": "previousId",
          "type": "uint256"
        },
        {
          "internalType": "uint256",
          "name": "nextId",
          "type": "uint256"
        }
      ],
      "stateMutability": "view",
      "type": "function"
    },
    {
      "inputs": [
        {
          "internalType": "uint256",
          "name": "id",
          "type": "uint256"
        }
      ],
      "name": "traceTokenById",
      "outputs": [
        {
          "internalType": "uint256",
          "name": "numberOfPreviousIds",
          "type": "uint256"
        },
        {
          "internalType": "uint256",
          "name": "numberOfNextIds",
          "type": "uint256"
        },
        {
          "internalType": "uint256",
          "name": "previousId",
          "type": "uint256"
        },
        {
          "internalType": "uint256",
          "name": "nextId",
          "type": "uint256"
        }
      ],
      "stateMutability": "view",
      "type": "function"
    },
    {
      "inputs": [
        {
          "internalType": "bytes32",
          "name": "tag",
          "type": "bytes32"
        },
        {
          "internalType": "uint256",
          "name": "id",
          "type": "uint256"
        }
      ],
      "name": "traceTokenByTag",
      "outputs": [
        {
          "internalType": "uint256",
          "name": "numberOfPreviousIds",
          "type": "uint256"
        },
        {
          "internalType": "uint256",
          "name": "numberOfNextIds",
          "type": "uint256"
        },
        {
          "internalType": "uint256",
          "name": "previousId",
          "type": "uint256"
        },
        {
          "internalType": "uint256",
          "name": "nextId",
          "type": "uint256"
        }
      ],
      "stateMutability": "view",
      "type": "function"
    },
    {
      "inputs": [
        {
          "internalType": "address",
          "name": "from",
          "type": "address"
        },
        {
          "internalType": "address",
          "name": "to",
          "type": "address"
        },
        {
          "internalType": "uint256",
          "name": "tokenId",
          "type": "uint256"
        }
      ],
      "name": "transferFrom",
      "outputs": [],
      "stateMutability": "nonpayable",
      "type": "function"
    }
  ],
  "bytecode": "0x60803462000311576001600160401b039060409080820183811182821017620002fb578252600a8152602092694b61746962656837323160b01b84830152825183810181811083821117620002fb578452600781526609682a892848a960cb1b85820152825190828211620002fb5760008054926001958685811c95168015620002f0575b89861014620002dc578190601f9586811162000289575b5089908683116001146200022557849262000219575b5050600019600383901b1c191690861b1781555b8151938411620002055784548581811c91168015620001fa575b88821014620001e6578381116200019e575b508692841160011462000138578394959650926200012c575b5050600019600383901b1c191690821b1790555b516146569081620003178239f35b0151905038806200010a565b9190601f1984169685845280842093905b8882106200018657505083859697106200016c575b505050811b0190556200011e565b015160001960f88460031b161c191690553880806200015e565b80878596829496860151815501950193019062000149565b8582528782208480870160051c8201928a8810620001dc575b0160051c019086905b828110620001d0575050620000f1565b838155018690620001c0565b92508192620001b7565b634e487b7160e01b82526022600452602482fd5b90607f1690620000df565b634e487b7160e01b81526041600452602490fd5b015190503880620000b1565b8480528a85208994509190601f198416865b8d82821062000272575050841162000258575b505050811b018155620000c5565b015160001960f88460031b161c191690553880806200024a565b8385015186558c9790950194938401930162000237565b9091508380528984208680850160051c8201928c8610620002d2575b918a91869594930160051c01915b828110620002c35750506200009b565b8681558594508a9101620002b3565b92508192620002a5565b634e487b7160e01b83526022600452602483fd5b94607f169462000084565b634e487b7160e01b600052604160045260246000fd5b600080fdfe60806040526004361015610013575b600080fd5b60003560e01c8063017642e41461044b57806301ffc9a71461044257806306fdde0314610439578063081812fc14610430578063095ea7b3146104275780630ab0df871461041e578063132e75d6146104155780631674ed4b1461040c57806318160ddd146104035780631ae69b61146103fa57806323b872dd146103f157806326156636146103e857806329c7785f146103df5780632b0eca8c146103d65780632c230901146103cd5780632e0d0718146103c45780632f745c59146103bb57806331d99545146103b25780633552d220146103a957806339d77f25146103a057806340b947571461039757806342842e0e1461038e57806342966c68146103855780634667c8841461037c5780634832e8f3146103735780634f6ccce71461036a5780634fc092751461036157806360f6a4a3146103585780636352211e1461034f578063662ec09e146103465780636d571b6a1461033d57806370a08231146103345780637372e98d1461032b57806378292236146103225780638282674f146103195780638f93fb391461031057806395d89b411461030757806396cc6a34146102fe578063a22cb465146102f5578063af3ea105146102ec578063b1582201146102e3578063b88d4fde146102da578063bfc9b364146102d1578063c03d1d91146102c8578063c3512876146102bf578063c87b56dd146102b6578063cc33c875146102ad578063cca3c766146102a4578063dd4687911461029b578063e985e9c514610292578063f353a73214610289578063f6bd7ab814610280578063f99458a4146102775763fe649b7e1461026f57600080fd5b61000e611e3b565b5061000e611dfb565b5061000e611dac565b5061000e611d89565b5061000e611d20565b5061000e611d01565b5061000e611ca6565b5061000e611c4d565b5061000e611bf8565b5061000e611bb2565b5061000e611b24565b5061000e611ae7565b5061000e611a7f565b5061000e611945565b5061000e6118e6565b5061000e6117f5565b5061000e61176c565b5061000e6116c6565b5061000e61166b565b5061000e611632565b5061000e611605565b5061000e6115e8565b5061000e6115c0565b5061000e6115a1565b5061000e611566565b5061000e611547565b5061000e611524565b5061000e6114f8565b5061000e61144c565b5061000e611356565b5061000e611291565b5061000e6111cf565b5061000e6111a6565b5061000e61111e565b5061000e611000565b5061000e610fde565b5061000e610f70565b5061000e610eb8565b5061000e610e8d565b5061000e610e15565b5061000e610d4f565b5061000e610a36565b5061000e610a0f565b5061000e6109e5565b5061000e61099a565b5061000e61097b565b5061000e6108e9565b5061000e610899565b5061000e610841565b5061000e610766565b5061000e610717565b5061000e610637565b5061000e61055a565b5061000e6104bf565b9181601f8401121561000e578235916001600160401b03831161000e576020808501948460051b01011161000e57565b6020908160408183019282815285518094520193019160005b8281106104ab575050505090565b83518552938101939281019260010161049d565b503461000e57604036600319011261000e576004356024356001600160401b03811161000e576104f3903690600401610454565b916104fd8361406a565b9260005b81811061051a57604051806105168782610484565b0390f35b8061053361052c610543938588612f38565b3585614481565b61053d8288613e72565b52612ee5565b610501565b6001600160e01b031981160361000e57565b503461000e57602036600319011261000e57602060043561057a81610548565b63ffffffff60e01b1663780e9d6360e01b81149081156105a0575b506040519015158152f35b6380ac58cd60e01b8114915081156105d2575b81156105c1575b5038610595565b6301ffc9a760e01b149050386105ba565b635b5e139f60e01b811491506105b3565b919082519283825260005b84811061060f575050826000602080949584010152601f8019910116010190565b6020818301810151848301820152016105ee565b9060206106349281815201906105e3565b90565b503461000e57600080600319360112610714576040519080805461065a81611f89565b808552916001918083169081156106ea5750600114610690575b61051685610684818703826119dd565b60405191829182610623565b80809450527f290decd9548b62a8d60345a988386fc84ba6bc95484008f6362f93160ef3e5635b8284106106d257505050810160200161068482610516610674565b805460208587018101919091529093019281016106b7565b8695506105169693506020925061068494915060ff191682840152151560051b8201019293610674565b80fd5b503461000e57602036600319011261000e5760206107366004356120e6565b6040516001600160a01b039091168152f35b6001600160a01b0381160361000e57565b359061076482610748565b565b503461000e57604036600319011261000e5760043561078481610748565b60243561079081611f66565b916001600160a01b0380841690821681146107f2576107c2936107bd9133149081156107c4575b50612074565b6124cb565b005b6001600160a01b0316600090815260056020908152604080832033845290915290205460ff169050386107b7565b60405162461bcd60e51b815260206004820152602160248201527f4552433732313a20617070726f76616c20746f2063757272656e74206f776e656044820152603960f91b6064820152608490fd5b503461000e57600036600319011261000e576020604051428152f35b90604060031983011261000e5760043561087681610748565b91602435906001600160401b03821161000e5761089591600401610454565b9091565b503461000e576108a83661085d565b916108b28361406a565b9260005b8181106108cb57604051806105168782610484565b806105336108dd6108e4938588612f38565b3585614382565b6108b6565b503461000e5760408060031936011261000e576004356024356001600160401b03811161000e5761091e903690600401610454565b916109288361406a565b92600090815b818110610942578651806105168882610484565b80610965610954610976938589612f38565b358686526014602052898620612736565b90549060031b1c61053d8289613e72565b61092e565b503461000e57600036600319011261000e576020600854604051908152f35b503461000e57600036600319011261000e576020601254604051908152f35b606090600319011261000e576004356109d181610748565b906024356109de81610748565b9060443590565b503461000e576107c26109f7366109b9565b91610a0a610a05843361222a565b612124565b612336565b503461000e57602036600319011261000e576020610a2e60043561409c565b604051908152f35b503461000e57604036600319011261000e57600080600435825260166020526105166040832092610a69602435856141a5565b92845494848603958611610b1c575b600019868101968711610b0f575b85610ad4575b5085610ab7575b50604051948594859094939260609260808301968352602083015260408201520152565b610acc919250610ac685612328565b90614106565b509038610a93565b610aea9192508501858111610b02575b82612736565b90549060031b1c808352600282016020529038610a8c565b610b0a6122fa565b610ae4565b610b176122fa565b610a86565b610b246122fa565b610a78565b602060031982011261000e57600435906001600160401b03821161000e5761089591600401610454565b90815180825260208080930193019160005b828110610b73575050505090565b835185529381019392810192600101610b65565b90815180825260208080930193019160005b828110610ba7575050505090565b835180516001600160a01b0316865282015161ffff168583015260409094019392810192600101610b99565b80516001600160a01b031682526106349190602081015160208301526040810151604083015260608101516060830152610c5b610c49610c37610c2560808501516101208060808901528701906105e3565b60a085015186820360a08801526105e3565b60c084015185820360c0870152610b53565b60e083015184820360e0860152610b53565b916101008092015191818403910152610b87565b908082519081815260208091019281808460051b8301019501936000915b848310610c9d5750505050505090565b9091929394958480610cbb600193601f198682030187528a516105e3565b9801930193019194939290610c8d565b919392909360608301906060845285518092526080840160808360051b860101926020809801916000905b828210610d25575050505090610d1791610634959685830390860152610c6f565b916040818403910152610c6f565b909192948980610d41600193607f198c82030186528951610bd3565b970192019201909291610cf6565b503461000e57610d5e36610b29565b90610d6882613da1565b610d7560405191826119dd565b828152601f19610d8484613da1565b0160005b818110610dfe575050610d9a83613e28565b91610da484613e28565b9060005b858110610dc15750506105169060405193849384610ccb565b80610dd9610dd3610df9938986612f38565b35613f76565b610de38488613e72565b52610dee8389613e72565b5261053d8287613e72565b610da8565b602090610e09613dc1565b82828601015201610d88565b503461000e57610e2436610b29565b90610e2e8261406a565b9160005b818110610e4757604051806105168682610484565b80610e7e610e59610e88938587612f38565b35610e6381610748565b6001600160a01b031660009081526015602052604090205490565b61053d8287613e72565b610e32565b503461000e57602036600319011261000e576020610a2e600435600052601460205260406000205490565b503461000e57604036600319011261000e57600435610ed681610748565b60243590610ee381611ea3565b821015610f17576001600160a01b031660009081526006602090815260408083209383529281529082902054915191825290f35b60405162461bcd60e51b815260206004820152602b60248201527f455243373231456e756d657261626c653a206f776e657220696e646578206f7560448201526a74206f6620626f756e647360a81b6064820152608490fd5b503461000e57610f7f36610b29565b90610f898261406a565b9160005b818110610fa257604051806105168682610484565b80610e7e610fb4610fd9938587612f38565b35610fbe81610748565b6001600160a01b031660009081526011602052604090205490565b610f8d565b503461000e57604036600319011261000e576020610a2e602435600435614481565b503461000e57602036600319011261000e5760008061051661102360043561412d565b91600e54938385039485116110cd575b6000198581019586116110c0575b8461108b575b5084611071575b604051948594859094939260609260808301968352602083015260408201520152565b905061108461107f84612328565b6140b8565b509061104e565b61109e915084018481116110b3576126f1565b90549060031b1c808252601060205238611047565b6110bb6122fa565b6126f1565b6110c86122fa565b611041565b6110d56122fa565b611033565b6020908160408183019282815285518094520193019160005b828110611101575050505090565b83516001600160a01b0316855293810193928101926001016110f3565b503461000e57600036600319011261000e57604051806012549182815260208091019260126000527fbb8a6a4669ba250d26cd7a459eca9d215f8307e33aebe50379bc5a3617ec3444916000905b82821061118f5761051685611183818903826119dd565b604051918291826110da565b83548652948501946001938401939091019061116c565b503461000e576107c26111b8366109b9565b90604051926111c68461199a565b60008452612187565b503461000e57602036600319011261000e576004356111f1610a05823361222a565b6112816111fd82611f66565b6112078382612f56565b61121083612477565b6001600160a01b031660008181526003602052604081208054919492839286926000198201918211611284575b5582825260026020526040822080546001600160a01b03191690557fddf252ad1be2c89b69c2b068fc378daa952ba7f163c4a11628f55a4df523b3ef8280a46134bf565b80f35b61128c6122fa565b61123d565b503461000e57602036600319011261000e576020610a2e600435600052601660205260406000205490565b908161012091031261000e5790565b9181601f8401121561000e578235916001600160401b03831161000e576020838186019501011161000e57565b606060031982011261000e576001600160401b039060043582811161000e5781611324916004016112bc565b9260243583811161000e578261133c916004016112cb565b9390939260443591821161000e57610895916004016112cb565b503461000e57611374611368366112f8565b92849594929192612beb565b600e5481600052601060205260406000205561138f816141ed565b506113a28161139d84612b2e565b6143b6565b6113b36113ae83612b2e565b614438565b60c082016113c18184612bb6565b91905060005b8281106113e5576107c2846113df60e0880188612bb6565b9161449a565b80611407611400611447936113fa868a612bb6565b90612f38565b358661444a565b6114428561143d61143061141f856113fa898d612bb6565b35600052600a602052604060002090565b546001600160a01b031690565b614460565b612ee5565b6113c7565b503461000e57602036600319011261000e5760043560085481101561149e5760086000527ff3f7a9fe364faab93b216da50a3214154f22a0a2b415b23a84c8169e8b636ee30154604051908152602090f35b60405162461bcd60e51b815260206004820152602c60248201527f455243373231456e756d657261626c653a20676c6f62616c20696e646578206f60448201526b7574206f6620626f756e647360a01b6064820152608490fd5b503461000e57604036600319011261000e576020610a2e60043561151b81610748565b60243590614382565b503461000e57602036600319011261000e576020610a2e600435610fbe81610748565b503461000e57602036600319011261000e576020610736600435611f66565b503461000e57602036600319011261000e576004356001600160401b03811161000e57610a2e61159c60209236906004016112bc565b612a2b565b503461000e57602036600319011261000e5760206107366004356143ec565b503461000e57602036600319011261000e576020610a2e6004356115e381610748565b611ea3565b503461000e576020610a2e6115fc366112f8565b93929092612beb565b503461000e57602036600319011261000e57600435600052600b6020526020604060002054604051908152f35b503461000e57602036600319011261000e57600435600052601460205261051661165f6040600020613e94565b60405191829182610484565b503461000e5761167a36610b29565b906116848261406a565b9160005b81811061169d57604051806105168682610484565b80610e7e6116af6116c1938587612f38565b35600052601660205260406000205490565b611688565b503461000e5760008060031936011261071457604051908060018054916116ec83611f89565b808652928281169081156106ea57506001146117125761051685610684818703826119dd565b92508083527fb10e2d527612073b26eecdfd717e6a320cf44b4afac2b0732d9fcbe2b7fa0cf65b82841061175457505050810160200161068482610516610674565b80546020858701810191909152909301928101611739565b503461000e5760208060031936011261000e5760043561178b81610748565b6001600160a01b031660009081526011825260408120805491906117ae8361406a565b936002820191835b8581106117cb57604051806105168982610484565b806117d96117f09284612736565b90549060031b1c80875285855261053d828a613e72565b6117b6565b503461000e57604036600319011261000e5760043561181381610748565b602435801515810361000e576001600160a01b038216913383146118a1578161185e61186f9233600052600560205260406000209060018060a01b0316600052602052604060002090565b9060ff801983541691151516179055565b604051901515815233907f17307eab39ab6107e8899845ad3d59bd9653f200f220920489ca2b5937696c3190602090a3005b60405162461bcd60e51b815260206004820152601960248201527f4552433732313a20617070726f766520746f2063616c6c6572000000000000006044820152606490fd5b503461000e5760208060031936011261000e57600060043581526016825260408120908154916119158361406a565b936002820191835b85811061193257604051806105168982610484565b806117d96119409284612736565b61191d565b503461000e57602036600319011261000e5760043561196381610748565b60018060a01b0316600052601560205261051661165f6040600020613e94565b50634e487b7160e01b600052604160045260246000fd5b602081019081106001600160401b038211176119b557604052565b6119bd611983565b604052565b606081019081106001600160401b038211176119b557604052565b90601f801991011681019081106001600160401b038211176119b557604052565b6040519061012082018281106001600160401b038211176119b557604052565b6020906001600160401b038111611a3b575b601f01601f19160190565b611a43611983565b611a30565b929192611a5482611a1e565b91611a6260405193846119dd565b82948184528183011161000e578281602093846000960137010152565b503461000e57608036600319011261000e57600435611a9d81610748565b602435611aa981610748565b606435916001600160401b03831161000e573660238401121561000e57611add6107c2933690602481600401359101611a48565b9160443591612187565b503461000e57604036600319011261000e5760043560005260146020526020611b166024356040600020612736565b90546040519160031b1c8152f35b503461000e57611b3336610b29565b90611b3d82613da1565b91611b4b60405193846119dd565b808352601f19611b5a82613da1565b0136602085013760005b818110611b79576040518061051686826110da565b80611b91611b8b611bad938587612f38565b356143ec565b611b9b8287613e72565b6001600160a01b039091169052612ee5565b611b64565b503461000e57604036600319011261000e57600435611bd081610748565b6001600160a01b031660009081526011602052604081209061051681610a69602435856141a5565b503461000e57602036600319011261000e57600435600052600a602052610516611c32611c39600460406000200160405192838092611fc3565b03826119dd565b6040519182916020835260208301906105e3565b503461000e57602036600319011261000e57611c8a611c98610516611c73600435613f76565b919390604051958695606087526060870190610bd3565b9085820360208701526105e3565b9083820360408501526105e3565b503461000e57611cb536610b29565b90611cbf8261406a565b9160005b818110611cd857604051806105168682610484565b80610e7e611cea611cfc938587612f38565b35600052601460205260406000205490565b611cc3565b503461000e57600036600319011261000e576020600e54604051908152f35b503461000e57604036600319011261000e57602060ff611d7d600435611d4581610748565b60243590611d5282610748565b60018060a01b03166000526005845260406000209060018060a01b0316600052602052604060002090565b54166040519015158152f35b503461000e57602036600319011261000e576020610a2e600435610e6381610748565b503461000e57611dbb36610b29565b90611dc58261406a565b9160005b818110611dde57604051806105168682610484565b80610e7e611df0611df6938587612f38565b3561409c565b611dc9565b503461000e57604036600319011261000e57600435611e1981610748565b60018060a01b031660005260156020526020611b166024356040600020612736565b503461000e57611e4a3661085d565b91611e548361406a565b92600090815b818110611e6f57604051806105168882610484565b80610965611e81611e9e938589612f38565b6001600160a01b0387168652601560205260408620903590612736565b611e5a565b6001600160a01b03168015611ec357600052600360205260406000205490565b60405162461bcd60e51b815260206004820152602960248201527f4552433732313a2061646472657373207a65726f206973206e6f7420612076616044820152683634b21037bbb732b960b91b6064820152608490fd5b15611f2157565b60405162461bcd60e51b815260206004820152601860248201527f4552433732313a20696e76616c696420746f6b656e20494400000000000000006044820152606490fd5b6000908152600260205260409020546001600160a01b0316610634811515611f1a565b90600182811c92168015611fb9575b6020831014611fa357565b634e487b7160e01b600052602260045260246000fd5b91607f1691611f98565b9060009291805491611fd483611f89565b9182825260019384811690816000146120365750600114611ff6575b50505050565b90919394506000526020928360002092846000945b838610612022575050505001019038808080611ff0565b80548587018301529401938590820161200b565b9294505050602093945060ff191683830152151560051b01019038808080611ff0565b9061076461206d9260405193848092611fc3565b03836119dd565b1561207b57565b60405162461bcd60e51b815260206004820152603e60248201527f4552433732313a20617070726f76652063616c6c6572206973206e6f7420746f60448201527f6b656e206f776e6572206e6f7220617070726f76656420666f7220616c6c00006064820152608490fd5b600081815260026020526040902054612109906001600160a01b03161515611f1a565b6000908152600460205260409020546001600160a01b031690565b1561212b57565b60405162461bcd60e51b815260206004820152602e60248201527f4552433732313a2063616c6c6572206973206e6f7420746f6b656e206f776e6560448201526d1c881b9bdc88185c1c1c9bdd995960921b6064820152608490fd5b9161076493916121ae9361219e610a05843361222a565b6121a9838383612336565b61269e565b612206565b60809060208152603260208201527f4552433732313a207472616e7366657220746f206e6f6e20455243373231526560408201527131b2b4bb32b91034b6b83632b6b2b73a32b960711b60608201520190565b1561220d57565b60405162461bcd60e51b815280612226600482016121b3565b0390fd5b6001600160a01b038061223c84611f66565b169281831692848414948515612272575b5050831561225c575b50505090565b612268919293506120e6565b1614388080612256565b60009081526005602090815260408083206001600160a01b03949094168352929052205460ff169350388061224d565b156122a957565b60405162461bcd60e51b8152602060048201526024808201527f4552433732313a207472616e7366657220746f20746865207a65726f206164646044820152637265737360e01b6064820152608490fd5b50634e487b7160e01b600052601160045260246000fd5b60001981019190821161232057565b6107646122fa565b906001820180921161232057565b9061234083611f66565b6001600160a01b0383811692909182168390036124245761239a6123fd9282169461236c8615156122a2565b6123778784836130ff565b61238087612477565b6001600160a01b0316600090815260036020526040902090565b6123a48154612311565b90556001600160a01b03811660009081526003602052604090206123c88154612328565b90556123de856000526002602052604060002090565b80546001600160a01b0319166001600160a01b03909216919091179055565b7fddf252ad1be2c89b69c2b068fc378daa952ba7f163c4a11628f55a4df523b3ef600080a4565b60405162461bcd60e51b815260206004820152602560248201527f4552433732313a207472616e736665722066726f6d20696e636f72726563742060448201526437bbb732b960d91b6064820152608490fd5b600081815260046020526040812080546001600160a01b03191690556001600160a01b036124a483611f66565b167f8c5be1e5ebec7d5bd14f71427d1e84f3dd0314c0f7b2291e5b200ac8c7c3b9258280a4565b600082815260046020526040902080546001600160a01b0319166001600160a01b0383161790556001600160a01b038061250484611f66565b169116907f8c5be1e5ebec7d5bd14f71427d1e84f3dd0314c0f7b2291e5b200ac8c7c3b925600080a4565b9081602091031261000e575161063481610548565b610634939260809260018060a01b0316825260006020830152604082015281606082015201906105e3565b6001600160a01b039182168152911660208201526040810191909152608060608201819052610634929101906105e3565b506040513d6000823e3d90fd5b3d156125d8573d906125be82611a1e565b916125cc60405193846119dd565b82523d6000602084013e565b606090565b909190803b156126965761260f602091600093604051948580948193630a85bd0160e11b998a84523360048501612544565b03926001600160a01b03165af160009181612666575b50612658576126326125ad565b805190816126535760405162461bcd60e51b815280612226600482016121b3565b602001fd5b6001600160e01b0319161490565b61268891925060203d811161268f575b61268081836119dd565b81019061252f565b9038612625565b503d612676565b505050600190565b92909190823b156126d15761260f926020926000604051809681958294630a85bd0160e11b9a8b8552336004860161256f565b50505050600190565b50634e487b7160e01b600052603260045260246000fd5b600e54811015612729575b600e6000527fbb7b4a454dc3493923482f07822329ed19e8244eff582cc204f8554c3620c3fd0190600090565b6127316126da565b6126fc565b805482101561274f575b60005260206000200190600090565b6127576126da565b612740565b1561276357565b60405162461bcd60e51b815260206004820152605c60248201527f4b6174696265683732313a206d696e742074696d65206d757374206265206c6560448201527f7373207468616e20696e69742074696d65202620696e69742074696d65206d7560648201527f7374206265206c657373207468616e206578706972652074696d652e00000000608482015260a490fd5b9035601e198236030181121561000e5701602081359101916001600160401b03821161000e57813603831361000e57565b908060209392818452848401376000828201840152601f01601f1916010190565b9035601e198236030181121561000e5701602081359101916001600160401b03821161000e578160051b3603831361000e57565b81835290916001600160fb1b03831161000e5760209260051b809284830137010190565b9035601e198236030181121561000e5701602081359101916001600160401b03821161000e578160061b3603831361000e57565b61ffff81160361000e57565b9190808252602080920192916000905b8282106128fc575050505090565b90919293600190853561290e81610748565b828060a01b0316815261ffff83870135612927816128d2565b168184015260409081019501939201906128ee565b906129a761063492602081526129656020820161295885610759565b6001600160a01b03169052565b60208301356040820152604083013560608201526060830135608082015261299060808401846127f4565b9290610120938460a0850152610140840191612825565b90612a1c6129ef6129d26129be60a08801886127f4565b601f19868803810160c08801529691612825565b6129df60c0880188612846565b90868684030160e087015261287a565b94612a13612a0060e0830183612846565b610100989187878403018a88015261287a565b9581019061289e565b939092828603019101526128de565b6020810135610e104201804211612b21575b811080612afe575b15612a9c57612a64906040830135809111159081612a8d575b5061275c565b604051612a8781612a7960208201948561293c565b03601f1981018352826119dd565b51902090565b90506060830135101538612a5e565b60405162461bcd60e51b815260206004820152603460248201527f4b6174696265683732313a206d6f7265207468616e206f6e6520686f7572206d60448201527334b73a103a34b6b2903234b33332b932b731b29760611b6064820152608490fd5b50610e0f194201428111612b14575b8111612a45565b612b1c6122fa565b612b0d565b612b296122fa565b612a3d565b3561063481610748565b15612b3f57565b60405162461bcd60e51b815260206004820152601d60248201527f4b6174696265683732313a20496e76616c6964207369676e61747572650000006044820152606490fd5b903590601e198136030182121561000e57018035906001600160401b03821161000e5760200191813603831361000e57565b903590601e198136030182121561000e57018035906001600160401b03821161000e57602001918160051b3603831361000e57565b93949294604051956020968781019085858337612c29602c828881016b39b0b6b0b7103bb4b639b7b760a11b8d82015203600c8101845201826119dd565b519020958035612c3881610748565b612c4182612a2b565b6040518a8101917f19457468657265756d205369676e6564204d6573736167653a0a3332000000008352603c820152603c8152612c7d816119c2565b519020612c8b368888611a48565b6041815103612d5f57808b01516040808301516060938401518251958652600090811a602087015291850192909252918301528080529899979861076498612d4c969594612d4694612d3f949193612d0293919260809060015afa15612d52575b6000516001600160a01b03908116911614612b38565b612d148b612d0f83612b2e565b612da4565b612d2b8b612d256080840184612b84565b906133c4565b612d35818c613957565b60e0810190612bb6565b908a613cca565b87613af1565b84613bb5565b612d5a6125a0565b612cec565b60405162461bcd60e51b8152600481018c9052601860248201527f696e76616c6964207369676e6174757265206c656e67746800000000000000006044820152606490fd5b90604051612db18161199a565b600081526001600160a01b038316918215612ea1576000818152600260205260409020546001600160a01b0316612e5c5783816121ae94612df582610764986130d4565b6001600160a01b0383166000908152600360205260409020612e178154612328565b9055612e31836123de846000526002602052604060002090565b60007fddf252ad1be2c89b69c2b068fc378daa952ba7f163c4a11628f55a4df523b3ef8180a46125dd565b60405162461bcd60e51b815260206004820152601c60248201527f4552433732313a20746f6b656e20616c7265616479206d696e746564000000006044820152606490fd5b606460405162461bcd60e51b815260206004820152602060248201527f4552433732313a206d696e7420746f20746865207a65726f20616464726573736044820152fd5b6001906000198114612ef5570190565b612efd6122fa565b0190565b60409160021015612f10570190565b612efd6126da565b9015612f215790565b6106346126da565b60209160011015612f10570190565b9190811015612f49575b60051b0190565b612f516126da565b612f42565b6001600160a01b03811680159291831584816130cc575b15613078576107649415612f8c57505050612f878161323a565b6132ae565b612f98575b50506132ae565b80613001612fa861301093611ea3565b60001981019290831161306b575b6000948686526007602052604086205490848203613018575b505084612fe6876000526007602052604060002090565b556001600160a01b0316600090815260066020526040902090565b90600052602052604060002090565b553880612f91565b8652600660205260408620848752602052613063604087205480613052846130018760018060a01b03166000526006602052604060002090565b556000526007602052604060002090565b553880612fcf565b6130736122fa565b612fb6565b60405162461bcd60e51b815260206004820152602660248201527f746f6b656e732063616e6e6f74206265207472616e736665726564206f6e2074604482015265195cdd1b995d60d21b6064820152608490fd5b506001612f6d565b906130de8161323a565b6001600160a01b0382166130f65761076491506132ae565b61076491613202565b9091906001600160a01b038082169182158080156131f8575b156130785715613148575061312c8361323a565b83168061313f57505061076491506132ae565b036130f6575050565b8185168303613158575b5061312c565b6131a261316482611ea3565b60001981019081116131eb575b613001600093878552600760205260408520548381036131a9575b5084612fe6896000526007602052604060002090565b5538613152565b8786526006602052604086208487526020526131e4604087205480613052846130018760018060a01b03166000526006602052604060002090565b553861318c565b6131f36122fa565b613171565b5082861615613118565b60409061320e81611ea3565b9260009160018060a01b0316825260066020528282208483526020528083832055815260076020522055565b60085481600052600960205280604060002055600160401b8110156132a1575b6001810180600855811015613294575b60086000527ff3f7a9fe364faab93b216da50a3214154f22a0a2b415b23a84c8169e8b636ee30155565b61329c6126da565b61326a565b6132a9611983565b61325a565b6008805460001992908381018181116133b7575b61335e600093849281845260096020528460408520549110156133aa575b86845261334d7ff3f7a9fe364faab93b216da50a3214154f22a0a2b415b23a84c8169e8b636ee295868101549083101561339d575b88865280837ff3f7a9fe364faab93b216da50a3214154f22a0a2b415b23a84c8169e8b636ee301556000526009602052604060002090565b556000526009602052604060002090565b558254938415613389578401938085101561337c575b838352015555565b6133846126da565b613374565b634e487b7160e01b83526031600452602483fd5b6133a56126da565b613315565b6133b26126da565b6132e0565b6133bf6122fa565b6132c2565b6133ed9160405192839160209481869283830196873781016000838201520380845201826119dd565b51902080600052600b82526040600020546134125790600b9160005252604060002055565b60405162461bcd60e51b815260048101839052602360248201527f4461746153746f726167653a20757269207265676973746572656420616c726560448201526261647960e81b6064820152608490fd5b81811061346e575050565b60008155600101613463565b9190601f811161348957505050565b610764926000526020600020906020601f840160051c830193106134b5575b601f0160051c0190613463565b90915081906134a8565b60047f766269423061476c7a4947356c64486476636d7375496e300000000000000000916000908152602090600a82528260408220600d845282604081206135078154611f89565b806135e7575b5050500161351b8154611f89565b601f81116135c6575b5061013181558152207f646174613a6170706c69636174696f6e2f6a736f6e3b6261736536342c65794a81557f755957316c496a6f67496c526f61584d67644739725a57346761584d67596e5660018201557f79626d566b4c694973496d526c63324e796158423061573975496a6f67496c5260028201557f766132567549476c7a494735766443426a623278735a574e3061574a735a534260038201550155565b6135e1908284526005601f8686209201811c82019101613463565b38613524565b601f81116001146135fd5750555b82388061350d565b81835286832061361891601f0160051c810190600101613463565b818681209155556135f5565b9092916001600160401b0381116136ec575b61364a816136448454611f89565b8461347a565b6000601f82116001146136845781929394600092613679575b50508160011b916000199060031b1c1916179055565b013590503880613663565b601f1982169461369984600052602060002090565b91805b8781106136d45750836001959697106136ba575b505050811b019055565b0135600019600384901b60f8161c191690553880806136b0565b9092602060018192868601358155019401910161369c565b6136f4611983565b613636565b906001600160401b03831161377c575b600160401b831161376f575b8154838355808410613751575b50906000526020806000209060005b84811061373f575050505050565b83358382015592810192600101613731565b61376990836000528460206000209182019101613463565b38613722565b613777611983565b613715565b613784611983565b613709565b906001600160401b03831161381d575b600160401b8311613810575b81548383558084106137e7575b506137c39091600052602060002090565b60005b8381106137d35750505050565b6001906020843594019381840155016137c6565b6000838152846020822092830192015b8281106138055750506137b2565b8181556001016137f7565b613818611983565b6137a5565b613825611983565b613799565b903590601e198136030182121561000e57018035906001600160401b03821161000e57602001918160061b3603831361000e57565b9060209061388d813561387181610748565b84546001600160a01b0319166001600160a01b03909116178455565b0135613898816128d2565b815461ffff60a01b191660a09190911b61ffff60a01b16179055565b90600160401b8311613935575b815483835580841061390c575b506138df9091600052602060002090565b6000915b8383106138f05750505050565b600160408261390083948661385f565b019201920191906138e3565b6000838152846020822092830192015b82811061392a5750506138ce565b81815560010161391c565b61393d611983565b6138c1565b81604051928392833781016000815203902090565b9061396c82600052600a602052604060002090565b9161397961387183612b2e565b6020820135806001850155604083013590816002860155827f0b85051017293732c5b533b177efc66475411a9fdd5fbc8ecb619906658413d66060860135938460038901556139d86139ce6080890189612b84565b9060048b01613624565b60a087016139f36139e9828a612b84565b9060058c01613624565b613a45600860c08a019a613a14613a0a8d8d612bb6565b90600684016136f9565b613a2e613a2460e08d018d612bb6565b9060078401613789565b613a3c6101008c018c61382a565b929091016138b4565b613a8b613a64613a5e613a578b612b2e565b938b612b84565b90613942565b9660405193849360018060a01b031697846040919493926060820195825260208201520152565b0390a4613a988383612bb6565b939050600092835b858110613aaf57505050505050565b80613ac1613aec926113fa8686612bb6565b35857f65327253f8d67c2e23cb4dfab28ca7437b04e9098cf4e985073d76df25209ad48880a3612ee5565b613aa0565b929192600052602092600c84526040600020916001600160401b038211613ba8575b613b2782613b218554611f89565b8561347a565b600094601f8311600114613b58575093819293946000926136795750508160011b916000199060031b1c1916179055565b90601f19831695613b6e85600052602060002090565b9281905b888210613b90575050836001959697106136ba57505050811b019055565b80600184968294958701358155019501920190613b72565b613bb0611983565b613b13565b929192600052602092600d84526040600020916001600160401b038211613c66575b613be582613b218554611f89565b600094601f8311600114613c16575093819293946000926136795750508160011b916000199060031b1c1916179055565b90601f19831695613c2c85600052602060002090565b9281905b888210613c4e575050836001959697106136ba57505050811b019055565b80600184968294958701358155019501920190613c30565b613c6e611983565b613bd7565b15613c7a57565b60405162461bcd60e51b815260206004820152602260248201527f4461746153746f726167653a2074616773206c656e677468206d757374206265604482015261203360f01b6064820152608490fd5b9190613cd96003831115613c73565b8115600081613d755750613d68575b7fb237134d29775150b1edf87af1dc343262244af7cbb474cfc64cb6e8824af66360208235925b60006001861115613d6257508460011015613d55575b81810135945b6000916002821115613d4d57613d419250612f01565b35945b604051908152a4565b505094613d44565b613d5d6126da565b613d25565b94613d2b565b613d706126da565b613ce8565b7fb237134d29775150b1edf87af1dc343262244af7cbb474cfc64cb6e8824af663915060209092613d0f565b6020906001600160401b038111613db95760051b0190565b612f51611983565b6040519061012082018281106001600160401b03821117613e1b575b604052816000815260006020820152600060408201526101006060916000838201528260808201528260a08201528260c08201528260e08201520152565b613e23611983565b613ddd565b90613e3282613da1565b613e3f60405191826119dd565b8281528092613e50601f1991613da1565b019060005b828110613e6157505050565b806060602080938501015201613e55565b6020918151811015613e87575b60051b010190565b613e8f6126da565b613e7f565b9060405191828154918282526020928383019160005283600020936000905b828210613ec957505050610764925003836119dd565b855484526001958601958895509381019390910190613eb3565b908154613eef81613da1565b92604093613eff855191826119dd565b828152809460208092019260005281600020906000935b858510613f2557505050505050565b600184819284518581018181106001600160401b03821117613f69575b865261ffff8754858060a01b038116835260a01c1683820152815201930194019391613f16565b613f71611983565b613f42565b90613f7f613dc1565b5060609082600052600a602052604060002092613f9a6119fe565b84546001600160a01b0316815260018501546020820152614016600860028701549660408401978852600381015487850152613fd860048201612059565b6080850152613fe960058201612059565b60a0850152613ffa60068201613e94565b60c085015261400b60078201613e94565b60e085015201613ee3565b6101008201529351421015614042575b61403d61063491600052600c602052604060002090565b612059565b915061063461403d61406161403d85600052600d602052604060002090565b93915050614026565b9061407482613da1565b61408160405191826119dd565b8281528092614092601f1991613da1565b0190602036910137565b6140a5906126f1565b90549060031b1c80600052601060205290565b600e548110156140f9575b7fbb7b4a454dc3493923482f07822329ed19e8244eff582cc204f8554c3620c3fd01549081600052601060205260406000205490565b6141016126da565b6140c3565b919061411460029184612736565b90549060031b1c92836000520160205260406000205490565b60005260106020526040600020548015801590614192575b1561414d5790565b60405162461bcd60e51b815260206004820152601e60248201527f456e756d657261626c654d61703a206e6f6e6578697374656e74206b657900006044820152606490fd5b50600f6020526040600020541515614145565b8160005260028101602052604060002054918215918215926141cc575b50501561414d5790565b6141e6925060019160005201602052604060002054151590565b38806141c2565b80600052600f602052604060002054156000146142795780600e54600160401b81101561426c575b6001810180600e5581101561425f575b7fbb7b4a454dc3493923482f07822329ed19e8244eff582cc204f8554c3620c3fd0155600e5490600052600f602052604060002055600190565b6142676126da565b614225565b614274611983565b614215565b50600090565b806000526013602052604060002054156000146142795780601254600160401b8110156142fe575b60018101806012558110156142f1575b7fbb8a6a4669ba250d26cd7a459eca9d215f8307e33aebe50379bc5a3617ec34440155601254906000526013602052604060002055600190565b6142f96126da565b6142b7565b614306611983565b6142a7565b600082815260018201602052604090205461437b57808261434160019354600160401b81101561436e575b848101845583612736565b819291549060031b600019811b9283911b1691191617905580549260005201602052604060002055600190565b614376611983565b614336565b5050600090565b60018060a01b0316600052601160205260026143a360406000209283612736565b90549060031b1c91826000520160205290565b6001600160a01b031660009081526011602090815260408083208054858552600282019093529220556143e9919061430b565b50565b60125481101561442b575b60126000527fbb8a6a4669ba250d26cd7a459eca9d215f8307e33aebe50379bc5a3617ec344401546001600160a01b031690565b6144336126da565b6143f7565b6143e9906001600160a01b031661427f565b6143e9916000526014602052604060002061430b565b6001600160a01b031660009081526015602052604090206143e9919061430b565b600052601660205260026143a360406000209283612736565b9091610764926144ac60038314613c73565b6144c06144b98383612f18565b35846145bf565b6144cd6144b98383612f29565b6144da6144b98383612f01565b6145ba6145136145306144ed8585612f18565b356144f88686612f29565b60408051602081019384529135908201529283906060820190565b0392614527601f19948581018352826119dd565b519020866145bf565b61457561453d8585612f29565b3561456961452761454e8888612f01565b60408051602081019586529135908201529182906060820190565b038581018352826119dd565b6145956145828585612f18565b359461458e8186612f29565b3594612f01565b60408051602081019687529081019490945235606084015260809081018352826119dd565b519020905b6000828152601660205260408120906145e8838360019160005201602052604060002054151590565b156145f35750505050565b61461693815260166020526040808220549184815260028401602052205561430b565b5038808080611ff056fea264697066735822122056569cc7cc230c877deaca86520326d0d0c2ed7b2eac9f359085ab5b6c4899a764736f6c63430008110033",
  "linkReferences": {},
  "deployedLinkReferences": {}
}