{
  "_format": "hh-sol-artifact-1",
  "contractName": "Katibeh721",
  "sourceName": "contracts/katibeh721/Katibeh721.sol",
  "abi": [
    {
      "inputs": [],
      "stateMutability": "nonpayable",
      "type": "constructor"
    },
    {
      "anonymous": false,
      "inputs": [
        {
          "indexed": true,
          "internalType": "address",
          "name": "owner",
          "type": "address"
        },
        {
          "indexed": true,
          "internalType": "address",
          "name": "approved",
          "type": "address"
        },
        {
          "indexed": true,
          "internalType": "uint256",
          "name": "tokenId",
          "type": "uint256"
        }
      ],
      "name": "Approval",
      "type": "event"
    },
    {
      "anonymous": false,
      "inputs": [
        {
          "indexed": true,
          "internalType": "address",
          "name": "owner",
          "type": "address"
        },
        {
          "indexed": true,
          "internalType": "address",
          "name": "operator",
          "type": "address"
        },
        {
          "indexed": false,
          "internalType": "bool",
          "name": "approved",
          "type": "bool"
        }
      ],
      "name": "ApprovalForAll",
      "type": "event"
    },
    {
      "anonymous": false,
      "inputs": [
        {
          "indexed": true,
          "internalType": "uint256",
          "name": "tokenId",
          "type": "uint256"
        },
        {
          "indexed": true,
          "internalType": "uint256",
          "name": "toTokenId",
          "type": "uint256"
        }
      ],
      "name": "NewReply",
      "type": "event"
    },
    {
      "anonymous": false,
      "inputs": [
        {
          "indexed": true,
          "internalType": "uint256",
          "name": "tokenId",
          "type": "uint256"
        },
        {
          "indexed": true,
          "internalType": "address",
          "name": "creator",
          "type": "address"
        },
        {
          "indexed": true,
          "internalType": "bytes",
          "name": "data",
          "type": "bytes"
        },
        {
          "indexed": false,
          "internalType": "uint256",
          "name": "signTime",
          "type": "uint256"
        },
        {
          "indexed": false,
          "internalType": "uint256",
          "name": "initTime",
          "type": "uint256"
        },
        {
          "indexed": false,
          "internalType": "uint256",
          "name": "expTime",
          "type": "uint256"
        }
      ],
      "name": "NewToken",
      "type": "event"
    },
    {
      "anonymous": false,
      "inputs": [
        {
          "indexed": false,
          "internalType": "uint256",
          "name": "tokenId",
          "type": "uint256"
        },
        {
          "indexed": true,
          "internalType": "bytes32",
          "name": "tag1",
          "type": "bytes32"
        },
        {
          "indexed": true,
          "internalType": "bytes32",
          "name": "tag2",
          "type": "bytes32"
        },
        {
          "indexed": true,
          "internalType": "bytes32",
          "name": "tag3",
          "type": "bytes32"
        }
      ],
      "name": "Tags",
      "type": "event"
    },
    {
      "anonymous": false,
      "inputs": [
        {
          "indexed": true,
          "internalType": "address",
          "name": "from",
          "type": "address"
        },
        {
          "indexed": true,
          "internalType": "address",
          "name": "to",
          "type": "address"
        },
        {
          "indexed": true,
          "internalType": "uint256",
          "name": "tokenId",
          "type": "uint256"
        }
      ],
      "name": "Transfer",
      "type": "event"
    },
    {
      "inputs": [
        {
          "internalType": "address",
          "name": "to",
          "type": "address"
        },
        {
          "internalType": "uint256",
          "name": "tokenId",
          "type": "uint256"
        }
      ],
      "name": "approve",
      "outputs": [],
      "stateMutability": "nonpayable",
      "type": "function"
    },
    {
      "inputs": [
        {
          "internalType": "address",
          "name": "owner",
          "type": "address"
        }
      ],
      "name": "balanceOf",
      "outputs": [
        {
          "internalType": "uint256",
          "name": "",
          "type": "uint256"
        }
      ],
      "stateMutability": "view",
      "type": "function"
    },
    {
      "inputs": [
        {
          "internalType": "uint256",
          "name": "tokenId",
          "type": "uint256"
        }
      ],
      "name": "burn",
      "outputs": [],
      "stateMutability": "nonpayable",
      "type": "function"
    },
    {
      "inputs": [],
      "name": "creatorAddresses",
      "outputs": [
        {
          "internalType": "address[]",
          "name": "creator",
          "type": "address[]"
        }
      ],
      "stateMutability": "view",
      "type": "function"
    },
    {
      "inputs": [
        {
          "internalType": "uint256",
          "name": "index",
          "type": "uint256"
        }
      ],
      "name": "creatorByIndex",
      "outputs": [
        {
          "internalType": "address",
          "name": "creator",
          "type": "address"
        }
      ],
      "stateMutability": "view",
      "type": "function"
    },
    {
      "inputs": [
        {
          "internalType": "uint256[]",
          "name": "index",
          "type": "uint256[]"
        }
      ],
      "name": "creatorsByIndexBatch",
      "outputs": [
        {
          "internalType": "address[]",
          "name": "creator",
          "type": "address[]"
        }
      ],
      "stateMutability": "view",
      "type": "function"
    },
    {
      "inputs": [
        {
          "internalType": "uint256",
          "name": "tokenId",
          "type": "uint256"
        }
      ],
      "name": "getApproved",
      "outputs": [
        {
          "internalType": "address",
          "name": "",
          "type": "address"
        }
      ],
      "stateMutability": "view",
      "type": "function"
    },
    {
      "inputs": [
        {
          "components": [
            {
              "internalType": "address",
              "name": "creator",
              "type": "address"
            },
            {
              "internalType": "uint256",
              "name": "signTime",
              "type": "uint256"
            },
            {
              "internalType": "uint256",
              "name": "initTime",
              "type": "uint256"
            },
            {
              "internalType": "uint256",
              "name": "expTime",
              "type": "uint256"
            },
            {
              "internalType": "string",
              "name": "tokenURI",
              "type": "string"
            },
            {
              "internalType": "bytes",
              "name": "data",
              "type": "bytes"
            },
            {
              "internalType": "uint256[]",
              "name": "toTokenId",
              "type": "uint256[]"
            },
            {
              "internalType": "bytes32[]",
              "name": "tags",
              "type": "bytes32[]"
            },
            {
              "components": [
                {
                  "internalType": "address",
                  "name": "addr",
                  "type": "address"
                },
                {
                  "internalType": "uint16",
                  "name": "share",
                  "type": "uint16"
                }
              ],
              "internalType": "struct DataStorage.Payee[]",
              "name": "owners",
              "type": "tuple[]"
            }
          ],
          "internalType": "struct DataStorage.Katibeh",
          "name": "katibeh",
          "type": "tuple"
        }
      ],
      "name": "getHash",
      "outputs": [
        {
          "internalType": "bytes32",
          "name": "",
          "type": "bytes32"
        }
      ],
      "stateMutability": "view",
      "type": "function"
    },
    {
      "inputs": [
        {
          "internalType": "bytes32",
          "name": "uriHash",
          "type": "bytes32"
        }
      ],
      "name": "getUriId",
      "outputs": [
        {
          "internalType": "uint256",
          "name": "",
          "type": "uint256"
        }
      ],
      "stateMutability": "view",
      "type": "function"
    },
    {
      "inputs": [
        {
          "internalType": "address",
          "name": "owner",
          "type": "address"
        },
        {
          "internalType": "address",
          "name": "operator",
          "type": "address"
        }
      ],
      "name": "isApprovedForAll",
      "outputs": [
        {
          "internalType": "bool",
          "name": "",
          "type": "bool"
        }
      ],
      "stateMutability": "view",
      "type": "function"
    },
    {
      "inputs": [],
      "name": "name",
      "outputs": [
        {
          "internalType": "string",
          "name": "",
          "type": "string"
        }
      ],
      "stateMutability": "view",
      "type": "function"
    },
    {
      "inputs": [],
      "name": "numberOfCreators",
      "outputs": [
        {
          "internalType": "uint256",
          "name": "",
          "type": "uint256"
        }
      ],
      "stateMutability": "view",
      "type": "function"
    },
    {
      "inputs": [
        {
          "internalType": "address",
          "name": "toCreator",
          "type": "address"
        }
      ],
      "name": "numberOfRepliesToCreator",
      "outputs": [
        {
          "internalType": "uint256",
          "name": "",
          "type": "uint256"
        }
      ],
      "stateMutability": "view",
      "type": "function"
    },
    {
      "inputs": [
        {
          "internalType": "address[]",
          "name": "toCreator",
          "type": "address[]"
        }
      ],
      "name": "numberOfRepliesToCreatorBatch",
      "outputs": [
        {
          "internalType": "uint256[]",
          "name": "count",
          "type": "uint256[]"
        }
      ],
      "stateMutability": "view",
      "type": "function"
    },
    {
      "inputs": [
        {
          "internalType": "uint256",
          "name": "tokenId",
          "type": "uint256"
        }
      ],
      "name": "numberOfTokenReplies",
      "outputs": [
        {
          "internalType": "uint256",
          "name": "",
          "type": "uint256"
        }
      ],
      "stateMutability": "view",
      "type": "function"
    },
    {
      "inputs": [
        {
          "internalType": "uint256[]",
          "name": "tokenId",
          "type": "uint256[]"
        }
      ],
      "name": "numberOfTokenRepliesBatch",
      "outputs": [
        {
          "internalType": "uint256[]",
          "name": "count",
          "type": "uint256[]"
        }
      ],
      "stateMutability": "view",
      "type": "function"
    },
    {
      "inputs": [
        {
          "internalType": "bytes32",
          "name": "tag",
          "type": "bytes32"
        }
      ],
      "name": "numberOfTokensByTag",
      "outputs": [
        {
          "internalType": "uint256",
          "name": "",
          "type": "uint256"
        }
      ],
      "stateMutability": "view",
      "type": "function"
    },
    {
      "inputs": [
        {
          "internalType": "bytes32[]",
          "name": "tag",
          "type": "bytes32[]"
        }
      ],
      "name": "numberOfTokensByTagBatch",
      "outputs": [
        {
          "internalType": "uint256[]",
          "name": "count",
          "type": "uint256[]"
        }
      ],
      "stateMutability": "view",
      "type": "function"
    },
    {
      "inputs": [
        {
          "internalType": "address",
          "name": "creator",
          "type": "address"
        }
      ],
      "name": "numberOfTokensOfCreator",
      "outputs": [
        {
          "internalType": "uint256",
          "name": "",
          "type": "uint256"
        }
      ],
      "stateMutability": "view",
      "type": "function"
    },
    {
      "inputs": [
        {
          "internalType": "address[]",
          "name": "creator",
          "type": "address[]"
        }
      ],
      "name": "numberOfTokensOfCreatorBatch",
      "outputs": [
        {
          "internalType": "uint256[]",
          "name": "count",
          "type": "uint256[]"
        }
      ],
      "stateMutability": "view",
      "type": "function"
    },
    {
      "inputs": [],
      "name": "numberOfTokensTraceable",
      "outputs": [
        {
          "internalType": "uint256",
          "name": "count",
          "type": "uint256"
        }
      ],
      "stateMutability": "view",
      "type": "function"
    },
    {
      "inputs": [
        {
          "internalType": "uint256",
          "name": "tokenId",
          "type": "uint256"
        }
      ],
      "name": "ownerOf",
      "outputs": [
        {
          "internalType": "address",
          "name": "",
          "type": "address"
        }
      ],
      "stateMutability": "view",
      "type": "function"
    },
    {
      "inputs": [
        {
          "internalType": "address",
          "name": "toCreator",
          "type": "address"
        }
      ],
      "name": "repliesToCreator",
      "outputs": [
        {
          "internalType": "uint256[]",
          "name": "ids",
          "type": "uint256[]"
        }
      ],
      "stateMutability": "view",
      "type": "function"
    },
    {
      "inputs": [
        {
          "internalType": "address",
          "name": "toCreator",
          "type": "address"
        },
        {
          "internalType": "uint256",
          "name": "index",
          "type": "uint256"
        }
      ],
      "name": "repliesToCreatorByIndex",
      "outputs": [
        {
          "internalType": "uint256",
          "name": "id",
          "type": "uint256"
        }
      ],
      "stateMutability": "view",
      "type": "function"
    },
    {
      "inputs": [
        {
          "internalType": "address",
          "name": "toCreator",
          "type": "address"
        },
        {
          "internalType": "uint256[]",
          "name": "index",
          "type": "uint256[]"
        }
      ],
      "name": "repliesToCreatorByIndexBatch",
      "outputs": [
        {
          "internalType": "uint256[]",
          "name": "id",
          "type": "uint256[]"
        }
      ],
      "stateMutability": "view",
      "type": "function"
    },
    {
      "inputs": [
        {
          "components": [
            {
              "internalType": "address",
              "name": "creator",
              "type": "address"
            },
            {
              "internalType": "uint256",
              "name": "signTime",
              "type": "uint256"
            },
            {
              "internalType": "uint256",
              "name": "initTime",
              "type": "uint256"
            },
            {
              "internalType": "uint256",
              "name": "expTime",
              "type": "uint256"
            },
            {
              "internalType": "string",
              "name": "tokenURI",
              "type": "string"
            },
            {
              "internalType": "bytes",
              "name": "data",
              "type": "bytes"
            },
            {
              "internalType": "uint256[]",
              "name": "toTokenId",
              "type": "uint256[]"
            },
            {
              "internalType": "bytes32[]",
              "name": "tags",
              "type": "bytes32[]"
            },
            {
              "components": [
                {
                  "internalType": "address",
                  "name": "addr",
                  "type": "address"
                },
                {
                  "internalType": "uint16",
                  "name": "share",
                  "type": "uint16"
                }
              ],
              "internalType": "struct DataStorage.Payee[]",
              "name": "owners",
              "type": "tuple[]"
            }
          ],
          "internalType": "struct DataStorage.Katibeh",
          "name": "katibeh",
          "type": "tuple"
        },
        {
          "internalType": "bytes",
          "name": "sig",
          "type": "bytes"
        },
        {
          "internalType": "bytes",
          "name": "dappData",
          "type": "bytes"
        }
      ],
      "name": "safeMint",
      "outputs": [
        {
          "internalType": "uint256",
          "name": "tokenId",
          "type": "uint256"
        }
      ],
      "stateMutability": "nonpayable",
      "type": "function"
    },
    {
      "inputs": [
        {
          "components": [
            {
              "internalType": "address",
              "name": "creator",
              "type": "address"
            },
            {
              "internalType": "uint256",
              "name": "signTime",
              "type": "uint256"
            },
            {
              "internalType": "uint256",
              "name": "initTime",
              "type": "uint256"
            },
            {
              "internalType": "uint256",
              "name": "expTime",
              "type": "uint256"
            },
            {
              "internalType": "string",
              "name": "tokenURI",
              "type": "string"
            },
            {
              "internalType": "bytes",
              "name": "data",
              "type": "bytes"
            },
            {
              "internalType": "uint256[]",
              "name": "toTokenId",
              "type": "uint256[]"
            },
            {
              "internalType": "bytes32[]",
              "name": "tags",
              "type": "bytes32[]"
            },
            {
              "components": [
                {
                  "internalType": "address",
                  "name": "addr",
                  "type": "address"
                },
                {
                  "internalType": "uint16",
                  "name": "share",
                  "type": "uint16"
                }
              ],
              "internalType": "struct DataStorage.Payee[]",
              "name": "owners",
              "type": "tuple[]"
            }
          ],
          "internalType": "struct DataStorage.Katibeh",
          "name": "katibeh",
          "type": "tuple"
        },
        {
          "internalType": "bytes",
          "name": "sig",
          "type": "bytes"
        },
        {
          "internalType": "bytes",
          "name": "dappData",
          "type": "bytes"
        }
      ],
      "name": "safeMintAndSetTraceStorage",
      "outputs": [],
      "stateMutability": "nonpayable",
      "type": "function"
    },
    {
      "inputs": [
        {
          "internalType": "address",
          "name": "from",
          "type": "address"
        },
        {
          "internalType": "address",
          "name": "to",
          "type": "address"
        },
        {
          "internalType": "uint256",
          "name": "tokenId",
          "type": "uint256"
        }
      ],
      "name": "safeTransferFrom",
      "outputs": [],
      "stateMutability": "nonpayable",
      "type": "function"
    },
    {
      "inputs": [
        {
          "internalType": "address",
          "name": "from",
          "type": "address"
        },
        {
          "internalType": "address",
          "name": "to",
          "type": "address"
        },
        {
          "internalType": "uint256",
          "name": "tokenId",
          "type": "uint256"
        },
        {
          "internalType": "bytes",
          "name": "data",
          "type": "bytes"
        }
      ],
      "name": "safeTransferFrom",
      "outputs": [],
      "stateMutability": "nonpayable",
      "type": "function"
    },
    {
      "inputs": [
        {
          "internalType": "address",
          "name": "operator",
          "type": "address"
        },
        {
          "internalType": "bool",
          "name": "approved",
          "type": "bool"
        }
      ],
      "name": "setApprovalForAll",
      "outputs": [],
      "stateMutability": "nonpayable",
      "type": "function"
    },
    {
      "inputs": [
        {
          "internalType": "bytes4",
          "name": "interfaceId",
          "type": "bytes4"
        }
      ],
      "name": "supportsInterface",
      "outputs": [
        {
          "internalType": "bool",
          "name": "",
          "type": "bool"
        }
      ],
      "stateMutability": "view",
      "type": "function"
    },
    {
      "inputs": [],
      "name": "symbol",
      "outputs": [
        {
          "internalType": "string",
          "name": "",
          "type": "string"
        }
      ],
      "stateMutability": "view",
      "type": "function"
    },
    {
      "inputs": [],
      "name": "timeStamp",
      "outputs": [
        {
          "internalType": "uint256",
          "name": "",
          "type": "uint256"
        }
      ],
      "stateMutability": "view",
      "type": "function"
    },
    {
      "inputs": [
        {
          "internalType": "uint256",
          "name": "index",
          "type": "uint256"
        }
      ],
      "name": "tokenByIndex",
      "outputs": [
        {
          "internalType": "uint256",
          "name": "",
          "type": "uint256"
        }
      ],
      "stateMutability": "view",
      "type": "function"
    },
    {
      "inputs": [
        {
          "internalType": "uint256",
          "name": "index",
          "type": "uint256"
        }
      ],
      "name": "tokenByIndexTraceable",
      "outputs": [
        {
          "internalType": "uint256",
          "name": "id",
          "type": "uint256"
        }
      ],
      "stateMutability": "view",
      "type": "function"
    },
    {
      "inputs": [
        {
          "internalType": "uint256",
          "name": "tokenId",
          "type": "uint256"
        }
      ],
      "name": "tokenInfo",
      "outputs": [
        {
          "components": [
            {
              "internalType": "address",
              "name": "creator",
              "type": "address"
            },
            {
              "internalType": "uint256",
              "name": "signTime",
              "type": "uint256"
            },
            {
              "internalType": "uint256",
              "name": "initTime",
              "type": "uint256"
            },
            {
              "internalType": "uint256",
              "name": "expTime",
              "type": "uint256"
            },
            {
              "internalType": "string",
              "name": "tokenURI",
              "type": "string"
            },
            {
              "internalType": "bytes",
              "name": "data",
              "type": "bytes"
            },
            {
              "internalType": "uint256[]",
              "name": "toTokenId",
              "type": "uint256[]"
            },
            {
              "internalType": "bytes32[]",
              "name": "tags",
              "type": "bytes32[]"
            },
            {
              "components": [
                {
                  "internalType": "address",
                  "name": "addr",
                  "type": "address"
                },
                {
                  "internalType": "uint16",
                  "name": "share",
                  "type": "uint16"
                }
              ],
              "internalType": "struct DataStorage.Payee[]",
              "name": "owners",
              "type": "tuple[]"
            }
          ],
          "internalType": "struct DataStorage.Katibeh",
          "name": "katibeh",
          "type": "tuple"
        },
        {
          "internalType": "uint256",
          "name": "mintTime",
          "type": "uint256"
        },
        {
          "internalType": "bytes",
          "name": "sig",
          "type": "bytes"
        },
        {
          "internalType": "bytes",
          "name": "dappData",
          "type": "bytes"
        }
      ],
      "stateMutability": "view",
      "type": "function"
    },
    {
      "inputs": [
        {
          "internalType": "uint256",
          "name": "",
          "type": "uint256"
        }
      ],
      "name": "tokenMintTime",
      "outputs": [
        {
          "internalType": "uint256",
          "name": "",
          "type": "uint256"
        }
      ],
      "stateMutability": "view",
      "type": "function"
    },
    {
      "inputs": [
        {
          "internalType": "address",
          "name": "creator",
          "type": "address"
        },
        {
          "internalType": "uint256",
          "name": "index",
          "type": "uint256"
        }
      ],
      "name": "tokenOfCreatorByIndex",
      "outputs": [
        {
          "internalType": "uint256",
          "name": "id",
          "type": "uint256"
        }
      ],
      "stateMutability": "view",
      "type": "function"
    },
    {
      "inputs": [
        {
          "internalType": "address",
          "name": "owner",
          "type": "address"
        },
        {
          "internalType": "uint256",
          "name": "index",
          "type": "uint256"
        }
      ],
      "name": "tokenOfOwnerByIndex",
      "outputs": [
        {
          "internalType": "uint256",
          "name": "",
          "type": "uint256"
        }
      ],
      "stateMutability": "view",
      "type": "function"
    },
    {
      "inputs": [
        {
          "internalType": "bytes32",
          "name": "tag",
          "type": "bytes32"
        },
        {
          "internalType": "uint256",
          "name": "index",
          "type": "uint256"
        }
      ],
      "name": "tokenOfTagByIndex",
      "outputs": [
        {
          "internalType": "uint256",
          "name": "id",
          "type": "uint256"
        }
      ],
      "stateMutability": "view",
      "type": "function"
    },
    {
      "inputs": [
        {
          "internalType": "uint256",
          "name": "tokenId",
          "type": "uint256"
        }
      ],
      "name": "tokenReplies",
      "outputs": [
        {
          "internalType": "uint256[]",
          "name": "ids",
          "type": "uint256[]"
        }
      ],
      "stateMutability": "view",
      "type": "function"
    },
    {
      "inputs": [
        {
          "internalType": "uint256",
          "name": "tokenId",
          "type": "uint256"
        },
        {
          "internalType": "uint256[]",
          "name": "index",
          "type": "uint256[]"
        }
      ],
      "name": "tokenRepliesByIndexBatch",
      "outputs": [
        {
          "internalType": "uint256[]",
          "name": "id",
          "type": "uint256[]"
        }
      ],
      "stateMutability": "view",
      "type": "function"
    },
    {
      "inputs": [
        {
          "internalType": "uint256",
          "name": "tokenId",
          "type": "uint256"
        },
        {
          "internalType": "uint256",
          "name": "index",
          "type": "uint256"
        }
      ],
      "name": "tokenReplyByIndex",
      "outputs": [
        {
          "internalType": "uint256",
          "name": "id",
          "type": "uint256"
        }
      ],
      "stateMutability": "view",
      "type": "function"
    },
    {
      "inputs": [
        {
          "internalType": "uint256",
          "name": "tokenId",
          "type": "uint256"
        }
      ],
      "name": "tokenURI",
      "outputs": [
        {
          "internalType": "string",
          "name": "",
          "type": "string"
        }
      ],
      "stateMutability": "view",
      "type": "function"
    },
    {
      "inputs": [
        {
          "internalType": "uint256[]",
          "name": "index",
          "type": "uint256[]"
        }
      ],
      "name": "tokensByIndexTraceableBatch",
      "outputs": [
        {
          "internalType": "uint256[]",
          "name": "id",
          "type": "uint256[]"
        }
      ],
      "stateMutability": "view",
      "type": "function"
    },
    {
      "inputs": [
        {
          "internalType": "uint256[]",
          "name": "tokenId",
          "type": "uint256[]"
        }
      ],
      "name": "tokensInfoBatch",
      "outputs": [
        {
          "components": [
            {
              "internalType": "address",
              "name": "creator",
              "type": "address"
            },
            {
              "internalType": "uint256",
              "name": "signTime",
              "type": "uint256"
            },
            {
              "internalType": "uint256",
              "name": "initTime",
              "type": "uint256"
            },
            {
              "internalType": "uint256",
              "name": "expTime",
              "type": "uint256"
            },
            {
              "internalType": "string",
              "name": "tokenURI",
              "type": "string"
            },
            {
              "internalType": "bytes",
              "name": "data",
              "type": "bytes"
            },
            {
              "internalType": "uint256[]",
              "name": "toTokenId",
              "type": "uint256[]"
            },
            {
              "internalType": "bytes32[]",
              "name": "tags",
              "type": "bytes32[]"
            },
            {
              "components": [
                {
                  "internalType": "address",
                  "name": "addr",
                  "type": "address"
                },
                {
                  "internalType": "uint16",
                  "name": "share",
                  "type": "uint16"
                }
              ],
              "internalType": "struct DataStorage.Payee[]",
              "name": "owners",
              "type": "tuple[]"
            }
          ],
          "internalType": "struct DataStorage.Katibeh[]",
          "name": "katibeh",
          "type": "tuple[]"
        },
        {
          "internalType": "uint256[]",
          "name": "mintTime",
          "type": "uint256[]"
        },
        {
          "internalType": "bytes[]",
          "name": "sig",
          "type": "bytes[]"
        },
        {
          "internalType": "bytes[]",
          "name": "dappData",
          "type": "bytes[]"
        }
      ],
      "stateMutability": "view",
      "type": "function"
    },
    {
      "inputs": [
        {
          "internalType": "address",
          "name": "creator",
          "type": "address"
        }
      ],
      "name": "tokensOfCreator",
      "outputs": [
        {
          "internalType": "uint256[]",
          "name": "ids",
          "type": "uint256[]"
        }
      ],
      "stateMutability": "view",
      "type": "function"
    },
    {
      "inputs": [
        {
          "internalType": "address",
          "name": "creator",
          "type": "address"
        },
        {
          "internalType": "uint256[]",
          "name": "index",
          "type": "uint256[]"
        }
      ],
      "name": "tokensOfCreatorByIndexBatch",
      "outputs": [
        {
          "internalType": "uint256[]",
          "name": "id",
          "type": "uint256[]"
        }
      ],
      "stateMutability": "view",
      "type": "function"
    },
    {
      "inputs": [
        {
          "internalType": "bytes32",
          "name": "tag",
          "type": "bytes32"
        }
      ],
      "name": "tokensOfTag",
      "outputs": [
        {
          "internalType": "uint256[]",
          "name": "ids",
          "type": "uint256[]"
        }
      ],
      "stateMutability": "view",
      "type": "function"
    },
    {
      "inputs": [
        {
          "internalType": "bytes32",
          "name": "tag",
          "type": "bytes32"
        },
        {
          "internalType": "uint256[]",
          "name": "index",
          "type": "uint256[]"
        }
      ],
      "name": "tokensOfTagByIndexBatch",
      "outputs": [
        {
          "internalType": "uint256[]",
          "name": "id",
          "type": "uint256[]"
        }
      ],
      "stateMutability": "view",
      "type": "function"
    },
    {
      "inputs": [],
      "name": "totalSupply",
      "outputs": [
        {
          "internalType": "uint256",
          "name": "",
          "type": "uint256"
        }
      ],
      "stateMutability": "view",
      "type": "function"
    },
    {
      "inputs": [
        {
          "internalType": "address",
          "name": "creator",
          "type": "address"
        },
        {
          "internalType": "uint256",
          "name": "id",
          "type": "uint256"
        }
      ],
      "name": "traceTokenByCreator",
      "outputs": [
        {
          "internalType": "uint256",
          "name": "numberOfPreviousIds",
          "type": "uint256"
        },
        {
          "internalType": "uint256",
          "name": "numberOfNextIds",
          "type": "uint256"
        },
        {
          "internalType": "uint256",
          "name": "previousId",
          "type": "uint256"
        },
        {
          "internalType": "uint256",
          "name": "nextId",
          "type": "uint256"
        }
      ],
      "stateMutability": "view",
      "type": "function"
    },
    {
      "inputs": [
        {
          "internalType": "uint256",
          "name": "id",
          "type": "uint256"
        }
      ],
      "name": "traceTokenById",
      "outputs": [
        {
          "internalType": "uint256",
          "name": "numberOfPreviousIds",
          "type": "uint256"
        },
        {
          "internalType": "uint256",
          "name": "numberOfNextIds",
          "type": "uint256"
        },
        {
          "internalType": "uint256",
          "name": "previousId",
          "type": "uint256"
        },
        {
          "internalType": "uint256",
          "name": "nextId",
          "type": "uint256"
        }
      ],
      "stateMutability": "view",
      "type": "function"
    },
    {
      "inputs": [
        {
          "internalType": "bytes32",
          "name": "tag",
          "type": "bytes32"
        },
        {
          "internalType": "uint256",
          "name": "id",
          "type": "uint256"
        }
      ],
      "name": "traceTokenByTag",
      "outputs": [
        {
          "internalType": "uint256",
          "name": "numberOfPreviousIds",
          "type": "uint256"
        },
        {
          "internalType": "uint256",
          "name": "numberOfNextIds",
          "type": "uint256"
        },
        {
          "internalType": "uint256",
          "name": "previousId",
          "type": "uint256"
        },
        {
          "internalType": "uint256",
          "name": "nextId",
          "type": "uint256"
        }
      ],
      "stateMutability": "view",
      "type": "function"
    },
    {
      "inputs": [
        {
          "internalType": "address",
          "name": "from",
          "type": "address"
        },
        {
          "internalType": "address",
          "name": "to",
          "type": "address"
        },
        {
          "internalType": "uint256",
          "name": "tokenId",
          "type": "uint256"
        }
      ],
      "name": "transferFrom",
      "outputs": [],
      "stateMutability": "nonpayable",
      "type": "function"
    }
  ],
  "bytecode": "0x60803462000311576001600160401b039060409080820183811182821017620002fb578252600a8152602092694b61746962656837323160b01b84830152825183810181811083821117620002fb578452600781526609682a892848a960cb1b85820152825190828211620002fb5760008054926001958685811c95168015620002f0575b89861014620002dc578190601f9586811162000289575b5089908683116001146200022557849262000219575b5050600019600383901b1c191690861b1781555b8151938411620002055784548581811c91168015620001fa575b88821014620001e6578381116200019e575b508692841160011462000138578394959650926200012c575b5050600019600383901b1c191690821b1790555b516147459081620003178239f35b0151905038806200010a565b9190601f1984169685845280842093905b8882106200018657505083859697106200016c575b505050811b0190556200011e565b015160001960f88460031b161c191690553880806200015e565b80878596829496860151815501950193019062000149565b8582528782208480870160051c8201928a8810620001dc575b0160051c019086905b828110620001d0575050620000f1565b838155018690620001c0565b92508192620001b7565b634e487b7160e01b82526022600452602482fd5b90607f1690620000df565b634e487b7160e01b81526041600452602490fd5b015190503880620000b1565b8480528a85208994509190601f198416865b8d82821062000272575050841162000258575b505050811b018155620000c5565b015160001960f88460031b161c191690553880806200024a565b8385015186558c9790950194938401930162000237565b9091508380528984208680850160051c8201928c8610620002d2575b918a91869594930160051c01915b828110620002c35750506200009b565b8681558594508a9101620002b3565b92508192620002a5565b634e487b7160e01b83526022600452602483fd5b94607f169462000084565b634e487b7160e01b600052604160045260246000fd5b600080fdfe60806040526004361015610013575b600080fd5b60003560e01c8063017642e41461045f57806301ffc9a71461045657806306fdde031461044d578063081812fc14610444578063095ea7b31461043b5780630ab0df8714610432578063132e75d6146104295780631674ed4b1461042057806318160ddd146104175780631ae69b611461040e57806323b872dd1461040557806326156636146103fc57806329c7785f146103f35780632b0eca8c146103ea5780632c230901146103e15780632e0d0718146103d85780632f745c59146103cf57806331d99545146103c65780633552d220146103bd57806339d77f25146103b457806340b94757146103ab57806342842e0e146103a257806342966c68146103995780634667c884146103905780634832e8f3146103875780634f6ccce71461037e5780634fc092751461037557806360f6a4a31461036c5780636352211e14610363578063662ec09e1461035a5780636d571b6a1461035157806370a08231146103485780637372e98d1461033f57806378292236146103365780638282674f1461032d57806383b81ebd146103245780638f93fb391461031b57806395d89b411461031257806396cc6a3414610309578063a22cb46514610300578063af3ea105146102f7578063b1582201146102ee578063b88d4fde146102e5578063bfc9b364146102dc578063c03d1d91146102d3578063c3512876146102ca578063c87b56dd146102c1578063cc33c875146102b8578063cca3c766146102af578063dd468791146102a6578063e985e9c51461029d578063f353a73214610294578063f6bd7ab81461028b578063f99458a4146102825763fe649b7e1461027a57600080fd5b61000e611eb8565b5061000e611e78565b5061000e611e21565b5061000e611dfe565b5061000e611d95565b5061000e611d76565b5061000e611d13565b5061000e611cb4565b5061000e611c5f565b5061000e611c19565b5061000e611b8b565b5061000e611b4e565b5061000e611ae6565b5061000e6119ac565b5061000e61194d565b5061000e61185c565b5061000e6117d3565b5061000e61172d565b5061000e6116ca565b5061000e61169d565b5061000e61165c565b5061000e61162f565b5061000e611612565b5061000e6115ea565b5061000e6115cb565b5061000e611590565b5061000e611571565b5061000e61154e565b5061000e611522565b5061000e611476565b5061000e611380565b5061000e6112bb565b5061000e6111f9565b5061000e6111d0565b5061000e611148565b5061000e61102a565b5061000e611008565b5061000e610f92565b5061000e610eda565b5061000e610eaf565b5061000e610e2f565b5061000e610d53565b5061000e610a64565b5061000e610a3d565b5061000e610a13565b5061000e6109c8565b5061000e6109a9565b5061000e610917565b5061000e6108bf565b5061000e610867565b5061000e61078c565b5061000e61073d565b5061000e61065d565b5061000e610583565b5061000e6104e0565b9181601f8401121561000e578235916001600160401b03831161000e576020808501948460051b01011161000e57565b90815180825260208080930193019160005b8281106104b8575050505090565b8351855293810193928101926001016104aa565b9060206104dd928181520190610498565b90565b503461000e57604036600319011261000e576004356024356001600160401b03811161000e57610514903690600401610468565b9161051e83613ec4565b9260005b818110610543576040516020808252819061053f90820188610498565b0390f35b8061055c61055561056c938588612fd3565b3585614532565b6105668288613f40565b52612f80565b610522565b6001600160e01b031981160361000e57565b503461000e57602036600319011261000e5760206004356105a381610571565b63ffffffff60e01b1663780e9d6360e01b81149081156105c9575b506040519015158152f35b6380ac58cd60e01b8114915081156105fb575b81156105ea575b50386105be565b6301ffc9a760e01b149050386105e3565b635b5e139f60e01b811491506105dc565b919082519283825260005b848110610638575050826000602080949584010152601f8019910116010190565b602081830181015184830182015201610617565b9060206104dd92818152019061060c565b503461000e5760008060031936011261073a57604051908080546106808161200e565b8085529160019180831690811561071057506001146106b6575b61053f856106aa81870382611a44565b6040519182918261064c565b80809450527f290decd9548b62a8d60345a988386fc84ba6bc95484008f6362f93160ef3e5635b8284106106f85750505081016020016106aa8261053f61069a565b805460208587018101919091529093019281016106dd565b86955061053f969350602092506106aa94915060ff191682840152151560051b820101929361069a565b80fd5b503461000e57602036600319011261000e57602061075c60043561216b565b6040516001600160a01b039091168152f35b6001600160a01b0381160361000e57565b359061078a8261076e565b565b503461000e57604036600319011261000e576004356107aa8161076e565b6024356107b681611feb565b916001600160a01b038084169082168114610818576107e8936107e39133149081156107ea575b506120f9565b612550565b005b6001600160a01b0316600090815260056020908152604080832033845290915290205460ff169050386107dd565b60405162461bcd60e51b815260206004820152602160248201527f4552433732313a20617070726f76616c20746f2063757272656e74206f776e656044820152603960f91b6064820152608490fd5b503461000e57600036600319011261000e576020604051428152f35b90604060031983011261000e5760043561089c8161076e565b91602435906001600160401b03821161000e576108bb91600401610468565b9091565b503461000e576108ce36610883565b916108d883613ec4565b9260005b8181106108f9576040516020808252819061053f90820188610498565b8061055c61090b610912938588612fd3565b3585614433565b6108dc565b503461000e5760408060031936011261000e576004356024356001600160401b03811161000e5761094c903690600401610468565b9161095683613ec4565b92600090815b8181106109705786518061053f88826104cc565b806109936109826109a4938589612fd3565b3586865260156020528986206127bb565b90549060031b1c6105668289613f40565b61095c565b503461000e57600036600319011261000e576020600854604051908152f35b503461000e57600036600319011261000e576020601354604051908152f35b606090600319011261000e576004356109ff8161076e565b90602435610a0c8161076e565b9060443590565b503461000e576107e8610a25366109e7565b91610a38610a3384336122af565b6121a9565b6123bb565b503461000e57602036600319011261000e576020610a5c60043561414d565b604051908152f35b503461000e57604036600319011261000e576000806004358252601760205261053f6040832092610a9760243585614256565b92845494848603958611610b4a575b600019868101968711610b3d575b85610b02575b5085610ae5575b50604051948594859094939260609260808301968352602083015260408201520152565b610afa919250610af4856123ad565b906141b7565b509038610ac1565b610b189192508501858111610b30575b826127bb565b90549060031b1c808352600282016020529038610aba565b610b3861237f565b610b12565b610b4561237f565b610ab4565b610b5261237f565b610aa6565b602060031982011261000e57600435906001600160401b03821161000e576108bb91600401610468565b90815180825260208080930193019160005b828110610ba1575050505090565b835180516001600160a01b0316865282015161ffff168583015260409094019392810192600101610b93565b80516001600160a01b031682526104dd9190602081015160208301526040810151604083015260608101516060830152610c55610c43610c31610c1f608085015161012080608089015287019061060c565b60a085015186820360a088015261060c565b60c084015185820360c0870152610498565b60e083015184820360e0860152610498565b916101008092015191818403910152610b81565b90815180825260208092019182818360051b85019501936000915b848310610c945750505050505090565b9091929394958480610cae83856001950387528a5161060c565b9801930193019194939290610c84565b92949391608084019160808552805180935260a0850160a08460051b870101936020809301916000905b828210610d295750505050826104dd969792610d0d9287610d1b960390880152610498565b908482036040860152610c69565b916060818403910152610c69565b909192958480610d45600193609f198d82030186528a51610bcd565b980192019201909291610ce8565b503461000e57610d6236610b57565b610d6b81613e3d565b610d786040519182611a44565b818152601f19610d8783613e3d565b0160005b818110610e18575050610d9d82613ec4565b91610da781613ef6565b93610db182613ef6565b9160005b818110610dd05750505061053f908460405194859485610cbe565b80610de8610de2610e13938587612fd3565b35614044565b610df2858a613f40565b52610dfd848c613f40565b52610e08838a613f40565b526105668288613f40565b610db5565b602090610e23613e5d565b82828601015201610d8b565b503461000e57610e3e36610b57565b90610e4882613ec4565b9160005b818110610e69576040516020808252819061053f90820187610498565b80610ea0610e7b610eaa938587612fd3565b35610e858161076e565b6001600160a01b031660009081526016602052604090205490565b6105668287613f40565b610e4c565b503461000e57602036600319011261000e576020610a5c600435600052601560205260406000205490565b503461000e57604036600319011261000e57600435610ef88161076e565b60243590610f0581611f28565b821015610f39576001600160a01b031660009081526006602090815260408083209383529281529082902054915191825290f35b60405162461bcd60e51b815260206004820152602b60248201527f455243373231456e756d657261626c653a206f776e657220696e646578206f7560448201526a74206f6620626f756e647360a81b6064820152608490fd5b503461000e57610fa136610b57565b90610fab82613ec4565b9160005b818110610fcc576040516020808252819061053f90820187610498565b80610ea0610fde611003938587612fd3565b35610fe88161076e565b6001600160a01b031660009081526012602052604090205490565b610faf565b503461000e57604036600319011261000e576020610a5c602435600435614532565b503461000e57602036600319011261000e5760008061053f61104d6004356141de565b91600f54938385039485116110f7575b6000198581019586116110ea575b846110b5575b508461109b575b604051948594859094939260609260808301968352602083015260408201520152565b90506110ae6110a9846123ad565b614169565b5090611078565b6110c8915084018481116110dd57612776565b90549060031b1c808252601160205238611071565b6110e561237f565b612776565b6110f261237f565b61106b565b6110ff61237f565b61105d565b6020908160408183019282815285518094520193019160005b82811061112b575050505090565b83516001600160a01b03168552938101939281019260010161111d565b503461000e57600036600319011261000e57604051806013549182815260208091019260136000527f66de8ffda797e3de9c05e8fc57b3bf0ec28a930d40b0d285d93c06501cf6a090916000905b8282106111b95761053f856111ad81890382611a44565b60405191829182611104565b835486529485019460019384019390910190611196565b503461000e576107e86111e2366109e7565b90604051926111f084611a01565b6000845261220c565b503461000e57602036600319011261000e5760043561121b610a3382336122af565b6112ab61122782611feb565b6112318382612ff1565b61123a836124fc565b6001600160a01b0316600081815260036020526040812080549194928392869260001982019182116112ae575b5582825260026020526040822080546001600160a01b03191690557fddf252ad1be2c89b69c2b068fc378daa952ba7f163c4a11628f55a4df523b3ef8280a461355a565b80f35b6112b661237f565b611267565b503461000e57602036600319011261000e576020610a5c600435600052601760205260406000205490565b908161012091031261000e5790565b9181601f8401121561000e578235916001600160401b03831161000e576020838186019501011161000e57565b606060031982011261000e576001600160401b039060043582811161000e578161134e916004016112e6565b9260243583811161000e5782611366916004016112f5565b9390939260443591821161000e576108bb916004016112f5565b503461000e5761139e61139236611322565b92849594929192612c70565b600f548160005260116020526040600020556113b98161429e565b506113cc816113c784612bb3565b614467565b6113dd6113d883612bb3565b6144e9565b60c082016113eb8184612c3b565b91905060005b82811061140f576107e88461140960e0880188612c3b565b9161454b565b8061143161142a61147193611424868a612c3b565b90612fd3565b35866144fb565b61146c8561146761145a61144985611424898d612c3b565b35600052600a602052604060002090565b546001600160a01b031690565b614511565b612f80565b6113f1565b503461000e57602036600319011261000e576004356008548110156114c85760086000527ff3f7a9fe364faab93b216da50a3214154f22a0a2b415b23a84c8169e8b636ee30154604051908152602090f35b60405162461bcd60e51b815260206004820152602c60248201527f455243373231456e756d657261626c653a20676c6f62616c20696e646578206f60448201526b7574206f6620626f756e647360a01b6064820152608490fd5b503461000e57604036600319011261000e576020610a5c6004356115458161076e565b60243590614433565b503461000e57602036600319011261000e576020610a5c600435610fe88161076e565b503461000e57602036600319011261000e57602061075c600435611feb565b503461000e57602036600319011261000e576004356001600160401b03811161000e57610a5c6115c660209236906004016112e6565b612ab0565b503461000e57602036600319011261000e57602061075c60043561449d565b503461000e57602036600319011261000e576020610a5c60043561160d8161076e565b611f28565b503461000e576020610a5c61162636611322565b93929092612c70565b503461000e57602036600319011261000e57600435600052600b6020526020604060002054604051908152f35b503461000e57602036600319011261000e57600435600052601560205261053f6116896040600020613f62565b604051918291602083526020830190610498565b503461000e57602036600319011261000e57600435600052600e6020526020604060002054604051908152f35b503461000e576116d936610b57565b906116e382613ec4565b9160005b818110611704576040516020808252819061053f90820187610498565b80610ea0611716611728938587612fd3565b35600052601760205260406000205490565b6116e7565b503461000e5760008060031936011261073a57604051908060018054916117538361200e565b8086529282811690811561071057506001146117795761053f856106aa81870382611a44565b92508083527fb10e2d527612073b26eecdfd717e6a320cf44b4afac2b0732d9fcbe2b7fa0cf65b8284106117bb5750505081016020016106aa8261053f61069a565b805460208587018101919091529093019281016117a0565b503461000e5760208060031936011261000e576004356117f28161076e565b6001600160a01b0316600090815260128252604081208054919061181583613ec4565b936002820191835b858110611832576040518061053f89826104cc565b8061184061185792846127bb565b90549060031b1c808752858552610566828a613f40565b61181d565b503461000e57604036600319011261000e5760043561187a8161076e565b602435801515810361000e576001600160a01b0382169133831461190857816118c56118d69233600052600560205260406000209060018060a01b0316600052602052604060002090565b9060ff801983541691151516179055565b604051901515815233907f17307eab39ab6107e8899845ad3d59bd9653f200f220920489ca2b5937696c3190602090a3005b60405162461bcd60e51b815260206004820152601960248201527f4552433732313a20617070726f766520746f2063616c6c6572000000000000006044820152606490fd5b503461000e5760208060031936011261000e576000600435815260178252604081209081549161197c83613ec4565b936002820191835b858110611999576040518061053f89826104cc565b806118406119a792846127bb565b611984565b503461000e57602036600319011261000e576004356119ca8161076e565b60018060a01b0316600052601660205261053f6116896040600020613f62565b50634e487b7160e01b600052604160045260246000fd5b602081019081106001600160401b03821117611a1c57604052565b611a246119ea565b604052565b606081019081106001600160401b03821117611a1c57604052565b90601f801991011681019081106001600160401b03821117611a1c57604052565b6040519061012082018281106001600160401b03821117611a1c57604052565b6020906001600160401b038111611aa2575b601f01601f19160190565b611aaa6119ea565b611a97565b929192611abb82611a85565b91611ac96040519384611a44565b82948184528183011161000e578281602093846000960137010152565b503461000e57608036600319011261000e57600435611b048161076e565b602435611b108161076e565b606435916001600160401b03831161000e573660238401121561000e57611b446107e8933690602481600401359101611aaf565b916044359161220c565b503461000e57604036600319011261000e5760043560005260156020526020611b7d60243560406000206127bb565b90546040519160031b1c8152f35b503461000e57611b9a36610b57565b90611ba482613e3d565b91611bb26040519384611a44565b808352601f19611bc182613e3d565b0136602085013760005b818110611be0576040518061053f8682611104565b80611bf8611bf2611c14938587612fd3565b3561449d565b611c028287613f40565b6001600160a01b039091169052612f80565b611bcb565b503461000e57604036600319011261000e57600435611c378161076e565b6001600160a01b031660009081526012602052604081209061053f81610a9760243585614256565b503461000e57602036600319011261000e57600435600052600a60205261053f611c99611ca0600460406000200160405192838092612048565b0382611a44565b60405191829160208352602083019061060c565b503461000e57602036600319011261000e57611cf2611d0561053f611cda600435614044565b92949190604051968796608088526080880190610bcd565b916020870152858203604087015261060c565b90838203606085015261060c565b503461000e57611d2236610b57565b90611d2c82613ec4565b9160005b818110611d4d576040516020808252819061053f90820187610498565b80610ea0611d5f611d71938587612fd3565b35600052601560205260406000205490565b611d30565b503461000e57600036600319011261000e576020600f54604051908152f35b503461000e57604036600319011261000e57602060ff611df2600435611dba8161076e565b60243590611dc78261076e565b60018060a01b03166000526005845260406000209060018060a01b0316600052602052604060002090565b54166040519015158152f35b503461000e57602036600319011261000e576020610a5c600435610e858161076e565b503461000e57611e3036610b57565b90611e3a82613ec4565b9160005b818110611e5b576040516020808252819061053f90820187610498565b80610ea0611e6d611e73938587612fd3565b3561414d565b611e3e565b503461000e57604036600319011261000e57600435611e968161076e565b60018060a01b031660005260166020526020611b7d60243560406000206127bb565b503461000e57611ec736610883565b91611ed183613ec4565b92600090815b818110611ef4576040516020808252819061053f90820189610498565b80610993611f06611f23938589612fd3565b6001600160a01b03871686526016602052604086209035906127bb565b611ed7565b6001600160a01b03168015611f4857600052600360205260406000205490565b60405162461bcd60e51b815260206004820152602960248201527f4552433732313a2061646472657373207a65726f206973206e6f7420612076616044820152683634b21037bbb732b960b91b6064820152608490fd5b15611fa657565b60405162461bcd60e51b815260206004820152601860248201527f4552433732313a20696e76616c696420746f6b656e20494400000000000000006044820152606490fd5b6000908152600260205260409020546001600160a01b03166104dd811515611f9f565b90600182811c9216801561203e575b602083101461202857565b634e487b7160e01b600052602260045260246000fd5b91607f169161201d565b90600092918054916120598361200e565b9182825260019384811690816000146120bb575060011461207b575b50505050565b90919394506000526020928360002092846000945b8386106120a7575050505001019038808080612075565b805485870183015294019385908201612090565b9294505050602093945060ff191683830152151560051b01019038808080612075565b9061078a6120f29260405193848092612048565b0383611a44565b1561210057565b60405162461bcd60e51b815260206004820152603e60248201527f4552433732313a20617070726f76652063616c6c6572206973206e6f7420746f60448201527f6b656e206f776e6572206e6f7220617070726f76656420666f7220616c6c00006064820152608490fd5b60008181526002602052604090205461218e906001600160a01b03161515611f9f565b6000908152600460205260409020546001600160a01b031690565b156121b057565b60405162461bcd60e51b815260206004820152602e60248201527f4552433732313a2063616c6c6572206973206e6f7420746f6b656e206f776e6560448201526d1c881b9bdc88185c1c1c9bdd995960921b6064820152608490fd5b9161078a939161223393612223610a3384336122af565b61222e8383836123bb565b612723565b61228b565b60809060208152603260208201527f4552433732313a207472616e7366657220746f206e6f6e20455243373231526560408201527131b2b4bb32b91034b6b83632b6b2b73a32b960711b60608201520190565b1561229257565b60405162461bcd60e51b8152806122ab60048201612238565b0390fd5b6001600160a01b03806122c184611feb565b1692818316928484149485156122f7575b505083156122e1575b50505090565b6122ed9192935061216b565b16143880806122db565b60009081526005602090815260408083206001600160a01b03949094168352929052205460ff16935038806122d2565b1561232e57565b60405162461bcd60e51b8152602060048201526024808201527f4552433732313a207472616e7366657220746f20746865207a65726f206164646044820152637265737360e01b6064820152608490fd5b50634e487b7160e01b600052601160045260246000fd5b6000198101919082116123a557565b61078a61237f565b90600182018092116123a557565b906123c583611feb565b6001600160a01b0383811692909182168390036124a95761241f612482928216946123f1861515612327565b6123fc87848361319a565b612405876124fc565b6001600160a01b0316600090815260036020526040902090565b6124298154612396565b90556001600160a01b038116600090815260036020526040902061244d81546123ad565b9055612463856000526002602052604060002090565b80546001600160a01b0319166001600160a01b03909216919091179055565b7fddf252ad1be2c89b69c2b068fc378daa952ba7f163c4a11628f55a4df523b3ef600080a4565b60405162461bcd60e51b815260206004820152602560248201527f4552433732313a207472616e736665722066726f6d20696e636f72726563742060448201526437bbb732b960d91b6064820152608490fd5b600081815260046020526040812080546001600160a01b03191690556001600160a01b0361252983611feb565b167f8c5be1e5ebec7d5bd14f71427d1e84f3dd0314c0f7b2291e5b200ac8c7c3b9258280a4565b600082815260046020526040902080546001600160a01b0319166001600160a01b0383161790556001600160a01b038061258984611feb565b169116907f8c5be1e5ebec7d5bd14f71427d1e84f3dd0314c0f7b2291e5b200ac8c7c3b925600080a4565b9081602091031261000e57516104dd81610571565b6104dd939260809260018060a01b03168252600060208301526040820152816060820152019061060c565b6001600160a01b0391821681529116602082015260408101919091526080606082018190526104dd9291019061060c565b506040513d6000823e3d90fd5b3d1561265d573d9061264382611a85565b916126516040519384611a44565b82523d6000602084013e565b606090565b909190803b1561271b57612694602091600093604051948580948193630a85bd0160e11b998a845233600485016125c9565b03926001600160a01b03165af1600091816126eb575b506126dd576126b7612632565b805190816126d85760405162461bcd60e51b8152806122ab60048201612238565b602001fd5b6001600160e01b0319161490565b61270d91925060203d8111612714575b6127058183611a44565b8101906125b4565b90386126aa565b503d6126fb565b505050600190565b92909190823b1561275657612694926020926000604051809681958294630a85bd0160e11b9a8b855233600486016125f4565b50505050600190565b50634e487b7160e01b600052603260045260246000fd5b600f548110156127ae575b600f6000527f8d1108e10bcb7c27dddfc02ed9d693a074039d026cf4ea4240b40f7d581ac8020190600090565b6127b661275f565b612781565b80548210156127d4575b60005260206000200190600090565b6127dc61275f565b6127c5565b156127e857565b60405162461bcd60e51b815260206004820152605c60248201527f4b6174696265683732313a207369676e2074696d65206d757374206265206c6560448201527f7373207468616e20696e69742074696d65202620696e69742074696d65206d7560648201527f7374206265206c657373207468616e206578706972652074696d652e00000000608482015260a490fd5b9035601e198236030181121561000e5701602081359101916001600160401b03821161000e57813603831361000e57565b908060209392818452848401376000828201840152601f01601f1916010190565b9035601e198236030181121561000e5701602081359101916001600160401b03821161000e578160051b3603831361000e57565b81835290916001600160fb1b03831161000e5760209260051b809284830137010190565b9035601e198236030181121561000e5701602081359101916001600160401b03821161000e578160061b3603831361000e57565b61ffff81160361000e57565b9190808252602080920192916000905b828210612981575050505090565b9091929360019085356129938161076e565b828060a01b0316815261ffff838701356129ac81612957565b16818401526040908101950193920190612973565b90612a2c6104dd92602081526129ea602082016129dd8561077f565b6001600160a01b03169052565b602083013560408201526040830135606082015260608301356080820152612a156080840184612879565b9290610120938460a08501526101408401916128aa565b90612aa1612a74612a57612a4360a0880188612879565b601f19868803810160c088015296916128aa565b612a6460c08801886128cb565b90868684030160e08701526128ff565b94612a98612a8560e08301836128cb565b610100989187878403018a8801526128ff565b95810190612923565b93909282860301910152612963565b6020810135610e0f198101818111612ba6575b42101580612b84575b15612b2357612aeb906040830135809111159081612b14575b506127e1565b604051612b0e81612b006020820194856129c1565b03601f198101835282611a44565b51902090565b90506060830135101538612ae5565b60405162461bcd60e51b815260206004820152603360248201527f4b6174696265683732313a206d6f7265207468616e203120686f75727320736960448201527233b7103a34b6b2903234b33332b932b731b29760691b6064820152608490fd5b50610e108101808211612b99575b4210612acc565b612ba161237f565b612b92565b612bae61237f565b612ac3565b356104dd8161076e565b15612bc457565b60405162461bcd60e51b815260206004820152601d60248201527f4b6174696265683732313a20496e76616c6964207369676e61747572650000006044820152606490fd5b903590601e198136030182121561000e57018035906001600160401b03821161000e5760200191813603831361000e57565b903590601e198136030182121561000e57018035906001600160401b03821161000e57602001918160051b3603831361000e57565b93949294604051956020968781019085858337612cae602c828881016b39b0b6b0b7103bb4b639b7b760a11b8d82015203600c810184520182611a44565b519020958035612cbd8161076e565b612cc682612ab0565b6040518a8101917f19457468657265756d205369676e6564204d6573736167653a0a3332000000008352603c820152603c8152612d0281611a29565b519020612d10368888611aaf565b6041815103612dfa57808b01516040808301516060938401518251958652600090811a602087015291850192909252918301528080529899979861078a98612de7969594612de194612dda949193612d8793919260809060015afa15612ded575b6000516001600160a01b03908116911614612bbd565b42612d9c8c600052600e602052604060002090565b55612daf8b612daa83612bb3565b612e3f565b612dc68b612dc06080840184612c09565b9061345f565b612dd0818c6139f2565b60e0810190612c3b565b908a613d0e565b87613b8c565b84613c50565b612df5612625565b612d71565b60405162461bcd60e51b8152600481018c9052601860248201527f696e76616c6964207369676e6174757265206c656e67746800000000000000006044820152606490fd5b90604051612e4c81611a01565b600081526001600160a01b038316918215612f3c576000818152600260205260409020546001600160a01b0316612ef757838161223394612e908261078a9861316f565b6001600160a01b0383166000908152600360205260409020612eb281546123ad565b9055612ecc83612463846000526002602052604060002090565b60007fddf252ad1be2c89b69c2b068fc378daa952ba7f163c4a11628f55a4df523b3ef8180a4612662565b60405162461bcd60e51b815260206004820152601c60248201527f4552433732313a20746f6b656e20616c7265616479206d696e746564000000006044820152606490fd5b606460405162461bcd60e51b815260206004820152602060248201527f4552433732313a206d696e7420746f20746865207a65726f20616464726573736044820152fd5b6001906000198114612f90570190565b612f9861237f565b0190565b9015612fa55790565b6104dd61275f565b60209160011015612fbc570190565b612f9861275f565b60409160021015612fbc570190565b9190811015612fe4575b60051b0190565b612fec61275f565b612fdd565b6001600160a01b0381168015929183158481613167575b156131135761078a941561302757505050613022816132d5565b613349565b613033575b5050613349565b8061309c6130436130ab93611f28565b600019810192908311613106575b60009486865260076020526040862054908482036130b3575b505084613081876000526007602052604060002090565b556001600160a01b0316600090815260066020526040902090565b90600052602052604060002090565b55388061302c565b86526006602052604086208487526020526130fe6040872054806130ed8461309c8760018060a01b03166000526006602052604060002090565b556000526007602052604060002090565b55388061306a565b61310e61237f565b613051565b60405162461bcd60e51b815260206004820152602660248201527f746f6b656e732063616e6e6f74206265207472616e736665726564206f6e2074604482015265195cdd1b995d60d21b6064820152608490fd5b506001613008565b90613179816132d5565b6001600160a01b0382166131915761078a9150613349565b61078a9161329d565b9091906001600160a01b03808216918215808015613293575b1561311357156131e357506131c7836132d5565b8316806131da57505061078a9150613349565b03613191575050565b81851683036131f3575b506131c7565b61323d6131ff82611f28565b6000198101908111613286575b61309c60009387855260076020526040852054838103613244575b5084613081896000526007602052604060002090565b55386131ed565b87865260066020526040862084875260205261327f6040872054806130ed8461309c8760018060a01b03166000526006602052604060002090565b5538613227565b61328e61237f565b61320c565b50828616156131b3565b6040906132a981611f28565b9260009160018060a01b0316825260066020528282208483526020528083832055815260076020522055565b60085481600052600960205280604060002055600160401b81101561333c575b600181018060085581101561332f575b60086000527ff3f7a9fe364faab93b216da50a3214154f22a0a2b415b23a84c8169e8b636ee30155565b61333761275f565b613305565b6133446119ea565b6132f5565b600880546000199290838101818111613452575b6133f960009384928184526009602052846040852054911015613445575b8684526133e87ff3f7a9fe364faab93b216da50a3214154f22a0a2b415b23a84c8169e8b636ee2958681015490831015613438575b88865280837ff3f7a9fe364faab93b216da50a3214154f22a0a2b415b23a84c8169e8b636ee301556000526009602052604060002090565b556000526009602052604060002090565b5582549384156134245784019380851015613417575b838352015555565b61341f61275f565b61340f565b634e487b7160e01b83526031600452602483fd5b61344061275f565b6133b0565b61344d61275f565b61337b565b61345a61237f565b61335d565b613488916040519283916020948186928383019687378101600083820152038084520182611a44565b51902080600052600b82526040600020546134ad5790600b9160005252604060002055565b60405162461bcd60e51b815260048101839052602360248201527f4461746153746f726167653a20757269207265676973746572656420616c726560448201526261647960e81b6064820152608490fd5b818110613509575050565b600081556001016134fe565b9190601f811161352457505050565b61078a926000526020600020906020601f840160051c83019310613550575b601f0160051c01906134fe565b9091508190613543565b60047f766269423061476c7a4947356c64486476636d7375496e300000000000000000916000908152602090600a82528260408220600d845282604081206135a2815461200e565b80613682575b505050016135b6815461200e565b601f8111613661575b5061013181558152207f646174613a6170706c69636174696f6e2f6a736f6e3b6261736536342c65794a81557f755957316c496a6f67496c526f61584d67644739725a57346761584d67596e5660018201557f79626d566b4c694973496d526c63324e796158423061573975496a6f67496c5260028201557f766132567549476c7a494735766443426a623278735a574e3061574a735a534260038201550155565b61367c908284526005601f8686209201811c820191016134fe565b386135bf565b601f81116001146136985750555b8238806135a8565b8183528683206136b391601f0160051c8101906001016134fe565b81868120915555613690565b9092916001600160401b038111613787575b6136e5816136df845461200e565b84613515565b6000601f821160011461371f5781929394600092613714575b50508160011b916000199060031b1c1916179055565b0135905038806136fe565b601f1982169461373484600052602060002090565b91805b87811061376f575083600195969710613755575b505050811b019055565b0135600019600384901b60f8161c1916905538808061374b565b90926020600181928686013581550194019101613737565b61378f6119ea565b6136d1565b906001600160401b038311613817575b600160401b831161380a575b81548383558084106137ec575b50906000526020806000209060005b8481106137da575050505050565b833583820155928101926001016137cc565b613804908360005284602060002091820191016134fe565b386137bd565b6138126119ea565b6137b0565b61381f6119ea565b6137a4565b906001600160401b0383116138b8575b600160401b83116138ab575b8154838355808410613882575b5061385e9091600052602060002090565b60005b83811061386e5750505050565b600190602084359401938184015501613861565b6000838152846020822092830192015b8281106138a057505061384d565b818155600101613892565b6138b36119ea565b613840565b6138c06119ea565b613834565b903590601e198136030182121561000e57018035906001600160401b03821161000e57602001918160061b3603831361000e57565b90602090613928813561390c8161076e565b84546001600160a01b0319166001600160a01b03909116178455565b013561393381612957565b815461ffff60a01b191660a09190911b61ffff60a01b16179055565b90600160401b83116139d0575b81548383558084106139a7575b5061397a9091600052602060002090565b6000915b83831061398b5750505050565b600160408261399b8394866138fa565b0192019201919061397e565b6000838152846020822092830192015b8281106139c5575050613969565b8181556001016139b7565b6139d86119ea565b61395c565b81604051928392833781016000815203902090565b90613a0782600052600a602052604060002090565b91613a1461390c83612bb3565b6020820135806001850155604083013590816002860155827f0b85051017293732c5b533b177efc66475411a9fdd5fbc8ecb619906658413d6606086013593846003890155613a73613a696080890189612c09565b9060048b016136bf565b60a08701613a8e613a84828a612c09565b9060058c016136bf565b613ae0600860c08a019a613aaf613aa58d8d612c3b565b9060068401613794565b613ac9613abf60e08d018d612c3b565b9060078401613824565b613ad76101008c018c6138c5565b9290910161394f565b613b26613aff613af9613af28b612bb3565b938b612c09565b906139dd565b9660405193849360018060a01b031697846040919493926060820195825260208201520152565b0390a4613b338383612c3b565b939050600092835b858110613b4a57505050505050565b80613b5c613b87926114248686612c3b565b35857f65327253f8d67c2e23cb4dfab28ca7437b04e9098cf4e985073d76df25209ad48880a3612f80565b613b3b565b929192600052602092600c84526040600020916001600160401b038211613c43575b613bc282613bbc855461200e565b85613515565b600094601f8311600114613bf3575093819293946000926137145750508160011b916000199060031b1c1916179055565b90601f19831695613c0985600052602060002090565b9281905b888210613c2b5750508360019596971061375557505050811b019055565b80600184968294958701358155019501920190613c0d565b613c4b6119ea565b613bae565b929192600052602092600d84526040600020916001600160401b038211613d01575b613c8082613bbc855461200e565b600094601f8311600114613cb1575093819293946000926137145750508160011b916000199060031b1c1916179055565b90601f19831695613cc785600052602060002090565b9281905b888210613ce95750508360019596971061375557505050811b019055565b80600184968294958701358155019501920190613ccb565b613d096119ea565b613c72565b919060038211613dd25760008215613da757507fb237134d29775150b1edf87af1dc343262244af7cbb474cfc64cb6e8824af663613d94613d4f8484612f9c565b35925b60006001861115613da15750613d688582612fad565b35945b6000916002821115613d9957613d819250612fc4565b35945b6040519081529081906020820190565b0390a4565b505094613d84565b94613d6b565b613d947fb237134d29775150b1edf87af1dc343262244af7cbb474cfc64cb6e8824af6639192613d52565b60405162461bcd60e51b815260206004820152603860248201527f4461746153746f726167653a2074616773206c656e677468206d75737420626560448201527f206c657373207468616e206f7220657175616c20746f203300000000000000006064820152608490fd5b6020906001600160401b038111613e555760051b0190565b612fec6119ea565b6040519061012082018281106001600160401b03821117613eb7575b604052816000815260006020820152600060408201526101006060916000838201528260808201528260a08201528260c08201528260e08201520152565b613ebf6119ea565b613e79565b90613ece82613e3d565b613edb6040519182611a44565b8281528092613eec601f1991613e3d565b0190602036910137565b90613f0082613e3d565b613f0d6040519182611a44565b8281528092613f1e601f1991613e3d565b019060005b828110613f2f57505050565b806060602080938501015201613f23565b6020918151811015613f55575b60051b010190565b613f5d61275f565b613f4d565b9060405191828154918282526020928383019160005283600020936000905b828210613f975750505061078a92500383611a44565b855484526001958601958895509381019390910190613f81565b908154613fbd81613e3d565b92604093613fcd85519182611a44565b828152809460208092019260005281600020906000935b858510613ff357505050505050565b600184819284518581018181106001600160401b03821117614037575b865261ffff8754858060a01b038116835260a01c1683820152815201930194019391613fe4565b61403f6119ea565b614010565b9061404d613e5d565b50606082600052600a602052604060002091614067611a65565b83546001600160a01b03168152600184015460208201526140e36008600286015495604084019687526003810154868501526140a5600482016120de565b60808501526140b6600582016120de565b60a08501526140c760068201613f62565b60c08501526140d860078201613f62565b60e085015201613fb1565b610100820152936140fe81600052600e602052604060002090565b549351421015614125575b6141206104dd91600052600c602052604060002090565b6120de565b91506104dd61412061414461412085600052600d602052604060002090565b93915050614109565b61415690612776565b90549060031b1c80600052601160205290565b600f548110156141aa575b7f8d1108e10bcb7c27dddfc02ed9d693a074039d026cf4ea4240b40f7d581ac80201549081600052601160205260406000205490565b6141b261275f565b614174565b91906141c5600291846127bb565b90549060031b1c92836000520160205260406000205490565b60005260116020526040600020548015801590614243575b156141fe5790565b60405162461bcd60e51b815260206004820152601e60248201527f456e756d657261626c654d61703a206e6f6e6578697374656e74206b657900006044820152606490fd5b50601060205260406000205415156141f6565b81600052600281016020526040600020549182159182159261427d575b5050156141fe5790565b614297925060019160005201602052604060002054151590565b3880614273565b8060005260106020526040600020541560001461432a5780600f54600160401b81101561431d575b6001810180600f55811015614310575b7f8d1108e10bcb7c27dddfc02ed9d693a074039d026cf4ea4240b40f7d581ac8020155600f54906000526010602052604060002055600190565b61431861275f565b6142d6565b6143256119ea565b6142c6565b50600090565b8060005260146020526040600020541560001461432a5780601354600160401b8110156143af575b60018101806013558110156143a2575b7f66de8ffda797e3de9c05e8fc57b3bf0ec28a930d40b0d285d93c06501cf6a0900155601354906000526014602052604060002055600190565b6143aa61275f565b614368565b6143b76119ea565b614358565b600082815260018201602052604090205461442c5780826143f260019354600160401b81101561441f575b8481018455836127bb565b819291549060031b600019811b9283911b1691191617905580549260005201602052604060002055600190565b6144276119ea565b6143e7565b5050600090565b60018060a01b031660005260126020526002614454604060002092836127bb565b90549060031b1c91826000520160205290565b6001600160a01b0316600090815260126020908152604080832080548585526002820190935292205561449a91906143bc565b50565b6013548110156144dc575b60136000527f66de8ffda797e3de9c05e8fc57b3bf0ec28a930d40b0d285d93c06501cf6a09001546001600160a01b031690565b6144e461275f565b6144a8565b61449a906001600160a01b0316614330565b61449a91600052601560205260406000206143bc565b6001600160a01b0316600090815260166020526040902061449a91906143bc565b60005260176020526002614454604060002092836127bb565b90918061455757505050565b61456b6145648285612f9c565b35836146ae565b6001811161457857505050565b82614590614589836145c396612fad565b35846146ae565b6145e061459d8383612f9c565b356145a88484612fad565b60408051602081019384529135908201529586906060820190565b03956145d7601f1997888101835282611a44565b519020846146ae565b600282116145ee5750505050565b61469c6146a5946146096146028585612fc4565b35866146ae565b6146576146168585612fad565b3561464261464e6146278888612fc4565b60408051602081019586529135908201529182906060820190565b03858101835282611a44565b519020866146ae565b6146776146648585612f9c565b35946146708186612fad565b3594612fc4565b6040805160208101968752908101949094523560608401526080908101835282611a44565b519020906146ae565b38808080612075565b6000828152601760205260408120906146d7838360019160005201602052604060002054151590565b156146e25750505050565b6147059381526017602052604080822054918481526002840160205220556143bc565b503880808061207556fea2646970667358221220bd5ea16e2362bda49299502f4309ce34ac2af759fe55f2c27b1d5803f58a642a64736f6c63430008110033",
  "linkReferences": {},
  "deployedLinkReferences": {}
}