{
  "_format": "hh-sol-artifact-1",
  "contractName": "Factory1155",
  "sourceName": "contracts/katibeh1155/Factory1155.sol",
  "abi": [
    {
      "inputs": [
        {
          "internalType": "address",
          "name": "qhAddr",
          "type": "address"
        },
        {
          "internalType": "uint96",
          "name": "_startTime",
          "type": "uint96"
        }
      ],
      "stateMutability": "nonpayable",
      "type": "constructor"
    },
    {
      "anonymous": false,
      "inputs": [
        {
          "indexed": true,
          "internalType": "uint256",
          "name": "tokenHash",
          "type": "uint256"
        },
        {
          "indexed": true,
          "internalType": "uint256",
          "name": "toTokenHash",
          "type": "uint256"
        }
      ],
      "name": "NewReply",
      "type": "event"
    },
    {
      "anonymous": false,
      "inputs": [
        {
          "indexed": true,
          "internalType": "uint256",
          "name": "tokenHash",
          "type": "uint256"
        },
        {
          "indexed": true,
          "internalType": "address",
          "name": "creator",
          "type": "address"
        },
        {
          "indexed": true,
          "internalType": "bytes",
          "name": "data",
          "type": "bytes"
        }
      ],
      "name": "NewToken",
      "type": "event"
    },
    {
      "anonymous": false,
      "inputs": [
        {
          "indexed": false,
          "internalType": "uint256",
          "name": "tokenHash",
          "type": "uint256"
        },
        {
          "indexed": true,
          "internalType": "bytes32",
          "name": "tag1",
          "type": "bytes32"
        },
        {
          "indexed": true,
          "internalType": "bytes32",
          "name": "tag2",
          "type": "bytes32"
        },
        {
          "indexed": true,
          "internalType": "bytes32",
          "name": "tag3",
          "type": "bytes32"
        }
      ],
      "name": "Tags",
      "type": "event"
    },
    {
      "anonymous": false,
      "inputs": [
        {
          "indexed": true,
          "internalType": "uint256",
          "name": "tokenHash",
          "type": "uint256"
        },
        {
          "indexed": false,
          "internalType": "bytes",
          "name": "data",
          "type": "bytes"
        }
      ],
      "name": "TokenData",
      "type": "event"
    },
    {
      "anonymous": false,
      "inputs": [
        {
          "indexed": true,
          "internalType": "address",
          "name": "operator",
          "type": "address"
        },
        {
          "indexed": true,
          "internalType": "address",
          "name": "from",
          "type": "address"
        },
        {
          "indexed": true,
          "internalType": "address",
          "name": "to",
          "type": "address"
        },
        {
          "indexed": false,
          "internalType": "uint256",
          "name": "id",
          "type": "uint256"
        },
        {
          "indexed": false,
          "internalType": "uint256",
          "name": "value",
          "type": "uint256"
        }
      ],
      "name": "TransferSingle",
      "type": "event"
    },
    {
      "inputs": [],
      "name": "QH",
      "outputs": [
        {
          "internalType": "contract IQHash",
          "name": "",
          "type": "address"
        }
      ],
      "stateMutability": "view",
      "type": "function"
    },
    {
      "inputs": [
        {
          "internalType": "address",
          "name": "",
          "type": "address"
        }
      ],
      "name": "_collectorScore",
      "outputs": [
        {
          "internalType": "uint256",
          "name": "",
          "type": "uint256"
        }
      ],
      "stateMutability": "view",
      "type": "function"
    },
    {
      "inputs": [
        {
          "internalType": "uint256",
          "name": "",
          "type": "uint256"
        }
      ],
      "name": "_tokenCollection",
      "outputs": [
        {
          "internalType": "address",
          "name": "addr",
          "type": "address"
        },
        {
          "internalType": "uint96",
          "name": "tokenId",
          "type": "uint96"
        }
      ],
      "stateMutability": "view",
      "type": "function"
    },
    {
      "inputs": [
        {
          "internalType": "address",
          "name": "collector",
          "type": "address"
        },
        {
          "components": [
            {
              "internalType": "address",
              "name": "addr",
              "type": "address"
            },
            {
              "internalType": "uint96",
              "name": "tokenId",
              "type": "uint96"
            }
          ],
          "internalType": "struct Factory1155.Collection",
          "name": "tokenInfo",
          "type": "tuple"
        },
        {
          "internalType": "uint256",
          "name": "amount",
          "type": "uint256"
        },
        {
          "internalType": "bytes",
          "name": "data",
          "type": "bytes"
        },
        {
          "components": [
            {
              "internalType": "address payable",
              "name": "recipient",
              "type": "address"
            },
            {
              "internalType": "uint96",
              "name": "percentInBasisPoints",
              "type": "uint96"
            }
          ],
          "internalType": "struct SplitterForOwners.Share[]",
          "name": "dapps",
          "type": "tuple[]"
        }
      ],
      "name": "collectTo",
      "outputs": [],
      "stateMutability": "payable",
      "type": "function"
    },
    {
      "inputs": [
        {
          "internalType": "address",
          "name": "collector",
          "type": "address"
        },
        {
          "internalType": "uint256",
          "name": "tokenHash",
          "type": "uint256"
        },
        {
          "internalType": "uint256",
          "name": "amount",
          "type": "uint256"
        },
        {
          "components": [
            {
              "internalType": "address",
              "name": "creator",
              "type": "address"
            },
            {
              "internalType": "uint96",
              "name": "signTime",
              "type": "uint96"
            },
            {
              "internalType": "string",
              "name": "tokenURI",
              "type": "string"
            },
            {
              "internalType": "bytes",
              "name": "data",
              "type": "bytes"
            },
            {
              "internalType": "uint256[]",
              "name": "toTokenHash",
              "type": "uint256[]"
            },
            {
              "internalType": "bytes32[]",
              "name": "tags",
              "type": "bytes32[]"
            },
            {
              "components": [
                {
                  "internalType": "address payable",
                  "name": "recipient",
                  "type": "address"
                },
                {
                  "internalType": "uint96",
                  "name": "percentInBasisPoints",
                  "type": "uint96"
                }
              ],
              "internalType": "struct SplitterForOwners.Share[]",
              "name": "owners",
              "type": "tuple[]"
            },
            {
              "components": [
                {
                  "internalType": "uint256",
                  "name": "A",
                  "type": "uint256"
                },
                {
                  "internalType": "int256",
                  "name": "B",
                  "type": "int256"
                },
                {
                  "internalType": "uint96",
                  "name": "totalSupply",
                  "type": "uint96"
                },
                {
                  "internalType": "uint96",
                  "name": "expTime",
                  "type": "uint96"
                },
                {
                  "internalType": "uint64",
                  "name": "discount",
                  "type": "uint64"
                },
                {
                  "internalType": "uint96",
                  "name": "initTime",
                  "type": "uint96"
                },
                {
                  "internalType": "uint96",
                  "name": "royalty",
                  "type": "uint96"
                },
                {
                  "internalType": "uint256",
                  "name": "chainId",
                  "type": "uint256"
                }
              ],
              "internalType": "struct DataStorage.Pricing[]",
              "name": "pricing",
              "type": "tuple[]"
            }
          ],
          "internalType": "struct DataStorage.Katibeh",
          "name": "katibeh",
          "type": "tuple"
        },
        {
          "internalType": "bytes",
          "name": "sig",
          "type": "bytes"
        },
        {
          "internalType": "bytes",
          "name": "data",
          "type": "bytes"
        },
        {
          "components": [
            {
              "internalType": "address payable",
              "name": "recipient",
              "type": "address"
            },
            {
              "internalType": "uint96",
              "name": "percentInBasisPoints",
              "type": "uint96"
            }
          ],
          "internalType": "struct SplitterForOwners.Share[]",
          "name": "dapps",
          "type": "tuple[]"
        }
      ],
      "name": "collectTo",
      "outputs": [],
      "stateMutability": "payable",
      "type": "function"
    },
    {
      "inputs": [
        {
          "components": [
            {
              "internalType": "address",
              "name": "addr",
              "type": "address"
            },
            {
              "internalType": "uint96",
              "name": "tokenId",
              "type": "uint96"
            }
          ],
          "internalType": "struct Factory1155.Collection",
          "name": "tokenInfo",
          "type": "tuple"
        },
        {
          "internalType": "uint256",
          "name": "amount",
          "type": "uint256"
        }
      ],
      "name": "feeAndSupply",
      "outputs": [
        {
          "internalType": "uint256",
          "name": "_fee",
          "type": "uint256"
        },
        {
          "internalType": "uint256",
          "name": "supply",
          "type": "uint256"
        }
      ],
      "stateMutability": "view",
      "type": "function"
    },
    {
      "inputs": [
        {
          "internalType": "uint256",
          "name": "tokenHash",
          "type": "uint256"
        },
        {
          "internalType": "uint256",
          "name": "amount",
          "type": "uint256"
        },
        {
          "components": [
            {
              "internalType": "address",
              "name": "creator",
              "type": "address"
            },
            {
              "internalType": "uint96",
              "name": "signTime",
              "type": "uint96"
            },
            {
              "internalType": "string",
              "name": "tokenURI",
              "type": "string"
            },
            {
              "internalType": "bytes",
              "name": "data",
              "type": "bytes"
            },
            {
              "internalType": "uint256[]",
              "name": "toTokenHash",
              "type": "uint256[]"
            },
            {
              "internalType": "bytes32[]",
              "name": "tags",
              "type": "bytes32[]"
            },
            {
              "components": [
                {
                  "internalType": "address payable",
                  "name": "recipient",
                  "type": "address"
                },
                {
                  "internalType": "uint96",
                  "name": "percentInBasisPoints",
                  "type": "uint96"
                }
              ],
              "internalType": "struct SplitterForOwners.Share[]",
              "name": "owners",
              "type": "tuple[]"
            },
            {
              "components": [
                {
                  "internalType": "uint256",
                  "name": "A",
                  "type": "uint256"
                },
                {
                  "internalType": "int256",
                  "name": "B",
                  "type": "int256"
                },
                {
                  "internalType": "uint96",
                  "name": "totalSupply",
                  "type": "uint96"
                },
                {
                  "internalType": "uint96",
                  "name": "expTime",
                  "type": "uint96"
                },
                {
                  "internalType": "uint64",
                  "name": "discount",
                  "type": "uint64"
                },
                {
                  "internalType": "uint96",
                  "name": "initTime",
                  "type": "uint96"
                },
                {
                  "internalType": "uint96",
                  "name": "royalty",
                  "type": "uint96"
                },
                {
                  "internalType": "uint256",
                  "name": "chainId",
                  "type": "uint256"
                }
              ],
              "internalType": "struct DataStorage.Pricing[]",
              "name": "pricing",
              "type": "tuple[]"
            }
          ],
          "internalType": "struct DataStorage.Katibeh",
          "name": "katibeh",
          "type": "tuple"
        }
      ],
      "name": "feeAndSupply",
      "outputs": [
        {
          "internalType": "uint256",
          "name": "_fee",
          "type": "uint256"
        },
        {
          "internalType": "uint256",
          "name": "supply",
          "type": "uint256"
        }
      ],
      "stateMutability": "view",
      "type": "function"
    },
    {
      "inputs": [
        {
          "internalType": "address",
          "name": "collector",
          "type": "address"
        },
        {
          "internalType": "uint256",
          "name": "tokenHash",
          "type": "uint256"
        },
        {
          "internalType": "uint256",
          "name": "amount",
          "type": "uint256"
        },
        {
          "components": [
            {
              "internalType": "address",
              "name": "creator",
              "type": "address"
            },
            {
              "internalType": "uint96",
              "name": "signTime",
              "type": "uint96"
            },
            {
              "internalType": "string",
              "name": "tokenURI",
              "type": "string"
            },
            {
              "internalType": "bytes",
              "name": "data",
              "type": "bytes"
            },
            {
              "internalType": "uint256[]",
              "name": "toTokenHash",
              "type": "uint256[]"
            },
            {
              "internalType": "bytes32[]",
              "name": "tags",
              "type": "bytes32[]"
            },
            {
              "components": [
                {
                  "internalType": "address payable",
                  "name": "recipient",
                  "type": "address"
                },
                {
                  "internalType": "uint96",
                  "name": "percentInBasisPoints",
                  "type": "uint96"
                }
              ],
              "internalType": "struct SplitterForOwners.Share[]",
              "name": "owners",
              "type": "tuple[]"
            },
            {
              "components": [
                {
                  "internalType": "uint256",
                  "name": "A",
                  "type": "uint256"
                },
                {
                  "internalType": "int256",
                  "name": "B",
                  "type": "int256"
                },
                {
                  "internalType": "uint96",
                  "name": "totalSupply",
                  "type": "uint96"
                },
                {
                  "internalType": "uint96",
                  "name": "expTime",
                  "type": "uint96"
                },
                {
                  "internalType": "uint64",
                  "name": "discount",
                  "type": "uint64"
                },
                {
                  "internalType": "uint96",
                  "name": "initTime",
                  "type": "uint96"
                },
                {
                  "internalType": "uint96",
                  "name": "royalty",
                  "type": "uint96"
                },
                {
                  "internalType": "uint256",
                  "name": "chainId",
                  "type": "uint256"
                }
              ],
              "internalType": "struct DataStorage.Pricing[]",
              "name": "pricing",
              "type": "tuple[]"
            }
          ],
          "internalType": "struct DataStorage.Katibeh",
          "name": "katibeh",
          "type": "tuple"
        },
        {
          "internalType": "bytes",
          "name": "sig",
          "type": "bytes"
        },
        {
          "internalType": "bytes",
          "name": "data",
          "type": "bytes"
        },
        {
          "components": [
            {
              "internalType": "address payable",
              "name": "recipient",
              "type": "address"
            },
            {
              "internalType": "uint96",
              "name": "percentInBasisPoints",
              "type": "uint96"
            }
          ],
          "internalType": "struct SplitterForOwners.Share[]",
          "name": "dapps",
          "type": "tuple[]"
        }
      ],
      "name": "firstPrivateCollect",
      "outputs": [],
      "stateMutability": "payable",
      "type": "function"
    },
    {
      "inputs": [
        {
          "internalType": "address",
          "name": "collector",
          "type": "address"
        },
        {
          "internalType": "uint256",
          "name": "tokenHash",
          "type": "uint256"
        },
        {
          "internalType": "uint256",
          "name": "amount",
          "type": "uint256"
        },
        {
          "components": [
            {
              "internalType": "address",
              "name": "creator",
              "type": "address"
            },
            {
              "internalType": "uint96",
              "name": "signTime",
              "type": "uint96"
            },
            {
              "internalType": "string",
              "name": "tokenURI",
              "type": "string"
            },
            {
              "internalType": "bytes",
              "name": "data",
              "type": "bytes"
            },
            {
              "internalType": "uint256[]",
              "name": "toTokenHash",
              "type": "uint256[]"
            },
            {
              "internalType": "bytes32[]",
              "name": "tags",
              "type": "bytes32[]"
            },
            {
              "components": [
                {
                  "internalType": "address payable",
                  "name": "recipient",
                  "type": "address"
                },
                {
                  "internalType": "uint96",
                  "name": "percentInBasisPoints",
                  "type": "uint96"
                }
              ],
              "internalType": "struct SplitterForOwners.Share[]",
              "name": "owners",
              "type": "tuple[]"
            },
            {
              "components": [
                {
                  "internalType": "uint256",
                  "name": "A",
                  "type": "uint256"
                },
                {
                  "internalType": "int256",
                  "name": "B",
                  "type": "int256"
                },
                {
                  "internalType": "uint96",
                  "name": "totalSupply",
                  "type": "uint96"
                },
                {
                  "internalType": "uint96",
                  "name": "expTime",
                  "type": "uint96"
                },
                {
                  "internalType": "uint64",
                  "name": "discount",
                  "type": "uint64"
                },
                {
                  "internalType": "uint96",
                  "name": "initTime",
                  "type": "uint96"
                },
                {
                  "internalType": "uint96",
                  "name": "royalty",
                  "type": "uint96"
                },
                {
                  "internalType": "uint256",
                  "name": "chainId",
                  "type": "uint256"
                }
              ],
              "internalType": "struct DataStorage.Pricing[]",
              "name": "pricing",
              "type": "tuple[]"
            }
          ],
          "internalType": "struct DataStorage.Katibeh",
          "name": "katibeh",
          "type": "tuple"
        },
        {
          "internalType": "bytes",
          "name": "sig",
          "type": "bytes"
        },
        {
          "internalType": "bytes",
          "name": "data",
          "type": "bytes"
        },
        {
          "components": [
            {
              "internalType": "address payable",
              "name": "recipient",
              "type": "address"
            },
            {
              "internalType": "uint96",
              "name": "percentInBasisPoints",
              "type": "uint96"
            }
          ],
          "internalType": "struct SplitterForOwners.Share[]",
          "name": "dapps",
          "type": "tuple[]"
        }
      ],
      "name": "firstPublicCollect",
      "outputs": [],
      "stateMutability": "payable",
      "type": "function"
    },
    {
      "inputs": [
        {
          "internalType": "uint256",
          "name": "value",
          "type": "uint256"
        }
      ],
      "name": "fixedInterest",
      "outputs": [
        {
          "internalType": "uint256",
          "name": "amount",
          "type": "uint256"
        }
      ],
      "stateMutability": "view",
      "type": "function"
    },
    {
      "inputs": [],
      "name": "implementation",
      "outputs": [
        {
          "internalType": "contract Katibeh1155",
          "name": "",
          "type": "address"
        }
      ],
      "stateMutability": "view",
      "type": "function"
    },
    {
      "inputs": [
        {
          "internalType": "uint256",
          "name": "x",
          "type": "uint256"
        },
        {
          "internalType": "uint256",
          "name": "y",
          "type": "uint256"
        }
      ],
      "name": "pow",
      "outputs": [
        {
          "internalType": "uint256",
          "name": "result",
          "type": "uint256"
        }
      ],
      "stateMutability": "pure",
      "type": "function"
    },
    {
      "inputs": [
        {
          "internalType": "uint256",
          "name": "tokenHash",
          "type": "uint256"
        },
        {
          "internalType": "address",
          "name": "collector",
          "type": "address"
        },
        {
          "internalType": "uint256",
          "name": "amount",
          "type": "uint256"
        },
        {
          "internalType": "bytes",
          "name": "data",
          "type": "bytes"
        },
        {
          "components": [
            {
              "internalType": "address payable",
              "name": "recipient",
              "type": "address"
            },
            {
              "internalType": "uint96",
              "name": "percentInBasisPoints",
              "type": "uint96"
            }
          ],
          "internalType": "struct SplitterForOwners.Share[]",
          "name": "dapps",
          "type": "tuple[]"
        }
      ],
      "name": "privateCollect",
      "outputs": [],
      "stateMutability": "payable",
      "type": "function"
    },
    {
      "inputs": [
        {
          "components": [
            {
              "internalType": "address",
              "name": "addr",
              "type": "address"
            },
            {
              "internalType": "uint96",
              "name": "tokenId",
              "type": "uint96"
            }
          ],
          "internalType": "struct Factory1155.Collection",
          "name": "tokenInfo",
          "type": "tuple"
        },
        {
          "internalType": "address",
          "name": "collector",
          "type": "address"
        },
        {
          "internalType": "uint256",
          "name": "amount",
          "type": "uint256"
        },
        {
          "internalType": "bytes",
          "name": "data",
          "type": "bytes"
        },
        {
          "components": [
            {
              "internalType": "address payable",
              "name": "recipient",
              "type": "address"
            },
            {
              "internalType": "uint96",
              "name": "percentInBasisPoints",
              "type": "uint96"
            }
          ],
          "internalType": "struct SplitterForOwners.Share[]",
          "name": "dapps",
          "type": "tuple[]"
        }
      ],
      "name": "privateCollect",
      "outputs": [],
      "stateMutability": "payable",
      "type": "function"
    },
    {
      "inputs": [
        {
          "components": [
            {
              "internalType": "address",
              "name": "addr",
              "type": "address"
            },
            {
              "internalType": "uint96",
              "name": "tokenId",
              "type": "uint96"
            }
          ],
          "internalType": "struct Factory1155.Collection",
          "name": "tokenInfo",
          "type": "tuple"
        },
        {
          "internalType": "address",
          "name": "collector",
          "type": "address"
        },
        {
          "internalType": "uint256",
          "name": "amount",
          "type": "uint256"
        },
        {
          "internalType": "bytes",
          "name": "data",
          "type": "bytes"
        },
        {
          "components": [
            {
              "internalType": "address payable",
              "name": "recipient",
              "type": "address"
            },
            {
              "internalType": "uint96",
              "name": "percentInBasisPoints",
              "type": "uint96"
            }
          ],
          "internalType": "struct SplitterForOwners.Share[]",
          "name": "dapps",
          "type": "tuple[]"
        }
      ],
      "name": "publicCollect",
      "outputs": [],
      "stateMutability": "payable",
      "type": "function"
    },
    {
      "inputs": [
        {
          "internalType": "uint256",
          "name": "supply",
          "type": "uint256"
        },
        {
          "internalType": "uint256",
          "name": "amount",
          "type": "uint256"
        },
        {
          "internalType": "uint256",
          "name": "initialSupply",
          "type": "uint256"
        }
      ],
      "name": "publicFee",
      "outputs": [
        {
          "internalType": "uint256",
          "name": "result",
          "type": "uint256"
        }
      ],
      "stateMutability": "pure",
      "type": "function"
    },
    {
      "inputs": [
        {
          "internalType": "address payable",
          "name": "newAddr",
          "type": "address"
        }
      ],
      "name": "setReceiver1",
      "outputs": [],
      "stateMutability": "nonpayable",
      "type": "function"
    },
    {
      "inputs": [],
      "name": "split",
      "outputs": [
        {
          "internalType": "contract SplitterForOwners",
          "name": "",
          "type": "address"
        }
      ],
      "stateMutability": "view",
      "type": "function"
    },
    {
      "inputs": [],
      "name": "startTime",
      "outputs": [
        {
          "internalType": "uint96",
          "name": "",
          "type": "uint96"
        }
      ],
      "stateMutability": "view",
      "type": "function"
    },
    {
      "inputs": [
        {
          "internalType": "address",
          "name": "",
          "type": "address"
        },
        {
          "internalType": "uint96",
          "name": "",
          "type": "uint96"
        }
      ],
      "name": "tokenPricing",
      "outputs": [
        {
          "internalType": "uint256",
          "name": "A",
          "type": "uint256"
        },
        {
          "internalType": "int256",
          "name": "B",
          "type": "int256"
        },
        {
          "internalType": "uint96",
          "name": "totalSupply",
          "type": "uint96"
        },
        {
          "internalType": "uint96",
          "name": "expTime",
          "type": "uint96"
        },
        {
          "internalType": "uint64",
          "name": "discount",
          "type": "uint64"
        },
        {
          "internalType": "uint96",
          "name": "initTime",
          "type": "uint96"
        },
        {
          "internalType": "uint96",
          "name": "royalty",
          "type": "uint96"
        },
        {
          "internalType": "uint256",
          "name": "chainId",
          "type": "uint256"
        }
      ],
      "stateMutability": "view",
      "type": "function"
    },
    {
      "inputs": [],
      "name": "totalValueLocked",
      "outputs": [
        {
          "internalType": "uint256",
          "name": "",
          "type": "uint256"
        }
      ],
      "stateMutability": "view",
      "type": "function"
    },
    {
      "inputs": [
        {
          "internalType": "uint256",
          "name": "tokenHash",
          "type": "uint256"
        }
      ],
      "name": "uri",
      "outputs": [
        {
          "internalType": "string",
          "name": "",
          "type": "string"
        }
      ],
      "stateMutability": "view",
      "type": "function"
    },
    {
      "inputs": [
        {
          "internalType": "address",
          "name": "",
          "type": "address"
        }
      ],
      "name": "userBalance",
      "outputs": [
        {
          "internalType": "uint256",
          "name": "",
          "type": "uint256"
        }
      ],
      "stateMutability": "view",
      "type": "function"
    },
    {
      "inputs": [],
      "name": "withdraw",
      "outputs": [],
      "stateMutability": "nonpayable",
      "type": "function"
    },
    {
      "inputs": [
        {
          "components": [
            {
              "internalType": "address",
              "name": "addr",
              "type": "address"
            },
            {
              "internalType": "uint96",
              "name": "tokenId",
              "type": "uint96"
            }
          ],
          "internalType": "struct Factory1155.Collection",
          "name": "tokenInfo",
          "type": "tuple"
        }
      ],
      "name": "withdraw",
      "outputs": [],
      "stateMutability": "nonpayable",
      "type": "function"
    }
  ],
  "bytecode": "0x60a034620001655762008a9f906001600160401b0390601f38849003908101601f191682019083821183831017620001515780839160409687948552833981010312620001655780516001600160a01b038082169390929091849003620001655760200151906001600160601b03821682036200016557845190611bf7918281019281841083851117620001515762006ea882393083526020815f9403019083f09384156200014757825494166001600160a01b0319948516178255855190612cd580830191838310908311176200013357908291620041d38339039082f09081156200012857506080523382600154161760015560a01b16176009555161406990816200016a82396080518181816108c001528181612ee10152818161302f01526131b90152f35b8551903d90823e3d90fd5b634e487b7160e01b84526041600452602484fd5b86513d84823e3d90fd5b634e487b7160e01b5f52604160045260245ffd5b5f80fdfe60806040526004361015610011575f80fd5b5f3560e01c80630103c92b146101a457806303c131481461019f57806308e7c4d01461019a5780630e89341c14610195578063122a89061461019057806324500de21461018b5780632e4c697f146101865780633ccfd60b1461018157806348e3fa611461017c5780635b4346a8146101775780635c60da1b146101725780635fd099e61461016d57806366cdf94414610168578063698d88f31461016357806369bcd33e1461015e57806378e9792514610159578063883e71d314610154578063968a577b1461014f5780639c9bead41461014a5780639d58e53f14610145578063b932271914610140578063bae558da1461013b578063d4b1173314610136578063ec18154e146101315763f76541761461012c575f80fd5b610ece565b610eb1565b610e99565b610e75565b610d10565b610c4c565b610b73565b610b38565b610b20565b610a9e565b610a80565b6109e4565b6109c6565b6108ef565b6108ab565b610885565b6107f1565b6107bf565b610749565b61058c565b6104f1565b610331565b6102c3565b610213565b6101d8565b6001600160a01b038116036101ba57565b5f80fd5b600435906101cb826101a9565b565b35906101cb826101a9565b346101ba5760203660031901126101ba576004356101f5816101a9565b60018060a01b03165f526003602052602060405f2054604051908152f35b346101ba5760203660031901126101ba57600435610230816101a9565b600154906001600160a01b0390818316330361025a576001600160a01b0319909216911617600155005b60405162461bcd60e51b815260206004820152603160248201527f4665654d616e616765723a204f6e6c79207265636569766572312063616e206360448201527068616e676520697473206164647265737360781b6064820152608490fd5b5f9103126101ba57565b346101ba575f3660031901126101ba576009546040516001600160a01b039091168152602090f35b5f5b8381106102fc5750505f910152565b81810151838201526020016102ed565b90602091610325815180928185528580860191016102eb565b601f01601f1916010190565b346101ba5760203660031901126101ba57610364610350600435611488565b60405191829160208352602083019061030c565b0390f35b634e487b7160e01b5f52604160045260245ffd5b604081019081106001600160401b0382111761039757604052565b610368565b61010081019081106001600160401b0382111761039757604052565b6001600160401b03811161039757604052565b6101a081019081106001600160401b0382111761039757604052565b606081019081106001600160401b0382111761039757604052565b90601f801991011681019081106001600160401b0382111761039757604052565b604051906101cb8261039c565b604051906101cb8261037c565b6001600160601b038116036101ba57565b35906101cb8261043d565b60409060031901126101ba57604051906104728261037c565b8160043561047f816101a9565b81526020602435916104908361043d565b0152565b9181601f840112156101ba578235916001600160401b0383116101ba57602083818601950101116101ba57565b9181601f840112156101ba578235916001600160401b0383116101ba576020808501948460061b0101116101ba57565b60c03660031901126101ba57600435610509816101a9565b60403660231901126101ba57604051906105228261037c565b60243561052e816101a9565b825260443561053c8161043d565b60208301526001600160401b03916084358381116101ba57610562903690600401610494565b9060a4359485116101ba5761057e61058a9536906004016104c1565b94909360643591611710565b005b346101ba573660031901606081126101ba576040136101ba576105f85f6044356105c46105b880611375565b6001600160a01b031690565b9160206105cf61138b565b60405163bd85b03960e01b81526001600160601b03909116600482015294859081906024820190565b0381865afa938415610714578194610719575b506040516306fdde0360e01b8152908082600481875afa801561071457610656928261063e93926106f1575b50506113ff565b5f1a60f81b6001600160f81b031916602960fa1b1490565b156106b15761069861067b6106a09360018060a01b03165f52600760205260405f2090565b61068361138b565b6001600160601b03165f5260205260405f2090565b549083613bb5565b604080519182526020820192909252f35b6106ec91506106e56106e061067b6106c7611375565b6001600160a01b03165f90815260046020526040902090565b611421565b9083613e2f565b6106a0565b61070d92503d8091833e6107058183610402565b8101906113a1565b5f80610637565b610f29565b61073b91945060203d8111610742575b6107338183610402565b810190610f1a565b925f61060b565b503d610729565b346101ba5760403660031901126101ba57600435602435600182818316156107b0575b91811c92835b61078157602083604051908152f35b8061078b91613aca565b928382821661079f575b50811c9283610772565b6107a99193613aca565b9183610795565b50670de0b6b3a764000061076c565b346101ba575f806003193601126107ee5733815260036020526107ea604082208281549155336138ef565b5080f35b80fd5b60a03660031901126101ba57602435610809816101a9565b6001600160401b03906064358281116101ba5761082a903690600401610494565b6084929192359384116101ba5761084861058a9436906004016104c1565b9390926004355f52600560205260405f2090604051916108678361037c565b546001600160a01b038116835260a01c6020830152604435916122c0565b346101ba5760203660031901126101ba5760206108a3600435613426565b604051908152f35b346101ba575f3660031901126101ba576040517f00000000000000000000000000000000000000000000000000000000000000006001600160a01b03168152602090f35b346101ba5760203660031901126101ba576004355f5260056020526040805f205481519060018060a01b038116825260a01c6020820152f35b90816101009103126101ba5790565b9060e06003198301126101ba5761094c6101be565b9160243591604435916001600160401b03916064358381116101ba578261097591600401610928565b926084358181116101ba578361098d91600401610494565b9390939260a4358381116101ba57826109a891600401610494565b9390939260c4359182116101ba576109c2916004016104c1565b9091565b61058a6109d236610937565b98979097969196959295949394611cc8565b6109ed36610937565b97805f98929897939796949652600560205260405f2060405190610a108261037c565b546001600160a01b03811680835260a09190911c6020830152610a715750610a3b60a0840184610f34565b15610a6c57355f1a60f81b6001600160f81b031916602960fa1b03610a635761058a99611907565b61058a99611cc8565b610f69565b93505092505061058a96611710565b61058a610a8c36610937565b98979097969196959295949394611907565b346101ba575f3660031901126101ba57602060095460a01c604051908152f35b9060c06003198301126101ba57610ad482610459565b91604435610ae1816101a9565b91606435916001600160401b03916084358381116101ba5782610b0691600401610494565b9390939260a4359182116101ba576109c2916004016104c1565b61058a610b2c36610abe565b959490949391936122c0565b346101ba5760203660031901126101ba57600435610b55816101a9565b60018060a01b03165f526006602052602060405f2054604051908152f35b346101ba5760403660031901126101ba57610be56040610b9236610459565b8051610bb4906020906001600160a01b03165b9201516001600160601b031690565b825163152a902d60e11b81526001600160601b0390911660048201525f602482015292839190829081906044820190565b03915afa80156107145761058a915f91610c1d575b506001600160a01b0381165f9081526003602052604081208054919055906138ef565b610c3e915060403d8111610c45575b610c368183610402565b810190611fca565b505f610bfa565b503d610c2c565b346101ba5760403660031901126101ba57610ca2600435610c6c816101a9565b60243590610c798261043d565b60018060a01b03165f52600460205260405f20906001600160601b03165f5260205260405f2090565b80546001820154600283015460038401546004909401546040805194855260208501939093526001600160601b0380831693850193909352606082811c84168186015260c092831c608086015283861660a08601529490941c9091169082015260e081019190915261010090f35b346101ba5760603660031901126101ba576024356044356001600160401b0381116101ba57610d43903690600401610928565b5f9182610d62610d5d6004355f52600560205260405f2090565b610ef5565b805190916001600160a01b039182168181610df4575b5050610dac610d93610d8d60a0880188610f34565b90610f7d565b355f1a60f81b6001600160f81b031916602960fa1b1490565b15610ddb576106a094506020610ba56106989493610683931660018060a01b03165f52600760205260405f2090565b5050506106e5610def6106ec93369061128c565b613969565b91509550610e3d602087610e11828701516001600160601b031690565b60405163bd85b03960e01b81526001600160601b03909116600482015292839190829081906024820190565b03915afa9182156107145791610e57575b50945f80610d78565b610e6f915060203d8111610742576107338183610402565b5f610e4e565b346101ba5760603660031901126101ba5760206108a3604435602435600435613bb5565b61058a610ea536610abe565b95949094939193611fe9565b346101ba575f3660031901126101ba576020600254604051908152f35b346101ba575f3660031901126101ba575f546040516001600160a01b039091168152602090f35b90604051610f028161037c565b91546001600160a01b038116835260a01c6020830152565b908160209103126101ba575190565b6040513d5f823e3d90fd5b903590601e19813603018212156101ba57018035906001600160401b0382116101ba57602001918160051b360383136101ba57565b634e487b7160e01b5f52603260045260245ffd5b9015610a6c5790565b9060011015610a6c5760200190565b9060021015610a6c5760400190565b9190811015610a6c5760051b0190565b6001600160401b03811161039757601f01601f191660200190565b929192610fdb82610fb4565b91610fe96040519384610402565b8294818452818301116101ba578281602093845f960137010152565b9080601f830112156101ba5781602061102093359101610fcf565b90565b6001600160401b0381116103975760051b60200190565b9080601f830112156101ba57602090823561105481611023565b936110626040519586610402565b818552838086019260051b8201019283116101ba578301905b828210611089575050505090565b8135815290830190830161107b565b9080601f830112156101ba5760209082356110b281611023565b936110c06040519586610402565b818552838086019260051b8201019283116101ba578301905b8282106110e7575050505090565b813581529083019083016110d9565b92919261110282611023565b60409261111184519283610402565b819581835260208093019160061b8401938185116101ba57915b84831061113a57505050505050565b85838303126101ba5783869182516111518161037c565b853561115c816101a9565b81528286013561116b8161043d565b8382015281520192019161112b565b9080601f830112156101ba57816020611020933591016110f6565b35906001600160401b03821682036101ba57565b9080601f830112156101ba5781359160206111c384611023565b936040936111d385519687610402565b818652828087019260081b850101938185116101ba578301915b8483106111fd5750505050505090565b610100838303126101ba57836101009187516112188161039c565b85358152828601358382015261122f89870161044e565b89820152606061124081880161044e565b908201526080611251818801611195565b9082015260a061126281880161044e565b9082015260c061127381880161044e565b9082015260e080870135908201528152019201916111ed565b919091610100818403126101ba576112a2610423565b926112ac826101cd565b84526112ba6020830161044e565b60208501526001600160401b0360408301358181116101ba57826112df918501611005565b604086015260608301358181116101ba57826112fc918501611005565b606086015260808301358181116101ba578261131991850161103a565b608086015260a08301358181116101ba5782611336918501611098565b60a086015260c08301358181116101ba578261135391850161117a565b60c086015260e08301359081116101ba5761136e92016111a9565b60e0830152565b600435611020816101a9565b35611020816101a9565b6024356110208161043d565b356110208161043d565b6020818303126101ba578051906001600160401b0382116101ba570181601f820112156101ba5780516113d381610fb4565b926113e16040519485610402565b818452602082840101116101ba5761102091602080850191016102eb565b602081519101519060208110611413575090565b5f199060200360031b1b1690565b9060405161142e8161039c565b60e060048294805484526001810154602085015260028101546001600160601b03908181166040870152818160601c16606087015260c01c6080860152600382015481811660a087015260601c1660c08501520154910152565b6001600160a01b0381165f9081526006602052604090205461152e575f6114bd610d5d611506935f52600560205260405f2090565b80516114da90602090610ba5906105b8906001600160a01b031681565b6040516303a24d0760e21b81526001600160601b03909116600482015292839190829081906024820190565b03915afa908115610714575f9161151b575090565b611020913d8091833e6107058183610402565b5060405161153b816103cb565b61017d81527f646174613a6170706c69636174696f6e2f6a736f6e3b6261736536342c65794a60208201527f755957316c496a6f67496b746864476c695a5767694c434a6b5a584e6a636d6c60408201527f7764476c766269493649434a4f6232347464484a68626e4e6d5a584a68596d7860608201527f6c49697769615731685a3255694f6941695a474630595470706257466e5a533960808201527f7a646d6372654731734f324a68633255324e43785153453479576e6c434d324660a08201527f58556a426852444270546c525a4d306c70516d396156327875595568524f556c60c08201527f7156544a4f65556c6e5a55637863324a7554546c4a625767775a4568424e6b7860e08201527f354f544e6b4d324e315a48704e6457497a536d354d656b6c3354555242646d4d6101008201527f7a576d354a616a51345a4564574e475244516a525155306b7854554e5661556c6101208201527f49617a6c4a616d4e33536c4e4a5a325248566a526b517a466f596d314f6232496101408201527f7a53546c4a62544677576b645363317054535374544d6b59775956644b6247466101608201527f4564335a6b523159305a4551304f45777a546a4a61656a5139496e303d00000061018082015290565b81516040516306fdde0360e01b815292979695949392905f90829060049082906001600160a01b03165afa908115610714576117579161063e915f9161176e575b506113ff565b15611765576101cb96611fe9565b6101cb966122c0565b611781913d8091833e6107058183610402565b5f611751565b1561178e57565b60405162461bcd60e51b815260206004820152602960248201527f466163746f7279313135353a204f6e6c79207075626c696320636f6c6c6563746044820152681030b63637bbb2b21760b91b6064820152608490fd5b634e487b7160e01b5f52601160045260245ffd5b6001600160601b03908116610e0f19019190821161181357565b6117e5565b6001600160601b03918216908216039190821161181357565b908160209103126101ba57516110208161043d565b903590601e19813603018212156101ba57018035906001600160401b0382116101ba57602001918160061b360383136101ba57565b906202a3006001600160601b038093160191821161181357565b903590601e19813603018212156101ba57018035906001600160401b0382116101ba576020019181360383136101ba57565b908060209392818452848401375f828201840152601f01601f1916010190565b6040906001600160601b03611020959316815281602082015201916118c7565b9893946119369198939697929561192f61192a610d93610d8d60a08c018c610f34565b611787565b878a612625565b61194c6119466080870187610f34565b90612bb1565b61195585612e4c565b6001600160a01b038116969091602087810192916119ae9161198561197986611397565b60095460a01c90611818565b604051631d24662960e31b81526001600160601b03909116600482015292839081906024820190565b03818d5afa918215610714575f92611c05575b50611ac26119f16119e46119ec8c6119dc60c0820182611846565b939091611381565b9236916110f6565b61351e565b95898c85611a53611a47611a42611a3c611a3585611a1f8860018060a01b03165f52600760205260405f2090565b906001600160601b03165f5260205260405f2090565b5487613b41565b9b611397565b61187b565b6001600160601b031690565b4211611bdf575b505050611a77611a68610430565b6001600160a01b039092168252565b6001600160601b03841660208201525b611a998d5f52600560205260405f2090565b815160209092015160a01b6001600160a01b0319166001600160a01b0392909216919091179055565b611acf60408a018a611895565b908b3b156101ba57611afc918c5f9283604051809681958294634312207160e11b84528b600485016118e7565b03925af1801561071457611bcc575b50893b156101ba57604051635944c75360e01b81526001600160601b03831660048201526001600160a01b03861660248201526101f46044820152975f89606481838f5af19a8b15610714576101cb9d6001600160601b03611b968f97611bad9f8f611ba39f9a611b9e9b611b8593611bb3575b50613ec8565b611b8e8a613426565b963691610fcf565b951691613300565b613631565b6060810190611895565b90613466565b80611bc0611bc6926103b8565b806102b9565b5f611b7f565b80611bc0611bd9926103b8565b5f611b0b565b611a1f611bfc9260018060a01b03165f52600760205260405f2090565b55898c85611a5a565b611c2791925060203d8111611c2e575b611c1f8183610402565b810190611831565b905f6119c1565b503d611c15565b15611c3c57565b60405162461bcd60e51b815260206004820152602a60248201527f466163746f7279313135353a204f6e6c79207072697661746520636f6c6c65636044820152693a1030b63637bbb2b21760b11b6064820152608490fd5b90926001600160601b03608093611020979560018060a01b03168452166020830152604082015281606082015201916118c7565b9194611cf591989396999461192f611cf0611cec610d93610d8d60a08d018d610f34565b1590565b611c35565b611d056119466080870187610f34565b611d1785611d1281611381565b612f9b565b956001600160a01b03871690611d5f6020611d366119798a8301611397565b604051631d24662960e31b81526001600160601b03909116600482015291829081906024820190565b0381865afa908115610714575f91611f2f575b50611d916119ec611d8660c08b018b611846565b91906119e48c611381565b93611dc7611da2610def368c61128c565b9a611dae611a68610430565b6001600160601b0384166020820152611a87818d612c83565b611dd460408a018a611895565b90853b156101ba57604051634312207160e11b8152915f9183918291611dff919088600485016118e7565b038183895af1801561071457611f1c575b5060c08a01516001600160601b0316843b156101ba57604051635944c75360e01b81526001600160601b0384811660048301526001600160a01b03881660248301529190911660448201525f8160648183895af1801561071457611f09575b50611e7a898c613ec8565b833b156101ba5787926040519c8d94859463731133e960e01b86526004860194611ea395611c94565b03815a5f948591f195861561071457611ef0611ee46080611ed584611ba3996101cb9e611bad9d611ef6575b50613d6a565b9301516001600160401b031690565b6001600160401b031690565b906137ca565b80611bc0611f03926103b8565b5f611ecf565b80611bc0611f16926103b8565b5f611e6f565b80611bc0611f29926103b8565b5f611e10565b611f47915060203d8111611c2e57611c1f8183610402565b5f611d72565b15611f5457565b60405162461bcd60e51b815260206004820152602b60248201527f546f6b656e206973206e6f7420617661696c61626c6520696e207075626c696360448201526a1031b7b63632b1ba34b7b760a91b6064820152608490fd5b906202a300820180921161181357565b9190820180921161181357565b91908260409103126101ba5760208251611fe3816101a9565b92015190565b8051939695949293919291612006906001600160a01b03166105b8565b93602060018060a01b038616920161205761202882516001600160601b031690565b6040805163bd85b03960e01b81526001600160601b0390921660048301529a9091602090839081906024820190565b0381885afa918215610714575f9261222d575b508a516306fdde0360e01b8152955f87600481895afa9485156107145761218999611b96996001600160601b038f9a87856121276121178e61214b9c6121589f8f906120c661063e6120cb9261212e9b5f9161176e57506113ff565b611f4d565b6120ef6120ea6120e5611a4784516001600160601b031690565b61224d565b611fad565b4211806121fa575b6121c6575b50506001600160a01b03165f90815260076020526040902090565b8c516001600160601b0316610683565b5491613bb5565b9b8c96611b8e6121458b516001600160601b031690565b98613426565b516001600160601b031690565b825163152a902d60e11b81526001600160601b0390911660048201525f602482015293849190829081906044820190565b03915afa918215610714576101cb955f936121a6575b5050613631565b6121bd929350803d10610c4557610c368183610402565b50905f8061219f565b6001600160a01b0383165f90815260076020526040902090516121f291906001600160601b0316610683565b55848e6120fc565b506001600160a01b0383165f9081526007602052604090206122269082516001600160601b0316610683565b54156120f7565b61224691925060203d8111610742576107338183610402565b905f61206a565b60095460a01c81018091116118135790565b1561226657565b60405162461bcd60e51b815260206004820152602c60248201527f546f6b656e206973206e6f7420617661696c61626c6520696e2070726976617460448201526b329031b7b63632b1ba34b7b760a11b6064820152608490fd5b80516001600160a01b03165f818152600460209081526040909120920180519398979694919390926122ff916106e091906001600160601b0316610683565b926040958651996306fdde0360e01b8b525f9a8b81600481875afa90811561071457611cec61063e612343938f938461233e95926124925750506113ff565b61225f565b612381602061235987516001600160601b031690565b8a5163bd85b03960e01b81526001600160601b03909116600482015291829081906024820190565b0381875afa8015610714578588916123a0938f91612474575b50613e2f565b966123b286516001600160601b031690565b92843b15612470578c9392916123dc918b51978895869563731133e960e01b875260048701611c94565b038183855af1801561071457612405938793610bb49261245d575b50516001600160601b031690565b03915afa938415610714576101cb9794612432575b505060800151611ef0906001600160401b0316611ee4565b611ef0929450612454611ee49282608093903d10610c4557610c368183610402565b5094925061241a565b80611bc061246a926103b8565b5f6123f7565b8c80fd5b61248c915060203d8111610742576107338183610402565b5f61239a565b6124a692503d8091833e6107058183610402565b8f80610637565b156124b457565b60405162461bcd60e51b815260206004820152602a60248201527f466163746f7279313135353a2054686973206973206e6f7420746865206669726044820152691cdd0818dbdb1b1958dd60b21b6064820152608490fd5b1561251357565b60405162461bcd60e51b815260206004820152601e60248201527f466163746f7279313135353a20496e76616c6964207369676e617475726500006044820152606490fd5b908160209103126101ba575180151581036101ba5790565b939291602091612588916040875260408701916118c7565b930152565b1561259457565b60405162461bcd60e51b815260206004820152601b60248201527f466163746f7279313135353a2077726f6e6720746f6b656e20696400000000006044820152606490fd5b156125e057565b60405162461bcd60e51b815260206004820152601b60248201527f466163746f7279313135353a2077726f6e67207369676e54696d6500000000006044820152606490fd5b6020906126a79460018060a01b03906126618261265a61264d865f52600560205260405f2090565b546001600160a01b031690565b16156124ad565b61268661268161267087611381565b612679886129f8565b90848a612742565b61250c565b600954956040519788948593849363096c872360e01b855260048501612570565b039186165afa908115610714576126cb6020926101cb955f91612715575b5061258d565b01906126de6126d983611397565b6117f9565b426001600160601b039182161092836126fa575b5050506125d9565b61270691929350611397565b9160a01c9116115f80806126f2565b6127359150843d811161273b575b61272d8183610402565b810190612558565b5f6126c5565b503d612723565b5f9161279560809260209596604051878101917f19457468657265756d205369676e6564204d6573736167653a0a3332000000008352603c820152603c815261278a816103e7565b519020923691610fcf565b8481015160606040830151920151604051938452851a868401526040830152606082015282805260015afa15610714575f516001600160a01b0390811691161490565b9035601e19823603018112156101ba5701602081359101916001600160401b0382116101ba5781360383136101ba57565b9035601e19823603018112156101ba5701602081359101916001600160401b0382116101ba578160051b360383136101ba57565b81835290916001600160fb1b0383116101ba5760209260051b809284830137010190565b9035601e19823603018112156101ba5701602081359101916001600160401b0382116101ba578160061b360383136101ba57565b9190808252602080920192915f905b8282106128b2575050505090565b9091929360019085356128c4816101a9565b828060a01b031681526001600160601b03838701356128e28161043d565b168184015260409081019501939201906128a4565b9035601e19823603018112156101ba5701602081359101916001600160401b0382116101ba578160081b360383136101ba57565b9190808252602080920192915f905b828210612948575050505090565b909192936001908535815282860135838201526040808701359061296b8261043d565b6001600160601b03809216908301526060908188013561298a8161043d565b16908201526129ae608061299f818901611195565b6001600160401b031690830152565b6129cd60a06129be81890161044e565b6001600160601b031690830152565b6129dd60c06129be81890161044e565b60e0868101359082015261010090810195019392019061293a565b604051612b1f81612b11602082019460208652612a2860408401612a1b836101cd565b6001600160a01b03169052565b612a47612a376020830161044e565b6001600160601b03166060850152565b612a74612b01612af6612a5d60408501856127d8565b9390610100948560808a01526101408901916118c7565b92612ad9612abc612a9f612a8b60608901896127d8565b603f198c8a03810160a08e015298916118c7565b612aac6080890189612809565b90888c84030160c08d015261283d565b612ac960a0880188612809565b90878b84030160e08c015261283d565b90612ae760c0870187612861565b91868a850301908a0152612895565b9260e08101906128f7565b918584030161012086015261292b565b03601f198101835282610402565b51902090565b5f1981146118135760010190565b15612b3a57565b60405162461bcd60e51b815260206004820152604360248201527f466163746f7279313135353a20746f20746f6b656e206861736820686173206e60448201527f6f74206265656e206d696e746564206f6e207468652063757272656e7420636860648201526230b4b760e91b608482015260a490fd5b905f805b828110612bc25750505050565b6001600160a01b03612bea61264d612bdb848789610fa4565b355f52600560205260405f2090565b16908115159182612c0d575b50612c03612c0892612b33565b612b25565b612bb5565b9150612c42612c1d828688610fa4565b35604051809463bd85b03960e01b825281806020958695600483019190602083019252565b03915afa801561071457612c0893612c03928692612c66575b505015159250612bf6565b612c7c9250803d10610742576107338183610402565b5f80612c5b565b6001600160601b0360a0820151164210612d7757612d576080612cbb846106836020610ba56106c76101cb995160018060a01b031690565b928051845560208101516001850155612d026002612ce360408401516001600160601b031690565b95019485906001600160601b03166001600160601b0319825416179055565b612d49612d1960608301516001600160601b031690565b85546bffffffffffffffffffffffff60601b191660609190911b6bffffffffffffffffffffffff60601b16178555565b01516001600160401b031690565b81546001600160c01b031660c09190911b6001600160c01b031916179055565b60405162461bcd60e51b815260206004820152603060248201527f466163746f7279313135353a20746f6b656e2073616c652074696d652068617360448201526f081b9bdd081cdd185c9d1959081e595d60821b6064820152608490fd5b60405190612de28261037c565b600782526609682a892848a960cb1b6020830152565b60405190612e058261037c565b600282526130a960f21b6020830152565b6001600160a01b039091168152606060208201819052611020939192612e3e9184019061030c565b91604081840391015261030c565b9060a08201612e67612e61610d8d8386610f34565b35613174565b926001600160a01b0391828516853b15612e82575b50505050565b612f46612f3a94612f06612e9586611381565b91612ede612ea6610d8d888a610f34565b60405160609590951b6001600160601b0319166020860152356034808601919091528452601f1993612ed9605482610402565b6113ff565b907f0000000000000000000000000000000000000000000000000000000000000000166130db565b50612f25610d8d612f15612df8565b95612f1f88611381565b97610f34565b35604051968791602083019190602083019252565b03908101865285610402565b803b156101ba57612f71935f80946040519687958694859363b2b45df560e01b855260048501612e16565b03925af1801561071457612f88575b808080612e7c565b80611bc0612f95926103b8565b5f612f80565b60a082019291612fb8612fb1610d8d8684610f34565b3583613216565b936001600160a01b0380861690863b15612fd4575b5050505050565b612f3a9461307191612fe586611381565b9161305461302c612ff9610d8d898b610f34565b60405160609690961b6001600160601b0319166020870152356034808701919091528552601f1994612ed9605482610402565b837f0000000000000000000000000000000000000000000000000000000000000000166130db565b50166130c757612f25610d8d612f15612df8565b612f1f88611381565b803b156101ba5761309c935f80946040519687958694859363b2b45df560e01b855260048501612e16565b03925af18015610714576130b4575b80808080612fcd565b80611bc06130c1926103b8565b5f6130ab565b612f25610d8d6130d5612dd5565b95613068565b6e5af43d82803e903d91602b57fd5bf390763d602d80600a3d3981f3363d3d373d3d3d363d7300000062ffffff8260881c16175f5260781b17602052603760095ff5906001600160a01b0382161561312f57565b60405162461bcd60e51b815260206004820152601760248201527f455243313136373a2063726561746532206661696c65640000000000000000006044820152606490fd5b6043613198605592604051905f6020830152603482015260348152612ed9816103e7565b6040513060388201526f5af43d82803e903d91602b57fd5bf3ff60248201527f00000000000000000000000000000000000000000000000000000000000000006001600160a01b03166014820152733d602d80600a3d3981f3363d3d373d3d3d363d73815260588101919091526037600c8201206078820152012090565b60405160609190911b6001600160601b0319166020820152603481019190915260559060439061319890612ed98160548101612b11565b6040519061325a826103e7565b600282526040366020840137565b805115610a6c5760200190565b8051821015610a6c5760209160051b010190565b9081518082526020808093019301915f5b8281106132a8575050505090565b83518552938101939281019260010161329a565b926132e461102095936132f29360018060a01b03168652608060208701526080860190613289565b908482036040860152613289565b91606081840391015261030c565b9093919261330c61324d565b9261331561324d565b94845160011015610a6c575f604086015261332f85613268565b52845160011015610a6c57604085015261334884613268565b526001600160a01b031690813b156101ba575f809461337d60405197889687958694630fbfeffd60e11b8652600486016132bc565b03925af180156107145761338e5750565b80611bc06101cb926103b8565b9190820391821161181357565b90605f820291808304605f149015171561181357565b906402540be4009182810292818404149015171561181357565b90670de0b6b3a76400009182810292818404149015171561181357565b8181029291811591840414171561181357565b8115613412570490565b634e487b7160e01b5f52601260045260245ffd5b60095460a01c420390428211611813576301e13380808301809311611813576305f5e1009283810293818504149015171561181357611020920490613408565b8161347057505050565b7fe3efb4090b64f6dead06906e59a91359e0c1ca9cad88a633d749431442e5bebf916134a96040519283926020845260208401916118c7565b0390a2565b908160209103126101ba5751611020816101a9565b60208082019080835283518092528060408094019401925f905b8382106134ec57505050505090565b845180516001600160a01b031687528301516001600160601b03168684015294850194938201936001909101906134dd565b80518061352a57505090565b909150600103613551576105b861354361102092613268565b51516001600160a01b031690565b60206135885f9261356b6105b8855460018060a01b031690565b906040519485809481936326b8692f60e21b8352600483016134c3565b03925af1908115610714575f916135a7575b506001600160a01b031690565b6135c8915060203d81116135ce575b6135c08183610402565b8101906134ae565b5f61359a565b503d6135b6565b156135dc57565b60405162461bcd60e51b815260206004820152601c60248201527f4665654d616e616765723a20696e73756666696369656e7420466565000000006044820152606490fd5b9190811015610a6c5760061b0190565b909392613640823410156135d5565b61365561364c836133a8565b620186a0900490565b925f90815b8381106137465750825f5b8181106136d857505050505f5b8181106136ad5750506101cb929350803411613693575b5060025401600255565b6136a06136a6913461339b565b336138ef565b505f613689565b6001600160a01b0386165f9081526003602052604090208054850190556136d390612b25565b613672565b612c038261371e86613719613713611a47602061370d89613706613701828f9e61373f9f613621565b611381565b988d613621565b01611397565b8c6133f5565b613408565b6001600160a01b039091165f90815260036020526040902080549091019055565b8390613665565b9161376761376d91613761611a47602061370d888a89613621565b90611fbd565b92612b25565b61365a565b1561377957565b60405162461bcd60e51b8152602060048201526024808201527f4665654d616e616765723a204d6178696d756d20646973636f756e74206973206044820152633130302560e01b6064820152608490fd5b939192906137da853410156135d5565b846137fe575b505050508034116137ee5750565b6136a06137fb913461339b565b50565b6001600160601b031691613816612710841115613772565b5f928061383f575b5050509061382f613835928461339b565b906138ef565b505f8080806137e0565b6138589192935061385090866133f5565b612710900490565b915f805b8381106138c957505f5b83811061388e57505050509061382f826138866138359460025401600255565b91925f61381e565b80612c038461371e856137196138be611a47602061370d898e6138b86137016138c49e838d613621565b99613621565b8b6133f5565b613866565b906138e46138ea91613761611a47602061370d878a8a613621565b91612b25565b61385c565b5f918291829182916001600160a01b03165af13d15611020573d61391281610fb4565b906139206040519283610402565b81525f60203d92013e90565b604051906139398261039c565b8160e05f918281528260208201528260408201528260608201528260808201528260a08201528260c08201520152565b61397161392c565b5060e0908101805151918215613a48575f5b838110613a2557505f5b8381106139f15760405162461bcd60e51b815260206004820152602f60248201527f4665654d616e616765723a2050726963696e67206973206e6f7420736574206f60448201526e37103a3434b99031b430b4b724b21760891b6064820152608490fd5b816139fd828551613275565b51015115613a1357613a0e90612b25565b61398d565b919050613a21925051613275565b5190565b4682613a32838651613275565b51015114613a1357613a4390612b25565b613983565b60405162461bcd60e51b815260206004820152601f60248201527f4665654d616e616765723a2050726963696e67206973206e6f74207365742e006044820152606490fd5b9060018083815b613a9d57505050565b80613aa791613aca565b91818116613ab9575b811c9182613a94565b9382613ac491613aca565b93613ab0565b5f19828209828202908180821091039381850393670de0b6b3a764000091829109916706f05b59d3b1ffff83119514613b39578310156101ba577faccb18165bd6fe31ae1cf318dc5b51eee0e1ba569b88cd74c1773b91fac1066992828211900360ee1b910360121c17020190565b925050040190565b9080613b515750611020906133be565b808211613b625750611020906133be565b613b6b826133be565b918181039081116118135781613ba3613b9b613b96670de0b6b3a764000095613719613ba8966133d8565b613a8d565b60021c6133be565b6133f5565b0481018091116118135790565b909180613bc7575050611020906133be565b808211613c3d5780613bd98484611fbd565b11613be9575050611020906133be565b613c2f81613ba3613c2a613c24613b9684613719613c1f61376199613c1a8d613c146110209f6133be565b9d611fbd565b61339b565b6133d8565b60021c90565b6133be565b670de0b6b3a7640000900490565b8080928180613c4b876133be565b96613c569084611fbd565b90613c609161339b565b613c69906133d8565b90613c7391613408565b613c7c90613a8d565b92613c869161339b565b613c8f906133d8565b90613c9991613408565b613ca290613a8d565b613cab9161339b565b60021c613cb7906133be565b90613cc1916133f5565b670de0b6b3a7640000900461102091611fbd565b15613cdc57565b60405162461bcd60e51b8152602060048201526024808201527f466163746f7279313135353a204d6178696d756d20737570706c7920726561636044820152633432b21760e11b6064820152608490fd5b81810292915f8212600160ff1b82141661181357818405149015171561181357565b9190915f838201938412911290801582169115161761181357565b6001600160601b036060830151164211613dda57613dc782613da7613d9f611a476040613dcd9701516001600160601b031690565b841115613cd5565b6020613dbe613db78584516133f5565b94806133f5565b91015190613d2d565b90613d4f565b5f81121561102057505f90565b60405162461bcd60e51b815260206004820152602760248201527f466163746f7279313135353a20746f6b656e2073616c652074696d6520697320604482015266195e1c1a5c995960ca1b6064820152608490fd5b6001600160601b036060840151164211613dda57613dcd926020613dbe83613e7b613e5d87613dc797611fbd565b613e74611a4760408801516001600160601b031690565b1015613cd5565b613eae613ea7613e8c8887516133f5565b97613ea1613e9a8286611fbd565b9185611fbd565b906133f5565b91806133f5565b9061339b565b81604051928392833781015f815203902090565b90613ed281611381565b613ee8613ee26060840184611895565b90613eb4565b5f916001600160a01b0316847fc0d62261ee30fa727eab11180362380f5a2d6af2c9ec2b14537843182c7c58268480a460808201613f268184610f34565b919050825b828110613feb575050507fb237134d29775150b1edf87af1dc343262244af7cbb474cfc64cb6e8824af663613fce60a08401613f678186610f34565b9590508515613fe557613f7d610d8d8383610f34565b35945b6001871115613fdc576002613f9e613f988585610f34565b90610f86565b35975b1115613fd35750613fbb91613fb591610f34565b90610f95565b35945b6040519081529081906020820190565b0390a4565b91505094613fbe565b60028197613fa1565b84613f80565b8061400361402e92613ffd8589610f34565b90610fa4565b35877f65327253f8d67c2e23cb4dfab28ca7437b04e9098cf4e985073d76df25209ad48780a3612b25565b613f2b56fea264697066735822122052c2ea515d18bc5c775994b2428c2df62a6cc7753b006f4f83ab7f5e712f7b3b64736f6c6343000815003360a0346200010757602081016001600160401b03811182821017620000f3576040525f809152620000326002546200010b565b601f8111620000b2575b50806002556200004e6004546200010b565b601f81116200008e575b5f60045533608052604051612b7690816200015f8239608051818181610eb9015281816110a4015281816115a10152611d490152f35b601f6020836004620000aa955220910160051c81019062000146565b5f8062000058565b60028252620000ec90601f0160051c7f405787fa12a823e0f2b7631cc41b3ba8828b3321ca811111fa75cd3aa3bb5ace9081019062000146565b5f6200003c565b634e487b7160e01b5f52604160045260245ffd5b5f80fd5b90600182811c921680156200013b575b60208310146200012757565b634e487b7160e01b5f52602260045260245ffd5b91607f16916200011b565b81811062000152575050565b5f81556001016200014656fe60806040526004361015610011575f80fd5b5f3560e01c8062fdd58e1461219d57806301ffc9a71461211557806306fdde031461206d5780630e89341c1461203a5780631f7fdffa14611cc65780632a55205a14611c1c5780632eb2c2d6146118805780634e1273f4146116e35780634f558e79146116b75780635944c753146115655780636b20c4541461132e578063731133e91461105e578063862440e214610e655780638da5cb5b14610e3957806395d89b4114610d58578063a22cb46514610c78578063b2b45df5146107f6578063bd85b039146107cc578063e923314814610762578063e985e9c514610710578063f242432a146103105763f5298aca1461010a575f80fd5b3461030c57606036600319011261030c576101236121cc565b60249060448035916001600160a01b031690833533831480156102e7575b61014a9061248e565b821592610157841561275b565b61016082612736565b9161016a86612736565b945f6040516101788161224b565b52610290575b5f5b8351811015610214576101938185612466565b5161019e8288612466565b5190805f526003602081815260405f2054928484106101d357906101ce95949392915f52520360405f2055612458565b610180565b506084905f80516020612b218339815191528a60288f6040519462461bcd60e51b8652600486015284015282015267616c537570706c7960c01b6064820152fd5b5f838389818452836020526040842083855260205280604085205461023b828210156127b3565b838652856020526040862085875260205203604085205560405191825260208201527fc3d58168c5ae7397731d063d5bbf3d657854427343f4c083240f7aacaa2d0f6260403392a461028e60405161224b565b005b94919592905f5b87518110156102dc57806102ae6102d79288612466565b516102b9828b612466565b515f5260036020526102d060405f209182546125aa565b9055612458565b610297565b50909295919461017e565b50825f52600160205260405f20335f5260205261014a60ff60405f2054169050610141565b5f80fd5b3461030c5760a036600319011261030c576103296121cc565b6103316121e2565b6084356001600160401b03811161030c57610350903690600401612387565b6001600160a01b039190838316331480156106e9575b61036f9061248e565b8282161561037d81156124f1565b610388604435612736565b90610394606435612736565b90858716156106ae575b61060a575b6044355f525f60205260405f208587165f5260205260405f20546103cb60643582101561254b565b6044355f90815260208181526040808320898b1684529091528082206064359384900390558688168252902080549091610404916125aa565b90556040516044358152606435602082015285851690868816907fc3d58168c5ae7397731d063d5bbf3d657854427343f4c083240f7aacaa2d0f6260403392a482516105b1575b5050813b61045557005b6020916104a0915f6040519586809581948363f23a6e6160e01b9b8c85523360048601521660248401526044356044840152606435606484015260a0608484015260a48301906122a8565b0393165af15f9181610580575b50610519576104ba612659565b6308c379a0146104e2575b60405162461bcd60e51b8152806104de600482016126e1565b0390fd5b6104ea612674565b806104f557506104c5565b60405162461bcd60e51b8152602060048201529081906104de9060248301906122a8565b6001600160e01b0319160361052a57005b60405162461bcd60e51b815260206004820152602860248201527f455243313135353a204552433131353552656365697665722072656a656374656044820152676420746f6b656e7360c01b6064820152608490fd5b6105a391925060203d6020116105aa575b61059b8183612266565b810190612639565b90836104ad565b503d610591565b5f80516020612b01833981519152916106006105f26105e4936040519485943386526080602087015260808601906123a5565b9084820360408601526123a5565b8281036060840152856122a8565b0390a1848061044b565b94919390925f5b84518110156106a3576106248186612466565b51906106308189612466565b51825f52600360205260405f20548181106106605761065b935f5260036020520360405f2055612458565b610611565b60405162461bcd60e51b815260206004820152602860248201525f80516020612b21833981519152604482015267616c537570706c7960c01b6064820152608490fd5b5092909391946103a3565b9491939095925f5b85518110156106dd57806106cd6106d8928a612466565b516102b98289612466565b6106b6565b5092959093919461039e565b508284165f52600160205260405f20335f5260205261036f60ff60405f2054169050610366565b3461030c57604036600319011261030c576107296121cc565b6107316121e2565b9060018060a01b038091165f52600160205260405f2091165f52602052602060ff60405f2054166040519015158152f35b3461030c5760208060031936011261030c576001600160601b03600435818116810361030c575b81811690815f526003845260405f2054156107c257508181146107ae57600101610789565b634e487b7160e01b5f52601160045260245ffd5b6040519216825250f35b3461030c57602036600319011261030c576004355f526003602052602060405f2054604051908152f35b3461030c57606036600319011261030c5761080f6121cc565b6001600160401b039060243582811161030c57610830903690600401612387565b9160443581811161030c57610849903690600401612387565b9060069081549260ff8460081c161595868097610c6b575b8015610c54575b15610bf857600194878660ff198316178655610be7575b508051838111610adb57806108956009546121f8565b92601f93848111610b79575b50602090848311600114610afa575f92610aef575b50505f19600383901b1c191690861b176009555b8151928311610adb5782916108e0600a546121f8565b828111610a6b575b5060209183116001146109ec575f926109e1575b50505f19600383901b1c191690831b17600a555b80549260ff8460081c16156109885762010000600160b01b0360109190911b1662010000600160b01b03198416811782559361094857005b610100600160b01b031990921690921790556040519081527f7f26b83ff96e1f2b6a682f133852f6798a09c465da95921460cefb384740249890602090a1005b60405162461bcd60e51b815260206004820152602b60248201527f496e697469616c697a61626c653a20636f6e7472616374206973206e6f74206960448201526a6e697469616c697a696e6760a81b6064820152608490fd5b0151905086806108fc565b90859350601f19831691600a5f527fc65a7bb8d6351c1cf70c95a316cc6a92839c986682d98bc35f958f4883f9d2a8925f5b818110610a5357508411610a3b575b505050811b01600a55610910565b01515f1960f88460031b161c19169055868080610a2d565b82840151855588969094019360209384019301610a1e565b90919250600a5f527fc65a7bb8d6351c1cf70c95a316cc6a92839c986682d98bc35f958f4883f9d2a88380860160051c82019260208710610ad2575b91869589929594930160051c01915b828110610ac45750506108e8565b5f8155869550889101610ab6565b92508192610aa7565b634e487b7160e01b5f52604160045260245ffd5b0151905089806108b6565b90889350601f1983169160095f527f6e1540171b6c0c960b71a7020d9f60077f6af931a8bbf590da0223dacf75c7af925f5b818110610b6157508411610b49575b505050811b016009556108ca565b01515f1960f88460031b161c19169055898080610b3b565b8284015185558b969094019360209384019301610b2c565b90915060095f527f6e1540171b6c0c960b71a7020d9f60077f6af931a8bbf590da0223dacf75c7af8480850160051c82019260208610610bde575b918a91869594930160051c01915b828110610bd05750506108a1565b5f81558594508a9101610bc2565b92508192610bb4565b61ffff19166101011784558761087f565b60405162461bcd60e51b815260206004820152602e60248201527f496e697469616c697a61626c653a20636f6e747261637420697320616c72656160448201526d191e481a5b9a5d1a585b1a5e995960921b6064820152608490fd5b50303b1580156108685750600160ff861614610868565b50600160ff861610610861565b3461030c57604036600319011261030c57610c916121cc565b6024359081151580920361030c576001600160a01b031690338214610d0157335f52600160205260405f20825f5260205260405f2060ff1981541660ff83161790556040519081527f17307eab39ab6107e8899845ad3d59bd9653f200f220920489ca2b5937696c3160203392a3005b60405162461bcd60e51b815260206004820152602960248201527f455243313135353a2073657474696e6720617070726f76616c20737461747573604482015268103337b91039b2b63360b91b6064820152608490fd5b3461030c575f36600319011261030c57604051600a545f82610d79836121f8565b918282526020936001908582821691825f14610e19575050600114610dbe575b50610da692500383612266565b610dba6040519282849384528301906122a8565b0390f35b849150600a5f527fc65a7bb8d6351c1cf70c95a316cc6a92839c986682d98bc35f958f4883f9d2a8905f915b858310610e01575050610da6935082010185610d99565b80548389018501528794508693909201918101610dea565b60ff191685820152610da695151560051b8501019250879150610d999050565b3461030c575f36600319011261030c5760065460405160109190911c6001600160a01b03168152602090f35b3461030c57604036600319011261030c576001600160401b0360043560243582811161030c573660238201121561030c5780600401359083821161030c57366024838301011161030c57610ef191610ee7337f00000000000000000000000000000000000000000000000000000000000000006001600160a01b03161461280b565b6024369201612342565b91815f526020906005825260405f20908451908111610adb57610f1482546121f8565b601f811161101b575b5082601f8211600114610f985781907f6bb7ff708619ba0610cba295a58592e0451dee2622938c8755667688daf3529b95965f92610f8d575b50508160011b915f199060031b1c19161790555b610f73836128c3565b90610f886040519282849384528301906122a8565b0390a2005b015190508680610f56565b601f19821695835f52845f20965f5b8181106110045750917f6bb7ff708619ba0610cba295a58592e0451dee2622938c8755667688daf3529b969791846001959410610fec575b505050811b019055610f6a565b01515f1960f88460031b161c19169055868080610fdf565b838301518955600190980197928601928601610fa7565b825f52835f20601f830160051c810191858410611054575b601f0160051c01905b8181106110495750610f1d565b5f815560010161103c565b9091508190611033565b3461030c57608036600319011261030c576110776121cc565b6064356001600160401b03811161030c57611096903690600401612387565b6001600160a01b036110cb337f000000000000000000000000000000000000000000000000000000000000000083161461280b565b80831615916110da831561286d565b6110e5602435612736565b916110f1604435612736565b945f5b845181101561111b578061110b6111169289612466565b516102b98288612466565b6110f4565b508593856112cf575b6024355f526020945f865260405f208484165f52865260405f2061114b60443582546125aa565b90556040516024358152604435878201525f858516917fc3d58168c5ae7397731d063d5bbf3d657854427343f4c083240f7aacaa2d0f6260403392a48451611285575b5050803b61119857005b5f91849160405180948193826111e063f23a6e6160e01b998a83523360048401528460248401526024356044840152604435606484015260a0608484015260a48301906122a8565b0393165af15f9181611266575b5061125357826111fb612659565b6308c379a01461121e5760405162461bcd60e51b8152806104de600482016126e1565b611226612674565b908161123257506104c5565b6104de60405192839262461bcd60e51b8452600484015260248301906122a8565b6001600160e01b03191603905061052a57005b61127e919250843d86116105aa5761059b8183612266565b90846111ed565b5f80516020612b01833981519152916112c56112b76105e49360405194859433865260808c87015260808601906123a5565b8281036060840152876122a8565b0390a1848061118e565b915f9391935b8351811015611324576112e88185612466565b51906112f48188612466565b51825f52600360205260405f20548181106106605761131f935f5260036020520360405f2055612458565b6112d5565b5091929092611124565b3461030c57606036600319011261030c576113476121cc565b6024906001600160401b0390823582811161030c5761136a9036906004016122e4565b91604490813590811161030c576113859036906004016122e4565b6001600160a01b03909216923384148015611540575b6113a49061248e565b83156113b0811561275b565b6113bd82518551146125b7565b5f6040516113ca8161224b565b52611514575b5f5b8151811015611466576113e58183612466565b516113f08286612466565b5190805f526003602081815260405f205492848410611425579061142095949392915f52520360405f2055612458565b6113d2565b60405162461bcd60e51b8152600481018390526028818d01525f80516020612b21833981519152818a015267616c537570706c7960c01b6064820152608490fd5b8382865f5b82518110156114d057806114826114cb9285612466565b5161148d8287612466565b5190805f5260205f815260405f20865f52815260405f2054916114b2848410156127b3565b5f525f815260405f2090865f52520360405f2055612458565b61146b565b50907f4a39dc06d4c0dbc64b70af90fd698a233a518aa5d07e595d983b8c0526c8f7fb6115065f94604051918291339583612614565b0390a461028e60405161224b565b925f9491945b8451811015611536578061110b6115319286612466565b61151a565b50929390936113d0565b50835f52600160205260405f20335f526020526113a460ff60405f205416905061139b565b3461030c57606036600319011261030c5761157e6121e2565b6044356001600160601b03811680910361030c576001600160a01b03916115c8337f000000000000000000000000000000000000000000000000000000000000000085161461280b565b612710821161165f57821691821561161a57604051926115e784612230565b8352602083019182526004355f52600860205260405f20925116906001600160601b0360a01b905160a01b161790555f80f35b60405162461bcd60e51b815260206004820152601b60248201527f455243323938313a20496e76616c696420706172616d657465727300000000006044820152606490fd5b60405162461bcd60e51b815260206004820152602a60248201527f455243323938313a20726f79616c7479206665652077696c6c206578636565646044820152692073616c65507269636560b01b6064820152608490fd5b3461030c57602036600319011261030c576004355f526003602052602060405f20541515604051908152f35b3461030c57604036600319011261030c576004356001600160401b0380821161030c573660238301121561030c57816004013590611720826122cd565b9261172e6040519485612266565b82845260209260248486019160051b8301019136831161030c57602401905b8282106118615750505060243590811161030c5761176f9036906004016122e4565b825181510361180a57825192611784846122cd565b936117926040519586612266565b8085526117a1601f19916122cd565b0136848601375f5b81518110156117f3576117ee906117de6001600160a01b036117cb8386612466565b51166117d78387612466565b51906123d8565b6117e88288612466565b52612458565b6117a9565b505050610dba6040519282849384528301906123a5565b60405162461bcd60e51b815260048101839052602960248201527f455243313135353a206163636f756e747320616e6420696473206c656e677468604482015268040dad2e6dac2e8c6d60bb1b6064820152608490fd5b81356001600160a01b038116810361030c57815290840190840161174d565b3461030c5760031960a03682011261030c5761189a6121cc565b906118a36121e2565b6044908135926001600160401b039384811161030c576118c79036906004016122e4565b6064803586811161030c576118e09036906004016122e4565b94608496873590811161030c576118fb903690600401612387565b6001600160a01b039489861633148015611bf5575b6119199061248e565b61192685518951146125b7565b8587161561193481156124f1565b868b1615611bb3575b611b04575b5f5b85518110156119cb578061195b6119c69288612466565b518c611967838d612466565b5191805f52826020925f845260405f208d82165f52845260405f2054906119908383101561254b565b835f525f85528d60405f2091165f5284520360405f20555f525f815260405f20908a8c165f52526102d060405f209182546125aa565b611944565b50888a989796949789604051887f4a39dc06d4c0dbc64b70af90fd698a233a518aa5d07e595d983b8c0526c8f7fb89808d1694169280611a0d87339583612614565b0390a48351611ab1575b873b611a1f57005b60405198899788968863bc197c8160e01b9d8e8a523360048b0152166024890152870160a0905260a48701611a53916123a5565b90848783030190870152611a66916123a5565b918483030190840152611a78916122a8565b03921691815a6020945f91f15f9181611a985750610519576104ba612659565b6105a391925060203d81116105aa5761059b8183612266565b5f80516020612b018339815191526040513381526080602082015280611afc611aee611ae0608084018d6123a5565b8381036040850152866123a5565b8281036060840152886122a8565b0390a1611a17565b979694905f9993999692965b8551811015611ba357611b238187612466565b51611b2e8289612466565b5190805f5260206003815260405f205491838310611b6357611b5e949392916003915f52520360405f2055612458565b611b10565b508b9067616c537570706c7960c01b8f5f80516020612b218339815191528e6040519462461bcd60e51b8652600486015260286024860152840152820152fd5b5090949697989298959195611942565b9996949895939291905f5b8a51811015611be657808b6102b982611bda611be1958f612466565b5192612466565b611bbe565b5090919293959894969961193d565b50858a165f52600160205260405f20335f5260205261191960ff60405f2054169050611910565b3461030c57604036600319011261030c576024356004355f52600860205260405f209060405191611c4c83612230565b546001600160a01b0380821680855260a09290921c6020850152929015611ca4575b6001600160601b03602082015116918281029281840414901517156107ae57604092612710915116918351928352046020820152f35b50604051611cb181612230565b600754838116825260a01c6020820152611c6e565b3461030c5760031960803682011261030c57611ce06121cc565b602491906001600160401b0390833582811161030c57611d049036906004016122e4565b91604494853582811161030c57611d1f9036906004016122e4565b95606492833590811161030c57611d3a903690600401612387565b926001600160a01b03611d70337f000000000000000000000000000000000000000000000000000000000000000083161461280b565b851693841597611d80891561286d565b611d8d88518b51146125b7565b5f5b8851811015611db65780611da6611db1928d612466565b516102b9828c612466565b611d8f565b508998979697611f8c575b5f5b8751811015611e0a5780611dda611e05928c612466565b51611de5828b612466565b515f5260205f815260405f20908a5f52526102d060405f209182546125aa565b611dc3565b5090919397959296855f6040517f4a39dc06d4c0dbc64b70af90fd698a233a518aa5d07e595d983b8c0526c8f7fb339180611e468d8b83612614565b0390a48251611f47575b3b611e5757005b604051958694859463bc197c8160e01b998a87523360048801528b87015f9052860160a0905260a48601611e8a916123a5565b90838683030190860152611e9d916123a5565b90838203016084840152611eb0916122a8565b03815a6020945f91f15f9181611f27575b506112535782611ecf612659565b6308c379a014611ef25760405162461bcd60e51b8152806104de600482016126e1565b611efa612674565b9081611f0657506104c5565b6104de60405192839262461bcd60e51b8452602060048501528301906122a8565b611f4091925060203d81116105aa5761059b8183612266565b9084611ec1565b5f80516020612b018339815191526040513381526080602082015280611f846112b7611f76608084018a6123a5565b83810360408501528c6123a5565b0390a1611e50565b9691959294905f9894985b845181101561202b57611faa8186612466565b51611fb58288612466565b5190805f526003602081815260405f205492848410611fea5790611fe595949392915f52520360405f2055612458565b611f97565b506084818f8e5f80516020612b218339815191528f602867616c537570706c7960c01b946040519662461bcd60e51b88526004880152860152840152820152fd5b50909492959196979397611dc1565b3461030c57602036600319011261030c57610dba6120596004356128c3565b6040519182916020835260208301906122a8565b3461030c575f36600319011261030c576040516009545f8261208e836121f8565b918282526020936001908582821691825f14610e195750506001146120ba5750610da692500383612266565b84915060095f527f6e1540171b6c0c960b71a7020d9f60077f6af931a8bbf590da0223dacf75c7af905f915b8583106120fd575050610da6935082010185610d99565b805483890185015287945086939092019181016120e6565b3461030c57602036600319011261030c5760043563ffffffff60e01b811680910361030c5760209063152a902d60e11b811490811561215a575b506040519015158152f35b636cdb3d1360e11b81149150811561218c575b811561217b575b508261214f565b6301ffc9a760e01b14905082612174565b6303a24d0760e21b8114915061216d565b3461030c57604036600319011261030c5760206121c46121bb6121cc565b602435906123d8565b604051908152f35b600435906001600160a01b038216820361030c57565b602435906001600160a01b038216820361030c57565b90600182811c92168015612226575b602083101461221257565b634e487b7160e01b5f52602260045260245ffd5b91607f1691612207565b604081019081106001600160401b03821117610adb57604052565b602081019081106001600160401b03821117610adb57604052565b90601f801991011681019081106001600160401b03821117610adb57604052565b5f5b8381106122985750505f910152565b8181015183820152602001612289565b906020916122c181518092818552858086019101612287565b601f01601f1916010190565b6001600160401b038111610adb5760051b60200190565b9080601f8301121561030c5760209082356122fe816122cd565b9361230c6040519586612266565b818552838086019260051b82010192831161030c578301905b828210612333575050505090565b81358152908301908301612325565b9291926001600160401b038211610adb576040519161236b601f8201601f191660200184612266565b82948184528183011161030c578281602093845f960137010152565b9080601f8301121561030c578160206123a293359101612342565b90565b9081518082526020808093019301915f5b8281106123c4575050505090565b8351855293810193928101926001016123b6565b6001600160a01b0316908115612400575f525f60205260405f20905f5260205260405f205490565b60405162461bcd60e51b815260206004820152602a60248201527f455243313135353a2061646472657373207a65726f206973206e6f742061207660448201526930b634b21037bbb732b960b11b6064820152608490fd5b5f1981146107ae5760010190565b805182101561247a5760209160051b010190565b634e487b7160e01b5f52603260045260245ffd5b1561249557565b60405162461bcd60e51b815260206004820152602e60248201527f455243313135353a2063616c6c6572206973206e6f7420746f6b656e206f776e60448201526d195c881bdc88185c1c1c9bdd995960921b6064820152608490fd5b156124f857565b60405162461bcd60e51b815260206004820152602560248201527f455243313135353a207472616e7366657220746f20746865207a65726f206164604482015264647265737360d81b6064820152608490fd5b1561255257565b60405162461bcd60e51b815260206004820152602a60248201527f455243313135353a20696e73756666696369656e742062616c616e636520666f60448201526939103a3930b739b332b960b11b6064820152608490fd5b919082018092116107ae57565b156125be57565b60405162461bcd60e51b815260206004820152602860248201527f455243313135353a2069647320616e6420616d6f756e7473206c656e677468206044820152670dad2e6dac2e8c6d60c31b6064820152608490fd5b909161262b6123a2936040845260408401906123a5565b9160208184039101526123a5565b9081602091031261030c57516001600160e01b03198116810361030c5790565b5f9060033d1161266557565b905060045f803e5f5160e01c90565b5f60443d106123a257604051600319913d83016004833e81516001600160401b03918282113d6024840111176126d0578184019485519384116126d8573d850101602084870101116126d057506123a292910160200190612266565b949350505050565b50949350505050565b60809060208152603460208201527f455243313135353a207472616e7366657220746f206e6f6e2d455243313135356040820152732932b1b2b4bb32b91034b6b83632b6b2b73a32b960611b60608201520190565b6040519061274382612230565b6001825260208201602036823782511561247a575290565b1561276257565b60405162461bcd60e51b815260206004820152602360248201527f455243313135353a206275726e2066726f6d20746865207a65726f206164647260448201526265737360e81b6064820152608490fd5b156127ba57565b60405162461bcd60e51b8152602060048201526024808201527f455243313135353a206275726e20616d6f756e7420657863656564732062616c604482015263616e636560e01b6064820152608490fd5b1561281257565b60405162461bcd60e51b815260206004820152602d60248201527f4b617469626568313135353a207265737472696374656420616363657373207460448201526c6f2074686520466163746f727960981b6064820152608490fd5b1561287457565b60405162461bcd60e51b815260206004820152602160248201527f455243313135353a206d696e7420746f20746865207a65726f206164647265736044820152607360f81b6064820152608490fd5b5f908152602090600582526040812090604051908091835492816128e6856121f8565b91828252878201966001968988821691825f14612ae2575050600114612aa4575b5061291492500382612266565b8051156129e957604051948593836004549161292f836121f8565b928181169081156129c85750600114612968575b505050506129596123a294839251938491612287565b0103601f198101835282612266565b909192969450600482527f8a35acfbc15ff81a39ae7d344fd709f28e8600b4aa8c65c6b64bfe7fe36bd19b5b8383106129b2575050506123a2946129599185010192945f80612943565b8054898401890152889650918701918101612994565b60ff1916888601525050508015150284010191506129596123a25f80612943565b5060405160025490949350849282612a00836121f8565b80865292828116908115612a825750600114612a26575b5050506123a292500382612266565b600281527f405787fa12a823e0f2b7631cc41b3ba8828b3321ca811111fa75cd3aa3bb5ace95935091905b818310612a6a5750506123a293508201015f8080612a17565b85548784018501529485019486945091830191612a51565b925050506123a294925060ff191682840152151560051b8201015f8080612a17565b915050835281868085208686915b858310612ac957505061291493508201015f612907565b8091929450548385880101520191018790868593612ab2565b60ff19168a5261291495151560051b85010192505f9150612907905056fe64b6d1b9c6726b4405acbd47f33ee45712403cd8422e6b9ccb562c0dec7965d4455243313135353a206275726e20616d6f756e74206578636565647320746f74a2646970667358221220e8117bf41d74def8786f6c87988bc73ea87ea423ef62b601aee8b40dc7cf7c9664736f6c6343000815003360a03461007f57601f611bf738819003918201601f19168301916001600160401b038311848410176100835780849260209460405283398101031261007f57516001600160a01b038116810361007f57608052604051611b5f90816100988239608051818181610158015281816104890152818161050d01526106e70152f35b5f80fd5b634e487b7160e01b5f52604160045260245ffdfe608060408181526004918236101561002a575b505050361561001f575f80fd5b6100283461144b565b005b5f92833560e01c91826306fdde0314611099575081630d2ddb47146110665781630e89341c146109c8578163152dcd471461068457816320dc8ff714610609578163280976aa146105c45781632a31f6b41461053c5781632dd31000146104f85781633ccfd60b1461045257816395d89b41146104155781639791e504146103e95781639ae1a4bc1461025d578163d1aa25d014610240578163d73fe0aa146101b4578163ecbdbb321461010a575063f5dcdf96146100e95780610012565b346101065781600319360112610106576020906001549051908152f35b5080fd5b83833461010657816003193601126101065780516020810190630103c92b60e01b8252306024820152602481526060810181811067ffffffffffffffff8211176101a15783525183918291907f00000000000000000000000000000000000000000000000000000000000000005afa506101826112d0565b9160208380518101031261019e57506020809201519051908152f35b80fd5b634e487b7160e01b855260418652602485fd5b82843461019e578060031936011261019e57600180546101d381611176565b926101e085519485611154565b81845282815260207fb10e2d527612073b26eecdfd717e6a320cf44b4afac2b0732d9fcbe2b7fa0cf68186015b848410610225578751806102218982611275565b0390f35b8583819261023285611408565b81520192019301929061020d565b833461019e578060031936011261019e5761025a4761144b565b80f35b8383346101065761026d3661118e565b9181516020810190610291816102838785611275565b03601f198101835282611154565b519020926102a03085306112ff565b6001600160a01b0380821695913b156102be575b6020868651908152f35b845191867fde03f54489aeeaa8f8e262296d61a01b0a41b770fae1d2b27d960a7e593de3858680a2763d602d80600a3d3981f3363d3d373d3d3d363d7300000062ffffff3060881c161785526e5af43d82803e903d91602b57fd5bf33060781b176020526037600986f516156103a85750833b156101065790806103549284518094819263152dcd4760e01b8352898301611275565b038183885af1801561039c5761036c575b80806102b4565b67ffffffffffffffff821161038957506020935081528380610365565b634e487b7160e01b815260418552602490fd5b508251903d90823e3d90fd5b62461bcd60e51b8152602086820152601760248201527f455243313136373a2063726561746532206661696c65640000000000000000006044820152606490fd5b82843461019e57602036600319011261019e5750610409602092356113a1565b505460a01c9051908152f35b50503461010657816003193601126101065780516102219161043682611124565b60058252641cdc1b1a5d60da1b602083015251918291826110dd565b919050346104f457826003193601126104f457828082516020810190633ccfd60b60e01b825285815261048481611124565b5190827f00000000000000000000000000000000000000000000000000000000000000005af16104b26112d0565b50156104bc578280f35b906020606492519162461bcd60e51b83528201526012602482015271556e61626c6520746f20776974686472617760701b6044820152fd5b8280fd5b505034610106578160031936011261010657517f00000000000000000000000000000000000000000000000000000000000000006001600160a01b03168152602090f35b919050346104f457806003193601126104f45781356001600160a01b03811681036105c057836024359367ffffffffffffffff85116101065736602386011215610106578401359361059961059086611259565b94519485611154565b8484523660248683010111610106578461025a9560246020930183870137840101526118bd565b8380fd5b505034610106576020906105f86105da3661118e565b82516105ed816102838782019485611275565b5190203090306112ff565b90516001600160a01b039091168152f35b919050346104f45760203660031901126104f45781356001600160a01b03811681036105c05761063890611635565b15610641578280f35b906020606492519162461bcd60e51b8352820152601960248201527f53706c69743a2045524332302073706c6974206661696c6564000000000000006044820152fd5b919050346104f4576106953661118e565b9083549060ff8260081c1615938480956109bb575b80156109a4575b1561094b57600192858460ff19831617885561093a575b5060028451106108f85760078451116108b65785936001600160a01b037f000000000000000000000000000000000000000000000000000000000000000081169086865b610791575b50505050506dffffffffffffffffffffffff000085549360101b1693846dffffffffffffffffffffffff000019851617865561074b578480f35b7f7f26b83ff96e1f2b6a682f133852f6798a09c465da95921460cefb3847402498936020936dffffffffffffffffffffffffff00191617855551908152a15f8080808480f35b83518110156108b1576001600160601b03976020908980836107b3868a611379565b5101511691160189811161089e57986107cc8387611379565b5189546801000000000000000081101561088b57808b6107ee92018c556113a1565b9190916108795780519084015160a01b6001600160a01b031916908616179055889594939261087092909186918e9187917fc3d58168c5ae7397731d063d5bbf3d657854427343f4c083240f7aacaa2d0f62918d91908161085d898c610854828c611379565b51511699611379565b51015116825191868352820152a4611357565b9091929361070c565b634e487b7160e01b8e528d895260248efd5b634e487b7160e01b8e526041895260248efd5b634e487b7160e01b8c526011875260248cfd5b610711565b6020606492519162461bcd60e51b8352820152601a60248201527f53706c69743a20546f6f206d616e7920726563697069656e74730000000000006044820152fd5b6020606492519162461bcd60e51b8352820152601960248201527f53706c69743a20546f6f2066657720726563697069656e7473000000000000006044820152fd5b61ffff19166101011786555f6106c8565b6020608492519162461bcd60e51b8352820152602e60248201527f496e697469616c697a61626c653a20636f6e747261637420697320616c72656160448201526d191e481a5b9a5d1a585b1a5e995960921b6064820152fd5b50303b1580156106b15750600160ff8416146106b1565b50600160ff8416106106aa565b8383346101065760203660031901126101065782356101065780519161056083019083821067ffffffffffffffff83111761038957506102219350815261053182527f646174613a6170706c69636174696f6e2f6a736f6e3b6261736536342c65794a60208301527f755957316c496a6f695332463061574a6c61434254634778706448526c636949818301527f73496d526c63324e796158423061573975496a6f69564768706379424462323560608301527f30636d466a6443425463477870644342356233567949455a31626d527a49486460808301527f6f61585167575739316369427a614746795a5342496232786b5a57567963793460a08301527f694c434a706257466e5a534936496d526864474536615731685a32557663335a60c08301527f6e4b3368746244746959584e6c4e6a51735545684f4d6c7035516a4a6856315960e08301527f7a555730354e4642545358644a5245466e5456525a645531455157644e56466c6101008301527f315455524261556c4961485269527a563655464e4b62325249556e64506154686101208301527f325a444e6b4d3078755933704d62546c35576e6b34655531455158644d4d30346101408301527f79576e6c4a5a31707462484e695244427053587042643031455158644e51306c6101608301527f6e57544a3461474d7a54546c4a625570775355644b63457859546e42614d6a566101808301527f33596a4e4f4d457859546e64695232777753576c434d474e74526e566a4d6c706101a08301527f32593230774f556c744d57686b534570775a554e6e654578445158644d5130466101c08301527f3354454e42654578445158644d5130463353314e4a5a324d7a556e6c694d6e526101e08301527f7355464e4a616b31455158644e5245463353576c43656d5249536e5a684d6c566102008301527f305a444a73613252485a7a6c4a616b4631545552426430315557576c51616e686102208301527f755355647361314254536c525761325254576c6843646c6779536d35524d6b5a6102408301527f355932317362474e705357646a4d314a35596a4a30624578595a48426153464a6102608301527f7655464e4a64306c714e44684d4d6d4d725545646a5a32465855546c4a6245356102808301527f58556a464b62474e484f575a6b5345706f57544a5765564579526e6c6a6257786102a08301527f7359326c4a5a324d7a556e6c694d6e52735446643463474a74566d705a5745456102c08301527f355357354b646d52584e57744a61554a365a45684b646d4579565852695232786102e08301527f31576c6477646d46584e446c4a626b70325a46633161306c70516e706b5345706103008301527f3259544a564f556c70546b52524d4535455554424e61556c49546a426a62546c6103208301527f79576c4d784d324658556a42685244427054554d30655539455a326c51616e646103408301527f32576e6f304f467035516e4261524442705654466153465674566e64694d546c6103608301527f775754493564564579526e6c6a6257787359326c4a4b306c456548645a57464a6103808301527f76535564524f556c724d444e4a5247525854564d304d453155556d684e5530466103a08301527f34535552425a3031445158684a52456c6e54555a5a65574645566d684e5530466103c08301527f34535552425a3031445158684a517a51305447705363307871617a4e4f5530466103e08301527f345447704f614578715658564f55304633535552425a3031545158644a517a516104008301527f79564552464d4578715a32644f557a5179575652465a3031545158644a5245466104208301527f6e54564d77645539444e44425452477779545652435355347a5758524f5657646104408301527f35575652465a3031545158644a5245466e54564d77645539444d48564f5258646104608301527f315457704a4d556c456133564e4d6b5631546c4d304d556c455157644e5130466104808301527f345355524264457871576b314e557a52355355526a645535465258684a5245566104a08301527f6e54554e4264306c455257644e6155457a595552574e6d4a555257644e4d566b6104c08301527f305530524b633078544e444e4f553046345645524a5a303155516d394f626e426104e08301527f3054554d774d574645576e4e4d616d4d7854465247545531555557644e4d47636105008301527f305a47704b4e6b6c714e44684d4d304a6f5a45646e4b306c4564335a61656a51610520830152703454444e4f4d6c70364e44306966513d3d60781b61054083015251918291826110dd565b82843461019e57602036600319011261019e5750611086602092356113a1565b505490516001600160a01b039091168152f35b849084346104f457826003193601126104f45761022192506110ba82611124565b601082526f25b0ba34b132b41029b83634ba3a32b960811b602083015251918291825b602080825282518183018190529093925f5b82811061111057505060409293505f838284010152601f8019910116010190565b8181018601518482016040015285016110ef565b6040810190811067ffffffffffffffff82111761114057604052565b634e487b7160e01b5f52604160045260245ffd5b90601f8019910116810190811067ffffffffffffffff82111761114057604052565b67ffffffffffffffff81116111405760051b60200190565b602090816003198201126112555760043567ffffffffffffffff81116112555781602382011215611255578060040135926111c884611176565b936040936111d885519687611154565b81865260248387019260061b8501019381851161125557602401915b8483106112045750505050505090565b85838303126112555785519061121982611124565b83356001600160a01b038116810361125557825284840135906001600160601b038216820361125557828692838a9501528152019201916111f4565b5f80fd5b67ffffffffffffffff811161114057601f01601f191660200190565b60208082019080835283518092528060408094019401925f905b83821061129e57505050505090565b845180516001600160a01b031687528301516001600160601b031686840152948501949382019360019091019061128f565b3d156112fa573d906112e182611259565b916112ef6040519384611154565b82523d5f602084013e565b606090565b916043916055936040519260388401526f5af43d82803e903d91602b57fd5bf3ff60248401526014830152733d602d80600a3d3981f3363d3d373d3d3d363d73825260588201526037600c8201206078820152012090565b5f1981146113655760010190565b634e487b7160e01b5f52601160045260245ffd5b805182101561138d5760209160051b010190565b634e487b7160e01b5f52603260045260245ffd5b60015481101561138d5760015f527fb10e2d527612073b26eecdfd717e6a320cf44b4afac2b0732d9fcbe2b7fa0cf601905f90565b6001541561138d5760015f527fb10e2d527612073b26eecdfd717e6a320cf44b4afac2b0732d9fcbe2b7fa0cf6905f90565b9060405161141581611124565b91546001600160a01b038116835260a01c6020830152565b8115611437570490565b634e487b7160e01b5f52601260045260245ffd5b806114535750565b5f90815f19908160015401805b6114c057505050037f1445764fe3fdfc2a9812ff42e9b65c2e7896d5162851f78f7d4a5578f7346ff160206114936113d6565b50546001600160a01b03906114ab9085908316611543565b6114b36113d6565b50541692604051908152a2565b806114d46114ce85936113a1565b50611408565b957f1445764fe3fdfc2a9812ff42e9b65c2e7896d5162851f78f7d4a5578f7346ff16001600160601b0361151960209180838c0151168a0290885460101c169061142d565b8093019860018060a01b03906115328583835116611543565b511692604051908152a20180611460565b8147106115d8575f918291829182916001600160a01b03165af16115656112d0565b501561156d57565b60405162461bcd60e51b815260206004820152603a60248201527f416464726573733a20756e61626c6520746f2073656e642076616c75652c207260448201527f6563697069656e74206d617920686176652072657665727465640000000000006064820152608490fd5b60405162461bcd60e51b815260206004820152601d60248201527f416464726573733a20696e73756666696369656e742062616c616e63650000006044820152606490fd5b90816020910312611255575180151581036112555790565b604080516370a0823160e01b81523060048083019190915290926001600160a01b03908116916020908186602481875afa5f968161185e575b5061167d575050505050505f90565b8515611854575f8019968760015401805b611754575083949596975003918291856116a66113d6565b5054895163a9059cbb60e01b815291166001600160a01b031691810191825260208201939093528290819060400103815f895af19081611727575b506116ef5750505050505f90565b7fe8de91d538b06154a2c48315768c5046f47e127d7fd3f726fd85cc723f29b052926117196113d6565b5054169451908152a3600190565b61174690843d861161174d575b61173e8183611154565b81019061161d565b505f6116e1565b503d611734565b6117606114ce826113a1565b906001600160601b03936117798588850151168561188d565b9015611844578787928b8d5f61179a6117d2968f9c835460101c169061142d565b96878095019b8a511692519687958694859363a9059cbb60e01b8552840160209093929193604081019460018060a01b031681520152565b03925af19081611827575b506117f15750505050505050505050505f90565b887fe8de91d538b06154a2c48315768c5046f47e127d7fd3f726fd85cc723f29b052888a8e965116938d51908152a3018061168e565b61183d90893d8b1161174d5761173e8183611154565b505f6117dd565b5050505050505050505050505f90565b5050505050505f90565b90968382813d8311611886575b6118758183611154565b8101031261019e575051955f61166e565b503d61186b565b919082156118b4576118a2818402938461142d565b036118ad5760019190565b5f91508190565b50600191505f90565b5f91825b6001548110156119b9576118d4816113a1565b50546001600160a01b0390811633146118f657506118f190611357565b6118c1565b905061190482939492611aae565b61196a5761196793169061191782611635565b50806040519361192685611124565b601e855260207f416464726573733a206c6f772d6c6576656c2063616c6c206661696c65640000818701528151910182855af16119616112d0565b91611a19565b50565b60405162461bcd60e51b815260206004820152602160248201527f53706c69743a20455243323020746f6b656e73206d7573742062652073706c696044820152601d60fa1b6064820152608490fd5b60405162461bcd60e51b815260206004820152603260248201527f53706c69743a2043616e206f6e6c792062652063616c6c6564206279206f6e65604482015271206f662074686520726563697069656e747360701b6064820152608490fd5b91929015611a7b5750815115611a2d575090565b3b15611a365790565b60405162461bcd60e51b815260206004820152601d60248201527f416464726573733a2063616c6c20746f206e6f6e2d636f6e74726163740000006044820152606490fd5b825190915015611a8e5750805190602001fd5b60405162461bcd60e51b8152908190611aaa90600483016110dd565b0390fd5b60049081815110611b23575f5b828110611aca57505050600190565b8151811015611b1057818101602001516001600160f81b031990811663095ea7b360e01b831a60f81b90911603611b0957611b0490611357565b611abb565b5050505f90565b603283634e487b7160e01b5f525260245ffd5b50505f9056fea2646970667358221220a48d532d8faca228fd98a42f86a2b95f11b827e3ac182c27c3b8f9b3baf4d1aa64736f6c63430008150033",
  "linkReferences": {},
  "deployedLinkReferences": {}
}