{
  "_format": "hh-sol-artifact-1",
  "contractName": "Factory1155",
  "sourceName": "contracts/katibeh1155/Factory1155.sol",
  "abi": [
    {
      "anonymous": false,
      "inputs": [
        {
          "indexed": true,
          "internalType": "uint256",
          "name": "tokenId",
          "type": "uint256"
        },
        {
          "indexed": true,
          "internalType": "uint256",
          "name": "toTokenId",
          "type": "uint256"
        }
      ],
      "name": "NewReply",
      "type": "event"
    },
    {
      "anonymous": false,
      "inputs": [
        {
          "indexed": true,
          "internalType": "uint256",
          "name": "tokenId",
          "type": "uint256"
        },
        {
          "indexed": true,
          "internalType": "address",
          "name": "creator",
          "type": "address"
        },
        {
          "indexed": true,
          "internalType": "bytes",
          "name": "data",
          "type": "bytes"
        },
        {
          "indexed": false,
          "internalType": "uint256",
          "name": "mintTime",
          "type": "uint256"
        },
        {
          "indexed": false,
          "internalType": "uint256",
          "name": "initTime",
          "type": "uint256"
        },
        {
          "indexed": false,
          "internalType": "uint256",
          "name": "expTime",
          "type": "uint256"
        }
      ],
      "name": "NewToken",
      "type": "event"
    },
    {
      "anonymous": false,
      "inputs": [
        {
          "indexed": false,
          "internalType": "uint256",
          "name": "tokenId",
          "type": "uint256"
        },
        {
          "indexed": true,
          "internalType": "bytes32",
          "name": "tag1",
          "type": "bytes32"
        },
        {
          "indexed": true,
          "internalType": "bytes32",
          "name": "tag2",
          "type": "bytes32"
        },
        {
          "indexed": true,
          "internalType": "bytes32",
          "name": "tag3",
          "type": "bytes32"
        }
      ],
      "name": "Tags",
      "type": "event"
    },
    {
      "anonymous": false,
      "inputs": [
        {
          "indexed": true,
          "internalType": "uint256",
          "name": "tokenId",
          "type": "uint256"
        },
        {
          "indexed": false,
          "internalType": "bytes",
          "name": "data",
          "type": "bytes"
        }
      ],
      "name": "TokenData",
      "type": "event"
    },
    {
      "inputs": [
        {
          "internalType": "uint256",
          "name": "",
          "type": "uint256"
        }
      ],
      "name": "_tokenCollection",
      "outputs": [
        {
          "internalType": "address",
          "name": "",
          "type": "address"
        }
      ],
      "stateMutability": "view",
      "type": "function"
    },
    {
      "inputs": [
        {
          "internalType": "address",
          "name": "",
          "type": "address"
        }
      ],
      "name": "_userCollection",
      "outputs": [
        {
          "internalType": "address",
          "name": "",
          "type": "address"
        }
      ],
      "stateMutability": "view",
      "type": "function"
    },
    {
      "inputs": [
        {
          "internalType": "uint256",
          "name": "tokenId",
          "type": "uint256"
        },
        {
          "internalType": "bytes",
          "name": "data",
          "type": "bytes"
        },
        {
          "components": [
            {
              "internalType": "address",
              "name": "addr",
              "type": "address"
            },
            {
              "internalType": "uint16",
              "name": "share",
              "type": "uint16"
            }
          ],
          "internalType": "struct DataStorage.Payee[]",
          "name": "dapps",
          "type": "tuple[]"
        }
      ],
      "name": "collect",
      "outputs": [],
      "stateMutability": "payable",
      "type": "function"
    },
    {
      "inputs": [
        {
          "internalType": "uint256",
          "name": "tokenId",
          "type": "uint256"
        }
      ],
      "name": "fee",
      "outputs": [
        {
          "internalType": "uint256",
          "name": "",
          "type": "uint256"
        }
      ],
      "stateMutability": "view",
      "type": "function"
    },
    {
      "inputs": [
        {
          "internalType": "uint256",
          "name": "tokenId",
          "type": "uint256"
        },
        {
          "components": [
            {
              "internalType": "address",
              "name": "creator",
              "type": "address"
            },
            {
              "internalType": "uint256",
              "name": "mintTime",
              "type": "uint256"
            },
            {
              "internalType": "uint256",
              "name": "initTime",
              "type": "uint256"
            },
            {
              "internalType": "uint256",
              "name": "expTime",
              "type": "uint256"
            },
            {
              "internalType": "string",
              "name": "tokenURI",
              "type": "string"
            },
            {
              "internalType": "bytes",
              "name": "data",
              "type": "bytes"
            },
            {
              "internalType": "uint256[]",
              "name": "toTokenId",
              "type": "uint256[]"
            },
            {
              "internalType": "bytes32[]",
              "name": "tags",
              "type": "bytes32[]"
            },
            {
              "components": [
                {
                  "internalType": "address",
                  "name": "addr",
                  "type": "address"
                },
                {
                  "internalType": "uint16",
                  "name": "share",
                  "type": "uint16"
                }
              ],
              "internalType": "struct DataStorage.Payee[]",
              "name": "owners",
              "type": "tuple[]"
            }
          ],
          "internalType": "struct DataStorage.Katibeh",
          "name": "katibeh",
          "type": "tuple"
        },
        {
          "internalType": "bytes",
          "name": "sig",
          "type": "bytes"
        },
        {
          "internalType": "bytes",
          "name": "data",
          "type": "bytes"
        }
      ],
      "name": "firstFreeCollect",
      "outputs": [],
      "stateMutability": "nonpayable",
      "type": "function"
    },
    {
      "inputs": [
        {
          "internalType": "bytes32",
          "name": "uriHash",
          "type": "bytes32"
        }
      ],
      "name": "getUriId",
      "outputs": [
        {
          "internalType": "uint256",
          "name": "",
          "type": "uint256"
        }
      ],
      "stateMutability": "view",
      "type": "function"
    },
    {
      "inputs": [],
      "name": "implementation",
      "outputs": [
        {
          "internalType": "contract Katibeh1155",
          "name": "",
          "type": "address"
        }
      ],
      "stateMutability": "view",
      "type": "function"
    },
    {
      "inputs": [
        {
          "internalType": "address",
          "name": "creatorAddr",
          "type": "address"
        }
      ],
      "name": "predictCollectionAddr",
      "outputs": [
        {
          "internalType": "address",
          "name": "",
          "type": "address"
        }
      ],
      "stateMutability": "view",
      "type": "function"
    },
    {
      "inputs": [
        {
          "internalType": "address payable",
          "name": "newAddr",
          "type": "address"
        }
      ],
      "name": "setReceiver1",
      "outputs": [],
      "stateMutability": "nonpayable",
      "type": "function"
    },
    {
      "inputs": [
        {
          "internalType": "uint256",
          "name": "tokenId",
          "type": "uint256"
        }
      ],
      "name": "tokenInfo",
      "outputs": [
        {
          "components": [
            {
              "internalType": "address",
              "name": "creator",
              "type": "address"
            },
            {
              "internalType": "uint256",
              "name": "mintTime",
              "type": "uint256"
            },
            {
              "internalType": "uint256",
              "name": "initTime",
              "type": "uint256"
            },
            {
              "internalType": "uint256",
              "name": "expTime",
              "type": "uint256"
            },
            {
              "internalType": "string",
              "name": "tokenURI",
              "type": "string"
            },
            {
              "internalType": "bytes",
              "name": "data",
              "type": "bytes"
            },
            {
              "internalType": "uint256[]",
              "name": "toTokenId",
              "type": "uint256[]"
            },
            {
              "internalType": "bytes32[]",
              "name": "tags",
              "type": "bytes32[]"
            },
            {
              "components": [
                {
                  "internalType": "address",
                  "name": "addr",
                  "type": "address"
                },
                {
                  "internalType": "uint16",
                  "name": "share",
                  "type": "uint16"
                }
              ],
              "internalType": "struct DataStorage.Payee[]",
              "name": "owners",
              "type": "tuple[]"
            }
          ],
          "internalType": "struct DataStorage.Katibeh",
          "name": "katibeh",
          "type": "tuple"
        },
        {
          "internalType": "bytes",
          "name": "sig",
          "type": "bytes"
        },
        {
          "internalType": "bytes",
          "name": "dappData",
          "type": "bytes"
        }
      ],
      "stateMutability": "view",
      "type": "function"
    },
    {
      "inputs": [
        {
          "internalType": "uint256[]",
          "name": "tokenId",
          "type": "uint256[]"
        }
      ],
      "name": "tokensInfoBatch",
      "outputs": [
        {
          "components": [
            {
              "internalType": "address",
              "name": "creator",
              "type": "address"
            },
            {
              "internalType": "uint256",
              "name": "mintTime",
              "type": "uint256"
            },
            {
              "internalType": "uint256",
              "name": "initTime",
              "type": "uint256"
            },
            {
              "internalType": "uint256",
              "name": "expTime",
              "type": "uint256"
            },
            {
              "internalType": "string",
              "name": "tokenURI",
              "type": "string"
            },
            {
              "internalType": "bytes",
              "name": "data",
              "type": "bytes"
            },
            {
              "internalType": "uint256[]",
              "name": "toTokenId",
              "type": "uint256[]"
            },
            {
              "internalType": "bytes32[]",
              "name": "tags",
              "type": "bytes32[]"
            },
            {
              "components": [
                {
                  "internalType": "address",
                  "name": "addr",
                  "type": "address"
                },
                {
                  "internalType": "uint16",
                  "name": "share",
                  "type": "uint16"
                }
              ],
              "internalType": "struct DataStorage.Payee[]",
              "name": "owners",
              "type": "tuple[]"
            }
          ],
          "internalType": "struct DataStorage.Katibeh[]",
          "name": "katibeh",
          "type": "tuple[]"
        },
        {
          "internalType": "bytes[]",
          "name": "sig",
          "type": "bytes[]"
        },
        {
          "internalType": "bytes[]",
          "name": "dappData",
          "type": "bytes[]"
        }
      ],
      "stateMutability": "view",
      "type": "function"
    },
    {
      "inputs": [
        {
          "internalType": "uint256",
          "name": "tokenId",
          "type": "uint256"
        }
      ],
      "name": "uri",
      "outputs": [
        {
          "internalType": "string",
          "name": "",
          "type": "string"
        }
      ],
      "stateMutability": "view",
      "type": "function"
    }
  ],
  "bytecode": "0x608080604052346100875761268e8181016001600160401b038111838210176100715782916200265e833903906000f0801561006557600880546001600160a01b0319166001600160a01b03929092169190911790556040516125d190816200008d8239f35b6040513d6000823e3d90fd5b634e487b7160e01b600052604160045260246000fd5b600080fdfe60806040526004361015610013575b600080fd5b60003560e01c8062797df81461010257806303c13148146100f957806307d32f2a146100f05780630e89341c146100e75780632b0eca8c146100de57806339b37ab0146100d55780635c60da1b146100cc5780635fd099e6146100c357806378292236146100ba578063836f71e0146100b15780639f9028d5146100a85763cc33c875146100a057600080fd5b61000e610894565b5061000e610854565b5061000e6107e4565b5061000e6107b7565b5061000e610782565b5061000e610758565b5061000e610726565b5061000e6106bd565b5061000e6103c4565b5061000e610276565b5061000e6101c2565b5061000e610138565b9181601f8401121561000e578235916001600160401b03831161000e576020838186019501011161000e57565b503461000e5760031960803682011261000e576024356001600160401b039182821161000e5761012090823603011261000e5760443582811161000e5761018390369060040161010b565b60649291923593841161000e576101a16101af94369060040161010b565b939092600401600435610ee5565b005b6001600160a01b0381160361000e57565b503461000e57602036600319011261000e576004356101e0816101b1565b600554906001600160a01b0390818316330361020a576001600160a01b0319909216911617600555005b60405162461bcd60e51b815260206004820152603160248201527f4665654d616e616765723a206f6e6c79207265636569766572312063616e206360448201527068616e676520697473206164647265737360781b6064820152608490fd5b3590610274826101b1565b565b503461000e57602036600319011261000e576103646055603760043561029b816101b1565b60085460405160609290921b6bffffffffffffffffffffffff19166020830152906102dc906102d781603481015b03601f19810183528261095a565b610d90565b60408051733d602d80600a3d3981f3363d3d373d3d3d363d7360601b8152606093841b6bffffffffffffffffffffffff191660148201526f5af43d82803e903d91602b57fd5bf3ff60801b60288201523090931b6038840152604c830191909152828220606c83015291019190912090516001600160a01b0390911681529081906020820190565b0390f35b60005b83811061037b5750506000910152565b818101518382015260200161036b565b906020916103a481518092818552858086019101610368565b601f01601f1916010190565b9060206103c192818152019061038b565b90565b503461000e5760208060031936011261000e5760043590600091808352600782528260018060a01b03604082205416916024604051809481936303a24d0760e21b835260048301525afa9182156104b4575b839261042b575b6040518061036485826103b0565b9091503d8084843e61043d818461095a565b82019181818403126104ac578051906001600160401b0382116104b057019082601f830112156104ac5781519361047385610b0b565b93610481604051958661095a565b8585528286850101116104a95750926104a291846103649585019101610368565b388061041d565b80fd5b8380fd5b8480fd5b6104bc61098a565b610416565b90815180825260208080930193019160005b8281106104e1575050505090565b8351855293810193928101926001016104d3565b90815180825260208080930193019160005b828110610515575050505090565b835180516001600160a01b0316865282015161ffff168583015260409094019392810192600101610507565b80516001600160a01b031682526103c191906020810151602083015260408101516040830152606081015160608301526105c96105b76105a5610593608085015161012080608089015287019061038b565b60a085015186820360a088015261038b565b60c084015185820360c08701526104c1565b60e083015184820360e08601526104c1565b9161010080920151918184039101526104f5565b908082519081815260208091019281808460051b8301019501936000915b84831061060b5750505050505090565b9091929394958480610629600193601f198682030187528a5161038b565b98019301930191949392906105fb565b919392909360608301906060845285518092526080840160808360051b860101926020809801916000905b828210610693575050505090610685916103c19596858303908601526105dd565b9160408184039101526105dd565b9091929489806106af600193607f198c82030186528951610541565b970192019201909291610664565b503461000e57602036600319011261000e576001600160401b0360043581811161000e573660238201121561000e57806004013591821161000e573660248360051b8301011161000e57610364916024610717920161216b565b60409391935193849384610639565b503461000e57602036600319011261000e576020610745600435610a2f565b604051908152f35b600091031261000e57565b503461000e57600036600319011261000e576008546040516001600160a01b039091168152602090f35b503461000e57602036600319011261000e576004356000526007602052602060018060a01b0360406000205416604051908152f35b503461000e57602036600319011261000e5760043560005260026020526020604060002054604051908152f35b50606036600319011261000e576001600160401b0360243581811161000e5761081190369060040161010b565b91906044359282841161000e573660238501121561000e57836004013592831161000e573660248460061b8601011161000e5760246101af940191600435611935565b503461000e57602036600319011261000e576020600435610874816101b1565b60018060a01b038091166000526006825260406000205416604051908152f35b503461000e57602036600319011261000e576108d16108df6103646108ba60043561234d565b919390604051958695606087526060870190610541565b90858203602087015261038b565b90838203604085015261038b565b50634e487b7160e01b600052604160045260246000fd5b6001600160401b03811161091757604052565b61091f6108ed565b604052565b604081019081106001600160401b0382111761091757604052565b606081019081106001600160401b0382111761091757604052565b90601f801991011681019081106001600160401b0382111761091757604052565b9081602091031261000e575190565b506040513d6000823e3d90fd5b50634e487b7160e01b600052601160045260246000fd5b6000198101919082116109bd57565b610274610997565b919082039182116109bd57565b9067016345785d8a0000918281029281840414901517156109bd57565b906014820291808304601414901517156109bd57565b9061015e918281029281840414901517156109bd57565b818102929181159184041417156109bd57565b806000526007602052602060018060a01b03604060002054169160246040518094819363bd85b03960e01b835260048301525afa908115610ad1575b600091610aa3575b506000906005811115610a9f576103c191506004198101908111156109d257610a9a610997565b6109d2565b5090565b610ac4915060203d8111610aca575b610abc818361095a565b81019061097b565b38610a73565b503d610ab2565b610ad961098a565b610a6b565b6040519061027482610924565b6040519061012082018281106001600160401b0382111761091757604052565b6020906001600160401b038111610b28575b601f01601f19160190565b610b306108ed565b610b1d565b356103c1816101b1565b15610b4657565b60405162461bcd60e51b815260206004820152601d60248201527f4b6174696265683732313a20496e76616c6964207369676e61747572650000006044820152606490fd5b15610b9257565b60405162461bcd60e51b815260206004820152601b60248201527f466163746f7279313135353a2077726f6e6720746f6b656e20696400000000006044820152606490fd5b15610bde57565b60405162461bcd60e51b815260206004820152602760248201527f466163746f7279313135353a20746f6b656e2073616c652074696d6520697320604482015266195e1c1a5c995960ca1b6064820152608490fd5b15610c3a57565b60405162461bcd60e51b815260206004820152603060248201527f466163746f7279313135353a20746f6b656e2073616c652074696d652068617360448201526f081b9bdd081cdd185c9d1959081e595d60821b6064820152608490fd5b6001906000198114610ca8570190565b610cb0610997565b0190565b903590601e198136030182121561000e57018035906001600160401b03821161000e57602001918160051b3603831361000e57565b50634e487b7160e01b600052603260045260246000fd5b9190811015610d11575b60051b0190565b610d19610ce9565b610d0a565b15610d2557565b60405162461bcd60e51b815260206004820152603860248201527f466163746f7279313135353a20746f20746f6b656e20696420686173206e6f7460448201527f206d696e746564206f6e2063757272656e7420636861696e00000000000000006064820152608490fd5b602081519101519060208110610da4575090565b6000199060200360031b1b1690565b6001600160a01b039091168152606060208201819052604092610dd89183019061038b565b90828183039101526007815266096c2e8d2c4cad60cb1b60208201520190565b15610dff57565b60405162461bcd60e51b815260206004820152603760248201527f466163746f7279313135353a207468697320636f6c6c656374696f6e2068617360448201527f206265656e20616c726561647920636f6c6c65637465640000000000000000006064820152608490fd5b903590601e198136030182121561000e57018035906001600160401b03821161000e5760200191813603831361000e57565b908060209392818452848401376000828201840152601f01601f1916010190565b6040906103c1949281528160208201520191610e9c565b9160206103c1938181520191610e9c565b9591610f2391959493610f1c91610f17610f12610f018a610b35565b610f0a8b6116d3565b908585612441565b610b3f565b612563565b8614610b8b565b610f336060850135421115610bd7565b604092610f4584860135421015610c33565b60005b60c08601610f568188610cb4565b90508210156110385790611004610fe783610fc384610f8c610fbc610fb0610fb08f610f9286610f8c6110099e610fa394610cb4565b90610d00565b356000526007602052604060002090565b546001600160a01b031690565b6001600160a01b031690565b938d610cb4565b358951809263bd85b03960e01b825281806020968795600483019190602083019252565b03915afa91821561102b575b60009261100e575b50501515610d1e565b610c98565b610f48565b6110249250803d10610aca57610abc818361095a565b3880610ffb565b61103361098a565b610ff3565b5091956001600160a01b0395909392509085611073610fa361105985610b35565b6001600160a01b0316600090815260066020526040902090565b1661139b576008546110ce90611091906001600160a01b0316610fb0565b6110c86102c96102d76110a387610b35565b8a51928391602083016014916bffffffffffffffffffffffff199060601b1681520190565b906113b6565b956110fe876110df61105986610b35565b80546001600160a01b0319166001600160a01b03909216919091179055565b8087169061110b84610b35565b9161111d61111886610b35565b611453565b813b1561000e576000611148916111ab958b51938492839263b2b45df560e01b845260048401610db3565b038183865af1801561138e575b61137b575b505b875163bd85b03960e01b81526004810188905291169790611197906020816024818d5afa90811561136e575b600091611350575b5015610df8565b6110df866000526007602052604060002090565b6111b86080830183610e6a565b939091873b1561000e578651634312207160e11b8152611214958794600091839182916111e9918960048501610ebd565b0381838d5af18015611343575b611330575b506112068484611f8d565b806112f5575b505050610b35565b92803b1561000e57825163731133e960e01b8082526001600160a01b039590951660048201526024810183905260056044820152608060648201526000608482018190528160a48183865af180156112e8575b6112d5575b50803b1561000e5791519283523360048401526024830152600160448301526080606483015260006084830181905290829060a490829084905af180156112c8575b6112b55750565b806112c261027492610904565b8061074d565b6112d061098a565b6112ae565b806112c26112e292610904565b3861126c565b6112f061098a565b611267565b7fe3efb4090b64f6dead06906e59a91359e0c1ca9cad88a633d749431442e5bebf91611325885192839283610ed4565b0390a282388061120c565b806112c261133d92610904565b386111fb565b61134b61098a565b6111f6565b611368915060203d8111610aca57610abc818361095a565b38611190565b61137661098a565b611188565b806112c261138892610904565b3861115a565b61139661098a565b611155565b6111ab6113ad610fa361105985610b35565b9680881661115c565b604051733d602d80600a3d3981f3363d3d373d3d3d363d7360601b815260609190911b60148201526e5af43d82803e903d91602b57fd5bf360881b60288201526037906000f5906001600160a01b0382161561140e57565b60405162461bcd60e51b815260206004820152601760248201527f455243313136373a2063726561746532206661696c65640000000000000000006044820152606490fd5b604051906001600160a01b03166114698261093f565b602a82526040366020840137603061148083611500565b53607861148c83611516565b536029905b600182116114a4576103c1915015611561565b80600f6114e0921660108110156114e6575b6f181899199a1a9b1b9c1cb0b131b232b360811b901a6114d68486611527565b5360041c91611546565b90611491565b6114ee610ce9565b6114b6565b919082018092116109bd57565b60209080511561150e570190565b610cb0610ce9565b60219080516001101561150e570190565b90602091805182101561153957010190565b611541610ce9565b010190565b8015611554575b6000190190565b61155c610997565b61154d565b1561156857565b606460405162461bcd60e51b815260206004820152602060248201527f537472696e67733a20686578206c656e67746820696e73756666696369656e746044820152fd5b9035601e198236030181121561000e5701602081359101916001600160401b03821161000e57813603831361000e57565b9035601e198236030181121561000e5701602081359101916001600160401b03821161000e578160051b3603831361000e57565b81835290916001600160fb1b03831161000e5760209260051b809284830137010190565b9035601e198236030181121561000e5701602081359101916001600160401b03821161000e578160061b3603831361000e57565b61ffff81160361000e57565b9190808252602080920192916000905b828210611693575050505090565b9091929360019085356116a5816101b1565b828060a01b0316815261ffff838701356116be81611669565b16818401526040908101950193920190611685565b6040516117cd816102c961174b602083019560208752611706604085016116f983610269565b6001600160a01b03169052565b6020810135606085015260408101356080850152606081013560a08501526117bd61173460808301836115ac565b9390610120948560c0890152610160880191610e9c565b916117b461177361175f60a08401846115ac565b603f198a8803810160e08c01529691610e9c565b9461179761178460c08501856115dd565b6101009891888c8403018a8d0152611611565b906117a560e08501856115dd565b91878b850301908b0152611611565b93810190611635565b9185840301610140860152611675565b51902090565b156117da57565b60405162461bcd60e51b815260206004820152603560248201527f466163746f7279313135353a207468697320636f6c6c656374696f6e20686173604482015274206e6f7420636f6c6c6563746564206265666f726560581b6064820152608490fd5b1561184457565b60405162461bcd60e51b815260206004820152601d60248201527f466163746f7279313135353a20696e73756666696369656e74206665650000006044820152606490fd5b9081602091031261000e57516103c1816101b1565b6020906001600160401b0381116118b65760051b0190565b610d196108ed565b9081546118ca8161189e565b926040936118da8551918261095a565b828152809460208092019260005281600020906000935b85851061190057505050505050565b6001848192845161191081610924565b61ffff8754858060a01b038116835260a01c16838201528152019301940193916118f1565b939291611955610fb0610fb0610fa3886000526007602052604060002090565b60405163bd85b03960e01b815260048101879052909560209290916119949084816024818c5afa908115611b77575b600091611b5a575b5015156117d3565b61199d82610a2f565b936119be6119b5846000526001602052604060002090565b54421115610bd7565b6119ca8534101561183d565b843411611b26575b873b1561000e5760405163731133e960e01b8152336004808301919091526024820185905260016044830152608060648301526000608483018190526102749a9194879492938793928160a48183895af18015611b19575b611b06575b5080611aca575b50505060405192838092638da5cb5b60e01b82525afa928315611abd575b600093611a83575b50506001611a77611a7d926000526001602052604060002090565b016118be565b91611bee565b611a7d929350611aae60019282611a7793903d10611ab6575b611aa6818361095a565b810190611889565b939250611a5c565b503d611a9c565b611ac561098a565b611a54565b7fe3efb4090b64f6dead06906e59a91359e0c1ca9cad88a633d749431442e5bebf91611afb60405192839283610ed4565b0390a2833880611a36565b806112c2611b1392610904565b38611a2f565b611b2161098a565b611a2a565b6000808080611b3589346109c5565b818115611b51575b3390f16119d257611b4c61098a565b6119d2565b506108fc611b3d565b611b719150853d8711610aca57610abc818361095a565b3861198c565b611b7f61098a565b611984565b8115611b8e570490565b634e487b7160e01b600052601260045260246000fd5b9190811015611bb5575b60061b0190565b611bbd610ce9565b611bae565b356103c181611669565b6020918151811015611be1575b60051b010190565b611be9610ce9565b611bd9565b939193929092611c34611c17611c09611c11611c09856109ef565b6103e8900490565b93610a05565b600554909290611c2f906001600160a01b0316610fb0565b611daa565b600090815b848110611d84575060005b848110611d3e57505050505047908251928315600014611c6957506102749250611daa565b919050600093845b848110611d13575060005b611c85856109ae565b811015611cef578061100485611ce489611cdf611cd9611cd26020611cc889611cc2611cb4611cea9d8b611bcc565b51516001600160a01b031690565b98611bcc565b51015161ffff1690565b61ffff1690565b89610a1c565b611b84565b90611daa565b611c7c565b50935050611cb4611d0c91611d06610274946109ae565b90611bcc565b4790611daa565b94611d33611d3991611d2d611cd26020611cc88b8a611bcc565b906114f3565b95610c98565b611c71565b8061100485611ce486611cdf611d79611cd26020611d73898f611d6d611d68611d7f9e838d611ba4565b610b35565b99611ba4565b01611bc2565b88610a1c565b611c44565b91611d9f611da591611d2d611cd26020611d73888b8b611ba4565b92610c98565b611c39565b6000808093819382908215611dd4575b6001600160a01b031690f115611dcc57565b61027461098a565b6108fc9150611dba565b903590601e198136030182121561000e57018035906001600160401b03821161000e57602001918160061b3603831361000e57565b929192611e1f8261189e565b604092611e2e8451928361095a565b819581835260208093019160061b84019381851161000e57915b848310611e5757505050505050565b858383031261000e578386918251611e6e81610924565b8535611e79816101b1565b815282860135611e8881611669565b83820152815201920191611e48565b919080518355600180930160208092015191825192680100000000000000008411611f6b575b818354858555808610611f3e575b50611edd910192600052602060002090565b6000925b848410611ef15750505050509050565b868382611f32839451868151815460209093015161ffff60a01b60a09190911b166001600160b01b03199093166001600160a01b0390911617919091179055565b01920193019290611ee1565b6000858152888784832093840193015b838110611f5d57505050611ecb565b8281558694508a9101611f4e565b611f736108ed565b611ebd565b81604051928392833781016000815203902090565b906060810135611fda611fbc611fa7610100850185611dde565b9190611fb1610ade565b928584523691611e13565b6020820152611fd5856000526001602052604060002090565b611e97565b611fe382610b35565b90837f0b85051017293732c5b533b177efc66475411a9fdd5fbc8ecb619906658413d661204f61201f61201960a0880188610e6a565b90611f78565b604080516020808a01358252898301359082015290810195909552946001600160a01b0316939081906060820190565b0390a460c08101916120618383610cb4565b939050600092835b85811061207857505050505050565b8061208a6120b592610f8c8686610cb4565b35857f65327253f8d67c2e23cb4dfab28ca7437b04e9098cf4e985073d76df25209ad48880a3610c98565b612069565b6040519061012082018281106001600160401b03821117612114575b604052816000815260006020820152600060408201526101006060916000838201528260808201528260a08201528260c08201528260e08201520152565b61211c6108ed565b6120d6565b9061212b8261189e565b612138604051918261095a565b8281528092612149601f199161189e565b019060005b82811061215a57505050565b80606060208093850101520161214e565b91906121768161189e565b91612184604051938461095a565b818352601f196121938361189e565b0160005b81811061220957505082936121ab83612121565b936121b584612121565b9360005b8181106121c65750505050565b806121de6121d8612204938588610d00565b3561234d565b6121e8848b611bcc565b526121f3838b611bcc565b526121fe8286611bcc565b52610c98565b6121b9565b6020906122146120ba565b82828801015201612197565b90600182811c92168015612250575b602083101461223a57565b634e487b7160e01b600052602260045260246000fd5b91607f169161222f565b906040519182600082549261226e84612220565b9081845260019485811690816000146122db5750600114612298575b50506102749250038361095a565b9093915060005260209081600020936000915b8183106122c35750506102749350820101388061228a565b855488840185015294850194879450918301916122ab565b91505061027494506020925060ff191682840152151560051b820101388061228a565b9060405191828154918282526020928383019160005283600020936000905b828210612333575050506102749250038361095a565b85548452600195860195889550938101939091019061231d565b906123566120ba565b50606090826000526000602052604060002092612371610aeb565b84546001600160a01b03168152600185015460208201526123ed6008600287015496604084019788526003810154878501526123af6004820161225a565b60808501526123c06005820161225a565b60a08501526123d1600682016122fe565b60c08501526123e2600782016122fe565b60e0850152016118be565b6101008201529351421015612419575b6124146103c1916000526003602052604060002090565b61225a565b91506103c1612414612438612414856000526004602052604060002090565b939150506123fd565b919260405160208101917f19457468657265756d205369676e6564204d6573736167653a0a3332000000008352603c820152603c81526124808161093f565b5190209061248d81610b0b565b61249a604051918261095a565b8181526020810191368186011161000e57806020958437600094859183010152604181510361251e5790516040808301516060938401518251958652861a602080870191909152918501929092529183015282805290829060809060015afa15612511575b516001600160a01b0390811691161490565b61251961098a565b6124ff565b60405162461bcd60e51b815260206004820152601860248201527f696e76616c6964207369676e6174757265206c656e67746800000000000000006044820152606490fd5b906117cd602c6040518381946020830196873781016b39b0b6b0b7103bb4b639b7b760a11b602082015203600c81018452018261095a56fea2646970667358221220eacf2d0f0fddf620f69e59d9b51a6b1a1af75a22b5d760babcfd9280ef49d1c664736f6c63430008110033608034620000e957602081016001600160401b03811182821017620000d357604052600080915262000033600254620000ee565b601f811162000092575b50806002556200004f600454620000ee565b601f81116200006e575b60006004556040516125499081620001458239f35b601f60208360046200008a955220910160051c8101906200012b565b388062000059565b60028252620000cc90601f0160051c7f405787fa12a823e0f2b7631cc41b3ba8828b3321ca811111fa75cd3aa3bb5ace908101906200012b565b386200003d565b634e487b7160e01b600052604160045260246000fd5b600080fd5b90600182811c9216801562000120575b60208310146200010a57565b634e487b7160e01b600052602260045260246000fd5b91607f1691620000fe565b81811062000137575050565b600081556001016200012b56fe6080604052600436101561001257600080fd5b60003560e01c8062fdd58e14611ab957806301ffc9a714611a4b57806306fdde03146119a55780630e89341c146119865780632eb2c2d6146115ab5780634e1273f41461140d5780634f558e79146113df5780636b20c45414611185578063715018a614611123578063731133e914610f0e578063862440e214610d295780638da5cb5b14610cfc57806395d89b4114610c16578063a22cb46514610b32578063b2b45df5146107fb578063bd85b039146107cf578063e985e9c514610779578063f242432a1461039a578063f2fde38b1461030d5763f5298aca146100f757600080fd5b3461030857606036600319011261030857610110611ae8565b60249060448035916001600160a01b031690833533831480156102df575b61013790611db3565b8215926101448415612089565b61014d82612054565b9161015786612054565b94600060405161016681611b4e565b52610285575b60005b8351811015610208576101828185611d89565b5161018d8288611d89565b51908060005260036020818152604060002054928484106101c657906101c195949392916000525203604060002055611d64565b61016f565b506084906000805160206124f48339815191528a60288f6040519462461bcd60e51b8652600486015284015282015267616c537570706c7960c01b6064820152fd5b60008383898184528360205260408420838552602052806040852054610230828210156120e1565b838652856020526040862085875260205203604085205560405191825260208201527fc3d58168c5ae7397731d063d5bbf3d657854427343f4c083240f7aacaa2d0f6260403392a4610283604051611b4e565b005b949195929060005b87518110156102d457806102a46102cf9288611d89565b516102af828b611d89565b5160005260036020526102c86040600020918254611ed0565b9055611d64565b61028d565b50909295919461016c565b5082600052600160205260406000203360005260205261013760ff60406000205416905061012e565b600080fd5b3461030857602036600319011261030857610326611ae8565b61032e61243a565b6001600160a01b038116156103465761028390612495565b60405162461bcd60e51b815260206004820152602660248201527f4f776e61626c653a206e6577206f776e657220697320746865207a65726f206160448201526564647265737360d01b6064820152608490fd5b346103085760a0366003190112610308576103b3611ae8565b6103bb611afe565b90608480356001600160401b038111610308576103dc903690600401611c8d565b6001600160a01b0391908383163314801561074e575b6103fb90611db3565b828516156104098115611e17565b610414604435612054565b61041f606435612054565b918587161561070e575b610660575b5050604435600052602094600086526040600020848616600052865260406000205461045e606435821015611e71565b60443560005260008752604060002085871660005287526064359003604060002055604435600052600086526040600020848216600052865260406000206104a96064358254611ed0565b905560405160443581526064358782015284821690858716907fc3d58168c5ae7397731d063d5bbf3d657854427343f4c083240f7aacaa2d0f6260403392a4803b6104f057005b60a0600061053a958895604051978896879586938563f23a6e6160e01b9d8e87523360048801521660248601526044356044860152606435606486015284015260a4830190611bad565b0393165af160009181610631575b5061060757505060019061055a611fc8565b6308c379a0146105d2575b5061056c57005b60405162461bcd60e51b815260206004820152603460248201527f455243313135353a207472616e7366657220746f206e6f6e20455243313135356044820152732932b1b2b4bb32b91034b6b83632b6b2b73a32b960611b6064820152608490fd5b0390fd5b6105da611fe6565b90816105e65750610565565b6105ce60405192839262461bcd60e51b845260048401526024830190611bad565b6001600160e01b0319161490506102835760405162461bcd60e51b8152806105ce60048201611f7f565b610652919250843d8611610659575b61064a8183611b69565b810190611f5f565b9084610548565b503d610640565b92959194909360005b84518110156106ff5761067c8186611d89565b51906106888188611d89565b518260005260036020526040600020548181106106bc576106b793600052600360205203604060002055611d64565b610669565b60405162461bcd60e51b815260206004820152602860248201526000805160206124f4833981519152604482015267616c537570706c7960c01b60648201528b90fd5b5093509390949150858061042e565b959260009794919592975b8651811015610740578061073061073b928b611d89565b516102af828a611d89565b610719565b509295969194909396610429565b5082841660005260016020526040600020336000526020526103fb60ff6040600020541690506103f2565b3461030857604036600319011261030857610792611ae8565b61079a611afe565b9060018060a01b03809116600052600160205260406000209116600052602052602060ff604060002054166040519015158152f35b346103085760203660031901126103085760043560005260036020526020604060002054604051908152f35b3461030857606036600319011261030857610814611ae8565b6001600160401b039060243582811161030857610835903690600401611c8d565b6044358381116103085761084d903690600401611c8d565b61085e60ff60065460081c16612139565b8151848111610a1d5780610873603954611b14565b93601f94858111610ac4575b50602090858311600114610a3e57600092610a33575b50508160011b916000199060031b1c1916176039555b8051938411610a1d576108bf603a54611b14565b8281116109bb575b50602091841160011461093257610283939160009183610927575b50508160011b916000199060031b1c191617603a555b336bffffffffffffffffffffffff60a01b603854161760385561092260ff60065460081c16612139565b612495565b0151905084806108e2565b90601f19841691603a6000527fa2999d817b6757290b50e8ecf3fa939673403dd35c97de392fdb343b4015ce9e9260005b8181106109a3575091600193918661028397941061098a575b505050811b01603a556108f8565b015160001960f88460031b161c1916905584808061097c565b92936020600181928786015181550195019301610963565b603a6000527fa2999d817b6757290b50e8ecf3fa939673403dd35c97de392fdb343b4015ce9e8380870160051c82019260208810610a14575b0160051c01905b818110610a0857506108c7565b600081556001016109fb565b925081926109f4565b634e487b7160e01b600052604160045260246000fd5b015190508680610895565b603960009081527fdc16fef70f8d5ddbc01ee3d903d1e69c18a3c7be080eb86a81e0578814ee58d39350601f198516905b818110610aac5750908460019594939210610a93575b505050811b016039556108ab565b015160001960f88460031b161c19169055868080610a85565b92936020600181928786015181550195019301610a6f565b90915060396000527fdc16fef70f8d5ddbc01ee3d903d1e69c18a3c7be080eb86a81e0578814ee58d38580850160051c82019260208610610b29575b9085949392910160051c01905b818110610b1a575061087f565b60008155849350600101610b0d565b92508192610b00565b3461030857604036600319011261030857610b4b611ae8565b60243590811515809203610308576001600160a01b031690338214610bbf57336000526001602052604060002082600052602052604060002060ff1981541660ff83161790556040519081527f17307eab39ab6107e8899845ad3d59bd9653f200f220920489ca2b5937696c3160203392a3005b60405162461bcd60e51b815260206004820152602960248201527f455243313135353a2073657474696e6720617070726f76616c20737461747573604482015268103337b91039b2b63360b91b6064820152608490fd5b34610308576000366003190112610308576040516000603a54610c3881611b14565b80845290600190818116908115610cd55750600114610c7a575b610c7684610c6281860382611b69565b604051918291602083526020830190611bad565b0390f35b603a600090815292507fa2999d817b6757290b50e8ecf3fa939673403dd35c97de392fdb343b4015ce9e5b828410610cbd575050508101602001610c6282610c52565b80546020858701810191909152909301928101610ca5565b60ff191660208087019190915292151560051b85019092019250610c629150839050610c52565b346103085760003660031901126103085760065460405160109190911c6001600160a01b03168152602090f35b34610308576040366003190112610308576001600160401b0360043560243582811161030857366023820112156103085780600401359083821161030857366024838301011161030857610d9691610d8c60018060a01b03603854163314612199565b6024369201611c47565b9181600052602090600582526040600020908451908111610a1d57610dbb8254611b14565b601f8111610ec8575b5082601f8211600114610e415781907f6bb7ff708619ba0610cba295a58592e0451dee2622938c8755667688daf3529b9596600092610e36575b50508160011b916000199060031b1c19161790555b610e1c836121fb565b90610e31604051928284938452830190611bad565b0390a2005b015190508680610dfe565b601f1982169583600052846000209660005b818110610eb15750917f6bb7ff708619ba0610cba295a58592e0451dee2622938c8755667688daf3529b969791846001959410610e98575b505050811b019055610e13565b015160001960f88460031b161c19169055868080610e8b565b838301518955600190980197928601928601610e53565b8260005283600020601f830160051c810191858410610f04575b601f0160051c01905b818110610ef85750610dc4565b60008155600101610eeb565b9091508190610ee2565b3461030857608036600319011261030857610f27611ae8565b604435906024356064356001600160401b03811161030857610f4d903690600401611c8d565b9160018060a01b03610f6481603854163314612199565b610f6e8383611cdf565b6110cf57811691821561108057610f8481612054565b92610f8e86612054565b9560005b8551811015610fb95780610fa9610fb4928a611d89565b516102af8289611d89565b610f92565b5085836000526020946000865260406000208460005286526040600020610fe1848254611ed0565b905583600060405187815285898201527fc3d58168c5ae7397731d063d5bbf3d657854427343f4c083240f7aacaa2d0f6260403392a43b61101e57005b611062928592600060405180968195829463f23a6e6160e01b9a8b85523360048601528560248601526044850152606484015260a0608484015260a4830190611bad565b03925af160009181610631575061060757505060019061055a611fc8565b60405162461bcd60e51b815260206004820152602160248201527f455243313135353a206d696e7420746f20746865207a65726f206164647265736044820152607360f81b6064820152608490fd5b60405162461bcd60e51b815260206004820152602660248201527f4d61696e6e65742046617273693a20746f6b656e20636f6c6c656374656420616044820152656c726561647960d01b6064820152608490fd5b346103085760003660031901126103085761113c61243a565b6006805462010000600160b01b0319811690915560009060101c6001600160a01b03167f8be0079c531659141344cd1fd0a4f28419497f9722a3daafe3b4186f6b6457e08280a3005b346103085760603660031901126103085761119e611ae8565b6024906001600160401b03908235828111610308576111c1903690600401611be9565b916044908135908111610308576111dc903690600401611be9565b6001600160a01b039092169233841480156113b6575b6111fb90611db3565b83156112078115612089565b6112148251855114611edd565b600060405161122281611b4e565b5261137e575b60005b81518110156112c45761123e8183611d89565b516112498286611d89565b5190806000526003602081815260406000205492848410611282579061127d95949392916000525203604060002055611d64565b61122b565b60405162461bcd60e51b8152600481018390526028818d01526000805160206124f4833981519152818a015267616c537570706c7960c01b6064820152608490fd5b83828660005b825181101561133957806112e16113349285611d89565b516112ec8287611d89565b519080600052602060008152604060002086600052815260406000205491611316848410156120e1565b60005260008152604060002090866000525203604060002055611d64565b6112ca565b50907f4a39dc06d4c0dbc64b70af90fd698a233a518aa5d07e595d983b8c0526c8f7fb611370600094604051918291339583611f3a565b0390a4610283604051611b4e565b9260009491945b84518110156113ac578061139c6113a79286611d89565b516102af8288611d89565b611385565b5092939093611228565b508360005260016020526040600020336000526020526111fb60ff6040600020541690506111f2565b3461030857602036600319011261030857600435600052600360205260206040600020541515604051908152f35b34610308576040366003190112610308576004356001600160401b0380821161030857366023830112156103085781600401359061144a82611bd2565b926114586040519485611b69565b82845260209260248486019160051b8301019136831161030857602401905b82821061158c5750505060243590811161030857611499903690600401611be9565b8251815103611535578251926114ae84611bd2565b936114bc6040519586611b69565b8085526114cb601f1991611bd2565b01368486013760005b815181101561151e57611519906115096001600160a01b036114f68386611d89565b51166115028387611d89565b5190611cdf565b6115138288611d89565b52611d64565b6114d4565b505050610c76604051928284938452830190611cab565b60405162461bcd60e51b815260048101839052602960248201527f455243313135353a206163636f756e747320616e6420696473206c656e677468604482015268040dad2e6dac2e8c6d60bb1b6064820152608490fd5b81356001600160a01b0381168103610308578152908401908401611477565b346103085760031960a036820112610308576115c5611ae8565b906115ce611afe565b6044908135926001600160401b0393848111610308576115f2903690600401611be9565b606480358681116103085761160b903690600401611be9565b94608496873590811161030857611626903690600401611c8d565b6001600160a01b03948986163314801561195b575b61164490611db3565b6116518551895114611edd565b8587161561165f8115611e17565b868b1615611918575b611863575b60005b855181101561170657806116876117019288611d89565b518c611693838d611d89565b519180600052826020926000845260406000208d82166000528452604060002054906116c183831015611e71565b83600052600085528d60406000209116600052845203604060002055600052600081526040600020908a8c16600052526102c86040600020918254611ed0565b611670565b50888a989796949789604051887f4a39dc06d4c0dbc64b70af90fd698a233a518aa5d07e595d983b8c0526c8f7fb89808d169416928061174887339583611f3a565b0390a4873b61175357005b60405198899788968863bc197c8160e01b9d8e8a523360048b0152166024890152870160a0905260a4870161178791611cab565b9084878303019087015261179a91611cab565b9184830301908401526117ac91611bad565b03921691815a602094600091f160009181611843575b5061181b57505060016117d3611fc8565b6308c379a0146117e4575b61056c57005b6117ec611fe6565b806117f757506117de565b60405162461bcd60e51b8152602060048201529081906105ce906024830190611bad565b6001600160e01b031916146102835760405162461bcd60e51b8152806105ce60048201611f7f565b61185c91925060203d81116106595761064a8183611b69565b90836117c2565b9796949060009993999692965b8551811015611908576118838187611d89565b5161188e8289611d89565b519080600052602060038152604060002054918383106118c7576118c2949392916003916000525203604060002055611d64565b611870565b508b9067616c537570706c7960c01b8f6000805160206124f48339815191528e6040519462461bcd60e51b8652600486015260286024860152840152820152fd5b509094969798929895919561166d565b99969498959392919060005b8a5181101561194c57808b6102af82611940611947958f611d89565b5192611d89565b611924565b50909192939598949699611668565b50858a16600052600160205260406000203360005260205261164460ff60406000205416905061163b565b3461030857602036600319011261030857610c76610c626004356121fb565b346103085760003660031901126103085760405160006039546119c781611b14565b80845290600190818116908115610cd557506001146119f057610c7684610c6281860382611b69565b6039600090815292507fdc16fef70f8d5ddbc01ee3d903d1e69c18a3c7be080eb86a81e0578814ee58d35b828410611a33575050508101602001610c6282610c52565b80546020858701810191909152909301928101611a1b565b346103085760203660031901126103085760043563ffffffff60e01b811680910361030857602090636cdb3d1360e11b8114908115611aa8575b8115611a97575b506040519015158152f35b6301ffc9a760e01b14905082611a8c565b6303a24d0760e21b81149150611a85565b34610308576040366003190112610308576020611ae0611ad7611ae8565b60243590611cdf565b604051908152f35b600435906001600160a01b038216820361030857565b602435906001600160a01b038216820361030857565b90600182811c92168015611b44575b6020831014611b2e57565b634e487b7160e01b600052602260045260246000fd5b91607f1691611b23565b602081019081106001600160401b03821117610a1d57604052565b90601f801991011681019081106001600160401b03821117610a1d57604052565b60005b838110611b9d5750506000910152565b8181015183820152602001611b8d565b90602091611bc681518092818552858086019101611b8a565b601f01601f1916010190565b6001600160401b038111610a1d5760051b60200190565b81601f8201121561030857803591611c0083611bd2565b92611c0e6040519485611b69565b808452602092838086019260051b820101928311610308578301905b828210611c38575050505090565b81358152908301908301611c2a565b9291926001600160401b038211610a1d5760405191611c70601f8201601f191660200184611b69565b829481845281830111610308578281602093846000960137010152565b9080601f8301121561030857816020611ca893359101611c47565b90565b90815180825260208080930193019160005b828110611ccb575050505090565b835185529381019392810192600101611cbd565b6001600160a01b0316908115611d0c57600052600060205260406000209060005260205260406000205490565b60405162461bcd60e51b815260206004820152602a60248201527f455243313135353a2061646472657373207a65726f206973206e6f742061207660448201526930b634b21037bbb732b960b11b6064820152608490fd5b6000198114611d735760010190565b634e487b7160e01b600052601160045260246000fd5b8051821015611d9d5760209160051b010190565b634e487b7160e01b600052603260045260246000fd5b15611dba57565b60405162461bcd60e51b815260206004820152602f60248201527f455243313135353a2063616c6c6572206973206e6f7420746f6b656e206f776e60448201526e195c881b9bdc88185c1c1c9bdd9959608a1b6064820152608490fd5b15611e1e57565b60405162461bcd60e51b815260206004820152602560248201527f455243313135353a207472616e7366657220746f20746865207a65726f206164604482015264647265737360d81b6064820152608490fd5b15611e7857565b60405162461bcd60e51b815260206004820152602a60248201527f455243313135353a20696e73756666696369656e742062616c616e636520666f60448201526939103a3930b739b332b960b11b6064820152608490fd5b91908201809211611d7357565b15611ee457565b60405162461bcd60e51b815260206004820152602860248201527f455243313135353a2069647320616e6420616d6f756e7473206c656e677468206044820152670dad2e6dac2e8c6d60c31b6064820152608490fd5b9091611f51611ca893604084526040840190611cab565b916020818403910152611cab565b9081602091031261030857516001600160e01b0319811681036103085790565b60809060208152602860208201527f455243313135353a204552433131353552656365697665722072656a656374656040820152676420746f6b656e7360c01b60608201520190565b60009060033d11611fd557565b905060046000803e60005160e01c90565b600060443d10611ca857604051600319913d83016004833e81516001600160401b03918282113d6024840111176120435781840194855193841161204b573d850101602084870101116120435750611ca892910160200190611b69565b949350505050565b50949350505050565b60405190604082018281106001600160401b03821117610a1d5760405260018252602082016020368237825115611d9d575290565b1561209057565b60405162461bcd60e51b815260206004820152602360248201527f455243313135353a206275726e2066726f6d20746865207a65726f206164647260448201526265737360e81b6064820152608490fd5b156120e857565b60405162461bcd60e51b8152602060048201526024808201527f455243313135353a206275726e20616d6f756e7420657863656564732062616c604482015263616e636560e01b6064820152608490fd5b1561214057565b60405162461bcd60e51b815260206004820152602b60248201527f496e697469616c697a61626c653a20636f6e7472616374206973206e6f74206960448201526a6e697469616c697a696e6760a81b6064820152608490fd5b156121a057565b60405162461bcd60e51b815260206004820152602d60248201527f4b617469626568313135353a207265737472696374656420616363657373207460448201526c6f2074686520466163746f727960981b6064820152608490fd5b60009081526020906005825260408120906040519080918354928161221f85611b14565b918282528782019660019689888216918260001461241c5750506001146123de575b5061224e92500382611b69565b80511561232357604051948593836004549161226983611b14565b9281811690811561230257506001146122a2575b50505050612293611ca894839251938491611b8a565b0103601f198101835282611b69565b909192969450600482527f8a35acfbc15ff81a39ae7d344fd709f28e8600b4aa8c65c6b64bfe7fe36bd19b5b8383106122ec57505050611ca894612293918501019294388061227d565b80548984018901528896509187019181016122ce565b60ff191688860152505050801515028401019150612293611ca8388061227d565b506040516002549094935084928261233a83611b14565b808652928281169081156123bc5750600114612360575b505050611ca892500382611b69565b600281527f405787fa12a823e0f2b7631cc41b3ba8828b3321ca811111fa75cd3aa3bb5ace95935091905b8183106123a4575050611ca89350820101388080612351565b8554878401850152948501948694509183019161238b565b92505050611ca894925060ff191682840152151560051b820101388080612351565b915050835281868085208686915b85831061240357505061224e935082010138612241565b80919294505483858801015201910187908685936123ec565b60ff19168a5261224e95151560051b85010192503891506122419050565b60065460101c6001600160a01b0316330361245157565b606460405162461bcd60e51b815260206004820152602060248201527f4f776e61626c653a2063616c6c6572206973206e6f7420746865206f776e65726044820152fd5b6006805462010000600160b01b03198116601084811b62010000600160b01b0316919091179092556001600160a01b0392831692911c167f8be0079c531659141344cd1fd0a4f28419497f9722a3daafe3b4186f6b6457e0600080a356fe455243313135353a206275726e20616d6f756e74206578636565647320746f74a264697066735822122082f3af386902e9dc069861d7e7abed2959d627b69cdd5e9f5a756b697fd7c85364736f6c63430008110033",
  "linkReferences": {},
  "deployedLinkReferences": {}
}