{
  "_format": "hh-sol-artifact-1",
  "contractName": "Factory1155",
  "sourceName": "contracts/katibeh1155/Factory1155.sol",
  "abi": [
    {
      "inputs": [
        {
          "internalType": "contract ISplitter",
          "name": "_split",
          "type": "address"
        },
        {
          "internalType": "address",
          "name": "qhAddr",
          "type": "address"
        }
      ],
      "stateMutability": "nonpayable",
      "type": "constructor"
    },
    {
      "anonymous": false,
      "inputs": [
        {
          "indexed": true,
          "internalType": "uint256",
          "name": "tokenId",
          "type": "uint256"
        },
        {
          "indexed": true,
          "internalType": "uint256",
          "name": "toTokenId",
          "type": "uint256"
        }
      ],
      "name": "NewReply",
      "type": "event"
    },
    {
      "anonymous": false,
      "inputs": [
        {
          "indexed": true,
          "internalType": "uint256",
          "name": "tokenId",
          "type": "uint256"
        },
        {
          "indexed": true,
          "internalType": "address",
          "name": "creator",
          "type": "address"
        },
        {
          "indexed": true,
          "internalType": "bytes",
          "name": "data",
          "type": "bytes"
        }
      ],
      "name": "NewToken",
      "type": "event"
    },
    {
      "anonymous": false,
      "inputs": [
        {
          "indexed": false,
          "internalType": "uint256",
          "name": "tokenId",
          "type": "uint256"
        },
        {
          "indexed": true,
          "internalType": "bytes32",
          "name": "tag1",
          "type": "bytes32"
        },
        {
          "indexed": true,
          "internalType": "bytes32",
          "name": "tag2",
          "type": "bytes32"
        },
        {
          "indexed": true,
          "internalType": "bytes32",
          "name": "tag3",
          "type": "bytes32"
        }
      ],
      "name": "Tags",
      "type": "event"
    },
    {
      "anonymous": false,
      "inputs": [
        {
          "indexed": true,
          "internalType": "uint256",
          "name": "tokenId",
          "type": "uint256"
        },
        {
          "indexed": false,
          "internalType": "bytes",
          "name": "data",
          "type": "bytes"
        }
      ],
      "name": "TokenData",
      "type": "event"
    },
    {
      "anonymous": false,
      "inputs": [
        {
          "indexed": true,
          "internalType": "address",
          "name": "operator",
          "type": "address"
        },
        {
          "indexed": true,
          "internalType": "address",
          "name": "from",
          "type": "address"
        },
        {
          "indexed": true,
          "internalType": "address",
          "name": "to",
          "type": "address"
        },
        {
          "indexed": false,
          "internalType": "uint256",
          "name": "id",
          "type": "uint256"
        },
        {
          "indexed": false,
          "internalType": "uint256",
          "name": "value",
          "type": "uint256"
        }
      ],
      "name": "TransferSingle",
      "type": "event"
    },
    {
      "inputs": [],
      "name": "QH",
      "outputs": [
        {
          "internalType": "contract IQHash",
          "name": "",
          "type": "address"
        }
      ],
      "stateMutability": "view",
      "type": "function"
    },
    {
      "inputs": [
        {
          "internalType": "address",
          "name": "",
          "type": "address"
        }
      ],
      "name": "_collectorScore",
      "outputs": [
        {
          "internalType": "uint256",
          "name": "",
          "type": "uint256"
        }
      ],
      "stateMutability": "view",
      "type": "function"
    },
    {
      "inputs": [
        {
          "internalType": "uint256",
          "name": "",
          "type": "uint256"
        }
      ],
      "name": "_tokenCollection",
      "outputs": [
        {
          "internalType": "address",
          "name": "",
          "type": "address"
        }
      ],
      "stateMutability": "view",
      "type": "function"
    },
    {
      "inputs": [
        {
          "internalType": "uint256",
          "name": "tokenId",
          "type": "uint256"
        },
        {
          "components": [
            {
              "internalType": "address",
              "name": "creator",
              "type": "address"
            },
            {
              "internalType": "uint256",
              "name": "signTime",
              "type": "uint256"
            },
            {
              "internalType": "uint256",
              "name": "initTime",
              "type": "uint256"
            },
            {
              "internalType": "uint256",
              "name": "expTime",
              "type": "uint256"
            },
            {
              "internalType": "string",
              "name": "tokenURI",
              "type": "string"
            },
            {
              "internalType": "bytes",
              "name": "data",
              "type": "bytes"
            },
            {
              "internalType": "uint256[]",
              "name": "toTokenId",
              "type": "uint256[]"
            },
            {
              "internalType": "bytes32[]",
              "name": "tags",
              "type": "bytes32[]"
            },
            {
              "components": [
                {
                  "internalType": "address payable",
                  "name": "recipient",
                  "type": "address"
                },
                {
                  "internalType": "uint256",
                  "name": "percentInBasisPoints",
                  "type": "uint256"
                }
              ],
              "internalType": "struct ISplitter.Share[]",
              "name": "owners",
              "type": "tuple[]"
            },
            {
              "components": [
                {
                  "internalType": "uint256",
                  "name": "A",
                  "type": "uint256"
                },
                {
                  "internalType": "int256",
                  "name": "B",
                  "type": "int256"
                },
                {
                  "internalType": "int256",
                  "name": "C",
                  "type": "int256"
                },
                {
                  "internalType": "int256",
                  "name": "D",
                  "type": "int256"
                },
                {
                  "internalType": "uint96",
                  "name": "royalty",
                  "type": "uint96"
                },
                {
                  "internalType": "uint256",
                  "name": "totalSupply",
                  "type": "uint256"
                },
                {
                  "internalType": "uint256",
                  "name": "discount",
                  "type": "uint256"
                },
                {
                  "internalType": "uint256",
                  "name": "chainId",
                  "type": "uint256"
                }
              ],
              "internalType": "struct DataStorage.Pricing[]",
              "name": "pricing",
              "type": "tuple[]"
            }
          ],
          "internalType": "struct DataStorage.Katibeh",
          "name": "katibeh",
          "type": "tuple"
        },
        {
          "internalType": "bytes",
          "name": "sig",
          "type": "bytes"
        },
        {
          "internalType": "bytes",
          "name": "data",
          "type": "bytes"
        },
        {
          "components": [
            {
              "internalType": "address payable",
              "name": "recipient",
              "type": "address"
            },
            {
              "internalType": "uint256",
              "name": "percentInBasisPoints",
              "type": "uint256"
            }
          ],
          "internalType": "struct ISplitter.Share[]",
          "name": "dapps",
          "type": "tuple[]"
        }
      ],
      "name": "collect",
      "outputs": [],
      "stateMutability": "payable",
      "type": "function"
    },
    {
      "inputs": [
        {
          "internalType": "address",
          "name": "collector",
          "type": "address"
        },
        {
          "internalType": "uint256",
          "name": "tokenId",
          "type": "uint256"
        },
        {
          "components": [
            {
              "internalType": "address",
              "name": "creator",
              "type": "address"
            },
            {
              "internalType": "uint256",
              "name": "signTime",
              "type": "uint256"
            },
            {
              "internalType": "uint256",
              "name": "initTime",
              "type": "uint256"
            },
            {
              "internalType": "uint256",
              "name": "expTime",
              "type": "uint256"
            },
            {
              "internalType": "string",
              "name": "tokenURI",
              "type": "string"
            },
            {
              "internalType": "bytes",
              "name": "data",
              "type": "bytes"
            },
            {
              "internalType": "uint256[]",
              "name": "toTokenId",
              "type": "uint256[]"
            },
            {
              "internalType": "bytes32[]",
              "name": "tags",
              "type": "bytes32[]"
            },
            {
              "components": [
                {
                  "internalType": "address payable",
                  "name": "recipient",
                  "type": "address"
                },
                {
                  "internalType": "uint256",
                  "name": "percentInBasisPoints",
                  "type": "uint256"
                }
              ],
              "internalType": "struct ISplitter.Share[]",
              "name": "owners",
              "type": "tuple[]"
            },
            {
              "components": [
                {
                  "internalType": "uint256",
                  "name": "A",
                  "type": "uint256"
                },
                {
                  "internalType": "int256",
                  "name": "B",
                  "type": "int256"
                },
                {
                  "internalType": "int256",
                  "name": "C",
                  "type": "int256"
                },
                {
                  "internalType": "int256",
                  "name": "D",
                  "type": "int256"
                },
                {
                  "internalType": "uint96",
                  "name": "royalty",
                  "type": "uint96"
                },
                {
                  "internalType": "uint256",
                  "name": "totalSupply",
                  "type": "uint256"
                },
                {
                  "internalType": "uint256",
                  "name": "discount",
                  "type": "uint256"
                },
                {
                  "internalType": "uint256",
                  "name": "chainId",
                  "type": "uint256"
                }
              ],
              "internalType": "struct DataStorage.Pricing[]",
              "name": "pricing",
              "type": "tuple[]"
            }
          ],
          "internalType": "struct DataStorage.Katibeh",
          "name": "katibeh",
          "type": "tuple"
        },
        {
          "internalType": "bytes",
          "name": "sig",
          "type": "bytes"
        },
        {
          "internalType": "bytes",
          "name": "data",
          "type": "bytes"
        },
        {
          "components": [
            {
              "internalType": "address payable",
              "name": "recipient",
              "type": "address"
            },
            {
              "internalType": "uint256",
              "name": "percentInBasisPoints",
              "type": "uint256"
            }
          ],
          "internalType": "struct ISplitter.Share[]",
          "name": "dapps",
          "type": "tuple[]"
        }
      ],
      "name": "collectTo",
      "outputs": [],
      "stateMutability": "payable",
      "type": "function"
    },
    {
      "inputs": [
        {
          "internalType": "uint256",
          "name": "tokenId",
          "type": "uint256"
        },
        {
          "components": [
            {
              "internalType": "address",
              "name": "creator",
              "type": "address"
            },
            {
              "internalType": "uint256",
              "name": "signTime",
              "type": "uint256"
            },
            {
              "internalType": "uint256",
              "name": "initTime",
              "type": "uint256"
            },
            {
              "internalType": "uint256",
              "name": "expTime",
              "type": "uint256"
            },
            {
              "internalType": "string",
              "name": "tokenURI",
              "type": "string"
            },
            {
              "internalType": "bytes",
              "name": "data",
              "type": "bytes"
            },
            {
              "internalType": "uint256[]",
              "name": "toTokenId",
              "type": "uint256[]"
            },
            {
              "internalType": "bytes32[]",
              "name": "tags",
              "type": "bytes32[]"
            },
            {
              "components": [
                {
                  "internalType": "address payable",
                  "name": "recipient",
                  "type": "address"
                },
                {
                  "internalType": "uint256",
                  "name": "percentInBasisPoints",
                  "type": "uint256"
                }
              ],
              "internalType": "struct ISplitter.Share[]",
              "name": "owners",
              "type": "tuple[]"
            },
            {
              "components": [
                {
                  "internalType": "uint256",
                  "name": "A",
                  "type": "uint256"
                },
                {
                  "internalType": "int256",
                  "name": "B",
                  "type": "int256"
                },
                {
                  "internalType": "int256",
                  "name": "C",
                  "type": "int256"
                },
                {
                  "internalType": "int256",
                  "name": "D",
                  "type": "int256"
                },
                {
                  "internalType": "uint96",
                  "name": "royalty",
                  "type": "uint96"
                },
                {
                  "internalType": "uint256",
                  "name": "totalSupply",
                  "type": "uint256"
                },
                {
                  "internalType": "uint256",
                  "name": "discount",
                  "type": "uint256"
                },
                {
                  "internalType": "uint256",
                  "name": "chainId",
                  "type": "uint256"
                }
              ],
              "internalType": "struct DataStorage.Pricing[]",
              "name": "pricing",
              "type": "tuple[]"
            }
          ],
          "internalType": "struct DataStorage.Katibeh",
          "name": "katibeh",
          "type": "tuple"
        }
      ],
      "name": "fee",
      "outputs": [
        {
          "internalType": "uint256",
          "name": "_fee",
          "type": "uint256"
        }
      ],
      "stateMutability": "view",
      "type": "function"
    },
    {
      "inputs": [
        {
          "internalType": "uint256",
          "name": "tokenId",
          "type": "uint256"
        },
        {
          "components": [
            {
              "internalType": "address",
              "name": "creator",
              "type": "address"
            },
            {
              "internalType": "uint256",
              "name": "signTime",
              "type": "uint256"
            },
            {
              "internalType": "uint256",
              "name": "initTime",
              "type": "uint256"
            },
            {
              "internalType": "uint256",
              "name": "expTime",
              "type": "uint256"
            },
            {
              "internalType": "string",
              "name": "tokenURI",
              "type": "string"
            },
            {
              "internalType": "bytes",
              "name": "data",
              "type": "bytes"
            },
            {
              "internalType": "uint256[]",
              "name": "toTokenId",
              "type": "uint256[]"
            },
            {
              "internalType": "bytes32[]",
              "name": "tags",
              "type": "bytes32[]"
            },
            {
              "components": [
                {
                  "internalType": "address payable",
                  "name": "recipient",
                  "type": "address"
                },
                {
                  "internalType": "uint256",
                  "name": "percentInBasisPoints",
                  "type": "uint256"
                }
              ],
              "internalType": "struct ISplitter.Share[]",
              "name": "owners",
              "type": "tuple[]"
            },
            {
              "components": [
                {
                  "internalType": "uint256",
                  "name": "A",
                  "type": "uint256"
                },
                {
                  "internalType": "int256",
                  "name": "B",
                  "type": "int256"
                },
                {
                  "internalType": "int256",
                  "name": "C",
                  "type": "int256"
                },
                {
                  "internalType": "int256",
                  "name": "D",
                  "type": "int256"
                },
                {
                  "internalType": "uint96",
                  "name": "royalty",
                  "type": "uint96"
                },
                {
                  "internalType": "uint256",
                  "name": "totalSupply",
                  "type": "uint256"
                },
                {
                  "internalType": "uint256",
                  "name": "discount",
                  "type": "uint256"
                },
                {
                  "internalType": "uint256",
                  "name": "chainId",
                  "type": "uint256"
                }
              ],
              "internalType": "struct DataStorage.Pricing[]",
              "name": "pricing",
              "type": "tuple[]"
            }
          ],
          "internalType": "struct DataStorage.Katibeh",
          "name": "katibeh",
          "type": "tuple"
        }
      ],
      "name": "feeAndSupply",
      "outputs": [
        {
          "internalType": "uint256",
          "name": "_fee",
          "type": "uint256"
        },
        {
          "internalType": "uint256",
          "name": "supply",
          "type": "uint256"
        }
      ],
      "stateMutability": "view",
      "type": "function"
    },
    {
      "inputs": [],
      "name": "implementation",
      "outputs": [
        {
          "internalType": "contract Katibeh1155",
          "name": "",
          "type": "address"
        }
      ],
      "stateMutability": "view",
      "type": "function"
    },
    {
      "inputs": [
        {
          "internalType": "address",
          "name": "creatorAddr",
          "type": "address"
        },
        {
          "internalType": "string",
          "name": "tag0",
          "type": "string"
        }
      ],
      "name": "predictCollAddr",
      "outputs": [
        {
          "internalType": "address",
          "name": "",
          "type": "address"
        }
      ],
      "stateMutability": "view",
      "type": "function"
    },
    {
      "inputs": [
        {
          "internalType": "address payable",
          "name": "newAddr",
          "type": "address"
        }
      ],
      "name": "setReceiver1",
      "outputs": [],
      "stateMutability": "nonpayable",
      "type": "function"
    },
    {
      "inputs": [],
      "name": "split",
      "outputs": [
        {
          "internalType": "contract ISplitter",
          "name": "",
          "type": "address"
        }
      ],
      "stateMutability": "view",
      "type": "function"
    },
    {
      "inputs": [
        {
          "internalType": "uint256",
          "name": "tokenId",
          "type": "uint256"
        }
      ],
      "name": "uri",
      "outputs": [
        {
          "internalType": "string",
          "name": "",
          "type": "string"
        }
      ],
      "stateMutability": "view",
      "type": "function"
    },
    {
      "inputs": [
        {
          "internalType": "address",
          "name": "",
          "type": "address"
        }
      ],
      "name": "userBalance",
      "outputs": [
        {
          "internalType": "uint256",
          "name": "",
          "type": "uint256"
        }
      ],
      "stateMutability": "view",
      "type": "function"
    },
    {
      "inputs": [],
      "name": "withdraw",
      "outputs": [],
      "stateMutability": "nonpayable",
      "type": "function"
    }
  ],
  "bytecode": "0x608034620000fd576001600160401b0390601f620051e738819003918201601f19168301918483118484101762000102578084926040948552833981010312620000fd5780516001600160a01b03808216929091839003620000fd576020015191818316809303620000fd57600080546001600160a01b03199081169092178155604051919490919061279c80830191821183831017620000e95790829162002a4b8339039082f0908115620000dd575016826005541617600555816006541617600655339060015416176001556040516129329081620001198239f35b604051903d90823e3d90fd5b634e487b7160e01b84526041600452602484fd5b600080fd5b634e487b7160e01b600052604160045260246000fdfe6080604052600436101561001257600080fd5b60003560e01c80630103c92b146100f757806303c13148146100f2578063054bffb7146100ed57806308e7c4d0146100e85780630e89341c146100e35780633ccfd60b146100de5780635c60da1b146100d95780635fd099e6146100d457806366a302ef146100cf5780638191ea83146100ca5780638eef26bd146100c5578063968a577b146100c0578063a1230c8d146100bb5763f7654176146100b657600080fd5b6107cd565b610746565b610709565b6106ea565b6105ca565b610494565b610431565b610408565b6103d5565b61039e565b610319565b61027b565b610169565b61012c565b6001600160a01b0381160361010d57565b600080fd5b6004359061011f826100fc565b565b359061011f826100fc565b3461010d57602036600319011261010d57600435610149816100fc565b60018060a01b031660005260026020526020604060002054604051908152f35b3461010d57602036600319011261010d57600435610186816100fc565b600154906001600160a01b039081831633036101b0576001600160a01b0319909216911617600155005b60405162461bcd60e51b815260206004820152603160248201527f4665654d616e616765723a204f6e6c79207265636569766572312063616e206360448201527068616e676520697473206164647265737360781b6064820152608490fd5b908161014091031261010d5790565b9181601f8401121561010d578235916001600160401b03831161010d576020838186019501011161010d57565b9181601f8401121561010d578235916001600160401b03831161010d576020808501948460061b01011161010d57565b60c036600319011261010d5761028f610112565b6001600160401b039060443582811161010d576102b090369060040161020f565b9060643583811161010d576102c990369060040161021e565b9060843585811161010d576102e290369060040161021e565b92909160a43596871161010d5761030061030c97369060040161024b565b96909560243590611382565b005b600091031261010d57565b3461010d57600036600319011261010d576006546040516001600160a01b039091168152602090f35b60005b8381106103555750506000910152565b8181015183820152602001610345565b9060209161037e81518092818552858086019101610342565b601f01601f1916010190565b90602061039b928181520190610365565b90565b3461010d57602036600319011261010d576103d16103bd600435610c28565b604051918291602083526020830190610365565b0390f35b3461010d576000806003193601126104055733815260026020526104016040822082815491553361222c565b5080f35b80fd5b3461010d57600036600319011261010d576005546040516001600160a01b039091168152602090f35b3461010d57602036600319011261010d576004356000526003602052602060018060a01b0360406000205416604051908152f35b90604060031983011261010d5760043591602435906001600160401b03821161010d5761039b9160040161020f565b3461010d5760206104ad6104a736610465565b90610b02565b50604051908152f35b634e487b7160e01b600052604160045260246000fd5b61010081019081106001600160401b038211176104e857604052565b6104b6565b6001600160401b0381116104e857604052565b6101a081019081106001600160401b038211176104e857604052565b90601f801991011681019081106001600160401b038211176104e857604052565b6040519061014082018281106001600160401b038211176104e857604052565b6001600160401b0381116104e857601f01601f191660200190565b9291926105848261055d565b91610592604051938461051c565b82948184528183011161010d578281602093846000960137010152565b9080601f8301121561010d5781602061039b93359101610578565b3461010d57604036600319011261010d576004356105e7816100fc565b6024356001600160401b03811161010d576103d1916106786106106106d09336906004016105af565b9161064961063561064e60018060a01b0360055416956040519283916020830161038a565b0391610649601f199384810183528261051c565b61125b565b60405160609490941b6001600160601b03191660208501526034840152605490810183528261051c565b306043916055936040519260388401526f5af43d82803e903d91602b57fd5bf3ff60248401526014830152733d602d80600a3d3981f3363d3d373d3d3d363d73825260588201526037600c8201206078820152012090565b6040516001600160a01b0390911681529081906020820190565b3461010d5760406106fd6104a736610465565b82519182526020820152f35b3461010d57602036600319011261010d57600435610726816100fc565b60018060a01b031660005260046020526020604060002054604051908152f35b60a036600319011261010d576001600160401b0360243581811161010d5761077290369060040161020f565b60443582811161010d5761078a90369060040161021e565b60649291923584811161010d576107a590369060040161021e565b9160843595861161010d576107c161030c96369060040161024b565b95909460043533611382565b3461010d57600036600319011261010d576000546040516001600160a01b039091168152602090f35b9081602091031261010d575190565b6040513d6000823e3d90fd5b6001600160401b0381116104e85760051b60200190565b81601f8201121561010d5780359161083f83610811565b9261084d604051948561051c565b808452602092838086019260051b82010192831161010d578301905b828210610877575050505090565b81358152908301908301610869565b92919261089282610811565b6040926108a18451928361051c565b819581835260208093019160061b84019381851161010d57915b8483106108ca57505050505050565b858383031261010d57855190868201908282106001600160401b038311176104e85787928692845285356108fd816100fc565b815282860135838201528152019201916108bb565b9080601f8301121561010d5781602061039b93359101610886565b35906001600160601b038216820361010d57565b81601f8201121561010d5780359061095882610811565b926040926109688451958661051c565b808552602091828087019260081b8501019381851161010d578301915b8483106109955750505050505090565b6101008383031261010d57836101009187516109b0816104cc565b85358152828601358382015288860135898201526060808701359082015260806109db81880161092d565b9082015260a0808701359082015260c0808701359082015260e08087013590820152815201920191610985565b91906101408382031261010d57610a1d61053d565b92610a2781610121565b84526020810135602085015260408101356040850152606081013560608501526080810135916001600160401b039283811161010d5781610a699184016105af565b608086015260a082013583811161010d5781610a869184016105af565b60a086015260c082013583811161010d5781610aa3918401610828565b60c086015260e082013583811161010d5781610ac0918401610828565b60e08601526101008083013584811161010d5782610adf918501610912565b90860152610120928383013590811161010d57610afc9201610941565b90830152565b6000818152600360205260408120909291906001600160a01b039054169081610b5f575b5050610b3181611fba565b15610b435750610b4081612390565b91565b610b59610b54610b40923690610a08565b6122b2565b8261266e565b60209192935060246040518094819363bd85b03960e01b835260048301525afa908115610bc557600091610b97575b50903880610b26565b610bb8915060203d8111610bbe575b610bb0818361051c565b8101906107f6565b38610b8e565b503d610ba6565b610805565b60208183031261010d578051906001600160401b03821161010d570181601f8201121561010d578051610bfc8161055d565b92610c0a604051948561051c565b8184526020828401011161010d5761039b9160208085019101610342565b6001600160a01b038116600090815260046020526040902054610cd257600081610c81610c75610c75610c68610ca1966000526003602052604060002090565b546001600160a01b031690565b6001600160a01b031690565b60405180809581946303a24d0760e21b8352600483019190602083019252565b03915afa908115610bc557600091610cb7575090565b61039b913d8091833e610cca818361051c565b810190610bca565b50604051610cdf81610500565b61017d81527f646174613a6170706c69636174696f6e2f6a736f6e3b6261736536342c65794a60208201527f755957316c496a6f67496b746864476c695a5767694c434a6b5a584e6a636d6c60408201527f7764476c766269493649434a4f6232347464484a68626e4e6d5a584a68596d7860608201527f6c49697769615731685a3255694f6941695a474630595470706257466e5a533960808201527f7a646d6372654731734f324a68633255324e43785153453479576e6c434d324660a08201527f58556a426852444270546c525a4d306c70516d396156327875595568524f556c60c08201527f7156544a4f65556c6e5a55637863324a7554546c4a625767775a4568424e6b7860e08201527f354f544e6b4d324e315a48704e6457497a536d354d656b6c3354555242646d4d6101008201527f7a576d354a616a51345a4564574e475244516a525155306b7854554e5661556c6101208201527f49617a6c4a616d4e33536c4e4a5a325248566a526b517a466f596d314f6232496101408201527f7a53546c4a62544677576b645363317054535374544d6b59775956644b6247466101608201527f4564335a6b523159305a4551304f45777a546a4a61656a5139496e303d00000061018082015290565b15610ebb57565b60405162461bcd60e51b815260206004820152602760248201527f466163746f7279313135353a20746f6b656e2073616c652074696d6520697320604482015266195e1c1a5c995960ca1b6064820152608490fd5b3561039b816100fc565b15610f2157565b60405162461bcd60e51b815260206004820152601e60248201527f466163746f7279313135353a20496e76616c6964207369676e617475726500006044820152606490fd5b9081602091031261010d5751801515810361010d5790565b908060209392818452848401376000828201840152601f01601f1916010190565b939291602091610fb791604087526040870191610f7e565b930152565b15610fc357565b60405162461bcd60e51b815260206004820152601b60248201527f466163746f7279313135353a2077726f6e6720746f6b656e20696400000000006044820152606490fd5b903590601e198136030182121561010d57018035906001600160401b03821161010d57602001918160051b3603831361010d57565b634e487b7160e01b600052601160045260246000fd5b60001981146110625760010190565b61103d565b634e487b7160e01b600052603260045260246000fd5b90156110865790565b611067565b90600110156110865760200190565b90600210156110865760400190565b91908110156110865760051b0190565b156110c057565b60405162461bcd60e51b815260206004820152603860248201527f466163746f7279313135353a20746f20746f6b656e20696420686173206e6f7460448201527f206d696e746564206f6e2063757272656e7420636861696e00000000000000006064820152608490fd5b1561113257565b60405162461bcd60e51b815260206004820152603060248201527f466163746f7279313135353a20746f6b656e2073616c652074696d652068617360448201526f081b9bdd081cdd185c9d1959081e595d60821b6064820152608490fd5b903590601e198136030182121561010d57018035906001600160401b03821161010d57602001918160061b3603831361010d57565b9081602091031261010d575161039b816100fc565b9190808252602080920192916000905b8282106111f8575050505090565b90919293600190853561120a816100fc565b828060a01b031681528286013583820152604080910195019201909291926111ea565b91602061039b9381815201916111da565b9062015180820180921161106257565b9190820180921161106257565b60208151910151906020811061126f575090565b6000199060200360031b1b1690565b6001600160a01b0390911681526060602082018190526040926112a391830190610365565b90828183039101526007815266096c2e8d2c4cad60cb1b60208201520190565b903590601e198136030182121561010d57018035906001600160401b03821161010d5760200191813603831361010d57565b60409061039b949281528160208201520191610f7e565b1561131357565b60405162461bcd60e51b815260206004820152602360248201527f466163746f7279313135353a20696e73756666696369656e74207075626c696360448201526246656560e81b6064820152608490fd5b91602061039b938181520191610f7e565b9190820391821161106257565b97969590929491936113a1610c68856000526003602052604060002090565b6001600160a01b0391906000908190841680611ad25750506113c287610f10565b6113cb88611e8a565b6113d691848b611c5e565b6113df90610f1a565b6006546001600160a01b03166001600160a01b03166040908151998a809263096c872360e01b82528160209d8e948d60049a8b84019261141e93610f9f565b03915afa8015610bc55761143a91600091611aa5575b50610fbc565b60c08801611448818a611008565b90508960005b8281106119d5575050505060009161146589611fba565b15611841575061148261147a8a8a013561123e565b42101561112b565b61148a612342565b985b6114ae60e08a01936114a76114a1868d611008565b9061107d565b3590611fe7565b8986821694823b1561173d575b50506114f591506114d6896000526003602052604060002090565b80546001600160a01b0319166001600160a01b03909216919091179055565b61150260808901896112c3565b9093833b1561010d5761152a8992600094519687948594634312207160e11b865285016112f5565b038183855af1918215610bc557839261172a575b506115498787612796565b6115558834101561130c565b1698893b1561010d5760405163731133e960e01b81526001600160a01b03821660048201526024810186905260016044820152608060648201526000608482018190528160a481838f5af18015610bc557611711575b506001600160a01b03811660009081526004602052604090206115ce8154611053565b90551660006040517fc3d58168c5ae7397731d063d5bbf3d657854427343f4c083240f7aacaa2d0f6230918061161286826020600191939293604081019481520152565b0390a4806116d5575b5050508134116116a9575b602060049560405196878092638da5cb5b60e01b82525afa908115610bc55761011f95600092611671575b506116648161010061166b930190611190565b3691610886565b916120e2565b61166b91925061169a6116649160203d81116116a2575b611692818361051c565b8101906111c5565b929150611651565b503d611688565b60008080806116b88634611375565b8181156116cc575b3390f161162657610805565b506108fc6116c0565b7fe3efb4090b64f6dead06906e59a91359e0c1ca9cad88a633d749431442e5bebf9161170660405192839283611364565b0390a238808061161b565b8061171e611724926104ed565b8061030e565b386115ab565b8061171e611737926104ed565b3861153e565b816117cd6114a16117e9936117bd61175f610c7560055460018060a01b031690565b6117b78a6117a38d61177d6114a1886117778d610f10565b9c611008565b905160609a909a1b6001600160601b031916928a01928352356014830152889160340190565b0396610649601f199889810183528261051c565b90611bc3565b506117c786610f10565b95611008565b865190359581019586529485906020010390810185528461051c565b843b1561010d57835163b2b45df560e01b8152926000918491829161181191908a840161127e565b038183885af1918215610bc5576114f59261182e575b8a906114bb565b8061171e61183b926104ed565b38611827565b989150611851610b54368a610a08565b9161185b836125b6565b9960806118678b610f10565b9461187860608d0135421115610eb4565b611887858d013542101561112b565b016001600160601b036118a182516001600160601b031690565b166118ae575b505061148c565b6101008b016000848d6118c18482611190565b1515905061195c576118ec93508a92506118db9150610f10565b935b1691516001600160601b031690565b91813b1561010d578451635944c75360e01b81528088018c81526001600160a01b0390921660208301526001600160601b039093166040820152600091839182908490829060600103925af18015610bc557611949575b806118a7565b8061171e611956926104ed565b38611943565b825461199b9461197e91611978906001600160a01b0316610c75565b92611190565b91908b8a519687948593849363d74f2dcd60e01b8552840161122d565b03915afa8015610bc5576118ec928a92916119b8575b50936118dd565b6119cf9150863d88116116a257611692818361051c565b386119b1565b8c88611a02610c686119f1856119eb8a89611008565b906110a9565b356000526003602052604060002090565b16858115159485611a2a575b50505050611a1e611a23926110b9565b611053565b8a9061144e565b611a5d95506119eb611a3d928692611008565b35908751808096819463bd85b03960e01b83528d83019190602083019252565b03915afa918215610bc557611a2392611a1e918f600092611a88575b50501515928e9150858e611a0e565b611a9e9250803d10610bbe57610bb0818361051c565b388f611a79565b611ac591508b3d8d11611acb575b611abd818361051c565b810190610f66565b38611434565b503d611ab3565b92509750508096611ae287611fba565b15611b48575060405163bd85b03960e01b81526004810186905290602090829060249082905afa908115610bc5578291611b2491600091611b2a575b50612390565b96611549565b611b42915060203d8111610bbe57610bb0818361051c565b38611b1e565b60405163bd85b03960e01b81526004810187905291602090839060249082905afa8015610bc5578392611b8f9291611ba5575b50611b89610b54368a610a08565b9061266e565b96611ba06060880135421115610eb4565b611549565b611bbd915060203d8111610bbe57610bb0818361051c565b38611b7b565b6e5af43d82803e903d91602b57fd5bf390763d602d80600a3d3981f3363d3d373d3d3d363d7300000062ffffff8260881c161760005260781b17602052603760096000f5906001600160a01b03821615611c1957565b60405162461bcd60e51b815260206004820152601760248201527f455243313136373a2063726561746532206661696c65640000000000000000006044820152606490fd5b9192906040519060208201927f19457468657265756d205369676e6564204d6573736167653a0a3332000000008452603c830152603c8252606082018281106001600160401b038211176104e857602094600094608094611cc793604052519020923691610578565b8481015160606040830151920151604051938452851a868401526040830152606082015282805260015afa15610bc5576000516001600160a01b0390811691161490565b9035601e198236030181121561010d5701602081359101916001600160401b03821161010d57813603831361010d57565b9035601e198236030181121561010d5701602081359101916001600160401b03821161010d578160051b3603831361010d57565b81835290916001600160fb1b03831161010d5760209260051b809284830137010190565b9035601e198236030181121561010d5701602081359101916001600160401b03821161010d578160061b3603831361010d57565b9035601e198236030181121561010d5701602081359101916001600160401b03821161010d578160081b3603831361010d57565b9190808252602080920192916000905b828210611e1a575050505090565b90919293600190853581528286013583820152604080870135908201526060808701359082015260806001600160601b03611e5682890161092d565b169082015260a0868101359082015260c0808701359082015260e08087013590820152610100908101950193920190611e0c565b604051611fb481611fa6611f02602083019560208752611ebd60408501611eb083610121565b6001600160a01b03169052565b6020810135606085015260408101356080850152606081013560a0850152611f96611eeb6080830183611d0b565b9390610140948560c0890152610180880191610f7e565b91611f8d611f2a611f1660a0840184611d0b565b603f198a8803810160e08c01529691610f7e565b611f4d611f3a60c0850185611d3c565b6101009391888c840301858d0152611d70565b95611f7e611f75611f6160e0870187611d3c565b6101209a918d8c8c82860301910152611d70565b92850185611d94565b91878b850301908b01526111da565b93810190611dc8565b9185840301610160860152611dfc565b03601f19810183528261051c565b51902090565b611fc89060e0810190611008565b15611086573560001a60f81b6001600160f81b031916602360f81b1490565b60055460405160609290921b6001600160601b0319166020830152603482019290925261039b916001600160a01b031690610678906106498160548101611fa6565b9060148202918083046014149015171561106257565b9061015e9182810292818404149015171561106257565b8181029291811591840414171561106257565b634e487b7160e01b600052601260045260246000fd5b91908110156110865760061b0190565b60208082019080835283518092528060408094019401926000905b8382106120b957505050505090565b845180516001600160a01b031687528301518684015294850194938201936001909101906120aa565b91939290926120fb6120f384612029565b6103e8900490565b906121086120f38561203f565b9261212683612121610c7560015460018060a01b031690565b61226b565b60005b8281106121db5750505061214792916121419161124e565b90611375565b9082511560001461215f5761215c925061222c565b50565b50602061219860009361217b610c75865460018060a01b031690565b906040519586809481936316b0fb7d60e21b83526004830161208f565b03925af18015610bc55761215c926000916121bd575b506001600160a01b031661222c565b6121d5915060203d81116116a257611692818361051c565b386121ae565b80611a1e6121f56121f061222794878761207f565b610f10565b6122186122106020612208868a8a61207f565b01358a612056565b612710900490565b906001600160a01b031661226b565b612129565b6000918291829182916001600160a01b03165af13d1561039b573d6122508161055d565b9061225e604051928361051c565b8152600060203d92013e90565b6001600160a01b0316600090815260026020526040902080549182019182106110625755565b8051156110865760200190565b80518210156110865760209160051b010190565b6040516122be816104cc565b6101206000928383528360208401528360408401528360608401528360808401528360a08401528360c08401528360e0809401520190815151925b83811061231157505061230d915051612291565b5190565b468261231e83865161229e565b510151146123345761232f90611053565b6122f9565b91905061230d92505161229e565b670de0b6b3a76400006000670f43fc2c04ee0000815b61236157505090565b8061236b916124f0565b906001811661237f575b60011c9081612358565b918161238a916124f0565b91612375565b612399816126a8565b6001908082036124035750670f43fc2c04ee000090828116156123f557815b92811c91825b6123c85750505090565b806123d2916124f0565b918181166123e4575b811c91826123be565b92826123ef916124f0565b926123db565b670de0b6b3a76400006123b8565b8091501561244b57670de0b6b3a7640000918167016345785d8a0000048301908184116110625761243391612497565b91808202918204036110625781018091116110625790565b612069565b670de0b6b3a76400009190600090815b612468575050565b80612472916124f0565b9060018116612486575b60011c9081612460565b9281612491916124f0565b9261247c565b9091906001808416156124e257815b93811c91825b6124b557505050565b806124bf916124f0565b918181166124d1575b811c91826124ac565b93826124dc916124f0565b936124c8565b670de0b6b3a76400006124a6565b600019828209828202908180821091039381850393670de0b6b3a764000091829109916706f05b59d3b1ffff831195146125605783101561010d577faccb18165bd6fe31ae1cf318dc5b51eee0e1ba569b88cd74c1773b91fac1066992828211900360ee1b910360121c17020190565b925050040190565b90600160009215171561106257565b818102929160008212600160ff1b82141661106257818405149015171561106257565b9190916000838201938412911290801582169115161761106257565b60a08101511561261d578060606126056125f26125e4602061260e9601516125de8651612450565b90612577565b670de0b6b3a7640000900590565b6125ff6040850151612568565b9061259a565b9101519061259a565b600081121561039b5750600090565b60405162461bcd60e51b8152602060048201526024808201527f466163746f7279313135353a204d6178696d756d20737570706c7920726561636044820152633432b21760e11b6064820152608490fd5b9060a081015182101561261d57606061260561260e936125ff61269d6125e460208701516125de858951612497565b916040860151612577565b601a8110156126b75750600190565b6101c68110156126c75750600a90565b611a988110156126d75750606490565b620163b28110156126e957506103e890565b6211681d8110156126fb575061271090565b62d132b081101561270e5750620186a090565b63098b63d08110156127225750620f424090565b636d2a78e081101561273657506298968090565b6404ccedb68081101561274c57506305f5e10090565b64355d6274008110156127625750633b9aca0090565b65024b44cba7001115612778576402540be40090565b64174876e80090565b81604051928392833781016000815203902090565b906127a081610f10565b6127b66127b060a08401846112c3565b90612781565b6000916001600160a01b0316847fc0d62261ee30fa727eab11180362380f5a2d6af2c9ec2b14537843182c7c58268480a460c082016127f58184611008565b919050825b8281106128ba575050507fb237134d29775150b1edf87af1dc343262244af7cbb474cfc64cb6e8824af66361289d60e084016128368186611008565b95905085156128b45761284c6114a18383611008565b35945b60018711156128ab57600261286d6128678585611008565b9061108b565b35975b11156128a2575061288a9161288491611008565b9061109a565b35945b6040519081529081906020820190565b0390a4565b9150509461288d565b60028197612870565b8461284f565b806128cc6128f7926119eb8589611008565b35877f65327253f8d67c2e23cb4dfab28ca7437b04e9098cf4e985073d76df25209ad48780a3611053565b6127fa56fea2646970667358221220a02a57289125e0de11cc4f168ef97c0eab6ce53de0ef97008dd19d7bab6a661664736f6c63430008130033608034620000e957602081016001600160401b03811182821017620000d357604052600080915262000033600254620000ee565b601f811162000092575b50806002556200004f600454620000ee565b601f81116200006e575b60006004556040516126579081620001458239f35b601f60208360046200008a955220910160051c8101906200012b565b388062000059565b60028252620000cc90601f0160051c7f405787fa12a823e0f2b7631cc41b3ba8828b3321ca811111fa75cd3aa3bb5ace908101906200012b565b386200003d565b634e487b7160e01b600052604160045260246000fd5b600080fd5b90600182811c9216801562000120575b60208310146200010a57565b634e487b7160e01b600052602260045260246000fd5b91607f1691620000fe565b81811062000137575050565b600081556001016200012b56fe6080604052600436101561001257600080fd5b60003560e01c8062fdd58e14611cec57806301ffc9a714611c6457806306fdde0314611bbe5780630e89341c14611b9f5780632a55205a14611add5780632eb2c2d6146117025780634e1273f4146115645780634f558e79146115365780635944c753146113fd5780636b20c454146111a3578063731133e914610ff0578063862440e214610e0b5780638da5cb5b14610dde57806395d89b4114610cf8578063a22cb46514610c14578063b2b45df51461076e578063bd85b03914610742578063e985e9c5146106ec578063f242432a1461030d5763f5298aca146100f757600080fd5b3461030857606036600319011261030857610110611d1b565b60249060448035916001600160a01b031690833533831480156102df575b61013790611feb565b82159261014484156122b0565b61014d8261228b565b916101578661228b565b94600060405161016681611d9c565b52610285575b60005b8351811015610208576101828185611fc1565b5161018d8288611fc1565b51908060005260036020818152604060002054928484106101c657906101c195949392916000525203604060002055611fb2565b61016f565b506084906000805160206126028339815191528a60288f6040519462461bcd60e51b8652600486015284015282015267616c537570706c7960c01b6064820152fd5b6000838389818452836020526040842083855260205280604085205461023082821015612308565b838652856020526040862085875260205203604085205560405191825260208201527fc3d58168c5ae7397731d063d5bbf3d657854427343f4c083240f7aacaa2d0f6260403392a4610283604051611d9c565b005b949195929060005b87518110156102d457806102a46102cf9288611fc1565b516102af828b611fc1565b5160005260036020526102c86040600020918254612107565b9055611fb2565b61028d565b50909295919461016c565b5082600052600160205260406000203360005260205261013760ff60406000205416905061012e565b600080fd5b346103085760a036600319011261030857610326611d1b565b61032e611d31565b90608480356001600160401b0381116103085761034f903690600401611edb565b6001600160a01b039190838316331480156106c1575b61036e90611feb565b8285161561037c811561204e565b61038760443561228b565b61039260643561228b565b9185871615610681575b6105d3575b505060443560005260209460008652604060002084861660005286526040600020546103d16064358210156120a8565b604435600052600087526040600020858716600052875260643590036040600020556044356000526000865260406000208482166000528652604060002061041c6064358254612107565b905560405160443581526064358782015284821690858716907fc3d58168c5ae7397731d063d5bbf3d657854427343f4c083240f7aacaa2d0f6260403392a4803b61046357005b60a060006104ad958895604051978896879586938563f23a6e6160e01b9d8e87523360048801521660248601526044356044860152606435606486015284015260a4830190611dfb565b0393165af1600091816105a4575b5061057a5750506001906104cd6121ff565b6308c379a014610545575b506104df57005b60405162461bcd60e51b815260206004820152603460248201527f455243313135353a207472616e7366657220746f206e6f6e2d455243313135356044820152732932b1b2b4bb32b91034b6b83632b6b2b73a32b960611b6064820152608490fd5b0390fd5b61054d61221d565b908161055957506104d8565b61054160405192839262461bcd60e51b845260048401526024830190611dfb565b6001600160e01b0319161490506102835760405162461bcd60e51b815280610541600482016121b6565b6105c5919250843d86116105cc575b6105bd8183611db7565b810190612196565b90846104bb565b503d6105b3565b92959194909360005b8451811015610672576105ef8186611fc1565b51906105fb8188611fc1565b5182600052600360205260406000205481811061062f5761062a93600052600360205203604060002055611fb2565b6105dc565b60405162461bcd60e51b81526020600482015260286024820152600080516020612602833981519152604482015267616c537570706c7960c01b60648201528b90fd5b509350939094915085806103a1565b959260009794919592975b86518110156106b357806106a36106ae928b611fc1565b516102af828a611fc1565b61068c565b50929596919490939661039c565b50828416600052600160205260406000203360005260205261036e60ff604060002054169050610365565b3461030857604036600319011261030857610705611d1b565b61070d611d31565b9060018060a01b03809116600052600160205260406000209116600052602052602060ff604060002054166040519015158152f35b346103085760203660031901126103085760043560005260036020526020604060002054604051908152f35b3461030857606036600319011261030857610787611d1b565b6001600160401b0390602435828111610308576107a8903690600401611edb565b91604435818111610308576107c1903690600401611edb565b9060069081549260ff8460081c161595868097610c07575b8015610bf0575b15610b9457600194878660ff198316178655610b83575b508051838111610a70578061080d600a54611d47565b92601f93848111610b13575b50602090848311600114610a9157600092610a86575b5050600019600383901b1c191690861b17600a555b8151928311610a7057829161085a600b54611d47565b8281116109fe575b50602091831160011461097c57600092610971575b5050600019600383901b1c191690831b17600b555b336001600160601b0360a01b600954161760095580549260ff8460081c16156109185762010000600160b01b0360109190911b1662010000600160b01b0319841681178255936108d857005b610100600160b01b031990921690921790556040519081527f7f26b83ff96e1f2b6a682f133852f6798a09c465da95921460cefb384740249890602090a1005b60405162461bcd60e51b815260206004820152602b60248201527f496e697469616c697a61626c653a20636f6e7472616374206973206e6f74206960448201526a6e697469616c697a696e6760a81b6064820152608490fd5b015190508680610877565b90859350601f19831691600b6000527f0175b7a638427703f0dbe7bb9bbf987a2551717b34e79f33b5b1008d1fa01db99260005b8181106109e6575084116109cd575b505050811b01600b5561088c565b015160001960f88460031b161c191690558680806109bf565b828401518555889690940193602093840193016109b0565b90919250600b6000527f0175b7a638427703f0dbe7bb9bbf987a2551717b34e79f33b5b1008d1fa01db98380860160051c82019260208710610a67575b91869589929594930160051c01915b828110610a58575050610862565b60008155869550889101610a4a565b92508192610a3b565b634e487b7160e01b600052604160045260246000fd5b01519050898061082f565b90889350601f19831691600a6000527fc65a7bb8d6351c1cf70c95a316cc6a92839c986682d98bc35f958f4883f9d2a89260005b818110610afb57508411610ae2575b505050811b01600a55610844565b015160001960f88460031b161c19169055898080610ad4565b8284015185558b969094019360209384019301610ac5565b909150600a6000527fc65a7bb8d6351c1cf70c95a316cc6a92839c986682d98bc35f958f4883f9d2a88480850160051c82019260208610610b7a575b918a91869594930160051c01915b828110610b6b575050610819565b600081558594508a9101610b5d565b92508192610b4f565b61ffff1916610101178455876107f7565b60405162461bcd60e51b815260206004820152602e60248201527f496e697469616c697a61626c653a20636f6e747261637420697320616c72656160448201526d191e481a5b9a5d1a585b1a5e995960921b6064820152608490fd5b50303b1580156107e05750600160ff8616146107e0565b50600160ff8616106107d9565b3461030857604036600319011261030857610c2d611d1b565b60243590811515809203610308576001600160a01b031690338214610ca157336000526001602052604060002082600052602052604060002060ff1981541660ff83161790556040519081527f17307eab39ab6107e8899845ad3d59bd9653f200f220920489ca2b5937696c3160203392a3005b60405162461bcd60e51b815260206004820152602960248201527f455243313135353a2073657474696e6720617070726f76616c20737461747573604482015268103337b91039b2b63360b91b6064820152608490fd5b34610308576000366003190112610308576040516000600b54610d1a81611d47565b80845290600190818116908115610db75750600114610d5c575b610d5884610d4481860382611db7565b604051918291602083526020830190611dfb565b0390f35b600b600090815292507f0175b7a638427703f0dbe7bb9bbf987a2551717b34e79f33b5b1008d1fa01db95b828410610d9f575050508101602001610d4482610d34565b80546020858701810191909152909301928101610d87565b60ff191660208087019190915292151560051b85019092019250610d449150839050610d34565b346103085760003660031901126103085760065460405160109190911c6001600160a01b03168152602090f35b34610308576040366003190112610308576001600160401b0360043560243582811161030857366023820112156103085780600401359083821161030857366024838301011161030857610e7891610e6e60018060a01b03600954163314612360565b6024369201611e95565b9181600052602090600582526040600020908451908111610a7057610e9d8254611d47565b601f8111610faa575b5082601f8211600114610f235781907f6bb7ff708619ba0610cba295a58592e0451dee2622938c8755667688daf3529b9596600092610f18575b50508160011b916000199060031b1c19161790555b610efe836123c2565b90610f13604051928284938452830190611dfb565b0390a2005b015190508680610ee0565b601f1982169583600052846000209660005b818110610f935750917f6bb7ff708619ba0610cba295a58592e0451dee2622938c8755667688daf3529b969791846001959410610f7a575b505050811b019055610ef5565b015160001960f88460031b161c19169055868080610f6d565b838301518955600190980197928601928601610f35565b8260005283600020601f830160051c810191858410610fe6575b601f0160051c01905b818110610fda5750610ea6565b60008155600101610fcd565b9091508190610fc4565b3461030857608036600319011261030857611009611d1b565b604435906024356064356001600160401b0381116103085761102f903690600401611edb565b9160018060a01b0361104681600954163314612360565b8116918215611154576110588161228b565b926110628661228b565b9560005b855181101561108d578061107d611088928a611fc1565b516102af8289611fc1565b611066565b50858360005260209460008652604060002084600052865260406000206110b5848254612107565b905583600060405187815285898201527fc3d58168c5ae7397731d063d5bbf3d657854427343f4c083240f7aacaa2d0f6260403392a43b6110f257005b611136928592600060405180968195829463f23a6e6160e01b9a8b85523360048601528560248601526044850152606484015260a0608484015260a4830190611dfb565b03925af1600091816105a4575061057a5750506001906104cd6121ff565b60405162461bcd60e51b815260206004820152602160248201527f455243313135353a206d696e7420746f20746865207a65726f206164647265736044820152607360f81b6064820152608490fd5b34610308576060366003190112610308576111bc611d1b565b6024906001600160401b03908235828111610308576111df903690600401611e37565b916044908135908111610308576111fa903690600401611e37565b6001600160a01b039092169233841480156113d4575b61121990611feb565b831561122581156122b0565b6112328251855114612114565b600060405161124081611d9c565b5261139c575b60005b81518110156112e25761125c8183611fc1565b516112678286611fc1565b51908060005260036020818152604060002054928484106112a0579061129b95949392916000525203604060002055611fb2565b611249565b60405162461bcd60e51b8152600481018390526028818d0152600080516020612602833981519152818a015267616c537570706c7960c01b6064820152608490fd5b83828660005b825181101561135757806112ff6113529285611fc1565b5161130a8287611fc1565b51908060005260206000815260406000208660005281526040600020549161133484841015612308565b60005260008152604060002090866000525203604060002055611fb2565b6112e8565b50907f4a39dc06d4c0dbc64b70af90fd698a233a518aa5d07e595d983b8c0526c8f7fb61138e600094604051918291339583612171565b0390a4610283604051611d9c565b9260009491945b84518110156113ca57806113ba6113c59286611fc1565b516102af8288611fc1565b6113a3565b5092939093611246565b5083600052600160205260406000203360005260205261121960ff604060002054169050611210565b3461030857606036600319011261030857611416611d31565b6044356001600160601b038116809103610308576009546001600160a01b0392906114449084163314612360565b61271082116114de578216918215611499576040519261146384611d81565b83526020830191825260043560005260086020526040600020925116906001600160601b0360a01b905160a01b16179055600080f35b60405162461bcd60e51b815260206004820152601b60248201527f455243323938313a20496e76616c696420706172616d657465727300000000006044820152606490fd5b60405162461bcd60e51b815260206004820152602a60248201527f455243323938313a20726f79616c7479206665652077696c6c206578636565646044820152692073616c65507269636560b01b6064820152608490fd5b3461030857602036600319011261030857600435600052600360205260206040600020541515604051908152f35b34610308576040366003190112610308576004356001600160401b038082116103085736602383011215610308578160040135906115a182611e20565b926115af6040519485611db7565b82845260209260248486019160051b8301019136831161030857602401905b8282106116e357505050602435908111610308576115f0903690600401611e37565b825181510361168c5782519261160584611e20565b936116136040519586611db7565b808552611622601f1991611e20565b01368486013760005b815181101561167557611670906116606001600160a01b0361164d8386611fc1565b51166116598387611fc1565b5190611f2d565b61166a8288611fc1565b52611fb2565b61162b565b505050610d58604051928284938452830190611ef9565b60405162461bcd60e51b815260048101839052602960248201527f455243313135353a206163636f756e747320616e6420696473206c656e677468604482015268040dad2e6dac2e8c6d60bb1b6064820152608490fd5b81356001600160a01b03811681036103085781529084019084016115ce565b346103085760031960a0368201126103085761171c611d1b565b90611725611d31565b6044908135926001600160401b039384811161030857611749903690600401611e37565b6064803586811161030857611762903690600401611e37565b9460849687359081116103085761177d903690600401611edb565b6001600160a01b039489861633148015611ab2575b61179b90611feb565b6117a88551895114612114565b858716156117b6811561204e565b868b1615611a6f575b6119ba575b60005b855181101561185d57806117de6118589288611fc1565b518c6117ea838d611fc1565b519180600052826020926000845260406000208d8216600052845260406000205490611818838310156120a8565b83600052600085528d60406000209116600052845203604060002055600052600081526040600020908a8c16600052526102c86040600020918254612107565b6117c7565b50888a989796949789604051887f4a39dc06d4c0dbc64b70af90fd698a233a518aa5d07e595d983b8c0526c8f7fb89808d169416928061189f87339583612171565b0390a4873b6118aa57005b60405198899788968863bc197c8160e01b9d8e8a523360048b0152166024890152870160a0905260a487016118de91611ef9565b908487830301908701526118f191611ef9565b91848303019084015261190391611dfb565b03921691815a602094600091f16000918161199a575b50611972575050600161192a6121ff565b6308c379a01461193b575b6104df57005b61194361221d565b8061194e5750611935565b60405162461bcd60e51b815260206004820152908190610541906024830190611dfb565b6001600160e01b031916146102835760405162461bcd60e51b815280610541600482016121b6565b6119b391925060203d81116105cc576105bd8183611db7565b9083611919565b9796949060009993999692965b8551811015611a5f576119da8187611fc1565b516119e58289611fc1565b51908060005260206003815260406000205491838310611a1e57611a19949392916003916000525203604060002055611fb2565b6119c7565b508b9067616c537570706c7960c01b8f6000805160206126028339815191528e6040519462461bcd60e51b8652600486015260286024860152840152820152fd5b50909496979892989591956117c4565b99969498959392919060005b8a51811015611aa357808b6102af82611a97611a9e958f611fc1565b5192611fc1565b611a7b565b509091929395989496996117bf565b50858a16600052600160205260406000203360005260205261179b60ff604060002054169050611792565b3461030857604036600319011261030857602435600435600052600860205260406000209060405191611b0f83611d81565b546001600160a01b0380821680855260a09290921c6020850152929015611b7d575b6001600160601b0360208201511691828102928184041490151715611b6757604092612710915116918351928352046020820152f35b634e487b7160e01b600052601160045260246000fd5b50604051611b8a81611d81565b600754838116825260a01c6020820152611b31565b3461030857602036600319011261030857610d58610d446004356123c2565b34610308576000366003190112610308576040516000600a54611be081611d47565b80845290600190818116908115610db75750600114611c0957610d5884610d4481860382611db7565b600a600090815292507fc65a7bb8d6351c1cf70c95a316cc6a92839c986682d98bc35f958f4883f9d2a85b828410611c4c575050508101602001610d4482610d34565b80546020858701810191909152909301928101611c34565b346103085760203660031901126103085760043563ffffffff60e01b81168091036103085760209063152a902d60e11b8114908115611ca9575b506040519015158152f35b636cdb3d1360e11b811491508115611cdb575b8115611cca575b5082611c9e565b6301ffc9a760e01b14905082611cc3565b6303a24d0760e21b81149150611cbc565b34610308576040366003190112610308576020611d13611d0a611d1b565b60243590611f2d565b604051908152f35b600435906001600160a01b038216820361030857565b602435906001600160a01b038216820361030857565b90600182811c92168015611d77575b6020831014611d6157565b634e487b7160e01b600052602260045260246000fd5b91607f1691611d56565b604081019081106001600160401b03821117610a7057604052565b602081019081106001600160401b03821117610a7057604052565b90601f801991011681019081106001600160401b03821117610a7057604052565b60005b838110611deb5750506000910152565b8181015183820152602001611ddb565b90602091611e1481518092818552858086019101611dd8565b601f01601f1916010190565b6001600160401b038111610a705760051b60200190565b81601f8201121561030857803591611e4e83611e20565b92611e5c6040519485611db7565b808452602092838086019260051b820101928311610308578301905b828210611e86575050505090565b81358152908301908301611e78565b9291926001600160401b038211610a705760405191611ebe601f8201601f191660200184611db7565b829481845281830111610308578281602093846000960137010152565b9080601f8301121561030857816020611ef693359101611e95565b90565b90815180825260208080930193019160005b828110611f19575050505090565b835185529381019392810192600101611f0b565b6001600160a01b0316908115611f5a57600052600060205260406000209060005260205260406000205490565b60405162461bcd60e51b815260206004820152602a60248201527f455243313135353a2061646472657373207a65726f206973206e6f742061207660448201526930b634b21037bbb732b960b11b6064820152608490fd5b6000198114611b675760010190565b8051821015611fd55760209160051b010190565b634e487b7160e01b600052603260045260246000fd5b15611ff257565b60405162461bcd60e51b815260206004820152602e60248201527f455243313135353a2063616c6c6572206973206e6f7420746f6b656e206f776e60448201526d195c881bdc88185c1c1c9bdd995960921b6064820152608490fd5b1561205557565b60405162461bcd60e51b815260206004820152602560248201527f455243313135353a207472616e7366657220746f20746865207a65726f206164604482015264647265737360d81b6064820152608490fd5b156120af57565b60405162461bcd60e51b815260206004820152602a60248201527f455243313135353a20696e73756666696369656e742062616c616e636520666f60448201526939103a3930b739b332b960b11b6064820152608490fd5b91908201809211611b6757565b1561211b57565b60405162461bcd60e51b815260206004820152602860248201527f455243313135353a2069647320616e6420616d6f756e7473206c656e677468206044820152670dad2e6dac2e8c6d60c31b6064820152608490fd5b9091612188611ef693604084526040840190611ef9565b916020818403910152611ef9565b9081602091031261030857516001600160e01b0319811681036103085790565b60809060208152602860208201527f455243313135353a204552433131353552656365697665722072656a656374656040820152676420746f6b656e7360c01b60608201520190565b60009060033d1161220c57565b905060046000803e60005160e01c90565b600060443d10611ef657604051600319913d83016004833e81516001600160401b03918282113d60248401111761227a57818401948551938411612282573d8501016020848701011161227a5750611ef692910160200190611db7565b949350505050565b50949350505050565b6040519061229882611d81565b60018252602082016020368237825115611fd5575290565b156122b757565b60405162461bcd60e51b815260206004820152602360248201527f455243313135353a206275726e2066726f6d20746865207a65726f206164647260448201526265737360e81b6064820152608490fd5b1561230f57565b60405162461bcd60e51b8152602060048201526024808201527f455243313135353a206275726e20616d6f756e7420657863656564732062616c604482015263616e636560e01b6064820152608490fd5b1561236757565b60405162461bcd60e51b815260206004820152602d60248201527f4b617469626568313135353a207265737472696374656420616363657373207460448201526c6f2074686520466163746f727960981b6064820152608490fd5b6000908152602090600582526040812090604051908091835492816123e685611d47565b91828252878201966001968988821691826000146125e35750506001146125a5575b5061241592500382611db7565b8051156124ea57604051948593836004549161243083611d47565b928181169081156124c95750600114612469575b5050505061245a611ef694839251938491611dd8565b0103601f198101835282611db7565b909192969450600482527f8a35acfbc15ff81a39ae7d344fd709f28e8600b4aa8c65c6b64bfe7fe36bd19b5b8383106124b357505050611ef69461245a9185010192943880612444565b8054898401890152889650918701918101612495565b60ff19168886015250505080151502840101915061245a611ef63880612444565b506040516002549094935084928261250183611d47565b808652928281169081156125835750600114612527575b505050611ef692500382611db7565b600281527f405787fa12a823e0f2b7631cc41b3ba8828b3321ca811111fa75cd3aa3bb5ace95935091905b81831061256b575050611ef69350820101388080612518565b85548784018501529485019486945091830191612552565b92505050611ef694925060ff191682840152151560051b820101388080612518565b915050835281868085208686915b8583106125ca575050612415935082010138612408565b80919294505483858801015201910187908685936125b3565b60ff19168a5261241595151560051b8501019250389150612408905056fe455243313135353a206275726e20616d6f756e74206578636565647320746f74a264697066735822122013d4eabab9e227cabadfc4540d314e97959ddf27d8e6f4651d6e744153b0c40364736f6c63430008130033",
  "linkReferences": {},
  "deployedLinkReferences": {}
}