{
  "_format": "hh-sol-artifact-1",
  "contractName": "Factory1155",
  "sourceName": "contracts/katibeh1155/Factory1155.sol",
  "abi": [
    {
      "inputs": [
        {
          "internalType": "address",
          "name": "qhAddr",
          "type": "address"
        }
      ],
      "stateMutability": "nonpayable",
      "type": "constructor"
    },
    {
      "anonymous": false,
      "inputs": [
        {
          "indexed": true,
          "internalType": "uint256",
          "name": "tokenId",
          "type": "uint256"
        },
        {
          "indexed": true,
          "internalType": "uint256",
          "name": "toTokenId",
          "type": "uint256"
        }
      ],
      "name": "NewReply",
      "type": "event"
    },
    {
      "anonymous": false,
      "inputs": [
        {
          "indexed": true,
          "internalType": "uint256",
          "name": "tokenId",
          "type": "uint256"
        },
        {
          "indexed": true,
          "internalType": "address",
          "name": "creator",
          "type": "address"
        },
        {
          "indexed": true,
          "internalType": "bytes",
          "name": "data",
          "type": "bytes"
        }
      ],
      "name": "NewToken",
      "type": "event"
    },
    {
      "anonymous": false,
      "inputs": [
        {
          "indexed": false,
          "internalType": "uint256",
          "name": "tokenId",
          "type": "uint256"
        },
        {
          "indexed": true,
          "internalType": "bytes32",
          "name": "tag1",
          "type": "bytes32"
        },
        {
          "indexed": true,
          "internalType": "bytes32",
          "name": "tag2",
          "type": "bytes32"
        },
        {
          "indexed": true,
          "internalType": "bytes32",
          "name": "tag3",
          "type": "bytes32"
        }
      ],
      "name": "Tags",
      "type": "event"
    },
    {
      "anonymous": false,
      "inputs": [
        {
          "indexed": true,
          "internalType": "uint256",
          "name": "tokenId",
          "type": "uint256"
        },
        {
          "indexed": false,
          "internalType": "bytes",
          "name": "data",
          "type": "bytes"
        }
      ],
      "name": "TokenData",
      "type": "event"
    },
    {
      "anonymous": false,
      "inputs": [
        {
          "indexed": true,
          "internalType": "address",
          "name": "operator",
          "type": "address"
        },
        {
          "indexed": true,
          "internalType": "address",
          "name": "from",
          "type": "address"
        },
        {
          "indexed": true,
          "internalType": "address",
          "name": "to",
          "type": "address"
        },
        {
          "indexed": false,
          "internalType": "uint256",
          "name": "id",
          "type": "uint256"
        },
        {
          "indexed": false,
          "internalType": "uint256",
          "name": "value",
          "type": "uint256"
        }
      ],
      "name": "TransferSingle",
      "type": "event"
    },
    {
      "inputs": [],
      "name": "QH",
      "outputs": [
        {
          "internalType": "contract IQHash",
          "name": "",
          "type": "address"
        }
      ],
      "stateMutability": "view",
      "type": "function"
    },
    {
      "inputs": [
        {
          "internalType": "address",
          "name": "",
          "type": "address"
        }
      ],
      "name": "_collectorScore",
      "outputs": [
        {
          "internalType": "uint256",
          "name": "",
          "type": "uint256"
        }
      ],
      "stateMutability": "view",
      "type": "function"
    },
    {
      "inputs": [
        {
          "internalType": "uint256",
          "name": "",
          "type": "uint256"
        }
      ],
      "name": "_tokenCollection",
      "outputs": [
        {
          "internalType": "address",
          "name": "",
          "type": "address"
        }
      ],
      "stateMutability": "view",
      "type": "function"
    },
    {
      "inputs": [
        {
          "internalType": "uint256",
          "name": "tokenId",
          "type": "uint256"
        },
        {
          "components": [
            {
              "internalType": "address",
              "name": "creator",
              "type": "address"
            },
            {
              "internalType": "uint256",
              "name": "signTime",
              "type": "uint256"
            },
            {
              "internalType": "uint256",
              "name": "initTime",
              "type": "uint256"
            },
            {
              "internalType": "uint256",
              "name": "expTime",
              "type": "uint256"
            },
            {
              "internalType": "string",
              "name": "tokenURI",
              "type": "string"
            },
            {
              "internalType": "bytes",
              "name": "data",
              "type": "bytes"
            },
            {
              "internalType": "uint256[]",
              "name": "toTokenId",
              "type": "uint256[]"
            },
            {
              "internalType": "bytes32[]",
              "name": "tags",
              "type": "bytes32[]"
            },
            {
              "components": [
                {
                  "internalType": "address",
                  "name": "addr",
                  "type": "address"
                },
                {
                  "internalType": "uint16",
                  "name": "share",
                  "type": "uint16"
                }
              ],
              "internalType": "struct DataStorage.Payee[]",
              "name": "owners",
              "type": "tuple[]"
            },
            {
              "components": [
                {
                  "internalType": "uint256",
                  "name": "A",
                  "type": "uint256"
                },
                {
                  "internalType": "int256",
                  "name": "B",
                  "type": "int256"
                },
                {
                  "internalType": "int256",
                  "name": "C",
                  "type": "int256"
                },
                {
                  "internalType": "int256",
                  "name": "D",
                  "type": "int256"
                },
                {
                  "internalType": "uint256",
                  "name": "royalty",
                  "type": "uint256"
                },
                {
                  "internalType": "uint256",
                  "name": "totalSupply",
                  "type": "uint256"
                },
                {
                  "internalType": "uint256",
                  "name": "discount",
                  "type": "uint256"
                },
                {
                  "internalType": "uint256",
                  "name": "chainId",
                  "type": "uint256"
                }
              ],
              "internalType": "struct DataStorage.Pricing[]",
              "name": "pricing",
              "type": "tuple[]"
            }
          ],
          "internalType": "struct DataStorage.Katibeh",
          "name": "katibeh",
          "type": "tuple"
        },
        {
          "internalType": "bytes",
          "name": "sig",
          "type": "bytes"
        },
        {
          "internalType": "bytes",
          "name": "data",
          "type": "bytes"
        },
        {
          "components": [
            {
              "internalType": "address",
              "name": "addr",
              "type": "address"
            },
            {
              "internalType": "uint16",
              "name": "share",
              "type": "uint16"
            }
          ],
          "internalType": "struct DataStorage.Payee[]",
          "name": "dapps",
          "type": "tuple[]"
        }
      ],
      "name": "collect",
      "outputs": [],
      "stateMutability": "payable",
      "type": "function"
    },
    {
      "inputs": [
        {
          "internalType": "uint256",
          "name": "tokenId",
          "type": "uint256"
        },
        {
          "components": [
            {
              "internalType": "address",
              "name": "creator",
              "type": "address"
            },
            {
              "internalType": "uint256",
              "name": "signTime",
              "type": "uint256"
            },
            {
              "internalType": "uint256",
              "name": "initTime",
              "type": "uint256"
            },
            {
              "internalType": "uint256",
              "name": "expTime",
              "type": "uint256"
            },
            {
              "internalType": "string",
              "name": "tokenURI",
              "type": "string"
            },
            {
              "internalType": "bytes",
              "name": "data",
              "type": "bytes"
            },
            {
              "internalType": "uint256[]",
              "name": "toTokenId",
              "type": "uint256[]"
            },
            {
              "internalType": "bytes32[]",
              "name": "tags",
              "type": "bytes32[]"
            },
            {
              "components": [
                {
                  "internalType": "address",
                  "name": "addr",
                  "type": "address"
                },
                {
                  "internalType": "uint16",
                  "name": "share",
                  "type": "uint16"
                }
              ],
              "internalType": "struct DataStorage.Payee[]",
              "name": "owners",
              "type": "tuple[]"
            },
            {
              "components": [
                {
                  "internalType": "uint256",
                  "name": "A",
                  "type": "uint256"
                },
                {
                  "internalType": "int256",
                  "name": "B",
                  "type": "int256"
                },
                {
                  "internalType": "int256",
                  "name": "C",
                  "type": "int256"
                },
                {
                  "internalType": "int256",
                  "name": "D",
                  "type": "int256"
                },
                {
                  "internalType": "uint256",
                  "name": "royalty",
                  "type": "uint256"
                },
                {
                  "internalType": "uint256",
                  "name": "totalSupply",
                  "type": "uint256"
                },
                {
                  "internalType": "uint256",
                  "name": "discount",
                  "type": "uint256"
                },
                {
                  "internalType": "uint256",
                  "name": "chainId",
                  "type": "uint256"
                }
              ],
              "internalType": "struct DataStorage.Pricing[]",
              "name": "pricing",
              "type": "tuple[]"
            }
          ],
          "internalType": "struct DataStorage.Katibeh",
          "name": "katibeh",
          "type": "tuple"
        }
      ],
      "name": "fee",
      "outputs": [
        {
          "internalType": "uint256",
          "name": "",
          "type": "uint256"
        }
      ],
      "stateMutability": "view",
      "type": "function"
    },
    {
      "inputs": [],
      "name": "implementation",
      "outputs": [
        {
          "internalType": "contract Katibeh1155",
          "name": "",
          "type": "address"
        }
      ],
      "stateMutability": "view",
      "type": "function"
    },
    {
      "inputs": [
        {
          "internalType": "address",
          "name": "creatorAddr",
          "type": "address"
        },
        {
          "internalType": "string",
          "name": "tag0",
          "type": "string"
        }
      ],
      "name": "predictCollAddr",
      "outputs": [
        {
          "internalType": "address",
          "name": "",
          "type": "address"
        }
      ],
      "stateMutability": "view",
      "type": "function"
    },
    {
      "inputs": [
        {
          "internalType": "address payable",
          "name": "newAddr",
          "type": "address"
        }
      ],
      "name": "setReceiver1",
      "outputs": [],
      "stateMutability": "nonpayable",
      "type": "function"
    },
    {
      "inputs": [
        {
          "internalType": "uint256",
          "name": "tokenId",
          "type": "uint256"
        }
      ],
      "name": "uri",
      "outputs": [
        {
          "internalType": "string",
          "name": "",
          "type": "string"
        }
      ],
      "stateMutability": "view",
      "type": "function"
    }
  ],
  "bytecode": "0x608034620000de576001600160401b0390601f62005fba38819003918201601f191683019184831184841017620000c857808492602094604052833981010312620000de57516001600160a01b039182821691829003620000de576040519061310e9081830190811183821017620000c857829162002eac833903906000f0918215620000bc5760018060a01b0319921682600354161760035581600454161760045533906000541617600055604051612dc89081620000e48239f35b6040513d6000823e3d90fd5b634e487b7160e01b600052604160045260246000fd5b600080fdfe6080604052600436101561001257600080fd5b6000803560e01c90816303c13148146100aa5750806308e7c4d0146100a55780630e89341c146100a05780635c60da1b1461009b5780635fd099e6146100965780637f61af63146100915780638191ea831461008c578063968a577b146100875763e1d5e0761461008257600080fd5b6107c8565b610731565b6105a1565b6103c0565b610351565b6102ff565b6102aa565b6101de565b346101ad5760207ffffffffffffffffffffffffffffffffffffffffffffffffffffffffffffffffc3601126101ad576004356100e5816101b0565b81549073ffffffffffffffffffffffffffffffffffffffff8083163303610131577fffffffffffffffffffffffff00000000000000000000000000000000000000009116911617815580f35b7f08c379a0000000000000000000000000000000000000000000000000000000006080526020608452603160a4527f4665654d616e616765723a204f6e6c79207265636569766572312063616e206360c4527f68616e676520697473206164647265737300000000000000000000000000000060e45260846080fd5b80fd5b73ffffffffffffffffffffffffffffffffffffffff8116036101ce57565b600080fd5b60009103126101ce57565b346101ce5760007ffffffffffffffffffffffffffffffffffffffffffffffffffffffffffffffffc3601126101ce57602073ffffffffffffffffffffffffffffffffffffffff60045416604051908152f35b60005b8381106102435750506000910152565b8181015183820152602001610233565b907fffffffffffffffffffffffffffffffffffffffffffffffffffffffffffffffe0601f60209361028f81518092818752878088019101610230565b0116010190565b9060206102a7928181520190610253565b90565b346101ce5760207ffffffffffffffffffffffffffffffffffffffffffffffffffffffffffffffffc3601126101ce576102fb6102e7600435610cfc565b604051918291602083526020830190610253565b0390f35b346101ce5760007ffffffffffffffffffffffffffffffffffffffffffffffffffffffffffffffffc3601126101ce57602073ffffffffffffffffffffffffffffffffffffffff60035416604051908152f35b346101ce5760207ffffffffffffffffffffffffffffffffffffffffffffffffffffffffffffffffc3601126101ce576004356000526001602052602073ffffffffffffffffffffffffffffffffffffffff60406000205416604051908152f35b90816101409103126101ce5790565b346101ce5760407ffffffffffffffffffffffffffffffffffffffffffffffffffffffffffffffffc3601126101ce5760243567ffffffffffffffff81116101ce5761041c61041460209236906004016103b1565b600435610b94565b604051908152f35b359061042f826101b0565b565b7f4e487b7100000000000000000000000000000000000000000000000000000000600052604160045260246000fd5b610100810190811067ffffffffffffffff82111761047d57604052565b610431565b67ffffffffffffffff811161047d57604052565b6101a0810190811067ffffffffffffffff82111761047d57604052565b90601f7fffffffffffffffffffffffffffffffffffffffffffffffffffffffffffffffe0910116810190811067ffffffffffffffff82111761047d57604052565b60405190610140820182811067ffffffffffffffff82111761047d57604052565b67ffffffffffffffff811161047d57601f017fffffffffffffffffffffffffffffffffffffffffffffffffffffffffffffffe01660200190565b92919261055b82610515565b9161056960405193846104b3565b8294818452818301116101ce578281602093846000960137010152565b9080601f830112156101ce578160206102a79335910161054f565b346101ce5760407ffffffffffffffffffffffffffffffffffffffffffffffffffffffffffffffffc3601126101ce576004356105dc816101b0565b60243567ffffffffffffffff81116101ce576102fb916106b261060661070a933690600401610586565b9161066b61063961067073ffffffffffffffffffffffffffffffffffffffff600354169560405192839160208301610296565b039161066b7fffffffffffffffffffffffffffffffffffffffffffffffffffffffffffffffe0938481018352826104b3565b6113d3565b60405160609490941b7fffffffffffffffffffffffffffffffffffffffff000000000000000000000000166020850152603484015260549081018352826104b3565b306043916055936040519260388401526f5af43d82803e903d91602b57fd5bf3ff60248401526014830152733d602d80600a3d3981f3363d3d373d3d3d363d73825260588201526037600c8201206078820152012090565b60405173ffffffffffffffffffffffffffffffffffffffff90911681529081906020820190565b346101ce5760207ffffffffffffffffffffffffffffffffffffffffffffffffffffffffffffffffc3601126101ce5773ffffffffffffffffffffffffffffffffffffffff600435610781816101b0565b1660005260026020526020604060002054604051908152f35b9181601f840112156101ce5782359167ffffffffffffffff83116101ce57602083818601950101116101ce57565b60a07ffffffffffffffffffffffffffffffffffffffffffffffffffffffffffffffffc3601126101ce5767ffffffffffffffff6024358181116101ce576108139036906004016103b1565b906044358181116101ce5761082c90369060040161079a565b6064939193358381116101ce5761084790369060040161079a565b91608435958587116101ce57366023880112156101ce5786600401359586116101ce573660248760061b890101116101ce576024610889970194600435611622565b005b908160209103126101ce575190565b6040513d6000823e3d90fd5b67ffffffffffffffff811161047d5760051b60200190565b81601f820112156101ce578035916108d5836108a6565b926108e360405194856104b3565b808452602092838086019260051b8201019283116101ce578301905b82821061090d575050505090565b813581529083019083016108ff565b61ffff8116036101ce57565b929192610934826108a6565b604092610943845192836104b3565b819581835260208093019160061b8401938185116101ce57915b84831061096c57505050505050565b85838303126101ce578551908682019082821067ffffffffffffffff83111761047d5787928692845285356109a0816101b0565b8152828601356109af8161091c565b8382015281520192019161095d565b9080601f830112156101ce578160206102a793359101610928565b81601f820112156101ce578035906109f0826108a6565b92604092610a00845195866104b3565b808552602091828087019260081b850101938185116101ce578301915b848310610a2d5750505050505090565b610100838303126101ce5783610100918751610a4881610460565b8535815282860135838201528886013589820152606080870135908201526080808701359082015260a0808701359082015260c0808701359082015260e08087013590820152815201920191610a1d565b9190610140838203126101ce57610aae6104f4565b92610ab881610424565b845260208101356020850152604081013560408501526060810135606085015260808101359167ffffffffffffffff928381116101ce5781610afb918401610586565b608086015260a08201358381116101ce5781610b18918401610586565b60a086015260c08201358381116101ce5781610b359184016108be565b60c086015260e08201358381116101ce5781610b529184016108be565b60e0860152610100808301358481116101ce5782610b719185016109be565b9086015261012092838301359081116101ce57610b8e92016109d9565b90830152565b610bc5610bab826000526001602052604060002090565b5473ffffffffffffffffffffffffffffffffffffffff1690565b9073ffffffffffffffffffffffffffffffffffffffff6000921680610c1b575b5050610bf08261239b565b15610bff576102a7915061284a565b610c15610c106102a7933690610a99565b61276c565b90612ae7565b6040517fbd85b0390000000000000000000000000000000000000000000000000000000081526004810192909252602090829060249082905afa918215610c985791610c6a575b503880610be5565b610c8b915060203d8111610c91575b610c8381836104b3565b81019061088b565b38610c62565b503d610c79565b61089a565b6020818303126101ce5780519067ffffffffffffffff82116101ce570181601f820112156101ce578051610cd081610515565b92610cde60405194856104b3565b818452602082840101116101ce576102a79160208085019101610230565b73ffffffffffffffffffffffffffffffffffffffff81166000526002602052604060002054610dcb57600081610d61610d48610d48610bab610d9a966000526001602052604060002090565b73ffffffffffffffffffffffffffffffffffffffff1690565b60405180809581947f0e89341c000000000000000000000000000000000000000000000000000000008352600483019190602083019252565b03915afa908115610c9857600091610db0575090565b6102a7913d8091833e610dc381836104b3565b810190610c9d565b50604051610dd881610496565b61017d81527f646174613a6170706c69636174696f6e2f6a736f6e3b6261736536342c65794a60208201527f755957316c496a6f67496b746864476c695a5767694c434a6b5a584e6a636d6c60408201527f7764476c766269493649434a4f6232347464484a68626e4e6d5a584a68596d7860608201527f6c49697769615731685a3255694f6941695a474630595470706257466e5a533960808201527f7a646d6372654731734f324a68633255324e43785153453479576e6c434d324660a08201527f58556a426852444270546c525a4d306c70516d396156327875595568524f556c60c08201527f7156544a4f65556c6e5a55637863324a7554546c4a625767775a4568424e6b7860e08201527f354f544e6b4d324e315a48704e6457497a536d354d656b6c3354555242646d4d6101008201527f7a576d354a616a51345a4564574e475244516a525155306b7854554e5661556c6101208201527f49617a6c4a616d4e33536c4e4a5a325248566a526b517a466f596d314f6232496101408201527f7a53546c4a62544677576b645363317054535374544d6b59775956644b6247466101608201527f4564335a6b523159305a4551304f45777a546a4a61656a5139496e303d00000061018082015290565b15610fb457565b60846040517f08c379a000000000000000000000000000000000000000000000000000000000815260206004820152602760248201527f466163746f7279313135353a20746f6b656e2073616c652074696d652069732060448201527f65787069726564000000000000000000000000000000000000000000000000006064820152fd5b356102a7816101b0565b1561104957565b60646040517f08c379a000000000000000000000000000000000000000000000000000000000815260206004820152601e60248201527f466163746f7279313135353a20496e76616c6964207369676e617475726500006044820152fd5b908160209103126101ce575180151581036101ce5790565b601f82602094937fffffffffffffffffffffffffffffffffffffffffffffffffffffffffffffffe0938186528686013760008582860101520116010190565b939291602091611116916040875260408701916110bf565b930152565b1561112257565b60646040517f08c379a000000000000000000000000000000000000000000000000000000000815260206004820152601b60248201527f466163746f7279313135353a2077726f6e6720746f6b656e20696400000000006044820152fd5b9035907fffffffffffffffffffffffffffffffffffffffffffffffffffffffffffffffe1813603018212156101ce570180359067ffffffffffffffff82116101ce57602001918160051b360383136101ce57565b7f4e487b7100000000000000000000000000000000000000000000000000000000600052601160045260246000fd5b7fffffffffffffffffffffffffffffffffffffffffffffffffffffffffffffffff81146112305760010190565b6111d4565b7f4e487b7100000000000000000000000000000000000000000000000000000000600052603260045260246000fd5b901561126d5790565b611235565b906001101561126d5760200190565b906002101561126d5760400190565b919081101561126d5760051b0190565b156112a757565b60846040517f08c379a000000000000000000000000000000000000000000000000000000000815260206004820152603860248201527f466163746f7279313135353a20746f20746f6b656e20696420686173206e6f7460448201527f206d696e746564206f6e2063757272656e7420636861696e00000000000000006064820152fd5b1561133257565b60846040517f08c379a000000000000000000000000000000000000000000000000000000000815260206004820152603060248201527f466163746f7279313135353a20746f6b656e2073616c652074696d652068617360448201527f206e6f74207374617274656420796574000000000000000000000000000000006064820152fd5b9062015180820180921161123057565b9190820180921161123057565b6020815191015190602081106113e7575090565b7fffffffffffffffffffffffffffffffffffffffffffffffffffffffffffffffff9060200360031b1b1690565b9060409273ffffffffffffffffffffffffffffffffffffffff61144592168352606060208401526060830190610253565b9082818303910152600781527f4b6174696265680000000000000000000000000000000000000000000000000060208201520190565b9035907fffffffffffffffffffffffffffffffffffffffffffffffffffffffffffffffe1813603018212156101ce570180359067ffffffffffffffff82116101ce576020019181360383136101ce57565b6040906102a79492815281602082015201916110bf565b156114ea57565b60846040517f08c379a000000000000000000000000000000000000000000000000000000000815260206004820152602360248201527f466163746f7279313135353a20696e73756666696369656e74207075626c696360448201527f46656500000000000000000000000000000000000000000000000000000000006064820152fd5b9160206102a79381815201916110bf565b907fffffffffffffffffffffffffffffffffffffffffffffffffffffffffffffffff820191821161123057565b9190820391821161123057565b908160209103126101ce57516102a7816101b0565b9035907fffffffffffffffffffffffffffffffffffffffffffffffffffffffffffffffe1813603018212156101ce570180359067ffffffffffffffff82116101ce57602001918160061b360383136101ce57565b919695949693909293611642610bab846000526001602052604060002090565b90600073ffffffffffffffffffffffffffffffffffffffff8093168015600014611d0f57505061168d61168861167787611038565b61168088612222565b908985611ef8565b611042565b60046116b0610d48825473ffffffffffffffffffffffffffffffffffffffff1690565b604092835180927f096c872300000000000000000000000000000000000000000000000000000000825281806116ed8b60209e8f978a85016110fe565b03915afa8015610c985761170991600091611ce2575b5061111b565b60c086016117178188611180565b90508760005b828110611bfb57505050506000916117348761239b565b15611bb457611750611748898901356113b6565b42101561132b565b6117586127fc565b975b61177c60e089019461177561176f878c611180565b90611264565b3590612443565b8886821695823b15611a55575b50506117e491506117a4886000526001602052604060002090565b9073ffffffffffffffffffffffffffffffffffffffff167fffffffffffffffffffffffff0000000000000000000000000000000000000000825416179055565b6117f1608088018861147b565b9092843b156101ce5761183288926000945195869485947f862440e200000000000000000000000000000000000000000000000000000000865285016114cc565b038183865af18015610c9857611a42575b5061184e8585612c1f565b61185a863410156114e3565b1696873b156101ce576040517f731133e90000000000000000000000000000000000000000000000000000000081523360048201526024810184905260016044820152608060648201526000608482018190528160a481838d5af18015610c9857611a29575b503360009081526002602052604090206118da8154611203565b90556040805133808252600160208301529160009130917fc3d58168c5ae7397731d063d5bbf3d657854427343f4c083240f7aacaa2d0f6291a4806119ed575b5050508134116119c1575b6020600495604051968780927f8da5cb5b0000000000000000000000000000000000000000000000000000000082525afa908115610c985761042f95600092611989575b5061197c816101006119839301906115ce565b3691610928565b91612562565b6119839192506119b261197c9160203d81116119ba575b6119aa81836104b3565b8101906115b9565b929150611969565b503d6119a0565b60008080806119d086346115ac565b8181156119e4575b3390f16119255761089a565b506108fc6119d8565b7fe3efb4090b64f6dead06906e59a91359e0c1ca9cad88a633d749431442e5bebf91611a1e6040519283928361156e565b0390a238808061191a565b80611a36611a3c92610482565b806101d3565b386118c0565b80611a36611a4f92610482565b38611843565b81611b2861176f611b4493611b18611a85610d4860035473ffffffffffffffffffffffffffffffffffffffff1690565b611b128a611ae08d611aa361176f88611a9d8d611038565b9c611180565b359051998a93840190917fffffffffffffffffffffffffffffffffffffffff00000000000000000000000060349360601b16825260148201520190565b039661066b7fffffffffffffffffffffffffffffffffffffffffffffffffffffffffffffffe0988981018352826104b3565b90611e37565b50611b2286611038565b95611180565b86519035958101958652948590602001039081018552846104b3565b853b156101ce57611b8492600091855194859283927fb2b45df5000000000000000000000000000000000000000000000000000000008452898401611414565b038183895af1918215610c98576117e492611ba1575b8990611789565b80611a36611bae92610482565b38611b9a565b969150611bcc611bc7610c103689610a99565b612a51565b96611bd687611038565b92611be76060890135421115610fad565b611bf68289013542101561132b565b61175a565b8a87611c28610bab611c1785611c118a89611180565b90611290565b356000526001602052604060002090565b16858115159485611c50575b50505050611c44611c49926112a0565b611203565b889061171d565b611c9c9550611c11611c63928692611180565b3590885180809681947fbd85b0390000000000000000000000000000000000000000000000000000000083528b83019190602083019252565b03915afa918215610c9857611c4992611c4491600091611cc5575b501515928c9150858c611c34565b611cdc91508d803d10610c9157610c8381836104b3565b38611cb7565b611d029150893d8b11611d08575b611cfa81836104b3565b8101906110a7565b38611703565b503d611cf0565b9650869150611d1d8661239b565b15611da15750602060405180927fbd85b0390000000000000000000000000000000000000000000000000000000082528180611d6189600483019190602083019252565b03915afa8015610c9857611d7d91600091611d83575b5061284a565b9461184e565b611d9b915060203d8111610c9157610c8381836104b3565b38611d77565b90602060405180927fbd85b0390000000000000000000000000000000000000000000000000000000082528180611de08a600483019190602083019252565b03915afa908115610c9857611e039291611e19575b50610c15610c103688610a99565b94611e146060860135421115610fad565b61184e565b611e31915060203d8111610c9157610c8381836104b3565b38611df5565b6e5af43d82803e903d91602b57fd5bf390763d602d80600a3d3981f3363d3d373d3d3d363d7300000062ffffff8260881c161760005260781b17602052603760096000f59073ffffffffffffffffffffffffffffffffffffffff821615611e9a57565b60646040517f08c379a000000000000000000000000000000000000000000000000000000000815260206004820152601760248201527f455243313136373a2063726561746532206661696c65640000000000000000006044820152fd5b9192906040519060208201927f19457468657265756d205369676e6564204d6573736167653a0a3332000000008452603c830152603c82526060820182811067ffffffffffffffff82111761047d57602094600094608094611f629360405251902092369161054f565b8481015160606040830151920151604051938452851a868401526040830152606082015282805260015afa15610c985760005173ffffffffffffffffffffffffffffffffffffffff90811691161490565b90357fffffffffffffffffffffffffffffffffffffffffffffffffffffffffffffffe1823603018112156101ce57016020813591019167ffffffffffffffff82116101ce5781360383136101ce57565b90357fffffffffffffffffffffffffffffffffffffffffffffffffffffffffffffffe1823603018112156101ce57016020813591019167ffffffffffffffff82116101ce578160051b360383136101ce57565b90918281527f07ffffffffffffffffffffffffffffffffffffffffffffffffffffffffffffff83116101ce5760209260051b809284830137010190565b90357fffffffffffffffffffffffffffffffffffffffffffffffffffffffffffffffe1823603018112156101ce57016020813591019167ffffffffffffffff82116101ce578160061b360383136101ce57565b9190808252602080920192916000905b828210612104575050505090565b9091929360019073ffffffffffffffffffffffffffffffffffffffff863561212b816101b0565b16815261ffff8387013561213e8161091c565b168184015260409081019501939201906120f6565b90357fffffffffffffffffffffffffffffffffffffffffffffffffffffffffffffffe1823603018112156101ce57016020813591019167ffffffffffffffff82116101ce578160081b360383136101ce57565b9190808252602080920192916000905b8282106121c4575050505090565b83358552838101358582015260408085013590860152606080850135908601526080808501359086015260a0808501359086015260c0808501359086015260e0808501359086015261010094850194909301926001909101906121b6565b604051612395816123696122a76020830195602087526122626040850161224883610424565b73ffffffffffffffffffffffffffffffffffffffff169052565b6020810135606085015260408101356080850152606081013560a08501526123596122906080830183611fb3565b9390610140948560c08901526101808801916110bf565b916123506122ed6122bb60a0840184611fb3565b7fffffffffffffffffffffffffffffffffffffffffffffffffffffffffffffffc09691878b84030160e08c01526110bf565b6123106122fd60c0850185612003565b6101009391888c840301858d0152612056565b9561234161233861232460e0870187612003565b6101209a918d8c8c82860301910152612056565b92850185612093565b91878b850301908b01526120e6565b93810190612153565b91858403016101608601526121a6565b037fffffffffffffffffffffffffffffffffffffffffffffffffffffffffffffffe081018352826104b3565b51902090565b6123a99060e0810190611180565b6040519060208201927f07ffffffffffffffffffffffffffffffffffffffffffffffffffffffffffffff82116101ce57826020916123f59360051b8091873781010380845201826104b3565b511561126d57517fff00000000000000000000000000000000000000000000000000000000000000167f23000000000000000000000000000000000000000000000000000000000000001490565b6106b26102a79261066b73ffffffffffffffffffffffffffffffffffffffff60035416936123696040519384926020840190917fffffffffffffffffffffffffffffffffffffffff00000000000000000000000060349360601b16825260148201520190565b9060148202918083046014149015171561123057565b9061015e9182810292818404149015171561123057565b8181029291811591840414171561123057565b7f4e487b7100000000000000000000000000000000000000000000000000000000600052601260045260246000fd5b8115612522570490565b6124e9565b919081101561126d5760061b0190565b356102a78161091c565b80511561126d5760200190565b805182101561126d5760209160051b010190565b9493909192612587612579612581612579896124a9565b6103e8900490565b976124bf565b6125b36000976125ae610d488a5473ffffffffffffffffffffffffffffffffffffffff1690565b612733565b8690875b84811061270d5750875b8481106126c7575050505050479180519081156000146125e857505061042f929350612733565b9291509284805b85811061269c57505b6126018561157f565b8110156126785780611c448561266d8961266861266261265b60206126518961264b6126306126739d8b61254e565b515173ffffffffffffffffffffffffffffffffffffffff1690565b9861254e565b51015161ffff1690565b61ffff1690565b896124d6565b612518565b90612733565b6125f8565b509350506126306126959161268f61042f9461157f565b9061254e565b4790612733565b956126bc6126c2916126b661265b60206126518c8b61254e565b906113c6565b96611203565b6125ef565b80611c448561266d8661266861270261265b60206126fc898f6126f66126f16127089e838d612527565b611038565b99612527565b01612537565b886124d6565b6125c1565b9161272861272e916126b661265b60206126fc888b8b612527565b92611203565b6125b7565b6000808093819382908215612762575b73ffffffffffffffffffffffffffffffffffffffff1690f115610c9857565b6108fc9150612743565b60405161277881610460565b6101206000928383528360208401528360408401528360608401528360808401528360a08401528360c08401528360e0809401520190815151925b8381106127cb5750506127c7915051612541565b5190565b46826127d883865161254e565b510151146127ee576127e990611203565b6127b3565b9190506127c792505161254e565b670de0b6b3a76400006000670f43fc2c04ee0000815b61281b57505090565b8061282591612960565b9060018116612839575b60011c9081612812565b918161284491612960565b9161282f565b61285381612b31565b6001908082036128bd5750670f43fc2c04ee000090828116156128af57815b92811c91825b6128825750505090565b8061288c91612960565b9181811661289e575b811c9182612878565b92826128a991612960565b92612895565b670de0b6b3a7640000612872565b8091501561252257670de0b6b3a7640000918167016345785d8a000004830190818411611230576128ed91612905565b91808202918204036112305781018091116112305790565b90919060018084161561295257815b93811c91825b61292357505050565b8061292d91612960565b9182828216612941575b50811c918261291a565b61294b9195612960565b9338612937565b670de0b6b3a7640000612914565b7fffffffffffffffffffffffffffffffffffffffffffffffffffffffffffffffff828209828202908180821091039381850393670de0b6b3a764000091829109916706f05b59d3b1ffff831195146129ee578310156101ce577faccb18165bd6fe31ae1cf318dc5b51eee0e1ba569b88cd74c1773b91fac1066992828211900360ee1b910360121c17020190565b925050040190565b8181029291600082127f800000000000000000000000000000000000000000000000000000000000000082141661123057818405149015171561123057565b9190916000838201938412911290801582169115161761123057565b6020810151815190670de0b6b3a764000091600090815b612ab8575050670de0b6b3a764000091612a81916129f6565b05600160408301511517156112305760008112801516611230576060612aa992015190612a35565b60008112156102a75750600090565b80612ac291612960565b9060018116612ad6575b60011c9081612a68565b9281612ae191612960565b92612acc565b906060612b28612aa993612b22670de0b6b3a7640000612b166020870151612b10858951612905565b906129f6565b059160408601516129f6565b90612a35565b91015190612a35565b601a811015612b405750600190565b6101c6811015612b505750600a90565b611a98811015612b605750606490565b620163b2811015612b7257506103e890565b6211681d811015612b84575061271090565b62d132b0811015612b975750620186a090565b63098b63d0811015612bab5750620f424090565b636d2a78e0811015612bbf57506298968090565b6404ccedb680811015612bd557506305f5e10090565b64355d627400811015612beb5750633b9aca0090565b65024b44cba7001115612c01576402540be40090565b64174876e80090565b81604051928392833781016000815203902090565b90612c2981611038565b612c3f612c3960a084018461147b565b90612c0a565b73ffffffffffffffffffffffffffffffffffffffff60009216847fc0d62261ee30fa727eab11180362380f5a2d6af2c9ec2b14537843182c7c58268480a460c08201612c8b8184611180565b919050825b828110612d50575050507fb237134d29775150b1edf87af1dc343262244af7cbb474cfc64cb6e8824af663612d3360e08401612ccc8186611180565b9590508515612d4a57612ce261176f8383611180565b35945b6001871115612d41576002612d03612cfd8585611180565b90611272565b35975b1115612d385750612d2091612d1a91611180565b90611281565b35945b6040519081529081906020820190565b0390a4565b91505094612d23565b60028197612d06565b84612ce5565b80612d62612d8d92611c118589611180565b35877f65327253f8d67c2e23cb4dfab28ca7437b04e9098cf4e985073d76df25209ad48780a3611203565b612c9056fea2646970667358221220c59e166eeabd336183f3319352eb524b7750876b8df8091992fcea7a10a5110d64736f6c63430008130033608034620000e957602081016001600160401b03811182821017620000d357604052600080915262000033600254620000ee565b601f811162000092575b50806002556200004f600454620000ee565b601f81116200006e575b6000600455604051612fc99081620001458239f35b601f60208360046200008a955220910160051c8101906200012b565b388062000059565b60028252620000cc90601f0160051c7f405787fa12a823e0f2b7631cc41b3ba8828b3321ca811111fa75cd3aa3bb5ace908101906200012b565b386200003d565b634e487b7160e01b600052604160045260246000fd5b600080fd5b90600182811c9216801562000120575b60208310146200010a57565b634e487b7160e01b600052602260045260246000fd5b91607f1691620000fe565b81811062000137575050565b600081556001016200012b56fe6080604052600436101561001257600080fd5b60003560e01c8062fdd58e1461239157806301ffc9a7146122a157806306fdde03146121dd5780630e89341c146121a05780632eb2c2d614611ca15780634e1273f414611a805780634f558e7914611a345780636b20c4541461176f578063731133e914611541578063862440e2146112d65780638da5cb5b1461128157806395d89b411461115f578063a22cb46514611005578063b2b45df514610954578063bd85b0391461090a578063e985e9c514610888578063f242432a146103635763f5298aca146100e157600080fd5b3461035e5760607ffffffffffffffffffffffffffffffffffffffffffffffffffffffffffffffffc36011261035e576101186123de565b6024908135604473ffffffffffffffffffffffffffffffffffffffff81359316913383148015610335575b61014c906127c4565b8215926101598415612b3b565b61016282612b05565b9161016c86612b05565b94600060405161017b81612477565b526102db575b60005b835181101561025e576101978185612781565b516101a28288612781565b51908060005260036020818152604060002054928484106101db57906101d695949392916000525203604060002055612725565b610184565b506084907f455243313135353a206275726e20616d6f756e74206578636565647320746f748a60288f604051947f08c379a000000000000000000000000000000000000000000000000000000000865260048601528401528201527f616c537570706c790000000000000000000000000000000000000000000000006064820152fd5b6000838389818452836020526040842083855260205280604085205461028682821015612bc6565b838652856020526040862085875260205203604085205560405191825260208201527fc3d58168c5ae7397731d063d5bbf3d657854427343f4c083240f7aacaa2d0f6260403392a46102d9604051612477565b005b949195929060005b875181101561032a57806102fa6103259288612781565b51610305828b612781565b51600052600360205261031e6040600020918254612965565b9055612725565b6102e3565b509092959194610181565b5082600052600160205260406000203360005260205261014c60ff604060002054169050610143565b600080fd5b3461035e5760a07ffffffffffffffffffffffffffffffffffffffffffffffffffffffffffffffffc36011261035e5761039a6123de565b6103a2612401565b906084803567ffffffffffffffff811161035e576103c4903690600401612615565b9073ffffffffffffffffffffffffffffffffffffffff913383851614801561085d575b6103f0906127c4565b828516156103fe811561284f565b610409604435612b05565b610414606435612b05565b918587161561081d575b61072f575b505060443560005260209460008652604060002084861660005286526040600020546104536064358210156128da565b604435600052600087526040600020858716600052875260643590036040600020556044356000526000865260406000208482166000528652604060002061049e6064358254612965565b905560405160443581526064358782015284821690858716907fc3d58168c5ae7397731d063d5bbf3d657854427343f4c083240f7aacaa2d0f6260403392a4803b6104e557005b60a0600061054895889560405197889687958693857ff23a6e61000000000000000000000000000000000000000000000000000000009d8e87523360048801521660248601526044356044860152606435606486015284015260a48301906124f7565b0393165af160009181610700575b50610652575050600190610568612a5a565b6308c379a014610603575b5061057a57005b6040517f08c379a000000000000000000000000000000000000000000000000000000000815260206004820152603460248201527f455243313135353a207472616e7366657220746f206e6f6e2d4552433131353560448201527f526563656976657220696d706c656d656e7465720000000000000000000000006064820152608490fd5b0390fd5b61060b612a78565b90816106175750610573565b6105ff6040519283927f08c379a0000000000000000000000000000000000000000000000000000000008452600484015260248301906124f7565b7fffffffff00000000000000000000000000000000000000000000000000000000161490506102d9576040517f08c379a000000000000000000000000000000000000000000000000000000000815260206004820152602860248201527f455243313135353a204552433131353552656365697665722072656a6563746560448201527f6420746f6b656e730000000000000000000000000000000000000000000000006064820152608490fd5b610721919250843d8611610728575b6107198183612493565b810190612a22565b9084610556565b503d61070f565b92959194909360005b845181101561080e5761074b8186612781565b51906107578188612781565b5182600052600360205260406000205481811061078b5761078693600052600360205203604060002055612725565b610738565b8a6040517f08c379a000000000000000000000000000000000000000000000000000000000815260206004820152602860248201527f455243313135353a206275726e20616d6f756e74206578636565647320746f7460448201527f616c537570706c790000000000000000000000000000000000000000000000006064820152fd5b50935093909491508580610423565b959260009794919592975b865181101561084f578061083f61084a928b612781565b51610305828a612781565b610828565b50929596919490939661041e565b5082841660005260016020526040600020336000526020526103f060ff6040600020541690506103e7565b3461035e5760407ffffffffffffffffffffffffffffffffffffffffffffffffffffffffffffffffc36011261035e576108bf6123de565b6108c7612401565b9073ffffffffffffffffffffffffffffffffffffffff809116600052600160205260406000209116600052602052602060ff604060002054166040519015158152f35b3461035e5760207ffffffffffffffffffffffffffffffffffffffffffffffffffffffffffffffffc36011261035e5760043560005260036020526020604060002054604051908152f35b3461035e5760607ffffffffffffffffffffffffffffffffffffffffffffffffffffffffffffffffc36011261035e5761098b6123de565b60243567ffffffffffffffff811161035e576109ab903690600401612615565b9060443567ffffffffffffffff811161035e576109cc903690600401612615565b906006549060ff8260081c161591828093610ff8575b8015610fe1575b15610f5d578260017fffffffffffffffffffffffffffffffffffffffffffffffffffffffffffffff00831617600655610f2e575b50835167ffffffffffffffff8111610d9157610a3a600854612424565b601f8111610e8b575b50602094601f8211600114610dcb57948192939495600092610dc0575b50507fffffffffffffffffffffffffffffffffffffffffffffffffffffffffffffffff8260011b9260031b1c1916176008555b825167ffffffffffffffff8111610d9157610aaf600954612424565b601f8111610d2c575b506020601f8211600114610c6c5781929394600092610c61575b50507fffffffffffffffffffffffffffffffffffffffffffffffffffffffffffffffff8260011b9260031b1c1916176009555b337fffffffffffffffffffffffff000000000000000000000000000000000000000060075416176007556006549060ff8260081c1615610bdd5775ffffffffffffffffffffffffffffffffffffffff00009060101b1691827fffffffffffffffffffff0000000000000000000000000000000000000000ffff831617600655610b8a57005b7fffffffffffffffffffff000000000000000000000000000000000000000000ff16176006557f7f26b83ff96e1f2b6a682f133852f6798a09c465da95921460cefb3847402498602060405160018152a1005b60846040517f08c379a000000000000000000000000000000000000000000000000000000000815260206004820152602b60248201527f496e697469616c697a61626c653a20636f6e7472616374206973206e6f74206960448201527f6e697469616c697a696e670000000000000000000000000000000000000000006064820152fd5b015190508480610ad2565b7fffffffffffffffffffffffffffffffffffffffffffffffffffffffffffffffe082169060096000527f6e1540171b6c0c960b71a7020d9f60077f6af931a8bbf590da0223dacf75c7af9160005b818110610d1457509583600195969710610cdd575b505050811b01600955610b05565b01517fffffffffffffffffffffffffffffffffffffffffffffffffffffffffffffffff60f88460031b161c19169055848080610ccf565b9192602060018192868b015181550194019201610cba565b60096000527f6e1540171b6c0c960b71a7020d9f60077f6af931a8bbf590da0223dacf75c7af601f830160051c81019160208410610d87575b601f0160051c01905b818110610d7b5750610ab8565b60008155600101610d6e565b9091508190610d65565b7f4e487b7100000000000000000000000000000000000000000000000000000000600052604160045260246000fd5b015190508580610a60565b7fffffffffffffffffffffffffffffffffffffffffffffffffffffffffffffffe082169560086000527ff3f7a9fe364faab93b216da50a3214154f22a0a2b415b23a84c8169e8b636ee39160005b888110610e7357508360019596979810610e3c575b505050811b01600855610a93565b01517fffffffffffffffffffffffffffffffffffffffffffffffffffffffffffffffff60f88460031b161c19169055858080610e2e565b91926020600181928685015181550194019201610e19565b6008600052601f820160051c7ff3f7a9fe364faab93b216da50a3214154f22a0a2b415b23a84c8169e8b636ee3019060208310610f06575b601f0160051c7ff3f7a9fe364faab93b216da50a3214154f22a0a2b415b23a84c8169e8b636ee301905b818110610efa5750610a43565b60008155600101610eed565b7ff3f7a9fe364faab93b216da50a3214154f22a0a2b415b23a84c8169e8b636ee39150610ec3565b7fffffffffffffffffffffffffffffffffffffffffffffffffffffffffffff0000166101011760065584610a1d565b60846040517f08c379a000000000000000000000000000000000000000000000000000000000815260206004820152602e60248201527f496e697469616c697a61626c653a20636f6e747261637420697320616c72656160448201527f647920696e697469616c697a65640000000000000000000000000000000000006064820152fd5b50303b1580156109e95750600160ff8216146109e9565b50600160ff8216106109e2565b3461035e5760407ffffffffffffffffffffffffffffffffffffffffffffffffffffffffffffffffc36011261035e5761103c6123de565b6024359081151580920361035e5773ffffffffffffffffffffffffffffffffffffffff16908133146110db5733600052600160205260406000208260005260205260406000207fffffffffffffffffffffffffffffffffffffffffffffffffffffffffffffff0081541660ff83161790556040519081527f17307eab39ab6107e8899845ad3d59bd9653f200f220920489ca2b5937696c3160203392a3005b60846040517f08c379a000000000000000000000000000000000000000000000000000000000815260206004820152602960248201527f455243313135353a2073657474696e6720617070726f76616c2073746174757360448201527f20666f722073656c6600000000000000000000000000000000000000000000006064820152fd5b3461035e5760007ffffffffffffffffffffffffffffffffffffffffffffffffffffffffffffffffc36011261035e57604051600060095461119f81612424565b8084529060019081811690811561123c57506001146111e1575b6111dd846111c981860382612493565b6040519182916020835260208301906124f7565b0390f35b6009600090815292507f6e1540171b6c0c960b71a7020d9f60077f6af931a8bbf590da0223dacf75c7af5b8284106112245750505081016020016111c9826111b9565b8054602085870181019190915290930192810161120c565b7fffffffffffffffffffffffffffffffffffffffffffffffffffffffffffffff001660208087019190915292151560051b850190920192506111c991508390506111b9565b3461035e5760007ffffffffffffffffffffffffffffffffffffffffffffffffffffffffffffffffc36011261035e57602073ffffffffffffffffffffffffffffffffffffffff60065460101c16604051908152f35b3461035e5760407ffffffffffffffffffffffffffffffffffffffffffffffffffffffffffffffffc36011261035e5767ffffffffffffffff60043560243582811161035e573660238201121561035e5780600401359083821161035e57366024838301011161035e576113709161136673ffffffffffffffffffffffffffffffffffffffff600754163314612c50565b60243692016125b0565b9181600052602090600582526040600020908451908111610d91576113958254612424565b601f81116114fb575b5082601f82116001146114385781907f6bb7ff708619ba0610cba295a58592e0451dee2622938c8755667688daf3529b959660009261142d575b50507fffffffffffffffffffffffffffffffffffffffffffffffffffffffffffffffff8260011b9260031b1c19161790555b61141383612cdb565b906114286040519282849384528301906124f7565b0390a2005b0151905086806113d8565b7fffffffffffffffffffffffffffffffffffffffffffffffffffffffffffffffe082169583600052846000209660005b8181106114e45750917f6bb7ff708619ba0610cba295a58592e0451dee2622938c8755667688daf3529b9697918460019594106114ad575b505050811b01905561140a565b01517fffffffffffffffffffffffffffffffffffffffffffffffffffffffffffffffff60f88460031b161c191690558680806114a0565b838301518955600190980197928601928601611468565b8260005283600020601f830160051c810191858410611537575b601f0160051c01905b81811061152b575061139e565b6000815560010161151e565b9091508190611515565b3461035e5760807ffffffffffffffffffffffffffffffffffffffffffffffffffffffffffffffffc36011261035e576115786123de565b6044359060243560643567ffffffffffffffff811161035e5761159f903690600401612615565b9173ffffffffffffffffffffffffffffffffffffffff6115c481600754163314612c50565b81169182156116eb576115d681612b05565b926115e086612b05565b9560005b855181101561160b57806115fb611606928a612781565b516103058289612781565b6115e4565b5085836000526020946000865260406000208460005286526040600020611633848254612965565b905583600060405187815285898201527fc3d58168c5ae7397731d063d5bbf3d657854427343f4c083240f7aacaa2d0f6260403392a43b61167057005b6116cd92859260006040518096819582947ff23a6e61000000000000000000000000000000000000000000000000000000009a8b85523360048601528560248601526044850152606484015260a0608484015260a48301906124f7565b03925af1600091816107005750610652575050600190610568612a5a565b60846040517f08c379a000000000000000000000000000000000000000000000000000000000815260206004820152602160248201527f455243313135353a206d696e7420746f20746865207a65726f2061646472657360448201527f73000000000000000000000000000000000000000000000000000000000000006064820152fd5b3461035e5760607ffffffffffffffffffffffffffffffffffffffffffffffffffffffffffffffffc36011261035e576117a66123de565b60249067ffffffffffffffff90823582811161035e576117ca903690600401612552565b91604490813590811161035e576117fa73ffffffffffffffffffffffffffffffffffffffff913690600401612552565b9216923384148015611a0b575b611810906127c4565b831561181c8115612b3b565b6118298251855114612972565b600060405161183781612477565b526119d3575b60005b8151811015611919576118538183612781565b5161185e8286612781565b5190806000526003602081815260406000205492848410611897579061189295949392916000525203604060002055612725565b611840565b6084827f455243313135353a206275726e20616d6f756e74206578636565647320746f748a60288f604051947f08c379a000000000000000000000000000000000000000000000000000000000865260048601528401528201527f616c537570706c790000000000000000000000000000000000000000000000006064820152fd5b83828660005b825181101561198e57806119366119899285612781565b516119418287612781565b51908060005260206000815260406000208660005281526040600020549161196b84841015612bc6565b60005260008152604060002090866000525203604060002055612725565b61191f565b50907f4a39dc06d4c0dbc64b70af90fd698a233a518aa5d07e595d983b8c0526c8f7fb6119c56000946040519182913395836129fd565b0390a46102d9604051612477565b9260009491945b8451811015611a0157806119f16119fc9286612781565b516103058288612781565b6119da565b509293909361183d565b5083600052600160205260406000203360005260205261181060ff604060002054169050611807565b3461035e5760207ffffffffffffffffffffffffffffffffffffffffffffffffffffffffffffffffc36011261035e57600435600052600360205260206040600020541515604051908152f35b3461035e5760407ffffffffffffffffffffffffffffffffffffffffffffffffffffffffffffffffc36011261035e5760043567ffffffffffffffff80821161035e573660238301121561035e57816004013590611adc8261253a565b92611aea6040519485612493565b82845260209260248486019160051b8301019136831161035e57602401905b828210611c755750505060243590811161035e57611b2b903690600401612552565b8251815103611bf1578251927fffffffffffffffffffffffffffffffffffffffffffffffffffffffffffffffe0611b7a611b648661253a565b95611b726040519788612493565b80875261253a565b01368486013760005b8151811015611bda5780611bc573ffffffffffffffffffffffffffffffffffffffff611bb2611bd59486612781565b5116611bbe8387612781565b5190612667565b611bcf8288612781565b52612725565b611b83565b5050506111dd604051928284938452830190612633565b608482604051907f08c379a00000000000000000000000000000000000000000000000000000000082526004820152602960248201527f455243313135353a206163636f756e747320616e6420696473206c656e67746860448201527f206d69736d6174636800000000000000000000000000000000000000000000006064820152fd5b813573ffffffffffffffffffffffffffffffffffffffff8116810361035e578152908401908401611b09565b3461035e577ffffffffffffffffffffffffffffffffffffffffffffffffffffffffffffffffc60a08136011261035e57611cd96123de565b90611ce2612401565b60449081359267ffffffffffffffff9384811161035e57611d07903690600401612552565b6064803586811161035e57611d20903690600401612552565b94608496873590811161035e57611d3b903690600401612615565b73ffffffffffffffffffffffffffffffffffffffff9433868b16148015612175575b611d66906127c4565b611d738551895114612972565b85871615611d81811561284f565b868b1615612132575b61203c575b60005b8551811015611e285780611da9611e239288612781565b518c611db5838d612781565b519180600052826020926000845260406000208d8216600052845260406000205490611de3838310156128da565b83600052600085528d60406000209116600052845203604060002055600052600081526040600020908a8c166000525261031e6040600020918254612965565b611d92565b50888a989796949789604051887f4a39dc06d4c0dbc64b70af90fd698a233a518aa5d07e595d983b8c0526c8f7fb89808d1694169280611e6a873395836129fd565b0390a4873b611e7557005b6040519889978896887fbc197c81000000000000000000000000000000000000000000000000000000009d8e8a523360048b0152166024890152870160a0905260a48701611ec291612633565b90848783030190870152611ed591612633565b918483030190840152611ee7916124f7565b03921691815a602094600091f16000918161201c575b50611f705750506001611f0e612a5a565b6308c379a014611f1f575b61057a57005b611f27612a78565b80611f325750611f19565b6105ff906040519182917f08c379a00000000000000000000000000000000000000000000000000000000083526020600484015260248301906124f7565b7fffffffff0000000000000000000000000000000000000000000000000000000016146102d9576040517f08c379a000000000000000000000000000000000000000000000000000000000815260206004820152602860248201527f455243313135353a204552433131353552656365697665722072656a6563746560448201527f6420746f6b656e730000000000000000000000000000000000000000000000006064820152608490fd5b61203591925060203d8111610728576107198183612493565b9083611efd565b9796949060009993999692965b85518110156121225761205c8187612781565b516120678289612781565b519080600052602060038152604060002054918383106120a05761209b949392916003916000525203604060002055612725565b612049565b508b907f616c537570706c790000000000000000000000000000000000000000000000008f7f455243313135353a206275726e20616d6f756e74206578636565647320746f748e604051947f08c379a0000000000000000000000000000000000000000000000000000000008652600486015260286024860152840152820152fd5b5090949697989298959195611d8f565b99969498959392919060005b8a5181101561216657808b6103058261215a612161958f612781565b5192612781565b61213e565b50909192939598949699611d8a565b50858a166000526001602052604060002033600052602052611d6660ff604060002054169050611d5d565b3461035e5760207ffffffffffffffffffffffffffffffffffffffffffffffffffffffffffffffffc36011261035e576111dd6111c9600435612cdb565b3461035e5760007ffffffffffffffffffffffffffffffffffffffffffffffffffffffffffffffffc36011261035e57604051600060085461221d81612424565b8084529060019081811690811561123c5750600114612246576111dd846111c981860382612493565b6008600090815292507ff3f7a9fe364faab93b216da50a3214154f22a0a2b415b23a84c8169e8b636ee35b8284106122895750505081016020016111c9826111b9565b80546020858701810191909152909301928101612271565b3461035e5760207ffffffffffffffffffffffffffffffffffffffffffffffffffffffffffffffffc36011261035e576004357fffffffff00000000000000000000000000000000000000000000000000000000811680910361035e57807fd9b67a260000000000000000000000000000000000000000000000000000000060209214908115612367575b811561233d575b506040519015158152f35b7f01ffc9a70000000000000000000000000000000000000000000000000000000091501482612332565b7f0e89341c000000000000000000000000000000000000000000000000000000008114915061232b565b3461035e5760407ffffffffffffffffffffffffffffffffffffffffffffffffffffffffffffffffc36011261035e5760206123d66123cd6123de565b60243590612667565b604051908152f35b6004359073ffffffffffffffffffffffffffffffffffffffff8216820361035e57565b6024359073ffffffffffffffffffffffffffffffffffffffff8216820361035e57565b90600182811c9216801561246d575b602083101461243e57565b7f4e487b7100000000000000000000000000000000000000000000000000000000600052602260045260246000fd5b91607f1691612433565b6020810190811067ffffffffffffffff821117610d9157604052565b90601f7fffffffffffffffffffffffffffffffffffffffffffffffffffffffffffffffe0910116810190811067ffffffffffffffff821117610d9157604052565b60005b8381106124e75750506000910152565b81810151838201526020016124d7565b907fffffffffffffffffffffffffffffffffffffffffffffffffffffffffffffffe0601f602093612533815180928187528780880191016124d4565b0116010190565b67ffffffffffffffff8111610d915760051b60200190565b81601f8201121561035e578035916125698361253a565b926125776040519485612493565b808452602092838086019260051b82010192831161035e578301905b8282106125a1575050505090565b81358152908301908301612593565b92919267ffffffffffffffff8211610d9157604051916125f860207fffffffffffffffffffffffffffffffffffffffffffffffffffffffffffffffe0601f8401160184612493565b82948184528183011161035e578281602093846000960137010152565b9080601f8301121561035e57816020612630933591016125b0565b90565b90815180825260208080930193019160005b828110612653575050505090565b835185529381019392810192600101612645565b73ffffffffffffffffffffffffffffffffffffffff169081156126a157600052600060205260406000209060005260205260406000205490565b60846040517f08c379a000000000000000000000000000000000000000000000000000000000815260206004820152602a60248201527f455243313135353a2061646472657373207a65726f206973206e6f742061207660448201527f616c6964206f776e6572000000000000000000000000000000000000000000006064820152fd5b7fffffffffffffffffffffffffffffffffffffffffffffffffffffffffffffffff81146127525760010190565b7f4e487b7100000000000000000000000000000000000000000000000000000000600052601160045260246000fd5b80518210156127955760209160051b010190565b7f4e487b7100000000000000000000000000000000000000000000000000000000600052603260045260246000fd5b156127cb57565b60846040517f08c379a000000000000000000000000000000000000000000000000000000000815260206004820152602e60248201527f455243313135353a2063616c6c6572206973206e6f7420746f6b656e206f776e60448201527f6572206f7220617070726f7665640000000000000000000000000000000000006064820152fd5b1561285657565b60846040517f08c379a000000000000000000000000000000000000000000000000000000000815260206004820152602560248201527f455243313135353a207472616e7366657220746f20746865207a65726f20616460448201527f64726573730000000000000000000000000000000000000000000000000000006064820152fd5b156128e157565b60846040517f08c379a000000000000000000000000000000000000000000000000000000000815260206004820152602a60248201527f455243313135353a20696e73756666696369656e742062616c616e636520666f60448201527f72207472616e73666572000000000000000000000000000000000000000000006064820152fd5b9190820180921161275257565b1561297957565b60846040517f08c379a000000000000000000000000000000000000000000000000000000000815260206004820152602860248201527f455243313135353a2069647320616e6420616d6f756e7473206c656e6774682060448201527f6d69736d617463680000000000000000000000000000000000000000000000006064820152fd5b9091612a1461263093604084526040840190612633565b916020818403910152612633565b9081602091031261035e57517fffffffff000000000000000000000000000000000000000000000000000000008116810361035e5790565b60009060033d11612a6757565b905060046000803e60005160e01c90565b600060443d10612630576040517ffffffffffffffffffffffffffffffffffffffffffffffffffffffffffffffffc91823d016004833e815167ffffffffffffffff918282113d602484011117612af457818401948551938411612afc573d85010160208487010111612af4575061263092910160200190612493565b949350505050565b50949350505050565b604051906040820182811067ffffffffffffffff821117610d915760405260018252602082016020368237825115612795575290565b15612b4257565b60846040517f08c379a000000000000000000000000000000000000000000000000000000000815260206004820152602360248201527f455243313135353a206275726e2066726f6d20746865207a65726f206164647260448201527f65737300000000000000000000000000000000000000000000000000000000006064820152fd5b15612bcd57565b60846040517f08c379a0000000000000000000000000000000000000000000000000000000008152602060048201526024808201527f455243313135353a206275726e20616d6f756e7420657863656564732062616c60448201527f616e6365000000000000000000000000000000000000000000000000000000006064820152fd5b15612c5757565b60846040517f08c379a000000000000000000000000000000000000000000000000000000000815260206004820152602d60248201527f4b617469626568313135353a207265737472696374656420616363657373207460448201527f6f2074686520466163746f7279000000000000000000000000000000000000006064820152fd5b600090815260209060058252604081209060405190809183549281612cff85612424565b9182825287820196600196898882169182600014612f57575050600114612f19575b50612d2e92500382612493565b805115612e3f576040519485938360045491612d4983612424565b92818116908115612e005750600114612da0575b50505050612d73612630948392519384916124d4565b01037fffffffffffffffffffffffffffffffffffffffffffffffffffffffffffffffe08101835282612493565b909192969450600482527f8a35acfbc15ff81a39ae7d344fd709f28e8600b4aa8c65c6b64bfe7fe36bd19b5b838310612dea5750505061263094612d739185010192943880612d5d565b8054898401890152889650918701918101612dcc565b7fffffffffffffffffffffffffffffffffffffffffffffffffffffffffffffff001688860152505050801515028401019150612d736126303880612d5d565b5060405160025490949350849282612e5683612424565b80865292828116908115612ed85750600114612e7c575b50505061263092500382612493565b600281527f405787fa12a823e0f2b7631cc41b3ba8828b3321ca811111fa75cd3aa3bb5ace95935091905b818310612ec05750506126309350820101388080612e6d565b85548784018501529485019486945091830191612ea7565b9150506126309593507fffffffffffffffffffffffffffffffffffffffffffffffffffffffffffffff0091501682840152151560051b820101388080612e6d565b915050835281868085208686915b858310612f3e575050612d2e935082010138612d21565b8091929450548385880101520191018790868593612f27565b7fffffffffffffffffffffffffffffffffffffffffffffffffffffffffffffff00168a52612d2e95151560051b8501019250389150612d21905056fea2646970667358221220c0b612b65b91253a9022aae1b51a2899696ca53a5e97f95820e165061ca7fcb764736f6c63430008130033",
  "linkReferences": {},
  "deployedLinkReferences": {}
}