{
  "_format": "hh-sol-artifact-1",
  "contractName": "Factory1155",
  "sourceName": "contracts/katibeh1155/Factory1155.sol",
  "abi": [
    {
      "inputs": [
        {
          "internalType": "address",
          "name": "qhAddr",
          "type": "address"
        },
        {
          "internalType": "uint96",
          "name": "_startTime",
          "type": "uint96"
        }
      ],
      "stateMutability": "nonpayable",
      "type": "constructor"
    },
    {
      "anonymous": false,
      "inputs": [
        {
          "indexed": true,
          "internalType": "uint256",
          "name": "tokenHash",
          "type": "uint256"
        },
        {
          "indexed": true,
          "internalType": "uint256",
          "name": "toTokenHash",
          "type": "uint256"
        },
        {
          "indexed": false,
          "internalType": "int256",
          "name": "value",
          "type": "int256"
        }
      ],
      "name": "NewReply",
      "type": "event"
    },
    {
      "anonymous": false,
      "inputs": [
        {
          "indexed": true,
          "internalType": "uint256",
          "name": "tokenHash",
          "type": "uint256"
        },
        {
          "indexed": true,
          "internalType": "address",
          "name": "creator",
          "type": "address"
        },
        {
          "indexed": true,
          "internalType": "bytes",
          "name": "data",
          "type": "bytes"
        }
      ],
      "name": "NewToken",
      "type": "event"
    },
    {
      "anonymous": false,
      "inputs": [
        {
          "indexed": false,
          "internalType": "uint256",
          "name": "tokenHash",
          "type": "uint256"
        },
        {
          "indexed": true,
          "internalType": "bytes32",
          "name": "tag1",
          "type": "bytes32"
        },
        {
          "indexed": true,
          "internalType": "bytes32",
          "name": "tag2",
          "type": "bytes32"
        },
        {
          "indexed": true,
          "internalType": "bytes32",
          "name": "tag3",
          "type": "bytes32"
        }
      ],
      "name": "Tags",
      "type": "event"
    },
    {
      "anonymous": false,
      "inputs": [
        {
          "indexed": true,
          "internalType": "uint256",
          "name": "tokenHash",
          "type": "uint256"
        },
        {
          "indexed": false,
          "internalType": "bytes",
          "name": "data",
          "type": "bytes"
        }
      ],
      "name": "TokenData",
      "type": "event"
    },
    {
      "inputs": [],
      "name": "QH",
      "outputs": [
        {
          "internalType": "contract IQHash",
          "name": "",
          "type": "address"
        }
      ],
      "stateMutability": "view",
      "type": "function"
    },
    {
      "inputs": [
        {
          "internalType": "address",
          "name": "",
          "type": "address"
        }
      ],
      "name": "_collectorScore",
      "outputs": [
        {
          "internalType": "uint256",
          "name": "",
          "type": "uint256"
        }
      ],
      "stateMutability": "view",
      "type": "function"
    },
    {
      "inputs": [
        {
          "internalType": "uint256",
          "name": "",
          "type": "uint256"
        }
      ],
      "name": "_tokenCollection",
      "outputs": [
        {
          "internalType": "address",
          "name": "addr",
          "type": "address"
        },
        {
          "internalType": "uint96",
          "name": "tokenId",
          "type": "uint96"
        }
      ],
      "stateMutability": "view",
      "type": "function"
    },
    {
      "inputs": [
        {
          "internalType": "address",
          "name": "collector",
          "type": "address"
        },
        {
          "components": [
            {
              "internalType": "address",
              "name": "addr",
              "type": "address"
            },
            {
              "internalType": "uint96",
              "name": "tokenId",
              "type": "uint96"
            }
          ],
          "internalType": "struct Factory1155.Collection",
          "name": "tokenInfo",
          "type": "tuple"
        },
        {
          "internalType": "uint256",
          "name": "amount",
          "type": "uint256"
        },
        {
          "internalType": "bytes",
          "name": "data",
          "type": "bytes"
        },
        {
          "components": [
            {
              "internalType": "address payable",
              "name": "recipient",
              "type": "address"
            },
            {
              "internalType": "uint96",
              "name": "percentInBasisPoints",
              "type": "uint96"
            }
          ],
          "internalType": "struct SplitterForOwners.Share[]",
          "name": "dapps",
          "type": "tuple[]"
        }
      ],
      "name": "collectTo",
      "outputs": [],
      "stateMutability": "payable",
      "type": "function"
    },
    {
      "inputs": [
        {
          "internalType": "address",
          "name": "collector",
          "type": "address"
        },
        {
          "internalType": "uint256",
          "name": "tokenHash",
          "type": "uint256"
        },
        {
          "internalType": "uint256",
          "name": "amount",
          "type": "uint256"
        },
        {
          "components": [
            {
              "internalType": "address",
              "name": "creator",
              "type": "address"
            },
            {
              "internalType": "uint96",
              "name": "signTime",
              "type": "uint96"
            },
            {
              "internalType": "string",
              "name": "tokenURI",
              "type": "string"
            },
            {
              "internalType": "bytes",
              "name": "data",
              "type": "bytes"
            },
            {
              "components": [
                {
                  "internalType": "uint256",
                  "name": "tokenHash",
                  "type": "uint256"
                },
                {
                  "internalType": "int256",
                  "name": "value",
                  "type": "int256"
                }
              ],
              "internalType": "struct DataStorage.ToTokenHash[]",
              "name": "toTokenHash",
              "type": "tuple[]"
            },
            {
              "internalType": "bytes32[]",
              "name": "tags",
              "type": "bytes32[]"
            },
            {
              "components": [
                {
                  "internalType": "address payable",
                  "name": "recipient",
                  "type": "address"
                },
                {
                  "internalType": "uint96",
                  "name": "percentInBasisPoints",
                  "type": "uint96"
                }
              ],
              "internalType": "struct SplitterForOwners.Share[]",
              "name": "owners",
              "type": "tuple[]"
            },
            {
              "components": [
                {
                  "internalType": "uint256",
                  "name": "A",
                  "type": "uint256"
                },
                {
                  "internalType": "int256",
                  "name": "B",
                  "type": "int256"
                },
                {
                  "internalType": "uint96",
                  "name": "totalSupply",
                  "type": "uint96"
                },
                {
                  "internalType": "uint96",
                  "name": "expTime",
                  "type": "uint96"
                },
                {
                  "internalType": "uint64",
                  "name": "discount",
                  "type": "uint64"
                },
                {
                  "internalType": "uint96",
                  "name": "initTime",
                  "type": "uint96"
                },
                {
                  "internalType": "uint96",
                  "name": "royalty",
                  "type": "uint96"
                },
                {
                  "internalType": "uint256",
                  "name": "chainId",
                  "type": "uint256"
                }
              ],
              "internalType": "struct DataStorage.Pricing[]",
              "name": "pricing",
              "type": "tuple[]"
            }
          ],
          "internalType": "struct DataStorage.Katibeh",
          "name": "katibeh",
          "type": "tuple"
        },
        {
          "internalType": "bytes",
          "name": "sig",
          "type": "bytes"
        },
        {
          "internalType": "bytes",
          "name": "data",
          "type": "bytes"
        },
        {
          "components": [
            {
              "internalType": "address payable",
              "name": "recipient",
              "type": "address"
            },
            {
              "internalType": "uint96",
              "name": "percentInBasisPoints",
              "type": "uint96"
            }
          ],
          "internalType": "struct SplitterForOwners.Share[]",
          "name": "dapps",
          "type": "tuple[]"
        }
      ],
      "name": "collectTo",
      "outputs": [],
      "stateMutability": "payable",
      "type": "function"
    },
    {
      "inputs": [
        {
          "components": [
            {
              "internalType": "address",
              "name": "addr",
              "type": "address"
            },
            {
              "internalType": "uint96",
              "name": "tokenId",
              "type": "uint96"
            }
          ],
          "internalType": "struct Factory1155.Collection",
          "name": "tokenInfo",
          "type": "tuple"
        },
        {
          "internalType": "uint256",
          "name": "amount",
          "type": "uint256"
        }
      ],
      "name": "feeAndSupply",
      "outputs": [
        {
          "internalType": "uint256",
          "name": "_fee",
          "type": "uint256"
        },
        {
          "internalType": "uint256",
          "name": "supply",
          "type": "uint256"
        }
      ],
      "stateMutability": "view",
      "type": "function"
    },
    {
      "inputs": [
        {
          "internalType": "uint256",
          "name": "tokenHash",
          "type": "uint256"
        },
        {
          "internalType": "uint256",
          "name": "amount",
          "type": "uint256"
        },
        {
          "components": [
            {
              "internalType": "address",
              "name": "creator",
              "type": "address"
            },
            {
              "internalType": "uint96",
              "name": "signTime",
              "type": "uint96"
            },
            {
              "internalType": "string",
              "name": "tokenURI",
              "type": "string"
            },
            {
              "internalType": "bytes",
              "name": "data",
              "type": "bytes"
            },
            {
              "components": [
                {
                  "internalType": "uint256",
                  "name": "tokenHash",
                  "type": "uint256"
                },
                {
                  "internalType": "int256",
                  "name": "value",
                  "type": "int256"
                }
              ],
              "internalType": "struct DataStorage.ToTokenHash[]",
              "name": "toTokenHash",
              "type": "tuple[]"
            },
            {
              "internalType": "bytes32[]",
              "name": "tags",
              "type": "bytes32[]"
            },
            {
              "components": [
                {
                  "internalType": "address payable",
                  "name": "recipient",
                  "type": "address"
                },
                {
                  "internalType": "uint96",
                  "name": "percentInBasisPoints",
                  "type": "uint96"
                }
              ],
              "internalType": "struct SplitterForOwners.Share[]",
              "name": "owners",
              "type": "tuple[]"
            },
            {
              "components": [
                {
                  "internalType": "uint256",
                  "name": "A",
                  "type": "uint256"
                },
                {
                  "internalType": "int256",
                  "name": "B",
                  "type": "int256"
                },
                {
                  "internalType": "uint96",
                  "name": "totalSupply",
                  "type": "uint96"
                },
                {
                  "internalType": "uint96",
                  "name": "expTime",
                  "type": "uint96"
                },
                {
                  "internalType": "uint64",
                  "name": "discount",
                  "type": "uint64"
                },
                {
                  "internalType": "uint96",
                  "name": "initTime",
                  "type": "uint96"
                },
                {
                  "internalType": "uint96",
                  "name": "royalty",
                  "type": "uint96"
                },
                {
                  "internalType": "uint256",
                  "name": "chainId",
                  "type": "uint256"
                }
              ],
              "internalType": "struct DataStorage.Pricing[]",
              "name": "pricing",
              "type": "tuple[]"
            }
          ],
          "internalType": "struct DataStorage.Katibeh",
          "name": "katibeh",
          "type": "tuple"
        }
      ],
      "name": "feeAndSupply",
      "outputs": [
        {
          "internalType": "uint256",
          "name": "_fee",
          "type": "uint256"
        },
        {
          "internalType": "uint256",
          "name": "supply",
          "type": "uint256"
        }
      ],
      "stateMutability": "view",
      "type": "function"
    },
    {
      "inputs": [
        {
          "internalType": "address",
          "name": "collector",
          "type": "address"
        },
        {
          "internalType": "uint256",
          "name": "tokenHash",
          "type": "uint256"
        },
        {
          "internalType": "uint256",
          "name": "amount",
          "type": "uint256"
        },
        {
          "components": [
            {
              "internalType": "address",
              "name": "creator",
              "type": "address"
            },
            {
              "internalType": "uint96",
              "name": "signTime",
              "type": "uint96"
            },
            {
              "internalType": "string",
              "name": "tokenURI",
              "type": "string"
            },
            {
              "internalType": "bytes",
              "name": "data",
              "type": "bytes"
            },
            {
              "components": [
                {
                  "internalType": "uint256",
                  "name": "tokenHash",
                  "type": "uint256"
                },
                {
                  "internalType": "int256",
                  "name": "value",
                  "type": "int256"
                }
              ],
              "internalType": "struct DataStorage.ToTokenHash[]",
              "name": "toTokenHash",
              "type": "tuple[]"
            },
            {
              "internalType": "bytes32[]",
              "name": "tags",
              "type": "bytes32[]"
            },
            {
              "components": [
                {
                  "internalType": "address payable",
                  "name": "recipient",
                  "type": "address"
                },
                {
                  "internalType": "uint96",
                  "name": "percentInBasisPoints",
                  "type": "uint96"
                }
              ],
              "internalType": "struct SplitterForOwners.Share[]",
              "name": "owners",
              "type": "tuple[]"
            },
            {
              "components": [
                {
                  "internalType": "uint256",
                  "name": "A",
                  "type": "uint256"
                },
                {
                  "internalType": "int256",
                  "name": "B",
                  "type": "int256"
                },
                {
                  "internalType": "uint96",
                  "name": "totalSupply",
                  "type": "uint96"
                },
                {
                  "internalType": "uint96",
                  "name": "expTime",
                  "type": "uint96"
                },
                {
                  "internalType": "uint64",
                  "name": "discount",
                  "type": "uint64"
                },
                {
                  "internalType": "uint96",
                  "name": "initTime",
                  "type": "uint96"
                },
                {
                  "internalType": "uint96",
                  "name": "royalty",
                  "type": "uint96"
                },
                {
                  "internalType": "uint256",
                  "name": "chainId",
                  "type": "uint256"
                }
              ],
              "internalType": "struct DataStorage.Pricing[]",
              "name": "pricing",
              "type": "tuple[]"
            }
          ],
          "internalType": "struct DataStorage.Katibeh",
          "name": "katibeh",
          "type": "tuple"
        },
        {
          "internalType": "bytes",
          "name": "sig",
          "type": "bytes"
        },
        {
          "internalType": "bytes",
          "name": "data",
          "type": "bytes"
        },
        {
          "components": [
            {
              "internalType": "address payable",
              "name": "recipient",
              "type": "address"
            },
            {
              "internalType": "uint96",
              "name": "percentInBasisPoints",
              "type": "uint96"
            }
          ],
          "internalType": "struct SplitterForOwners.Share[]",
          "name": "dapps",
          "type": "tuple[]"
        }
      ],
      "name": "firstPrivateCollect",
      "outputs": [],
      "stateMutability": "payable",
      "type": "function"
    },
    {
      "inputs": [
        {
          "internalType": "address",
          "name": "collector",
          "type": "address"
        },
        {
          "internalType": "uint256",
          "name": "tokenHash",
          "type": "uint256"
        },
        {
          "internalType": "uint256",
          "name": "amount",
          "type": "uint256"
        },
        {
          "components": [
            {
              "internalType": "address",
              "name": "creator",
              "type": "address"
            },
            {
              "internalType": "uint96",
              "name": "signTime",
              "type": "uint96"
            },
            {
              "internalType": "string",
              "name": "tokenURI",
              "type": "string"
            },
            {
              "internalType": "bytes",
              "name": "data",
              "type": "bytes"
            },
            {
              "components": [
                {
                  "internalType": "uint256",
                  "name": "tokenHash",
                  "type": "uint256"
                },
                {
                  "internalType": "int256",
                  "name": "value",
                  "type": "int256"
                }
              ],
              "internalType": "struct DataStorage.ToTokenHash[]",
              "name": "toTokenHash",
              "type": "tuple[]"
            },
            {
              "internalType": "bytes32[]",
              "name": "tags",
              "type": "bytes32[]"
            },
            {
              "components": [
                {
                  "internalType": "address payable",
                  "name": "recipient",
                  "type": "address"
                },
                {
                  "internalType": "uint96",
                  "name": "percentInBasisPoints",
                  "type": "uint96"
                }
              ],
              "internalType": "struct SplitterForOwners.Share[]",
              "name": "owners",
              "type": "tuple[]"
            },
            {
              "components": [
                {
                  "internalType": "uint256",
                  "name": "A",
                  "type": "uint256"
                },
                {
                  "internalType": "int256",
                  "name": "B",
                  "type": "int256"
                },
                {
                  "internalType": "uint96",
                  "name": "totalSupply",
                  "type": "uint96"
                },
                {
                  "internalType": "uint96",
                  "name": "expTime",
                  "type": "uint96"
                },
                {
                  "internalType": "uint64",
                  "name": "discount",
                  "type": "uint64"
                },
                {
                  "internalType": "uint96",
                  "name": "initTime",
                  "type": "uint96"
                },
                {
                  "internalType": "uint96",
                  "name": "royalty",
                  "type": "uint96"
                },
                {
                  "internalType": "uint256",
                  "name": "chainId",
                  "type": "uint256"
                }
              ],
              "internalType": "struct DataStorage.Pricing[]",
              "name": "pricing",
              "type": "tuple[]"
            }
          ],
          "internalType": "struct DataStorage.Katibeh",
          "name": "katibeh",
          "type": "tuple"
        },
        {
          "internalType": "bytes",
          "name": "sig",
          "type": "bytes"
        },
        {
          "internalType": "bytes",
          "name": "data",
          "type": "bytes"
        },
        {
          "components": [
            {
              "internalType": "address payable",
              "name": "recipient",
              "type": "address"
            },
            {
              "internalType": "uint96",
              "name": "percentInBasisPoints",
              "type": "uint96"
            }
          ],
          "internalType": "struct SplitterForOwners.Share[]",
          "name": "dapps",
          "type": "tuple[]"
        }
      ],
      "name": "firstPublicCollect",
      "outputs": [],
      "stateMutability": "payable",
      "type": "function"
    },
    {
      "inputs": [
        {
          "internalType": "uint256",
          "name": "value",
          "type": "uint256"
        }
      ],
      "name": "fixedInterest",
      "outputs": [
        {
          "internalType": "uint256",
          "name": "amount",
          "type": "uint256"
        }
      ],
      "stateMutability": "view",
      "type": "function"
    },
    {
      "inputs": [],
      "name": "implementation",
      "outputs": [
        {
          "internalType": "contract Katibeh1155",
          "name": "",
          "type": "address"
        }
      ],
      "stateMutability": "view",
      "type": "function"
    },
    {
      "inputs": [
        {
          "internalType": "uint256",
          "name": "x",
          "type": "uint256"
        },
        {
          "internalType": "uint256",
          "name": "y",
          "type": "uint256"
        }
      ],
      "name": "pow",
      "outputs": [
        {
          "internalType": "uint256",
          "name": "result",
          "type": "uint256"
        }
      ],
      "stateMutability": "pure",
      "type": "function"
    },
    {
      "inputs": [
        {
          "internalType": "uint256",
          "name": "tokenHash",
          "type": "uint256"
        },
        {
          "internalType": "address",
          "name": "collector",
          "type": "address"
        },
        {
          "internalType": "uint256",
          "name": "amount",
          "type": "uint256"
        },
        {
          "internalType": "bytes",
          "name": "data",
          "type": "bytes"
        },
        {
          "components": [
            {
              "internalType": "address payable",
              "name": "recipient",
              "type": "address"
            },
            {
              "internalType": "uint96",
              "name": "percentInBasisPoints",
              "type": "uint96"
            }
          ],
          "internalType": "struct SplitterForOwners.Share[]",
          "name": "dapps",
          "type": "tuple[]"
        }
      ],
      "name": "privateCollect",
      "outputs": [],
      "stateMutability": "payable",
      "type": "function"
    },
    {
      "inputs": [
        {
          "components": [
            {
              "internalType": "address",
              "name": "addr",
              "type": "address"
            },
            {
              "internalType": "uint96",
              "name": "tokenId",
              "type": "uint96"
            }
          ],
          "internalType": "struct Factory1155.Collection",
          "name": "tokenInfo",
          "type": "tuple"
        },
        {
          "internalType": "address",
          "name": "collector",
          "type": "address"
        },
        {
          "internalType": "uint256",
          "name": "amount",
          "type": "uint256"
        },
        {
          "internalType": "bytes",
          "name": "data",
          "type": "bytes"
        },
        {
          "components": [
            {
              "internalType": "address payable",
              "name": "recipient",
              "type": "address"
            },
            {
              "internalType": "uint96",
              "name": "percentInBasisPoints",
              "type": "uint96"
            }
          ],
          "internalType": "struct SplitterForOwners.Share[]",
          "name": "dapps",
          "type": "tuple[]"
        }
      ],
      "name": "privateCollect",
      "outputs": [],
      "stateMutability": "payable",
      "type": "function"
    },
    {
      "inputs": [
        {
          "components": [
            {
              "internalType": "address",
              "name": "addr",
              "type": "address"
            },
            {
              "internalType": "uint96",
              "name": "tokenId",
              "type": "uint96"
            }
          ],
          "internalType": "struct Factory1155.Collection",
          "name": "tokenInfo",
          "type": "tuple"
        },
        {
          "internalType": "address",
          "name": "collector",
          "type": "address"
        },
        {
          "internalType": "uint256",
          "name": "amount",
          "type": "uint256"
        },
        {
          "internalType": "bytes",
          "name": "data",
          "type": "bytes"
        },
        {
          "components": [
            {
              "internalType": "address payable",
              "name": "recipient",
              "type": "address"
            },
            {
              "internalType": "uint96",
              "name": "percentInBasisPoints",
              "type": "uint96"
            }
          ],
          "internalType": "struct SplitterForOwners.Share[]",
          "name": "dapps",
          "type": "tuple[]"
        }
      ],
      "name": "publicCollect",
      "outputs": [],
      "stateMutability": "payable",
      "type": "function"
    },
    {
      "inputs": [
        {
          "internalType": "uint256",
          "name": "supply",
          "type": "uint256"
        },
        {
          "internalType": "uint256",
          "name": "amount",
          "type": "uint256"
        },
        {
          "internalType": "uint256",
          "name": "initialSupply",
          "type": "uint256"
        }
      ],
      "name": "publicFee",
      "outputs": [
        {
          "internalType": "uint256",
          "name": "result",
          "type": "uint256"
        }
      ],
      "stateMutability": "pure",
      "type": "function"
    },
    {
      "inputs": [
        {
          "internalType": "address payable",
          "name": "newAddr",
          "type": "address"
        }
      ],
      "name": "setReceiver1",
      "outputs": [],
      "stateMutability": "nonpayable",
      "type": "function"
    },
    {
      "inputs": [],
      "name": "split",
      "outputs": [
        {
          "internalType": "contract SplitterForOwners",
          "name": "",
          "type": "address"
        }
      ],
      "stateMutability": "view",
      "type": "function"
    },
    {
      "inputs": [],
      "name": "startTime",
      "outputs": [
        {
          "internalType": "uint96",
          "name": "",
          "type": "uint96"
        }
      ],
      "stateMutability": "view",
      "type": "function"
    },
    {
      "inputs": [
        {
          "internalType": "address",
          "name": "",
          "type": "address"
        },
        {
          "internalType": "uint96",
          "name": "",
          "type": "uint96"
        }
      ],
      "name": "tokenPricing",
      "outputs": [
        {
          "internalType": "uint256",
          "name": "A",
          "type": "uint256"
        },
        {
          "internalType": "int256",
          "name": "B",
          "type": "int256"
        },
        {
          "internalType": "uint96",
          "name": "totalSupply",
          "type": "uint96"
        },
        {
          "internalType": "uint96",
          "name": "expTime",
          "type": "uint96"
        },
        {
          "internalType": "uint64",
          "name": "discount",
          "type": "uint64"
        },
        {
          "internalType": "uint96",
          "name": "initTime",
          "type": "uint96"
        },
        {
          "internalType": "uint96",
          "name": "royalty",
          "type": "uint96"
        },
        {
          "internalType": "uint256",
          "name": "chainId",
          "type": "uint256"
        }
      ],
      "stateMutability": "view",
      "type": "function"
    },
    {
      "inputs": [],
      "name": "totalValueLocked",
      "outputs": [
        {
          "internalType": "uint256",
          "name": "",
          "type": "uint256"
        }
      ],
      "stateMutability": "view",
      "type": "function"
    },
    {
      "inputs": [
        {
          "internalType": "uint256",
          "name": "tokenHash",
          "type": "uint256"
        }
      ],
      "name": "uri",
      "outputs": [
        {
          "internalType": "string",
          "name": "",
          "type": "string"
        }
      ],
      "stateMutability": "view",
      "type": "function"
    },
    {
      "inputs": [
        {
          "internalType": "address",
          "name": "",
          "type": "address"
        }
      ],
      "name": "userBalance",
      "outputs": [
        {
          "internalType": "uint256",
          "name": "",
          "type": "uint256"
        }
      ],
      "stateMutability": "view",
      "type": "function"
    },
    {
      "inputs": [],
      "name": "withdraw",
      "outputs": [],
      "stateMutability": "nonpayable",
      "type": "function"
    },
    {
      "inputs": [
        {
          "components": [
            {
              "internalType": "address",
              "name": "addr",
              "type": "address"
            },
            {
              "internalType": "uint96",
              "name": "tokenId",
              "type": "uint96"
            }
          ],
          "internalType": "struct Factory1155.Collection",
          "name": "tokenInfo",
          "type": "tuple"
        }
      ],
      "name": "withdraw",
      "outputs": [],
      "stateMutability": "nonpayable",
      "type": "function"
    }
  ],
  "bytecode": "0x60a034620001655762008960906001600160401b0390601f38849003908101601f191682019083821183831017620001515780839160409687948552833981010312620001655780516001600160a01b038082169390929091849003620001655760200151906001600160601b03821682036200016557845190611bf7918281019281841083851117620001515762006d6982393083526020815f9403019083f09384156200014757825494166001600160a01b0319948516178255855190612cd580830191838310908311176200013357908291620040948339039082f09081156200012857506080523382600154161760015560a01b161760095551613f2a90816200016a8239608051818181610ab501528181612d4f01528181612e9d01526130270152f35b8551903d90823e3d90fd5b634e487b7160e01b84526041600452602484fd5b86513d84823e3d90fd5b634e487b7160e01b5f52604160045260245ffd5b5f80fdfe60806040526004361015610011575f80fd5b5f3560e01c80630103c92b146101a457806303c131481461019f57806308e7c4d01461019a5780630e89341c14610195578063122a89061461019057806324500de21461018b5780632e4c697f1461018657806331610416146101815780633ccfd60b1461017c57806348e3fa61146101775780635b4346a8146101725780635c60da1b1461016d5780635fd099e61461016857806378e97925146101635780638582ffdb1461015e578063883e71d3146101595780639305cfde14610154578063968a577b1461014f5780639c9bead41461014a5780639d58e53f14610145578063a0490ec914610140578063bae558da1461013b578063d4b1173314610136578063ec18154e146101315763f76541761461012c575f80fd5b610f44565b610f27565b610f0f565b610eeb565b610ecd565b610e09565b610d3b565b610d00565b610ce2565b610cca565b610bcc565b610b1d565b610ae4565b610aa0565b610a7a565b6109e6565b6109b4565b610840565b6107bb565b61060b565b610570565b610345565b6102c3565b610213565b6101d8565b6001600160a01b038116036101ba57565b5f80fd5b600435906101cb826101a9565b565b35906101cb826101a9565b346101ba5760203660031901126101ba576004356101f5816101a9565b60018060a01b03165f526003602052602060405f2054604051908152f35b346101ba5760203660031901126101ba57600435610230816101a9565b600154906001600160a01b0390818316330361025a576001600160a01b0319909216911617600155005b60405162461bcd60e51b815260206004820152603160248201527f4665654d616e616765723a204f6e6c79207265636569766572312063616e206360448201527068616e676520697473206164647265737360781b6064820152608490fd5b5f9103126101ba57565b346101ba575f3660031901126101ba576009546040516001600160a01b039091168152602090f35b5f5b8381106102fc5750505f910152565b81810151838201526020016102ed565b90602091610325815180928185528580860191016102eb565b601f01601f1916010190565b90602061034292818152019061030c565b90565b346101ba5760203660031901126101ba576004355f5260056020526103b75f6020604082206040519061037782610417565b546001600160a01b03811680835260a09190911c929091018290526040516303a24d0760e21b815260048101929092529092839190829081906024820190565b03915afa80156103fe576103d9915f916103dd575b5060405191829182610331565b0390f35b6103f8913d8091833e6103f08183610481565b810190611428565b5f6103cc565b610f9f565b634e487b7160e01b5f52604160045260245ffd5b604081019081106001600160401b0382111761043257604052565b610403565b61010081019081106001600160401b0382111761043257604052565b6001600160401b03811161043257604052565b606081019081106001600160401b0382111761043257604052565b90601f801991011681019081106001600160401b0382111761043257604052565b604051906101cb82610437565b604051906101cb82610417565b6001600160601b038116036101ba57565b35906101cb826104bc565b60409060031901126101ba57604051906104f182610417565b816004356104fe816101a9565b815260206024359161050f836104bc565b0152565b9181601f840112156101ba578235916001600160401b0383116101ba57602083818601950101116101ba57565b9181601f840112156101ba578235916001600160401b0383116101ba576020808501948460061b0101116101ba57565b60c03660031901126101ba57600435610588816101a9565b60403660231901126101ba57604051906105a182610417565b6024356105ad816101a9565b82526044356105bb816104bc565b60208301526001600160401b03916084358381116101ba576105e1903690600401610513565b9060a4359485116101ba576105fd610609953690600401610540565b9490936064359161150f565b005b346101ba573660031901606081126101ba576040136101ba576106775f604435610643610637806113fc565b6001600160a01b031690565b91602061064e611412565b60405163bd85b03960e01b81526001600160601b03909116600482015294859081906024820190565b0381865afa9384156103fe57819461078b575b506040516306fdde0360e01b8152908082600481875afa80156103fe576106d592826106bd9392610770575b5050611486565b5f1a60f81b6001600160f81b031916602960fa1b1490565b15610730576107176106fa61071f9360018060a01b03165f52600760205260405f2090565b610702611412565b6001600160601b03165f5260205260405f2090565b549083613a50565b604080519182526020820192909252f35b61076b915061076461075f6106fa6107466113fc565b6001600160a01b03165f90815260046020526040902090565b6114a8565b9083613cca565b61071f565b61078492503d8091833e6103f08183610481565b5f806106b6565b6107ad91945060203d81116107b4575b6107a58183610481565b810190610f90565b925f61068a565b503d61079b565b346101ba5760403660031901126101ba5760043560243560018281831615610822575b91811c92835b6107f357602083604051908152f35b806107fd91613965565b9283828216610811575b50811c92836107e4565b61081b9193613965565b9183610807565b50670de0b6b3a76400006107de565b90816101009103126101ba5790565b346101ba5760603660031901126101ba576024356044356001600160401b0381116101ba57610873903690600401610831565b5f918261089261088d6004355f52600560205260405f2090565b610f6b565b805190916001600160a01b039182168181610933575b50506108dc6108c36108bd60a0880188610faa565b90610ff3565b355f1a60f81b6001600160f81b031916602960fa1b1490565b1561091a5761071f9450602061090b6107179493610702931660018060a01b03165f52600760205260405f2090565b9201516001600160601b031690565b50505061076461092e61076b933690611313565b6137c7565b9150955061097c602087610950828701516001600160601b031690565b60405163bd85b03960e01b81526001600160601b03909116600482015292839190829081906024820190565b03915afa9182156103fe5791610996575b50945f806108a8565b6109ae915060203d81116107b4576107a58183610481565b5f61098d565b346101ba575f806003193601126109e35733815260036020526109df6040822082815491553361374d565b5080f35b80fd5b60a03660031901126101ba576024356109fe816101a9565b6001600160401b03906064358281116101ba57610a1f903690600401610513565b6084929192359384116101ba57610a3d610609943690600401610540565b9390926004355f52600560205260405f209060405191610a5c83610417565b546001600160a01b038116835260a01c6020830152604435916120e0565b346101ba5760203660031901126101ba576020610a98600435613294565b604051908152f35b346101ba575f3660031901126101ba576040517f00000000000000000000000000000000000000000000000000000000000000006001600160a01b03168152602090f35b346101ba5760203660031901126101ba576004355f5260056020526040805f205481519060018060a01b038116825260a01c6020820152f35b346101ba575f3660031901126101ba57602060095460a01c604051908152f35b9060e06003198301126101ba57610b526101be565b9160243591604435916001600160401b03916064358381116101ba5782610b7b91600401610831565b926084358181116101ba5783610b9391600401610513565b9390939260a4358381116101ba5782610bae91600401610513565b9390939260c4359182116101ba57610bc891600401610540565b9091565b610bd536610b3d565b97805f98929897939796949652600560205260405f2060405190610bf882610417565b546001600160a01b03811680835260a09190911c6020830152610c595750610c2360a0840184610faa565b15610c5457355f1a60f81b6001600160f81b031916602960fa1b03610c4b5761060999611706565b61060999611ae8565b610fdf565b9350509250506106099661150f565b9060c06003198301126101ba57610c7e826104d8565b91604435610c8b816101a9565b91606435916001600160401b03916084358381116101ba5782610cb091600401610513565b9390939260a4359182116101ba57610bc891600401610540565b610609610cd636610c68565b959490949391936120e0565b610609610cee36610b3d565b98979097969196959295949394611ae8565b346101ba5760203660031901126101ba57600435610d1d816101a9565b60018060a01b03165f526006602052602060405f2054604051908152f35b346101ba5760403660031901126101ba57610da26040610d5a366104d8565b8051610d71906020906001600160a01b031661090b565b825163152a902d60e11b81526001600160601b0390911660048201525f602482015292839190829081906044820190565b03915afa80156103fe57610609915f91610dda575b506001600160a01b0381165f90815260036020526040812080549190559061374d565b610dfb915060403d8111610e02575b610df38183610481565b810190611dea565b505f610db7565b503d610de9565b346101ba5760403660031901126101ba57610e5f600435610e29816101a9565b60243590610e36826104bc565b60018060a01b03165f52600460205260405f20906001600160601b03165f5260205260405f2090565b80546001820154600283015460038401546004909401546040805194855260208501939093526001600160601b0380831693850193909352606082811c84168186015260c092831c608086015283861660a08601529490941c9091169082015260e081019190915261010090f35b610609610ed936610b3d565b98979097969196959295949394611706565b346101ba5760603660031901126101ba576020610a98604435602435600435613a50565b610609610f1b36610c68565b95949094939193611e09565b346101ba575f3660031901126101ba576020600254604051908152f35b346101ba575f3660031901126101ba575f546040516001600160a01b039091168152602090f35b90604051610f7881610417565b91546001600160a01b038116835260a01c6020830152565b908160209103126101ba575190565b6040513d5f823e3d90fd5b903590601e19813603018212156101ba57018035906001600160401b0382116101ba57602001918160051b360383136101ba57565b634e487b7160e01b5f52603260045260245ffd5b9015610c545790565b9060011015610c545760200190565b9060021015610c545760400190565b6001600160401b03811161043257601f01601f191660200190565b9291926110418261101a565b9161104f6040519384610481565b8294818452818301116101ba578281602093845f960137010152565b9080601f830112156101ba5781602061034293359101611035565b6001600160401b0381116104325760051b60200190565b9080601f830112156101ba5781359160206110b784611086565b936040936110c785519687610481565b818652828087019260061b850101938185116101ba578301915b8483106110f15750505050505090565b85838303126101ba57838691825161110881610417565b8535815282860135838201528152019201916110e1565b9080601f830112156101ba57602090823561113981611086565b936111476040519586610481565b818552838086019260051b8201019283116101ba578301905b82821061116e575050505090565b81358152908301908301611160565b92919261118982611086565b60409261119884519283610481565b819581835260208093019160061b8401938185116101ba57915b8483106111c157505050505050565b85838303126101ba5783869182516111d881610417565b85356111e3816101a9565b8152828601356111f2816104bc565b838201528152019201916111b2565b9080601f830112156101ba578160206103429335910161117d565b35906001600160401b03821682036101ba57565b9080601f830112156101ba57813591602061124a84611086565b9360409361125a85519687610481565b818652828087019260081b850101938185116101ba578301915b8483106112845750505050505090565b610100838303126101ba578361010091875161129f81610437565b8535815282860135838201526112b68987016104cd565b8982015260606112c78188016104cd565b9082015260806112d881880161121c565b9082015260a06112e98188016104cd565b9082015260c06112fa8188016104cd565b9082015260e08087013590820152815201920191611274565b919091610100818403126101ba576113296104a2565b92611333826101cd565b8452611341602083016104cd565b60208501526001600160401b0360408301358181116101ba578261136691850161106b565b604086015260608301358181116101ba578261138391850161106b565b606086015260808301358181116101ba57826113a091850161109d565b608086015260a08301358181116101ba57826113bd91850161111f565b60a086015260c08301358181116101ba57826113da918501611201565b60c086015260e08301359081116101ba576113f59201611230565b60e0830152565b600435610342816101a9565b35610342816101a9565b602435610342816104bc565b35610342816104bc565b6020818303126101ba578051906001600160401b0382116101ba570181601f820112156101ba57805161145a8161101a565b926114686040519485610481565b818452602082840101116101ba5761034291602080850191016102eb565b60208151910151906020811061149a575090565b5f199060200360031b1b1690565b906040516114b581610437565b60e060048294805484526001810154602085015260028101546001600160601b03908181166040870152818160601c16606087015260c01c6080860152600382015481811660a087015260601c1660c08501520154910152565b81516040516306fdde0360e01b815292979695949392905f90829060049082906001600160a01b03165afa9081156103fe57611556916106bd915f9161156d575b50611486565b15611564576101cb96611e09565b6101cb966120e0565b611580913d8091833e6103f08183610481565b5f611550565b1561158d57565b60405162461bcd60e51b815260206004820152602960248201527f466163746f7279313135353a204f6e6c79207075626c696320636f6c6c6563746044820152681030b63637bbb2b21760b91b6064820152608490fd5b634e487b7160e01b5f52601160045260245ffd5b6001600160601b03908116610e0f19019190821161161257565b6115e4565b6001600160601b03918216908216039190821161161257565b908160209103126101ba5751610342816104bc565b903590601e19813603018212156101ba57018035906001600160401b0382116101ba57602001918160061b360383136101ba57565b906202a3006001600160601b038093160191821161161257565b903590601e19813603018212156101ba57018035906001600160401b0382116101ba576020019181360383136101ba57565b908060209392818452848401375f828201840152601f01601f1916010190565b6040906001600160601b03610342959316815281602082015201916116c6565b9893946117359198939697929561172e6117296108c36108bd60a08c018c610faa565b611586565b878a612445565b61173e85612cba565b6001600160a01b038116966020878101936117949161176b61175f8761141e565b60095460a01c90611617565b604051631d24662960e31b81526001600160601b03909116600482015292839081906024820190565b03818d5afa9081156103fe578994898c87955f95611a07575b50846118556118496118446117e96117dc6117e48c6117d460c06118c49d9e9f0182611645565b939091611408565b92369161117d565b61338c565b9c61183f61183961182e611827886118118b60018060a01b03165f52600760205260405f2090565b906001600160601b03165f5260205260405f2090565b548a6139dc565b9e6080810190611645565b90612a1f565b61141e565b61167a565b6001600160601b031690565b42116119e1575b50505061187961186a6104af565b6001600160a01b039092168252565b6001600160601b03841660208201525b61189b8d5f52600560205260405f2090565b815160209092015160a01b6001600160a01b0319166001600160a01b0392909216919091179055565b6118d160408a018a611694565b908b3b156101ba576118fe918c5f9283604051809681958294634312207160e11b84528b600485016116e6565b03925af180156103fe576119ce575b50893b156101ba57604051635944c75360e01b81526001600160601b03831660048201526001600160a01b03861660248201526101f46044820152975f89606481838f5af19a8b156103fe576101cb9d6001600160601b036119988f976119af9f8f6119a59f9a6119a09b611987936119b5575b50613d63565b6119908a613294565b963691611035565b95169161316e565b61348f565b6060810190611694565b906132d4565b806119c26119c892610453565b806102b9565b5f611981565b806119c26119db92610453565b5f61190d565b6118116119fe9260018060a01b03165f52600760205260405f2090565b55898c8561185c565b6118c4949550956118556118496118446117e96117dc611a406117e49c60203d8111611a4e575b611a388183610481565b810190611630565b9a99505050505050956117ad565b503d611a2e565b15611a5c57565b60405162461bcd60e51b815260206004820152602a60248201527f466163746f7279313135353a204f6e6c79207072697661746520636f6c6c65636044820152693a1030b63637bbb2b21760b11b6064820152608490fd5b90926001600160601b03608093610342979560018060a01b03168452166020830152604082015281606082015201916116c6565b9194611b1591989396999461172e611b10611b0c6108c36108bd60a08d018d610faa565b1590565b611a55565b611b256118396080870187611645565b611b3785611b3281611408565b612e09565b956001600160a01b03871690611b7f6020611b5661175f8a830161141e565b604051631d24662960e31b81526001600160601b03909116600482015291829081906024820190565b0381865afa9081156103fe575f91611d4f575b50611bb16117e4611ba660c08b018b611645565b91906117dc8c611408565b93611be7611bc261092e368c611313565b9a611bce61186a6104af565b6001600160601b0384166020820152611889818d612af1565b611bf460408a018a611694565b90853b156101ba57604051634312207160e11b8152915f9183918291611c1f919088600485016116e6565b038183895af180156103fe57611d3c575b5060c08a01516001600160601b0316843b156101ba57604051635944c75360e01b81526001600160601b0384811660048301526001600160a01b03881660248301529190911660448201525f8160648183895af180156103fe57611d29575b50611c9a898c613d63565b833b156101ba5787926040519c8d94859463731133e960e01b86526004860194611cc395611ab4565b03815a5f948591f19586156103fe57611d10611d046080611cf5846119a5996101cb9e6119af9d611d16575b50613c05565b9301516001600160401b031690565b6001600160401b031690565b90613628565b806119c2611d2392610453565b5f611cef565b806119c2611d3692610453565b5f611c8f565b806119c2611d4992610453565b5f611c30565b611d67915060203d8111611a4e57611a388183610481565b5f611b92565b15611d7457565b60405162461bcd60e51b815260206004820152602b60248201527f546f6b656e206973206e6f7420617661696c61626c6520696e207075626c696360448201526a1031b7b63632b1ba34b7b760a91b6064820152608490fd5b906202a300820180921161161257565b9190820180921161161257565b91908260409103126101ba5760208251611e03816101a9565b92015190565b8051939695949293919291611e26906001600160a01b0316610637565b93602060018060a01b0386169201611e77611e4882516001600160601b031690565b6040805163bd85b03960e01b81526001600160601b0390921660048301529a9091602090839081906024820190565b0381885afa9182156103fe575f9261204d575b508a516306fdde0360e01b8152955f87600481895afa9485156103fe57611fa999611998996001600160601b038f9a8785611f47611f378e611f6b9c611f789f8f90611ee66106bd611eeb92611f4e9b5f9161156d5750611486565b611d6d565b611f0f611f0a611f0561184984516001600160601b031690565b61206d565b611dcd565b42118061201a575b611fe6575b50506001600160a01b03165f90815260076020526040902090565b8c516001600160601b0316610702565b5491613a50565b9b8c96611990611f658b516001600160601b031690565b98613294565b516001600160601b031690565b825163152a902d60e11b81526001600160601b0390911660048201525f602482015293849190829081906044820190565b03915afa9182156103fe576101cb955f93611fc6575b505061348f565b611fdd929350803d10610e0257610df38183610481565b50905f80611fbf565b6001600160a01b0383165f908152600760205260409020905161201291906001600160601b0316610702565b55848e611f1c565b506001600160a01b0383165f9081526007602052604090206120469082516001600160601b0316610702565b5415611f17565b61206691925060203d81116107b4576107a58183610481565b905f611e8a565b60095460a01c81018091116116125790565b1561208657565b60405162461bcd60e51b815260206004820152602c60248201527f546f6b656e206973206e6f7420617661696c61626c6520696e2070726976617460448201526b329031b7b63632b1ba34b7b760a11b6064820152608490fd5b80516001600160a01b03165f8181526004602090815260409091209201805193989796949193909261211f9161075f91906001600160601b0316610702565b926040958651996306fdde0360e01b8b525f9a8b81600481875afa9081156103fe57611b0c6106bd612163938f938461215e95926122b2575050611486565b61207f565b6121a1602061217987516001600160601b031690565b8a5163bd85b03960e01b81526001600160601b03909116600482015291829081906024820190565b0381875afa80156103fe578588916121c0938f91612294575b50613cca565b966121d286516001600160601b031690565b92843b15612290578c9392916121fc918b51978895869563731133e960e01b875260048701611ab4565b038183855af180156103fe57612225938793610d719261227d575b50516001600160601b031690565b03915afa9384156103fe576101cb9794612252575b505060800151611d10906001600160401b0316611d04565b611d10929450612274611d049282608093903d10610e0257610df38183610481565b5094925061223a565b806119c261228a92610453565b5f612217565b8c80fd5b6122ac915060203d81116107b4576107a58183610481565b5f6121ba565b6122c692503d8091833e6103f08183610481565b8f806106b6565b156122d457565b60405162461bcd60e51b815260206004820152602a60248201527f466163746f7279313135353a2054686973206973206e6f7420746865206669726044820152691cdd0818dbdb1b1958dd60b21b6064820152608490fd5b1561233357565b60405162461bcd60e51b815260206004820152601e60248201527f466163746f7279313135353a20496e76616c6964207369676e617475726500006044820152606490fd5b908160209103126101ba575180151581036101ba5790565b9392916020916123a8916040875260408701916116c6565b930152565b156123b457565b60405162461bcd60e51b815260206004820152601b60248201527f466163746f7279313135353a2077726f6e6720746f6b656e20696400000000006044820152606490fd5b1561240057565b60405162461bcd60e51b815260206004820152601b60248201527f466163746f7279313135353a2077726f6e67207369676e54696d6500000000006044820152606490fd5b6020906124c79460018060a01b03906124818261247a61246d865f52600560205260405f2090565b546001600160a01b031690565b16156122cd565b6124a66124a161249087611408565b61249988612856565b90848a612562565b61232c565b600954956040519788948593849363096c872360e01b855260048501612390565b039186165afa9081156103fe576124eb6020926101cb955f91612535575b506123ad565b01906124fe6124f98361141e565b6115f8565b426001600160601b0391821610928361251a575b5050506123f9565b6125269192935061141e565b9160a01c9116115f8080612512565b6125559150843d811161255b575b61254d8183610481565b810190612378565b5f6124e5565b503d612543565b5f916125b560809260209596604051878101917f19457468657265756d205369676e6564204d6573736167653a0a3332000000008352603c820152603c81526125aa81610466565b519020923691611035565b8481015160606040830151920151604051938452851a868401526040830152606082015282805260015afa156103fe575f516001600160a01b0390811691161490565b9035601e19823603018112156101ba5701602081359101916001600160401b0382116101ba5781360383136101ba57565b9035601e19823603018112156101ba5701602081359101916001600160401b0382116101ba578160061b360383136101ba57565b9190808252602080920192915f905b82821061267a575050505090565b8335855283810135858201526040948501949093019260019091019061266c565b9035601e19823603018112156101ba5701602081359101916001600160401b0382116101ba578160051b360383136101ba57565b81835290916001600160fb1b0383116101ba5760209260051b809284830137010190565b9190808252602080920192915f905b828210612710575050505090565b909192936001908535612722816101a9565b828060a01b031681526001600160601b0383870135612740816104bc565b16818401526040908101950193920190612702565b9035601e19823603018112156101ba5701602081359101916001600160401b0382116101ba578160081b360383136101ba57565b9190808252602080920192915f905b8282106127a6575050505090565b90919293600190853581528286013583820152604080870135906127c9826104bc565b6001600160601b0380921690830152606090818801356127e8816104bc565b169082015261280c60806127fd81890161121c565b6001600160401b031690830152565b61282b60a061281c8189016104cd565b6001600160601b031690830152565b61283b60c061281c8189016104cd565b60e08681013590820152610100908101950193920190612798565b60405161297d8161296f60208201946020865261288660408401612879836101cd565b6001600160a01b03169052565b6128a5612895602083016104cd565b6001600160601b03166060850152565b6128d261295f6129546128bb60408501856125f8565b9390610100948560808a01526101408901916116c6565b9261293761291a6128fd6128e960608901896125f8565b603f198c8a03810160a08e015298916116c6565b61290a6080890189612629565b90888c84030160c08d015261265d565b61292760a088018861269b565b90878b84030160e08c01526126cf565b9061294560c0870187612629565b91868a850301908a01526126f3565b9260e0810190612755565b9185840301610120860152612789565b03601f198101835282610481565b51902090565b5f1981146116125760010190565b9190811015610c545760061b0190565b156129a857565b60405162461bcd60e51b815260206004820152604360248201527f466163746f7279313135353a20746f20746f6b656e206861736820686173206e60448201527f6f74206265656e206d696e746564206f6e207468652063757272656e7420636860648201526230b4b760e91b608482015260a490fd5b905f805b828110612a305750505050565b6001600160a01b03612a5861246d612a49848789612991565b355f52600560205260405f2090565b16908115159182612a7b575b50612a71612a76926129a1565b612983565b612a23565b9150612ab0612a8b828688612991565b35604051809463bd85b03960e01b825281806020958695600483019190602083019252565b03915afa80156103fe57612a7693612a71928692612ad4575b505015159250612a64565b612aea9250803d106107b4576107a58183610481565b5f80612ac9565b6001600160601b0360a0820151164210612be557612bc56080612b2984610702602061090b6107466101cb995160018060a01b031690565b928051845560208101516001850155612b706002612b5160408401516001600160601b031690565b95019485906001600160601b03166001600160601b0319825416179055565b612bb7612b8760608301516001600160601b031690565b85546bffffffffffffffffffffffff60601b191660609190911b6bffffffffffffffffffffffff60601b16178555565b01516001600160401b031690565b81546001600160c01b031660c09190911b6001600160c01b031916179055565b60405162461bcd60e51b815260206004820152603060248201527f466163746f7279313135353a20746f6b656e2073616c652074696d652068617360448201526f081b9bdd081cdd185c9d1959081e595d60821b6064820152608490fd5b60405190612c5082610417565b600782526609682a892848a960cb1b6020830152565b60405190612c7382610417565b600282526130a960f21b6020830152565b6001600160a01b039091168152606060208201819052610342939192612cac9184019061030c565b91604081840391015261030c565b9060a08201612cd5612ccf6108bd8386610faa565b35612fe2565b926001600160a01b0391828516853b15612cf0575b50505050565b612db4612da894612d74612d0386611408565b91612d4c612d146108bd888a610faa565b60405160609590951b6001600160601b0319166020860152356034808601919091528452601f1993612d47605482610481565b611486565b907f000000000000000000000000000000000000000000000000000000000000000016612f49565b50612d936108bd612d83612c66565b95612d8d88611408565b97610faa565b35604051968791602083019190602083019252565b03908101865285610481565b803b156101ba57612ddf935f80946040519687958694859363b2b45df560e01b855260048501612c84565b03925af180156103fe57612df6575b808080612cea565b806119c2612e0392610453565b5f612dee565b60a082019291612e26612e1f6108bd8684610faa565b3583613084565b936001600160a01b0380861690863b15612e42575b5050505050565b612da894612edf91612e5386611408565b91612ec2612e9a612e676108bd898b610faa565b60405160609690961b6001600160601b0319166020870152356034808701919091528552601f1994612d47605482610481565b837f000000000000000000000000000000000000000000000000000000000000000016612f49565b5016612f3557612d936108bd612d83612c66565b612d8d88611408565b803b156101ba57612f0a935f80946040519687958694859363b2b45df560e01b855260048501612c84565b03925af180156103fe57612f22575b80808080612e3b565b806119c2612f2f92610453565b5f612f19565b612d936108bd612f43612c43565b95612ed6565b6e5af43d82803e903d91602b57fd5bf390763d602d80600a3d3981f3363d3d373d3d3d363d7300000062ffffff8260881c16175f5260781b17602052603760095ff5906001600160a01b03821615612f9d57565b60405162461bcd60e51b815260206004820152601760248201527f455243313136373a2063726561746532206661696c65640000000000000000006044820152606490fd5b6043613006605592604051905f6020830152603482015260348152612d4781610466565b6040513060388201526f5af43d82803e903d91602b57fd5bf3ff60248201527f00000000000000000000000000000000000000000000000000000000000000006001600160a01b03166014820152733d602d80600a3d3981f3363d3d373d3d3d363d73815260588101919091526037600c8201206078820152012090565b60405160609190911b6001600160601b0319166020820152603481019190915260559060439061300690612d47816054810161296f565b604051906130c882610466565b600282526040366020840137565b805115610c545760200190565b8051821015610c545760209160051b010190565b9081518082526020808093019301915f5b828110613116575050505090565b835185529381019392810192600101613108565b9261315261034295936131609360018060a01b031686526080602087015260808601906130f7565b9084820360408601526130f7565b91606081840391015261030c565b9093919261317a6130bb565b926131836130bb565b94845160011015610c54575f604086015261319d856130d6565b52845160011015610c545760408501526131b6846130d6565b526001600160a01b031690813b156101ba575f80946131eb60405197889687958694630fbfeffd60e11b86526004860161312a565b03925af180156103fe576131fc5750565b806119c26101cb92610453565b9190820391821161161257565b90605f820291808304605f149015171561161257565b906402540be4009182810292818404149015171561161257565b90670de0b6b3a76400009182810292818404149015171561161257565b8181029291811591840414171561161257565b8115613280570490565b634e487b7160e01b5f52601260045260245ffd5b60095460a01c420390428211611612576301e13380808301809311611612576305f5e1009283810293818504149015171561161257610342920490613276565b816132de57505050565b7fe3efb4090b64f6dead06906e59a91359e0c1ca9cad88a633d749431442e5bebf916133176040519283926020845260208401916116c6565b0390a2565b908160209103126101ba5751610342816101a9565b60208082019080835283518092528060408094019401925f905b83821061335a57505050505090565b845180516001600160a01b031687528301516001600160601b031686840152948501949382019360019091019061334b565b80518061339857505090565b9091506001036133bf576106376133b1610342926130d6565b51516001600160a01b031690565b60206133f65f926133d9610637855460018060a01b031690565b906040519485809481936326b8692f60e21b835260048301613331565b03925af19081156103fe575f91613415575b506001600160a01b031690565b613436915060203d811161343c575b61342e8183610481565b81019061331c565b5f613408565b503d613424565b1561344a57565b60405162461bcd60e51b815260206004820152601c60248201527f4665654d616e616765723a20696e73756666696369656e7420466565000000006044820152606490fd5b90939261349e82341015613443565b6134b36134aa83613216565b620186a0900490565b925f90815b8381106135a45750825f5b81811061353657505050505f5b81811061350b5750506101cb9293508034116134f1575b5060025401600255565b6134fe6135049134613209565b3361374d565b505f6134e7565b6001600160a01b0386165f90815260036020526040902080548501905561353190612983565b6134d0565b612a718261357c86613577613571611849602061356b8961356461355f828f9e61359d9f612991565b611408565b988d612991565b0161141e565b8c613263565b613276565b6001600160a01b039091165f90815260036020526040902080549091019055565b83906134c3565b916135c56135cb916135bf611849602061356b888a89612991565b90611ddd565b92612983565b6134b8565b156135d757565b60405162461bcd60e51b8152602060048201526024808201527f4665654d616e616765723a204d6178696d756d20646973636f756e74206973206044820152633130302560e01b6064820152608490fd5b9391929061363885341015613443565b8461365c575b5050505080341161364c5750565b6134fe6136599134613209565b50565b6001600160601b0316916136746127108411156135d0565b5f928061369d575b5050509061368d6136939284613209565b9061374d565b505f80808061363e565b6136b6919293506136ae9086613263565b612710900490565b915f805b83811061372757505f5b8381106136ec57505050509061368d826136e46136939460025401600255565b91925f61367c565b80612a718461357c8561357761371c611849602061356b898e61371661355f6137229e838d612991565b99612991565b8b613263565b6136c4565b90613742613748916135bf611849602061356b878a8a612991565b91612983565b6136ba565b5f918291829182916001600160a01b03165af13d15610342573d6137708161101a565b9061377e6040519283610481565b81525f60203d92013e90565b6040519061379782610437565b8160e05f918281528260208201528260408201528260608201528260808201528260a08201528260c08201520152565b6137cf61378a565b5060e09081018051519182156138a6575f5b83811061388357505f5b83811061384f5760405162461bcd60e51b815260206004820152602f60248201527f4665654d616e616765723a2050726963696e67206973206e6f7420736574206f60448201526e37103a3434b99031b430b4b724b21760891b6064820152608490fd5b8161385b8285516130e3565b510151156138715761386c90612983565b6137eb565b91905061387f9250516130e3565b5190565b46826138908386516130e3565b51015114613871576138a190612983565b6137e1565b60405162461bcd60e51b815260206004820152601f60248201527f4665654d616e616765723a2050726963696e67206973206e6f74207365742e006044820152606490fd5b9060018083815b6138fb57505050565b8061390591613965565b91818116613917575b811c91826138f2565b938261392291613965565b9361390e565b9060018083815b61393857505050565b8061394291613965565b91818116613954575b811c918261392f565b938261395f91613965565b9361394b565b5f19828209828202908180821091039381850393670de0b6b3a764000091829109916706f05b59d3b1ffff831195146139d4578310156101ba577faccb18165bd6fe31ae1cf318dc5b51eee0e1ba569b88cd74c1773b91fac1066992828211900360ee1b910360121c17020190565b925050040190565b90806139ec57506103429061322c565b8082116139fd57506103429061322c565b613a068261322c565b918181039081116116125781613a3e613a36613a31670de0b6b3a764000095613577613a4396613246565b613928565b60021c61322c565b613263565b0481018091116116125790565b909180613a625750506103429061322c565b808211613ad85780613a748484611ddd565b11613a845750506103429061322c565b613aca81613a3e613ac5613abf613a3184613577613aba6135bf99613ab58d613aaf6103429f61322c565b9d611ddd565b613209565b613246565b60021c90565b61322c565b670de0b6b3a7640000900490565b8080928180613ae68761322c565b96613af19084611ddd565b90613afb91613209565b613b0490613246565b90613b0e91613276565b613b17906138eb565b92613b2191613209565b613b2a90613246565b90613b3491613276565b613b3d906138eb565b613b4691613209565b60021c613b529061322c565b90613b5c91613263565b670de0b6b3a7640000900461034291611ddd565b15613b7757565b60405162461bcd60e51b8152602060048201526024808201527f466163746f7279313135353a204d6178696d756d20737570706c7920726561636044820152633432b21760e11b6064820152608490fd5b81810292915f8212600160ff1b82141661161257818405149015171561161257565b9190915f838201938412911290801582169115161761161257565b6001600160601b036060830151164211613c7557613c6282613c42613c3a6118496040613c689701516001600160601b031690565b841115613b70565b6020613c59613c52858451613263565b9480613263565b91015190613bc8565b90613bea565b5f81121561034257505f90565b60405162461bcd60e51b815260206004820152602760248201527f466163746f7279313135353a20746f6b656e2073616c652074696d6520697320604482015266195e1c1a5c995960ca1b6064820152608490fd5b6001600160601b036060840151164211613c7557613c68926020613c5983613d16613cf887613c6297611ddd565b613d0f61184960408801516001600160601b031690565b1015613b70565b613d49613d42613d27888751613263565b97613d3c613d358286611ddd565b9185611ddd565b90613263565b9180613263565b90613209565b81604051928392833781015f815203902090565b90613d6d81611408565b613d83613d7d6060840184611694565b90613d4f565b5f916001600160a01b0316847fc0d62261ee30fa727eab11180362380f5a2d6af2c9ec2b14537843182c7c58268480a460808201613dc18184611645565b919050825b828110613e86575050507fb237134d29775150b1edf87af1dc343262244af7cbb474cfc64cb6e8824af663613e6960a08401613e028186610faa565b9590508515613e8057613e186108bd8383610faa565b35945b6001871115613e77576002613e39613e338585610faa565b90610ffc565b35975b1115613e6e5750613e5691613e5091610faa565b9061100b565b35945b6040519081529081906020820190565b0390a4565b91505094613e59565b60028197613e3c565b84613e1b565b8085877f8e02102e2b8cc364a650b1d50e19bf3bb3df2f5c5f3a9ad3dc8413b6a99d3793613ee76020613ed586613ec88a613ece613eef9b613ec8838c611645565b90612991565b3598611645565b60405191013581529081906020820190565b0390a3612983565b613dc656fea26469706673582212205807d138d90321bb21ed639137442ff800fb4f5b981760c5853feb6968d866c264736f6c6343000815003360a0346200010757602081016001600160401b03811182821017620000f3576040525f809152620000326002546200010b565b601f8111620000b2575b50806002556200004e6004546200010b565b601f81116200008e575b5f60045533608052604051612b7690816200015f8239608051818181610eb9015281816110a4015281816115a10152611d490152f35b601f6020836004620000aa955220910160051c81019062000146565b5f8062000058565b60028252620000ec90601f0160051c7f405787fa12a823e0f2b7631cc41b3ba8828b3321ca811111fa75cd3aa3bb5ace9081019062000146565b5f6200003c565b634e487b7160e01b5f52604160045260245ffd5b5f80fd5b90600182811c921680156200013b575b60208310146200012757565b634e487b7160e01b5f52602260045260245ffd5b91607f16916200011b565b81811062000152575050565b5f81556001016200014656fe60806040526004361015610011575f80fd5b5f3560e01c8062fdd58e1461219d57806301ffc9a71461211557806306fdde031461206d5780630e89341c1461203a5780631f7fdffa14611cc65780632a55205a14611c1c5780632eb2c2d6146118805780634e1273f4146116e35780634f558e79146116b75780635944c753146115655780636b20c4541461132e578063731133e91461105e578063862440e214610e655780638da5cb5b14610e3957806395d89b4114610d58578063a22cb46514610c78578063b2b45df5146107f6578063bd85b039146107cc578063e923314814610762578063e985e9c514610710578063f242432a146103105763f5298aca1461010a575f80fd5b3461030c57606036600319011261030c576101236121cc565b60249060448035916001600160a01b031690833533831480156102e7575b61014a9061248e565b821592610157841561275b565b61016082612736565b9161016a86612736565b945f6040516101788161224b565b52610290575b5f5b8351811015610214576101938185612466565b5161019e8288612466565b5190805f526003602081815260405f2054928484106101d357906101ce95949392915f52520360405f2055612458565b610180565b506084905f80516020612b218339815191528a60288f6040519462461bcd60e51b8652600486015284015282015267616c537570706c7960c01b6064820152fd5b5f838389818452836020526040842083855260205280604085205461023b828210156127b3565b838652856020526040862085875260205203604085205560405191825260208201527fc3d58168c5ae7397731d063d5bbf3d657854427343f4c083240f7aacaa2d0f6260403392a461028e60405161224b565b005b94919592905f5b87518110156102dc57806102ae6102d79288612466565b516102b9828b612466565b515f5260036020526102d060405f209182546125aa565b9055612458565b610297565b50909295919461017e565b50825f52600160205260405f20335f5260205261014a60ff60405f2054169050610141565b5f80fd5b3461030c5760a036600319011261030c576103296121cc565b6103316121e2565b6084356001600160401b03811161030c57610350903690600401612387565b6001600160a01b039190838316331480156106e9575b61036f9061248e565b8282161561037d81156124f1565b610388604435612736565b90610394606435612736565b90858716156106ae575b61060a575b6044355f525f60205260405f208587165f5260205260405f20546103cb60643582101561254b565b6044355f90815260208181526040808320898b1684529091528082206064359384900390558688168252902080549091610404916125aa565b90556040516044358152606435602082015285851690868816907fc3d58168c5ae7397731d063d5bbf3d657854427343f4c083240f7aacaa2d0f6260403392a482516105b1575b5050813b61045557005b6020916104a0915f6040519586809581948363f23a6e6160e01b9b8c85523360048601521660248401526044356044840152606435606484015260a0608484015260a48301906122a8565b0393165af15f9181610580575b50610519576104ba612659565b6308c379a0146104e2575b60405162461bcd60e51b8152806104de600482016126e1565b0390fd5b6104ea612674565b806104f557506104c5565b60405162461bcd60e51b8152602060048201529081906104de9060248301906122a8565b6001600160e01b0319160361052a57005b60405162461bcd60e51b815260206004820152602860248201527f455243313135353a204552433131353552656365697665722072656a656374656044820152676420746f6b656e7360c01b6064820152608490fd5b6105a391925060203d6020116105aa575b61059b8183612266565b810190612639565b90836104ad565b503d610591565b5f80516020612b01833981519152916106006105f26105e4936040519485943386526080602087015260808601906123a5565b9084820360408601526123a5565b8281036060840152856122a8565b0390a1848061044b565b94919390925f5b84518110156106a3576106248186612466565b51906106308189612466565b51825f52600360205260405f20548181106106605761065b935f5260036020520360405f2055612458565b610611565b60405162461bcd60e51b815260206004820152602860248201525f80516020612b21833981519152604482015267616c537570706c7960c01b6064820152608490fd5b5092909391946103a3565b9491939095925f5b85518110156106dd57806106cd6106d8928a612466565b516102b98289612466565b6106b6565b5092959093919461039e565b508284165f52600160205260405f20335f5260205261036f60ff60405f2054169050610366565b3461030c57604036600319011261030c576107296121cc565b6107316121e2565b9060018060a01b038091165f52600160205260405f2091165f52602052602060ff60405f2054166040519015158152f35b3461030c5760208060031936011261030c576001600160601b03600435818116810361030c575b81811690815f526003845260405f2054156107c257508181146107ae57600101610789565b634e487b7160e01b5f52601160045260245ffd5b6040519216825250f35b3461030c57602036600319011261030c576004355f526003602052602060405f2054604051908152f35b3461030c57606036600319011261030c5761080f6121cc565b6001600160401b039060243582811161030c57610830903690600401612387565b9160443581811161030c57610849903690600401612387565b9060069081549260ff8460081c161595868097610c6b575b8015610c54575b15610bf857600194878660ff198316178655610be7575b508051838111610adb57806108956009546121f8565b92601f93848111610b79575b50602090848311600114610afa575f92610aef575b50505f19600383901b1c191690861b176009555b8151928311610adb5782916108e0600a546121f8565b828111610a6b575b5060209183116001146109ec575f926109e1575b50505f19600383901b1c191690831b17600a555b80549260ff8460081c16156109885762010000600160b01b0360109190911b1662010000600160b01b03198416811782559361094857005b610100600160b01b031990921690921790556040519081527f7f26b83ff96e1f2b6a682f133852f6798a09c465da95921460cefb384740249890602090a1005b60405162461bcd60e51b815260206004820152602b60248201527f496e697469616c697a61626c653a20636f6e7472616374206973206e6f74206960448201526a6e697469616c697a696e6760a81b6064820152608490fd5b0151905086806108fc565b90859350601f19831691600a5f527fc65a7bb8d6351c1cf70c95a316cc6a92839c986682d98bc35f958f4883f9d2a8925f5b818110610a5357508411610a3b575b505050811b01600a55610910565b01515f1960f88460031b161c19169055868080610a2d565b82840151855588969094019360209384019301610a1e565b90919250600a5f527fc65a7bb8d6351c1cf70c95a316cc6a92839c986682d98bc35f958f4883f9d2a88380860160051c82019260208710610ad2575b91869589929594930160051c01915b828110610ac45750506108e8565b5f8155869550889101610ab6565b92508192610aa7565b634e487b7160e01b5f52604160045260245ffd5b0151905089806108b6565b90889350601f1983169160095f527f6e1540171b6c0c960b71a7020d9f60077f6af931a8bbf590da0223dacf75c7af925f5b818110610b6157508411610b49575b505050811b016009556108ca565b01515f1960f88460031b161c19169055898080610b3b565b8284015185558b969094019360209384019301610b2c565b90915060095f527f6e1540171b6c0c960b71a7020d9f60077f6af931a8bbf590da0223dacf75c7af8480850160051c82019260208610610bde575b918a91869594930160051c01915b828110610bd05750506108a1565b5f81558594508a9101610bc2565b92508192610bb4565b61ffff19166101011784558761087f565b60405162461bcd60e51b815260206004820152602e60248201527f496e697469616c697a61626c653a20636f6e747261637420697320616c72656160448201526d191e481a5b9a5d1a585b1a5e995960921b6064820152608490fd5b50303b1580156108685750600160ff861614610868565b50600160ff861610610861565b3461030c57604036600319011261030c57610c916121cc565b6024359081151580920361030c576001600160a01b031690338214610d0157335f52600160205260405f20825f5260205260405f2060ff1981541660ff83161790556040519081527f17307eab39ab6107e8899845ad3d59bd9653f200f220920489ca2b5937696c3160203392a3005b60405162461bcd60e51b815260206004820152602960248201527f455243313135353a2073657474696e6720617070726f76616c20737461747573604482015268103337b91039b2b63360b91b6064820152608490fd5b3461030c575f36600319011261030c57604051600a545f82610d79836121f8565b918282526020936001908582821691825f14610e19575050600114610dbe575b50610da692500383612266565b610dba6040519282849384528301906122a8565b0390f35b849150600a5f527fc65a7bb8d6351c1cf70c95a316cc6a92839c986682d98bc35f958f4883f9d2a8905f915b858310610e01575050610da6935082010185610d99565b80548389018501528794508693909201918101610dea565b60ff191685820152610da695151560051b8501019250879150610d999050565b3461030c575f36600319011261030c5760065460405160109190911c6001600160a01b03168152602090f35b3461030c57604036600319011261030c576001600160401b0360043560243582811161030c573660238201121561030c5780600401359083821161030c57366024838301011161030c57610ef191610ee7337f00000000000000000000000000000000000000000000000000000000000000006001600160a01b03161461280b565b6024369201612342565b91815f526020906005825260405f20908451908111610adb57610f1482546121f8565b601f811161101b575b5082601f8211600114610f985781907f6bb7ff708619ba0610cba295a58592e0451dee2622938c8755667688daf3529b95965f92610f8d575b50508160011b915f199060031b1c19161790555b610f73836128c3565b90610f886040519282849384528301906122a8565b0390a2005b015190508680610f56565b601f19821695835f52845f20965f5b8181106110045750917f6bb7ff708619ba0610cba295a58592e0451dee2622938c8755667688daf3529b969791846001959410610fec575b505050811b019055610f6a565b01515f1960f88460031b161c19169055868080610fdf565b838301518955600190980197928601928601610fa7565b825f52835f20601f830160051c810191858410611054575b601f0160051c01905b8181106110495750610f1d565b5f815560010161103c565b9091508190611033565b3461030c57608036600319011261030c576110776121cc565b6064356001600160401b03811161030c57611096903690600401612387565b6001600160a01b036110cb337f000000000000000000000000000000000000000000000000000000000000000083161461280b565b80831615916110da831561286d565b6110e5602435612736565b916110f1604435612736565b945f5b845181101561111b578061110b6111169289612466565b516102b98288612466565b6110f4565b508593856112cf575b6024355f526020945f865260405f208484165f52865260405f2061114b60443582546125aa565b90556040516024358152604435878201525f858516917fc3d58168c5ae7397731d063d5bbf3d657854427343f4c083240f7aacaa2d0f6260403392a48451611285575b5050803b61119857005b5f91849160405180948193826111e063f23a6e6160e01b998a83523360048401528460248401526024356044840152604435606484015260a0608484015260a48301906122a8565b0393165af15f9181611266575b5061125357826111fb612659565b6308c379a01461121e5760405162461bcd60e51b8152806104de600482016126e1565b611226612674565b908161123257506104c5565b6104de60405192839262461bcd60e51b8452600484015260248301906122a8565b6001600160e01b03191603905061052a57005b61127e919250843d86116105aa5761059b8183612266565b90846111ed565b5f80516020612b01833981519152916112c56112b76105e49360405194859433865260808c87015260808601906123a5565b8281036060840152876122a8565b0390a1848061118e565b915f9391935b8351811015611324576112e88185612466565b51906112f48188612466565b51825f52600360205260405f20548181106106605761131f935f5260036020520360405f2055612458565b6112d5565b5091929092611124565b3461030c57606036600319011261030c576113476121cc565b6024906001600160401b0390823582811161030c5761136a9036906004016122e4565b91604490813590811161030c576113859036906004016122e4565b6001600160a01b03909216923384148015611540575b6113a49061248e565b83156113b0811561275b565b6113bd82518551146125b7565b5f6040516113ca8161224b565b52611514575b5f5b8151811015611466576113e58183612466565b516113f08286612466565b5190805f526003602081815260405f205492848410611425579061142095949392915f52520360405f2055612458565b6113d2565b60405162461bcd60e51b8152600481018390526028818d01525f80516020612b21833981519152818a015267616c537570706c7960c01b6064820152608490fd5b8382865f5b82518110156114d057806114826114cb9285612466565b5161148d8287612466565b5190805f5260205f815260405f20865f52815260405f2054916114b2848410156127b3565b5f525f815260405f2090865f52520360405f2055612458565b61146b565b50907f4a39dc06d4c0dbc64b70af90fd698a233a518aa5d07e595d983b8c0526c8f7fb6115065f94604051918291339583612614565b0390a461028e60405161224b565b925f9491945b8451811015611536578061110b6115319286612466565b61151a565b50929390936113d0565b50835f52600160205260405f20335f526020526113a460ff60405f205416905061139b565b3461030c57606036600319011261030c5761157e6121e2565b6044356001600160601b03811680910361030c576001600160a01b03916115c8337f000000000000000000000000000000000000000000000000000000000000000085161461280b565b612710821161165f57821691821561161a57604051926115e784612230565b8352602083019182526004355f52600860205260405f20925116906001600160601b0360a01b905160a01b161790555f80f35b60405162461bcd60e51b815260206004820152601b60248201527f455243323938313a20496e76616c696420706172616d657465727300000000006044820152606490fd5b60405162461bcd60e51b815260206004820152602a60248201527f455243323938313a20726f79616c7479206665652077696c6c206578636565646044820152692073616c65507269636560b01b6064820152608490fd5b3461030c57602036600319011261030c576004355f526003602052602060405f20541515604051908152f35b3461030c57604036600319011261030c576004356001600160401b0380821161030c573660238301121561030c57816004013590611720826122cd565b9261172e6040519485612266565b82845260209260248486019160051b8301019136831161030c57602401905b8282106118615750505060243590811161030c5761176f9036906004016122e4565b825181510361180a57825192611784846122cd565b936117926040519586612266565b8085526117a1601f19916122cd565b0136848601375f5b81518110156117f3576117ee906117de6001600160a01b036117cb8386612466565b51166117d78387612466565b51906123d8565b6117e88288612466565b52612458565b6117a9565b505050610dba6040519282849384528301906123a5565b60405162461bcd60e51b815260048101839052602960248201527f455243313135353a206163636f756e747320616e6420696473206c656e677468604482015268040dad2e6dac2e8c6d60bb1b6064820152608490fd5b81356001600160a01b038116810361030c57815290840190840161174d565b3461030c5760031960a03682011261030c5761189a6121cc565b906118a36121e2565b6044908135926001600160401b039384811161030c576118c79036906004016122e4565b6064803586811161030c576118e09036906004016122e4565b94608496873590811161030c576118fb903690600401612387565b6001600160a01b039489861633148015611bf5575b6119199061248e565b61192685518951146125b7565b8587161561193481156124f1565b868b1615611bb3575b611b04575b5f5b85518110156119cb578061195b6119c69288612466565b518c611967838d612466565b5191805f52826020925f845260405f208d82165f52845260405f2054906119908383101561254b565b835f525f85528d60405f2091165f5284520360405f20555f525f815260405f20908a8c165f52526102d060405f209182546125aa565b611944565b50888a989796949789604051887f4a39dc06d4c0dbc64b70af90fd698a233a518aa5d07e595d983b8c0526c8f7fb89808d1694169280611a0d87339583612614565b0390a48351611ab1575b873b611a1f57005b60405198899788968863bc197c8160e01b9d8e8a523360048b0152166024890152870160a0905260a48701611a53916123a5565b90848783030190870152611a66916123a5565b918483030190840152611a78916122a8565b03921691815a6020945f91f15f9181611a985750610519576104ba612659565b6105a391925060203d81116105aa5761059b8183612266565b5f80516020612b018339815191526040513381526080602082015280611afc611aee611ae0608084018d6123a5565b8381036040850152866123a5565b8281036060840152886122a8565b0390a1611a17565b979694905f9993999692965b8551811015611ba357611b238187612466565b51611b2e8289612466565b5190805f5260206003815260405f205491838310611b6357611b5e949392916003915f52520360405f2055612458565b611b10565b508b9067616c537570706c7960c01b8f5f80516020612b218339815191528e6040519462461bcd60e51b8652600486015260286024860152840152820152fd5b5090949697989298959195611942565b9996949895939291905f5b8a51811015611be657808b6102b982611bda611be1958f612466565b5192612466565b611bbe565b5090919293959894969961193d565b50858a165f52600160205260405f20335f5260205261191960ff60405f2054169050611910565b3461030c57604036600319011261030c576024356004355f52600860205260405f209060405191611c4c83612230565b546001600160a01b0380821680855260a09290921c6020850152929015611ca4575b6001600160601b03602082015116918281029281840414901517156107ae57604092612710915116918351928352046020820152f35b50604051611cb181612230565b600754838116825260a01c6020820152611c6e565b3461030c5760031960803682011261030c57611ce06121cc565b602491906001600160401b0390833582811161030c57611d049036906004016122e4565b91604494853582811161030c57611d1f9036906004016122e4565b95606492833590811161030c57611d3a903690600401612387565b926001600160a01b03611d70337f000000000000000000000000000000000000000000000000000000000000000083161461280b565b851693841597611d80891561286d565b611d8d88518b51146125b7565b5f5b8851811015611db65780611da6611db1928d612466565b516102b9828c612466565b611d8f565b508998979697611f8c575b5f5b8751811015611e0a5780611dda611e05928c612466565b51611de5828b612466565b515f5260205f815260405f20908a5f52526102d060405f209182546125aa565b611dc3565b5090919397959296855f6040517f4a39dc06d4c0dbc64b70af90fd698a233a518aa5d07e595d983b8c0526c8f7fb339180611e468d8b83612614565b0390a48251611f47575b3b611e5757005b604051958694859463bc197c8160e01b998a87523360048801528b87015f9052860160a0905260a48601611e8a916123a5565b90838683030190860152611e9d916123a5565b90838203016084840152611eb0916122a8565b03815a6020945f91f15f9181611f27575b506112535782611ecf612659565b6308c379a014611ef25760405162461bcd60e51b8152806104de600482016126e1565b611efa612674565b9081611f0657506104c5565b6104de60405192839262461bcd60e51b8452602060048501528301906122a8565b611f4091925060203d81116105aa5761059b8183612266565b9084611ec1565b5f80516020612b018339815191526040513381526080602082015280611f846112b7611f76608084018a6123a5565b83810360408501528c6123a5565b0390a1611e50565b9691959294905f9894985b845181101561202b57611faa8186612466565b51611fb58288612466565b5190805f526003602081815260405f205492848410611fea5790611fe595949392915f52520360405f2055612458565b611f97565b506084818f8e5f80516020612b218339815191528f602867616c537570706c7960c01b946040519662461bcd60e51b88526004880152860152840152820152fd5b50909492959196979397611dc1565b3461030c57602036600319011261030c57610dba6120596004356128c3565b6040519182916020835260208301906122a8565b3461030c575f36600319011261030c576040516009545f8261208e836121f8565b918282526020936001908582821691825f14610e195750506001146120ba5750610da692500383612266565b84915060095f527f6e1540171b6c0c960b71a7020d9f60077f6af931a8bbf590da0223dacf75c7af905f915b8583106120fd575050610da6935082010185610d99565b805483890185015287945086939092019181016120e6565b3461030c57602036600319011261030c5760043563ffffffff60e01b811680910361030c5760209063152a902d60e11b811490811561215a575b506040519015158152f35b636cdb3d1360e11b81149150811561218c575b811561217b575b508261214f565b6301ffc9a760e01b14905082612174565b6303a24d0760e21b8114915061216d565b3461030c57604036600319011261030c5760206121c46121bb6121cc565b602435906123d8565b604051908152f35b600435906001600160a01b038216820361030c57565b602435906001600160a01b038216820361030c57565b90600182811c92168015612226575b602083101461221257565b634e487b7160e01b5f52602260045260245ffd5b91607f1691612207565b604081019081106001600160401b03821117610adb57604052565b602081019081106001600160401b03821117610adb57604052565b90601f801991011681019081106001600160401b03821117610adb57604052565b5f5b8381106122985750505f910152565b8181015183820152602001612289565b906020916122c181518092818552858086019101612287565b601f01601f1916010190565b6001600160401b038111610adb5760051b60200190565b9080601f8301121561030c5760209082356122fe816122cd565b9361230c6040519586612266565b818552838086019260051b82010192831161030c578301905b828210612333575050505090565b81358152908301908301612325565b9291926001600160401b038211610adb576040519161236b601f8201601f191660200184612266565b82948184528183011161030c578281602093845f960137010152565b9080601f8301121561030c578160206123a293359101612342565b90565b9081518082526020808093019301915f5b8281106123c4575050505090565b8351855293810193928101926001016123b6565b6001600160a01b0316908115612400575f525f60205260405f20905f5260205260405f205490565b60405162461bcd60e51b815260206004820152602a60248201527f455243313135353a2061646472657373207a65726f206973206e6f742061207660448201526930b634b21037bbb732b960b11b6064820152608490fd5b5f1981146107ae5760010190565b805182101561247a5760209160051b010190565b634e487b7160e01b5f52603260045260245ffd5b1561249557565b60405162461bcd60e51b815260206004820152602e60248201527f455243313135353a2063616c6c6572206973206e6f7420746f6b656e206f776e60448201526d195c881bdc88185c1c1c9bdd995960921b6064820152608490fd5b156124f857565b60405162461bcd60e51b815260206004820152602560248201527f455243313135353a207472616e7366657220746f20746865207a65726f206164604482015264647265737360d81b6064820152608490fd5b1561255257565b60405162461bcd60e51b815260206004820152602a60248201527f455243313135353a20696e73756666696369656e742062616c616e636520666f60448201526939103a3930b739b332b960b11b6064820152608490fd5b919082018092116107ae57565b156125be57565b60405162461bcd60e51b815260206004820152602860248201527f455243313135353a2069647320616e6420616d6f756e7473206c656e677468206044820152670dad2e6dac2e8c6d60c31b6064820152608490fd5b909161262b6123a2936040845260408401906123a5565b9160208184039101526123a5565b9081602091031261030c57516001600160e01b03198116810361030c5790565b5f9060033d1161266557565b905060045f803e5f5160e01c90565b5f60443d106123a257604051600319913d83016004833e81516001600160401b03918282113d6024840111176126d0578184019485519384116126d8573d850101602084870101116126d057506123a292910160200190612266565b949350505050565b50949350505050565b60809060208152603460208201527f455243313135353a207472616e7366657220746f206e6f6e2d455243313135356040820152732932b1b2b4bb32b91034b6b83632b6b2b73a32b960611b60608201520190565b6040519061274382612230565b6001825260208201602036823782511561247a575290565b1561276257565b60405162461bcd60e51b815260206004820152602360248201527f455243313135353a206275726e2066726f6d20746865207a65726f206164647260448201526265737360e81b6064820152608490fd5b156127ba57565b60405162461bcd60e51b8152602060048201526024808201527f455243313135353a206275726e20616d6f756e7420657863656564732062616c604482015263616e636560e01b6064820152608490fd5b1561281257565b60405162461bcd60e51b815260206004820152602d60248201527f4b617469626568313135353a207265737472696374656420616363657373207460448201526c6f2074686520466163746f727960981b6064820152608490fd5b1561287457565b60405162461bcd60e51b815260206004820152602160248201527f455243313135353a206d696e7420746f20746865207a65726f206164647265736044820152607360f81b6064820152608490fd5b5f908152602090600582526040812090604051908091835492816128e6856121f8565b91828252878201966001968988821691825f14612ae2575050600114612aa4575b5061291492500382612266565b8051156129e957604051948593836004549161292f836121f8565b928181169081156129c85750600114612968575b505050506129596123a294839251938491612287565b0103601f198101835282612266565b909192969450600482527f8a35acfbc15ff81a39ae7d344fd709f28e8600b4aa8c65c6b64bfe7fe36bd19b5b8383106129b2575050506123a2946129599185010192945f80612943565b8054898401890152889650918701918101612994565b60ff1916888601525050508015150284010191506129596123a25f80612943565b5060405160025490949350849282612a00836121f8565b80865292828116908115612a825750600114612a26575b5050506123a292500382612266565b600281527f405787fa12a823e0f2b7631cc41b3ba8828b3321ca811111fa75cd3aa3bb5ace95935091905b818310612a6a5750506123a293508201015f8080612a17565b85548784018501529485019486945091830191612a51565b925050506123a294925060ff191682840152151560051b8201015f8080612a17565b915050835281868085208686915b858310612ac957505061291493508201015f612907565b8091929450548385880101520191018790868593612ab2565b60ff19168a5261291495151560051b85010192505f9150612907905056fe64b6d1b9c6726b4405acbd47f33ee45712403cd8422e6b9ccb562c0dec7965d4455243313135353a206275726e20616d6f756e74206578636565647320746f74a2646970667358221220128bbddd96550948309a9baa7605ba59814afbc1af9bb7e8d2f5b8e9735aa04164736f6c6343000815003360a03461007f57601f611bf738819003918201601f19168301916001600160401b038311848410176100835780849260209460405283398101031261007f57516001600160a01b038116810361007f57608052604051611b5f90816100988239608051818181610158015281816104890152818161050d01526106e70152f35b5f80fd5b634e487b7160e01b5f52604160045260245ffdfe608060408181526004918236101561002a575b505050361561001f575f80fd5b6100283461144b565b005b5f92833560e01c91826306fdde0314611099575081630d2ddb47146110665781630e89341c146109c8578163152dcd471461068457816320dc8ff714610609578163280976aa146105c45781632a31f6b41461053c5781632dd31000146104f85781633ccfd60b1461045257816395d89b41146104155781639791e504146103e95781639ae1a4bc1461025d578163d1aa25d014610240578163d73fe0aa146101b4578163ecbdbb321461010a575063f5dcdf96146100e95780610012565b346101065781600319360112610106576020906001549051908152f35b5080fd5b83833461010657816003193601126101065780516020810190630103c92b60e01b8252306024820152602481526060810181811067ffffffffffffffff8211176101a15783525183918291907f00000000000000000000000000000000000000000000000000000000000000005afa506101826112d0565b9160208380518101031261019e57506020809201519051908152f35b80fd5b634e487b7160e01b855260418652602485fd5b82843461019e578060031936011261019e57600180546101d381611176565b926101e085519485611154565b81845282815260207fb10e2d527612073b26eecdfd717e6a320cf44b4afac2b0732d9fcbe2b7fa0cf68186015b848410610225578751806102218982611275565b0390f35b8583819261023285611408565b81520192019301929061020d565b833461019e578060031936011261019e5761025a4761144b565b80f35b8383346101065761026d3661118e565b9181516020810190610291816102838785611275565b03601f198101835282611154565b519020926102a03085306112ff565b6001600160a01b0380821695913b156102be575b6020868651908152f35b845191867fde03f54489aeeaa8f8e262296d61a01b0a41b770fae1d2b27d960a7e593de3858680a2763d602d80600a3d3981f3363d3d373d3d3d363d7300000062ffffff3060881c161785526e5af43d82803e903d91602b57fd5bf33060781b176020526037600986f516156103a85750833b156101065790806103549284518094819263152dcd4760e01b8352898301611275565b038183885af1801561039c5761036c575b80806102b4565b67ffffffffffffffff821161038957506020935081528380610365565b634e487b7160e01b815260418552602490fd5b508251903d90823e3d90fd5b62461bcd60e51b8152602086820152601760248201527f455243313136373a2063726561746532206661696c65640000000000000000006044820152606490fd5b82843461019e57602036600319011261019e5750610409602092356113a1565b505460a01c9051908152f35b50503461010657816003193601126101065780516102219161043682611124565b60058252641cdc1b1a5d60da1b602083015251918291826110dd565b919050346104f457826003193601126104f457828082516020810190633ccfd60b60e01b825285815261048481611124565b5190827f00000000000000000000000000000000000000000000000000000000000000005af16104b26112d0565b50156104bc578280f35b906020606492519162461bcd60e51b83528201526012602482015271556e61626c6520746f20776974686472617760701b6044820152fd5b8280fd5b505034610106578160031936011261010657517f00000000000000000000000000000000000000000000000000000000000000006001600160a01b03168152602090f35b919050346104f457806003193601126104f45781356001600160a01b03811681036105c057836024359367ffffffffffffffff85116101065736602386011215610106578401359361059961059086611259565b94519485611154565b8484523660248683010111610106578461025a9560246020930183870137840101526118bd565b8380fd5b505034610106576020906105f86105da3661118e565b82516105ed816102838782019485611275565b5190203090306112ff565b90516001600160a01b039091168152f35b919050346104f45760203660031901126104f45781356001600160a01b03811681036105c05761063890611635565b15610641578280f35b906020606492519162461bcd60e51b8352820152601960248201527f53706c69743a2045524332302073706c6974206661696c6564000000000000006044820152fd5b919050346104f4576106953661118e565b9083549060ff8260081c1615938480956109bb575b80156109a4575b1561094b57600192858460ff19831617885561093a575b5060028451106108f85760078451116108b65785936001600160a01b037f000000000000000000000000000000000000000000000000000000000000000081169086865b610791575b50505050506dffffffffffffffffffffffff000085549360101b1693846dffffffffffffffffffffffff000019851617865561074b578480f35b7f7f26b83ff96e1f2b6a682f133852f6798a09c465da95921460cefb3847402498936020936dffffffffffffffffffffffffff00191617855551908152a15f8080808480f35b83518110156108b1576001600160601b03976020908980836107b3868a611379565b5101511691160189811161089e57986107cc8387611379565b5189546801000000000000000081101561088b57808b6107ee92018c556113a1565b9190916108795780519084015160a01b6001600160a01b031916908616179055889594939261087092909186918e9187917fc3d58168c5ae7397731d063d5bbf3d657854427343f4c083240f7aacaa2d0f62918d91908161085d898c610854828c611379565b51511699611379565b51015116825191868352820152a4611357565b9091929361070c565b634e487b7160e01b8e528d895260248efd5b634e487b7160e01b8e526041895260248efd5b634e487b7160e01b8c526011875260248cfd5b610711565b6020606492519162461bcd60e51b8352820152601a60248201527f53706c69743a20546f6f206d616e7920726563697069656e74730000000000006044820152fd5b6020606492519162461bcd60e51b8352820152601960248201527f53706c69743a20546f6f2066657720726563697069656e7473000000000000006044820152fd5b61ffff19166101011786555f6106c8565b6020608492519162461bcd60e51b8352820152602e60248201527f496e697469616c697a61626c653a20636f6e747261637420697320616c72656160448201526d191e481a5b9a5d1a585b1a5e995960921b6064820152fd5b50303b1580156106b15750600160ff8416146106b1565b50600160ff8416106106aa565b8383346101065760203660031901126101065782356101065780519161056083019083821067ffffffffffffffff83111761038957506102219350815261053182527f646174613a6170706c69636174696f6e2f6a736f6e3b6261736536342c65794a60208301527f755957316c496a6f695332463061574a6c61434254634778706448526c636949818301527f73496d526c63324e796158423061573975496a6f69564768706379424462323560608301527f30636d466a6443425463477870644342356233567949455a31626d527a49486460808301527f6f61585167575739316369427a614746795a5342496232786b5a57567963793460a08301527f694c434a706257466e5a534936496d526864474536615731685a32557663335a60c08301527f6e4b3368746244746959584e6c4e6a51735545684f4d6c7035516a4a6856315960e08301527f7a555730354e4642545358644a5245466e5456525a645531455157644e56466c6101008301527f315455524261556c4961485269527a563655464e4b62325249556e64506154686101208301527f325a444e6b4d3078755933704d62546c35576e6b34655531455158644d4d30346101408301527f79576e6c4a5a31707462484e695244427053587042643031455158644e51306c6101608301527f6e57544a3461474d7a54546c4a625570775355644b63457859546e42614d6a566101808301527f33596a4e4f4d457859546e64695232777753576c434d474e74526e566a4d6c706101a08301527f32593230774f556c744d57686b534570775a554e6e654578445158644d5130466101c08301527f3354454e42654578445158644d5130463353314e4a5a324d7a556e6c694d6e526101e08301527f7355464e4a616b31455158644e5245463353576c43656d5249536e5a684d6c566102008301527f305a444a73613252485a7a6c4a616b4631545552426430315557576c51616e686102208301527f755355647361314254536c525761325254576c6843646c6779536d35524d6b5a6102408301527f355932317362474e705357646a4d314a35596a4a30624578595a48426153464a6102608301527f7655464e4a64306c714e44684d4d6d4d725545646a5a32465855546c4a6245356102808301527f58556a464b62474e484f575a6b5345706f57544a5765564579526e6c6a6257786102a08301527f7359326c4a5a324d7a556e6c694d6e52735446643463474a74566d705a5745456102c08301527f355357354b646d52584e57744a61554a365a45684b646d4579565852695232786102e08301527f31576c6477646d46584e446c4a626b70325a46633161306c70516e706b5345706103008301527f3259544a564f556c70546b52524d4535455554424e61556c49546a426a62546c6103208301527f79576c4d784d324658556a42685244427054554d30655539455a326c51616e646103408301527f32576e6f304f467035516e4261524442705654466153465674566e64694d546c6103608301527f775754493564564579526e6c6a6257787359326c4a4b306c456548645a57464a6103808301527f76535564524f556c724d444e4a5247525854564d304d453155556d684e5530466103a08301527f34535552425a3031445158684a52456c6e54555a5a65574645566d684e5530466103c08301527f34535552425a3031445158684a517a51305447705363307871617a4e4f5530466103e08301527f345447704f614578715658564f55304633535552425a3031545158644a517a516104008301527f79564552464d4578715a32644f557a5179575652465a3031545158644a5245466104208301527f6e54564d77645539444e44425452477779545652435355347a5758524f5657646104408301527f35575652465a3031545158644a5245466e54564d77645539444d48564f5258646104608301527f315457704a4d556c456133564e4d6b5631546c4d304d556c455157644e5130466104808301527f345355524264457871576b314e557a52355355526a645535465258684a5245566104a08301527f6e54554e4264306c455257644e6155457a595552574e6d4a555257644e4d566b6104c08301527f305530524b633078544e444e4f553046345645524a5a303155516d394f626e426104e08301527f3054554d774d574645576e4e4d616d4d7854465247545531555557644e4d47636105008301527f305a47704b4e6b6c714e44684d4d304a6f5a45646e4b306c4564335a61656a51610520830152703454444e4f4d6c70364e44306966513d3d60781b61054083015251918291826110dd565b82843461019e57602036600319011261019e5750611086602092356113a1565b505490516001600160a01b039091168152f35b849084346104f457826003193601126104f45761022192506110ba82611124565b601082526f25b0ba34b132b41029b83634ba3a32b960811b602083015251918291825b602080825282518183018190529093925f5b82811061111057505060409293505f838284010152601f8019910116010190565b8181018601518482016040015285016110ef565b6040810190811067ffffffffffffffff82111761114057604052565b634e487b7160e01b5f52604160045260245ffd5b90601f8019910116810190811067ffffffffffffffff82111761114057604052565b67ffffffffffffffff81116111405760051b60200190565b602090816003198201126112555760043567ffffffffffffffff81116112555781602382011215611255578060040135926111c884611176565b936040936111d885519687611154565b81865260248387019260061b8501019381851161125557602401915b8483106112045750505050505090565b85838303126112555785519061121982611124565b83356001600160a01b038116810361125557825284840135906001600160601b038216820361125557828692838a9501528152019201916111f4565b5f80fd5b67ffffffffffffffff811161114057601f01601f191660200190565b60208082019080835283518092528060408094019401925f905b83821061129e57505050505090565b845180516001600160a01b031687528301516001600160601b031686840152948501949382019360019091019061128f565b3d156112fa573d906112e182611259565b916112ef6040519384611154565b82523d5f602084013e565b606090565b916043916055936040519260388401526f5af43d82803e903d91602b57fd5bf3ff60248401526014830152733d602d80600a3d3981f3363d3d373d3d3d363d73825260588201526037600c8201206078820152012090565b5f1981146113655760010190565b634e487b7160e01b5f52601160045260245ffd5b805182101561138d5760209160051b010190565b634e487b7160e01b5f52603260045260245ffd5b60015481101561138d5760015f527fb10e2d527612073b26eecdfd717e6a320cf44b4afac2b0732d9fcbe2b7fa0cf601905f90565b6001541561138d5760015f527fb10e2d527612073b26eecdfd717e6a320cf44b4afac2b0732d9fcbe2b7fa0cf6905f90565b9060405161141581611124565b91546001600160a01b038116835260a01c6020830152565b8115611437570490565b634e487b7160e01b5f52601260045260245ffd5b806114535750565b5f90815f19908160015401805b6114c057505050037f1445764fe3fdfc2a9812ff42e9b65c2e7896d5162851f78f7d4a5578f7346ff160206114936113d6565b50546001600160a01b03906114ab9085908316611543565b6114b36113d6565b50541692604051908152a2565b806114d46114ce85936113a1565b50611408565b957f1445764fe3fdfc2a9812ff42e9b65c2e7896d5162851f78f7d4a5578f7346ff16001600160601b0361151960209180838c0151168a0290885460101c169061142d565b8093019860018060a01b03906115328583835116611543565b511692604051908152a20180611460565b8147106115d8575f918291829182916001600160a01b03165af16115656112d0565b501561156d57565b60405162461bcd60e51b815260206004820152603a60248201527f416464726573733a20756e61626c6520746f2073656e642076616c75652c207260448201527f6563697069656e74206d617920686176652072657665727465640000000000006064820152608490fd5b60405162461bcd60e51b815260206004820152601d60248201527f416464726573733a20696e73756666696369656e742062616c616e63650000006044820152606490fd5b90816020910312611255575180151581036112555790565b604080516370a0823160e01b81523060048083019190915290926001600160a01b03908116916020908186602481875afa5f968161185e575b5061167d575050505050505f90565b8515611854575f8019968760015401805b611754575083949596975003918291856116a66113d6565b5054895163a9059cbb60e01b815291166001600160a01b031691810191825260208201939093528290819060400103815f895af19081611727575b506116ef5750505050505f90565b7fe8de91d538b06154a2c48315768c5046f47e127d7fd3f726fd85cc723f29b052926117196113d6565b5054169451908152a3600190565b61174690843d861161174d575b61173e8183611154565b81019061161d565b505f6116e1565b503d611734565b6117606114ce826113a1565b906001600160601b03936117798588850151168561188d565b9015611844578787928b8d5f61179a6117d2968f9c835460101c169061142d565b96878095019b8a511692519687958694859363a9059cbb60e01b8552840160209093929193604081019460018060a01b031681520152565b03925af19081611827575b506117f15750505050505050505050505f90565b887fe8de91d538b06154a2c48315768c5046f47e127d7fd3f726fd85cc723f29b052888a8e965116938d51908152a3018061168e565b61183d90893d8b1161174d5761173e8183611154565b505f6117dd565b5050505050505050505050505f90565b5050505050505f90565b90968382813d8311611886575b6118758183611154565b8101031261019e575051955f61166e565b503d61186b565b919082156118b4576118a2818402938461142d565b036118ad5760019190565b5f91508190565b50600191505f90565b5f91825b6001548110156119b9576118d4816113a1565b50546001600160a01b0390811633146118f657506118f190611357565b6118c1565b905061190482939492611aae565b61196a5761196793169061191782611635565b50806040519361192685611124565b601e855260207f416464726573733a206c6f772d6c6576656c2063616c6c206661696c65640000818701528151910182855af16119616112d0565b91611a19565b50565b60405162461bcd60e51b815260206004820152602160248201527f53706c69743a20455243323020746f6b656e73206d7573742062652073706c696044820152601d60fa1b6064820152608490fd5b60405162461bcd60e51b815260206004820152603260248201527f53706c69743a2043616e206f6e6c792062652063616c6c6564206279206f6e65604482015271206f662074686520726563697069656e747360701b6064820152608490fd5b91929015611a7b5750815115611a2d575090565b3b15611a365790565b60405162461bcd60e51b815260206004820152601d60248201527f416464726573733a2063616c6c20746f206e6f6e2d636f6e74726163740000006044820152606490fd5b825190915015611a8e5750805190602001fd5b60405162461bcd60e51b8152908190611aaa90600483016110dd565b0390fd5b60049081815110611b23575f5b828110611aca57505050600190565b8151811015611b1057818101602001516001600160f81b031990811663095ea7b360e01b831a60f81b90911603611b0957611b0490611357565b611abb565b5050505f90565b603283634e487b7160e01b5f525260245ffd5b50505f9056fea2646970667358221220a48d532d8faca228fd98a42f86a2b95f11b827e3ac182c27c3b8f9b3baf4d1aa64736f6c63430008150033",
  "linkReferences": {},
  "deployedLinkReferences": {}
}