{
  "_format": "hh-sol-artifact-1",
  "contractName": "Factory1155",
  "sourceName": "contracts/katibeh1155/Factory1155.sol",
  "abi": [
    {
      "inputs": [
        {
          "internalType": "address",
          "name": "qhAddr",
          "type": "address"
        },
        {
          "internalType": "uint96",
          "name": "_startTime",
          "type": "uint96"
        }
      ],
      "stateMutability": "nonpayable",
      "type": "constructor"
    },
    {
      "anonymous": false,
      "inputs": [
        {
          "indexed": true,
          "internalType": "uint256",
          "name": "tokenHash",
          "type": "uint256"
        },
        {
          "indexed": true,
          "internalType": "uint256",
          "name": "toTokenHash",
          "type": "uint256"
        }
      ],
      "name": "NewReply",
      "type": "event"
    },
    {
      "anonymous": false,
      "inputs": [
        {
          "indexed": true,
          "internalType": "uint256",
          "name": "tokenHash",
          "type": "uint256"
        },
        {
          "indexed": true,
          "internalType": "address",
          "name": "creator",
          "type": "address"
        },
        {
          "indexed": true,
          "internalType": "bytes",
          "name": "data",
          "type": "bytes"
        }
      ],
      "name": "NewToken",
      "type": "event"
    },
    {
      "anonymous": false,
      "inputs": [
        {
          "indexed": false,
          "internalType": "uint256",
          "name": "tokenHash",
          "type": "uint256"
        },
        {
          "indexed": true,
          "internalType": "bytes32",
          "name": "tag1",
          "type": "bytes32"
        },
        {
          "indexed": true,
          "internalType": "bytes32",
          "name": "tag2",
          "type": "bytes32"
        },
        {
          "indexed": true,
          "internalType": "bytes32",
          "name": "tag3",
          "type": "bytes32"
        }
      ],
      "name": "Tags",
      "type": "event"
    },
    {
      "anonymous": false,
      "inputs": [
        {
          "indexed": true,
          "internalType": "uint256",
          "name": "tokenHash",
          "type": "uint256"
        },
        {
          "indexed": false,
          "internalType": "bytes",
          "name": "data",
          "type": "bytes"
        }
      ],
      "name": "TokenData",
      "type": "event"
    },
    {
      "anonymous": false,
      "inputs": [
        {
          "indexed": true,
          "internalType": "address",
          "name": "operator",
          "type": "address"
        },
        {
          "indexed": true,
          "internalType": "address",
          "name": "from",
          "type": "address"
        },
        {
          "indexed": true,
          "internalType": "address",
          "name": "to",
          "type": "address"
        },
        {
          "indexed": false,
          "internalType": "uint256",
          "name": "id",
          "type": "uint256"
        },
        {
          "indexed": false,
          "internalType": "uint256",
          "name": "value",
          "type": "uint256"
        }
      ],
      "name": "TransferSingle",
      "type": "event"
    },
    {
      "inputs": [],
      "name": "QH",
      "outputs": [
        {
          "internalType": "contract IQHash",
          "name": "",
          "type": "address"
        }
      ],
      "stateMutability": "view",
      "type": "function"
    },
    {
      "inputs": [
        {
          "internalType": "address",
          "name": "",
          "type": "address"
        }
      ],
      "name": "_collectorScore",
      "outputs": [
        {
          "internalType": "uint256",
          "name": "",
          "type": "uint256"
        }
      ],
      "stateMutability": "view",
      "type": "function"
    },
    {
      "inputs": [
        {
          "internalType": "uint256",
          "name": "",
          "type": "uint256"
        }
      ],
      "name": "_tokenCollection",
      "outputs": [
        {
          "internalType": "address",
          "name": "addr",
          "type": "address"
        },
        {
          "internalType": "uint96",
          "name": "tokenId",
          "type": "uint96"
        }
      ],
      "stateMutability": "view",
      "type": "function"
    },
    {
      "inputs": [
        {
          "internalType": "address",
          "name": "collector",
          "type": "address"
        },
        {
          "internalType": "uint256",
          "name": "tokenHash",
          "type": "uint256"
        },
        {
          "internalType": "uint256",
          "name": "amount",
          "type": "uint256"
        },
        {
          "components": [
            {
              "internalType": "address",
              "name": "creator",
              "type": "address"
            },
            {
              "internalType": "uint96",
              "name": "signTime",
              "type": "uint96"
            },
            {
              "internalType": "uint256",
              "name": "initTime",
              "type": "uint256"
            },
            {
              "internalType": "string",
              "name": "tokenURI",
              "type": "string"
            },
            {
              "internalType": "bytes",
              "name": "data",
              "type": "bytes"
            },
            {
              "internalType": "uint256[]",
              "name": "toTokenHash",
              "type": "uint256[]"
            },
            {
              "internalType": "bytes32[]",
              "name": "tags",
              "type": "bytes32[]"
            },
            {
              "components": [
                {
                  "internalType": "address payable",
                  "name": "recipient",
                  "type": "address"
                },
                {
                  "internalType": "uint96",
                  "name": "percentInBasisPoints",
                  "type": "uint96"
                }
              ],
              "internalType": "struct PercentSplitETH.Share[]",
              "name": "owners",
              "type": "tuple[]"
            },
            {
              "components": [
                {
                  "internalType": "uint256",
                  "name": "A",
                  "type": "uint256"
                },
                {
                  "internalType": "int256",
                  "name": "B",
                  "type": "int256"
                },
                {
                  "internalType": "int256",
                  "name": "C",
                  "type": "int256"
                },
                {
                  "internalType": "int256",
                  "name": "D",
                  "type": "int256"
                },
                {
                  "internalType": "uint96",
                  "name": "totalSupply",
                  "type": "uint96"
                },
                {
                  "internalType": "uint96",
                  "name": "expTime",
                  "type": "uint96"
                },
                {
                  "internalType": "uint64",
                  "name": "discount",
                  "type": "uint64"
                },
                {
                  "internalType": "uint96",
                  "name": "initTime",
                  "type": "uint96"
                },
                {
                  "internalType": "uint96",
                  "name": "royalty",
                  "type": "uint96"
                },
                {
                  "internalType": "uint256",
                  "name": "chainId",
                  "type": "uint256"
                }
              ],
              "internalType": "struct DataStorage.Pricing[]",
              "name": "pricing",
              "type": "tuple[]"
            }
          ],
          "internalType": "struct DataStorage.Katibeh",
          "name": "katibeh",
          "type": "tuple"
        },
        {
          "internalType": "bytes",
          "name": "sig",
          "type": "bytes"
        },
        {
          "internalType": "bytes",
          "name": "data",
          "type": "bytes"
        },
        {
          "components": [
            {
              "internalType": "address payable",
              "name": "recipient",
              "type": "address"
            },
            {
              "internalType": "uint96",
              "name": "percentInBasisPoints",
              "type": "uint96"
            }
          ],
          "internalType": "struct PercentSplitETH.Share[]",
          "name": "dapps",
          "type": "tuple[]"
        }
      ],
      "name": "firstPrivateCollect",
      "outputs": [],
      "stateMutability": "payable",
      "type": "function"
    },
    {
      "inputs": [
        {
          "internalType": "address",
          "name": "collector",
          "type": "address"
        },
        {
          "internalType": "uint256",
          "name": "tokenHash",
          "type": "uint256"
        },
        {
          "internalType": "uint256",
          "name": "amount",
          "type": "uint256"
        },
        {
          "components": [
            {
              "internalType": "address",
              "name": "creator",
              "type": "address"
            },
            {
              "internalType": "uint96",
              "name": "signTime",
              "type": "uint96"
            },
            {
              "internalType": "uint256",
              "name": "initTime",
              "type": "uint256"
            },
            {
              "internalType": "string",
              "name": "tokenURI",
              "type": "string"
            },
            {
              "internalType": "bytes",
              "name": "data",
              "type": "bytes"
            },
            {
              "internalType": "uint256[]",
              "name": "toTokenHash",
              "type": "uint256[]"
            },
            {
              "internalType": "bytes32[]",
              "name": "tags",
              "type": "bytes32[]"
            },
            {
              "components": [
                {
                  "internalType": "address payable",
                  "name": "recipient",
                  "type": "address"
                },
                {
                  "internalType": "uint96",
                  "name": "percentInBasisPoints",
                  "type": "uint96"
                }
              ],
              "internalType": "struct PercentSplitETH.Share[]",
              "name": "owners",
              "type": "tuple[]"
            },
            {
              "components": [
                {
                  "internalType": "uint256",
                  "name": "A",
                  "type": "uint256"
                },
                {
                  "internalType": "int256",
                  "name": "B",
                  "type": "int256"
                },
                {
                  "internalType": "int256",
                  "name": "C",
                  "type": "int256"
                },
                {
                  "internalType": "int256",
                  "name": "D",
                  "type": "int256"
                },
                {
                  "internalType": "uint96",
                  "name": "totalSupply",
                  "type": "uint96"
                },
                {
                  "internalType": "uint96",
                  "name": "expTime",
                  "type": "uint96"
                },
                {
                  "internalType": "uint64",
                  "name": "discount",
                  "type": "uint64"
                },
                {
                  "internalType": "uint96",
                  "name": "initTime",
                  "type": "uint96"
                },
                {
                  "internalType": "uint96",
                  "name": "royalty",
                  "type": "uint96"
                },
                {
                  "internalType": "uint256",
                  "name": "chainId",
                  "type": "uint256"
                }
              ],
              "internalType": "struct DataStorage.Pricing[]",
              "name": "pricing",
              "type": "tuple[]"
            }
          ],
          "internalType": "struct DataStorage.Katibeh",
          "name": "katibeh",
          "type": "tuple"
        },
        {
          "internalType": "bytes",
          "name": "sig",
          "type": "bytes"
        },
        {
          "internalType": "bytes",
          "name": "data",
          "type": "bytes"
        },
        {
          "components": [
            {
              "internalType": "address payable",
              "name": "recipient",
              "type": "address"
            },
            {
              "internalType": "uint96",
              "name": "percentInBasisPoints",
              "type": "uint96"
            }
          ],
          "internalType": "struct PercentSplitETH.Share[]",
          "name": "dapps",
          "type": "tuple[]"
        }
      ],
      "name": "firstPublicCollect",
      "outputs": [],
      "stateMutability": "payable",
      "type": "function"
    },
    {
      "inputs": [],
      "name": "implementation",
      "outputs": [
        {
          "internalType": "contract Katibeh1155",
          "name": "",
          "type": "address"
        }
      ],
      "stateMutability": "view",
      "type": "function"
    },
    {
      "inputs": [
        {
          "internalType": "address",
          "name": "creatorAddr",
          "type": "address"
        },
        {
          "internalType": "string",
          "name": "tag0",
          "type": "string"
        }
      ],
      "name": "predictCollAddr",
      "outputs": [
        {
          "internalType": "address",
          "name": "",
          "type": "address"
        }
      ],
      "stateMutability": "view",
      "type": "function"
    },
    {
      "inputs": [
        {
          "internalType": "uint256",
          "name": "tokenHash",
          "type": "uint256"
        },
        {
          "internalType": "address",
          "name": "collector",
          "type": "address"
        },
        {
          "internalType": "uint256",
          "name": "amount",
          "type": "uint256"
        },
        {
          "internalType": "bytes",
          "name": "data",
          "type": "bytes"
        },
        {
          "components": [
            {
              "internalType": "address payable",
              "name": "recipient",
              "type": "address"
            },
            {
              "internalType": "uint96",
              "name": "percentInBasisPoints",
              "type": "uint96"
            }
          ],
          "internalType": "struct PercentSplitETH.Share[]",
          "name": "dapps",
          "type": "tuple[]"
        }
      ],
      "name": "privateCollect",
      "outputs": [],
      "stateMutability": "payable",
      "type": "function"
    },
    {
      "inputs": [
        {
          "components": [
            {
              "internalType": "address",
              "name": "addr",
              "type": "address"
            },
            {
              "internalType": "uint96",
              "name": "tokenId",
              "type": "uint96"
            }
          ],
          "internalType": "struct Factory1155.Collection",
          "name": "tokenInfo",
          "type": "tuple"
        },
        {
          "internalType": "address",
          "name": "collector",
          "type": "address"
        },
        {
          "internalType": "uint256",
          "name": "amount",
          "type": "uint256"
        },
        {
          "internalType": "bytes",
          "name": "data",
          "type": "bytes"
        },
        {
          "components": [
            {
              "internalType": "address payable",
              "name": "recipient",
              "type": "address"
            },
            {
              "internalType": "uint96",
              "name": "percentInBasisPoints",
              "type": "uint96"
            }
          ],
          "internalType": "struct PercentSplitETH.Share[]",
          "name": "dapps",
          "type": "tuple[]"
        }
      ],
      "name": "privateCollect",
      "outputs": [],
      "stateMutability": "payable",
      "type": "function"
    },
    {
      "inputs": [
        {
          "internalType": "address payable",
          "name": "newAddr",
          "type": "address"
        }
      ],
      "name": "setReceiver1",
      "outputs": [],
      "stateMutability": "nonpayable",
      "type": "function"
    },
    {
      "inputs": [],
      "name": "split",
      "outputs": [
        {
          "internalType": "contract PercentSplitETH",
          "name": "",
          "type": "address"
        }
      ],
      "stateMutability": "view",
      "type": "function"
    },
    {
      "inputs": [],
      "name": "startTime",
      "outputs": [
        {
          "internalType": "uint96",
          "name": "",
          "type": "uint96"
        }
      ],
      "stateMutability": "view",
      "type": "function"
    },
    {
      "inputs": [
        {
          "internalType": "address",
          "name": "",
          "type": "address"
        },
        {
          "internalType": "uint96",
          "name": "",
          "type": "uint96"
        }
      ],
      "name": "tokenPricing",
      "outputs": [
        {
          "internalType": "uint256",
          "name": "A",
          "type": "uint256"
        },
        {
          "internalType": "int256",
          "name": "B",
          "type": "int256"
        },
        {
          "internalType": "int256",
          "name": "C",
          "type": "int256"
        },
        {
          "internalType": "int256",
          "name": "D",
          "type": "int256"
        },
        {
          "internalType": "uint96",
          "name": "totalSupply",
          "type": "uint96"
        },
        {
          "internalType": "uint96",
          "name": "expTime",
          "type": "uint96"
        },
        {
          "internalType": "uint64",
          "name": "discount",
          "type": "uint64"
        },
        {
          "internalType": "uint96",
          "name": "initTime",
          "type": "uint96"
        },
        {
          "internalType": "uint96",
          "name": "royalty",
          "type": "uint96"
        },
        {
          "internalType": "uint256",
          "name": "chainId",
          "type": "uint256"
        }
      ],
      "stateMutability": "view",
      "type": "function"
    },
    {
      "inputs": [],
      "name": "totalValueLocked",
      "outputs": [
        {
          "internalType": "uint256",
          "name": "",
          "type": "uint256"
        }
      ],
      "stateMutability": "view",
      "type": "function"
    },
    {
      "inputs": [
        {
          "internalType": "uint256",
          "name": "tokenHash",
          "type": "uint256"
        }
      ],
      "name": "uri",
      "outputs": [
        {
          "internalType": "string",
          "name": "",
          "type": "string"
        }
      ],
      "stateMutability": "view",
      "type": "function"
    },
    {
      "inputs": [
        {
          "internalType": "address",
          "name": "",
          "type": "address"
        }
      ],
      "name": "userBalance",
      "outputs": [
        {
          "internalType": "uint256",
          "name": "",
          "type": "uint256"
        }
      ],
      "stateMutability": "view",
      "type": "function"
    },
    {
      "inputs": [],
      "name": "withdraw",
      "outputs": [],
      "stateMutability": "nonpayable",
      "type": "function"
    },
    {
      "inputs": [
        {
          "components": [
            {
              "internalType": "address",
              "name": "addr",
              "type": "address"
            },
            {
              "internalType": "uint96",
              "name": "tokenId",
              "type": "uint96"
            }
          ],
          "internalType": "struct Factory1155.Collection",
          "name": "tokenInfo",
          "type": "tuple"
        }
      ],
      "name": "withdraw",
      "outputs": [],
      "stateMutability": "nonpayable",
      "type": "function"
    }
  ],
  "bytecode": "0x60a0346200015e5762007395906001600160401b0390601f38849003908101601f1916820190838211838310176200014a57808391604096879485528339810103126200015e5780516001600160a01b0380821693909290918490036200015e5760200151906001600160601b03821682036200015e578451906114659182810192818410838511176200014a5762005f3082393083526020815f9403019083f09384156200014057825494166001600160a01b03199485161782558551906128e880830191838310908311176200012c57908291620036488339039082f09081156200012157506080523382600154161760015560a01b1617600955516134e5908162000163823960805181818161084e01528181610abe01526126580152f35b8551903d90823e3d90fd5b634e487b7160e01b84526041600452602484fd5b86513d84823e3d90fd5b634e487b7160e01b5f52604160045260245ffd5b5f80fdfe60806040526004361015610011575f80fd5b5f3560e01c80630103c92b1461013457806303c131481461012f57806308e7c4d01461012a5780630e89341c1461012557806339526cc7146101205780633ccfd60b1461011b57806348e3fa61146101165780635c60da1b146101115780635fd099e61461010c57806378e97925146101075780638191ea8314610102578063883e71d3146100fd578063968a577b146100f85780639c9bead4146100f35780639d58e53f146100ee578063dbe0a4d8146100e9578063ec18154e146100e45763f7654176146100df575f80fd5b611082565b611065565b610e0e565b610d2e565b610c55565b610c1a565b610baf565b610a13565b6108b6565b61087d565b610839565b6107a5565b610773565b610407565b6102d5565b610253565b6101a3565b610168565b6001600160a01b0381160361014a57565b5f80fd5b6004359061015b82610139565b565b359061015b82610139565b3461014a57602036600319011261014a5760043561018581610139565b60018060a01b03165f526003602052602060405f2054604051908152f35b3461014a57602036600319011261014a576004356101c081610139565b600154906001600160a01b039081831633036101ea576001600160a01b0319909216911617600155005b60405162461bcd60e51b815260206004820152603160248201527f4665654d616e616765723a204f6e6c79207265636569766572312063616e206360448201527068616e676520697473206164647265737360781b6064820152608490fd5b5f91031261014a57565b3461014a575f36600319011261014a576009546040516001600160a01b039091168152602090f35b5f5b83811061028c5750505f910152565b818101518382015260200161027d565b906020916102b58151809281855285808601910161027b565b601f01601f1916010190565b9060206102d292818152019061029c565b90565b3461014a57602036600319011261014a576103086102f4600435611137565b60405191829160208352602083019061029c565b0390f35b908161012091031261014a5790565b9181601f8401121561014a578235916001600160401b03831161014a576020838186019501011161014a57565b9181601f8401121561014a578235916001600160401b03831161014a576020808501948460061b01011161014a57565b9060e060031983011261014a5761038d61014e565b9160243591604435916001600160401b039160643583811161014a57826103b69160040161030c565b9260843581811161014a57836103ce9160040161031b565b9390939260a43583811161014a57826103e99160040161031b565b9390939260c43591821161014a5761040391600401610348565b9091565b61046061041336610378565b9461045961045461043b61043560c09d9e969c9d8b9c989b999699018c6113fa565b90611443565b355f1a60f81b6001600160f81b031916602360f81b1490565b61147f565b878a611d7e565b61047661047060a08701876113fa565b90612322565b61047f856125c1565b6001600160a01b038116966020878101936104d5916104ac6104a0876114dd565b60095460a01c9061151a565b604051631d24662960e31b81526001600160601b03909116600482015292839081906024820190565b03818d5afa9182156106e75789905f9361072b575b5061052b61052661052061051361051b8561050b60e0610537980182611548565b93909161157d565b92369161159e565b6129e4565b976114dd565b611622565b6001600160601b031690565b42116106ff575b6001600160a01b038a165f9081526007602052604090206105729083905b906001600160601b03165f5260205260405f2090565b506105e461057e612fc8565b9461059961058a61095a565b6001600160a01b039092168252565b6001600160601b03841660208201525b6105bb8d5f52600560205260405f2090565b815160209092015160a01b6001600160a01b0319166001600160a01b0392909216919091179055565b6105f160608a018a61163c565b908b3b1561014a5761061e918c5f9283604051809681958294634312207160e11b84528b6004850161168e565b03925af180156106e7576106ec575b50893b1561014a57604051635944c75360e01b81526001600160601b03831660048201526001600160a01b03861660248201526101f46044820152995f8b60648183855af19c8d156106e7576001600160601b036106af6106cc9f9b8f976106c69f8f6106bc9f9a6106a8926106b79c6106ce575b50613349565b36916109c2565b941691612829565b612b4b565b608081019061163c565b9061290b565b005b806106db6106e1926108ea565b80610249565b5f6106a2565b61112c565b806106db6106f9926108ea565b5f61062d565b6107266107208361055c8d60018060a01b03165f52600760205260405f2090565b60019055565b61053e565b61053791935061052661052061051361051b61076061052b9560203d811161076c575b6107588183610939565b810190611533565b979550505050506104ea565b503d61074e565b3461014a575f806003193601126107a257338152600360205261079e60408220828154915533612e09565b5080f35b80fd5b60a036600319011261014a576024356107bd81610139565b6001600160401b039060643582811161014a576107de90369060040161031b565b60849291923593841161014a576107fc6106cc943690600401610348565b9390926004355f52600560205260405f20906040519161081b83610902565b546001600160a01b038116835260a01c602083015260443591611a56565b3461014a575f36600319011261014a576040517f00000000000000000000000000000000000000000000000000000000000000006001600160a01b03168152602090f35b3461014a57602036600319011261014a576004355f5260056020526040805f205481519060018060a01b038116825260a01c6020820152f35b3461014a575f36600319011261014a57602060095460a01c604051908152f35b634e487b7160e01b5f52604160045260245ffd5b6001600160401b0381116108fd57604052565b6108d6565b604081019081106001600160401b038211176108fd57604052565b6101a081019081106001600160401b038211176108fd57604052565b90601f801991011681019081106001600160401b038211176108fd57604052565b6040519061015b82610902565b6040519061014082018281106001600160401b038211176108fd57604052565b6040519061012082018281106001600160401b038211176108fd57604052565b6001600160401b0381116108fd57601f01601f191660200190565b9291926109ce826109a7565b916109dc6040519384610939565b82948184528183011161014a578281602093845f960137010152565b9080601f8301121561014a578160206102d2933591016109c2565b3461014a57604036600319011261014a57600435610a3081610139565b602435906001600160401b03821161014a57610aba610b3e91610a86610a72610a8b610a636103089736906004016109f8565b604051928391602083016102c1565b0391610a86601f1993848101835282610939565b6113d8565b60405160609490941b6001600160601b0319166020850152603484015282605481015b03908101835282610939565b30907f00000000000000000000000000000000000000000000000000000000000000006001600160a01b0316916043916055936040519260388401526f5af43d82803e903d91602b57fd5bf3ff60248401526014830152733d602d80600a3d3981f3363d3d373d3d3d363d73825260588201526037600c8201206078820152012090565b6040516001600160a01b0390911681529081906020820190565b6001600160601b0381160361014a57565b359061015b82610b58565b604090600319011261014a5760405190610b8d82610902565b81600435610b9a81610139565b8152602060243591610bab83610b58565b0152565b60c036600319011261014a57610bc436610b74565b60443590610bd182610139565b6001600160401b039160843583811161014a57610bf290369060040161031b565b9060a43594851161014a57610c0e6106cc953690600401610348565b94909360643591611a56565b3461014a57602036600319011261014a57600435610c3781610139565b60018060a01b03165f526006602052602060405f2054604051908152f35b3461014a57604036600319011261014a57610cc76040610c7436610b74565b8051610c96906020906001600160a01b03165b9201516001600160601b031690565b825163152a902d60e11b81526001600160601b0390911660048201525f602482015292839190829081906044820190565b03915afa80156106e7576106cc915f91610cff575b506001600160a01b0381165f908152600360205260408120805491905590612e09565b610d20915060403d8111610d27575b610d188183610939565b810190611a37565b505f610cdc565b503d610d0e565b3461014a57604036600319011261014a57610d84600435610d4e81610139565b60243590610d5b82610b58565b60018060a01b03165f52600460205260405f20906001600160601b03165f5260205260405f2090565b805460018201546002830154600384015460048501546005860154600690960154604080519687526020870195909552938501929092526060808501919091526001600160601b03808316608086015282821c811660a086015260c092831c9285019290925281851660e08501529390931c90921661010082015261012081019190915261014090f35b610e52610eb9610e1d36610378565b959799969a919892939094610e4b610e46610e4261043b6104358d60c08101906113fa565b1590565b6116ae565b888b611d7e565b610e6261047060a08801886113fa565b610e7486610e6f8161157d565b6126f6565b906001600160a01b038216906020610e906104a08a83016114dd565b604051631d24662960e31b81526001600160601b03909116600482015297889081906024820190565b0381855afa9687156106e7575f97611045575b50610eeb61051b610ee060e08b018b611548565b91906105138c61157d565b93610f26610f01610efc368c61188e565b612ea2565b94610f0d61058a61095a565b6001600160601b038a1660208201526105a98187612459565b610f3360608a018a61163c565b90843b1561014a575f908a610f5c6040519485938493634312207160e11b85526004850161168e565b038183885af180156106e757611032575b506101008401516001600160601b031690833b1561014a57604051635944c75360e01b81526001600160601b038a811660048301526001600160a01b03881660248301529290921660448301525f8260648183885af19a8b156106e7578d61100c6106cc9f9b8f9c6106c69f988f986106bc9f6106af611011998e996106a861102c9f9e6110209f9560c09f6001600160601b03976106ce5750613349565b61322d565b9301516001600160401b031690565b6001600160401b031690565b90612ce4565b806106db61103f926108ea565b5f610f6d565b61105e91975060203d811161076c576107588183610939565b955f610ecc565b3461014a575f36600319011261014a576020600254604051908152f35b3461014a575f36600319011261014a575f546040516001600160a01b039091168152602090f35b906040516110b681610902565b91546001600160a01b038116835260a01c6020830152565b60208183031261014a578051906001600160401b03821161014a570181601f8201121561014a578051611100816109a7565b9261110e6040519485610939565b8184526020828401011161014a576102d2916020808501910161027b565b6040513d5f823e3d90fd5b6001600160a01b0381165f908152600660205260409020546111f6575f61117161116c6111c6935f52600560205260405f2090565b6110a9565b805161119a90602090610c879061118e906001600160a01b031681565b6001600160a01b031690565b6040516303a24d0760e21b81526001600160601b03909116600482015292839190829081906024820190565b03915afa9081156106e7575f916111db575090565b6102d2913d8091833e6111ee8183610939565b8101906110ce565b506040516112038161091d565b61017d81527f646174613a6170706c69636174696f6e2f6a736f6e3b6261736536342c65794a60208201527f755957316c496a6f67496b746864476c695a5767694c434a6b5a584e6a636d6c60408201527f7764476c766269493649434a4f6232347464484a68626e4e6d5a584a68596d7860608201527f6c49697769615731685a3255694f6941695a474630595470706257466e5a533960808201527f7a646d6372654731734f324a68633255324e43785153453479576e6c434d324660a08201527f58556a426852444270546c525a4d306c70516d396156327875595568524f556c60c08201527f7156544a4f65556c6e5a55637863324a7554546c4a625767775a4568424e6b7860e08201527f354f544e6b4d324e315a48704e6457497a536d354d656b6c3354555242646d4d6101008201527f7a576d354a616a51345a4564574e475244516a525155306b7854554e5661556c6101208201527f49617a6c4a616d4e33536c4e4a5a325248566a526b517a466f596d314f6232496101408201527f7a53546c4a62544677576b645363317054535374544d6b59775956644b6247466101608201527f4564335a6b523159305a4551304f45777a546a4a61656a5139496e303d00000061018082015290565b6020815191015190602081106113ec575090565b5f199060200360031b1b1690565b903590601e198136030182121561014a57018035906001600160401b03821161014a57602001918160051b3603831361014a57565b634e487b7160e01b5f52603260045260245ffd5b901561144c5790565b61142f565b906001101561144c5760200190565b906002101561144c5760400190565b919081101561144c5760051b0190565b1561148657565b60405162461bcd60e51b815260206004820152602960248201527f466163746f7279313135353a204f6e6c79207075626c696320636f6c6c6563746044820152681030b63637bbb2b21760b91b6064820152608490fd5b356102d281610b58565b634e487b7160e01b5f52601160045260245ffd5b6001600160601b03908116610e0f19019190821161151557565b6114e7565b6001600160601b03918216908216039190821161151557565b9081602091031261014a57516102d281610b58565b903590601e198136030182121561014a57018035906001600160401b03821161014a57602001918160061b3603831361014a57565b356102d281610139565b6001600160401b0381116108fd5760051b60200190565b9291926115aa82611587565b6040926115b984519283610939565b819581835260208093019160061b84019381851161014a57915b8483106115e257505050505050565b858383031261014a5783869182516115f981610902565b853561160481610139565b81528286013561161381610b58565b838201528152019201916115d3565b90620151806001600160601b038093160191821161151557565b903590601e198136030182121561014a57018035906001600160401b03821161014a5760200191813603831361014a57565b908060209392818452848401375f828201840152601f01601f1916010190565b6040906001600160601b036102d29593168152816020820152019161166e565b156116b557565b60405162461bcd60e51b815260206004820152602a60248201527f466163746f7279313135353a204f6e6c79207072697661746520636f6c6c65636044820152693a1030b63637bbb2b21760b11b6064820152608490fd5b9080601f8301121561014a57602090823561172781611587565b936117356040519586610939565b818552838086019260051b82010192831161014a578301905b82821061175c575050505090565b8135815290830190830161174e565b9080601f8301121561014a578160206102d29335910161159e565b35906001600160401b038216820361014a57565b81601f8201121561014a5780359060206117b383611587565b9360406117c281519687610939565b84865282860191836101408097028601019481861161014a578401925b8584106117f0575050505050505090565b868483031261014a57848791611804610967565b863581528287013583820152858701358682015260608088013590820152608061182f818901610b69565b9082015260a0611840818901610b69565b9082015260c0611851818901611786565b9082015260e0611862818901610b69565b90820152610100611874818901610b69565b9082015261012080880135908201528152019301926117df565b91906101208382031261014a576118a3610987565b926118ad8161015d565b84526118bb60208201610b69565b6020850152604081013560408501526060810135916001600160401b039283811161014a57816118ec9184016109f8565b6060860152608082013583811161014a57816119099184016109f8565b608086015260a082013583811161014a578161192691840161170d565b60a086015260c082013583811161014a578161194391840161170d565b60c086015260e082013583811161014a578161196091840161176b565b60e0860152610100928383013590811161014a5761197e920161179a565b90830152565b90600661198f610967565b8354815260018401546020820152600284015460408201526003840154606082015260048401546001600160601b038082166080840152919491611a1e916119f1906001600160601b03606082901c84161660a089015260c090811c90880152565b60058301546001600160601b038282161660e088015260601c166101008601906001600160601b03169052565b0154610120830152565b9081602091031261014a575190565b919082604091031261014a5760208251611a5081610139565b92015190565b80516001600160a01b03165f818152600460209081526040909120920180519498979690959490939192611aad91611aa891906001600160601b03165b6001600160601b03165f5260205260405f2090565b611984565b94611aed6020611ac483516001600160601b031690565b60405163bd85b03960e01b81526001600160601b03909116600482015291829081906024820190565b0381875afa9283156106e7578a604096611b3a611b1d8b611b7f9f611b4e99611b41985f91611bd8575b506132ad565b99611b3261052b88516001600160601b031690565b9236916109c2565b9287612829565b516001600160601b031690565b825163152a902d60e11b81526001600160601b0390911660048201525f602482015296879190829081906044820190565b03915afa9182156106e75761015b955f93611bac575b5060c0015161102c906001600160401b0316611020565b61102c91935060c0611bce6110209260403d8111610d2757610d188183610939565b5094925050611b95565b611bf9915060203d8111611bff575b611bf18183610939565b810190611a28565b5f611b17565b503d611be7565b15611c0d57565b60405162461bcd60e51b815260206004820152602a60248201527f466163746f7279313135353a2054686973206973206e6f7420746865206669726044820152691cdd0818dbdb1b1958dd60b21b6064820152608490fd5b15611c6c57565b60405162461bcd60e51b815260206004820152601e60248201527f466163746f7279313135353a20496e76616c6964207369676e617475726500006044820152606490fd5b9081602091031261014a5751801515810361014a5790565b939291602091611ce19160408752604087019161166e565b930152565b15611ced57565b60405162461bcd60e51b815260206004820152601b60248201527f466163746f7279313135353a2077726f6e6720746f6b656e20696400000000006044820152606490fd5b15611d3957565b60405162461bcd60e51b815260206004820152601b60248201527f466163746f7279313135353a2077726f6e67207369676e54696d6500000000006044820152606490fd5b602090611e009460018060a01b0390611dba82611db3611da6865f52600560205260405f2090565b546001600160a01b031690565b1615611c06565b611ddf611dda611dc98761157d565b611dd288612169565b90848a611e9b565b611c65565b600954956040519788948593849363096c872360e01b855260048501611cc9565b039186165afa9081156106e757611e2460209261015b955f91611e6e575b50611ce6565b0190611e37611e32836114dd565b6114fb565b426001600160601b03918216109283611e53575b505050611d32565b611e5f919293506114dd565b9160a01c9116115f8080611e4b565b611e8e9150843d8111611e94575b611e868183610939565b810190611cb1565b5f611e1e565b503d611e7c565b9192906040519060208201927f19457468657265756d205369676e6564204d6573736167653a0a3332000000008452603c830152603c8252606082018281106001600160401b038211176108fd576020945f94608094611f03936040525190209236916109c2565b8481015160606040830151920151604051938452851a868401526040830152606082015282805260015afa156106e7575f516001600160a01b0390811691161490565b9035601e198236030181121561014a5701602081359101916001600160401b03821161014a57813603831361014a57565b9035601e198236030181121561014a5701602081359101916001600160401b03821161014a578160051b3603831361014a57565b81835290916001600160fb1b03831161014a5760209260051b809284830137010190565b9035601e198236030181121561014a5701602081359101916001600160401b03821161014a578160061b3603831361014a57565b9190808252602080920192915f905b828210612020575050505090565b90919293600190853561203281610139565b828060a01b031681526001600160601b038387013561205081610b58565b16818401526040908101950193920190612012565b9035601e198236030181121561014a5701602081359101916001600160401b03821161014a5761014082023603831361014a57565b9190808252602080920192915f905b8282106120b7575050505090565b9091929360019085358152828601358382015260408087013590820152606080870135908201526120fd60806120ee818901610b69565b6001600160601b031690830152565b61210d60a06120ee818901610b69565b61212c60c061211d818901611786565b6001600160401b031690830152565b61213c60e06120ee818901610b69565b61214d6101006120ee818901610b69565b61012086810135908201526101409081019501939201906120a9565b60405161229c8161228e6121ec60208301956020875261219c6040850161218f8361015d565b6001600160a01b03169052565b6121bb6121ab60208301610b69565b6001600160601b03166060860152565b6040810135608085015261227e6121d56060830183611f46565b9390610120948560a089015261016088019161166e565b916122756122346122176122036080850185611f46565b603f198b8903810160c08d0152979161166e565b61222460a0850185611f77565b90878b84030160e08c0152611fab565b9461225861224560c0850185611f77565b6101009891888c8403018a8d0152611fab565b9061226660e0850185611fcf565b91878b850301908b0152612003565b93810190612065565b918584030161014086015261209a565b03601f198101835282610939565b51902090565b5f1981146115155760010190565b156122b757565b60405162461bcd60e51b815260206004820152603a60248201527f466163746f7279313135353a20746f20746f6b656e206861736820686173206e60448201527f6f74206d696e746564206f6e2063757272656e7420636861696e0000000000006064820152608490fd5b905f805b8281106123335750505050565b6001600160a01b0361235b611da661234c84878961146f565b355f52600560205260405f2090565b1690811515918261237e575b50612374612379926122b0565b6122a2565b612326565b91506123b361238e82868861146f565b35604051809463bd85b03960e01b825281806020958695600483019190602083019252565b03915afa80156106e757612379936123749286926123d7575b505015159250612367565b6123ed9250803d10611bff57611bf18183610939565b5f806123cc565b156123fb57565b60405162461bcd60e51b815260206004820152603060248201527f466163746f7279313135353a20746f6b656e2073616c652074696d652068617360448201526f081b9bdd081cdd185c9d1959081e595d60821b6064820152608490fd5b61255c60c06124ac61015b9461248761247f61052b60e08801516001600160601b031690565b4210156123f4565b80516001600160a01b03165f908152600460209081526040909120611a939190610c87565b928051845560208101516001850155604081015160028501556060810151600385015561250760046124e860808401516001600160601b031690565b95019485906001600160601b03166001600160601b0319825416179055565b61254e61251e60a08301516001600160601b031690565b85546bffffffffffffffffffffffff60601b191660609190911b6bffffffffffffffffffffffff60601b16178555565b01516001600160401b031690565b81546001600160c01b031660c09190911b6001600160c01b031916179055565b6001600160a01b0390911681526060602082018190526040926125a19183019061029c565b90828183039101526007815266096c2e8d2c4cad60cb1b60208201520190565b9060c082016125dc6125d661043583866113fa565b356127ae565b926001600160a01b0380851692853b156125f7575b50505050565b610aae9161268d6104356126a29361267d6126118861157d565b94612655612622610435858c6113fa565b60405160609890981b6001600160601b0319166020890152356034808901919091528752601f1996610a86605482610939565b907f000000000000000000000000000000000000000000000000000000000000000016612715565b506126878761157d565b966113fa565b35604051938491602083019190602083019252565b823b1561014a576126cc925f928360405180968195829463b2b45df560e01b84526004840161257c565b03925af180156106e7576126e3575b8080806125f1565b806106db6126f0926108ea565b5f6126db565b9190916125dc60c084019161270e61043584876113fa565b35906127e7565b6e5af43d82803e903d91602b57fd5bf390763d602d80600a3d3981f3363d3d373d3d3d363d7300000062ffffff8260881c16175f5260781b17602052603760095ff5906001600160a01b0382161561276957565b60405162461bcd60e51b815260206004820152601760248201527f455243313136373a2063726561746532206661696c65640000000000000000006044820152606490fd5b604051905f6020830152603482015260348152606081018181106001600160401b038211176108fd576102d291610aba916040526113d8565b60405160609190911b6001600160601b031916602082015260348101919091526102d290610aba90610a86816054810161228e565b9190820180921161151557565b91936001600160a01b039283169290833b1561014a5761287e935f928360405180978195829463731133e960e01b845289169b8c600485015260248401528a604484015260806064840152608483019061029c565b03925af19081156106e7576128b8926128b0926128f8575b506001600160a01b03165f90815260066020526040902090565b91825461281c565b905560408051828152600160208201525f9130917fc3d58168c5ae7397731d063d5bbf3d657854427343f4c083240f7aacaa2d0f6291819081015b0390a4565b806106db612905926108ea565b5f612896565b8161291557505050565b7fe3efb4090b64f6dead06906e59a91359e0c1ca9cad88a633d749431442e5bebf9161294e60405192839260208452602084019161166e565b0390a2565b9081602091031261014a57516102d281610139565b60208082019080835283518092528060408094019401925f905b83821061299157505050505090565b845180516001600160a01b031687528301516001600160601b0316868401529485019493820193600190910190612982565b80511561144c5760200190565b805182101561144c5760209160051b010190565b8051806129f057505090565b909150600103612a175761118e612a096102d2926129c3565b51516001600160a01b031690565b6020612a4e5f92612a3161118e855460018060a01b031690565b906040519485809481936326b8692f60e21b835260048301612968565b03925af19081156106e7575f91612a6d575b506001600160a01b031690565b612a8e915060203d8111612a94575b612a868183610939565b810190612953565b5f612a60565b503d612a7c565b15612aa257565b60405162461bcd60e51b815260206004820152601c60248201527f4665654d616e616765723a20696e73756666696369656e7420466565000000006044820152606490fd5b90605f820291808304605f149015171561151557565b8181029291811591840414171561151557565b8115612b1a570490565b634e487b7160e01b5f52601260045260245ffd5b919081101561144c5760061b0190565b9190820391821161151557565b909392612b5a82341015612a9b565b612b6f612b6683612ae7565b620186a0900490565b925f90815b838110612c605750825f5b818110612bf257505050505f5b818110612bc757505061015b929350803411612bad575b5060025401600255565b612bba612bc09134612b3e565b33612e09565b505f612ba3565b6001600160a01b0386165f908152600360205260409020805485019055612bed906122a2565b612b8c565b61237482612c3886612c33612c2d61052b6020612c2789612c20612c1b828f9e612c599f612b2e565b61157d565b988d612b2e565b016114dd565b8c612afd565b612b10565b6001600160a01b039091165f90815260036020526040902080549091019055565b8390612b7f565b91612c81612c8791612c7b61052b6020612c27888a89612b2e565b9061281c565b926122a2565b612b74565b15612c9357565b60405162461bcd60e51b8152602060048201526024808201527f4665654d616e616765723a204d6178696d756d20646973636f756e74206973206044820152633130302560e01b6064820152608490fd5b93919290612cf485341015612a9b565b84612d18575b50505050803411612d085750565b612bba612d159134612b3e565b50565b6001600160601b031691612d30612710841115612c8c565b5f9280612d59575b50505090612d49612d4f9284612b3e565b90612e09565b505f808080612cfa565b612d7291929350612d6a9086612afd565b612710900490565b915f805b838110612de357505f5b838110612da8575050505090612d4982612da0612d4f9460025401600255565b91925f612d38565b8061237484612c3885612c33612dd861052b6020612c27898e612dd2612c1b612dde9e838d612b2e565b99612b2e565b8b612afd565b612d80565b90612dfe612e0491612c7b61052b6020612c27878a8a612b2e565b916122a2565b612d76565b5f918291829182916001600160a01b03165af13d156102d2573d612e2c816109a7565b90612e3a6040519283610939565b81525f60203d92013e90565b6040519061014082018281106001600160401b038211176108fd57604052816101205f918281528260208201528260408201528260608201528260808201528260a08201528260c08201528260e0820152826101008201520152565b61010090612eae612e46565b5001805151908115612f83575f5b828110612f5e57505f5b828110612f2a5760405162461bcd60e51b815260206004820152602f60248201527f4665654d616e616765723a2050726963696e67206973206e6f7420736574206f60448201526e37103a3434b99031b430b4b724b21760891b6064820152608490fd5b610120612f388284516129d0565b51015115612f4e57612f49906122a2565b612ec6565b90612f5a9250516129d0565b5190565b46610120612f6d8385516129d0565b51015114612f4e57612f7e906122a2565b612ebc565b60405162461bcd60e51b815260206004820152601f60248201527f4665654d616e616765723a2050726963696e67206973206e6f74207365742e006044820152606490fd5b670de0b6b3a76400005f670f43fc2c04ee0000815b612fe657505090565b80612ff0916130b8565b9060018116613004575b60011c9081612fdd565b918161300f916130b8565b91612ffa565b670de0b6b3a764000091905f90815b61302c575050565b80613036916130b8565b90816001821661304c575b5060011c9081613024565b61305691946130b8565b925f613041565b9091906001808416156130aa57815b93811c91825b61307b57505050565b80613085916130b8565b9182828216613099575b50811c9182613072565b6130a391956130b8565b935f61308f565b670de0b6b3a764000061306c565b5f19828209828202908180821091039381850393670de0b6b3a764000091829109916706f05b59d3b1ffff831195146131275783101561014a577faccb18165bd6fe31ae1cf318dc5b51eee0e1ba569b88cd74c1773b91fac1066992828211900360ee1b910360121c17020190565b925050040190565b1561313657565b60405162461bcd60e51b815260206004820152602760248201527f466163746f7279313135353a20746f6b656e2073616c652074696d6520697320604482015266195e1c1a5c995960ca1b6064820152608490fd5b1561319257565b60405162461bcd60e51b8152602060048201526024808201527f466163746f7279313135353a204d6178696d756d20737570706c7920726561636044820152633432b21760e11b6064820152608490fd5b81810292915f8212600160ff1b82141661151557818405149015171561151557565b905f821280151661151557565b9190915f838201938412911290801582169115161761151557565b613258906001600160601b0361324b8160a08601511642111561312f565b608084015116101561318b565b670de0b6b3a764000061327960208301516132738451613015565b906131e3565b0590600160408201511517156115155760606132976132a093613205565b91015190613212565b5f8112156102d257505f90565b91906132c86001600160601b0360a08401511642111561312f565b820191828111611515576132976060916132fd6132a0956132f661052b60808801516001600160601b031690565b101561318b565b61332f613324613316602087015161327385895161305d565b670de0b6b3a7640000900590565b9160408601516131e3565b90613212565b81604051928392833781015f815203902090565b906133538161157d565b613369613363608084018461163c565b90613335565b5f916001600160a01b0316847fc0d62261ee30fa727eab11180362380f5a2d6af2c9ec2b14537843182c7c58268480a460a082016133a781846113fa565b919050825b828110613467575050507fb237134d29775150b1edf87af1dc343262244af7cbb474cfc64cb6e8824af6636128f360c084016133e881866113fa565b9590508515613461576133fe61043583836113fa565b35945b600187111561345857600261341f61341985856113fa565b90611451565b35975b111561344f575061343c91613436916113fa565b90611460565b35945b6040519081529081906020820190565b9150509461343f565b60028197613422565b84613401565b8061347f6134aa9261347985896113fa565b9061146f565b35877f65327253f8d67c2e23cb4dfab28ca7437b04e9098cf4e985073d76df25209ad48780a36122a2565b6133ac56fea26469706673582212206a06c9cace16e909cf4c286f577df5c1dc37480404a87a0b65ac53561dc0d84264736f6c6343000815003360a0346200010057602081016001600160401b03811182821017620000ec576040525f8091526200003260025462000104565b601f8111620000ab575b50806002556200004e60045462000104565b601f811162000087575b5f600455336080526040516127909081620001588239608051818181610ec1015281816110b401526115920152f35b601f6020836004620000a3955220910160051c8101906200013f565b5f8062000058565b60028252620000e590601f0160051c7f405787fa12a823e0f2b7631cc41b3ba8828b3321ca811111fa75cd3aa3bb5ace908101906200013f565b5f6200003c565b634e487b7160e01b5f52604160045260245ffd5b5f80fd5b90600182811c9216801562000134575b60208310146200012057565b634e487b7160e01b5f52602260045260245ffd5b91607f169162000114565b8181106200014b575050565b5f81556001016200013f56fe60806040526004361015610011575f80fd5b5f3560e01c8062fdd58e14611e2d57806301ffc9a714611da557806306fdde0314611cfd5780630e89341c14611cca5780632a55205a14611c205780632eb2c2d6146118715780634e1273f4146116d45780634f558e79146116a85780635944c753146115565780636b20c45414611314578063731133e914611066578063862440e214610e6d5780638da5cb5b14610e4157806395d89b4114610d60578063a22cb46514610c80578063b2b45df5146107fe578063bd85b039146107d4578063e92331481461076a578063e985e9c514610718578063f242432a146103055763f5298aca146100ff575f80fd5b3461030157606036600319011261030157610118611e5c565b60249060448035916001600160a01b031690833533831480156102dc575b61013f9061211e565b82159261014c84156123eb565b610155826123c6565b9161015f866123c6565b945f60405161016d81611edb565b52610285575b5f5b83518110156102095761018881856120f6565b5161019382886120f6565b5190805f526003602081815260405f2054928484106101c857906101c395949392915f52520360405f20556120e8565b610175565b506084905f8051602061273b8339815191528a60288f6040519462461bcd60e51b8652600486015284015282015267616c537570706c7960c01b6064820152fd5b5f838389818452836020526040842083855260205280604085205461023082821015612443565b838652856020526040862085875260205203604085205560405191825260208201527fc3d58168c5ae7397731d063d5bbf3d657854427343f4c083240f7aacaa2d0f6260403392a4610283604051611edb565b005b94919592905f5b87518110156102d157806102a36102cc92886120f6565b516102ae828b6120f6565b515f5260036020526102c560405f2091825461223a565b90556120e8565b61028c565b509092959194610173565b50825f52600160205260405f20335f5260205261013f60ff60405f2054169050610136565b5f80fd5b346103015760a03660031901126103015761031e611e5c565b610326611e72565b6084356001600160401b03811161030157610345903690600401612017565b6001600160a01b039190838316331480156106f1575b6103649061211e565b828216156103728115612181565b61037d6044356123c6565b906103896064356123c6565b90858716156106b6575b610612575b6044355f525f60205260405f208587165f5260205260405f20546103c06064358210156121db565b6044355f90815260208181526040808320898b16845290915280822060643593849003905586881682529020805490916103f99161223a565b90556040516044358152606435602082015285851690868816907fc3d58168c5ae7397731d063d5bbf3d657854427343f4c083240f7aacaa2d0f6260403392a482516105a6575b5050813b61044a57005b602091610495915f6040519586809581948363f23a6e6160e01b9b8c85523360048601521660248401526044356044840152606435606484015260a0608484015260a4830190611f38565b0393165af15f9181610575575b5061050e576104af6122e9565b6308c379a0146104d7575b60405162461bcd60e51b8152806104d360048201612371565b0390fd5b6104df612304565b806104ea57506104ba565b60405162461bcd60e51b8152602060048201529081906104d3906024830190611f38565b6001600160e01b0319160361051f57005b60405162461bcd60e51b815260206004820152602860248201527f455243313135353a204552433131353552656365697665722072656a656374656044820152676420746f6b656e7360c01b6064820152608490fd5b61059891925060203d60201161059f575b6105908183611ef6565b8101906122c9565b90836104a2565b503d610586565b7f64b6d1b9c6726b4405acbd47f33ee45712403cd8422e6b9ccb562c0dec7965d4916106086105fa6105ec93604051948594338652608060208701526080860190612035565b908482036040860152612035565b828103606084015285611f38565b0390a18480610440565b94919390925f5b84518110156106ab5761062c81866120f6565b519061063881896120f6565b51825f52600360205260405f205481811061066857610663935f5260036020520360405f20556120e8565b610619565b60405162461bcd60e51b815260206004820152602860248201525f8051602061273b833981519152604482015267616c537570706c7960c01b6064820152608490fd5b509290939194610398565b9491939095925f5b85518110156106e557806106d56106e0928a6120f6565b516102ae82896120f6565b6106be565b50929590939194610393565b508284165f52600160205260405f20335f5260205261036460ff60405f205416905061035b565b3461030157604036600319011261030157610731611e5c565b610739611e72565b9060018060a01b038091165f52600160205260405f2091165f52602052602060ff60405f2054166040519015158152f35b3461030157602080600319360112610301576001600160601b036004358181168103610301575b81811690815f526003845260405f2054156107ca57508181146107b657600101610791565b634e487b7160e01b5f52601160045260245ffd5b6040519216825250f35b34610301576020366003190112610301576004355f526003602052602060405f2054604051908152f35b3461030157606036600319011261030157610817611e5c565b6001600160401b039060243582811161030157610838903690600401612017565b9160443581811161030157610851903690600401612017565b9060069081549260ff8460081c161595868097610c73575b8015610c5c575b15610c0057600194878660ff198316178655610bef575b508051838111610ae3578061089d600954611e88565b92601f93848111610b81575b50602090848311600114610b02575f92610af7575b50505f19600383901b1c191690861b176009555b8151928311610ae35782916108e8600a54611e88565b828111610a73575b5060209183116001146109f4575f926109e9575b50505f19600383901b1c191690831b17600a555b80549260ff8460081c16156109905762010000600160b01b0360109190911b1662010000600160b01b03198416811782559361095057005b610100600160b01b031990921690921790556040519081527f7f26b83ff96e1f2b6a682f133852f6798a09c465da95921460cefb384740249890602090a1005b60405162461bcd60e51b815260206004820152602b60248201527f496e697469616c697a61626c653a20636f6e7472616374206973206e6f74206960448201526a6e697469616c697a696e6760a81b6064820152608490fd5b015190508680610904565b90859350601f19831691600a5f527fc65a7bb8d6351c1cf70c95a316cc6a92839c986682d98bc35f958f4883f9d2a8925f5b818110610a5b57508411610a43575b505050811b01600a55610918565b01515f1960f88460031b161c19169055868080610a35565b82840151855588969094019360209384019301610a26565b90919250600a5f527fc65a7bb8d6351c1cf70c95a316cc6a92839c986682d98bc35f958f4883f9d2a88380860160051c82019260208710610ada575b91869589929594930160051c01915b828110610acc5750506108f0565b5f8155869550889101610abe565b92508192610aaf565b634e487b7160e01b5f52604160045260245ffd5b0151905089806108be565b90889350601f1983169160095f527f6e1540171b6c0c960b71a7020d9f60077f6af931a8bbf590da0223dacf75c7af925f5b818110610b6957508411610b51575b505050811b016009556108d2565b01515f1960f88460031b161c19169055898080610b43565b8284015185558b969094019360209384019301610b34565b90915060095f527f6e1540171b6c0c960b71a7020d9f60077f6af931a8bbf590da0223dacf75c7af8480850160051c82019260208610610be6575b918a91869594930160051c01915b828110610bd85750506108a9565b5f81558594508a9101610bca565b92508192610bbc565b61ffff191661010117845587610887565b60405162461bcd60e51b815260206004820152602e60248201527f496e697469616c697a61626c653a20636f6e747261637420697320616c72656160448201526d191e481a5b9a5d1a585b1a5e995960921b6064820152608490fd5b50303b1580156108705750600160ff861614610870565b50600160ff861610610869565b3461030157604036600319011261030157610c99611e5c565b60243590811515809203610301576001600160a01b031690338214610d0957335f52600160205260405f20825f5260205260405f2060ff1981541660ff83161790556040519081527f17307eab39ab6107e8899845ad3d59bd9653f200f220920489ca2b5937696c3160203392a3005b60405162461bcd60e51b815260206004820152602960248201527f455243313135353a2073657474696e6720617070726f76616c20737461747573604482015268103337b91039b2b63360b91b6064820152608490fd5b34610301575f36600319011261030157604051600a545f82610d8183611e88565b918282526020936001908582821691825f14610e21575050600114610dc6575b50610dae92500383611ef6565b610dc2604051928284938452830190611f38565b0390f35b849150600a5f527fc65a7bb8d6351c1cf70c95a316cc6a92839c986682d98bc35f958f4883f9d2a8905f915b858310610e09575050610dae935082010185610da1565b80548389018501528794508693909201918101610df2565b60ff191685820152610dae95151560051b8501019250879150610da19050565b34610301575f3660031901126103015760065460405160109190911c6001600160a01b03168152602090f35b34610301576040366003190112610301576001600160401b0360043560243582811161030157366023820112156103015780600401359083821161030157366024838301011161030157610ef991610eef337f00000000000000000000000000000000000000000000000000000000000000006001600160a01b03161461249b565b6024369201611fd2565b91815f526020906005825260405f20908451908111610ae357610f1c8254611e88565b601f8111611023575b5082601f8211600114610fa05781907f6bb7ff708619ba0610cba295a58592e0451dee2622938c8755667688daf3529b95965f92610f95575b50508160011b915f199060031b1c19161790555b610f7b836124fd565b90610f90604051928284938452830190611f38565b0390a2005b015190508680610f5e565b601f19821695835f52845f20965f5b81811061100c5750917f6bb7ff708619ba0610cba295a58592e0451dee2622938c8755667688daf3529b969791846001959410610ff4575b505050811b019055610f72565b01515f1960f88460031b161c19169055868080610fe7565b838301518955600190980197928601928601610faf565b825f52835f20601f830160051c81019185841061105c575b601f0160051c01905b8181106110515750610f25565b5f8155600101611044565b909150819061103b565b346103015760803660031901126103015761107f611e5c565b604435906024356064356001600160401b038111610301576110a5903690600401612017565b906001600160a01b036110db337f000000000000000000000000000000000000000000000000000000000000000083161461249b565b831680156112c5576110ec826123c6565b946110f6816123c6565b935f5b875181101561111557806102a361111092886120f6565b6110f9565b50858795855f526020965f885260405f20865f52885260405f2061113a86825461223a565b9055855f604051898152878b8201527fc3d58168c5ae7397731d063d5bbf3d657854427343f4c083240f7aacaa2d0f6260403392a4878451611268575b5050503b61118157005b6111c49285925f60405180968195829463f23a6e6160e01b9a8b85523360048601528560248601526044850152606484015260a0608484015260a4830190611f38565b03925af15f9181611249575b5061123657826111de6122e9565b6308c379a0146112015760405162461bcd60e51b8152806104d360048201612371565b611209612304565b908161121557506104ba565b6104d360405192839262461bcd60e51b845260048401526024830190611f38565b6001600160e01b03191603905061051f57005b611261919250843d861161059f576105908183611ef6565b90846111d0565b6112ba6112ac7f64b6d1b9c6726b4405acbd47f33ee45712403cd8422e6b9ccb562c0dec7965d4946105ec6080956040519687963388528701526080860190612035565b828103606084015286611f38565b0390a1868087611177565b60405162461bcd60e51b815260206004820152602160248201527f455243313135353a206d696e7420746f20746865207a65726f206164647265736044820152607360f81b6064820152608490fd5b346103015760603660031901126103015761132d611e5c565b6024906001600160401b0390823582811161030157611350903690600401611f74565b9160449081359081116103015761136b903690600401611f74565b6001600160a01b03909216923384148015611531575b61138a9061211e565b831561139681156123eb565b6113a38251855114612247565b5f6040516113b081611edb565b526114fa575b5f5b815181101561144c576113cb81836120f6565b516113d682866120f6565b5190805f526003602081815260405f20549284841061140b579061140695949392915f52520360405f20556120e8565b6113b8565b60405162461bcd60e51b8152600481018390526028818d01525f8051602061273b833981519152818a015267616c537570706c7960c01b6064820152608490fd5b8382865f5b82518110156114b657806114686114b192856120f6565b5161147382876120f6565b5190805f5260205f815260405f20865f52815260405f20549161149884841015612443565b5f525f815260405f2090865f52520360405f20556120e8565b611451565b50907f4a39dc06d4c0dbc64b70af90fd698a233a518aa5d07e595d983b8c0526c8f7fb6114ec5f946040519182913395836122a4565b0390a4610283604051611edb565b925f9491945b8451811015611527578061151761152292866120f6565b516102ae82886120f6565b611500565b50929390936113b6565b50835f52600160205260405f20335f5260205261138a60ff60405f2054169050611381565b346103015760603660031901126103015761156f611e72565b6044356001600160601b038116809103610301576001600160a01b03916115b9337f000000000000000000000000000000000000000000000000000000000000000085161461249b565b612710821161165057821691821561160b57604051926115d884611ec0565b8352602083019182526004355f52600860205260405f20925116906001600160601b0360a01b905160a01b161790555f80f35b60405162461bcd60e51b815260206004820152601b60248201527f455243323938313a20496e76616c696420706172616d657465727300000000006044820152606490fd5b60405162461bcd60e51b815260206004820152602a60248201527f455243323938313a20726f79616c7479206665652077696c6c206578636565646044820152692073616c65507269636560b01b6064820152608490fd5b34610301576020366003190112610301576004355f526003602052602060405f20541515604051908152f35b34610301576040366003190112610301576004356001600160401b0380821161030157366023830112156103015781600401359061171182611f5d565b9261171f6040519485611ef6565b82845260209260248486019160051b8301019136831161030157602401905b8282106118525750505060243590811161030157611760903690600401611f74565b82518151036117fb5782519261177584611f5d565b936117836040519586611ef6565b808552611792601f1991611f5d565b0136848601375f5b81518110156117e4576117df906117cf6001600160a01b036117bc83866120f6565b51166117c883876120f6565b5190612068565b6117d982886120f6565b526120e8565b61179a565b505050610dc2604051928284938452830190612035565b60405162461bcd60e51b815260048101839052602960248201527f455243313135353a206163636f756e747320616e6420696473206c656e677468604482015268040dad2e6dac2e8c6d60bb1b6064820152608490fd5b81356001600160a01b038116810361030157815290840190840161173e565b346103015760031960a0368201126103015761188b611e5c565b90611894611e72565b6044908135926001600160401b0393848111610301576118b8903690600401611f74565b60648035868111610301576118d1903690600401611f74565b946084968735908111610301576118ec903690600401612017565b6001600160a01b039489861633148015611bf9575b61190a9061211e565b6119178551895114612247565b858716156119258115612181565b868b1615611bb7575b611b08575b5f5b85518110156119bc578061194c6119b792886120f6565b518c611958838d6120f6565b5191805f52826020925f845260405f208d82165f52845260405f205490611981838310156121db565b835f525f85528d60405f2091165f5284520360405f20555f525f815260405f20908a8c165f52526102c560405f2091825461223a565b611935565b50888a989796949789604051887f4a39dc06d4c0dbc64b70af90fd698a233a518aa5d07e595d983b8c0526c8f7fb89808d16941692806119fe873395836122a4565b0390a48351611aa2575b873b611a1057005b60405198899788968863bc197c8160e01b9d8e8a523360048b0152166024890152870160a0905260a48701611a4491612035565b90848783030190870152611a5791612035565b918483030190840152611a6991611f38565b03921691815a6020945f91f15f9181611a89575061050e576104af6122e9565b61059891925060203d811161059f576105908183611ef6565b7f64b6d1b9c6726b4405acbd47f33ee45712403cd8422e6b9ccb562c0dec7965d46040513381526080602082015280611b00611af2611ae4608084018d612035565b838103604085015286612035565b828103606084015288611f38565b0390a1611a08565b979694905f9993999692965b8551811015611ba757611b2781876120f6565b51611b3282896120f6565b5190805f5260206003815260405f205491838310611b6757611b62949392916003915f52520360405f20556120e8565b611b14565b508b9067616c537570706c7960c01b8f5f8051602061273b8339815191528e6040519462461bcd60e51b8652600486015260286024860152840152820152fd5b5090949697989298959195611933565b9996949895939291905f5b8a51811015611bea57808b6102ae82611bde611be5958f6120f6565b51926120f6565b611bc2565b5090919293959894969961192e565b50858a165f52600160205260405f20335f5260205261190a60ff60405f2054169050611901565b34610301576040366003190112610301576024356004355f52600860205260405f209060405191611c5083611ec0565b546001600160a01b0380821680855260a09290921c6020850152929015611ca8575b6001600160601b03602082015116918281029281840414901517156107b657604092612710915116918351928352046020820152f35b50604051611cb581611ec0565b600754838116825260a01c6020820152611c72565b3461030157602036600319011261030157610dc2611ce96004356124fd565b604051918291602083526020830190611f38565b34610301575f366003190112610301576040516009545f82611d1e83611e88565b918282526020936001908582821691825f14610e21575050600114611d4a5750610dae92500383611ef6565b84915060095f527f6e1540171b6c0c960b71a7020d9f60077f6af931a8bbf590da0223dacf75c7af905f915b858310611d8d575050610dae935082010185610da1565b80548389018501528794508693909201918101611d76565b346103015760203660031901126103015760043563ffffffff60e01b81168091036103015760209063152a902d60e11b8114908115611dea575b506040519015158152f35b636cdb3d1360e11b811491508115611e1c575b8115611e0b575b5082611ddf565b6301ffc9a760e01b14905082611e04565b6303a24d0760e21b81149150611dfd565b34610301576040366003190112610301576020611e54611e4b611e5c565b60243590612068565b604051908152f35b600435906001600160a01b038216820361030157565b602435906001600160a01b038216820361030157565b90600182811c92168015611eb6575b6020831014611ea257565b634e487b7160e01b5f52602260045260245ffd5b91607f1691611e97565b604081019081106001600160401b03821117610ae357604052565b602081019081106001600160401b03821117610ae357604052565b90601f801991011681019081106001600160401b03821117610ae357604052565b5f5b838110611f285750505f910152565b8181015183820152602001611f19565b90602091611f5181518092818552858086019101611f17565b601f01601f1916010190565b6001600160401b038111610ae35760051b60200190565b9080601f83011215610301576020908235611f8e81611f5d565b93611f9c6040519586611ef6565b818552838086019260051b820101928311610301578301905b828210611fc3575050505090565b81358152908301908301611fb5565b9291926001600160401b038211610ae35760405191611ffb601f8201601f191660200184611ef6565b829481845281830111610301578281602093845f960137010152565b9080601f830112156103015781602061203293359101611fd2565b90565b9081518082526020808093019301915f5b828110612054575050505090565b835185529381019392810192600101612046565b6001600160a01b0316908115612090575f525f60205260405f20905f5260205260405f205490565b60405162461bcd60e51b815260206004820152602a60248201527f455243313135353a2061646472657373207a65726f206973206e6f742061207660448201526930b634b21037bbb732b960b11b6064820152608490fd5b5f1981146107b65760010190565b805182101561210a5760209160051b010190565b634e487b7160e01b5f52603260045260245ffd5b1561212557565b60405162461bcd60e51b815260206004820152602e60248201527f455243313135353a2063616c6c6572206973206e6f7420746f6b656e206f776e60448201526d195c881bdc88185c1c1c9bdd995960921b6064820152608490fd5b1561218857565b60405162461bcd60e51b815260206004820152602560248201527f455243313135353a207472616e7366657220746f20746865207a65726f206164604482015264647265737360d81b6064820152608490fd5b156121e257565b60405162461bcd60e51b815260206004820152602a60248201527f455243313135353a20696e73756666696369656e742062616c616e636520666f60448201526939103a3930b739b332b960b11b6064820152608490fd5b919082018092116107b657565b1561224e57565b60405162461bcd60e51b815260206004820152602860248201527f455243313135353a2069647320616e6420616d6f756e7473206c656e677468206044820152670dad2e6dac2e8c6d60c31b6064820152608490fd5b90916122bb61203293604084526040840190612035565b916020818403910152612035565b9081602091031261030157516001600160e01b0319811681036103015790565b5f9060033d116122f557565b905060045f803e5f5160e01c90565b5f60443d1061203257604051600319913d83016004833e81516001600160401b03918282113d60248401111761236057818401948551938411612368573d85010160208487010111612360575061203292910160200190611ef6565b949350505050565b50949350505050565b60809060208152603460208201527f455243313135353a207472616e7366657220746f206e6f6e2d455243313135356040820152732932b1b2b4bb32b91034b6b83632b6b2b73a32b960611b60608201520190565b604051906123d382611ec0565b6001825260208201602036823782511561210a575290565b156123f257565b60405162461bcd60e51b815260206004820152602360248201527f455243313135353a206275726e2066726f6d20746865207a65726f206164647260448201526265737360e81b6064820152608490fd5b1561244a57565b60405162461bcd60e51b8152602060048201526024808201527f455243313135353a206275726e20616d6f756e7420657863656564732062616c604482015263616e636560e01b6064820152608490fd5b156124a257565b60405162461bcd60e51b815260206004820152602d60248201527f4b617469626568313135353a207265737472696374656420616363657373207460448201526c6f2074686520466163746f727960981b6064820152608490fd5b5f9081526020906005825260408120906040519080918354928161252085611e88565b91828252878201966001968988821691825f1461271c5750506001146126de575b5061254e92500382611ef6565b80511561262357604051948593836004549161256983611e88565b9281811690811561260257506001146125a2575b5050505061259361203294839251938491611f17565b0103601f198101835282611ef6565b909192969450600482527f8a35acfbc15ff81a39ae7d344fd709f28e8600b4aa8c65c6b64bfe7fe36bd19b5b8383106125ec57505050612032946125939185010192945f8061257d565b80548984018901528896509187019181016125ce565b60ff1916888601525050508015150284010191506125936120325f8061257d565b506040516002549094935084928261263a83611e88565b808652928281169081156126bc5750600114612660575b50505061203292500382611ef6565b600281527f405787fa12a823e0f2b7631cc41b3ba8828b3321ca811111fa75cd3aa3bb5ace95935091905b8183106126a457505061203293508201015f8080612651565b8554878401850152948501948694509183019161268b565b9250505061203294925060ff191682840152151560051b8201015f8080612651565b915050835281868085208686915b85831061270357505061254e93508201015f612541565b80919294505483858801015201910187908685936126ec565b60ff19168a5261254e95151560051b85010192505f9150612541905056fe455243313135353a206275726e20616d6f756e74206578636565647320746f74a2646970667358221220da02185057b8410365f74bc9d089ce7bd127adfbd2abae108ef9d2dd2c158ba964736f6c6343000815003360a03461007857601f61146538819003918201601f19168301916001600160401b0383118484101761007c5780849260209460405283398101031261007857516001600160a01b0381168103610078576080526040516113d49081610091823960805181818161012e0152818161042201526104a60152f35b5f80fd5b634e487b7160e01b5f52604160045260245ffdfe60406080815260049081361015610028575b5050361561001d575f80fd5b61002634610c83565b005b5f91823560e01c9081630d2ddb4714610929578163152dcd471461061d57816320dc8ff7146105a2578163280976aa1461055d5781632a31f6b4146104d55781632dd31000146104915781633ccfd60b146103eb5781639791e504146103bf5781639ae1a4bc14610233578163d1aa25d014610216578163d73fe0aa1461018a578163ecbdbb32146100e0575063f5dcdf960361001157346100dc57816003193601126100dc576020906001549051908152f35b5080fd5b8383346100dc57816003193601126100dc5780516020810190630103c92b60e01b8252306024820152602481526060810181811067ffffffffffffffff8211176101775783525183918291907f00000000000000000000000000000000000000000000000000000000000000005afa50610158610b08565b9160208380518101031261017457506020809201519051908152f35b80fd5b634e487b7160e01b855260418652602485fd5b828434610174578060031936011261017457600180546101a9816109ae565b926101b68551948561098c565b81845282815260207fb10e2d527612073b26eecdfd717e6a320cf44b4afac2b0732d9fcbe2b7fa0cf68186015b8484106101fb578751806101f78982610aad565b0390f35b8583819261020885610c40565b8152019201930192906101e3565b833461017457806003193601126101745761023047610c83565b80f35b8383346100dc57610243366109c6565b9181516020810190610267816102598785610aad565b03601f19810183528261098c565b51902092610276308530610b37565b6001600160a01b0380821695913b15610294575b6020868651908152f35b845191867fde03f54489aeeaa8f8e262296d61a01b0a41b770fae1d2b27d960a7e593de3858680a2763d602d80600a3d3981f3363d3d373d3d3d363d7300000062ffffff3060881c161785526e5af43d82803e903d91602b57fd5bf33060781b176020526037600986f5161561037e5750833b156100dc57908061032a9284518094819263152dcd4760e01b8352898301610aad565b038183885af1801561037257610342575b808061028a565b67ffffffffffffffff821161035f5750602093508152838061033b565b634e487b7160e01b815260418552602490fd5b508251903d90823e3d90fd5b62461bcd60e51b8152602086820152601760248201527f455243313136373a2063726561746532206661696c65640000000000000000006044820152606490fd5b82843461017457602036600319011261017457506103df60209235610bd9565b505460a01c9051908152f35b9190503461048d578260031936011261048d57828082516020810190633ccfd60b60e01b825285815261041d8161095c565b5190827f00000000000000000000000000000000000000000000000000000000000000005af161044b610b08565b5015610455578280f35b906020606492519162461bcd60e51b83528201526012602482015271556e61626c6520746f20776974686472617760701b6044820152fd5b8280fd5b5050346100dc57816003193601126100dc57517f00000000000000000000000000000000000000000000000000000000000000006001600160a01b03168152602090f35b9190503461048d578060031936011261048d5781356001600160a01b038116810361055957836024359367ffffffffffffffff85116100dc57366023860112156100dc578401359361053261052986610a91565b9451948561098c565b84845236602486830101116100dc57846102309560246020930183870137840101526110f5565b8380fd5b5050346100dc57602090610591610573366109c6565b8251610586816102598782019485610aad565b519020309030610b37565b90516001600160a01b039091168152f35b9190503461048d57602036600319011261048d5781356001600160a01b0381168103610559576105d190610e6d565b156105da578280f35b906020606492519162461bcd60e51b8352820152601960248201527f53706c69743a2045524332302073706c6974206661696c6564000000000000006044820152fd5b9190503461048d5761062e366109c6565b9083549060ff8260081c16159384809561091c575b8015610905575b156108ac57600192858460ff19831617885561089b575b50600284511061085957600584511161081757859384845b6106fc575b5050506dffffffffffffffffffffffff000085549360101b1693846dffffffffffffffffffffffff00001985161786556106b6578480f35b7f7f26b83ff96e1f2b6a682f133852f6798a09c465da95921460cefb3847402498936020936dffffffffffffffffffffffffff00191617855551908152a15f8080808480f35b8151811015610812576001600160601b0360209681808961071d8688610bb1565b510151169116018181116107ff57966107368385610bb1565b518754680100000000000000008110156107ec57808961075892018a55610bd9565b6107da5781519183015160a01b6001600160a01b0319166001600160a01b039283161790558794936107d393909290917fc281d6888cbc84796930b1de95feddce9453909431fad6b22cf6c80423e34e9991906107b58588610bb1565b51511692816107c48689610bb1565b510151168951908152a2610b8f565b9091610679565b634e487b7160e01b8c528b875260248cfd5b634e487b7160e01b8c526041875260248cfd5b634e487b7160e01b8a526011855260248afd5b61067e565b6020606492519162461bcd60e51b8352820152601a60248201527f53706c69743a20546f6f206d616e7920726563697069656e74730000000000006044820152fd5b6020606492519162461bcd60e51b8352820152601960248201527f53706c69743a20546f6f2066657720726563697069656e7473000000000000006044820152fd5b61ffff19166101011786555f610661565b6020608492519162461bcd60e51b8352820152602e60248201527f496e697469616c697a61626c653a20636f6e747261637420697320616c72656160448201526d191e481a5b9a5d1a585b1a5e995960921b6064820152fd5b50303b15801561064a5750600160ff84161461064a565b50600160ff841610610643565b828434610174576020366003190112610174575061094960209235610bd9565b505490516001600160a01b039091168152f35b6040810190811067ffffffffffffffff82111761097857604052565b634e487b7160e01b5f52604160045260245ffd5b90601f8019910116810190811067ffffffffffffffff82111761097857604052565b67ffffffffffffffff81116109785760051b60200190565b60209081600319820112610a8d5760043567ffffffffffffffff8111610a8d5781602382011215610a8d57806004013592610a00846109ae565b93604093610a108551968761098c565b81865260248387019260061b85010193818511610a8d57602401915b848310610a3c5750505050505090565b8583830312610a8d57855190610a518261095c565b83356001600160a01b0381168103610a8d57825284840135906001600160601b0382168203610a8d57828692838a950152815201920191610a2c565b5f80fd5b67ffffffffffffffff811161097857601f01601f191660200190565b60208082019080835283518092528060408094019401925f905b838210610ad657505050505090565b845180516001600160a01b031687528301516001600160601b0316868401529485019493820193600190910190610ac7565b3d15610b32573d90610b1982610a91565b91610b27604051938461098c565b82523d5f602084013e565b606090565b916043916055936040519260388401526f5af43d82803e903d91602b57fd5bf3ff60248401526014830152733d602d80600a3d3981f3363d3d373d3d3d363d73825260588201526037600c8201206078820152012090565b5f198114610b9d5760010190565b634e487b7160e01b5f52601160045260245ffd5b8051821015610bc55760209160051b010190565b634e487b7160e01b5f52603260045260245ffd5b600154811015610bc55760015f527fb10e2d527612073b26eecdfd717e6a320cf44b4afac2b0732d9fcbe2b7fa0cf601905f90565b60015415610bc55760015f527fb10e2d527612073b26eecdfd717e6a320cf44b4afac2b0732d9fcbe2b7fa0cf6905f90565b90604051610c4d8161095c565b91546001600160a01b038116835260a01c6020830152565b8115610c6f570490565b634e487b7160e01b5f52601260045260245ffd5b80610c8b5750565b5f90815f19908160015401805b610cf857505050037f1445764fe3fdfc2a9812ff42e9b65c2e7896d5162851f78f7d4a5578f7346ff16020610ccb610c0e565b50546001600160a01b0390610ce39085908316610d7b565b610ceb610c0e565b50541692604051908152a2565b80610d0c610d068593610bd9565b50610c40565b957f1445764fe3fdfc2a9812ff42e9b65c2e7896d5162851f78f7d4a5578f7346ff16001600160601b03610d5160209180838c0151168a0290885460101c1690610c65565b8093019860018060a01b0390610d6a8583835116610d7b565b511692604051908152a20180610c98565b814710610e10575f918291829182916001600160a01b03165af1610d9d610b08565b5015610da557565b60405162461bcd60e51b815260206004820152603a60248201527f416464726573733a20756e61626c6520746f2073656e642076616c75652c207260448201527f6563697069656e74206d617920686176652072657665727465640000000000006064820152608490fd5b60405162461bcd60e51b815260206004820152601d60248201527f416464726573733a20696e73756666696369656e742062616c616e63650000006044820152606490fd5b90816020910312610a8d57518015158103610a8d5790565b604080516370a0823160e01b81523060048083019190915290926001600160a01b03908116916020908186602481875afa5f9681611096575b50610eb5575050505050505f90565b851561108c575f8019968760015401805b610f8c57508394959697500391829185610ede610c0e565b5054895163a9059cbb60e01b815291166001600160a01b031691810191825260208201939093528290819060400103815f895af19081610f5f575b50610f275750505050505f90565b7fe8de91d538b06154a2c48315768c5046f47e127d7fd3f726fd85cc723f29b05292610f51610c0e565b5054169451908152a3600190565b610f7e90843d8611610f85575b610f76818361098c565b810190610e55565b505f610f19565b503d610f6c565b610f98610d0682610bd9565b906001600160601b0393610fb1858885015116856110c5565b901561107c578787928b8d5f610fd261100a968f9c835460101c1690610c65565b96878095019b8a511692519687958694859363a9059cbb60e01b8552840160209093929193604081019460018060a01b031681520152565b03925af1908161105f575b506110295750505050505050505050505f90565b887fe8de91d538b06154a2c48315768c5046f47e127d7fd3f726fd85cc723f29b052888a8e965116938d51908152a30180610ec6565b61107590893d8b11610f8557610f76818361098c565b505f611015565b5050505050505050505050505f90565b5050505050505f90565b90968382813d83116110be575b6110ad818361098c565b81010312610174575051955f610ea6565b503d6110a3565b919082156110ec576110da8184029384610c65565b036110e55760019190565b5f91508190565b50600191505f90565b5f91825b6001548110156111f15761110c81610bd9565b50546001600160a01b03908116331461112e575061112990610b8f565b6110f9565b905061113c82939492611323565b6111a25761119f93169061114f82610e6d565b50806040519361115e8561095c565b601e855260207f416464726573733a206c6f772d6c6576656c2063616c6c206661696c65640000818701528151910182855af1611199610b08565b91611251565b50565b60405162461bcd60e51b815260206004820152602160248201527f53706c69743a20455243323020746f6b656e73206d7573742062652073706c696044820152601d60fa1b6064820152608490fd5b60405162461bcd60e51b815260206004820152603260248201527f53706c69743a2043616e206f6e6c792062652063616c6c6564206279206f6e65604482015271206f662074686520726563697069656e747360701b6064820152608490fd5b919290156112b35750815115611265575090565b3b1561126e5790565b60405162461bcd60e51b815260206004820152601d60248201527f416464726573733a2063616c6c20746f206e6f6e2d636f6e74726163740000006044820152606490fd5b8251909150156112c65750805190602001fd5b6040519062461bcd60e51b82528160208060048301528251908160248401525f935b82851061130a575050604492505f838284010152601f80199101168101030190fd5b84810182015186860160440152938101938593506112e8565b60049081815110611398575f5b82811061133f57505050600190565b815181101561138557818101602001516001600160f81b031990811663095ea7b360e01b831a60f81b9091160361137e5761137990610b8f565b611330565b5050505f90565b603283634e487b7160e01b5f525260245ffd5b50505f9056fea2646970667358221220826f16ca02f7b4e12fa6c5ccbfeff29b49849945c84e92bebc94ba841f4afa9a64736f6c63430008150033",
  "linkReferences": {},
  "deployedLinkReferences": {}
}