{
  "_format": "hh-sol-artifact-1",
  "contractName": "Factory1155",
  "sourceName": "contracts/katibeh1155/Factory1155.sol",
  "abi": [
    {
      "inputs": [
        {
          "internalType": "contract ISplitter",
          "name": "_split",
          "type": "address"
        },
        {
          "internalType": "address",
          "name": "qhAddr",
          "type": "address"
        }
      ],
      "stateMutability": "nonpayable",
      "type": "constructor"
    },
    {
      "anonymous": false,
      "inputs": [
        {
          "indexed": true,
          "internalType": "uint256",
          "name": "tokenId",
          "type": "uint256"
        },
        {
          "indexed": true,
          "internalType": "uint256",
          "name": "toTokenId",
          "type": "uint256"
        }
      ],
      "name": "NewReply",
      "type": "event"
    },
    {
      "anonymous": false,
      "inputs": [
        {
          "indexed": true,
          "internalType": "uint256",
          "name": "tokenId",
          "type": "uint256"
        },
        {
          "indexed": true,
          "internalType": "address",
          "name": "creator",
          "type": "address"
        },
        {
          "indexed": true,
          "internalType": "bytes",
          "name": "data",
          "type": "bytes"
        }
      ],
      "name": "NewToken",
      "type": "event"
    },
    {
      "anonymous": false,
      "inputs": [
        {
          "indexed": false,
          "internalType": "uint256",
          "name": "tokenId",
          "type": "uint256"
        },
        {
          "indexed": true,
          "internalType": "bytes32",
          "name": "tag1",
          "type": "bytes32"
        },
        {
          "indexed": true,
          "internalType": "bytes32",
          "name": "tag2",
          "type": "bytes32"
        },
        {
          "indexed": true,
          "internalType": "bytes32",
          "name": "tag3",
          "type": "bytes32"
        }
      ],
      "name": "Tags",
      "type": "event"
    },
    {
      "anonymous": false,
      "inputs": [
        {
          "indexed": true,
          "internalType": "uint256",
          "name": "tokenId",
          "type": "uint256"
        },
        {
          "indexed": false,
          "internalType": "bytes",
          "name": "data",
          "type": "bytes"
        }
      ],
      "name": "TokenData",
      "type": "event"
    },
    {
      "anonymous": false,
      "inputs": [
        {
          "indexed": true,
          "internalType": "address",
          "name": "operator",
          "type": "address"
        },
        {
          "indexed": true,
          "internalType": "address",
          "name": "from",
          "type": "address"
        },
        {
          "indexed": true,
          "internalType": "address",
          "name": "to",
          "type": "address"
        },
        {
          "indexed": false,
          "internalType": "uint256",
          "name": "id",
          "type": "uint256"
        },
        {
          "indexed": false,
          "internalType": "uint256",
          "name": "value",
          "type": "uint256"
        }
      ],
      "name": "TransferSingle",
      "type": "event"
    },
    {
      "inputs": [],
      "name": "QH",
      "outputs": [
        {
          "internalType": "contract IQHash",
          "name": "",
          "type": "address"
        }
      ],
      "stateMutability": "view",
      "type": "function"
    },
    {
      "inputs": [
        {
          "internalType": "address",
          "name": "",
          "type": "address"
        }
      ],
      "name": "_collectorScore",
      "outputs": [
        {
          "internalType": "uint256",
          "name": "",
          "type": "uint256"
        }
      ],
      "stateMutability": "view",
      "type": "function"
    },
    {
      "inputs": [
        {
          "internalType": "uint256",
          "name": "",
          "type": "uint256"
        }
      ],
      "name": "_tokenCollection",
      "outputs": [
        {
          "internalType": "address",
          "name": "",
          "type": "address"
        }
      ],
      "stateMutability": "view",
      "type": "function"
    },
    {
      "inputs": [
        {
          "internalType": "uint256",
          "name": "tokenId",
          "type": "uint256"
        },
        {
          "components": [
            {
              "internalType": "address",
              "name": "creator",
              "type": "address"
            },
            {
              "internalType": "uint256",
              "name": "signTime",
              "type": "uint256"
            },
            {
              "internalType": "uint256",
              "name": "initTime",
              "type": "uint256"
            },
            {
              "internalType": "uint256",
              "name": "expTime",
              "type": "uint256"
            },
            {
              "internalType": "string",
              "name": "tokenURI",
              "type": "string"
            },
            {
              "internalType": "bytes",
              "name": "data",
              "type": "bytes"
            },
            {
              "internalType": "uint256[]",
              "name": "toTokenId",
              "type": "uint256[]"
            },
            {
              "internalType": "bytes32[]",
              "name": "tags",
              "type": "bytes32[]"
            },
            {
              "components": [
                {
                  "internalType": "address payable",
                  "name": "recipient",
                  "type": "address"
                },
                {
                  "internalType": "uint256",
                  "name": "percentInBasisPoints",
                  "type": "uint256"
                }
              ],
              "internalType": "struct ISplitter.Share[]",
              "name": "owners",
              "type": "tuple[]"
            },
            {
              "components": [
                {
                  "internalType": "uint256",
                  "name": "A",
                  "type": "uint256"
                },
                {
                  "internalType": "int256",
                  "name": "B",
                  "type": "int256"
                },
                {
                  "internalType": "int256",
                  "name": "C",
                  "type": "int256"
                },
                {
                  "internalType": "int256",
                  "name": "D",
                  "type": "int256"
                },
                {
                  "internalType": "uint96",
                  "name": "royalty",
                  "type": "uint96"
                },
                {
                  "internalType": "uint256",
                  "name": "totalSupply",
                  "type": "uint256"
                },
                {
                  "internalType": "uint256",
                  "name": "discount",
                  "type": "uint256"
                },
                {
                  "internalType": "uint256",
                  "name": "chainId",
                  "type": "uint256"
                }
              ],
              "internalType": "struct DataStorage.Pricing[]",
              "name": "pricing",
              "type": "tuple[]"
            }
          ],
          "internalType": "struct DataStorage.Katibeh",
          "name": "katibeh",
          "type": "tuple"
        },
        {
          "internalType": "bytes",
          "name": "sig",
          "type": "bytes"
        },
        {
          "internalType": "bytes",
          "name": "data",
          "type": "bytes"
        },
        {
          "components": [
            {
              "internalType": "address payable",
              "name": "recipient",
              "type": "address"
            },
            {
              "internalType": "uint256",
              "name": "percentInBasisPoints",
              "type": "uint256"
            }
          ],
          "internalType": "struct ISplitter.Share[]",
          "name": "dapps",
          "type": "tuple[]"
        }
      ],
      "name": "collect",
      "outputs": [],
      "stateMutability": "payable",
      "type": "function"
    },
    {
      "inputs": [
        {
          "internalType": "address",
          "name": "collector",
          "type": "address"
        },
        {
          "internalType": "uint256",
          "name": "tokenId",
          "type": "uint256"
        },
        {
          "components": [
            {
              "internalType": "address",
              "name": "creator",
              "type": "address"
            },
            {
              "internalType": "uint256",
              "name": "signTime",
              "type": "uint256"
            },
            {
              "internalType": "uint256",
              "name": "initTime",
              "type": "uint256"
            },
            {
              "internalType": "uint256",
              "name": "expTime",
              "type": "uint256"
            },
            {
              "internalType": "string",
              "name": "tokenURI",
              "type": "string"
            },
            {
              "internalType": "bytes",
              "name": "data",
              "type": "bytes"
            },
            {
              "internalType": "uint256[]",
              "name": "toTokenId",
              "type": "uint256[]"
            },
            {
              "internalType": "bytes32[]",
              "name": "tags",
              "type": "bytes32[]"
            },
            {
              "components": [
                {
                  "internalType": "address payable",
                  "name": "recipient",
                  "type": "address"
                },
                {
                  "internalType": "uint256",
                  "name": "percentInBasisPoints",
                  "type": "uint256"
                }
              ],
              "internalType": "struct ISplitter.Share[]",
              "name": "owners",
              "type": "tuple[]"
            },
            {
              "components": [
                {
                  "internalType": "uint256",
                  "name": "A",
                  "type": "uint256"
                },
                {
                  "internalType": "int256",
                  "name": "B",
                  "type": "int256"
                },
                {
                  "internalType": "int256",
                  "name": "C",
                  "type": "int256"
                },
                {
                  "internalType": "int256",
                  "name": "D",
                  "type": "int256"
                },
                {
                  "internalType": "uint96",
                  "name": "royalty",
                  "type": "uint96"
                },
                {
                  "internalType": "uint256",
                  "name": "totalSupply",
                  "type": "uint256"
                },
                {
                  "internalType": "uint256",
                  "name": "discount",
                  "type": "uint256"
                },
                {
                  "internalType": "uint256",
                  "name": "chainId",
                  "type": "uint256"
                }
              ],
              "internalType": "struct DataStorage.Pricing[]",
              "name": "pricing",
              "type": "tuple[]"
            }
          ],
          "internalType": "struct DataStorage.Katibeh",
          "name": "katibeh",
          "type": "tuple"
        },
        {
          "internalType": "bytes",
          "name": "sig",
          "type": "bytes"
        },
        {
          "internalType": "bytes",
          "name": "data",
          "type": "bytes"
        },
        {
          "components": [
            {
              "internalType": "address payable",
              "name": "recipient",
              "type": "address"
            },
            {
              "internalType": "uint256",
              "name": "percentInBasisPoints",
              "type": "uint256"
            }
          ],
          "internalType": "struct ISplitter.Share[]",
          "name": "dapps",
          "type": "tuple[]"
        }
      ],
      "name": "collectTo",
      "outputs": [],
      "stateMutability": "payable",
      "type": "function"
    },
    {
      "inputs": [
        {
          "internalType": "uint256",
          "name": "tokenId",
          "type": "uint256"
        },
        {
          "components": [
            {
              "internalType": "address",
              "name": "creator",
              "type": "address"
            },
            {
              "internalType": "uint256",
              "name": "signTime",
              "type": "uint256"
            },
            {
              "internalType": "uint256",
              "name": "initTime",
              "type": "uint256"
            },
            {
              "internalType": "uint256",
              "name": "expTime",
              "type": "uint256"
            },
            {
              "internalType": "string",
              "name": "tokenURI",
              "type": "string"
            },
            {
              "internalType": "bytes",
              "name": "data",
              "type": "bytes"
            },
            {
              "internalType": "uint256[]",
              "name": "toTokenId",
              "type": "uint256[]"
            },
            {
              "internalType": "bytes32[]",
              "name": "tags",
              "type": "bytes32[]"
            },
            {
              "components": [
                {
                  "internalType": "address payable",
                  "name": "recipient",
                  "type": "address"
                },
                {
                  "internalType": "uint256",
                  "name": "percentInBasisPoints",
                  "type": "uint256"
                }
              ],
              "internalType": "struct ISplitter.Share[]",
              "name": "owners",
              "type": "tuple[]"
            },
            {
              "components": [
                {
                  "internalType": "uint256",
                  "name": "A",
                  "type": "uint256"
                },
                {
                  "internalType": "int256",
                  "name": "B",
                  "type": "int256"
                },
                {
                  "internalType": "int256",
                  "name": "C",
                  "type": "int256"
                },
                {
                  "internalType": "int256",
                  "name": "D",
                  "type": "int256"
                },
                {
                  "internalType": "uint96",
                  "name": "royalty",
                  "type": "uint96"
                },
                {
                  "internalType": "uint256",
                  "name": "totalSupply",
                  "type": "uint256"
                },
                {
                  "internalType": "uint256",
                  "name": "discount",
                  "type": "uint256"
                },
                {
                  "internalType": "uint256",
                  "name": "chainId",
                  "type": "uint256"
                }
              ],
              "internalType": "struct DataStorage.Pricing[]",
              "name": "pricing",
              "type": "tuple[]"
            }
          ],
          "internalType": "struct DataStorage.Katibeh",
          "name": "katibeh",
          "type": "tuple"
        }
      ],
      "name": "fee",
      "outputs": [
        {
          "internalType": "uint256",
          "name": "_fee",
          "type": "uint256"
        }
      ],
      "stateMutability": "view",
      "type": "function"
    },
    {
      "inputs": [
        {
          "internalType": "uint256",
          "name": "tokenId",
          "type": "uint256"
        },
        {
          "components": [
            {
              "internalType": "address",
              "name": "creator",
              "type": "address"
            },
            {
              "internalType": "uint256",
              "name": "signTime",
              "type": "uint256"
            },
            {
              "internalType": "uint256",
              "name": "initTime",
              "type": "uint256"
            },
            {
              "internalType": "uint256",
              "name": "expTime",
              "type": "uint256"
            },
            {
              "internalType": "string",
              "name": "tokenURI",
              "type": "string"
            },
            {
              "internalType": "bytes",
              "name": "data",
              "type": "bytes"
            },
            {
              "internalType": "uint256[]",
              "name": "toTokenId",
              "type": "uint256[]"
            },
            {
              "internalType": "bytes32[]",
              "name": "tags",
              "type": "bytes32[]"
            },
            {
              "components": [
                {
                  "internalType": "address payable",
                  "name": "recipient",
                  "type": "address"
                },
                {
                  "internalType": "uint256",
                  "name": "percentInBasisPoints",
                  "type": "uint256"
                }
              ],
              "internalType": "struct ISplitter.Share[]",
              "name": "owners",
              "type": "tuple[]"
            },
            {
              "components": [
                {
                  "internalType": "uint256",
                  "name": "A",
                  "type": "uint256"
                },
                {
                  "internalType": "int256",
                  "name": "B",
                  "type": "int256"
                },
                {
                  "internalType": "int256",
                  "name": "C",
                  "type": "int256"
                },
                {
                  "internalType": "int256",
                  "name": "D",
                  "type": "int256"
                },
                {
                  "internalType": "uint96",
                  "name": "royalty",
                  "type": "uint96"
                },
                {
                  "internalType": "uint256",
                  "name": "totalSupply",
                  "type": "uint256"
                },
                {
                  "internalType": "uint256",
                  "name": "discount",
                  "type": "uint256"
                },
                {
                  "internalType": "uint256",
                  "name": "chainId",
                  "type": "uint256"
                }
              ],
              "internalType": "struct DataStorage.Pricing[]",
              "name": "pricing",
              "type": "tuple[]"
            }
          ],
          "internalType": "struct DataStorage.Katibeh",
          "name": "katibeh",
          "type": "tuple"
        }
      ],
      "name": "feeAndSupply",
      "outputs": [
        {
          "internalType": "uint256",
          "name": "_fee",
          "type": "uint256"
        },
        {
          "internalType": "uint256",
          "name": "supply",
          "type": "uint256"
        }
      ],
      "stateMutability": "view",
      "type": "function"
    },
    {
      "inputs": [],
      "name": "implementation",
      "outputs": [
        {
          "internalType": "contract Katibeh1155",
          "name": "",
          "type": "address"
        }
      ],
      "stateMutability": "view",
      "type": "function"
    },
    {
      "inputs": [
        {
          "internalType": "address",
          "name": "creatorAddr",
          "type": "address"
        },
        {
          "internalType": "string",
          "name": "tag0",
          "type": "string"
        }
      ],
      "name": "predictCollAddr",
      "outputs": [
        {
          "internalType": "address",
          "name": "",
          "type": "address"
        }
      ],
      "stateMutability": "view",
      "type": "function"
    },
    {
      "inputs": [
        {
          "internalType": "address payable",
          "name": "newAddr",
          "type": "address"
        }
      ],
      "name": "setReceiver1",
      "outputs": [],
      "stateMutability": "nonpayable",
      "type": "function"
    },
    {
      "inputs": [],
      "name": "split",
      "outputs": [
        {
          "internalType": "contract ISplitter",
          "name": "",
          "type": "address"
        }
      ],
      "stateMutability": "view",
      "type": "function"
    },
    {
      "inputs": [
        {
          "internalType": "uint256",
          "name": "tokenId",
          "type": "uint256"
        }
      ],
      "name": "uri",
      "outputs": [
        {
          "internalType": "string",
          "name": "",
          "type": "string"
        }
      ],
      "stateMutability": "view",
      "type": "function"
    },
    {
      "inputs": [
        {
          "internalType": "address",
          "name": "",
          "type": "address"
        }
      ],
      "name": "userBalance",
      "outputs": [
        {
          "internalType": "uint256",
          "name": "",
          "type": "uint256"
        }
      ],
      "stateMutability": "view",
      "type": "function"
    },
    {
      "inputs": [],
      "name": "withdraw",
      "outputs": [],
      "stateMutability": "nonpayable",
      "type": "function"
    }
  ],
  "bytecode": "0x608034620000fd576001600160401b0390601f620058fa38819003918201601f19168301918483118484101762000102578084926040948552833981010312620000fd5780516001600160a01b03808216929091839003620000fd576020015191818316809303620000fd57600080546001600160a01b03199081169092178155604051919490919061279c80830191821183831017620000e9579082916200315e8339039082f0908115620000dd575016826005541617600555816006541617600655339060015416176001556040516130459081620001198239f35b604051903d90823e3d90fd5b634e487b7160e01b84526041600452602484fd5b600080fd5b634e487b7160e01b600052604160045260246000fdfe608080604052600436101561001357600080fd5b600090813560e01c9081630103c92b14611e745750806303c1314814611dd0578063054bffb71461116f57806308e7c4d0146111465780630e89341c1461110e5780633ccfd60b146110e35780635c60da1b146110ba5780635fd099e61461108757806366a302ef1461106a5780638191ea8314610fa55780638eef26bd14610f7f578063968a577b14610f46578063a1230c8d146100e45763f7654176146100bb57600080fd5b346100e157806003193601126100e157546040516001600160a01b039091168152602090f35b80fd5b5060a03660031901126100e1576001600160401b038060243511610f425761014060243536036003190112610f42576044358181116106a95761012b903690600401611ed4565b50506064358181116106a957610145903690600401611ed4565b91608435908111610f3e5761015e903690600401611f01565b6004358552600360205260408520549193916001600160a01b031680610e1d5750849161019560c460243501602435600401612816565b9050865b818110610cd657505085936101b26024356004016129f3565b15610c6b5760248035013562015180810180911161075b576101d6904210156128aa565b6101de612bc3565b935b6101f460e460243501602435600401612816565b96909615610c575760055460405160609290921b6001600160601b031916602083015296356034820152610253906102429061023d81605481015b03601f19810183528261200f565b61291c565b30906001600160a01b038916612a20565b6001600160a01b03811696903b15610a8d575b506004358852600360205260408820866001600160601b0360a01b8254161790558761029c60846024350160243560040161293f565b883b156106a9576102d49183916040519384928392634312207160e11b84526004356004850152604060248501526044840191612971565b0381838c5af1801561083b57610a75575b50506102f5602435600401612896565b61030960a46024350160243560040161293f565b9081604051928392833781018b8152039020906001600160a01b03166004357fc0d62261ee30fa727eab11180362380f5a2d6af2c9ec2b14537843182c7c58268b80a461036060c460243501602435600401612816565b9050885b818110610a2157505061038160e460243501602435600401612816565b90508015610a1a5761039d60e460243501602435600401612816565b15610a065735905b60018111156109fc576103c260e460243501602435600401612816565b600110156109de57600260208c920135925b11156109f257506103ef60e460243501602435600401612816565b600210156109de579060408b9493920135915b7fb237134d29775150b1edf87af1dc343262244af7cbb474cfc64cb6e8824af66360206040516004358152a46001600160601b03811661088b575b50505b833410610846576001600160a01b0385163b156108375760405163731133e960e01b8152336004808301919091523560248201526001604482015260806064820152608481018890528790818160a481836001600160a01b038c165af1801561083b57610823575b50503387526004602052604087206104c0815461284b565b9055604051338152600160208201528733917fc3d58168c5ae7397731d063d5bbf3d657854427343f4c083240f7aacaa2d0f6260403092a4816107dc575b50508134116107ab575b604051638da5cb5b60e01b815292602090849060049082906001600160a01b03165afa9283156107a057859361076f575b5061055961055261010460243501602435600401612992565b36916120b7565b93601483029083159184810460141483171561075b576103e88091049261015e908187029187830414171561074757049261059e8360018060a01b0360015416612afb565b875b8181106106f1575050506105be92916105b89161290f565b906129e6565b90825180156000146105d957506105d59250612abc565b5080f35b600114159050610601576105d5916001600160a01b03906105f990612a9b565b515116612abc565b60018060a01b038354169160405180936316b0fb7d60e21b82528560248301602060048501528451809152602060448501950190825b8181106106c05750505082908160209503925af180156106b557839061066b575b6105d592506001600160a01b0316612abc565b50906020813d6020116106ad575b816106866020938361200f565b810103126106a95751906001600160a01b03821682036106a9576105d591610658565b8280fd5b3d9150610679565b6040513d85823e3d90fd5b825180516001600160a01b03168852602090810151818901526040909701968996508a945090920191600101610637565b6106fc818385612a8b565b356001600160a01b03811691908290036107435761073961073e92612710610732602061072a86898b612a8b565b01358a612a78565b0490612afb565b61284b565b6105a0565b8980fd5b634e487b7160e01b89526011600452602489fd5b634e487b7160e01b88526011600452602488fd5b61079291935060203d602011610799575b61078a818361200f565b8101906129c7565b9138610539565b503d610780565b6040513d87823e3d90fd5b848080806107b986346129e6565b8181156107d3575b3390f1610508576040513d86823e3d90fd5b506108fc6107c1565b6108197fe3efb4090b64f6dead06906e59a91359e0c1ca9cad88a633d749431442e5bebf9160405191829160208352600435956020840191612971565b0390a238806104fe565b61082c90611faf565b6108375786386104a8565b8680fd5b6040513d84823e3d90fd5b60405162461bcd60e51b815260206004820152601d60248201527f466163746f7279313135353a20696e73756666696369656e74204665650000006044820152606490fd5b610104602435016108a181602435600401612992565b1515905061091c57506108b8602435600401612896565b905b873b156106a957604051635944c75360e01b815260048035908201526001600160a01b0390921660248301526001600160601b031660448201528181606481838b5af1801561083b571561043d5761091190611faf565b61083757863861043d565b82546001600160a01b03169061093790600460243501612992565b60405163d74f2dcd60e01b8152602060048201526024810182905292916044840191865b8181106109a4575050506020918380809303915afa9081156106b5578391610985575b50906108ba565b61099e915060203d6020116107995761078a818361200f565b3861097e565b91939495965091604080600192838060a01b036109c088611ec0565b168152602087013560208201520194019101918d969594939261095b565b634e487b7160e01b8b52603260045260248bfd5b9291908391610402565b89600281926103d4565b634e487b7160e01b8a52603260045260248afd5b88906103a5565b80610a43610a7092610a3d60c460243501602435600401612816565b90612870565b356004357f65327253f8d67c2e23cb4dfab28ca7437b04e9098cf4e985073d76df25209ad48d80a361284b565b610364565b610a7e90611faf565b610a895787386102e5565b8780fd5b610a9b602435600401612896565b610aaf60e460243501602435600401612816565b156109de5760405160609290921b6001600160601b03191660208301523560348201526e5af43d82803e903d91602b57fd5bf390610af49061023d816054810161022f565b608883901c62ffffff16763d602d80600a3d3981f3363d3d373d3d3d363d73000000178b5260789290921b6001600160781b031916176020526001600160a01b0390603760098bf51615610c1257610b50602435600401612896565b610b6460e460243501602435600401612816565b91909115610a06579089916040519135602083015260208252610b8682611ff4565b883b156106a9576040805163b2b45df560e01b81526001600160a01b03909216600483015260606024830152909183918391610bc6906064840190611f54565b66096c2e8d2c4cad60cb1b602084830392600319840160448701526007815201520181838c5af1801561083b57610bfe575b50610266565b610c0790611faf565b610a89578738610bf8565b60405162461bcd60e51b815260206004820152601760248201527f455243313136373a2063726561746532206661696c65640000000000000000006044820152606490fd5b634e487b7160e01b89526032600452602489fd5b92509250610c86610c8136602435600401612156565b612b1f565b92610c9084612def565b926001600160601b036080610ca9602435600401612896565b96610cbc606460243501354211156127ba565b610cce604460243501354210156128aa565b0151166101e0565b610cee81610a3d60c460243501602435600401612816565b358852600360205260408820546001600160a01b03168015159081610d8d575b5015610d2257610d1d9061284b565b610199565b60405162461bcd60e51b815260206004820152603860248201527f466163746f7279313135353a20746f20746f6b656e20696420686173206e6f7460448201527f206d696e746564206f6e2063757272656e7420636861696e00000000000000006064820152608490fd5b90506020610da983610a3d60c460243501602435600401612816565b3560246040518094819363bd85b03960e01b835260048301525afa908115610e12578991610ddb575b50151538610d0e565b90506020813d602011610e0a575b81610df66020938361200f565b81010312610e05575138610dd2565b600080fd5b3d9150610de9565b6040513d8b823e3d90fd5b92916024602085610e3183356004016129f3565b15610ead576040519283809263bd85b03960e01b825260043560048301525afa8015610ea2578790610e6e575b610e689150612c11565b92610440565b506020813d602011610e9a575b81610e886020938361200f565b81010312610e0557610e689051610e5e565b3d9150610e7b565b6040513d89823e3d90fd5b6040519283809263bd85b03960e01b825260043560048301525afa8015610ea2578790610f0a575b610ef29150610eec610c8136602435600401612156565b90612ee0565b92610f05606460243501354211156127ba565b610440565b506020813d602011610f36575b81610f246020938361200f565b81010312610e0557610ef29051610ed5565b3d9150610f17565b8380fd5b5080fd5b50346100e15760203660031901126100e1576020906040906001600160a01b03610f6e611eaa565b168152600483522054604051908152f35b50346100e1576040610f99610f9336611f79565b906123f2565b82519182526020820152f35b50346100e15760403660031901126100e157610fbf611eaa565b602435916001600160401b0383116100e15750611061610fe56020933690600401612082565b61105a60018060a01b039361023d6110146110288760055416956040519283918b808401526040830190611f54565b039161023d601f199384810183528261200f565b60405160609490941b6001600160601b031916898501908152601481019190915283906034010390810183528261200f565b3091612a20565b60405191168152f35b50346100e157602061107e610f9336611f79565b50604051908152f35b50346100e15760203660031901126100e157602090600435815260038252604060018060a01b0391205416604051908152f35b50346100e157806003193601126100e1576005546040516001600160a01b039091168152602090f35b50346100e157806003193601126100e15733815260026020526105d560408220828154915533612abc565b50346100e15760203660031901126100e15761114261112e6004356124c5565b604051918291602083526020830190611f54565b0390f35b50346100e157806003193601126100e1576006546040516001600160a01b039091168152602090f35b5060c03660031901126100e157611184611eaa565b6001600160401b039081604435116106a957610140604435360360031901126106a957606435828111610f3e576111bf903690600401611ed4565b5050608435828111610f3e576111d9903690600401611ed4565b9260a435908111611dcc576111f2903690600401611f01565b602435865260036020526040862054919490916001600160a01b031680611cb05750859261122a60c460443501604435600401612816565b9050875b818110611be457505086946112476044356004016129f3565b15611b7f57602460443501356201518081018091116107475761126c904210156128aa565b611274612bc3565b945b61128a60e460443501604435600401612816565b97909715610a065760055460405160609290921b6001600160601b0319166020830152973560348201526112da906112c99061023d816054810161022f565b30906001600160a01b038a16612a20565b6001600160a01b03811697903b156119f8575b50602435895260036020526040892080546001600160a01b0319168817905588611320604435608481019060040161293f565b893b156106a9576113589183916040519384928392634312207160e11b84526024356004850152604060248501526044840191612971565b0381838d5af1801561083b576119e0575b5050611379604435600401612896565b61138d60a46044350160443560040161293f565b9081604051928392833781018c8152039020906001600160a01b03166024357fc0d62261ee30fa727eab11180362380f5a2d6af2c9ec2b14537843182c7c58268c80a46113e460c460443501604435600401612816565b9050895b81811061199257505061140560e460443501604435600401612816565b9050801561198b5761142160e460443501604435600401612816565b156109de5735905b60018111156119815761144660e460443501604435600401612816565b6001101561196357600260208d920135925b1115611977575061147360e460443501604435600401612816565b60021015611963579060408c9493920135915b7fb237134d29775150b1edf87af1dc343262244af7cbb474cfc64cb6e8824af66360206040516024358152a46001600160601b03811661180d575b50505b843410610846576001600160a01b0386163b15610a895760405163731133e960e01b81526001600160a01b03828116600483015260248035908301526001604483015260806064830152608482018a90528991908290829060a490829084908d165af1801561083b576117f9575b50506001600160a01b038116885260046020526040882080546115549061284b565b9055604080516001600160a01b039092168083526001602084015291899130917fc3d58168c5ae7397731d063d5bbf3d657854427343f4c083240f7aacaa2d0f629190a4816117b2575b5050813411611781575b604051638da5cb5b60e01b815292602090849060049082906001600160a01b03165afa9283156107a0578593611760575b506115f261055261010460443501604435600401612992565b93601483029083159184810460141483171561075b576103e88091049261015e90818702918783041417156107475704926116378360018060a01b0360015416612afb565b875b8181106117225750505061165192916105b89161290f565b908251801560001461166857506105d59250612abc565b600114159050611688576105d5916001600160a01b03906105f990612a9b565b60018060a01b038354169160405180936316b0fb7d60e21b82528560248301602060048501528451809152602060448501950190825b8181106116f15750505082908160209503925af180156106b557839061066b576105d592506001600160a01b0316612abc565b825180516001600160a01b03168852602090810151818901526040909701968996508a9450909201916001016116be565b61172d818385612a8b565b356001600160a01b03811691908290036107435761073961175b92612710610732602061072a86898b612a8b565b611639565b61177a91935060203d6020116107995761078a818361200f565b91386115d9565b8480808061178f86346129e6565b8181156117a9575b3390f16115a8576040513d86823e3d90fd5b506108fc611797565b6117ef7fe3efb4090b64f6dead06906e59a91359e0c1ca9cad88a633d749431442e5bebf9160405191829160208352602435956020840191612971565b0390a2388061159e565b61180290611faf565b610a89578738611532565b6101046044350161182381604435600401612992565b151590506118a1575061183a604435600401612896565b905b883b156106a957604051635944c75360e01b81526024803560048301526001600160a01b03909316928101929092526001600160601b031660448201528181606481838c5af1801561083b57156114c15761189690611faf565b610a895787386114c1565b82546001600160a01b0316906118bc90600460443501612992565b60405163d74f2dcd60e01b8152602060048201526024810182905292916044840191865b818110611929575050506020918380809303915afa9081156106b557839161190a575b509061183c565b611923915060203d6020116107995761078a818361200f565b38611903565b91939495965091604080600192838060a01b0361194588611ec0565b168152602087013560208201520194019101918e96959493926118e0565b634e487b7160e01b8c52603260045260248cfd5b9291908391611486565b8a60028192611458565b8990611429565b806119ae6119db92610a3d60c460443501604435600401612816565b356024357f65327253f8d67c2e23cb4dfab28ca7437b04e9098cf4e985073d76df25209ad48e80a361284b565b6113e8565b6119e990611faf565b6119f4578838611369565b8880fd5b611a06604435600401612896565b611a1a60e460443501604435600401612816565b156119635760405160609290921b6001600160601b03191660208301523560348201526e5af43d82803e903d91602b57fd5bf390611a5f9061023d816054810161022f565b608883901c62ffffff16763d602d80600a3d3981f3363d3d373d3d3d363d73000000178c5260789290921b6001600160781b031916176020526001600160a01b0390603760098cf51615610c1257611abb604435600401612896565b611acf60e460443501604435600401612816565b919091156109de578a906040519235602084015260208352611af083611ff4565b893b15610f42576040805163b2b45df560e01b81526001600160a01b039092166004830152606060248301529092839190611b2f906064840190611f54565b66096c2e8d2c4cad60cb1b602084830392600319840160448701526007815201520181838c5af18015611b7457156112ed57611b6d90999199611faf565b97386112ed565b6040513d8c823e3d90fd5b93509350611b95610c8136604435600401612156565b93611b9f85612def565b936001600160601b036080611bb8604435600401612896565b97611bcb606460443501354211156127ba565b611bdc6044803501354210156128aa565b015116611276565b611bfc81610a3d60c460443501604435600401612816565b358952600360205260408920546001600160a01b03168015159081611c30575b5015610d2257611c2b9061284b565b61122e565b90506020611c4c83610a3d60c460443501604435600401612816565b3560246040518094819363bd85b03960e01b835260048301525afa908115611b74578a91611c7e575b50151538611c1c565b90506020813d602011611ca8575b81611c996020938361200f565b81010312610743575138611c75565b3d9150611c8c565b93926024602086611cc56044356004016129f3565b15611d415760405163bd85b03960e01b81528335600482015292839182905afa8015611d36578890611d02575b611cfc9150612c11565b936114c4565b506020813d602011611d2e575b81611d1c6020938361200f565b81010312610a8957611cfc9051611cf2565b3d9150611d0f565b6040513d8a823e3d90fd5b60405163bd85b03960e01b81528335600482015292839182905afa8015611d36578890611d98575b611d809150610eec610c8136604435600401612156565b93611d93606460443501354211156127ba565b6114c4565b506020813d602011611dc4575b81611db26020938361200f565b81010312610a8957611d809051611d69565b3d9150611da5565b8480fd5b50346100e15760203660031901126100e157611dea611eaa565b600154906001600160a01b03908183163303611e155716906001600160601b0360a01b161760015580f35b60405162461bcd60e51b815260206004820152603160248201527f4665654d616e616765723a204f6e6c79207265636569766572312063616e206360448201527068616e676520697473206164647265737360781b6064820152608490fd5b905034610f42576020366003190112610f42576020916040906001600160a01b03611e9d611eaa565b1681526002845220548152f35b600435906001600160a01b0382168203610e0557565b35906001600160a01b0382168203610e0557565b9181601f84011215610e05578235916001600160401b038311610e055760208381860195010111610e0557565b9181601f84011215610e05578235916001600160401b038311610e05576020808501948460061b010111610e0557565b60005b838110611f445750506000910152565b8181015183820152602001611f34565b90602091611f6d81518092818552858086019101611f31565b601f01601f1916010190565b90600319604081840112610e055760043592602435916001600160401b038311610e05578261014092030112610e055760040190565b6001600160401b038111611fc257604052565b634e487b7160e01b600052604160045260246000fd5b61010081019081106001600160401b03821117611fc257604052565b604081019081106001600160401b03821117611fc257604052565b90601f801991011681019081106001600160401b03821117611fc257604052565b6001600160401b038111611fc257601f01601f191660200190565b92919261205782612030565b91612065604051938461200f565b829481845281830111610e05578281602093846000960137010152565b9080601f83011215610e055781602061209d9335910161204b565b90565b6001600160401b038111611fc25760051b60200190565b9291926120c3826120a0565b6040926120d28451928361200f565b819581835260208093019160061b840193818511610e0557915b8483106120fb57505050505050565b8583830312610e0557855190868201908282106001600160401b038311176121415787928692845261212c86611ec0565b815282860135838201528152019201916120ec565b60246000634e487b7160e01b81526041600452fd5b91906101408084830312610e0557604051908101936001600160401b039482811086821117611fc257604052819461218d82611ec0565b83526020820135602084015260408201356040840152606091828101358385015260809081810135838111610e0557866121c8918301612082565b8286015260a09384820135848111610e0557820187601f82011215610e0557878160206121f79335910161204b565b8587015260c080830135858111610e0557830188601f82011215610e0557803590612221826120a0565b9161222f604051938461200f565b80835260208084019160051b830101918b8311610e0557602001905b8282106123e2575050508188015260e09081840135868111610e0557840189601f82011215610e0557803590612280826120a0565b9161228e604051938461200f565b80835260208084019160051b830101918c8311610e0557602001905b8282106123d25750505082890152610100840135868111610e0557840189601f82011215610e0557898160206122e2933591016120b7565b610100890152610120840135958611610e055788601f878601011215610e055761230e868501356120a0565b9861231c6040519a8b61200f565b8487018035808c5260081b01602090810197908b019590828911610e055701602001945b878610612357575050505050505050506101200152565b61010086830312610e05576040519061236f82611fd8565b863582526020870135602083015260408701356040830152858701358683015287870135906001600160601b0382168203610e0557826020928a6101009501528b8901358c82015285890135868201528689013587820152815201950194612340565b81358152602091820191016122aa565b813581526020918201910161224b565b60008181526003602052604081205490929183916001600160a01b0316908161244b575b505050612422816129f3565b15612434575061243181612c11565b91565b612445610c81612431923690612156565b82612ee0565b6020919293945060246040518094819363bd85b03960e01b835260048301525afa9182156124b9578092612485575b505090388080612416565b9091506020823d82116124b1575b816124a06020938361200f565b810103126100e1575051388061247a565b3d9150612493565b604051903d90823e3d90fd5b60018060a01b03600090808316825260209260048452604091828420546125b15783908282526003865283822054169160248451809481936303a24d0760e21b835260048301525afa9384156125a5578394612523575b5050505090565b9091929493503d8086843e612538818461200f565b82019181818403126125a1578051906001600160401b03821161083757019082601f830112156125a15781519261257a61257185612030565b9551958661200f565b8385528184840101116125a157839495508061259894019101611f31565b3880808061251c565b8580fd5b505051903d90823e3d90fd5b505090918151926101a08401908482106001600160401b038311176127a65750825261017d83527f646174613a6170706c69636174696f6e2f6a736f6e3b6261736536342c65794a908301527f755957316c496a6f67496b746864476c695a5767694c434a6b5a584e6a636d6c908201527f7764476c766269493649434a4f6232347464484a68626e4e6d5a584a68596d7860608201527f6c49697769615731685a3255694f6941695a474630595470706257466e5a533960808201527f7a646d6372654731734f324a68633255324e43785153453479576e6c434d324660a08201527f58556a426852444270546c525a4d306c70516d396156327875595568524f556c60c08201527f7156544a4f65556c6e5a55637863324a7554546c4a625767775a4568424e6b7860e08201527f354f544e6b4d324e315a48704e6457497a536d354d656b6c3354555242646d4d6101008201527f7a576d354a616a51345a4564574e475244516a525155306b7854554e5661556c6101208201527f49617a6c4a616d4e33536c4e4a5a325248566a526b517a466f596d314f6232496101408201527f7a53546c4a62544677576b645363317054535374544d6b59775956644b6247466101608201527f4564335a6b523159305a4551304f45777a546a4a61656a5139496e303d00000061018082015290565b634e487b7160e01b81526041600452602490fd5b156127c157565b60405162461bcd60e51b815260206004820152602760248201527f466163746f7279313135353a20746f6b656e2073616c652074696d6520697320604482015266195e1c1a5c995960ca1b6064820152608490fd5b903590601e1981360301821215610e0557018035906001600160401b038211610e0557602001918160051b36038313610e0557565b600019811461285a5760010190565b634e487b7160e01b600052601160045260246000fd5b91908110156128805760051b0190565b634e487b7160e01b600052603260045260246000fd5b356001600160a01b0381168103610e055790565b156128b157565b60405162461bcd60e51b815260206004820152603060248201527f466163746f7279313135353a20746f6b656e2073616c652074696d652068617360448201526f081b9bdd081cdd185c9d1959081e595d60821b6064820152608490fd5b9190820180921161285a57565b602081519101519060208110612930575090565b6000199060200360031b1b1690565b903590601e1981360301821215610e0557018035906001600160401b038211610e0557602001918136038313610e0557565b908060209392818452848401376000828201840152601f01601f1916010190565b903590601e1981360301821215610e0557018035906001600160401b038211610e0557602001918160061b36038313610e0557565b90816020910312610e0557516001600160a01b0381168103610e055790565b9190820391821161285a57565b612a019060e0810190612816565b15612880573560001a60f81b6001600160f81b031916602360f81b1490565b916043916055936040519260388401526f5af43d82803e903d91602b57fd5bf3ff60248401526014830152733d602d80600a3d3981f3363d3d373d3d3d363d73825260588201526037600c8201206078820152012090565b8181029291811591840414171561285a57565b91908110156128805760061b0190565b8051156128805760200190565b80518210156128805760209160051b010190565b6000918291829182916001600160a01b03165af13d1561209d573d612ae081612030565b90612aee604051928361200f565b8152600060203d92013e90565b60018060a01b03166000526002602052612b1b604060002091825461290f565b9055565b90604051612b2c81611fd8565b6000908181528160208201528160408201528160608201528160808201528160a08201528160c082015261012060e09183838201529401908151519283612b735750505050565b9091929394505b838110612b92575050612b8e915051612a9b565b5190565b4682612b9f838651612aa8565b51015114612bb557612bb09061284b565b612b7a565b919050612b8e925051612aa8565b670de0b6b3a76400006000670f43fc2c04ee0000815b612be257505090565b80612bec91612d38565b9060018116612c00575b60011c9081612bd9565b9181612c0b91612d38565b91612bf6565b612c1a81612f36565b600190808203612c845750670f43fc2c04ee00009082811615612c7657815b92811c91825b612c495750505090565b80612c5391612d38565b91818116612c65575b811c9182612c3f565b9282612c7091612d38565b92612c5c565b670de0b6b3a7640000612c39565b80915015612cc957670de0b6b3a7640000918167016345785d8a00000483019081841161285a57612cb491612cdf565b918082029182040361285a5761209d9161290f565b634e487b7160e01b600052601260045260246000fd5b909190600180841615612d2a57815b93811c91825b612cfd57505050565b80612d0791612d38565b91818116612d19575b811c9182612cf4565b9382612d2491612d38565b93612d10565b670de0b6b3a7640000612cee565b600019828209828202908180821091039381850393670de0b6b3a764000091829109916706f05b59d3b1ffff83119514612da857831015610e05577faccb18165bd6fe31ae1cf318dc5b51eee0e1ba569b88cd74c1773b91fac1066992828211900360ee1b910360121c17020190565b925050040190565b818102929160008212600160ff1b82141661285a57818405149015171561285a57565b9190916000838201938412911290801582169115161761285a57565b60a081015115612e8f576020810151815190670de0b6b3a764000091600090815b612e60575050670de0b6b3a764000091612e2991612db0565b056001604083015115171561285a576000811280151661285a576060612e5192015190612dd3565b600081121561209d5750600090565b80612e6a91612d38565b9060018116612e7e575b60011c9081612e10565b9281612e8991612d38565b92612e74565b60405162461bcd60e51b8152602060048201526024808201527f466163746f7279313135353a204d6178696d756d20737570706c7920726561636044820152633432b21760e11b6064820152608490fd5b9060a0810151821015612e8f576060612f2d612e5193612f27670de0b6b3a7640000612f1b6020870151612f15858951612cdf565b90612db0565b05916040860151612db0565b90612dd3565b91015190612dd3565b601a811015612f455750600190565b6101c6811015612f555750600a90565b611a98811015612f655750606490565b620163b2811015612f7757506103e890565b6211681d811015612f89575061271090565b62d132b0811015612f9c5750620186a090565b63098b63d0811015612fb05750620f424090565b636d2a78e0811015612fc457506298968090565b6404ccedb680811015612fda57506305f5e10090565b64355d627400811015612ff05750633b9aca0090565b65024b44cba7001115613006576402540be40090565b64174876e8009056fea264697066735822122072524575b89ec7689d4c3dab9546b57719abd03b3abd0669c21fa298688cfff264736f6c63430008130033608034620000e957602081016001600160401b03811182821017620000d357604052600080915262000033600254620000ee565b601f811162000092575b50806002556200004f600454620000ee565b601f81116200006e575b60006004556040516126579081620001458239f35b601f60208360046200008a955220910160051c8101906200012b565b388062000059565b60028252620000cc90601f0160051c7f405787fa12a823e0f2b7631cc41b3ba8828b3321ca811111fa75cd3aa3bb5ace908101906200012b565b386200003d565b634e487b7160e01b600052604160045260246000fd5b600080fd5b90600182811c9216801562000120575b60208310146200010a57565b634e487b7160e01b600052602260045260246000fd5b91607f1691620000fe565b81811062000137575050565b600081556001016200012b56fe6080604052600436101561001257600080fd5b60003560e01c8062fdd58e14611cec57806301ffc9a714611c6457806306fdde0314611bbe5780630e89341c14611b9f5780632a55205a14611add5780632eb2c2d6146117025780634e1273f4146115645780634f558e79146115365780635944c753146113fd5780636b20c454146111a3578063731133e914610ff0578063862440e214610e0b5780638da5cb5b14610dde57806395d89b4114610cf8578063a22cb46514610c14578063b2b45df51461076e578063bd85b03914610742578063e985e9c5146106ec578063f242432a1461030d5763f5298aca146100f757600080fd5b3461030857606036600319011261030857610110611d1b565b60249060448035916001600160a01b031690833533831480156102df575b61013790611feb565b82159261014484156122b0565b61014d8261228b565b916101578661228b565b94600060405161016681611d9c565b52610285575b60005b8351811015610208576101828185611fc1565b5161018d8288611fc1565b51908060005260036020818152604060002054928484106101c657906101c195949392916000525203604060002055611fb2565b61016f565b506084906000805160206126028339815191528a60288f6040519462461bcd60e51b8652600486015284015282015267616c537570706c7960c01b6064820152fd5b6000838389818452836020526040842083855260205280604085205461023082821015612308565b838652856020526040862085875260205203604085205560405191825260208201527fc3d58168c5ae7397731d063d5bbf3d657854427343f4c083240f7aacaa2d0f6260403392a4610283604051611d9c565b005b949195929060005b87518110156102d457806102a46102cf9288611fc1565b516102af828b611fc1565b5160005260036020526102c86040600020918254612107565b9055611fb2565b61028d565b50909295919461016c565b5082600052600160205260406000203360005260205261013760ff60406000205416905061012e565b600080fd5b346103085760a036600319011261030857610326611d1b565b61032e611d31565b90608480356001600160401b0381116103085761034f903690600401611edb565b6001600160a01b039190838316331480156106c1575b61036e90611feb565b8285161561037c811561204e565b61038760443561228b565b61039260643561228b565b9185871615610681575b6105d3575b505060443560005260209460008652604060002084861660005286526040600020546103d16064358210156120a8565b604435600052600087526040600020858716600052875260643590036040600020556044356000526000865260406000208482166000528652604060002061041c6064358254612107565b905560405160443581526064358782015284821690858716907fc3d58168c5ae7397731d063d5bbf3d657854427343f4c083240f7aacaa2d0f6260403392a4803b61046357005b60a060006104ad958895604051978896879586938563f23a6e6160e01b9d8e87523360048801521660248601526044356044860152606435606486015284015260a4830190611dfb565b0393165af1600091816105a4575b5061057a5750506001906104cd6121ff565b6308c379a014610545575b506104df57005b60405162461bcd60e51b815260206004820152603460248201527f455243313135353a207472616e7366657220746f206e6f6e2d455243313135356044820152732932b1b2b4bb32b91034b6b83632b6b2b73a32b960611b6064820152608490fd5b0390fd5b61054d61221d565b908161055957506104d8565b61054160405192839262461bcd60e51b845260048401526024830190611dfb565b6001600160e01b0319161490506102835760405162461bcd60e51b815280610541600482016121b6565b6105c5919250843d86116105cc575b6105bd8183611db7565b810190612196565b90846104bb565b503d6105b3565b92959194909360005b8451811015610672576105ef8186611fc1565b51906105fb8188611fc1565b5182600052600360205260406000205481811061062f5761062a93600052600360205203604060002055611fb2565b6105dc565b60405162461bcd60e51b81526020600482015260286024820152600080516020612602833981519152604482015267616c537570706c7960c01b60648201528b90fd5b509350939094915085806103a1565b959260009794919592975b86518110156106b357806106a36106ae928b611fc1565b516102af828a611fc1565b61068c565b50929596919490939661039c565b50828416600052600160205260406000203360005260205261036e60ff604060002054169050610365565b3461030857604036600319011261030857610705611d1b565b61070d611d31565b9060018060a01b03809116600052600160205260406000209116600052602052602060ff604060002054166040519015158152f35b346103085760203660031901126103085760043560005260036020526020604060002054604051908152f35b3461030857606036600319011261030857610787611d1b565b6001600160401b0390602435828111610308576107a8903690600401611edb565b91604435818111610308576107c1903690600401611edb565b9060069081549260ff8460081c161595868097610c07575b8015610bf0575b15610b9457600194878660ff198316178655610b83575b508051838111610a70578061080d600a54611d47565b92601f93848111610b13575b50602090848311600114610a9157600092610a86575b5050600019600383901b1c191690861b17600a555b8151928311610a7057829161085a600b54611d47565b8281116109fe575b50602091831160011461097c57600092610971575b5050600019600383901b1c191690831b17600b555b336001600160601b0360a01b600954161760095580549260ff8460081c16156109185762010000600160b01b0360109190911b1662010000600160b01b0319841681178255936108d857005b610100600160b01b031990921690921790556040519081527f7f26b83ff96e1f2b6a682f133852f6798a09c465da95921460cefb384740249890602090a1005b60405162461bcd60e51b815260206004820152602b60248201527f496e697469616c697a61626c653a20636f6e7472616374206973206e6f74206960448201526a6e697469616c697a696e6760a81b6064820152608490fd5b015190508680610877565b90859350601f19831691600b6000527f0175b7a638427703f0dbe7bb9bbf987a2551717b34e79f33b5b1008d1fa01db99260005b8181106109e6575084116109cd575b505050811b01600b5561088c565b015160001960f88460031b161c191690558680806109bf565b828401518555889690940193602093840193016109b0565b90919250600b6000527f0175b7a638427703f0dbe7bb9bbf987a2551717b34e79f33b5b1008d1fa01db98380860160051c82019260208710610a67575b91869589929594930160051c01915b828110610a58575050610862565b60008155869550889101610a4a565b92508192610a3b565b634e487b7160e01b600052604160045260246000fd5b01519050898061082f565b90889350601f19831691600a6000527fc65a7bb8d6351c1cf70c95a316cc6a92839c986682d98bc35f958f4883f9d2a89260005b818110610afb57508411610ae2575b505050811b01600a55610844565b015160001960f88460031b161c19169055898080610ad4565b8284015185558b969094019360209384019301610ac5565b909150600a6000527fc65a7bb8d6351c1cf70c95a316cc6a92839c986682d98bc35f958f4883f9d2a88480850160051c82019260208610610b7a575b918a91869594930160051c01915b828110610b6b575050610819565b600081558594508a9101610b5d565b92508192610b4f565b61ffff1916610101178455876107f7565b60405162461bcd60e51b815260206004820152602e60248201527f496e697469616c697a61626c653a20636f6e747261637420697320616c72656160448201526d191e481a5b9a5d1a585b1a5e995960921b6064820152608490fd5b50303b1580156107e05750600160ff8616146107e0565b50600160ff8616106107d9565b3461030857604036600319011261030857610c2d611d1b565b60243590811515809203610308576001600160a01b031690338214610ca157336000526001602052604060002082600052602052604060002060ff1981541660ff83161790556040519081527f17307eab39ab6107e8899845ad3d59bd9653f200f220920489ca2b5937696c3160203392a3005b60405162461bcd60e51b815260206004820152602960248201527f455243313135353a2073657474696e6720617070726f76616c20737461747573604482015268103337b91039b2b63360b91b6064820152608490fd5b34610308576000366003190112610308576040516000600b54610d1a81611d47565b80845290600190818116908115610db75750600114610d5c575b610d5884610d4481860382611db7565b604051918291602083526020830190611dfb565b0390f35b600b600090815292507f0175b7a638427703f0dbe7bb9bbf987a2551717b34e79f33b5b1008d1fa01db95b828410610d9f575050508101602001610d4482610d34565b80546020858701810191909152909301928101610d87565b60ff191660208087019190915292151560051b85019092019250610d449150839050610d34565b346103085760003660031901126103085760065460405160109190911c6001600160a01b03168152602090f35b34610308576040366003190112610308576001600160401b0360043560243582811161030857366023820112156103085780600401359083821161030857366024838301011161030857610e7891610e6e60018060a01b03600954163314612360565b6024369201611e95565b9181600052602090600582526040600020908451908111610a7057610e9d8254611d47565b601f8111610faa575b5082601f8211600114610f235781907f6bb7ff708619ba0610cba295a58592e0451dee2622938c8755667688daf3529b9596600092610f18575b50508160011b916000199060031b1c19161790555b610efe836123c2565b90610f13604051928284938452830190611dfb565b0390a2005b015190508680610ee0565b601f1982169583600052846000209660005b818110610f935750917f6bb7ff708619ba0610cba295a58592e0451dee2622938c8755667688daf3529b969791846001959410610f7a575b505050811b019055610ef5565b015160001960f88460031b161c19169055868080610f6d565b838301518955600190980197928601928601610f35565b8260005283600020601f830160051c810191858410610fe6575b601f0160051c01905b818110610fda5750610ea6565b60008155600101610fcd565b9091508190610fc4565b3461030857608036600319011261030857611009611d1b565b604435906024356064356001600160401b0381116103085761102f903690600401611edb565b9160018060a01b0361104681600954163314612360565b8116918215611154576110588161228b565b926110628661228b565b9560005b855181101561108d578061107d611088928a611fc1565b516102af8289611fc1565b611066565b50858360005260209460008652604060002084600052865260406000206110b5848254612107565b905583600060405187815285898201527fc3d58168c5ae7397731d063d5bbf3d657854427343f4c083240f7aacaa2d0f6260403392a43b6110f257005b611136928592600060405180968195829463f23a6e6160e01b9a8b85523360048601528560248601526044850152606484015260a0608484015260a4830190611dfb565b03925af1600091816105a4575061057a5750506001906104cd6121ff565b60405162461bcd60e51b815260206004820152602160248201527f455243313135353a206d696e7420746f20746865207a65726f206164647265736044820152607360f81b6064820152608490fd5b34610308576060366003190112610308576111bc611d1b565b6024906001600160401b03908235828111610308576111df903690600401611e37565b916044908135908111610308576111fa903690600401611e37565b6001600160a01b039092169233841480156113d4575b61121990611feb565b831561122581156122b0565b6112328251855114612114565b600060405161124081611d9c565b5261139c575b60005b81518110156112e25761125c8183611fc1565b516112678286611fc1565b51908060005260036020818152604060002054928484106112a0579061129b95949392916000525203604060002055611fb2565b611249565b60405162461bcd60e51b8152600481018390526028818d0152600080516020612602833981519152818a015267616c537570706c7960c01b6064820152608490fd5b83828660005b825181101561135757806112ff6113529285611fc1565b5161130a8287611fc1565b51908060005260206000815260406000208660005281526040600020549161133484841015612308565b60005260008152604060002090866000525203604060002055611fb2565b6112e8565b50907f4a39dc06d4c0dbc64b70af90fd698a233a518aa5d07e595d983b8c0526c8f7fb61138e600094604051918291339583612171565b0390a4610283604051611d9c565b9260009491945b84518110156113ca57806113ba6113c59286611fc1565b516102af8288611fc1565b6113a3565b5092939093611246565b5083600052600160205260406000203360005260205261121960ff604060002054169050611210565b3461030857606036600319011261030857611416611d31565b6044356001600160601b038116809103610308576009546001600160a01b0392906114449084163314612360565b61271082116114de578216918215611499576040519261146384611d81565b83526020830191825260043560005260086020526040600020925116906001600160601b0360a01b905160a01b16179055600080f35b60405162461bcd60e51b815260206004820152601b60248201527f455243323938313a20496e76616c696420706172616d657465727300000000006044820152606490fd5b60405162461bcd60e51b815260206004820152602a60248201527f455243323938313a20726f79616c7479206665652077696c6c206578636565646044820152692073616c65507269636560b01b6064820152608490fd5b3461030857602036600319011261030857600435600052600360205260206040600020541515604051908152f35b34610308576040366003190112610308576004356001600160401b038082116103085736602383011215610308578160040135906115a182611e20565b926115af6040519485611db7565b82845260209260248486019160051b8301019136831161030857602401905b8282106116e357505050602435908111610308576115f0903690600401611e37565b825181510361168c5782519261160584611e20565b936116136040519586611db7565b808552611622601f1991611e20565b01368486013760005b815181101561167557611670906116606001600160a01b0361164d8386611fc1565b51166116598387611fc1565b5190611f2d565b61166a8288611fc1565b52611fb2565b61162b565b505050610d58604051928284938452830190611ef9565b60405162461bcd60e51b815260048101839052602960248201527f455243313135353a206163636f756e747320616e6420696473206c656e677468604482015268040dad2e6dac2e8c6d60bb1b6064820152608490fd5b81356001600160a01b03811681036103085781529084019084016115ce565b346103085760031960a0368201126103085761171c611d1b565b90611725611d31565b6044908135926001600160401b039384811161030857611749903690600401611e37565b6064803586811161030857611762903690600401611e37565b9460849687359081116103085761177d903690600401611edb565b6001600160a01b039489861633148015611ab2575b61179b90611feb565b6117a88551895114612114565b858716156117b6811561204e565b868b1615611a6f575b6119ba575b60005b855181101561185d57806117de6118589288611fc1565b518c6117ea838d611fc1565b519180600052826020926000845260406000208d8216600052845260406000205490611818838310156120a8565b83600052600085528d60406000209116600052845203604060002055600052600081526040600020908a8c16600052526102c86040600020918254612107565b6117c7565b50888a989796949789604051887f4a39dc06d4c0dbc64b70af90fd698a233a518aa5d07e595d983b8c0526c8f7fb89808d169416928061189f87339583612171565b0390a4873b6118aa57005b60405198899788968863bc197c8160e01b9d8e8a523360048b0152166024890152870160a0905260a487016118de91611ef9565b908487830301908701526118f191611ef9565b91848303019084015261190391611dfb565b03921691815a602094600091f16000918161199a575b50611972575050600161192a6121ff565b6308c379a01461193b575b6104df57005b61194361221d565b8061194e5750611935565b60405162461bcd60e51b815260206004820152908190610541906024830190611dfb565b6001600160e01b031916146102835760405162461bcd60e51b815280610541600482016121b6565b6119b391925060203d81116105cc576105bd8183611db7565b9083611919565b9796949060009993999692965b8551811015611a5f576119da8187611fc1565b516119e58289611fc1565b51908060005260206003815260406000205491838310611a1e57611a19949392916003916000525203604060002055611fb2565b6119c7565b508b9067616c537570706c7960c01b8f6000805160206126028339815191528e6040519462461bcd60e51b8652600486015260286024860152840152820152fd5b50909496979892989591956117c4565b99969498959392919060005b8a51811015611aa357808b6102af82611a97611a9e958f611fc1565b5192611fc1565b611a7b565b509091929395989496996117bf565b50858a16600052600160205260406000203360005260205261179b60ff604060002054169050611792565b3461030857604036600319011261030857602435600435600052600860205260406000209060405191611b0f83611d81565b546001600160a01b0380821680855260a09290921c6020850152929015611b7d575b6001600160601b0360208201511691828102928184041490151715611b6757604092612710915116918351928352046020820152f35b634e487b7160e01b600052601160045260246000fd5b50604051611b8a81611d81565b600754838116825260a01c6020820152611b31565b3461030857602036600319011261030857610d58610d446004356123c2565b34610308576000366003190112610308576040516000600a54611be081611d47565b80845290600190818116908115610db75750600114611c0957610d5884610d4481860382611db7565b600a600090815292507fc65a7bb8d6351c1cf70c95a316cc6a92839c986682d98bc35f958f4883f9d2a85b828410611c4c575050508101602001610d4482610d34565b80546020858701810191909152909301928101611c34565b346103085760203660031901126103085760043563ffffffff60e01b81168091036103085760209063152a902d60e11b8114908115611ca9575b506040519015158152f35b636cdb3d1360e11b811491508115611cdb575b8115611cca575b5082611c9e565b6301ffc9a760e01b14905082611cc3565b6303a24d0760e21b81149150611cbc565b34610308576040366003190112610308576020611d13611d0a611d1b565b60243590611f2d565b604051908152f35b600435906001600160a01b038216820361030857565b602435906001600160a01b038216820361030857565b90600182811c92168015611d77575b6020831014611d6157565b634e487b7160e01b600052602260045260246000fd5b91607f1691611d56565b604081019081106001600160401b03821117610a7057604052565b602081019081106001600160401b03821117610a7057604052565b90601f801991011681019081106001600160401b03821117610a7057604052565b60005b838110611deb5750506000910152565b8181015183820152602001611ddb565b90602091611e1481518092818552858086019101611dd8565b601f01601f1916010190565b6001600160401b038111610a705760051b60200190565b81601f8201121561030857803591611e4e83611e20565b92611e5c6040519485611db7565b808452602092838086019260051b820101928311610308578301905b828210611e86575050505090565b81358152908301908301611e78565b9291926001600160401b038211610a705760405191611ebe601f8201601f191660200184611db7565b829481845281830111610308578281602093846000960137010152565b9080601f8301121561030857816020611ef693359101611e95565b90565b90815180825260208080930193019160005b828110611f19575050505090565b835185529381019392810192600101611f0b565b6001600160a01b0316908115611f5a57600052600060205260406000209060005260205260406000205490565b60405162461bcd60e51b815260206004820152602a60248201527f455243313135353a2061646472657373207a65726f206973206e6f742061207660448201526930b634b21037bbb732b960b11b6064820152608490fd5b6000198114611b675760010190565b8051821015611fd55760209160051b010190565b634e487b7160e01b600052603260045260246000fd5b15611ff257565b60405162461bcd60e51b815260206004820152602e60248201527f455243313135353a2063616c6c6572206973206e6f7420746f6b656e206f776e60448201526d195c881bdc88185c1c1c9bdd995960921b6064820152608490fd5b1561205557565b60405162461bcd60e51b815260206004820152602560248201527f455243313135353a207472616e7366657220746f20746865207a65726f206164604482015264647265737360d81b6064820152608490fd5b156120af57565b60405162461bcd60e51b815260206004820152602a60248201527f455243313135353a20696e73756666696369656e742062616c616e636520666f60448201526939103a3930b739b332b960b11b6064820152608490fd5b91908201809211611b6757565b1561211b57565b60405162461bcd60e51b815260206004820152602860248201527f455243313135353a2069647320616e6420616d6f756e7473206c656e677468206044820152670dad2e6dac2e8c6d60c31b6064820152608490fd5b9091612188611ef693604084526040840190611ef9565b916020818403910152611ef9565b9081602091031261030857516001600160e01b0319811681036103085790565b60809060208152602860208201527f455243313135353a204552433131353552656365697665722072656a656374656040820152676420746f6b656e7360c01b60608201520190565b60009060033d1161220c57565b905060046000803e60005160e01c90565b600060443d10611ef657604051600319913d83016004833e81516001600160401b03918282113d60248401111761227a57818401948551938411612282573d8501016020848701011161227a5750611ef692910160200190611db7565b949350505050565b50949350505050565b6040519061229882611d81565b60018252602082016020368237825115611fd5575290565b156122b757565b60405162461bcd60e51b815260206004820152602360248201527f455243313135353a206275726e2066726f6d20746865207a65726f206164647260448201526265737360e81b6064820152608490fd5b1561230f57565b60405162461bcd60e51b8152602060048201526024808201527f455243313135353a206275726e20616d6f756e7420657863656564732062616c604482015263616e636560e01b6064820152608490fd5b1561236757565b60405162461bcd60e51b815260206004820152602d60248201527f4b617469626568313135353a207265737472696374656420616363657373207460448201526c6f2074686520466163746f727960981b6064820152608490fd5b6000908152602090600582526040812090604051908091835492816123e685611d47565b91828252878201966001968988821691826000146125e35750506001146125a5575b5061241592500382611db7565b8051156124ea57604051948593836004549161243083611d47565b928181169081156124c95750600114612469575b5050505061245a611ef694839251938491611dd8565b0103601f198101835282611db7565b909192969450600482527f8a35acfbc15ff81a39ae7d344fd709f28e8600b4aa8c65c6b64bfe7fe36bd19b5b8383106124b357505050611ef69461245a9185010192943880612444565b8054898401890152889650918701918101612495565b60ff19168886015250505080151502840101915061245a611ef63880612444565b506040516002549094935084928261250183611d47565b808652928281169081156125835750600114612527575b505050611ef692500382611db7565b600281527f405787fa12a823e0f2b7631cc41b3ba8828b3321ca811111fa75cd3aa3bb5ace95935091905b81831061256b575050611ef69350820101388080612518565b85548784018501529485019486945091830191612552565b92505050611ef694925060ff191682840152151560051b820101388080612518565b915050835281868085208686915b8583106125ca575050612415935082010138612408565b80919294505483858801015201910187908685936125b3565b60ff19168a5261241595151560051b8501019250389150612408905056fe455243313135353a206275726e20616d6f756e74206578636565647320746f74a264697066735822122013d4eabab9e227cabadfc4540d314e97959ddf27d8e6f4651d6e744153b0c40364736f6c63430008130033",
  "linkReferences": {},
  "deployedLinkReferences": {}
}