{
  "_format": "hh-sol-artifact-1",
  "contractName": "Factory1155",
  "sourceName": "contracts/katibeh1155/Factory1155.sol",
  "abi": [
    {
      "inputs": [
        {
          "internalType": "address",
          "name": "qhAddr",
          "type": "address"
        },
        {
          "internalType": "uint96",
          "name": "_startTime",
          "type": "uint96"
        }
      ],
      "stateMutability": "nonpayable",
      "type": "constructor"
    },
    {
      "anonymous": false,
      "inputs": [
        {
          "indexed": true,
          "internalType": "uint256",
          "name": "tokenHash",
          "type": "uint256"
        },
        {
          "indexed": true,
          "internalType": "uint256",
          "name": "toTokenHash",
          "type": "uint256"
        }
      ],
      "name": "NewReply",
      "type": "event"
    },
    {
      "anonymous": false,
      "inputs": [
        {
          "indexed": true,
          "internalType": "uint256",
          "name": "tokenHash",
          "type": "uint256"
        },
        {
          "indexed": true,
          "internalType": "address",
          "name": "creator",
          "type": "address"
        },
        {
          "indexed": true,
          "internalType": "bytes",
          "name": "data",
          "type": "bytes"
        }
      ],
      "name": "NewToken",
      "type": "event"
    },
    {
      "anonymous": false,
      "inputs": [
        {
          "indexed": false,
          "internalType": "uint256",
          "name": "tokenHash",
          "type": "uint256"
        },
        {
          "indexed": true,
          "internalType": "bytes32",
          "name": "tag1",
          "type": "bytes32"
        },
        {
          "indexed": true,
          "internalType": "bytes32",
          "name": "tag2",
          "type": "bytes32"
        },
        {
          "indexed": true,
          "internalType": "bytes32",
          "name": "tag3",
          "type": "bytes32"
        }
      ],
      "name": "Tags",
      "type": "event"
    },
    {
      "anonymous": false,
      "inputs": [
        {
          "indexed": true,
          "internalType": "uint256",
          "name": "tokenHash",
          "type": "uint256"
        },
        {
          "indexed": false,
          "internalType": "bytes",
          "name": "data",
          "type": "bytes"
        }
      ],
      "name": "TokenData",
      "type": "event"
    },
    {
      "anonymous": false,
      "inputs": [
        {
          "indexed": true,
          "internalType": "address",
          "name": "operator",
          "type": "address"
        },
        {
          "indexed": true,
          "internalType": "address",
          "name": "from",
          "type": "address"
        },
        {
          "indexed": true,
          "internalType": "address",
          "name": "to",
          "type": "address"
        },
        {
          "indexed": false,
          "internalType": "uint256",
          "name": "id",
          "type": "uint256"
        },
        {
          "indexed": false,
          "internalType": "uint256",
          "name": "value",
          "type": "uint256"
        }
      ],
      "name": "TransferSingle",
      "type": "event"
    },
    {
      "inputs": [],
      "name": "QH",
      "outputs": [
        {
          "internalType": "contract IQHash",
          "name": "",
          "type": "address"
        }
      ],
      "stateMutability": "view",
      "type": "function"
    },
    {
      "inputs": [
        {
          "internalType": "address",
          "name": "",
          "type": "address"
        }
      ],
      "name": "_collectorScore",
      "outputs": [
        {
          "internalType": "uint256",
          "name": "",
          "type": "uint256"
        }
      ],
      "stateMutability": "view",
      "type": "function"
    },
    {
      "inputs": [
        {
          "internalType": "uint256",
          "name": "",
          "type": "uint256"
        }
      ],
      "name": "_tokenCollection",
      "outputs": [
        {
          "internalType": "address",
          "name": "addr",
          "type": "address"
        },
        {
          "internalType": "uint96",
          "name": "tokenId",
          "type": "uint96"
        }
      ],
      "stateMutability": "view",
      "type": "function"
    },
    {
      "inputs": [
        {
          "internalType": "address",
          "name": "collector",
          "type": "address"
        },
        {
          "components": [
            {
              "internalType": "address",
              "name": "addr",
              "type": "address"
            },
            {
              "internalType": "uint96",
              "name": "tokenId",
              "type": "uint96"
            }
          ],
          "internalType": "struct Factory1155.Collection",
          "name": "tokenInfo",
          "type": "tuple"
        },
        {
          "internalType": "uint256",
          "name": "amount",
          "type": "uint256"
        },
        {
          "internalType": "bytes",
          "name": "data",
          "type": "bytes"
        },
        {
          "components": [
            {
              "internalType": "address payable",
              "name": "recipient",
              "type": "address"
            },
            {
              "internalType": "uint96",
              "name": "percentInBasisPoints",
              "type": "uint96"
            }
          ],
          "internalType": "struct SplitterForOwners.Share[]",
          "name": "dapps",
          "type": "tuple[]"
        }
      ],
      "name": "collectTo",
      "outputs": [],
      "stateMutability": "payable",
      "type": "function"
    },
    {
      "inputs": [
        {
          "internalType": "address",
          "name": "collector",
          "type": "address"
        },
        {
          "internalType": "uint256",
          "name": "tokenHash",
          "type": "uint256"
        },
        {
          "internalType": "uint256",
          "name": "amount",
          "type": "uint256"
        },
        {
          "components": [
            {
              "internalType": "address",
              "name": "creator",
              "type": "address"
            },
            {
              "internalType": "uint96",
              "name": "signTime",
              "type": "uint96"
            },
            {
              "internalType": "string",
              "name": "tokenURI",
              "type": "string"
            },
            {
              "internalType": "bytes",
              "name": "data",
              "type": "bytes"
            },
            {
              "internalType": "uint256[]",
              "name": "toTokenHash",
              "type": "uint256[]"
            },
            {
              "internalType": "bytes32[]",
              "name": "tags",
              "type": "bytes32[]"
            },
            {
              "components": [
                {
                  "internalType": "address payable",
                  "name": "recipient",
                  "type": "address"
                },
                {
                  "internalType": "uint96",
                  "name": "percentInBasisPoints",
                  "type": "uint96"
                }
              ],
              "internalType": "struct SplitterForOwners.Share[]",
              "name": "owners",
              "type": "tuple[]"
            },
            {
              "components": [
                {
                  "internalType": "uint256",
                  "name": "A",
                  "type": "uint256"
                },
                {
                  "internalType": "int256",
                  "name": "B",
                  "type": "int256"
                },
                {
                  "internalType": "uint96",
                  "name": "totalSupply",
                  "type": "uint96"
                },
                {
                  "internalType": "uint96",
                  "name": "expTime",
                  "type": "uint96"
                },
                {
                  "internalType": "uint64",
                  "name": "discount",
                  "type": "uint64"
                },
                {
                  "internalType": "uint96",
                  "name": "initTime",
                  "type": "uint96"
                },
                {
                  "internalType": "uint96",
                  "name": "royalty",
                  "type": "uint96"
                },
                {
                  "internalType": "uint256",
                  "name": "chainId",
                  "type": "uint256"
                }
              ],
              "internalType": "struct DataStorage.Pricing[]",
              "name": "pricing",
              "type": "tuple[]"
            }
          ],
          "internalType": "struct DataStorage.Katibeh",
          "name": "katibeh",
          "type": "tuple"
        },
        {
          "internalType": "bytes",
          "name": "sig",
          "type": "bytes"
        },
        {
          "internalType": "bytes",
          "name": "data",
          "type": "bytes"
        },
        {
          "components": [
            {
              "internalType": "address payable",
              "name": "recipient",
              "type": "address"
            },
            {
              "internalType": "uint96",
              "name": "percentInBasisPoints",
              "type": "uint96"
            }
          ],
          "internalType": "struct SplitterForOwners.Share[]",
          "name": "dapps",
          "type": "tuple[]"
        }
      ],
      "name": "collectTo",
      "outputs": [],
      "stateMutability": "payable",
      "type": "function"
    },
    {
      "inputs": [
        {
          "components": [
            {
              "internalType": "address",
              "name": "addr",
              "type": "address"
            },
            {
              "internalType": "uint96",
              "name": "tokenId",
              "type": "uint96"
            }
          ],
          "internalType": "struct Factory1155.Collection",
          "name": "tokenInfo",
          "type": "tuple"
        },
        {
          "internalType": "uint256",
          "name": "amount",
          "type": "uint256"
        }
      ],
      "name": "feeAndSupply",
      "outputs": [
        {
          "internalType": "uint256",
          "name": "_fee",
          "type": "uint256"
        },
        {
          "internalType": "uint256",
          "name": "supply",
          "type": "uint256"
        }
      ],
      "stateMutability": "view",
      "type": "function"
    },
    {
      "inputs": [
        {
          "internalType": "uint256",
          "name": "tokenHash",
          "type": "uint256"
        },
        {
          "internalType": "uint256",
          "name": "amount",
          "type": "uint256"
        },
        {
          "components": [
            {
              "internalType": "address",
              "name": "creator",
              "type": "address"
            },
            {
              "internalType": "uint96",
              "name": "signTime",
              "type": "uint96"
            },
            {
              "internalType": "string",
              "name": "tokenURI",
              "type": "string"
            },
            {
              "internalType": "bytes",
              "name": "data",
              "type": "bytes"
            },
            {
              "internalType": "uint256[]",
              "name": "toTokenHash",
              "type": "uint256[]"
            },
            {
              "internalType": "bytes32[]",
              "name": "tags",
              "type": "bytes32[]"
            },
            {
              "components": [
                {
                  "internalType": "address payable",
                  "name": "recipient",
                  "type": "address"
                },
                {
                  "internalType": "uint96",
                  "name": "percentInBasisPoints",
                  "type": "uint96"
                }
              ],
              "internalType": "struct SplitterForOwners.Share[]",
              "name": "owners",
              "type": "tuple[]"
            },
            {
              "components": [
                {
                  "internalType": "uint256",
                  "name": "A",
                  "type": "uint256"
                },
                {
                  "internalType": "int256",
                  "name": "B",
                  "type": "int256"
                },
                {
                  "internalType": "uint96",
                  "name": "totalSupply",
                  "type": "uint96"
                },
                {
                  "internalType": "uint96",
                  "name": "expTime",
                  "type": "uint96"
                },
                {
                  "internalType": "uint64",
                  "name": "discount",
                  "type": "uint64"
                },
                {
                  "internalType": "uint96",
                  "name": "initTime",
                  "type": "uint96"
                },
                {
                  "internalType": "uint96",
                  "name": "royalty",
                  "type": "uint96"
                },
                {
                  "internalType": "uint256",
                  "name": "chainId",
                  "type": "uint256"
                }
              ],
              "internalType": "struct DataStorage.Pricing[]",
              "name": "pricing",
              "type": "tuple[]"
            }
          ],
          "internalType": "struct DataStorage.Katibeh",
          "name": "katibeh",
          "type": "tuple"
        }
      ],
      "name": "feeAndSupply",
      "outputs": [
        {
          "internalType": "uint256",
          "name": "_fee",
          "type": "uint256"
        },
        {
          "internalType": "uint256",
          "name": "supply",
          "type": "uint256"
        }
      ],
      "stateMutability": "view",
      "type": "function"
    },
    {
      "inputs": [
        {
          "internalType": "address",
          "name": "collector",
          "type": "address"
        },
        {
          "internalType": "uint256",
          "name": "tokenHash",
          "type": "uint256"
        },
        {
          "internalType": "uint256",
          "name": "amount",
          "type": "uint256"
        },
        {
          "components": [
            {
              "internalType": "address",
              "name": "creator",
              "type": "address"
            },
            {
              "internalType": "uint96",
              "name": "signTime",
              "type": "uint96"
            },
            {
              "internalType": "string",
              "name": "tokenURI",
              "type": "string"
            },
            {
              "internalType": "bytes",
              "name": "data",
              "type": "bytes"
            },
            {
              "internalType": "uint256[]",
              "name": "toTokenHash",
              "type": "uint256[]"
            },
            {
              "internalType": "bytes32[]",
              "name": "tags",
              "type": "bytes32[]"
            },
            {
              "components": [
                {
                  "internalType": "address payable",
                  "name": "recipient",
                  "type": "address"
                },
                {
                  "internalType": "uint96",
                  "name": "percentInBasisPoints",
                  "type": "uint96"
                }
              ],
              "internalType": "struct SplitterForOwners.Share[]",
              "name": "owners",
              "type": "tuple[]"
            },
            {
              "components": [
                {
                  "internalType": "uint256",
                  "name": "A",
                  "type": "uint256"
                },
                {
                  "internalType": "int256",
                  "name": "B",
                  "type": "int256"
                },
                {
                  "internalType": "uint96",
                  "name": "totalSupply",
                  "type": "uint96"
                },
                {
                  "internalType": "uint96",
                  "name": "expTime",
                  "type": "uint96"
                },
                {
                  "internalType": "uint64",
                  "name": "discount",
                  "type": "uint64"
                },
                {
                  "internalType": "uint96",
                  "name": "initTime",
                  "type": "uint96"
                },
                {
                  "internalType": "uint96",
                  "name": "royalty",
                  "type": "uint96"
                },
                {
                  "internalType": "uint256",
                  "name": "chainId",
                  "type": "uint256"
                }
              ],
              "internalType": "struct DataStorage.Pricing[]",
              "name": "pricing",
              "type": "tuple[]"
            }
          ],
          "internalType": "struct DataStorage.Katibeh",
          "name": "katibeh",
          "type": "tuple"
        },
        {
          "internalType": "bytes",
          "name": "sig",
          "type": "bytes"
        },
        {
          "internalType": "bytes",
          "name": "data",
          "type": "bytes"
        },
        {
          "components": [
            {
              "internalType": "address payable",
              "name": "recipient",
              "type": "address"
            },
            {
              "internalType": "uint96",
              "name": "percentInBasisPoints",
              "type": "uint96"
            }
          ],
          "internalType": "struct SplitterForOwners.Share[]",
          "name": "dapps",
          "type": "tuple[]"
        }
      ],
      "name": "firstPrivateCollect",
      "outputs": [],
      "stateMutability": "payable",
      "type": "function"
    },
    {
      "inputs": [
        {
          "internalType": "address",
          "name": "collector",
          "type": "address"
        },
        {
          "internalType": "uint256",
          "name": "tokenHash",
          "type": "uint256"
        },
        {
          "internalType": "uint256",
          "name": "amount",
          "type": "uint256"
        },
        {
          "components": [
            {
              "internalType": "address",
              "name": "creator",
              "type": "address"
            },
            {
              "internalType": "uint96",
              "name": "signTime",
              "type": "uint96"
            },
            {
              "internalType": "string",
              "name": "tokenURI",
              "type": "string"
            },
            {
              "internalType": "bytes",
              "name": "data",
              "type": "bytes"
            },
            {
              "internalType": "uint256[]",
              "name": "toTokenHash",
              "type": "uint256[]"
            },
            {
              "internalType": "bytes32[]",
              "name": "tags",
              "type": "bytes32[]"
            },
            {
              "components": [
                {
                  "internalType": "address payable",
                  "name": "recipient",
                  "type": "address"
                },
                {
                  "internalType": "uint96",
                  "name": "percentInBasisPoints",
                  "type": "uint96"
                }
              ],
              "internalType": "struct SplitterForOwners.Share[]",
              "name": "owners",
              "type": "tuple[]"
            },
            {
              "components": [
                {
                  "internalType": "uint256",
                  "name": "A",
                  "type": "uint256"
                },
                {
                  "internalType": "int256",
                  "name": "B",
                  "type": "int256"
                },
                {
                  "internalType": "uint96",
                  "name": "totalSupply",
                  "type": "uint96"
                },
                {
                  "internalType": "uint96",
                  "name": "expTime",
                  "type": "uint96"
                },
                {
                  "internalType": "uint64",
                  "name": "discount",
                  "type": "uint64"
                },
                {
                  "internalType": "uint96",
                  "name": "initTime",
                  "type": "uint96"
                },
                {
                  "internalType": "uint96",
                  "name": "royalty",
                  "type": "uint96"
                },
                {
                  "internalType": "uint256",
                  "name": "chainId",
                  "type": "uint256"
                }
              ],
              "internalType": "struct DataStorage.Pricing[]",
              "name": "pricing",
              "type": "tuple[]"
            }
          ],
          "internalType": "struct DataStorage.Katibeh",
          "name": "katibeh",
          "type": "tuple"
        },
        {
          "internalType": "bytes",
          "name": "sig",
          "type": "bytes"
        },
        {
          "internalType": "bytes",
          "name": "data",
          "type": "bytes"
        },
        {
          "components": [
            {
              "internalType": "address payable",
              "name": "recipient",
              "type": "address"
            },
            {
              "internalType": "uint96",
              "name": "percentInBasisPoints",
              "type": "uint96"
            }
          ],
          "internalType": "struct SplitterForOwners.Share[]",
          "name": "dapps",
          "type": "tuple[]"
        }
      ],
      "name": "firstPublicCollect",
      "outputs": [],
      "stateMutability": "payable",
      "type": "function"
    },
    {
      "inputs": [],
      "name": "implementation",
      "outputs": [
        {
          "internalType": "contract Katibeh1155",
          "name": "",
          "type": "address"
        }
      ],
      "stateMutability": "view",
      "type": "function"
    },
    {
      "inputs": [
        {
          "internalType": "uint256",
          "name": "x",
          "type": "uint256"
        },
        {
          "internalType": "uint256",
          "name": "y",
          "type": "uint256"
        }
      ],
      "name": "pow",
      "outputs": [
        {
          "internalType": "uint256",
          "name": "result",
          "type": "uint256"
        }
      ],
      "stateMutability": "pure",
      "type": "function"
    },
    {
      "inputs": [
        {
          "internalType": "address",
          "name": "creatorAddr",
          "type": "address"
        },
        {
          "internalType": "string",
          "name": "tag0",
          "type": "string"
        }
      ],
      "name": "predictCollAddr",
      "outputs": [
        {
          "internalType": "address",
          "name": "",
          "type": "address"
        }
      ],
      "stateMutability": "view",
      "type": "function"
    },
    {
      "inputs": [
        {
          "internalType": "uint256",
          "name": "tokenHash",
          "type": "uint256"
        },
        {
          "internalType": "address",
          "name": "collector",
          "type": "address"
        },
        {
          "internalType": "uint256",
          "name": "amount",
          "type": "uint256"
        },
        {
          "internalType": "bytes",
          "name": "data",
          "type": "bytes"
        },
        {
          "components": [
            {
              "internalType": "address payable",
              "name": "recipient",
              "type": "address"
            },
            {
              "internalType": "uint96",
              "name": "percentInBasisPoints",
              "type": "uint96"
            }
          ],
          "internalType": "struct SplitterForOwners.Share[]",
          "name": "dapps",
          "type": "tuple[]"
        }
      ],
      "name": "privateCollect",
      "outputs": [],
      "stateMutability": "payable",
      "type": "function"
    },
    {
      "inputs": [
        {
          "components": [
            {
              "internalType": "address",
              "name": "addr",
              "type": "address"
            },
            {
              "internalType": "uint96",
              "name": "tokenId",
              "type": "uint96"
            }
          ],
          "internalType": "struct Factory1155.Collection",
          "name": "tokenInfo",
          "type": "tuple"
        },
        {
          "internalType": "address",
          "name": "collector",
          "type": "address"
        },
        {
          "internalType": "uint256",
          "name": "amount",
          "type": "uint256"
        },
        {
          "internalType": "bytes",
          "name": "data",
          "type": "bytes"
        },
        {
          "components": [
            {
              "internalType": "address payable",
              "name": "recipient",
              "type": "address"
            },
            {
              "internalType": "uint96",
              "name": "percentInBasisPoints",
              "type": "uint96"
            }
          ],
          "internalType": "struct SplitterForOwners.Share[]",
          "name": "dapps",
          "type": "tuple[]"
        }
      ],
      "name": "privateCollect",
      "outputs": [],
      "stateMutability": "payable",
      "type": "function"
    },
    {
      "inputs": [
        {
          "components": [
            {
              "internalType": "address",
              "name": "addr",
              "type": "address"
            },
            {
              "internalType": "uint96",
              "name": "tokenId",
              "type": "uint96"
            }
          ],
          "internalType": "struct Factory1155.Collection",
          "name": "tokenInfo",
          "type": "tuple"
        },
        {
          "internalType": "address",
          "name": "collector",
          "type": "address"
        },
        {
          "internalType": "uint256",
          "name": "amount",
          "type": "uint256"
        },
        {
          "internalType": "bytes",
          "name": "data",
          "type": "bytes"
        },
        {
          "components": [
            {
              "internalType": "address payable",
              "name": "recipient",
              "type": "address"
            },
            {
              "internalType": "uint96",
              "name": "percentInBasisPoints",
              "type": "uint96"
            }
          ],
          "internalType": "struct SplitterForOwners.Share[]",
          "name": "dapps",
          "type": "tuple[]"
        }
      ],
      "name": "publicCollect",
      "outputs": [],
      "stateMutability": "payable",
      "type": "function"
    },
    {
      "inputs": [
        {
          "internalType": "uint256",
          "name": "supply",
          "type": "uint256"
        },
        {
          "internalType": "uint256",
          "name": "amount",
          "type": "uint256"
        },
        {
          "internalType": "uint256",
          "name": "initialSupply",
          "type": "uint256"
        }
      ],
      "name": "publicFee",
      "outputs": [
        {
          "internalType": "uint256",
          "name": "result",
          "type": "uint256"
        }
      ],
      "stateMutability": "pure",
      "type": "function"
    },
    {
      "inputs": [
        {
          "internalType": "address payable",
          "name": "newAddr",
          "type": "address"
        }
      ],
      "name": "setReceiver1",
      "outputs": [],
      "stateMutability": "nonpayable",
      "type": "function"
    },
    {
      "inputs": [],
      "name": "split",
      "outputs": [
        {
          "internalType": "contract SplitterForOwners",
          "name": "",
          "type": "address"
        }
      ],
      "stateMutability": "view",
      "type": "function"
    },
    {
      "inputs": [],
      "name": "startTime",
      "outputs": [
        {
          "internalType": "uint96",
          "name": "",
          "type": "uint96"
        }
      ],
      "stateMutability": "view",
      "type": "function"
    },
    {
      "inputs": [
        {
          "internalType": "address",
          "name": "",
          "type": "address"
        },
        {
          "internalType": "uint96",
          "name": "",
          "type": "uint96"
        }
      ],
      "name": "tokenPricing",
      "outputs": [
        {
          "internalType": "uint256",
          "name": "A",
          "type": "uint256"
        },
        {
          "internalType": "int256",
          "name": "B",
          "type": "int256"
        },
        {
          "internalType": "uint96",
          "name": "totalSupply",
          "type": "uint96"
        },
        {
          "internalType": "uint96",
          "name": "expTime",
          "type": "uint96"
        },
        {
          "internalType": "uint64",
          "name": "discount",
          "type": "uint64"
        },
        {
          "internalType": "uint96",
          "name": "initTime",
          "type": "uint96"
        },
        {
          "internalType": "uint96",
          "name": "royalty",
          "type": "uint96"
        },
        {
          "internalType": "uint256",
          "name": "chainId",
          "type": "uint256"
        }
      ],
      "stateMutability": "view",
      "type": "function"
    },
    {
      "inputs": [],
      "name": "totalValueLocked",
      "outputs": [
        {
          "internalType": "uint256",
          "name": "",
          "type": "uint256"
        }
      ],
      "stateMutability": "view",
      "type": "function"
    },
    {
      "inputs": [
        {
          "internalType": "uint256",
          "name": "tokenHash",
          "type": "uint256"
        }
      ],
      "name": "uri",
      "outputs": [
        {
          "internalType": "string",
          "name": "",
          "type": "string"
        }
      ],
      "stateMutability": "view",
      "type": "function"
    },
    {
      "inputs": [
        {
          "internalType": "address",
          "name": "",
          "type": "address"
        }
      ],
      "name": "userBalance",
      "outputs": [
        {
          "internalType": "uint256",
          "name": "",
          "type": "uint256"
        }
      ],
      "stateMutability": "view",
      "type": "function"
    },
    {
      "inputs": [],
      "name": "withdraw",
      "outputs": [],
      "stateMutability": "nonpayable",
      "type": "function"
    },
    {
      "inputs": [
        {
          "components": [
            {
              "internalType": "address",
              "name": "addr",
              "type": "address"
            },
            {
              "internalType": "uint96",
              "name": "tokenId",
              "type": "uint96"
            }
          ],
          "internalType": "struct Factory1155.Collection",
          "name": "tokenInfo",
          "type": "tuple"
        }
      ],
      "name": "withdraw",
      "outputs": [],
      "stateMutability": "nonpayable",
      "type": "function"
    }
  ],
  "bytecode": "0x60a034620001655762008507906001600160401b0390601f38849003908101601f191682019083821183831017620001515780839160409687948552833981010312620001655780516001600160a01b038082169390929091849003620001655760200151906001600160601b03821682036200016557845190611bf791828101928184108385111762000151576200691082393083526020815f9403019083f09384156200014757825494166001600160a01b03199485161782558551906128e880830191838310908311176200013357908291620040288339039082f09081156200012857506080523382600154161760015560a01b161760095551613ebe90816200016a823960805181818161089301528181610ba301528181612e940152612fe20152f35b8551903d90823e3d90fd5b634e487b7160e01b84526041600452602484fd5b86513d84823e3d90fd5b634e487b7160e01b5f52604160045260245ffd5b5f80fdfe60806040526004361015610011575f80fd5b5f3560e01c80630103c92b146101a457806303c131481461019f57806308e7c4d01461019a5780630e89341c14610195578063122a89061461019057806324500de21461018b5780632e4c697f146101865780633ccfd60b1461018157806348e3fa611461017c5780635c60da1b146101775780635fd099e61461017257806366cdf9441461016d578063698d88f31461016857806369bcd33e1461016357806378e979251461015e5780638191ea8314610159578063883e71d314610154578063968a577b1461014f5780639c9bead41461014a5780639d58e53f14610145578063b932271914610140578063bae558da1461013b578063d4b1173314610136578063ec18154e146101315763f76541761461012c575f80fd5b611055565b611038565b611020565b610ff4565b610e8f565b610dcb565b610cf2565b610cb7565b610c9f565b610afd565b610a71565b610a53565b6109b7565b610999565b6108c2565b61087e565b6107ea565b6107b8565b610742565b610585565b6104ea565b610345565b6102c3565b610213565b6101d8565b6001600160a01b038116036101ba57565b5f80fd5b600435906101cb826101a9565b565b35906101cb826101a9565b346101ba5760203660031901126101ba576004356101f5816101a9565b60018060a01b03165f526003602052602060405f2054604051908152f35b346101ba5760203660031901126101ba57600435610230816101a9565b600154906001600160a01b0390818316330361025a576001600160a01b0319909216911617600155005b60405162461bcd60e51b815260206004820152603160248201527f4665654d616e616765723a204f6e6c79207265636569766572312063616e206360448201527068616e676520697473206164647265737360781b6064820152608490fd5b5f9103126101ba57565b346101ba575f3660031901126101ba576009546040516001600160a01b039091168152602090f35b5f5b8381106102fc5750505f910152565b81810151838201526020016102ed565b90602091610325815180928185528580860191016102eb565b601f01601f1916010190565b90602061034292818152019061030c565b90565b346101ba5760203660031901126101ba57610378610364600435611542565b60405191829160208352602083019061030c565b0390f35b634e487b7160e01b5f52604160045260245ffd5b604081019081106001600160401b038211176103ab57604052565b61037c565b61010081019081106001600160401b038211176103ab57604052565b6001600160401b0381116103ab57604052565b6101a081019081106001600160401b038211176103ab57604052565b90601f801991011681019081106001600160401b038211176103ab57604052565b604051906101cb826103b0565b604051906101cb82610390565b6001600160601b038116036101ba57565b35906101cb82610436565b60409060031901126101ba576040519061046b82610390565b81600435610478816101a9565b815260206024359161048983610436565b0152565b9181601f840112156101ba578235916001600160401b0383116101ba57602083818601950101116101ba57565b9181601f840112156101ba578235916001600160401b0383116101ba576020808501948460061b0101116101ba57565b60c03660031901126101ba57600435610502816101a9565b60403660231901126101ba576040519061051b82610390565b602435610527816101a9565b825260443561053581610436565b60208301526001600160401b03916084358381116101ba5761055b90369060040161048d565b9060a4359485116101ba576105776105839536906004016104ba565b949093606435916117ca565b005b346101ba573660031901606081126101ba576040136101ba576105f15f6044356105bd6105b18061142f565b6001600160a01b031690565b9160206105c8611445565b60405163bd85b03960e01b81526001600160601b03909116600482015294859081906024820190565b0381865afa93841561070d578194610712575b506040516306fdde0360e01b8152908082600481875afa801561070d5761064f928261063793926106ea575b50506114b9565b5f1a60f81b6001600160f81b031916602960fa1b1490565b156106aa576106916106746106999360018060a01b03165f52600760205260405f2090565b61067c611445565b6001600160601b03165f5260205260405f2090565b549083613a0a565b604080519182526020820192909252f35b6106e591506106de6106d96106746106c061142f565b6001600160a01b03165f90815260046020526040902090565b6114db565b9083613c84565b610699565b61070692503d8091833e6106fe81836103fb565b81019061145b565b5f80610630565b6110b0565b61073491945060203d811161073b575b61072c81836103fb565b8101906110a1565b925f610604565b503d610722565b346101ba5760403660031901126101ba57600435602435600182818316156107a9575b91811c92835b61077a57602083604051908152f35b806107849161391f565b9283828216610798575b50811c928361076b565b6107a2919361391f565b918361078e565b50670de0b6b3a7640000610765565b346101ba575f806003193601126107e75733815260036020526107e360408220828154915533613744565b5080f35b80fd5b60a03660031901126101ba57602435610802816101a9565b6001600160401b03906064358281116101ba5761082390369060040161048d565b6084929192359384116101ba576108416105839436906004016104ba565b9390926004355f52600560205260405f20906040519161086083610390565b546001600160a01b038116835260a01c6020830152604435916122a7565b346101ba575f3660031901126101ba576040517f00000000000000000000000000000000000000000000000000000000000000006001600160a01b03168152602090f35b346101ba5760203660031901126101ba576004355f5260056020526040805f205481519060018060a01b038116825260a01c6020820152f35b90816101009103126101ba5790565b9060e06003198301126101ba5761091f6101be565b9160243591604435916001600160401b03916064358381116101ba5782610948916004016108fb565b926084358181116101ba57836109609160040161048d565b9390939260a4358381116101ba578261097b9160040161048d565b9390939260c4359182116101ba57610995916004016104ba565b9091565b6105836109a53661090a565b98979097969196959295949394611d43565b6109c03661090a565b97805f98929897939796949652600560205260405f20604051906109e382610390565b546001600160a01b03811680835260a09190911c6020830152610a445750610a0e60a08401846110bb565b15610a3f57355f1a60f81b6001600160f81b031916602960fa1b03610a3657610583996119c1565b61058399611d43565b6110f0565b935050925050610583966117ca565b610583610a5f3661090a565b989790979691969592959493946119c1565b346101ba575f3660031901126101ba57602060095460a01c604051908152f35b6001600160401b0381116103ab57601f01601f191660200190565b929192610ab882610a91565b91610ac660405193846103fb565b8294818452818301116101ba578281602093845f960137010152565b9080601f830112156101ba5781602061034293359101610aac565b346101ba5760403660031901126101ba57600435610b1a816101a9565b602435906001600160401b0382116101ba57610b9f610c2391610b70610b5c610b75610b4d610378973690600401610ae2565b60405192839160208301610331565b0391610b70601f19938481018352826103fb565b6114b9565b60405160609490941b6001600160601b0319166020850152603484015260549081018352826103fb565b30907f00000000000000000000000000000000000000000000000000000000000000006001600160a01b0316916043916055936040519260388401526f5af43d82803e903d91602b57fd5bf3ff60248401526014830152733d602d80600a3d3981f3363d3d373d3d3d363d73825260588201526037600c8201206078820152012090565b6040516001600160a01b0390911681529081906020820190565b9060c06003198301126101ba57610c5382610452565b91604435610c60816101a9565b91606435916001600160401b03916084358381116101ba5782610c859160040161048d565b9390939260a4359182116101ba57610995916004016104ba565b610583610cab36610c3d565b959490949391936122a7565b346101ba5760203660031901126101ba57600435610cd4816101a9565b60018060a01b03165f526006602052602060405f2054604051908152f35b346101ba5760403660031901126101ba57610d646040610d1136610452565b8051610d33906020906001600160a01b03165b9201516001600160601b031690565b825163152a902d60e11b81526001600160601b0390911660048201525f602482015292839190829081906044820190565b03915afa801561070d57610583915f91610d9c575b506001600160a01b0381165f908152600360205260408120805491905590613744565b610dbd915060403d8111610dc4575b610db581836103fb565b810190611fe9565b505f610d79565b503d610dab565b346101ba5760403660031901126101ba57610e21600435610deb816101a9565b60243590610df882610436565b60018060a01b03165f52600460205260405f20906001600160601b03165f5260205260405f2090565b80546001820154600283015460038401546004909401546040805194855260208501939093526001600160601b0380831693850193909352606082811c84168186015260c092831c608086015283861660a08601529490941c9091169082015260e081019190915261010090f35b346101ba5760603660031901126101ba576024356044356001600160401b0381116101ba57610ec29036906004016108fb565b5f9182610ee1610edc6004355f52600560205260405f2090565b61107c565b805190916001600160a01b039182168181610f73575b5050610f2b610f12610f0c60a08801886110bb565b90611104565b355f1a60f81b6001600160f81b031916602960fa1b1490565b15610f5a5761069994506020610d24610691949361067c931660018060a01b03165f52600760205260405f2090565b5050506106de610f6e6106e5933690611346565b6137be565b91509550610fbc602087610f90828701516001600160601b031690565b60405163bd85b03960e01b81526001600160601b03909116600482015292839190829081906024820190565b03915afa91821561070d5791610fd6575b50945f80610ef7565b610fee915060203d811161073b5761072c81836103fb565b5f610fcd565b346101ba5760603660031901126101ba576020611018604435602435600435613a0a565b604051908152f35b61058361102c36610c3d565b95949094939193612008565b346101ba575f3660031901126101ba576020600254604051908152f35b346101ba575f3660031901126101ba575f546040516001600160a01b039091168152602090f35b9060405161108981610390565b91546001600160a01b038116835260a01c6020830152565b908160209103126101ba575190565b6040513d5f823e3d90fd5b903590601e19813603018212156101ba57018035906001600160401b0382116101ba57602001918160051b360383136101ba57565b634e487b7160e01b5f52603260045260245ffd5b9015610a3f5790565b9060011015610a3f5760200190565b9060021015610a3f5760400190565b9190811015610a3f5760051b0190565b6001600160401b0381116103ab5760051b60200190565b9080601f830112156101ba57602090823561116c8161113b565b9361117a60405195866103fb565b818552838086019260051b8201019283116101ba578301905b8282106111a1575050505090565b81358152908301908301611193565b9291926111bc8261113b565b6040926111cb845192836103fb565b819581835260208093019160061b8401938185116101ba57915b8483106111f457505050505050565b85838303126101ba57838691825161120b81610390565b8535611216816101a9565b81528286013561122581610436565b838201528152019201916111e5565b9080601f830112156101ba57816020610342933591016111b0565b35906001600160401b03821682036101ba57565b9080601f830112156101ba57813591602061127d8461113b565b9360409361128d855196876103fb565b818652828087019260081b850101938185116101ba578301915b8483106112b75750505050505090565b610100838303126101ba57836101009187516112d2816103b0565b8535815282860135838201526112e9898701610447565b8982015260606112fa818801610447565b90820152608061130b81880161124f565b9082015260a061131c818801610447565b9082015260c061132d818801610447565b9082015260e080870135908201528152019201916112a7565b919091610100818403126101ba5761135c61041c565b92611366826101cd565b845261137460208301610447565b60208501526001600160401b0360408301358181116101ba5782611399918501610ae2565b604086015260608301358181116101ba57826113b6918501610ae2565b606086015260808301358181116101ba57826113d3918501611152565b608086015260a08301358181116101ba57826113f0918501611152565b60a086015260c08301358181116101ba578261140d918501611234565b60c086015260e08301359081116101ba576114289201611263565b60e0830152565b600435610342816101a9565b35610342816101a9565b60243561034281610436565b3561034281610436565b6020818303126101ba578051906001600160401b0382116101ba570181601f820112156101ba57805161148d81610a91565b9261149b60405194856103fb565b818452602082840101116101ba5761034291602080850191016102eb565b6020815191015190602081106114cd575090565b5f199060200360031b1b1690565b906040516114e8816103b0565b60e060048294805484526001810154602085015260028101546001600160601b03908181166040870152818160601c16606087015260c01c6080860152600382015481811660a087015260601c1660c08501520154910152565b6001600160a01b0381165f908152600660205260409020546115e8575f611577610edc6115c0935f52600560205260405f2090565b805161159490602090610d24906105b1906001600160a01b031681565b6040516303a24d0760e21b81526001600160601b03909116600482015292839190829081906024820190565b03915afa90811561070d575f916115d5575090565b610342913d8091833e6106fe81836103fb565b506040516115f5816103df565b61017d81527f646174613a6170706c69636174696f6e2f6a736f6e3b6261736536342c65794a60208201527f755957316c496a6f67496b746864476c695a5767694c434a6b5a584e6a636d6c60408201527f7764476c766269493649434a4f6232347464484a68626e4e6d5a584a68596d7860608201527f6c49697769615731685a3255694f6941695a474630595470706257466e5a533960808201527f7a646d6372654731734f324a68633255324e43785153453479576e6c434d324660a08201527f58556a426852444270546c525a4d306c70516d396156327875595568524f556c60c08201527f7156544a4f65556c6e5a55637863324a7554546c4a625767775a4568424e6b7860e08201527f354f544e6b4d324e315a48704e6457497a536d354d656b6c3354555242646d4d6101008201527f7a576d354a616a51345a4564574e475244516a525155306b7854554e5661556c6101208201527f49617a6c4a616d4e33536c4e4a5a325248566a526b517a466f596d314f6232496101408201527f7a53546c4a62544677576b645363317054535374544d6b59775956644b6247466101608201527f4564335a6b523159305a4551304f45777a546a4a61656a5139496e303d00000061018082015290565b81516040516306fdde0360e01b815292979695949392905f90829060049082906001600160a01b03165afa90811561070d5761181191610637915f91611828575b506114b9565b1561181f576101cb96612008565b6101cb966122a7565b61183b913d8091833e6106fe81836103fb565b5f61180b565b1561184857565b60405162461bcd60e51b815260206004820152602960248201527f466163746f7279313135353a204f6e6c79207075626c696320636f6c6c6563746044820152681030b63637bbb2b21760b91b6064820152608490fd5b634e487b7160e01b5f52601160045260245ffd5b6001600160601b03908116610e0f1901919082116118cd57565b61189f565b6001600160601b0391821690821603919082116118cd57565b908160209103126101ba575161034281610436565b903590601e19813603018212156101ba57018035906001600160401b0382116101ba57602001918160061b360383136101ba57565b906202a3006001600160601b03809316019182116118cd57565b903590601e19813603018212156101ba57018035906001600160401b0382116101ba576020019181360383136101ba57565b908060209392818452848401375f828201840152601f01601f1916010190565b6040906001600160601b0361034295931681528160208201520191611981565b9893946119ee91989396956119e76119e2610f12610f0c60a08c018c6110bb565b611841565b878a6125d4565b611a046119fe60808701876110bb565b90612b69565b611a0d85612e04565b6001600160a01b03811696909160208781019291611a6691611a3d611a3186611451565b60095460a01c906118d2565b604051631d24662960e31b81526001600160601b03909116600482015292839081906024820190565b03818d5afa91821561070d575f92611cb4575b50611b7a611aa9611a9c611aa48c611a9460c0820182611900565b93909161143b565b9236916111b0565b6132db565b95828c85611b0b611aff611afa611af4611aed85611ad78860018060a01b03165f52600760205260405f2090565b906001600160601b03165f5260205260405f2090565b5487613996565b9b611451565b611935565b6001600160601b031690565b4211611c8e575b505050611b2f611b20610429565b6001600160a01b039092168252565b6001600160601b03841660208201525b611b518d5f52600560205260405f2090565b815160209092015160a01b6001600160a01b0319166001600160a01b0392909216919091179055565b611b8760408a018a61194f565b908b3b156101ba57611bb4918c5f9283604051809681958294634312207160e11b84528b600485016119a1565b03925af1801561070d57611c7b575b50893b156101ba57604051635944c75360e01b81526001600160601b03831660048201526001600160a01b03861660248201526101f46044820152995f8b60648183855af19c8d1561070d576001600160601b03611c456101cb9f9b8f97611c5c9f8f611c529f9a611c3e92611c4d9c611c62575b50613d1d565b3691610aac565b941691613195565b613486565b606081019061194f565b90613202565b80611c6f611c75926103cc565b806102b9565b5f611c38565b80611c6f611c88926103cc565b5f611bc3565b611ad7611cab9260018060a01b03165f52600760205260405f2090565b55828c85611b12565b611cd691925060203d8111611cdd575b611cce81836103fb565b8101906118eb565b905f611a79565b503d611cc4565b15611ceb57565b60405162461bcd60e51b815260206004820152602a60248201527f466163746f7279313135353a204f6e6c79207072697661746520636f6c6c65636044820152693a1030b63637bbb2b21760b11b6064820152608490fd5b90979295919893611de395611d7c91611d75611d70611d6c610f12610f0c8d60a08101906110bb565b1590565b611ce4565b888b6125d4565b611d8c6119fe60808801886110bb565b611d9e86611d998161143b565b612f4e565b906001600160a01b038216906020611dba611a318a8301611451565b604051631d24662960e31b81526001600160601b03909116600482015297889081906024820190565b0381855afa96871561070d575f97611f69575b50611e15611aa4611e0a60c08b018b611900565b9190611a9c8c61143b565b93611e4b611e26610f6e368c611346565b94611e32611b20610429565b6001600160601b038a166020820152611b3f8187612c3b565b611e5860408a018a61194f565b90843b156101ba575f908a611e816040519485938493634312207160e11b8552600485016119a1565b038183885af1801561070d57611f56575b5060c08401516001600160601b031690833b156101ba57604051635944c75360e01b81526001600160601b038a811660048301526001600160a01b03881660248301529290921660448301525f8260648183885af19a8b1561070d578d611f306101cb9f9b8f9c611c5c9f988f98611c529f611c45611f35998e99611c3e611f509f9e611f449f9560809f6001600160601b0397611c625750613d1d565b613bbf565b9301516001600160401b031690565b6001600160401b031690565b9061361f565b80611c6f611f63926103cc565b5f611e92565b611f8291975060203d8111611cdd57611cce81836103fb565b955f611df6565b15611f9057565b60405162461bcd60e51b815260206004820152602b60248201527f546f6b656e206973206e6f7420617661696c61626c6520696e207075626c696360448201526a1031b7b63632b1ba34b7b760a91b6064820152608490fd5b91908260409103126101ba5760208251612002816101a9565b92015190565b80519496959491939291612024906001600160a01b03166105b1565b96602060018060a01b038916920161207561204682516001600160601b031690565b6040805163bd85b03960e01b81526001600160601b0390921660048301529a9091602090839081906024820190565b0381885afa91821561070d575f92612226575b508a516306fdde0360e01b8152955f87600481895afa94851561070d5761218e9961214a61212d8f9a966120d46120cf61063761215d9c6121509b5f9161182857506114b9565b611f89565b6120eb611aff611afa8b516001600160601b031690565b4211806121f3575b6121cb575b6001600160a01b038b165f9081526007602052604090208690612126905b8b516001600160601b031661067c565b5491613a0a565b9a612142611aff89516001600160601b031690565b933691610aac565b93613195565b516001600160601b031690565b825163152a902d60e11b81526001600160601b0390911660048201525f602482015293849190829081906044820190565b03915afa91821561070d576101cb955f936121ab575b5050613486565b6121c2929350803d10610dc457610db581836103fb565b50905f806121a4565b6001600160a01b038b165f90815260076020526040902081906121ed90612116565b556120f8565b506001600160a01b038b165f90815260076020526040902061221f908a516001600160601b031661067c565b54156120f3565b61223f91925060203d811161073b5761072c81836103fb565b905f612088565b1561224d57565b60405162461bcd60e51b815260206004820152602c60248201527f546f6b656e206973206e6f7420617661696c61626c6520696e2070726976617460448201526b329031b7b63632b1ba34b7b760a11b6064820152608490fd5b80516001600160a01b03165f8181526004602090815260409091209201805190989796949594926122e5916106d991906001600160601b031661067c565b9260409889516306fdde0360e01b81525f81600481875afa90811561070d57611d6c6106376123239361231e935f9161182857506114b9565b612246565b612361602061233983516001600160601b031690565b8c5163bd85b03960e01b81526001600160601b03909116600482015291829081906024820190565b0381875afa92831561070d57888c966123ad6123908a6123e59d6123b499612150985f9161243e575b50613c84565b9a6123a5611aff88516001600160601b031690565b923691610aac565b9287613195565b825163152a902d60e11b81526001600160601b0390911660048201525f602482015294859190829081906044820190565b03915afa92831561070d576101cb965f94612413575b505060800151611f50906001600160401b0316611f44565b611f50929450612435611f449282608093903d10610dc457610db581836103fb565b509492506123fb565b612456915060203d811161073b5761072c81836103fb565b5f61238a565b1561246357565b60405162461bcd60e51b815260206004820152602a60248201527f466163746f7279313135353a2054686973206973206e6f7420746865206669726044820152691cdd0818dbdb1b1958dd60b21b6064820152608490fd5b156124c257565b60405162461bcd60e51b815260206004820152601e60248201527f466163746f7279313135353a20496e76616c6964207369676e617475726500006044820152606490fd5b908160209103126101ba575180151581036101ba5790565b93929160209161253791604087526040870191611981565b930152565b1561254357565b60405162461bcd60e51b815260206004820152601b60248201527f466163746f7279313135353a2077726f6e6720746f6b656e20696400000000006044820152606490fd5b1561258f57565b60405162461bcd60e51b815260206004820152601b60248201527f466163746f7279313135353a2077726f6e67207369676e54696d6500000000006044820152606490fd5b6020906126569460018060a01b0390612610826126096125fc865f52600560205260405f2090565b546001600160a01b031690565b161561245c565b61263561263061261f8761143b565b612628886129bc565b90848a6126f1565b6124bb565b600954956040519788948593849363096c872360e01b85526004850161251f565b039186165afa90811561070d5761267a6020926101cb955f916126c4575b5061253c565b019061268d61268883611451565b6118b3565b426001600160601b039182161092836126a9575b505050612588565b6126b591929350611451565b9160a01c9116115f80806126a1565b6126e49150843d81116126ea575b6126dc81836103fb565b810190612507565b5f612674565b503d6126d2565b9192906040519060208201927f19457468657265756d205369676e6564204d6573736167653a0a3332000000008452603c830152603c8252606082018281106001600160401b038211176103ab576020945f9460809461275993604052519020923691610aac565b8481015160606040830151920151604051938452851a868401526040830152606082015282805260015afa1561070d575f516001600160a01b0390811691161490565b9035601e19823603018112156101ba5701602081359101916001600160401b0382116101ba5781360383136101ba57565b9035601e19823603018112156101ba5701602081359101916001600160401b0382116101ba578160051b360383136101ba57565b81835290916001600160fb1b0383116101ba5760209260051b809284830137010190565b9035601e19823603018112156101ba5701602081359101916001600160401b0382116101ba578160061b360383136101ba57565b9190808252602080920192915f905b828210612876575050505090565b909192936001908535612888816101a9565b828060a01b031681526001600160601b03838701356128a681610436565b16818401526040908101950193920190612868565b9035601e19823603018112156101ba5701602081359101916001600160401b0382116101ba578160081b360383136101ba57565b9190808252602080920192915f905b82821061290c575050505090565b909192936001908535815282860135838201526040808701359061292f82610436565b6001600160601b03809216908301526060908188013561294e81610436565b1690820152612972608061296381890161124f565b6001600160401b031690830152565b61299160a0612982818901610447565b6001600160601b031690830152565b6129a160c0612982818901610447565b60e086810135908201526101009081019501939201906128fe565b604051612ae381612ad56020820194602086526129ec604084016129df836101cd565b6001600160a01b03169052565b612a0b6129fb60208301610447565b6001600160601b03166060850152565b612a38612ac5612aba612a21604085018561279c565b9390610100948560808a0152610140890191611981565b92612a9d612a80612a63612a4f606089018961279c565b603f198c8a03810160a08e01529891611981565b612a7060808901896127cd565b90888c84030160c08d0152612801565b612a8d60a08801886127cd565b90878b84030160e08c0152612801565b90612aab60c0870187612825565b91868a850301908a0152612859565b9260e08101906128bb565b91858403016101208601526128ef565b03601f1981018352826103fb565b51902090565b5f1981146118cd5760010190565b15612afe57565b60405162461bcd60e51b815260206004820152603a60248201527f466163746f7279313135353a20746f20746f6b656e206861736820686173206e60448201527f6f74206d696e746564206f6e2063757272656e7420636861696e0000000000006064820152608490fd5b905f805b828110612b7a5750505050565b6001600160a01b03612ba26125fc612b9384878961112b565b355f52600560205260405f2090565b16908115159182612bc5575b50612bbb612bc092612af7565b612ae9565b612b6d565b9150612bfa612bd582868861112b565b35604051809463bd85b03960e01b825281806020958695600483019190602083019252565b03915afa801561070d57612bc093612bbb928692612c1e575b505015159250612bae565b612c349250803d1061073b5761072c81836103fb565b5f80612c13565b6001600160601b0360a0820151164210612d2f57612d0f6080612c738461067c6020610d246106c06101cb995160018060a01b031690565b928051845560208101516001850155612cba6002612c9b60408401516001600160601b031690565b95019485906001600160601b03166001600160601b0319825416179055565b612d01612cd160608301516001600160601b031690565b85546bffffffffffffffffffffffff60601b191660609190911b6bffffffffffffffffffffffff60601b16178555565b01516001600160401b031690565b81546001600160c01b031660c09190911b6001600160c01b031916179055565b60405162461bcd60e51b815260206004820152603060248201527f466163746f7279313135353a20746f6b656e2073616c652074696d652068617360448201526f081b9bdd081cdd185c9d1959081e595d60821b6064820152608490fd5b60405190612d9a82610390565b600782526609682a892848a960cb1b6020830152565b60405190612dbd82610390565b600282526130a960f21b6020830152565b6001600160a01b039091168152606060208201819052610342939192612df69184019061030c565b91604081840391015261030c565b9060a08201612e1f612e19610f0c83866110bb565b35613127565b926001600160a01b0391828516853b15612e3a575b50505050565b612ef9612eed94612eb9612e4d8661143b565b91612e91612e5e610f0c888a6110bb565b60405160609590951b6001600160601b0319166020860152356034808601919091528452601f1993610b706054826103fb565b907f00000000000000000000000000000000000000000000000000000000000000001661308e565b50612ed8610f0c612ec8612db0565b95612ed28861143b565b976110bb565b35604051968791602083019190602083019252565b039081018652856103fb565b803b156101ba57612f24935f80946040519687958694859363b2b45df560e01b855260048501612dce565b03925af1801561070d57612f3b575b808080612e34565b80611c6f612f48926103cc565b5f612f33565b60a082019291612f6b612f64610f0c86846110bb565b3583613160565b936001600160a01b0380861690863b15612f87575b5050505050565b612eed9461302491612f988661143b565b91613007612fdf612fac610f0c898b6110bb565b60405160609690961b6001600160601b0319166020870152356034808701919091528552601f1994610b706054826103fb565b837f00000000000000000000000000000000000000000000000000000000000000001661308e565b501661307a57612ed8610f0c612ec8612db0565b612ed28861143b565b803b156101ba5761304f935f80946040519687958694859363b2b45df560e01b855260048501612dce565b03925af1801561070d57613067575b80808080612f80565b80611c6f613074926103cc565b5f61305e565b612ed8610f0c613088612d8d565b9561301b565b6e5af43d82803e903d91602b57fd5bf390763d602d80600a3d3981f3363d3d373d3d3d363d7300000062ffffff8260881c16175f5260781b17602052603760095ff5906001600160a01b038216156130e257565b60405162461bcd60e51b815260206004820152601760248201527f455243313136373a2063726561746532206661696c65640000000000000000006044820152606490fd5b604051905f6020830152603482015260348152606081018181106001600160401b038211176103ab5761034291610b9f916040526114b9565b60405160609190911b6001600160601b0319166020820152603481019190915261034290610b9f90610b708160548101612ad5565b929390926001600160a01b0390811691823b156101ba575f946131e886926040519889978896879563731133e960e01b87521660048601526024850152604484015260806064840152608483019061030c565b03925af1801561070d576131f95750565b6101cb906103cc565b8161320c57505050565b7fe3efb4090b64f6dead06906e59a91359e0c1ca9cad88a633d749431442e5bebf91613245604051928392602084526020840191611981565b0390a2565b908160209103126101ba5751610342816101a9565b60208082019080835283518092528060408094019401925f905b83821061328857505050505090565b845180516001600160a01b031687528301516001600160601b0316868401529485019493820193600190910190613279565b805115610a3f5760200190565b8051821015610a3f5760209160051b010190565b8051806132e757505090565b90915060010361330e576105b1613300610342926132ba565b51516001600160a01b031690565b60206133455f926133286105b1855460018060a01b031690565b906040519485809481936326b8692f60e21b83526004830161325f565b03925af190811561070d575f91613364575b506001600160a01b031690565b613385915060203d811161338b575b61337d81836103fb565b81019061324a565b5f613357565b503d613373565b1561339957565b60405162461bcd60e51b815260206004820152601c60248201527f4665654d616e616765723a20696e73756666696369656e7420466565000000006044820152606490fd5b90605f820291808304605f14901517156118cd57565b906402540be400918281029281840414901517156118cd57565b90670de0b6b3a7640000918281029281840414901517156118cd57565b818102929181159184041417156118cd57565b8115613448570490565b634e487b7160e01b5f52601260045260245ffd5b9190811015610a3f5760061b0190565b919082018092116118cd57565b919082039182116118cd57565b90939261349582341015613392565b6134aa6134a1836133de565b620186a0900490565b925f90815b83811061359b5750825f5b81811061352d57505050505f5b8181106135025750506101cb9293508034116134e8575b5060025401600255565b6134f56134fb9134613479565b33613744565b505f6134de565b6001600160a01b0386165f90815260036020526040902080548501905561352890612ae9565b6134c7565b612bbb826135738661356e613568611aff60206135628961355b613556828f9e6135949f61345c565b61143b565b988d61345c565b01611451565b8c61342b565b61343e565b6001600160a01b039091165f90815260036020526040902080549091019055565b83906134ba565b916135bc6135c2916135b6611aff6020613562888a8961345c565b9061346c565b92612ae9565b6134af565b156135ce57565b60405162461bcd60e51b8152602060048201526024808201527f4665654d616e616765723a204d6178696d756d20646973636f756e74206973206044820152633130302560e01b6064820152608490fd5b9391929061362f85341015613392565b84613653575b505050508034116136435750565b6134f56136509134613479565b50565b6001600160601b03169161366b6127108411156135c7565b5f9280613694575b5050509061368461368a9284613479565b90613744565b505f808080613635565b6136ad919293506136a5908661342b565b612710900490565b915f805b83811061371e57505f5b8381106136e3575050505090613684826136db61368a9460025401600255565b91925f613673565b80612bbb846135738561356e613713611aff6020613562898e61370d6135566137199e838d61345c565b9961345c565b8b61342b565b6136bb565b9061373961373f916135b6611aff6020613562878a8a61345c565b91612ae9565b6136b1565b5f918291829182916001600160a01b03165af13d15610342573d61376781610a91565b9061377560405192836103fb565b81525f60203d92013e90565b6040519061378e826103b0565b8160e05f918281528260208201528260408201528260608201528260808201528260a08201528260c08201520152565b6137c6613781565b5060e090810180515191821561389d575f5b83811061387a57505f5b8381106138465760405162461bcd60e51b815260206004820152602f60248201527f4665654d616e616765723a2050726963696e67206973206e6f7420736574206f60448201526e37103a3434b99031b430b4b724b21760891b6064820152608490fd5b816138528285516132c7565b510151156138685761386390612ae9565b6137e2565b9190506138769250516132c7565b5190565b46826138878386516132c7565b510151146138685761389890612ae9565b6137d8565b60405162461bcd60e51b815260206004820152601f60248201527f4665654d616e616765723a2050726963696e67206973206e6f74207365742e006044820152606490fd5b9060018083815b6138f257505050565b806138fc9161391f565b9181811661390e575b811c91826138e9565b93826139199161391f565b93613905565b5f19828209828202908180821091039381850393670de0b6b3a764000091829109916706f05b59d3b1ffff8311951461398e578310156101ba577faccb18165bd6fe31ae1cf318dc5b51eee0e1ba569b88cd74c1773b91fac1066992828211900360ee1b910360121c17020190565b925050040190565b90806139a65750610342906133f4565b8082116139b75750610342906133f4565b6139c0826133f4565b918181039081116118cd57816139f86139f06139eb670de0b6b3a76400009561356e6139fd9661340e565b6138e2565b60021c6133f4565b61342b565b0481018091116118cd5790565b909180613a1c575050610342906133f4565b808211613a925780613a2e848461346c565b11613a3e575050610342906133f4565b613a84816139f8613a7f613a796139eb8461356e613a746135b699613a6f8d613a696103429f6133f4565b9d61346c565b613479565b61340e565b60021c90565b6133f4565b670de0b6b3a7640000900490565b8080928180613aa0876133f4565b96613aab908461346c565b90613ab591613479565b613abe9061340e565b90613ac89161343e565b613ad1906138e2565b92613adb91613479565b613ae49061340e565b90613aee9161343e565b613af7906138e2565b613b0091613479565b60021c613b0c906133f4565b90613b169161342b565b670de0b6b3a764000090046103429161346c565b15613b3157565b60405162461bcd60e51b8152602060048201526024808201527f466163746f7279313135353a204d6178696d756d20737570706c7920726561636044820152633432b21760e11b6064820152608490fd5b81810292915f8212600160ff1b8214166118cd5781840514901517156118cd57565b9190915f83820193841291129080158216911516176118cd57565b6001600160601b036060830151164211613c2f57613c1c82613bfc613bf4611aff6040613c229701516001600160601b031690565b841115613b2a565b6020613c13613c0c85845161342b565b948061342b565b91015190613b82565b90613ba4565b5f81121561034257505f90565b60405162461bcd60e51b815260206004820152602760248201527f466163746f7279313135353a20746f6b656e2073616c652074696d6520697320604482015266195e1c1a5c995960ca1b6064820152608490fd5b6001600160601b036060840151164211613c2f57613c22926020613c1383613cd0613cb287613c1c9761346c565b613cc9611aff60408801516001600160601b031690565b1015613b2a565b613d03613cfc613ce188875161342b565b97613cf6613cef828661346c565b918561346c565b9061342b565b918061342b565b90613479565b81604051928392833781015f815203902090565b90613d278161143b565b613d3d613d37606084018461194f565b90613d09565b5f916001600160a01b0316847fc0d62261ee30fa727eab11180362380f5a2d6af2c9ec2b14537843182c7c58268480a460808201613d7b81846110bb565b919050825b828110613e40575050507fb237134d29775150b1edf87af1dc343262244af7cbb474cfc64cb6e8824af663613e2360a08401613dbc81866110bb565b9590508515613e3a57613dd2610f0c83836110bb565b35945b6001871115613e31576002613df3613ded85856110bb565b9061110d565b35975b1115613e285750613e1091613e0a916110bb565b9061111c565b35945b6040519081529081906020820190565b0390a4565b91505094613e13565b60028197613df6565b84613dd5565b80613e58613e8392613e5285896110bb565b9061112b565b35877f65327253f8d67c2e23cb4dfab28ca7437b04e9098cf4e985073d76df25209ad48780a3612ae9565b613d8056fea2646970667358221220a77761c4385fc3e5fb924d7c32360f597a8a9a73b5817378d5619102d978362a64736f6c6343000815003360a0346200010057602081016001600160401b03811182821017620000ec576040525f8091526200003260025462000104565b601f8111620000ab575b50806002556200004e60045462000104565b601f811162000087575b5f600455336080526040516127909081620001588239608051818181610ec1015281816110b401526115920152f35b601f6020836004620000a3955220910160051c8101906200013f565b5f8062000058565b60028252620000e590601f0160051c7f405787fa12a823e0f2b7631cc41b3ba8828b3321ca811111fa75cd3aa3bb5ace908101906200013f565b5f6200003c565b634e487b7160e01b5f52604160045260245ffd5b5f80fd5b90600182811c9216801562000134575b60208310146200012057565b634e487b7160e01b5f52602260045260245ffd5b91607f169162000114565b8181106200014b575050565b5f81556001016200013f56fe60806040526004361015610011575f80fd5b5f3560e01c8062fdd58e14611e2d57806301ffc9a714611da557806306fdde0314611cfd5780630e89341c14611cca5780632a55205a14611c205780632eb2c2d6146118715780634e1273f4146116d45780634f558e79146116a85780635944c753146115565780636b20c45414611314578063731133e914611066578063862440e214610e6d5780638da5cb5b14610e4157806395d89b4114610d60578063a22cb46514610c80578063b2b45df5146107fe578063bd85b039146107d4578063e92331481461076a578063e985e9c514610718578063f242432a146103055763f5298aca146100ff575f80fd5b3461030157606036600319011261030157610118611e5c565b60249060448035916001600160a01b031690833533831480156102dc575b61013f9061211e565b82159261014c84156123eb565b610155826123c6565b9161015f866123c6565b945f60405161016d81611edb565b52610285575b5f5b83518110156102095761018881856120f6565b5161019382886120f6565b5190805f526003602081815260405f2054928484106101c857906101c395949392915f52520360405f20556120e8565b610175565b506084905f8051602061273b8339815191528a60288f6040519462461bcd60e51b8652600486015284015282015267616c537570706c7960c01b6064820152fd5b5f838389818452836020526040842083855260205280604085205461023082821015612443565b838652856020526040862085875260205203604085205560405191825260208201527fc3d58168c5ae7397731d063d5bbf3d657854427343f4c083240f7aacaa2d0f6260403392a4610283604051611edb565b005b94919592905f5b87518110156102d157806102a36102cc92886120f6565b516102ae828b6120f6565b515f5260036020526102c560405f2091825461223a565b90556120e8565b61028c565b509092959194610173565b50825f52600160205260405f20335f5260205261013f60ff60405f2054169050610136565b5f80fd5b346103015760a03660031901126103015761031e611e5c565b610326611e72565b6084356001600160401b03811161030157610345903690600401612017565b6001600160a01b039190838316331480156106f1575b6103649061211e565b828216156103728115612181565b61037d6044356123c6565b906103896064356123c6565b90858716156106b6575b610612575b6044355f525f60205260405f208587165f5260205260405f20546103c06064358210156121db565b6044355f90815260208181526040808320898b16845290915280822060643593849003905586881682529020805490916103f99161223a565b90556040516044358152606435602082015285851690868816907fc3d58168c5ae7397731d063d5bbf3d657854427343f4c083240f7aacaa2d0f6260403392a482516105a6575b5050813b61044a57005b602091610495915f6040519586809581948363f23a6e6160e01b9b8c85523360048601521660248401526044356044840152606435606484015260a0608484015260a4830190611f38565b0393165af15f9181610575575b5061050e576104af6122e9565b6308c379a0146104d7575b60405162461bcd60e51b8152806104d360048201612371565b0390fd5b6104df612304565b806104ea57506104ba565b60405162461bcd60e51b8152602060048201529081906104d3906024830190611f38565b6001600160e01b0319160361051f57005b60405162461bcd60e51b815260206004820152602860248201527f455243313135353a204552433131353552656365697665722072656a656374656044820152676420746f6b656e7360c01b6064820152608490fd5b61059891925060203d60201161059f575b6105908183611ef6565b8101906122c9565b90836104a2565b503d610586565b7f64b6d1b9c6726b4405acbd47f33ee45712403cd8422e6b9ccb562c0dec7965d4916106086105fa6105ec93604051948594338652608060208701526080860190612035565b908482036040860152612035565b828103606084015285611f38565b0390a18480610440565b94919390925f5b84518110156106ab5761062c81866120f6565b519061063881896120f6565b51825f52600360205260405f205481811061066857610663935f5260036020520360405f20556120e8565b610619565b60405162461bcd60e51b815260206004820152602860248201525f8051602061273b833981519152604482015267616c537570706c7960c01b6064820152608490fd5b509290939194610398565b9491939095925f5b85518110156106e557806106d56106e0928a6120f6565b516102ae82896120f6565b6106be565b50929590939194610393565b508284165f52600160205260405f20335f5260205261036460ff60405f205416905061035b565b3461030157604036600319011261030157610731611e5c565b610739611e72565b9060018060a01b038091165f52600160205260405f2091165f52602052602060ff60405f2054166040519015158152f35b3461030157602080600319360112610301576001600160601b036004358181168103610301575b81811690815f526003845260405f2054156107ca57508181146107b657600101610791565b634e487b7160e01b5f52601160045260245ffd5b6040519216825250f35b34610301576020366003190112610301576004355f526003602052602060405f2054604051908152f35b3461030157606036600319011261030157610817611e5c565b6001600160401b039060243582811161030157610838903690600401612017565b9160443581811161030157610851903690600401612017565b9060069081549260ff8460081c161595868097610c73575b8015610c5c575b15610c0057600194878660ff198316178655610bef575b508051838111610ae3578061089d600954611e88565b92601f93848111610b81575b50602090848311600114610b02575f92610af7575b50505f19600383901b1c191690861b176009555b8151928311610ae35782916108e8600a54611e88565b828111610a73575b5060209183116001146109f4575f926109e9575b50505f19600383901b1c191690831b17600a555b80549260ff8460081c16156109905762010000600160b01b0360109190911b1662010000600160b01b03198416811782559361095057005b610100600160b01b031990921690921790556040519081527f7f26b83ff96e1f2b6a682f133852f6798a09c465da95921460cefb384740249890602090a1005b60405162461bcd60e51b815260206004820152602b60248201527f496e697469616c697a61626c653a20636f6e7472616374206973206e6f74206960448201526a6e697469616c697a696e6760a81b6064820152608490fd5b015190508680610904565b90859350601f19831691600a5f527fc65a7bb8d6351c1cf70c95a316cc6a92839c986682d98bc35f958f4883f9d2a8925f5b818110610a5b57508411610a43575b505050811b01600a55610918565b01515f1960f88460031b161c19169055868080610a35565b82840151855588969094019360209384019301610a26565b90919250600a5f527fc65a7bb8d6351c1cf70c95a316cc6a92839c986682d98bc35f958f4883f9d2a88380860160051c82019260208710610ada575b91869589929594930160051c01915b828110610acc5750506108f0565b5f8155869550889101610abe565b92508192610aaf565b634e487b7160e01b5f52604160045260245ffd5b0151905089806108be565b90889350601f1983169160095f527f6e1540171b6c0c960b71a7020d9f60077f6af931a8bbf590da0223dacf75c7af925f5b818110610b6957508411610b51575b505050811b016009556108d2565b01515f1960f88460031b161c19169055898080610b43565b8284015185558b969094019360209384019301610b34565b90915060095f527f6e1540171b6c0c960b71a7020d9f60077f6af931a8bbf590da0223dacf75c7af8480850160051c82019260208610610be6575b918a91869594930160051c01915b828110610bd85750506108a9565b5f81558594508a9101610bca565b92508192610bbc565b61ffff191661010117845587610887565b60405162461bcd60e51b815260206004820152602e60248201527f496e697469616c697a61626c653a20636f6e747261637420697320616c72656160448201526d191e481a5b9a5d1a585b1a5e995960921b6064820152608490fd5b50303b1580156108705750600160ff861614610870565b50600160ff861610610869565b3461030157604036600319011261030157610c99611e5c565b60243590811515809203610301576001600160a01b031690338214610d0957335f52600160205260405f20825f5260205260405f2060ff1981541660ff83161790556040519081527f17307eab39ab6107e8899845ad3d59bd9653f200f220920489ca2b5937696c3160203392a3005b60405162461bcd60e51b815260206004820152602960248201527f455243313135353a2073657474696e6720617070726f76616c20737461747573604482015268103337b91039b2b63360b91b6064820152608490fd5b34610301575f36600319011261030157604051600a545f82610d8183611e88565b918282526020936001908582821691825f14610e21575050600114610dc6575b50610dae92500383611ef6565b610dc2604051928284938452830190611f38565b0390f35b849150600a5f527fc65a7bb8d6351c1cf70c95a316cc6a92839c986682d98bc35f958f4883f9d2a8905f915b858310610e09575050610dae935082010185610da1565b80548389018501528794508693909201918101610df2565b60ff191685820152610dae95151560051b8501019250879150610da19050565b34610301575f3660031901126103015760065460405160109190911c6001600160a01b03168152602090f35b34610301576040366003190112610301576001600160401b0360043560243582811161030157366023820112156103015780600401359083821161030157366024838301011161030157610ef991610eef337f00000000000000000000000000000000000000000000000000000000000000006001600160a01b03161461249b565b6024369201611fd2565b91815f526020906005825260405f20908451908111610ae357610f1c8254611e88565b601f8111611023575b5082601f8211600114610fa05781907f6bb7ff708619ba0610cba295a58592e0451dee2622938c8755667688daf3529b95965f92610f95575b50508160011b915f199060031b1c19161790555b610f7b836124fd565b90610f90604051928284938452830190611f38565b0390a2005b015190508680610f5e565b601f19821695835f52845f20965f5b81811061100c5750917f6bb7ff708619ba0610cba295a58592e0451dee2622938c8755667688daf3529b969791846001959410610ff4575b505050811b019055610f72565b01515f1960f88460031b161c19169055868080610fe7565b838301518955600190980197928601928601610faf565b825f52835f20601f830160051c81019185841061105c575b601f0160051c01905b8181106110515750610f25565b5f8155600101611044565b909150819061103b565b346103015760803660031901126103015761107f611e5c565b604435906024356064356001600160401b038111610301576110a5903690600401612017565b906001600160a01b036110db337f000000000000000000000000000000000000000000000000000000000000000083161461249b565b831680156112c5576110ec826123c6565b946110f6816123c6565b935f5b875181101561111557806102a361111092886120f6565b6110f9565b50858795855f526020965f885260405f20865f52885260405f2061113a86825461223a565b9055855f604051898152878b8201527fc3d58168c5ae7397731d063d5bbf3d657854427343f4c083240f7aacaa2d0f6260403392a4878451611268575b5050503b61118157005b6111c49285925f60405180968195829463f23a6e6160e01b9a8b85523360048601528560248601526044850152606484015260a0608484015260a4830190611f38565b03925af15f9181611249575b5061123657826111de6122e9565b6308c379a0146112015760405162461bcd60e51b8152806104d360048201612371565b611209612304565b908161121557506104ba565b6104d360405192839262461bcd60e51b845260048401526024830190611f38565b6001600160e01b03191603905061051f57005b611261919250843d861161059f576105908183611ef6565b90846111d0565b6112ba6112ac7f64b6d1b9c6726b4405acbd47f33ee45712403cd8422e6b9ccb562c0dec7965d4946105ec6080956040519687963388528701526080860190612035565b828103606084015286611f38565b0390a1868087611177565b60405162461bcd60e51b815260206004820152602160248201527f455243313135353a206d696e7420746f20746865207a65726f206164647265736044820152607360f81b6064820152608490fd5b346103015760603660031901126103015761132d611e5c565b6024906001600160401b0390823582811161030157611350903690600401611f74565b9160449081359081116103015761136b903690600401611f74565b6001600160a01b03909216923384148015611531575b61138a9061211e565b831561139681156123eb565b6113a38251855114612247565b5f6040516113b081611edb565b526114fa575b5f5b815181101561144c576113cb81836120f6565b516113d682866120f6565b5190805f526003602081815260405f20549284841061140b579061140695949392915f52520360405f20556120e8565b6113b8565b60405162461bcd60e51b8152600481018390526028818d01525f8051602061273b833981519152818a015267616c537570706c7960c01b6064820152608490fd5b8382865f5b82518110156114b657806114686114b192856120f6565b5161147382876120f6565b5190805f5260205f815260405f20865f52815260405f20549161149884841015612443565b5f525f815260405f2090865f52520360405f20556120e8565b611451565b50907f4a39dc06d4c0dbc64b70af90fd698a233a518aa5d07e595d983b8c0526c8f7fb6114ec5f946040519182913395836122a4565b0390a4610283604051611edb565b925f9491945b8451811015611527578061151761152292866120f6565b516102ae82886120f6565b611500565b50929390936113b6565b50835f52600160205260405f20335f5260205261138a60ff60405f2054169050611381565b346103015760603660031901126103015761156f611e72565b6044356001600160601b038116809103610301576001600160a01b03916115b9337f000000000000000000000000000000000000000000000000000000000000000085161461249b565b612710821161165057821691821561160b57604051926115d884611ec0565b8352602083019182526004355f52600860205260405f20925116906001600160601b0360a01b905160a01b161790555f80f35b60405162461bcd60e51b815260206004820152601b60248201527f455243323938313a20496e76616c696420706172616d657465727300000000006044820152606490fd5b60405162461bcd60e51b815260206004820152602a60248201527f455243323938313a20726f79616c7479206665652077696c6c206578636565646044820152692073616c65507269636560b01b6064820152608490fd5b34610301576020366003190112610301576004355f526003602052602060405f20541515604051908152f35b34610301576040366003190112610301576004356001600160401b0380821161030157366023830112156103015781600401359061171182611f5d565b9261171f6040519485611ef6565b82845260209260248486019160051b8301019136831161030157602401905b8282106118525750505060243590811161030157611760903690600401611f74565b82518151036117fb5782519261177584611f5d565b936117836040519586611ef6565b808552611792601f1991611f5d565b0136848601375f5b81518110156117e4576117df906117cf6001600160a01b036117bc83866120f6565b51166117c883876120f6565b5190612068565b6117d982886120f6565b526120e8565b61179a565b505050610dc2604051928284938452830190612035565b60405162461bcd60e51b815260048101839052602960248201527f455243313135353a206163636f756e747320616e6420696473206c656e677468604482015268040dad2e6dac2e8c6d60bb1b6064820152608490fd5b81356001600160a01b038116810361030157815290840190840161173e565b346103015760031960a0368201126103015761188b611e5c565b90611894611e72565b6044908135926001600160401b0393848111610301576118b8903690600401611f74565b60648035868111610301576118d1903690600401611f74565b946084968735908111610301576118ec903690600401612017565b6001600160a01b039489861633148015611bf9575b61190a9061211e565b6119178551895114612247565b858716156119258115612181565b868b1615611bb7575b611b08575b5f5b85518110156119bc578061194c6119b792886120f6565b518c611958838d6120f6565b5191805f52826020925f845260405f208d82165f52845260405f205490611981838310156121db565b835f525f85528d60405f2091165f5284520360405f20555f525f815260405f20908a8c165f52526102c560405f2091825461223a565b611935565b50888a989796949789604051887f4a39dc06d4c0dbc64b70af90fd698a233a518aa5d07e595d983b8c0526c8f7fb89808d16941692806119fe873395836122a4565b0390a48351611aa2575b873b611a1057005b60405198899788968863bc197c8160e01b9d8e8a523360048b0152166024890152870160a0905260a48701611a4491612035565b90848783030190870152611a5791612035565b918483030190840152611a6991611f38565b03921691815a6020945f91f15f9181611a89575061050e576104af6122e9565b61059891925060203d811161059f576105908183611ef6565b7f64b6d1b9c6726b4405acbd47f33ee45712403cd8422e6b9ccb562c0dec7965d46040513381526080602082015280611b00611af2611ae4608084018d612035565b838103604085015286612035565b828103606084015288611f38565b0390a1611a08565b979694905f9993999692965b8551811015611ba757611b2781876120f6565b51611b3282896120f6565b5190805f5260206003815260405f205491838310611b6757611b62949392916003915f52520360405f20556120e8565b611b14565b508b9067616c537570706c7960c01b8f5f8051602061273b8339815191528e6040519462461bcd60e51b8652600486015260286024860152840152820152fd5b5090949697989298959195611933565b9996949895939291905f5b8a51811015611bea57808b6102ae82611bde611be5958f6120f6565b51926120f6565b611bc2565b5090919293959894969961192e565b50858a165f52600160205260405f20335f5260205261190a60ff60405f2054169050611901565b34610301576040366003190112610301576024356004355f52600860205260405f209060405191611c5083611ec0565b546001600160a01b0380821680855260a09290921c6020850152929015611ca8575b6001600160601b03602082015116918281029281840414901517156107b657604092612710915116918351928352046020820152f35b50604051611cb581611ec0565b600754838116825260a01c6020820152611c72565b3461030157602036600319011261030157610dc2611ce96004356124fd565b604051918291602083526020830190611f38565b34610301575f366003190112610301576040516009545f82611d1e83611e88565b918282526020936001908582821691825f14610e21575050600114611d4a5750610dae92500383611ef6565b84915060095f527f6e1540171b6c0c960b71a7020d9f60077f6af931a8bbf590da0223dacf75c7af905f915b858310611d8d575050610dae935082010185610da1565b80548389018501528794508693909201918101611d76565b346103015760203660031901126103015760043563ffffffff60e01b81168091036103015760209063152a902d60e11b8114908115611dea575b506040519015158152f35b636cdb3d1360e11b811491508115611e1c575b8115611e0b575b5082611ddf565b6301ffc9a760e01b14905082611e04565b6303a24d0760e21b81149150611dfd565b34610301576040366003190112610301576020611e54611e4b611e5c565b60243590612068565b604051908152f35b600435906001600160a01b038216820361030157565b602435906001600160a01b038216820361030157565b90600182811c92168015611eb6575b6020831014611ea257565b634e487b7160e01b5f52602260045260245ffd5b91607f1691611e97565b604081019081106001600160401b03821117610ae357604052565b602081019081106001600160401b03821117610ae357604052565b90601f801991011681019081106001600160401b03821117610ae357604052565b5f5b838110611f285750505f910152565b8181015183820152602001611f19565b90602091611f5181518092818552858086019101611f17565b601f01601f1916010190565b6001600160401b038111610ae35760051b60200190565b9080601f83011215610301576020908235611f8e81611f5d565b93611f9c6040519586611ef6565b818552838086019260051b820101928311610301578301905b828210611fc3575050505090565b81358152908301908301611fb5565b9291926001600160401b038211610ae35760405191611ffb601f8201601f191660200184611ef6565b829481845281830111610301578281602093845f960137010152565b9080601f830112156103015781602061203293359101611fd2565b90565b9081518082526020808093019301915f5b828110612054575050505090565b835185529381019392810192600101612046565b6001600160a01b0316908115612090575f525f60205260405f20905f5260205260405f205490565b60405162461bcd60e51b815260206004820152602a60248201527f455243313135353a2061646472657373207a65726f206973206e6f742061207660448201526930b634b21037bbb732b960b11b6064820152608490fd5b5f1981146107b65760010190565b805182101561210a5760209160051b010190565b634e487b7160e01b5f52603260045260245ffd5b1561212557565b60405162461bcd60e51b815260206004820152602e60248201527f455243313135353a2063616c6c6572206973206e6f7420746f6b656e206f776e60448201526d195c881bdc88185c1c1c9bdd995960921b6064820152608490fd5b1561218857565b60405162461bcd60e51b815260206004820152602560248201527f455243313135353a207472616e7366657220746f20746865207a65726f206164604482015264647265737360d81b6064820152608490fd5b156121e257565b60405162461bcd60e51b815260206004820152602a60248201527f455243313135353a20696e73756666696369656e742062616c616e636520666f60448201526939103a3930b739b332b960b11b6064820152608490fd5b919082018092116107b657565b1561224e57565b60405162461bcd60e51b815260206004820152602860248201527f455243313135353a2069647320616e6420616d6f756e7473206c656e677468206044820152670dad2e6dac2e8c6d60c31b6064820152608490fd5b90916122bb61203293604084526040840190612035565b916020818403910152612035565b9081602091031261030157516001600160e01b0319811681036103015790565b5f9060033d116122f557565b905060045f803e5f5160e01c90565b5f60443d1061203257604051600319913d83016004833e81516001600160401b03918282113d60248401111761236057818401948551938411612368573d85010160208487010111612360575061203292910160200190611ef6565b949350505050565b50949350505050565b60809060208152603460208201527f455243313135353a207472616e7366657220746f206e6f6e2d455243313135356040820152732932b1b2b4bb32b91034b6b83632b6b2b73a32b960611b60608201520190565b604051906123d382611ec0565b6001825260208201602036823782511561210a575290565b156123f257565b60405162461bcd60e51b815260206004820152602360248201527f455243313135353a206275726e2066726f6d20746865207a65726f206164647260448201526265737360e81b6064820152608490fd5b1561244a57565b60405162461bcd60e51b8152602060048201526024808201527f455243313135353a206275726e20616d6f756e7420657863656564732062616c604482015263616e636560e01b6064820152608490fd5b156124a257565b60405162461bcd60e51b815260206004820152602d60248201527f4b617469626568313135353a207265737472696374656420616363657373207460448201526c6f2074686520466163746f727960981b6064820152608490fd5b5f9081526020906005825260408120906040519080918354928161252085611e88565b91828252878201966001968988821691825f1461271c5750506001146126de575b5061254e92500382611ef6565b80511561262357604051948593836004549161256983611e88565b9281811690811561260257506001146125a2575b5050505061259361203294839251938491611f17565b0103601f198101835282611ef6565b909192969450600482527f8a35acfbc15ff81a39ae7d344fd709f28e8600b4aa8c65c6b64bfe7fe36bd19b5b8383106125ec57505050612032946125939185010192945f8061257d565b80548984018901528896509187019181016125ce565b60ff1916888601525050508015150284010191506125936120325f8061257d565b506040516002549094935084928261263a83611e88565b808652928281169081156126bc5750600114612660575b50505061203292500382611ef6565b600281527f405787fa12a823e0f2b7631cc41b3ba8828b3321ca811111fa75cd3aa3bb5ace95935091905b8183106126a457505061203293508201015f8080612651565b8554878401850152948501948694509183019161268b565b9250505061203294925060ff191682840152151560051b8201015f8080612651565b915050835281868085208686915b85831061270357505061254e93508201015f612541565b80919294505483858801015201910187908685936126ec565b60ff19168a5261254e95151560051b85010192505f9150612541905056fe455243313135353a206275726e20616d6f756e74206578636565647320746f74a2646970667358221220da02185057b8410365f74bc9d089ce7bd127adfbd2abae108ef9d2dd2c158ba964736f6c6343000815003360a03461007f57601f611bf738819003918201601f19168301916001600160401b038311848410176100835780849260209460405283398101031261007f57516001600160a01b038116810361007f57608052604051611b5f90816100988239608051818181610158015281816104890152818161050d01526106e70152f35b5f80fd5b634e487b7160e01b5f52604160045260245ffdfe608060408181526004918236101561002a575b505050361561001f575f80fd5b6100283461144b565b005b5f92833560e01c91826306fdde0314611099575081630d2ddb47146110665781630e89341c146109c8578163152dcd471461068457816320dc8ff714610609578163280976aa146105c45781632a31f6b41461053c5781632dd31000146104f85781633ccfd60b1461045257816395d89b41146104155781639791e504146103e95781639ae1a4bc1461025d578163d1aa25d014610240578163d73fe0aa146101b4578163ecbdbb321461010a575063f5dcdf96146100e95780610012565b346101065781600319360112610106576020906001549051908152f35b5080fd5b83833461010657816003193601126101065780516020810190630103c92b60e01b8252306024820152602481526060810181811067ffffffffffffffff8211176101a15783525183918291907f00000000000000000000000000000000000000000000000000000000000000005afa506101826112d0565b9160208380518101031261019e57506020809201519051908152f35b80fd5b634e487b7160e01b855260418652602485fd5b82843461019e578060031936011261019e57600180546101d381611176565b926101e085519485611154565b81845282815260207fb10e2d527612073b26eecdfd717e6a320cf44b4afac2b0732d9fcbe2b7fa0cf68186015b848410610225578751806102218982611275565b0390f35b8583819261023285611408565b81520192019301929061020d565b833461019e578060031936011261019e5761025a4761144b565b80f35b8383346101065761026d3661118e565b9181516020810190610291816102838785611275565b03601f198101835282611154565b519020926102a03085306112ff565b6001600160a01b0380821695913b156102be575b6020868651908152f35b845191867fde03f54489aeeaa8f8e262296d61a01b0a41b770fae1d2b27d960a7e593de3858680a2763d602d80600a3d3981f3363d3d373d3d3d363d7300000062ffffff3060881c161785526e5af43d82803e903d91602b57fd5bf33060781b176020526037600986f516156103a85750833b156101065790806103549284518094819263152dcd4760e01b8352898301611275565b038183885af1801561039c5761036c575b80806102b4565b67ffffffffffffffff821161038957506020935081528380610365565b634e487b7160e01b815260418552602490fd5b508251903d90823e3d90fd5b62461bcd60e51b8152602086820152601760248201527f455243313136373a2063726561746532206661696c65640000000000000000006044820152606490fd5b82843461019e57602036600319011261019e5750610409602092356113a1565b505460a01c9051908152f35b50503461010657816003193601126101065780516102219161043682611124565b60058252641cdc1b1a5d60da1b602083015251918291826110dd565b919050346104f457826003193601126104f457828082516020810190633ccfd60b60e01b825285815261048481611124565b5190827f00000000000000000000000000000000000000000000000000000000000000005af16104b26112d0565b50156104bc578280f35b906020606492519162461bcd60e51b83528201526012602482015271556e61626c6520746f20776974686472617760701b6044820152fd5b8280fd5b505034610106578160031936011261010657517f00000000000000000000000000000000000000000000000000000000000000006001600160a01b03168152602090f35b919050346104f457806003193601126104f45781356001600160a01b03811681036105c057836024359367ffffffffffffffff85116101065736602386011215610106578401359361059961059086611259565b94519485611154565b8484523660248683010111610106578461025a9560246020930183870137840101526118bd565b8380fd5b505034610106576020906105f86105da3661118e565b82516105ed816102838782019485611275565b5190203090306112ff565b90516001600160a01b039091168152f35b919050346104f45760203660031901126104f45781356001600160a01b03811681036105c05761063890611635565b15610641578280f35b906020606492519162461bcd60e51b8352820152601960248201527f53706c69743a2045524332302073706c6974206661696c6564000000000000006044820152fd5b919050346104f4576106953661118e565b9083549060ff8260081c1615938480956109bb575b80156109a4575b1561094b57600192858460ff19831617885561093a575b5060028451106108f85760078451116108b65785936001600160a01b037f000000000000000000000000000000000000000000000000000000000000000081169086865b610791575b50505050506dffffffffffffffffffffffff000085549360101b1693846dffffffffffffffffffffffff000019851617865561074b578480f35b7f7f26b83ff96e1f2b6a682f133852f6798a09c465da95921460cefb3847402498936020936dffffffffffffffffffffffffff00191617855551908152a15f8080808480f35b83518110156108b1576001600160601b03976020908980836107b3868a611379565b5101511691160189811161089e57986107cc8387611379565b5189546801000000000000000081101561088b57808b6107ee92018c556113a1565b9190916108795780519084015160a01b6001600160a01b031916908616179055889594939261087092909186918e9187917fc3d58168c5ae7397731d063d5bbf3d657854427343f4c083240f7aacaa2d0f62918d91908161085d898c610854828c611379565b51511699611379565b51015116825191868352820152a4611357565b9091929361070c565b634e487b7160e01b8e528d895260248efd5b634e487b7160e01b8e526041895260248efd5b634e487b7160e01b8c526011875260248cfd5b610711565b6020606492519162461bcd60e51b8352820152601a60248201527f53706c69743a20546f6f206d616e7920726563697069656e74730000000000006044820152fd5b6020606492519162461bcd60e51b8352820152601960248201527f53706c69743a20546f6f2066657720726563697069656e7473000000000000006044820152fd5b61ffff19166101011786555f6106c8565b6020608492519162461bcd60e51b8352820152602e60248201527f496e697469616c697a61626c653a20636f6e747261637420697320616c72656160448201526d191e481a5b9a5d1a585b1a5e995960921b6064820152fd5b50303b1580156106b15750600160ff8416146106b1565b50600160ff8416106106aa565b8383346101065760203660031901126101065782356101065780519161056083019083821067ffffffffffffffff83111761038957506102219350815261053182527f646174613a6170706c69636174696f6e2f6a736f6e3b6261736536342c65794a60208301527f755957316c496a6f695332463061574a6c61434254634778706448526c636949818301527f73496d526c63324e796158423061573975496a6f69564768706379424462323560608301527f30636d466a6443425463477870644342356233567949455a31626d527a49486460808301527f6f61585167575739316369427a614746795a5342496232786b5a57567963793460a08301527f694c434a706257466e5a534936496d526864474536615731685a32557663335a60c08301527f6e4b3368746244746959584e6c4e6a51735545684f4d6c7035516a4a6856315960e08301527f7a555730354e4642545358644a5245466e5456525a645531455157644e56466c6101008301527f315455524261556c4961485269527a563655464e4b62325249556e64506154686101208301527f325a444e6b4d3078755933704d62546c35576e6b34655531455158644d4d30346101408301527f79576e6c4a5a31707462484e695244427053587042643031455158644e51306c6101608301527f6e57544a3461474d7a54546c4a625570775355644b63457859546e42614d6a566101808301527f33596a4e4f4d457859546e64695232777753576c434d474e74526e566a4d6c706101a08301527f32593230774f556c744d57686b534570775a554e6e654578445158644d5130466101c08301527f3354454e42654578445158644d5130463353314e4a5a324d7a556e6c694d6e526101e08301527f7355464e4a616b31455158644e5245463353576c43656d5249536e5a684d6c566102008301527f305a444a73613252485a7a6c4a616b4631545552426430315557576c51616e686102208301527f755355647361314254536c525761325254576c6843646c6779536d35524d6b5a6102408301527f355932317362474e705357646a4d314a35596a4a30624578595a48426153464a6102608301527f7655464e4a64306c714e44684d4d6d4d725545646a5a32465855546c4a6245356102808301527f58556a464b62474e484f575a6b5345706f57544a5765564579526e6c6a6257786102a08301527f7359326c4a5a324d7a556e6c694d6e52735446643463474a74566d705a5745456102c08301527f355357354b646d52584e57744a61554a365a45684b646d4579565852695232786102e08301527f31576c6477646d46584e446c4a626b70325a46633161306c70516e706b5345706103008301527f3259544a564f556c70546b52524d4535455554424e61556c49546a426a62546c6103208301527f79576c4d784d324658556a42685244427054554d30655539455a326c51616e646103408301527f32576e6f304f467035516e4261524442705654466153465674566e64694d546c6103608301527f775754493564564579526e6c6a6257787359326c4a4b306c456548645a57464a6103808301527f76535564524f556c724d444e4a5247525854564d304d453155556d684e5530466103a08301527f34535552425a3031445158684a52456c6e54555a5a65574645566d684e5530466103c08301527f34535552425a3031445158684a517a51305447705363307871617a4e4f5530466103e08301527f345447704f614578715658564f55304633535552425a3031545158644a517a516104008301527f79564552464d4578715a32644f557a5179575652465a3031545158644a5245466104208301527f6e54564d77645539444e44425452477779545652435355347a5758524f5657646104408301527f35575652465a3031545158644a5245466e54564d77645539444d48564f5258646104608301527f315457704a4d556c456133564e4d6b5631546c4d304d556c455157644e5130466104808301527f345355524264457871576b314e557a52355355526a645535465258684a5245566104a08301527f6e54554e4264306c455257644e6155457a595552574e6d4a555257644e4d566b6104c08301527f305530524b633078544e444e4f553046345645524a5a303155516d394f626e426104e08301527f3054554d774d574645576e4e4d616d4d7854465247545531555557644e4d47636105008301527f305a47704b4e6b6c714e44684d4d304a6f5a45646e4b306c4564335a61656a51610520830152703454444e4f4d6c70364e44306966513d3d60781b61054083015251918291826110dd565b82843461019e57602036600319011261019e5750611086602092356113a1565b505490516001600160a01b039091168152f35b849084346104f457826003193601126104f45761022192506110ba82611124565b601082526f25b0ba34b132b41029b83634ba3a32b960811b602083015251918291825b602080825282518183018190529093925f5b82811061111057505060409293505f838284010152601f8019910116010190565b8181018601518482016040015285016110ef565b6040810190811067ffffffffffffffff82111761114057604052565b634e487b7160e01b5f52604160045260245ffd5b90601f8019910116810190811067ffffffffffffffff82111761114057604052565b67ffffffffffffffff81116111405760051b60200190565b602090816003198201126112555760043567ffffffffffffffff81116112555781602382011215611255578060040135926111c884611176565b936040936111d885519687611154565b81865260248387019260061b8501019381851161125557602401915b8483106112045750505050505090565b85838303126112555785519061121982611124565b83356001600160a01b038116810361125557825284840135906001600160601b038216820361125557828692838a9501528152019201916111f4565b5f80fd5b67ffffffffffffffff811161114057601f01601f191660200190565b60208082019080835283518092528060408094019401925f905b83821061129e57505050505090565b845180516001600160a01b031687528301516001600160601b031686840152948501949382019360019091019061128f565b3d156112fa573d906112e182611259565b916112ef6040519384611154565b82523d5f602084013e565b606090565b916043916055936040519260388401526f5af43d82803e903d91602b57fd5bf3ff60248401526014830152733d602d80600a3d3981f3363d3d373d3d3d363d73825260588201526037600c8201206078820152012090565b5f1981146113655760010190565b634e487b7160e01b5f52601160045260245ffd5b805182101561138d5760209160051b010190565b634e487b7160e01b5f52603260045260245ffd5b60015481101561138d5760015f527fb10e2d527612073b26eecdfd717e6a320cf44b4afac2b0732d9fcbe2b7fa0cf601905f90565b6001541561138d5760015f527fb10e2d527612073b26eecdfd717e6a320cf44b4afac2b0732d9fcbe2b7fa0cf6905f90565b9060405161141581611124565b91546001600160a01b038116835260a01c6020830152565b8115611437570490565b634e487b7160e01b5f52601260045260245ffd5b806114535750565b5f90815f19908160015401805b6114c057505050037f1445764fe3fdfc2a9812ff42e9b65c2e7896d5162851f78f7d4a5578f7346ff160206114936113d6565b50546001600160a01b03906114ab9085908316611543565b6114b36113d6565b50541692604051908152a2565b806114d46114ce85936113a1565b50611408565b957f1445764fe3fdfc2a9812ff42e9b65c2e7896d5162851f78f7d4a5578f7346ff16001600160601b0361151960209180838c0151168a0290885460101c169061142d565b8093019860018060a01b03906115328583835116611543565b511692604051908152a20180611460565b8147106115d8575f918291829182916001600160a01b03165af16115656112d0565b501561156d57565b60405162461bcd60e51b815260206004820152603a60248201527f416464726573733a20756e61626c6520746f2073656e642076616c75652c207260448201527f6563697069656e74206d617920686176652072657665727465640000000000006064820152608490fd5b60405162461bcd60e51b815260206004820152601d60248201527f416464726573733a20696e73756666696369656e742062616c616e63650000006044820152606490fd5b90816020910312611255575180151581036112555790565b604080516370a0823160e01b81523060048083019190915290926001600160a01b03908116916020908186602481875afa5f968161185e575b5061167d575050505050505f90565b8515611854575f8019968760015401805b611754575083949596975003918291856116a66113d6565b5054895163a9059cbb60e01b815291166001600160a01b031691810191825260208201939093528290819060400103815f895af19081611727575b506116ef5750505050505f90565b7fe8de91d538b06154a2c48315768c5046f47e127d7fd3f726fd85cc723f29b052926117196113d6565b5054169451908152a3600190565b61174690843d861161174d575b61173e8183611154565b81019061161d565b505f6116e1565b503d611734565b6117606114ce826113a1565b906001600160601b03936117798588850151168561188d565b9015611844578787928b8d5f61179a6117d2968f9c835460101c169061142d565b96878095019b8a511692519687958694859363a9059cbb60e01b8552840160209093929193604081019460018060a01b031681520152565b03925af19081611827575b506117f15750505050505050505050505f90565b887fe8de91d538b06154a2c48315768c5046f47e127d7fd3f726fd85cc723f29b052888a8e965116938d51908152a3018061168e565b61183d90893d8b1161174d5761173e8183611154565b505f6117dd565b5050505050505050505050505f90565b5050505050505f90565b90968382813d8311611886575b6118758183611154565b8101031261019e575051955f61166e565b503d61186b565b919082156118b4576118a2818402938461142d565b036118ad5760019190565b5f91508190565b50600191505f90565b5f91825b6001548110156119b9576118d4816113a1565b50546001600160a01b0390811633146118f657506118f190611357565b6118c1565b905061190482939492611aae565b61196a5761196793169061191782611635565b50806040519361192685611124565b601e855260207f416464726573733a206c6f772d6c6576656c2063616c6c206661696c65640000818701528151910182855af16119616112d0565b91611a19565b50565b60405162461bcd60e51b815260206004820152602160248201527f53706c69743a20455243323020746f6b656e73206d7573742062652073706c696044820152601d60fa1b6064820152608490fd5b60405162461bcd60e51b815260206004820152603260248201527f53706c69743a2043616e206f6e6c792062652063616c6c6564206279206f6e65604482015271206f662074686520726563697069656e747360701b6064820152608490fd5b91929015611a7b5750815115611a2d575090565b3b15611a365790565b60405162461bcd60e51b815260206004820152601d60248201527f416464726573733a2063616c6c20746f206e6f6e2d636f6e74726163740000006044820152606490fd5b825190915015611a8e5750805190602001fd5b60405162461bcd60e51b8152908190611aaa90600483016110dd565b0390fd5b60049081815110611b23575f5b828110611aca57505050600190565b8151811015611b1057818101602001516001600160f81b031990811663095ea7b360e01b831a60f81b90911603611b0957611b0490611357565b611abb565b5050505f90565b603283634e487b7160e01b5f525260245ffd5b50505f9056fea2646970667358221220a48d532d8faca228fd98a42f86a2b95f11b827e3ac182c27c3b8f9b3baf4d1aa64736f6c63430008150033",
  "linkReferences": {},
  "deployedLinkReferences": {}
}