{
  "_format": "hh-sol-artifact-1",
  "contractName": "Factory1155",
  "sourceName": "contracts/katibeh1155/Factory1155.sol",
  "abi": [
    {
      "inputs": [
        {
          "internalType": "address",
          "name": "qhAddr",
          "type": "address"
        },
        {
          "internalType": "uint96",
          "name": "_startTime",
          "type": "uint96"
        }
      ],
      "stateMutability": "nonpayable",
      "type": "constructor"
    },
    {
      "anonymous": false,
      "inputs": [
        {
          "indexed": true,
          "internalType": "uint256",
          "name": "tokenHash",
          "type": "uint256"
        },
        {
          "indexed": true,
          "internalType": "uint256",
          "name": "toTokenHash",
          "type": "uint256"
        }
      ],
      "name": "NewReply",
      "type": "event"
    },
    {
      "anonymous": false,
      "inputs": [
        {
          "indexed": true,
          "internalType": "uint256",
          "name": "tokenHash",
          "type": "uint256"
        },
        {
          "indexed": true,
          "internalType": "address",
          "name": "creator",
          "type": "address"
        },
        {
          "indexed": true,
          "internalType": "bytes",
          "name": "data",
          "type": "bytes"
        }
      ],
      "name": "NewToken",
      "type": "event"
    },
    {
      "anonymous": false,
      "inputs": [
        {
          "indexed": false,
          "internalType": "uint256",
          "name": "tokenHash",
          "type": "uint256"
        },
        {
          "indexed": true,
          "internalType": "bytes32",
          "name": "tag1",
          "type": "bytes32"
        },
        {
          "indexed": true,
          "internalType": "bytes32",
          "name": "tag2",
          "type": "bytes32"
        },
        {
          "indexed": true,
          "internalType": "bytes32",
          "name": "tag3",
          "type": "bytes32"
        }
      ],
      "name": "Tags",
      "type": "event"
    },
    {
      "anonymous": false,
      "inputs": [
        {
          "indexed": true,
          "internalType": "uint256",
          "name": "tokenHash",
          "type": "uint256"
        },
        {
          "indexed": false,
          "internalType": "bytes",
          "name": "data",
          "type": "bytes"
        }
      ],
      "name": "TokenData",
      "type": "event"
    },
    {
      "anonymous": false,
      "inputs": [
        {
          "indexed": true,
          "internalType": "address",
          "name": "operator",
          "type": "address"
        },
        {
          "indexed": true,
          "internalType": "address",
          "name": "from",
          "type": "address"
        },
        {
          "indexed": true,
          "internalType": "address",
          "name": "to",
          "type": "address"
        },
        {
          "indexed": false,
          "internalType": "uint256",
          "name": "id",
          "type": "uint256"
        },
        {
          "indexed": false,
          "internalType": "uint256",
          "name": "value",
          "type": "uint256"
        }
      ],
      "name": "TransferSingle",
      "type": "event"
    },
    {
      "inputs": [],
      "name": "QH",
      "outputs": [
        {
          "internalType": "contract IQHash",
          "name": "",
          "type": "address"
        }
      ],
      "stateMutability": "view",
      "type": "function"
    },
    {
      "inputs": [
        {
          "internalType": "address",
          "name": "",
          "type": "address"
        }
      ],
      "name": "_collectorScore",
      "outputs": [
        {
          "internalType": "uint256",
          "name": "",
          "type": "uint256"
        }
      ],
      "stateMutability": "view",
      "type": "function"
    },
    {
      "inputs": [
        {
          "internalType": "uint256",
          "name": "",
          "type": "uint256"
        }
      ],
      "name": "_tokenCollection",
      "outputs": [
        {
          "internalType": "address",
          "name": "addr",
          "type": "address"
        },
        {
          "internalType": "uint96",
          "name": "tokenId",
          "type": "uint96"
        }
      ],
      "stateMutability": "view",
      "type": "function"
    },
    {
      "inputs": [
        {
          "internalType": "address",
          "name": "collector",
          "type": "address"
        },
        {
          "internalType": "uint256",
          "name": "tokenHash",
          "type": "uint256"
        },
        {
          "internalType": "uint256",
          "name": "amount",
          "type": "uint256"
        },
        {
          "components": [
            {
              "internalType": "address",
              "name": "creator",
              "type": "address"
            },
            {
              "internalType": "uint96",
              "name": "signTime",
              "type": "uint96"
            },
            {
              "internalType": "uint256",
              "name": "initTime",
              "type": "uint256"
            },
            {
              "internalType": "string",
              "name": "tokenURI",
              "type": "string"
            },
            {
              "internalType": "bytes",
              "name": "data",
              "type": "bytes"
            },
            {
              "internalType": "uint256[]",
              "name": "toTokenHash",
              "type": "uint256[]"
            },
            {
              "internalType": "bytes32[]",
              "name": "tags",
              "type": "bytes32[]"
            },
            {
              "components": [
                {
                  "internalType": "address payable",
                  "name": "recipient",
                  "type": "address"
                },
                {
                  "internalType": "uint96",
                  "name": "percentInBasisPoints",
                  "type": "uint96"
                }
              ],
              "internalType": "struct PercentSplitETH.Share[]",
              "name": "owners",
              "type": "tuple[]"
            },
            {
              "components": [
                {
                  "internalType": "uint256",
                  "name": "A",
                  "type": "uint256"
                },
                {
                  "internalType": "int256",
                  "name": "B",
                  "type": "int256"
                },
                {
                  "internalType": "int256",
                  "name": "C",
                  "type": "int256"
                },
                {
                  "internalType": "int256",
                  "name": "D",
                  "type": "int256"
                },
                {
                  "internalType": "uint96",
                  "name": "totalSupply",
                  "type": "uint96"
                },
                {
                  "internalType": "uint96",
                  "name": "expTime",
                  "type": "uint96"
                },
                {
                  "internalType": "uint64",
                  "name": "discount",
                  "type": "uint64"
                },
                {
                  "internalType": "uint96",
                  "name": "initTime",
                  "type": "uint96"
                },
                {
                  "internalType": "uint96",
                  "name": "royalty",
                  "type": "uint96"
                },
                {
                  "internalType": "uint256",
                  "name": "chainId",
                  "type": "uint256"
                }
              ],
              "internalType": "struct DataStorage.Pricing[]",
              "name": "pricing",
              "type": "tuple[]"
            }
          ],
          "internalType": "struct DataStorage.Katibeh",
          "name": "katibeh",
          "type": "tuple"
        },
        {
          "internalType": "bytes",
          "name": "sig",
          "type": "bytes"
        },
        {
          "internalType": "bytes",
          "name": "data",
          "type": "bytes"
        },
        {
          "components": [
            {
              "internalType": "address payable",
              "name": "recipient",
              "type": "address"
            },
            {
              "internalType": "uint96",
              "name": "percentInBasisPoints",
              "type": "uint96"
            }
          ],
          "internalType": "struct PercentSplitETH.Share[]",
          "name": "dapps",
          "type": "tuple[]"
        }
      ],
      "name": "firstPrivateCollect",
      "outputs": [],
      "stateMutability": "payable",
      "type": "function"
    },
    {
      "inputs": [
        {
          "internalType": "address",
          "name": "collector",
          "type": "address"
        },
        {
          "internalType": "uint256",
          "name": "tokenHash",
          "type": "uint256"
        },
        {
          "internalType": "uint256",
          "name": "amount",
          "type": "uint256"
        },
        {
          "components": [
            {
              "internalType": "address",
              "name": "creator",
              "type": "address"
            },
            {
              "internalType": "uint96",
              "name": "signTime",
              "type": "uint96"
            },
            {
              "internalType": "uint256",
              "name": "initTime",
              "type": "uint256"
            },
            {
              "internalType": "string",
              "name": "tokenURI",
              "type": "string"
            },
            {
              "internalType": "bytes",
              "name": "data",
              "type": "bytes"
            },
            {
              "internalType": "uint256[]",
              "name": "toTokenHash",
              "type": "uint256[]"
            },
            {
              "internalType": "bytes32[]",
              "name": "tags",
              "type": "bytes32[]"
            },
            {
              "components": [
                {
                  "internalType": "address payable",
                  "name": "recipient",
                  "type": "address"
                },
                {
                  "internalType": "uint96",
                  "name": "percentInBasisPoints",
                  "type": "uint96"
                }
              ],
              "internalType": "struct PercentSplitETH.Share[]",
              "name": "owners",
              "type": "tuple[]"
            },
            {
              "components": [
                {
                  "internalType": "uint256",
                  "name": "A",
                  "type": "uint256"
                },
                {
                  "internalType": "int256",
                  "name": "B",
                  "type": "int256"
                },
                {
                  "internalType": "int256",
                  "name": "C",
                  "type": "int256"
                },
                {
                  "internalType": "int256",
                  "name": "D",
                  "type": "int256"
                },
                {
                  "internalType": "uint96",
                  "name": "totalSupply",
                  "type": "uint96"
                },
                {
                  "internalType": "uint96",
                  "name": "expTime",
                  "type": "uint96"
                },
                {
                  "internalType": "uint64",
                  "name": "discount",
                  "type": "uint64"
                },
                {
                  "internalType": "uint96",
                  "name": "initTime",
                  "type": "uint96"
                },
                {
                  "internalType": "uint96",
                  "name": "royalty",
                  "type": "uint96"
                },
                {
                  "internalType": "uint256",
                  "name": "chainId",
                  "type": "uint256"
                }
              ],
              "internalType": "struct DataStorage.Pricing[]",
              "name": "pricing",
              "type": "tuple[]"
            }
          ],
          "internalType": "struct DataStorage.Katibeh",
          "name": "katibeh",
          "type": "tuple"
        },
        {
          "internalType": "bytes",
          "name": "sig",
          "type": "bytes"
        },
        {
          "internalType": "bytes",
          "name": "data",
          "type": "bytes"
        },
        {
          "components": [
            {
              "internalType": "address payable",
              "name": "recipient",
              "type": "address"
            },
            {
              "internalType": "uint96",
              "name": "percentInBasisPoints",
              "type": "uint96"
            }
          ],
          "internalType": "struct PercentSplitETH.Share[]",
          "name": "dapps",
          "type": "tuple[]"
        }
      ],
      "name": "firstPublicCollect",
      "outputs": [],
      "stateMutability": "payable",
      "type": "function"
    },
    {
      "inputs": [],
      "name": "implementation",
      "outputs": [
        {
          "internalType": "contract Katibeh1155",
          "name": "",
          "type": "address"
        }
      ],
      "stateMutability": "view",
      "type": "function"
    },
    {
      "inputs": [
        {
          "internalType": "address",
          "name": "creatorAddr",
          "type": "address"
        },
        {
          "internalType": "string",
          "name": "tag0",
          "type": "string"
        }
      ],
      "name": "predictCollAddr",
      "outputs": [
        {
          "internalType": "address",
          "name": "",
          "type": "address"
        }
      ],
      "stateMutability": "view",
      "type": "function"
    },
    {
      "inputs": [
        {
          "internalType": "uint256",
          "name": "tokenHash",
          "type": "uint256"
        },
        {
          "internalType": "address",
          "name": "collector",
          "type": "address"
        },
        {
          "internalType": "uint256",
          "name": "amount",
          "type": "uint256"
        },
        {
          "internalType": "bytes",
          "name": "data",
          "type": "bytes"
        },
        {
          "components": [
            {
              "internalType": "address payable",
              "name": "recipient",
              "type": "address"
            },
            {
              "internalType": "uint96",
              "name": "percentInBasisPoints",
              "type": "uint96"
            }
          ],
          "internalType": "struct PercentSplitETH.Share[]",
          "name": "dapps",
          "type": "tuple[]"
        }
      ],
      "name": "privateCollect",
      "outputs": [],
      "stateMutability": "payable",
      "type": "function"
    },
    {
      "inputs": [
        {
          "components": [
            {
              "internalType": "address",
              "name": "addr",
              "type": "address"
            },
            {
              "internalType": "uint96",
              "name": "tokenId",
              "type": "uint96"
            }
          ],
          "internalType": "struct Factory1155.Collection",
          "name": "tokenInfo",
          "type": "tuple"
        },
        {
          "internalType": "address",
          "name": "collector",
          "type": "address"
        },
        {
          "internalType": "uint256",
          "name": "amount",
          "type": "uint256"
        },
        {
          "internalType": "bytes",
          "name": "data",
          "type": "bytes"
        },
        {
          "components": [
            {
              "internalType": "address payable",
              "name": "recipient",
              "type": "address"
            },
            {
              "internalType": "uint96",
              "name": "percentInBasisPoints",
              "type": "uint96"
            }
          ],
          "internalType": "struct PercentSplitETH.Share[]",
          "name": "dapps",
          "type": "tuple[]"
        }
      ],
      "name": "privateCollect",
      "outputs": [],
      "stateMutability": "payable",
      "type": "function"
    },
    {
      "inputs": [
        {
          "components": [
            {
              "internalType": "address",
              "name": "addr",
              "type": "address"
            },
            {
              "internalType": "uint96",
              "name": "tokenId",
              "type": "uint96"
            }
          ],
          "internalType": "struct Factory1155.Collection",
          "name": "tokenInfo",
          "type": "tuple"
        },
        {
          "internalType": "address",
          "name": "collector",
          "type": "address"
        },
        {
          "internalType": "uint256",
          "name": "amount",
          "type": "uint256"
        },
        {
          "internalType": "bytes",
          "name": "data",
          "type": "bytes"
        },
        {
          "components": [
            {
              "internalType": "address payable",
              "name": "recipient",
              "type": "address"
            },
            {
              "internalType": "uint96",
              "name": "percentInBasisPoints",
              "type": "uint96"
            }
          ],
          "internalType": "struct PercentSplitETH.Share[]",
          "name": "dapps",
          "type": "tuple[]"
        }
      ],
      "name": "publicCollect",
      "outputs": [],
      "stateMutability": "payable",
      "type": "function"
    },
    {
      "inputs": [
        {
          "internalType": "address payable",
          "name": "newAddr",
          "type": "address"
        }
      ],
      "name": "setReceiver1",
      "outputs": [],
      "stateMutability": "nonpayable",
      "type": "function"
    },
    {
      "inputs": [],
      "name": "split",
      "outputs": [
        {
          "internalType": "contract PercentSplitETH",
          "name": "",
          "type": "address"
        }
      ],
      "stateMutability": "view",
      "type": "function"
    },
    {
      "inputs": [],
      "name": "startTime",
      "outputs": [
        {
          "internalType": "uint96",
          "name": "",
          "type": "uint96"
        }
      ],
      "stateMutability": "view",
      "type": "function"
    },
    {
      "inputs": [
        {
          "internalType": "address",
          "name": "",
          "type": "address"
        },
        {
          "internalType": "uint96",
          "name": "",
          "type": "uint96"
        }
      ],
      "name": "tokenPricing",
      "outputs": [
        {
          "internalType": "uint256",
          "name": "A",
          "type": "uint256"
        },
        {
          "internalType": "int256",
          "name": "B",
          "type": "int256"
        },
        {
          "internalType": "int256",
          "name": "C",
          "type": "int256"
        },
        {
          "internalType": "int256",
          "name": "D",
          "type": "int256"
        },
        {
          "internalType": "uint96",
          "name": "totalSupply",
          "type": "uint96"
        },
        {
          "internalType": "uint96",
          "name": "expTime",
          "type": "uint96"
        },
        {
          "internalType": "uint64",
          "name": "discount",
          "type": "uint64"
        },
        {
          "internalType": "uint96",
          "name": "initTime",
          "type": "uint96"
        },
        {
          "internalType": "uint96",
          "name": "royalty",
          "type": "uint96"
        },
        {
          "internalType": "uint256",
          "name": "chainId",
          "type": "uint256"
        }
      ],
      "stateMutability": "view",
      "type": "function"
    },
    {
      "inputs": [],
      "name": "totalValueLocked",
      "outputs": [
        {
          "internalType": "uint256",
          "name": "",
          "type": "uint256"
        }
      ],
      "stateMutability": "view",
      "type": "function"
    },
    {
      "inputs": [
        {
          "internalType": "uint256",
          "name": "tokenHash",
          "type": "uint256"
        }
      ],
      "name": "uri",
      "outputs": [
        {
          "internalType": "string",
          "name": "",
          "type": "string"
        }
      ],
      "stateMutability": "view",
      "type": "function"
    },
    {
      "inputs": [
        {
          "internalType": "address",
          "name": "",
          "type": "address"
        }
      ],
      "name": "userBalance",
      "outputs": [
        {
          "internalType": "uint256",
          "name": "",
          "type": "uint256"
        }
      ],
      "stateMutability": "view",
      "type": "function"
    },
    {
      "inputs": [],
      "name": "withdraw",
      "outputs": [],
      "stateMutability": "nonpayable",
      "type": "function"
    },
    {
      "inputs": [
        {
          "components": [
            {
              "internalType": "address",
              "name": "addr",
              "type": "address"
            },
            {
              "internalType": "uint96",
              "name": "tokenId",
              "type": "uint96"
            }
          ],
          "internalType": "struct Factory1155.Collection",
          "name": "tokenInfo",
          "type": "tuple"
        }
      ],
      "name": "withdraw",
      "outputs": [],
      "stateMutability": "nonpayable",
      "type": "function"
    }
  ],
  "bytecode": "0x60a0346200015e5762007277906001600160401b0390601f38849003908101601f1916820190838211838310176200014a57808391604096879485528339810103126200015e5780516001600160a01b0380821693909290918490036200015e5760200151906001600160601b03821682036200015e578451906112f89182810192818410838511176200014a5762005f7f82393083526020815f9403019083f09384156200014057825494166001600160a01b03199485161782558551906128e880830191838310908311176200012c57908291620036978339039082f09081156200012157506080523382600154161760015560a01b1617600955516135349081620001638239608051818181610688015281816108f8015261253c0152f35b8551903d90823e3d90fd5b634e487b7160e01b84526041600452602484fd5b86513d84823e3d90fd5b634e487b7160e01b5f52604160045260245ffd5b5f80fdfe60806040526004361015610011575f80fd5b5f3560e01c80630103c92b1461014457806303c131481461013f57806308e7c4d01461013a5780630e89341c1461013557806339526cc7146101305780633ccfd60b1461012b57806348e3fa61146101265780635c60da1b146101215780635fd099e61461011c57806378e97925146101175780638191ea8314610112578063883e71d31461010d578063968a577b146101085780639c9bead4146101035780639d58e53f146100fe578063d4b11733146100f9578063dbe0a4d8146100f4578063ec18154e146100ef5763f7654176146100ea575f80fd5b610eb4565b610e97565b610cfc565b610c5c565b610b7c565b610a9e565b610a63565b610a4b565b61084d565b6106f0565b6106b7565b610673565b6105df565b6105ad565b610417565b6102e5565b610263565b6101b3565b610178565b6001600160a01b0381160361015a57565b5f80fd5b6004359061016b82610149565b565b359061016b82610149565b3461015a57602036600319011261015a5760043561019581610149565b60018060a01b03165f526003602052602060405f2054604051908152f35b3461015a57602036600319011261015a576004356101d081610149565b600154906001600160a01b039081831633036101fa576001600160a01b0319909216911617600155005b60405162461bcd60e51b815260206004820152603160248201527f4665654d616e616765723a204f6e6c79207265636569766572312063616e206360448201527068616e676520697473206164647265737360781b6064820152608490fd5b5f91031261015a57565b3461015a575f36600319011261015a576009546040516001600160a01b039091168152602090f35b5f5b83811061029c5750505f910152565b818101518382015260200161028d565b906020916102c58151809281855285808601910161028b565b601f01601f1916010190565b9060206102e29281815201906102ac565b90565b3461015a57602036600319011261015a57610318610304600435610f69565b6040519182916020835260208301906102ac565b0390f35b908161012091031261015a5790565b9181601f8401121561015a578235916001600160401b03831161015a576020838186019501011161015a57565b9181601f8401121561015a578235916001600160401b03831161015a576020808501948460061b01011161015a57565b9060e060031983011261015a5761039d61015e565b9160243591604435916001600160401b039160643583811161015a57826103c69160040161031c565b9260843581811161015a57836103de9160040161032b565b9390939260a43583811161015a57826103f99160040161032b565b9390939260c43591821161015a5761041391600401610358565b9091565b61042036610388565b9360c0879a96929493989a01610436908861122c565b61043f91611275565b355f1a60f81b6001600160f81b031916602360f81b1461045e906112b1565b61046991878a611c5c565b61047660a086018661122c565b61047f91612200565b6104888561249f565b6001600160a01b0316956020860191876104a18461130f565b906104ab91611472565b6104b860e0890189611319565b906104c28a61134e565b9136906104ce9261136f565b906104d891612a33565b936104e29061130f565b6104eb90611407565b6001600160601b031642119a6105749961056a986001600160601b0361055d61057a9f966105659761057c575b6001600160a01b0385165f90815260076020526040902061054c9088905b906001600160601b03165f5260205260405f2090565b50610555613017565b9836916107fc565b941691612878565b612b9a565b6080810190611426565b9061295a565b005b6001600160a01b0385165f9081526007602052604090206105a8906105a2908990610536565b60019055565b610518565b3461015a575f806003193601126105dc5733815260036020526105d860408220828154915533612e58565b5080f35b80fd5b60a036600319011261015a576024356105f781610149565b6001600160401b039060643582811161015a5761061890369060040161032b565b60849291923593841161015a5761063661057a943690600401610358565b9390926004355f52600560205260405f20906040519161065583610724565b546001600160a01b038116835260a01c602083015260443591611901565b3461015a575f36600319011261015a576040517f00000000000000000000000000000000000000000000000000000000000000006001600160a01b03168152602090f35b3461015a57602036600319011261015a576004355f5260056020526040805f205481519060018060a01b038116825260a01c6020820152f35b3461015a575f36600319011261015a57602060095460a01c604051908152f35b634e487b7160e01b5f52604160045260245ffd5b604081019081106001600160401b0382111761073f57604052565b610710565b6001600160401b03811161073f57604052565b6101a081019081106001600160401b0382111761073f57604052565b90601f801991011681019081106001600160401b0382111761073f57604052565b6040519061016b82610724565b6040519061014082018281106001600160401b0382111761073f57604052565b6040519061012082018281106001600160401b0382111761073f57604052565b6001600160401b03811161073f57601f01601f191660200190565b929192610808826107e1565b916108166040519384610773565b82948184528183011161015a578281602093845f960137010152565b9080601f8301121561015a578160206102e2933591016107fc565b3461015a57604036600319011261015a5760043561086a81610149565b602435906001600160401b03821161015a576108f4610978916108c06108ac6108c561089d610318973690600401610832565b604051928391602083016102d1565b03916108c0601f1993848101835282610773565b61120a565b60405160609490941b6001600160601b0319166020850152603484015282605481015b03908101835282610773565b30907f00000000000000000000000000000000000000000000000000000000000000006001600160a01b0316916043916055936040519260388401526f5af43d82803e903d91602b57fd5bf3ff60248401526014830152733d602d80600a3d3981f3363d3d373d3d3d363d73825260588201526037600c8201206078820152012090565b6040516001600160a01b0390911681529081906020820190565b6001600160601b0381160361015a57565b359061016b82610992565b604090600319011261015a57604051906109c782610724565b816004356109d481610149565b81526020602435916109e583610992565b0152565b9060c060031983011261015a576109ff826109ae565b91604435610a0c81610149565b91606435916001600160401b039160843583811161015a5782610a319160040161032b565b9390939260a43591821161015a5761041391600401610358565b61057a610a57366109e9565b95949094939193611901565b3461015a57602036600319011261015a57600435610a8081610149565b60018060a01b03165f526006602052602060405f2054604051908152f35b3461015a57604036600319011261015a57610b106040610abd366109ae565b8051610adf906020906001600160a01b03165b9201516001600160601b031690565b825163152a902d60e11b81526001600160601b0390911660048201525f602482015292839190829081906044820190565b03915afa8015610b775761057a915f91610b48575b506001600160a01b0381165f908152600360205260408120805491905590612e58565b610b69915060403d8111610b70575b610b618183610773565b81019061182f565b505f610b25565b503d610b57565b610f5e565b3461015a57604036600319011261015a57610bd2600435610b9c81610149565b60243590610ba982610992565b60018060a01b03165f52600460205260405f20906001600160601b03165f5260205260405f2090565b805460018201546002830154600384015460048501546005860154600690960154604080519687526020870195909552938501929092526060808501919091526001600160601b03808316608086015282821c811660a086015260c092831c9285019290925281851660e08501529390931c90921661010082015261012081019190915261014090f35b610cd56040610ca2610c6d366109e9565b50509290939491602060018060a01b03875116960193610c9b6001600160601b0396878751169236916107fc565b9287612878565b5116908251808095819463152a902d60e11b83526004830160205f919392936001600160601b0360408201951681520152565b03915afa8015610b7757610ce557005b61057a9060403d8111610b7057610b618183610773565b610d0536610388565b9597989196929360c08996929601610d1d908a61122c565b610d2691611275565b355f1a60f81b6001600160f81b031916602360f81b1415610d46906114fb565b610d5191898b611c5c565b610d5e60a088018861122c565b610d6791612200565b86610d718161134e565b90610d7b916125e0565b906001600160a01b038216908382610d9560208c0161130f565b90610d9f91611472565b91610dad60e08c018c611319565b90610db78d61134e565b913690610dc39261136f565b90610dcd91612a33565b96610dd8368d611739565b610de190612ef1565b9a8b96610dec610794565b6001600160a01b0390911681526001600160601b0386166020820152610e129088612337565b8d8d8a88886101008c0151610e2d906001600160601b031690565b90610e3795612726565b3690610e42926107fc565b926001600160601b031690610e5694612878565b610e5f9161327c565b60c0909401516001600160401b03166001600160401b0316610e8094612d33565b60808101610e8d91611426565b61057a929161295a565b3461015a575f36600319011261015a576020600254604051908152f35b3461015a575f36600319011261015a575f546040516001600160a01b039091168152602090f35b90604051610ee881610724565b91546001600160a01b038116835260a01c6020830152565b60208183031261015a578051906001600160401b03821161015a570181601f8201121561015a578051610f32816107e1565b92610f406040519485610773565b8184526020828401011161015a576102e2916020808501910161028b565b6040513d5f823e3d90fd5b6001600160a01b0381165f90815260066020526040902054611028575f610fa3610f9e610ff8935f52600560205260405f2090565b610edb565b8051610fcc90602090610ad090610fc0906001600160a01b031681565b6001600160a01b031690565b6040516303a24d0760e21b81526001600160601b03909116600482015292839190829081906024820190565b03915afa908115610b77575f9161100d575090565b6102e2913d8091833e6110208183610773565b810190610f00565b5060405161103581610757565b61017d81527f646174613a6170706c69636174696f6e2f6a736f6e3b6261736536342c65794a60208201527f755957316c496a6f67496b746864476c695a5767694c434a6b5a584e6a636d6c60408201527f7764476c766269493649434a4f6232347464484a68626e4e6d5a584a68596d7860608201527f6c49697769615731685a3255694f6941695a474630595470706257466e5a533960808201527f7a646d6372654731734f324a68633255324e43785153453479576e6c434d324660a08201527f58556a426852444270546c525a4d306c70516d396156327875595568524f556c60c08201527f7156544a4f65556c6e5a55637863324a7554546c4a625767775a4568424e6b7860e08201527f354f544e6b4d324e315a48704e6457497a536d354d656b6c3354555242646d4d6101008201527f7a576d354a616a51345a4564574e475244516a525155306b7854554e5661556c6101208201527f49617a6c4a616d4e33536c4e4a5a325248566a526b517a466f596d314f6232496101408201527f7a53546c4a62544677576b645363317054535374544d6b59775956644b6247466101608201527f4564335a6b523159305a4551304f45777a546a4a61656a5139496e303d00000061018082015290565b60208151910151906020811061121e575090565b5f199060200360031b1b1690565b903590601e198136030182121561015a57018035906001600160401b03821161015a57602001918160051b3603831361015a57565b634e487b7160e01b5f52603260045260245ffd5b901561127e5790565b611261565b906001101561127e5760200190565b906002101561127e5760400190565b919081101561127e5760051b0190565b156112b857565b60405162461bcd60e51b815260206004820152602960248201527f466163746f7279313135353a204f6e6c79207075626c696320636f6c6c6563746044820152681030b63637bbb2b21760b91b6064820152608490fd5b356102e281610992565b903590601e198136030182121561015a57018035906001600160401b03821161015a57602001918160061b3603831361015a57565b356102e281610149565b6001600160401b03811161073f5760051b60200190565b92919261137b82611358565b60409261138a84519283610773565b819581835260208093019160061b84019381851161015a57915b8483106113b357505050505050565b858383031261015a5783869182516113ca81610724565b85356113d581610149565b8152828601356113e481610992565b838201528152019201916113a4565b634e487b7160e01b5f52601160045260245ffd5b90620151806001600160601b038093160191821161142157565b6113f3565b903590601e198136030182121561015a57018035906001600160401b03821161015a5760200191813603831361015a57565b6001600160601b03908116610e0f19019190821161142157565b60095460a01c6001600160601b03809216039080821161142157604051631d24662960e31b81529116600482015290602090829060249082906001600160a01b03165afa908115610b77575f916114c7575090565b906020823d82116114f3575b816114e060209383610773565b810103126105dc5750516102e281610992565b3d91506114d3565b1561150257565b60405162461bcd60e51b815260206004820152602a60248201527f466163746f7279313135353a204f6e6c79207072697661746520636f6c6c65636044820152693a1030b63637bbb2b21760b11b6064820152608490fd5b9080601f8301121561015a57602090823561157481611358565b936115826040519586610773565b818552838086019260051b82010192831161015a578301905b8282106115a9575050505090565b8135815290830190830161159b565b9080601f8301121561015a5760209082356115d281611358565b936115e06040519586610773565b818552838086019260051b82010192831161015a578301905b828210611607575050505090565b813581529083019083016115f9565b9080601f8301121561015a578160206102e29335910161136f565b35906001600160401b038216820361015a57565b81601f8201121561015a57803590602061165e83611358565b93604061166d81519687610773565b84865282860191836101408097028601019481861161015a578401925b85841061169b575050505050505090565b868483031261015a578487916116af6107a1565b86358152828701358382015285870135868201526060808801359082015260806116da8189016109a3565b9082015260a06116eb8189016109a3565b9082015260c06116fc818901611631565b9082015260e061170d8189016109a3565b9082015261010061171f8189016109a3565b90820152610120808801359082015281520193019261168a565b91906101208382031261015a5761174e6107c1565b926117588161016d565b8452611766602082016109a3565b6020850152604081013560408501526060810135916001600160401b039283811161015a5781611797918401610832565b6060860152608082013583811161015a57816117b4918401610832565b608086015260a082013583811161015a57816117d191840161155a565b60a086015260c082013583811161015a57816117ee9184016115b8565b60c086015260e082013583811161015a578161180b918401611616565b60e0860152610100928383013590811161015a576118299201611645565b90830152565b919082604091031261015a576020825161184881610149565b92015190565b9060066118596107a1565b8354815260018401546020820152600284015460408201526003840154606082015260048401546001600160601b0380821660808401529194916118e8916118bb906001600160601b03606082901c84161660a089015260c090811c90880152565b60058301546001600160601b038282161660e088015260601c166101008601906001600160601b03169052565b0154610120830152565b9081602091031261015a575190565b80516001600160a01b03165f8181526004602090815260409091209201805194989796909594909391926119589161195391906001600160601b03165b6001600160601b03165f5260205260405f2090565b61184e565b94611998602061196f83516001600160601b031690565b60405163bd85b03960e01b81526001600160601b03909116600482015291829081906024820190565b0381875afa928315610b77578a604096610c9b6119c88b611a2f9f6119fe996119f1985f91611a96575b506132fc565b996119e96119dd88516001600160601b031690565b6001600160601b031690565b9236916107fc565b516001600160601b031690565b825163152a902d60e11b81526001600160601b0390911660048201525f602482015296879190829081906044820190565b03915afa918215610b775761016b955f93611a6a575b5060c00151611a64906001600160401b03165b6001600160401b031690565b90612d33565b611a6491935060c0611a8c611a589260403d8111610b7057610b618183610773565b5094925050611a45565b611ab7915060203d8111611abd575b611aaf8183610773565b8101906118f2565b5f6119c2565b503d611aa5565b15611acb57565b60405162461bcd60e51b815260206004820152602a60248201527f466163746f7279313135353a2054686973206973206e6f7420746865206669726044820152691cdd0818dbdb1b1958dd60b21b6064820152608490fd5b15611b2a57565b60405162461bcd60e51b815260206004820152601e60248201527f466163746f7279313135353a20496e76616c6964207369676e617475726500006044820152606490fd5b9081602091031261015a5751801515810361015a5790565b908060209392818452848401375f828201840152601f01601f1916010190565b939291602091611bbf91604087526040870191611b87565b930152565b15611bcb57565b60405162461bcd60e51b815260206004820152601b60248201527f466163746f7279313135353a2077726f6e6720746f6b656e20696400000000006044820152606490fd5b15611c1757565b60405162461bcd60e51b815260206004820152601b60248201527f466163746f7279313135353a2077726f6e67207369676e54696d6500000000006044820152606490fd5b602090611cde9460018060a01b0390611c9882611c91611c84865f52600560205260405f2090565b546001600160a01b031690565b1615611ac4565b611cbd611cb8611ca78761134e565b611cb088612047565b90848a611d79565b611b23565b600954956040519788948593849363096c872360e01b855260048501611ba7565b039186165afa908115610b7757611d0260209261016b955f91611d4c575b50611bc4565b0190611d15611d108361130f565b611458565b426001600160601b03918216109283611d31575b505050611c10565b611d3d9192935061130f565b9160a01c9116115f8080611d29565b611d6c9150843d8111611d72575b611d648183610773565b810190611b6f565b5f611cfc565b503d611d5a565b9192906040519060208201927f19457468657265756d205369676e6564204d6573736167653a0a3332000000008452603c830152603c8252606082018281106001600160401b0382111761073f576020945f94608094611de1936040525190209236916107fc565b8481015160606040830151920151604051938452851a868401526040830152606082015282805260015afa15610b77575f516001600160a01b0390811691161490565b9035601e198236030181121561015a5701602081359101916001600160401b03821161015a57813603831361015a57565b9035601e198236030181121561015a5701602081359101916001600160401b03821161015a578160051b3603831361015a57565b81835290916001600160fb1b03831161015a5760209260051b809284830137010190565b9035601e198236030181121561015a5701602081359101916001600160401b03821161015a578160061b3603831361015a57565b9190808252602080920192915f905b828210611efe575050505090565b909192936001908535611f1081610149565b828060a01b031681526001600160601b0383870135611f2e81610992565b16818401526040908101950193920190611ef0565b9035601e198236030181121561015a5701602081359101916001600160401b03821161015a5761014082023603831361015a57565b9190808252602080920192915f905b828210611f95575050505090565b909192936001908535815282860135838201526040808701359082015260608087013590820152611fdb6080611fcc8189016109a3565b6001600160601b031690830152565b611feb60a0611fcc8189016109a3565b61200a60c0611ffb818901611631565b6001600160401b031690830152565b61201a60e0611fcc8189016109a3565b61202b610100611fcc8189016109a3565b6101208681013590820152610140908101950193920190611f87565b60405161217a8161216c6120ca60208301956020875261207a6040850161206d8361016d565b6001600160a01b03169052565b612099612089602083016109a3565b6001600160601b03166060860152565b6040810135608085015261215c6120b36060830183611e24565b9390610120948560a0890152610160880191611b87565b916121536121126120f56120e16080850185611e24565b603f198b8903810160c08d01529791611b87565b61210260a0850185611e55565b90878b84030160e08c0152611e89565b9461213661212360c0850185611e55565b6101009891888c8403018a8d0152611e89565b9061214460e0850185611ead565b91878b850301908b0152611ee1565b93810190611f43565b9185840301610140860152611f78565b03601f198101835282610773565b51902090565b5f1981146114215760010190565b1561219557565b60405162461bcd60e51b815260206004820152603a60248201527f466163746f7279313135353a20746f20746f6b656e206861736820686173206e60448201527f6f74206d696e746564206f6e2063757272656e7420636861696e0000000000006064820152608490fd5b905f805b8281106122115750505050565b6001600160a01b03612239611c8461222a8487896112a1565b355f52600560205260405f2090565b1690811515918261225c575b506122526122579261218e565b612180565b612204565b915061229161226c8286886112a1565b35604051809463bd85b03960e01b825281806020958695600483019190602083019252565b03915afa8015610b7757612257936122529286926122b5575b505015159250612245565b6122cb9250803d10611abd57611aaf8183610773565b5f806122aa565b156122d957565b60405162461bcd60e51b815260206004820152603060248201527f466163746f7279313135353a20746f6b656e2073616c652074696d652068617360448201526f081b9bdd081cdd185c9d1959081e595d60821b6064820152608490fd5b61243a60c061238a61016b9461236561235d6119dd60e08801516001600160601b031690565b4210156122d2565b80516001600160a01b03165f90815260046020908152604090912061193e9190610ad0565b92805184556020810151600185015560408101516002850155606081015160038501556123e560046123c660808401516001600160601b031690565b95019485906001600160601b03166001600160601b0319825416179055565b61242c6123fc60a08301516001600160601b031690565b85546bffffffffffffffffffffffff60601b191660609190911b6bffffffffffffffffffffffff60601b16178555565b01516001600160401b031690565b81546001600160c01b031660c09190911b6001600160c01b031916179055565b6001600160a01b03909116815260606020820181905260409261247f918301906102ac565b90828183039101526007815266096c2e8d2c4cad60cb1b60208201520190565b9060c082016124c06124ba6124b4838661122c565b90611275565b35612698565b926001600160a01b0380851692853b156124db575b50505050565b6108e8916125716124b4612586936125616124f58861134e565b946125396125066124b4858c61122c565b60405160609890981b6001600160601b0319166020890152356034808901919091528752601f19966108c0605482610773565b907f0000000000000000000000000000000000000000000000000000000000000000166125ff565b5061256b8761134e565b9661122c565b35604051938491602083019190602083019252565b823b1561015a576125b0925f928360405180968195829463b2b45df560e01b84526004840161245a565b03925af18015610b77576125c7575b8080806124d5565b806125d46125da92610744565b80610259565b5f6125bf565b9190916124c060c08401916125f86124b4848761122c565b35906126d1565b6e5af43d82803e903d91602b57fd5bf390763d602d80600a3d3981f3363d3d373d3d3d363d7300000062ffffff8260881c16175f5260781b17602052603760095ff5906001600160a01b0382161561265357565b60405162461bcd60e51b815260206004820152601760248201527f455243313136373a2063726561746532206661696c65640000000000000000006044820152606490fd5b604051905f6020830152603482015260348152606081018181106001600160401b0382111761073f576102e2916108f49160405261120a565b60405160609190911b6001600160601b031916602082015260348101919091526102e2906108f4906108c0816054810161216c565b6040906001600160601b036102e295931681528160208201520191611b87565b909594909391926001600160a01b03169190612799612743610794565b6001600160a01b03851681526001600160601b0389166020820152612770875f52600560205260405f2090565b815160209092015160a01b6001600160a01b0319166001600160a01b0392909216919091179055565b6127a66060820182611426565b919095843b1561015a57886127d39360405180958192634312207160e11b83525f9b8c9560048501612706565b038183895af1928315610b77576127ef93612858575b50613398565b813b1561285457604051635944c75360e01b81526001600160601b0396871660048201526001600160a01b0391909116602482015291909416604482015291928290606490829084905af18015610b77576128475750565b806125d461016b92610744565b8380fd5b806125d461286592610744565b5f6127e9565b9190820180921161142157565b91936001600160a01b039283169290833b1561015a576128cd935f928360405180978195829463731133e960e01b845289169b8c600485015260248401528a60448401526080606484015260848301906102ac565b03925af1908115610b7757612907926128ff92612947575b506001600160a01b03165f90815260066020526040902090565b91825461286b565b905560408051828152600160208201525f9130917fc3d58168c5ae7397731d063d5bbf3d657854427343f4c083240f7aacaa2d0f6291819081015b0390a4565b806125d461295492610744565b5f6128e5565b8161296457505050565b7fe3efb4090b64f6dead06906e59a91359e0c1ca9cad88a633d749431442e5bebf9161299d604051928392602084526020840191611b87565b0390a2565b9081602091031261015a57516102e281610149565b60208082019080835283518092528060408094019401925f905b8382106129e057505050505090565b845180516001600160a01b031687528301516001600160601b03168684015294850194938201936001909101906129d1565b80511561127e5760200190565b805182101561127e5760209160051b010190565b805180612a3f57505090565b909150600103612a6657610fc0612a586102e292612a12565b51516001600160a01b031690565b6020612a9d5f92612a80610fc0855460018060a01b031690565b906040519485809481936326b8692f60e21b8352600483016129b7565b03925af1908115610b77575f91612abc575b506001600160a01b031690565b612add915060203d8111612ae3575b612ad58183610773565b8101906129a2565b5f612aaf565b503d612acb565b15612af157565b60405162461bcd60e51b815260206004820152601c60248201527f4665654d616e616765723a20696e73756666696369656e7420466565000000006044820152606490fd5b90605f820291808304605f149015171561142157565b8181029291811591840414171561142157565b8115612b69570490565b634e487b7160e01b5f52601260045260245ffd5b919081101561127e5760061b0190565b9190820391821161142157565b909392612ba982341015612aea565b612bbe612bb583612b36565b620186a0900490565b925f90815b838110612caf5750825f5b818110612c4157505050505f5b818110612c1657505061016b929350803411612bfc575b5060025401600255565b612c09612c0f9134612b8d565b33612e58565b505f612bf2565b6001600160a01b0386165f908152600360205260409020805485019055612c3c90612180565b612bdb565b61225282612c8786612c82612c7c6119dd6020612c7689612c6f612c6a828f9e612ca89f612b7d565b61134e565b988d612b7d565b0161130f565b8c612b4c565b612b5f565b6001600160a01b039091165f90815260036020526040902080549091019055565b8390612bce565b91612cd0612cd691612cca6119dd6020612c76888a89612b7d565b9061286b565b92612180565b612bc3565b15612ce257565b60405162461bcd60e51b8152602060048201526024808201527f4665654d616e616765723a204d6178696d756d20646973636f756e74206973206044820152633130302560e01b6064820152608490fd5b93919290612d4385341015612aea565b84612d67575b50505050803411612d575750565b612c09612d649134612b8d565b50565b6001600160601b031691612d7f612710841115612cdb565b5f9280612da8575b50505090612d98612d9e9284612b8d565b90612e58565b505f808080612d49565b612dc191929350612db99086612b4c565b612710900490565b915f805b838110612e3257505f5b838110612df7575050505090612d9882612def612d9e9460025401600255565b91925f612d87565b8061225284612c8785612c82612e276119dd6020612c76898e612e21612c6a612e2d9e838d612b7d565b99612b7d565b8b612b4c565b612dcf565b90612e4d612e5391612cca6119dd6020612c76878a8a612b7d565b91612180565b612dc5565b5f918291829182916001600160a01b03165af13d156102e2573d612e7b816107e1565b90612e896040519283610773565b81525f60203d92013e90565b6040519061014082018281106001600160401b0382111761073f57604052816101205f918281528260208201528260408201528260608201528260808201528260a08201528260c08201528260e0820152826101008201520152565b61010090612efd612e95565b5001805151908115612fd2575f5b828110612fad57505f5b828110612f795760405162461bcd60e51b815260206004820152602f60248201527f4665654d616e616765723a2050726963696e67206973206e6f7420736574206f60448201526e37103a3434b99031b430b4b724b21760891b6064820152608490fd5b610120612f87828451612a1f565b51015115612f9d57612f9890612180565b612f15565b90612fa9925051612a1f565b5190565b46610120612fbc838551612a1f565b51015114612f9d57612fcd90612180565b612f0b565b60405162461bcd60e51b815260206004820152601f60248201527f4665654d616e616765723a2050726963696e67206973206e6f74207365742e006044820152606490fd5b670de0b6b3a76400005f670f43fc2c04ee0000815b61303557505090565b8061303f91613107565b908160018216613055575b5060011c908161302c565b61305f9193613107565b915f61304a565b670de0b6b3a764000091905f90815b61307d575050565b8061308791613107565b906001811661309b575b60011c9081613075565b92816130a691613107565b92613091565b9091906001808416156130f957815b93811c91825b6130ca57505050565b806130d491613107565b91828282166130e8575b50811c91826130c1565b6130f29195613107565b935f6130de565b670de0b6b3a76400006130bb565b5f19828209828202908180821091039381850393670de0b6b3a764000091829109916706f05b59d3b1ffff831195146131765783101561015a577faccb18165bd6fe31ae1cf318dc5b51eee0e1ba569b88cd74c1773b91fac1066992828211900360ee1b910360121c17020190565b925050040190565b1561318557565b60405162461bcd60e51b815260206004820152602760248201527f466163746f7279313135353a20746f6b656e2073616c652074696d6520697320604482015266195e1c1a5c995960ca1b6064820152608490fd5b156131e157565b60405162461bcd60e51b8152602060048201526024808201527f466163746f7279313135353a204d6178696d756d20737570706c7920726561636044820152633432b21760e11b6064820152608490fd5b81810292915f8212600160ff1b82141661142157818405149015171561142157565b905f821280151661142157565b9190915f838201938412911290801582169115161761142157565b6132a7906001600160601b0361329a8160a08601511642111561317e565b60808401511610156131da565b670de0b6b3a76400006132c860208301516132c28451613066565b90613232565b0590600160408201511517156114215760606132e66132ef93613254565b91015190613261565b5f8112156102e257505f90565b91906133176001600160601b0360a08401511642111561317e565b820191828111611421576132e660609161334c6132ef956133456119dd60808801516001600160601b031690565b10156131da565b61337e61337361336560208701516132c28589516130ac565b670de0b6b3a7640000900590565b916040860151613232565b90613261565b81604051928392833781015f815203902090565b906133a28161134e565b6133b86133b26080840184611426565b90613384565b5f916001600160a01b0316847fc0d62261ee30fa727eab11180362380f5a2d6af2c9ec2b14537843182c7c58268480a460a082016133f6818461122c565b919050825b8281106134b6575050507fb237134d29775150b1edf87af1dc343262244af7cbb474cfc64cb6e8824af66361294260c08401613437818661122c565b95905085156134b05761344d6124b4838361122c565b35945b60018711156134a757600261346e613468858561122c565b90611283565b35975b111561349e575061348b916134859161122c565b90611292565b35945b6040519081529081906020820190565b9150509461348e565b60028197613471565b84613450565b806134ce6134f9926134c8858961122c565b906112a1565b35877f65327253f8d67c2e23cb4dfab28ca7437b04e9098cf4e985073d76df25209ad48780a3612180565b6133fb56fea26469706673582212206a352d9cf2b66daeb66dfc678d2799b7bd3bf800ef3369c925e8516374c0c4c764736f6c6343000815003360a0346200010057602081016001600160401b03811182821017620000ec576040525f8091526200003260025462000104565b601f8111620000ab575b50806002556200004e60045462000104565b601f811162000087575b5f600455336080526040516127909081620001588239608051818181610ec1015281816110b401526115920152f35b601f6020836004620000a3955220910160051c8101906200013f565b5f8062000058565b60028252620000e590601f0160051c7f405787fa12a823e0f2b7631cc41b3ba8828b3321ca811111fa75cd3aa3bb5ace908101906200013f565b5f6200003c565b634e487b7160e01b5f52604160045260245ffd5b5f80fd5b90600182811c9216801562000134575b60208310146200012057565b634e487b7160e01b5f52602260045260245ffd5b91607f169162000114565b8181106200014b575050565b5f81556001016200013f56fe60806040526004361015610011575f80fd5b5f3560e01c8062fdd58e14611e2d57806301ffc9a714611da557806306fdde0314611cfd5780630e89341c14611cca5780632a55205a14611c205780632eb2c2d6146118715780634e1273f4146116d45780634f558e79146116a85780635944c753146115565780636b20c45414611314578063731133e914611066578063862440e214610e6d5780638da5cb5b14610e4157806395d89b4114610d60578063a22cb46514610c80578063b2b45df5146107fe578063bd85b039146107d4578063e92331481461076a578063e985e9c514610718578063f242432a146103055763f5298aca146100ff575f80fd5b3461030157606036600319011261030157610118611e5c565b60249060448035916001600160a01b031690833533831480156102dc575b61013f9061211e565b82159261014c84156123eb565b610155826123c6565b9161015f866123c6565b945f60405161016d81611edb565b52610285575b5f5b83518110156102095761018881856120f6565b5161019382886120f6565b5190805f526003602081815260405f2054928484106101c857906101c395949392915f52520360405f20556120e8565b610175565b506084905f8051602061273b8339815191528a60288f6040519462461bcd60e51b8652600486015284015282015267616c537570706c7960c01b6064820152fd5b5f838389818452836020526040842083855260205280604085205461023082821015612443565b838652856020526040862085875260205203604085205560405191825260208201527fc3d58168c5ae7397731d063d5bbf3d657854427343f4c083240f7aacaa2d0f6260403392a4610283604051611edb565b005b94919592905f5b87518110156102d157806102a36102cc92886120f6565b516102ae828b6120f6565b515f5260036020526102c560405f2091825461223a565b90556120e8565b61028c565b509092959194610173565b50825f52600160205260405f20335f5260205261013f60ff60405f2054169050610136565b5f80fd5b346103015760a03660031901126103015761031e611e5c565b610326611e72565b6084356001600160401b03811161030157610345903690600401612017565b6001600160a01b039190838316331480156106f1575b6103649061211e565b828216156103728115612181565b61037d6044356123c6565b906103896064356123c6565b90858716156106b6575b610612575b6044355f525f60205260405f208587165f5260205260405f20546103c06064358210156121db565b6044355f90815260208181526040808320898b16845290915280822060643593849003905586881682529020805490916103f99161223a565b90556040516044358152606435602082015285851690868816907fc3d58168c5ae7397731d063d5bbf3d657854427343f4c083240f7aacaa2d0f6260403392a482516105a6575b5050813b61044a57005b602091610495915f6040519586809581948363f23a6e6160e01b9b8c85523360048601521660248401526044356044840152606435606484015260a0608484015260a4830190611f38565b0393165af15f9181610575575b5061050e576104af6122e9565b6308c379a0146104d7575b60405162461bcd60e51b8152806104d360048201612371565b0390fd5b6104df612304565b806104ea57506104ba565b60405162461bcd60e51b8152602060048201529081906104d3906024830190611f38565b6001600160e01b0319160361051f57005b60405162461bcd60e51b815260206004820152602860248201527f455243313135353a204552433131353552656365697665722072656a656374656044820152676420746f6b656e7360c01b6064820152608490fd5b61059891925060203d60201161059f575b6105908183611ef6565b8101906122c9565b90836104a2565b503d610586565b7f64b6d1b9c6726b4405acbd47f33ee45712403cd8422e6b9ccb562c0dec7965d4916106086105fa6105ec93604051948594338652608060208701526080860190612035565b908482036040860152612035565b828103606084015285611f38565b0390a18480610440565b94919390925f5b84518110156106ab5761062c81866120f6565b519061063881896120f6565b51825f52600360205260405f205481811061066857610663935f5260036020520360405f20556120e8565b610619565b60405162461bcd60e51b815260206004820152602860248201525f8051602061273b833981519152604482015267616c537570706c7960c01b6064820152608490fd5b509290939194610398565b9491939095925f5b85518110156106e557806106d56106e0928a6120f6565b516102ae82896120f6565b6106be565b50929590939194610393565b508284165f52600160205260405f20335f5260205261036460ff60405f205416905061035b565b3461030157604036600319011261030157610731611e5c565b610739611e72565b9060018060a01b038091165f52600160205260405f2091165f52602052602060ff60405f2054166040519015158152f35b3461030157602080600319360112610301576001600160601b036004358181168103610301575b81811690815f526003845260405f2054156107ca57508181146107b657600101610791565b634e487b7160e01b5f52601160045260245ffd5b6040519216825250f35b34610301576020366003190112610301576004355f526003602052602060405f2054604051908152f35b3461030157606036600319011261030157610817611e5c565b6001600160401b039060243582811161030157610838903690600401612017565b9160443581811161030157610851903690600401612017565b9060069081549260ff8460081c161595868097610c73575b8015610c5c575b15610c0057600194878660ff198316178655610bef575b508051838111610ae3578061089d600954611e88565b92601f93848111610b81575b50602090848311600114610b02575f92610af7575b50505f19600383901b1c191690861b176009555b8151928311610ae35782916108e8600a54611e88565b828111610a73575b5060209183116001146109f4575f926109e9575b50505f19600383901b1c191690831b17600a555b80549260ff8460081c16156109905762010000600160b01b0360109190911b1662010000600160b01b03198416811782559361095057005b610100600160b01b031990921690921790556040519081527f7f26b83ff96e1f2b6a682f133852f6798a09c465da95921460cefb384740249890602090a1005b60405162461bcd60e51b815260206004820152602b60248201527f496e697469616c697a61626c653a20636f6e7472616374206973206e6f74206960448201526a6e697469616c697a696e6760a81b6064820152608490fd5b015190508680610904565b90859350601f19831691600a5f527fc65a7bb8d6351c1cf70c95a316cc6a92839c986682d98bc35f958f4883f9d2a8925f5b818110610a5b57508411610a43575b505050811b01600a55610918565b01515f1960f88460031b161c19169055868080610a35565b82840151855588969094019360209384019301610a26565b90919250600a5f527fc65a7bb8d6351c1cf70c95a316cc6a92839c986682d98bc35f958f4883f9d2a88380860160051c82019260208710610ada575b91869589929594930160051c01915b828110610acc5750506108f0565b5f8155869550889101610abe565b92508192610aaf565b634e487b7160e01b5f52604160045260245ffd5b0151905089806108be565b90889350601f1983169160095f527f6e1540171b6c0c960b71a7020d9f60077f6af931a8bbf590da0223dacf75c7af925f5b818110610b6957508411610b51575b505050811b016009556108d2565b01515f1960f88460031b161c19169055898080610b43565b8284015185558b969094019360209384019301610b34565b90915060095f527f6e1540171b6c0c960b71a7020d9f60077f6af931a8bbf590da0223dacf75c7af8480850160051c82019260208610610be6575b918a91869594930160051c01915b828110610bd85750506108a9565b5f81558594508a9101610bca565b92508192610bbc565b61ffff191661010117845587610887565b60405162461bcd60e51b815260206004820152602e60248201527f496e697469616c697a61626c653a20636f6e747261637420697320616c72656160448201526d191e481a5b9a5d1a585b1a5e995960921b6064820152608490fd5b50303b1580156108705750600160ff861614610870565b50600160ff861610610869565b3461030157604036600319011261030157610c99611e5c565b60243590811515809203610301576001600160a01b031690338214610d0957335f52600160205260405f20825f5260205260405f2060ff1981541660ff83161790556040519081527f17307eab39ab6107e8899845ad3d59bd9653f200f220920489ca2b5937696c3160203392a3005b60405162461bcd60e51b815260206004820152602960248201527f455243313135353a2073657474696e6720617070726f76616c20737461747573604482015268103337b91039b2b63360b91b6064820152608490fd5b34610301575f36600319011261030157604051600a545f82610d8183611e88565b918282526020936001908582821691825f14610e21575050600114610dc6575b50610dae92500383611ef6565b610dc2604051928284938452830190611f38565b0390f35b849150600a5f527fc65a7bb8d6351c1cf70c95a316cc6a92839c986682d98bc35f958f4883f9d2a8905f915b858310610e09575050610dae935082010185610da1565b80548389018501528794508693909201918101610df2565b60ff191685820152610dae95151560051b8501019250879150610da19050565b34610301575f3660031901126103015760065460405160109190911c6001600160a01b03168152602090f35b34610301576040366003190112610301576001600160401b0360043560243582811161030157366023820112156103015780600401359083821161030157366024838301011161030157610ef991610eef337f00000000000000000000000000000000000000000000000000000000000000006001600160a01b03161461249b565b6024369201611fd2565b91815f526020906005825260405f20908451908111610ae357610f1c8254611e88565b601f8111611023575b5082601f8211600114610fa05781907f6bb7ff708619ba0610cba295a58592e0451dee2622938c8755667688daf3529b95965f92610f95575b50508160011b915f199060031b1c19161790555b610f7b836124fd565b90610f90604051928284938452830190611f38565b0390a2005b015190508680610f5e565b601f19821695835f52845f20965f5b81811061100c5750917f6bb7ff708619ba0610cba295a58592e0451dee2622938c8755667688daf3529b969791846001959410610ff4575b505050811b019055610f72565b01515f1960f88460031b161c19169055868080610fe7565b838301518955600190980197928601928601610faf565b825f52835f20601f830160051c81019185841061105c575b601f0160051c01905b8181106110515750610f25565b5f8155600101611044565b909150819061103b565b346103015760803660031901126103015761107f611e5c565b604435906024356064356001600160401b038111610301576110a5903690600401612017565b906001600160a01b036110db337f000000000000000000000000000000000000000000000000000000000000000083161461249b565b831680156112c5576110ec826123c6565b946110f6816123c6565b935f5b875181101561111557806102a361111092886120f6565b6110f9565b50858795855f526020965f885260405f20865f52885260405f2061113a86825461223a565b9055855f604051898152878b8201527fc3d58168c5ae7397731d063d5bbf3d657854427343f4c083240f7aacaa2d0f6260403392a4878451611268575b5050503b61118157005b6111c49285925f60405180968195829463f23a6e6160e01b9a8b85523360048601528560248601526044850152606484015260a0608484015260a4830190611f38565b03925af15f9181611249575b5061123657826111de6122e9565b6308c379a0146112015760405162461bcd60e51b8152806104d360048201612371565b611209612304565b908161121557506104ba565b6104d360405192839262461bcd60e51b845260048401526024830190611f38565b6001600160e01b03191603905061051f57005b611261919250843d861161059f576105908183611ef6565b90846111d0565b6112ba6112ac7f64b6d1b9c6726b4405acbd47f33ee45712403cd8422e6b9ccb562c0dec7965d4946105ec6080956040519687963388528701526080860190612035565b828103606084015286611f38565b0390a1868087611177565b60405162461bcd60e51b815260206004820152602160248201527f455243313135353a206d696e7420746f20746865207a65726f206164647265736044820152607360f81b6064820152608490fd5b346103015760603660031901126103015761132d611e5c565b6024906001600160401b0390823582811161030157611350903690600401611f74565b9160449081359081116103015761136b903690600401611f74565b6001600160a01b03909216923384148015611531575b61138a9061211e565b831561139681156123eb565b6113a38251855114612247565b5f6040516113b081611edb565b526114fa575b5f5b815181101561144c576113cb81836120f6565b516113d682866120f6565b5190805f526003602081815260405f20549284841061140b579061140695949392915f52520360405f20556120e8565b6113b8565b60405162461bcd60e51b8152600481018390526028818d01525f8051602061273b833981519152818a015267616c537570706c7960c01b6064820152608490fd5b8382865f5b82518110156114b657806114686114b192856120f6565b5161147382876120f6565b5190805f5260205f815260405f20865f52815260405f20549161149884841015612443565b5f525f815260405f2090865f52520360405f20556120e8565b611451565b50907f4a39dc06d4c0dbc64b70af90fd698a233a518aa5d07e595d983b8c0526c8f7fb6114ec5f946040519182913395836122a4565b0390a4610283604051611edb565b925f9491945b8451811015611527578061151761152292866120f6565b516102ae82886120f6565b611500565b50929390936113b6565b50835f52600160205260405f20335f5260205261138a60ff60405f2054169050611381565b346103015760603660031901126103015761156f611e72565b6044356001600160601b038116809103610301576001600160a01b03916115b9337f000000000000000000000000000000000000000000000000000000000000000085161461249b565b612710821161165057821691821561160b57604051926115d884611ec0565b8352602083019182526004355f52600860205260405f20925116906001600160601b0360a01b905160a01b161790555f80f35b60405162461bcd60e51b815260206004820152601b60248201527f455243323938313a20496e76616c696420706172616d657465727300000000006044820152606490fd5b60405162461bcd60e51b815260206004820152602a60248201527f455243323938313a20726f79616c7479206665652077696c6c206578636565646044820152692073616c65507269636560b01b6064820152608490fd5b34610301576020366003190112610301576004355f526003602052602060405f20541515604051908152f35b34610301576040366003190112610301576004356001600160401b0380821161030157366023830112156103015781600401359061171182611f5d565b9261171f6040519485611ef6565b82845260209260248486019160051b8301019136831161030157602401905b8282106118525750505060243590811161030157611760903690600401611f74565b82518151036117fb5782519261177584611f5d565b936117836040519586611ef6565b808552611792601f1991611f5d565b0136848601375f5b81518110156117e4576117df906117cf6001600160a01b036117bc83866120f6565b51166117c883876120f6565b5190612068565b6117d982886120f6565b526120e8565b61179a565b505050610dc2604051928284938452830190612035565b60405162461bcd60e51b815260048101839052602960248201527f455243313135353a206163636f756e747320616e6420696473206c656e677468604482015268040dad2e6dac2e8c6d60bb1b6064820152608490fd5b81356001600160a01b038116810361030157815290840190840161173e565b346103015760031960a0368201126103015761188b611e5c565b90611894611e72565b6044908135926001600160401b0393848111610301576118b8903690600401611f74565b60648035868111610301576118d1903690600401611f74565b946084968735908111610301576118ec903690600401612017565b6001600160a01b039489861633148015611bf9575b61190a9061211e565b6119178551895114612247565b858716156119258115612181565b868b1615611bb7575b611b08575b5f5b85518110156119bc578061194c6119b792886120f6565b518c611958838d6120f6565b5191805f52826020925f845260405f208d82165f52845260405f205490611981838310156121db565b835f525f85528d60405f2091165f5284520360405f20555f525f815260405f20908a8c165f52526102c560405f2091825461223a565b611935565b50888a989796949789604051887f4a39dc06d4c0dbc64b70af90fd698a233a518aa5d07e595d983b8c0526c8f7fb89808d16941692806119fe873395836122a4565b0390a48351611aa2575b873b611a1057005b60405198899788968863bc197c8160e01b9d8e8a523360048b0152166024890152870160a0905260a48701611a4491612035565b90848783030190870152611a5791612035565b918483030190840152611a6991611f38565b03921691815a6020945f91f15f9181611a89575061050e576104af6122e9565b61059891925060203d811161059f576105908183611ef6565b7f64b6d1b9c6726b4405acbd47f33ee45712403cd8422e6b9ccb562c0dec7965d46040513381526080602082015280611b00611af2611ae4608084018d612035565b838103604085015286612035565b828103606084015288611f38565b0390a1611a08565b979694905f9993999692965b8551811015611ba757611b2781876120f6565b51611b3282896120f6565b5190805f5260206003815260405f205491838310611b6757611b62949392916003915f52520360405f20556120e8565b611b14565b508b9067616c537570706c7960c01b8f5f8051602061273b8339815191528e6040519462461bcd60e51b8652600486015260286024860152840152820152fd5b5090949697989298959195611933565b9996949895939291905f5b8a51811015611bea57808b6102ae82611bde611be5958f6120f6565b51926120f6565b611bc2565b5090919293959894969961192e565b50858a165f52600160205260405f20335f5260205261190a60ff60405f2054169050611901565b34610301576040366003190112610301576024356004355f52600860205260405f209060405191611c5083611ec0565b546001600160a01b0380821680855260a09290921c6020850152929015611ca8575b6001600160601b03602082015116918281029281840414901517156107b657604092612710915116918351928352046020820152f35b50604051611cb581611ec0565b600754838116825260a01c6020820152611c72565b3461030157602036600319011261030157610dc2611ce96004356124fd565b604051918291602083526020830190611f38565b34610301575f366003190112610301576040516009545f82611d1e83611e88565b918282526020936001908582821691825f14610e21575050600114611d4a5750610dae92500383611ef6565b84915060095f527f6e1540171b6c0c960b71a7020d9f60077f6af931a8bbf590da0223dacf75c7af905f915b858310611d8d575050610dae935082010185610da1565b80548389018501528794508693909201918101611d76565b346103015760203660031901126103015760043563ffffffff60e01b81168091036103015760209063152a902d60e11b8114908115611dea575b506040519015158152f35b636cdb3d1360e11b811491508115611e1c575b8115611e0b575b5082611ddf565b6301ffc9a760e01b14905082611e04565b6303a24d0760e21b81149150611dfd565b34610301576040366003190112610301576020611e54611e4b611e5c565b60243590612068565b604051908152f35b600435906001600160a01b038216820361030157565b602435906001600160a01b038216820361030157565b90600182811c92168015611eb6575b6020831014611ea257565b634e487b7160e01b5f52602260045260245ffd5b91607f1691611e97565b604081019081106001600160401b03821117610ae357604052565b602081019081106001600160401b03821117610ae357604052565b90601f801991011681019081106001600160401b03821117610ae357604052565b5f5b838110611f285750505f910152565b8181015183820152602001611f19565b90602091611f5181518092818552858086019101611f17565b601f01601f1916010190565b6001600160401b038111610ae35760051b60200190565b9080601f83011215610301576020908235611f8e81611f5d565b93611f9c6040519586611ef6565b818552838086019260051b820101928311610301578301905b828210611fc3575050505090565b81358152908301908301611fb5565b9291926001600160401b038211610ae35760405191611ffb601f8201601f191660200184611ef6565b829481845281830111610301578281602093845f960137010152565b9080601f830112156103015781602061203293359101611fd2565b90565b9081518082526020808093019301915f5b828110612054575050505090565b835185529381019392810192600101612046565b6001600160a01b0316908115612090575f525f60205260405f20905f5260205260405f205490565b60405162461bcd60e51b815260206004820152602a60248201527f455243313135353a2061646472657373207a65726f206973206e6f742061207660448201526930b634b21037bbb732b960b11b6064820152608490fd5b5f1981146107b65760010190565b805182101561210a5760209160051b010190565b634e487b7160e01b5f52603260045260245ffd5b1561212557565b60405162461bcd60e51b815260206004820152602e60248201527f455243313135353a2063616c6c6572206973206e6f7420746f6b656e206f776e60448201526d195c881bdc88185c1c1c9bdd995960921b6064820152608490fd5b1561218857565b60405162461bcd60e51b815260206004820152602560248201527f455243313135353a207472616e7366657220746f20746865207a65726f206164604482015264647265737360d81b6064820152608490fd5b156121e257565b60405162461bcd60e51b815260206004820152602a60248201527f455243313135353a20696e73756666696369656e742062616c616e636520666f60448201526939103a3930b739b332b960b11b6064820152608490fd5b919082018092116107b657565b1561224e57565b60405162461bcd60e51b815260206004820152602860248201527f455243313135353a2069647320616e6420616d6f756e7473206c656e677468206044820152670dad2e6dac2e8c6d60c31b6064820152608490fd5b90916122bb61203293604084526040840190612035565b916020818403910152612035565b9081602091031261030157516001600160e01b0319811681036103015790565b5f9060033d116122f557565b905060045f803e5f5160e01c90565b5f60443d1061203257604051600319913d83016004833e81516001600160401b03918282113d60248401111761236057818401948551938411612368573d85010160208487010111612360575061203292910160200190611ef6565b949350505050565b50949350505050565b60809060208152603460208201527f455243313135353a207472616e7366657220746f206e6f6e2d455243313135356040820152732932b1b2b4bb32b91034b6b83632b6b2b73a32b960611b60608201520190565b604051906123d382611ec0565b6001825260208201602036823782511561210a575290565b156123f257565b60405162461bcd60e51b815260206004820152602360248201527f455243313135353a206275726e2066726f6d20746865207a65726f206164647260448201526265737360e81b6064820152608490fd5b1561244a57565b60405162461bcd60e51b8152602060048201526024808201527f455243313135353a206275726e20616d6f756e7420657863656564732062616c604482015263616e636560e01b6064820152608490fd5b156124a257565b60405162461bcd60e51b815260206004820152602d60248201527f4b617469626568313135353a207265737472696374656420616363657373207460448201526c6f2074686520466163746f727960981b6064820152608490fd5b5f9081526020906005825260408120906040519080918354928161252085611e88565b91828252878201966001968988821691825f1461271c5750506001146126de575b5061254e92500382611ef6565b80511561262357604051948593836004549161256983611e88565b9281811690811561260257506001146125a2575b5050505061259361203294839251938491611f17565b0103601f198101835282611ef6565b909192969450600482527f8a35acfbc15ff81a39ae7d344fd709f28e8600b4aa8c65c6b64bfe7fe36bd19b5b8383106125ec57505050612032946125939185010192945f8061257d565b80548984018901528896509187019181016125ce565b60ff1916888601525050508015150284010191506125936120325f8061257d565b506040516002549094935084928261263a83611e88565b808652928281169081156126bc5750600114612660575b50505061203292500382611ef6565b600281527f405787fa12a823e0f2b7631cc41b3ba8828b3321ca811111fa75cd3aa3bb5ace95935091905b8183106126a457505061203293508201015f8080612651565b8554878401850152948501948694509183019161268b565b9250505061203294925060ff191682840152151560051b8201015f8080612651565b915050835281868085208686915b85831061270357505061254e93508201015f612541565b80919294505483858801015201910187908685936126ec565b60ff19168a5261254e95151560051b85010192505f9150612541905056fe455243313135353a206275726e20616d6f756e74206578636565647320746f74a2646970667358221220da02185057b8410365f74bc9d089ce7bd127adfbd2abae108ef9d2dd2c158ba964736f6c6343000815003360a03461006a57601f6112f838819003918201601f19168301916001600160401b0383118484101761006e5780849260209460405283398101031261006a57516001600160a01b038116810361006a5760805260405161127590816100838239608051816103430152f35b5f80fd5b634e487b7160e01b5f52604160045260245ffdfe60406080815260049081361015610028575b5050361561001d575f80fd5b61002634610af5565b005b5f91823560e01c9081630d2ddb47146107ca578163152dcd47146104be57816320dc8ff714610443578163280976aa146103fe5781632a31f6b4146103725781632dd310001461032e5781639791e504146103025781639ae1a4bc1461017657508063d1aa25d014610159578063d73fe0aa146100ca5763f5dcdf960361001157346100c657816003193601126100c6576020906001549051908152f35b5080fd5b509034610156578060031936011261015657600180546100e98161084f565b926100f68551948561082d565b81845282815260207fb10e2d527612073b26eecdfd717e6a320cf44b4afac2b0732d9fcbe2b7fa0cf68186015b84841061013b57875180610137898261094e565b0390f35b8583819261014885610ab2565b815201920193019290610123565b80fd5b823461015657806003193601126101565761017347610af5565b80f35b8383346100c65761018636610867565b91815160208101906101aa8161019c878561094e565b03601f19810183528261082d565b519020926101b93085306109a9565b6001600160a01b0380821695913b156101d7575b6020868651908152f35b845191867fde03f54489aeeaa8f8e262296d61a01b0a41b770fae1d2b27d960a7e593de3858680a2763d602d80600a3d3981f3363d3d373d3d3d363d7300000062ffffff3060881c161785526e5af43d82803e903d91602b57fd5bf33060781b176020526037600986f516156102c15750833b156100c657908061026d9284518094819263152dcd4760e01b835289830161094e565b038183885af180156102b557610285575b80806101cd565b67ffffffffffffffff82116102a25750602093508152838061027e565b634e487b7160e01b815260418552602490fd5b508251903d90823e3d90fd5b62461bcd60e51b8152602086820152601760248201527f455243313136373a2063726561746532206661696c65640000000000000000006044820152606490fd5b828434610156576020366003190112610156575061032260209235610a4b565b505460a01c9051908152f35b5050346100c657816003193601126100c657517f00000000000000000000000000000000000000000000000000000000000000006001600160a01b03168152602090f35b919050346103fa57806003193601126103fa5781356001600160a01b03811681036103f657836024359367ffffffffffffffff85116100c657366023860112156100c657840135936103cf6103c686610932565b9451948561082d565b84845236602486830101116100c65784610173956024602093018387013784010152610f96565b8380fd5b8280fd5b5050346100c65760209061043261041436610867565b82516104278161019c878201948561094e565b5190203090306109a9565b90516001600160a01b039091168152f35b919050346103fa5760203660031901126103fa5781356001600160a01b03811681036103f65761047290610d0e565b1561047b578280f35b906020606492519162461bcd60e51b8352820152601960248201527f53706c69743a2045524332302073706c6974206661696c6564000000000000006044820152fd5b919050346103fa576104cf36610867565b9083549060ff8260081c1615938480956107bd575b80156107a6575b1561074d57600192858460ff19831617885561073c575b5060028451106106fa5760058451116106b857859384845b61059d575b5050506dffffffffffffffffffffffff000085549360101b1693846dffffffffffffffffffffffff0000198516178655610557578480f35b7f7f26b83ff96e1f2b6a682f133852f6798a09c465da95921460cefb3847402498936020936dffffffffffffffffffffffffff00191617855551908152a15f8080808480f35b81518110156106b3576001600160601b036020968180896105be8688610a23565b510151169116018181116106a057966105d78385610a23565b5187546801000000000000000081101561068d5780896105f992018a55610a4b565b61067b5781519183015160a01b6001600160a01b0319166001600160a01b0392831617905587949361067493909290917fc281d6888cbc84796930b1de95feddce9453909431fad6b22cf6c80423e34e9991906106568588610a23565b51511692816106658689610a23565b510151168951908152a2610a01565b909161051a565b634e487b7160e01b8c528b875260248cfd5b634e487b7160e01b8c526041875260248cfd5b634e487b7160e01b8a526011855260248afd5b61051f565b6020606492519162461bcd60e51b8352820152601a60248201527f53706c69743a20546f6f206d616e7920726563697069656e74730000000000006044820152fd5b6020606492519162461bcd60e51b8352820152601960248201527f53706c69743a20546f6f2066657720726563697069656e7473000000000000006044820152fd5b61ffff19166101011786555f610502565b6020608492519162461bcd60e51b8352820152602e60248201527f496e697469616c697a61626c653a20636f6e747261637420697320616c72656160448201526d191e481a5b9a5d1a585b1a5e995960921b6064820152fd5b50303b1580156104eb5750600160ff8416146104eb565b50600160ff8416106104e4565b82843461015657602036600319011261015657506107ea60209235610a4b565b505490516001600160a01b039091168152f35b6040810190811067ffffffffffffffff82111761081957604052565b634e487b7160e01b5f52604160045260245ffd5b90601f8019910116810190811067ffffffffffffffff82111761081957604052565b67ffffffffffffffff81116108195760051b60200190565b6020908160031982011261092e5760043567ffffffffffffffff811161092e578160238201121561092e578060040135926108a18461084f565b936040936108b18551968761082d565b81865260248387019260061b8501019381851161092e57602401915b8483106108dd5750505050505090565b858383031261092e578551906108f2826107fd565b83356001600160a01b038116810361092e57825284840135906001600160601b038216820361092e57828692838a9501528152019201916108cd565b5f80fd5b67ffffffffffffffff811161081957601f01601f191660200190565b60208082019080835283518092528060408094019401925f905b83821061097757505050505090565b845180516001600160a01b031687528301516001600160601b0316868401529485019493820193600190910190610968565b916043916055936040519260388401526f5af43d82803e903d91602b57fd5bf3ff60248401526014830152733d602d80600a3d3981f3363d3d373d3d3d363d73825260588201526037600c8201206078820152012090565b5f198114610a0f5760010190565b634e487b7160e01b5f52601160045260245ffd5b8051821015610a375760209160051b010190565b634e487b7160e01b5f52603260045260245ffd5b600154811015610a375760015f527fb10e2d527612073b26eecdfd717e6a320cf44b4afac2b0732d9fcbe2b7fa0cf601905f90565b60015415610a375760015f527fb10e2d527612073b26eecdfd717e6a320cf44b4afac2b0732d9fcbe2b7fa0cf6905f90565b90604051610abf816107fd565b91546001600160a01b038116835260a01c6020830152565b8115610ae1570490565b634e487b7160e01b5f52601260045260245ffd5b80610afd5750565b5f90815f19908160015401805b610b6a57505050037f1445764fe3fdfc2a9812ff42e9b65c2e7896d5162851f78f7d4a5578f7346ff16020610b3d610a80565b50546001600160a01b0390610b559085908316610c1c565b610b5d610a80565b50541692604051908152a2565b80610b7e610b788593610a4b565b50610ab2565b957f1445764fe3fdfc2a9812ff42e9b65c2e7896d5162851f78f7d4a5578f7346ff16001600160601b03610bc360209180838c0151168a0290885460101c1690610ad7565b8093019860018060a01b0390610bdc8583835116610c1c565b511692604051908152a20180610b0a565b3d15610c17573d90610bfe82610932565b91610c0c604051938461082d565b82523d5f602084013e565b606090565b814710610cb1575f918291829182916001600160a01b03165af1610c3e610bed565b5015610c4657565b60405162461bcd60e51b815260206004820152603a60248201527f416464726573733a20756e61626c6520746f2073656e642076616c75652c207260448201527f6563697069656e74206d617920686176652072657665727465640000000000006064820152608490fd5b60405162461bcd60e51b815260206004820152601d60248201527f416464726573733a20696e73756666696369656e742062616c616e63650000006044820152606490fd5b9081602091031261092e5751801515810361092e5790565b604080516370a0823160e01b81523060048083019190915290926001600160a01b03908116916020908186602481875afa5f9681610f37575b50610d56575050505050505f90565b8515610f2d575f8019968760015401805b610e2d57508394959697500391829185610d7f610a80565b5054895163a9059cbb60e01b815291166001600160a01b031691810191825260208201939093528290819060400103815f895af19081610e00575b50610dc85750505050505f90565b7fe8de91d538b06154a2c48315768c5046f47e127d7fd3f726fd85cc723f29b05292610df2610a80565b5054169451908152a3600190565b610e1f90843d8611610e26575b610e17818361082d565b810190610cf6565b505f610dba565b503d610e0d565b610e39610b7882610a4b565b906001600160601b0393610e5285888501511685610f66565b9015610f1d578787928b8d5f610e73610eab968f9c835460101c1690610ad7565b96878095019b8a511692519687958694859363a9059cbb60e01b8552840160209093929193604081019460018060a01b031681520152565b03925af19081610f00575b50610eca5750505050505050505050505f90565b887fe8de91d538b06154a2c48315768c5046f47e127d7fd3f726fd85cc723f29b052888a8e965116938d51908152a30180610d67565b610f1690893d8b11610e2657610e17818361082d565b505f610eb6565b5050505050505050505050505f90565b5050505050505f90565b90968382813d8311610f5f575b610f4e818361082d565b81010312610156575051955f610d47565b503d610f44565b91908215610f8d57610f7b8184029384610ad7565b03610f865760019190565b5f91508190565b50600191505f90565b5f91825b60015481101561109257610fad81610a4b565b50546001600160a01b039081163314610fcf5750610fca90610a01565b610f9a565b9050610fdd829394926111c4565b61104357611040931690610ff082610d0e565b508060405193610fff856107fd565b601e855260207f416464726573733a206c6f772d6c6576656c2063616c6c206661696c65640000818701528151910182855af161103a610bed565b916110f2565b50565b60405162461bcd60e51b815260206004820152602160248201527f53706c69743a20455243323020746f6b656e73206d7573742062652073706c696044820152601d60fa1b6064820152608490fd5b60405162461bcd60e51b815260206004820152603260248201527f53706c69743a2043616e206f6e6c792062652063616c6c6564206279206f6e65604482015271206f662074686520726563697069656e747360701b6064820152608490fd5b919290156111545750815115611106575090565b3b1561110f5790565b60405162461bcd60e51b815260206004820152601d60248201527f416464726573733a2063616c6c20746f206e6f6e2d636f6e74726163740000006044820152606490fd5b8251909150156111675750805190602001fd5b6040519062461bcd60e51b82528160208060048301528251908160248401525f935b8285106111ab575050604492505f838284010152601f80199101168101030190fd5b8481018201518686016044015293810193859350611189565b60049081815110611239575f5b8281106111e057505050600190565b815181101561122657818101602001516001600160f81b031990811663095ea7b360e01b831a60f81b9091160361121f5761121a90610a01565b6111d1565b5050505f90565b603283634e487b7160e01b5f525260245ffd5b50505f9056fea26469706673582212201a901523212e1fb1fec573f81c4fb96e605390ace1c1c7f2a4020c959062637e64736f6c63430008150033",
  "linkReferences": {},
  "deployedLinkReferences": {}
}