{
  "_format": "hh-sol-artifact-1",
  "contractName": "Factory1155",
  "sourceName": "contracts/katibeh1155/Factory1155.sol",
  "abi": [
    {
      "anonymous": false,
      "inputs": [
        {
          "indexed": true,
          "internalType": "uint256",
          "name": "tokenId",
          "type": "uint256"
        },
        {
          "indexed": true,
          "internalType": "uint256",
          "name": "toTokenId",
          "type": "uint256"
        }
      ],
      "name": "NewReply",
      "type": "event"
    },
    {
      "anonymous": false,
      "inputs": [
        {
          "indexed": true,
          "internalType": "uint256",
          "name": "tokenId",
          "type": "uint256"
        },
        {
          "indexed": true,
          "internalType": "address",
          "name": "creator",
          "type": "address"
        },
        {
          "indexed": true,
          "internalType": "bytes",
          "name": "data",
          "type": "bytes"
        },
        {
          "indexed": false,
          "internalType": "uint256",
          "name": "mintTime",
          "type": "uint256"
        },
        {
          "indexed": false,
          "internalType": "uint256",
          "name": "initTime",
          "type": "uint256"
        },
        {
          "indexed": false,
          "internalType": "uint256",
          "name": "expTime",
          "type": "uint256"
        }
      ],
      "name": "NewToken",
      "type": "event"
    },
    {
      "anonymous": false,
      "inputs": [
        {
          "indexed": false,
          "internalType": "uint256",
          "name": "tokenId",
          "type": "uint256"
        },
        {
          "indexed": true,
          "internalType": "bytes32",
          "name": "tag1",
          "type": "bytes32"
        },
        {
          "indexed": true,
          "internalType": "bytes32",
          "name": "tag2",
          "type": "bytes32"
        },
        {
          "indexed": true,
          "internalType": "bytes32",
          "name": "tag3",
          "type": "bytes32"
        }
      ],
      "name": "Tags",
      "type": "event"
    },
    {
      "anonymous": false,
      "inputs": [
        {
          "indexed": true,
          "internalType": "uint256",
          "name": "tokenId",
          "type": "uint256"
        },
        {
          "indexed": false,
          "internalType": "bytes",
          "name": "data",
          "type": "bytes"
        }
      ],
      "name": "TokenData",
      "type": "event"
    },
    {
      "inputs": [
        {
          "internalType": "uint256",
          "name": "",
          "type": "uint256"
        }
      ],
      "name": "_tokenCollection",
      "outputs": [
        {
          "internalType": "address",
          "name": "",
          "type": "address"
        }
      ],
      "stateMutability": "view",
      "type": "function"
    },
    {
      "inputs": [
        {
          "internalType": "address",
          "name": "",
          "type": "address"
        }
      ],
      "name": "_userCollection",
      "outputs": [
        {
          "internalType": "address",
          "name": "",
          "type": "address"
        }
      ],
      "stateMutability": "view",
      "type": "function"
    },
    {
      "inputs": [
        {
          "internalType": "uint256",
          "name": "tokenId",
          "type": "uint256"
        },
        {
          "components": [
            {
              "internalType": "address",
              "name": "creator",
              "type": "address"
            },
            {
              "internalType": "uint256",
              "name": "mintTime",
              "type": "uint256"
            },
            {
              "internalType": "uint256",
              "name": "initTime",
              "type": "uint256"
            },
            {
              "internalType": "uint256",
              "name": "expTime",
              "type": "uint256"
            },
            {
              "internalType": "string",
              "name": "tokenURI",
              "type": "string"
            },
            {
              "internalType": "bytes",
              "name": "data",
              "type": "bytes"
            },
            {
              "internalType": "uint256[]",
              "name": "toTokenId",
              "type": "uint256[]"
            },
            {
              "internalType": "bytes32[]",
              "name": "tags",
              "type": "bytes32[]"
            },
            {
              "components": [
                {
                  "internalType": "address",
                  "name": "addr",
                  "type": "address"
                },
                {
                  "internalType": "uint16",
                  "name": "share",
                  "type": "uint16"
                }
              ],
              "internalType": "struct DataStorage.Payee[]",
              "name": "owners",
              "type": "tuple[]"
            }
          ],
          "internalType": "struct DataStorage.Katibeh",
          "name": "katibeh",
          "type": "tuple"
        },
        {
          "internalType": "bytes",
          "name": "sig",
          "type": "bytes"
        },
        {
          "internalType": "bytes",
          "name": "data",
          "type": "bytes"
        }
      ],
      "name": "collect1",
      "outputs": [],
      "stateMutability": "nonpayable",
      "type": "function"
    },
    {
      "inputs": [
        {
          "internalType": "uint256",
          "name": "tokenId",
          "type": "uint256"
        },
        {
          "internalType": "bytes",
          "name": "data",
          "type": "bytes"
        },
        {
          "components": [
            {
              "internalType": "address",
              "name": "addr",
              "type": "address"
            },
            {
              "internalType": "uint16",
              "name": "share",
              "type": "uint16"
            }
          ],
          "internalType": "struct DataStorage.Payee[]",
          "name": "dapps",
          "type": "tuple[]"
        }
      ],
      "name": "collect2",
      "outputs": [],
      "stateMutability": "payable",
      "type": "function"
    },
    {
      "inputs": [
        {
          "internalType": "uint256",
          "name": "tokenId",
          "type": "uint256"
        }
      ],
      "name": "fee",
      "outputs": [
        {
          "internalType": "uint256",
          "name": "",
          "type": "uint256"
        }
      ],
      "stateMutability": "view",
      "type": "function"
    },
    {
      "inputs": [
        {
          "components": [
            {
              "internalType": "address",
              "name": "creator",
              "type": "address"
            },
            {
              "internalType": "uint256",
              "name": "mintTime",
              "type": "uint256"
            },
            {
              "internalType": "uint256",
              "name": "initTime",
              "type": "uint256"
            },
            {
              "internalType": "uint256",
              "name": "expTime",
              "type": "uint256"
            },
            {
              "internalType": "string",
              "name": "tokenURI",
              "type": "string"
            },
            {
              "internalType": "bytes",
              "name": "data",
              "type": "bytes"
            },
            {
              "internalType": "uint256[]",
              "name": "toTokenId",
              "type": "uint256[]"
            },
            {
              "internalType": "bytes32[]",
              "name": "tags",
              "type": "bytes32[]"
            },
            {
              "components": [
                {
                  "internalType": "address",
                  "name": "addr",
                  "type": "address"
                },
                {
                  "internalType": "uint16",
                  "name": "share",
                  "type": "uint16"
                }
              ],
              "internalType": "struct DataStorage.Payee[]",
              "name": "owners",
              "type": "tuple[]"
            }
          ],
          "internalType": "struct DataStorage.Katibeh",
          "name": "katibeh",
          "type": "tuple"
        }
      ],
      "name": "getHash",
      "outputs": [
        {
          "internalType": "bytes32",
          "name": "",
          "type": "bytes32"
        }
      ],
      "stateMutability": "pure",
      "type": "function"
    },
    {
      "inputs": [
        {
          "internalType": "bytes32",
          "name": "uriHash",
          "type": "bytes32"
        }
      ],
      "name": "getUriId",
      "outputs": [
        {
          "internalType": "uint256",
          "name": "",
          "type": "uint256"
        }
      ],
      "stateMutability": "view",
      "type": "function"
    },
    {
      "inputs": [],
      "name": "implementation",
      "outputs": [
        {
          "internalType": "contract Katibeh1155",
          "name": "",
          "type": "address"
        }
      ],
      "stateMutability": "view",
      "type": "function"
    },
    {
      "inputs": [
        {
          "internalType": "address",
          "name": "creatorAddr",
          "type": "address"
        }
      ],
      "name": "predictCollectionAddr",
      "outputs": [
        {
          "internalType": "address",
          "name": "",
          "type": "address"
        }
      ],
      "stateMutability": "view",
      "type": "function"
    },
    {
      "inputs": [
        {
          "internalType": "address payable",
          "name": "newAddr",
          "type": "address"
        }
      ],
      "name": "setReceiver1",
      "outputs": [],
      "stateMutability": "nonpayable",
      "type": "function"
    },
    {
      "inputs": [
        {
          "internalType": "uint256",
          "name": "tokenId",
          "type": "uint256"
        }
      ],
      "name": "tokenInfo",
      "outputs": [
        {
          "components": [
            {
              "internalType": "address",
              "name": "creator",
              "type": "address"
            },
            {
              "internalType": "uint256",
              "name": "mintTime",
              "type": "uint256"
            },
            {
              "internalType": "uint256",
              "name": "initTime",
              "type": "uint256"
            },
            {
              "internalType": "uint256",
              "name": "expTime",
              "type": "uint256"
            },
            {
              "internalType": "string",
              "name": "tokenURI",
              "type": "string"
            },
            {
              "internalType": "bytes",
              "name": "data",
              "type": "bytes"
            },
            {
              "internalType": "uint256[]",
              "name": "toTokenId",
              "type": "uint256[]"
            },
            {
              "internalType": "bytes32[]",
              "name": "tags",
              "type": "bytes32[]"
            },
            {
              "components": [
                {
                  "internalType": "address",
                  "name": "addr",
                  "type": "address"
                },
                {
                  "internalType": "uint16",
                  "name": "share",
                  "type": "uint16"
                }
              ],
              "internalType": "struct DataStorage.Payee[]",
              "name": "owners",
              "type": "tuple[]"
            }
          ],
          "internalType": "struct DataStorage.Katibeh",
          "name": "katibeh",
          "type": "tuple"
        },
        {
          "internalType": "bytes",
          "name": "sig",
          "type": "bytes"
        },
        {
          "internalType": "bytes",
          "name": "dappData",
          "type": "bytes"
        }
      ],
      "stateMutability": "view",
      "type": "function"
    },
    {
      "inputs": [
        {
          "internalType": "uint256[]",
          "name": "tokenId",
          "type": "uint256[]"
        }
      ],
      "name": "tokensInfoBatch",
      "outputs": [
        {
          "components": [
            {
              "internalType": "address",
              "name": "creator",
              "type": "address"
            },
            {
              "internalType": "uint256",
              "name": "mintTime",
              "type": "uint256"
            },
            {
              "internalType": "uint256",
              "name": "initTime",
              "type": "uint256"
            },
            {
              "internalType": "uint256",
              "name": "expTime",
              "type": "uint256"
            },
            {
              "internalType": "string",
              "name": "tokenURI",
              "type": "string"
            },
            {
              "internalType": "bytes",
              "name": "data",
              "type": "bytes"
            },
            {
              "internalType": "uint256[]",
              "name": "toTokenId",
              "type": "uint256[]"
            },
            {
              "internalType": "bytes32[]",
              "name": "tags",
              "type": "bytes32[]"
            },
            {
              "components": [
                {
                  "internalType": "address",
                  "name": "addr",
                  "type": "address"
                },
                {
                  "internalType": "uint16",
                  "name": "share",
                  "type": "uint16"
                }
              ],
              "internalType": "struct DataStorage.Payee[]",
              "name": "owners",
              "type": "tuple[]"
            }
          ],
          "internalType": "struct DataStorage.Katibeh[]",
          "name": "katibeh",
          "type": "tuple[]"
        },
        {
          "internalType": "bytes[]",
          "name": "sig",
          "type": "bytes[]"
        },
        {
          "internalType": "bytes[]",
          "name": "dappData",
          "type": "bytes[]"
        }
      ],
      "stateMutability": "view",
      "type": "function"
    },
    {
      "inputs": [
        {
          "internalType": "uint256",
          "name": "tokenId",
          "type": "uint256"
        }
      ],
      "name": "uri",
      "outputs": [
        {
          "internalType": "string",
          "name": "",
          "type": "string"
        }
      ],
      "stateMutability": "view",
      "type": "function"
    }
  ],
  "bytecode": "0x608080604052346100875761268e8181016001600160401b0381118382101761007157829162002702833903906000f0801561006557600880546001600160a01b0319166001600160a01b039290921691909117905560405161267590816200008d8239f35b6040513d6000823e3d90fd5b634e487b7160e01b600052604160045260246000fd5b600080fdfe60806040526004361015610013575b600080fd5b60003560e01c806303c131481461011757806305e6ec4a1461010e57806307d32f2a146101055780630e89341c146100fc5780632b0eca8c146100f357806339b37ab0146100ea5780635c60da1b146100e15780635fd099e6146100d8578063662ec09e146100cf57806378292236146100c6578063958785ea146100bd5780639f9028d5146100b45763cc33c875146100ac57600080fd5b61000e610d5b565b5061000e610d1b565b5061000e610ca9565b5061000e610c7c565b5061000e610c41565b5061000e610c0c565b5061000e610be2565b5061000e610bb0565b5061000e610b47565b5061000e61084e565b5061000e61070f565b5061000e610214565b5061000e610131565b6001600160a01b0381160361000e57565b503461000e57602036600319011261000e5760043561014f81610120565b600554906001600160a01b03908183163303610179576001600160a01b0319909216911617600555005b60405162461bcd60e51b815260206004820152603160248201527f4665654d616e616765723a206f6e6c79207265636569766572312063616e206360448201527068616e676520697473206164647265737360781b6064820152608490fd5b908161012091031261000e5790565b9181601f8401121561000e578235916001600160401b03831161000e576020838186019501011161000e57565b503461000e57608036600319011261000e5760046001600160401b03813560243582811161000e5761024990369085016101d8565b9260443583811161000e5761026190369083016101e7565b9360643590811161000e576102af6102826102b692969396369086016101e7565b9390966102aa6102a56102948b611225565b61029d8c611125565b90858561250e565b61122f565b612607565b841461127b565b6102c660608601354211156112c7565b6040926102d884870135421015611323565b60c086019160005b6102ea84896113a4565b90508110156103d65780610392896103538361031d8961034d6103416103416103346103236103979c61031d878c6113a4565b906113f0565b356000526007602052604060002090565b546001600160a01b031690565b6001600160a01b031690565b946113a4565b895163bd85b03960e01b81529035818a01908152602092839183919082908190850103915afa9182156103c9575b60009261039c575b5050151561140e565b611388565b6102e0565b6103bb9250803d106103c2575b6103b38183610e21565b810190610e42565b3880610389565b503d6103a9565b6103d1610e51565b610381565b508490866001600160a01b0389878261040e6103346103f485611225565b6001600160a01b0316600090815260066020526040902090565b166106e75760085461047c9061042c906001600160a01b0316610341565b61047661046361047161043e87611225565b8b51928391602083016014916bffffffffffffffffffffffff199060601b1681520190565b03601f198101835282610e21565b611480565b906115b4565b926104ac8461048d6103f486611225565b80546001600160a01b0319166001600160a01b03909216919091179055565b808416906104b984611225565b916104cb6104c686611225565b611651565b813b1561000e5760006104f591610561958c51938492839263b2b45df560e01b84528a84016114a3565b038183865af180156106da575b6106c7575b505b169361054d61053160208b8b518093819263bd85b03960e01b83528983019190602083019252565b03818a5afa9081156106ba575b60009161069c575b50156114e8565b61048d896000526007602052604060002090565b61056a82611225565b833b1561000e57865163731133e960e01b81526001600160a01b0390911682820190815260208101899052600560408201526080606082018190526000908201819052908290819060a001038183885af1801561068f575b61067c575b506105d5608083018361155a565b9190843b1561000e5761061b9489600080946106048c5197889687958694634312207160e11b8652850161158c565b03925af1801561066f575b610656575b5085612078565b8161062257005b6106517fe3efb4090b64f6dead06906e59a91359e0c1ca9cad88a633d749431442e5bebf9351928392836115a3565b0390a2005b8061066361066992610dcb565b80610bd7565b86610614565b610677610e51565b61060f565b8061066361068992610dcb565b876105c7565b610697610e51565b6105c2565b6106b4915060203d81116103c2576103b38183610e21565b8b610546565b6106c2610e51565b61053e565b806106636106d492610dcb565b8a610507565b6106e2610e51565b610502565b6105616106f96103346103f485611225565b93808516610509565b359061070d82610120565b565b503461000e57602036600319011261000e576107ee6055603760043561073481610120565b60085460405160609290921b6bffffffffffffffffffffffff1916602083015290610766906104718160348101610463565b60408051733d602d80600a3d3981f3363d3d373d3d3d363d7360601b8152606093841b6bffffffffffffffffffffffff191660148201526f5af43d82803e903d91602b57fd5bf3ff60801b60288201523090931b6038840152604c830191909152828220606c83015291019190912090516001600160a01b0390911681529081906020820190565b0390f35b60005b8381106108055750506000910152565b81810151838201526020016107f5565b9060209161082e815180928185528580860191016107f2565b601f01601f1916010190565b90602061084b928181520190610815565b90565b503461000e5760208060031936011261000e5760043590600091808352600782528260018060a01b03604082205416916024604051809481936303a24d0760e21b835260048301525afa91821561093e575b83926108b5575b604051806107ee858261083a565b9091503d8084843e6108c78184610e21565b8201918181840312610936578051906001600160401b03821161093a57019082601f83011215610936578151936108fd85610fb3565b9361090b6040519586610e21565b85855282868501011161093357509261092c91846107ee95850191016107f2565b38806108a7565b80fd5b8380fd5b8480fd5b610946610e51565b6108a0565b90815180825260208080930193019160005b82811061096b575050505090565b83518552938101939281019260010161095d565b90815180825260208080930193019160005b82811061099f575050505090565b835180516001600160a01b0316865282015161ffff168583015260409094019392810192600101610991565b80516001600160a01b0316825261084b9190602081015160208301526040810151604083015260608101516060830152610a53610a41610a2f610a1d6080850151610120806080890152870190610815565b60a085015186820360a0880152610815565b60c084015185820360c087015261094b565b60e083015184820360e086015261094b565b91610100809201519181840391015261097f565b908082519081815260208091019281808460051b8301019501936000915b848310610a955750505050505090565b9091929394958480610ab3600193601f198682030187528a51610815565b9801930193019194939290610a85565b919392909360608301906060845285518092526080840160808360051b860101926020809801916000905b828210610b1d575050505090610b0f9161084b959685830390860152610a67565b916040818403910152610a67565b909192948980610b39600193607f198c820301865289516109cb565b970192019201909291610aee565b503461000e57602036600319011261000e576001600160401b0360043581811161000e573660238201121561000e57806004013591821161000e573660248360051b8301011161000e576107ee916024610ba19201612272565b60409391935193849384610ac3565b503461000e57602036600319011261000e576020610bcf600435610ee7565b604051908152f35b600091031261000e57565b503461000e57600036600319011261000e576008546040516001600160a01b039091168152602090f35b503461000e57602036600319011261000e576004356000526007602052602060018060a01b0360406000205416604051908152f35b503461000e57602036600319011261000e576004356001600160401b03811161000e57610bcf610c7760209236906004016101d8565b611125565b503461000e57602036600319011261000e5760043560005260026020526020604060002054604051908152f35b50606036600319011261000e576001600160401b0360243581811161000e57610cd69036906004016101e7565b91906044359282841161000e573660238501121561000e57836004013592831161000e573660248460061b8601011161000e576024610d199401916004356118f7565b005b503461000e57602036600319011261000e576020600435610d3b81610120565b60018060a01b038091166000526006825260406000205416604051908152f35b503461000e57602036600319011261000e57610d98610da66107ee610d8160043561241a565b9193906040519586956060875260608701906109cb565b908582036020870152610815565b908382036040850152610815565b50634e487b7160e01b600052604160045260246000fd5b6001600160401b038111610dde57604052565b610de6610db4565b604052565b604081019081106001600160401b03821117610dde57604052565b606081019081106001600160401b03821117610dde57604052565b90601f801991011681019081106001600160401b03821117610dde57604052565b9081602091031261000e575190565b506040513d6000823e3d90fd5b50634e487b7160e01b600052601160045260246000fd5b91908203918211610e8257565b61070d610e5e565b90670de0b6b3a764000091828102928184041490151715610e8257565b90601982029180830460191490151715610e8257565b906102ee91828102928184041490151715610e8257565b81810292918115918404141715610e8257565b806000526007602052602060018060a01b03604060002054169160246040518094819363bd85b03960e01b835260048301525afa908115610f79575b600091610f5b575b506000906005811115610f575761084b9150600419810190811115610e8a57610f52610e5e565b610e8a565b5090565b610f73915060203d81116103c2576103b38183610e21565b38610f2b565b610f81610e51565b610f23565b6040519061070d82610e06565b6040519061012082018281106001600160401b03821117610dde57604052565b6020906001600160401b038111610fd0575b601f01601f19160190565b610fd8610db4565b610fc5565b9035601e198236030181121561000e5701602081359101916001600160401b03821161000e57813603831361000e57565b908060209392818452848401376000828201840152601f01601f1916010190565b9035601e198236030181121561000e5701602081359101916001600160401b03821161000e578160051b3603831361000e57565b81835290916001600160fb1b03831161000e5760209260051b809284830137010190565b9035601e198236030181121561000e5701602081359101916001600160401b03821161000e578160061b3603831361000e57565b61ffff81160361000e57565b9190808252602080920192916000905b8282106110e5575050505090565b9091929360019085356110f781610120565b828060a01b0316815261ffff83870135611110816110bb565b168184015260409081019501939201906110d7565b60405161121f8161046361119d6020830195602087526111586040850161114b83610702565b6001600160a01b03169052565b6020810135606085015260408101356080850152606081013560a085015261120f6111866080830183610fdd565b9390610120948560c089015261016088019161100e565b916112066111c56111b160a0840184610fdd565b603f198a8803810160e08c0152969161100e565b946111e96111d660c085018561102f565b6101009891888c8403018a8d0152611063565b906111f760e085018561102f565b91878b850301908b0152611063565b93810190611087565b91858403016101408601526110c7565b51902090565b3561084b81610120565b1561123657565b60405162461bcd60e51b815260206004820152601d60248201527f4b6174696265683732313a20496e76616c6964207369676e61747572650000006044820152606490fd5b1561128257565b60405162461bcd60e51b815260206004820152601b60248201527f466163746f7279313135353a2077726f6e6720746f6b656e20696400000000006044820152606490fd5b156112ce57565b60405162461bcd60e51b815260206004820152602760248201527f466163746f7279313135353a20746f6b656e2073616c652074696d6520697320604482015266195e1c1a5c995960ca1b6064820152608490fd5b1561132a57565b60405162461bcd60e51b815260206004820152603060248201527f466163746f7279313135353a20746f6b656e2073616c652074696d652068617360448201526f081b9bdd081cdd185c9d1959081e595d60821b6064820152608490fd5b6001906000198114611398570190565b6113a0610e5e565b0190565b903590601e198136030182121561000e57018035906001600160401b03821161000e57602001918160051b3603831361000e57565b50634e487b7160e01b600052603260045260246000fd5b9190811015611401575b60051b0190565b6114096113d9565b6113fa565b1561141557565b60405162461bcd60e51b815260206004820152603860248201527f466163746f7279313135353a20746f20746f6b656e20696420686173206e6f7460448201527f206d696e746564206f6e2063757272656e7420636861696e00000000000000006064820152608490fd5b602081519101519060208110611494575090565b6000199060200360031b1b1690565b6001600160a01b0390911681526060602082018190526040926114c891830190610815565b90828183039101526007815266096c2e8d2c4cad60cb1b60208201520190565b156114ef57565b60405162461bcd60e51b815260206004820152603760248201527f466163746f7279313135353a207468697320636f6c6c656374696f6e2068617360448201527f206265656e20616c726561647920636f6c6c65637465640000000000000000006064820152608490fd5b903590601e198136030182121561000e57018035906001600160401b03821161000e5760200191813603831361000e57565b60409061084b94928152816020820152019161100e565b91602061084b93818152019161100e565b604051733d602d80600a3d3981f3363d3d373d3d3d363d7360601b815260609190911b60148201526e5af43d82803e903d91602b57fd5bf360881b60288201526037906000f5906001600160a01b0382161561160c57565b60405162461bcd60e51b815260206004820152601760248201527f455243313136373a2063726561746532206661696c65640000000000000000006044820152606490fd5b604051906001600160a01b031661166782610e06565b602a82526040366020840137603061167e836116fe565b53607861168a83611714565b536029905b600182116116a25761084b91501561175f565b80600f6116de921660108110156116e4575b6f181899199a1a9b1b9c1cb0b131b232b360811b901a6116d48486611725565b5360041c91611744565b9061168f565b6116ec6113d9565b6116b4565b91908201809211610e8257565b60209080511561170c570190565b6113a06113d9565b60219080516001101561170c570190565b90602091805182101561173757010190565b61173f6113d9565b010190565b8015611752575b6000190190565b61175a610e5e565b61174b565b1561176657565b606460405162461bcd60e51b815260206004820152602060248201527f537472696e67733a20686578206c656e67746820696e73756666696369656e746044820152fd5b156117b157565b60405162461bcd60e51b815260206004820152603560248201527f466163746f7279313135353a207468697320636f6c6c656374696f6e20686173604482015274206e6f7420636f6c6c6563746564206265666f726560581b6064820152608490fd5b1561181b57565b60405162461bcd60e51b815260206004820152601d60248201527f466163746f7279313135353a20696e73756666696369656e74206665650000006044820152606490fd5b6020906001600160401b0381116118785760051b0190565b611409610db4565b90815461188c81611860565b9260409361189c85519182610e21565b828152809460208092019260005281600020906000935b8585106118c257505050505050565b600184819284516118d281610deb565b61ffff8754858060a01b038116835260a01c16838201528152019301940193916118b3565b93909261199161191a610341610341610334896000526007602052604060002090565b60405163bd85b03960e01b81526004810188905290939061195690602081602481895afa908115611aa6575b600091611a88575b5015156117aa565b61195f87610ee7565b9261196c84341015611814565b61198b60026119858a6000526001602052604060002090565b01611880565b84611b65565b803411611a4c575b50803b1561000e5760405163731133e960e01b81523360048201526024810185905260016044820152608060648201526000608482018190529091829060a490829084905af18015611a3f575b611a2c575b50806119f657505050565b7fe3efb4090b64f6dead06906e59a91359e0c1ca9cad88a633d749431442e5bebf91611a27604051928392836115a3565b0390a2565b80610663611a3992610dcb565b386119eb565b611a47610e51565b6119e6565b60008080611a5b819434610e75565b818115611a7f575b3390f115611a72575b38611999565b611a7a610e51565b611a6c565b506108fc611a63565b611aa0915060203d81116103c2576103b38183610e21565b3861194e565b611aae610e51565b611946565b6020918151811015611ac8575b60051b010190565b611ad06113d9565b611ac0565b9190811015611ae6575b60061b0190565b611aee6113d9565b611adf565b3561084b816110bb565b15611b0457565b60405162461bcd60e51b815260206004820152603360248201527f4665654d616e616765723a20746f74616c206672616374696f6e73206e756d6260448201527206572206d75737420657175616c20313030303606c1b6064820152608490fd5b6005549093929190611b9d906001600160a01b0316611b8e611b8687610ea7565b6103e8900490565b906001600160a01b0316611cdc565b611bd4611bac611b8686610ebd565b94611bce611bbc611b8683610ea7565b611bc8611b8684610ebd565b906116f1565b90610e75565b908051916000805b848110611c76575050505050600092835b838110611c05575050505061271061070d9114611afd565b611c7190610392611c31602097611bc8611c2a8a611c24878c8c611ad5565b01611af3565b61ffff1690565b96611c6b611c63611c5d611c2a611c51611c4c888d8d611ad5565b611225565b94611c24888d8d611ad5565b87610ed4565b612710900490565b90611cdc565b611bed565b611cd790610392611c9e602094611bc8611c2a87611c94878c611ab3565b51015161ffff1690565b93611c6b611c63611cd1611c2a611cc6611cb8888d611ab3565b51516001600160a01b031690565b94611c94888d611ab3565b88610ed4565b611bdc565b6000808093819382908215611d06575b6001600160a01b031690f115611cfe57565b61070d610e51565b6108fc9150611cec565b903590601e198136030182121561000e57018035906001600160401b03821161000e57602001918160061b3603831361000e57565b929192611d5182610fb3565b91611d5f6040519384610e21565b82948184528183011161000e578281602093846000960137010152565b929192611d8882611860565b604092611d9784519283610e21565b819581835260208093019160061b84019381851161000e57915b848310611dc057505050505050565b858383031261000e578386918251611dd781610deb565b8535611de281610120565b815282860135611df1816110bb565b83820152815201920191611db1565b90600182811c92168015611e30575b6020831014611e1a57565b634e487b7160e01b600052602260045260246000fd5b91607f1691611e0f565b90601f8111611e4857505050565b600091825260208220906020601f850160051c83019410611e84575b601f0160051c01915b828110611e7957505050565b818155600101611e6d565b9092508290611e64565b815191680100000000000000008311611f4d575b8154838355808410611f24575b50611ec4602080920192600052602060002090565b6000925b848410611ed6575050505050565b60018382611f18839451868151815460209093015161ffff60a01b60a09190911b166001600160b01b03199093166001600160a01b0390911617919091179055565b01920193019290611ec8565b6000838152846020822092830192015b828110611f42575050611eaf565b818155600101611f34565b611f55610db4565b611ea2565b81518155600191828201602080830151948551916001600160401b038311612056575b611f9183611f8b8654611e00565b86611e3a565b80601f8411600114611fdb5750918080604095936002979561070d9a600094611fd0575b50501b916000199060031b1c19161790555b01519101611e8e565b015192503880611fb5565b9193949596601f198416611ff487600052602060002090565b936000905b82821061203f5750509260409592859261070d9a99966002999610612026575b505050811b019055611fc7565b015160001960f88460031b161c19169055388080612019565b808886978294978701518155019601940190611ff9565b61205e610db4565b611f7d565b81604051928392833781016000815203902090565b9060a0810160608201356120e56120c7612092848661155a565b91906120bb6120a5610100890189611d10565b9190926120b0610f86565b958887523691611d45565b60208501523691611d7c565b60408201526120e0866000526001602052604060002090565b611f5a565b837f0b85051017293732c5b533b177efc66475411a9fdd5fbc8ecb619906658413d661215661212661212061211988611225565b968861155a565b90612063565b604080516020808a01358252898301359082015290810195909552946001600160a01b0316939081906060820190565b0390a460c081019161216883836113a4565b939050600092835b85811061217f57505050505050565b806121916121bc9261031d86866113a4565b35857f65327253f8d67c2e23cb4dfab28ca7437b04e9098cf4e985073d76df25209ad48880a3611388565b612170565b6040519061012082018281106001600160401b0382111761221b575b604052816000815260006020820152600060408201526101006060916000838201528260808201528260a08201528260c08201528260e08201520152565b612223610db4565b6121dd565b9061223282611860565b61223f6040519182610e21565b8281528092612250601f1991611860565b019060005b82811061226157505050565b806060602080938501015201612255565b919061227d81611860565b9161228b6040519384610e21565b818352601f1961229a83611860565b0160005b81811061231057505082936122b283612228565b936122bc84612228565b9360005b8181106122cd5750505050565b806122e56122df61230b9385886113f0565b3561241a565b6122ef848b611ab3565b526122fa838b611ab3565b526123058286611ab3565b52611388565b6122c0565b60209061231b6121c1565b8282880101520161229e565b906040519182600082549261233b84611e00565b9081845260019485811690816000146123a85750600114612365575b505061070d92500383610e21565b9093915060005260209081600020936000915b81831061239057505061070d93508201013880612357565b85548884018501529485019487945091830191612378565b91505061070d94506020925060ff191682840152151560051b8201013880612357565b9060405191828154918282526020928383019160005283600020936000905b8282106124005750505061070d92500383610e21565b8554845260019586019588955093810193909101906123ea565b906124236121c1565b5060609082600052600060205260406000209261243e610f93565b84546001600160a01b03168152600185015460208201526124ba60086002870154966040840197885260038101548785015261247c60048201612327565b608085015261248d60058201612327565b60a085015261249e600682016123cb565b60c08501526124af600782016123cb565b60e085015201611880565b61010082015293514210156124e6575b6124e161084b916000526003602052604060002090565b612327565b915061084b6124e16125056124e1856000526004602052604060002090565b939150506124ca565b61255c91929360405160208101917f19457468657265756d205369676e6564204d6573736167653a0a3332000000008352603c820152603c815261255181610e06565b519020923691611d45565b60418151036125c2576020818101516040808401516060948501518251968752600090811a8786015291860192909252928401528180529160809060015afa156125b5575b6000516001600160a01b0390811691161490565b6125bd610e51565b6125a1565b60405162461bcd60e51b815260206004820152601860248201527f696e76616c6964207369676e6174757265206c656e67746800000000000000006044820152606490fd5b9061121f602c6040518381946020830196873781016b39b0b6b0b7103bb4b639b7b760a11b602082015203600c810184520182610e2156fea2646970667358221220ff4772e274c54b430d669253d1c0cad4612acffb167eb0cf7a693c8fb799885264736f6c63430008110033608034620000e957602081016001600160401b03811182821017620000d357604052600080915262000033600254620000ee565b601f811162000092575b50806002556200004f600454620000ee565b601f81116200006e575b60006004556040516125499081620001458239f35b601f60208360046200008a955220910160051c8101906200012b565b388062000059565b60028252620000cc90601f0160051c7f405787fa12a823e0f2b7631cc41b3ba8828b3321ca811111fa75cd3aa3bb5ace908101906200012b565b386200003d565b634e487b7160e01b600052604160045260246000fd5b600080fd5b90600182811c9216801562000120575b60208310146200010a57565b634e487b7160e01b600052602260045260246000fd5b91607f1691620000fe565b81811062000137575050565b600081556001016200012b56fe6080604052600436101561001257600080fd5b60003560e01c8062fdd58e14611ab957806301ffc9a714611a4b57806306fdde03146119a55780630e89341c146119865780632eb2c2d6146115ab5780634e1273f41461140d5780634f558e79146113df5780636b20c45414611185578063715018a614611123578063731133e914610f0e578063862440e214610d295780638da5cb5b14610cfc57806395d89b4114610c16578063a22cb46514610b32578063b2b45df5146107fb578063bd85b039146107cf578063e985e9c514610779578063f242432a1461039a578063f2fde38b1461030d5763f5298aca146100f757600080fd5b3461030857606036600319011261030857610110611ae8565b60249060448035916001600160a01b031690833533831480156102df575b61013790611db3565b8215926101448415612089565b61014d82612054565b9161015786612054565b94600060405161016681611b4e565b52610285575b60005b8351811015610208576101828185611d89565b5161018d8288611d89565b51908060005260036020818152604060002054928484106101c657906101c195949392916000525203604060002055611d64565b61016f565b506084906000805160206124f48339815191528a60288f6040519462461bcd60e51b8652600486015284015282015267616c537570706c7960c01b6064820152fd5b60008383898184528360205260408420838552602052806040852054610230828210156120e1565b838652856020526040862085875260205203604085205560405191825260208201527fc3d58168c5ae7397731d063d5bbf3d657854427343f4c083240f7aacaa2d0f6260403392a4610283604051611b4e565b005b949195929060005b87518110156102d457806102a46102cf9288611d89565b516102af828b611d89565b5160005260036020526102c86040600020918254611ed0565b9055611d64565b61028d565b50909295919461016c565b5082600052600160205260406000203360005260205261013760ff60406000205416905061012e565b600080fd5b3461030857602036600319011261030857610326611ae8565b61032e61243a565b6001600160a01b038116156103465761028390612495565b60405162461bcd60e51b815260206004820152602660248201527f4f776e61626c653a206e6577206f776e657220697320746865207a65726f206160448201526564647265737360d01b6064820152608490fd5b346103085760a0366003190112610308576103b3611ae8565b6103bb611afe565b90608480356001600160401b038111610308576103dc903690600401611c8d565b6001600160a01b0391908383163314801561074e575b6103fb90611db3565b828516156104098115611e17565b610414604435612054565b61041f606435612054565b918587161561070e575b610660575b5050604435600052602094600086526040600020848616600052865260406000205461045e606435821015611e71565b60443560005260008752604060002085871660005287526064359003604060002055604435600052600086526040600020848216600052865260406000206104a96064358254611ed0565b905560405160443581526064358782015284821690858716907fc3d58168c5ae7397731d063d5bbf3d657854427343f4c083240f7aacaa2d0f6260403392a4803b6104f057005b60a0600061053a958895604051978896879586938563f23a6e6160e01b9d8e87523360048801521660248601526044356044860152606435606486015284015260a4830190611bad565b0393165af160009181610631575b5061060757505060019061055a611fc8565b6308c379a0146105d2575b5061056c57005b60405162461bcd60e51b815260206004820152603460248201527f455243313135353a207472616e7366657220746f206e6f6e20455243313135356044820152732932b1b2b4bb32b91034b6b83632b6b2b73a32b960611b6064820152608490fd5b0390fd5b6105da611fe6565b90816105e65750610565565b6105ce60405192839262461bcd60e51b845260048401526024830190611bad565b6001600160e01b0319161490506102835760405162461bcd60e51b8152806105ce60048201611f7f565b610652919250843d8611610659575b61064a8183611b69565b810190611f5f565b9084610548565b503d610640565b92959194909360005b84518110156106ff5761067c8186611d89565b51906106888188611d89565b518260005260036020526040600020548181106106bc576106b793600052600360205203604060002055611d64565b610669565b60405162461bcd60e51b815260206004820152602860248201526000805160206124f4833981519152604482015267616c537570706c7960c01b60648201528b90fd5b5093509390949150858061042e565b959260009794919592975b8651811015610740578061073061073b928b611d89565b516102af828a611d89565b610719565b509295969194909396610429565b5082841660005260016020526040600020336000526020526103fb60ff6040600020541690506103f2565b3461030857604036600319011261030857610792611ae8565b61079a611afe565b9060018060a01b03809116600052600160205260406000209116600052602052602060ff604060002054166040519015158152f35b346103085760203660031901126103085760043560005260036020526020604060002054604051908152f35b3461030857606036600319011261030857610814611ae8565b6001600160401b039060243582811161030857610835903690600401611c8d565b6044358381116103085761084d903690600401611c8d565b61085e60ff60065460081c16612139565b8151848111610a1d5780610873603954611b14565b93601f94858111610ac4575b50602090858311600114610a3e57600092610a33575b50508160011b916000199060031b1c1916176039555b8051938411610a1d576108bf603a54611b14565b8281116109bb575b50602091841160011461093257610283939160009183610927575b50508160011b916000199060031b1c191617603a555b336bffffffffffffffffffffffff60a01b603854161760385561092260ff60065460081c16612139565b612495565b0151905084806108e2565b90601f19841691603a6000527fa2999d817b6757290b50e8ecf3fa939673403dd35c97de392fdb343b4015ce9e9260005b8181106109a3575091600193918661028397941061098a575b505050811b01603a556108f8565b015160001960f88460031b161c1916905584808061097c565b92936020600181928786015181550195019301610963565b603a6000527fa2999d817b6757290b50e8ecf3fa939673403dd35c97de392fdb343b4015ce9e8380870160051c82019260208810610a14575b0160051c01905b818110610a0857506108c7565b600081556001016109fb565b925081926109f4565b634e487b7160e01b600052604160045260246000fd5b015190508680610895565b603960009081527fdc16fef70f8d5ddbc01ee3d903d1e69c18a3c7be080eb86a81e0578814ee58d39350601f198516905b818110610aac5750908460019594939210610a93575b505050811b016039556108ab565b015160001960f88460031b161c19169055868080610a85565b92936020600181928786015181550195019301610a6f565b90915060396000527fdc16fef70f8d5ddbc01ee3d903d1e69c18a3c7be080eb86a81e0578814ee58d38580850160051c82019260208610610b29575b9085949392910160051c01905b818110610b1a575061087f565b60008155849350600101610b0d565b92508192610b00565b3461030857604036600319011261030857610b4b611ae8565b60243590811515809203610308576001600160a01b031690338214610bbf57336000526001602052604060002082600052602052604060002060ff1981541660ff83161790556040519081527f17307eab39ab6107e8899845ad3d59bd9653f200f220920489ca2b5937696c3160203392a3005b60405162461bcd60e51b815260206004820152602960248201527f455243313135353a2073657474696e6720617070726f76616c20737461747573604482015268103337b91039b2b63360b91b6064820152608490fd5b34610308576000366003190112610308576040516000603a54610c3881611b14565b80845290600190818116908115610cd55750600114610c7a575b610c7684610c6281860382611b69565b604051918291602083526020830190611bad565b0390f35b603a600090815292507fa2999d817b6757290b50e8ecf3fa939673403dd35c97de392fdb343b4015ce9e5b828410610cbd575050508101602001610c6282610c52565b80546020858701810191909152909301928101610ca5565b60ff191660208087019190915292151560051b85019092019250610c629150839050610c52565b346103085760003660031901126103085760065460405160109190911c6001600160a01b03168152602090f35b34610308576040366003190112610308576001600160401b0360043560243582811161030857366023820112156103085780600401359083821161030857366024838301011161030857610d9691610d8c60018060a01b03603854163314612199565b6024369201611c47565b9181600052602090600582526040600020908451908111610a1d57610dbb8254611b14565b601f8111610ec8575b5082601f8211600114610e415781907f6bb7ff708619ba0610cba295a58592e0451dee2622938c8755667688daf3529b9596600092610e36575b50508160011b916000199060031b1c19161790555b610e1c836121fb565b90610e31604051928284938452830190611bad565b0390a2005b015190508680610dfe565b601f1982169583600052846000209660005b818110610eb15750917f6bb7ff708619ba0610cba295a58592e0451dee2622938c8755667688daf3529b969791846001959410610e98575b505050811b019055610e13565b015160001960f88460031b161c19169055868080610e8b565b838301518955600190980197928601928601610e53565b8260005283600020601f830160051c810191858410610f04575b601f0160051c01905b818110610ef85750610dc4565b60008155600101610eeb565b9091508190610ee2565b3461030857608036600319011261030857610f27611ae8565b604435906024356064356001600160401b03811161030857610f4d903690600401611c8d565b9160018060a01b03610f6481603854163314612199565b610f6e8383611cdf565b6110cf57811691821561108057610f8481612054565b92610f8e86612054565b9560005b8551811015610fb95780610fa9610fb4928a611d89565b516102af8289611d89565b610f92565b5085836000526020946000865260406000208460005286526040600020610fe1848254611ed0565b905583600060405187815285898201527fc3d58168c5ae7397731d063d5bbf3d657854427343f4c083240f7aacaa2d0f6260403392a43b61101e57005b611062928592600060405180968195829463f23a6e6160e01b9a8b85523360048601528560248601526044850152606484015260a0608484015260a4830190611bad565b03925af160009181610631575061060757505060019061055a611fc8565b60405162461bcd60e51b815260206004820152602160248201527f455243313135353a206d696e7420746f20746865207a65726f206164647265736044820152607360f81b6064820152608490fd5b60405162461bcd60e51b815260206004820152602660248201527f4d61696e6e65742046617273693a20746f6b656e20636f6c6c656374656420616044820152656c726561647960d01b6064820152608490fd5b346103085760003660031901126103085761113c61243a565b6006805462010000600160b01b0319811690915560009060101c6001600160a01b03167f8be0079c531659141344cd1fd0a4f28419497f9722a3daafe3b4186f6b6457e08280a3005b346103085760603660031901126103085761119e611ae8565b6024906001600160401b03908235828111610308576111c1903690600401611be9565b916044908135908111610308576111dc903690600401611be9565b6001600160a01b039092169233841480156113b6575b6111fb90611db3565b83156112078115612089565b6112148251855114611edd565b600060405161122281611b4e565b5261137e575b60005b81518110156112c45761123e8183611d89565b516112498286611d89565b5190806000526003602081815260406000205492848410611282579061127d95949392916000525203604060002055611d64565b61122b565b60405162461bcd60e51b8152600481018390526028818d01526000805160206124f4833981519152818a015267616c537570706c7960c01b6064820152608490fd5b83828660005b825181101561133957806112e16113349285611d89565b516112ec8287611d89565b519080600052602060008152604060002086600052815260406000205491611316848410156120e1565b60005260008152604060002090866000525203604060002055611d64565b6112ca565b50907f4a39dc06d4c0dbc64b70af90fd698a233a518aa5d07e595d983b8c0526c8f7fb611370600094604051918291339583611f3a565b0390a4610283604051611b4e565b9260009491945b84518110156113ac578061139c6113a79286611d89565b516102af8288611d89565b611385565b5092939093611228565b508360005260016020526040600020336000526020526111fb60ff6040600020541690506111f2565b3461030857602036600319011261030857600435600052600360205260206040600020541515604051908152f35b34610308576040366003190112610308576004356001600160401b0380821161030857366023830112156103085781600401359061144a82611bd2565b926114586040519485611b69565b82845260209260248486019160051b8301019136831161030857602401905b82821061158c5750505060243590811161030857611499903690600401611be9565b8251815103611535578251926114ae84611bd2565b936114bc6040519586611b69565b8085526114cb601f1991611bd2565b01368486013760005b815181101561151e57611519906115096001600160a01b036114f68386611d89565b51166115028387611d89565b5190611cdf565b6115138288611d89565b52611d64565b6114d4565b505050610c76604051928284938452830190611cab565b60405162461bcd60e51b815260048101839052602960248201527f455243313135353a206163636f756e747320616e6420696473206c656e677468604482015268040dad2e6dac2e8c6d60bb1b6064820152608490fd5b81356001600160a01b0381168103610308578152908401908401611477565b346103085760031960a036820112610308576115c5611ae8565b906115ce611afe565b6044908135926001600160401b0393848111610308576115f2903690600401611be9565b606480358681116103085761160b903690600401611be9565b94608496873590811161030857611626903690600401611c8d565b6001600160a01b03948986163314801561195b575b61164490611db3565b6116518551895114611edd565b8587161561165f8115611e17565b868b1615611918575b611863575b60005b855181101561170657806116876117019288611d89565b518c611693838d611d89565b519180600052826020926000845260406000208d82166000528452604060002054906116c183831015611e71565b83600052600085528d60406000209116600052845203604060002055600052600081526040600020908a8c16600052526102c86040600020918254611ed0565b611670565b50888a989796949789604051887f4a39dc06d4c0dbc64b70af90fd698a233a518aa5d07e595d983b8c0526c8f7fb89808d169416928061174887339583611f3a565b0390a4873b61175357005b60405198899788968863bc197c8160e01b9d8e8a523360048b0152166024890152870160a0905260a4870161178791611cab565b9084878303019087015261179a91611cab565b9184830301908401526117ac91611bad565b03921691815a602094600091f160009181611843575b5061181b57505060016117d3611fc8565b6308c379a0146117e4575b61056c57005b6117ec611fe6565b806117f757506117de565b60405162461bcd60e51b8152602060048201529081906105ce906024830190611bad565b6001600160e01b031916146102835760405162461bcd60e51b8152806105ce60048201611f7f565b61185c91925060203d81116106595761064a8183611b69565b90836117c2565b9796949060009993999692965b8551811015611908576118838187611d89565b5161188e8289611d89565b519080600052602060038152604060002054918383106118c7576118c2949392916003916000525203604060002055611d64565b611870565b508b9067616c537570706c7960c01b8f6000805160206124f48339815191528e6040519462461bcd60e51b8652600486015260286024860152840152820152fd5b509094969798929895919561166d565b99969498959392919060005b8a5181101561194c57808b6102af82611940611947958f611d89565b5192611d89565b611924565b50909192939598949699611668565b50858a16600052600160205260406000203360005260205261164460ff60406000205416905061163b565b3461030857602036600319011261030857610c76610c626004356121fb565b346103085760003660031901126103085760405160006039546119c781611b14565b80845290600190818116908115610cd557506001146119f057610c7684610c6281860382611b69565b6039600090815292507fdc16fef70f8d5ddbc01ee3d903d1e69c18a3c7be080eb86a81e0578814ee58d35b828410611a33575050508101602001610c6282610c52565b80546020858701810191909152909301928101611a1b565b346103085760203660031901126103085760043563ffffffff60e01b811680910361030857602090636cdb3d1360e11b8114908115611aa8575b8115611a97575b506040519015158152f35b6301ffc9a760e01b14905082611a8c565b6303a24d0760e21b81149150611a85565b34610308576040366003190112610308576020611ae0611ad7611ae8565b60243590611cdf565b604051908152f35b600435906001600160a01b038216820361030857565b602435906001600160a01b038216820361030857565b90600182811c92168015611b44575b6020831014611b2e57565b634e487b7160e01b600052602260045260246000fd5b91607f1691611b23565b602081019081106001600160401b03821117610a1d57604052565b90601f801991011681019081106001600160401b03821117610a1d57604052565b60005b838110611b9d5750506000910152565b8181015183820152602001611b8d565b90602091611bc681518092818552858086019101611b8a565b601f01601f1916010190565b6001600160401b038111610a1d5760051b60200190565b81601f8201121561030857803591611c0083611bd2565b92611c0e6040519485611b69565b808452602092838086019260051b820101928311610308578301905b828210611c38575050505090565b81358152908301908301611c2a565b9291926001600160401b038211610a1d5760405191611c70601f8201601f191660200184611b69565b829481845281830111610308578281602093846000960137010152565b9080601f8301121561030857816020611ca893359101611c47565b90565b90815180825260208080930193019160005b828110611ccb575050505090565b835185529381019392810192600101611cbd565b6001600160a01b0316908115611d0c57600052600060205260406000209060005260205260406000205490565b60405162461bcd60e51b815260206004820152602a60248201527f455243313135353a2061646472657373207a65726f206973206e6f742061207660448201526930b634b21037bbb732b960b11b6064820152608490fd5b6000198114611d735760010190565b634e487b7160e01b600052601160045260246000fd5b8051821015611d9d5760209160051b010190565b634e487b7160e01b600052603260045260246000fd5b15611dba57565b60405162461bcd60e51b815260206004820152602f60248201527f455243313135353a2063616c6c6572206973206e6f7420746f6b656e206f776e60448201526e195c881b9bdc88185c1c1c9bdd9959608a1b6064820152608490fd5b15611e1e57565b60405162461bcd60e51b815260206004820152602560248201527f455243313135353a207472616e7366657220746f20746865207a65726f206164604482015264647265737360d81b6064820152608490fd5b15611e7857565b60405162461bcd60e51b815260206004820152602a60248201527f455243313135353a20696e73756666696369656e742062616c616e636520666f60448201526939103a3930b739b332b960b11b6064820152608490fd5b91908201809211611d7357565b15611ee457565b60405162461bcd60e51b815260206004820152602860248201527f455243313135353a2069647320616e6420616d6f756e7473206c656e677468206044820152670dad2e6dac2e8c6d60c31b6064820152608490fd5b9091611f51611ca893604084526040840190611cab565b916020818403910152611cab565b9081602091031261030857516001600160e01b0319811681036103085790565b60809060208152602860208201527f455243313135353a204552433131353552656365697665722072656a656374656040820152676420746f6b656e7360c01b60608201520190565b60009060033d11611fd557565b905060046000803e60005160e01c90565b600060443d10611ca857604051600319913d83016004833e81516001600160401b03918282113d6024840111176120435781840194855193841161204b573d850101602084870101116120435750611ca892910160200190611b69565b949350505050565b50949350505050565b60405190604082018281106001600160401b03821117610a1d5760405260018252602082016020368237825115611d9d575290565b1561209057565b60405162461bcd60e51b815260206004820152602360248201527f455243313135353a206275726e2066726f6d20746865207a65726f206164647260448201526265737360e81b6064820152608490fd5b156120e857565b60405162461bcd60e51b8152602060048201526024808201527f455243313135353a206275726e20616d6f756e7420657863656564732062616c604482015263616e636560e01b6064820152608490fd5b1561214057565b60405162461bcd60e51b815260206004820152602b60248201527f496e697469616c697a61626c653a20636f6e7472616374206973206e6f74206960448201526a6e697469616c697a696e6760a81b6064820152608490fd5b156121a057565b60405162461bcd60e51b815260206004820152602d60248201527f4b617469626568313135353a207265737472696374656420616363657373207460448201526c6f2074686520466163746f727960981b6064820152608490fd5b60009081526020906005825260408120906040519080918354928161221f85611b14565b918282528782019660019689888216918260001461241c5750506001146123de575b5061224e92500382611b69565b80511561232357604051948593836004549161226983611b14565b9281811690811561230257506001146122a2575b50505050612293611ca894839251938491611b8a565b0103601f198101835282611b69565b909192969450600482527f8a35acfbc15ff81a39ae7d344fd709f28e8600b4aa8c65c6b64bfe7fe36bd19b5b8383106122ec57505050611ca894612293918501019294388061227d565b80548984018901528896509187019181016122ce565b60ff191688860152505050801515028401019150612293611ca8388061227d565b506040516002549094935084928261233a83611b14565b808652928281169081156123bc5750600114612360575b505050611ca892500382611b69565b600281527f405787fa12a823e0f2b7631cc41b3ba8828b3321ca811111fa75cd3aa3bb5ace95935091905b8183106123a4575050611ca89350820101388080612351565b8554878401850152948501948694509183019161238b565b92505050611ca894925060ff191682840152151560051b820101388080612351565b915050835281868085208686915b85831061240357505061224e935082010138612241565b80919294505483858801015201910187908685936123ec565b60ff19168a5261224e95151560051b85010192503891506122419050565b60065460101c6001600160a01b0316330361245157565b606460405162461bcd60e51b815260206004820152602060248201527f4f776e61626c653a2063616c6c6572206973206e6f7420746865206f776e65726044820152fd5b6006805462010000600160b01b03198116601084811b62010000600160b01b0316919091179092556001600160a01b0392831692911c167f8be0079c531659141344cd1fd0a4f28419497f9722a3daafe3b4186f6b6457e0600080a356fe455243313135353a206275726e20616d6f756e74206578636565647320746f74a264697066735822122082f3af386902e9dc069861d7e7abed2959d627b69cdd5e9f5a756b697fd7c85364736f6c63430008110033",
  "linkReferences": {},
  "deployedLinkReferences": {}
}