{
  "_format": "hh-sol-artifact-1",
  "contractName": "Factory1155",
  "sourceName": "contracts/katibeh1155/Factory1155.sol",
  "abi": [
    {
      "inputs": [
        {
          "internalType": "address",
          "name": "qhAddr",
          "type": "address"
        },
        {
          "internalType": "uint96",
          "name": "_startTime",
          "type": "uint96"
        }
      ],
      "stateMutability": "nonpayable",
      "type": "constructor"
    },
    {
      "anonymous": false,
      "inputs": [
        {
          "indexed": true,
          "internalType": "uint256",
          "name": "tokenHash",
          "type": "uint256"
        },
        {
          "indexed": true,
          "internalType": "uint256",
          "name": "toTokenHash",
          "type": "uint256"
        },
        {
          "indexed": false,
          "internalType": "int256",
          "name": "value",
          "type": "int256"
        }
      ],
      "name": "NewReply",
      "type": "event"
    },
    {
      "anonymous": false,
      "inputs": [
        {
          "indexed": true,
          "internalType": "uint256",
          "name": "tokenHash",
          "type": "uint256"
        },
        {
          "indexed": true,
          "internalType": "address",
          "name": "creator",
          "type": "address"
        },
        {
          "indexed": true,
          "internalType": "bytes",
          "name": "data",
          "type": "bytes"
        }
      ],
      "name": "NewToken",
      "type": "event"
    },
    {
      "anonymous": false,
      "inputs": [
        {
          "indexed": false,
          "internalType": "uint256",
          "name": "tokenHash",
          "type": "uint256"
        },
        {
          "indexed": true,
          "internalType": "bytes32",
          "name": "tag1",
          "type": "bytes32"
        },
        {
          "indexed": true,
          "internalType": "bytes32",
          "name": "tag2",
          "type": "bytes32"
        },
        {
          "indexed": true,
          "internalType": "bytes32",
          "name": "tag3",
          "type": "bytes32"
        }
      ],
      "name": "Tags",
      "type": "event"
    },
    {
      "anonymous": false,
      "inputs": [
        {
          "indexed": true,
          "internalType": "uint256",
          "name": "tokenHash",
          "type": "uint256"
        },
        {
          "indexed": false,
          "internalType": "bytes",
          "name": "data",
          "type": "bytes"
        }
      ],
      "name": "TokenData",
      "type": "event"
    },
    {
      "inputs": [],
      "name": "QH",
      "outputs": [
        {
          "internalType": "contract IQHash",
          "name": "",
          "type": "address"
        }
      ],
      "stateMutability": "view",
      "type": "function"
    },
    {
      "inputs": [
        {
          "internalType": "address",
          "name": "",
          "type": "address"
        }
      ],
      "name": "_collectorScore",
      "outputs": [
        {
          "internalType": "uint256",
          "name": "",
          "type": "uint256"
        }
      ],
      "stateMutability": "view",
      "type": "function"
    },
    {
      "inputs": [
        {
          "internalType": "uint256",
          "name": "",
          "type": "uint256"
        }
      ],
      "name": "_tokenCollection",
      "outputs": [
        {
          "internalType": "address",
          "name": "addr",
          "type": "address"
        },
        {
          "internalType": "uint96",
          "name": "tokenId",
          "type": "uint96"
        }
      ],
      "stateMutability": "view",
      "type": "function"
    },
    {
      "inputs": [
        {
          "internalType": "address",
          "name": "collector",
          "type": "address"
        },
        {
          "components": [
            {
              "internalType": "address",
              "name": "addr",
              "type": "address"
            },
            {
              "internalType": "uint96",
              "name": "tokenId",
              "type": "uint96"
            }
          ],
          "internalType": "struct DataStorage.Collection",
          "name": "tokenInfo",
          "type": "tuple"
        },
        {
          "internalType": "uint256",
          "name": "amount",
          "type": "uint256"
        },
        {
          "internalType": "bytes",
          "name": "data",
          "type": "bytes"
        },
        {
          "components": [
            {
              "internalType": "address payable",
              "name": "recipient",
              "type": "address"
            },
            {
              "internalType": "uint96",
              "name": "percentInBasisPoints",
              "type": "uint96"
            }
          ],
          "internalType": "struct SplitterForOwners.Share[]",
          "name": "dapps",
          "type": "tuple[]"
        }
      ],
      "name": "collectTo",
      "outputs": [],
      "stateMutability": "payable",
      "type": "function"
    },
    {
      "inputs": [
        {
          "internalType": "address",
          "name": "collector",
          "type": "address"
        },
        {
          "internalType": "uint256",
          "name": "tokenHash",
          "type": "uint256"
        },
        {
          "internalType": "uint256",
          "name": "amount",
          "type": "uint256"
        },
        {
          "components": [
            {
              "internalType": "address",
              "name": "creator",
              "type": "address"
            },
            {
              "internalType": "uint96",
              "name": "signTime",
              "type": "uint96"
            },
            {
              "internalType": "string",
              "name": "tokenURI",
              "type": "string"
            },
            {
              "internalType": "bytes",
              "name": "data",
              "type": "bytes"
            },
            {
              "components": [
                {
                  "internalType": "uint256",
                  "name": "tokenHash",
                  "type": "uint256"
                },
                {
                  "internalType": "int16",
                  "name": "value",
                  "type": "int16"
                }
              ],
              "internalType": "struct DataStorage.ToTokenHash[]",
              "name": "toTokenHash",
              "type": "tuple[]"
            },
            {
              "internalType": "bytes32[]",
              "name": "tags",
              "type": "bytes32[]"
            },
            {
              "components": [
                {
                  "internalType": "address payable",
                  "name": "recipient",
                  "type": "address"
                },
                {
                  "internalType": "uint96",
                  "name": "percentInBasisPoints",
                  "type": "uint96"
                }
              ],
              "internalType": "struct SplitterForOwners.Share[]",
              "name": "owners",
              "type": "tuple[]"
            },
            {
              "components": [
                {
                  "internalType": "uint256",
                  "name": "A",
                  "type": "uint256"
                },
                {
                  "internalType": "int256",
                  "name": "B",
                  "type": "int256"
                },
                {
                  "internalType": "uint96",
                  "name": "totalSupply",
                  "type": "uint96"
                },
                {
                  "internalType": "uint96",
                  "name": "expTime",
                  "type": "uint96"
                },
                {
                  "internalType": "uint64",
                  "name": "discount",
                  "type": "uint64"
                },
                {
                  "internalType": "uint96",
                  "name": "initTime",
                  "type": "uint96"
                },
                {
                  "internalType": "uint96",
                  "name": "royalty",
                  "type": "uint96"
                },
                {
                  "internalType": "uint256",
                  "name": "chainId",
                  "type": "uint256"
                }
              ],
              "internalType": "struct DataStorage.Pricing[]",
              "name": "pricing",
              "type": "tuple[]"
            }
          ],
          "internalType": "struct DataStorage.Katibeh",
          "name": "katibeh",
          "type": "tuple"
        },
        {
          "internalType": "bytes",
          "name": "sig",
          "type": "bytes"
        },
        {
          "internalType": "bytes",
          "name": "data",
          "type": "bytes"
        },
        {
          "components": [
            {
              "internalType": "address payable",
              "name": "recipient",
              "type": "address"
            },
            {
              "internalType": "uint96",
              "name": "percentInBasisPoints",
              "type": "uint96"
            }
          ],
          "internalType": "struct SplitterForOwners.Share[]",
          "name": "dapps",
          "type": "tuple[]"
        }
      ],
      "name": "collectTo",
      "outputs": [],
      "stateMutability": "payable",
      "type": "function"
    },
    {
      "inputs": [
        {
          "components": [
            {
              "internalType": "address",
              "name": "addr",
              "type": "address"
            },
            {
              "internalType": "uint96",
              "name": "tokenId",
              "type": "uint96"
            }
          ],
          "internalType": "struct DataStorage.Collection",
          "name": "tokenInfo",
          "type": "tuple"
        },
        {
          "internalType": "uint256",
          "name": "amount",
          "type": "uint256"
        }
      ],
      "name": "feeAndSupply",
      "outputs": [
        {
          "internalType": "uint256",
          "name": "_fee",
          "type": "uint256"
        },
        {
          "internalType": "uint256",
          "name": "supply",
          "type": "uint256"
        }
      ],
      "stateMutability": "view",
      "type": "function"
    },
    {
      "inputs": [
        {
          "internalType": "uint256",
          "name": "tokenHash",
          "type": "uint256"
        },
        {
          "internalType": "uint256",
          "name": "amount",
          "type": "uint256"
        },
        {
          "components": [
            {
              "internalType": "address",
              "name": "creator",
              "type": "address"
            },
            {
              "internalType": "uint96",
              "name": "signTime",
              "type": "uint96"
            },
            {
              "internalType": "string",
              "name": "tokenURI",
              "type": "string"
            },
            {
              "internalType": "bytes",
              "name": "data",
              "type": "bytes"
            },
            {
              "components": [
                {
                  "internalType": "uint256",
                  "name": "tokenHash",
                  "type": "uint256"
                },
                {
                  "internalType": "int16",
                  "name": "value",
                  "type": "int16"
                }
              ],
              "internalType": "struct DataStorage.ToTokenHash[]",
              "name": "toTokenHash",
              "type": "tuple[]"
            },
            {
              "internalType": "bytes32[]",
              "name": "tags",
              "type": "bytes32[]"
            },
            {
              "components": [
                {
                  "internalType": "address payable",
                  "name": "recipient",
                  "type": "address"
                },
                {
                  "internalType": "uint96",
                  "name": "percentInBasisPoints",
                  "type": "uint96"
                }
              ],
              "internalType": "struct SplitterForOwners.Share[]",
              "name": "owners",
              "type": "tuple[]"
            },
            {
              "components": [
                {
                  "internalType": "uint256",
                  "name": "A",
                  "type": "uint256"
                },
                {
                  "internalType": "int256",
                  "name": "B",
                  "type": "int256"
                },
                {
                  "internalType": "uint96",
                  "name": "totalSupply",
                  "type": "uint96"
                },
                {
                  "internalType": "uint96",
                  "name": "expTime",
                  "type": "uint96"
                },
                {
                  "internalType": "uint64",
                  "name": "discount",
                  "type": "uint64"
                },
                {
                  "internalType": "uint96",
                  "name": "initTime",
                  "type": "uint96"
                },
                {
                  "internalType": "uint96",
                  "name": "royalty",
                  "type": "uint96"
                },
                {
                  "internalType": "uint256",
                  "name": "chainId",
                  "type": "uint256"
                }
              ],
              "internalType": "struct DataStorage.Pricing[]",
              "name": "pricing",
              "type": "tuple[]"
            }
          ],
          "internalType": "struct DataStorage.Katibeh",
          "name": "katibeh",
          "type": "tuple"
        }
      ],
      "name": "feeAndSupply",
      "outputs": [
        {
          "internalType": "uint256",
          "name": "_fee",
          "type": "uint256"
        },
        {
          "internalType": "uint256",
          "name": "supply",
          "type": "uint256"
        }
      ],
      "stateMutability": "view",
      "type": "function"
    },
    {
      "inputs": [
        {
          "internalType": "address",
          "name": "collector",
          "type": "address"
        },
        {
          "internalType": "uint256",
          "name": "tokenHash",
          "type": "uint256"
        },
        {
          "internalType": "uint256",
          "name": "amount",
          "type": "uint256"
        },
        {
          "components": [
            {
              "internalType": "address",
              "name": "creator",
              "type": "address"
            },
            {
              "internalType": "uint96",
              "name": "signTime",
              "type": "uint96"
            },
            {
              "internalType": "string",
              "name": "tokenURI",
              "type": "string"
            },
            {
              "internalType": "bytes",
              "name": "data",
              "type": "bytes"
            },
            {
              "components": [
                {
                  "internalType": "uint256",
                  "name": "tokenHash",
                  "type": "uint256"
                },
                {
                  "internalType": "int16",
                  "name": "value",
                  "type": "int16"
                }
              ],
              "internalType": "struct DataStorage.ToTokenHash[]",
              "name": "toTokenHash",
              "type": "tuple[]"
            },
            {
              "internalType": "bytes32[]",
              "name": "tags",
              "type": "bytes32[]"
            },
            {
              "components": [
                {
                  "internalType": "address payable",
                  "name": "recipient",
                  "type": "address"
                },
                {
                  "internalType": "uint96",
                  "name": "percentInBasisPoints",
                  "type": "uint96"
                }
              ],
              "internalType": "struct SplitterForOwners.Share[]",
              "name": "owners",
              "type": "tuple[]"
            },
            {
              "components": [
                {
                  "internalType": "uint256",
                  "name": "A",
                  "type": "uint256"
                },
                {
                  "internalType": "int256",
                  "name": "B",
                  "type": "int256"
                },
                {
                  "internalType": "uint96",
                  "name": "totalSupply",
                  "type": "uint96"
                },
                {
                  "internalType": "uint96",
                  "name": "expTime",
                  "type": "uint96"
                },
                {
                  "internalType": "uint64",
                  "name": "discount",
                  "type": "uint64"
                },
                {
                  "internalType": "uint96",
                  "name": "initTime",
                  "type": "uint96"
                },
                {
                  "internalType": "uint96",
                  "name": "royalty",
                  "type": "uint96"
                },
                {
                  "internalType": "uint256",
                  "name": "chainId",
                  "type": "uint256"
                }
              ],
              "internalType": "struct DataStorage.Pricing[]",
              "name": "pricing",
              "type": "tuple[]"
            }
          ],
          "internalType": "struct DataStorage.Katibeh",
          "name": "katibeh",
          "type": "tuple"
        },
        {
          "internalType": "bytes",
          "name": "sig",
          "type": "bytes"
        },
        {
          "internalType": "bytes",
          "name": "data",
          "type": "bytes"
        },
        {
          "components": [
            {
              "internalType": "address payable",
              "name": "recipient",
              "type": "address"
            },
            {
              "internalType": "uint96",
              "name": "percentInBasisPoints",
              "type": "uint96"
            }
          ],
          "internalType": "struct SplitterForOwners.Share[]",
          "name": "dapps",
          "type": "tuple[]"
        }
      ],
      "name": "firstPrivateCollect",
      "outputs": [],
      "stateMutability": "payable",
      "type": "function"
    },
    {
      "inputs": [
        {
          "internalType": "address",
          "name": "collector",
          "type": "address"
        },
        {
          "internalType": "uint256",
          "name": "tokenHash",
          "type": "uint256"
        },
        {
          "internalType": "uint256",
          "name": "amount",
          "type": "uint256"
        },
        {
          "components": [
            {
              "internalType": "address",
              "name": "creator",
              "type": "address"
            },
            {
              "internalType": "uint96",
              "name": "signTime",
              "type": "uint96"
            },
            {
              "internalType": "string",
              "name": "tokenURI",
              "type": "string"
            },
            {
              "internalType": "bytes",
              "name": "data",
              "type": "bytes"
            },
            {
              "components": [
                {
                  "internalType": "uint256",
                  "name": "tokenHash",
                  "type": "uint256"
                },
                {
                  "internalType": "int16",
                  "name": "value",
                  "type": "int16"
                }
              ],
              "internalType": "struct DataStorage.ToTokenHash[]",
              "name": "toTokenHash",
              "type": "tuple[]"
            },
            {
              "internalType": "bytes32[]",
              "name": "tags",
              "type": "bytes32[]"
            },
            {
              "components": [
                {
                  "internalType": "address payable",
                  "name": "recipient",
                  "type": "address"
                },
                {
                  "internalType": "uint96",
                  "name": "percentInBasisPoints",
                  "type": "uint96"
                }
              ],
              "internalType": "struct SplitterForOwners.Share[]",
              "name": "owners",
              "type": "tuple[]"
            },
            {
              "components": [
                {
                  "internalType": "uint256",
                  "name": "A",
                  "type": "uint256"
                },
                {
                  "internalType": "int256",
                  "name": "B",
                  "type": "int256"
                },
                {
                  "internalType": "uint96",
                  "name": "totalSupply",
                  "type": "uint96"
                },
                {
                  "internalType": "uint96",
                  "name": "expTime",
                  "type": "uint96"
                },
                {
                  "internalType": "uint64",
                  "name": "discount",
                  "type": "uint64"
                },
                {
                  "internalType": "uint96",
                  "name": "initTime",
                  "type": "uint96"
                },
                {
                  "internalType": "uint96",
                  "name": "royalty",
                  "type": "uint96"
                },
                {
                  "internalType": "uint256",
                  "name": "chainId",
                  "type": "uint256"
                }
              ],
              "internalType": "struct DataStorage.Pricing[]",
              "name": "pricing",
              "type": "tuple[]"
            }
          ],
          "internalType": "struct DataStorage.Katibeh",
          "name": "katibeh",
          "type": "tuple"
        },
        {
          "internalType": "bytes",
          "name": "sig",
          "type": "bytes"
        },
        {
          "internalType": "bytes",
          "name": "data",
          "type": "bytes"
        },
        {
          "components": [
            {
              "internalType": "address payable",
              "name": "recipient",
              "type": "address"
            },
            {
              "internalType": "uint96",
              "name": "percentInBasisPoints",
              "type": "uint96"
            }
          ],
          "internalType": "struct SplitterForOwners.Share[]",
          "name": "dapps",
          "type": "tuple[]"
        }
      ],
      "name": "firstPublicCollect",
      "outputs": [],
      "stateMutability": "payable",
      "type": "function"
    },
    {
      "inputs": [
        {
          "internalType": "uint256",
          "name": "value",
          "type": "uint256"
        }
      ],
      "name": "fixedInterest",
      "outputs": [
        {
          "internalType": "uint256",
          "name": "amount",
          "type": "uint256"
        }
      ],
      "stateMutability": "view",
      "type": "function"
    },
    {
      "inputs": [],
      "name": "implementation",
      "outputs": [
        {
          "internalType": "contract Katibeh1155",
          "name": "",
          "type": "address"
        }
      ],
      "stateMutability": "view",
      "type": "function"
    },
    {
      "inputs": [
        {
          "internalType": "uint256",
          "name": "x",
          "type": "uint256"
        },
        {
          "internalType": "uint256",
          "name": "y",
          "type": "uint256"
        }
      ],
      "name": "pow",
      "outputs": [
        {
          "internalType": "uint256",
          "name": "result",
          "type": "uint256"
        }
      ],
      "stateMutability": "pure",
      "type": "function"
    },
    {
      "inputs": [
        {
          "internalType": "uint256",
          "name": "tokenHash",
          "type": "uint256"
        },
        {
          "internalType": "address",
          "name": "collector",
          "type": "address"
        },
        {
          "internalType": "uint256",
          "name": "amount",
          "type": "uint256"
        },
        {
          "internalType": "bytes",
          "name": "data",
          "type": "bytes"
        },
        {
          "components": [
            {
              "internalType": "address payable",
              "name": "recipient",
              "type": "address"
            },
            {
              "internalType": "uint96",
              "name": "percentInBasisPoints",
              "type": "uint96"
            }
          ],
          "internalType": "struct SplitterForOwners.Share[]",
          "name": "dapps",
          "type": "tuple[]"
        }
      ],
      "name": "privateCollect",
      "outputs": [],
      "stateMutability": "payable",
      "type": "function"
    },
    {
      "inputs": [
        {
          "components": [
            {
              "internalType": "address",
              "name": "addr",
              "type": "address"
            },
            {
              "internalType": "uint96",
              "name": "tokenId",
              "type": "uint96"
            }
          ],
          "internalType": "struct DataStorage.Collection",
          "name": "tokenInfo",
          "type": "tuple"
        },
        {
          "internalType": "address",
          "name": "collector",
          "type": "address"
        },
        {
          "internalType": "uint256",
          "name": "amount",
          "type": "uint256"
        },
        {
          "internalType": "bytes",
          "name": "data",
          "type": "bytes"
        },
        {
          "components": [
            {
              "internalType": "address payable",
              "name": "recipient",
              "type": "address"
            },
            {
              "internalType": "uint96",
              "name": "percentInBasisPoints",
              "type": "uint96"
            }
          ],
          "internalType": "struct SplitterForOwners.Share[]",
          "name": "dapps",
          "type": "tuple[]"
        }
      ],
      "name": "privateCollect",
      "outputs": [],
      "stateMutability": "payable",
      "type": "function"
    },
    {
      "inputs": [
        {
          "components": [
            {
              "internalType": "address",
              "name": "addr",
              "type": "address"
            },
            {
              "internalType": "uint96",
              "name": "tokenId",
              "type": "uint96"
            }
          ],
          "internalType": "struct DataStorage.Collection",
          "name": "tokenInfo",
          "type": "tuple"
        },
        {
          "internalType": "address",
          "name": "collector",
          "type": "address"
        },
        {
          "internalType": "uint256",
          "name": "amount",
          "type": "uint256"
        },
        {
          "internalType": "bytes",
          "name": "data",
          "type": "bytes"
        },
        {
          "components": [
            {
              "internalType": "address payable",
              "name": "recipient",
              "type": "address"
            },
            {
              "internalType": "uint96",
              "name": "percentInBasisPoints",
              "type": "uint96"
            }
          ],
          "internalType": "struct SplitterForOwners.Share[]",
          "name": "dapps",
          "type": "tuple[]"
        }
      ],
      "name": "publicCollect",
      "outputs": [],
      "stateMutability": "payable",
      "type": "function"
    },
    {
      "inputs": [
        {
          "internalType": "uint256",
          "name": "supply",
          "type": "uint256"
        },
        {
          "internalType": "uint256",
          "name": "amount",
          "type": "uint256"
        },
        {
          "internalType": "uint256",
          "name": "initialSupply",
          "type": "uint256"
        }
      ],
      "name": "publicFee",
      "outputs": [
        {
          "internalType": "uint256",
          "name": "result",
          "type": "uint256"
        }
      ],
      "stateMutability": "pure",
      "type": "function"
    },
    {
      "inputs": [
        {
          "internalType": "address payable",
          "name": "newAddr",
          "type": "address"
        }
      ],
      "name": "setReceiver1",
      "outputs": [],
      "stateMutability": "nonpayable",
      "type": "function"
    },
    {
      "inputs": [],
      "name": "split",
      "outputs": [
        {
          "internalType": "contract SplitterForOwners",
          "name": "",
          "type": "address"
        }
      ],
      "stateMutability": "view",
      "type": "function"
    },
    {
      "inputs": [],
      "name": "startTime",
      "outputs": [
        {
          "internalType": "uint96",
          "name": "",
          "type": "uint96"
        }
      ],
      "stateMutability": "view",
      "type": "function"
    },
    {
      "inputs": [
        {
          "internalType": "address",
          "name": "",
          "type": "address"
        },
        {
          "internalType": "uint96",
          "name": "",
          "type": "uint96"
        }
      ],
      "name": "tokenPricing",
      "outputs": [
        {
          "internalType": "uint256",
          "name": "A",
          "type": "uint256"
        },
        {
          "internalType": "int256",
          "name": "B",
          "type": "int256"
        },
        {
          "internalType": "uint96",
          "name": "totalSupply",
          "type": "uint96"
        },
        {
          "internalType": "uint96",
          "name": "expTime",
          "type": "uint96"
        },
        {
          "internalType": "uint64",
          "name": "discount",
          "type": "uint64"
        },
        {
          "internalType": "uint96",
          "name": "initTime",
          "type": "uint96"
        },
        {
          "internalType": "uint96",
          "name": "royalty",
          "type": "uint96"
        },
        {
          "internalType": "uint256",
          "name": "chainId",
          "type": "uint256"
        }
      ],
      "stateMutability": "view",
      "type": "function"
    },
    {
      "inputs": [
        {
          "internalType": "address",
          "name": "",
          "type": "address"
        },
        {
          "internalType": "uint96",
          "name": "",
          "type": "uint96"
        },
        {
          "internalType": "uint256",
          "name": "",
          "type": "uint256"
        }
      ],
      "name": "tokenReplyCollection",
      "outputs": [
        {
          "internalType": "address",
          "name": "addr",
          "type": "address"
        },
        {
          "internalType": "uint80",
          "name": "tokenId",
          "type": "uint80"
        },
        {
          "internalType": "int16",
          "name": "value",
          "type": "int16"
        }
      ],
      "stateMutability": "view",
      "type": "function"
    },
    {
      "inputs": [
        {
          "internalType": "address",
          "name": "",
          "type": "address"
        },
        {
          "internalType": "uint96",
          "name": "",
          "type": "uint96"
        }
      ],
      "name": "tokenValueLocked",
      "outputs": [
        {
          "internalType": "uint256",
          "name": "",
          "type": "uint256"
        }
      ],
      "stateMutability": "view",
      "type": "function"
    },
    {
      "inputs": [],
      "name": "totalValueLocked",
      "outputs": [
        {
          "internalType": "uint256",
          "name": "",
          "type": "uint256"
        }
      ],
      "stateMutability": "view",
      "type": "function"
    },
    {
      "inputs": [
        {
          "internalType": "uint256",
          "name": "tokenHash",
          "type": "uint256"
        }
      ],
      "name": "uri",
      "outputs": [
        {
          "internalType": "string",
          "name": "",
          "type": "string"
        }
      ],
      "stateMutability": "view",
      "type": "function"
    },
    {
      "inputs": [
        {
          "internalType": "address",
          "name": "",
          "type": "address"
        }
      ],
      "name": "userBalance",
      "outputs": [
        {
          "internalType": "uint256",
          "name": "",
          "type": "uint256"
        }
      ],
      "stateMutability": "view",
      "type": "function"
    },
    {
      "inputs": [],
      "name": "withdraw",
      "outputs": [],
      "stateMutability": "nonpayable",
      "type": "function"
    },
    {
      "inputs": [
        {
          "components": [
            {
              "internalType": "address",
              "name": "addr",
              "type": "address"
            },
            {
              "internalType": "uint96",
              "name": "tokenId",
              "type": "uint96"
            }
          ],
          "internalType": "struct DataStorage.Collection",
          "name": "tokenInfo",
          "type": "tuple"
        }
      ],
      "name": "withdraw",
      "outputs": [],
      "stateMutability": "nonpayable",
      "type": "function"
    }
  ],
  "bytecode": "0x60a034620001655762008fe0906001600160401b0390601f38849003908101601f191682019083821183831017620001515780839160409687948552833981010312620001655780516001600160a01b038082169390929091849003620001655760200151906001600160601b03821682036200016557845190611bf79182810192818410838511176200015157620073e982393083526020815f9403019083f09384156200014757825494166001600160a01b0319948516178255855190612cd580830191838310908311176200013357908291620047148339039082f09081156200012857506080523382600154161760015560a01b1617600a55516145aa90816200016a8239608051818181610b4a0152818161330b0152818161345901526135e30152f35b8551903d90823e3d90fd5b634e487b7160e01b84526041600452602484fd5b86513d84823e3d90fd5b634e487b7160e01b5f52604160045260245ffd5b5f80fdfe60806040526004361015610011575f80fd5b5f3560e01c80630103c92b146101c457806303c13148146101bf57806308e7c4d0146101ba5780630e89341c146101b5578063122a8906146101b0578063144acb17146101ab57806324500de2146101a65780632e15e1c5146101a15780632e4c697f1461019c578063330dac06146101975780633ccfd60b1461019257806348e3fa611461018d5780635b4346a8146101885780635c60da1b146101835780635fd099e61461017e57806378e9792514610179578063883e71d31461017457806388647af11461016f5780638bdae2fa1461016a578063968a577b146101655780639c9bead4146101605780639d58e53f1461015b578063bae558da14610156578063d4b1173314610151578063d87249dc1461014c578063ec18154e146101475763f765417614610142575f80fd5b6112cc565b6112af565b611213565b610faa565b610f86565b610ee7565b610e19565b610dde565b610c6a565b610c4c565b610c34565b610bb2565b610b79565b610b35565b610b0f565b610a7b565b610a49565b610998565b61090e565b6108f0565b6106a2565b61065d565b61059d565b610365565b6102e3565b610233565b6101f8565b6001600160a01b038116036101da57565b5f80fd5b600435906101eb826101c9565b565b35906101eb826101c9565b346101da5760203660031901126101da57600435610215816101c9565b60018060a01b03165f526003602052602060405f2054604051908152f35b346101da5760203660031901126101da57600435610250816101c9565b600154906001600160a01b0390818316330361027a576001600160a01b0319909216911617600155005b60405162461bcd60e51b815260206004820152603160248201527f4665654d616e616765723a204f6e6c79207265636569766572312063616e206360448201527068616e676520697473206164647265737360781b6064820152608490fd5b5f9103126101da57565b346101da575f3660031901126101da57600a546040516001600160a01b039091168152602090f35b5f5b83811061031c5750505f910152565b818101518382015260200161030d565b906020916103458151809281855285808601910161030b565b601f01601f1916010190565b90602061036292818152019061032c565b90565b346101da5760203660031901126101da576004355f5260066020526103d75f6020604082206040519061039782610437565b546001600160a01b03811680835260a09190911c929091018290526040516303a24d0760e21b815260048101929092529092839190829081906024820190565b03915afa801561041e576103f9915f916103fd575b5060405191829182610351565b0390f35b610418913d8091833e61041081836104a1565b8101906117b0565b5f6103ec565b611327565b634e487b7160e01b5f52604160045260245ffd5b604081019081106001600160401b0382111761045257604052565b610423565b61010081019081106001600160401b0382111761045257604052565b6001600160401b03811161045257604052565b606081019081106001600160401b0382111761045257604052565b90601f801991011681019081106001600160401b0382111761045257604052565b604051906101eb82610457565b604051906101eb82610437565b604051906101eb82610486565b6001600160601b038116036101da57565b35906101eb826104e9565b60409060031901126101da576040519061051e82610437565b8160043561052b816101c9565b815260206024359161053c836104e9565b0152565b9181601f840112156101da578235916001600160401b0383116101da57602083818601950101116101da57565b9181601f840112156101da578235916001600160401b0383116101da576020808501948460061b0101116101da57565b60c03660031901126101da576004356105b5816101c9565b60403660231901126101da57604051906105ce82610437565b6024356105da816101c9565b82526044356105e8816104e9565b60208301526001600160401b03916084358381116101da5761060e903690600401610540565b9060a4359485116101da5761062a61063695369060040161056d565b94909360643591611897565b005b60409060031901126101da57600435610650816101c9565b90602435610362816104e9565b346101da57602061069961067036610638565b9060018060a01b03165f526004835260405f20906001600160601b03165f5260205260405f2090565b54604051908152f35b346101da573660031901606081126101da576040136101da5761070e5f6044356106da6106ce80611784565b6001600160a01b031690565b9160206106e561179a565b60405163bd85b03960e01b81526001600160601b03909116600482015294859081906024820190565b0381865afa93841561041e578194610822575b506040516306fdde0360e01b8152908082600481875afa801561041e5761076c92826107549392610807575b505061180e565b5f1a60f81b6001600160f81b031916602960fa1b1490565b156107c7576107ae6107916107b69360018060a01b03165f52600860205260405f2090565b61079961179a565b6001600160601b03165f5260205260405f2090565b5490836140f1565b604080519182526020820192909252f35b61080291506107fb6107f66107916107dd611784565b6001600160a01b03165f90815260056020526040902090565b611830565b908361434a565b6107b6565b61081b92503d8091833e61041081836104a1565b5f8061074d565b61084491945060203d811161084b575b61083c81836104a1565b810190611318565b925f610721565b503d610832565b90816101009103126101da5790565b9060e06003198301126101da576108766101de565b9160243591604435916001600160401b03916064358381116101da578261089f91600401610852565b926084358181116101da57836108b791600401610540565b9390939260a4358381116101da57826108d291600401610540565b9390939260c4359182116101da576108ec9160040161056d565b9091565b6106366108fc36610861565b98979097969196959295949394611f69565b346101da5760403660031901126101da5760043560243560018281831615610975575b91811c92835b61094657602083604051908152f35b8061095091614006565b9283828216610964575b50811c9283610937565b61096e9193614006565b918361095a565b50670de0b6b3a7640000610931565b634e487b7160e01b5f52603260045260245ffd5b346101da5760603660031901126101da576004356109b5816101c9565b602435906109c2826104e9565b604435906109f660018060a01b0393845f93168352600b60205260408320906001600160601b03165f5260205260405f2090565b8054831015610a455781526020908190209190910154604080519382166001600160a01b0316845269ffffffffffffffffffff60a083901c169284019290925260f01d60010b90820152606090f35b5080fd5b346101da575f80600319360112610a78573381526003602052610a7460408220828154915533613e2b565b5080f35b80fd5b60a03660031901126101da57602435610a93816101c9565b6001600160401b03906064358281116101da57610ab4903690600401610540565b6084929192359384116101da57610ad261063694369060040161056d565b9390926004355f52600660205260405f209060405191610af183610437565b546001600160a01b038116835260a01c60208301526044359161230a565b346101da5760203660031901126101da576020610b2d6004356137cf565b604051908152f35b346101da575f3660031901126101da576040517f00000000000000000000000000000000000000000000000000000000000000006001600160a01b03168152602090f35b346101da5760203660031901126101da576004355f5260066020526040805f205481519060018060a01b038116825260a01c6020820152f35b346101da575f3660031901126101da576020600a5460a01c604051908152f35b9060c06003198301126101da57610be882610505565b91604435610bf5816101c9565b91606435916001600160401b03916084358381116101da5782610c1a91600401610540565b9390939260a4359182116101da576108ec9160040161056d565b610636610c4036610bd2565b9594909493919361230a565b610636610c5836610861565b98979097969196959295949394611ba5565b346101da5760603660031901126101da576024356044356001600160401b0381116101da57610c9d903690600401610852565b5f9182610cbc610cb76004355f52600660205260405f2090565b6112f3565b805190916001600160a01b039182168181610d5d575b5050610d06610ced610ce760a0880188611332565b90611367565b355f1a60f81b6001600160f81b031916602960fa1b1490565b15610d44576107b694506020610d356107ae9493610799931660018060a01b03165f52600860205260405f2090565b9201516001600160601b031690565b5050506107fb610d5861080293369061169b565b613ea5565b91509550610da6602087610d7a828701516001600160601b031690565b60405163bd85b03960e01b81526001600160601b03909116600482015292839190829081906024820190565b03915afa91821561041e5791610dc0575b50945f80610cd2565b610dd8915060203d811161084b5761083c81836104a1565b5f610db7565b346101da5760203660031901126101da57600435610dfb816101c9565b60018060a01b03165f526007602052602060405f2054604051908152f35b346101da5760403660031901126101da57610e806040610e3836610505565b8051610e4f906020906001600160a01b0316610d35565b825163152a902d60e11b81526001600160601b0390911660048201525f602482015292839190829081906044820190565b03915afa801561041e57610636915f91610eb8575b506001600160a01b0381165f908152600360205260408120805491905590613e2b565b610ed9915060403d8111610ee0575b610ed181836104a1565b810190612278565b505f610e95565b503d610ec7565b346101da57610100610f25610efb36610638565b9060018060a01b03165f52600560205260405f20906001600160601b03165f5260205260405f2090565b8054906001810154906002810154906001600160601b0391600460038301549201549360405195865260208601528281166040860152828160601c16606086015260c01c608085015281811660a085015260601c1660c083015260e0820152f35b346101da5760603660031901126101da576020610b2d6044356024356004356140f1565b611022610fb636610bd2565b5050845190959394929190610fd3906001600160a01b03166106ce565b91602060018060a01b038416940191610ff383516001600160601b031690565b6040805163bd85b03960e01b81526001600160601b039092166004830152989096602090889081906024820190565b0381895afa96871561041e575f976111f3575b5088516306fdde0360e01b8152925f846004818a5afa95861561041e5761113a996001600160601b036111256111028e9c866110fb8c8f610e4f9f6107999161112d9f6110936107546110ed94611098935f916111da575b5061180e565b6121fb565b6110c86110c36110be6110b287516001600160601b031690565b6001600160601b031690565b612297565b61225b565b4211806111a7575b611160576001600160a01b03165f90815260086020526040902090565b91516001600160601b031690565b54916140f1565b9661111d6111178b516001600160601b031690565b986137cf565b9636916113a9565b951691613709565b516001600160601b031690565b03915afa801561041e5761114a57005b8161063692903d10610ee057610ed181836104a1565b6001600160a01b0381165f908152600860205260409020879061118d9086516001600160601b0316610799565b556001600160a01b03165f90815260086020526040902090565b506001600160a01b0381165f9081526008602052604090206111d39085516001600160601b0316610799565b54156110d0565b6111ed913d8091833e61041081836104a1565b5f61108d565b61120c91975060203d811161084b5761083c81836104a1565b955f611035565b61121c36610861565b97805f98929897939796949652600660205260405f206040519061123f82610437565b546001600160a01b03811680835260a09190911c60208301526112a0575061126a60a0840184611332565b1561129b57355f1a60f81b6001600160f81b031916602960fa1b036112925761063699611ba5565b61063699611f69565b610984565b93505092505061063696611897565b346101da575f3660031901126101da576020600254604051908152f35b346101da575f3660031901126101da575f546040516001600160a01b039091168152602090f35b9060405161130081610437565b91546001600160a01b038116835260a01c6020830152565b908160209103126101da575190565b6040513d5f823e3d90fd5b903590601e19813603018212156101da57018035906001600160401b0382116101da57602001918160051b360383136101da57565b901561129b5790565b906001101561129b5760200190565b906002101561129b5760400190565b6001600160401b03811161045257601f01601f191660200190565b9291926113b58261138e565b916113c360405193846104a1565b8294818452818301116101da578281602093845f960137010152565b9080601f830112156101da57816020610362933591016113a9565b6001600160401b0381116104525760051b60200190565b8060010b036101da57565b9080601f830112156101da578135916020611436846113fa565b93604093611446855196876104a1565b818652828087019260061b850101938185116101da578301915b8483106114705750505050505090565b85838303126101da57838691825161148781610437565b853581528286013561149881611411565b83820152815201920191611460565b9080601f830112156101da5760209082356114c1816113fa565b936114cf60405195866104a1565b818552838086019260051b8201019283116101da578301905b8282106114f6575050505090565b813581529083019083016114e8565b929192611511826113fa565b604092611520845192836104a1565b819581835260208093019160061b8401938185116101da57915b84831061154957505050505050565b85838303126101da57838691825161156081610437565b853561156b816101c9565b81528286013561157a816104e9565b8382015281520192019161153a565b9080601f830112156101da5781602061036293359101611505565b35906001600160401b03821682036101da57565b9080601f830112156101da5781359160206115d2846113fa565b936040936115e2855196876104a1565b818652828087019260081b850101938185116101da578301915b84831061160c5750505050505090565b610100838303126101da578361010091875161162781610457565b85358152828601358382015261163e8987016104fa565b89820152606061164f8188016104fa565b9082015260806116608188016115a4565b9082015260a06116718188016104fa565b9082015260c06116828188016104fa565b9082015260e080870135908201528152019201916115fc565b919091610100818403126101da576116b16104c2565b926116bb826101ed565b84526116c9602083016104fa565b60208501526001600160401b0360408301358181116101da57826116ee9185016113df565b604086015260608301358181116101da578261170b9185016113df565b606086015260808301358181116101da578261172891850161141c565b608086015260a08301358181116101da57826117459185016114a7565b60a086015260c08301358181116101da5782611762918501611589565b60c086015260e08301359081116101da5761177d92016115b8565b60e0830152565b600435610362816101c9565b35610362816101c9565b602435610362816104e9565b35610362816104e9565b6020818303126101da578051906001600160401b0382116101da570181601f820112156101da5780516117e28161138e565b926117f060405194856104a1565b818452602082840101116101da57610362916020808501910161030b565b602081519101519060208110611822575090565b5f199060200360031b1b1690565b9060405161183d81610457565b60e060048294805484526001810154602085015260028101546001600160601b03908181166040870152818160601c16606087015260c01c6080860152600382015481811660a087015260601c1660c08501520154910152565b919493909260018060a01b03918285511696604098895197886306fdde0360e01b9a8b82528160045f9c8d935afa90811561041e576118e091610754918c91611a11575061180e565b156119fd575050855161194693929190602090611905906001600160a01b03166106ce565b958616970194602061191e87516001600160601b031690565b8c5163bd85b03960e01b81526001600160601b03909116600482015295869081906024820190565b03818b5afa94851561041e5789956119dd575b508a51998a52888a6004818b5afa96871561041e576001600160601b0361112561110261112d988f9d6119b19f8c8f610e4f9f610799916110986110936107548f98946110fb98866110ed979261080757505061180e565b03915afa801561041e576119c3575050565b816119d992903d10610ee057610ed181836104a1565b5050565b6119f691955060203d811161084b5761083c81836104a1565b935f611959565b975097509250936101eb975092909261230a565b6111ed91503d808e833e61041081836104a1565b15611a2c57565b60405162461bcd60e51b815260206004820152602960248201527f466163746f7279313135353a204f6e6c79207075626c696320636f6c6c6563746044820152681030b63637bbb2b21760b91b6064820152608490fd5b634e487b7160e01b5f52601160045260245ffd5b6001600160601b03908116610e0f190191908211611ab157565b611a83565b6001600160601b039182169082160391908211611ab157565b908160209103126101da5751610362816104e9565b903590601e19813603018212156101da57018035906001600160401b0382116101da57602001918160061b360383136101da57565b906202a3006001600160601b0380931601918211611ab157565b903590601e19813603018212156101da57018035906001600160401b0382116101da576020019181360383136101da57565b908060209392818452848401375f828201840152601f01601f1916010190565b6040906001600160601b0361036295931681528160208201520191611b65565b989295969394611bd491989295611bcd611bc8610ced610ce760a08c018c611332565b611a25565b878a61266f565b611bdd85613276565b926020868101906001600160a01b03861690611c3490611c0b611bff856117a6565b600a5460a01c90611ab6565b604051631d24662960e31b81526001600160601b03909116600482015291829081906024820190565b0381855afa90811561041e575f91611ea8575b50611c5560c08a018a611ae4565b90611c5f8b611790565b913690611c6b92611505565b90611c75916138c7565b938b82611c928560018060a01b03165f52600860205260405f2090565b90611cad91906001600160601b03165f5260205260405f2090565b54611cb8908b61407d565b94611cc2906117a6565b611ccb90611b19565b6001600160601b0316421198611d20611d4892611d039b611e6d575b611cef6104cf565b6001600160a01b039093168352919a8b9290565b6001600160601b03861660208401525f52600660205260405f2090565b815160209092015160a01b6001600160a01b0319166001600160a01b03909216919091179055565b611d5560408b018b611b33565b90843b156101da57604051634312207160e11b8152915f9183918291611d8091908860048501611b85565b038183885af1801561041e57611e5a575b50823b156101da57604051635944c75360e01b81526001600160601b03831660048201526001600160a01b03861660248201526101f46044820152985f8a60648183885af193841561041e576101eb9e6001600160601b038f611e3b9f8f611e319f9061112593611e0b92611e149c611e41575b506143dd565b61111d8a6137cf565b611e2b611e246080890189611ae4565b9087612e6c565b946139dc565b6060810190611b33565b9061380f565b80611e4e611e5492610473565b806102d9565b5f611e05565b80611e4e611e6792610473565b5f611d91565b8c611ea287611e8c8a60018060a01b03165f52600860205260405f2090565b906001600160601b03165f5260205260405f2090565b55611ce7565b611ec9915060203d8111611ecf575b611ec181836104a1565b810190611acf565b5f611c47565b503d611eb7565b15611edd57565b60405162461bcd60e51b815260206004820152602a60248201527f466163746f7279313135353a204f6e6c79207072697661746520636f6c6c65636044820152693a1030b63637bbb2b21760b11b6064820152608490fd5b90926001600160601b03608093610362979560018060a01b0316845216602083015260408201528160608201520191611b65565b9194611f96919893969994611bcd611f91611f8d610ced610ce760a08d018d611332565b1590565b611ed6565b611fa885611fa381611790565b6133c5565b956001600160a01b03871690611fc76020611c0b611bff8a83016117a6565b0381865afa90811561041e575f916121dd575b50612006612001611fee60c08b018b611ae4565b9190611ff98c611790565b923691611505565b6138c7565b93612075612017610d58368c61169b565b9a6120326120236104cf565b6001600160a01b039092168252565b6001600160601b038416602082015261205861205160808d018d611ae4565b9083612e6c565b50612063818d6130ad565b611d208d5f52600660205260405f2090565b61208260408a018a611b33565b90853b156101da57604051634312207160e11b8152915f91839182916120ad91908860048501611b85565b038183895af1801561041e576121ca575b5060c08a01516001600160601b0316843b156101da57604051635944c75360e01b81526001600160601b0384811660048301526001600160a01b03881660248301529190911660448201525f8160648183895af1801561041e576121b7575b50612128898c6143dd565b833b156101da5787926040519c8d94859463731133e960e01b8652600486019461215195611f35565b03815a5f948591f195861561041e5761219e612192608061218384611e31996101eb9e611e3b9d6121a4575b5061428b565b9301516001600160401b031690565b6001600160401b031690565b90613d06565b80611e4e6121b192610473565b5f61217d565b80611e4e6121c492610473565b5f61211d565b80611e4e6121d792610473565b5f6120be565b6121f5915060203d8111611ecf57611ec181836104a1565b5f611fda565b1561220257565b60405162461bcd60e51b815260206004820152602b60248201527f546f6b656e206973206e6f7420617661696c61626c6520696e207075626c696360448201526a1031b7b63632b1ba34b7b760a91b6064820152608490fd5b906202a3008201809211611ab157565b91908201809211611ab157565b91908260409103126101da5760208251612291816101c9565b92015190565b600a5460a01c8101809111611ab15790565b156122b057565b60405162461bcd60e51b815260206004820152602c60248201527f546f6b656e206973206e6f7420617661696c61626c6520696e2070726976617460448201526b329031b7b63632b1ba34b7b760a11b6064820152608490fd5b80516001600160a01b03165f81815260056020908152604090912092018051939897969491939092612349916107f691906001600160601b0316610799565b926040958651996306fdde0360e01b8b525f9a8b81600481875afa90811561041e57611f8d61075461238d938f938461238895926124dc57505061180e565b6122a9565b6123cb60206123a387516001600160601b031690565b8a5163bd85b03960e01b81526001600160601b03909116600482015291829081906024820190565b0381875afa801561041e578588916123ea938f916124be575b5061434a565b966123fc86516001600160601b031690565b92843b156124ba578c939291612426918b51978895869563731133e960e01b875260048701611f35565b038183855af1801561041e5761244f938793610e4f926124a7575b50516001600160601b031690565b03915afa93841561041e576101eb979461247c575b50506080015161219e906001600160401b0316612192565b61219e92945061249e6121929282608093903d10610ee057610ed181836104a1565b50949250612464565b80611e4e6124b492610473565b5f612441565b8c80fd5b6124d6915060203d811161084b5761083c81836104a1565b5f6123e4565b6124f092503d8091833e61041081836104a1565b8f8061074d565b156124fe57565b60405162461bcd60e51b815260206004820152602a60248201527f466163746f7279313135353a2054686973206973206e6f7420746865206669726044820152691cdd0818dbdb1b1958dd60b21b6064820152608490fd5b1561255d57565b60405162461bcd60e51b815260206004820152601e60248201527f466163746f7279313135353a20496e76616c6964207369676e617475726500006044820152606490fd5b908160209103126101da575180151581036101da5790565b9392916020916125d291604087526040870191611b65565b930152565b156125de57565b60405162461bcd60e51b815260206004820152601b60248201527f466163746f7279313135353a2077726f6e6720746f6b656e20696400000000006044820152606490fd5b1561262a57565b60405162461bcd60e51b815260206004820152601b60248201527f466163746f7279313135353a2077726f6e67207369676e54696d6500000000006044820152606490fd5b6020906126f19460018060a01b03906126ab826126a4612697865f52600660205260405f2090565b546001600160a01b031690565b16156124f7565b6126d06126cb6126ba87611790565b6126c388612a8d565b90848a61278c565b612556565b600a54956040519788948593849363096c872360e01b8552600485016125ba565b039186165afa90811561041e576127156020926101eb955f9161275f575b506125d7565b0190612728612723836117a6565b611a97565b426001600160601b03918216109283612744575b505050612623565b612750919293506117a6565b9160a01c9116115f808061273c565b61277f9150843d8111612785575b61277781836104a1565b8101906125a2565b5f61270f565b503d61276d565b5f916127df60809260209596604051878101917f19457468657265756d205369676e6564204d6573736167653a0a3332000000008352603c820152603c81526127d481610486565b5190209236916113a9565b8481015160606040830151920151604051938452851a868401526040830152606082015282805260015afa1561041e575f516001600160a01b0390811691161490565b9035601e19823603018112156101da5701602081359101916001600160401b0382116101da5781360383136101da57565b9035601e19823603018112156101da5701602081359101916001600160401b0382116101da578160061b360383136101da57565b9190808252602080920192915f905b8282106128a4575050505090565b9091929360019085358152828601356128bc81611411565b820b818401526040908101950193920190612896565b9035601e19823603018112156101da5701602081359101916001600160401b0382116101da578160051b360383136101da57565b81835290916001600160fb1b0383116101da5760209260051b809284830137010190565b9190808252602080920192915f905b828210612947575050505090565b909192936001908535612959816101c9565b828060a01b031681526001600160601b0383870135612977816104e9565b16818401526040908101950193920190612939565b9035601e19823603018112156101da5701602081359101916001600160401b0382116101da578160081b360383136101da57565b9190808252602080920192915f905b8282106129dd575050505090565b9091929360019085358152828601358382015260408087013590612a00826104e9565b6001600160601b038092169083015260609081880135612a1f816104e9565b1690820152612a436080612a348189016115a4565b6001600160401b031690830152565b612a6260a0612a538189016104fa565b6001600160601b031690830152565b612a7260c0612a538189016104fa565b60e086810135908201526101009081019501939201906129cf565b604051612bb481612ba6602082019460208652612abd60408401612ab0836101ed565b6001600160a01b03169052565b612adc612acc602083016104fa565b6001600160601b03166060850152565b612b09612b96612b8b612af26040850185612822565b9390610100948560808a0152610140890191611b65565b92612b6e612b51612b34612b206060890189612822565b603f198c8a03810160a08e01529891611b65565b612b416080890189612853565b90888c84030160c08d0152612887565b612b5e60a08801886128d2565b90878b84030160e08c0152612906565b90612b7c60c0870187612853565b91868a850301908a015261292a565b9260e081019061298c565b91858403016101208601526129c0565b03601f1981018352826104a1565b51902090565b90612bc4826113fa565b604090612bd3825191826104a1565b8381528093612be4601f19916113fa565b01905f92835b838110612bf8575050505050565b81519060608201918083106001600160401b038411176104525760209284528681528287818301528785830152828601015201612bea565b60405190612c3d82610437565b5f6020838281520152565b5f198114611ab15760010190565b919081101561129b5760061b0190565b3561036281611411565b80511561129b5760200190565b805182101561129b5760209160051b010190565b81810392915f138015828513169184121617611ab157565b9190915f8382019384129112908015821691151617611ab157565b15612ccb57565b60405162461bcd60e51b815260206004820152604360248201527f466163746f7279313135353a20746f20746f6b656e206861736820686173206e60448201527f6f74206265656e206d696e746564206f6e207468652063757272656e7420636860648201526230b4b760e91b608482015260a490fd5b156101da57565b90606982029180830460691490151715611ab157565b906402540be40091828102928184041490151715611ab157565b90670de0b6b3a764000091828102928184041490151715611ab157565b81810292918115918404141715611ab157565b815191680100000000000000008311610452578154838355808410612e44575b50612ddc6020809201925f5260205f2090565b5f925b848410612ded575050505050565b8051805160208201516040909201516001600160f01b031960f09190911b1669ffffffffffffffffffff60a01b60a09390931b929092166001600160a01b0390911617178255600193840193909101908201612ddf565b5f838152846020822092830192015b828110612e61575050612dc9565b818155600101612e53565b6060939280612e7a57505050565b909193505f612e8882612bba565b948592612e93612c30565b5082915b818310612ee0575050506101eb92612eb6617fff612edb931115612d42565b80516001600160a01b03165f908152600b602090815260409091206107999190610d35565b612da9565b91935091612f04610cb7612ef5868686612c56565b355f52600660205260405f2090565b80519094906001600160a01b031691602090612f3b612f2c838901516001600160601b031690565b69ffffffffffffffffffff1690565b93612f81612f5484612f4e878b8b612c56565b01612c66565b95612f6f612f606104dc565b6001600160a01b039094168452565b69ffffffffffffffffffff1682850152565b612f926040958683019060010b9052565b612f9c848c612c7d565b52612fa7838b612c7d565b505f612fc1612fbb84612f4e878b8b612c56565b60010b90565b1261308b57612fe290612fdc612fbb84612f4e878b8b612c56565b90612ca9565b955b516001600160a01b0316801515939084613017575b50505061300861300d92612cc4565b612c48565b9091869392612e97565b61304a945090829161302a858989612c56565b359151808097819463bd85b03960e01b8352600483019190602083019252565b03915afa801561041e5761300d93613008925f9261306e575b50501515925f612ff9565b6130849250803d1061084b5761083c81836104a1565b5f80613063565b6130a7906130a1612fbb84612f4e878b8b612c56565b90612c91565b95612fe4565b6001600160601b0360a08201511642106131a15761318160806130e5846107996020610d356107dd6101eb995160018060a01b031690565b92805184556020810151600185015561312c600261310d60408401516001600160601b031690565b95019485906001600160601b03166001600160601b0319825416179055565b61317361314360608301516001600160601b031690565b85546bffffffffffffffffffffffff60601b191660609190911b6bffffffffffffffffffffffff60601b16178555565b01516001600160401b031690565b81546001600160c01b031660c09190911b6001600160c01b031916179055565b60405162461bcd60e51b815260206004820152603060248201527f466163746f7279313135353a20746f6b656e2073616c652074696d652068617360448201526f081b9bdd081cdd185c9d1959081e595d60821b6064820152608490fd5b6040519061320c82610437565b600782526609682a892848a960cb1b6020830152565b6040519061322f82610437565b600282526130a960f21b6020830152565b6001600160a01b0390911681526060602082018190526103629391926132689184019061032c565b91604081840391015261032c565b9060a0820161329161328b610ce78386611332565b3561359e565b926001600160a01b0391828516853b156132ac575b50505050565b613370613364946133306132bf86611790565b916133086132d0610ce7888a611332565b60405160609590951b6001600160601b0319166020860152356034808601919091528452601f19936133036054826104a1565b61180e565b907f000000000000000000000000000000000000000000000000000000000000000016613505565b5061334f610ce761333f613222565b9561334988611790565b97611332565b35604051968791602083019190602083019252565b039081018652856104a1565b803b156101da5761339b935f80946040519687958694859363b2b45df560e01b855260048501613240565b03925af1801561041e576133b2575b8080806132a6565b80611e4e6133bf92610473565b5f6133aa565b60a0820192916133e26133db610ce78684611332565b3583613640565b936001600160a01b0380861690863b156133fe575b5050505050565b6133649461349b9161340f86611790565b9161347e613456613423610ce7898b611332565b60405160609690961b6001600160601b0319166020870152356034808701919091528552601f19946133036054826104a1565b837f000000000000000000000000000000000000000000000000000000000000000016613505565b50166134f15761334f610ce761333f613222565b61334988611790565b803b156101da576134c6935f80946040519687958694859363b2b45df560e01b855260048501613240565b03925af1801561041e576134de575b808080806133f7565b80611e4e6134eb92610473565b5f6134d5565b61334f610ce76134ff6131ff565b95613492565b6e5af43d82803e903d91602b57fd5bf390763d602d80600a3d3981f3363d3d373d3d3d363d7300000062ffffff8260881c16175f5260781b17602052603760095ff5906001600160a01b0382161561355957565b60405162461bcd60e51b815260206004820152601760248201527f455243313136373a2063726561746532206661696c65640000000000000000006044820152606490fd5b60436135c2605592604051905f602083015260348201526034815261330381610486565b6040513060388201526f5af43d82803e903d91602b57fd5bf3ff60248201527f00000000000000000000000000000000000000000000000000000000000000006001600160a01b03166014820152733d602d80600a3d3981f3363d3d373d3d3d363d73815260588101919091526037600c8201206078820152012090565b60405160609190911b6001600160601b031916602082015260348101919091526055906043906135c2906133038160548101612ba6565b6040519061368482610486565b600282526040366020840137565b9081518082526020808093019301915f5b8281106136b1575050505090565b8351855293810193928101926001016136a3565b926136ed61036295936136fb9360018060a01b03168652608060208701526080860190613692565b908482036040860152613692565b91606081840391015261032c565b90939192613715613677565b9261371e613677565b9484516001101561129b575f604086015261373885612c70565b5284516001101561129b57604085015261375184612c70565b526001600160a01b031690813b156101da575f809461378660405197889687958694630fbfeffd60e11b8652600486016136c5565b03925af1801561041e576137975750565b80611e4e6101eb92610473565b91908203918211611ab157565b81156137bb570490565b634e487b7160e01b5f52601260045260245ffd5b600a5460a01c420390428211611ab1576301e13380808301809311611ab1576305f5e10092838102938185041490151715611ab1576103629204906137b1565b8161381957505050565b7fe3efb4090b64f6dead06906e59a91359e0c1ca9cad88a633d749431442e5bebf91613852604051928392602084526020840191611b65565b0390a2565b908160209103126101da5751610362816101c9565b60208082019080835283518092528060408094019401925f905b83821061389557505050505090565b845180516001600160a01b031687528301516001600160601b0316868401529485019493820193600190910190613886565b8051806138d357505090565b9091506001036138fa576106ce6138ec61036292612c70565b51516001600160a01b031690565b60206139315f926139146106ce855460018060a01b031690565b906040519485809481936326b8692f60e21b83526004830161386c565b03925af190811561041e575f91613950575b506001600160a01b031690565b613971915060203d8111613977575b61396981836104a1565b810190613857565b5f613943565b503d61395f565b1561398557565b60405162461bcd60e51b815260206004820152601c60248201527f4665654d616e616765723a20696e73756666696369656e7420466565000000006044820152606490fd5b60010b617fff198114611ab1575f0390565b90919492946139f46139ed84612d49565b6064900490565b94613a018634101561397e565b8251600590613a5790613a31906001600160a01b03165b6001600160a01b03165f90815260046020526040902090565b95613a4b602097610799898901516001600160601b031690565b818154019055886137a4565b049687945f908315613c7957908694939291815b848110613c4257505f5b8b858210613bc857505050505050613ac792613aad613aba93613a189360018060a01b03165f52600360205260405f20908154019055565b516001600160a01b031690565b5f805260205260405f2090565b8181540190558151915f805b848110613b1057505050505090816101eb923411613af6575b5060025401600255565b613b03613b0991346137a4565b33613e2b565b505f613aec565b613b8f906040928382865f613b35612fbb85613b2c8686612c7d565b51015160010b90565b12613b9457613b5b613b7394612fdc612fbb613b6d96613b2c613b6697613b6697612c7d565b96613b2c868a612c7d565b61ffff1690565b86612d96565b50613b7e8185612c7d565b50613b898185612c7d565b50612c48565b613ad3565b613bc3613bb8613b73956130a1612fbb613b6d97613b2c613b6698613b6698612c7d565b97613b2c878b612c7d565b6139ca565b8596975084613c1585613c1061300894613c0a6110b289613c048a899f613c369d9e9f613bf98383613bfe93612c56565b611790565b9a612c56565b016117a6565b90612d96565b6137b1565b6001600160a01b039091165f90815260036020526040902080549091019055565b90879594939291613a75565b929394955090613c67613c6d91613c616110b285613c04888b8b612c56565b9061226b565b92612c48565b90879594939291613a6b565b506001600160a01b039093165f90815260036020526040902080548601905550909550613ac791613aba9150613a1890613aad565b15613cb557565b60405162461bcd60e51b8152602060048201526024808201527f4665654d616e616765723a204d6178696d756d20646973636f756e74206973206044820152633130302560e01b6064820152608490fd5b93919290613d168534101561397e565b84613d3a575b50505050803411613d2a5750565b613b03613d3791346137a4565b50565b6001600160601b031691613d52612710841115613cae565b5f9280613d7b575b50505090613d6b613d7192846137a4565b90613e2b565b505f808080613d1c565b613d9491929350613d8c9086612d96565b612710900490565b915f805b838110613e0557505f5b838110613dca575050505090613d6b82613dc2613d719460025401600255565b91925f613d5a565b8061300884613c1585613c10613dfa6110b26020613c04898e613df4613bf9613e009e838d612c56565b99612c56565b8b612d96565b613da2565b90613e20613e2691613c616110b26020613c04878a8a612c56565b91612c48565b613d98565b5f918291829182916001600160a01b03165af13d15610362573d613e4e8161138e565b90613e5c60405192836104a1565b81525f60203d92013e90565b60405190613e7582610457565b8160e05f918281528260208201528260408201528260608201528260808201528260a08201528260c08201520152565b613ead613e68565b5060e0908101805151918215613f84575f5b838110613f6157505f5b838110613f2d5760405162461bcd60e51b815260206004820152602f60248201527f4665654d616e616765723a2050726963696e67206973206e6f7420736574206f60448201526e37103a3434b99031b430b4b724b21760891b6064820152608490fd5b81613f39828551612c7d565b51015115613f4f57613f4a90612c48565b613ec9565b919050613f5d925051612c7d565b5190565b4682613f6e838651612c7d565b51015114613f4f57613f7f90612c48565b613ebf565b60405162461bcd60e51b815260206004820152601f60248201527f4665654d616e616765723a2050726963696e67206973206e6f74207365742e006044820152606490fd5b9060018083815b613fd957505050565b80613fe391614006565b91818116613ff5575b811c9182613fd0565b938261400091614006565b93613fec565b5f19828209828202908180821091039381850393670de0b6b3a764000091829109916706f05b59d3b1ffff83119514614075578310156101da577faccb18165bd6fe31ae1cf318dc5b51eee0e1ba569b88cd74c1773b91fac1066992828211900360ee1b910360121c17020190565b925050040190565b908061408d575061036290612d5f565b80821161409e575061036290612d5f565b6140a782612d5f565b91818103908111611ab157816140df6140d76140d2670de0b6b3a764000095613c106140e496612d79565b613fc9565b60021c612d5f565b612d96565b048101809111611ab15790565b90918061410357505061036290612d5f565b8082116141795780614115848461226b565b1161412557505061036290612d5f565b61416b816140df6141666141606140d284613c1061415b613c61996141568d6141506103629f612d5f565b9d61226b565b6137a4565b612d79565b60021c90565b612d5f565b670de0b6b3a7640000900490565b808092818061418787612d5f565b96614192908461226b565b9061419c916137a4565b6141a590612d79565b906141af916137b1565b6141b890613fc9565b926141c2916137a4565b6141cb90612d79565b906141d5916137b1565b6141de90613fc9565b6141e7916137a4565b60021c6141f390612d5f565b906141fd91612d96565b670de0b6b3a764000090046103629161226b565b1561421857565b60405162461bcd60e51b8152602060048201526024808201527f466163746f7279313135353a204d6178696d756d20737570706c7920726561636044820152633432b21760e11b6064820152608490fd5b81810292915f8212600160ff1b821416611ab1578184051490151715611ab157565b6001600160601b0360608301511642116142f557612fdc826142c86142c06110b260406142e89701516001600160601b031690565b841115614211565b60206142df6142d8858451612d96565b9480612d96565b91015190614269565b5f81121561036257505f90565b60405162461bcd60e51b815260206004820152602760248201527f466163746f7279313135353a20746f6b656e2073616c652074696d6520697320604482015266195e1c1a5c995960ca1b6064820152608490fd5b6001600160601b0360608401511642116142f5576142e89260206142df8361439661437887612fdc9761226b565b61438f6110b260408801516001600160601b031690565b1015614211565b6143c36143bc6143a7888751612d96565b97613c0a6143b5828661226b565b918561226b565b9180612d96565b906137a4565b81604051928392833781015f815203902090565b906143e781611790565b6143fd6143f76060840184611b33565b906143c9565b5f916001600160a01b0316847fc0d62261ee30fa727eab11180362380f5a2d6af2c9ec2b14537843182c7c58268480a46080820161443b8184611ae4565b919050825b828110614500575050507fb237134d29775150b1edf87af1dc343262244af7cbb474cfc64cb6e8824af6636144e360a0840161447c8186611332565b95905085156144fa57614492610ce78383611332565b35945b60018711156144f15760026144b36144ad8585611332565b90611370565b35975b11156144e857506144d0916144ca91611332565b9061137f565b35945b6040519081529081906020820190565b0390a4565b915050946144d3565b600281976144b6565b84614495565b8085877f8e02102e2b8cc364a650b1d50e19bf3bb3df2f5c5f3a9ad3dc8413b6a99d37936145676145526020612f4e876145458b61454b61456f9c614545838d611ae4565b90612c56565b3599611ae4565b60405160019190910b81529081906020820190565b0390a3612c48565b61444056fea2646970667358221220b47576ad4b6a23f46a8a9833e7b228ea5abe17a1d64891a8dab51c26b1b35f7f64736f6c6343000815003360a0346200010757602081016001600160401b03811182821017620000f3576040525f809152620000326002546200010b565b601f8111620000b2575b50806002556200004e6004546200010b565b601f81116200008e575b5f60045533608052604051612b7690816200015f8239608051818181610eb9015281816110a4015281816115a10152611d490152f35b601f6020836004620000aa955220910160051c81019062000146565b5f8062000058565b60028252620000ec90601f0160051c7f405787fa12a823e0f2b7631cc41b3ba8828b3321ca811111fa75cd3aa3bb5ace9081019062000146565b5f6200003c565b634e487b7160e01b5f52604160045260245ffd5b5f80fd5b90600182811c921680156200013b575b60208310146200012757565b634e487b7160e01b5f52602260045260245ffd5b91607f16916200011b565b81811062000152575050565b5f81556001016200014656fe60806040526004361015610011575f80fd5b5f3560e01c8062fdd58e1461219d57806301ffc9a71461211557806306fdde031461206d5780630e89341c1461203a5780631f7fdffa14611cc65780632a55205a14611c1c5780632eb2c2d6146118805780634e1273f4146116e35780634f558e79146116b75780635944c753146115655780636b20c4541461132e578063731133e91461105e578063862440e214610e655780638da5cb5b14610e3957806395d89b4114610d58578063a22cb46514610c78578063b2b45df5146107f6578063bd85b039146107cc578063e923314814610762578063e985e9c514610710578063f242432a146103105763f5298aca1461010a575f80fd5b3461030c57606036600319011261030c576101236121cc565b60249060448035916001600160a01b031690833533831480156102e7575b61014a9061248e565b821592610157841561275b565b61016082612736565b9161016a86612736565b945f6040516101788161224b565b52610290575b5f5b8351811015610214576101938185612466565b5161019e8288612466565b5190805f526003602081815260405f2054928484106101d357906101ce95949392915f52520360405f2055612458565b610180565b506084905f80516020612b218339815191528a60288f6040519462461bcd60e51b8652600486015284015282015267616c537570706c7960c01b6064820152fd5b5f838389818452836020526040842083855260205280604085205461023b828210156127b3565b838652856020526040862085875260205203604085205560405191825260208201527fc3d58168c5ae7397731d063d5bbf3d657854427343f4c083240f7aacaa2d0f6260403392a461028e60405161224b565b005b94919592905f5b87518110156102dc57806102ae6102d79288612466565b516102b9828b612466565b515f5260036020526102d060405f209182546125aa565b9055612458565b610297565b50909295919461017e565b50825f52600160205260405f20335f5260205261014a60ff60405f2054169050610141565b5f80fd5b3461030c5760a036600319011261030c576103296121cc565b6103316121e2565b6084356001600160401b03811161030c57610350903690600401612387565b6001600160a01b039190838316331480156106e9575b61036f9061248e565b8282161561037d81156124f1565b610388604435612736565b90610394606435612736565b90858716156106ae575b61060a575b6044355f525f60205260405f208587165f5260205260405f20546103cb60643582101561254b565b6044355f90815260208181526040808320898b1684529091528082206064359384900390558688168252902080549091610404916125aa565b90556040516044358152606435602082015285851690868816907fc3d58168c5ae7397731d063d5bbf3d657854427343f4c083240f7aacaa2d0f6260403392a482516105b1575b5050813b61045557005b6020916104a0915f6040519586809581948363f23a6e6160e01b9b8c85523360048601521660248401526044356044840152606435606484015260a0608484015260a48301906122a8565b0393165af15f9181610580575b50610519576104ba612659565b6308c379a0146104e2575b60405162461bcd60e51b8152806104de600482016126e1565b0390fd5b6104ea612674565b806104f557506104c5565b60405162461bcd60e51b8152602060048201529081906104de9060248301906122a8565b6001600160e01b0319160361052a57005b60405162461bcd60e51b815260206004820152602860248201527f455243313135353a204552433131353552656365697665722072656a656374656044820152676420746f6b656e7360c01b6064820152608490fd5b6105a391925060203d6020116105aa575b61059b8183612266565b810190612639565b90836104ad565b503d610591565b5f80516020612b01833981519152916106006105f26105e4936040519485943386526080602087015260808601906123a5565b9084820360408601526123a5565b8281036060840152856122a8565b0390a1848061044b565b94919390925f5b84518110156106a3576106248186612466565b51906106308189612466565b51825f52600360205260405f20548181106106605761065b935f5260036020520360405f2055612458565b610611565b60405162461bcd60e51b815260206004820152602860248201525f80516020612b21833981519152604482015267616c537570706c7960c01b6064820152608490fd5b5092909391946103a3565b9491939095925f5b85518110156106dd57806106cd6106d8928a612466565b516102b98289612466565b6106b6565b5092959093919461039e565b508284165f52600160205260405f20335f5260205261036f60ff60405f2054169050610366565b3461030c57604036600319011261030c576107296121cc565b6107316121e2565b9060018060a01b038091165f52600160205260405f2091165f52602052602060ff60405f2054166040519015158152f35b3461030c5760208060031936011261030c576001600160601b03600435818116810361030c575b81811690815f526003845260405f2054156107c257508181146107ae57600101610789565b634e487b7160e01b5f52601160045260245ffd5b6040519216825250f35b3461030c57602036600319011261030c576004355f526003602052602060405f2054604051908152f35b3461030c57606036600319011261030c5761080f6121cc565b6001600160401b039060243582811161030c57610830903690600401612387565b9160443581811161030c57610849903690600401612387565b9060069081549260ff8460081c161595868097610c6b575b8015610c54575b15610bf857600194878660ff198316178655610be7575b508051838111610adb57806108956009546121f8565b92601f93848111610b79575b50602090848311600114610afa575f92610aef575b50505f19600383901b1c191690861b176009555b8151928311610adb5782916108e0600a546121f8565b828111610a6b575b5060209183116001146109ec575f926109e1575b50505f19600383901b1c191690831b17600a555b80549260ff8460081c16156109885762010000600160b01b0360109190911b1662010000600160b01b03198416811782559361094857005b610100600160b01b031990921690921790556040519081527f7f26b83ff96e1f2b6a682f133852f6798a09c465da95921460cefb384740249890602090a1005b60405162461bcd60e51b815260206004820152602b60248201527f496e697469616c697a61626c653a20636f6e7472616374206973206e6f74206960448201526a6e697469616c697a696e6760a81b6064820152608490fd5b0151905086806108fc565b90859350601f19831691600a5f527fc65a7bb8d6351c1cf70c95a316cc6a92839c986682d98bc35f958f4883f9d2a8925f5b818110610a5357508411610a3b575b505050811b01600a55610910565b01515f1960f88460031b161c19169055868080610a2d565b82840151855588969094019360209384019301610a1e565b90919250600a5f527fc65a7bb8d6351c1cf70c95a316cc6a92839c986682d98bc35f958f4883f9d2a88380860160051c82019260208710610ad2575b91869589929594930160051c01915b828110610ac45750506108e8565b5f8155869550889101610ab6565b92508192610aa7565b634e487b7160e01b5f52604160045260245ffd5b0151905089806108b6565b90889350601f1983169160095f527f6e1540171b6c0c960b71a7020d9f60077f6af931a8bbf590da0223dacf75c7af925f5b818110610b6157508411610b49575b505050811b016009556108ca565b01515f1960f88460031b161c19169055898080610b3b565b8284015185558b969094019360209384019301610b2c565b90915060095f527f6e1540171b6c0c960b71a7020d9f60077f6af931a8bbf590da0223dacf75c7af8480850160051c82019260208610610bde575b918a91869594930160051c01915b828110610bd05750506108a1565b5f81558594508a9101610bc2565b92508192610bb4565b61ffff19166101011784558761087f565b60405162461bcd60e51b815260206004820152602e60248201527f496e697469616c697a61626c653a20636f6e747261637420697320616c72656160448201526d191e481a5b9a5d1a585b1a5e995960921b6064820152608490fd5b50303b1580156108685750600160ff861614610868565b50600160ff861610610861565b3461030c57604036600319011261030c57610c916121cc565b6024359081151580920361030c576001600160a01b031690338214610d0157335f52600160205260405f20825f5260205260405f2060ff1981541660ff83161790556040519081527f17307eab39ab6107e8899845ad3d59bd9653f200f220920489ca2b5937696c3160203392a3005b60405162461bcd60e51b815260206004820152602960248201527f455243313135353a2073657474696e6720617070726f76616c20737461747573604482015268103337b91039b2b63360b91b6064820152608490fd5b3461030c575f36600319011261030c57604051600a545f82610d79836121f8565b918282526020936001908582821691825f14610e19575050600114610dbe575b50610da692500383612266565b610dba6040519282849384528301906122a8565b0390f35b849150600a5f527fc65a7bb8d6351c1cf70c95a316cc6a92839c986682d98bc35f958f4883f9d2a8905f915b858310610e01575050610da6935082010185610d99565b80548389018501528794508693909201918101610dea565b60ff191685820152610da695151560051b8501019250879150610d999050565b3461030c575f36600319011261030c5760065460405160109190911c6001600160a01b03168152602090f35b3461030c57604036600319011261030c576001600160401b0360043560243582811161030c573660238201121561030c5780600401359083821161030c57366024838301011161030c57610ef191610ee7337f00000000000000000000000000000000000000000000000000000000000000006001600160a01b03161461280b565b6024369201612342565b91815f526020906005825260405f20908451908111610adb57610f1482546121f8565b601f811161101b575b5082601f8211600114610f985781907f6bb7ff708619ba0610cba295a58592e0451dee2622938c8755667688daf3529b95965f92610f8d575b50508160011b915f199060031b1c19161790555b610f73836128c3565b90610f886040519282849384528301906122a8565b0390a2005b015190508680610f56565b601f19821695835f52845f20965f5b8181106110045750917f6bb7ff708619ba0610cba295a58592e0451dee2622938c8755667688daf3529b969791846001959410610fec575b505050811b019055610f6a565b01515f1960f88460031b161c19169055868080610fdf565b838301518955600190980197928601928601610fa7565b825f52835f20601f830160051c810191858410611054575b601f0160051c01905b8181106110495750610f1d565b5f815560010161103c565b9091508190611033565b3461030c57608036600319011261030c576110776121cc565b6064356001600160401b03811161030c57611096903690600401612387565b6001600160a01b036110cb337f000000000000000000000000000000000000000000000000000000000000000083161461280b565b80831615916110da831561286d565b6110e5602435612736565b916110f1604435612736565b945f5b845181101561111b578061110b6111169289612466565b516102b98288612466565b6110f4565b508593856112cf575b6024355f526020945f865260405f208484165f52865260405f2061114b60443582546125aa565b90556040516024358152604435878201525f858516917fc3d58168c5ae7397731d063d5bbf3d657854427343f4c083240f7aacaa2d0f6260403392a48451611285575b5050803b61119857005b5f91849160405180948193826111e063f23a6e6160e01b998a83523360048401528460248401526024356044840152604435606484015260a0608484015260a48301906122a8565b0393165af15f9181611266575b5061125357826111fb612659565b6308c379a01461121e5760405162461bcd60e51b8152806104de600482016126e1565b611226612674565b908161123257506104c5565b6104de60405192839262461bcd60e51b8452600484015260248301906122a8565b6001600160e01b03191603905061052a57005b61127e919250843d86116105aa5761059b8183612266565b90846111ed565b5f80516020612b01833981519152916112c56112b76105e49360405194859433865260808c87015260808601906123a5565b8281036060840152876122a8565b0390a1848061118e565b915f9391935b8351811015611324576112e88185612466565b51906112f48188612466565b51825f52600360205260405f20548181106106605761131f935f5260036020520360405f2055612458565b6112d5565b5091929092611124565b3461030c57606036600319011261030c576113476121cc565b6024906001600160401b0390823582811161030c5761136a9036906004016122e4565b91604490813590811161030c576113859036906004016122e4565b6001600160a01b03909216923384148015611540575b6113a49061248e565b83156113b0811561275b565b6113bd82518551146125b7565b5f6040516113ca8161224b565b52611514575b5f5b8151811015611466576113e58183612466565b516113f08286612466565b5190805f526003602081815260405f205492848410611425579061142095949392915f52520360405f2055612458565b6113d2565b60405162461bcd60e51b8152600481018390526028818d01525f80516020612b21833981519152818a015267616c537570706c7960c01b6064820152608490fd5b8382865f5b82518110156114d057806114826114cb9285612466565b5161148d8287612466565b5190805f5260205f815260405f20865f52815260405f2054916114b2848410156127b3565b5f525f815260405f2090865f52520360405f2055612458565b61146b565b50907f4a39dc06d4c0dbc64b70af90fd698a233a518aa5d07e595d983b8c0526c8f7fb6115065f94604051918291339583612614565b0390a461028e60405161224b565b925f9491945b8451811015611536578061110b6115319286612466565b61151a565b50929390936113d0565b50835f52600160205260405f20335f526020526113a460ff60405f205416905061139b565b3461030c57606036600319011261030c5761157e6121e2565b6044356001600160601b03811680910361030c576001600160a01b03916115c8337f000000000000000000000000000000000000000000000000000000000000000085161461280b565b612710821161165f57821691821561161a57604051926115e784612230565b8352602083019182526004355f52600860205260405f20925116906001600160601b0360a01b905160a01b161790555f80f35b60405162461bcd60e51b815260206004820152601b60248201527f455243323938313a20496e76616c696420706172616d657465727300000000006044820152606490fd5b60405162461bcd60e51b815260206004820152602a60248201527f455243323938313a20726f79616c7479206665652077696c6c206578636565646044820152692073616c65507269636560b01b6064820152608490fd5b3461030c57602036600319011261030c576004355f526003602052602060405f20541515604051908152f35b3461030c57604036600319011261030c576004356001600160401b0380821161030c573660238301121561030c57816004013590611720826122cd565b9261172e6040519485612266565b82845260209260248486019160051b8301019136831161030c57602401905b8282106118615750505060243590811161030c5761176f9036906004016122e4565b825181510361180a57825192611784846122cd565b936117926040519586612266565b8085526117a1601f19916122cd565b0136848601375f5b81518110156117f3576117ee906117de6001600160a01b036117cb8386612466565b51166117d78387612466565b51906123d8565b6117e88288612466565b52612458565b6117a9565b505050610dba6040519282849384528301906123a5565b60405162461bcd60e51b815260048101839052602960248201527f455243313135353a206163636f756e747320616e6420696473206c656e677468604482015268040dad2e6dac2e8c6d60bb1b6064820152608490fd5b81356001600160a01b038116810361030c57815290840190840161174d565b3461030c5760031960a03682011261030c5761189a6121cc565b906118a36121e2565b6044908135926001600160401b039384811161030c576118c79036906004016122e4565b6064803586811161030c576118e09036906004016122e4565b94608496873590811161030c576118fb903690600401612387565b6001600160a01b039489861633148015611bf5575b6119199061248e565b61192685518951146125b7565b8587161561193481156124f1565b868b1615611bb3575b611b04575b5f5b85518110156119cb578061195b6119c69288612466565b518c611967838d612466565b5191805f52826020925f845260405f208d82165f52845260405f2054906119908383101561254b565b835f525f85528d60405f2091165f5284520360405f20555f525f815260405f20908a8c165f52526102d060405f209182546125aa565b611944565b50888a989796949789604051887f4a39dc06d4c0dbc64b70af90fd698a233a518aa5d07e595d983b8c0526c8f7fb89808d1694169280611a0d87339583612614565b0390a48351611ab1575b873b611a1f57005b60405198899788968863bc197c8160e01b9d8e8a523360048b0152166024890152870160a0905260a48701611a53916123a5565b90848783030190870152611a66916123a5565b918483030190840152611a78916122a8565b03921691815a6020945f91f15f9181611a985750610519576104ba612659565b6105a391925060203d81116105aa5761059b8183612266565b5f80516020612b018339815191526040513381526080602082015280611afc611aee611ae0608084018d6123a5565b8381036040850152866123a5565b8281036060840152886122a8565b0390a1611a17565b979694905f9993999692965b8551811015611ba357611b238187612466565b51611b2e8289612466565b5190805f5260206003815260405f205491838310611b6357611b5e949392916003915f52520360405f2055612458565b611b10565b508b9067616c537570706c7960c01b8f5f80516020612b218339815191528e6040519462461bcd60e51b8652600486015260286024860152840152820152fd5b5090949697989298959195611942565b9996949895939291905f5b8a51811015611be657808b6102b982611bda611be1958f612466565b5192612466565b611bbe565b5090919293959894969961193d565b50858a165f52600160205260405f20335f5260205261191960ff60405f2054169050611910565b3461030c57604036600319011261030c576024356004355f52600860205260405f209060405191611c4c83612230565b546001600160a01b0380821680855260a09290921c6020850152929015611ca4575b6001600160601b03602082015116918281029281840414901517156107ae57604092612710915116918351928352046020820152f35b50604051611cb181612230565b600754838116825260a01c6020820152611c6e565b3461030c5760031960803682011261030c57611ce06121cc565b602491906001600160401b0390833582811161030c57611d049036906004016122e4565b91604494853582811161030c57611d1f9036906004016122e4565b95606492833590811161030c57611d3a903690600401612387565b926001600160a01b03611d70337f000000000000000000000000000000000000000000000000000000000000000083161461280b565b851693841597611d80891561286d565b611d8d88518b51146125b7565b5f5b8851811015611db65780611da6611db1928d612466565b516102b9828c612466565b611d8f565b508998979697611f8c575b5f5b8751811015611e0a5780611dda611e05928c612466565b51611de5828b612466565b515f5260205f815260405f20908a5f52526102d060405f209182546125aa565b611dc3565b5090919397959296855f6040517f4a39dc06d4c0dbc64b70af90fd698a233a518aa5d07e595d983b8c0526c8f7fb339180611e468d8b83612614565b0390a48251611f47575b3b611e5757005b604051958694859463bc197c8160e01b998a87523360048801528b87015f9052860160a0905260a48601611e8a916123a5565b90838683030190860152611e9d916123a5565b90838203016084840152611eb0916122a8565b03815a6020945f91f15f9181611f27575b506112535782611ecf612659565b6308c379a014611ef25760405162461bcd60e51b8152806104de600482016126e1565b611efa612674565b9081611f0657506104c5565b6104de60405192839262461bcd60e51b8452602060048501528301906122a8565b611f4091925060203d81116105aa5761059b8183612266565b9084611ec1565b5f80516020612b018339815191526040513381526080602082015280611f846112b7611f76608084018a6123a5565b83810360408501528c6123a5565b0390a1611e50565b9691959294905f9894985b845181101561202b57611faa8186612466565b51611fb58288612466565b5190805f526003602081815260405f205492848410611fea5790611fe595949392915f52520360405f2055612458565b611f97565b506084818f8e5f80516020612b218339815191528f602867616c537570706c7960c01b946040519662461bcd60e51b88526004880152860152840152820152fd5b50909492959196979397611dc1565b3461030c57602036600319011261030c57610dba6120596004356128c3565b6040519182916020835260208301906122a8565b3461030c575f36600319011261030c576040516009545f8261208e836121f8565b918282526020936001908582821691825f14610e195750506001146120ba5750610da692500383612266565b84915060095f527f6e1540171b6c0c960b71a7020d9f60077f6af931a8bbf590da0223dacf75c7af905f915b8583106120fd575050610da6935082010185610d99565b805483890185015287945086939092019181016120e6565b3461030c57602036600319011261030c5760043563ffffffff60e01b811680910361030c5760209063152a902d60e11b811490811561215a575b506040519015158152f35b636cdb3d1360e11b81149150811561218c575b811561217b575b508261214f565b6301ffc9a760e01b14905082612174565b6303a24d0760e21b8114915061216d565b3461030c57604036600319011261030c5760206121c46121bb6121cc565b602435906123d8565b604051908152f35b600435906001600160a01b038216820361030c57565b602435906001600160a01b038216820361030c57565b90600182811c92168015612226575b602083101461221257565b634e487b7160e01b5f52602260045260245ffd5b91607f1691612207565b604081019081106001600160401b03821117610adb57604052565b602081019081106001600160401b03821117610adb57604052565b90601f801991011681019081106001600160401b03821117610adb57604052565b5f5b8381106122985750505f910152565b8181015183820152602001612289565b906020916122c181518092818552858086019101612287565b601f01601f1916010190565b6001600160401b038111610adb5760051b60200190565b9080601f8301121561030c5760209082356122fe816122cd565b9361230c6040519586612266565b818552838086019260051b82010192831161030c578301905b828210612333575050505090565b81358152908301908301612325565b9291926001600160401b038211610adb576040519161236b601f8201601f191660200184612266565b82948184528183011161030c578281602093845f960137010152565b9080601f8301121561030c578160206123a293359101612342565b90565b9081518082526020808093019301915f5b8281106123c4575050505090565b8351855293810193928101926001016123b6565b6001600160a01b0316908115612400575f525f60205260405f20905f5260205260405f205490565b60405162461bcd60e51b815260206004820152602a60248201527f455243313135353a2061646472657373207a65726f206973206e6f742061207660448201526930b634b21037bbb732b960b11b6064820152608490fd5b5f1981146107ae5760010190565b805182101561247a5760209160051b010190565b634e487b7160e01b5f52603260045260245ffd5b1561249557565b60405162461bcd60e51b815260206004820152602e60248201527f455243313135353a2063616c6c6572206973206e6f7420746f6b656e206f776e60448201526d195c881bdc88185c1c1c9bdd995960921b6064820152608490fd5b156124f857565b60405162461bcd60e51b815260206004820152602560248201527f455243313135353a207472616e7366657220746f20746865207a65726f206164604482015264647265737360d81b6064820152608490fd5b1561255257565b60405162461bcd60e51b815260206004820152602a60248201527f455243313135353a20696e73756666696369656e742062616c616e636520666f60448201526939103a3930b739b332b960b11b6064820152608490fd5b919082018092116107ae57565b156125be57565b60405162461bcd60e51b815260206004820152602860248201527f455243313135353a2069647320616e6420616d6f756e7473206c656e677468206044820152670dad2e6dac2e8c6d60c31b6064820152608490fd5b909161262b6123a2936040845260408401906123a5565b9160208184039101526123a5565b9081602091031261030c57516001600160e01b03198116810361030c5790565b5f9060033d1161266557565b905060045f803e5f5160e01c90565b5f60443d106123a257604051600319913d83016004833e81516001600160401b03918282113d6024840111176126d0578184019485519384116126d8573d850101602084870101116126d057506123a292910160200190612266565b949350505050565b50949350505050565b60809060208152603460208201527f455243313135353a207472616e7366657220746f206e6f6e2d455243313135356040820152732932b1b2b4bb32b91034b6b83632b6b2b73a32b960611b60608201520190565b6040519061274382612230565b6001825260208201602036823782511561247a575290565b1561276257565b60405162461bcd60e51b815260206004820152602360248201527f455243313135353a206275726e2066726f6d20746865207a65726f206164647260448201526265737360e81b6064820152608490fd5b156127ba57565b60405162461bcd60e51b8152602060048201526024808201527f455243313135353a206275726e20616d6f756e7420657863656564732062616c604482015263616e636560e01b6064820152608490fd5b1561281257565b60405162461bcd60e51b815260206004820152602d60248201527f4b617469626568313135353a207265737472696374656420616363657373207460448201526c6f2074686520466163746f727960981b6064820152608490fd5b1561287457565b60405162461bcd60e51b815260206004820152602160248201527f455243313135353a206d696e7420746f20746865207a65726f206164647265736044820152607360f81b6064820152608490fd5b5f908152602090600582526040812090604051908091835492816128e6856121f8565b91828252878201966001968988821691825f14612ae2575050600114612aa4575b5061291492500382612266565b8051156129e957604051948593836004549161292f836121f8565b928181169081156129c85750600114612968575b505050506129596123a294839251938491612287565b0103601f198101835282612266565b909192969450600482527f8a35acfbc15ff81a39ae7d344fd709f28e8600b4aa8c65c6b64bfe7fe36bd19b5b8383106129b2575050506123a2946129599185010192945f80612943565b8054898401890152889650918701918101612994565b60ff1916888601525050508015150284010191506129596123a25f80612943565b5060405160025490949350849282612a00836121f8565b80865292828116908115612a825750600114612a26575b5050506123a292500382612266565b600281527f405787fa12a823e0f2b7631cc41b3ba8828b3321ca811111fa75cd3aa3bb5ace95935091905b818310612a6a5750506123a293508201015f8080612a17565b85548784018501529485019486945091830191612a51565b925050506123a294925060ff191682840152151560051b8201015f8080612a17565b915050835281868085208686915b858310612ac957505061291493508201015f612907565b8091929450548385880101520191018790868593612ab2565b60ff19168a5261291495151560051b85010192505f9150612907905056fe64b6d1b9c6726b4405acbd47f33ee45712403cd8422e6b9ccb562c0dec7965d4455243313135353a206275726e20616d6f756e74206578636565647320746f74a2646970667358221220128bbddd96550948309a9baa7605ba59814afbc1af9bb7e8d2f5b8e9735aa04164736f6c6343000815003360a03461007f57601f611bf738819003918201601f19168301916001600160401b038311848410176100835780849260209460405283398101031261007f57516001600160a01b038116810361007f57608052604051611b5f90816100988239608051818181610158015281816104890152818161050d01526106e70152f35b5f80fd5b634e487b7160e01b5f52604160045260245ffdfe608060408181526004918236101561002a575b505050361561001f575f80fd5b6100283461144b565b005b5f92833560e01c91826306fdde0314611099575081630d2ddb47146110665781630e89341c146109c8578163152dcd471461068457816320dc8ff714610609578163280976aa146105c45781632a31f6b41461053c5781632dd31000146104f85781633ccfd60b1461045257816395d89b41146104155781639791e504146103e95781639ae1a4bc1461025d578163d1aa25d014610240578163d73fe0aa146101b4578163ecbdbb321461010a575063f5dcdf96146100e95780610012565b346101065781600319360112610106576020906001549051908152f35b5080fd5b83833461010657816003193601126101065780516020810190630103c92b60e01b8252306024820152602481526060810181811067ffffffffffffffff8211176101a15783525183918291907f00000000000000000000000000000000000000000000000000000000000000005afa506101826112d0565b9160208380518101031261019e57506020809201519051908152f35b80fd5b634e487b7160e01b855260418652602485fd5b82843461019e578060031936011261019e57600180546101d381611176565b926101e085519485611154565b81845282815260207fb10e2d527612073b26eecdfd717e6a320cf44b4afac2b0732d9fcbe2b7fa0cf68186015b848410610225578751806102218982611275565b0390f35b8583819261023285611408565b81520192019301929061020d565b833461019e578060031936011261019e5761025a4761144b565b80f35b8383346101065761026d3661118e565b9181516020810190610291816102838785611275565b03601f198101835282611154565b519020926102a03085306112ff565b6001600160a01b0380821695913b156102be575b6020868651908152f35b845191867fde03f54489aeeaa8f8e262296d61a01b0a41b770fae1d2b27d960a7e593de3858680a2763d602d80600a3d3981f3363d3d373d3d3d363d7300000062ffffff3060881c161785526e5af43d82803e903d91602b57fd5bf33060781b176020526037600986f516156103a85750833b156101065790806103549284518094819263152dcd4760e01b8352898301611275565b038183885af1801561039c5761036c575b80806102b4565b67ffffffffffffffff821161038957506020935081528380610365565b634e487b7160e01b815260418552602490fd5b508251903d90823e3d90fd5b62461bcd60e51b8152602086820152601760248201527f455243313136373a2063726561746532206661696c65640000000000000000006044820152606490fd5b82843461019e57602036600319011261019e5750610409602092356113a1565b505460a01c9051908152f35b50503461010657816003193601126101065780516102219161043682611124565b60058252641cdc1b1a5d60da1b602083015251918291826110dd565b919050346104f457826003193601126104f457828082516020810190633ccfd60b60e01b825285815261048481611124565b5190827f00000000000000000000000000000000000000000000000000000000000000005af16104b26112d0565b50156104bc578280f35b906020606492519162461bcd60e51b83528201526012602482015271556e61626c6520746f20776974686472617760701b6044820152fd5b8280fd5b505034610106578160031936011261010657517f00000000000000000000000000000000000000000000000000000000000000006001600160a01b03168152602090f35b919050346104f457806003193601126104f45781356001600160a01b03811681036105c057836024359367ffffffffffffffff85116101065736602386011215610106578401359361059961059086611259565b94519485611154565b8484523660248683010111610106578461025a9560246020930183870137840101526118bd565b8380fd5b505034610106576020906105f86105da3661118e565b82516105ed816102838782019485611275565b5190203090306112ff565b90516001600160a01b039091168152f35b919050346104f45760203660031901126104f45781356001600160a01b03811681036105c05761063890611635565b15610641578280f35b906020606492519162461bcd60e51b8352820152601960248201527f53706c69743a2045524332302073706c6974206661696c6564000000000000006044820152fd5b919050346104f4576106953661118e565b9083549060ff8260081c1615938480956109bb575b80156109a4575b1561094b57600192858460ff19831617885561093a575b5060028451106108f85760078451116108b65785936001600160a01b037f000000000000000000000000000000000000000000000000000000000000000081169086865b610791575b50505050506dffffffffffffffffffffffff000085549360101b1693846dffffffffffffffffffffffff000019851617865561074b578480f35b7f7f26b83ff96e1f2b6a682f133852f6798a09c465da95921460cefb3847402498936020936dffffffffffffffffffffffffff00191617855551908152a15f8080808480f35b83518110156108b1576001600160601b03976020908980836107b3868a611379565b5101511691160189811161089e57986107cc8387611379565b5189546801000000000000000081101561088b57808b6107ee92018c556113a1565b9190916108795780519084015160a01b6001600160a01b031916908616179055889594939261087092909186918e9187917fc3d58168c5ae7397731d063d5bbf3d657854427343f4c083240f7aacaa2d0f62918d91908161085d898c610854828c611379565b51511699611379565b51015116825191868352820152a4611357565b9091929361070c565b634e487b7160e01b8e528d895260248efd5b634e487b7160e01b8e526041895260248efd5b634e487b7160e01b8c526011875260248cfd5b610711565b6020606492519162461bcd60e51b8352820152601a60248201527f53706c69743a20546f6f206d616e7920726563697069656e74730000000000006044820152fd5b6020606492519162461bcd60e51b8352820152601960248201527f53706c69743a20546f6f2066657720726563697069656e7473000000000000006044820152fd5b61ffff19166101011786555f6106c8565b6020608492519162461bcd60e51b8352820152602e60248201527f496e697469616c697a61626c653a20636f6e747261637420697320616c72656160448201526d191e481a5b9a5d1a585b1a5e995960921b6064820152fd5b50303b1580156106b15750600160ff8416146106b1565b50600160ff8416106106aa565b8383346101065760203660031901126101065782356101065780519161056083019083821067ffffffffffffffff83111761038957506102219350815261053182527f646174613a6170706c69636174696f6e2f6a736f6e3b6261736536342c65794a60208301527f755957316c496a6f695332463061574a6c61434254634778706448526c636949818301527f73496d526c63324e796158423061573975496a6f69564768706379424462323560608301527f30636d466a6443425463477870644342356233567949455a31626d527a49486460808301527f6f61585167575739316369427a614746795a5342496232786b5a57567963793460a08301527f694c434a706257466e5a534936496d526864474536615731685a32557663335a60c08301527f6e4b3368746244746959584e6c4e6a51735545684f4d6c7035516a4a6856315960e08301527f7a555730354e4642545358644a5245466e5456525a645531455157644e56466c6101008301527f315455524261556c4961485269527a563655464e4b62325249556e64506154686101208301527f325a444e6b4d3078755933704d62546c35576e6b34655531455158644d4d30346101408301527f79576e6c4a5a31707462484e695244427053587042643031455158644e51306c6101608301527f6e57544a3461474d7a54546c4a625570775355644b63457859546e42614d6a566101808301527f33596a4e4f4d457859546e64695232777753576c434d474e74526e566a4d6c706101a08301527f32593230774f556c744d57686b534570775a554e6e654578445158644d5130466101c08301527f3354454e42654578445158644d5130463353314e4a5a324d7a556e6c694d6e526101e08301527f7355464e4a616b31455158644e5245463353576c43656d5249536e5a684d6c566102008301527f305a444a73613252485a7a6c4a616b4631545552426430315557576c51616e686102208301527f755355647361314254536c525761325254576c6843646c6779536d35524d6b5a6102408301527f355932317362474e705357646a4d314a35596a4a30624578595a48426153464a6102608301527f7655464e4a64306c714e44684d4d6d4d725545646a5a32465855546c4a6245356102808301527f58556a464b62474e484f575a6b5345706f57544a5765564579526e6c6a6257786102a08301527f7359326c4a5a324d7a556e6c694d6e52735446643463474a74566d705a5745456102c08301527f355357354b646d52584e57744a61554a365a45684b646d4579565852695232786102e08301527f31576c6477646d46584e446c4a626b70325a46633161306c70516e706b5345706103008301527f3259544a564f556c70546b52524d4535455554424e61556c49546a426a62546c6103208301527f79576c4d784d324658556a42685244427054554d30655539455a326c51616e646103408301527f32576e6f304f467035516e4261524442705654466153465674566e64694d546c6103608301527f775754493564564579526e6c6a6257787359326c4a4b306c456548645a57464a6103808301527f76535564524f556c724d444e4a5247525854564d304d453155556d684e5530466103a08301527f34535552425a3031445158684a52456c6e54555a5a65574645566d684e5530466103c08301527f34535552425a3031445158684a517a51305447705363307871617a4e4f5530466103e08301527f345447704f614578715658564f55304633535552425a3031545158644a517a516104008301527f79564552464d4578715a32644f557a5179575652465a3031545158644a5245466104208301527f6e54564d77645539444e44425452477779545652435355347a5758524f5657646104408301527f35575652465a3031545158644a5245466e54564d77645539444d48564f5258646104608301527f315457704a4d556c456133564e4d6b5631546c4d304d556c455157644e5130466104808301527f345355524264457871576b314e557a52355355526a645535465258684a5245566104a08301527f6e54554e4264306c455257644e6155457a595552574e6d4a555257644e4d566b6104c08301527f305530524b633078544e444e4f553046345645524a5a303155516d394f626e426104e08301527f3054554d774d574645576e4e4d616d4d7854465247545531555557644e4d47636105008301527f305a47704b4e6b6c714e44684d4d304a6f5a45646e4b306c4564335a61656a51610520830152703454444e4f4d6c70364e44306966513d3d60781b61054083015251918291826110dd565b82843461019e57602036600319011261019e5750611086602092356113a1565b505490516001600160a01b039091168152f35b849084346104f457826003193601126104f45761022192506110ba82611124565b601082526f25b0ba34b132b41029b83634ba3a32b960811b602083015251918291825b602080825282518183018190529093925f5b82811061111057505060409293505f838284010152601f8019910116010190565b8181018601518482016040015285016110ef565b6040810190811067ffffffffffffffff82111761114057604052565b634e487b7160e01b5f52604160045260245ffd5b90601f8019910116810190811067ffffffffffffffff82111761114057604052565b67ffffffffffffffff81116111405760051b60200190565b602090816003198201126112555760043567ffffffffffffffff81116112555781602382011215611255578060040135926111c884611176565b936040936111d885519687611154565b81865260248387019260061b8501019381851161125557602401915b8483106112045750505050505090565b85838303126112555785519061121982611124565b83356001600160a01b038116810361125557825284840135906001600160601b038216820361125557828692838a9501528152019201916111f4565b5f80fd5b67ffffffffffffffff811161114057601f01601f191660200190565b60208082019080835283518092528060408094019401925f905b83821061129e57505050505090565b845180516001600160a01b031687528301516001600160601b031686840152948501949382019360019091019061128f565b3d156112fa573d906112e182611259565b916112ef6040519384611154565b82523d5f602084013e565b606090565b916043916055936040519260388401526f5af43d82803e903d91602b57fd5bf3ff60248401526014830152733d602d80600a3d3981f3363d3d373d3d3d363d73825260588201526037600c8201206078820152012090565b5f1981146113655760010190565b634e487b7160e01b5f52601160045260245ffd5b805182101561138d5760209160051b010190565b634e487b7160e01b5f52603260045260245ffd5b60015481101561138d5760015f527fb10e2d527612073b26eecdfd717e6a320cf44b4afac2b0732d9fcbe2b7fa0cf601905f90565b6001541561138d5760015f527fb10e2d527612073b26eecdfd717e6a320cf44b4afac2b0732d9fcbe2b7fa0cf6905f90565b9060405161141581611124565b91546001600160a01b038116835260a01c6020830152565b8115611437570490565b634e487b7160e01b5f52601260045260245ffd5b806114535750565b5f90815f19908160015401805b6114c057505050037f1445764fe3fdfc2a9812ff42e9b65c2e7896d5162851f78f7d4a5578f7346ff160206114936113d6565b50546001600160a01b03906114ab9085908316611543565b6114b36113d6565b50541692604051908152a2565b806114d46114ce85936113a1565b50611408565b957f1445764fe3fdfc2a9812ff42e9b65c2e7896d5162851f78f7d4a5578f7346ff16001600160601b0361151960209180838c0151168a0290885460101c169061142d565b8093019860018060a01b03906115328583835116611543565b511692604051908152a20180611460565b8147106115d8575f918291829182916001600160a01b03165af16115656112d0565b501561156d57565b60405162461bcd60e51b815260206004820152603a60248201527f416464726573733a20756e61626c6520746f2073656e642076616c75652c207260448201527f6563697069656e74206d617920686176652072657665727465640000000000006064820152608490fd5b60405162461bcd60e51b815260206004820152601d60248201527f416464726573733a20696e73756666696369656e742062616c616e63650000006044820152606490fd5b90816020910312611255575180151581036112555790565b604080516370a0823160e01b81523060048083019190915290926001600160a01b03908116916020908186602481875afa5f968161185e575b5061167d575050505050505f90565b8515611854575f8019968760015401805b611754575083949596975003918291856116a66113d6565b5054895163a9059cbb60e01b815291166001600160a01b031691810191825260208201939093528290819060400103815f895af19081611727575b506116ef5750505050505f90565b7fe8de91d538b06154a2c48315768c5046f47e127d7fd3f726fd85cc723f29b052926117196113d6565b5054169451908152a3600190565b61174690843d861161174d575b61173e8183611154565b81019061161d565b505f6116e1565b503d611734565b6117606114ce826113a1565b906001600160601b03936117798588850151168561188d565b9015611844578787928b8d5f61179a6117d2968f9c835460101c169061142d565b96878095019b8a511692519687958694859363a9059cbb60e01b8552840160209093929193604081019460018060a01b031681520152565b03925af19081611827575b506117f15750505050505050505050505f90565b887fe8de91d538b06154a2c48315768c5046f47e127d7fd3f726fd85cc723f29b052888a8e965116938d51908152a3018061168e565b61183d90893d8b1161174d5761173e8183611154565b505f6117dd565b5050505050505050505050505f90565b5050505050505f90565b90968382813d8311611886575b6118758183611154565b8101031261019e575051955f61166e565b503d61186b565b919082156118b4576118a2818402938461142d565b036118ad5760019190565b5f91508190565b50600191505f90565b5f91825b6001548110156119b9576118d4816113a1565b50546001600160a01b0390811633146118f657506118f190611357565b6118c1565b905061190482939492611aae565b61196a5761196793169061191782611635565b50806040519361192685611124565b601e855260207f416464726573733a206c6f772d6c6576656c2063616c6c206661696c65640000818701528151910182855af16119616112d0565b91611a19565b50565b60405162461bcd60e51b815260206004820152602160248201527f53706c69743a20455243323020746f6b656e73206d7573742062652073706c696044820152601d60fa1b6064820152608490fd5b60405162461bcd60e51b815260206004820152603260248201527f53706c69743a2043616e206f6e6c792062652063616c6c6564206279206f6e65604482015271206f662074686520726563697069656e747360701b6064820152608490fd5b91929015611a7b5750815115611a2d575090565b3b15611a365790565b60405162461bcd60e51b815260206004820152601d60248201527f416464726573733a2063616c6c20746f206e6f6e2d636f6e74726163740000006044820152606490fd5b825190915015611a8e5750805190602001fd5b60405162461bcd60e51b8152908190611aaa90600483016110dd565b0390fd5b60049081815110611b23575f5b828110611aca57505050600190565b8151811015611b1057818101602001516001600160f81b031990811663095ea7b360e01b831a60f81b90911603611b0957611b0490611357565b611abb565b5050505f90565b603283634e487b7160e01b5f525260245ffd5b50505f9056fea2646970667358221220a48d532d8faca228fd98a42f86a2b95f11b827e3ac182c27c3b8f9b3baf4d1aa64736f6c63430008150033",
  "linkReferences": {},
  "deployedLinkReferences": {}
}