{
  "_format": "hh-sol-artifact-1",
  "contractName": "Factory1155",
  "sourceName": "contracts/katibeh1155/Factory1155.sol",
  "abi": [
    {
      "inputs": [
        {
          "internalType": "address",
          "name": "qhAddr",
          "type": "address"
        }
      ],
      "stateMutability": "nonpayable",
      "type": "constructor"
    },
    {
      "anonymous": false,
      "inputs": [
        {
          "indexed": true,
          "internalType": "uint256",
          "name": "tokenId",
          "type": "uint256"
        },
        {
          "indexed": true,
          "internalType": "uint256",
          "name": "toTokenId",
          "type": "uint256"
        }
      ],
      "name": "NewReply",
      "type": "event"
    },
    {
      "anonymous": false,
      "inputs": [
        {
          "indexed": true,
          "internalType": "uint256",
          "name": "tokenId",
          "type": "uint256"
        },
        {
          "indexed": true,
          "internalType": "address",
          "name": "creator",
          "type": "address"
        },
        {
          "indexed": true,
          "internalType": "bytes",
          "name": "data",
          "type": "bytes"
        },
        {
          "indexed": false,
          "internalType": "uint256",
          "name": "signTime",
          "type": "uint256"
        },
        {
          "indexed": false,
          "internalType": "uint256",
          "name": "initTime",
          "type": "uint256"
        },
        {
          "indexed": false,
          "internalType": "uint256",
          "name": "expTime",
          "type": "uint256"
        }
      ],
      "name": "NewToken",
      "type": "event"
    },
    {
      "anonymous": false,
      "inputs": [
        {
          "indexed": true,
          "internalType": "uint256",
          "name": "tokenId",
          "type": "uint256"
        },
        {
          "indexed": false,
          "internalType": "bytes",
          "name": "data",
          "type": "bytes"
        }
      ],
      "name": "TokenData",
      "type": "event"
    },
    {
      "inputs": [
        {
          "internalType": "uint256",
          "name": "",
          "type": "uint256"
        }
      ],
      "name": "_tokenCollection",
      "outputs": [
        {
          "internalType": "address",
          "name": "",
          "type": "address"
        }
      ],
      "stateMutability": "view",
      "type": "function"
    },
    {
      "inputs": [
        {
          "internalType": "address",
          "name": "",
          "type": "address"
        },
        {
          "internalType": "bytes32",
          "name": "",
          "type": "bytes32"
        }
      ],
      "name": "_userCollection",
      "outputs": [
        {
          "internalType": "address",
          "name": "",
          "type": "address"
        }
      ],
      "stateMutability": "view",
      "type": "function"
    },
    {
      "inputs": [
        {
          "internalType": "uint256",
          "name": "tokenId",
          "type": "uint256"
        },
        {
          "internalType": "bytes",
          "name": "data",
          "type": "bytes"
        },
        {
          "components": [
            {
              "internalType": "address",
              "name": "addr",
              "type": "address"
            },
            {
              "internalType": "uint16",
              "name": "share",
              "type": "uint16"
            }
          ],
          "internalType": "struct DataStorage.Payee[]",
          "name": "dapps",
          "type": "tuple[]"
        }
      ],
      "name": "collect",
      "outputs": [],
      "stateMutability": "payable",
      "type": "function"
    },
    {
      "inputs": [
        {
          "internalType": "uint256",
          "name": "tokenId",
          "type": "uint256"
        }
      ],
      "name": "fee",
      "outputs": [
        {
          "internalType": "uint256",
          "name": "",
          "type": "uint256"
        }
      ],
      "stateMutability": "view",
      "type": "function"
    },
    {
      "inputs": [
        {
          "internalType": "uint256",
          "name": "tokenId",
          "type": "uint256"
        },
        {
          "components": [
            {
              "internalType": "address",
              "name": "creator",
              "type": "address"
            },
            {
              "internalType": "uint256",
              "name": "signTime",
              "type": "uint256"
            },
            {
              "internalType": "uint256",
              "name": "initTime",
              "type": "uint256"
            },
            {
              "internalType": "uint256",
              "name": "expTime",
              "type": "uint256"
            },
            {
              "internalType": "string",
              "name": "tokenURI",
              "type": "string"
            },
            {
              "internalType": "bytes",
              "name": "data",
              "type": "bytes"
            },
            {
              "internalType": "uint256[]",
              "name": "toTokenId",
              "type": "uint256[]"
            },
            {
              "internalType": "bytes32[]",
              "name": "tags",
              "type": "bytes32[]"
            },
            {
              "components": [
                {
                  "internalType": "address",
                  "name": "addr",
                  "type": "address"
                },
                {
                  "internalType": "uint16",
                  "name": "share",
                  "type": "uint16"
                }
              ],
              "internalType": "struct DataStorage.Payee[]",
              "name": "owners",
              "type": "tuple[]"
            }
          ],
          "internalType": "struct DataStorage.Katibeh",
          "name": "katibeh",
          "type": "tuple"
        },
        {
          "internalType": "bytes",
          "name": "sig",
          "type": "bytes"
        },
        {
          "internalType": "bytes",
          "name": "data",
          "type": "bytes"
        }
      ],
      "name": "firstFreeCollect",
      "outputs": [],
      "stateMutability": "nonpayable",
      "type": "function"
    },
    {
      "inputs": [],
      "name": "implementation",
      "outputs": [
        {
          "internalType": "contract Katibeh1155",
          "name": "",
          "type": "address"
        }
      ],
      "stateMutability": "view",
      "type": "function"
    },
    {
      "inputs": [
        {
          "internalType": "address",
          "name": "creatorAddr",
          "type": "address"
        }
      ],
      "name": "predictCollectionAddr",
      "outputs": [
        {
          "internalType": "address",
          "name": "",
          "type": "address"
        }
      ],
      "stateMutability": "view",
      "type": "function"
    },
    {
      "inputs": [
        {
          "internalType": "address payable",
          "name": "newAddr",
          "type": "address"
        }
      ],
      "name": "setReceiver1",
      "outputs": [],
      "stateMutability": "nonpayable",
      "type": "function"
    },
    {
      "inputs": [
        {
          "internalType": "uint256",
          "name": "tokenId",
          "type": "uint256"
        }
      ],
      "name": "uri",
      "outputs": [
        {
          "internalType": "string",
          "name": "",
          "type": "string"
        }
      ],
      "stateMutability": "view",
      "type": "function"
    }
  ],
  "bytecode": "0x608034620000d4576001600160401b0390601f6200548938819003918201601f191683019184831184841017620000be57808492602094604052833981010312620000d457516001600160a01b03808216929091839003620000d4576040519061310e9081830190811183821017620000be5782916200237b833903906000f0908115620000b25760018060a01b0319911681600454161760045560055416176005556040516122a19081620000da8239f35b6040513d6000823e3d90fd5b634e487b7160e01b600052604160045260246000fd5b600080fdfe608080604052600436101561001357600080fd5b600090813560e01c908162797df814610c905750806303c1314814610b8557806307d32f2a14610a905780630e89341c146108fb5780631819b8551461088b57806339b37ab0146108465780635c60da1b146107f45780635fd099e6146107965763836f71e01461008357600080fd5b60607ffffffffffffffffffffffffffffffffffffffffffffffffffffffffffffffffc360112610793576004359067ffffffffffffffff906024803583811161078f576100d4903690600401611ca9565b94906044359285841161078b573660238501121561078b57836004013595861161078b57808401938136918860061b01011161078b578285526020956003875273ffffffffffffffffffffffffffffffffffffffff93846040882054166040517fbd85b03900000000000000000000000000000000000000000000000000000000815282600482015289818681855afa90811561078057899161074e575b50156106cb5761018182611e42565b94828952888a5261019860408a20544211156120b9565b85341061066e5785341161060d575b813b156105fe576040517f731133e900000000000000000000000000000000000000000000000000000000815233600482015260248101849052600160448201526080606482015260006084820152898160a48183875af18015610602576105ea575b5090828b8b9c9360049a9b9c946105a8575b505050604051978880927f8da5cb5b0000000000000000000000000000000000000000000000000000000082525afa95861561059d578896610561575b5087528688526001958660408920019384548a61027582612195565b966102836040519889611dbf565b828852818801908c528a828d20918d935b85851061052e57505050505050601481029080158183046014148117156105025761015e8083029283041417156104d6576102da906103e88091049204878a5416612226565b8890895b8b8582106104b05750508a8a5b8581106104695750505050505047948251978815600014610319575050505050610316929350612226565b80f35b90929450829193958791885b8a81106104385750887fffffffffffffffffffffffffffffffffffffffffffffffffffffffffffffffff8b019a8b1180965b6103aa575b50505050505061037f5750610316929361037591612212565b5151164790612226565b837f4e487b710000000000000000000000000000000000000000000000000000000081526011600452fd5b61040c5780898c8a93101561040457826103f2876103ed61ffff886103e3886103f8986103da826103fd9d612212565b51511697612212565b5101511689611e00565b6121ad565b90612226565b611feb565b8585610357565b50508561035c565b868a7f4e487b710000000000000000000000000000000000000000000000000000000081526011600452fd5b9281945061045b9061ffff61046193610451878c612212565b5101511690612205565b92611feb565b928493610325565b6103f8856103f2866103ed61ffff6104a26104a99861049c898f61049661049183838d6121e6565b612057565b996121e6565b016121f6565b1688611e00565b8b906102eb565b819361ffff6104ca61045b9361049c6104d1968b8b6121e6565b1690612205565b6102de565b848a7f4e487b710000000000000000000000000000000000000000000000000000000081526011600452fd5b858b7f4e487b710000000000000000000000000000000000000000000000000000000081526011600452fd5b82918c61ffff6040519161054183611da3565b8754908116835260a01c16838201528152019201920191908b908e610294565b9095508881813d8311610596575b6105798183611dbf565b8101031261059257518481168103610592579438610259565b8780fd5b503d61056f565b6040513d8a823e3d90fd5b7fe3efb4090b64f6dead06906e59a91359e0c1ca9cad88a633d749431442e5bebf916105df60405192839288845288840191611f58565b0390a282388061021c565b6105f48a91611d60565b6105fe573861020a565b8880fd5b6040513d8c823e3d90fd5b853403348111610640578980808093818b3414610637575b3390f16101a7576040513d8a823e3d90fd5b506108fc610625565b857f4e487b710000000000000000000000000000000000000000000000000000000060005260116004526000fd5b60648a601d87604051927f08c379a000000000000000000000000000000000000000000000000000000000845260048401528201527f466163746f7279313135353a20696e73756666696369656e74206665650000006044820152fd5b608489603586604051927f08c379a000000000000000000000000000000000000000000000000000000000845260048401528201527f466163746f7279313135353a207468697320636f6c6c656374696f6e2068617360448201527f206e6f7420636f6c6c6563746564206265666f726500000000000000000000006064820152fd5b90508981813d8311610779575b6107658183611dbf565b81010312610774575138610172565b600080fd5b503d61075b565b6040513d8b823e3d90fd5b8480fd5b8280fd5b80fd5b50346107935760207ffffffffffffffffffffffffffffffffffffffffffffffffffffffffffffffffc3601126107935773ffffffffffffffffffffffffffffffffffffffff6040602092600435815260038452205416604051908152f35b503461079357807ffffffffffffffffffffffffffffffffffffffffffffffffffffffffffffffffc36011261079357602073ffffffffffffffffffffffffffffffffffffffff60045416604051908152f35b50346107935760207ffffffffffffffffffffffffffffffffffffffffffffffffffffffffffffffffc360112610793576020610883600435611e42565b604051908152f35b50346107935760407ffffffffffffffffffffffffffffffffffffffffffffffffffffffffffffffffc36011261079357602090604073ffffffffffffffffffffffffffffffffffffffff91826108df611cd7565b1681526002845281812060243582528452205416604051908152f35b5034610793576020807ffffffffffffffffffffffffffffffffffffffffffffffffffffffffffffffffc360112610a8c5760043591828152600382528073ffffffffffffffffffffffffffffffffffffffff604082205416936024604051809681937f0e89341c00000000000000000000000000000000000000000000000000000000835260048301525afa928315610a7f5781936109af575b50506109ab604051928284938452830190611d1d565b0390f35b909192503d8083833e6109c28183611dbf565b810191838284031261079357815167ffffffffffffffff9283821161078f57019083601f83011215610793578151928311610a525760405193610a2c867fffffffffffffffffffffffffffffffffffffffffffffffffffffffffffffffe0601f8701160186611dbf565b838552858484010111610793575090610a4a91848085019101611cfa565b903880610995565b807f4e487b7100000000000000000000000000000000000000000000000000000000602492526041600452fd5b50604051903d90823e3d90fd5b5080fd5b50346107935760207ffffffffffffffffffffffffffffffffffffffffffffffffffffffffffffffffc360112610793576020610aca611cd7565b6055604373ffffffffffffffffffffffffffffffffffffffff92610b2c8460045416917fffffffffffffffffffffffffffffffffffffffff0000000000000000000000006040519160601b168782015260148152610b2781611da3565b612078565b604051913060388401526f5af43d82803e903d91602b57fd5bf3ff60248401526014830152733d602d80600a3d3981f3363d3d373d3d3d363d73825260588201526037600c820120607882015201209060405191168152f35b50346107935760207ffffffffffffffffffffffffffffffffffffffffffffffffffffffffffffffffc3601126107935760043573ffffffffffffffffffffffffffffffffffffffff80821680920361078f576001549081163303610c0c577fffffffffffffffffffffffff0000000000000000000000000000000000000000161760015580f35b60846040517f08c379a000000000000000000000000000000000000000000000000000000000815260206004820152603160248201527f4665654d616e616765723a206f6e6c79207265636569766572312063616e206360448201527f68616e67652069747320616464726573730000000000000000000000000000006064820152fd5b82346107935760807ffffffffffffffffffffffffffffffffffffffffffffffffffffffffffffffffc3601126107935767ffffffffffffffff60243511610793576101207ffffffffffffffffffffffffffffffffffffffffffffffffffffffffffffffffc602435360301126107935760443567ffffffffffffffff8111610a8c57610d20903690600401611ca9565b60649391933567ffffffffffffffff81116116c35782809281610d9e95610d4d6020953690600401611ca9565b97909973ffffffffffffffffffffffffffffffffffffffff60055416947f096c8723000000000000000000000000000000000000000000000000000000008452604060048501526044840191611f58565b600435602483015203915afa908115611c9e578391611c63575b5015611c0557610dd260c460243501602435600401611f97565b9050825b818110611a8f57505073ffffffffffffffffffffffffffffffffffffffff610e02602435600401612057565b168252600260205260408220610e2260e460243501602435600401611f97565b15611a6257358352602052604082205473ffffffffffffffffffffffffffffffffffffffff166119f2576004546e5af43d82803e903d91602b57fd5bf37fffffffffffffffffffffffffffffffffff000000000000000000000000000000610ecc610e91602435600401612057565b7fffffffffffffffffffffffffffffffffffffffff0000000000000000000000006040519160601b16602082015260148152610b2781611da3565b92763d602d80600a3d3981f3363d3d373d3d3d363d7300000062ffffff8260881c1617865260781b16176020526037600984f59073ffffffffffffffffffffffffffffffffffffffff821615611994578173ffffffffffffffffffffffffffffffffffffffff610f40602435600401612057565b168452600260205260408420610f6060e460243501602435600401611f97565b15611967573585526020526040842073ffffffffffffffffffffffffffffffffffffffff84167fffffffffffffffffffffffff000000000000000000000000000000000000000082541617905573ffffffffffffffffffffffffffffffffffffffff831692610fd3602435600401612057565b90610fe860e460243501602435600401611f97565b9290921561193a57604051923560208401526020835261100783611da3565b73ffffffffffffffffffffffffffffffffffffffff82163b1561193657869173ffffffffffffffffffffffffffffffffffffffff9183836040611084815198899788967fb2b45df5000000000000000000000000000000000000000000000000000000008852166004870152606060248701526064860190611d1d565b7f4b617469626568000000000000000000000000000000000000000000000000006020868303927ffffffffffffffffffffffffffffffffffffffffffffffffffffffffffffffffc840160448901526007815201520193165af180156117de57611923575b505b6040517fbd85b039000000000000000000000000000000000000000000000000000000008152600435600482015260208160248173ffffffffffffffffffffffffffffffffffffffff88165afa9081156117de5785916118f1575b5061186d5773ffffffffffffffffffffffffffffffffffffffff61116e602435600401612057565b1633036116e6575b6004358452600360205273ffffffffffffffffffffffffffffffffffffffff6040852091167fffffffffffffffffffffffff00000000000000000000000000000000000000008254161790556111d6608460243501602435600401612144565b73ffffffffffffffffffffffffffffffffffffffff84163b1561078b5761123d91859160405193849283927f862440e20000000000000000000000000000000000000000000000000000000084526004356004850152604060248501526044840191611f58565b03818373ffffffffffffffffffffffffffffffffffffffff88165af180156116db579084916116c7575b505061010460243501357fffffffffffffffffffffffffffffffffffffffffffffffffffffffffffffffdd6024353603018112156116c35760243501600481013567ffffffffffffffff811161078b578060061b80360360248401136116bf57604051926112d484611da3565b6064602435013584526112e683612195565b926112f46040519485611dbf565b8352602083019136602482840101116105925760248201925b602482840101841061165b5750505050602082019081526004358552846020526040852091518255519081519168010000000000000000831161162e576001820154836001840155808410611604575b50602060019101910185526020852085915b8383106115905750505050611388602435600401612057565b61139c60a460243501602435600401612144565b9081604051928392833781018681520390209073ffffffffffffffffffffffffffffffffffffffff60405191602480350135835260446024350135602084015260646024350135604084015216907f0b85051017293732c5b533b177efc66475411a9fdd5fbc8ecb619906658413d6606060043592a461142660c460243501602435600401611f97565b949050835b85811061153c5750839450816114f5575b505073ffffffffffffffffffffffffffffffffffffffff81163b156114f2576040517f731133e900000000000000000000000000000000000000000000000000000000815233600480830191909152356024820152600160448201526080606482015260006084820152908290829060a4908290849073ffffffffffffffffffffffffffffffffffffffff165af180156114e7576114d75750f35b6114e090611d60565b6107935780f35b6040513d84823e3d90fd5b50fd5b6115327fe3efb4090b64f6dead06906e59a91359e0c1ca9cad88a633d749431442e5bebf9160405191829160208352600435956020840191611f58565b0390a2838061143c565b8061155e61158b9261155860c460243501602435600401611f97565b90612018565b356004357f65327253f8d67c2e23cb4dfab28ca7437b04e9098cf4e985073d76df25209ad48880a3611feb565b61142b565b600160208282935173ffffffffffffffffffffffffffffffffffffffff8151167fffffffffffffffffffff0000000000000000000000000000000000000000000075ffff000000000000000000000000000000000000000085895494015160a01b169216171785550192019201919061136f565b60018301875260208720908482015b818301811061162357505061135d565b888155600101611613565b6024867f4e487b710000000000000000000000000000000000000000000000000000000081526041600452fd5b6040843603126105fe5760405161167181611da3565b843573ffffffffffffffffffffffffffffffffffffffff81168103610774578152602085013561ffff811690036116bb57602085810135828201529082526040909401930161130d565b8980fd5b8580fd5b8380fd5b6116d090611d60565b61078f578285611267565b6040513d86823e3d90fd5b6116f8606460243501354211156120b9565b6044602435013542106117e957611713602435600401612057565b73ffffffffffffffffffffffffffffffffffffffff84163b1561078b576040517f731133e900000000000000000000000000000000000000000000000000000000815273ffffffffffffffffffffffffffffffffffffffff90911660048083019190915235602482015260016044820152608060648201526000608482015284818060a4810103818373ffffffffffffffffffffffffffffffffffffffff89165af180156117de579085916117ca575b5050611176565b6117d390611d60565b6116c35783866117c3565b6040513d87823e3d90fd5b60846040517f08c379a000000000000000000000000000000000000000000000000000000000815260206004820152603060248201527f466163746f7279313135353a20746f6b656e2073616c652074696d652068617360448201527f206e6f74207374617274656420796574000000000000000000000000000000006064820152fd5b60846040517f08c379a000000000000000000000000000000000000000000000000000000000815260206004820152603760248201527f466163746f7279313135353a207468697320636f6c6c656374696f6e2068617360448201527f206265656e20616c726561647920636f6c6c65637465640000000000000000006064820152fd5b90506020813d60201161191b575b8161190c60209383611dbf565b81010312610774575186611146565b3d91506118ff565b61192f90949194611d60565b92856110e9565b8680fd5b6024877f4e487b710000000000000000000000000000000000000000000000000000000081526032600452fd5b6024867f4e487b710000000000000000000000000000000000000000000000000000000081526032600452fd5b60646040517f08c379a000000000000000000000000000000000000000000000000000000000815260206004820152601760248201527f455243313136373a2063726561746532206661696c65640000000000000000006044820152fd5b73ffffffffffffffffffffffffffffffffffffffff611a15602435600401612057565b168252600260205260408220611a3560e460243501602435600401611f97565b15611a625735835260205273ffffffffffffffffffffffffffffffffffffffff60408320541690816110eb565b6024847f4e487b710000000000000000000000000000000000000000000000000000000081526032600452fd5b611aa78161155860c460243501602435600401611f97565b358452600360205273ffffffffffffffffffffffffffffffffffffffff6040852054168015159081611b6c575b5015611ae857611ae390611feb565b610dd6565b60846040517f08c379a000000000000000000000000000000000000000000000000000000000815260206004820152603860248201527f466163746f7279313135353a20746f20746f6b656e20696420686173206e6f7460448201527f206d696e746564206f6e2063757272656e7420636861696e00000000000000006064820152fd5b90506020611b888361155860c460243501602435600401611f97565b356024604051809481937fbd85b03900000000000000000000000000000000000000000000000000000000835260048301525afa9081156117de578591611bd3575b50151586611ad4565b90506020813d602011611bfd575b81611bee60209383611dbf565b8101031261078b575186611bca565b3d9150611be1565b60646040517f08c379a000000000000000000000000000000000000000000000000000000000815260206004820152601b60248201527f466163746f7279313135353a2077726f6e6720746f6b656e20696400000000006044820152fd5b90506020813d602011611c96575b81611c7e60209383611dbf565b8101031261078f5751801515810361078f5784610db8565b3d9150611c71565b6040513d85823e3d90fd5b9181601f840112156107745782359167ffffffffffffffff8311610774576020838186019501011161077457565b6004359073ffffffffffffffffffffffffffffffffffffffff8216820361077457565b60005b838110611d0d5750506000910152565b8181015183820152602001611cfd565b907fffffffffffffffffffffffffffffffffffffffffffffffffffffffffffffffe0601f602093611d5981518092818752878088019101611cfa565b0116010190565b67ffffffffffffffff8111611d7457604052565b7f4e487b7100000000000000000000000000000000000000000000000000000000600052604160045260246000fd5b6040810190811067ffffffffffffffff821117611d7457604052565b90601f7fffffffffffffffffffffffffffffffffffffffffffffffffffffffffffffffe0910116810190811067ffffffffffffffff821117611d7457604052565b81810292918115918404141715611e1357565b7f4e487b7100000000000000000000000000000000000000000000000000000000600052601160045260246000fd5b600090808252600360205273ffffffffffffffffffffffffffffffffffffffff6040832054169081611ecb575b5050600060058211600014611ec657507ffffffffffffffffffffffffffffffffffffffffffffffffffffffffffffffffb8101908111611e135767016345785d8a000090818102918183041490151715611e135790565b905090565b6020906024604051809481937fbd85b03900000000000000000000000000000000000000000000000000000000835260048301525afa918215611f4c578092611f18575b50503880611e6f565b9091506020823d8211611f44575b81611f3360209383611dbf565b810103126107935750513880611f0f565b3d9150611f26565b604051903d90823e3d90fd5b601f82602094937fffffffffffffffffffffffffffffffffffffffffffffffffffffffffffffffe0938186528686013760008582860101520116010190565b9035907fffffffffffffffffffffffffffffffffffffffffffffffffffffffffffffffe181360301821215610774570180359067ffffffffffffffff821161077457602001918160051b3603831361077457565b7fffffffffffffffffffffffffffffffffffffffffffffffffffffffffffffffff8114611e135760010190565b91908110156120285760051b0190565b7f4e487b7100000000000000000000000000000000000000000000000000000000600052603260045260246000fd5b3573ffffffffffffffffffffffffffffffffffffffff811681036107745790565b60208151910151906020811061208c575090565b7fffffffffffffffffffffffffffffffffffffffffffffffffffffffffffffffff9060200360031b1b1690565b156120c057565b60846040517f08c379a000000000000000000000000000000000000000000000000000000000815260206004820152602760248201527f466163746f7279313135353a20746f6b656e2073616c652074696d652069732060448201527f65787069726564000000000000000000000000000000000000000000000000006064820152fd5b9035907fffffffffffffffffffffffffffffffffffffffffffffffffffffffffffffffe181360301821215610774570180359067ffffffffffffffff82116107745760200191813603831361077457565b67ffffffffffffffff8111611d745760051b60200190565b81156121b7570490565b7f4e487b7100000000000000000000000000000000000000000000000000000000600052601260045260246000fd5b91908110156120285760061b0190565b3561ffff811681036107745790565b91908201809211611e1357565b80518210156120285760209160051b010190565b6000808093819382908215612261575b73ffffffffffffffffffffffffffffffffffffffff1690f11561225557565b6040513d6000823e3d90fd5b6108fc915061223656fea26469706673582212205fa78d58fd774cfeb50da4377fdaa086e56b0bd230607be4435e5318fd45f74e64736f6c63430008130033608034620000e957602081016001600160401b03811182821017620000d357604052600080915262000033600254620000ee565b601f811162000092575b50806002556200004f600454620000ee565b601f81116200006e575b6000600455604051612fc99081620001458239f35b601f60208360046200008a955220910160051c8101906200012b565b388062000059565b60028252620000cc90601f0160051c7f405787fa12a823e0f2b7631cc41b3ba8828b3321ca811111fa75cd3aa3bb5ace908101906200012b565b386200003d565b634e487b7160e01b600052604160045260246000fd5b600080fd5b90600182811c9216801562000120575b60208310146200010a57565b634e487b7160e01b600052602260045260246000fd5b91607f1691620000fe565b81811062000137575050565b600081556001016200012b56fe6080604052600436101561001257600080fd5b60003560e01c8062fdd58e1461239157806301ffc9a7146122a157806306fdde03146121dd5780630e89341c146121a05780632eb2c2d614611ca15780634e1273f414611a805780634f558e7914611a345780636b20c4541461176f578063731133e914611541578063862440e2146112d65780638da5cb5b1461128157806395d89b411461115f578063a22cb46514611005578063b2b45df514610954578063bd85b0391461090a578063e985e9c514610888578063f242432a146103635763f5298aca146100e157600080fd5b3461035e5760607ffffffffffffffffffffffffffffffffffffffffffffffffffffffffffffffffc36011261035e576101186123de565b6024908135604473ffffffffffffffffffffffffffffffffffffffff81359316913383148015610335575b61014c906127c4565b8215926101598415612b3b565b61016282612b05565b9161016c86612b05565b94600060405161017b81612477565b526102db575b60005b835181101561025e576101978185612781565b516101a28288612781565b51908060005260036020818152604060002054928484106101db57906101d695949392916000525203604060002055612725565b610184565b506084907f455243313135353a206275726e20616d6f756e74206578636565647320746f748a60288f604051947f08c379a000000000000000000000000000000000000000000000000000000000865260048601528401528201527f616c537570706c790000000000000000000000000000000000000000000000006064820152fd5b6000838389818452836020526040842083855260205280604085205461028682821015612bc6565b838652856020526040862085875260205203604085205560405191825260208201527fc3d58168c5ae7397731d063d5bbf3d657854427343f4c083240f7aacaa2d0f6260403392a46102d9604051612477565b005b949195929060005b875181101561032a57806102fa6103259288612781565b51610305828b612781565b51600052600360205261031e6040600020918254612965565b9055612725565b6102e3565b509092959194610181565b5082600052600160205260406000203360005260205261014c60ff604060002054169050610143565b600080fd5b3461035e5760a07ffffffffffffffffffffffffffffffffffffffffffffffffffffffffffffffffc36011261035e5761039a6123de565b6103a2612401565b906084803567ffffffffffffffff811161035e576103c4903690600401612615565b9073ffffffffffffffffffffffffffffffffffffffff913383851614801561085d575b6103f0906127c4565b828516156103fe811561284f565b610409604435612b05565b610414606435612b05565b918587161561081d575b61072f575b505060443560005260209460008652604060002084861660005286526040600020546104536064358210156128da565b604435600052600087526040600020858716600052875260643590036040600020556044356000526000865260406000208482166000528652604060002061049e6064358254612965565b905560405160443581526064358782015284821690858716907fc3d58168c5ae7397731d063d5bbf3d657854427343f4c083240f7aacaa2d0f6260403392a4803b6104e557005b60a0600061054895889560405197889687958693857ff23a6e61000000000000000000000000000000000000000000000000000000009d8e87523360048801521660248601526044356044860152606435606486015284015260a48301906124f7565b0393165af160009181610700575b50610652575050600190610568612a5a565b6308c379a014610603575b5061057a57005b6040517f08c379a000000000000000000000000000000000000000000000000000000000815260206004820152603460248201527f455243313135353a207472616e7366657220746f206e6f6e2d4552433131353560448201527f526563656976657220696d706c656d656e7465720000000000000000000000006064820152608490fd5b0390fd5b61060b612a78565b90816106175750610573565b6105ff6040519283927f08c379a0000000000000000000000000000000000000000000000000000000008452600484015260248301906124f7565b7fffffffff00000000000000000000000000000000000000000000000000000000161490506102d9576040517f08c379a000000000000000000000000000000000000000000000000000000000815260206004820152602860248201527f455243313135353a204552433131353552656365697665722072656a6563746560448201527f6420746f6b656e730000000000000000000000000000000000000000000000006064820152608490fd5b610721919250843d8611610728575b6107198183612493565b810190612a22565b9084610556565b503d61070f565b92959194909360005b845181101561080e5761074b8186612781565b51906107578188612781565b5182600052600360205260406000205481811061078b5761078693600052600360205203604060002055612725565b610738565b8a6040517f08c379a000000000000000000000000000000000000000000000000000000000815260206004820152602860248201527f455243313135353a206275726e20616d6f756e74206578636565647320746f7460448201527f616c537570706c790000000000000000000000000000000000000000000000006064820152fd5b50935093909491508580610423565b959260009794919592975b865181101561084f578061083f61084a928b612781565b51610305828a612781565b610828565b50929596919490939661041e565b5082841660005260016020526040600020336000526020526103f060ff6040600020541690506103e7565b3461035e5760407ffffffffffffffffffffffffffffffffffffffffffffffffffffffffffffffffc36011261035e576108bf6123de565b6108c7612401565b9073ffffffffffffffffffffffffffffffffffffffff809116600052600160205260406000209116600052602052602060ff604060002054166040519015158152f35b3461035e5760207ffffffffffffffffffffffffffffffffffffffffffffffffffffffffffffffffc36011261035e5760043560005260036020526020604060002054604051908152f35b3461035e5760607ffffffffffffffffffffffffffffffffffffffffffffffffffffffffffffffffc36011261035e5761098b6123de565b60243567ffffffffffffffff811161035e576109ab903690600401612615565b9060443567ffffffffffffffff811161035e576109cc903690600401612615565b906006549060ff8260081c161591828093610ff8575b8015610fe1575b15610f5d578260017fffffffffffffffffffffffffffffffffffffffffffffffffffffffffffffff00831617600655610f2e575b50835167ffffffffffffffff8111610d9157610a3a600854612424565b601f8111610e8b575b50602094601f8211600114610dcb57948192939495600092610dc0575b50507fffffffffffffffffffffffffffffffffffffffffffffffffffffffffffffffff8260011b9260031b1c1916176008555b825167ffffffffffffffff8111610d9157610aaf600954612424565b601f8111610d2c575b506020601f8211600114610c6c5781929394600092610c61575b50507fffffffffffffffffffffffffffffffffffffffffffffffffffffffffffffffff8260011b9260031b1c1916176009555b337fffffffffffffffffffffffff000000000000000000000000000000000000000060075416176007556006549060ff8260081c1615610bdd5775ffffffffffffffffffffffffffffffffffffffff00009060101b1691827fffffffffffffffffffff0000000000000000000000000000000000000000ffff831617600655610b8a57005b7fffffffffffffffffffff000000000000000000000000000000000000000000ff16176006557f7f26b83ff96e1f2b6a682f133852f6798a09c465da95921460cefb3847402498602060405160018152a1005b60846040517f08c379a000000000000000000000000000000000000000000000000000000000815260206004820152602b60248201527f496e697469616c697a61626c653a20636f6e7472616374206973206e6f74206960448201527f6e697469616c697a696e670000000000000000000000000000000000000000006064820152fd5b015190508480610ad2565b7fffffffffffffffffffffffffffffffffffffffffffffffffffffffffffffffe082169060096000527f6e1540171b6c0c960b71a7020d9f60077f6af931a8bbf590da0223dacf75c7af9160005b818110610d1457509583600195969710610cdd575b505050811b01600955610b05565b01517fffffffffffffffffffffffffffffffffffffffffffffffffffffffffffffffff60f88460031b161c19169055848080610ccf565b9192602060018192868b015181550194019201610cba565b60096000527f6e1540171b6c0c960b71a7020d9f60077f6af931a8bbf590da0223dacf75c7af601f830160051c81019160208410610d87575b601f0160051c01905b818110610d7b5750610ab8565b60008155600101610d6e565b9091508190610d65565b7f4e487b7100000000000000000000000000000000000000000000000000000000600052604160045260246000fd5b015190508580610a60565b7fffffffffffffffffffffffffffffffffffffffffffffffffffffffffffffffe082169560086000527ff3f7a9fe364faab93b216da50a3214154f22a0a2b415b23a84c8169e8b636ee39160005b888110610e7357508360019596979810610e3c575b505050811b01600855610a93565b01517fffffffffffffffffffffffffffffffffffffffffffffffffffffffffffffffff60f88460031b161c19169055858080610e2e565b91926020600181928685015181550194019201610e19565b6008600052601f820160051c7ff3f7a9fe364faab93b216da50a3214154f22a0a2b415b23a84c8169e8b636ee3019060208310610f06575b601f0160051c7ff3f7a9fe364faab93b216da50a3214154f22a0a2b415b23a84c8169e8b636ee301905b818110610efa5750610a43565b60008155600101610eed565b7ff3f7a9fe364faab93b216da50a3214154f22a0a2b415b23a84c8169e8b636ee39150610ec3565b7fffffffffffffffffffffffffffffffffffffffffffffffffffffffffffff0000166101011760065584610a1d565b60846040517f08c379a000000000000000000000000000000000000000000000000000000000815260206004820152602e60248201527f496e697469616c697a61626c653a20636f6e747261637420697320616c72656160448201527f647920696e697469616c697a65640000000000000000000000000000000000006064820152fd5b50303b1580156109e95750600160ff8216146109e9565b50600160ff8216106109e2565b3461035e5760407ffffffffffffffffffffffffffffffffffffffffffffffffffffffffffffffffc36011261035e5761103c6123de565b6024359081151580920361035e5773ffffffffffffffffffffffffffffffffffffffff16908133146110db5733600052600160205260406000208260005260205260406000207fffffffffffffffffffffffffffffffffffffffffffffffffffffffffffffff0081541660ff83161790556040519081527f17307eab39ab6107e8899845ad3d59bd9653f200f220920489ca2b5937696c3160203392a3005b60846040517f08c379a000000000000000000000000000000000000000000000000000000000815260206004820152602960248201527f455243313135353a2073657474696e6720617070726f76616c2073746174757360448201527f20666f722073656c6600000000000000000000000000000000000000000000006064820152fd5b3461035e5760007ffffffffffffffffffffffffffffffffffffffffffffffffffffffffffffffffc36011261035e57604051600060095461119f81612424565b8084529060019081811690811561123c57506001146111e1575b6111dd846111c981860382612493565b6040519182916020835260208301906124f7565b0390f35b6009600090815292507f6e1540171b6c0c960b71a7020d9f60077f6af931a8bbf590da0223dacf75c7af5b8284106112245750505081016020016111c9826111b9565b8054602085870181019190915290930192810161120c565b7fffffffffffffffffffffffffffffffffffffffffffffffffffffffffffffff001660208087019190915292151560051b850190920192506111c991508390506111b9565b3461035e5760007ffffffffffffffffffffffffffffffffffffffffffffffffffffffffffffffffc36011261035e57602073ffffffffffffffffffffffffffffffffffffffff60065460101c16604051908152f35b3461035e5760407ffffffffffffffffffffffffffffffffffffffffffffffffffffffffffffffffc36011261035e5767ffffffffffffffff60043560243582811161035e573660238201121561035e5780600401359083821161035e57366024838301011161035e576113709161136673ffffffffffffffffffffffffffffffffffffffff600754163314612c50565b60243692016125b0565b9181600052602090600582526040600020908451908111610d91576113958254612424565b601f81116114fb575b5082601f82116001146114385781907f6bb7ff708619ba0610cba295a58592e0451dee2622938c8755667688daf3529b959660009261142d575b50507fffffffffffffffffffffffffffffffffffffffffffffffffffffffffffffffff8260011b9260031b1c19161790555b61141383612cdb565b906114286040519282849384528301906124f7565b0390a2005b0151905086806113d8565b7fffffffffffffffffffffffffffffffffffffffffffffffffffffffffffffffe082169583600052846000209660005b8181106114e45750917f6bb7ff708619ba0610cba295a58592e0451dee2622938c8755667688daf3529b9697918460019594106114ad575b505050811b01905561140a565b01517fffffffffffffffffffffffffffffffffffffffffffffffffffffffffffffffff60f88460031b161c191690558680806114a0565b838301518955600190980197928601928601611468565b8260005283600020601f830160051c810191858410611537575b601f0160051c01905b81811061152b575061139e565b6000815560010161151e565b9091508190611515565b3461035e5760807ffffffffffffffffffffffffffffffffffffffffffffffffffffffffffffffffc36011261035e576115786123de565b6044359060243560643567ffffffffffffffff811161035e5761159f903690600401612615565b9173ffffffffffffffffffffffffffffffffffffffff6115c481600754163314612c50565b81169182156116eb576115d681612b05565b926115e086612b05565b9560005b855181101561160b57806115fb611606928a612781565b516103058289612781565b6115e4565b5085836000526020946000865260406000208460005286526040600020611633848254612965565b905583600060405187815285898201527fc3d58168c5ae7397731d063d5bbf3d657854427343f4c083240f7aacaa2d0f6260403392a43b61167057005b6116cd92859260006040518096819582947ff23a6e61000000000000000000000000000000000000000000000000000000009a8b85523360048601528560248601526044850152606484015260a0608484015260a48301906124f7565b03925af1600091816107005750610652575050600190610568612a5a565b60846040517f08c379a000000000000000000000000000000000000000000000000000000000815260206004820152602160248201527f455243313135353a206d696e7420746f20746865207a65726f2061646472657360448201527f73000000000000000000000000000000000000000000000000000000000000006064820152fd5b3461035e5760607ffffffffffffffffffffffffffffffffffffffffffffffffffffffffffffffffc36011261035e576117a66123de565b60249067ffffffffffffffff90823582811161035e576117ca903690600401612552565b91604490813590811161035e576117fa73ffffffffffffffffffffffffffffffffffffffff913690600401612552565b9216923384148015611a0b575b611810906127c4565b831561181c8115612b3b565b6118298251855114612972565b600060405161183781612477565b526119d3575b60005b8151811015611919576118538183612781565b5161185e8286612781565b5190806000526003602081815260406000205492848410611897579061189295949392916000525203604060002055612725565b611840565b6084827f455243313135353a206275726e20616d6f756e74206578636565647320746f748a60288f604051947f08c379a000000000000000000000000000000000000000000000000000000000865260048601528401528201527f616c537570706c790000000000000000000000000000000000000000000000006064820152fd5b83828660005b825181101561198e57806119366119899285612781565b516119418287612781565b51908060005260206000815260406000208660005281526040600020549161196b84841015612bc6565b60005260008152604060002090866000525203604060002055612725565b61191f565b50907f4a39dc06d4c0dbc64b70af90fd698a233a518aa5d07e595d983b8c0526c8f7fb6119c56000946040519182913395836129fd565b0390a46102d9604051612477565b9260009491945b8451811015611a0157806119f16119fc9286612781565b516103058288612781565b6119da565b509293909361183d565b5083600052600160205260406000203360005260205261181060ff604060002054169050611807565b3461035e5760207ffffffffffffffffffffffffffffffffffffffffffffffffffffffffffffffffc36011261035e57600435600052600360205260206040600020541515604051908152f35b3461035e5760407ffffffffffffffffffffffffffffffffffffffffffffffffffffffffffffffffc36011261035e5760043567ffffffffffffffff80821161035e573660238301121561035e57816004013590611adc8261253a565b92611aea6040519485612493565b82845260209260248486019160051b8301019136831161035e57602401905b828210611c755750505060243590811161035e57611b2b903690600401612552565b8251815103611bf1578251927fffffffffffffffffffffffffffffffffffffffffffffffffffffffffffffffe0611b7a611b648661253a565b95611b726040519788612493565b80875261253a565b01368486013760005b8151811015611bda5780611bc573ffffffffffffffffffffffffffffffffffffffff611bb2611bd59486612781565b5116611bbe8387612781565b5190612667565b611bcf8288612781565b52612725565b611b83565b5050506111dd604051928284938452830190612633565b608482604051907f08c379a00000000000000000000000000000000000000000000000000000000082526004820152602960248201527f455243313135353a206163636f756e747320616e6420696473206c656e67746860448201527f206d69736d6174636800000000000000000000000000000000000000000000006064820152fd5b813573ffffffffffffffffffffffffffffffffffffffff8116810361035e578152908401908401611b09565b3461035e577ffffffffffffffffffffffffffffffffffffffffffffffffffffffffffffffffc60a08136011261035e57611cd96123de565b90611ce2612401565b60449081359267ffffffffffffffff9384811161035e57611d07903690600401612552565b6064803586811161035e57611d20903690600401612552565b94608496873590811161035e57611d3b903690600401612615565b73ffffffffffffffffffffffffffffffffffffffff9433868b16148015612175575b611d66906127c4565b611d738551895114612972565b85871615611d81811561284f565b868b1615612132575b61203c575b60005b8551811015611e285780611da9611e239288612781565b518c611db5838d612781565b519180600052826020926000845260406000208d8216600052845260406000205490611de3838310156128da565b83600052600085528d60406000209116600052845203604060002055600052600081526040600020908a8c166000525261031e6040600020918254612965565b611d92565b50888a989796949789604051887f4a39dc06d4c0dbc64b70af90fd698a233a518aa5d07e595d983b8c0526c8f7fb89808d1694169280611e6a873395836129fd565b0390a4873b611e7557005b6040519889978896887fbc197c81000000000000000000000000000000000000000000000000000000009d8e8a523360048b0152166024890152870160a0905260a48701611ec291612633565b90848783030190870152611ed591612633565b918483030190840152611ee7916124f7565b03921691815a602094600091f16000918161201c575b50611f705750506001611f0e612a5a565b6308c379a014611f1f575b61057a57005b611f27612a78565b80611f325750611f19565b6105ff906040519182917f08c379a00000000000000000000000000000000000000000000000000000000083526020600484015260248301906124f7565b7fffffffff0000000000000000000000000000000000000000000000000000000016146102d9576040517f08c379a000000000000000000000000000000000000000000000000000000000815260206004820152602860248201527f455243313135353a204552433131353552656365697665722072656a6563746560448201527f6420746f6b656e730000000000000000000000000000000000000000000000006064820152608490fd5b61203591925060203d8111610728576107198183612493565b9083611efd565b9796949060009993999692965b85518110156121225761205c8187612781565b516120678289612781565b519080600052602060038152604060002054918383106120a05761209b949392916003916000525203604060002055612725565b612049565b508b907f616c537570706c790000000000000000000000000000000000000000000000008f7f455243313135353a206275726e20616d6f756e74206578636565647320746f748e604051947f08c379a0000000000000000000000000000000000000000000000000000000008652600486015260286024860152840152820152fd5b5090949697989298959195611d8f565b99969498959392919060005b8a5181101561216657808b6103058261215a612161958f612781565b5192612781565b61213e565b50909192939598949699611d8a565b50858a166000526001602052604060002033600052602052611d6660ff604060002054169050611d5d565b3461035e5760207ffffffffffffffffffffffffffffffffffffffffffffffffffffffffffffffffc36011261035e576111dd6111c9600435612cdb565b3461035e5760007ffffffffffffffffffffffffffffffffffffffffffffffffffffffffffffffffc36011261035e57604051600060085461221d81612424565b8084529060019081811690811561123c5750600114612246576111dd846111c981860382612493565b6008600090815292507ff3f7a9fe364faab93b216da50a3214154f22a0a2b415b23a84c8169e8b636ee35b8284106122895750505081016020016111c9826111b9565b80546020858701810191909152909301928101612271565b3461035e5760207ffffffffffffffffffffffffffffffffffffffffffffffffffffffffffffffffc36011261035e576004357fffffffff00000000000000000000000000000000000000000000000000000000811680910361035e57807fd9b67a260000000000000000000000000000000000000000000000000000000060209214908115612367575b811561233d575b506040519015158152f35b7f01ffc9a70000000000000000000000000000000000000000000000000000000091501482612332565b7f0e89341c000000000000000000000000000000000000000000000000000000008114915061232b565b3461035e5760407ffffffffffffffffffffffffffffffffffffffffffffffffffffffffffffffffc36011261035e5760206123d66123cd6123de565b60243590612667565b604051908152f35b6004359073ffffffffffffffffffffffffffffffffffffffff8216820361035e57565b6024359073ffffffffffffffffffffffffffffffffffffffff8216820361035e57565b90600182811c9216801561246d575b602083101461243e57565b7f4e487b7100000000000000000000000000000000000000000000000000000000600052602260045260246000fd5b91607f1691612433565b6020810190811067ffffffffffffffff821117610d9157604052565b90601f7fffffffffffffffffffffffffffffffffffffffffffffffffffffffffffffffe0910116810190811067ffffffffffffffff821117610d9157604052565b60005b8381106124e75750506000910152565b81810151838201526020016124d7565b907fffffffffffffffffffffffffffffffffffffffffffffffffffffffffffffffe0601f602093612533815180928187528780880191016124d4565b0116010190565b67ffffffffffffffff8111610d915760051b60200190565b81601f8201121561035e578035916125698361253a565b926125776040519485612493565b808452602092838086019260051b82010192831161035e578301905b8282106125a1575050505090565b81358152908301908301612593565b92919267ffffffffffffffff8211610d9157604051916125f860207fffffffffffffffffffffffffffffffffffffffffffffffffffffffffffffffe0601f8401160184612493565b82948184528183011161035e578281602093846000960137010152565b9080601f8301121561035e57816020612630933591016125b0565b90565b90815180825260208080930193019160005b828110612653575050505090565b835185529381019392810192600101612645565b73ffffffffffffffffffffffffffffffffffffffff169081156126a157600052600060205260406000209060005260205260406000205490565b60846040517f08c379a000000000000000000000000000000000000000000000000000000000815260206004820152602a60248201527f455243313135353a2061646472657373207a65726f206973206e6f742061207660448201527f616c6964206f776e6572000000000000000000000000000000000000000000006064820152fd5b7fffffffffffffffffffffffffffffffffffffffffffffffffffffffffffffffff81146127525760010190565b7f4e487b7100000000000000000000000000000000000000000000000000000000600052601160045260246000fd5b80518210156127955760209160051b010190565b7f4e487b7100000000000000000000000000000000000000000000000000000000600052603260045260246000fd5b156127cb57565b60846040517f08c379a000000000000000000000000000000000000000000000000000000000815260206004820152602e60248201527f455243313135353a2063616c6c6572206973206e6f7420746f6b656e206f776e60448201527f6572206f7220617070726f7665640000000000000000000000000000000000006064820152fd5b1561285657565b60846040517f08c379a000000000000000000000000000000000000000000000000000000000815260206004820152602560248201527f455243313135353a207472616e7366657220746f20746865207a65726f20616460448201527f64726573730000000000000000000000000000000000000000000000000000006064820152fd5b156128e157565b60846040517f08c379a000000000000000000000000000000000000000000000000000000000815260206004820152602a60248201527f455243313135353a20696e73756666696369656e742062616c616e636520666f60448201527f72207472616e73666572000000000000000000000000000000000000000000006064820152fd5b9190820180921161275257565b1561297957565b60846040517f08c379a000000000000000000000000000000000000000000000000000000000815260206004820152602860248201527f455243313135353a2069647320616e6420616d6f756e7473206c656e6774682060448201527f6d69736d617463680000000000000000000000000000000000000000000000006064820152fd5b9091612a1461263093604084526040840190612633565b916020818403910152612633565b9081602091031261035e57517fffffffff000000000000000000000000000000000000000000000000000000008116810361035e5790565b60009060033d11612a6757565b905060046000803e60005160e01c90565b600060443d10612630576040517ffffffffffffffffffffffffffffffffffffffffffffffffffffffffffffffffc91823d016004833e815167ffffffffffffffff918282113d602484011117612af457818401948551938411612afc573d85010160208487010111612af4575061263092910160200190612493565b949350505050565b50949350505050565b604051906040820182811067ffffffffffffffff821117610d915760405260018252602082016020368237825115612795575290565b15612b4257565b60846040517f08c379a000000000000000000000000000000000000000000000000000000000815260206004820152602360248201527f455243313135353a206275726e2066726f6d20746865207a65726f206164647260448201527f65737300000000000000000000000000000000000000000000000000000000006064820152fd5b15612bcd57565b60846040517f08c379a0000000000000000000000000000000000000000000000000000000008152602060048201526024808201527f455243313135353a206275726e20616d6f756e7420657863656564732062616c60448201527f616e6365000000000000000000000000000000000000000000000000000000006064820152fd5b15612c5757565b60846040517f08c379a000000000000000000000000000000000000000000000000000000000815260206004820152602d60248201527f4b617469626568313135353a207265737472696374656420616363657373207460448201527f6f2074686520466163746f7279000000000000000000000000000000000000006064820152fd5b600090815260209060058252604081209060405190809183549281612cff85612424565b9182825287820196600196898882169182600014612f57575050600114612f19575b50612d2e92500382612493565b805115612e3f576040519485938360045491612d4983612424565b92818116908115612e005750600114612da0575b50505050612d73612630948392519384916124d4565b01037fffffffffffffffffffffffffffffffffffffffffffffffffffffffffffffffe08101835282612493565b909192969450600482527f8a35acfbc15ff81a39ae7d344fd709f28e8600b4aa8c65c6b64bfe7fe36bd19b5b838310612dea5750505061263094612d739185010192943880612d5d565b8054898401890152889650918701918101612dcc565b7fffffffffffffffffffffffffffffffffffffffffffffffffffffffffffffff001688860152505050801515028401019150612d736126303880612d5d565b5060405160025490949350849282612e5683612424565b80865292828116908115612ed85750600114612e7c575b50505061263092500382612493565b600281527f405787fa12a823e0f2b7631cc41b3ba8828b3321ca811111fa75cd3aa3bb5ace95935091905b818310612ec05750506126309350820101388080612e6d565b85548784018501529485019486945091830191612ea7565b9150506126309593507fffffffffffffffffffffffffffffffffffffffffffffffffffffffffffffff0091501682840152151560051b820101388080612e6d565b915050835281868085208686915b858310612f3e575050612d2e935082010138612d21565b8091929450548385880101520191018790868593612f27565b7fffffffffffffffffffffffffffffffffffffffffffffffffffffffffffffff00168a52612d2e95151560051b8501019250389150612d21905056fea2646970667358221220c0b612b65b91253a9022aae1b51a2899696ca53a5e97f95820e165061ca7fcb764736f6c63430008130033",
  "linkReferences": {},
  "deployedLinkReferences": {}
}