{
  "_format": "hh-sol-artifact-1",
  "contractName": "Factory1155",
  "sourceName": "contracts/katibeh1155/Factory1155.sol",
  "abi": [
    {
      "anonymous": false,
      "inputs": [
        {
          "indexed": true,
          "internalType": "uint256",
          "name": "tokenId",
          "type": "uint256"
        },
        {
          "indexed": true,
          "internalType": "uint256",
          "name": "toTokenId",
          "type": "uint256"
        }
      ],
      "name": "NewReply",
      "type": "event"
    },
    {
      "anonymous": false,
      "inputs": [
        {
          "indexed": true,
          "internalType": "uint256",
          "name": "tokenId",
          "type": "uint256"
        },
        {
          "indexed": true,
          "internalType": "address",
          "name": "creator",
          "type": "address"
        },
        {
          "indexed": true,
          "internalType": "bytes",
          "name": "data",
          "type": "bytes"
        },
        {
          "indexed": false,
          "internalType": "uint256",
          "name": "signTime",
          "type": "uint256"
        },
        {
          "indexed": false,
          "internalType": "uint256",
          "name": "initTime",
          "type": "uint256"
        },
        {
          "indexed": false,
          "internalType": "uint256",
          "name": "expTime",
          "type": "uint256"
        }
      ],
      "name": "NewToken",
      "type": "event"
    },
    {
      "anonymous": false,
      "inputs": [
        {
          "indexed": true,
          "internalType": "uint256",
          "name": "tokenId",
          "type": "uint256"
        },
        {
          "indexed": false,
          "internalType": "bytes",
          "name": "data",
          "type": "bytes"
        }
      ],
      "name": "TokenData",
      "type": "event"
    },
    {
      "inputs": [
        {
          "internalType": "uint256",
          "name": "",
          "type": "uint256"
        }
      ],
      "name": "_tokenCollection",
      "outputs": [
        {
          "internalType": "address",
          "name": "",
          "type": "address"
        }
      ],
      "stateMutability": "view",
      "type": "function"
    },
    {
      "inputs": [
        {
          "internalType": "address",
          "name": "",
          "type": "address"
        }
      ],
      "name": "_userCollection",
      "outputs": [
        {
          "internalType": "address",
          "name": "",
          "type": "address"
        }
      ],
      "stateMutability": "view",
      "type": "function"
    },
    {
      "inputs": [
        {
          "internalType": "uint256",
          "name": "tokenId",
          "type": "uint256"
        },
        {
          "internalType": "bytes",
          "name": "data",
          "type": "bytes"
        },
        {
          "components": [
            {
              "internalType": "address",
              "name": "addr",
              "type": "address"
            },
            {
              "internalType": "uint16",
              "name": "share",
              "type": "uint16"
            }
          ],
          "internalType": "struct DataStorage.Payee[]",
          "name": "dapps",
          "type": "tuple[]"
        }
      ],
      "name": "collect",
      "outputs": [],
      "stateMutability": "payable",
      "type": "function"
    },
    {
      "inputs": [
        {
          "internalType": "uint256",
          "name": "tokenId",
          "type": "uint256"
        }
      ],
      "name": "fee",
      "outputs": [
        {
          "internalType": "uint256",
          "name": "",
          "type": "uint256"
        }
      ],
      "stateMutability": "view",
      "type": "function"
    },
    {
      "inputs": [
        {
          "internalType": "uint256",
          "name": "tokenId",
          "type": "uint256"
        },
        {
          "components": [
            {
              "internalType": "address",
              "name": "creator",
              "type": "address"
            },
            {
              "internalType": "uint256",
              "name": "signTime",
              "type": "uint256"
            },
            {
              "internalType": "uint256",
              "name": "initTime",
              "type": "uint256"
            },
            {
              "internalType": "uint256",
              "name": "expTime",
              "type": "uint256"
            },
            {
              "internalType": "string",
              "name": "tokenURI",
              "type": "string"
            },
            {
              "internalType": "bytes",
              "name": "data",
              "type": "bytes"
            },
            {
              "internalType": "uint256[]",
              "name": "toTokenId",
              "type": "uint256[]"
            },
            {
              "internalType": "bytes32[]",
              "name": "tags",
              "type": "bytes32[]"
            },
            {
              "components": [
                {
                  "internalType": "address",
                  "name": "addr",
                  "type": "address"
                },
                {
                  "internalType": "uint16",
                  "name": "share",
                  "type": "uint16"
                }
              ],
              "internalType": "struct DataStorage.Payee[]",
              "name": "owners",
              "type": "tuple[]"
            }
          ],
          "internalType": "struct DataStorage.Katibeh",
          "name": "katibeh",
          "type": "tuple"
        },
        {
          "internalType": "bytes",
          "name": "sig",
          "type": "bytes"
        },
        {
          "internalType": "bytes",
          "name": "data",
          "type": "bytes"
        }
      ],
      "name": "firstFreeCollect",
      "outputs": [],
      "stateMutability": "nonpayable",
      "type": "function"
    },
    {
      "inputs": [],
      "name": "implementation",
      "outputs": [
        {
          "internalType": "contract Katibeh1155",
          "name": "",
          "type": "address"
        }
      ],
      "stateMutability": "view",
      "type": "function"
    },
    {
      "inputs": [
        {
          "internalType": "address",
          "name": "creatorAddr",
          "type": "address"
        }
      ],
      "name": "predictCollectionAddr",
      "outputs": [
        {
          "internalType": "address",
          "name": "",
          "type": "address"
        }
      ],
      "stateMutability": "view",
      "type": "function"
    },
    {
      "inputs": [
        {
          "internalType": "address payable",
          "name": "newAddr",
          "type": "address"
        }
      ],
      "name": "setReceiver1",
      "outputs": [],
      "stateMutability": "nonpayable",
      "type": "function"
    },
    {
      "inputs": [
        {
          "internalType": "uint256",
          "name": "tokenId",
          "type": "uint256"
        }
      ],
      "name": "uri",
      "outputs": [
        {
          "internalType": "string",
          "name": "",
          "type": "string"
        }
      ],
      "stateMutability": "view",
      "type": "function"
    }
  ],
  "bytecode": "0x60808060405234610085576124e88181016001600160401b0381118382101761006f578291611f99833903906000f0801561006357600480546001600160a01b0319166001600160a01b0392909216919091179055604051611f0e908161008b8239f35b6040513d6000823e3d90fd5b634e487b7160e01b600052604160045260246000fd5b600080fdfe60806040526004361015610013575b600080fd5b6000803560e01c908162797df8146100c95750806303c13148146100c057806307d32f2a146100b75780630e89341c146100ae57806339b37ab0146100a55780635c60da1b1461009c5780635fd099e614610093578063836f71e01461008a57639f9028d51461008257600080fd5b61000e61058a565b5061000e610518565b5061000e6104e3565b5061000e6104b9565b5061000e610487565b5061000e610395565b5061000e610247565b5061000e610193565b346101525760031960803682011261014e576024356001600160401b03918282116101465761012090823603011261014a5760443582811161014657610113903690600401610155565b6064929192359384116101425761013161013f943690600401610155565b939092600401600435610ba2565b80f35b8480fd5b8380fd5b8280fd5b5080fd5b80fd5b9181601f8401121561000e578235916001600160401b03831161000e576020838186019501011161000e57565b6001600160a01b0381160361000e57565b503461000e57602036600319011261000e576004356101b181610182565b600154906001600160a01b039081831633036101db576001600160a01b0319909216911617600155005b60405162461bcd60e51b815260206004820152603160248201527f4665654d616e616765723a206f6e6c79207265636569766572312063616e206360448201527068616e676520697473206164647265737360781b6064820152608490fd5b359061024582610182565b565b503461000e57602036600319011261000e576103356055603760043561026c81610182565b60045460405160609290921b6bffffffffffffffffffffffff19166020830152906102ad906102a881603481015b03601f198101835282610637565b610a4d565b60408051733d602d80600a3d3981f3363d3d373d3d3d363d7360601b8152606093841b6bffffffffffffffffffffffff191660148201526f5af43d82803e903d91602b57fd5bf3ff60801b60288201523090931b6038840152604c830191909152828220606c83015291019190912090516001600160a01b0390911681529081906020820190565b0390f35b60005b83811061034c5750506000910152565b818101518382015260200161033c565b9060209161037581518092818552858086019101610339565b601f01601f1916010190565b90602061039292818152019061035c565b90565b503461000e5760208060031936011261000e5760043590600091808352600382528260018060a01b03604082205416916024604051809481936303a24d0760e21b835260048301525afa91821561047a575b83926103fc575b604051806103358582610381565b9091503d8084843e61040e8184610637565b8201918181840312610146578051906001600160401b03821161014257019082601f8301121561014657815193610444856107c8565b936104526040519586610637565b85855282868501011161015257509261047391846103359585019101610339565b38806103ee565b610482610667565b6103e7565b503461000e57602036600319011261000e5760206104a660043561070c565b604051908152f35b600091031261000e57565b503461000e57600036600319011261000e576004546040516001600160a01b039091168152602090f35b503461000e57602036600319011261000e576004356000526003602052602060018060a01b0360406000205416604051908152f35b50606036600319011261000e576001600160401b0360243581811161000e57610545903690600401610155565b91906044359282841161000e573660238501121561000e57836004013592831161000e573660248460061b8601011161000e5760246105889401916004356115f2565b005b503461000e57602036600319011261000e5760206004356105aa81610182565b60018060a01b038091166000526002825260406000205416604051908152f35b50634e487b7160e01b600052604160045260246000fd5b6001600160401b0381116105f457604052565b6105fc6105ca565b604052565b604081019081106001600160401b038211176105f457604052565b606081019081106001600160401b038211176105f457604052565b90601f801991011681019081106001600160401b038211176105f457604052565b9081602091031261000e575190565b506040513d6000823e3d90fd5b50634e487b7160e01b600052601160045260246000fd5b60001981019190821161069a57565b610245610674565b9190820391821161069a57565b9067016345785d8a00009182810292818404149015171561069a57565b9060148202918083046014149015171561069a57565b9061015e9182810292818404149015171561069a57565b8181029291811591840414171561069a57565b806000526003602052602060018060a01b03604060002054169160246040518094819363bd85b03960e01b835260048301525afa9081156107ae575b600091610780575b50600090600581111561077c5761039291506004198101908111156106af57610777610674565b6106af565b5090565b6107a1915060203d81116107a7575b6107998183610637565b810190610658565b38610750565b503d61078f565b6107b6610667565b610748565b6040519061024582610601565b6020906001600160401b0381116107e5575b601f01601f19160190565b6107ed6105ca565b6107da565b3561039281610182565b1561080357565b60405162461bcd60e51b815260206004820152601d60248201527f4b6174696265683732313a20496e76616c6964207369676e61747572650000006044820152606490fd5b1561084f57565b60405162461bcd60e51b815260206004820152601b60248201527f466163746f7279313135353a2077726f6e6720746f6b656e20696400000000006044820152606490fd5b1561089b57565b60405162461bcd60e51b815260206004820152602760248201527f466163746f7279313135353a20746f6b656e2073616c652074696d6520697320604482015266195e1c1a5c995960ca1b6064820152608490fd5b156108f757565b60405162461bcd60e51b815260206004820152603060248201527f466163746f7279313135353a20746f6b656e2073616c652074696d652068617360448201526f081b9bdd081cdd185c9d1959081e595d60821b6064820152608490fd5b6001906000198114610965570190565b61096d610674565b0190565b903590601e198136030182121561000e57018035906001600160401b03821161000e57602001918160051b3603831361000e57565b50634e487b7160e01b600052603260045260246000fd5b91908110156109ce575b60051b0190565b6109d66109a6565b6109c7565b156109e257565b60405162461bcd60e51b815260206004820152603860248201527f466163746f7279313135353a20746f20746f6b656e20696420686173206e6f7460448201527f206d696e746564206f6e2063757272656e7420636861696e00000000000000006064820152608490fd5b602081519101519060208110610a61575090565b6000199060200360031b1b1690565b6001600160a01b039091168152606060208201819052604092610a959183019061035c565b90828183039101526007815266096c2e8d2c4cad60cb1b60208201520190565b15610abc57565b60405162461bcd60e51b815260206004820152603760248201527f466163746f7279313135353a207468697320636f6c6c656374696f6e2068617360448201527f206265656e20616c726561647920636f6c6c65637465640000000000000000006064820152608490fd5b903590601e198136030182121561000e57018035906001600160401b03821161000e5760200191813603831361000e57565b908060209392818452848401376000828201840152601f01601f1916010190565b604090610392949281528160208201520191610b59565b916020610392938181520191610b59565b9591610be091959493610bd991610bd4610bcf610bbe8a6107f2565b610bc78b611390565b908585611d7e565b6107fc565b611ea0565b8614610848565b610bf06060850135421115610894565b604092610c02848601354210156108f0565b60005b60c08601610c138188610971565b9050821015610cf55790610cc1610ca483610c8084610c49610c79610c6d610c6d8f610c4f86610c49610cc69e610c6094610971565b906109bd565b356000526003602052604060002090565b546001600160a01b031690565b6001600160a01b031690565b938d610971565b358951809263bd85b03960e01b825281806020968795600483019190602083019252565b03915afa918215610ce8575b600092610ccb575b505015156109db565b610955565b610c05565b610ce19250803d106107a7576107998183610637565b3880610cb8565b610cf0610667565b610cb0565b5091956001600160a01b0395909392509085610d30610c60610d16856107f2565b6001600160a01b0316600090815260026020526040902090565b1661105857600454610d8b90610d4e906001600160a01b0316610c6d565b610d8561029a6102a8610d60876107f2565b8a51928391602083016014916bffffffffffffffffffffffff199060601b1681520190565b90611073565b95610dbb87610d9c610d16866107f2565b80546001600160a01b0319166001600160a01b03909216919091179055565b80871690610dc8846107f2565b91610dda610dd5866107f2565b611110565b813b1561000e576000610e0591610e68958b51938492839263b2b45df560e01b845260048401610a70565b038183865af1801561104b575b611038575b505b875163bd85b03960e01b81526004810188905291169790610e54906020816024818d5afa90811561102b575b60009161100d575b5015610ab5565b610d9c866000526003602052604060002090565b610e756080830183610b27565b939091873b1561000e578651634312207160e11b8152610ed195879460009183918291610ea6918960048501610b7a565b0381838d5af18015611000575b610fed575b50610ec384846119f0565b80610fb2575b5050506107f2565b92803b1561000e57825163731133e960e01b8082526001600160a01b039590951660048201526024810183905260056044820152608060648201526000608482018190528160a48183865af18015610fa5575b610f92575b50803b1561000e5791519283523360048401526024830152600160448301526080606483015260006084830181905290829060a490829084905af18015610f85575b610f725750565b80610f7f610245926105e1565b806104ae565b610f8d610667565b610f6b565b80610f7f610f9f926105e1565b38610f29565b610fad610667565b610f24565b7fe3efb4090b64f6dead06906e59a91359e0c1ca9cad88a633d749431442e5bebf91610fe2885192839283610b91565b0390a2823880610ec9565b80610f7f610ffa926105e1565b38610eb8565b611008610667565b610eb3565b611025915060203d81116107a7576107998183610637565b38610e4d565b611033610667565b610e45565b80610f7f611045926105e1565b38610e17565b611053610667565b610e12565b610e6861106a610c60610d16856107f2565b96808816610e19565b604051733d602d80600a3d3981f3363d3d373d3d3d363d7360601b815260609190911b60148201526e5af43d82803e903d91602b57fd5bf360881b60288201526037906000f5906001600160a01b038216156110cb57565b60405162461bcd60e51b815260206004820152601760248201527f455243313136373a2063726561746532206661696c65640000000000000000006044820152606490fd5b604051906001600160a01b03166111268261061c565b602a82526040366020840137603061113d836111bd565b536078611149836111d3565b536029905b600182116111615761039291501561121e565b80600f61119d921660108110156111a3575b6f181899199a1a9b1b9c1cb0b131b232b360811b901a61119384866111e4565b5360041c91611203565b9061114e565b6111ab6109a6565b611173565b9190820180921161069a57565b6020908051156111cb570190565b61096d6109a6565b6021908051600110156111cb570190565b9060209180518210156111f657010190565b6111fe6109a6565b010190565b8015611211575b6000190190565b611219610674565b61120a565b1561122557565b606460405162461bcd60e51b815260206004820152602060248201527f537472696e67733a20686578206c656e67746820696e73756666696369656e746044820152fd5b9035601e198236030181121561000e5701602081359101916001600160401b03821161000e57813603831361000e57565b9035601e198236030181121561000e5701602081359101916001600160401b03821161000e578160051b3603831361000e57565b81835290916001600160fb1b03831161000e5760209260051b809284830137010190565b9035601e198236030181121561000e5701602081359101916001600160401b03821161000e578160061b3603831361000e57565b61ffff81160361000e57565b9190808252602080920192916000905b828210611350575050505090565b90919293600190853561136281610182565b828060a01b0316815261ffff8387013561137b81611326565b16818401526040908101950193920190611342565b60405161148a8161029a6114086020830195602087526113c3604085016113b68361023a565b6001600160a01b03169052565b6020810135606085015260408101356080850152606081013560a085015261147a6113f16080830183611269565b9390610120948560c0890152610160880191610b59565b9161147161143061141c60a0840184611269565b603f198a8803810160e08c01529691610b59565b9461145461144160c085018561129a565b6101009891888c8403018a8d01526112ce565b9061146260e085018561129a565b91878b850301908b01526112ce565b938101906112f2565b9185840301610140860152611332565b51902090565b1561149757565b60405162461bcd60e51b815260206004820152603560248201527f466163746f7279313135353a207468697320636f6c6c656374696f6e20686173604482015274206e6f7420636f6c6c6563746564206265666f726560581b6064820152608490fd5b1561150157565b60405162461bcd60e51b815260206004820152601d60248201527f466163746f7279313135353a20696e73756666696369656e74206665650000006044820152606490fd5b9081602091031261000e575161039281610182565b6020906001600160401b0381116115735760051b0190565b6109d66105ca565b9081546115878161155b565b9260409361159785519182610637565b828152809460208092019260005281600020906000935b8585106115bd57505050505050565b600184819284516115cd81610601565b61ffff8754858060a01b038116835260a01c16838201528152019301940193916115ae565b939291611612610c6d610c6d610c60886000526003602052604060002090565b60405163bd85b03960e01b815260048101879052909560209290916116519084816024818c5afa908115611834575b600091611817575b501515611490565b61165a8261070c565b9361167b611672846000526000602052604060002090565b54421115610894565b611687853410156114fa565b8434116117e3575b873b1561000e5760405163731133e960e01b8152336004808301919091526024820185905260016044830152608060648301526000608483018190526102459a9194879492938793928160a48183895af180156117d6575b6117c3575b5080611787575b50505060405192838092638da5cb5b60e01b82525afa92831561177a575b600093611740575b5050600161173461173a926000526000602052604060002090565b0161157b565b91611b87565b61173a92935061176b6001928261173493903d10611773575b6117638183610637565b810190611546565b939250611719565b503d611759565b611782610667565b611711565b7fe3efb4090b64f6dead06906e59a91359e0c1ca9cad88a633d749431442e5bebf916117b860405192839283610b91565b0390a28338806116f3565b80610f7f6117d0926105e1565b386116ec565b6117de610667565b6116e7565b60008080806117f289346106a2565b81811561180e575b3390f161168f57611809610667565b61168f565b506108fc6117fa565b61182e9150853d87116107a7576107998183610637565b38611649565b61183c610667565b611641565b903590601e198136030182121561000e57018035906001600160401b03821161000e57602001918160061b3603831361000e57565b9291926118828261155b565b60409261189184519283610637565b819581835260208093019160061b84019381851161000e57915b8483106118ba57505050505050565b858383031261000e5783869182516118d181610601565b85356118dc81610182565b8152828601356118eb81611326565b838201528152019201916118ab565b9190805183556001809301602080920151918251926801000000000000000084116119ce575b8183548585558086106119a1575b50611940910192600052602060002090565b6000925b8484106119545750505050509050565b868382611995839451868151815460209093015161ffff60a01b60a09190911b166001600160b01b03199093166001600160a01b0390911617919091179055565b01920193019290611944565b6000858152888784832093840193015b8381106119c05750505061192e565b8281558694508a91016119b1565b6119d66105ca565b611920565b81604051928392833781016000815203902090565b906060810135611a3d611a1f611a0a610100850185611841565b9190611a146107bb565b928584523691611876565b6020820152611a38856000526000602052604060002090565b6118fa565b611a46826107f2565b90837f0b85051017293732c5b533b177efc66475411a9fdd5fbc8ecb619906658413d6611ab2611a82611a7c60a0880188610b27565b906119db565b604080516020808a01358252898301359082015290810195909552946001600160a01b0316939081906060820190565b0390a460c0810191611ac48383610971565b939050600092835b858110611adb57505050505050565b80611aed611b1892610c498686610971565b35857f65327253f8d67c2e23cb4dfab28ca7437b04e9098cf4e985073d76df25209ad48880a3610955565b611acc565b8115611b27570490565b634e487b7160e01b600052601260045260246000fd5b9190811015611b4e575b60061b0190565b611b566109a6565b611b47565b3561039281611326565b6020918151811015611b7a575b60051b010190565b611b826109a6565b611b72565b9293909193611bac611b9e611ba6611b9e876106cc565b6103e8900490565b956106e2565b600180549095611bcd91611bc8906001600160a01b0316610c6d565b611d4a565b600090815b848110611d24575060005b848110611ce457505050505047918351908115600014611c035750506102459250611d4a565b909260009250825b848110611cb957506000825b611c4e575b50505050611c3961024592611c33611c479361068b565b90611b65565b51516001600160a01b031690565b4790611d4a565b611c578561068b565b811015611cb45780610cc187611ca887611ca3611c9d611c966020611c8c89611c86611c39611cae9d8b611b65565b98611b65565b51015161ffff1690565b61ffff1690565b886106f9565b611b1d565b90611d4a565b82611c17565b611c1c565b92611cd9611cdf91611cd3611c966020611c8c898c611b65565b906111b0565b93610955565b611c0b565b80610cc185611ca886611ca3611c9d611c966020611d19898f611d13611d0e611d1f9e838d611b3d565b6107f2565b99611b3d565b01611b5b565b611bdd565b91611d3f611d4591611cd3611c966020611d19888b8b611b3d565b92610955565b611bd2565b6000808093819382908215611d74575b6001600160a01b031690f115611d6c57565b610245610667565b6108fc9150611d5a565b919260405160208101917f19457468657265756d205369676e6564204d6573736167653a0a3332000000008352603c820152603c8152611dbd8161061c565b51902090611dca816107c8565b611dd76040519182610637565b8181526020810191368186011161000e578060209584376000948591830101526041815103611e5b5790516040808301516060938401518251958652861a602080870191909152918501929092529183015282805290829060809060015afa15611e4e575b516001600160a01b0390811691161490565b611e56610667565b611e3c565b60405162461bcd60e51b815260206004820152601860248201527f696e76616c6964207369676e6174757265206c656e67746800000000000000006044820152606490fd5b9061148a602c6040518381946020830196873781016b39b0b6b0b7103bb4b639b7b760a11b602082015203600c81018452018261063756fea26469706673582212209165af967675b29dd81f1f164c08387a0e6914848a41647e67d96d913ac826e264736f6c63430008110033608034620000e957602081016001600160401b03811182821017620000d357604052600080915262000033600254620000ee565b601f811162000092575b50806002556200004f600454620000ee565b601f81116200006e575b60006004556040516123a39081620001458239f35b601f60208360046200008a955220910160051c8101906200012b565b388062000059565b60028252620000cc90601f0160051c7f405787fa12a823e0f2b7631cc41b3ba8828b3321ca811111fa75cd3aa3bb5ace908101906200012b565b386200003d565b634e487b7160e01b600052604160045260246000fd5b600080fd5b90600182811c9216801562000120575b60208310146200010a57565b634e487b7160e01b600052602260045260246000fd5b91607f1691620000fe565b81811062000137575050565b600081556001016200012b56fe6080604052600436101561001257600080fd5b60003560e01c8062fdd58e146119cc57806301ffc9a71461195e57806306fdde03146118b85780630e89341c146118995780632eb2c2d6146114be5780634e1273f4146113205780634f558e79146112f25780636b20c45414611098578063731133e914610e83578063862440e214610c9e5780638da5cb5b14610c7157806395d89b4114610b8b578063a22cb46514610aa7578063b2b45df514610758578063bd85b0391461072c578063e985e9c5146106d6578063f242432a146102f75763f5298aca146100e157600080fd5b346102f25760603660031901126102f2576100fa6119fb565b60249060448035916001600160a01b031690833533831480156102c9575b61012190611cc6565b82159261012e8415611f9c565b61013782611f67565b9161014186611f67565b94600060405161015081611a61565b5261026f575b60005b83518110156101f25761016c8185611c9c565b516101778288611c9c565b51908060005260036020818152604060002054928484106101b057906101ab95949392916000525203604060002055611c77565b610159565b5060849060008051602061234e8339815191528a60288f6040519462461bcd60e51b8652600486015284015282015267616c537570706c7960c01b6064820152fd5b6000838389818452836020526040842083855260205280604085205461021a82821015611ff4565b838652856020526040862085875260205203604085205560405191825260208201527fc3d58168c5ae7397731d063d5bbf3d657854427343f4c083240f7aacaa2d0f6260403392a461026d604051611a61565b005b949195929060005b87518110156102be578061028e6102b99288611c9c565b51610299828b611c9c565b5160005260036020526102b26040600020918254611de3565b9055611c77565b610277565b509092959194610156565b5082600052600160205260406000203360005260205261012160ff604060002054169050610118565b600080fd5b346102f25760a03660031901126102f2576103106119fb565b610318611a11565b90608480356001600160401b0381116102f257610339903690600401611ba0565b6001600160a01b039190838316331480156106ab575b61035890611cc6565b828516156103668115611d2a565b610371604435611f67565b61037c606435611f67565b918587161561066b575b6105bd575b505060443560005260209460008652604060002084861660005286526040600020546103bb606435821015611d84565b60443560005260008752604060002085871660005287526064359003604060002055604435600052600086526040600020848216600052865260406000206104066064358254611de3565b905560405160443581526064358782015284821690858716907fc3d58168c5ae7397731d063d5bbf3d657854427343f4c083240f7aacaa2d0f6260403392a4803b61044d57005b60a06000610497958895604051978896879586938563f23a6e6160e01b9d8e87523360048801521660248601526044356044860152606435606486015284015260a4830190611ac0565b0393165af16000918161058e575b506105645750506001906104b7611edb565b6308c379a01461052f575b506104c957005b60405162461bcd60e51b815260206004820152603460248201527f455243313135353a207472616e7366657220746f206e6f6e20455243313135356044820152732932b1b2b4bb32b91034b6b83632b6b2b73a32b960611b6064820152608490fd5b0390fd5b610537611ef9565b908161054357506104c2565b61052b60405192839262461bcd60e51b845260048401526024830190611ac0565b6001600160e01b03191614905061026d5760405162461bcd60e51b81528061052b60048201611e92565b6105af919250843d86116105b6575b6105a78183611a7c565b810190611e72565b90846104a5565b503d61059d565b92959194909360005b845181101561065c576105d98186611c9c565b51906105e58188611c9c565b518260005260036020526040600020548181106106195761061493600052600360205203604060002055611c77565b6105c6565b60405162461bcd60e51b8152602060048201526028602482015260008051602061234e833981519152604482015267616c537570706c7960c01b60648201528b90fd5b5093509390949150858061038b565b959260009794919592975b865181101561069d578061068d610698928b611c9c565b51610299828a611c9c565b610676565b509295969194909396610386565b50828416600052600160205260406000203360005260205261035860ff60406000205416905061034f565b346102f25760403660031901126102f2576106ef6119fb565b6106f7611a11565b9060018060a01b03809116600052600160205260406000209116600052602052602060ff604060002054166040519015158152f35b346102f25760203660031901126102f25760043560005260036020526020604060002054604051908152f35b346102f25760603660031901126102f2576107716119fb565b6001600160401b03906024358281116102f257610792903690600401611ba0565b906044358381116102f2576107ab903690600401611ba0565b92600654926107c060ff600895861c1661204c565b805182811161099657806107d48654611a27565b92601f93848111610a3a575b506020908483116001146109b7576000926109ac575b50508160011b916000199060031b1c19161784555b84519182116109965761081f600954611a27565b818111610934575b5060209082116001146108b057819293946000926108a5575b50508160011b916000199060031b1c1916176009555b336bffffffffffffffffffffffff60a01b600754161760075561088060ff60065480941c1661204c565b62010000600160b01b031990911660109190911b62010000600160b01b031617600655005b015190508480610840565b601f1982169060096000527f6e1540171b6c0c960b71a7020d9f60077f6af931a8bbf590da0223dacf75c7af9160005b81811061091c57509583600195969710610903575b505050811b01600955610856565b015160001960f88460031b161c191690558480806108f5565b9192602060018192868b0151815501940192016108e0565b60096000527f6e1540171b6c0c960b71a7020d9f60077f6af931a8bbf590da0223dacf75c7af8280850160051c8201926020861061098d575b0160051c01905b8181106109815750610827565b60008155600101610974565b9250819261096d565b634e487b7160e01b600052604160045260246000fd5b0151905087806107f6565b60008881527ff3f7a9fe364faab93b216da50a3214154f22a0a2b415b23a84c8169e8b636ee39350601f198516905b818110610a225750908460019594939210610a09575b505050811b01845561080b565b015160001960f88460031b161c191690558780806109fc565b929360206001819287860151815501950193016109e6565b909150866000527ff3f7a9fe364faab93b216da50a3214154f22a0a2b415b23a84c8169e8b636ee38480850160051c82019260208610610a9e575b9085949392910160051c01905b818110610a8f57506107e0565b60008155849350600101610a82565b92508192610a75565b346102f25760403660031901126102f257610ac06119fb565b602435908115158092036102f2576001600160a01b031690338214610b3457336000526001602052604060002082600052602052604060002060ff1981541660ff83161790556040519081527f17307eab39ab6107e8899845ad3d59bd9653f200f220920489ca2b5937696c3160203392a3005b60405162461bcd60e51b815260206004820152602960248201527f455243313135353a2073657474696e6720617070726f76616c20737461747573604482015268103337b91039b2b63360b91b6064820152608490fd5b346102f25760003660031901126102f2576040516000600954610bad81611a27565b80845290600190818116908115610c4a5750600114610bef575b610beb84610bd781860382611a7c565b604051918291602083526020830190611ac0565b0390f35b6009600090815292507f6e1540171b6c0c960b71a7020d9f60077f6af931a8bbf590da0223dacf75c7af5b828410610c32575050508101602001610bd782610bc7565b80546020858701810191909152909301928101610c1a565b60ff191660208087019190915292151560051b85019092019250610bd79150839050610bc7565b346102f25760003660031901126102f25760065460405160109190911c6001600160a01b03168152602090f35b346102f25760403660031901126102f2576001600160401b036004356024358281116102f257366023820112156102f2578060040135908382116102f25736602483830101116102f257610d0b91610d0160018060a01b036007541633146120ac565b6024369201611b5a565b918160005260209060058252604060002090845190811161099657610d308254611a27565b601f8111610e3d575b5082601f8211600114610db65781907f6bb7ff708619ba0610cba295a58592e0451dee2622938c8755667688daf3529b9596600092610dab575b50508160011b916000199060031b1c19161790555b610d918361210e565b90610da6604051928284938452830190611ac0565b0390a2005b015190508680610d73565b601f1982169583600052846000209660005b818110610e265750917f6bb7ff708619ba0610cba295a58592e0451dee2622938c8755667688daf3529b969791846001959410610e0d575b505050811b019055610d88565b015160001960f88460031b161c19169055868080610e00565b838301518955600190980197928601928601610dc8565b8260005283600020601f830160051c810191858410610e79575b601f0160051c01905b818110610e6d5750610d39565b60008155600101610e60565b9091508190610e57565b346102f25760803660031901126102f257610e9c6119fb565b604435906024356064356001600160401b0381116102f257610ec2903690600401611ba0565b9160018060a01b03610ed9816007541633146120ac565b610ee38383611bf2565b611044578116918215610ff557610ef981611f67565b92610f0386611f67565b9560005b8551811015610f2e5780610f1e610f29928a611c9c565b516102998289611c9c565b610f07565b5085836000526020946000865260406000208460005286526040600020610f56848254611de3565b905583600060405187815285898201527fc3d58168c5ae7397731d063d5bbf3d657854427343f4c083240f7aacaa2d0f6260403392a43b610f9357005b610fd7928592600060405180968195829463f23a6e6160e01b9a8b85523360048601528560248601526044850152606484015260a0608484015260a4830190611ac0565b03925af16000918161058e57506105645750506001906104b7611edb565b60405162461bcd60e51b815260206004820152602160248201527f455243313135353a206d696e7420746f20746865207a65726f206164647265736044820152607360f81b6064820152608490fd5b60405162461bcd60e51b815260206004820152602660248201527f4d61696e6e65742046617273693a20746f6b656e20636f6c6c656374656420616044820152656c726561647960d01b6064820152608490fd5b346102f25760603660031901126102f2576110b16119fb565b6024906001600160401b039082358281116102f2576110d4903690600401611afc565b9160449081359081116102f2576110ef903690600401611afc565b6001600160a01b039092169233841480156112c9575b61110e90611cc6565b831561111a8115611f9c565b6111278251855114611df0565b600060405161113581611a61565b52611291575b60005b81518110156111d7576111518183611c9c565b5161115c8286611c9c565b5190806000526003602081815260406000205492848410611195579061119095949392916000525203604060002055611c77565b61113e565b60405162461bcd60e51b8152600481018390526028818d015260008051602061234e833981519152818a015267616c537570706c7960c01b6064820152608490fd5b83828660005b825181101561124c57806111f46112479285611c9c565b516111ff8287611c9c565b51908060005260206000815260406000208660005281526040600020549161122984841015611ff4565b60005260008152604060002090866000525203604060002055611c77565b6111dd565b50907f4a39dc06d4c0dbc64b70af90fd698a233a518aa5d07e595d983b8c0526c8f7fb611283600094604051918291339583611e4d565b0390a461026d604051611a61565b9260009491945b84518110156112bf57806112af6112ba9286611c9c565b516102998288611c9c565b611298565b509293909361113b565b5083600052600160205260406000203360005260205261110e60ff604060002054169050611105565b346102f25760203660031901126102f257600435600052600360205260206040600020541515604051908152f35b346102f25760403660031901126102f2576004356001600160401b038082116102f257366023830112156102f25781600401359061135d82611ae5565b9261136b6040519485611a7c565b82845260209260248486019160051b830101913683116102f257602401905b82821061149f575050506024359081116102f2576113ac903690600401611afc565b8251815103611448578251926113c184611ae5565b936113cf6040519586611a7c565b8085526113de601f1991611ae5565b01368486013760005b81518110156114315761142c9061141c6001600160a01b036114098386611c9c565b51166114158387611c9c565b5190611bf2565b6114268288611c9c565b52611c77565b6113e7565b505050610beb604051928284938452830190611bbe565b60405162461bcd60e51b815260048101839052602960248201527f455243313135353a206163636f756e747320616e6420696473206c656e677468604482015268040dad2e6dac2e8c6d60bb1b6064820152608490fd5b81356001600160a01b03811681036102f257815290840190840161138a565b346102f25760031960a0368201126102f2576114d86119fb565b906114e1611a11565b6044908135926001600160401b03938481116102f257611505903690600401611afc565b606480358681116102f25761151e903690600401611afc565b9460849687359081116102f257611539903690600401611ba0565b6001600160a01b03948986163314801561186e575b61155790611cc6565b6115648551895114611df0565b858716156115728115611d2a565b868b161561182b575b611776575b60005b8551811015611619578061159a6116149288611c9c565b518c6115a6838d611c9c565b519180600052826020926000845260406000208d82166000528452604060002054906115d483831015611d84565b83600052600085528d60406000209116600052845203604060002055600052600081526040600020908a8c16600052526102b26040600020918254611de3565b611583565b50888a989796949789604051887f4a39dc06d4c0dbc64b70af90fd698a233a518aa5d07e595d983b8c0526c8f7fb89808d169416928061165b87339583611e4d565b0390a4873b61166657005b60405198899788968863bc197c8160e01b9d8e8a523360048b0152166024890152870160a0905260a4870161169a91611bbe565b908487830301908701526116ad91611bbe565b9184830301908401526116bf91611ac0565b03921691815a602094600091f160009181611756575b5061172e57505060016116e6611edb565b6308c379a0146116f7575b6104c957005b6116ff611ef9565b8061170a57506116f1565b60405162461bcd60e51b81526020600482015290819061052b906024830190611ac0565b6001600160e01b0319161461026d5760405162461bcd60e51b81528061052b60048201611e92565b61176f91925060203d81116105b6576105a78183611a7c565b90836116d5565b9796949060009993999692965b855181101561181b576117968187611c9c565b516117a18289611c9c565b519080600052602060038152604060002054918383106117da576117d5949392916003916000525203604060002055611c77565b611783565b508b9067616c537570706c7960c01b8f60008051602061234e8339815191528e6040519462461bcd60e51b8652600486015260286024860152840152820152fd5b5090949697989298959195611580565b99969498959392919060005b8a5181101561185f57808b6102998261185361185a958f611c9c565b5192611c9c565b611837565b5090919293959894969961157b565b50858a16600052600160205260406000203360005260205261155760ff60406000205416905061154e565b346102f25760203660031901126102f257610beb610bd760043561210e565b346102f25760003660031901126102f25760405160006008546118da81611a27565b80845290600190818116908115610c4a575060011461190357610beb84610bd781860382611a7c565b6008600090815292507ff3f7a9fe364faab93b216da50a3214154f22a0a2b415b23a84c8169e8b636ee35b828410611946575050508101602001610bd782610bc7565b8054602085870181019190915290930192810161192e565b346102f25760203660031901126102f25760043563ffffffff60e01b81168091036102f257602090636cdb3d1360e11b81149081156119bb575b81156119aa575b506040519015158152f35b6301ffc9a760e01b1490508261199f565b6303a24d0760e21b81149150611998565b346102f25760403660031901126102f25760206119f36119ea6119fb565b60243590611bf2565b604051908152f35b600435906001600160a01b03821682036102f257565b602435906001600160a01b03821682036102f257565b90600182811c92168015611a57575b6020831014611a4157565b634e487b7160e01b600052602260045260246000fd5b91607f1691611a36565b602081019081106001600160401b0382111761099657604052565b90601f801991011681019081106001600160401b0382111761099657604052565b60005b838110611ab05750506000910152565b8181015183820152602001611aa0565b90602091611ad981518092818552858086019101611a9d565b601f01601f1916010190565b6001600160401b0381116109965760051b60200190565b81601f820112156102f257803591611b1383611ae5565b92611b216040519485611a7c565b808452602092838086019260051b8201019283116102f2578301905b828210611b4b575050505090565b81358152908301908301611b3d565b9291926001600160401b0382116109965760405191611b83601f8201601f191660200184611a7c565b8294818452818301116102f2578281602093846000960137010152565b9080601f830112156102f257816020611bbb93359101611b5a565b90565b90815180825260208080930193019160005b828110611bde575050505090565b835185529381019392810192600101611bd0565b6001600160a01b0316908115611c1f57600052600060205260406000209060005260205260406000205490565b60405162461bcd60e51b815260206004820152602a60248201527f455243313135353a2061646472657373207a65726f206973206e6f742061207660448201526930b634b21037bbb732b960b11b6064820152608490fd5b6000198114611c865760010190565b634e487b7160e01b600052601160045260246000fd5b8051821015611cb05760209160051b010190565b634e487b7160e01b600052603260045260246000fd5b15611ccd57565b60405162461bcd60e51b815260206004820152602f60248201527f455243313135353a2063616c6c6572206973206e6f7420746f6b656e206f776e60448201526e195c881b9bdc88185c1c1c9bdd9959608a1b6064820152608490fd5b15611d3157565b60405162461bcd60e51b815260206004820152602560248201527f455243313135353a207472616e7366657220746f20746865207a65726f206164604482015264647265737360d81b6064820152608490fd5b15611d8b57565b60405162461bcd60e51b815260206004820152602a60248201527f455243313135353a20696e73756666696369656e742062616c616e636520666f60448201526939103a3930b739b332b960b11b6064820152608490fd5b91908201809211611c8657565b15611df757565b60405162461bcd60e51b815260206004820152602860248201527f455243313135353a2069647320616e6420616d6f756e7473206c656e677468206044820152670dad2e6dac2e8c6d60c31b6064820152608490fd5b9091611e64611bbb93604084526040840190611bbe565b916020818403910152611bbe565b908160209103126102f257516001600160e01b0319811681036102f25790565b60809060208152602860208201527f455243313135353a204552433131353552656365697665722072656a656374656040820152676420746f6b656e7360c01b60608201520190565b60009060033d11611ee857565b905060046000803e60005160e01c90565b600060443d10611bbb57604051600319913d83016004833e81516001600160401b03918282113d602484011117611f5657818401948551938411611f5e573d85010160208487010111611f565750611bbb92910160200190611a7c565b949350505050565b50949350505050565b60405190604082018281106001600160401b038211176109965760405260018252602082016020368237825115611cb0575290565b15611fa357565b60405162461bcd60e51b815260206004820152602360248201527f455243313135353a206275726e2066726f6d20746865207a65726f206164647260448201526265737360e81b6064820152608490fd5b15611ffb57565b60405162461bcd60e51b8152602060048201526024808201527f455243313135353a206275726e20616d6f756e7420657863656564732062616c604482015263616e636560e01b6064820152608490fd5b1561205357565b60405162461bcd60e51b815260206004820152602b60248201527f496e697469616c697a61626c653a20636f6e7472616374206973206e6f74206960448201526a6e697469616c697a696e6760a81b6064820152608490fd5b156120b357565b60405162461bcd60e51b815260206004820152602d60248201527f4b617469626568313135353a207265737472696374656420616363657373207460448201526c6f2074686520466163746f727960981b6064820152608490fd5b60009081526020906005825260408120906040519080918354928161213285611a27565b918282528782019660019689888216918260001461232f5750506001146122f1575b5061216192500382611a7c565b80511561223657604051948593836004549161217c83611a27565b9281811690811561221557506001146121b5575b505050506121a6611bbb94839251938491611a9d565b0103601f198101835282611a7c565b909192969450600482527f8a35acfbc15ff81a39ae7d344fd709f28e8600b4aa8c65c6b64bfe7fe36bd19b5b8383106121ff57505050611bbb946121a69185010192943880612190565b80548984018901528896509187019181016121e1565b60ff1916888601525050508015150284010191506121a6611bbb3880612190565b506040516002549094935084928261224d83611a27565b808652928281169081156122cf5750600114612273575b505050611bbb92500382611a7c565b600281527f405787fa12a823e0f2b7631cc41b3ba8828b3321ca811111fa75cd3aa3bb5ace95935091905b8183106122b7575050611bbb9350820101388080612264565b8554878401850152948501948694509183019161229e565b92505050611bbb94925060ff191682840152151560051b820101388080612264565b915050835281868085208686915b858310612316575050612161935082010138612154565b80919294505483858801015201910187908685936122ff565b60ff19168a5261216195151560051b8501019250389150612154905056fe455243313135353a206275726e20616d6f756e74206578636565647320746f74a264697066735822122039ad39761ab192ae6a1b0b7d0c212f04461c55b923e005588bf93ad30a3512c764736f6c63430008110033",
  "linkReferences": {},
  "deployedLinkReferences": {}
}