{
  "_format": "hh-sol-artifact-1",
  "contractName": "QVHash",
  "sourceName": "contracts/QHash/QVHash.sol",
  "abi": [
    {
      "inputs": [
        {
          "components": [
            {
              "internalType": "address",
              "name": "creator",
              "type": "address"
            },
            {
              "internalType": "uint96",
              "name": "signTime",
              "type": "uint96"
            },
            {
              "internalType": "uint256",
              "name": "initTime",
              "type": "uint256"
            },
            {
              "internalType": "string",
              "name": "tokenURI",
              "type": "string"
            },
            {
              "internalType": "bytes",
              "name": "data",
              "type": "bytes"
            },
            {
              "internalType": "uint256[]",
              "name": "toTokenHash",
              "type": "uint256[]"
            },
            {
              "internalType": "bytes32[]",
              "name": "tags",
              "type": "bytes32[]"
            },
            {
              "components": [
                {
                  "internalType": "address payable",
                  "name": "recipient",
                  "type": "address"
                },
                {
                  "internalType": "uint96",
                  "name": "percentInBasisPoints",
                  "type": "uint96"
                }
              ],
              "internalType": "struct PercentSplitETH.Share[]",
              "name": "owners",
              "type": "tuple[]"
            },
            {
              "components": [
                {
                  "internalType": "uint256",
                  "name": "A",
                  "type": "uint256"
                },
                {
                  "internalType": "int256",
                  "name": "B",
                  "type": "int256"
                },
                {
                  "internalType": "int256",
                  "name": "C",
                  "type": "int256"
                },
                {
                  "internalType": "int256",
                  "name": "D",
                  "type": "int256"
                },
                {
                  "internalType": "uint96",
                  "name": "totalSupply",
                  "type": "uint96"
                },
                {
                  "internalType": "uint96",
                  "name": "expTime",
                  "type": "uint96"
                },
                {
                  "internalType": "uint64",
                  "name": "discount",
                  "type": "uint64"
                },
                {
                  "internalType": "uint96",
                  "name": "initTime",
                  "type": "uint96"
                },
                {
                  "internalType": "uint96",
                  "name": "royalty",
                  "type": "uint96"
                },
                {
                  "internalType": "uint256",
                  "name": "chainId",
                  "type": "uint256"
                }
              ],
              "internalType": "struct DataStorage.Pricing[]",
              "name": "pricing",
              "type": "tuple[]"
            }
          ],
          "internalType": "struct DataStorage.Katibeh",
          "name": "katibeh",
          "type": "tuple"
        }
      ],
      "name": "getHash",
      "outputs": [
        {
          "internalType": "bytes32",
          "name": "",
          "type": "bytes32"
        }
      ],
      "stateMutability": "view",
      "type": "function"
    },
    {
      "inputs": [
        {
          "components": [
            {
              "internalType": "address",
              "name": "creator",
              "type": "address"
            },
            {
              "internalType": "uint96",
              "name": "signTime",
              "type": "uint96"
            },
            {
              "internalType": "uint256",
              "name": "initTime",
              "type": "uint256"
            },
            {
              "internalType": "string",
              "name": "tokenURI",
              "type": "string"
            },
            {
              "internalType": "bytes",
              "name": "data",
              "type": "bytes"
            },
            {
              "internalType": "uint256[]",
              "name": "toTokenHash",
              "type": "uint256[]"
            },
            {
              "internalType": "bytes32[]",
              "name": "tags",
              "type": "bytes32[]"
            },
            {
              "components": [
                {
                  "internalType": "address payable",
                  "name": "recipient",
                  "type": "address"
                },
                {
                  "internalType": "uint96",
                  "name": "percentInBasisPoints",
                  "type": "uint96"
                }
              ],
              "internalType": "struct PercentSplitETH.Share[]",
              "name": "owners",
              "type": "tuple[]"
            },
            {
              "components": [
                {
                  "internalType": "uint256",
                  "name": "A",
                  "type": "uint256"
                },
                {
                  "internalType": "int256",
                  "name": "B",
                  "type": "int256"
                },
                {
                  "internalType": "int256",
                  "name": "C",
                  "type": "int256"
                },
                {
                  "internalType": "int256",
                  "name": "D",
                  "type": "int256"
                },
                {
                  "internalType": "uint96",
                  "name": "totalSupply",
                  "type": "uint96"
                },
                {
                  "internalType": "uint96",
                  "name": "expTime",
                  "type": "uint96"
                },
                {
                  "internalType": "uint64",
                  "name": "discount",
                  "type": "uint64"
                },
                {
                  "internalType": "uint96",
                  "name": "initTime",
                  "type": "uint96"
                },
                {
                  "internalType": "uint96",
                  "name": "royalty",
                  "type": "uint96"
                },
                {
                  "internalType": "uint256",
                  "name": "chainId",
                  "type": "uint256"
                }
              ],
              "internalType": "struct DataStorage.Pricing[]",
              "name": "pricing",
              "type": "tuple[]"
            }
          ],
          "internalType": "struct DataStorage.Katibeh",
          "name": "katibeh",
          "type": "tuple"
        },
        {
          "internalType": "bytes",
          "name": "sig",
          "type": "bytes"
        }
      ],
      "name": "hash",
      "outputs": [
        {
          "internalType": "uint256",
          "name": "",
          "type": "uint256"
        }
      ],
      "stateMutability": "view",
      "type": "function"
    }
  ],
  "bytecode": "0x608080604052346100165761087f908161001b8239f35b5f80fdfe60806040526004361015610011575f80fd5b5f803560e01c908163b188820b14610037575063b341496f14610032575f80fd5b6100d8565b346100be5760403660031901126100be5767ffffffffffffffff906004358281116100c15761006a9036906004016100c5565b90602435908382116100be57366023830112156100be5781600401359384116100be5736602485840101116100be576100ba6100aa856024850186610178565b6040519081529081906020820190565b0390f35b80fd5b5080fd5b90816101209103126100d45790565b5f80fd5b346100d45760203660031901126100d45760043567ffffffffffffffff81116100d45761011361010e60209236906004016100c5565b61071b565b604051908152f35b6001600160a01b038116036100d457565b1561013357565b60405162461bcd60e51b815260206004820152601d60248201527f4b6174696265683732313a20496e76616c6964207369676e61747572650000006044820152606490fd5b919061018983359361010e8561011b565b60405160208101917f19457468657265756d205369676e6564204d6573736167653a0a3332000000008352603c820152603c81526101c6816106dd565b5190209267ffffffffffffffff831161023757604051906101f1601f8501601f1916602001836106f9565b83825236848401116100d45761021c82610234968686602061022f9701375f602088840101526107c5565b6001600160a01b0390811691161461012c565b610811565b90565b6106c9565b6001600160601b038116036100d457565b356102348161023c565b634e487b7160e01b5f52601160045260245ffd5b1561027257565b60405162461bcd60e51b815260206004820152603360248201527f4b6174696265683732313a206d6f7265207468616e203120686f75727320736960448201527233b7103a34b6b2903234b33332b932b731b29760691b6064820152608490fd5b156102da57565b60405162461bcd60e51b815260206004820152603260248201527f4b6174696265683732313a207369676e2074696d65206d757374206265206c6560448201527139b9903a3430b71034b734ba103a34b6b29760711b6064820152608490fd5b35906103458261011b565b565b35906103458261023c565b9035601e19823603018112156100d457016020813591019167ffffffffffffffff82116100d45781360383136100d457565b908060209392818452848401375f828201840152601f01601f1916010190565b9035601e19823603018112156100d457016020813591019167ffffffffffffffff82116100d4578160051b360383136100d457565b81835290916001600160fb1b0383116100d45760209260051b809284830137010190565b9035601e19823603018112156100d457016020813591019167ffffffffffffffff82116100d4578160061b360383136100d457565b9190808252602080920192915f905b82821061044f575050505090565b9091929360019085356104618161011b565b828060a01b031681526001600160601b038387013561047f8161023c565b16818401526040908101950193920190610441565b9035601e19823603018112156100d457016020813591019167ffffffffffffffff82116100d4576101408202360383136100d457565b359067ffffffffffffffff821682036100d457565b9190808252602080920192915f905b8282106104fc575050505090565b9091929360019085358152828601358382015260408087013590820152606080870135908201526105426080610533818901610347565b6001600160601b031690830152565b61055260a0610533818901610347565b61057260c06105628189016104ca565b67ffffffffffffffff1690830152565b61058260e0610533818901610347565b610593610100610533818901610347565b61012086810135908201526101409081019501939201906104ee565b9061062561023492602081526105d8602082016105cb8561033a565b6001600160a01b03169052565b6105f76105e760208501610347565b6001600160601b03166040830152565b6040830135606082015261060e6060840184610352565b929061012093846080850152610140840191610384565b906106ba61068d61067061065361063f6080890189610352565b601f19878903810160a08901529791610384565b61066060a08901896103a4565b90878784030160c08801526103d9565b61067d60c08801886103a4565b90868684030160e08701526103d9565b946106b161069e60e08301836103fd565b610100989187878403018a880152610432565b95810190610494565b939092828603019101526104df565b634e487b7160e01b5f52604160045260245ffd5b6060810190811067ffffffffffffffff82111761023757604052565b90601f8019910116810190811067ffffffffffffffff82111761023757604052565b60208101803561072a8161023c565b6001600160601b0390808216610e0f1981018381116107c0578316421015918261079d575b5050610774926107616107669261026b565b61024d565b6040840135911611156102d3565b604051610797816107896020820194856105af565b03601f1981018352826106f9565b51902090565b610e1092506107ab9061023c565b018181116107c057811642108261076161074f565b610257565b906020906080828201519360606040840151930151925f958694604051938452851a868401526040830152606082015282805260015afa15610805575190565b604051903d90823e3d90fd5b90610797602c6040518381946020830196873781016b39b0b6b0b7103bb4b639b7b760a11b602082015203600c8101845201826106f956fea2646970667358221220988252343e1bbeb94883805523c68d6f6f7e523ea074c28e9547f68d4ac3ae0664736f6c63430008150033",
  "linkReferences": {},
  "deployedLinkReferences": {}
}