{
  "_format": "hh-sol-artifact-1",
  "contractName": "QVHash",
  "sourceName": "contracts/QHash/QVHash.sol",
  "abi": [
    {
      "inputs": [
        {
          "components": [
            {
              "internalType": "address",
              "name": "creator",
              "type": "address"
            },
            {
              "internalType": "uint96",
              "name": "signTime",
              "type": "uint96"
            },
            {
              "internalType": "string",
              "name": "tokenURI",
              "type": "string"
            },
            {
              "internalType": "bytes",
              "name": "data",
              "type": "bytes"
            },
            {
              "internalType": "uint256[]",
              "name": "toTokenHash",
              "type": "uint256[]"
            },
            {
              "internalType": "bytes32[]",
              "name": "tags",
              "type": "bytes32[]"
            },
            {
              "components": [
                {
                  "internalType": "address payable",
                  "name": "recipient",
                  "type": "address"
                },
                {
                  "internalType": "uint96",
                  "name": "percentInBasisPoints",
                  "type": "uint96"
                }
              ],
              "internalType": "struct SplitterForOwners.Share[]",
              "name": "owners",
              "type": "tuple[]"
            },
            {
              "components": [
                {
                  "internalType": "uint256",
                  "name": "A",
                  "type": "uint256"
                },
                {
                  "internalType": "int256",
                  "name": "B",
                  "type": "int256"
                },
                {
                  "internalType": "uint96",
                  "name": "totalSupply",
                  "type": "uint96"
                },
                {
                  "internalType": "uint96",
                  "name": "expTime",
                  "type": "uint96"
                },
                {
                  "internalType": "uint64",
                  "name": "discount",
                  "type": "uint64"
                },
                {
                  "internalType": "uint96",
                  "name": "initTime",
                  "type": "uint96"
                },
                {
                  "internalType": "uint96",
                  "name": "royalty",
                  "type": "uint96"
                },
                {
                  "internalType": "uint256",
                  "name": "chainId",
                  "type": "uint256"
                }
              ],
              "internalType": "struct DataStorage.Pricing[]",
              "name": "pricing",
              "type": "tuple[]"
            }
          ],
          "internalType": "struct DataStorage.Katibeh",
          "name": "katibeh",
          "type": "tuple"
        }
      ],
      "name": "getHash",
      "outputs": [
        {
          "internalType": "bytes32",
          "name": "",
          "type": "bytes32"
        }
      ],
      "stateMutability": "view",
      "type": "function"
    },
    {
      "inputs": [
        {
          "components": [
            {
              "internalType": "address",
              "name": "creator",
              "type": "address"
            },
            {
              "internalType": "uint96",
              "name": "signTime",
              "type": "uint96"
            },
            {
              "internalType": "string",
              "name": "tokenURI",
              "type": "string"
            },
            {
              "internalType": "bytes",
              "name": "data",
              "type": "bytes"
            },
            {
              "internalType": "uint256[]",
              "name": "toTokenHash",
              "type": "uint256[]"
            },
            {
              "internalType": "bytes32[]",
              "name": "tags",
              "type": "bytes32[]"
            },
            {
              "components": [
                {
                  "internalType": "address payable",
                  "name": "recipient",
                  "type": "address"
                },
                {
                  "internalType": "uint96",
                  "name": "percentInBasisPoints",
                  "type": "uint96"
                }
              ],
              "internalType": "struct SplitterForOwners.Share[]",
              "name": "owners",
              "type": "tuple[]"
            },
            {
              "components": [
                {
                  "internalType": "uint256",
                  "name": "A",
                  "type": "uint256"
                },
                {
                  "internalType": "int256",
                  "name": "B",
                  "type": "int256"
                },
                {
                  "internalType": "uint96",
                  "name": "totalSupply",
                  "type": "uint96"
                },
                {
                  "internalType": "uint96",
                  "name": "expTime",
                  "type": "uint96"
                },
                {
                  "internalType": "uint64",
                  "name": "discount",
                  "type": "uint64"
                },
                {
                  "internalType": "uint96",
                  "name": "initTime",
                  "type": "uint96"
                },
                {
                  "internalType": "uint96",
                  "name": "royalty",
                  "type": "uint96"
                },
                {
                  "internalType": "uint256",
                  "name": "chainId",
                  "type": "uint256"
                }
              ],
              "internalType": "struct DataStorage.Pricing[]",
              "name": "pricing",
              "type": "tuple[]"
            }
          ],
          "internalType": "struct DataStorage.Katibeh",
          "name": "katibeh",
          "type": "tuple"
        },
        {
          "internalType": "bytes",
          "name": "sig",
          "type": "bytes"
        }
      ],
      "name": "hash",
      "outputs": [
        {
          "internalType": "uint256",
          "name": "",
          "type": "uint256"
        }
      ],
      "stateMutability": "view",
      "type": "function"
    }
  ],
  "bytecode": "0x60808060405234610016576107d0908161001b8239f35b5f80fdfe60806040526004361015610011575f80fd5b5f803560e01c9081632fc1dfc714610037575063592e191614610032575f80fd5b6100d8565b346100be5760403660031901126100be5767ffffffffffffffff906004358281116100c15761006a9036906004016100c5565b90602435908382116100be57366023830112156100be5781600401359384116100be5736602485840101116100be576100ba6100aa856024850186610178565b6040519081529081906020820190565b0390f35b80fd5b5080fd5b90816101009103126100d45790565b5f80fd5b346100d45760203660031901126100d45760043567ffffffffffffffff81116100d45761011361010e60209236906004016100c5565b61062b565b604051908152f35b6001600160a01b038116036100d457565b1561013357565b60405162461bcd60e51b815260206004820152601d60248201527f4b6174696265683732313a20496e76616c6964207369676e61747572650000006044820152606490fd5b919061018983359361010e8561011b565b60405160208101917f19457468657265756d205369676e6564204d6573736167653a0a3332000000008352603c820152603c81526101c6816105ed565b5190209267ffffffffffffffff831161023757604051906101f1601f8501601f191660200183610609565b83825236848401116100d45761021c82610234968686602061022f9701375f60208884010152610716565b6001600160a01b0390811691161461012c565b610762565b90565b6105d9565b6001600160601b038116036100d457565b634e487b7160e01b5f52601160045260245ffd5b359061026c8261011b565b565b359061026c8261023c565b9035601e19823603018112156100d457016020813591019167ffffffffffffffff82116100d45781360383136100d457565b908060209392818452848401375f828201840152601f01601f1916010190565b9035601e19823603018112156100d457016020813591019167ffffffffffffffff82116100d4578160051b360383136100d457565b81835290916001600160fb1b0383116100d45760209260051b809284830137010190565b9035601e19823603018112156100d457016020813591019167ffffffffffffffff82116100d4578160061b360383136100d457565b9190808252602080920192915f905b828210610376575050505090565b9091929360019085356103888161011b565b828060a01b031681526001600160601b03838701356103a68161023c565b16818401526040908101950193920190610368565b9035601e19823603018112156100d457016020813591019167ffffffffffffffff82116100d4578160081b360383136100d457565b359067ffffffffffffffff821682036100d457565b9190808252602080920192915f905b828210610422575050505090565b9091929360019085358152828601358382015260406001600160601b038188013561044c8161023c565b1690820152610470606061046181890161026e565b6001600160601b031690830152565b61049060806104808189016103f0565b67ffffffffffffffff1690830152565b6104a060a061046181890161026e565b6104b060c061046181890161026e565b60e08681013590820152610100908101950193920190610414565b9061053761023492602081526104f4602082016104e785610261565b6001600160a01b03169052565b6105136105036020850161026e565b6001600160601b03166040830152565b6105206040840184610279565b9290610100938460608501526101208401916102ab565b906105ca6105bf6105a261058561056861055460608a018a610279565b601f19888a03810160808a015298916102ab565b61057560808a018a6102cb565b90888884030160a0890152610300565b61059260a08901896102cb565b90878784030160c0880152610300565b6105af60c0880188610324565b90868684030160e0870152610359565b9460e08101906103bb565b93909282860301910152610405565b634e487b7160e01b5f52604160045260245ffd5b6060810190811067ffffffffffffffff82111761023757604052565b90601f8019910116810190811067ffffffffffffffff82111761023757604052565b60208101356106398161023c565b6001600160601b03818116610e0f19810182811161071157821642101592836106ef575b5050501561068e576040516106888161067a6020820194856104cb565b03601f198101835282610609565b51902090565b60405162461bcd60e51b815260206004820152603360248201527f4b6174696265683732313a206d6f7265207468616e203120686f75727320736960448201527233b7103a34b6b2903234b33332b932b731b29760691b6064820152608490fd5b610e109293506106fe9061023c565b01818111610711571642105f808061065d565b61024d565b906020906080828201519360606040840151930151925f958694604051938452851a868401526040830152606082015282805260015afa15610756575190565b604051903d90823e3d90fd5b90610688602c6040518381946020830196873781016b39b0b6b0b7103bb4b639b7b760a11b602082015203600c81018452018261060956fea26469706673582212207eb402b20852ee9b2a1a2029e646160256f3c10dc6e8dafd16dea087891ef55664736f6c63430008150033",
  "linkReferences": {},
  "deployedLinkReferences": {}
}