{
  "_format": "hh-sol-artifact-1",
  "contractName": "Test",
  "sourceName": "contracts/Test.sol",
  "abi": [
    {
      "inputs": [],
      "name": "a",
      "outputs": [
        {
          "internalType": "uint256",
          "name": "",
          "type": "uint256"
        }
      ],
      "stateMutability": "view",
      "type": "function"
    },
    {
      "inputs": [
        {
          "internalType": "address",
          "name": "",
          "type": "address"
        }
      ],
      "name": "balance",
      "outputs": [
        {
          "internalType": "uint256",
          "name": "",
          "type": "uint256"
        }
      ],
      "stateMutability": "view",
      "type": "function"
    },
    {
      "inputs": [
        {
          "internalType": "uint256",
          "name": "_a",
          "type": "uint256"
        }
      ],
      "name": "set",
      "outputs": [],
      "stateMutability": "payable",
      "type": "function"
    },
    {
      "inputs": [],
      "name": "withdraw",
      "outputs": [],
      "stateMutability": "nonpayable",
      "type": "function"
    }
  ],
  "bytecode": "0x6080806040523461001657610169908161001c8239f35b600080fdfe60806040818152600436101561001457600080fd5b600091823560e01c9081630dbe671f14610119575080633ccfd60b146100d157806360fe47b1146100905763e3d670d71461004e57600080fd5b3461008c57602036600319011261008c576004356001600160a01b0381169081900361008857828291602094526001845220549051908152f35b8280fd5b5080fd5b50602036600319011261008c57338252600160205281208054903482018092116100bd5755600435815580f35b634e487b7160e01b83526011600452602483fd5b503461008c578160031936011261008c5733825260016020528180808084812054818115610110575b3390f115610106575080f35b51903d90823e3d90fd5b506108fc6100fa565b83903461008c578160031936011261008c57602091548152f3fea264697066735822122076ddde825178891abd21187e4a210c60dabfec82a18b3ec6d07013a35749e06d64736f6c63430008110033",
  "linkReferences": {},
  "deployedLinkReferences": {}
}