{
  "_format": "hh-sol-artifact-1",
  "contractName": "Test",
  "sourceName": "contracts/Test.sol",
  "abi": [
    {
      "inputs": [],
      "name": "a",
      "outputs": [
        {
          "internalType": "uint256",
          "name": "",
          "type": "uint256"
        }
      ],
      "stateMutability": "view",
      "type": "function"
    },
    {
      "inputs": [
        {
          "internalType": "address",
          "name": "",
          "type": "address"
        }
      ],
      "name": "balance",
      "outputs": [
        {
          "internalType": "uint256",
          "name": "",
          "type": "uint256"
        }
      ],
      "stateMutability": "view",
      "type": "function"
    },
    {
      "inputs": [
        {
          "internalType": "uint256",
          "name": "_a",
          "type": "uint256"
        }
      ],
      "name": "set",
      "outputs": [],
      "stateMutability": "payable",
      "type": "function"
    },
    {
      "inputs": [],
      "name": "withdraw",
      "outputs": [],
      "stateMutability": "nonpayable",
      "type": "function"
    }
  ],
  "bytecode": "0x6080806040523461001657610206908161001c8239f35b600080fdfe60806040818152600436101561001457600080fd5b600091823560e01c9081630dbe671f14610198575080633ccfd60b1461013257806360fe47b1146100ba5763e3d670d71461004e57600080fd5b346100b65760207ffffffffffffffffffffffffffffffffffffffffffffffffffffffffffffffffc3601126100b65760043573ffffffffffffffffffffffffffffffffffffffff81168091036100b257828291602094526001845220549051908152f35b8280fd5b5080fd5b5060207ffffffffffffffffffffffffffffffffffffffffffffffffffffffffffffffffc3601126100b657338252600160205281208054903482018092116101055755600435815580f35b6024837f4e487b710000000000000000000000000000000000000000000000000000000081526011600452fd5b50346100b657817ffffffffffffffffffffffffffffffffffffffffffffffffffffffffffffffffc3601126100b6573382526001602052818080808481205481811561018f575b3390f115610185575080f35b51903d90823e3d90fd5b506108fc610179565b8390346100b657817ffffffffffffffffffffffffffffffffffffffffffffffffffffffffffffffffc3601126100b657602091548152f3fea2646970667358221220ab164cbc6ac174efed6d9510f3e352e4bfed2b2a088ba127ca1b35c66a46c0d464736f6c63430008130033",
  "linkReferences": {},
  "deployedLinkReferences": {}
}